{
  "address": "0x2b4977254B970586227224DD42796286445D87AE",
  "abi": [
    {
      "inputs": [],
      "name": "ActivePool__NotAuthorizedContract",
      "type": "error"
    },
    {
      "inputs": [
        {
          "internalType": "address",
          "name": "target",
          "type": "address"
        }
      ],
      "name": "AddressEmptyCode",
      "type": "error"
    },
    {
      "inputs": [
        {
          "internalType": "address",
          "name": "account",
          "type": "address"
        }
      ],
      "name": "AddressInsufficientBalance",
      "type": "error"
    },
    {
      "inputs": [],
      "name": "ConfigurableAddresses__CommunityIssuanceZeroAddress",
      "type": "error"
    },
    {
      "inputs": [],
      "name": "ConfigurableAddresses__LengthMismatch",
      "type": "error"
    },
    {
      "inputs": [],
      "name": "ConfigurableAddresses__SetupIsInitialized",
      "type": "error"
    },
    {
      "inputs": [],
      "name": "ConfigurableAddresses__TRENStakingZeroAddress",
      "type": "error"
    },
    {
      "inputs": [
        {
          "internalType": "uint256",
          "name": "position",
          "type": "uint256"
        },
        {
          "internalType": "address",
          "name": "address_",
          "type": "address"
        }
      ],
      "name": "ConfigurableAddresses__ZeroAddresses",
      "type": "error"
    },
    {
      "inputs": [
        {
          "internalType": "address",
          "name": "implementation",
          "type": "address"
        }
      ],
      "name": "ERC1967InvalidImplementation",
      "type": "error"
    },
    {
      "inputs": [],
      "name": "ERC1967NonPayable",
      "type": "error"
    },
    {
      "inputs": [],
      "name": "EthUnsupportedError",
      "type": "error"
    },
    {
      "inputs": [],
      "name": "FailedInnerCall",
      "type": "error"
    },
    {
      "inputs": [],
      "name": "InvalidAmountError",
      "type": "error"
    },
    {
      "inputs": [],
      "name": "InvalidInitialization",
      "type": "error"
    },
    {
      "inputs": [],
      "name": "NotInitializing",
      "type": "error"
    },
    {
      "inputs": [
        {
          "internalType": "address",
          "name": "owner",
          "type": "address"
        }
      ],
      "name": "OwnableInvalidOwner",
      "type": "error"
    },
    {
      "inputs": [
        {
          "internalType": "address",
          "name": "account",
          "type": "address"
        }
      ],
      "name": "OwnableUnauthorizedAccount",
      "type": "error"
    },
    {
      "inputs": [],
      "name": "ReentrancyGuardReentrantCall",
      "type": "error"
    },
    {
      "inputs": [
        {
          "internalType": "address",
          "name": "token",
          "type": "address"
        }
      ],
      "name": "SafeERC20FailedOperation",
      "type": "error"
    },
    {
      "inputs": [],
      "name": "UUPSUnauthorizedCallContext",
      "type": "error"
    },
    {
      "inputs": [
        {
          "internalType": "bytes32",
          "name": "slot",
          "type": "bytes32"
        }
      ],
      "name": "UUPSUnsupportedProxiableUUID",
      "type": "error"
    },
    {
      "anonymous": false,
      "inputs": [
        {
          "indexed": false,
          "internalType": "address",
          "name": "_asset",
          "type": "address"
        },
        {
          "indexed": false,
          "internalType": "uint256",
          "name": "_balance",
          "type": "uint256"
        }
      ],
      "name": "ActivePoolAssetBalanceUpdated",
      "type": "event"
    },
    {
      "anonymous": false,
      "inputs": [
        {
          "indexed": false,
          "internalType": "address",
          "name": "_asset",
          "type": "address"
        },
        {
          "indexed": false,
          "internalType": "uint256",
          "name": "_debtTokenAmount",
          "type": "uint256"
        }
      ],
      "name": "ActivePoolDebtUpdated",
      "type": "event"
    },
    {
      "anonymous": false,
      "inputs": [
        {
          "indexed": false,
          "internalType": "address",
          "name": "_to",
          "type": "address"
        },
        {
          "indexed": true,
          "internalType": "address",
          "name": "_asset",
          "type": "address"
        },
        {
          "indexed": false,
          "internalType": "uint256",
          "name": "_amount",
          "type": "uint256"
        }
      ],
      "name": "AssetSent",
      "type": "event"
    },
    {
      "anonymous": false,
      "inputs": [
        {
          "indexed": false,
          "internalType": "uint64",
          "name": "version",
          "type": "uint64"
        }
      ],
      "name": "Initialized",
      "type": "event"
    },
    {
      "anonymous": false,
      "inputs": [
        {
          "indexed": true,
          "internalType": "address",
          "name": "previousOwner",
          "type": "address"
        },
        {
          "indexed": true,
          "internalType": "address",
          "name": "newOwner",
          "type": "address"
        }
      ],
      "name": "OwnershipTransferred",
      "type": "event"
    },
    {
      "anonymous": false,
      "inputs": [
        {
          "indexed": true,
          "internalType": "address",
          "name": "implementation",
          "type": "address"
        }
      ],
      "name": "Upgraded",
      "type": "event"
    },
    {
      "inputs": [],
      "name": "NAME",
      "outputs": [
        {
          "internalType": "string",
          "name": "",
          "type": "string"
        }
      ],
      "stateMutability": "view",
      "type": "function"
    },
    {
      "inputs": [],
      "name": "UPGRADE_INTERFACE_VERSION",
      "outputs": [
        {
          "internalType": "string",
          "name": "",
          "type": "string"
        }
      ],
      "stateMutability": "view",
      "type": "function"
    },
    {
      "inputs": [],
      "name": "activePool",
      "outputs": [
        {
          "internalType": "address",
          "name": "",
          "type": "address"
        }
      ],
      "stateMutability": "view",
      "type": "function"
    },
    {
      "inputs": [],
      "name": "adminContract",
      "outputs": [
        {
          "internalType": "address",
          "name": "",
          "type": "address"
        }
      ],
      "stateMutability": "view",
      "type": "function"
    },
    {
      "inputs": [
        {
          "internalType": "address",
          "name": "newImplementation",
          "type": "address"
        }
      ],
      "name": "authorizeUpgrade",
      "outputs": [],
      "stateMutability": "nonpayable",
      "type": "function"
    },
    {
      "inputs": [],
      "name": "borrowerOperations",
      "outputs": [
        {
          "internalType": "address",
          "name": "",
          "type": "address"
        }
      ],
      "stateMutability": "view",
      "type": "function"
    },
    {
      "inputs": [],
      "name": "collSurplusPool",
      "outputs": [
        {
          "internalType": "address",
          "name": "",
          "type": "address"
        }
      ],
      "stateMutability": "view",
      "type": "function"
    },
    {
      "inputs": [],
      "name": "communityIssuance",
      "outputs": [
        {
          "internalType": "address",
          "name": "",
          "type": "address"
        }
      ],
      "stateMutability": "view",
      "type": "function"
    },
    {
      "inputs": [],
      "name": "debtToken",
      "outputs": [
        {
          "internalType": "address",
          "name": "",
          "type": "address"
        }
      ],
      "stateMutability": "view",
      "type": "function"
    },
    {
      "inputs": [
        {
          "internalType": "address",
          "name": "_asset",
          "type": "address"
        },
        {
          "internalType": "uint256",
          "name": "_amount",
          "type": "uint256"
        }
      ],
      "name": "decreaseDebt",
      "outputs": [],
      "stateMutability": "nonpayable",
      "type": "function"
    },
    {
      "inputs": [],
      "name": "defaultPool",
      "outputs": [
        {
          "internalType": "address",
          "name": "",
          "type": "address"
        }
      ],
      "stateMutability": "view",
      "type": "function"
    },
    {
      "inputs": [],
      "name": "feeCollector",
      "outputs": [
        {
          "internalType": "address",
          "name": "",
          "type": "address"
        }
      ],
      "stateMutability": "view",
      "type": "function"
    },
    {
      "inputs": [],
      "name": "flashLoanAddress",
      "outputs": [
        {
          "internalType": "address",
          "name": "",
          "type": "address"
        }
      ],
      "stateMutability": "view",
      "type": "function"
    },
    {
      "inputs": [],
      "name": "gasPoolAddress",
      "outputs": [
        {
          "internalType": "address",
          "name": "",
          "type": "address"
        }
      ],
      "stateMutability": "view",
      "type": "function"
    },
    {
      "inputs": [
        {
          "internalType": "address",
          "name": "_asset",
          "type": "address"
        }
      ],
      "name": "getAssetBalance",
      "outputs": [
        {
          "internalType": "uint256",
          "name": "",
          "type": "uint256"
        }
      ],
      "stateMutability": "view",
      "type": "function"
    },
    {
      "inputs": [
        {
          "internalType": "address",
          "name": "_asset",
          "type": "address"
        }
      ],
      "name": "getDebtTokenBalance",
      "outputs": [
        {
          "internalType": "uint256",
          "name": "",
          "type": "uint256"
        }
      ],
      "stateMutability": "view",
      "type": "function"
    },
    {
      "inputs": [
        {
          "internalType": "address",
          "name": "_collateral",
          "type": "address"
        },
        {
          "internalType": "uint256",
          "name": "_amount",
          "type": "uint256"
        }
      ],
      "name": "increaseDebt",
      "outputs": [],
      "stateMutability": "nonpayable",
      "type": "function"
    },
    {
      "inputs": [],
      "name": "initialize",
      "outputs": [],
      "stateMutability": "nonpayable",
      "type": "function"
    },
    {
      "inputs": [],
      "name": "isAddressSetupInitialized",
      "outputs": [
        {
          "internalType": "bool",
          "name": "",
          "type": "bool"
        }
      ],
      "stateMutability": "view",
      "type": "function"
    },
    {
      "inputs": [],
      "name": "owner",
      "outputs": [
        {
          "internalType": "address",
          "name": "",
          "type": "address"
        }
      ],
      "stateMutability": "view",
      "type": "function"
    },
    {
      "inputs": [],
      "name": "priceFeed",
      "outputs": [
        {
          "internalType": "address",
          "name": "",
          "type": "address"
        }
      ],
      "stateMutability": "view",
      "type": "function"
    },
    {
      "inputs": [],
      "name": "proxiableUUID",
      "outputs": [
        {
          "internalType": "bytes32",
          "name": "",
          "type": "bytes32"
        }
      ],
      "stateMutability": "view",
      "type": "function"
    },
    {
      "inputs": [
        {
          "internalType": "address",
          "name": "_asset",
          "type": "address"
        },
        {
          "internalType": "uint256",
          "name": "_amount",
          "type": "uint256"
        }
      ],
      "name": "receivedERC20",
      "outputs": [],
      "stateMutability": "nonpayable",
      "type": "function"
    },
    {
      "inputs": [],
      "name": "renounceOwnership",
      "outputs": [],
      "stateMutability": "nonpayable",
      "type": "function"
    },
    {
      "inputs": [
        {
          "internalType": "address",
          "name": "_asset",
          "type": "address"
        },
        {
          "internalType": "address",
          "name": "_account",
          "type": "address"
        },
        {
          "internalType": "uint256",
          "name": "_amount",
          "type": "uint256"
        }
      ],
      "name": "sendAsset",
      "outputs": [],
      "stateMutability": "nonpayable",
      "type": "function"
    },
    {
      "inputs": [
        {
          "internalType": "address[]",
          "name": "_addresses",
          "type": "address[]"
        }
      ],
      "name": "setAddresses",
      "outputs": [],
      "stateMutability": "nonpayable",
      "type": "function"
    },
    {
      "inputs": [
        {
          "internalType": "address",
          "name": "_communityIssuance",
          "type": "address"
        }
      ],
      "name": "setCommunityIssuance",
      "outputs": [],
      "stateMutability": "nonpayable",
      "type": "function"
    },
    {
      "inputs": [
        {
          "internalType": "address",
          "name": "_trenStaking",
          "type": "address"
        }
      ],
      "name": "setTRENStaking",
      "outputs": [],
      "stateMutability": "nonpayable",
      "type": "function"
    },
    {
      "inputs": [],
      "name": "sortedTrenBoxes",
      "outputs": [
        {
          "internalType": "address",
          "name": "",
          "type": "address"
        }
      ],
      "stateMutability": "view",
      "type": "function"
    },
    {
      "inputs": [],
      "name": "stabilityPool",
      "outputs": [
        {
          "internalType": "address",
          "name": "",
          "type": "address"
        }
      ],
      "stateMutability": "view",
      "type": "function"
    },
    {
      "inputs": [],
      "name": "timelockAddress",
      "outputs": [
        {
          "internalType": "address",
          "name": "",
          "type": "address"
        }
      ],
      "stateMutability": "view",
      "type": "function"
    },
    {
      "inputs": [
        {
          "internalType": "address",
          "name": "newOwner",
          "type": "address"
        }
      ],
      "name": "transferOwnership",
      "outputs": [],
      "stateMutability": "nonpayable",
      "type": "function"
    },
    {
      "inputs": [],
      "name": "treasuryAddress",
      "outputs": [
        {
          "internalType": "address",
          "name": "",
          "type": "address"
        }
      ],
      "stateMutability": "view",
      "type": "function"
    },
    {
      "inputs": [],
      "name": "trenBoxManager",
      "outputs": [
        {
          "internalType": "address",
          "name": "",
          "type": "address"
        }
      ],
      "stateMutability": "view",
      "type": "function"
    },
    {
      "inputs": [],
      "name": "trenBoxManagerOperations",
      "outputs": [
        {
          "internalType": "address",
          "name": "",
          "type": "address"
        }
      ],
      "stateMutability": "view",
      "type": "function"
    },
    {
      "inputs": [],
      "name": "trenStaking",
      "outputs": [
        {
          "internalType": "address",
          "name": "",
          "type": "address"
        }
      ],
      "stateMutability": "view",
      "type": "function"
    },
    {
      "inputs": [
        {
          "internalType": "address",
          "name": "newImplementation",
          "type": "address"
        },
        {
          "internalType": "bytes",
          "name": "data",
          "type": "bytes"
        }
      ],
      "name": "upgradeToAndCall",
      "outputs": [],
      "stateMutability": "payable",
      "type": "function"
    }
  ],
  "transactionHash": "0x0df2cac094cd89f77acd08380c27038ce64e2a3ffa3dda12c12ab4af0678435c",
  "args": [],
  "numDeployments": 1,
  "solcInputHash": "76f2ac0d2a40f527e6541dfc9894b953",
  "bytecode": "0x60a06040523060805234801561001457600080fd5b50608051611ffe61003e600039600081816115de0152818161160701526117480152611ffe6000f3fe60806040526004361061021a5760003560e01c80638da5cb5b11610123578063c8564c62116100ab578063f2fde38b1161006f578063f2fde38b146106ac578063f8585db3146106cc578063f8d89898146106ec578063fe0607331461070c578063fe9d03231461072c57600080fd5b8063c8564c62146105fb578063cc8b21e41461062c578063cda775f91461064c578063eb16f0041461066c578063f1c05a7e1461068c57600080fd5b8063b9571721116100f2578063b957172114610545578063c05c5e9414610565578063c415b95c14610585578063c5739d0b146105a5578063c5f956af146105db57600080fd5b80638da5cb5b1461047457806395fb16bb146104b1578063a3f4df7e146104d1578063ad3cb1cc1461051457600080fd5b806352d1902d116101a6578063715018a611610175578063715018a6146103ea578063741bef1a146103ff57806377553ad41461041f5780637f7dde4a1461043f5780638129fc1c1461045f57600080fd5b806352d1902d146103515780635373433f1461037457806355dafa46146103aa5780636a85d67d146103ca57600080fd5b80633cc74225116101ed5780633cc74225146102be5780634169467d146102de57806347878f15146102fe5780634bc66f321461031e5780634f1ef2861461033e57600080fd5b806301c931001461021f578063048c661d146102415780630a34d4d61461027e5780632fb9ba311461029e575b600080fd5b34801561022b57600080fd5b5061023f61023a366004611b7f565b61074c565b005b34801561024d57600080fd5b50600d54610261906001600160a01b031681565b6040516001600160a01b0390911681526020015b60405180910390f35b34801561028a57600080fd5b50601154610261906001600160a01b031681565b3480156102aa57600080fd5b5061023f6102b9366004611b9a565b61079d565b3480156102ca57600080fd5b50600654610261906001600160a01b031681565b3480156102ea57600080fd5b50600854610261906001600160a01b031681565b34801561030a57600080fd5b5061023f610319366004611bc4565b610879565b34801561032a57600080fd5b50600e54610261906001600160a01b031681565b61023f61034c366004611c16565b610a86565b34801561035d57600080fd5b50610366610aa5565b604051908152602001610275565b34801561038057600080fd5b5061036661038f366004611b7f565b6001600160a01b031660009081526033602052604090205490565b3480156103b657600080fd5b50600a54610261906001600160a01b031681565b3480156103d657600080fd5b5061023f6103e5366004611b7f565b610ac2565b3480156103f657600080fd5b5061023f610b13565b34801561040b57600080fd5b50600b54610261906001600160a01b031681565b34801561042b57600080fd5b50600254610261906001600160a01b031681565b34801561044b57600080fd5b50600054610261906001600160a01b031681565b34801561046b57600080fd5b5061023f610b27565b34801561048057600080fd5b507f9016d09d72d40fdae2fd8ceac6b6234c7706214fd39c1cd1e609a0528c199300546001600160a01b0316610261565b3480156104bd57600080fd5b50600454610261906001600160a01b031681565b3480156104dd57600080fd5b506105076040518060400160405280600a8152602001691058dd1a5d99541bdbdb60b21b81525081565b6040516102759190611cfc565b34801561052057600080fd5b50610507604051806040016040528060058152602001640352e302e360dc1b81525081565b34801561055157600080fd5b5061023f610560366004611d2f565b610c48565b34801561057157600080fd5b50600154610261906001600160a01b031681565b34801561059157600080fd5b50600754610261906001600160a01b031681565b3480156105b157600080fd5b506103666105c0366004611b7f565b6001600160a01b031660009081526034602052604090205490565b3480156105e757600080fd5b50600f54610261906001600160a01b031681565b34801561060757600080fd5b5060115461061c90600160a01b900460ff1681565b6040519015158152602001610275565b34801561063857600080fd5b50600c54610261906001600160a01b031681565b34801561065857600080fd5b50600354610261906001600160a01b031681565b34801561067857600080fd5b5061023f610687366004611b9a565b6111c9565b34801561069857600080fd5b50601054610261906001600160a01b031681565b3480156106b857600080fd5b5061023f6106c7366004611b7f565b611285565b3480156106d857600080fd5b5061023f6106e7366004611b9a565b6112c3565b3480156106f857600080fd5b50600554610261906001600160a01b031681565b34801561071857600080fd5b5061023f610727366004611b7f565b61132b565b34801561073857600080fd5b50600954610261906001600160a01b031681565b610754611334565b6001600160a01b03811661077b576040516385d3330760e01b815260040160405180910390fd5b600a80546001600160a01b0319166001600160a01b0392909216919091179055565b6002546001600160a01b031633148015906107c35750600d546001600160a01b03163314155b80156107da57506010546001600160a01b03163314155b156107f857604051631fccb59360e21b815260040160405180910390fd5b6001600160a01b03821660009081526034602052604081205461081c908390611dba565b6001600160a01b038416600081815260346020908152604091829020849055815192835282018390529192507fba3cba821ede632a9d6a3901362b7515d545b577b21c90002327f209f05afb4f91015b60405180910390a1505050565b61088161138f565b6002546001600160a01b031633148015906108a75750600d546001600160a01b03163314155b80156108be57506010546001600160a01b03163314155b80156108d557506011546001600160a01b03163314155b156108f357604051631fccb59360e21b815260040160405180910390fd5b60006108ff84836113d9565b90508060000361090f5750610a58565b6001600160a01b038416600090815260336020526040812054610933908490611dba565b6001600160a01b038616600081815260336020526040902082905590915061095c908584611514565b61096584611566565b156109cd57604051633ac5bc0160e21b81526001600160a01b0386811660048301526024820185905285169063eb16f00490604401600060405180830381600087803b1580156109b457600080fd5b505af11580156109c8573d6000803e3d6000fd5b505050505b604080516001600160a01b0387168152602081018390527fd9d22224b27bb4fd824c68076d2a2f5ecbe57af6aadc3564516e4d14dd0930f9910160405180910390a1604080516001600160a01b038681168252602082018590528716917ff89c3306c782ffbbe4593aa5673e97e9ad6a8c65d240405e8986363fada66392910160405180910390a250505b610a8160017f9b779b17422d0df92223018b32b4d1fa46e071723d6817e2486d003becc55f0055565b505050565b610a8e6115d3565b610a9782611678565b610aa18282611680565b5050565b6000610aaf61173d565b50600080516020611fd283398151915290565b610aca611334565b6001600160a01b038116610af15760405163706ebc6560e11b815260040160405180910390fd5b600480546001600160a01b0319166001600160a01b0392909216919091179055565b610b1b611334565b610b256000611786565b565b7ff0c57e16840df040f15088dc2f81fe391c3923bec73e23a9662efc9c229c6a008054600160401b810460ff16159067ffffffffffffffff16600081158015610b6d5750825b905060008267ffffffffffffffff166001148015610b8a5750303b155b905081158015610b98575080155b15610bb65760405163f92ee8a960e01b815260040160405180910390fd5b845467ffffffffffffffff191660011785558315610be057845460ff60401b1916600160401b1785555b33610bea816117f7565b610bf2611808565b610bfa611818565b508315610c4157845460ff60401b19168555604051600181527fc7f505b2f371ae2175ee4913f4499e1f2633a7b5936321eed1cdaeb6115181d29060200160405180910390a15b5050505050565b610c50611334565b601154600160a01b900460ff1615610c7a57604051625f22e960e41b815260040160405180910390fd5b60108114610c9b57604051633f5a111d60e21b815260040160405180910390fd5b60005b6010811015610d3e576000838383818110610cbb57610cbb611dcd565b9050602002016020810190610cd09190611b7f565b6001600160a01b031603610d365780838383818110610cf157610cf1611dcd565b9050602002016020810190610d069190611b7f565b604051630d9d339f60e01b815260048101929092526001600160a01b031660248201526044015b60405180910390fd5b600101610c9e565b5081816000818110610d5257610d52611dcd565b9050602002016020810190610d679190611b7f565b600080546001600160a01b0319166001600160a01b039290921691909117905581816001818110610d9a57610d9a611dcd565b9050602002016020810190610daf9190611b7f565b600180546001600160a01b0319166001600160a01b039290921691909117905581816002818110610de257610de2611dcd565b9050602002016020810190610df79190611b7f565b600280546001600160a01b0319166001600160a01b039290921691909117905581816003818110610e2a57610e2a611dcd565b9050602002016020810190610e3f9190611b7f565b600380546001600160a01b0319166001600160a01b039290921691909117905581816004818110610e7257610e72611dcd565b9050602002016020810190610e879190611b7f565b600580546001600160a01b0319166001600160a01b039290921691909117815582908290818110610eba57610eba611dcd565b9050602002016020810190610ecf9190611b7f565b600680546001600160a01b0319166001600160a01b039290921691909117815582908290818110610f0257610f02611dcd565b9050602002016020810190610f179190611b7f565b600780546001600160a01b0319166001600160a01b039290921691909117815582908290818110610f4a57610f4a611dcd565b9050602002016020810190610f5f9190611b7f565b600880546001600160a01b0319166001600160a01b039290921691909117815582908290818110610f9257610f92611dcd565b9050602002016020810190610fa79190611b7f565b600980546001600160a01b0319166001600160a01b039290921691909117815582908290818110610fda57610fda611dcd565b9050602002016020810190610fef9190611b7f565b600b80546001600160a01b0319166001600160a01b03929092169190911790558181600a81811061102257611022611dcd565b90506020020160208101906110379190611b7f565b600c80546001600160a01b0319166001600160a01b03929092169190911790558181600b81811061106a5761106a611dcd565b905060200201602081019061107f9190611b7f565b600d80546001600160a01b0319166001600160a01b03929092169190911790558181600c8181106110b2576110b2611dcd565b90506020020160208101906110c79190611b7f565b600e80546001600160a01b0319166001600160a01b03929092169190911790558181600d8181106110fa576110fa611dcd565b905060200201602081019061110f9190611b7f565b600f80546001600160a01b0319166001600160a01b03929092169190911790558181600e81811061114257611142611dcd565b90506020020160208101906111579190611b7f565b601080546001600160a01b0319166001600160a01b03929092169190911790558181600f81811061118a5761118a611dcd565b905060200201602081019061119f9190611b7f565b601180546001600160a81b0319166001600160a01b039290921691909117600160a01b1790555050565b6002546001600160a01b031633148015906111ef57506006546001600160a01b03163314155b1561120d57604051631fccb59360e21b815260040160405180910390fd5b6001600160a01b038216600090815260336020526040812054611231908390611de3565b6001600160a01b038416600081815260336020908152604091829020849055815192835282018390529192507fd9d22224b27bb4fd824c68076d2a2f5ecbe57af6aadc3564516e4d14dd0930f9910161086c565b61128d611334565b6001600160a01b0381166112b757604051631e4fbdf760e01b815260006004820152602401610d2d565b6112c081611786565b50565b6002546001600160a01b031633148015906112e957506010546001600160a01b03163314155b1561130757604051631fccb59360e21b815260040160405180910390fd5b6001600160a01b03821660009081526034602052604081205461081c908390611de3565b6112c081611678565b336113667f9016d09d72d40fdae2fd8ceac6b6234c7706214fd39c1cd1e609a0528c199300546001600160a01b031690565b6001600160a01b031614610b255760405163118cdaa760e01b8152336004820152602401610d2d565b7f9b779b17422d0df92223018b32b4d1fa46e071723d6817e2486d003becc55f008054600119016113d357604051633ee5aeb560e01b815260040160405180910390fd5b60029055565b60006001600160a01b03831661140257604051631dcb38eb60e11b815260040160405180910390fd5b816000036114125750600061150e565b6000836001600160a01b031663313ce5676040518163ffffffff1660e01b8152600401602060405180830381865afa158015611452573d6000803e3d6000fd5b505050506040513d601f19601f820116820180604052508101906114769190611df6565b905060128160ff1610156114d9576000611491826012611e19565b61149c90600a611f16565b90506114a88185611f3b565b156114c657604051630f51ac8560e31b815260040160405180910390fd5b6114d08185611f4f565b9250505061150e565b60128160ff1611156115095760006114f2601283611e19565b6114fd90600a611f16565b90506114d08185611f63565b829150505b92915050565b604080516001600160a01b038416602482015260448082018490528251808303909101815260649091019091526020810180516001600160e01b031663a9059cbb60e01b179052610a81908490611820565b6006546000906001600160a01b038381169116148061159257506003546001600160a01b038381169116145b8061150e575050600d546001600160a01b0390811691161490565b60017f9b779b17422d0df92223018b32b4d1fa46e071723d6817e2486d003becc55f0055565b306001600160a01b037f000000000000000000000000000000000000000000000000000000000000000016148061165a57507f00000000000000000000000000000000000000000000000000000000000000006001600160a01b031661164e600080516020611fd2833981519152546001600160a01b031690565b6001600160a01b031614155b15610b255760405163703e46dd60e11b815260040160405180910390fd5b6112c0611334565b816001600160a01b03166352d1902d6040518163ffffffff1660e01b8152600401602060405180830381865afa9250505080156116da575060408051601f3d908101601f191682019092526116d791810190611f7a565b60015b61170257604051634c9c8ce360e01b81526001600160a01b0383166004820152602401610d2d565b600080516020611fd2833981519152811461173357604051632a87526960e21b815260048101829052602401610d2d565b610a818383611883565b306001600160a01b037f00000000000000000000000000000000000000000000000000000000000000001614610b255760405163703e46dd60e11b815260040160405180910390fd5b7f9016d09d72d40fdae2fd8ceac6b6234c7706214fd39c1cd1e609a0528c19930080546001600160a01b031981166001600160a01b03848116918217845560405192169182907f8be0079c531659141344cd1fd0a4f28419497f9722a3daafe3b4186f6b6457e090600090a3505050565b6117ff6118d9565b6112c081611922565b6118106118d9565b610b2561192a565b610b256118d9565b60006118356001600160a01b03841683611932565b9050805160001415801561185a5750808060200190518101906118589190611f93565b155b15610a8157604051635274afe760e01b81526001600160a01b0384166004820152602401610d2d565b61188c82611947565b6040516001600160a01b038316907fbc7cd75a20ee27fd9adebab32041f755214dbc6bffa90cc0225b39da2e5c2d3b90600090a28051156118d157610a8182826119ac565b610aa1611a22565b7ff0c57e16840df040f15088dc2f81fe391c3923bec73e23a9662efc9c229c6a0054600160401b900460ff16610b2557604051631afcd79f60e31b815260040160405180910390fd5b61128d6118d9565b6115ad6118d9565b606061194083836000611a41565b9392505050565b806001600160a01b03163b60000361197d57604051634c9c8ce360e01b81526001600160a01b0382166004820152602401610d2d565b600080516020611fd283398151915280546001600160a01b0319166001600160a01b0392909216919091179055565b6060600080846001600160a01b0316846040516119c99190611fb5565b600060405180830381855af49150503d8060008114611a04576040519150601f19603f3d011682016040523d82523d6000602084013e611a09565b606091505b5091509150611a19858383611ade565b95945050505050565b3415610b255760405163b398979f60e01b815260040160405180910390fd5b606081471015611a665760405163cd78605960e01b8152306004820152602401610d2d565b600080856001600160a01b03168486604051611a829190611fb5565b60006040518083038185875af1925050503d8060008114611abf576040519150601f19603f3d011682016040523d82523d6000602084013e611ac4565b606091505b5091509150611ad4868383611ade565b9695505050505050565b606082611af357611aee82611b3a565b611940565b8151158015611b0a57506001600160a01b0384163b155b15611b3357604051639996b31560e01b81526001600160a01b0385166004820152602401610d2d565b5080611940565b805115611b4a5780518082602001fd5b604051630a12f52160e11b815260040160405180910390fd5b80356001600160a01b0381168114611b7a57600080fd5b919050565b600060208284031215611b9157600080fd5b61194082611b63565b60008060408385031215611bad57600080fd5b611bb683611b63565b946020939093013593505050565b600080600060608486031215611bd957600080fd5b611be284611b63565b9250611bf060208501611b63565b9150604084013590509250925092565b634e487b7160e01b600052604160045260246000fd5b60008060408385031215611c2957600080fd5b611c3283611b63565b9150602083013567ffffffffffffffff80821115611c4f57600080fd5b818501915085601f830112611c6357600080fd5b813581811115611c7557611c75611c00565b604051601f8201601f19908116603f01168101908382118183101715611c9d57611c9d611c00565b81604052828152886020848701011115611cb657600080fd5b8260208601602083013760006020848301015280955050505050509250929050565b60005b83811015611cf3578181015183820152602001611cdb565b50506000910152565b6020815260008251806020840152611d1b816040850160208701611cd8565b601f01601f19169190910160400192915050565b60008060208385031215611d4257600080fd5b823567ffffffffffffffff80821115611d5a57600080fd5b818501915085601f830112611d6e57600080fd5b813581811115611d7d57600080fd5b8660208260051b8501011115611d9257600080fd5b60209290920196919550909350505050565b634e487b7160e01b600052601160045260246000fd5b8181038181111561150e5761150e611da4565b634e487b7160e01b600052603260045260246000fd5b8082018082111561150e5761150e611da4565b600060208284031215611e0857600080fd5b815160ff8116811461194057600080fd5b60ff828116828216039081111561150e5761150e611da4565b600181815b80851115611e6d578160001904821115611e5357611e53611da4565b80851615611e6057918102915b93841c9390800290611e37565b509250929050565b600082611e845750600161150e565b81611e915750600061150e565b8160018114611ea75760028114611eb157611ecd565b600191505061150e565b60ff841115611ec257611ec2611da4565b50506001821b61150e565b5060208310610133831016604e8410600b8410161715611ef0575081810a61150e565b611efa8383611e32565b8060001904821115611f0e57611f0e611da4565b029392505050565b600061194060ff841683611e75565b634e487b7160e01b600052601260045260246000fd5b600082611f4a57611f4a611f25565b500690565b600082611f5e57611f5e611f25565b500490565b808202811582820484141761150e5761150e611da4565b600060208284031215611f8c57600080fd5b5051919050565b600060208284031215611fa557600080fd5b8151801515811461194057600080fd5b60008251611fc7818460208701611cd8565b919091019291505056fe360894a13ba1a3210667c828492db98dca3e2076cc3735a920a3ca505d382bbca164736f6c6343000817000a",
  "devdoc": {
    "errors": {
      "AddressEmptyCode(address)": [
        {
          "details": "There's no code at `target` (it is not a contract)."
        }
      ],
      "AddressInsufficientBalance(address)": [
        {
          "details": "The ETH balance of the account is not enough to perform the operation."
        }
      ],
      "ERC1967InvalidImplementation(address)": [
        {
          "details": "The `implementation` of the proxy is invalid."
        }
      ],
      "ERC1967NonPayable()": [
        {
          "details": "An upgrade function sees `msg.value > 0` that may be lost."
        }
      ],
      "FailedInnerCall()": [
        {
          "details": "A call to an address target failed. The target may have reverted."
        }
      ],
      "InvalidInitialization()": [
        {
          "details": "The contract is already initialized."
        }
      ],
      "NotInitializing()": [
        {
          "details": "The contract is not initializing."
        }
      ],
      "OwnableInvalidOwner(address)": [
        {
          "details": "The owner is not a valid owner account. (eg. `address(0)`)"
        }
      ],
      "OwnableUnauthorizedAccount(address)": [
        {
          "details": "The caller account is not authorized to perform an operation."
        }
      ],
      "ReentrancyGuardReentrantCall()": [
        {
          "details": "Unauthorized reentrant call."
        }
      ],
      "SafeERC20FailedOperation(address)": [
        {
          "details": "An operation with an ERC20 token failed."
        }
      ],
      "UUPSUnauthorizedCallContext()": [
        {
          "details": "The call is from an unauthorized context."
        }
      ],
      "UUPSUnsupportedProxiableUUID(bytes32)": [
        {
          "details": "The storage `slot` is unsupported as a UUID."
        }
      ]
    },
    "events": {
      "Initialized(uint64)": {
        "details": "Triggered when the contract has been initialized or reinitialized."
      },
      "Upgraded(address)": {
        "details": "Emitted when the implementation is upgraded."
      }
    },
    "kind": "dev",
    "methods": {
      "owner()": {
        "details": "Returns the address of the current owner."
      },
      "proxiableUUID()": {
        "details": "Implementation of the ERC1822 {proxiableUUID} function. This returns the storage slot used by the implementation. It is used to validate the implementation's compatibility when performing an upgrade. IMPORTANT: A proxy pointing at a proxiable contract should not be considered proxiable itself, because this risks bricking a proxy that upgrades to it, by delegating to itself until out of gas. Thus it is critical that this function revert if invoked through a proxy. This is guaranteed by the `notDelegated` modifier."
      },
      "renounceOwnership()": {
        "details": "Leaves the contract without owner. It will not be possible to call `onlyOwner` functions. Can only be called by the current owner. NOTE: Renouncing ownership will leave the contract without an owner, thereby disabling any functionality that is only available to the owner."
      },
      "transferOwnership(address)": {
        "details": "Transfers ownership of the contract to a new account (`newOwner`). Can only be called by the current owner."
      },
      "upgradeToAndCall(address,bytes)": {
        "custom:oz-upgrades-unsafe-allow-reachable": "delegatecall",
        "details": "Upgrade the implementation of the proxy to `newImplementation`, and subsequently execute the function call encoded in `data`. Calls {_authorizeUpgrade}. Emits an {Upgraded} event."
      }
    },
    "version": 1
  },
  "userdoc": {
    "kind": "user",
    "methods": {},
    "version": 1
  },
  "storageLayout": {
    "storage": [
      {
        "astId": 10031,
        "contract": "contracts/ActivePool.sol:ActivePool",
        "label": "activePool",
        "offset": 0,
        "slot": "0",
        "type": "t_address"
      },
      {
        "astId": 10033,
        "contract": "contracts/ActivePool.sol:ActivePool",
        "label": "adminContract",
        "offset": 0,
        "slot": "1",
        "type": "t_address"
      },
      {
        "astId": 10035,
        "contract": "contracts/ActivePool.sol:ActivePool",
        "label": "borrowerOperations",
        "offset": 0,
        "slot": "2",
        "type": "t_address"
      },
      {
        "astId": 10037,
        "contract": "contracts/ActivePool.sol:ActivePool",
        "label": "collSurplusPool",
        "offset": 0,
        "slot": "3",
        "type": "t_address"
      },
      {
        "astId": 10039,
        "contract": "contracts/ActivePool.sol:ActivePool",
        "label": "communityIssuance",
        "offset": 0,
        "slot": "4",
        "type": "t_address"
      },
      {
        "astId": 10041,
        "contract": "contracts/ActivePool.sol:ActivePool",
        "label": "debtToken",
        "offset": 0,
        "slot": "5",
        "type": "t_address"
      },
      {
        "astId": 10043,
        "contract": "contracts/ActivePool.sol:ActivePool",
        "label": "defaultPool",
        "offset": 0,
        "slot": "6",
        "type": "t_address"
      },
      {
        "astId": 10045,
        "contract": "contracts/ActivePool.sol:ActivePool",
        "label": "feeCollector",
        "offset": 0,
        "slot": "7",
        "type": "t_address"
      },
      {
        "astId": 10047,
        "contract": "contracts/ActivePool.sol:ActivePool",
        "label": "flashLoanAddress",
        "offset": 0,
        "slot": "8",
        "type": "t_address"
      },
      {
        "astId": 10049,
        "contract": "contracts/ActivePool.sol:ActivePool",
        "label": "gasPoolAddress",
        "offset": 0,
        "slot": "9",
        "type": "t_address"
      },
      {
        "astId": 10051,
        "contract": "contracts/ActivePool.sol:ActivePool",
        "label": "trenStaking",
        "offset": 0,
        "slot": "10",
        "type": "t_address"
      },
      {
        "astId": 10053,
        "contract": "contracts/ActivePool.sol:ActivePool",
        "label": "priceFeed",
        "offset": 0,
        "slot": "11",
        "type": "t_address"
      },
      {
        "astId": 10055,
        "contract": "contracts/ActivePool.sol:ActivePool",
        "label": "sortedTrenBoxes",
        "offset": 0,
        "slot": "12",
        "type": "t_address"
      },
      {
        "astId": 10057,
        "contract": "contracts/ActivePool.sol:ActivePool",
        "label": "stabilityPool",
        "offset": 0,
        "slot": "13",
        "type": "t_address"
      },
      {
        "astId": 10059,
        "contract": "contracts/ActivePool.sol:ActivePool",
        "label": "timelockAddress",
        "offset": 0,
        "slot": "14",
        "type": "t_address"
      },
      {
        "astId": 10061,
        "contract": "contracts/ActivePool.sol:ActivePool",
        "label": "treasuryAddress",
        "offset": 0,
        "slot": "15",
        "type": "t_address"
      },
      {
        "astId": 10063,
        "contract": "contracts/ActivePool.sol:ActivePool",
        "label": "trenBoxManager",
        "offset": 0,
        "slot": "16",
        "type": "t_address"
      },
      {
        "astId": 10065,
        "contract": "contracts/ActivePool.sol:ActivePool",
        "label": "trenBoxManagerOperations",
        "offset": 0,
        "slot": "17",
        "type": "t_address"
      },
      {
        "astId": 10067,
        "contract": "contracts/ActivePool.sol:ActivePool",
        "label": "isAddressSetupInitialized",
        "offset": 20,
        "slot": "17",
        "type": "t_bool"
      },
      {
        "astId": 10072,
        "contract": "contracts/ActivePool.sol:ActivePool",
        "label": "__gap",
        "offset": 0,
        "slot": "18",
        "type": "t_array(t_uint256)33_storage"
      },
      {
        "astId": 5546,
        "contract": "contracts/ActivePool.sol:ActivePool",
        "label": "collateralBalances",
        "offset": 0,
        "slot": "51",
        "type": "t_mapping(t_address,t_uint256)"
      },
      {
        "astId": 5550,
        "contract": "contracts/ActivePool.sol:ActivePool",
        "label": "debtTokenBalances",
        "offset": 0,
        "slot": "52",
        "type": "t_mapping(t_address,t_uint256)"
      }
    ],
    "types": {
      "t_address": {
        "encoding": "inplace",
        "label": "address",
        "numberOfBytes": "20"
      },
      "t_array(t_uint256)33_storage": {
        "base": "t_uint256",
        "encoding": "inplace",
        "label": "uint256[33]",
        "numberOfBytes": "1056"
      },
      "t_bool": {
        "encoding": "inplace",
        "label": "bool",
        "numberOfBytes": "1"
      },
      "t_mapping(t_address,t_uint256)": {
        "encoding": "mapping",
        "key": "t_address",
        "label": "mapping(address => uint256)",
        "numberOfBytes": "32",
        "value": "t_uint256"
      },
      "t_uint256": {
        "encoding": "inplace",
        "label": "uint256",
        "numberOfBytes": "32"
      }
    }
  }
}