{
  "address": "0x471303d6b047A809d40884D4fFe3E9C02af81e45",
  "abi": [
    {
      "inputs": [
        {
          "internalType": "address",
          "name": "target",
          "type": "address"
        }
      ],
      "name": "AddressEmptyCode",
      "type": "error"
    },
    {
      "inputs": [
        {
          "internalType": "address",
          "name": "account",
          "type": "address"
        }
      ],
      "name": "AddressInsufficientBalance",
      "type": "error"
    },
    {
      "inputs": [],
      "name": "BorrowerOperations__CollWithdrawalInRecoveryMode",
      "type": "error"
    },
    {
      "inputs": [],
      "name": "BorrowerOperations__CompositeDebtZero",
      "type": "error"
    },
    {
      "inputs": [],
      "name": "BorrowerOperations__ExceedMintCap",
      "type": "error"
    },
    {
      "inputs": [],
      "name": "BorrowerOperations__InsufficientCollateral",
      "type": "error"
    },
    {
      "inputs": [],
      "name": "BorrowerOperations__InsufficientDebtBalance",
      "type": "error"
    },
    {
      "inputs": [],
      "name": "BorrowerOperations__NotActiveColl",
      "type": "error"
    },
    {
      "inputs": [],
      "name": "BorrowerOperations__NotSingularChange",
      "type": "error"
    },
    {
      "inputs": [],
      "name": "BorrowerOperations__OperationInRecoveryMode",
      "type": "error"
    },
    {
      "inputs": [],
      "name": "BorrowerOperations__RepayLargerThanTrenBoxDebt",
      "type": "error"
    },
    {
      "inputs": [],
      "name": "BorrowerOperations__TrenBoxICRBelowCCR",
      "type": "error"
    },
    {
      "inputs": [],
      "name": "BorrowerOperations__TrenBoxICRBelowMCR",
      "type": "error"
    },
    {
      "inputs": [],
      "name": "BorrowerOperations__TrenBoxIsActive",
      "type": "error"
    },
    {
      "inputs": [],
      "name": "BorrowerOperations__TrenBoxNetDebtLessThanMin",
      "type": "error"
    },
    {
      "inputs": [],
      "name": "BorrowerOperations__TrenBoxNewICRBelowOldICR",
      "type": "error"
    },
    {
      "inputs": [],
      "name": "BorrowerOperations__TrenBoxNewTCRBelowCCR",
      "type": "error"
    },
    {
      "inputs": [],
      "name": "BorrowerOperations__TrenBoxNotExistOrClosed",
      "type": "error"
    },
    {
      "inputs": [],
      "name": "BorrowerOperations__ZeroAdjustment",
      "type": "error"
    },
    {
      "inputs": [],
      "name": "BorrowerOperations__ZeroDebtChange",
      "type": "error"
    },
    {
      "inputs": [],
      "name": "ConfigurableAddresses__CommunityIssuanceZeroAddress",
      "type": "error"
    },
    {
      "inputs": [],
      "name": "ConfigurableAddresses__LengthMismatch",
      "type": "error"
    },
    {
      "inputs": [],
      "name": "ConfigurableAddresses__SetupIsInitialized",
      "type": "error"
    },
    {
      "inputs": [],
      "name": "ConfigurableAddresses__TRENStakingZeroAddress",
      "type": "error"
    },
    {
      "inputs": [
        {
          "internalType": "uint256",
          "name": "position",
          "type": "uint256"
        },
        {
          "internalType": "address",
          "name": "address_",
          "type": "address"
        }
      ],
      "name": "ConfigurableAddresses__ZeroAddresses",
      "type": "error"
    },
    {
      "inputs": [
        {
          "internalType": "address",
          "name": "implementation",
          "type": "address"
        }
      ],
      "name": "ERC1967InvalidImplementation",
      "type": "error"
    },
    {
      "inputs": [],
      "name": "ERC1967NonPayable",
      "type": "error"
    },
    {
      "inputs": [],
      "name": "EthUnsupportedError",
      "type": "error"
    },
    {
      "inputs": [],
      "name": "FailedInnerCall",
      "type": "error"
    },
    {
      "inputs": [],
      "name": "InvalidAmountError",
      "type": "error"
    },
    {
      "inputs": [],
      "name": "InvalidInitialization",
      "type": "error"
    },
    {
      "inputs": [],
      "name": "NotInitializing",
      "type": "error"
    },
    {
      "inputs": [
        {
          "internalType": "address",
          "name": "owner",
          "type": "address"
        }
      ],
      "name": "OwnableInvalidOwner",
      "type": "error"
    },
    {
      "inputs": [
        {
          "internalType": "address",
          "name": "account",
          "type": "address"
        }
      ],
      "name": "OwnableUnauthorizedAccount",
      "type": "error"
    },
    {
      "inputs": [],
      "name": "ReentrancyGuardReentrantCall",
      "type": "error"
    },
    {
      "inputs": [
        {
          "internalType": "address",
          "name": "token",
          "type": "address"
        }
      ],
      "name": "SafeERC20FailedOperation",
      "type": "error"
    },
    {
      "inputs": [
        {
          "internalType": "uint256",
          "name": "feePercentage",
          "type": "uint256"
        },
        {
          "internalType": "uint256",
          "name": "maxFeePercentage",
          "type": "uint256"
        }
      ],
      "name": "TrenBase__FeeExceededMax",
      "type": "error"
    },
    {
      "inputs": [],
      "name": "UUPSUnauthorizedCallContext",
      "type": "error"
    },
    {
      "inputs": [
        {
          "internalType": "bytes32",
          "name": "slot",
          "type": "bytes32"
        }
      ],
      "name": "UUPSUnsupportedProxiableUUID",
      "type": "error"
    },
    {
      "anonymous": false,
      "inputs": [
        {
          "indexed": true,
          "internalType": "address",
          "name": "_asset",
          "type": "address"
        },
        {
          "indexed": true,
          "internalType": "address",
          "name": "_borrower",
          "type": "address"
        },
        {
          "indexed": false,
          "internalType": "uint256",
          "name": "_feeAmount",
          "type": "uint256"
        }
      ],
      "name": "BorrowingFeePaid",
      "type": "event"
    },
    {
      "anonymous": false,
      "inputs": [
        {
          "indexed": false,
          "internalType": "uint64",
          "name": "version",
          "type": "uint64"
        }
      ],
      "name": "Initialized",
      "type": "event"
    },
    {
      "anonymous": false,
      "inputs": [
        {
          "indexed": true,
          "internalType": "address",
          "name": "previousOwner",
          "type": "address"
        },
        {
          "indexed": true,
          "internalType": "address",
          "name": "newOwner",
          "type": "address"
        }
      ],
      "name": "OwnershipTransferred",
      "type": "event"
    },
    {
      "anonymous": false,
      "inputs": [
        {
          "indexed": true,
          "internalType": "address",
          "name": "_asset",
          "type": "address"
        },
        {
          "indexed": true,
          "internalType": "address",
          "name": "_borrower",
          "type": "address"
        },
        {
          "indexed": false,
          "internalType": "uint256",
          "name": "arrayIndex",
          "type": "uint256"
        }
      ],
      "name": "TrenBoxCreated",
      "type": "event"
    },
    {
      "anonymous": false,
      "inputs": [
        {
          "indexed": true,
          "internalType": "address",
          "name": "_asset",
          "type": "address"
        },
        {
          "indexed": true,
          "internalType": "address",
          "name": "_borrower",
          "type": "address"
        },
        {
          "indexed": false,
          "internalType": "uint256",
          "name": "_debt",
          "type": "uint256"
        },
        {
          "indexed": false,
          "internalType": "uint256",
          "name": "_coll",
          "type": "uint256"
        },
        {
          "indexed": false,
          "internalType": "uint256",
          "name": "stake",
          "type": "uint256"
        },
        {
          "indexed": false,
          "internalType": "enum IBorrowerOperations.BorrowerOperation",
          "name": "operation",
          "type": "uint8"
        }
      ],
      "name": "TrenBoxUpdated",
      "type": "event"
    },
    {
      "anonymous": false,
      "inputs": [
        {
          "indexed": true,
          "internalType": "address",
          "name": "implementation",
          "type": "address"
        }
      ],
      "name": "Upgraded",
      "type": "event"
    },
    {
      "inputs": [],
      "name": "NAME",
      "outputs": [
        {
          "internalType": "string",
          "name": "",
          "type": "string"
        }
      ],
      "stateMutability": "view",
      "type": "function"
    },
    {
      "inputs": [],
      "name": "UPGRADE_INTERFACE_VERSION",
      "outputs": [
        {
          "internalType": "string",
          "name": "",
          "type": "string"
        }
      ],
      "stateMutability": "view",
      "type": "function"
    },
    {
      "inputs": [
        {
          "internalType": "address",
          "name": "_asset",
          "type": "address"
        },
        {
          "internalType": "uint256",
          "name": "_assetSent",
          "type": "uint256"
        },
        {
          "internalType": "address",
          "name": "_upperHint",
          "type": "address"
        },
        {
          "internalType": "address",
          "name": "_lowerHint",
          "type": "address"
        }
      ],
      "name": "addColl",
      "outputs": [],
      "stateMutability": "nonpayable",
      "type": "function"
    },
    {
      "inputs": [
        {
          "internalType": "address",
          "name": "_asset",
          "type": "address"
        },
        {
          "internalType": "uint256",
          "name": "_assetSent",
          "type": "uint256"
        },
        {
          "internalType": "uint256",
          "name": "_collWithdrawal",
          "type": "uint256"
        },
        {
          "internalType": "uint256",
          "name": "_debtTokenChange",
          "type": "uint256"
        },
        {
          "internalType": "bool",
          "name": "_isDebtIncrease",
          "type": "bool"
        },
        {
          "internalType": "address",
          "name": "_upperHint",
          "type": "address"
        },
        {
          "internalType": "address",
          "name": "_lowerHint",
          "type": "address"
        }
      ],
      "name": "adjustTrenBox",
      "outputs": [],
      "stateMutability": "nonpayable",
      "type": "function"
    },
    {
      "inputs": [],
      "name": "adminContract",
      "outputs": [
        {
          "internalType": "address",
          "name": "",
          "type": "address"
        }
      ],
      "stateMutability": "view",
      "type": "function"
    },
    {
      "inputs": [
        {
          "internalType": "address",
          "name": "newImplementation",
          "type": "address"
        }
      ],
      "name": "authorizeUpgrade",
      "outputs": [],
      "stateMutability": "nonpayable",
      "type": "function"
    },
    {
      "inputs": [],
      "name": "borrowerOperations",
      "outputs": [
        {
          "internalType": "address",
          "name": "",
          "type": "address"
        }
      ],
      "stateMutability": "view",
      "type": "function"
    },
    {
      "inputs": [
        {
          "internalType": "address",
          "name": "_asset",
          "type": "address"
        }
      ],
      "name": "claimCollateral",
      "outputs": [],
      "stateMutability": "nonpayable",
      "type": "function"
    },
    {
      "inputs": [],
      "name": "communityIssuance",
      "outputs": [
        {
          "internalType": "address",
          "name": "",
          "type": "address"
        }
      ],
      "stateMutability": "view",
      "type": "function"
    },
    {
      "inputs": [],
      "name": "debtToken",
      "outputs": [
        {
          "internalType": "address",
          "name": "",
          "type": "address"
        }
      ],
      "stateMutability": "view",
      "type": "function"
    },
    {
      "inputs": [],
      "name": "feeCollector",
      "outputs": [
        {
          "internalType": "address",
          "name": "",
          "type": "address"
        }
      ],
      "stateMutability": "view",
      "type": "function"
    },
    {
      "inputs": [],
      "name": "flashLoanAddress",
      "outputs": [
        {
          "internalType": "address",
          "name": "",
          "type": "address"
        }
      ],
      "stateMutability": "view",
      "type": "function"
    },
    {
      "inputs": [
        {
          "internalType": "address",
          "name": "_asset",
          "type": "address"
        },
        {
          "internalType": "uint256",
          "name": "_debt",
          "type": "uint256"
        }
      ],
      "name": "getCompositeDebt",
      "outputs": [
        {
          "internalType": "uint256",
          "name": "",
          "type": "uint256"
        }
      ],
      "stateMutability": "view",
      "type": "function"
    },
    {
      "inputs": [
        {
          "internalType": "address",
          "name": "_asset",
          "type": "address"
        }
      ],
      "name": "getEntireSystemColl",
      "outputs": [
        {
          "internalType": "uint256",
          "name": "entireSystemColl",
          "type": "uint256"
        }
      ],
      "stateMutability": "view",
      "type": "function"
    },
    {
      "inputs": [
        {
          "internalType": "address",
          "name": "_asset",
          "type": "address"
        }
      ],
      "name": "getEntireSystemDebt",
      "outputs": [
        {
          "internalType": "uint256",
          "name": "entireSystemDebt",
          "type": "uint256"
        }
      ],
      "stateMutability": "view",
      "type": "function"
    },
    {
      "inputs": [
        {
          "internalType": "address",
          "name": "initialOwner",
          "type": "address"
        }
      ],
      "name": "initialize",
      "outputs": [],
      "stateMutability": "nonpayable",
      "type": "function"
    },
    {
      "inputs": [],
      "name": "isAddressSetupInitialized",
      "outputs": [
        {
          "internalType": "bool",
          "name": "",
          "type": "bool"
        }
      ],
      "stateMutability": "view",
      "type": "function"
    },
    {
      "inputs": [
        {
          "internalType": "address",
          "name": "_asset",
          "type": "address"
        },
        {
          "internalType": "uint256",
          "name": "_assetAmount",
          "type": "uint256"
        },
        {
          "internalType": "uint256",
          "name": "_debtTokenAmount",
          "type": "uint256"
        },
        {
          "internalType": "address",
          "name": "_upperHint",
          "type": "address"
        },
        {
          "internalType": "address",
          "name": "_lowerHint",
          "type": "address"
        }
      ],
      "name": "openTrenBox",
      "outputs": [],
      "stateMutability": "nonpayable",
      "type": "function"
    },
    {
      "inputs": [],
      "name": "owner",
      "outputs": [
        {
          "internalType": "address",
          "name": "",
          "type": "address"
        }
      ],
      "stateMutability": "view",
      "type": "function"
    },
    {
      "inputs": [],
      "name": "priceFeed",
      "outputs": [
        {
          "internalType": "address",
          "name": "",
          "type": "address"
        }
      ],
      "stateMutability": "view",
      "type": "function"
    },
    {
      "inputs": [],
      "name": "proxiableUUID",
      "outputs": [
        {
          "internalType": "bytes32",
          "name": "",
          "type": "bytes32"
        }
      ],
      "stateMutability": "view",
      "type": "function"
    },
    {
      "inputs": [],
      "name": "renounceOwnership",
      "outputs": [],
      "stateMutability": "nonpayable",
      "type": "function"
    },
    {
      "inputs": [
        {
          "internalType": "address",
          "name": "_asset",
          "type": "address"
        },
        {
          "internalType": "uint256",
          "name": "_debtTokenAmount",
          "type": "uint256"
        },
        {
          "internalType": "address",
          "name": "_upperHint",
          "type": "address"
        },
        {
          "internalType": "address",
          "name": "_lowerHint",
          "type": "address"
        }
      ],
      "name": "repayDebtTokens",
      "outputs": [],
      "stateMutability": "nonpayable",
      "type": "function"
    },
    {
      "inputs": [
        {
          "internalType": "address[]",
          "name": "_addresses",
          "type": "address[]"
        }
      ],
      "name": "setAddresses",
      "outputs": [],
      "stateMutability": "nonpayable",
      "type": "function"
    },
    {
      "inputs": [
        {
          "internalType": "address",
          "name": "_communityIssuance",
          "type": "address"
        }
      ],
      "name": "setCommunityIssuance",
      "outputs": [],
      "stateMutability": "nonpayable",
      "type": "function"
    },
    {
      "inputs": [
        {
          "internalType": "address",
          "name": "_trenStaking",
          "type": "address"
        }
      ],
      "name": "setTRENStaking",
      "outputs": [],
      "stateMutability": "nonpayable",
      "type": "function"
    },
    {
      "inputs": [],
      "name": "sortedTrenBoxes",
      "outputs": [
        {
          "internalType": "address",
          "name": "",
          "type": "address"
        }
      ],
      "stateMutability": "view",
      "type": "function"
    },
    {
      "inputs": [],
      "name": "stabilityPool",
      "outputs": [
        {
          "internalType": "address",
          "name": "",
          "type": "address"
        }
      ],
      "stateMutability": "view",
      "type": "function"
    },
    {
      "inputs": [],
      "name": "timelockAddress",
      "outputs": [
        {
          "internalType": "address",
          "name": "",
          "type": "address"
        }
      ],
      "stateMutability": "view",
      "type": "function"
    },
    {
      "inputs": [
        {
          "internalType": "address",
          "name": "newOwner",
          "type": "address"
        }
      ],
      "name": "transferOwnership",
      "outputs": [],
      "stateMutability": "nonpayable",
      "type": "function"
    },
    {
      "inputs": [],
      "name": "treasuryAddress",
      "outputs": [
        {
          "internalType": "address",
          "name": "",
          "type": "address"
        }
      ],
      "stateMutability": "view",
      "type": "function"
    },
    {
      "inputs": [],
      "name": "trenBoxManager",
      "outputs": [
        {
          "internalType": "address",
          "name": "",
          "type": "address"
        }
      ],
      "stateMutability": "view",
      "type": "function"
    },
    {
      "inputs": [],
      "name": "trenBoxManagerOperations",
      "outputs": [
        {
          "internalType": "address",
          "name": "",
          "type": "address"
        }
      ],
      "stateMutability": "view",
      "type": "function"
    },
    {
      "inputs": [],
      "name": "trenBoxStorage",
      "outputs": [
        {
          "internalType": "address",
          "name": "",
          "type": "address"
        }
      ],
      "stateMutability": "view",
      "type": "function"
    },
    {
      "inputs": [],
      "name": "trenStaking",
      "outputs": [
        {
          "internalType": "address",
          "name": "",
          "type": "address"
        }
      ],
      "stateMutability": "view",
      "type": "function"
    },
    {
      "inputs": [
        {
          "internalType": "address",
          "name": "newImplementation",
          "type": "address"
        },
        {
          "internalType": "bytes",
          "name": "data",
          "type": "bytes"
        }
      ],
      "name": "upgradeToAndCall",
      "outputs": [],
      "stateMutability": "payable",
      "type": "function"
    },
    {
      "inputs": [
        {
          "internalType": "address",
          "name": "_asset",
          "type": "address"
        },
        {
          "internalType": "uint256",
          "name": "_collWithdrawal",
          "type": "uint256"
        },
        {
          "internalType": "address",
          "name": "_upperHint",
          "type": "address"
        },
        {
          "internalType": "address",
          "name": "_lowerHint",
          "type": "address"
        }
      ],
      "name": "withdrawColl",
      "outputs": [],
      "stateMutability": "nonpayable",
      "type": "function"
    },
    {
      "inputs": [
        {
          "internalType": "address",
          "name": "_asset",
          "type": "address"
        },
        {
          "internalType": "uint256",
          "name": "_debtTokenAmount",
          "type": "uint256"
        },
        {
          "internalType": "address",
          "name": "_upperHint",
          "type": "address"
        },
        {
          "internalType": "address",
          "name": "_lowerHint",
          "type": "address"
        }
      ],
      "name": "withdrawDebtTokens",
      "outputs": [],
      "stateMutability": "nonpayable",
      "type": "function"
    }
  ],
  "transactionHash": "0x58b43d7925536c9cd2205122b4caab4fdf9489d59cdaf4da427bb2e249a8a9de",
  "args": [],
  "numDeployments": 1,
  "solcInputHash": "3f36ab4fec5358e2986dfe0e94450c3f",
  "bytecode": "0x60a06040523060805234801561001457600080fd5b5060805161416b61003e600039600081816120630152818161208c01526121d2015261416b6000f3fe6080604052600436106102255760003560e01c80638da5cb5b11610123578063c4d66de8116100ab578063e89f80541161006f578063e89f8054146106be578063f1c05a7e146106de578063f2fde38b146106fe578063f8d898981461071e578063fe0607331461073e57600080fd5b8063c4d66de81461060d578063c5f956af1461062d578063c8564c621461064d578063cc8b21e41461067e578063d721f52a1461069e57600080fd5b8063ad3cb1cc116100f2578063ad3cb1cc1461055c578063b5c5c9fc1461058d578063b9571721146105ad578063c05c5e94146105cd578063c415b95c146105ed57600080fd5b80638da5cb5b1461049457806395fb16bb146104d15780639e86d0c4146104f1578063a3f4df7e1461051157600080fd5b80634bc66f32116101b1578063715018a611610175578063715018a6146103ff578063741bef1a146104145780637703d7301461043457806377553ad4146104545780638235b2841461047457600080fd5b80634bc66f32146103775780634f1ef2861461039757806352d1902d146103aa57806355dafa46146103bf5780636a85d67d146103df57600080fd5b806327d04b35116101f857806327d04b35146102d75780633f84a44d146102f75780634169467d1461031757806348a4a39d1461033757806349b010c51461035757600080fd5b806301c931001461022a57806302540e481461024c578063048c661d1461027f5780630a34d4d6146102b7575b600080fd5b34801561023657600080fd5b5061024a610245366004613b50565b61075e565b005b34801561025857600080fd5b5061026c610267366004613b6b565b6107af565b6040519081526020015b60405180910390f35b34801561028b57600080fd5b5060095461029f906001600160a01b031681565b6040516001600160a01b039091168152602001610276565b3480156102c357600080fd5b50600d5461029f906001600160a01b031681565b3480156102e357600080fd5b5061026c6102f2366004613b50565b6107c4565b34801561030357600080fd5b50600e5461029f906001600160a01b031681565b34801561032357600080fd5b5060055461029f906001600160a01b031681565b34801561034357600080fd5b5061024a610352366004613b95565b610834565b34801561036357600080fd5b5061024a610372366004613b95565b61086b565b34801561038357600080fd5b50600a5461029f906001600160a01b031681565b61024a6103a5366004613bf8565b610885565b3480156103b657600080fd5b5061026c6108a4565b3480156103cb57600080fd5b5060065461029f906001600160a01b031681565b3480156103eb57600080fd5b5061024a6103fa366004613b50565b6108c1565b34801561040b57600080fd5b5061024a610912565b34801561042057600080fd5b5060075461029f906001600160a01b031681565b34801561044057600080fd5b5061024a61044f366004613b95565b610926565b34801561046057600080fd5b5060015461029f906001600160a01b031681565b34801561048057600080fd5b5061024a61048f366004613b50565b610a4b565b3480156104a057600080fd5b507f9016d09d72d40fdae2fd8ceac6b6234c7706214fd39c1cd1e609a0528c199300546001600160a01b031661029f565b3480156104dd57600080fd5b5060025461029f906001600160a01b031681565b3480156104fd57600080fd5b5061026c61050c366004613b50565b610ab2565b34801561051d57600080fd5b5061054f60405180604001604052806012815260200171426f72726f7765724f7065726174696f6e7360701b81525081565b6040516102769190613cde565b34801561056857600080fd5b5061054f604051806040016040528060058152602001640352e302e360dc1b81525081565b34801561059957600080fd5b5061024a6105a8366004613b95565b610ae5565b3480156105b957600080fd5b5061024a6105c8366004613d11565b610b00565b3480156105d957600080fd5b5060005461029f906001600160a01b031681565b3480156105f957600080fd5b5060045461029f906001600160a01b031681565b34801561061957600080fd5b5061024a610628366004613b50565b610fa9565b34801561063957600080fd5b50600b5461029f906001600160a01b031681565b34801561065957600080fd5b50600e5461066e90600160a01b900460ff1681565b6040519015158152602001610276565b34801561068a57600080fd5b5060085461029f906001600160a01b031681565b3480156106aa57600080fd5b5061024a6106b9366004613d86565b6110c1565b3480156106ca57600080fd5b5061024a6106d9366004613deb565b6118ca565b3480156106ea57600080fd5b50600c5461029f906001600160a01b031681565b34801561070a57600080fd5b5061024a610719366004613b50565b611902565b34801561072a57600080fd5b5060035461029f906001600160a01b031681565b34801561074a57600080fd5b5061024a610759366004613b50565b611940565b610766611949565b6001600160a01b03811661078d576040516385d3330760e01b815260040160405180910390fd5b600680546001600160a01b0319166001600160a01b0392909216919091179055565b60006107bb83836119a4565b90505b92915050565b600e5460405163b429464160e01b81526001600160a01b038381166004830152600092169063b4294641906024015b602060405180830381865afa158015610810573d6000803e3d6000fd5b505050506040513d601f19601f820116820180604052508101906107be9190613e5e565b61083c611a1d565b61084e84843360008060008888611a55565b610865600160008051602061413f83398151915255565b50505050565b610873611a1d565b61084e84600033866000808888611a55565b61088d612058565b610896826120fd565b6108a08282612105565b5050565b60006108ae6121c7565b5060008051602061411f83398151915290565b6108c9611949565b6001600160a01b0381166108f05760405163706ebc6560e11b815260040160405180910390fd5b600280546001600160a01b0319166001600160a01b0392909216919091179055565b61091a611949565b6109246000612210565b565b61092e611a1d565b60005460405163c08261db60e01b81526001600160a01b0386811660048301529091169063c08261db90602401602060405180830381865afa158015610978573d6000803e3d6000fd5b505050506040513d601f19601f8201168201806040525081019061099c9190613e5e565b600c5460405163f9a3d41f60e01b8152610a1a9187916001600160a01b039091169063f9a3d41f906109d49084903390600401613e77565b602060405180830381865afa1580156109f1573d6000803e3d6000fd5b505050506040513d601f19601f82011682018060405250810190610a159190613e5e565b612281565b610a249190613ea7565b8303610a3857610a33846122fa565b61084e565b61084e8460003360008760008888611a55565b600e54604051632b946eed60e11b81526001600160a01b0390911690635728ddda90610a7d9084903390600401613e77565b600060405180830381600087803b158015610a9757600080fd5b505af1158015610aab573d6000803e3d6000fd5b5050505050565b600e54604051635845309f60e11b81526001600160a01b038381166004830152600092169063b08a613e906024016107f3565b610aed611a1d565b61084e8460003360008760018888611a55565b610b08611949565b600e54600160a01b900460ff1615610b3257604051625f22e960e41b815260040160405180910390fd5b600d8114610b5357604051633f5a111d60e21b815260040160405180910390fd5b60005b600d811015610bf6576000838383818110610b7357610b73613eba565b9050602002016020810190610b889190613b50565b6001600160a01b031603610bee5780838383818110610ba957610ba9613eba565b9050602002016020810190610bbe9190613b50565b604051630d9d339f60e01b815260048101929092526001600160a01b031660248201526044015b60405180910390fd5b600101610b56565b5081816000818110610c0a57610c0a613eba565b9050602002016020810190610c1f9190613b50565b600080546001600160a01b0319166001600160a01b039290921691909117905581816001818110610c5257610c52613eba565b9050602002016020810190610c679190613b50565b600180546001600160a01b0319166001600160a01b039290921691909117905581816002818110610c9a57610c9a613eba565b9050602002016020810190610caf9190613b50565b600380546001600160a01b0319166001600160a01b039290921691909117815582908290818110610ce257610ce2613eba565b9050602002016020810190610cf79190613b50565b600480546001600160a01b0319166001600160a01b039290921691909117815582908290818110610d2a57610d2a613eba565b9050602002016020810190610d3f9190613b50565b600580546001600160a01b0319166001600160a01b039290921691909117815582908290818110610d7257610d72613eba565b9050602002016020810190610d879190613b50565b600780546001600160a01b0319166001600160a01b039290921691909117905581816006818110610dba57610dba613eba565b9050602002016020810190610dcf9190613b50565b600880546001600160a01b0319166001600160a01b039290921691909117905581816007818110610e0257610e02613eba565b9050602002016020810190610e179190613b50565b600980546001600160a01b0319166001600160a01b039290921691909117905581816008818110610e4a57610e4a613eba565b9050602002016020810190610e5f9190613b50565b600a80546001600160a01b0319166001600160a01b039290921691909117905581816009818110610e9257610e92613eba565b9050602002016020810190610ea79190613b50565b600b80546001600160a01b0319166001600160a01b03929092169190911790558181600a818110610eda57610eda613eba565b9050602002016020810190610eef9190613b50565b600c80546001600160a01b0319166001600160a01b03929092169190911790558181600b818110610f2257610f22613eba565b9050602002016020810190610f379190613b50565b600d80546001600160a01b0319166001600160a01b03929092169190911790558181600c818110610f6a57610f6a613eba565b9050602002016020810190610f7f9190613b50565b600e80546001600160a81b0319166001600160a01b039290921691909117600160a01b1790555050565b7ff0c57e16840df040f15088dc2f81fe391c3923bec73e23a9662efc9c229c6a008054600160401b810460ff16159067ffffffffffffffff16600081158015610fef5750825b905060008267ffffffffffffffff16600114801561100c5750303b155b90508115801561101a575080155b156110385760405163f92ee8a960e01b815260040160405180910390fd5b845467ffffffffffffffff19166001178555831561106257845460ff60401b1916600160401b1785555b61106b86612826565b611073612837565b83156110b957845460ff60401b19168555604051600181527fc7f505b2f371ae2175ee4913f4499e1f2633a7b5936321eed1cdaeb6115181d29060200160405180910390a15b505050505050565b6110c9611a1d565b6000546040516317ae1fc560e01b81526001600160a01b038781166004830152909116906317ae1fc590602401602060405180830381865afa158015611113573d6000803e3d6000fd5b505050506040513d601f19601f820116820180604052508101906111379190613ed0565b61115457604051635024407160e11b815260040160405180910390fd5b6111ac60405180610120016040528060006001600160a01b0316815260200160008152602001600081526020016000815260200160008152602001600081526020016000815260200160008152602001600081525090565b6001600160a01b03868116808352600754604051635670bcc760e11b815260048101929092529091169063ace1798e90602401602060405180830381865afa1580156111fc573d6000803e3d6000fd5b505050506040513d601f19601f820116820180604052508101906112209190613e5e565b602082018190528151600091611236919061283f565b600c548351604051632862f79760e11b81529293506000926001600160a01b03909216916350c5ef2e9161126e913390600401613e77565b602060405180830381865afa15801561128b573d6000803e3d6000fd5b505050506040513d601f19601f820116820180604052508101906112af9190613e5e565b9050806001036112d25760405163319aae6d60e21b815260040160405180910390fd5b60608301869052816113065782516112ea90876128c4565b6040840181905260608401516113009190613eed565b60608401525b61131883600001518460600151612a17565b60008054845160405163c08261db60e01b81526001600160a01b03918216600482015291169063c08261db90602401602060405180830381865afa158015611364573d6000803e3d6000fd5b505050506040513d601f19601f820116820180604052508101906113889190613e5e565b905080846060015161139a9190613eed565b608085018190526000036113c157604051636c15d58360e11b815260040160405180910390fd5b6113d48885608001518660200151612aa5565b60a085015260808401516113e9908990612ad9565b60c0850152821561140b5761140684600001518560a00151612b0f565b61144d565b61141d84600001518560a00151612b9d565b600061143b85600001518a6001886080015160018a60200151612c2b565b905061144b856000015182612ca1565b505b600c548451604051636f4ecd4560e01b81526001600160a01b0390921691636f4ecd4591611482913390600190600401613f00565b600060405180830381600087803b15801561149c57600080fd5b505af11580156114b0573d6000803e3d6000fd5b5050600c54865160405163061e9dc360e01b8152600094506001600160a01b03909216925063061e9dc3916114ec919033908e90600401613f00565b6020604051808303816000875af115801561150b573d6000803e3d6000fd5b505050506040513d601f19601f8201168201806040525081019061152f9190613e5e565b600c548651608088015160405163c2bac5f160e01b81529394506000936001600160a01b039093169263c2bac5f19261156f929091339190600401613f00565b6020604051808303816000875af115801561158e573d6000803e3d6000fd5b505050506040513d601f19601f820116820180604052508101906115b29190613e5e565b600c548751604051634eebd97f60e01b81529293506001600160a01b0390911691634eebd97f916115e7913390600401613e77565b600060405180830381600087803b15801561160157600080fd5b505af1158015611615573d6000803e3d6000fd5b5050600c54885160405163dbe9f91960e01b81526001600160a01b03909216935063dbe9f919925061164b913390600401613e77565b6020604051808303816000875af115801561166a573d6000803e3d6000fd5b505050506040513d601f19601f8201168201806040525081019061168e9190613e5e565b60e0870152600854865160c0880151604051633e499e0560e11b81526001600160a01b03928316600482015233602482015260448101919091528a821660648201528982166084820152911690637c933c0a9060a401600060405180830381600087803b1580156116fe57600080fd5b505af1158015611712573d6000803e3d6000fd5b5050600c54885160405163d1a71b5f60e01b81526001600160a01b03909216935063d1a71b5f9250611748913390600401613e77565b6020604051808303816000875af1158015611767573d6000803e3d6000fd5b505050506040513d601f19601f8201168201806040525081019061178b9190613e5e565b6101008701819052865160405191825233916001600160a01b03909116907f30d1b1917c27aa4ce4d813612d438af6adea3706bb2009e7309788f4bfc61f7d9060200160405180910390a385516117e2908b612d2f565b6117f68660000151338b8960600151612dc3565b8215611816578551600e5461181691906001600160a01b03168580612dc3565b855160e087015160405133926001600160a01b0316917f7feef73802d9a37116f36078fbc66117c8cdb7b4c9bdddf51ee03257c786b32a9161185f918691889190600090613f46565b60405180910390a38551604080880151905190815233916001600160a01b0316907fd89359f0d8e7f936d0682c5565cc5a16989a91560a80c7b06c46c28e52a5d43a9060200160405180910390a3505050505050610aab600160008051602061413f83398151915255565b6118d2611a1d565b6118e28787338888888888611a55565b6118f9600160008051602061413f83398151915255565b50505050505050565b61190a611949565b6001600160a01b03811661193457604051631e4fbdf760e01b815260006004820152602401610be5565b61193d81612210565b50565b61193d816120fd565b3361197b7f9016d09d72d40fdae2fd8ceac6b6234c7706214fd39c1cd1e609a0528c199300546001600160a01b031690565b6001600160a01b0316146109245760405163118cdaa760e01b8152336004820152602401610be5565b6000805460405163c08261db60e01b81526001600160a01b0385811660048301529091169063c08261db90602401602060405180830381865afa1580156119ef573d6000803e3d6000fd5b505050506040513d601f19601f82011682018060405250810190611a139190613e5e565b6107bb9083613eed565b60008051602061413f833981519152805460011901611a4f57604051633ee5aeb560e01b815260040160405180910390fd5b60029055565b611ad2604051806101c0016040528060006001600160a01b031681526020016000151581526020016000815260200160008152602001600081526020016000815260200160008152602001600081526020016000815260200160008152602001600081526020016000815260200160008152602001600081525090565b6001600160a01b03898116808352600754604051635670bcc760e11b815260048101929092529091169063ace1798e90602401602060405180830381865afa158015611b22573d6000803e3d6000fd5b505050506040513d601f19601f82011682018060405250810190611b469190613e5e565b604082018190528151600091611b5c919061283f565b90508415611b855785600003611b8557604051636862f00560e11b815260040160405180910390fd5b611b8f878a612fa2565b611b9a87878b612fce565b8151611ba69089613002565b336001600160a01b0389161480611bdb57506009546001600160a01b031633148015611bd157508815155b8015611bdb575085155b611be757611be7613f68565b600c54825160405163df4fb9ef60e01b81526001600160a01b039092169163df4fb9ef91611c19918c90600401613e77565b600060405180830381600087803b158015611c3357600080fd5b505af1158015611c47573d6000803e3d6000fd5b50505050611c558988613099565b15156020840152606083015260808201869052848015611c73575080155b15611ca1578151611c8490876128c4565b61014083018190526080830151611c9b9190613eed565b60808301525b600c54825160405163f9a3d41f60e01b81526001600160a01b039092169163f9a3d41f91611cd3918c90600401613e77565b602060405180830381865afa158015611cf0573d6000803e3d6000fd5b505050506040513d601f19601f82011682018060405250810190611d149190613e5e565b60a0830152600c548251604051633517ff1b60e11b81526001600160a01b0390921691636a2ffe3691611d4b918c90600401613e77565b602060405180830381865afa158015611d68573d6000803e3d6000fd5b505050506040513d601f19601f82011682018060405250810190611d8c9190613e5e565b60c0830181905260a08301516040840151611da8929190612aa5565b8260e0018181525050611dd88260c001518360a001518460600151856020015186608001518a88604001516130b8565b61010083015260c0820151871115611e0357604051634767d7b360e11b815260040160405180910390fd5b8151611e1290828988866130eb565b84158015611e1f57508515155b15611e3257611e32888360800151613167565b611e508260000151898460600151856020015186608001518a6131f4565b610160840152610180830152600c54825160405163dbe9f91960e01b81526001600160a01b039092169163dbe9f91991611e8e918c90600401613e77565b6020604051808303816000875af1158015611ead573d6000803e3d6000fd5b505050506040513d601f19601f82011682018060405250810190611ed19190613e5e565b826101a00181815250506000611eff8360c001518460a001518560600151866020015187608001518b6133fe565b600854845160405163bc9b5bd560e01b81526001600160a01b0391821660048201528c821660248201526044810184905288821660648201528782166084820152929350169063bc9b5bd59060a401600060405180830381600087803b158015611f6857600080fd5b505af1158015611f7c573d6000803e3d6000fd5b50505050886001600160a01b031683600001516001600160a01b03167f7feef73802d9a37116f36078fbc66117c8cdb7b4c9bdddf51ee03257c786b32a856101600151866101800151876101a001516002604051611fdd9493929190613f46565b60405180910390a3825161014084015160405190815233916001600160a01b0316907fd89359f0d8e7f936d0682c5565cc5a16989a91560a80c7b06c46c28e52a5d43a9060200160405180910390a361204b836000015133856060015186602001518b8b8960800151613421565b5050505050505050505050565b306001600160a01b037f00000000000000000000000000000000000000000000000000000000000000001614806120df57507f00000000000000000000000000000000000000000000000000000000000000006001600160a01b03166120d360008051602061411f833981519152546001600160a01b031690565b6001600160a01b031614155b156109245760405163703e46dd60e11b815260040160405180910390fd5b61193d611949565b816001600160a01b03166352d1902d6040518163ffffffff1660e01b8152600401602060405180830381865afa92505050801561215f575060408051601f3d908101601f1916820190925261215c91810190613e5e565b60015b61218757604051634c9c8ce360e01b81526001600160a01b0383166004820152602401610be5565b60008051602061411f83398151915281146121b857604051632a87526960e21b815260048101829052602401610be5565b6121c283836134bc565b505050565b306001600160a01b037f000000000000000000000000000000000000000000000000000000000000000016146109245760405163703e46dd60e11b815260040160405180910390fd5b7f9016d09d72d40fdae2fd8ceac6b6234c7706214fd39c1cd1e609a0528c19930080546001600160a01b031981166001600160a01b03848116918217845560405192169182907f8be0079c531659141344cd1fd0a4f28419497f9722a3daafe3b4186f6b6457e090600090a3505050565b6000805460405163c08261db60e01b81526001600160a01b0385811660048301529091169063c08261db90602401602060405180830381865afa1580156122cc573d6000803e3d6000fd5b505050506040513d601f19601f820116820180604052508101906122f09190613e5e565b6107bb9083613ea7565b6123048133613002565b600754604051635670bcc760e11b81526001600160a01b038381166004830152600092169063ace1798e90602401602060405180830381865afa15801561234f573d6000803e3d6000fd5b505050506040513d601f19601f820116820180604052508101906123739190613e5e565b905061237f8282613512565b600c5460405163df4fb9ef60e01b81526001600160a01b039091169063df4fb9ef906123b19085903390600401613e77565b600060405180830381600087803b1580156123cb57600080fd5b505af11580156123df573d6000803e3d6000fd5b5050600c54604051633517ff1b60e11b8152600093506001600160a01b039091169150636a2ffe36906124189086903390600401613e77565b602060405180830381865afa158015612435573d6000803e3d6000fd5b505050506040513d601f19601f820116820180604052508101906124599190613e5e565b600c5460405163f9a3d41f60e01b81529192506000916001600160a01b039091169063f9a3d41f906124919087903390600401613e77565b602060405180830381865afa1580156124ae573d6000803e3d6000fd5b505050506040513d601f19601f820116820180604052508101906124d29190613e5e565b6000805460405163c08261db60e01b81526001600160a01b0388811660048301529394509192169063c08261db90602401602060405180830381865afa158015612520573d6000803e3d6000fd5b505050506040513d601f19601f820116820180604052508101906125449190613e5e565b600480546040516320e3d2f760e11b81529293506000926001600160a01b03909116916341c7a5ee916125859133918b91670de0b6b3a76400009101613f00565b6020604051808303816000875af11580156125a4573d6000803e3d6000fd5b505050506040513d601f19601f820116820180604052508101906125c89190613e5e565b90506000816125d78486613ea7565b6125e19190613ea7565b90506125ed3382613167565b60006125ff888760008860008c612c2b565b905061260b8882612ca1565b600c54604051633ed3a18f60e21b81526001600160a01b039091169063fb4e863c9061263d908b903390600401613e77565b600060405180830381600087803b15801561265757600080fd5b505af115801561266b573d6000803e3d6000fd5b5050600c54604051633d9ef93160e01b81526001600160a01b039091169250633d9ef93191506126a1908b903390600401613e77565b600060405180830381600087803b1580156126bb57600080fd5b505af11580156126cf573d6000803e3d6000fd5b50505050336001600160a01b0316886001600160a01b03167f7feef73802d9a37116f36078fbc66117c8cdb7b4c9bdddf51ee03257c786b32a6000806000600160405161271f9493929190613f46565b60405180910390a36127338833848661353a565b831561275357600e546127539089906001600160a01b031686600061353a565b6004805460405163871d814560e01b81526001600160a01b039091169163871d8145916127849133918d9101613e77565b600060405180830381600087803b15801561279e57600080fd5b505af11580156127b2573d6000803e3d6000fd5b5050600e5460405163715aa61b60e01b81526001600160a01b03909116925063715aa61b91506127ea908b9033908b90600401613f00565b600060405180830381600087803b15801561280457600080fd5b505af1158015612818573d6000803e3d6000fd5b505050505050505050505050565b61282e613620565b61193d81613669565b610924613620565b60008061284c8484613671565b60005460405163316a306d60e11b81526001600160a01b0387811660048301529293509116906362d460da90602401602060405180830381865afa158015612898573d6000803e3d6000fd5b505050506040513d601f19601f820116820180604052508101906128bc9190613e5e565b119392505050565b600c546040516314757c1360e31b81526001600160a01b03848116600483015260248201849052600092839291169063a3abe09890604401602060405180830381865afa158015612919573d6000803e3d6000fd5b505050506040513d601f19601f8201168201806040525081019061293d9190613e5e565b60035460048054604051636361ddf360e11b81529394506001600160a01b039283169363c6c3bbe693612978938a9390911691879101613f00565b600060405180830381600087803b15801561299257600080fd5b505af11580156129a6573d6000803e3d6000fd5b5050600480546040516336f1224960e11b81526001600160a01b039091169350636de2449292506129dd9133918991879101613f00565b600060405180830381600087803b1580156129f757600080fd5b505af1158015612a0b573d6000803e3d6000fd5b50929695505050505050565b6000546040516321b443a360e21b81526001600160a01b038481166004830152909116906386d10e8c90602401602060405180830381865afa158015612a61573d6000803e3d6000fd5b505050506040513d601f19601f82011682018060405250810190612a859190613e5e565b8110156108a057604051633c762e9160e01b815260040160405180910390fd5b60008215612acd57600083612aba8487613f7e565b612ac49190613fab565b9150612ad29050565b506000195b9392505050565b60008115612b065781612af568056bc75e2d6310000085613f7e565b612aff9190613fab565b90506107be565b506000196107be565b60005460405163316a306d60e11b81526001600160a01b038481166004830152909116906362d460da90602401602060405180830381865afa158015612b59573d6000803e3d6000fd5b505050506040513d601f19601f82011682018060405250810190612b7d9190613e5e565b8110156108a05760405163a5107d2d60e01b815260040160405180910390fd5b600054604051633c557a6f60e11b81526001600160a01b038481166004830152909116906378aaf4de90602401602060405180830381865afa158015612be7573d6000803e3d6000fd5b505050506040513d601f19601f82011682018060405250810190612c0b9190613e5e565b8110156108a057604051633b02ce0760e11b815260040160405180910390fd5b600080612c3788610ab2565b90506000612c44896107c4565b905086612c5a57612c558883613ea7565b612c64565b612c648883613eed565b915084612c7a57612c758682613ea7565b612c84565b612c848682613eed565b90506000612c93838387612aa5565b9a9950505050505050505050565b60005460405163316a306d60e11b81526001600160a01b038481166004830152909116906362d460da90602401602060405180830381865afa158015612ceb573d6000803e3d6000fd5b505050506040513d601f19601f82011682018060405250810190612d0f9190613e5e565b8110156108a05760405163200c362760e21b815260040160405180910390fd5b600e546040516358889c4160e11b81526001600160a01b038481166004830152602482018490529091169063b111388290604401600060405180830381600087803b158015612d7d57600080fd5b505af1158015612d91573d6000803e3d6000fd5b5050600e546108a092503391506001600160a01b0316612db185856136a0565b6001600160a01b0386169291906137d8565b600e5460405163b429464160e01b81526001600160a01b038681166004830152600092849291169063b429464190602401602060405180830381865afa158015612e11573d6000803e3d6000fd5b505050506040513d601f19601f82011682018060405250810190612e359190613e5e565b612e3f9190613eed565b6000546040516391bbfd0d60e01b81526001600160a01b0388811660048301529293509116906391bbfd0d90602401602060405180830381865afa158015612e8b573d6000803e3d6000fd5b505050506040513d601f19601f82011682018060405250810190612eaf9190613e5e565b811115612ecf5760405163fd5daa2360e01b815260040160405180910390fd5b600e54604051630e595ef560e31b81526001600160a01b03878116600483015260248201859052909116906372caf7a890604401600060405180830381600087803b158015612f1d57600080fd5b505af1158015612f31573d6000803e3d6000fd5b5050600354604051636361ddf360e11b81526001600160a01b03909116925063c6c3bbe69150612f6990889088908890600401613f00565b600060405180830381600087803b158015612f8357600080fd5b505af1158015612f97573d6000803e3d6000fd5b505050505050505050565b8115801590612fb057508015155b156108a05760405163ce86896960e01b815260040160405180910390fd5b82158015612fda575081155b8015612fe4575080155b156121c25760405163579bd2b160e01b815260040160405180910390fd5b600c54604051632862f79760e11b81526000916001600160a01b0316906350c5ef2e906130359086908690600401613e77565b602060405180830381865afa158015613052573d6000803e3d6000fd5b505050506040513d601f19601f820116820180604052508101906130769190613e5e565b9050806001146121c2576040516306e92e5560e21b815260040160405180910390fd5b60008083156130ad575082905060016130b1565b8291505b9250929050565b60008060006130cb8a8a8a8a8a8a613832565b9150915060006130dc838387612aa5565b9b9a5050505050505050505050565b8315613127576130fa83613870565b81156131225761310f85826101000151612b0f565b6131228161010001518260e0015161388f565b610aab565b61313685826101000151612b9d565b61315485826060015183602001518460800151868660400151612c2b565b6101208201819052610aab908690612ca1565b6003546040516370a0823160e01b81526001600160a01b038481166004830152839216906370a0823190602401602060405180830381865afa1580156131b1573d6000803e3d6000fd5b505050506040513d601f19601f820116820180604052508101906131d59190613e5e565b10156108a0576040516349d5cf0d60e11b815260040160405180910390fd5b60008060008561327a57600c546040516333eeaefd60e01b81526001600160a01b03909116906333eeaefd90613232908c908c908c90600401613f00565b6020604051808303816000875af1158015613251573d6000803e3d6000fd5b505050506040513d601f19601f820116820180604052508101906132759190613e5e565b6132f1565b600c5460405163061e9dc360e01b81526001600160a01b039091169063061e9dc3906132ae908c908c908c90600401613f00565b6020604051808303816000875af11580156132cd573d6000803e3d6000fd5b505050506040513d601f19601f820116820180604052508101906132f19190613e5e565b905060008461337657600c54604051631cc12cc760e11b81526001600160a01b0390911690633982598e9061332e908d908d908b90600401613f00565b6020604051808303816000875af115801561334d573d6000803e3d6000fd5b505050506040513d601f19601f820116820180604052508101906133719190613e5e565b6133ed565b600c5460405163c2bac5f160e01b81526001600160a01b039091169063c2bac5f1906133aa908d908d908b90600401613f00565b6020604051808303816000875af11580156133c9573d6000803e3d6000fd5b505050506040513d601f19601f820116820180604052508101906133ed9190613e5e565b919a91995090975050505050505050565b6000806000613411898989898989613832565b915091506000612c938383612ad9565b81156134385761343387878584612dc3565b613445565b613445878785600061353a565b831561345a576134558786612d2f565b6118f9565b600e5460405163715aa61b60e01b81526001600160a01b039091169063715aa61b9061348e908a908a908a90600401613f00565b600060405180830381600087803b1580156134a857600080fd5b505af115801561204b573d6000803e3d6000fd5b6134c5826138b0565b6040516001600160a01b038316907fbc7cd75a20ee27fd9adebab32041f755214dbc6bffa90cc0225b39da2e5c2d3b90600090a280511561350a576121c28282613915565b6108a0613982565b61351c828261283f565b156108a057604051630cd60a2360e01b815260040160405180910390fd5b600e546001600160a01b031663a47055e7856135568486613eed565b6040516001600160e01b031960e085901b1681526001600160a01b0390921660048301526024820152604401600060405180830381600087803b15801561359c57600080fd5b505af11580156135b0573d6000803e3d6000fd5b5050600354604051632770a7eb60e21b81526001600160a01b038781166004830152602482018790529091169250639dc29fac9150604401600060405180830381600087803b15801561360257600080fd5b505af1158015613616573d6000803e3d6000fd5b5050505050505050565b7ff0c57e16840df040f15088dc2f81fe391c3923bec73e23a9662efc9c229c6a0054600160401b900460ff1661092457604051631afcd79f60e31b815260040160405180910390fd5b61190a613620565b60008061367d84610ab2565b9050600061368a856107c4565b9050613697828286612aa5565b95945050505050565b60006001600160a01b0383166136c957604051631dcb38eb60e11b815260040160405180910390fd5b816000036136d9575060006107be565b6000836001600160a01b031663313ce5676040518163ffffffff1660e01b8152600401602060405180830381865afa158015613719573d6000803e3d6000fd5b505050506040513d601f19601f8201168201806040525081019061373d9190613fbf565b905060128160ff1610156137a0576000613758826012613fe2565b61376390600a6140df565b905061376f81856140ee565b1561378d57604051630f51ac8560e31b815260040160405180910390fd5b6137978185613fab565b925050506107be565b60128160ff1611156137d05760006137b9601283613fe2565b6137c490600a6140df565b90506137978185613f7e565b509092915050565b61086584856001600160a01b03166323b872dd86868660405160240161380093929190613f00565b604051602081830303815290604052915060e01b6020820180516001600160e01b0383818316178352505050506139a1565b60008087878661384b57613846888b613ea7565b613855565b613855888b613eed565b91508461386657613371868a613ea7565b6133ed868a613eed565b801561193d57604051633280b52560e21b815260040160405180910390fd5b808210156108a0576040516329e4ea8b60e01b815260040160405180910390fd5b806001600160a01b03163b6000036138e657604051634c9c8ce360e01b81526001600160a01b0382166004820152602401610be5565b60008051602061411f83398151915280546001600160a01b0319166001600160a01b0392909216919091179055565b6060600080846001600160a01b0316846040516139329190614102565b600060405180830381855af49150503d806000811461396d576040519150601f19603f3d011682016040523d82523d6000602084013e613972565b606091505b5091509150613697858383613a04565b34156109245760405163b398979f60e01b815260040160405180910390fd5b60006139b66001600160a01b03841683613a60565b905080516000141580156139db5750808060200190518101906139d99190613ed0565b155b156121c257604051635274afe760e01b81526001600160a01b0384166004820152602401610be5565b606082613a1957613a1482613a6e565b612ad2565b8151158015613a3057506001600160a01b0384163b155b15613a5957604051639996b31560e01b81526001600160a01b0385166004820152602401610be5565b5080612ad2565b60606107bb83836000613a97565b805115613a7e5780518082602001fd5b604051630a12f52160e11b815260040160405180910390fd5b606081471015613abc5760405163cd78605960e01b8152306004820152602401610be5565b600080856001600160a01b03168486604051613ad89190614102565b60006040518083038185875af1925050503d8060008114613b15576040519150601f19603f3d011682016040523d82523d6000602084013e613b1a565b606091505b5091509150613b2a868383613a04565b9695505050505050565b80356001600160a01b0381168114613b4b57600080fd5b919050565b600060208284031215613b6257600080fd5b6107bb82613b34565b60008060408385031215613b7e57600080fd5b613b8783613b34565b946020939093013593505050565b60008060008060808587031215613bab57600080fd5b613bb485613b34565b935060208501359250613bc960408601613b34565b9150613bd760608601613b34565b905092959194509250565b634e487b7160e01b600052604160045260246000fd5b60008060408385031215613c0b57600080fd5b613c1483613b34565b9150602083013567ffffffffffffffff80821115613c3157600080fd5b818501915085601f830112613c4557600080fd5b813581811115613c5757613c57613be2565b604051601f8201601f19908116603f01168101908382118183101715613c7f57613c7f613be2565b81604052828152886020848701011115613c9857600080fd5b8260208601602083013760006020848301015280955050505050509250929050565b60005b83811015613cd5578181015183820152602001613cbd565b50506000910152565b6020815260008251806020840152613cfd816040850160208701613cba565b601f01601f19169190910160400192915050565b60008060208385031215613d2457600080fd5b823567ffffffffffffffff80821115613d3c57600080fd5b818501915085601f830112613d5057600080fd5b813581811115613d5f57600080fd5b8660208260051b8501011115613d7457600080fd5b60209290920196919550909350505050565b600080600080600060a08688031215613d9e57600080fd5b613da786613b34565b94506020860135935060408601359250613dc360608701613b34565b9150613dd160808701613b34565b90509295509295909350565b801515811461193d57600080fd5b600080600080600080600060e0888a031215613e0657600080fd5b613e0f88613b34565b96506020880135955060408801359450606088013593506080880135613e3481613ddd565b9250613e4260a08901613b34565b9150613e5060c08901613b34565b905092959891949750929550565b600060208284031215613e7057600080fd5b5051919050565b6001600160a01b0392831681529116602082015260400190565b634e487b7160e01b600052601160045260246000fd5b818103818111156107be576107be613e91565b634e487b7160e01b600052603260045260246000fd5b600060208284031215613ee257600080fd5b8151612ad281613ddd565b808201808211156107be576107be613e91565b6001600160a01b039384168152919092166020820152604081019190915260600190565b60038110613f4257634e487b7160e01b600052602160045260246000fd5b9052565b8481526020810184905260408101839052608081016136976060830184613f24565b634e487b7160e01b600052600160045260246000fd5b80820281158282048414176107be576107be613e91565b634e487b7160e01b600052601260045260246000fd5b600082613fba57613fba613f95565b500490565b600060208284031215613fd157600080fd5b815160ff81168114612ad257600080fd5b60ff82811682821603908111156107be576107be613e91565b600181815b8085111561403657816000190482111561401c5761401c613e91565b8085161561402957918102915b93841c9390800290614000565b509250929050565b60008261404d575060016107be565b8161405a575060006107be565b8160018114614070576002811461407a57614096565b60019150506107be565b60ff84111561408b5761408b613e91565b50506001821b6107be565b5060208310610133831016604e8410600b84101617156140b9575081810a6107be565b6140c38383613ffb565b80600019048211156140d7576140d7613e91565b029392505050565b60006107bb60ff84168361403e565b6000826140fd576140fd613f95565b500690565b60008251614114818460208701613cba565b919091019291505056fe360894a13ba1a3210667c828492db98dca3e2076cc3735a920a3ca505d382bbc9b779b17422d0df92223018b32b4d1fa46e071723d6817e2486d003becc55f00a164736f6c6343000817000a",
  "devdoc": {
    "errors": {
      "AddressEmptyCode(address)": [
        {
          "details": "There's no code at `target` (it is not a contract)."
        }
      ],
      "AddressInsufficientBalance(address)": [
        {
          "details": "The ETH balance of the account is not enough to perform the operation."
        }
      ],
      "ERC1967InvalidImplementation(address)": [
        {
          "details": "The `implementation` of the proxy is invalid."
        }
      ],
      "ERC1967NonPayable()": [
        {
          "details": "An upgrade function sees `msg.value > 0` that may be lost."
        }
      ],
      "FailedInnerCall()": [
        {
          "details": "A call to an address target failed. The target may have reverted."
        }
      ],
      "InvalidInitialization()": [
        {
          "details": "The contract is already initialized."
        }
      ],
      "NotInitializing()": [
        {
          "details": "The contract is not initializing."
        }
      ],
      "OwnableInvalidOwner(address)": [
        {
          "details": "The owner is not a valid owner account. (eg. `address(0)`)"
        }
      ],
      "OwnableUnauthorizedAccount(address)": [
        {
          "details": "The caller account is not authorized to perform an operation."
        }
      ],
      "ReentrancyGuardReentrantCall()": [
        {
          "details": "Unauthorized reentrant call."
        }
      ],
      "SafeERC20FailedOperation(address)": [
        {
          "details": "An operation with an ERC20 token failed."
        }
      ],
      "UUPSUnauthorizedCallContext()": [
        {
          "details": "The call is from an unauthorized context."
        }
      ],
      "UUPSUnsupportedProxiableUUID(bytes32)": [
        {
          "details": "The storage `slot` is unsupported as a UUID."
        }
      ]
    },
    "events": {
      "Initialized(uint64)": {
        "details": "Triggered when the contract has been initialized or reinitialized."
      },
      "Upgraded(address)": {
        "details": "Emitted when the implementation is upgraded."
      }
    },
    "kind": "dev",
    "methods": {
      "owner()": {
        "details": "Returns the address of the current owner."
      },
      "proxiableUUID()": {
        "details": "Implementation of the ERC1822 {proxiableUUID} function. This returns the storage slot used by the implementation. It is used to validate the implementation's compatibility when performing an upgrade. IMPORTANT: A proxy pointing at a proxiable contract should not be considered proxiable itself, because this risks bricking a proxy that upgrades to it, by delegating to itself until out of gas. Thus it is critical that this function revert if invoked through a proxy. This is guaranteed by the `notDelegated` modifier."
      },
      "renounceOwnership()": {
        "details": "Leaves the contract without owner. It will not be possible to call `onlyOwner` functions. Can only be called by the current owner. NOTE: Renouncing ownership will leave the contract without an owner, thereby disabling any functionality that is only available to the owner."
      },
      "transferOwnership(address)": {
        "details": "Transfers ownership of the contract to a new account (`newOwner`). Can only be called by the current owner."
      },
      "upgradeToAndCall(address,bytes)": {
        "custom:oz-upgrades-unsafe-allow-reachable": "delegatecall",
        "details": "Upgrade the implementation of the proxy to `newImplementation`, and subsequently execute the function call encoded in `data`. Calls {_authorizeUpgrade}. Emits an {Upgraded} event."
      }
    },
    "version": 1
  },
  "userdoc": {
    "kind": "user",
    "methods": {
      "claimCollateral(address)": {
        "notice": "Claim remaining collateral from a redemption or from a liquidation with ICR > MCR in Recovery Mode"
      }
    },
    "version": 1
  },
  "storageLayout": {
    "storage": [
      {
        "astId": 8946,
        "contract": "contracts/BorrowerOperations.sol:BorrowerOperations",
        "label": "adminContract",
        "offset": 0,
        "slot": "0",
        "type": "t_address"
      },
      {
        "astId": 8948,
        "contract": "contracts/BorrowerOperations.sol:BorrowerOperations",
        "label": "borrowerOperations",
        "offset": 0,
        "slot": "1",
        "type": "t_address"
      },
      {
        "astId": 8950,
        "contract": "contracts/BorrowerOperations.sol:BorrowerOperations",
        "label": "communityIssuance",
        "offset": 0,
        "slot": "2",
        "type": "t_address"
      },
      {
        "astId": 8952,
        "contract": "contracts/BorrowerOperations.sol:BorrowerOperations",
        "label": "debtToken",
        "offset": 0,
        "slot": "3",
        "type": "t_address"
      },
      {
        "astId": 8954,
        "contract": "contracts/BorrowerOperations.sol:BorrowerOperations",
        "label": "feeCollector",
        "offset": 0,
        "slot": "4",
        "type": "t_address"
      },
      {
        "astId": 8956,
        "contract": "contracts/BorrowerOperations.sol:BorrowerOperations",
        "label": "flashLoanAddress",
        "offset": 0,
        "slot": "5",
        "type": "t_address"
      },
      {
        "astId": 8958,
        "contract": "contracts/BorrowerOperations.sol:BorrowerOperations",
        "label": "trenStaking",
        "offset": 0,
        "slot": "6",
        "type": "t_address"
      },
      {
        "astId": 8960,
        "contract": "contracts/BorrowerOperations.sol:BorrowerOperations",
        "label": "priceFeed",
        "offset": 0,
        "slot": "7",
        "type": "t_address"
      },
      {
        "astId": 8962,
        "contract": "contracts/BorrowerOperations.sol:BorrowerOperations",
        "label": "sortedTrenBoxes",
        "offset": 0,
        "slot": "8",
        "type": "t_address"
      },
      {
        "astId": 8964,
        "contract": "contracts/BorrowerOperations.sol:BorrowerOperations",
        "label": "stabilityPool",
        "offset": 0,
        "slot": "9",
        "type": "t_address"
      },
      {
        "astId": 8966,
        "contract": "contracts/BorrowerOperations.sol:BorrowerOperations",
        "label": "timelockAddress",
        "offset": 0,
        "slot": "10",
        "type": "t_address"
      },
      {
        "astId": 8968,
        "contract": "contracts/BorrowerOperations.sol:BorrowerOperations",
        "label": "treasuryAddress",
        "offset": 0,
        "slot": "11",
        "type": "t_address"
      },
      {
        "astId": 8970,
        "contract": "contracts/BorrowerOperations.sol:BorrowerOperations",
        "label": "trenBoxManager",
        "offset": 0,
        "slot": "12",
        "type": "t_address"
      },
      {
        "astId": 8972,
        "contract": "contracts/BorrowerOperations.sol:BorrowerOperations",
        "label": "trenBoxManagerOperations",
        "offset": 0,
        "slot": "13",
        "type": "t_address"
      },
      {
        "astId": 8974,
        "contract": "contracts/BorrowerOperations.sol:BorrowerOperations",
        "label": "trenBoxStorage",
        "offset": 0,
        "slot": "14",
        "type": "t_address"
      },
      {
        "astId": 8976,
        "contract": "contracts/BorrowerOperations.sol:BorrowerOperations",
        "label": "isAddressSetupInitialized",
        "offset": 20,
        "slot": "14",
        "type": "t_bool"
      },
      {
        "astId": 8981,
        "contract": "contracts/BorrowerOperations.sol:BorrowerOperations",
        "label": "__gap",
        "offset": 0,
        "slot": "15",
        "type": "t_array(t_uint256)33_storage"
      }
    ],
    "types": {
      "t_address": {
        "encoding": "inplace",
        "label": "address",
        "numberOfBytes": "20"
      },
      "t_array(t_uint256)33_storage": {
        "base": "t_uint256",
        "encoding": "inplace",
        "label": "uint256[33]",
        "numberOfBytes": "1056"
      },
      "t_bool": {
        "encoding": "inplace",
        "label": "bool",
        "numberOfBytes": "1"
      },
      "t_uint256": {
        "encoding": "inplace",
        "label": "uint256",
        "numberOfBytes": "32"
      }
    }
  }
}