{
  "address": "0xD523d2cD08bC8641841a852e57bE1B1f2Bc15b4B",
  "abi": [
    {
      "inputs": [
        {
          "internalType": "address",
          "name": "target",
          "type": "address"
        }
      ],
      "name": "AddressEmptyCode",
      "type": "error"
    },
    {
      "inputs": [
        {
          "internalType": "address",
          "name": "account",
          "type": "address"
        }
      ],
      "name": "AddressInsufficientBalance",
      "type": "error"
    },
    {
      "inputs": [],
      "name": "ConfigurableAddresses__CommunityIssuanceZeroAddress",
      "type": "error"
    },
    {
      "inputs": [],
      "name": "ConfigurableAddresses__LengthMismatch",
      "type": "error"
    },
    {
      "inputs": [],
      "name": "ConfigurableAddresses__SetupIsInitialized",
      "type": "error"
    },
    {
      "inputs": [],
      "name": "ConfigurableAddresses__TRENStakingZeroAddress",
      "type": "error"
    },
    {
      "inputs": [
        {
          "internalType": "uint256",
          "name": "position",
          "type": "uint256"
        },
        {
          "internalType": "address",
          "name": "address_",
          "type": "address"
        }
      ],
      "name": "ConfigurableAddresses__ZeroAddresses",
      "type": "error"
    },
    {
      "inputs": [
        {
          "internalType": "address",
          "name": "implementation",
          "type": "address"
        }
      ],
      "name": "ERC1967InvalidImplementation",
      "type": "error"
    },
    {
      "inputs": [],
      "name": "ERC1967NonPayable",
      "type": "error"
    },
    {
      "inputs": [],
      "name": "EthUnsupportedError",
      "type": "error"
    },
    {
      "inputs": [],
      "name": "FailedInnerCall",
      "type": "error"
    },
    {
      "inputs": [],
      "name": "InvalidAmountError",
      "type": "error"
    },
    {
      "inputs": [],
      "name": "InvalidInitialization",
      "type": "error"
    },
    {
      "inputs": [],
      "name": "NotInitializing",
      "type": "error"
    },
    {
      "inputs": [
        {
          "internalType": "address",
          "name": "owner",
          "type": "address"
        }
      ],
      "name": "OwnableInvalidOwner",
      "type": "error"
    },
    {
      "inputs": [
        {
          "internalType": "address",
          "name": "account",
          "type": "address"
        }
      ],
      "name": "OwnableUnauthorizedAccount",
      "type": "error"
    },
    {
      "inputs": [
        {
          "internalType": "address",
          "name": "token",
          "type": "address"
        }
      ],
      "name": "SafeERC20FailedOperation",
      "type": "error"
    },
    {
      "inputs": [],
      "name": "UUPSUnauthorizedCallContext",
      "type": "error"
    },
    {
      "inputs": [
        {
          "internalType": "bytes32",
          "name": "slot",
          "type": "bytes32"
        }
      ],
      "name": "UUPSUnsupportedProxiableUUID",
      "type": "error"
    },
    {
      "anonymous": false,
      "inputs": [
        {
          "indexed": false,
          "internalType": "address",
          "name": "_to",
          "type": "address"
        },
        {
          "indexed": true,
          "internalType": "address",
          "name": "_asset",
          "type": "address"
        },
        {
          "indexed": false,
          "internalType": "uint256",
          "name": "_amount",
          "type": "uint256"
        }
      ],
      "name": "AssetSent",
      "type": "event"
    },
    {
      "anonymous": false,
      "inputs": [
        {
          "indexed": false,
          "internalType": "address",
          "name": "_asset",
          "type": "address"
        },
        {
          "indexed": false,
          "internalType": "uint256",
          "name": "_balance",
          "type": "uint256"
        }
      ],
      "name": "DefaultPoolAssetBalanceUpdated",
      "type": "event"
    },
    {
      "anonymous": false,
      "inputs": [
        {
          "indexed": false,
          "internalType": "address",
          "name": "_asset",
          "type": "address"
        },
        {
          "indexed": false,
          "internalType": "uint256",
          "name": "_debt",
          "type": "uint256"
        }
      ],
      "name": "DefaultPoolDebtUpdated",
      "type": "event"
    },
    {
      "anonymous": false,
      "inputs": [
        {
          "indexed": false,
          "internalType": "uint64",
          "name": "version",
          "type": "uint64"
        }
      ],
      "name": "Initialized",
      "type": "event"
    },
    {
      "anonymous": false,
      "inputs": [
        {
          "indexed": true,
          "internalType": "address",
          "name": "previousOwner",
          "type": "address"
        },
        {
          "indexed": true,
          "internalType": "address",
          "name": "newOwner",
          "type": "address"
        }
      ],
      "name": "OwnershipTransferred",
      "type": "event"
    },
    {
      "anonymous": false,
      "inputs": [
        {
          "indexed": true,
          "internalType": "address",
          "name": "implementation",
          "type": "address"
        }
      ],
      "name": "Upgraded",
      "type": "event"
    },
    {
      "inputs": [],
      "name": "NAME",
      "outputs": [
        {
          "internalType": "string",
          "name": "",
          "type": "string"
        }
      ],
      "stateMutability": "view",
      "type": "function"
    },
    {
      "inputs": [],
      "name": "UPGRADE_INTERFACE_VERSION",
      "outputs": [
        {
          "internalType": "string",
          "name": "",
          "type": "string"
        }
      ],
      "stateMutability": "view",
      "type": "function"
    },
    {
      "inputs": [],
      "name": "activePool",
      "outputs": [
        {
          "internalType": "address",
          "name": "",
          "type": "address"
        }
      ],
      "stateMutability": "view",
      "type": "function"
    },
    {
      "inputs": [],
      "name": "adminContract",
      "outputs": [
        {
          "internalType": "address",
          "name": "",
          "type": "address"
        }
      ],
      "stateMutability": "view",
      "type": "function"
    },
    {
      "inputs": [
        {
          "internalType": "address",
          "name": "newImplementation",
          "type": "address"
        }
      ],
      "name": "authorizeUpgrade",
      "outputs": [],
      "stateMutability": "nonpayable",
      "type": "function"
    },
    {
      "inputs": [],
      "name": "borrowerOperations",
      "outputs": [
        {
          "internalType": "address",
          "name": "",
          "type": "address"
        }
      ],
      "stateMutability": "view",
      "type": "function"
    },
    {
      "inputs": [],
      "name": "collSurplusPool",
      "outputs": [
        {
          "internalType": "address",
          "name": "",
          "type": "address"
        }
      ],
      "stateMutability": "view",
      "type": "function"
    },
    {
      "inputs": [],
      "name": "communityIssuance",
      "outputs": [
        {
          "internalType": "address",
          "name": "",
          "type": "address"
        }
      ],
      "stateMutability": "view",
      "type": "function"
    },
    {
      "inputs": [],
      "name": "debtToken",
      "outputs": [
        {
          "internalType": "address",
          "name": "",
          "type": "address"
        }
      ],
      "stateMutability": "view",
      "type": "function"
    },
    {
      "inputs": [
        {
          "internalType": "address",
          "name": "_asset",
          "type": "address"
        },
        {
          "internalType": "uint256",
          "name": "_amount",
          "type": "uint256"
        }
      ],
      "name": "decreaseDebt",
      "outputs": [],
      "stateMutability": "nonpayable",
      "type": "function"
    },
    {
      "inputs": [],
      "name": "defaultPool",
      "outputs": [
        {
          "internalType": "address",
          "name": "",
          "type": "address"
        }
      ],
      "stateMutability": "view",
      "type": "function"
    },
    {
      "inputs": [],
      "name": "feeCollector",
      "outputs": [
        {
          "internalType": "address",
          "name": "",
          "type": "address"
        }
      ],
      "stateMutability": "view",
      "type": "function"
    },
    {
      "inputs": [],
      "name": "flashLoanAddress",
      "outputs": [
        {
          "internalType": "address",
          "name": "",
          "type": "address"
        }
      ],
      "stateMutability": "view",
      "type": "function"
    },
    {
      "inputs": [],
      "name": "gasPoolAddress",
      "outputs": [
        {
          "internalType": "address",
          "name": "",
          "type": "address"
        }
      ],
      "stateMutability": "view",
      "type": "function"
    },
    {
      "inputs": [
        {
          "internalType": "address",
          "name": "_asset",
          "type": "address"
        }
      ],
      "name": "getAssetBalance",
      "outputs": [
        {
          "internalType": "uint256",
          "name": "",
          "type": "uint256"
        }
      ],
      "stateMutability": "view",
      "type": "function"
    },
    {
      "inputs": [
        {
          "internalType": "address",
          "name": "_asset",
          "type": "address"
        }
      ],
      "name": "getDebtTokenBalance",
      "outputs": [
        {
          "internalType": "uint256",
          "name": "",
          "type": "uint256"
        }
      ],
      "stateMutability": "view",
      "type": "function"
    },
    {
      "inputs": [
        {
          "internalType": "address",
          "name": "_asset",
          "type": "address"
        },
        {
          "internalType": "uint256",
          "name": "_amount",
          "type": "uint256"
        }
      ],
      "name": "increaseDebt",
      "outputs": [],
      "stateMutability": "nonpayable",
      "type": "function"
    },
    {
      "inputs": [],
      "name": "initialize",
      "outputs": [],
      "stateMutability": "nonpayable",
      "type": "function"
    },
    {
      "inputs": [],
      "name": "isAddressSetupInitialized",
      "outputs": [
        {
          "internalType": "bool",
          "name": "",
          "type": "bool"
        }
      ],
      "stateMutability": "view",
      "type": "function"
    },
    {
      "inputs": [],
      "name": "owner",
      "outputs": [
        {
          "internalType": "address",
          "name": "",
          "type": "address"
        }
      ],
      "stateMutability": "view",
      "type": "function"
    },
    {
      "inputs": [],
      "name": "priceFeed",
      "outputs": [
        {
          "internalType": "address",
          "name": "",
          "type": "address"
        }
      ],
      "stateMutability": "view",
      "type": "function"
    },
    {
      "inputs": [],
      "name": "proxiableUUID",
      "outputs": [
        {
          "internalType": "bytes32",
          "name": "",
          "type": "bytes32"
        }
      ],
      "stateMutability": "view",
      "type": "function"
    },
    {
      "inputs": [
        {
          "internalType": "address",
          "name": "_asset",
          "type": "address"
        },
        {
          "internalType": "uint256",
          "name": "_amount",
          "type": "uint256"
        }
      ],
      "name": "receivedERC20",
      "outputs": [],
      "stateMutability": "nonpayable",
      "type": "function"
    },
    {
      "inputs": [],
      "name": "renounceOwnership",
      "outputs": [],
      "stateMutability": "nonpayable",
      "type": "function"
    },
    {
      "inputs": [
        {
          "internalType": "address",
          "name": "_asset",
          "type": "address"
        },
        {
          "internalType": "uint256",
          "name": "_amount",
          "type": "uint256"
        }
      ],
      "name": "sendAssetToActivePool",
      "outputs": [],
      "stateMutability": "nonpayable",
      "type": "function"
    },
    {
      "inputs": [
        {
          "internalType": "address[]",
          "name": "_addresses",
          "type": "address[]"
        }
      ],
      "name": "setAddresses",
      "outputs": [],
      "stateMutability": "nonpayable",
      "type": "function"
    },
    {
      "inputs": [
        {
          "internalType": "address",
          "name": "_communityIssuance",
          "type": "address"
        }
      ],
      "name": "setCommunityIssuance",
      "outputs": [],
      "stateMutability": "nonpayable",
      "type": "function"
    },
    {
      "inputs": [
        {
          "internalType": "address",
          "name": "_trenStaking",
          "type": "address"
        }
      ],
      "name": "setTRENStaking",
      "outputs": [],
      "stateMutability": "nonpayable",
      "type": "function"
    },
    {
      "inputs": [],
      "name": "sortedTrenBoxes",
      "outputs": [
        {
          "internalType": "address",
          "name": "",
          "type": "address"
        }
      ],
      "stateMutability": "view",
      "type": "function"
    },
    {
      "inputs": [],
      "name": "stabilityPool",
      "outputs": [
        {
          "internalType": "address",
          "name": "",
          "type": "address"
        }
      ],
      "stateMutability": "view",
      "type": "function"
    },
    {
      "inputs": [],
      "name": "timelockAddress",
      "outputs": [
        {
          "internalType": "address",
          "name": "",
          "type": "address"
        }
      ],
      "stateMutability": "view",
      "type": "function"
    },
    {
      "inputs": [
        {
          "internalType": "address",
          "name": "newOwner",
          "type": "address"
        }
      ],
      "name": "transferOwnership",
      "outputs": [],
      "stateMutability": "nonpayable",
      "type": "function"
    },
    {
      "inputs": [],
      "name": "treasuryAddress",
      "outputs": [
        {
          "internalType": "address",
          "name": "",
          "type": "address"
        }
      ],
      "stateMutability": "view",
      "type": "function"
    },
    {
      "inputs": [],
      "name": "trenBoxManager",
      "outputs": [
        {
          "internalType": "address",
          "name": "",
          "type": "address"
        }
      ],
      "stateMutability": "view",
      "type": "function"
    },
    {
      "inputs": [],
      "name": "trenBoxManagerOperations",
      "outputs": [
        {
          "internalType": "address",
          "name": "",
          "type": "address"
        }
      ],
      "stateMutability": "view",
      "type": "function"
    },
    {
      "inputs": [],
      "name": "trenStaking",
      "outputs": [
        {
          "internalType": "address",
          "name": "",
          "type": "address"
        }
      ],
      "stateMutability": "view",
      "type": "function"
    },
    {
      "inputs": [
        {
          "internalType": "address",
          "name": "newImplementation",
          "type": "address"
        },
        {
          "internalType": "bytes",
          "name": "data",
          "type": "bytes"
        }
      ],
      "name": "upgradeToAndCall",
      "outputs": [],
      "stateMutability": "payable",
      "type": "function"
    }
  ],
  "transactionHash": "0x80c493d92fafc632a0ad26ac39c83e11ce0e38fea21799dc18be6b6ce11acb12",
  "args": [],
  "numDeployments": 1,
  "solcInputHash": "76f2ac0d2a40f527e6541dfc9894b953",
  "bytecode": "0x60a06040523060805234801561001457600080fd5b50608051611e9e61003e60003960008181611485015281816114ae01526115ef0152611e9e6000f3fe60806040526004361061021a5760003560e01c80638da5cb5b11610123578063c8564c62116100ab578063f2fde38b1161006f578063f2fde38b146106ad578063f8585db3146106cd578063f8d89898146106ed578063fe0607331461070d578063fe9d03231461072d57600080fd5b8063c8564c62146105fc578063cc8b21e41461062d578063cda775f91461064d578063eb16f0041461066d578063f1c05a7e1461068d57600080fd5b8063b9571721116100f2578063b957172114610546578063c05c5e9414610566578063c415b95c14610586578063c5739d0b146105a6578063c5f956af146105dc57600080fd5b80638da5cb5b1461047457806395fb16bb146104b1578063a3f4df7e146104d1578063ad3cb1cc1461051557600080fd5b806352d1902d116101a6578063715018a611610175578063715018a6146103ea578063741bef1a146103ff57806377553ad41461041f5780637f7dde4a1461043f5780638129fc1c1461045f57600080fd5b806352d1902d146103515780635373433f1461037457806355dafa46146103aa5780636a85d67d146103ca57600080fd5b80632fb9ba31116101ed5780632fb9ba31146102be5780633cc74225146102de5780634169467d146102fe5780634bc66f321461031e5780634f1ef2861461033e57600080fd5b806301c931001461021f578063048c661d146102415780630a34d4d61461027e57806329fc67c81461029e575b600080fd5b34801561022b57600080fd5b5061023f61023a366004611a0e565b61074d565b005b34801561024d57600080fd5b50600d54610261906001600160a01b031681565b6040516001600160a01b0390911681526020015b60405180910390f35b34801561028a57600080fd5b50601154610261906001600160a01b031681565b3480156102aa57600080fd5b5061023f6102b9366004611a29565b61079e565b3480156102ca57600080fd5b5061023f6102d9366004611a29565b610937565b3480156102ea57600080fd5b50600654610261906001600160a01b031681565b34801561030a57600080fd5b50600854610261906001600160a01b031681565b34801561032a57600080fd5b50600e54610261906001600160a01b031681565b61023f61034c366004611a69565b6109e2565b34801561035d57600080fd5b506103666109fd565b604051908152602001610275565b34801561038057600080fd5b5061036661038f366004611a0e565b6001600160a01b031660009081526033602052604090205490565b3480156103b657600080fd5b50600a54610261906001600160a01b031681565b3480156103d657600080fd5b5061023f6103e5366004611a0e565b610a1a565b3480156103f657600080fd5b5061023f610a6b565b34801561040b57600080fd5b50600b54610261906001600160a01b031681565b34801561042b57600080fd5b50600254610261906001600160a01b031681565b34801561044b57600080fd5b50600054610261906001600160a01b031681565b34801561046b57600080fd5b5061023f610a7f565b34801561048057600080fd5b507f9016d09d72d40fdae2fd8ceac6b6234c7706214fd39c1cd1e609a0528c199300546001600160a01b0316610261565b3480156104bd57600080fd5b50600454610261906001600160a01b031681565b3480156104dd57600080fd5b506105086040518060400160405280600b81526020016a111959985d5b1d141bdbdb60aa1b81525081565b6040516102759190611b4f565b34801561052157600080fd5b50610508604051806040016040528060058152602001640352e302e360dc1b81525081565b34801561055257600080fd5b5061023f610561366004611b82565b610b98565b34801561057257600080fd5b50600154610261906001600160a01b031681565b34801561059257600080fd5b50600754610261906001600160a01b031681565b3480156105b257600080fd5b506103666105c1366004611a0e565b6001600160a01b031660009081526034602052604090205490565b3480156105e857600080fd5b50600f54610261906001600160a01b031681565b34801561060857600080fd5b5060115461061d90600160a01b900460ff1681565b6040519015158152602001610275565b34801561063957600080fd5b50600c54610261906001600160a01b031681565b34801561065957600080fd5b50600354610261906001600160a01b031681565b34801561067957600080fd5b5061023f610688366004611a29565b611114565b34801561069957600080fd5b50601054610261906001600160a01b031681565b3480156106b957600080fd5b5061023f6106c8366004611a0e565b6111f8565b3480156106d957600080fd5b5061023f6106e8366004611a29565b611236565b3480156106f957600080fd5b50600554610261906001600160a01b031681565b34801561071957600080fd5b5061023f610728366004611a0e565b611284565b34801561073957600080fd5b50600954610261906001600160a01b031681565b61075561128d565b6001600160a01b03811661077c576040516385d3330760e01b815260040160405180910390fd5b600a80546001600160a01b0319166001600160a01b0392909216919091179055565b6010546001600160a01b031633146107d15760405162461bcd60e51b81526004016107c890611bf7565b60405180910390fd5b60006107dd83836112e8565b9050806000036107ec57505050565b6001600160a01b038316600090815260336020526040812054610810908490611c5a565b6001600160a01b0380861660008181526033602052604081208490555492935061083d9290911684611423565b600054604051633ac5bc0160e21b81526001600160a01b038681166004830152602482018690529091169063eb16f00490604401600060405180830381600087803b15801561088b57600080fd5b505af115801561089f573d6000803e3d6000fd5b5050604080516001600160a01b0388168152602081018590527f4d42ce079a4e464782330acbd88d008e74e55501cf9d29de797fa46bac59bc61935001905060405180910390a1600054604080516001600160a01b03928316815260208101859052918616917ff89c3306c782ffbbe4593aa5673e97e9ad6a8c65d240405e8986363fada66392910160405180910390a250505b5050565b6010546001600160a01b031633146109615760405162461bcd60e51b81526004016107c890611bf7565b6001600160a01b038216600090815260346020526040812054610985908390611c5a565b6001600160a01b038416600081815260346020908152604091829020849055815192835282018390529192507fa43a71186e899a58a054e300880cd236f24f9d0896a03b614cd0b62a702e1b0291015b60405180910390a1505050565b6109ea61147a565b6109f38261151f565b6109338282611527565b6000610a076115e4565b50600080516020611e7283398151915290565b610a2261128d565b6001600160a01b038116610a495760405163706ebc6560e11b815260040160405180910390fd5b600480546001600160a01b0319166001600160a01b0392909216919091179055565b610a7361128d565b610a7d600061162d565b565b7ff0c57e16840df040f15088dc2f81fe391c3923bec73e23a9662efc9c229c6a008054600160401b810460ff16159067ffffffffffffffff16600081158015610ac55750825b905060008267ffffffffffffffff166001148015610ae25750303b155b905081158015610af0575080155b15610b0e5760405163f92ee8a960e01b815260040160405180910390fd5b845467ffffffffffffffff191660011785558315610b3857845460ff60401b1916600160401b1785555b33610b428161169e565b610b4a6116af565b508315610b9157845460ff60401b19168555604051600181527fc7f505b2f371ae2175ee4913f4499e1f2633a7b5936321eed1cdaeb6115181d29060200160405180910390a15b5050505050565b610ba061128d565b601154600160a01b900460ff1615610bca57604051625f22e960e41b815260040160405180910390fd5b60108114610beb57604051633f5a111d60e21b815260040160405180910390fd5b60005b6010811015610c89576000838383818110610c0b57610c0b611c6d565b9050602002016020810190610c209190611a0e565b6001600160a01b031603610c815780838383818110610c4157610c41611c6d565b9050602002016020810190610c569190611a0e565b604051630d9d339f60e01b815260048101929092526001600160a01b031660248201526044016107c8565b600101610bee565b5081816000818110610c9d57610c9d611c6d565b9050602002016020810190610cb29190611a0e565b600080546001600160a01b0319166001600160a01b039290921691909117905581816001818110610ce557610ce5611c6d565b9050602002016020810190610cfa9190611a0e565b600180546001600160a01b0319166001600160a01b039290921691909117905581816002818110610d2d57610d2d611c6d565b9050602002016020810190610d429190611a0e565b600280546001600160a01b0319166001600160a01b039290921691909117905581816003818110610d7557610d75611c6d565b9050602002016020810190610d8a9190611a0e565b600380546001600160a01b0319166001600160a01b039290921691909117905581816004818110610dbd57610dbd611c6d565b9050602002016020810190610dd29190611a0e565b600580546001600160a01b0319166001600160a01b039290921691909117815582908290818110610e0557610e05611c6d565b9050602002016020810190610e1a9190611a0e565b600680546001600160a01b0319166001600160a01b039290921691909117815582908290818110610e4d57610e4d611c6d565b9050602002016020810190610e629190611a0e565b600780546001600160a01b0319166001600160a01b039290921691909117815582908290818110610e9557610e95611c6d565b9050602002016020810190610eaa9190611a0e565b600880546001600160a01b0319166001600160a01b039290921691909117815582908290818110610edd57610edd611c6d565b9050602002016020810190610ef29190611a0e565b600980546001600160a01b0319166001600160a01b039290921691909117815582908290818110610f2557610f25611c6d565b9050602002016020810190610f3a9190611a0e565b600b80546001600160a01b0319166001600160a01b03929092169190911790558181600a818110610f6d57610f6d611c6d565b9050602002016020810190610f829190611a0e565b600c80546001600160a01b0319166001600160a01b03929092169190911790558181600b818110610fb557610fb5611c6d565b9050602002016020810190610fca9190611a0e565b600d80546001600160a01b0319166001600160a01b03929092169190911790558181600c818110610ffd57610ffd611c6d565b90506020020160208101906110129190611a0e565b600e80546001600160a01b0319166001600160a01b03929092169190911790558181600d81811061104557611045611c6d565b905060200201602081019061105a9190611a0e565b600f80546001600160a01b0319166001600160a01b03929092169190911790558181600e81811061108d5761108d611c6d565b90506020020160208101906110a29190611a0e565b601080546001600160a01b0319166001600160a01b03929092169190911790558181600f8181106110d5576110d5611c6d565b90506020020160208101906110ea9190611a0e565b601180546001600160a81b0319166001600160a01b039290921691909117600160a01b1790555050565b6000546001600160a01b031633146111805760405162461bcd60e51b815260206004820152602960248201527f44656661756c74506f6f6c3a2043616c6c6572206973206e6f7420746865204160448201526818dd1a5d99541bdbdb60ba1b60648201526084016107c8565b6001600160a01b0382166000908152603360205260408120546111a4908390611c83565b6001600160a01b038416600081815260336020908152604091829020849055815192835282018390529192507f4d42ce079a4e464782330acbd88d008e74e55501cf9d29de797fa46bac59bc6191016109d5565b61120061128d565b6001600160a01b03811661122a57604051631e4fbdf760e01b8152600060048201526024016107c8565b6112338161162d565b50565b6010546001600160a01b031633146112605760405162461bcd60e51b81526004016107c890611bf7565b6001600160a01b038216600090815260346020526040812054610985908390611c83565b6112338161151f565b336112bf7f9016d09d72d40fdae2fd8ceac6b6234c7706214fd39c1cd1e609a0528c199300546001600160a01b031690565b6001600160a01b031614610a7d5760405163118cdaa760e01b81523360048201526024016107c8565b60006001600160a01b03831661131157604051631dcb38eb60e11b815260040160405180910390fd5b816000036113215750600061141d565b6000836001600160a01b031663313ce5676040518163ffffffff1660e01b8152600401602060405180830381865afa158015611361573d6000803e3d6000fd5b505050506040513d601f19601f820116820180604052508101906113859190611c96565b905060128160ff1610156113e85760006113a0826012611cb9565b6113ab90600a611db6565b90506113b78185611ddb565b156113d557604051630f51ac8560e31b815260040160405180910390fd5b6113df8185611def565b9250505061141d565b60128160ff161115611418576000611401601283611cb9565b61140c90600a611db6565b90506113df8185611e03565b829150505b92915050565b604080516001600160a01b038416602482015260448082018490528251808303909101815260649091019091526020810180516001600160e01b031663a9059cbb60e01b1790526114759084906116b7565b505050565b306001600160a01b037f000000000000000000000000000000000000000000000000000000000000000016148061150157507f00000000000000000000000000000000000000000000000000000000000000006001600160a01b03166114f5600080516020611e72833981519152546001600160a01b031690565b6001600160a01b031614155b15610a7d5760405163703e46dd60e11b815260040160405180910390fd5b61123361128d565b816001600160a01b03166352d1902d6040518163ffffffff1660e01b8152600401602060405180830381865afa925050508015611581575060408051601f3d908101601f1916820190925261157e91810190611e1a565b60015b6115a957604051634c9c8ce360e01b81526001600160a01b03831660048201526024016107c8565b600080516020611e7283398151915281146115da57604051632a87526960e21b8152600481018290526024016107c8565b611475838361171a565b306001600160a01b037f00000000000000000000000000000000000000000000000000000000000000001614610a7d5760405163703e46dd60e11b815260040160405180910390fd5b7f9016d09d72d40fdae2fd8ceac6b6234c7706214fd39c1cd1e609a0528c19930080546001600160a01b031981166001600160a01b03848116918217845560405192169182907f8be0079c531659141344cd1fd0a4f28419497f9722a3daafe3b4186f6b6457e090600090a3505050565b6116a6611770565b611233816117b9565b610a7d611770565b60006116cc6001600160a01b038416836117c1565b905080516000141580156116f15750808060200190518101906116ef9190611e33565b155b1561147557604051635274afe760e01b81526001600160a01b03841660048201526024016107c8565b611723826117d6565b6040516001600160a01b038316907fbc7cd75a20ee27fd9adebab32041f755214dbc6bffa90cc0225b39da2e5c2d3b90600090a280511561176857611475828261183b565b6109336118b1565b7ff0c57e16840df040f15088dc2f81fe391c3923bec73e23a9662efc9c229c6a0054600160401b900460ff16610a7d57604051631afcd79f60e31b815260040160405180910390fd5b611200611770565b60606117cf838360006118d0565b9392505050565b806001600160a01b03163b60000361180c57604051634c9c8ce360e01b81526001600160a01b03821660048201526024016107c8565b600080516020611e7283398151915280546001600160a01b0319166001600160a01b0392909216919091179055565b6060600080846001600160a01b0316846040516118589190611e55565b600060405180830381855af49150503d8060008114611893576040519150601f19603f3d011682016040523d82523d6000602084013e611898565b606091505b50915091506118a885838361196d565b95945050505050565b3415610a7d5760405163b398979f60e01b815260040160405180910390fd5b6060814710156118f55760405163cd78605960e01b81523060048201526024016107c8565b600080856001600160a01b031684866040516119119190611e55565b60006040518083038185875af1925050503d806000811461194e576040519150601f19603f3d011682016040523d82523d6000602084013e611953565b606091505b509150915061196386838361196d565b9695505050505050565b6060826119825761197d826119c9565b6117cf565b815115801561199957506001600160a01b0384163b155b156119c257604051639996b31560e01b81526001600160a01b03851660048201526024016107c8565b50806117cf565b8051156119d95780518082602001fd5b604051630a12f52160e11b815260040160405180910390fd5b80356001600160a01b0381168114611a0957600080fd5b919050565b600060208284031215611a2057600080fd5b6117cf826119f2565b60008060408385031215611a3c57600080fd5b611a45836119f2565b946020939093013593505050565b634e487b7160e01b600052604160045260246000fd5b60008060408385031215611a7c57600080fd5b611a85836119f2565b9150602083013567ffffffffffffffff80821115611aa257600080fd5b818501915085601f830112611ab657600080fd5b813581811115611ac857611ac8611a53565b604051601f8201601f19908116603f01168101908382118183101715611af057611af0611a53565b81604052828152886020848701011115611b0957600080fd5b8260208601602083013760006020848301015280955050505050509250929050565b60005b83811015611b46578181015183820152602001611b2e565b50506000910152565b6020815260008251806020840152611b6e816040850160208701611b2b565b601f01601f19169190910160400192915050565b60008060208385031215611b9557600080fd5b823567ffffffffffffffff80821115611bad57600080fd5b818501915085601f830112611bc157600080fd5b813581811115611bd057600080fd5b8660208260051b8501011115611be557600080fd5b60209290920196919550909350505050565b6020808252602d908201527f44656661756c74506f6f6c3a2043616c6c6572206973206e6f7420746865205460408201526c3932b72137bc26b0b730b3b2b960991b606082015260800190565b634e487b7160e01b600052601160045260246000fd5b8181038181111561141d5761141d611c44565b634e487b7160e01b600052603260045260246000fd5b8082018082111561141d5761141d611c44565b600060208284031215611ca857600080fd5b815160ff811681146117cf57600080fd5b60ff828116828216039081111561141d5761141d611c44565b600181815b80851115611d0d578160001904821115611cf357611cf3611c44565b80851615611d0057918102915b93841c9390800290611cd7565b509250929050565b600082611d245750600161141d565b81611d315750600061141d565b8160018114611d475760028114611d5157611d6d565b600191505061141d565b60ff841115611d6257611d62611c44565b50506001821b61141d565b5060208310610133831016604e8410600b8410161715611d90575081810a61141d565b611d9a8383611cd2565b8060001904821115611dae57611dae611c44565b029392505050565b60006117cf60ff841683611d15565b634e487b7160e01b600052601260045260246000fd5b600082611dea57611dea611dc5565b500690565b600082611dfe57611dfe611dc5565b500490565b808202811582820484141761141d5761141d611c44565b600060208284031215611e2c57600080fd5b5051919050565b600060208284031215611e4557600080fd5b815180151581146117cf57600080fd5b60008251611e67818460208701611b2b565b919091019291505056fe360894a13ba1a3210667c828492db98dca3e2076cc3735a920a3ca505d382bbca164736f6c6343000817000a",
  "devdoc": {
    "errors": {
      "AddressEmptyCode(address)": [
        {
          "details": "There's no code at `target` (it is not a contract)."
        }
      ],
      "AddressInsufficientBalance(address)": [
        {
          "details": "The ETH balance of the account is not enough to perform the operation."
        }
      ],
      "ERC1967InvalidImplementation(address)": [
        {
          "details": "The `implementation` of the proxy is invalid."
        }
      ],
      "ERC1967NonPayable()": [
        {
          "details": "An upgrade function sees `msg.value > 0` that may be lost."
        }
      ],
      "FailedInnerCall()": [
        {
          "details": "A call to an address target failed. The target may have reverted."
        }
      ],
      "InvalidInitialization()": [
        {
          "details": "The contract is already initialized."
        }
      ],
      "NotInitializing()": [
        {
          "details": "The contract is not initializing."
        }
      ],
      "OwnableInvalidOwner(address)": [
        {
          "details": "The owner is not a valid owner account. (eg. `address(0)`)"
        }
      ],
      "OwnableUnauthorizedAccount(address)": [
        {
          "details": "The caller account is not authorized to perform an operation."
        }
      ],
      "SafeERC20FailedOperation(address)": [
        {
          "details": "An operation with an ERC20 token failed."
        }
      ],
      "UUPSUnauthorizedCallContext()": [
        {
          "details": "The call is from an unauthorized context."
        }
      ],
      "UUPSUnsupportedProxiableUUID(bytes32)": [
        {
          "details": "The storage `slot` is unsupported as a UUID."
        }
      ]
    },
    "events": {
      "Initialized(uint64)": {
        "details": "Triggered when the contract has been initialized or reinitialized."
      },
      "Upgraded(address)": {
        "details": "Emitted when the implementation is upgraded."
      }
    },
    "kind": "dev",
    "methods": {
      "owner()": {
        "details": "Returns the address of the current owner."
      },
      "proxiableUUID()": {
        "details": "Implementation of the ERC1822 {proxiableUUID} function. This returns the storage slot used by the implementation. It is used to validate the implementation's compatibility when performing an upgrade. IMPORTANT: A proxy pointing at a proxiable contract should not be considered proxiable itself, because this risks bricking a proxy that upgrades to it, by delegating to itself until out of gas. Thus it is critical that this function revert if invoked through a proxy. This is guaranteed by the `notDelegated` modifier."
      },
      "renounceOwnership()": {
        "details": "Leaves the contract without owner. It will not be possible to call `onlyOwner` functions. Can only be called by the current owner. NOTE: Renouncing ownership will leave the contract without an owner, thereby disabling any functionality that is only available to the owner."
      },
      "transferOwnership(address)": {
        "details": "Transfers ownership of the contract to a new account (`newOwner`). Can only be called by the current owner."
      },
      "upgradeToAndCall(address,bytes)": {
        "custom:oz-upgrades-unsafe-allow-reachable": "delegatecall",
        "details": "Upgrade the implementation of the proxy to `newImplementation`, and subsequently execute the function call encoded in `data`. Calls {_authorizeUpgrade}. Emits an {Upgraded} event."
      }
    },
    "version": 1
  },
  "userdoc": {
    "kind": "user",
    "methods": {},
    "version": 1
  },
  "storageLayout": {
    "storage": [
      {
        "astId": 10031,
        "contract": "contracts/DefaultPool.sol:DefaultPool",
        "label": "activePool",
        "offset": 0,
        "slot": "0",
        "type": "t_address"
      },
      {
        "astId": 10033,
        "contract": "contracts/DefaultPool.sol:DefaultPool",
        "label": "adminContract",
        "offset": 0,
        "slot": "1",
        "type": "t_address"
      },
      {
        "astId": 10035,
        "contract": "contracts/DefaultPool.sol:DefaultPool",
        "label": "borrowerOperations",
        "offset": 0,
        "slot": "2",
        "type": "t_address"
      },
      {
        "astId": 10037,
        "contract": "contracts/DefaultPool.sol:DefaultPool",
        "label": "collSurplusPool",
        "offset": 0,
        "slot": "3",
        "type": "t_address"
      },
      {
        "astId": 10039,
        "contract": "contracts/DefaultPool.sol:DefaultPool",
        "label": "communityIssuance",
        "offset": 0,
        "slot": "4",
        "type": "t_address"
      },
      {
        "astId": 10041,
        "contract": "contracts/DefaultPool.sol:DefaultPool",
        "label": "debtToken",
        "offset": 0,
        "slot": "5",
        "type": "t_address"
      },
      {
        "astId": 10043,
        "contract": "contracts/DefaultPool.sol:DefaultPool",
        "label": "defaultPool",
        "offset": 0,
        "slot": "6",
        "type": "t_address"
      },
      {
        "astId": 10045,
        "contract": "contracts/DefaultPool.sol:DefaultPool",
        "label": "feeCollector",
        "offset": 0,
        "slot": "7",
        "type": "t_address"
      },
      {
        "astId": 10047,
        "contract": "contracts/DefaultPool.sol:DefaultPool",
        "label": "flashLoanAddress",
        "offset": 0,
        "slot": "8",
        "type": "t_address"
      },
      {
        "astId": 10049,
        "contract": "contracts/DefaultPool.sol:DefaultPool",
        "label": "gasPoolAddress",
        "offset": 0,
        "slot": "9",
        "type": "t_address"
      },
      {
        "astId": 10051,
        "contract": "contracts/DefaultPool.sol:DefaultPool",
        "label": "trenStaking",
        "offset": 0,
        "slot": "10",
        "type": "t_address"
      },
      {
        "astId": 10053,
        "contract": "contracts/DefaultPool.sol:DefaultPool",
        "label": "priceFeed",
        "offset": 0,
        "slot": "11",
        "type": "t_address"
      },
      {
        "astId": 10055,
        "contract": "contracts/DefaultPool.sol:DefaultPool",
        "label": "sortedTrenBoxes",
        "offset": 0,
        "slot": "12",
        "type": "t_address"
      },
      {
        "astId": 10057,
        "contract": "contracts/DefaultPool.sol:DefaultPool",
        "label": "stabilityPool",
        "offset": 0,
        "slot": "13",
        "type": "t_address"
      },
      {
        "astId": 10059,
        "contract": "contracts/DefaultPool.sol:DefaultPool",
        "label": "timelockAddress",
        "offset": 0,
        "slot": "14",
        "type": "t_address"
      },
      {
        "astId": 10061,
        "contract": "contracts/DefaultPool.sol:DefaultPool",
        "label": "treasuryAddress",
        "offset": 0,
        "slot": "15",
        "type": "t_address"
      },
      {
        "astId": 10063,
        "contract": "contracts/DefaultPool.sol:DefaultPool",
        "label": "trenBoxManager",
        "offset": 0,
        "slot": "16",
        "type": "t_address"
      },
      {
        "astId": 10065,
        "contract": "contracts/DefaultPool.sol:DefaultPool",
        "label": "trenBoxManagerOperations",
        "offset": 0,
        "slot": "17",
        "type": "t_address"
      },
      {
        "astId": 10067,
        "contract": "contracts/DefaultPool.sol:DefaultPool",
        "label": "isAddressSetupInitialized",
        "offset": 20,
        "slot": "17",
        "type": "t_bool"
      },
      {
        "astId": 10072,
        "contract": "contracts/DefaultPool.sol:DefaultPool",
        "label": "__gap",
        "offset": 0,
        "slot": "18",
        "type": "t_array(t_uint256)33_storage"
      },
      {
        "astId": 9776,
        "contract": "contracts/DefaultPool.sol:DefaultPool",
        "label": "assetsBalances",
        "offset": 0,
        "slot": "51",
        "type": "t_mapping(t_address,t_uint256)"
      },
      {
        "astId": 9780,
        "contract": "contracts/DefaultPool.sol:DefaultPool",
        "label": "debtTokenBalances",
        "offset": 0,
        "slot": "52",
        "type": "t_mapping(t_address,t_uint256)"
      }
    ],
    "types": {
      "t_address": {
        "encoding": "inplace",
        "label": "address",
        "numberOfBytes": "20"
      },
      "t_array(t_uint256)33_storage": {
        "base": "t_uint256",
        "encoding": "inplace",
        "label": "uint256[33]",
        "numberOfBytes": "1056"
      },
      "t_bool": {
        "encoding": "inplace",
        "label": "bool",
        "numberOfBytes": "1"
      },
      "t_mapping(t_address,t_uint256)": {
        "encoding": "mapping",
        "key": "t_address",
        "label": "mapping(address => uint256)",
        "numberOfBytes": "32",
        "value": "t_uint256"
      },
      "t_uint256": {
        "encoding": "inplace",
        "label": "uint256",
        "numberOfBytes": "32"
      }
    }
  }
}