{
  "address": "0xfb5D68B524609B141E0DD725a872A512667E12Fd",
  "abi": [
    {
      "inputs": [
        {
          "internalType": "address",
          "name": "target",
          "type": "address"
        }
      ],
      "name": "AddressEmptyCode",
      "type": "error"
    },
    {
      "inputs": [],
      "name": "ConfigurableAddresses__CommunityIssuanceZeroAddress",
      "type": "error"
    },
    {
      "inputs": [],
      "name": "ConfigurableAddresses__LengthMismatch",
      "type": "error"
    },
    {
      "inputs": [],
      "name": "ConfigurableAddresses__SetupIsInitialized",
      "type": "error"
    },
    {
      "inputs": [],
      "name": "ConfigurableAddresses__TRENStakingZeroAddress",
      "type": "error"
    },
    {
      "inputs": [
        {
          "internalType": "uint256",
          "name": "position",
          "type": "uint256"
        },
        {
          "internalType": "address",
          "name": "address_",
          "type": "address"
        }
      ],
      "name": "ConfigurableAddresses__ZeroAddresses",
      "type": "error"
    },
    {
      "inputs": [
        {
          "internalType": "address",
          "name": "implementation",
          "type": "address"
        }
      ],
      "name": "ERC1967InvalidImplementation",
      "type": "error"
    },
    {
      "inputs": [],
      "name": "ERC1967NonPayable",
      "type": "error"
    },
    {
      "inputs": [],
      "name": "FailedInnerCall",
      "type": "error"
    },
    {
      "inputs": [],
      "name": "InvalidInitialization",
      "type": "error"
    },
    {
      "inputs": [],
      "name": "NotInitializing",
      "type": "error"
    },
    {
      "inputs": [
        {
          "internalType": "address",
          "name": "owner",
          "type": "address"
        }
      ],
      "name": "OwnableInvalidOwner",
      "type": "error"
    },
    {
      "inputs": [
        {
          "internalType": "address",
          "name": "account",
          "type": "address"
        }
      ],
      "name": "OwnableUnauthorizedAccount",
      "type": "error"
    },
    {
      "inputs": [],
      "name": "PriceFeed__ExistingOracleRequired",
      "type": "error"
    },
    {
      "inputs": [],
      "name": "PriceFeed__InvalidDecimalsError",
      "type": "error"
    },
    {
      "inputs": [
        {
          "internalType": "address",
          "name": "token",
          "type": "address"
        }
      ],
      "name": "PriceFeed__InvalidOracleResponseError",
      "type": "error"
    },
    {
      "inputs": [],
      "name": "PriceFeed__TimelockOnlyError",
      "type": "error"
    },
    {
      "inputs": [],
      "name": "PriceFeed__UnknownAssetError",
      "type": "error"
    },
    {
      "inputs": [],
      "name": "UUPSUnauthorizedCallContext",
      "type": "error"
    },
    {
      "inputs": [
        {
          "internalType": "bytes32",
          "name": "slot",
          "type": "bytes32"
        }
      ],
      "name": "UUPSUnsupportedProxiableUUID",
      "type": "error"
    },
    {
      "anonymous": false,
      "inputs": [
        {
          "indexed": false,
          "internalType": "uint64",
          "name": "version",
          "type": "uint64"
        }
      ],
      "name": "Initialized",
      "type": "event"
    },
    {
      "anonymous": false,
      "inputs": [
        {
          "indexed": false,
          "internalType": "address",
          "name": "token",
          "type": "address"
        },
        {
          "indexed": false,
          "internalType": "address",
          "name": "oracleAddress",
          "type": "address"
        },
        {
          "indexed": false,
          "internalType": "bool",
          "name": "isEthIndexed",
          "type": "bool"
        },
        {
          "indexed": false,
          "internalType": "bool",
          "name": "isFallback",
          "type": "bool"
        }
      ],
      "name": "NewOracleRegistered",
      "type": "event"
    },
    {
      "anonymous": false,
      "inputs": [
        {
          "indexed": true,
          "internalType": "address",
          "name": "previousOwner",
          "type": "address"
        },
        {
          "indexed": true,
          "internalType": "address",
          "name": "newOwner",
          "type": "address"
        }
      ],
      "name": "OwnershipTransferred",
      "type": "event"
    },
    {
      "anonymous": false,
      "inputs": [
        {
          "indexed": true,
          "internalType": "address",
          "name": "implementation",
          "type": "address"
        }
      ],
      "name": "Upgraded",
      "type": "event"
    },
    {
      "inputs": [],
      "name": "NAME",
      "outputs": [
        {
          "internalType": "string",
          "name": "",
          "type": "string"
        }
      ],
      "stateMutability": "view",
      "type": "function"
    },
    {
      "inputs": [],
      "name": "TARGET_DIGITS",
      "outputs": [
        {
          "internalType": "uint256",
          "name": "",
          "type": "uint256"
        }
      ],
      "stateMutability": "view",
      "type": "function"
    },
    {
      "inputs": [],
      "name": "UPGRADE_INTERFACE_VERSION",
      "outputs": [
        {
          "internalType": "string",
          "name": "",
          "type": "string"
        }
      ],
      "stateMutability": "view",
      "type": "function"
    },
    {
      "inputs": [],
      "name": "adminContract",
      "outputs": [
        {
          "internalType": "address",
          "name": "",
          "type": "address"
        }
      ],
      "stateMutability": "view",
      "type": "function"
    },
    {
      "inputs": [
        {
          "internalType": "address",
          "name": "newImplementation",
          "type": "address"
        }
      ],
      "name": "authorizeUpgrade",
      "outputs": [],
      "stateMutability": "nonpayable",
      "type": "function"
    },
    {
      "inputs": [],
      "name": "borrowerOperations",
      "outputs": [
        {
          "internalType": "address",
          "name": "",
          "type": "address"
        }
      ],
      "stateMutability": "view",
      "type": "function"
    },
    {
      "inputs": [],
      "name": "communityIssuance",
      "outputs": [
        {
          "internalType": "address",
          "name": "",
          "type": "address"
        }
      ],
      "stateMutability": "view",
      "type": "function"
    },
    {
      "inputs": [],
      "name": "debtToken",
      "outputs": [
        {
          "internalType": "address",
          "name": "",
          "type": "address"
        }
      ],
      "stateMutability": "view",
      "type": "function"
    },
    {
      "inputs": [
        {
          "internalType": "address",
          "name": "token",
          "type": "address"
        }
      ],
      "name": "fallbacks",
      "outputs": [
        {
          "internalType": "address",
          "name": "oracleAddress",
          "type": "address"
        },
        {
          "internalType": "enum IPriceFeed.ProviderType",
          "name": "providerType",
          "type": "uint8"
        },
        {
          "internalType": "uint256",
          "name": "timeoutSeconds",
          "type": "uint256"
        },
        {
          "internalType": "uint256",
          "name": "decimals",
          "type": "uint256"
        },
        {
          "internalType": "bool",
          "name": "isEthIndexed",
          "type": "bool"
        }
      ],
      "stateMutability": "view",
      "type": "function"
    },
    {
      "inputs": [],
      "name": "feeCollector",
      "outputs": [
        {
          "internalType": "address",
          "name": "",
          "type": "address"
        }
      ],
      "stateMutability": "view",
      "type": "function"
    },
    {
      "inputs": [
        {
          "internalType": "address",
          "name": "_token",
          "type": "address"
        }
      ],
      "name": "fetchPrice",
      "outputs": [
        {
          "internalType": "uint256",
          "name": "",
          "type": "uint256"
        }
      ],
      "stateMutability": "view",
      "type": "function"
    },
    {
      "inputs": [],
      "name": "flashLoanAddress",
      "outputs": [
        {
          "internalType": "address",
          "name": "",
          "type": "address"
        }
      ],
      "stateMutability": "view",
      "type": "function"
    },
    {
      "inputs": [
        {
          "internalType": "address",
          "name": "initialOwner",
          "type": "address"
        }
      ],
      "name": "initialize",
      "outputs": [],
      "stateMutability": "nonpayable",
      "type": "function"
    },
    {
      "inputs": [],
      "name": "isAddressSetupInitialized",
      "outputs": [
        {
          "internalType": "bool",
          "name": "",
          "type": "bool"
        }
      ],
      "stateMutability": "view",
      "type": "function"
    },
    {
      "inputs": [
        {
          "internalType": "address",
          "name": "token",
          "type": "address"
        }
      ],
      "name": "oracles",
      "outputs": [
        {
          "internalType": "address",
          "name": "oracleAddress",
          "type": "address"
        },
        {
          "internalType": "enum IPriceFeed.ProviderType",
          "name": "providerType",
          "type": "uint8"
        },
        {
          "internalType": "uint256",
          "name": "timeoutSeconds",
          "type": "uint256"
        },
        {
          "internalType": "uint256",
          "name": "decimals",
          "type": "uint256"
        },
        {
          "internalType": "bool",
          "name": "isEthIndexed",
          "type": "bool"
        }
      ],
      "stateMutability": "view",
      "type": "function"
    },
    {
      "inputs": [],
      "name": "owner",
      "outputs": [
        {
          "internalType": "address",
          "name": "",
          "type": "address"
        }
      ],
      "stateMutability": "view",
      "type": "function"
    },
    {
      "inputs": [],
      "name": "priceFeed",
      "outputs": [
        {
          "internalType": "address",
          "name": "",
          "type": "address"
        }
      ],
      "stateMutability": "view",
      "type": "function"
    },
    {
      "inputs": [],
      "name": "proxiableUUID",
      "outputs": [
        {
          "internalType": "bytes32",
          "name": "",
          "type": "bytes32"
        }
      ],
      "stateMutability": "view",
      "type": "function"
    },
    {
      "inputs": [],
      "name": "renounceOwnership",
      "outputs": [],
      "stateMutability": "nonpayable",
      "type": "function"
    },
    {
      "inputs": [
        {
          "internalType": "address[]",
          "name": "_addresses",
          "type": "address[]"
        }
      ],
      "name": "setAddresses",
      "outputs": [],
      "stateMutability": "nonpayable",
      "type": "function"
    },
    {
      "inputs": [
        {
          "internalType": "address",
          "name": "_communityIssuance",
          "type": "address"
        }
      ],
      "name": "setCommunityIssuance",
      "outputs": [],
      "stateMutability": "nonpayable",
      "type": "function"
    },
    {
      "inputs": [
        {
          "internalType": "address",
          "name": "_token",
          "type": "address"
        },
        {
          "internalType": "address",
          "name": "_oracle",
          "type": "address"
        },
        {
          "internalType": "enum IPriceFeed.ProviderType",
          "name": "_type",
          "type": "uint8"
        },
        {
          "internalType": "uint256",
          "name": "_timeoutSeconds",
          "type": "uint256"
        },
        {
          "internalType": "bool",
          "name": "_isEthIndexed",
          "type": "bool"
        },
        {
          "internalType": "bool",
          "name": "_isFallback",
          "type": "bool"
        }
      ],
      "name": "setOracle",
      "outputs": [],
      "stateMutability": "nonpayable",
      "type": "function"
    },
    {
      "inputs": [
        {
          "internalType": "address",
          "name": "_trenStaking",
          "type": "address"
        }
      ],
      "name": "setTRENStaking",
      "outputs": [],
      "stateMutability": "nonpayable",
      "type": "function"
    },
    {
      "inputs": [],
      "name": "sortedTrenBoxes",
      "outputs": [
        {
          "internalType": "address",
          "name": "",
          "type": "address"
        }
      ],
      "stateMutability": "view",
      "type": "function"
    },
    {
      "inputs": [],
      "name": "stabilityPool",
      "outputs": [
        {
          "internalType": "address",
          "name": "",
          "type": "address"
        }
      ],
      "stateMutability": "view",
      "type": "function"
    },
    {
      "inputs": [],
      "name": "timelockAddress",
      "outputs": [
        {
          "internalType": "address",
          "name": "",
          "type": "address"
        }
      ],
      "stateMutability": "view",
      "type": "function"
    },
    {
      "inputs": [
        {
          "internalType": "address",
          "name": "newOwner",
          "type": "address"
        }
      ],
      "name": "transferOwnership",
      "outputs": [],
      "stateMutability": "nonpayable",
      "type": "function"
    },
    {
      "inputs": [],
      "name": "treasuryAddress",
      "outputs": [
        {
          "internalType": "address",
          "name": "",
          "type": "address"
        }
      ],
      "stateMutability": "view",
      "type": "function"
    },
    {
      "inputs": [],
      "name": "trenBoxManager",
      "outputs": [
        {
          "internalType": "address",
          "name": "",
          "type": "address"
        }
      ],
      "stateMutability": "view",
      "type": "function"
    },
    {
      "inputs": [],
      "name": "trenBoxManagerOperations",
      "outputs": [
        {
          "internalType": "address",
          "name": "",
          "type": "address"
        }
      ],
      "stateMutability": "view",
      "type": "function"
    },
    {
      "inputs": [],
      "name": "trenBoxStorage",
      "outputs": [
        {
          "internalType": "address",
          "name": "",
          "type": "address"
        }
      ],
      "stateMutability": "view",
      "type": "function"
    },
    {
      "inputs": [],
      "name": "trenStaking",
      "outputs": [
        {
          "internalType": "address",
          "name": "",
          "type": "address"
        }
      ],
      "stateMutability": "view",
      "type": "function"
    },
    {
      "inputs": [
        {
          "internalType": "address",
          "name": "newImplementation",
          "type": "address"
        },
        {
          "internalType": "bytes",
          "name": "data",
          "type": "bytes"
        }
      ],
      "name": "upgradeToAndCall",
      "outputs": [],
      "stateMutability": "payable",
      "type": "function"
    }
  ],
  "transactionHash": "0xbe8ed806e9d9540bb852c15109df00e36d12a1e2ced82efe9f35d159da9e290e",
  "args": [],
  "numDeployments": 1,
  "solcInputHash": "3f36ab4fec5358e2986dfe0e94450c3f",
  "bytecode": "0x60a06040523060805234801561001457600080fd5b50608051611f1561003e600039600081816112700152818161129901526113df0152611f156000f3fe6080604052600436106101ee5760003560e01c806395fb16bb1161010d578063c4d66de8116100a0578063f1c05a7e1161006f578063f1c05a7e14610656578063f2fde38b14610676578063f8d8989814610696578063fcca7fd1146106b6578063fe060733146106d657600080fd5b8063c4d66de8146105c5578063c5f956af146105e5578063c8564c6214610605578063cc8b21e41461063657600080fd5b8063addd5099116100dc578063addd50991461050c578063b957172114610565578063c05c5e9414610585578063c415b95c146105a557600080fd5b806395fb16bb14610459578063a3f4df7e14610479578063ace1798e146104bb578063ad3cb1cc146104db57600080fd5b80634f1ef28611610185578063715018a611610154578063715018a6146103c7578063741bef1a146103dc57806377553ad4146103fc5780638da5cb5b1461041c57600080fd5b80634f1ef2861461035f57806352d1902d1461037257806355dafa46146103875780636a85d67d146103a757600080fd5b806326256c0b116101c157806326256c0b146102955780633f84a44d146102ff5780634169467d1461031f5780634bc66f321461033f57600080fd5b806301c93100146101f3578063048c661d146102155780630a34d4d6146102525780631be5c92f14610272575b600080fd5b3480156101ff57600080fd5b5061021361020e366004611aa5565b6106f6565b005b34801561022157600080fd5b50600954610235906001600160a01b031681565b6040516001600160a01b0390911681526020015b60405180910390f35b34801561025e57600080fd5b50600d54610235906001600160a01b031681565b34801561027e57600080fd5b50610287601281565b604051908152602001610249565b3480156102a157600080fd5b506102ee6102b0366004611aa5565b60316020526000908152604090208054600182015460028301546003909301546001600160a01b0383169360ff600160a01b90940484169390911685565b604051610249959493929190611ad6565b34801561030b57600080fd5b50600e54610235906001600160a01b031681565b34801561032b57600080fd5b50600554610235906001600160a01b031681565b34801561034b57600080fd5b50600a54610235906001600160a01b031681565b61021361036d366004611b3e565b610747565b34801561037e57600080fd5b50610287610766565b34801561039357600080fd5b50600654610235906001600160a01b031681565b3480156103b357600080fd5b506102136103c2366004611aa5565b610783565b3480156103d357600080fd5b506102136107d4565b3480156103e857600080fd5b50600754610235906001600160a01b031681565b34801561040857600080fd5b50600154610235906001600160a01b031681565b34801561042857600080fd5b507f9016d09d72d40fdae2fd8ceac6b6234c7706214fd39c1cd1e609a0528c199300546001600160a01b0316610235565b34801561046557600080fd5b50600254610235906001600160a01b031681565b34801561048557600080fd5b506104ae60405180604001604052806009815260200168141c9a58d95199595960ba1b81525081565b6040516102499190611c24565b3480156104c757600080fd5b506102876104d6366004611aa5565b6107e8565b3480156104e757600080fd5b506104ae604051806040016040528060058152602001640352e302e360dc1b81525081565b34801561051857600080fd5b506102ee610527366004611aa5565b60306020526000908152604090208054600182015460028301546003909301546001600160a01b0383169360ff600160a01b90940484169390911685565b34801561057157600080fd5b50610213610580366004611c57565b610976565b34801561059157600080fd5b50600054610235906001600160a01b031681565b3480156105b157600080fd5b50600454610235906001600160a01b031681565b3480156105d157600080fd5b506102136105e0366004611aa5565b610e1a565b3480156105f157600080fd5b50600b54610235906001600160a01b031681565b34801561061157600080fd5b50600e5461062690600160a01b900460ff1681565b6040519015158152602001610249565b34801561064257600080fd5b50600854610235906001600160a01b031681565b34801561066257600080fd5b50600c54610235906001600160a01b031681565b34801561068257600080fd5b50610213610691366004611aa5565b610f32565b3480156106a257600080fd5b50600354610235906001600160a01b031681565b3480156106c257600080fd5b506102136106d1366004611cdc565b610f70565b3480156106e257600080fd5b506102136106f1366004611aa5565b611201565b6106fe61120a565b6001600160a01b038116610725576040516385d3330760e01b815260040160405180910390fd5b600680546001600160a01b0319166001600160a01b0392909216919091179055565b61074f611265565b6107588261130a565b6107628282611312565b5050565b60006107706113d4565b50600080516020611ee983398151915290565b61078b61120a565b6001600160a01b0381166107b25760405163706ebc6560e11b815260040160405180910390fd5b600280546001600160a01b0319166001600160a01b0392909216919091179055565b6107dc61120a565b6107e6600061141d565b565b6001600160a01b038181166000908152603060209081526040808320815160a0810190925280549485168252929384939192830190600160a01b900460ff16600181111561083857610838611ac0565b600181111561084957610849611ac0565b8152600182015460208201526002820154604082015260039091015460ff1615156060909101529050600061087d8261148e565b905080156108a5578160800151610894578061089d565b61089d81611554565b949350505050565b6001600160a01b03848116600090815260316020908152604091829020825160a0810190935280549384168352919290830190600160a01b900460ff1660018111156108f3576108f3611ac0565b600181111561090457610904611ac0565b8152600182015460208201526002820154604082015260039091015460ff16151560609091015291506109368261148e565b9050801561094d578160800151610894578061089d565b60405163283f5cb560e01b81526001600160a01b03851660048201526024015b60405180910390fd5b61097e61120a565b600e54600160a01b900460ff16156109a857604051625f22e960e41b815260040160405180910390fd5b600d81146109c957604051633f5a111d60e21b815260040160405180910390fd5b60005b600d811015610a675760008383838181106109e9576109e9611d4f565b90506020020160208101906109fe9190611aa5565b6001600160a01b031603610a5f5780838383818110610a1f57610a1f611d4f565b9050602002016020810190610a349190611aa5565b604051630d9d339f60e01b815260048101929092526001600160a01b0316602482015260440161096d565b6001016109cc565b5081816000818110610a7b57610a7b611d4f565b9050602002016020810190610a909190611aa5565b600080546001600160a01b0319166001600160a01b039290921691909117905581816001818110610ac357610ac3611d4f565b9050602002016020810190610ad89190611aa5565b600180546001600160a01b0319166001600160a01b039290921691909117905581816002818110610b0b57610b0b611d4f565b9050602002016020810190610b209190611aa5565b600380546001600160a01b0319166001600160a01b039290921691909117815582908290818110610b5357610b53611d4f565b9050602002016020810190610b689190611aa5565b600480546001600160a01b0319166001600160a01b039290921691909117815582908290818110610b9b57610b9b611d4f565b9050602002016020810190610bb09190611aa5565b600580546001600160a01b0319166001600160a01b039290921691909117815582908290818110610be357610be3611d4f565b9050602002016020810190610bf89190611aa5565b600780546001600160a01b0319166001600160a01b039290921691909117905581816006818110610c2b57610c2b611d4f565b9050602002016020810190610c409190611aa5565b600880546001600160a01b0319166001600160a01b039290921691909117905581816007818110610c7357610c73611d4f565b9050602002016020810190610c889190611aa5565b600980546001600160a01b0319166001600160a01b039290921691909117905581816008818110610cbb57610cbb611d4f565b9050602002016020810190610cd09190611aa5565b600a80546001600160a01b0319166001600160a01b039290921691909117905581816009818110610d0357610d03611d4f565b9050602002016020810190610d189190611aa5565b600b80546001600160a01b0319166001600160a01b03929092169190911790558181600a818110610d4b57610d4b611d4f565b9050602002016020810190610d609190611aa5565b600c80546001600160a01b0319166001600160a01b03929092169190911790558181600b818110610d9357610d93611d4f565b9050602002016020810190610da89190611aa5565b600d80546001600160a01b0319166001600160a01b03929092169190911790558181600c818110610ddb57610ddb611d4f565b9050602002016020810190610df09190611aa5565b600e80546001600160a81b0319166001600160a01b039290921691909117600160a01b1790555050565b7ff0c57e16840df040f15088dc2f81fe391c3923bec73e23a9662efc9c229c6a008054600160401b810460ff16159067ffffffffffffffff16600081158015610e605750825b905060008267ffffffffffffffff166001148015610e7d5750303b155b905081158015610e8b575080155b15610ea95760405163f92ee8a960e01b815260040160405180910390fd5b845467ffffffffffffffff191660011785558315610ed357845460ff60401b1916600160401b1785555b610edc86611587565b610ee4611598565b8315610f2a57845460ff60401b19168555604051600181527fc7f505b2f371ae2175ee4913f4499e1f2633a7b5936321eed1cdaeb6115181d29060200160405180910390a15b505050505050565b610f3a61120a565b6001600160a01b038116610f6457604051631e4fbdf760e01b81526000600482015260240161096d565b610f6d8161141d565b50565b610f7a86826115a0565b808015610f9f57506001600160a01b0386811660009081526030602052604090205416155b15610fbd57604051634a0e0c3b60e11b815260040160405180910390fd5b6000610fc98686611622565b60ff16905080600003610fef5760405163ee65a7e560e01b815260040160405180910390fd5b60006040518060a00160405280886001600160a01b0316815260200187600181111561101d5761101d611ac0565b8152602001868152602001838152602001851515815250905060006110418261148e565b90508060000361106f5760405163283f5cb560e01b81526001600160a01b038a16600482015260240161096d565b831561110e576001600160a01b03808a1660009081526031602090815260409091208451815493166001600160a01b03198416811782559185015185939192909183916001600160a81b031990911617600160a01b8360018111156110d6576110d6611ac0565b021790555060408201516001820155606082015160028201556080909101516003909101805460ff19169115159190911790556111a3565b6001600160a01b03808a1660009081526030602090815260409091208451815493166001600160a01b03198416811782559185015185939192909183916001600160a81b031990911617600160a01b83600181111561116f5761116f611ac0565b021790555060408201516001820155606082015160028201556080909101516003909101805460ff19169115159190911790555b604080516001600160a01b038b811682528a16602082015286151581830152851515606082015290517fcbde3c20c68ba036ef9cd1c074d075187be3640bc7a5b3fb85f045b07ab9a9309181900360800190a1505050505050505050565b610f6d8161130a565b3361123c7f9016d09d72d40fdae2fd8ceac6b6234c7706214fd39c1cd1e609a0528c199300546001600160a01b031690565b6001600160a01b0316146107e65760405163118cdaa760e01b815233600482015260240161096d565b306001600160a01b037f00000000000000000000000000000000000000000000000000000000000000001614806112ec57507f00000000000000000000000000000000000000000000000000000000000000006001600160a01b03166112e0600080516020611ee9833981519152546001600160a01b031690565b6001600160a01b031614155b156107e65760405163703e46dd60e11b815260040160405180910390fd5b610f6d61120a565b816001600160a01b03166352d1902d6040518163ffffffff1660e01b8152600401602060405180830381865afa92505050801561136c575060408051601f3d908101601f1916820190925261136991810190611d65565b60015b61139457604051634c9c8ce360e01b81526001600160a01b038316600482015260240161096d565b600080516020611ee983398151915281146113c557604051632a87526960e21b81526004810182905260240161096d565b6113cf83836116d1565b505050565b306001600160a01b037f000000000000000000000000000000000000000000000000000000000000000016146107e65760405163703e46dd60e11b815260040160405180910390fd5b7f9016d09d72d40fdae2fd8ceac6b6234c7706214fd39c1cd1e609a0528c19930080546001600160a01b031981166001600160a01b03848116918217845560405192169182907f8be0079c531659141344cd1fd0a4f28419497f9722a3daafe3b4186f6b6457e090600090a3505050565b8051600090819081906001600160a01b03166114bd57604051632e054cdf60e21b815260040160405180910390fd5b836020015160018111156114d3576114d3611ac0565b6000036114ef5783516114e590611727565b909250905061151d565b8360200151600181111561150557611505611ac0565b60010361151d578351611517906117ce565b90925090505b8115801590611537575061153581856040015161185c565b155b1561154a5761089d828560600151611871565b5060009392505050565b60008061156160006107e8565b9050670de0b6b3a76400006115768483611d94565b6115809190611dc1565b9392505050565b61158f6118b9565b610f6d81611902565b6107e66118b9565b6000816115c4576001600160a01b03831660009081526030602052604090206115dd565b6001600160a01b03831660009081526031602052604090205b80549091506001600160a01b03166115f7576113cf61120a565b600a546001600160a01b031633146113cf57604051633bc92b2160e01b815260040160405180910390fd5b600081600181111561163657611636611ac0565b6000036116a657826001600160a01b031663313ce5676040518163ffffffff1660e01b8152600401602060405180830381865afa15801561167b573d6000803e3d6000fd5b505050506040513d601f19601f8201168201806040525081019061169f9190611de3565b90506116cb565b8160018111156116b8576116b8611ac0565b6001036116c7575060126116cb565b5060005b92915050565b6116da8261190a565b6040516001600160a01b038316907fbc7cd75a20ee27fd9adebab32041f755214dbc6bffa90cc0225b39da2e5c2d3b90600090a280511561171f576113cf828261196f565b6107626119e5565b600080826001600160a01b031663feaf968c6040518163ffffffff1660e01b815260040160a060405180830381865afa925050508015611784575060408051601f3d908101601f1916820190925261178191810190611e20565b60015b61179357506000905080915091565b69ffffffffffffffffffff8516158015906117ad57508115155b80156117b857508315155b156117c4578396508195505b5050505050915091565b600080600080846001600160a01b03166357de26a46040518163ffffffff1660e01b81526004016040805180830381865afa158015611811573d6000803e3d6000fd5b505050506040513d601f19601f820116820180604052508101906118359190611e70565b63ffffffff1691509150600082601b0b13156118555781601b0b93508092505b5050915091565b6000816118698442611eb9565b119392505050565b600060128211156118995760128203600a0a838161189157611891611dab565b0490506116cb565b60128210156118b25781601203600a0a830290506116cb565b5090919050565b7ff0c57e16840df040f15088dc2f81fe391c3923bec73e23a9662efc9c229c6a0054600160401b900460ff166107e657604051631afcd79f60e31b815260040160405180910390fd5b610f3a6118b9565b806001600160a01b03163b60000361194057604051634c9c8ce360e01b81526001600160a01b038216600482015260240161096d565b600080516020611ee983398151915280546001600160a01b0319166001600160a01b0392909216919091179055565b6060600080846001600160a01b03168460405161198c9190611ecc565b600060405180830381855af49150503d80600081146119c7576040519150601f19603f3d011682016040523d82523d6000602084013e6119cc565b606091505b50915091506119dc858383611a04565b95945050505050565b34156107e65760405163b398979f60e01b815260040160405180910390fd5b606082611a1957611a1482611a60565b611580565b8151158015611a3057506001600160a01b0384163b155b15611a5957604051639996b31560e01b81526001600160a01b038516600482015260240161096d565b5092915050565b805115611a705780518082602001fd5b604051630a12f52160e11b815260040160405180910390fd5b80356001600160a01b0381168114611aa057600080fd5b919050565b600060208284031215611ab757600080fd5b61158082611a89565b634e487b7160e01b600052602160045260246000fd5b6001600160a01b038616815260a0810160028610611b0457634e487b7160e01b600052602160045260246000fd5b85602083015284604083015283606083015282151560808301529695505050505050565b634e487b7160e01b600052604160045260246000fd5b60008060408385031215611b5157600080fd5b611b5a83611a89565b9150602083013567ffffffffffffffff80821115611b7757600080fd5b818501915085601f830112611b8b57600080fd5b813581811115611b9d57611b9d611b28565b604051601f8201601f19908116603f01168101908382118183101715611bc557611bc5611b28565b81604052828152886020848701011115611bde57600080fd5b8260208601602083013760006020848301015280955050505050509250929050565b60005b83811015611c1b578181015183820152602001611c03565b50506000910152565b6020815260008251806020840152611c43816040850160208701611c00565b601f01601f19169190910160400192915050565b60008060208385031215611c6a57600080fd5b823567ffffffffffffffff80821115611c8257600080fd5b818501915085601f830112611c9657600080fd5b813581811115611ca557600080fd5b8660208260051b8501011115611cba57600080fd5b60209290920196919550909350505050565b80358015158114611aa057600080fd5b60008060008060008060c08789031215611cf557600080fd5b611cfe87611a89565b9550611d0c60208801611a89565b9450604087013560028110611d2057600080fd5b935060608701359250611d3560808801611ccc565b9150611d4360a08801611ccc565b90509295509295509295565b634e487b7160e01b600052603260045260246000fd5b600060208284031215611d7757600080fd5b5051919050565b634e487b7160e01b600052601160045260246000fd5b80820281158282048414176116cb576116cb611d7e565b634e487b7160e01b600052601260045260246000fd5b600082611dde57634e487b7160e01b600052601260045260246000fd5b500490565b600060208284031215611df557600080fd5b815160ff8116811461158057600080fd5b805169ffffffffffffffffffff81168114611aa057600080fd5b600080600080600060a08688031215611e3857600080fd5b611e4186611e06565b9450602086015193506040860151925060608601519150611e6460808701611e06565b90509295509295909350565b60008060408385031215611e8357600080fd5b825180601b0b8114611e9457600080fd5b602084015190925063ffffffff81168114611eae57600080fd5b809150509250929050565b818103818111156116cb576116cb611d7e565b60008251611ede818460208701611c00565b919091019291505056fe360894a13ba1a3210667c828492db98dca3e2076cc3735a920a3ca505d382bbca164736f6c6343000817000a",
  "devdoc": {
    "errors": {
      "AddressEmptyCode(address)": [
        {
          "details": "There's no code at `target` (it is not a contract)."
        }
      ],
      "ERC1967InvalidImplementation(address)": [
        {
          "details": "The `implementation` of the proxy is invalid."
        }
      ],
      "ERC1967NonPayable()": [
        {
          "details": "An upgrade function sees `msg.value > 0` that may be lost."
        }
      ],
      "FailedInnerCall()": [
        {
          "details": "A call to an address target failed. The target may have reverted."
        }
      ],
      "InvalidInitialization()": [
        {
          "details": "The contract is already initialized."
        }
      ],
      "NotInitializing()": [
        {
          "details": "The contract is not initializing."
        }
      ],
      "OwnableInvalidOwner(address)": [
        {
          "details": "The owner is not a valid owner account. (eg. `address(0)`)"
        }
      ],
      "OwnableUnauthorizedAccount(address)": [
        {
          "details": "The caller account is not authorized to perform an operation."
        }
      ],
      "UUPSUnauthorizedCallContext()": [
        {
          "details": "The call is from an unauthorized context."
        }
      ],
      "UUPSUnsupportedProxiableUUID(bytes32)": [
        {
          "details": "The storage `slot` is unsupported as a UUID."
        }
      ]
    },
    "events": {
      "Initialized(uint64)": {
        "details": "Triggered when the contract has been initialized or reinitialized."
      },
      "Upgraded(address)": {
        "details": "Emitted when the implementation is upgraded."
      }
    },
    "kind": "dev",
    "methods": {
      "fetchPrice(address)": {
        "details": "Callers:     - BorrowerOperations.openTrenBox()     - BorrowerOperations.adjustTrenBox()     - BorrowerOperations.closeTrenBox()     - TrenBoxManagerOperations.liquidateTrenBoxes()     - TrenBoxManagerOperations.batchLiquidateTrenBoxes()     - TrenBoxManagerOperations.redeemCollateral()"
      },
      "owner()": {
        "details": "Returns the address of the current owner."
      },
      "proxiableUUID()": {
        "details": "Implementation of the ERC1822 {proxiableUUID} function. This returns the storage slot used by the implementation. It is used to validate the implementation's compatibility when performing an upgrade. IMPORTANT: A proxy pointing at a proxiable contract should not be considered proxiable itself, because this risks bricking a proxy that upgrades to it, by delegating to itself until out of gas. Thus it is critical that this function revert if invoked through a proxy. This is guaranteed by the `notDelegated` modifier."
      },
      "renounceOwnership()": {
        "details": "Leaves the contract without owner. It will not be possible to call `onlyOwner` functions. Can only be called by the current owner. NOTE: Renouncing ownership will leave the contract without an owner, thereby disabling any functionality that is only available to the owner."
      },
      "transferOwnership(address)": {
        "details": "Transfers ownership of the contract to a new account (`newOwner`). Can only be called by the current owner."
      },
      "upgradeToAndCall(address,bytes)": {
        "custom:oz-upgrades-unsafe-allow-reachable": "delegatecall",
        "details": "Upgrade the implementation of the proxy to `newImplementation`, and subsequently execute the function call encoded in `data`. Calls {_authorizeUpgrade}. Emits an {Upgraded} event."
      }
    },
    "stateVariables": {
      "TARGET_DIGITS": {
        "details": "Used to convert an oracle price answer to an 18-digit precision uint"
      }
    },
    "title": "The PriceFeed contract contains a directory of oracles for fetching prices for assets based on their addresses; optionally fallback oracles can also be registered in case the primary source fails or is stale.",
    "version": 1
  },
  "userdoc": {
    "kind": "user",
    "methods": {
      "fetchPrice(address)": {
        "notice": "Fetches the price for an asset from a previously configured oracle."
      }
    },
    "version": 1
  },
  "storageLayout": {
    "storage": [
      {
        "astId": 8946,
        "contract": "contracts/PriceFeed.sol:PriceFeed",
        "label": "adminContract",
        "offset": 0,
        "slot": "0",
        "type": "t_address"
      },
      {
        "astId": 8948,
        "contract": "contracts/PriceFeed.sol:PriceFeed",
        "label": "borrowerOperations",
        "offset": 0,
        "slot": "1",
        "type": "t_address"
      },
      {
        "astId": 8950,
        "contract": "contracts/PriceFeed.sol:PriceFeed",
        "label": "communityIssuance",
        "offset": 0,
        "slot": "2",
        "type": "t_address"
      },
      {
        "astId": 8952,
        "contract": "contracts/PriceFeed.sol:PriceFeed",
        "label": "debtToken",
        "offset": 0,
        "slot": "3",
        "type": "t_address"
      },
      {
        "astId": 8954,
        "contract": "contracts/PriceFeed.sol:PriceFeed",
        "label": "feeCollector",
        "offset": 0,
        "slot": "4",
        "type": "t_address"
      },
      {
        "astId": 8956,
        "contract": "contracts/PriceFeed.sol:PriceFeed",
        "label": "flashLoanAddress",
        "offset": 0,
        "slot": "5",
        "type": "t_address"
      },
      {
        "astId": 8958,
        "contract": "contracts/PriceFeed.sol:PriceFeed",
        "label": "trenStaking",
        "offset": 0,
        "slot": "6",
        "type": "t_address"
      },
      {
        "astId": 8960,
        "contract": "contracts/PriceFeed.sol:PriceFeed",
        "label": "priceFeed",
        "offset": 0,
        "slot": "7",
        "type": "t_address"
      },
      {
        "astId": 8962,
        "contract": "contracts/PriceFeed.sol:PriceFeed",
        "label": "sortedTrenBoxes",
        "offset": 0,
        "slot": "8",
        "type": "t_address"
      },
      {
        "astId": 8964,
        "contract": "contracts/PriceFeed.sol:PriceFeed",
        "label": "stabilityPool",
        "offset": 0,
        "slot": "9",
        "type": "t_address"
      },
      {
        "astId": 8966,
        "contract": "contracts/PriceFeed.sol:PriceFeed",
        "label": "timelockAddress",
        "offset": 0,
        "slot": "10",
        "type": "t_address"
      },
      {
        "astId": 8968,
        "contract": "contracts/PriceFeed.sol:PriceFeed",
        "label": "treasuryAddress",
        "offset": 0,
        "slot": "11",
        "type": "t_address"
      },
      {
        "astId": 8970,
        "contract": "contracts/PriceFeed.sol:PriceFeed",
        "label": "trenBoxManager",
        "offset": 0,
        "slot": "12",
        "type": "t_address"
      },
      {
        "astId": 8972,
        "contract": "contracts/PriceFeed.sol:PriceFeed",
        "label": "trenBoxManagerOperations",
        "offset": 0,
        "slot": "13",
        "type": "t_address"
      },
      {
        "astId": 8974,
        "contract": "contracts/PriceFeed.sol:PriceFeed",
        "label": "trenBoxStorage",
        "offset": 0,
        "slot": "14",
        "type": "t_address"
      },
      {
        "astId": 8976,
        "contract": "contracts/PriceFeed.sol:PriceFeed",
        "label": "isAddressSetupInitialized",
        "offset": 20,
        "slot": "14",
        "type": "t_bool"
      },
      {
        "astId": 8981,
        "contract": "contracts/PriceFeed.sol:PriceFeed",
        "label": "__gap",
        "offset": 0,
        "slot": "15",
        "type": "t_array(t_uint256)33_storage"
      },
      {
        "astId": 14022,
        "contract": "contracts/PriceFeed.sol:PriceFeed",
        "label": "oracles",
        "offset": 0,
        "slot": "48",
        "type": "t_mapping(t_address,t_struct(OracleRecord)12389_storage)"
      },
      {
        "astId": 14027,
        "contract": "contracts/PriceFeed.sol:PriceFeed",
        "label": "fallbacks",
        "offset": 0,
        "slot": "49",
        "type": "t_mapping(t_address,t_struct(OracleRecord)12389_storage)"
      }
    ],
    "types": {
      "t_address": {
        "encoding": "inplace",
        "label": "address",
        "numberOfBytes": "20"
      },
      "t_array(t_uint256)33_storage": {
        "base": "t_uint256",
        "encoding": "inplace",
        "label": "uint256[33]",
        "numberOfBytes": "1056"
      },
      "t_bool": {
        "encoding": "inplace",
        "label": "bool",
        "numberOfBytes": "1"
      },
      "t_enum(ProviderType)12377": {
        "encoding": "inplace",
        "label": "enum IPriceFeed.ProviderType",
        "numberOfBytes": "1"
      },
      "t_mapping(t_address,t_struct(OracleRecord)12389_storage)": {
        "encoding": "mapping",
        "key": "t_address",
        "label": "mapping(address => struct IPriceFeed.OracleRecord)",
        "numberOfBytes": "32",
        "value": "t_struct(OracleRecord)12389_storage"
      },
      "t_struct(OracleRecord)12389_storage": {
        "encoding": "inplace",
        "label": "struct IPriceFeed.OracleRecord",
        "members": [
          {
            "astId": 12379,
            "contract": "contracts/PriceFeed.sol:PriceFeed",
            "label": "oracleAddress",
            "offset": 0,
            "slot": "0",
            "type": "t_address"
          },
          {
            "astId": 12382,
            "contract": "contracts/PriceFeed.sol:PriceFeed",
            "label": "providerType",
            "offset": 20,
            "slot": "0",
            "type": "t_enum(ProviderType)12377"
          },
          {
            "astId": 12384,
            "contract": "contracts/PriceFeed.sol:PriceFeed",
            "label": "timeoutSeconds",
            "offset": 0,
            "slot": "1",
            "type": "t_uint256"
          },
          {
            "astId": 12386,
            "contract": "contracts/PriceFeed.sol:PriceFeed",
            "label": "decimals",
            "offset": 0,
            "slot": "2",
            "type": "t_uint256"
          },
          {
            "astId": 12388,
            "contract": "contracts/PriceFeed.sol:PriceFeed",
            "label": "isEthIndexed",
            "offset": 0,
            "slot": "3",
            "type": "t_bool"
          }
        ],
        "numberOfBytes": "128"
      },
      "t_uint256": {
        "encoding": "inplace",
        "label": "uint256",
        "numberOfBytes": "32"
      }
    }
  }
}