{
  "address": "0x6E102f77De343e23d7d3088e55EE6f64e6E25bd2",
  "abi": [
    {
      "inputs": [
        {
          "internalType": "address",
          "name": "target",
          "type": "address"
        }
      ],
      "name": "AddressEmptyCode",
      "type": "error"
    },
    {
      "inputs": [],
      "name": "ConfigurableAddresses__CommunityIssuanceZeroAddress",
      "type": "error"
    },
    {
      "inputs": [],
      "name": "ConfigurableAddresses__LengthMismatch",
      "type": "error"
    },
    {
      "inputs": [],
      "name": "ConfigurableAddresses__SetupIsInitialized",
      "type": "error"
    },
    {
      "inputs": [],
      "name": "ConfigurableAddresses__TRENStakingZeroAddress",
      "type": "error"
    },
    {
      "inputs": [
        {
          "internalType": "uint256",
          "name": "position",
          "type": "uint256"
        },
        {
          "internalType": "address",
          "name": "address_",
          "type": "address"
        }
      ],
      "name": "ConfigurableAddresses__ZeroAddresses",
      "type": "error"
    },
    {
      "inputs": [
        {
          "internalType": "address",
          "name": "implementation",
          "type": "address"
        }
      ],
      "name": "ERC1967InvalidImplementation",
      "type": "error"
    },
    {
      "inputs": [],
      "name": "ERC1967NonPayable",
      "type": "error"
    },
    {
      "inputs": [],
      "name": "FailedInnerCall",
      "type": "error"
    },
    {
      "inputs": [],
      "name": "InvalidInitialization",
      "type": "error"
    },
    {
      "inputs": [],
      "name": "NotInitializing",
      "type": "error"
    },
    {
      "inputs": [
        {
          "internalType": "address",
          "name": "owner",
          "type": "address"
        }
      ],
      "name": "OwnableInvalidOwner",
      "type": "error"
    },
    {
      "inputs": [
        {
          "internalType": "address",
          "name": "account",
          "type": "address"
        }
      ],
      "name": "OwnableUnauthorizedAccount",
      "type": "error"
    },
    {
      "inputs": [],
      "name": "PriceFeed__ExistingOracleRequired",
      "type": "error"
    },
    {
      "inputs": [],
      "name": "PriceFeed__InvalidDecimalsError",
      "type": "error"
    },
    {
      "inputs": [
        {
          "internalType": "address",
          "name": "token",
          "type": "address"
        }
      ],
      "name": "PriceFeed__InvalidOracleResponseError",
      "type": "error"
    },
    {
      "inputs": [],
      "name": "PriceFeed__TimelockOnlyError",
      "type": "error"
    },
    {
      "inputs": [],
      "name": "PriceFeed__UnknownAssetError",
      "type": "error"
    },
    {
      "inputs": [],
      "name": "UUPSUnauthorizedCallContext",
      "type": "error"
    },
    {
      "inputs": [
        {
          "internalType": "bytes32",
          "name": "slot",
          "type": "bytes32"
        }
      ],
      "name": "UUPSUnsupportedProxiableUUID",
      "type": "error"
    },
    {
      "anonymous": false,
      "inputs": [
        {
          "indexed": false,
          "internalType": "uint64",
          "name": "version",
          "type": "uint64"
        }
      ],
      "name": "Initialized",
      "type": "event"
    },
    {
      "anonymous": false,
      "inputs": [
        {
          "indexed": false,
          "internalType": "address",
          "name": "token",
          "type": "address"
        },
        {
          "indexed": false,
          "internalType": "address",
          "name": "oracleAddress",
          "type": "address"
        },
        {
          "indexed": false,
          "internalType": "bool",
          "name": "isEthIndexed",
          "type": "bool"
        },
        {
          "indexed": false,
          "internalType": "bool",
          "name": "isFallback",
          "type": "bool"
        }
      ],
      "name": "NewOracleRegistered",
      "type": "event"
    },
    {
      "anonymous": false,
      "inputs": [
        {
          "indexed": true,
          "internalType": "address",
          "name": "previousOwner",
          "type": "address"
        },
        {
          "indexed": true,
          "internalType": "address",
          "name": "newOwner",
          "type": "address"
        }
      ],
      "name": "OwnershipTransferred",
      "type": "event"
    },
    {
      "anonymous": false,
      "inputs": [
        {
          "indexed": true,
          "internalType": "address",
          "name": "implementation",
          "type": "address"
        }
      ],
      "name": "Upgraded",
      "type": "event"
    },
    {
      "inputs": [],
      "name": "NAME",
      "outputs": [
        {
          "internalType": "string",
          "name": "",
          "type": "string"
        }
      ],
      "stateMutability": "view",
      "type": "function"
    },
    {
      "inputs": [],
      "name": "TARGET_DIGITS",
      "outputs": [
        {
          "internalType": "uint256",
          "name": "",
          "type": "uint256"
        }
      ],
      "stateMutability": "view",
      "type": "function"
    },
    {
      "inputs": [],
      "name": "UPGRADE_INTERFACE_VERSION",
      "outputs": [
        {
          "internalType": "string",
          "name": "",
          "type": "string"
        }
      ],
      "stateMutability": "view",
      "type": "function"
    },
    {
      "inputs": [],
      "name": "activePool",
      "outputs": [
        {
          "internalType": "address",
          "name": "",
          "type": "address"
        }
      ],
      "stateMutability": "view",
      "type": "function"
    },
    {
      "inputs": [],
      "name": "adminContract",
      "outputs": [
        {
          "internalType": "address",
          "name": "",
          "type": "address"
        }
      ],
      "stateMutability": "view",
      "type": "function"
    },
    {
      "inputs": [
        {
          "internalType": "address",
          "name": "newImplementation",
          "type": "address"
        }
      ],
      "name": "authorizeUpgrade",
      "outputs": [],
      "stateMutability": "nonpayable",
      "type": "function"
    },
    {
      "inputs": [],
      "name": "borrowerOperations",
      "outputs": [
        {
          "internalType": "address",
          "name": "",
          "type": "address"
        }
      ],
      "stateMutability": "view",
      "type": "function"
    },
    {
      "inputs": [],
      "name": "collSurplusPool",
      "outputs": [
        {
          "internalType": "address",
          "name": "",
          "type": "address"
        }
      ],
      "stateMutability": "view",
      "type": "function"
    },
    {
      "inputs": [],
      "name": "communityIssuance",
      "outputs": [
        {
          "internalType": "address",
          "name": "",
          "type": "address"
        }
      ],
      "stateMutability": "view",
      "type": "function"
    },
    {
      "inputs": [],
      "name": "debtToken",
      "outputs": [
        {
          "internalType": "address",
          "name": "",
          "type": "address"
        }
      ],
      "stateMutability": "view",
      "type": "function"
    },
    {
      "inputs": [],
      "name": "defaultPool",
      "outputs": [
        {
          "internalType": "address",
          "name": "",
          "type": "address"
        }
      ],
      "stateMutability": "view",
      "type": "function"
    },
    {
      "inputs": [
        {
          "internalType": "address",
          "name": "token",
          "type": "address"
        }
      ],
      "name": "fallbacks",
      "outputs": [
        {
          "internalType": "address",
          "name": "oracleAddress",
          "type": "address"
        },
        {
          "internalType": "enum IPriceFeed.ProviderType",
          "name": "providerType",
          "type": "uint8"
        },
        {
          "internalType": "uint256",
          "name": "timeoutSeconds",
          "type": "uint256"
        },
        {
          "internalType": "uint256",
          "name": "decimals",
          "type": "uint256"
        },
        {
          "internalType": "bool",
          "name": "isEthIndexed",
          "type": "bool"
        }
      ],
      "stateMutability": "view",
      "type": "function"
    },
    {
      "inputs": [],
      "name": "feeCollector",
      "outputs": [
        {
          "internalType": "address",
          "name": "",
          "type": "address"
        }
      ],
      "stateMutability": "view",
      "type": "function"
    },
    {
      "inputs": [
        {
          "internalType": "address",
          "name": "_token",
          "type": "address"
        }
      ],
      "name": "fetchPrice",
      "outputs": [
        {
          "internalType": "uint256",
          "name": "",
          "type": "uint256"
        }
      ],
      "stateMutability": "view",
      "type": "function"
    },
    {
      "inputs": [],
      "name": "flashLoanAddress",
      "outputs": [
        {
          "internalType": "address",
          "name": "",
          "type": "address"
        }
      ],
      "stateMutability": "view",
      "type": "function"
    },
    {
      "inputs": [],
      "name": "gasPoolAddress",
      "outputs": [
        {
          "internalType": "address",
          "name": "",
          "type": "address"
        }
      ],
      "stateMutability": "view",
      "type": "function"
    },
    {
      "inputs": [],
      "name": "initialize",
      "outputs": [],
      "stateMutability": "nonpayable",
      "type": "function"
    },
    {
      "inputs": [],
      "name": "isAddressSetupInitialized",
      "outputs": [
        {
          "internalType": "bool",
          "name": "",
          "type": "bool"
        }
      ],
      "stateMutability": "view",
      "type": "function"
    },
    {
      "inputs": [
        {
          "internalType": "address",
          "name": "token",
          "type": "address"
        }
      ],
      "name": "oracles",
      "outputs": [
        {
          "internalType": "address",
          "name": "oracleAddress",
          "type": "address"
        },
        {
          "internalType": "enum IPriceFeed.ProviderType",
          "name": "providerType",
          "type": "uint8"
        },
        {
          "internalType": "uint256",
          "name": "timeoutSeconds",
          "type": "uint256"
        },
        {
          "internalType": "uint256",
          "name": "decimals",
          "type": "uint256"
        },
        {
          "internalType": "bool",
          "name": "isEthIndexed",
          "type": "bool"
        }
      ],
      "stateMutability": "view",
      "type": "function"
    },
    {
      "inputs": [],
      "name": "owner",
      "outputs": [
        {
          "internalType": "address",
          "name": "",
          "type": "address"
        }
      ],
      "stateMutability": "view",
      "type": "function"
    },
    {
      "inputs": [],
      "name": "priceFeed",
      "outputs": [
        {
          "internalType": "address",
          "name": "",
          "type": "address"
        }
      ],
      "stateMutability": "view",
      "type": "function"
    },
    {
      "inputs": [],
      "name": "proxiableUUID",
      "outputs": [
        {
          "internalType": "bytes32",
          "name": "",
          "type": "bytes32"
        }
      ],
      "stateMutability": "view",
      "type": "function"
    },
    {
      "inputs": [],
      "name": "renounceOwnership",
      "outputs": [],
      "stateMutability": "nonpayable",
      "type": "function"
    },
    {
      "inputs": [
        {
          "internalType": "address[]",
          "name": "_addresses",
          "type": "address[]"
        }
      ],
      "name": "setAddresses",
      "outputs": [],
      "stateMutability": "nonpayable",
      "type": "function"
    },
    {
      "inputs": [
        {
          "internalType": "address",
          "name": "_communityIssuance",
          "type": "address"
        }
      ],
      "name": "setCommunityIssuance",
      "outputs": [],
      "stateMutability": "nonpayable",
      "type": "function"
    },
    {
      "inputs": [
        {
          "internalType": "address",
          "name": "_token",
          "type": "address"
        },
        {
          "internalType": "address",
          "name": "_oracle",
          "type": "address"
        },
        {
          "internalType": "enum IPriceFeed.ProviderType",
          "name": "_type",
          "type": "uint8"
        },
        {
          "internalType": "uint256",
          "name": "_timeoutSeconds",
          "type": "uint256"
        },
        {
          "internalType": "bool",
          "name": "_isEthIndexed",
          "type": "bool"
        },
        {
          "internalType": "bool",
          "name": "_isFallback",
          "type": "bool"
        }
      ],
      "name": "setOracle",
      "outputs": [],
      "stateMutability": "nonpayable",
      "type": "function"
    },
    {
      "inputs": [
        {
          "internalType": "address",
          "name": "_trenStaking",
          "type": "address"
        }
      ],
      "name": "setTRENStaking",
      "outputs": [],
      "stateMutability": "nonpayable",
      "type": "function"
    },
    {
      "inputs": [],
      "name": "sortedTrenBoxes",
      "outputs": [
        {
          "internalType": "address",
          "name": "",
          "type": "address"
        }
      ],
      "stateMutability": "view",
      "type": "function"
    },
    {
      "inputs": [],
      "name": "stabilityPool",
      "outputs": [
        {
          "internalType": "address",
          "name": "",
          "type": "address"
        }
      ],
      "stateMutability": "view",
      "type": "function"
    },
    {
      "inputs": [],
      "name": "timelockAddress",
      "outputs": [
        {
          "internalType": "address",
          "name": "",
          "type": "address"
        }
      ],
      "stateMutability": "view",
      "type": "function"
    },
    {
      "inputs": [
        {
          "internalType": "address",
          "name": "newOwner",
          "type": "address"
        }
      ],
      "name": "transferOwnership",
      "outputs": [],
      "stateMutability": "nonpayable",
      "type": "function"
    },
    {
      "inputs": [],
      "name": "treasuryAddress",
      "outputs": [
        {
          "internalType": "address",
          "name": "",
          "type": "address"
        }
      ],
      "stateMutability": "view",
      "type": "function"
    },
    {
      "inputs": [],
      "name": "trenBoxManager",
      "outputs": [
        {
          "internalType": "address",
          "name": "",
          "type": "address"
        }
      ],
      "stateMutability": "view",
      "type": "function"
    },
    {
      "inputs": [],
      "name": "trenBoxManagerOperations",
      "outputs": [
        {
          "internalType": "address",
          "name": "",
          "type": "address"
        }
      ],
      "stateMutability": "view",
      "type": "function"
    },
    {
      "inputs": [],
      "name": "trenStaking",
      "outputs": [
        {
          "internalType": "address",
          "name": "",
          "type": "address"
        }
      ],
      "stateMutability": "view",
      "type": "function"
    },
    {
      "inputs": [
        {
          "internalType": "address",
          "name": "newImplementation",
          "type": "address"
        },
        {
          "internalType": "bytes",
          "name": "data",
          "type": "bytes"
        }
      ],
      "name": "upgradeToAndCall",
      "outputs": [],
      "stateMutability": "payable",
      "type": "function"
    }
  ],
  "transactionHash": "0x09741dacdef7c0dab92321d9b977c65a5c41cf25c4cfa176cf436a25328eab48",
  "args": [],
  "numDeployments": 1,
  "solcInputHash": "76f2ac0d2a40f527e6541dfc9894b953",
  "bytecode": "0x60a06040523060805234801561001457600080fd5b5060805161206461003e600039600081816113bf015281816113e8015261152e01526120646000f3fe60806040526004361061020f5760003560e01c806395fb16bb11610118578063c8564c62116100a0578063f2fde38b1161006f578063f2fde38b146106cc578063f8d89898146106ec578063fcca7fd11461070c578063fe0607331461072c578063fe9d03231461074c57600080fd5b8063c8564c621461063b578063cc8b21e41461066c578063cda775f91461068c578063f1c05a7e146106ac57600080fd5b8063addd5099116100e7578063addd509914610562578063b9571721146105bb578063c05c5e94146105db578063c415b95c146105fb578063c5f956af1461061b57600080fd5b806395fb16bb146104af578063a3f4df7e146104cf578063ace1798e14610511578063ad3cb1cc1461053157600080fd5b806352d1902d1161019b578063741bef1a1161016a578063741bef1a146103fd57806377553ad41461041d5780637f7dde4a1461043d5780638129fc1c1461045d5780638da5cb5b1461047257600080fd5b806352d1902d1461039357806355dafa46146103a85780636a85d67d146103c8578063715018a6146103e857600080fd5b806326256c0b116101e257806326256c0b146102b65780633cc74225146103205780634169467d146103405780634bc66f32146103605780634f1ef2861461038057600080fd5b806301c9310014610214578063048c661d146102365780630a34d4d6146102735780631be5c92f14610293575b600080fd5b34801561022057600080fd5b5061023461022f366004611bf4565b61076c565b005b34801561024257600080fd5b50600d54610256906001600160a01b031681565b6040516001600160a01b0390911681526020015b60405180910390f35b34801561027f57600080fd5b50601154610256906001600160a01b031681565b34801561029f57600080fd5b506102a8601281565b60405190815260200161026a565b3480156102c257600080fd5b5061030f6102d1366004611bf4565b60346020526000908152604090208054600182015460028301546003909301546001600160a01b0383169360ff600160a01b90940484169390911685565b60405161026a959493929190611c25565b34801561032c57600080fd5b50600654610256906001600160a01b031681565b34801561034c57600080fd5b50600854610256906001600160a01b031681565b34801561036c57600080fd5b50600e54610256906001600160a01b031681565b61023461038e366004611c8d565b6107bd565b34801561039f57600080fd5b506102a86107dc565b3480156103b457600080fd5b50600a54610256906001600160a01b031681565b3480156103d457600080fd5b506102346103e3366004611bf4565b6107f9565b3480156103f457600080fd5b5061023461084a565b34801561040957600080fd5b50600b54610256906001600160a01b031681565b34801561042957600080fd5b50600254610256906001600160a01b031681565b34801561044957600080fd5b50600054610256906001600160a01b031681565b34801561046957600080fd5b5061023461085e565b34801561047e57600080fd5b507f9016d09d72d40fdae2fd8ceac6b6234c7706214fd39c1cd1e609a0528c199300546001600160a01b0316610256565b3480156104bb57600080fd5b50600454610256906001600160a01b031681565b3480156104db57600080fd5b5061050460405180604001604052806009815260200168141c9a58d95199595960ba1b81525081565b60405161026a9190611d73565b34801561051d57600080fd5b506102a861052c366004611bf4565b610977565b34801561053d57600080fd5b50610504604051806040016040528060058152602001640352e302e360dc1b81525081565b34801561056e57600080fd5b5061030f61057d366004611bf4565b60336020526000908152604090208054600182015460028301546003909301546001600160a01b0383169360ff600160a01b90940484169390911685565b3480156105c757600080fd5b506102346105d6366004611da6565b610b05565b3480156105e757600080fd5b50600154610256906001600160a01b031681565b34801561060757600080fd5b50600754610256906001600160a01b031681565b34801561062757600080fd5b50600f54610256906001600160a01b031681565b34801561064757600080fd5b5060115461065c90600160a01b900460ff1681565b604051901515815260200161026a565b34801561067857600080fd5b50600c54610256906001600160a01b031681565b34801561069857600080fd5b50600354610256906001600160a01b031681565b3480156106b857600080fd5b50601054610256906001600160a01b031681565b3480156106d857600080fd5b506102346106e7366004611bf4565b611081565b3480156106f857600080fd5b50600554610256906001600160a01b031681565b34801561071857600080fd5b50610234610727366004611e2b565b6110bf565b34801561073857600080fd5b50610234610747366004611bf4565b611350565b34801561075857600080fd5b50600954610256906001600160a01b031681565b610774611359565b6001600160a01b03811661079b576040516385d3330760e01b815260040160405180910390fd5b600a80546001600160a01b0319166001600160a01b0392909216919091179055565b6107c56113b4565b6107ce82611459565b6107d88282611461565b5050565b60006107e6611523565b5060008051602061203883398151915290565b610801611359565b6001600160a01b0381166108285760405163706ebc6560e11b815260040160405180910390fd5b600480546001600160a01b0319166001600160a01b0392909216919091179055565b610852611359565b61085c600061156c565b565b7ff0c57e16840df040f15088dc2f81fe391c3923bec73e23a9662efc9c229c6a008054600160401b810460ff16159067ffffffffffffffff166000811580156108a45750825b905060008267ffffffffffffffff1660011480156108c15750303b155b9050811580156108cf575080155b156108ed5760405163f92ee8a960e01b815260040160405180910390fd5b845467ffffffffffffffff19166001178555831561091757845460ff60401b1916600160401b1785555b33610921816115dd565b6109296115ee565b50831561097057845460ff60401b19168555604051600181527fc7f505b2f371ae2175ee4913f4499e1f2633a7b5936321eed1cdaeb6115181d29060200160405180910390a15b5050505050565b6001600160a01b038181166000908152603360209081526040808320815160a0810190925280549485168252929384939192830190600160a01b900460ff1660018111156109c7576109c7611c0f565b60018111156109d8576109d8611c0f565b8152600182015460208201526002820154604082015260039091015460ff16151560609091015290506000610a0c826115f6565b90508015610a34578160800151610a235780610a2c565b610a2c816116bc565b949350505050565b6001600160a01b03848116600090815260346020908152604091829020825160a0810190935280549384168352919290830190600160a01b900460ff166001811115610a8257610a82611c0f565b6001811115610a9357610a93611c0f565b8152600182015460208201526002820154604082015260039091015460ff1615156060909101529150610ac5826115f6565b90508015610adc578160800151610a235780610a2c565b60405163283f5cb560e01b81526001600160a01b03851660048201526024015b60405180910390fd5b610b0d611359565b601154600160a01b900460ff1615610b3757604051625f22e960e41b815260040160405180910390fd5b60108114610b5857604051633f5a111d60e21b815260040160405180910390fd5b60005b6010811015610bf6576000838383818110610b7857610b78611e9e565b9050602002016020810190610b8d9190611bf4565b6001600160a01b031603610bee5780838383818110610bae57610bae611e9e565b9050602002016020810190610bc39190611bf4565b604051630d9d339f60e01b815260048101929092526001600160a01b03166024820152604401610afc565b600101610b5b565b5081816000818110610c0a57610c0a611e9e565b9050602002016020810190610c1f9190611bf4565b600080546001600160a01b0319166001600160a01b039290921691909117905581816001818110610c5257610c52611e9e565b9050602002016020810190610c679190611bf4565b600180546001600160a01b0319166001600160a01b039290921691909117905581816002818110610c9a57610c9a611e9e565b9050602002016020810190610caf9190611bf4565b600280546001600160a01b0319166001600160a01b039290921691909117905581816003818110610ce257610ce2611e9e565b9050602002016020810190610cf79190611bf4565b600380546001600160a01b0319166001600160a01b039290921691909117905581816004818110610d2a57610d2a611e9e565b9050602002016020810190610d3f9190611bf4565b600580546001600160a01b0319166001600160a01b039290921691909117815582908290818110610d7257610d72611e9e565b9050602002016020810190610d879190611bf4565b600680546001600160a01b0319166001600160a01b039290921691909117815582908290818110610dba57610dba611e9e565b9050602002016020810190610dcf9190611bf4565b600780546001600160a01b0319166001600160a01b039290921691909117815582908290818110610e0257610e02611e9e565b9050602002016020810190610e179190611bf4565b600880546001600160a01b0319166001600160a01b039290921691909117815582908290818110610e4a57610e4a611e9e565b9050602002016020810190610e5f9190611bf4565b600980546001600160a01b0319166001600160a01b039290921691909117815582908290818110610e9257610e92611e9e565b9050602002016020810190610ea79190611bf4565b600b80546001600160a01b0319166001600160a01b03929092169190911790558181600a818110610eda57610eda611e9e565b9050602002016020810190610eef9190611bf4565b600c80546001600160a01b0319166001600160a01b03929092169190911790558181600b818110610f2257610f22611e9e565b9050602002016020810190610f379190611bf4565b600d80546001600160a01b0319166001600160a01b03929092169190911790558181600c818110610f6a57610f6a611e9e565b9050602002016020810190610f7f9190611bf4565b600e80546001600160a01b0319166001600160a01b03929092169190911790558181600d818110610fb257610fb2611e9e565b9050602002016020810190610fc79190611bf4565b600f80546001600160a01b0319166001600160a01b03929092169190911790558181600e818110610ffa57610ffa611e9e565b905060200201602081019061100f9190611bf4565b601080546001600160a01b0319166001600160a01b03929092169190911790558181600f81811061104257611042611e9e565b90506020020160208101906110579190611bf4565b601180546001600160a81b0319166001600160a01b039290921691909117600160a01b1790555050565b611089611359565b6001600160a01b0381166110b357604051631e4fbdf760e01b815260006004820152602401610afc565b6110bc8161156c565b50565b6110c986826116ef565b8080156110ee57506001600160a01b0386811660009081526033602052604090205416155b1561110c57604051634a0e0c3b60e11b815260040160405180910390fd5b60006111188686611771565b60ff1690508060000361113e5760405163ee65a7e560e01b815260040160405180910390fd5b60006040518060a00160405280886001600160a01b0316815260200187600181111561116c5761116c611c0f565b815260200186815260200183815260200185151581525090506000611190826115f6565b9050806000036111be5760405163283f5cb560e01b81526001600160a01b038a166004820152602401610afc565b831561125d576001600160a01b03808a1660009081526034602090815260409091208451815493166001600160a01b03198416811782559185015185939192909183916001600160a81b031990911617600160a01b83600181111561122557611225611c0f565b021790555060408201516001820155606082015160028201556080909101516003909101805460ff19169115159190911790556112f2565b6001600160a01b03808a1660009081526033602090815260409091208451815493166001600160a01b03198416811782559185015185939192909183916001600160a81b031990911617600160a01b8360018111156112be576112be611c0f565b021790555060408201516001820155606082015160028201556080909101516003909101805460ff19169115159190911790555b604080516001600160a01b038b811682528a16602082015286151581830152851515606082015290517fcbde3c20c68ba036ef9cd1c074d075187be3640bc7a5b3fb85f045b07ab9a9309181900360800190a1505050505050505050565b6110bc81611459565b3361138b7f9016d09d72d40fdae2fd8ceac6b6234c7706214fd39c1cd1e609a0528c199300546001600160a01b031690565b6001600160a01b03161461085c5760405163118cdaa760e01b8152336004820152602401610afc565b306001600160a01b037f000000000000000000000000000000000000000000000000000000000000000016148061143b57507f00000000000000000000000000000000000000000000000000000000000000006001600160a01b031661142f600080516020612038833981519152546001600160a01b031690565b6001600160a01b031614155b1561085c5760405163703e46dd60e11b815260040160405180910390fd5b6110bc611359565b816001600160a01b03166352d1902d6040518163ffffffff1660e01b8152600401602060405180830381865afa9250505080156114bb575060408051601f3d908101601f191682019092526114b891810190611eb4565b60015b6114e357604051634c9c8ce360e01b81526001600160a01b0383166004820152602401610afc565b600080516020612038833981519152811461151457604051632a87526960e21b815260048101829052602401610afc565b61151e8383611820565b505050565b306001600160a01b037f0000000000000000000000000000000000000000000000000000000000000000161461085c5760405163703e46dd60e11b815260040160405180910390fd5b7f9016d09d72d40fdae2fd8ceac6b6234c7706214fd39c1cd1e609a0528c19930080546001600160a01b031981166001600160a01b03848116918217845560405192169182907f8be0079c531659141344cd1fd0a4f28419497f9722a3daafe3b4186f6b6457e090600090a3505050565b6115e5611876565b6110bc816118bf565b61085c611876565b8051600090819081906001600160a01b031661162557604051632e054cdf60e21b815260040160405180910390fd5b8360200151600181111561163b5761163b611c0f565b60000361165757835161164d906118c7565b9092509050611685565b8360200151600181111561166d5761166d611c0f565b60010361168557835161167f9061196e565b90925090505b811580159061169f575061169d8185604001516119fc565b155b156116b257610a2c828560600151611a11565b5060009392505050565b6000806116c96000610977565b9050670de0b6b3a76400006116de8483611ee3565b6116e89190611f10565b9392505050565b600081611713576001600160a01b038316600090815260336020526040902061172c565b6001600160a01b03831660009081526034602052604090205b80549091506001600160a01b03166117465761151e611359565b600e546001600160a01b0316331461151e57604051633bc92b2160e01b815260040160405180910390fd5b600081600181111561178557611785611c0f565b6000036117f557826001600160a01b031663313ce5676040518163ffffffff1660e01b8152600401602060405180830381865afa1580156117ca573d6000803e3d6000fd5b505050506040513d601f19601f820116820180604052508101906117ee9190611f32565b905061181a565b81600181111561180757611807611c0f565b6001036118165750601261181a565b5060005b92915050565b61182982611a59565b6040516001600160a01b038316907fbc7cd75a20ee27fd9adebab32041f755214dbc6bffa90cc0225b39da2e5c2d3b90600090a280511561186e5761151e8282611abe565b6107d8611b34565b7ff0c57e16840df040f15088dc2f81fe391c3923bec73e23a9662efc9c229c6a0054600160401b900460ff1661085c57604051631afcd79f60e31b815260040160405180910390fd5b611089611876565b600080826001600160a01b031663feaf968c6040518163ffffffff1660e01b815260040160a060405180830381865afa925050508015611924575060408051601f3d908101601f1916820190925261192191810190611f6f565b60015b61193357506000905080915091565b69ffffffffffffffffffff85161580159061194d57508115155b801561195857508315155b15611964578396508195505b5050505050915091565b600080600080846001600160a01b03166357de26a46040518163ffffffff1660e01b81526004016040805180830381865afa1580156119b1573d6000803e3d6000fd5b505050506040513d601f19601f820116820180604052508101906119d59190611fbf565b63ffffffff1691509150600082601b0b13156119f55781601b0b93508092505b5050915091565b600081611a098442612008565b119392505050565b60006012821115611a395760128203600a0a8381611a3157611a31611efa565b04905061181a565b6012821015611a525781601203600a0a8302905061181a565b5090919050565b806001600160a01b03163b600003611a8f57604051634c9c8ce360e01b81526001600160a01b0382166004820152602401610afc565b60008051602061203883398151915280546001600160a01b0319166001600160a01b0392909216919091179055565b6060600080846001600160a01b031684604051611adb919061201b565b600060405180830381855af49150503d8060008114611b16576040519150601f19603f3d011682016040523d82523d6000602084013e611b1b565b606091505b5091509150611b2b858383611b53565b95945050505050565b341561085c5760405163b398979f60e01b815260040160405180910390fd5b606082611b6857611b6382611baf565b6116e8565b8151158015611b7f57506001600160a01b0384163b155b15611ba857604051639996b31560e01b81526001600160a01b0385166004820152602401610afc565b5092915050565b805115611bbf5780518082602001fd5b604051630a12f52160e11b815260040160405180910390fd5b80356001600160a01b0381168114611bef57600080fd5b919050565b600060208284031215611c0657600080fd5b6116e882611bd8565b634e487b7160e01b600052602160045260246000fd5b6001600160a01b038616815260a0810160028610611c5357634e487b7160e01b600052602160045260246000fd5b85602083015284604083015283606083015282151560808301529695505050505050565b634e487b7160e01b600052604160045260246000fd5b60008060408385031215611ca057600080fd5b611ca983611bd8565b9150602083013567ffffffffffffffff80821115611cc657600080fd5b818501915085601f830112611cda57600080fd5b813581811115611cec57611cec611c77565b604051601f8201601f19908116603f01168101908382118183101715611d1457611d14611c77565b81604052828152886020848701011115611d2d57600080fd5b8260208601602083013760006020848301015280955050505050509250929050565b60005b83811015611d6a578181015183820152602001611d52565b50506000910152565b6020815260008251806020840152611d92816040850160208701611d4f565b601f01601f19169190910160400192915050565b60008060208385031215611db957600080fd5b823567ffffffffffffffff80821115611dd157600080fd5b818501915085601f830112611de557600080fd5b813581811115611df457600080fd5b8660208260051b8501011115611e0957600080fd5b60209290920196919550909350505050565b80358015158114611bef57600080fd5b60008060008060008060c08789031215611e4457600080fd5b611e4d87611bd8565b9550611e5b60208801611bd8565b9450604087013560028110611e6f57600080fd5b935060608701359250611e8460808801611e1b565b9150611e9260a08801611e1b565b90509295509295509295565b634e487b7160e01b600052603260045260246000fd5b600060208284031215611ec657600080fd5b5051919050565b634e487b7160e01b600052601160045260246000fd5b808202811582820484141761181a5761181a611ecd565b634e487b7160e01b600052601260045260246000fd5b600082611f2d57634e487b7160e01b600052601260045260246000fd5b500490565b600060208284031215611f4457600080fd5b815160ff811681146116e857600080fd5b805169ffffffffffffffffffff81168114611bef57600080fd5b600080600080600060a08688031215611f8757600080fd5b611f9086611f55565b9450602086015193506040860151925060608601519150611fb360808701611f55565b90509295509295909350565b60008060408385031215611fd257600080fd5b825180601b0b8114611fe357600080fd5b602084015190925063ffffffff81168114611ffd57600080fd5b809150509250929050565b8181038181111561181a5761181a611ecd565b6000825161202d818460208701611d4f565b919091019291505056fe360894a13ba1a3210667c828492db98dca3e2076cc3735a920a3ca505d382bbca164736f6c6343000817000a",
  "devdoc": {
    "errors": {
      "AddressEmptyCode(address)": [
        {
          "details": "There's no code at `target` (it is not a contract)."
        }
      ],
      "ERC1967InvalidImplementation(address)": [
        {
          "details": "The `implementation` of the proxy is invalid."
        }
      ],
      "ERC1967NonPayable()": [
        {
          "details": "An upgrade function sees `msg.value > 0` that may be lost."
        }
      ],
      "FailedInnerCall()": [
        {
          "details": "A call to an address target failed. The target may have reverted."
        }
      ],
      "InvalidInitialization()": [
        {
          "details": "The contract is already initialized."
        }
      ],
      "NotInitializing()": [
        {
          "details": "The contract is not initializing."
        }
      ],
      "OwnableInvalidOwner(address)": [
        {
          "details": "The owner is not a valid owner account. (eg. `address(0)`)"
        }
      ],
      "OwnableUnauthorizedAccount(address)": [
        {
          "details": "The caller account is not authorized to perform an operation."
        }
      ],
      "UUPSUnauthorizedCallContext()": [
        {
          "details": "The call is from an unauthorized context."
        }
      ],
      "UUPSUnsupportedProxiableUUID(bytes32)": [
        {
          "details": "The storage `slot` is unsupported as a UUID."
        }
      ]
    },
    "events": {
      "Initialized(uint64)": {
        "details": "Triggered when the contract has been initialized or reinitialized."
      },
      "Upgraded(address)": {
        "details": "Emitted when the implementation is upgraded."
      }
    },
    "kind": "dev",
    "methods": {
      "fetchPrice(address)": {
        "details": "Callers:     - BorrowerOperations.openTrenBox()     - BorrowerOperations.adjustTrenBox()     - BorrowerOperations.closeTrenBox()     - TrenBoxManagerOperations.liquidateTrenBoxes()     - TrenBoxManagerOperations.batchLiquidateTrenBoxes()     - TrenBoxManagerOperations.redeemCollateral()"
      },
      "owner()": {
        "details": "Returns the address of the current owner."
      },
      "proxiableUUID()": {
        "details": "Implementation of the ERC1822 {proxiableUUID} function. This returns the storage slot used by the implementation. It is used to validate the implementation's compatibility when performing an upgrade. IMPORTANT: A proxy pointing at a proxiable contract should not be considered proxiable itself, because this risks bricking a proxy that upgrades to it, by delegating to itself until out of gas. Thus it is critical that this function revert if invoked through a proxy. This is guaranteed by the `notDelegated` modifier."
      },
      "renounceOwnership()": {
        "details": "Leaves the contract without owner. It will not be possible to call `onlyOwner` functions. Can only be called by the current owner. NOTE: Renouncing ownership will leave the contract without an owner, thereby disabling any functionality that is only available to the owner."
      },
      "transferOwnership(address)": {
        "details": "Transfers ownership of the contract to a new account (`newOwner`). Can only be called by the current owner."
      },
      "upgradeToAndCall(address,bytes)": {
        "custom:oz-upgrades-unsafe-allow-reachable": "delegatecall",
        "details": "Upgrade the implementation of the proxy to `newImplementation`, and subsequently execute the function call encoded in `data`. Calls {_authorizeUpgrade}. Emits an {Upgraded} event."
      }
    },
    "stateVariables": {
      "TARGET_DIGITS": {
        "details": "Used to convert an oracle price answer to an 18-digit precision uint"
      }
    },
    "title": "The PriceFeed contract contains a directory of oracles for fetching prices for assets based on their addresses; optionally fallback oracles can also be registered in case the primary source fails or is stale.",
    "version": 1
  },
  "userdoc": {
    "kind": "user",
    "methods": {
      "fetchPrice(address)": {
        "notice": "Fetches the price for an asset from a previously configured oracle."
      }
    },
    "version": 1
  },
  "storageLayout": {
    "storage": [
      {
        "astId": 10031,
        "contract": "contracts/PriceFeed.sol:PriceFeed",
        "label": "activePool",
        "offset": 0,
        "slot": "0",
        "type": "t_address"
      },
      {
        "astId": 10033,
        "contract": "contracts/PriceFeed.sol:PriceFeed",
        "label": "adminContract",
        "offset": 0,
        "slot": "1",
        "type": "t_address"
      },
      {
        "astId": 10035,
        "contract": "contracts/PriceFeed.sol:PriceFeed",
        "label": "borrowerOperations",
        "offset": 0,
        "slot": "2",
        "type": "t_address"
      },
      {
        "astId": 10037,
        "contract": "contracts/PriceFeed.sol:PriceFeed",
        "label": "collSurplusPool",
        "offset": 0,
        "slot": "3",
        "type": "t_address"
      },
      {
        "astId": 10039,
        "contract": "contracts/PriceFeed.sol:PriceFeed",
        "label": "communityIssuance",
        "offset": 0,
        "slot": "4",
        "type": "t_address"
      },
      {
        "astId": 10041,
        "contract": "contracts/PriceFeed.sol:PriceFeed",
        "label": "debtToken",
        "offset": 0,
        "slot": "5",
        "type": "t_address"
      },
      {
        "astId": 10043,
        "contract": "contracts/PriceFeed.sol:PriceFeed",
        "label": "defaultPool",
        "offset": 0,
        "slot": "6",
        "type": "t_address"
      },
      {
        "astId": 10045,
        "contract": "contracts/PriceFeed.sol:PriceFeed",
        "label": "feeCollector",
        "offset": 0,
        "slot": "7",
        "type": "t_address"
      },
      {
        "astId": 10047,
        "contract": "contracts/PriceFeed.sol:PriceFeed",
        "label": "flashLoanAddress",
        "offset": 0,
        "slot": "8",
        "type": "t_address"
      },
      {
        "astId": 10049,
        "contract": "contracts/PriceFeed.sol:PriceFeed",
        "label": "gasPoolAddress",
        "offset": 0,
        "slot": "9",
        "type": "t_address"
      },
      {
        "astId": 10051,
        "contract": "contracts/PriceFeed.sol:PriceFeed",
        "label": "trenStaking",
        "offset": 0,
        "slot": "10",
        "type": "t_address"
      },
      {
        "astId": 10053,
        "contract": "contracts/PriceFeed.sol:PriceFeed",
        "label": "priceFeed",
        "offset": 0,
        "slot": "11",
        "type": "t_address"
      },
      {
        "astId": 10055,
        "contract": "contracts/PriceFeed.sol:PriceFeed",
        "label": "sortedTrenBoxes",
        "offset": 0,
        "slot": "12",
        "type": "t_address"
      },
      {
        "astId": 10057,
        "contract": "contracts/PriceFeed.sol:PriceFeed",
        "label": "stabilityPool",
        "offset": 0,
        "slot": "13",
        "type": "t_address"
      },
      {
        "astId": 10059,
        "contract": "contracts/PriceFeed.sol:PriceFeed",
        "label": "timelockAddress",
        "offset": 0,
        "slot": "14",
        "type": "t_address"
      },
      {
        "astId": 10061,
        "contract": "contracts/PriceFeed.sol:PriceFeed",
        "label": "treasuryAddress",
        "offset": 0,
        "slot": "15",
        "type": "t_address"
      },
      {
        "astId": 10063,
        "contract": "contracts/PriceFeed.sol:PriceFeed",
        "label": "trenBoxManager",
        "offset": 0,
        "slot": "16",
        "type": "t_address"
      },
      {
        "astId": 10065,
        "contract": "contracts/PriceFeed.sol:PriceFeed",
        "label": "trenBoxManagerOperations",
        "offset": 0,
        "slot": "17",
        "type": "t_address"
      },
      {
        "astId": 10067,
        "contract": "contracts/PriceFeed.sol:PriceFeed",
        "label": "isAddressSetupInitialized",
        "offset": 20,
        "slot": "17",
        "type": "t_bool"
      },
      {
        "astId": 10072,
        "contract": "contracts/PriceFeed.sol:PriceFeed",
        "label": "__gap",
        "offset": 0,
        "slot": "18",
        "type": "t_array(t_uint256)33_storage"
      },
      {
        "astId": 14926,
        "contract": "contracts/PriceFeed.sol:PriceFeed",
        "label": "oracles",
        "offset": 0,
        "slot": "51",
        "type": "t_mapping(t_address,t_struct(OracleRecord)13579_storage)"
      },
      {
        "astId": 14931,
        "contract": "contracts/PriceFeed.sol:PriceFeed",
        "label": "fallbacks",
        "offset": 0,
        "slot": "52",
        "type": "t_mapping(t_address,t_struct(OracleRecord)13579_storage)"
      }
    ],
    "types": {
      "t_address": {
        "encoding": "inplace",
        "label": "address",
        "numberOfBytes": "20"
      },
      "t_array(t_uint256)33_storage": {
        "base": "t_uint256",
        "encoding": "inplace",
        "label": "uint256[33]",
        "numberOfBytes": "1056"
      },
      "t_bool": {
        "encoding": "inplace",
        "label": "bool",
        "numberOfBytes": "1"
      },
      "t_enum(ProviderType)13567": {
        "encoding": "inplace",
        "label": "enum IPriceFeed.ProviderType",
        "numberOfBytes": "1"
      },
      "t_mapping(t_address,t_struct(OracleRecord)13579_storage)": {
        "encoding": "mapping",
        "key": "t_address",
        "label": "mapping(address => struct IPriceFeed.OracleRecord)",
        "numberOfBytes": "32",
        "value": "t_struct(OracleRecord)13579_storage"
      },
      "t_struct(OracleRecord)13579_storage": {
        "encoding": "inplace",
        "label": "struct IPriceFeed.OracleRecord",
        "members": [
          {
            "astId": 13569,
            "contract": "contracts/PriceFeed.sol:PriceFeed",
            "label": "oracleAddress",
            "offset": 0,
            "slot": "0",
            "type": "t_address"
          },
          {
            "astId": 13572,
            "contract": "contracts/PriceFeed.sol:PriceFeed",
            "label": "providerType",
            "offset": 20,
            "slot": "0",
            "type": "t_enum(ProviderType)13567"
          },
          {
            "astId": 13574,
            "contract": "contracts/PriceFeed.sol:PriceFeed",
            "label": "timeoutSeconds",
            "offset": 0,
            "slot": "1",
            "type": "t_uint256"
          },
          {
            "astId": 13576,
            "contract": "contracts/PriceFeed.sol:PriceFeed",
            "label": "decimals",
            "offset": 0,
            "slot": "2",
            "type": "t_uint256"
          },
          {
            "astId": 13578,
            "contract": "contracts/PriceFeed.sol:PriceFeed",
            "label": "isEthIndexed",
            "offset": 0,
            "slot": "3",
            "type": "t_bool"
          }
        ],
        "numberOfBytes": "128"
      },
      "t_uint256": {
        "encoding": "inplace",
        "label": "uint256",
        "numberOfBytes": "32"
      }
    }
  }
}