{
  "address": "0x6F118BCE9cE98B2Fd7442C6Fa9945A5856D47B4D",
  "abi": [
    {
      "inputs": [
        {
          "internalType": "address",
          "name": "target",
          "type": "address"
        }
      ],
      "name": "AddressEmptyCode",
      "type": "error"
    },
    {
      "inputs": [],
      "name": "ConfigurableAddresses__CommunityIssuanceZeroAddress",
      "type": "error"
    },
    {
      "inputs": [],
      "name": "ConfigurableAddresses__LengthMismatch",
      "type": "error"
    },
    {
      "inputs": [],
      "name": "ConfigurableAddresses__SetupIsInitialized",
      "type": "error"
    },
    {
      "inputs": [],
      "name": "ConfigurableAddresses__TRENStakingZeroAddress",
      "type": "error"
    },
    {
      "inputs": [
        {
          "internalType": "uint256",
          "name": "position",
          "type": "uint256"
        },
        {
          "internalType": "address",
          "name": "address_",
          "type": "address"
        }
      ],
      "name": "ConfigurableAddresses__ZeroAddresses",
      "type": "error"
    },
    {
      "inputs": [
        {
          "internalType": "address",
          "name": "implementation",
          "type": "address"
        }
      ],
      "name": "ERC1967InvalidImplementation",
      "type": "error"
    },
    {
      "inputs": [],
      "name": "ERC1967NonPayable",
      "type": "error"
    },
    {
      "inputs": [],
      "name": "FailedInnerCall",
      "type": "error"
    },
    {
      "inputs": [],
      "name": "InvalidInitialization",
      "type": "error"
    },
    {
      "inputs": [],
      "name": "NotInitializing",
      "type": "error"
    },
    {
      "inputs": [
        {
          "internalType": "address",
          "name": "owner",
          "type": "address"
        }
      ],
      "name": "OwnableInvalidOwner",
      "type": "error"
    },
    {
      "inputs": [
        {
          "internalType": "address",
          "name": "account",
          "type": "address"
        }
      ],
      "name": "OwnableUnauthorizedAccount",
      "type": "error"
    },
    {
      "inputs": [],
      "name": "SortedTrenBoxer__ListDoesNotContainNode",
      "type": "error"
    },
    {
      "inputs": [],
      "name": "SortedTrenBoxes__CallerMustBeBorrowerOperationsOrTrenBoxManager",
      "type": "error"
    },
    {
      "inputs": [],
      "name": "SortedTrenBoxes__CallerMustBeTrenBoxManager",
      "type": "error"
    },
    {
      "inputs": [],
      "name": "SortedTrenBoxes__IdCannotBeZeroAddress",
      "type": "error"
    },
    {
      "inputs": [],
      "name": "SortedTrenBoxes__ListAlreadyContainsNode",
      "type": "error"
    },
    {
      "inputs": [],
      "name": "SortedTrenBoxes__NICRMustBeGreaterThanZero",
      "type": "error"
    },
    {
      "inputs": [],
      "name": "UUPSUnauthorizedCallContext",
      "type": "error"
    },
    {
      "inputs": [
        {
          "internalType": "bytes32",
          "name": "slot",
          "type": "bytes32"
        }
      ],
      "name": "UUPSUnsupportedProxiableUUID",
      "type": "error"
    },
    {
      "anonymous": false,
      "inputs": [
        {
          "indexed": false,
          "internalType": "uint64",
          "name": "version",
          "type": "uint64"
        }
      ],
      "name": "Initialized",
      "type": "event"
    },
    {
      "anonymous": false,
      "inputs": [
        {
          "indexed": true,
          "internalType": "address",
          "name": "_asset",
          "type": "address"
        },
        {
          "indexed": false,
          "internalType": "address",
          "name": "_id",
          "type": "address"
        },
        {
          "indexed": false,
          "internalType": "uint256",
          "name": "_NICR",
          "type": "uint256"
        }
      ],
      "name": "NodeAdded",
      "type": "event"
    },
    {
      "anonymous": false,
      "inputs": [
        {
          "indexed": true,
          "internalType": "address",
          "name": "_asset",
          "type": "address"
        },
        {
          "indexed": false,
          "internalType": "address",
          "name": "_id",
          "type": "address"
        }
      ],
      "name": "NodeRemoved",
      "type": "event"
    },
    {
      "anonymous": false,
      "inputs": [
        {
          "indexed": true,
          "internalType": "address",
          "name": "previousOwner",
          "type": "address"
        },
        {
          "indexed": true,
          "internalType": "address",
          "name": "newOwner",
          "type": "address"
        }
      ],
      "name": "OwnershipTransferred",
      "type": "event"
    },
    {
      "anonymous": false,
      "inputs": [
        {
          "indexed": true,
          "internalType": "address",
          "name": "implementation",
          "type": "address"
        }
      ],
      "name": "Upgraded",
      "type": "event"
    },
    {
      "inputs": [],
      "name": "NAME",
      "outputs": [
        {
          "internalType": "string",
          "name": "",
          "type": "string"
        }
      ],
      "stateMutability": "view",
      "type": "function"
    },
    {
      "inputs": [],
      "name": "UPGRADE_INTERFACE_VERSION",
      "outputs": [
        {
          "internalType": "string",
          "name": "",
          "type": "string"
        }
      ],
      "stateMutability": "view",
      "type": "function"
    },
    {
      "inputs": [],
      "name": "activePool",
      "outputs": [
        {
          "internalType": "address",
          "name": "",
          "type": "address"
        }
      ],
      "stateMutability": "view",
      "type": "function"
    },
    {
      "inputs": [],
      "name": "adminContract",
      "outputs": [
        {
          "internalType": "address",
          "name": "",
          "type": "address"
        }
      ],
      "stateMutability": "view",
      "type": "function"
    },
    {
      "inputs": [
        {
          "internalType": "address",
          "name": "newImplementation",
          "type": "address"
        }
      ],
      "name": "authorizeUpgrade",
      "outputs": [],
      "stateMutability": "nonpayable",
      "type": "function"
    },
    {
      "inputs": [],
      "name": "borrowerOperations",
      "outputs": [
        {
          "internalType": "address",
          "name": "",
          "type": "address"
        }
      ],
      "stateMutability": "view",
      "type": "function"
    },
    {
      "inputs": [],
      "name": "collSurplusPool",
      "outputs": [
        {
          "internalType": "address",
          "name": "",
          "type": "address"
        }
      ],
      "stateMutability": "view",
      "type": "function"
    },
    {
      "inputs": [],
      "name": "communityIssuance",
      "outputs": [
        {
          "internalType": "address",
          "name": "",
          "type": "address"
        }
      ],
      "stateMutability": "view",
      "type": "function"
    },
    {
      "inputs": [
        {
          "internalType": "address",
          "name": "_asset",
          "type": "address"
        },
        {
          "internalType": "address",
          "name": "_id",
          "type": "address"
        }
      ],
      "name": "contains",
      "outputs": [
        {
          "internalType": "bool",
          "name": "",
          "type": "bool"
        }
      ],
      "stateMutability": "view",
      "type": "function"
    },
    {
      "inputs": [],
      "name": "debtToken",
      "outputs": [
        {
          "internalType": "address",
          "name": "",
          "type": "address"
        }
      ],
      "stateMutability": "view",
      "type": "function"
    },
    {
      "inputs": [],
      "name": "defaultPool",
      "outputs": [
        {
          "internalType": "address",
          "name": "",
          "type": "address"
        }
      ],
      "stateMutability": "view",
      "type": "function"
    },
    {
      "inputs": [],
      "name": "feeCollector",
      "outputs": [
        {
          "internalType": "address",
          "name": "",
          "type": "address"
        }
      ],
      "stateMutability": "view",
      "type": "function"
    },
    {
      "inputs": [
        {
          "internalType": "address",
          "name": "_asset",
          "type": "address"
        },
        {
          "internalType": "uint256",
          "name": "_NICR",
          "type": "uint256"
        },
        {
          "internalType": "address",
          "name": "_prevId",
          "type": "address"
        },
        {
          "internalType": "address",
          "name": "_nextId",
          "type": "address"
        }
      ],
      "name": "findInsertPosition",
      "outputs": [
        {
          "internalType": "address",
          "name": "",
          "type": "address"
        },
        {
          "internalType": "address",
          "name": "",
          "type": "address"
        }
      ],
      "stateMutability": "view",
      "type": "function"
    },
    {
      "inputs": [],
      "name": "flashLoanAddress",
      "outputs": [
        {
          "internalType": "address",
          "name": "",
          "type": "address"
        }
      ],
      "stateMutability": "view",
      "type": "function"
    },
    {
      "inputs": [],
      "name": "gasPoolAddress",
      "outputs": [
        {
          "internalType": "address",
          "name": "",
          "type": "address"
        }
      ],
      "stateMutability": "view",
      "type": "function"
    },
    {
      "inputs": [
        {
          "internalType": "address",
          "name": "_asset",
          "type": "address"
        }
      ],
      "name": "getFirst",
      "outputs": [
        {
          "internalType": "address",
          "name": "",
          "type": "address"
        }
      ],
      "stateMutability": "view",
      "type": "function"
    },
    {
      "inputs": [
        {
          "internalType": "address",
          "name": "_asset",
          "type": "address"
        }
      ],
      "name": "getLast",
      "outputs": [
        {
          "internalType": "address",
          "name": "",
          "type": "address"
        }
      ],
      "stateMutability": "view",
      "type": "function"
    },
    {
      "inputs": [
        {
          "internalType": "address",
          "name": "_asset",
          "type": "address"
        },
        {
          "internalType": "address",
          "name": "_id",
          "type": "address"
        }
      ],
      "name": "getNext",
      "outputs": [
        {
          "internalType": "address",
          "name": "",
          "type": "address"
        }
      ],
      "stateMutability": "view",
      "type": "function"
    },
    {
      "inputs": [
        {
          "internalType": "address",
          "name": "_asset",
          "type": "address"
        },
        {
          "internalType": "address",
          "name": "_id",
          "type": "address"
        }
      ],
      "name": "getPrev",
      "outputs": [
        {
          "internalType": "address",
          "name": "",
          "type": "address"
        }
      ],
      "stateMutability": "view",
      "type": "function"
    },
    {
      "inputs": [
        {
          "internalType": "address",
          "name": "_asset",
          "type": "address"
        }
      ],
      "name": "getSize",
      "outputs": [
        {
          "internalType": "uint256",
          "name": "",
          "type": "uint256"
        }
      ],
      "stateMutability": "view",
      "type": "function"
    },
    {
      "inputs": [],
      "name": "initialize",
      "outputs": [],
      "stateMutability": "nonpayable",
      "type": "function"
    },
    {
      "inputs": [
        {
          "internalType": "address",
          "name": "_asset",
          "type": "address"
        },
        {
          "internalType": "address",
          "name": "_id",
          "type": "address"
        },
        {
          "internalType": "uint256",
          "name": "_NICR",
          "type": "uint256"
        },
        {
          "internalType": "address",
          "name": "_prevId",
          "type": "address"
        },
        {
          "internalType": "address",
          "name": "_nextId",
          "type": "address"
        }
      ],
      "name": "insert",
      "outputs": [],
      "stateMutability": "nonpayable",
      "type": "function"
    },
    {
      "inputs": [],
      "name": "isAddressSetupInitialized",
      "outputs": [
        {
          "internalType": "bool",
          "name": "",
          "type": "bool"
        }
      ],
      "stateMutability": "view",
      "type": "function"
    },
    {
      "inputs": [
        {
          "internalType": "address",
          "name": "_asset",
          "type": "address"
        }
      ],
      "name": "isEmpty",
      "outputs": [
        {
          "internalType": "bool",
          "name": "",
          "type": "bool"
        }
      ],
      "stateMutability": "view",
      "type": "function"
    },
    {
      "inputs": [],
      "name": "owner",
      "outputs": [
        {
          "internalType": "address",
          "name": "",
          "type": "address"
        }
      ],
      "stateMutability": "view",
      "type": "function"
    },
    {
      "inputs": [],
      "name": "priceFeed",
      "outputs": [
        {
          "internalType": "address",
          "name": "",
          "type": "address"
        }
      ],
      "stateMutability": "view",
      "type": "function"
    },
    {
      "inputs": [],
      "name": "proxiableUUID",
      "outputs": [
        {
          "internalType": "bytes32",
          "name": "",
          "type": "bytes32"
        }
      ],
      "stateMutability": "view",
      "type": "function"
    },
    {
      "inputs": [
        {
          "internalType": "address",
          "name": "_asset",
          "type": "address"
        },
        {
          "internalType": "address",
          "name": "_id",
          "type": "address"
        },
        {
          "internalType": "uint256",
          "name": "_newNICR",
          "type": "uint256"
        },
        {
          "internalType": "address",
          "name": "_prevId",
          "type": "address"
        },
        {
          "internalType": "address",
          "name": "_nextId",
          "type": "address"
        }
      ],
      "name": "reInsert",
      "outputs": [],
      "stateMutability": "nonpayable",
      "type": "function"
    },
    {
      "inputs": [
        {
          "internalType": "address",
          "name": "_asset",
          "type": "address"
        },
        {
          "internalType": "address",
          "name": "_id",
          "type": "address"
        }
      ],
      "name": "remove",
      "outputs": [],
      "stateMutability": "nonpayable",
      "type": "function"
    },
    {
      "inputs": [],
      "name": "renounceOwnership",
      "outputs": [],
      "stateMutability": "nonpayable",
      "type": "function"
    },
    {
      "inputs": [
        {
          "internalType": "address[]",
          "name": "_addresses",
          "type": "address[]"
        }
      ],
      "name": "setAddresses",
      "outputs": [],
      "stateMutability": "nonpayable",
      "type": "function"
    },
    {
      "inputs": [
        {
          "internalType": "address",
          "name": "_communityIssuance",
          "type": "address"
        }
      ],
      "name": "setCommunityIssuance",
      "outputs": [],
      "stateMutability": "nonpayable",
      "type": "function"
    },
    {
      "inputs": [
        {
          "internalType": "address",
          "name": "_trenStaking",
          "type": "address"
        }
      ],
      "name": "setTRENStaking",
      "outputs": [],
      "stateMutability": "nonpayable",
      "type": "function"
    },
    {
      "inputs": [],
      "name": "sortedTrenBoxes",
      "outputs": [
        {
          "internalType": "address",
          "name": "",
          "type": "address"
        }
      ],
      "stateMutability": "view",
      "type": "function"
    },
    {
      "inputs": [],
      "name": "stabilityPool",
      "outputs": [
        {
          "internalType": "address",
          "name": "",
          "type": "address"
        }
      ],
      "stateMutability": "view",
      "type": "function"
    },
    {
      "inputs": [],
      "name": "timelockAddress",
      "outputs": [
        {
          "internalType": "address",
          "name": "",
          "type": "address"
        }
      ],
      "stateMutability": "view",
      "type": "function"
    },
    {
      "inputs": [
        {
          "internalType": "address",
          "name": "newOwner",
          "type": "address"
        }
      ],
      "name": "transferOwnership",
      "outputs": [],
      "stateMutability": "nonpayable",
      "type": "function"
    },
    {
      "inputs": [],
      "name": "treasuryAddress",
      "outputs": [
        {
          "internalType": "address",
          "name": "",
          "type": "address"
        }
      ],
      "stateMutability": "view",
      "type": "function"
    },
    {
      "inputs": [],
      "name": "trenBoxManager",
      "outputs": [
        {
          "internalType": "address",
          "name": "",
          "type": "address"
        }
      ],
      "stateMutability": "view",
      "type": "function"
    },
    {
      "inputs": [],
      "name": "trenBoxManagerOperations",
      "outputs": [
        {
          "internalType": "address",
          "name": "",
          "type": "address"
        }
      ],
      "stateMutability": "view",
      "type": "function"
    },
    {
      "inputs": [
        {
          "internalType": "address",
          "name": "collateral",
          "type": "address"
        }
      ],
      "name": "trenBoxes",
      "outputs": [
        {
          "internalType": "address",
          "name": "head",
          "type": "address"
        },
        {
          "internalType": "address",
          "name": "tail",
          "type": "address"
        },
        {
          "internalType": "uint256",
          "name": "size",
          "type": "uint256"
        }
      ],
      "stateMutability": "view",
      "type": "function"
    },
    {
      "inputs": [],
      "name": "trenStaking",
      "outputs": [
        {
          "internalType": "address",
          "name": "",
          "type": "address"
        }
      ],
      "stateMutability": "view",
      "type": "function"
    },
    {
      "inputs": [
        {
          "internalType": "address",
          "name": "newImplementation",
          "type": "address"
        },
        {
          "internalType": "bytes",
          "name": "data",
          "type": "bytes"
        }
      ],
      "name": "upgradeToAndCall",
      "outputs": [],
      "stateMutability": "payable",
      "type": "function"
    },
    {
      "inputs": [
        {
          "internalType": "address",
          "name": "_asset",
          "type": "address"
        },
        {
          "internalType": "uint256",
          "name": "_NICR",
          "type": "uint256"
        },
        {
          "internalType": "address",
          "name": "_prevId",
          "type": "address"
        },
        {
          "internalType": "address",
          "name": "_nextId",
          "type": "address"
        }
      ],
      "name": "validInsertPosition",
      "outputs": [
        {
          "internalType": "bool",
          "name": "",
          "type": "bool"
        }
      ],
      "stateMutability": "view",
      "type": "function"
    }
  ],
  "transactionHash": "0x9c9a26e0c043ad39687e71ea8f3a99798a850cccc229d2302c795444aa26d1e0",
  "args": [],
  "numDeployments": 1,
  "solcInputHash": "76f2ac0d2a40f527e6541dfc9894b953",
  "bytecode": "0x60a06040523060805234801561001457600080fd5b506080516127ca61003e6000396000818161133d0152818161136601526114ac01526127ca6000f3fe6080604052600436106102675760003560e01c80638129fc1c11610144578063c8564c62116100b6578063ed26cae81161007a578063ed26cae814610883578063f1c05a7e146108a3578063f2fde38b146108c3578063f8d89898146108e3578063fe06073314610903578063fe9d03231461092357600080fd5b8063c8564c62146107b6578063cc8b21e4146107d7578063cda775f9146107f7578063e71b840014610817578063eceea2fb1461086357600080fd5b8063b957172111610108578063b9571721146106e8578063bc9b5bd514610708578063bff365c414610728578063c05c5e9414610756578063c415b95c14610776578063c5f956af1461079657600080fd5b80638129fc1c146105fd5780638da5cb5b1461061257806395fb16bb1461064f578063a3f4df7e1461066f578063ad3cb1cc146106b757600080fd5b8063504f1671116101dd578063741bef1a116101a1578063741bef1a14610521578063760827151461054157806377553ad41461057d5780637c933c0a1461059d5780637f7c1491146105bd5780637f7dde4a146105dd57600080fd5b8063504f16711461047057806352d1902d146104b757806355dafa46146104cc5780636a85d67d146104ec578063715018a61461050c57600080fd5b806339ed25cd1161022f57806339ed25cd146103935780633b725b23146103b35780633cc74225146103fd5780634169467d1461041d5780634bc66f321461043d5780634f1ef2861461045d57600080fd5b806301c931001461026c578063048c661d1461028e5780630a34d4d6146102cb5780630a4314c6146102eb5780631bdb4c8d1461035a575b600080fd5b34801561027857600080fd5b5061028c61028736600461245f565b610943565b005b34801561029a57600080fd5b50600d546102ae906001600160a01b031681565b6040516001600160a01b0390911681526020015b60405180910390f35b3480156102d757600080fd5b506011546102ae906001600160a01b031681565b3480156102f757600080fd5b5061033461030636600461245f565b6033602052600090815260409020805460018201546002909201546001600160a01b03918216929091169083565b604080516001600160a01b039485168152939092166020840152908201526060016102c2565b34801561036657600080fd5b506102ae61037536600461245f565b6001600160a01b039081166000908152603360205260409020541690565b34801561039f57600080fd5b506102ae6103ae36600461247a565b610994565b3480156103bf57600080fd5b506103ed6103ce36600461245f565b6001600160a01b03166000908152603360205260409020600201541590565b60405190151581526020016102c2565b34801561040957600080fd5b506006546102ae906001600160a01b031681565b34801561042957600080fd5b506008546102ae906001600160a01b031681565b34801561044957600080fd5b50600e546102ae906001600160a01b031681565b61028c61046b3660046124c3565b6109cb565b34801561047c57600080fd5b506104a961048b36600461245f565b6001600160a01b031660009081526033602052604090206002015490565b6040519081526020016102c2565b3480156104c357600080fd5b506104a96109ea565b3480156104d857600080fd5b50600a546102ae906001600160a01b031681565b3480156104f857600080fd5b5061028c61050736600461245f565b610a07565b34801561051857600080fd5b5061028c610a58565b34801561052d57600080fd5b50600b546102ae906001600160a01b031681565b34801561054d57600080fd5b506102ae61055c36600461245f565b6001600160a01b039081166000908152603360205260409020600101541690565b34801561058957600080fd5b506002546102ae906001600160a01b031681565b3480156105a957600080fd5b5061028c6105b8366004612585565b610a6c565b3480156105c957600080fd5b5061028c6105d836600461247a565b610ac4565b3480156105e957600080fd5b506000546102ae906001600160a01b031681565b34801561060957600080fd5b5061028c610af9565b34801561061e57600080fd5b507f9016d09d72d40fdae2fd8ceac6b6234c7706214fd39c1cd1e609a0528c199300546001600160a01b03166102ae565b34801561065b57600080fd5b506004546102ae906001600160a01b031681565b34801561067b57600080fd5b506106aa6040518060400160405280600f81526020016e536f727465645472656e426f78657360881b81525081565b6040516102c29190612607565b3480156106c357600080fd5b506106aa604051806040016040528060058152602001640352e302e360dc1b81525081565b3480156106f457600080fd5b5061028c61070336600461263a565b610c11565b34801561071457600080fd5b5061028c610723366004612585565b611192565b34801561073457600080fd5b506107486107433660046126af565b611228565b6040516102c29291906126fc565b34801561076257600080fd5b506001546102ae906001600160a01b031681565b34801561078257600080fd5b506007546102ae906001600160a01b031681565b3480156107a257600080fd5b50600f546102ae906001600160a01b031681565b3480156107c257600080fd5b506011546103ed90600160a01b900460ff1681565b3480156107e357600080fd5b50600c546102ae906001600160a01b031681565b34801561080357600080fd5b506003546102ae906001600160a01b031681565b34801561082357600080fd5b506102ae61083236600461247a565b6001600160a01b03918216600090815260336020908152604080832093851683526003909301905220600101541690565b34801561086f57600080fd5b506103ed61087e3660046126af565b611245565b34801561088f57600080fd5b506103ed61089e36600461247a565b61125e565b3480156108af57600080fd5b506010546102ae906001600160a01b031681565b3480156108cf57600080fd5b5061028c6108de36600461245f565b611290565b3480156108ef57600080fd5b506005546102ae906001600160a01b031681565b34801561090f57600080fd5b5061028c61091e36600461245f565b6112ce565b34801561092f57600080fd5b506009546102ae906001600160a01b031681565b61094b6112d7565b6001600160a01b038116610972576040516385d3330760e01b815260040160405180910390fd5b600a80546001600160a01b0319166001600160a01b0392909216919091179055565b6001600160a01b03808316600090815260336020908152604080832085851684526003019091529020546101009004165b92915050565b6109d3611332565b6109dc826113d7565b6109e682826113df565b5050565b60006109f46114a1565b5060008051602061279e83398151915290565b610a0f6112d7565b6001600160a01b038116610a365760405163706ebc6560e11b815260040160405180910390fd5b600480546001600160a01b0319166001600160a01b0392909216919091179055565b610a606112d7565b610a6a60006114ea565b565b6002546001600160a01b03163314801590610a9257506010546001600160a01b03163314155b15610ab057604051631028aee160e31b815260040160405180910390fd5b610abd858585858561155b565b5050505050565b6010546001600160a01b03163314610aef57604051631613adff60e21b815260040160405180910390fd5b6109e682826118b4565b7ff0c57e16840df040f15088dc2f81fe391c3923bec73e23a9662efc9c229c6a008054600160401b810460ff16159067ffffffffffffffff16600081158015610b3f5750825b905060008267ffffffffffffffff166001148015610b5c5750303b155b905081158015610b6a575080155b15610b885760405163f92ee8a960e01b815260040160405180910390fd5b845467ffffffffffffffff191660011785558315610bb257845460ff60401b1916600160401b1785555b33610bbc81611aff565b610bc4611b10565b508315610abd57845460ff60401b19168555604051600181527fc7f505b2f371ae2175ee4913f4499e1f2633a7b5936321eed1cdaeb6115181d29060200160405180910390a15050505050565b610c196112d7565b601154600160a01b900460ff1615610c4357604051625f22e960e41b815260040160405180910390fd5b60108114610c6457604051633f5a111d60e21b815260040160405180910390fd5b60005b6010811015610d07576000838383818110610c8457610c84612716565b9050602002016020810190610c99919061245f565b6001600160a01b031603610cff5780838383818110610cba57610cba612716565b9050602002016020810190610ccf919061245f565b604051630d9d339f60e01b815260048101929092526001600160a01b031660248201526044015b60405180910390fd5b600101610c67565b5081816000818110610d1b57610d1b612716565b9050602002016020810190610d30919061245f565b600080546001600160a01b0319166001600160a01b039290921691909117905581816001818110610d6357610d63612716565b9050602002016020810190610d78919061245f565b600180546001600160a01b0319166001600160a01b039290921691909117905581816002818110610dab57610dab612716565b9050602002016020810190610dc0919061245f565b600280546001600160a01b0319166001600160a01b039290921691909117905581816003818110610df357610df3612716565b9050602002016020810190610e08919061245f565b600380546001600160a01b0319166001600160a01b039290921691909117905581816004818110610e3b57610e3b612716565b9050602002016020810190610e50919061245f565b600580546001600160a01b0319166001600160a01b039290921691909117815582908290818110610e8357610e83612716565b9050602002016020810190610e98919061245f565b600680546001600160a01b0319166001600160a01b039290921691909117815582908290818110610ecb57610ecb612716565b9050602002016020810190610ee0919061245f565b600780546001600160a01b0319166001600160a01b039290921691909117815582908290818110610f1357610f13612716565b9050602002016020810190610f28919061245f565b600880546001600160a01b0319166001600160a01b039290921691909117815582908290818110610f5b57610f5b612716565b9050602002016020810190610f70919061245f565b600980546001600160a01b0319166001600160a01b039290921691909117815582908290818110610fa357610fa3612716565b9050602002016020810190610fb8919061245f565b600b80546001600160a01b0319166001600160a01b03929092169190911790558181600a818110610feb57610feb612716565b9050602002016020810190611000919061245f565b600c80546001600160a01b0319166001600160a01b03929092169190911790558181600b81811061103357611033612716565b9050602002016020810190611048919061245f565b600d80546001600160a01b0319166001600160a01b03929092169190911790558181600c81811061107b5761107b612716565b9050602002016020810190611090919061245f565b600e80546001600160a01b0319166001600160a01b03929092169190911790558181600d8181106110c3576110c3612716565b90506020020160208101906110d8919061245f565b600f80546001600160a01b0319166001600160a01b03929092169190911790558181600e81811061110b5761110b612716565b9050602002016020810190611120919061245f565b601080546001600160a01b0319166001600160a01b03929092169190911790558181600f81811061115357611153612716565b9050602002016020810190611168919061245f565b601180546001600160a81b0319166001600160a01b039290921691909117600160a01b1790555050565b6002546001600160a01b031633148015906111b857506010546001600160a01b03163314155b156111d657604051631028aee160e31b815260040160405180910390fd5b6111e0858561125e565b6111fd57604051634598fabb60e01b815260040160405180910390fd5b8260000361121e5760405163d58a878560e01b815260040160405180910390fd5b610ab085856118b4565b60008061123786868686611b18565b915091505b94509492505050565b600061125385858585611cef565b90505b949350505050565b6001600160a01b0391821660009081526033602090815260408083209390941682526003909201909152205460ff1690565b6112986112d7565b6001600160a01b0381166112c257604051631e4fbdf760e01b815260006004820152602401610cf6565b6112cb816114ea565b50565b6112cb816113d7565b336113097f9016d09d72d40fdae2fd8ceac6b6234c7706214fd39c1cd1e609a0528c199300546001600160a01b031690565b6001600160a01b031614610a6a5760405163118cdaa760e01b8152336004820152602401610cf6565b306001600160a01b037f00000000000000000000000000000000000000000000000000000000000000001614806113b957507f00000000000000000000000000000000000000000000000000000000000000006001600160a01b03166113ad60008051602061279e833981519152546001600160a01b031690565b6001600160a01b031614155b15610a6a5760405163703e46dd60e11b815260040160405180910390fd5b6112cb6112d7565b816001600160a01b03166352d1902d6040518163ffffffff1660e01b8152600401602060405180830381865afa925050508015611439575060408051601f3d908101601f191682019092526114369181019061272c565b60015b61146157604051634c9c8ce360e01b81526001600160a01b0383166004820152602401610cf6565b60008051602061279e833981519152811461149257604051632a87526960e21b815260048101829052602401610cf6565b61149c8383611f8b565b505050565b306001600160a01b037f00000000000000000000000000000000000000000000000000000000000000001614610a6a5760405163703e46dd60e11b815260040160405180910390fd5b7f9016d09d72d40fdae2fd8ceac6b6234c7706214fd39c1cd1e609a0528c19930080546001600160a01b031981166001600160a01b03848116918217845560405192169182907f8be0079c531659141344cd1fd0a4f28419497f9722a3daafe3b4186f6b6457e090600090a3505050565b836001600160a01b03811661158357604051632b1156d160e21b815260040160405180910390fd5b83806000036115a55760405163d58a878560e01b815260040160405180910390fd5b6001600160a01b038781166000908152603360209081526040808320938a1683526003840190915290205460ff16156115f157604051633f87282f60e01b815260040160405180910390fd5b84846115ff8a898484611cef565b6116155761160f8a898484611b18565b90925090505b6001600160a01b03808a1660009081526003850160205260409020805460ff1916600117815590831615801561165257506001600160a01b038216155b156116845783546001600160a01b038b166001600160a01b03199182168117865560018601805490921617905561184c565b6001600160a01b0383166116ec5783548154610100600160a81b0319166101006001600160a01b0392831602178255845481166000908152600386016020526040902060010180546001600160a01b0319908116928d1692831790915585541617845561184c565b6001600160a01b03821661175b576001848101805491830180546001600160a01b039384166001600160a01b03199182161790915581548316600090815260038801602052604090208054610100600160a81b031916610100948f16948502179055815416909117905561184c565b818160000160016101000a8154816001600160a01b0302191690836001600160a01b03160217905550828160010160006101000a8154816001600160a01b0302191690836001600160a01b0316021790555089846003016000856001600160a01b03166001600160a01b0316815260200190815260200160002060000160016101000a8154816001600160a01b0302191690836001600160a01b0316021790555089846003016000846001600160a01b03166001600160a01b0316815260200190815260200160002060010160006101000a8154816001600160a01b0302191690836001600160a01b031602179055505b600284015461185c90600161275b565b6002850155604080516001600160a01b038c81168252602082018c90528d16917fa74a9cd584cc27d44e7f746f6715fae75b600cc5eb8f85a95752788d6b4547a5910160405180910390a25050505050505050505050565b6001600160a01b03828116600090815260336020908152604080832093851683526003840190915290205460ff166118ff57604051634598fabb60e01b815260040160405180910390fd5b6001600160a01b03821660009081526003820160205260409020600282015460011015611a4e5781546001600160a01b039081169084160361197d57805482546101009091046001600160a01b03166001600160a01b0319918216811784556000908152600384016020526040902060010180549091169055611a6a565b60018201546001600160a01b03908116908416036119de5760018082015490830180546001600160a01b0319166001600160a01b039092169182179055600090815260038301602052604090208054610100600160a81b0319169055611a6a565b8054600180830180546001600160a01b03908116600090815260038701602052604080822080546101009788900485168802610100600160a81b03199091161790559254865495909504821681529190912090910180546001600160a01b03191692909116919091179055611a6a565b81546001600160a01b0319908116835560018301805490911690555b6001600160a01b0383166000908152600383016020526040902080546001600160a81b0319168155600190810180546001600160a01b03191690556002830154611ab4919061276e565b60028301556040516001600160a01b0384811682528516907f202321eaea3aa2b5e1e2ef1dfd98a9d6ba8c90e293f5dc2755b32eb921a477979060200160405180910390a250505050565b611b07611fe1565b6112cb8161202a565b610a6a611fe1565b60008083836001600160a01b03821615611bbd57611b36888361125e565b1580611bb357506010546040516390ec230160e01b81526001600160a01b03909116906390ec230190611b6f908b9086906004016126fc565b602060405180830381865afa158015611b8c573d6000803e3d6000fd5b505050506040513d601f19601f82011682018060405250810190611bb0919061272c565b87115b15611bbd57600091505b6001600160a01b03811615611c5c57611bd6888261125e565b1580611c5357506010546040516390ec230160e01b81526001600160a01b03909116906390ec230190611c0f908b9085906004016126fc565b602060405180830381865afa158015611c2c573d6000803e3d6000fd5b505050506040513d601f19601f82011682018060405250810190611c50919061272c565b87105b15611c5c575060005b6001600160a01b038216158015611c7a57506001600160a01b038116155b15611cb2576001600160a01b03808916600090815260336020526040902054611ca7918a918a9116612032565b93509350505061123c565b6001600160a01b038216611ccb57611ca788888361217c565b6001600160a01b038116611ce457611ca7888884612032565b611ca7888884612032565b60006001600160a01b038316158015611d0f57506001600160a01b038216155b15611d39576001600160a01b038516600090815260336020526040902060020154155b9050611256565b6001600160a01b038316611deb576001600160a01b038581166000908152603360205260409020548116908316148015611d3257506010546040516390ec230160e01b81526001600160a01b03909116906390ec230190611da090889086906004016126fc565b602060405180830381865afa158015611dbd573d6000803e3d6000fd5b505050506040513d601f19601f82011682018060405250810190611de1919061272c565b8410159050611256565b6001600160a01b038216611ea0576001600160a01b038581166000908152603360205260409020600101548116908416148015611d3257506010546040516390ec230160e01b81526001600160a01b03909116906390ec230190611e5590889087906004016126fc565b602060405180830381865afa158015611e72573d6000803e3d6000fd5b505050506040513d601f19601f82011682018060405250810190611e96919061272c565b8411159050611256565b6001600160a01b038581166000908152603360209081526040808320878516845260030190915290205461010090048116908316148015611f5257506010546040516390ec230160e01b815285916001600160a01b0316906390ec230190611f0e90899088906004016126fc565b602060405180830381865afa158015611f2b573d6000803e3d6000fd5b505050506040513d601f19601f82011682018060405250810190611f4f919061272c565b10155b8015611d3257506010546040516390ec230160e01b81526001600160a01b03909116906390ec230190611da090889086906004016126fc565b611f94826122c1565b6040516001600160a01b038316907fbc7cd75a20ee27fd9adebab32041f755214dbc6bffa90cc0225b39da2e5c2d3b90600090a2805115611fd95761149c8282612326565b6109e661239c565b7ff0c57e16840df040f15088dc2f81fe391c3923bec73e23a9662efc9c229c6a0054600160401b900460ff16610a6a57604051631afcd79f60e31b815260040160405180910390fd5b611298611fe1565b6001600160a01b03808416600090815260336020526040812080549192839281169085161480156120d557506010546040516390ec230160e01b81526001600160a01b03909116906390ec23019061209090899088906004016126fc565b602060405180830381865afa1580156120ad573d6000803e3d6000fd5b505050506040513d601f19601f820116820180604052508101906120d1919061272c565b8510155b156120e7576000849250925050612174565b6001600160a01b0380851660009081526003830160205260409020548591610100909104165b6001600160a01b0382161580159061212e575061212c88888484611cef565b155b1561216d57506001600160a01b03908116600090815260038301602052604080822054610100908190048416808452919092205490929190041661210d565b9093509150505b935093915050565b6001600160a01b038084166000908152603360205260408120600181015491928392811690851614801561222257506010546040516390ec230160e01b81526001600160a01b03909116906390ec2301906121dd90899088906004016126fc565b602060405180830381865afa1580156121fa573d6000803e3d6000fd5b505050506040513d601f19601f8201168201806040525081019061221e919061272c565b8511155b15612234578360009250925050612174565b6001600160a01b0380851660009081526003830160205260409020600101548591165b6001600160a01b03821615801590612278575061227688888385611cef565b155b156122b557506001600160a01b03908116600090815260038301602052604080822060019081015484168084529190922090910154909116612257565b97909650945050505050565b806001600160a01b03163b6000036122f757604051634c9c8ce360e01b81526001600160a01b0382166004820152602401610cf6565b60008051602061279e83398151915280546001600160a01b0319166001600160a01b0392909216919091179055565b6060600080846001600160a01b0316846040516123439190612781565b600060405180830381855af49150503d806000811461237e576040519150601f19603f3d011682016040523d82523d6000602084013e612383565b606091505b50915091506123938583836123bb565b95945050505050565b3415610a6a5760405163b398979f60e01b815260040160405180910390fd5b6060826123d0576123cb8261241a565b612413565b81511580156123e757506001600160a01b0384163b155b1561241057604051639996b31560e01b81526001600160a01b0385166004820152602401610cf6565b50805b9392505050565b80511561242a5780518082602001fd5b604051630a12f52160e11b815260040160405180910390fd5b80356001600160a01b038116811461245a57600080fd5b919050565b60006020828403121561247157600080fd5b61241382612443565b6000806040838503121561248d57600080fd5b61249683612443565b91506124a460208401612443565b90509250929050565b634e487b7160e01b600052604160045260246000fd5b600080604083850312156124d657600080fd5b6124df83612443565b9150602083013567ffffffffffffffff808211156124fc57600080fd5b818501915085601f83011261251057600080fd5b813581811115612522576125226124ad565b604051601f8201601f19908116603f0116810190838211818310171561254a5761254a6124ad565b8160405282815288602084870101111561256357600080fd5b8260208601602083013760006020848301015280955050505050509250929050565b600080600080600060a0868803121561259d57600080fd5b6125a686612443565b94506125b460208701612443565b9350604086013592506125c960608701612443565b91506125d760808701612443565b90509295509295909350565b60005b838110156125fe5781810151838201526020016125e6565b50506000910152565b60208152600082518060208401526126268160408501602087016125e3565b601f01601f19169190910160400192915050565b6000806020838503121561264d57600080fd5b823567ffffffffffffffff8082111561266557600080fd5b818501915085601f83011261267957600080fd5b81358181111561268857600080fd5b8660208260051b850101111561269d57600080fd5b60209290920196919550909350505050565b600080600080608085870312156126c557600080fd5b6126ce85612443565b9350602085013592506126e360408601612443565b91506126f160608601612443565b905092959194509250565b6001600160a01b0392831681529116602082015260400190565b634e487b7160e01b600052603260045260246000fd5b60006020828403121561273e57600080fd5b5051919050565b634e487b7160e01b600052601160045260246000fd5b808201808211156109c5576109c5612745565b818103818111156109c5576109c5612745565b600082516127938184602087016125e3565b919091019291505056fe360894a13ba1a3210667c828492db98dca3e2076cc3735a920a3ca505d382bbca164736f6c6343000817000a",
  "devdoc": {
    "errors": {
      "AddressEmptyCode(address)": [
        {
          "details": "There's no code at `target` (it is not a contract)."
        }
      ],
      "ERC1967InvalidImplementation(address)": [
        {
          "details": "The `implementation` of the proxy is invalid."
        }
      ],
      "ERC1967NonPayable()": [
        {
          "details": "An upgrade function sees `msg.value > 0` that may be lost."
        }
      ],
      "FailedInnerCall()": [
        {
          "details": "A call to an address target failed. The target may have reverted."
        }
      ],
      "InvalidInitialization()": [
        {
          "details": "The contract is already initialized."
        }
      ],
      "NotInitializing()": [
        {
          "details": "The contract is not initializing."
        }
      ],
      "OwnableInvalidOwner(address)": [
        {
          "details": "The owner is not a valid owner account. (eg. `address(0)`)"
        }
      ],
      "OwnableUnauthorizedAccount(address)": [
        {
          "details": "The caller account is not authorized to perform an operation."
        }
      ],
      "UUPSUnauthorizedCallContext()": [
        {
          "details": "The call is from an unauthorized context."
        }
      ],
      "UUPSUnsupportedProxiableUUID(bytes32)": [
        {
          "details": "The storage `slot` is unsupported as a UUID."
        }
      ]
    },
    "events": {
      "Initialized(uint64)": {
        "details": "Triggered when the contract has been initialized or reinitialized."
      },
      "Upgraded(address)": {
        "details": "Emitted when the implementation is upgraded."
      }
    },
    "kind": "dev",
    "methods": {
      "owner()": {
        "details": "Returns the address of the current owner."
      },
      "proxiableUUID()": {
        "details": "Implementation of the ERC1822 {proxiableUUID} function. This returns the storage slot used by the implementation. It is used to validate the implementation's compatibility when performing an upgrade. IMPORTANT: A proxy pointing at a proxiable contract should not be considered proxiable itself, because this risks bricking a proxy that upgrades to it, by delegating to itself until out of gas. Thus it is critical that this function revert if invoked through a proxy. This is guaranteed by the `notDelegated` modifier."
      },
      "renounceOwnership()": {
        "details": "Leaves the contract without owner. It will not be possible to call `onlyOwner` functions. Can only be called by the current owner. NOTE: Renouncing ownership will leave the contract without an owner, thereby disabling any functionality that is only available to the owner."
      },
      "transferOwnership(address)": {
        "details": "Transfers ownership of the contract to a new account (`newOwner`). Can only be called by the current owner."
      },
      "upgradeToAndCall(address,bytes)": {
        "custom:oz-upgrades-unsafe-allow-reachable": "delegatecall",
        "details": "Upgrade the implementation of the proxy to `newImplementation`, and subsequently execute the function call encoded in `data`. Calls {_authorizeUpgrade}. Emits an {Upgraded} event."
      }
    },
    "version": 1
  },
  "userdoc": {
    "kind": "user",
    "methods": {},
    "version": 1
  },
  "storageLayout": {
    "storage": [
      {
        "astId": 10031,
        "contract": "contracts/SortedTrenBoxes.sol:SortedTrenBoxes",
        "label": "activePool",
        "offset": 0,
        "slot": "0",
        "type": "t_address"
      },
      {
        "astId": 10033,
        "contract": "contracts/SortedTrenBoxes.sol:SortedTrenBoxes",
        "label": "adminContract",
        "offset": 0,
        "slot": "1",
        "type": "t_address"
      },
      {
        "astId": 10035,
        "contract": "contracts/SortedTrenBoxes.sol:SortedTrenBoxes",
        "label": "borrowerOperations",
        "offset": 0,
        "slot": "2",
        "type": "t_address"
      },
      {
        "astId": 10037,
        "contract": "contracts/SortedTrenBoxes.sol:SortedTrenBoxes",
        "label": "collSurplusPool",
        "offset": 0,
        "slot": "3",
        "type": "t_address"
      },
      {
        "astId": 10039,
        "contract": "contracts/SortedTrenBoxes.sol:SortedTrenBoxes",
        "label": "communityIssuance",
        "offset": 0,
        "slot": "4",
        "type": "t_address"
      },
      {
        "astId": 10041,
        "contract": "contracts/SortedTrenBoxes.sol:SortedTrenBoxes",
        "label": "debtToken",
        "offset": 0,
        "slot": "5",
        "type": "t_address"
      },
      {
        "astId": 10043,
        "contract": "contracts/SortedTrenBoxes.sol:SortedTrenBoxes",
        "label": "defaultPool",
        "offset": 0,
        "slot": "6",
        "type": "t_address"
      },
      {
        "astId": 10045,
        "contract": "contracts/SortedTrenBoxes.sol:SortedTrenBoxes",
        "label": "feeCollector",
        "offset": 0,
        "slot": "7",
        "type": "t_address"
      },
      {
        "astId": 10047,
        "contract": "contracts/SortedTrenBoxes.sol:SortedTrenBoxes",
        "label": "flashLoanAddress",
        "offset": 0,
        "slot": "8",
        "type": "t_address"
      },
      {
        "astId": 10049,
        "contract": "contracts/SortedTrenBoxes.sol:SortedTrenBoxes",
        "label": "gasPoolAddress",
        "offset": 0,
        "slot": "9",
        "type": "t_address"
      },
      {
        "astId": 10051,
        "contract": "contracts/SortedTrenBoxes.sol:SortedTrenBoxes",
        "label": "trenStaking",
        "offset": 0,
        "slot": "10",
        "type": "t_address"
      },
      {
        "astId": 10053,
        "contract": "contracts/SortedTrenBoxes.sol:SortedTrenBoxes",
        "label": "priceFeed",
        "offset": 0,
        "slot": "11",
        "type": "t_address"
      },
      {
        "astId": 10055,
        "contract": "contracts/SortedTrenBoxes.sol:SortedTrenBoxes",
        "label": "sortedTrenBoxes",
        "offset": 0,
        "slot": "12",
        "type": "t_address"
      },
      {
        "astId": 10057,
        "contract": "contracts/SortedTrenBoxes.sol:SortedTrenBoxes",
        "label": "stabilityPool",
        "offset": 0,
        "slot": "13",
        "type": "t_address"
      },
      {
        "astId": 10059,
        "contract": "contracts/SortedTrenBoxes.sol:SortedTrenBoxes",
        "label": "timelockAddress",
        "offset": 0,
        "slot": "14",
        "type": "t_address"
      },
      {
        "astId": 10061,
        "contract": "contracts/SortedTrenBoxes.sol:SortedTrenBoxes",
        "label": "treasuryAddress",
        "offset": 0,
        "slot": "15",
        "type": "t_address"
      },
      {
        "astId": 10063,
        "contract": "contracts/SortedTrenBoxes.sol:SortedTrenBoxes",
        "label": "trenBoxManager",
        "offset": 0,
        "slot": "16",
        "type": "t_address"
      },
      {
        "astId": 10065,
        "contract": "contracts/SortedTrenBoxes.sol:SortedTrenBoxes",
        "label": "trenBoxManagerOperations",
        "offset": 0,
        "slot": "17",
        "type": "t_address"
      },
      {
        "astId": 10067,
        "contract": "contracts/SortedTrenBoxes.sol:SortedTrenBoxes",
        "label": "isAddressSetupInitialized",
        "offset": 20,
        "slot": "17",
        "type": "t_bool"
      },
      {
        "astId": 10072,
        "contract": "contracts/SortedTrenBoxes.sol:SortedTrenBoxes",
        "label": "__gap",
        "offset": 0,
        "slot": "18",
        "type": "t_array(t_uint256)33_storage"
      },
      {
        "astId": 16178,
        "contract": "contracts/SortedTrenBoxes.sol:SortedTrenBoxes",
        "label": "trenBoxes",
        "offset": 0,
        "slot": "51",
        "type": "t_mapping(t_address,t_struct(TrenBoxesList)16173_storage)"
      }
    ],
    "types": {
      "t_address": {
        "encoding": "inplace",
        "label": "address",
        "numberOfBytes": "20"
      },
      "t_array(t_uint256)33_storage": {
        "base": "t_uint256",
        "encoding": "inplace",
        "label": "uint256[33]",
        "numberOfBytes": "1056"
      },
      "t_bool": {
        "encoding": "inplace",
        "label": "bool",
        "numberOfBytes": "1"
      },
      "t_mapping(t_address,t_struct(Node)16161_storage)": {
        "encoding": "mapping",
        "key": "t_address",
        "label": "mapping(address => struct SortedTrenBoxes.Node)",
        "numberOfBytes": "32",
        "value": "t_struct(Node)16161_storage"
      },
      "t_mapping(t_address,t_struct(TrenBoxesList)16173_storage)": {
        "encoding": "mapping",
        "key": "t_address",
        "label": "mapping(address => struct SortedTrenBoxes.TrenBoxesList)",
        "numberOfBytes": "32",
        "value": "t_struct(TrenBoxesList)16173_storage"
      },
      "t_struct(Node)16161_storage": {
        "encoding": "inplace",
        "label": "struct SortedTrenBoxes.Node",
        "members": [
          {
            "astId": 16156,
            "contract": "contracts/SortedTrenBoxes.sol:SortedTrenBoxes",
            "label": "exists",
            "offset": 0,
            "slot": "0",
            "type": "t_bool"
          },
          {
            "astId": 16158,
            "contract": "contracts/SortedTrenBoxes.sol:SortedTrenBoxes",
            "label": "nextId",
            "offset": 1,
            "slot": "0",
            "type": "t_address"
          },
          {
            "astId": 16160,
            "contract": "contracts/SortedTrenBoxes.sol:SortedTrenBoxes",
            "label": "prevId",
            "offset": 0,
            "slot": "1",
            "type": "t_address"
          }
        ],
        "numberOfBytes": "64"
      },
      "t_struct(TrenBoxesList)16173_storage": {
        "encoding": "inplace",
        "label": "struct SortedTrenBoxes.TrenBoxesList",
        "members": [
          {
            "astId": 16163,
            "contract": "contracts/SortedTrenBoxes.sol:SortedTrenBoxes",
            "label": "head",
            "offset": 0,
            "slot": "0",
            "type": "t_address"
          },
          {
            "astId": 16165,
            "contract": "contracts/SortedTrenBoxes.sol:SortedTrenBoxes",
            "label": "tail",
            "offset": 0,
            "slot": "1",
            "type": "t_address"
          },
          {
            "astId": 16167,
            "contract": "contracts/SortedTrenBoxes.sol:SortedTrenBoxes",
            "label": "size",
            "offset": 0,
            "slot": "2",
            "type": "t_uint256"
          },
          {
            "astId": 16172,
            "contract": "contracts/SortedTrenBoxes.sol:SortedTrenBoxes",
            "label": "nodes",
            "offset": 0,
            "slot": "3",
            "type": "t_mapping(t_address,t_struct(Node)16161_storage)"
          }
        ],
        "numberOfBytes": "128"
      },
      "t_uint256": {
        "encoding": "inplace",
        "label": "uint256",
        "numberOfBytes": "32"
      }
    }
  }
}