{
  "address": "0x6557630204c61E37558fB7008366D8f903e632ce",
  "abi": [
    {
      "inputs": [
        {
          "internalType": "address",
          "name": "target",
          "type": "address"
        }
      ],
      "name": "AddressEmptyCode",
      "type": "error"
    },
    {
      "inputs": [],
      "name": "AdminContract__CollateralDoesNotExist",
      "type": "error"
    },
    {
      "inputs": [],
      "name": "AdminContract__CollateralExists",
      "type": "error"
    },
    {
      "inputs": [],
      "name": "AdminContract__CollateralNotConfigured",
      "type": "error"
    },
    {
      "inputs": [],
      "name": "AdminContract__OnlyOwner",
      "type": "error"
    },
    {
      "inputs": [],
      "name": "AdminContract__OnlyTimelock",
      "type": "error"
    },
    {
      "inputs": [],
      "name": "ConfigurableAddresses__CommunityIssuanceZeroAddress",
      "type": "error"
    },
    {
      "inputs": [],
      "name": "ConfigurableAddresses__LengthMismatch",
      "type": "error"
    },
    {
      "inputs": [],
      "name": "ConfigurableAddresses__SetupIsInitialized",
      "type": "error"
    },
    {
      "inputs": [],
      "name": "ConfigurableAddresses__TRENStakingZeroAddress",
      "type": "error"
    },
    {
      "inputs": [
        {
          "internalType": "uint256",
          "name": "position",
          "type": "uint256"
        },
        {
          "internalType": "address",
          "name": "address_",
          "type": "address"
        }
      ],
      "name": "ConfigurableAddresses__ZeroAddresses",
      "type": "error"
    },
    {
      "inputs": [
        {
          "internalType": "address",
          "name": "implementation",
          "type": "address"
        }
      ],
      "name": "ERC1967InvalidImplementation",
      "type": "error"
    },
    {
      "inputs": [],
      "name": "ERC1967NonPayable",
      "type": "error"
    },
    {
      "inputs": [],
      "name": "FailedInnerCall",
      "type": "error"
    },
    {
      "inputs": [],
      "name": "InvalidInitialization",
      "type": "error"
    },
    {
      "inputs": [],
      "name": "NotInitializing",
      "type": "error"
    },
    {
      "inputs": [
        {
          "internalType": "address",
          "name": "owner",
          "type": "address"
        }
      ],
      "name": "OwnableInvalidOwner",
      "type": "error"
    },
    {
      "inputs": [
        {
          "internalType": "address",
          "name": "account",
          "type": "address"
        }
      ],
      "name": "OwnableUnauthorizedAccount",
      "type": "error"
    },
    {
      "inputs": [
        {
          "internalType": "string",
          "name": "_parameter",
          "type": "string"
        },
        {
          "internalType": "uint256",
          "name": "_valueEntered",
          "type": "uint256"
        },
        {
          "internalType": "uint256",
          "name": "_minValue",
          "type": "uint256"
        },
        {
          "internalType": "uint256",
          "name": "_maxValue",
          "type": "uint256"
        }
      ],
      "name": "SafeCheckError",
      "type": "error"
    },
    {
      "inputs": [],
      "name": "UUPSUnauthorizedCallContext",
      "type": "error"
    },
    {
      "inputs": [
        {
          "internalType": "bytes32",
          "name": "slot",
          "type": "bytes32"
        }
      ],
      "name": "UUPSUnsupportedProxiableUUID",
      "type": "error"
    },
    {
      "anonymous": false,
      "inputs": [
        {
          "indexed": false,
          "internalType": "uint256",
          "name": "_oldBorrowingFee",
          "type": "uint256"
        },
        {
          "indexed": false,
          "internalType": "uint256",
          "name": "_newBorrowingFee",
          "type": "uint256"
        }
      ],
      "name": "BorrowingFeeChanged",
      "type": "event"
    },
    {
      "anonymous": false,
      "inputs": [
        {
          "indexed": false,
          "internalType": "uint256",
          "name": "_oldCCR",
          "type": "uint256"
        },
        {
          "indexed": false,
          "internalType": "uint256",
          "name": "_newCCR",
          "type": "uint256"
        }
      ],
      "name": "CCRChanged",
      "type": "event"
    },
    {
      "anonymous": false,
      "inputs": [
        {
          "indexed": false,
          "internalType": "address",
          "name": "_collateral",
          "type": "address"
        }
      ],
      "name": "CollateralAdded",
      "type": "event"
    },
    {
      "anonymous": false,
      "inputs": [
        {
          "indexed": false,
          "internalType": "uint256",
          "name": "_oldFee",
          "type": "uint256"
        },
        {
          "indexed": false,
          "internalType": "uint256",
          "name": "_newFee",
          "type": "uint256"
        }
      ],
      "name": "FlashLoanFeeChanged",
      "type": "event"
    },
    {
      "anonymous": false,
      "inputs": [
        {
          "indexed": false,
          "internalType": "uint256",
          "name": "_oldMaxDebt",
          "type": "uint256"
        },
        {
          "indexed": false,
          "internalType": "uint256",
          "name": "_newMaxDebt",
          "type": "uint256"
        }
      ],
      "name": "FlashLoanMaxDebtChanged",
      "type": "event"
    },
    {
      "anonymous": false,
      "inputs": [
        {
          "indexed": false,
          "internalType": "uint256",
          "name": "_oldMinDebt",
          "type": "uint256"
        },
        {
          "indexed": false,
          "internalType": "uint256",
          "name": "_newMinDebt",
          "type": "uint256"
        }
      ],
      "name": "FlashLoanMinDebtChanged",
      "type": "event"
    },
    {
      "anonymous": false,
      "inputs": [
        {
          "indexed": false,
          "internalType": "uint64",
          "name": "version",
          "type": "uint64"
        }
      ],
      "name": "Initialized",
      "type": "event"
    },
    {
      "anonymous": false,
      "inputs": [
        {
          "indexed": false,
          "internalType": "uint256",
          "name": "_oldMCR",
          "type": "uint256"
        },
        {
          "indexed": false,
          "internalType": "uint256",
          "name": "_newMCR",
          "type": "uint256"
        }
      ],
      "name": "MCRChanged",
      "type": "event"
    },
    {
      "anonymous": false,
      "inputs": [
        {
          "indexed": false,
          "internalType": "uint256",
          "name": "_oldMinNet",
          "type": "uint256"
        },
        {
          "indexed": false,
          "internalType": "uint256",
          "name": "_newMinNet",
          "type": "uint256"
        }
      ],
      "name": "MinNetDebtChanged",
      "type": "event"
    },
    {
      "anonymous": false,
      "inputs": [
        {
          "indexed": false,
          "internalType": "uint256",
          "name": "_oldMintCap",
          "type": "uint256"
        },
        {
          "indexed": false,
          "internalType": "uint256",
          "name": "_newMintCap",
          "type": "uint256"
        }
      ],
      "name": "MintCapChanged",
      "type": "event"
    },
    {
      "anonymous": false,
      "inputs": [
        {
          "indexed": true,
          "internalType": "address",
          "name": "previousOwner",
          "type": "address"
        },
        {
          "indexed": true,
          "internalType": "address",
          "name": "newOwner",
          "type": "address"
        }
      ],
      "name": "OwnershipTransferred",
      "type": "event"
    },
    {
      "anonymous": false,
      "inputs": [
        {
          "indexed": false,
          "internalType": "uint256",
          "name": "_oldPercentDiv",
          "type": "uint256"
        },
        {
          "indexed": false,
          "internalType": "uint256",
          "name": "_newPercentDiv",
          "type": "uint256"
        }
      ],
      "name": "PercentDivisorChanged",
      "type": "event"
    },
    {
      "anonymous": false,
      "inputs": [
        {
          "indexed": false,
          "internalType": "address",
          "name": "_collateral",
          "type": "address"
        },
        {
          "indexed": false,
          "internalType": "uint256",
          "name": "_blockTimestamp",
          "type": "uint256"
        }
      ],
      "name": "RedemptionBlockTimestampChanged",
      "type": "event"
    },
    {
      "anonymous": false,
      "inputs": [
        {
          "indexed": false,
          "internalType": "uint256",
          "name": "_oldRedemptionFeeFloor",
          "type": "uint256"
        },
        {
          "indexed": false,
          "internalType": "uint256",
          "name": "_newRedemptionFeeFloor",
          "type": "uint256"
        }
      ],
      "name": "RedemptionFeeFloorChanged",
      "type": "event"
    },
    {
      "anonymous": false,
      "inputs": [
        {
          "indexed": true,
          "internalType": "address",
          "name": "implementation",
          "type": "address"
        }
      ],
      "name": "Upgraded",
      "type": "event"
    },
    {
      "inputs": [],
      "name": "BORROWING_FEE_DEFAULT",
      "outputs": [
        {
          "internalType": "uint256",
          "name": "",
          "type": "uint256"
        }
      ],
      "stateMutability": "view",
      "type": "function"
    },
    {
      "inputs": [],
      "name": "CCR_DEFAULT",
      "outputs": [
        {
          "internalType": "uint256",
          "name": "",
          "type": "uint256"
        }
      ],
      "stateMutability": "view",
      "type": "function"
    },
    {
      "inputs": [],
      "name": "DECIMAL_PRECISION",
      "outputs": [
        {
          "internalType": "uint256",
          "name": "",
          "type": "uint256"
        }
      ],
      "stateMutability": "pure",
      "type": "function"
    },
    {
      "inputs": [],
      "name": "MCR_DEFAULT",
      "outputs": [
        {
          "internalType": "uint256",
          "name": "",
          "type": "uint256"
        }
      ],
      "stateMutability": "view",
      "type": "function"
    },
    {
      "inputs": [],
      "name": "MINT_CAP_DEFAULT",
      "outputs": [
        {
          "internalType": "uint256",
          "name": "",
          "type": "uint256"
        }
      ],
      "stateMutability": "view",
      "type": "function"
    },
    {
      "inputs": [],
      "name": "MIN_NET_DEBT_DEFAULT",
      "outputs": [
        {
          "internalType": "uint256",
          "name": "",
          "type": "uint256"
        }
      ],
      "stateMutability": "view",
      "type": "function"
    },
    {
      "inputs": [],
      "name": "NAME",
      "outputs": [
        {
          "internalType": "string",
          "name": "",
          "type": "string"
        }
      ],
      "stateMutability": "view",
      "type": "function"
    },
    {
      "inputs": [],
      "name": "PERCENT_DIVISOR_DEFAULT",
      "outputs": [
        {
          "internalType": "uint256",
          "name": "",
          "type": "uint256"
        }
      ],
      "stateMutability": "view",
      "type": "function"
    },
    {
      "inputs": [],
      "name": "REDEMPTION_BLOCK_TIMESTAMP_DEFAULT",
      "outputs": [
        {
          "internalType": "uint256",
          "name": "",
          "type": "uint256"
        }
      ],
      "stateMutability": "view",
      "type": "function"
    },
    {
      "inputs": [],
      "name": "REDEMPTION_FEE_FLOOR_DEFAULT",
      "outputs": [
        {
          "internalType": "uint256",
          "name": "",
          "type": "uint256"
        }
      ],
      "stateMutability": "view",
      "type": "function"
    },
    {
      "inputs": [],
      "name": "UPGRADE_INTERFACE_VERSION",
      "outputs": [
        {
          "internalType": "string",
          "name": "",
          "type": "string"
        }
      ],
      "stateMutability": "view",
      "type": "function"
    },
    {
      "inputs": [],
      "name": "_100pct",
      "outputs": [
        {
          "internalType": "uint256",
          "name": "",
          "type": "uint256"
        }
      ],
      "stateMutability": "view",
      "type": "function"
    },
    {
      "inputs": [
        {
          "internalType": "address",
          "name": "_collateral",
          "type": "address"
        },
        {
          "internalType": "uint256",
          "name": "_debtTokenGasCompensation",
          "type": "uint256"
        }
      ],
      "name": "addNewCollateral",
      "outputs": [],
      "stateMutability": "nonpayable",
      "type": "function"
    },
    {
      "inputs": [],
      "name": "adminContract",
      "outputs": [
        {
          "internalType": "address",
          "name": "",
          "type": "address"
        }
      ],
      "stateMutability": "view",
      "type": "function"
    },
    {
      "inputs": [
        {
          "internalType": "address",
          "name": "newImplementation",
          "type": "address"
        }
      ],
      "name": "authorizeUpgrade",
      "outputs": [],
      "stateMutability": "nonpayable",
      "type": "function"
    },
    {
      "inputs": [],
      "name": "borrowerOperations",
      "outputs": [
        {
          "internalType": "address",
          "name": "",
          "type": "address"
        }
      ],
      "stateMutability": "view",
      "type": "function"
    },
    {
      "inputs": [],
      "name": "communityIssuance",
      "outputs": [
        {
          "internalType": "address",
          "name": "",
          "type": "address"
        }
      ],
      "stateMutability": "view",
      "type": "function"
    },
    {
      "inputs": [],
      "name": "debtToken",
      "outputs": [
        {
          "internalType": "address",
          "name": "",
          "type": "address"
        }
      ],
      "stateMutability": "view",
      "type": "function"
    },
    {
      "inputs": [],
      "name": "feeCollector",
      "outputs": [
        {
          "internalType": "address",
          "name": "",
          "type": "address"
        }
      ],
      "stateMutability": "view",
      "type": "function"
    },
    {
      "inputs": [],
      "name": "flashLoanAddress",
      "outputs": [
        {
          "internalType": "address",
          "name": "",
          "type": "address"
        }
      ],
      "stateMutability": "view",
      "type": "function"
    },
    {
      "inputs": [],
      "name": "flashLoanParams",
      "outputs": [
        {
          "internalType": "uint256",
          "name": "flashLoanFee",
          "type": "uint256"
        },
        {
          "internalType": "uint256",
          "name": "flashLoanMinDebt",
          "type": "uint256"
        },
        {
          "internalType": "uint256",
          "name": "flashLoanMaxDebt",
          "type": "uint256"
        }
      ],
      "stateMutability": "view",
      "type": "function"
    },
    {
      "inputs": [
        {
          "internalType": "address",
          "name": "_collateral",
          "type": "address"
        }
      ],
      "name": "getBorrowingFee",
      "outputs": [
        {
          "internalType": "uint256",
          "name": "",
          "type": "uint256"
        }
      ],
      "stateMutability": "view",
      "type": "function"
    },
    {
      "inputs": [
        {
          "internalType": "address",
          "name": "_collateral",
          "type": "address"
        }
      ],
      "name": "getCcr",
      "outputs": [
        {
          "internalType": "uint256",
          "name": "",
          "type": "uint256"
        }
      ],
      "stateMutability": "view",
      "type": "function"
    },
    {
      "inputs": [
        {
          "internalType": "address",
          "name": "_collateral",
          "type": "address"
        }
      ],
      "name": "getDebtTokenGasCompensation",
      "outputs": [
        {
          "internalType": "uint256",
          "name": "",
          "type": "uint256"
        }
      ],
      "stateMutability": "view",
      "type": "function"
    },
    {
      "inputs": [],
      "name": "getFlashLoanFee",
      "outputs": [
        {
          "internalType": "uint256",
          "name": "",
          "type": "uint256"
        }
      ],
      "stateMutability": "view",
      "type": "function"
    },
    {
      "inputs": [],
      "name": "getFlashLoanMaxNetDebt",
      "outputs": [
        {
          "internalType": "uint256",
          "name": "",
          "type": "uint256"
        }
      ],
      "stateMutability": "view",
      "type": "function"
    },
    {
      "inputs": [],
      "name": "getFlashLoanMinNetDebt",
      "outputs": [
        {
          "internalType": "uint256",
          "name": "",
          "type": "uint256"
        }
      ],
      "stateMutability": "view",
      "type": "function"
    },
    {
      "inputs": [
        {
          "internalType": "address",
          "name": "_collateral",
          "type": "address"
        }
      ],
      "name": "getIndex",
      "outputs": [
        {
          "internalType": "uint256",
          "name": "",
          "type": "uint256"
        }
      ],
      "stateMutability": "view",
      "type": "function"
    },
    {
      "inputs": [
        {
          "internalType": "address[]",
          "name": "_colls",
          "type": "address[]"
        }
      ],
      "name": "getIndices",
      "outputs": [
        {
          "internalType": "uint256[]",
          "name": "indices",
          "type": "uint256[]"
        }
      ],
      "stateMutability": "view",
      "type": "function"
    },
    {
      "inputs": [
        {
          "internalType": "address",
          "name": "_collateral",
          "type": "address"
        }
      ],
      "name": "getIsActive",
      "outputs": [
        {
          "internalType": "bool",
          "name": "",
          "type": "bool"
        }
      ],
      "stateMutability": "view",
      "type": "function"
    },
    {
      "inputs": [
        {
          "internalType": "address",
          "name": "_collateral",
          "type": "address"
        }
      ],
      "name": "getMcr",
      "outputs": [
        {
          "internalType": "uint256",
          "name": "",
          "type": "uint256"
        }
      ],
      "stateMutability": "view",
      "type": "function"
    },
    {
      "inputs": [
        {
          "internalType": "address",
          "name": "_collateral",
          "type": "address"
        }
      ],
      "name": "getMinNetDebt",
      "outputs": [
        {
          "internalType": "uint256",
          "name": "",
          "type": "uint256"
        }
      ],
      "stateMutability": "view",
      "type": "function"
    },
    {
      "inputs": [
        {
          "internalType": "address",
          "name": "_collateral",
          "type": "address"
        }
      ],
      "name": "getMintCap",
      "outputs": [
        {
          "internalType": "uint256",
          "name": "",
          "type": "uint256"
        }
      ],
      "stateMutability": "view",
      "type": "function"
    },
    {
      "inputs": [
        {
          "internalType": "address",
          "name": "_collateral",
          "type": "address"
        }
      ],
      "name": "getPercentDivisor",
      "outputs": [
        {
          "internalType": "uint256",
          "name": "",
          "type": "uint256"
        }
      ],
      "stateMutability": "view",
      "type": "function"
    },
    {
      "inputs": [
        {
          "internalType": "address",
          "name": "_collateral",
          "type": "address"
        }
      ],
      "name": "getRedemptionBlockTimestamp",
      "outputs": [
        {
          "internalType": "uint256",
          "name": "",
          "type": "uint256"
        }
      ],
      "stateMutability": "view",
      "type": "function"
    },
    {
      "inputs": [
        {
          "internalType": "address",
          "name": "_collateral",
          "type": "address"
        }
      ],
      "name": "getRedemptionFeeFloor",
      "outputs": [
        {
          "internalType": "uint256",
          "name": "",
          "type": "uint256"
        }
      ],
      "stateMutability": "view",
      "type": "function"
    },
    {
      "inputs": [],
      "name": "getRouteToTRENStaking",
      "outputs": [
        {
          "internalType": "bool",
          "name": "",
          "type": "bool"
        }
      ],
      "stateMutability": "view",
      "type": "function"
    },
    {
      "inputs": [
        {
          "internalType": "address",
          "name": "_asset",
          "type": "address"
        }
      ],
      "name": "getTotalAssetDebt",
      "outputs": [
        {
          "internalType": "uint256",
          "name": "",
          "type": "uint256"
        }
      ],
      "stateMutability": "view",
      "type": "function"
    },
    {
      "inputs": [],
      "name": "getValidCollateral",
      "outputs": [
        {
          "internalType": "address[]",
          "name": "",
          "type": "address[]"
        }
      ],
      "stateMutability": "view",
      "type": "function"
    },
    {
      "inputs": [
        {
          "internalType": "address",
          "name": "initialOwner",
          "type": "address"
        }
      ],
      "name": "initialize",
      "outputs": [],
      "stateMutability": "nonpayable",
      "type": "function"
    },
    {
      "inputs": [],
      "name": "isAddressSetupInitialized",
      "outputs": [
        {
          "internalType": "bool",
          "name": "",
          "type": "bool"
        }
      ],
      "stateMutability": "view",
      "type": "function"
    },
    {
      "inputs": [],
      "name": "isSetupInitialized",
      "outputs": [
        {
          "internalType": "bool",
          "name": "",
          "type": "bool"
        }
      ],
      "stateMutability": "view",
      "type": "function"
    },
    {
      "inputs": [],
      "name": "owner",
      "outputs": [
        {
          "internalType": "address",
          "name": "",
          "type": "address"
        }
      ],
      "stateMutability": "view",
      "type": "function"
    },
    {
      "inputs": [],
      "name": "priceFeed",
      "outputs": [
        {
          "internalType": "address",
          "name": "",
          "type": "address"
        }
      ],
      "stateMutability": "view",
      "type": "function"
    },
    {
      "inputs": [],
      "name": "proxiableUUID",
      "outputs": [
        {
          "internalType": "bytes32",
          "name": "",
          "type": "bytes32"
        }
      ],
      "stateMutability": "view",
      "type": "function"
    },
    {
      "inputs": [],
      "name": "renounceOwnership",
      "outputs": [],
      "stateMutability": "nonpayable",
      "type": "function"
    },
    {
      "inputs": [],
      "name": "routeToTRENStaking",
      "outputs": [
        {
          "internalType": "bool",
          "name": "",
          "type": "bool"
        }
      ],
      "stateMutability": "view",
      "type": "function"
    },
    {
      "inputs": [
        {
          "internalType": "address[]",
          "name": "_addresses",
          "type": "address[]"
        }
      ],
      "name": "setAddresses",
      "outputs": [],
      "stateMutability": "nonpayable",
      "type": "function"
    },
    {
      "inputs": [
        {
          "internalType": "address",
          "name": "_collateral",
          "type": "address"
        },
        {
          "internalType": "uint256",
          "name": "_borrowingFee",
          "type": "uint256"
        }
      ],
      "name": "setBorrowingFee",
      "outputs": [],
      "stateMutability": "nonpayable",
      "type": "function"
    },
    {
      "inputs": [
        {
          "internalType": "address",
          "name": "_collateral",
          "type": "address"
        },
        {
          "internalType": "uint256",
          "name": "_newCCR",
          "type": "uint256"
        }
      ],
      "name": "setCCR",
      "outputs": [],
      "stateMutability": "nonpayable",
      "type": "function"
    },
    {
      "inputs": [
        {
          "internalType": "address",
          "name": "_collateral",
          "type": "address"
        },
        {
          "internalType": "uint256",
          "name": "_borrowingFee",
          "type": "uint256"
        },
        {
          "internalType": "uint256",
          "name": "_ccr",
          "type": "uint256"
        },
        {
          "internalType": "uint256",
          "name": "_mcr",
          "type": "uint256"
        },
        {
          "internalType": "uint256",
          "name": "_minNetDebt",
          "type": "uint256"
        },
        {
          "internalType": "uint256",
          "name": "_mintCap",
          "type": "uint256"
        },
        {
          "internalType": "uint256",
          "name": "_percentDivisor",
          "type": "uint256"
        },
        {
          "internalType": "uint256",
          "name": "_redemptionFeeFloor",
          "type": "uint256"
        }
      ],
      "name": "setCollateralParameters",
      "outputs": [],
      "stateMutability": "nonpayable",
      "type": "function"
    },
    {
      "inputs": [
        {
          "internalType": "address",
          "name": "_communityIssuance",
          "type": "address"
        }
      ],
      "name": "setCommunityIssuance",
      "outputs": [],
      "stateMutability": "nonpayable",
      "type": "function"
    },
    {
      "inputs": [
        {
          "internalType": "uint256",
          "name": "_flashLoanFee",
          "type": "uint256"
        }
      ],
      "name": "setFeeForFlashLoan",
      "outputs": [],
      "stateMutability": "nonpayable",
      "type": "function"
    },
    {
      "inputs": [
        {
          "internalType": "address",
          "name": "_collateral",
          "type": "address"
        },
        {
          "internalType": "bool",
          "name": "_active",
          "type": "bool"
        }
      ],
      "name": "setIsActive",
      "outputs": [],
      "stateMutability": "nonpayable",
      "type": "function"
    },
    {
      "inputs": [
        {
          "internalType": "address",
          "name": "_collateral",
          "type": "address"
        },
        {
          "internalType": "uint256",
          "name": "_newMCR",
          "type": "uint256"
        }
      ],
      "name": "setMCR",
      "outputs": [],
      "stateMutability": "nonpayable",
      "type": "function"
    },
    {
      "inputs": [
        {
          "internalType": "uint256",
          "name": "_flashLoanMaxDebt",
          "type": "uint256"
        }
      ],
      "name": "setMaxDebtForFlashLoan",
      "outputs": [],
      "stateMutability": "nonpayable",
      "type": "function"
    },
    {
      "inputs": [
        {
          "internalType": "uint256",
          "name": "_flashLoanMinDebt",
          "type": "uint256"
        }
      ],
      "name": "setMinDebtForFlashLoan",
      "outputs": [],
      "stateMutability": "nonpayable",
      "type": "function"
    },
    {
      "inputs": [
        {
          "internalType": "address",
          "name": "_collateral",
          "type": "address"
        },
        {
          "internalType": "uint256",
          "name": "_minNetDebt",
          "type": "uint256"
        }
      ],
      "name": "setMinNetDebt",
      "outputs": [],
      "stateMutability": "nonpayable",
      "type": "function"
    },
    {
      "inputs": [
        {
          "internalType": "address",
          "name": "_collateral",
          "type": "address"
        },
        {
          "internalType": "uint256",
          "name": "_mintCap",
          "type": "uint256"
        }
      ],
      "name": "setMintCap",
      "outputs": [],
      "stateMutability": "nonpayable",
      "type": "function"
    },
    {
      "inputs": [
        {
          "internalType": "address",
          "name": "_collateral",
          "type": "address"
        },
        {
          "internalType": "uint256",
          "name": "_percentDivisor",
          "type": "uint256"
        }
      ],
      "name": "setPercentDivisor",
      "outputs": [],
      "stateMutability": "nonpayable",
      "type": "function"
    },
    {
      "inputs": [
        {
          "internalType": "address",
          "name": "_collateral",
          "type": "address"
        },
        {
          "internalType": "uint256",
          "name": "_blockTimestamp",
          "type": "uint256"
        }
      ],
      "name": "setRedemptionBlockTimestamp",
      "outputs": [],
      "stateMutability": "nonpayable",
      "type": "function"
    },
    {
      "inputs": [
        {
          "internalType": "address",
          "name": "_collateral",
          "type": "address"
        },
        {
          "internalType": "uint256",
          "name": "_redemptionFeeFloor",
          "type": "uint256"
        }
      ],
      "name": "setRedemptionFeeFloor",
      "outputs": [],
      "stateMutability": "nonpayable",
      "type": "function"
    },
    {
      "inputs": [],
      "name": "setSetupIsInitialized",
      "outputs": [],
      "stateMutability": "nonpayable",
      "type": "function"
    },
    {
      "inputs": [
        {
          "internalType": "address",
          "name": "_trenStaking",
          "type": "address"
        }
      ],
      "name": "setTRENStaking",
      "outputs": [],
      "stateMutability": "nonpayable",
      "type": "function"
    },
    {
      "inputs": [],
      "name": "sortedTrenBoxes",
      "outputs": [
        {
          "internalType": "address",
          "name": "",
          "type": "address"
        }
      ],
      "stateMutability": "view",
      "type": "function"
    },
    {
      "inputs": [],
      "name": "stabilityPool",
      "outputs": [
        {
          "internalType": "address",
          "name": "",
          "type": "address"
        }
      ],
      "stateMutability": "view",
      "type": "function"
    },
    {
      "inputs": [],
      "name": "switchRouteToTRENStaking",
      "outputs": [],
      "stateMutability": "nonpayable",
      "type": "function"
    },
    {
      "inputs": [],
      "name": "timelockAddress",
      "outputs": [
        {
          "internalType": "address",
          "name": "",
          "type": "address"
        }
      ],
      "stateMutability": "view",
      "type": "function"
    },
    {
      "inputs": [
        {
          "internalType": "address",
          "name": "newOwner",
          "type": "address"
        }
      ],
      "name": "transferOwnership",
      "outputs": [],
      "stateMutability": "nonpayable",
      "type": "function"
    },
    {
      "inputs": [],
      "name": "treasuryAddress",
      "outputs": [
        {
          "internalType": "address",
          "name": "",
          "type": "address"
        }
      ],
      "stateMutability": "view",
      "type": "function"
    },
    {
      "inputs": [],
      "name": "trenBoxManager",
      "outputs": [
        {
          "internalType": "address",
          "name": "",
          "type": "address"
        }
      ],
      "stateMutability": "view",
      "type": "function"
    },
    {
      "inputs": [],
      "name": "trenBoxManagerOperations",
      "outputs": [
        {
          "internalType": "address",
          "name": "",
          "type": "address"
        }
      ],
      "stateMutability": "view",
      "type": "function"
    },
    {
      "inputs": [],
      "name": "trenBoxStorage",
      "outputs": [
        {
          "internalType": "address",
          "name": "",
          "type": "address"
        }
      ],
      "stateMutability": "view",
      "type": "function"
    },
    {
      "inputs": [],
      "name": "trenStaking",
      "outputs": [
        {
          "internalType": "address",
          "name": "",
          "type": "address"
        }
      ],
      "stateMutability": "view",
      "type": "function"
    },
    {
      "inputs": [
        {
          "internalType": "address",
          "name": "newImplementation",
          "type": "address"
        },
        {
          "internalType": "bytes",
          "name": "data",
          "type": "bytes"
        }
      ],
      "name": "upgradeToAndCall",
      "outputs": [],
      "stateMutability": "payable",
      "type": "function"
    },
    {
      "inputs": [
        {
          "internalType": "uint256",
          "name": "",
          "type": "uint256"
        }
      ],
      "name": "validCollateral",
      "outputs": [
        {
          "internalType": "address",
          "name": "",
          "type": "address"
        }
      ],
      "stateMutability": "view",
      "type": "function"
    }
  ],
  "args": [],
  "numDeployments": 1,
  "solcInputHash": "a7f7c188236ff897d7313c3fc2b44a12",
  "bytecode": "0x60a0604052306080526035805461ff001916905534801561001f57600080fd5b506080516133d261004960003960008181612aa101528181612aca0152612c1001526133d26000f3fe6080604052600436106104475760003560e01c806390b988c611610234578063c08261db1161012e578063d1c11bc5116100b6578063f45424941161007a578063f454249414610de2578063f7e37b8d14610e1b578063f8d8989814610e37578063fd90c2be14610e57578063fe06073314610e6c57600080fd5b8063d1c11bc514610d50578063e8ff898614610d70578063f1c05a7e14610d85578063f2ecdcae14610da5578063f2fde38b14610dc257600080fd5b8063c5f956af116100fd578063c5f956af14610ca0578063c629812014610cc0578063c8564c6214610cfa578063cc8b21e414610d1b578063cddba7e614610d3b57600080fd5b8063c08261db14610c07578063c0c067a414610c40578063c415b95c14610c60578063c4d66de814610c8057600080fd5b8063a3f4df7e116101bc578063af7047d811610180578063af7047d814610b4e578063b31610db14610b87578063b957172114610ba7578063c05c5e9414610bc7578063c06abe7714610be757600080fd5b8063a3f4df7e14610a81578063a72bd4e814610ac7578063a80f9aee14610add578063ad3cb1cc14610afd578063aebe1ccb14610b2e57600080fd5b80639d6aea0a116102035780639d6aea0a14610a155780639d8d5a1714610a37578063a142f35a14610a4c578063a17e64cc14610981578063a20baee614610a6657600080fd5b806390b988c61461098157806391bbfd0d1461099c57806395fb16bb146109d557806399bd6dda146109f557600080fd5b80634f1ef28611610345578063741bef1a116102cd5780637c120312116102915780637c120312146108d857806386d10e8c146108f457806388ecb0db1461092d5780638da5cb5b1461094d5780638dfac87a1461096257600080fd5b8063741bef1a1461082157806375e1c3d81461084157806377553ad41461086157806378aaf4de146108815780637a305122146108ba57600080fd5b806362d460da1161031457806362d460da1461077a578063650aabe2146107b35780636a85d67d146107d0578063715018a6146107f057806372fe25aa1461080557600080fd5b80634f1ef2861461071257806352d1902d1461072557806355dafa461461073a5780635b3724511461075a57600080fd5b80632416b72d116103d35780633f84a44d116103975780633f84a44d146106595780633f8f5f42146106795780634169467d14610699578063443c4fcb146106b95780634bc66f32146106f257600080fd5b80632416b72d146105a95780632a6e7603146105be5780632d79b8eb146105de578063300581d91461060b5780633e18935c1461064457600080fd5b80630e8dfa811161041a5780630e8dfa81146104eb5780630fe66cdd1461050b57806311a40d871461052b57806317ae1fc51461054b57806318a151131461057b57600080fd5b806301c931001461044c578063048c661d1461046e5780630a34d4d6146104ab5780630bc028c2146104cb575b600080fd5b34801561045857600080fd5b5061046c610467366004612f1d565b610e8c565b005b34801561047a57600080fd5b5060095461048e906001600160a01b031681565b6040516001600160a01b0390911681526020015b60405180910390f35b3480156104b757600080fd5b50600d5461048e906001600160a01b031681565b3480156104d757600080fd5b5061046c6104e6366004612f38565b610edd565b3480156104f757600080fd5b5061046c610506366004612f38565b61106c565b34801561051757600080fd5b5061046c610526366004612f62565b6111f1565b34801561053757600080fd5b5061046c610546366004612f9e565b611293565b34801561055757600080fd5b5061056b610566366004612f1d565b61134d565b60405190151581526020016104a2565b34801561058757600080fd5b5061059b610596366004612f1d565b61137c565b6040519081526020016104a2565b3480156105b557600080fd5b5060325461059b565b3480156105ca57600080fd5b5061048e6105d9366004612f9e565b6113f1565b3480156105ea57600080fd5b506105fe6105f9366004612ffe565b61141b565b6040516104a291906130ab565b34801561061757600080fd5b5061059b610626366004612f1d565b6001600160a01b031660009081526030602052604090206002015490565b34801561065057600080fd5b5060335461059b565b34801561066557600080fd5b50600e5461048e906001600160a01b031681565b34801561068557600080fd5b5061046c610694366004612f38565b611500565b3480156106a557600080fd5b5060055461048e906001600160a01b031681565b3480156106c557600080fd5b5061059b6106d4366004612f1d565b6001600160a01b031660009081526030602052604090206009015490565b3480156106fe57600080fd5b50600a5461048e906001600160a01b031681565b61046c6107203660046130ef565b611675565b34801561073157600080fd5b5061059b611694565b34801561074657600080fd5b5060065461048e906001600160a01b031681565b34801561076657600080fd5b5061046c610775366004612f38565b6116b1565b34801561078657600080fd5b5061059b610795366004612f1d565b6001600160a01b031660009081526030602052604090206003015490565b3480156107bf57600080fd5b50603554610100900460ff1661056b565b3480156107dc57600080fd5b5061046c6107eb366004612f1d565b611993565b3480156107fc57600080fd5b5061046c6119e4565b34801561081157600080fd5b5061059b670de0b6b3a764000081565b34801561082d57600080fd5b5060075461048e906001600160a01b031681565b34801561084d57600080fd5b5061046c61085c366004612f38565b6119f8565b34801561086d57600080fd5b5060015461048e906001600160a01b031681565b34801561088d57600080fd5b5061059b61089c366004612f1d565b6001600160a01b031660009081526030602052604090206004015490565b3480156108c657600080fd5b5061059b69d3c21bcecceda100000081565b3480156108e457600080fd5b5061059b670f43fc2c04ee000081565b34801561090057600080fd5b5061059b61090f366004612f1d565b6001600160a01b031660009081526030602052604090206006015490565b34801561093957600080fd5b5061046c610948366004612f38565b611b6b565b34801561095957600080fd5b5061048e611ce0565b34801561096e57600080fd5b5060355461056b90610100900460ff1681565b34801561098d57600080fd5b5061059b6611c37937e0800081565b3480156109a857600080fd5b5061059b6109b7366004612f1d565b6001600160a01b031660009081526030602052604090206007015490565b3480156109e157600080fd5b5060025461048e906001600160a01b031681565b348015610a0157600080fd5b5061046c610a10366004612f9e565b611d0e565b348015610a2157600080fd5b50610a2a611dc0565b6040516104a29190613195565b348015610a4357600080fd5b5061059b60c881565b348015610a5857600080fd5b5060355461056b9060ff1681565b348015610a7257600080fd5b50670de0b6b3a764000061059b565b348015610a8d57600080fd5b50610aba6040518060400160405280600d81526020016c10591b5a5b90dbdb9d1c9858dd609a1b81525081565b6040516104a29190613226565b348015610ad357600080fd5b5061059b60001981565b348015610ae957600080fd5b5061046c610af8366004612f38565b611e22565b348015610b0957600080fd5b50610aba604051806040016040528060058152602001640352e302e360dc1b81525081565b348015610b3a57600080fd5b5061046c610b49366004612f38565b611f99565b348015610b5a57600080fd5b5061059b610b69366004612f1d565b6001600160a01b031660009081526030602052604090206008015490565b348015610b9357600080fd5b5061059b610ba2366004612f1d565b612061565b348015610bb357600080fd5b5061046c610bc2366004613239565b61208a565b348015610bd357600080fd5b5060005461048e906001600160a01b031681565b348015610bf357600080fd5b5061046c610c02366004612f38565b61252e565b348015610c1357600080fd5b5061059b610c22366004612f1d565b6001600160a01b031660009081526030602052604090206005015490565b348015610c4c57600080fd5b5061046c610c5b3660046132ae565b612608565b348015610c6c57600080fd5b5060045461048e906001600160a01b031681565b348015610c8c57600080fd5b5061046c610c9b366004612f1d565b6126f4565b348015610cac57600080fd5b50600b5461048e906001600160a01b031681565b348015610ccc57600080fd5b50603154603254603354610cdf92919083565b604080519384526020840192909252908201526060016104a2565b348015610d0657600080fd5b50600e5461056b90600160a01b900460ff1681565b348015610d2757600080fd5b5060085461048e906001600160a01b031681565b348015610d4757600080fd5b5061046c61280b565b348015610d5c57600080fd5b5061046c610d6b366004612f9e565b6128ad565b348015610d7c57600080fd5b5061046c61295f565b348015610d9157600080fd5b50600c5461048e906001600160a01b031681565b348015610db157600080fd5b5061059b686c6b935b8bbd40000081565b348015610dce57600080fd5b5061046c610ddd366004612f1d565b6129e2565b348015610dee57600080fd5b5061059b610dfd366004612f1d565b6001600160a01b03166000908152603060205260409020600a015490565b348015610e2757600080fd5b5061059b6714d1120d7b16000081565b348015610e4357600080fd5b5060035461048e906001600160a01b031681565b348015610e6357600080fd5b5060315461059b565b348015610e7857600080fd5b5061046c610e87366004612f1d565b612a20565b610e94612a29565b6001600160a01b038116610ebb576040516385d3330760e01b815260040160405180910390fd5b600680546001600160a01b0319166001600160a01b0392909216919091179055565b60355460ff1615610f1857600a546001600160a01b03163314610f1357604051631dc5ba9560e01b815260040160405180910390fd5b610f51565b610f20611ce0565b6001600160a01b0316336001600160a01b031614610f515760405163ec4adddf60e01b815260040160405180910390fd5b604080518082018252600c81526b135a5b8813995d081119589d60a21b6020808301919091526001600160a01b038516600090815260309091529182206001015490918491849190686c6b935b8bbd4000009060ff16610fc4576040516316c1362560e21b815260040160405180910390fd5b81831080610fd157508083115b156110005784838383604051630714ded760e31b8152600401610ff7949392919061330a565b60405180910390fd5b6001600160a01b038716600090815260306020908152604091829020600681018054908a905583518181529283018a9052909290917f794abdbe21b3b4556467be6af2b2d5e75ae16613bd128dbd47c3727bd52b4b5591015b60405180910390a1505050505050505050565b60355460ff16156110a757600a546001600160a01b031633146110a257604051631dc5ba9560e01b815260040160405180910390fd5b6110e0565b6110af611ce0565b6001600160a01b0316336001600160a01b0316146110e05760405163ec4adddf60e01b815260040160405180910390fd5b60408051808201825260148152732932b232b6b83a34b7b7102332b290233637b7b960611b6020808301919091526001600160a01b0385166000908152603090915291909120600101548390839066038d7ea4c680009067016345785d8a00009060ff16611161576040516316c1362560e21b815260040160405180910390fd5b8183108061116e57508083115b156111945784838383604051630714ded760e31b8152600401610ff7949392919061330a565b6001600160a01b038716600090815260306020908152604091829020600981018054908a905583518181529283018a9052909290917fbb07ced1b1536afc600a5d97cba6e4b294731026286cddc33b98cb2d18569ab79101611059565b60355460ff161561122c57600a546001600160a01b0316331461122757604051631dc5ba9560e01b815260040160405180910390fd5b611265565b611234611ce0565b6001600160a01b0316336001600160a01b0316146112655760405163ec4adddf60e01b815260040160405180910390fd5b6001600160a01b03919091166000908152603060205260409020600101805460ff1916911515919091179055565b60355460ff16156112ce57600a546001600160a01b031633146112c957604051631dc5ba9560e01b815260040160405180910390fd5b611307565b6112d6611ce0565b6001600160a01b0316336001600160a01b0316146113075760405163ec4adddf60e01b815260040160405180910390fd5b603180549082905560408051828152602081018490527fe3b4f88e1a9792e4c88056012d3c2d95f88686e9f0422d216ddde64913868a3091015b60405180910390a15050565b60008161135981612a5b565b50506001600160a01b031660009081526030602052604090206001015460ff1690565b600e5460405163b429464160e01b81526001600160a01b038381166004830152600092169063b429464190602401602060405180830381865afa1580156113c7573d6000803e3d6000fd5b505050506040513d601f19601f820116820180604052508101906113eb9190613339565b92915050565b6034818154811061140157600080fd5b6000918252602090912001546001600160a01b0316905081565b80516060908067ffffffffffffffff81111561143957611439612fb7565b604051908082528060200260200182016040528015611462578160200160208202803683370190505b50915060005b818110156114f95761149284828151811061148557611485613352565b6020026020010151612a5b565b603060008583815181106114a8576114a8613352565b60200260200101516001600160a01b03166001600160a01b03168152602001908152602001600020600001548382815181106114e6576114e6613352565b6020908102919091010152600101611468565b5050919050565b60355460ff161561153b57600a546001600160a01b0316331461153657604051631dc5ba9560e01b815260040160405180910390fd5b611574565b611543611ce0565b6001600160a01b0316336001600160a01b0316146115745760405163ec4adddf60e01b815260040160405180910390fd5b604080518082018252600381526221a1a960e91b6020808301919091526001600160a01b03851660009081526030909152919091206001015483908390670de0b6b3a764000090678ac7230489e800009060ff166115e5576040516316c1362560e21b815260040160405180910390fd5b818310806115f257508083115b156116185784838383604051630714ded760e31b8152600401610ff7949392919061330a565b6001600160a01b038716600090815260306020908152604091829020600381018054908a905583518181529283018a9052909290917f8fef8cb3d376ea764ea9e41cc4380bb23ed262ed1883cfd0ee00f4b08a288b699101611059565b61167d612a96565b61168682612b3b565b6116908282612b43565b5050565b600061169e612c05565b506000805160206133a683398151915290565b60355460ff16156116ec57600a546001600160a01b031633146116e757604051631dc5ba9560e01b815260040160405180910390fd5b611725565b6116f4611ce0565b6001600160a01b0316336001600160a01b0316146117255760405163ec4adddf60e01b815260040160405180910390fd5b6001600160a01b0382166000908152603060205260409020600401541561175f57604051634dc81d2760e01b815260040160405180910390fd5b603480546001808201835560008390527f46bddb1178e94d7f2892ff5f366840eb658911794f2c3a44c450aa2c505186c190910180546001600160a01b0319166001600160a01b038616179055604080516101608101909152915482916117c591613368565b81526020016000151581526020016611c37937e0800081526020016714d1120d7b1600008152602001670f43fc2c04ee00008152602001828152602001686c6b935b8bbd400000815260200169d3c21bcecceda1000000815260200160c881526020016611c37937e08000815260200160001981525060306000846001600160a01b03166001600160a01b031681526020019081526020016000206000820151816000015560208201518160010160006101000a81548160ff02191690831515021790555060408201518160020155606082015181600301556080820151816004015560a0820151816005015560c0820151816006015560e082015181600701556101008201518160080155610120820151816009015561014082015181600a01559050507f7db05e63d635a68c62fd7fd8f3107ae8ab584a383e102d1bd8a40f4c977e465f8260405161192891906001600160a01b0391909116815260200190565b60405180910390a1600954604051633b03578360e21b81526001600160a01b0384811660048301529091169063ec0d5e0c90602401600060405180830381600087803b15801561197757600080fd5b505af115801561198b573d6000803e3d6000fd5b505050505050565b61199b612a29565b6001600160a01b0381166119c25760405163706ebc6560e11b815260040160405180910390fd5b600280546001600160a01b0319166001600160a01b0392909216919091179055565b6119ec612a29565b6119f66000612c4e565b565b60355460ff1615611a3357600a546001600160a01b03163314611a2e57604051631dc5ba9560e01b815260040160405180910390fd5b611a6c565b611a3b611ce0565b6001600160a01b0316336001600160a01b031614611a6c5760405163ec4adddf60e01b815260040160405180910390fd5b604080518082018252600f81526e2832b931b2b73a102234bb34b9b7b960891b6020808301919091526001600160a01b0385166000908152603090915291909120600101548390839060029060c89060ff16611adb576040516316c1362560e21b815260040160405180910390fd5b81831080611ae857508083115b15611b0e5784838383604051630714ded760e31b8152600401610ff7949392919061330a565b6001600160a01b038716600090815260306020908152604091829020600881018054908a905583518181529283018a9052909290917fdfb04317e088794badba78956b7c092fac7986add660c0fc3d01569808c32b369101611059565b60355460ff1615611ba657600a546001600160a01b03163314611ba157604051631dc5ba9560e01b815260040160405180910390fd5b611bdf565b611bae611ce0565b6001600160a01b0316336001600160a01b031614611bdf5760405163ec4adddf60e01b815260040160405180910390fd5b604080518082018252600381526226a1a960e91b6020808301919091526001600160a01b03851660009081526030909152919091206001015483908390670e043da61725000090678ac7230489e800009060ff16611c50576040516316c1362560e21b815260040160405180910390fd5b81831080611c5d57508083115b15611c835784838383604051630714ded760e31b8152600401610ff7949392919061330a565b6001600160a01b038716600090815260306020908152604091829020600481018054908a905583518181529283018a9052909290917fefeb589e088ecf2bc2a0b6d364f91a4fee37ee6b9c6f089c71169e86f03dc9449101611059565b7f9016d09d72d40fdae2fd8ceac6b6234c7706214fd39c1cd1e609a0528c199300546001600160a01b031690565b60355460ff1615611d4957600a546001600160a01b03163314611d4457604051631dc5ba9560e01b815260040160405180910390fd5b611d82565b611d51611ce0565b6001600160a01b0316336001600160a01b031614611d825760405163ec4adddf60e01b815260040160405180910390fd5b603280549082905560408051828152602081018490527f841b8d7786ab206e084452d4121e409254159a21459476b3875af811e81ddece9101611341565b60606034805480602002602001604051908101604052809291908181526020018280548015611e1857602002820191906000526020600020905b81546001600160a01b03168152600190910190602001808311611dfa575b5050505050905090565b60355460ff1615611e5d57600a546001600160a01b03163314611e5857604051631dc5ba9560e01b815260040160405180910390fd5b611e96565b611e65611ce0565b6001600160a01b0316336001600160a01b031614611e965760405163ec4adddf60e01b815260040160405180910390fd5b604080518082018252600d81526c426f72726f77696e672046656560981b6020808301919091526001600160a01b03851660009081526030909152918220600101549091849184919067016345785d8a00009060ff16611f09576040516316c1362560e21b815260040160405180910390fd5b81831080611f1657508083115b15611f3c5784838383604051630714ded760e31b8152600401610ff7949392919061330a565b6001600160a01b038716600090815260306020908152604091829020600281018054908a905583518181529283018a9052909290917fa7beab75e7a7d89dcacb5a82b33606192c31b8bbc1868c5240f95abcd95bbeee9101611059565b60355460ff1615611fd457600a546001600160a01b03163314611fcf57604051631dc5ba9560e01b815260040160405180910390fd5b61200d565b611fdc611ce0565b6001600160a01b0316336001600160a01b03161461200d5760405163ec4adddf60e01b815260040160405180910390fd5b6001600160a01b038216600081815260306020908152604091829020600a01849055815192835282018390527f2f92337ec07da93d49659c3dbafa91599df53c9c9147edcff44eabc99d9459509101611341565b60008161206d81612a5b565b50506001600160a01b031660009081526030602052604090205490565b612092612a29565b600e54600160a01b900460ff16156120bc57604051625f22e960e41b815260040160405180910390fd5b600d81146120dd57604051633f5a111d60e21b815260040160405180910390fd5b60005b600d81101561217b5760008383838181106120fd576120fd613352565b90506020020160208101906121129190612f1d565b6001600160a01b031603612173578083838381811061213357612133613352565b90506020020160208101906121489190612f1d565b604051630d9d339f60e01b815260048101929092526001600160a01b03166024820152604401610ff7565b6001016120e0565b508181600081811061218f5761218f613352565b90506020020160208101906121a49190612f1d565b600080546001600160a01b0319166001600160a01b0392909216919091179055818160018181106121d7576121d7613352565b90506020020160208101906121ec9190612f1d565b600180546001600160a01b0319166001600160a01b03929092169190911790558181600281811061221f5761221f613352565b90506020020160208101906122349190612f1d565b600380546001600160a01b0319166001600160a01b03929092169190911781558290829081811061226757612267613352565b905060200201602081019061227c9190612f1d565b600480546001600160a01b0319166001600160a01b0392909216919091178155829082908181106122af576122af613352565b90506020020160208101906122c49190612f1d565b600580546001600160a01b0319166001600160a01b0392909216919091178155829082908181106122f7576122f7613352565b905060200201602081019061230c9190612f1d565b600780546001600160a01b0319166001600160a01b03929092169190911790558181600681811061233f5761233f613352565b90506020020160208101906123549190612f1d565b600880546001600160a01b0319166001600160a01b03929092169190911790558181600781811061238757612387613352565b905060200201602081019061239c9190612f1d565b600980546001600160a01b0319166001600160a01b0392909216919091179055818160088181106123cf576123cf613352565b90506020020160208101906123e49190612f1d565b600a80546001600160a01b0319166001600160a01b03929092169190911790558181600981811061241757612417613352565b905060200201602081019061242c9190612f1d565b600b80546001600160a01b0319166001600160a01b03929092169190911790558181600a81811061245f5761245f613352565b90506020020160208101906124749190612f1d565b600c80546001600160a01b0319166001600160a01b03929092169190911790558181600b8181106124a7576124a7613352565b90506020020160208101906124bc9190612f1d565b600d80546001600160a01b0319166001600160a01b03929092169190911790558181600c8181106124ef576124ef613352565b90506020020160208101906125049190612f1d565b600e80546001600160a81b0319166001600160a01b039290921691909117600160a01b1790555050565b60355460ff161561256957600a546001600160a01b0316331461256457604051631dc5ba9560e01b815260040160405180910390fd5b6125a2565b612571611ce0565b6001600160a01b0316336001600160a01b0316146125a25760405163ec4adddf60e01b815260040160405180910390fd5b6001600160a01b038216600090815260306020908152604091829020600781018054908590558351818152928301859052909290917f903452cfae6c90575a1e7327283877d56dda9ed43a4711f44bf796e103e4e120910160405180910390a150505050565b60355460ff161561264357600a546001600160a01b0316331461263e57604051631dc5ba9560e01b815260040160405180910390fd5b61267c565b61264b611ce0565b6001600160a01b0316336001600160a01b03161461267c5760405163ec4adddf60e01b815260040160405180910390fd5b6001600160a01b03881660009081526030602052604090206001908101805460ff191690911790556126ae8888611e22565b6126b88887611500565b6126c28886611b6b565b6126cc8885610edd565b6126d6888461252e565b6126e088836119f8565b6126ea888261106c565b5050505050505050565b7ff0c57e16840df040f15088dc2f81fe391c3923bec73e23a9662efc9c229c6a008054600160401b810460ff16159067ffffffffffffffff1660008115801561273a5750825b905060008267ffffffffffffffff1660011480156127575750303b155b905081158015612765575080155b156127835760405163f92ee8a960e01b815260040160405180910390fd5b845467ffffffffffffffff1916600117855583156127ad57845460ff60401b1916600160401b1785555b6127b686612cbf565b6127be612cd0565b831561198b57845460ff60401b19168555604051600181527fc7f505b2f371ae2175ee4913f4499e1f2633a7b5936321eed1cdaeb6115181d29060200160405180910390a1505050505050565b60355460ff161561284657600a546001600160a01b0316331461284157604051631dc5ba9560e01b815260040160405180910390fd5b61287f565b61284e611ce0565b6001600160a01b0316336001600160a01b03161461287f5760405163ec4adddf60e01b815260040160405180910390fd5b603554610100900460ff161561289c576035805461ff0019169055565b6035805461ff001916610100179055565b60355460ff16156128e857600a546001600160a01b031633146128e357604051631dc5ba9560e01b815260040160405180910390fd5b612921565b6128f0611ce0565b6001600160a01b0316336001600160a01b0316146129215760405163ec4adddf60e01b815260040160405180910390fd5b603380549082905560408051828152602081018490527f7196cc0c7a60a899fecba676605ed35cd076078c7823305611d2e11fe269ae359101611341565b60355460ff161561299a57600a546001600160a01b0316331461299557604051631dc5ba9560e01b815260040160405180910390fd5b6129d3565b6129a2611ce0565b6001600160a01b0316336001600160a01b0316146129d35760405163ec4adddf60e01b815260040160405180910390fd5b6035805460ff19166001179055565b6129ea612a29565b6001600160a01b038116612a1457604051631e4fbdf760e01b815260006004820152602401610ff7565b612a1d81612c4e565b50565b612a1d81612b3b565b33612a32611ce0565b6001600160a01b0316146119f65760405163118cdaa760e01b8152336004820152602401610ff7565b6001600160a01b0381166000908152603060205260408120600401549003612a1d5760405163e2d0e9ed60e01b815260040160405180910390fd5b306001600160a01b037f0000000000000000000000000000000000000000000000000000000000000000161480612b1d57507f00000000000000000000000000000000000000000000000000000000000000006001600160a01b0316612b116000805160206133a6833981519152546001600160a01b031690565b6001600160a01b031614155b156119f65760405163703e46dd60e11b815260040160405180910390fd5b612a1d612a29565b816001600160a01b03166352d1902d6040518163ffffffff1660e01b8152600401602060405180830381865afa925050508015612b9d575060408051601f3d908101601f19168201909252612b9a91810190613339565b60015b612bc557604051634c9c8ce360e01b81526001600160a01b0383166004820152602401610ff7565b6000805160206133a68339815191528114612bf657604051632a87526960e21b815260048101829052602401610ff7565b612c008383612cd8565b505050565b306001600160a01b037f000000000000000000000000000000000000000000000000000000000000000016146119f65760405163703e46dd60e11b815260040160405180910390fd5b7f9016d09d72d40fdae2fd8ceac6b6234c7706214fd39c1cd1e609a0528c19930080546001600160a01b031981166001600160a01b03848116918217845560405192169182907f8be0079c531659141344cd1fd0a4f28419497f9722a3daafe3b4186f6b6457e090600090a3505050565b612cc7612d2e565b612a1d81612d77565b6119f6612d2e565b612ce182612d7f565b6040516001600160a01b038316907fbc7cd75a20ee27fd9adebab32041f755214dbc6bffa90cc0225b39da2e5c2d3b90600090a2805115612d2657612c008282612de4565b611690612e5a565b7ff0c57e16840df040f15088dc2f81fe391c3923bec73e23a9662efc9c229c6a0054600160401b900460ff166119f657604051631afcd79f60e31b815260040160405180910390fd5b6129ea612d2e565b806001600160a01b03163b600003612db557604051634c9c8ce360e01b81526001600160a01b0382166004820152602401610ff7565b6000805160206133a683398151915280546001600160a01b0319166001600160a01b0392909216919091179055565b6060600080846001600160a01b031684604051612e019190613389565b600060405180830381855af49150503d8060008114612e3c576040519150601f19603f3d011682016040523d82523d6000602084013e612e41565b606091505b5091509150612e51858383612e79565b95945050505050565b34156119f65760405163b398979f60e01b815260040160405180910390fd5b606082612e8e57612e8982612ed8565b612ed1565b8151158015612ea557506001600160a01b0384163b155b15612ece57604051639996b31560e01b81526001600160a01b0385166004820152602401610ff7565b50805b9392505050565b805115612ee85780518082602001fd5b604051630a12f52160e11b815260040160405180910390fd5b80356001600160a01b0381168114612f1857600080fd5b919050565b600060208284031215612f2f57600080fd5b612ed182612f01565b60008060408385031215612f4b57600080fd5b612f5483612f01565b946020939093013593505050565b60008060408385031215612f7557600080fd5b612f7e83612f01565b915060208301358015158114612f9357600080fd5b809150509250929050565b600060208284031215612fb057600080fd5b5035919050565b634e487b7160e01b600052604160045260246000fd5b604051601f8201601f1916810167ffffffffffffffff81118282101715612ff657612ff6612fb7565b604052919050565b6000602080838503121561301157600080fd5b823567ffffffffffffffff8082111561302957600080fd5b818501915085601f83011261303d57600080fd5b81358181111561304f5761304f612fb7565b8060051b9150613060848301612fcd565b818152918301840191848101908884111561307a57600080fd5b938501935b8385101561309f5761309085612f01565b8252938501939085019061307f565b98975050505050505050565b6020808252825182820181905260009190848201906040850190845b818110156130e3578351835292840192918401916001016130c7565b50909695505050505050565b6000806040838503121561310257600080fd5b61310b83612f01565b915060208084013567ffffffffffffffff8082111561312957600080fd5b818601915086601f83011261313d57600080fd5b81358181111561314f5761314f612fb7565b613161601f8201601f19168501612fcd565b9150808252878482850101111561317757600080fd5b80848401858401376000848284010152508093505050509250929050565b6020808252825182820181905260009190848201906040850190845b818110156130e35783516001600160a01b0316835292840192918401916001016131b1565b60005b838110156131f15781810151838201526020016131d9565b50506000910152565b600081518084526132128160208601602086016131d6565b601f01601f19169290920160200192915050565b602081526000612ed160208301846131fa565b6000806020838503121561324c57600080fd5b823567ffffffffffffffff8082111561326457600080fd5b818501915085601f83011261327857600080fd5b81358181111561328757600080fd5b8660208260051b850101111561329c57600080fd5b60209290920196919550909350505050565b600080600080600080600080610100898b0312156132cb57600080fd5b6132d489612f01565b9a60208a01359a5060408a013599606081013599506080810135985060a0810135975060c0810135965060e00135945092505050565b60808152600061331d60808301876131fa565b6020830195909552506040810192909252606090910152919050565b60006020828403121561334b57600080fd5b5051919050565b634e487b7160e01b600052603260045260246000fd5b818103818111156113eb57634e487b7160e01b600052601160045260246000fd5b6000825161339b8184602087016131d6565b919091019291505056fe360894a13ba1a3210667c828492db98dca3e2076cc3735a920a3ca505d382bbca164736f6c6343000817000a",
  "devdoc": {
    "errors": {
      "AddressEmptyCode(address)": [
        {
          "details": "There's no code at `target` (it is not a contract)."
        }
      ],
      "AdminContract__CollateralDoesNotExist()": [
        {
          "details": "Error emitted when the collateral asset does not exist."
        }
      ],
      "AdminContract__CollateralExists()": [
        {
          "details": "Error emitted when the collateral asset already exists."
        }
      ],
      "AdminContract__CollateralNotConfigured()": [
        {
          "details": "Error emitted when the collateral asset is not active."
        }
      ],
      "AdminContract__OnlyOwner()": [
        {
          "details": "Error emitted when the caller is not owner."
        }
      ],
      "AdminContract__OnlyTimelock()": [
        {
          "details": "Error emitted when the caller is not timelock contract."
        }
      ],
      "ERC1967InvalidImplementation(address)": [
        {
          "details": "The `implementation` of the proxy is invalid."
        }
      ],
      "ERC1967NonPayable()": [
        {
          "details": "An upgrade function sees `msg.value > 0` that may be lost."
        }
      ],
      "FailedInnerCall()": [
        {
          "details": "A call to an address target failed. The target may have reverted."
        }
      ],
      "InvalidInitialization()": [
        {
          "details": "The contract is already initialized."
        }
      ],
      "NotInitializing()": [
        {
          "details": "The contract is not initializing."
        }
      ],
      "OwnableInvalidOwner(address)": [
        {
          "details": "The owner is not a valid owner account. (eg. `address(0)`)"
        }
      ],
      "OwnableUnauthorizedAccount(address)": [
        {
          "details": "The caller account is not authorized to perform an operation."
        }
      ],
      "SafeCheckError(string,uint256,uint256,uint256)": [
        {
          "details": "Error emitted when the input value is not between min and max values.",
          "params": {
            "_maxValue": "The maximum value.",
            "_minValue": "The minimum value.",
            "_parameter": "The label of input parameter.",
            "_valueEntered": "The input value."
          }
        }
      ],
      "UUPSUnauthorizedCallContext()": [
        {
          "details": "The call is from an unauthorized context."
        }
      ],
      "UUPSUnsupportedProxiableUUID(bytes32)": [
        {
          "details": "The storage `slot` is unsupported as a UUID."
        }
      ]
    },
    "events": {
      "BorrowingFeeChanged(uint256,uint256)": {
        "details": "Emitted when the borrowing fee is updated.",
        "params": {
          "_newBorrowingFee": "The new borrowing fee.",
          "_oldBorrowingFee": "The old borrowing fee."
        }
      },
      "CCRChanged(uint256,uint256)": {
        "details": "Emitted when the critical collateral ratio is updated.",
        "params": {
          "_newCCR": "The new critical collateral ratio.",
          "_oldCCR": "The old critical collateral ratio."
        }
      },
      "CollateralAdded(address)": {
        "details": "Emitted when the collateral asset is added.",
        "params": {
          "_collateral": "The address of collateral asset."
        }
      },
      "FlashLoanFeeChanged(uint256,uint256)": {
        "details": "Emitted when the flash loan fee is updated.",
        "params": {
          "_newFee": "The new flash loan fee.",
          "_oldFee": "The old flash loan fee."
        }
      },
      "FlashLoanMaxDebtChanged(uint256,uint256)": {
        "details": "Emitted when the maximum amount of debt token for flash loan is updated.",
        "params": {
          "_newMaxDebt": "The new minimum amount of debt token.",
          "_oldMaxDebt": "The old minimum amount of debt token."
        }
      },
      "FlashLoanMinDebtChanged(uint256,uint256)": {
        "details": "Emitted when the minimum amount of debt token for flash loan is updated.",
        "params": {
          "_newMinDebt": "The new minimum amount of debt token.",
          "_oldMinDebt": "The old minimum amount of debt token."
        }
      },
      "Initialized(uint64)": {
        "details": "Triggered when the contract has been initialized or reinitialized."
      },
      "MCRChanged(uint256,uint256)": {
        "details": "Emitted when the minimum collateral ratio is updated.",
        "params": {
          "_newMCR": "The new minimum collateral ratio.",
          "_oldMCR": "The old minimum collateral ratio."
        }
      },
      "MinNetDebtChanged(uint256,uint256)": {
        "details": "Emitted when the minimum amount of debt token is updated.",
        "params": {
          "_newMinNet": "The new minimum amount of debt token.",
          "_oldMinNet": "The old minimum amount of debt token."
        }
      },
      "MintCapChanged(uint256,uint256)": {
        "details": "Emitted when the mint cap is updated.",
        "params": {
          "_newMintCap": "The new mint cap.",
          "_oldMintCap": "The old mint cap."
        }
      },
      "PercentDivisorChanged(uint256,uint256)": {
        "details": "Emitted when the liquidation fee is updated.",
        "params": {
          "_newPercentDiv": "The new liquidation fee.",
          "_oldPercentDiv": "The old liquidation fee."
        }
      },
      "RedemptionBlockTimestampChanged(address,uint256)": {
        "details": "Emitted when the redemption timestamp of specific collateral is updated.",
        "params": {
          "_blockTimestamp": "The new redemption timestamp.",
          "_collateral": "The address of collateral asset."
        }
      },
      "RedemptionFeeFloorChanged(uint256,uint256)": {
        "details": "Emitted when the floor of redemption fee is updated.",
        "params": {
          "_newRedemptionFeeFloor": "The new floor of redemption fee.",
          "_oldRedemptionFeeFloor": "The old floor of redemption fee."
        }
      },
      "Upgraded(address)": {
        "details": "Emitted when the implementation is upgraded."
      }
    },
    "kind": "dev",
    "methods": {
      "addNewCollateral(address,uint256)": {
        "params": {
          "_collateral": "The address of collateral asset.",
          "_debtTokenGasCompensation": "The amount of debtToken to be locked on opening TrenBoxes as liquidation reserve."
        }
      },
      "getBorrowingFee(address)": {
        "params": {
          "_collateral": "The address of collateral asset."
        }
      },
      "getCcr(address)": {
        "params": {
          "_collateral": "The address of collateral asset."
        }
      },
      "getDebtTokenGasCompensation(address)": {
        "params": {
          "_collateral": "The address of collateral asset."
        }
      },
      "getIndex(address)": {
        "params": {
          "_collateral": "The address of collateral asset."
        }
      },
      "getIndices(address[])": {
        "params": {
          "_colls": "The arrays of collateral assets."
        }
      },
      "getIsActive(address)": {
        "params": {
          "_collateral": "The address of collateral asset."
        }
      },
      "getMcr(address)": {
        "params": {
          "_collateral": "The address of collateral asset."
        }
      },
      "getMinNetDebt(address)": {
        "params": {
          "_collateral": "The address of collateral asset."
        }
      },
      "getMintCap(address)": {
        "params": {
          "_collateral": "The address of collateral asset."
        }
      },
      "getPercentDivisor(address)": {
        "params": {
          "_collateral": "The address of collateral asset."
        }
      },
      "getRedemptionBlockTimestamp(address)": {
        "params": {
          "_collateral": "The address of collateral asset."
        }
      },
      "getRedemptionFeeFloor(address)": {
        "params": {
          "_collateral": "The address of collateral asset."
        }
      },
      "getTotalAssetDebt(address)": {
        "params": {
          "_asset": "The address of collateral asset."
        }
      },
      "initialize(address)": {
        "details": "Runs all the setup logic only once.",
        "params": {
          "initialOwner": "The address of initial owner."
        }
      },
      "owner()": {
        "details": "Returns the address of the current owner."
      },
      "proxiableUUID()": {
        "details": "Implementation of the ERC1822 {proxiableUUID} function. This returns the storage slot used by the implementation. It is used to validate the implementation's compatibility when performing an upgrade. IMPORTANT: A proxy pointing at a proxiable contract should not be considered proxiable itself, because this risks bricking a proxy that upgrades to it, by delegating to itself until out of gas. Thus it is critical that this function revert if invoked through a proxy. This is guaranteed by the `notDelegated` modifier."
      },
      "renounceOwnership()": {
        "details": "Leaves the contract without owner. It will not be possible to call `onlyOwner` functions. Can only be called by the current owner. NOTE: Renouncing ownership will leave the contract without an owner, thereby disabling any functionality that is only available to the owner."
      },
      "setBorrowingFee(address,uint256)": {
        "params": {
          "_borrowingFee": "The one-time fee charged on the loan amount.",
          "_collateral": "The address of collateral asset."
        }
      },
      "setCCR(address,uint256)": {
        "params": {
          "_collateral": "The address of collateral asset.",
          "_newCCR": "The new critical collateral ratio. If the system's total collateral ratio (TCR) falls below the CCR, Recovery Mode is triggered."
        }
      },
      "setCollateralParameters(address,uint256,uint256,uint256,uint256,uint256,uint256,uint256)": {
        "params": {
          "_borrowingFee": "The one-time fee charged on the loan amount.",
          "_ccr": "The critical collateral ratio to trigger recovery mode.",
          "_collateral": "The address of collateral asset.",
          "_mcr": "The minimum collateral ratio to avoid liquidation under normal mode.",
          "_minNetDebt": "The minimum amount of debtToken a TrenBox must have.",
          "_mintCap": "The total amount of debt tokens to be allocated.",
          "_percentDivisor": "The liquidation fee.",
          "_redemptionFeeFloor": "The floor of redemption fee."
        }
      },
      "setFeeForFlashLoan(uint256)": {
        "params": {
          "_flashLoanFee": "The new flash loan fee."
        }
      },
      "setIsActive(address,bool)": {
        "params": {
          "_active": "The status of collateral; true or false.",
          "_collateral": "The address of collateral asset."
        }
      },
      "setMCR(address,uint256)": {
        "params": {
          "_collateral": "The address of collateral asset.",
          "_newMCR": "The minimum collateral ratio to avoid liquidations under normal mode."
        }
      },
      "setMaxDebtForFlashLoan(uint256)": {
        "params": {
          "_flashLoanMaxDebt": "The new maximum amount of debt token."
        }
      },
      "setMinDebtForFlashLoan(uint256)": {
        "params": {
          "_flashLoanMinDebt": "The new minimum amount of debt token."
        }
      },
      "setMinNetDebt(address,uint256)": {
        "params": {
          "_collateral": "The address of collateral asset.",
          "_minNetDebt": "The minimum amount of debt token a TrenBox must have."
        }
      },
      "setMintCap(address,uint256)": {
        "params": {
          "_collateral": "The address of collateral asset.",
          "_mintCap": "The mint cap."
        }
      },
      "setPercentDivisor(address,uint256)": {
        "params": {
          "_collateral": "The address of collateral asset.",
          "_percentDivisor": "The new :(min 2, max 200)."
        }
      },
      "setRedemptionBlockTimestamp(address,uint256)": {
        "params": {
          "_blockTimestamp": "The timestamp which redemption can be started from.",
          "_collateral": "The address of collateral asset."
        }
      },
      "setRedemptionFeeFloor(address,uint256)": {
        "params": {
          "_collateral": "The address of collateral asset.",
          "_redemptionFeeFloor": "The floor of redemption fee charged on the redeemed amount(scaled by 1e18); min 0.001(0.1%), max 0.1(10%)."
        }
      },
      "setSetupIsInitialized()": {
        "details": "The deployment script will call this function when all initial collaterals have been configured; after this is set to true, all subsequent config/setters will need to go through the timelocks."
      },
      "transferOwnership(address)": {
        "details": "Transfers ownership of the contract to a new account (`newOwner`). Can only be called by the current owner."
      },
      "upgradeToAndCall(address,bytes)": {
        "custom:oz-upgrades-unsafe-allow-reachable": "delegatecall",
        "details": "Upgrade the implementation of the proxy to `newImplementation`, and subsequently execute the function call encoded in `data`. Calls {_authorizeUpgrade}. Emits an {Upgraded} event."
      }
    },
    "stateVariables": {
      "collateralParams": {
        "details": "The mapping from collateral asset to its parameters. Cannot be public as struct has too many variables for the stack. Create special view structs/getters instead."
      }
    },
    "title": "AdminContract",
    "version": 1
  },
  "userdoc": {
    "kind": "user",
    "methods": {
      "BORROWING_FEE_DEFAULT()": {
        "notice": "The default borrowing fee, 0.5%."
      },
      "CCR_DEFAULT()": {
        "notice": "The default critical collateral ratio, 150%."
      },
      "DECIMAL_PRECISION()": {
        "notice": "Returns decimal precision, 1 ether."
      },
      "MCR_DEFAULT()": {
        "notice": "The default minimum collateral ratio, 110%."
      },
      "MINT_CAP_DEFAULT()": {
        "notice": "The default mint cap, 1 million trenUSD."
      },
      "MIN_NET_DEBT_DEFAULT()": {
        "notice": "The default minimum amount of debt token to mint."
      },
      "NAME()": {
        "notice": "The contract name."
      },
      "PERCENT_DIVISOR_DEFAULT()": {
        "notice": "The default liquidation fee, dividing by 200 yields 0.5%."
      },
      "REDEMPTION_BLOCK_TIMESTAMP_DEFAULT()": {
        "notice": "The default block timestamp for redemption."
      },
      "REDEMPTION_FEE_FLOOR_DEFAULT()": {
        "notice": "The default floor of redemption fee, 0.5%."
      },
      "_100pct()": {
        "notice": "The scaled number which means 100 percent, 1e18 == 100%."
      },
      "addNewCollateral(address,uint256)": {
        "notice": "Adds new collateral asset."
      },
      "flashLoanParams()": {
        "notice": "The storage struct variable to store flash loan parameters."
      },
      "getBorrowingFee(address)": {
        "notice": "Returns the one-time fee charged on the loan amount."
      },
      "getCcr(address)": {
        "notice": "Returns the critical collateral ratio of a specific collateral asset."
      },
      "getDebtTokenGasCompensation(address)": {
        "notice": "Returns the amount of debt token to be locked on opening TrenBoxes as liquidation reserve."
      },
      "getFlashLoanFee()": {
        "notice": "Returns the flash loan fee."
      },
      "getFlashLoanMaxNetDebt()": {
        "notice": "Returns the maximum amount of debt token to mint for flash loan."
      },
      "getFlashLoanMinNetDebt()": {
        "notice": "Returns the minimum amount of debt token to mint for flash loan."
      },
      "getIndex(address)": {
        "notice": "Returns the index of a specific collateral which maps to asset address in collateral array."
      },
      "getIndices(address[])": {
        "notice": "Returns the list of index matched with collateral arrays."
      },
      "getIsActive(address)": {
        "notice": "Returns if a specific collateral is active or not."
      },
      "getMcr(address)": {
        "notice": "Returns the minimum collateral ratio of a specific collateral asset."
      },
      "getMinNetDebt(address)": {
        "notice": "Returns the minimum amount of debt token a TrenBox must have."
      },
      "getMintCap(address)": {
        "notice": "Returns the total allocated amount of debt token for the specific collateral."
      },
      "getPercentDivisor(address)": {
        "notice": "Returns the liquidation fee; min 2, max 200."
      },
      "getRedemptionBlockTimestamp(address)": {
        "notice": "Returns the redemption timestamp for the specific collateral."
      },
      "getRedemptionFeeFloor(address)": {
        "notice": "Returns the floor of redemption fee for the specific collateral."
      },
      "getRouteToTRENStaking()": {
        "notice": "Returns if the collected fees go to stakers or treasury. if true, collected fees go to stakers; if false, to the treasury"
      },
      "getTotalAssetDebt(address)": {
        "notice": "Returns the current total amount of debt token for the specific collateral."
      },
      "getValidCollateral()": {
        "notice": "Returns list of all collateral types in collateral params."
      },
      "isSetupInitialized()": {
        "notice": "Checks if all initial collaterals have been configured or not."
      },
      "routeToTRENStaking()": {
        "notice": "If true, collected fees go to stakers; if false, to the treasury."
      },
      "setBorrowingFee(address,uint256)": {
        "notice": "Sets the borrowing fee."
      },
      "setCCR(address,uint256)": {
        "notice": "Sets the critical collateral ratio."
      },
      "setCollateralParameters(address,uint256,uint256,uint256,uint256,uint256,uint256,uint256)": {
        "notice": "Sets collateral parameters."
      },
      "setFeeForFlashLoan(uint256)": {
        "notice": "Sets the flash loan fee."
      },
      "setIsActive(address,bool)": {
        "notice": "Set the status for the specific collateral asset."
      },
      "setMCR(address,uint256)": {
        "notice": "Sets the minimum collateral ratio."
      },
      "setMaxDebtForFlashLoan(uint256)": {
        "notice": "Sets the maximum amount of debt token to mint for flash loan."
      },
      "setMinDebtForFlashLoan(uint256)": {
        "notice": "Sets the minimum amount of debt token to mint for flash loan."
      },
      "setMinNetDebt(address,uint256)": {
        "notice": "Sets the minimum amount of debt token to mint when opening a TrenBox."
      },
      "setMintCap(address,uint256)": {
        "notice": "Sets the total amount of debt tokens that can be allocated."
      },
      "setPercentDivisor(address,uint256)": {
        "notice": "Sets the liquidation fee."
      },
      "setRedemptionBlockTimestamp(address,uint256)": {
        "notice": "Sets the redemption timestamp."
      },
      "setRedemptionFeeFloor(address,uint256)": {
        "notice": "Sets the floor of redemption fee."
      },
      "switchRouteToTRENStaking()": {
        "notice": "Changes the destination where the collected fees go."
      },
      "validCollateral(uint256)": {
        "notice": "list of all collateral types in collateralParams (active and deprecated)."
      }
    },
    "notice": "Contains all the functions to create a new collateral or modify its parameters. It is called by other contracts to check if a collateral is valid and what are their parameters.",
    "version": 1
  },
  "storageLayout": {
    "storage": [
      {
        "astId": 10105,
        "contract": "contracts/AdminContract.sol:AdminContract",
        "label": "adminContract",
        "offset": 0,
        "slot": "0",
        "type": "t_address"
      },
      {
        "astId": 10107,
        "contract": "contracts/AdminContract.sol:AdminContract",
        "label": "borrowerOperations",
        "offset": 0,
        "slot": "1",
        "type": "t_address"
      },
      {
        "astId": 10109,
        "contract": "contracts/AdminContract.sol:AdminContract",
        "label": "communityIssuance",
        "offset": 0,
        "slot": "2",
        "type": "t_address"
      },
      {
        "astId": 10111,
        "contract": "contracts/AdminContract.sol:AdminContract",
        "label": "debtToken",
        "offset": 0,
        "slot": "3",
        "type": "t_address"
      },
      {
        "astId": 10113,
        "contract": "contracts/AdminContract.sol:AdminContract",
        "label": "feeCollector",
        "offset": 0,
        "slot": "4",
        "type": "t_address"
      },
      {
        "astId": 10115,
        "contract": "contracts/AdminContract.sol:AdminContract",
        "label": "flashLoanAddress",
        "offset": 0,
        "slot": "5",
        "type": "t_address"
      },
      {
        "astId": 10117,
        "contract": "contracts/AdminContract.sol:AdminContract",
        "label": "trenStaking",
        "offset": 0,
        "slot": "6",
        "type": "t_address"
      },
      {
        "astId": 10119,
        "contract": "contracts/AdminContract.sol:AdminContract",
        "label": "priceFeed",
        "offset": 0,
        "slot": "7",
        "type": "t_address"
      },
      {
        "astId": 10121,
        "contract": "contracts/AdminContract.sol:AdminContract",
        "label": "sortedTrenBoxes",
        "offset": 0,
        "slot": "8",
        "type": "t_address"
      },
      {
        "astId": 10123,
        "contract": "contracts/AdminContract.sol:AdminContract",
        "label": "stabilityPool",
        "offset": 0,
        "slot": "9",
        "type": "t_address"
      },
      {
        "astId": 10125,
        "contract": "contracts/AdminContract.sol:AdminContract",
        "label": "timelockAddress",
        "offset": 0,
        "slot": "10",
        "type": "t_address"
      },
      {
        "astId": 10127,
        "contract": "contracts/AdminContract.sol:AdminContract",
        "label": "treasuryAddress",
        "offset": 0,
        "slot": "11",
        "type": "t_address"
      },
      {
        "astId": 10129,
        "contract": "contracts/AdminContract.sol:AdminContract",
        "label": "trenBoxManager",
        "offset": 0,
        "slot": "12",
        "type": "t_address"
      },
      {
        "astId": 10131,
        "contract": "contracts/AdminContract.sol:AdminContract",
        "label": "trenBoxManagerOperations",
        "offset": 0,
        "slot": "13",
        "type": "t_address"
      },
      {
        "astId": 10133,
        "contract": "contracts/AdminContract.sol:AdminContract",
        "label": "trenBoxStorage",
        "offset": 0,
        "slot": "14",
        "type": "t_address"
      },
      {
        "astId": 10135,
        "contract": "contracts/AdminContract.sol:AdminContract",
        "label": "isAddressSetupInitialized",
        "offset": 20,
        "slot": "14",
        "type": "t_bool"
      },
      {
        "astId": 10140,
        "contract": "contracts/AdminContract.sol:AdminContract",
        "label": "__gap",
        "offset": 0,
        "slot": "15",
        "type": "t_array(t_uint256)33_storage"
      },
      {
        "astId": 6640,
        "contract": "contracts/AdminContract.sol:AdminContract",
        "label": "collateralParams",
        "offset": 0,
        "slot": "48",
        "type": "t_mapping(t_address,t_struct(CollateralParams)12653_storage)"
      },
      {
        "astId": 6644,
        "contract": "contracts/AdminContract.sol:AdminContract",
        "label": "flashLoanParams",
        "offset": 0,
        "slot": "49",
        "type": "t_struct(FlashLoanParams)12661_storage"
      },
      {
        "astId": 6648,
        "contract": "contracts/AdminContract.sol:AdminContract",
        "label": "validCollateral",
        "offset": 0,
        "slot": "52",
        "type": "t_array(t_address)dyn_storage"
      },
      {
        "astId": 6651,
        "contract": "contracts/AdminContract.sol:AdminContract",
        "label": "isSetupInitialized",
        "offset": 0,
        "slot": "53",
        "type": "t_bool"
      },
      {
        "astId": 6655,
        "contract": "contracts/AdminContract.sol:AdminContract",
        "label": "routeToTRENStaking",
        "offset": 1,
        "slot": "53",
        "type": "t_bool"
      }
    ],
    "types": {
      "t_address": {
        "encoding": "inplace",
        "label": "address",
        "numberOfBytes": "20"
      },
      "t_array(t_address)dyn_storage": {
        "base": "t_address",
        "encoding": "dynamic_array",
        "label": "address[]",
        "numberOfBytes": "32"
      },
      "t_array(t_uint256)33_storage": {
        "base": "t_uint256",
        "encoding": "inplace",
        "label": "uint256[33]",
        "numberOfBytes": "1056"
      },
      "t_bool": {
        "encoding": "inplace",
        "label": "bool",
        "numberOfBytes": "1"
      },
      "t_mapping(t_address,t_struct(CollateralParams)12653_storage)": {
        "encoding": "mapping",
        "key": "t_address",
        "label": "mapping(address => struct IAdminContract.CollateralParams)",
        "numberOfBytes": "32",
        "value": "t_struct(CollateralParams)12653_storage"
      },
      "t_struct(CollateralParams)12653_storage": {
        "encoding": "inplace",
        "label": "struct IAdminContract.CollateralParams",
        "members": [
          {
            "astId": 12632,
            "contract": "contracts/AdminContract.sol:AdminContract",
            "label": "index",
            "offset": 0,
            "slot": "0",
            "type": "t_uint256"
          },
          {
            "astId": 12634,
            "contract": "contracts/AdminContract.sol:AdminContract",
            "label": "active",
            "offset": 0,
            "slot": "1",
            "type": "t_bool"
          },
          {
            "astId": 12636,
            "contract": "contracts/AdminContract.sol:AdminContract",
            "label": "borrowingFee",
            "offset": 0,
            "slot": "2",
            "type": "t_uint256"
          },
          {
            "astId": 12638,
            "contract": "contracts/AdminContract.sol:AdminContract",
            "label": "ccr",
            "offset": 0,
            "slot": "3",
            "type": "t_uint256"
          },
          {
            "astId": 12640,
            "contract": "contracts/AdminContract.sol:AdminContract",
            "label": "mcr",
            "offset": 0,
            "slot": "4",
            "type": "t_uint256"
          },
          {
            "astId": 12642,
            "contract": "contracts/AdminContract.sol:AdminContract",
            "label": "debtTokenGasCompensation",
            "offset": 0,
            "slot": "5",
            "type": "t_uint256"
          },
          {
            "astId": 12644,
            "contract": "contracts/AdminContract.sol:AdminContract",
            "label": "minNetDebt",
            "offset": 0,
            "slot": "6",
            "type": "t_uint256"
          },
          {
            "astId": 12646,
            "contract": "contracts/AdminContract.sol:AdminContract",
            "label": "mintCap",
            "offset": 0,
            "slot": "7",
            "type": "t_uint256"
          },
          {
            "astId": 12648,
            "contract": "contracts/AdminContract.sol:AdminContract",
            "label": "percentDivisor",
            "offset": 0,
            "slot": "8",
            "type": "t_uint256"
          },
          {
            "astId": 12650,
            "contract": "contracts/AdminContract.sol:AdminContract",
            "label": "redemptionFeeFloor",
            "offset": 0,
            "slot": "9",
            "type": "t_uint256"
          },
          {
            "astId": 12652,
            "contract": "contracts/AdminContract.sol:AdminContract",
            "label": "redemptionBlockTimestamp",
            "offset": 0,
            "slot": "10",
            "type": "t_uint256"
          }
        ],
        "numberOfBytes": "352"
      },
      "t_struct(FlashLoanParams)12661_storage": {
        "encoding": "inplace",
        "label": "struct IAdminContract.FlashLoanParams",
        "members": [
          {
            "astId": 12656,
            "contract": "contracts/AdminContract.sol:AdminContract",
            "label": "flashLoanFee",
            "offset": 0,
            "slot": "0",
            "type": "t_uint256"
          },
          {
            "astId": 12658,
            "contract": "contracts/AdminContract.sol:AdminContract",
            "label": "flashLoanMinDebt",
            "offset": 0,
            "slot": "1",
            "type": "t_uint256"
          },
          {
            "astId": 12660,
            "contract": "contracts/AdminContract.sol:AdminContract",
            "label": "flashLoanMaxDebt",
            "offset": 0,
            "slot": "2",
            "type": "t_uint256"
          }
        ],
        "numberOfBytes": "96"
      },
      "t_uint256": {
        "encoding": "inplace",
        "label": "uint256",
        "numberOfBytes": "32"
      }
    }
  }
}