{
  "address": "0x2386280F5C7E914CA666974CB85aAE22c7D15bdF",
  "abi": [
    {
      "inputs": [
        {
          "internalType": "address",
          "name": "target",
          "type": "address"
        }
      ],
      "name": "AddressEmptyCode",
      "type": "error"
    },
    {
      "inputs": [],
      "name": "ConfigurableAddresses__CommunityIssuanceZeroAddress",
      "type": "error"
    },
    {
      "inputs": [],
      "name": "ConfigurableAddresses__LengthMismatch",
      "type": "error"
    },
    {
      "inputs": [],
      "name": "ConfigurableAddresses__SetupIsInitialized",
      "type": "error"
    },
    {
      "inputs": [],
      "name": "ConfigurableAddresses__TRENStakingZeroAddress",
      "type": "error"
    },
    {
      "inputs": [
        {
          "internalType": "uint256",
          "name": "position",
          "type": "uint256"
        },
        {
          "internalType": "address",
          "name": "address_",
          "type": "address"
        }
      ],
      "name": "ConfigurableAddresses__ZeroAddresses",
      "type": "error"
    },
    {
      "inputs": [
        {
          "internalType": "address",
          "name": "implementation",
          "type": "address"
        }
      ],
      "name": "ERC1967InvalidImplementation",
      "type": "error"
    },
    {
      "inputs": [],
      "name": "ERC1967NonPayable",
      "type": "error"
    },
    {
      "inputs": [],
      "name": "FailedInnerCall",
      "type": "error"
    },
    {
      "inputs": [],
      "name": "InvalidInitialization",
      "type": "error"
    },
    {
      "inputs": [],
      "name": "NotInitializing",
      "type": "error"
    },
    {
      "inputs": [
        {
          "internalType": "address",
          "name": "owner",
          "type": "address"
        }
      ],
      "name": "OwnableInvalidOwner",
      "type": "error"
    },
    {
      "inputs": [
        {
          "internalType": "address",
          "name": "account",
          "type": "address"
        }
      ],
      "name": "OwnableUnauthorizedAccount",
      "type": "error"
    },
    {
      "inputs": [],
      "name": "PriceFeed__ExistingOracleRequired",
      "type": "error"
    },
    {
      "inputs": [],
      "name": "PriceFeed__InvalidDecimalsError",
      "type": "error"
    },
    {
      "inputs": [
        {
          "internalType": "address",
          "name": "_token",
          "type": "address"
        }
      ],
      "name": "PriceFeed__InvalidOracleResponseError",
      "type": "error"
    },
    {
      "inputs": [],
      "name": "PriceFeed__MissingPythFeedId",
      "type": "error"
    },
    {
      "inputs": [],
      "name": "PriceFeed__TimelockOnlyError",
      "type": "error"
    },
    {
      "inputs": [],
      "name": "PriceFeed__UnknownAssetError",
      "type": "error"
    },
    {
      "inputs": [],
      "name": "UUPSUnauthorizedCallContext",
      "type": "error"
    },
    {
      "inputs": [
        {
          "internalType": "bytes32",
          "name": "slot",
          "type": "bytes32"
        }
      ],
      "name": "UUPSUnsupportedProxiableUUID",
      "type": "error"
    },
    {
      "anonymous": false,
      "inputs": [
        {
          "indexed": false,
          "internalType": "uint64",
          "name": "version",
          "type": "uint64"
        }
      ],
      "name": "Initialized",
      "type": "event"
    },
    {
      "anonymous": false,
      "inputs": [
        {
          "indexed": false,
          "internalType": "address",
          "name": "_token",
          "type": "address"
        },
        {
          "indexed": false,
          "internalType": "address",
          "name": "_oracleAddress",
          "type": "address"
        },
        {
          "indexed": false,
          "internalType": "bool",
          "name": "_isEthIndexed",
          "type": "bool"
        },
        {
          "indexed": false,
          "internalType": "bool",
          "name": "_isFallback",
          "type": "bool"
        }
      ],
      "name": "NewOracleRegistered",
      "type": "event"
    },
    {
      "anonymous": false,
      "inputs": [
        {
          "indexed": true,
          "internalType": "address",
          "name": "previousOwner",
          "type": "address"
        },
        {
          "indexed": true,
          "internalType": "address",
          "name": "newOwner",
          "type": "address"
        }
      ],
      "name": "OwnershipTransferred",
      "type": "event"
    },
    {
      "anonymous": false,
      "inputs": [
        {
          "indexed": true,
          "internalType": "address",
          "name": "implementation",
          "type": "address"
        }
      ],
      "name": "Upgraded",
      "type": "event"
    },
    {
      "inputs": [],
      "name": "NAME",
      "outputs": [
        {
          "internalType": "string",
          "name": "",
          "type": "string"
        }
      ],
      "stateMutability": "view",
      "type": "function"
    },
    {
      "inputs": [],
      "name": "TARGET_DIGITS",
      "outputs": [
        {
          "internalType": "uint256",
          "name": "",
          "type": "uint256"
        }
      ],
      "stateMutability": "view",
      "type": "function"
    },
    {
      "inputs": [],
      "name": "UPGRADE_INTERFACE_VERSION",
      "outputs": [
        {
          "internalType": "string",
          "name": "",
          "type": "string"
        }
      ],
      "stateMutability": "view",
      "type": "function"
    },
    {
      "inputs": [],
      "name": "adminContract",
      "outputs": [
        {
          "internalType": "address",
          "name": "",
          "type": "address"
        }
      ],
      "stateMutability": "view",
      "type": "function"
    },
    {
      "inputs": [
        {
          "internalType": "address",
          "name": "newImplementation",
          "type": "address"
        }
      ],
      "name": "authorizeUpgrade",
      "outputs": [],
      "stateMutability": "nonpayable",
      "type": "function"
    },
    {
      "inputs": [],
      "name": "borrowerOperations",
      "outputs": [
        {
          "internalType": "address",
          "name": "",
          "type": "address"
        }
      ],
      "stateMutability": "view",
      "type": "function"
    },
    {
      "inputs": [],
      "name": "communityIssuance",
      "outputs": [
        {
          "internalType": "address",
          "name": "",
          "type": "address"
        }
      ],
      "stateMutability": "view",
      "type": "function"
    },
    {
      "inputs": [],
      "name": "debtToken",
      "outputs": [
        {
          "internalType": "address",
          "name": "",
          "type": "address"
        }
      ],
      "stateMutability": "view",
      "type": "function"
    },
    {
      "inputs": [
        {
          "internalType": "address",
          "name": "token",
          "type": "address"
        }
      ],
      "name": "fallbacks",
      "outputs": [
        {
          "internalType": "address",
          "name": "oracleAddress",
          "type": "address"
        },
        {
          "internalType": "enum IPriceFeed.ProviderType",
          "name": "providerType",
          "type": "uint8"
        },
        {
          "internalType": "uint256",
          "name": "timeoutSeconds",
          "type": "uint256"
        },
        {
          "internalType": "uint256",
          "name": "decimals",
          "type": "uint256"
        },
        {
          "internalType": "bool",
          "name": "isEthIndexed",
          "type": "bool"
        },
        {
          "internalType": "bytes32",
          "name": "additionalData",
          "type": "bytes32"
        }
      ],
      "stateMutability": "view",
      "type": "function"
    },
    {
      "inputs": [],
      "name": "feeCollector",
      "outputs": [
        {
          "internalType": "address",
          "name": "",
          "type": "address"
        }
      ],
      "stateMutability": "view",
      "type": "function"
    },
    {
      "inputs": [
        {
          "internalType": "address",
          "name": "_token",
          "type": "address"
        }
      ],
      "name": "fetchPrice",
      "outputs": [
        {
          "internalType": "uint256",
          "name": "",
          "type": "uint256"
        }
      ],
      "stateMutability": "view",
      "type": "function"
    },
    {
      "inputs": [],
      "name": "flashLoanAddress",
      "outputs": [
        {
          "internalType": "address",
          "name": "",
          "type": "address"
        }
      ],
      "stateMutability": "view",
      "type": "function"
    },
    {
      "inputs": [
        {
          "internalType": "address",
          "name": "initialOwner",
          "type": "address"
        }
      ],
      "name": "initialize",
      "outputs": [],
      "stateMutability": "nonpayable",
      "type": "function"
    },
    {
      "inputs": [],
      "name": "isAddressSetupInitialized",
      "outputs": [
        {
          "internalType": "bool",
          "name": "",
          "type": "bool"
        }
      ],
      "stateMutability": "view",
      "type": "function"
    },
    {
      "inputs": [
        {
          "internalType": "address",
          "name": "token",
          "type": "address"
        }
      ],
      "name": "oracles",
      "outputs": [
        {
          "internalType": "address",
          "name": "oracleAddress",
          "type": "address"
        },
        {
          "internalType": "enum IPriceFeed.ProviderType",
          "name": "providerType",
          "type": "uint8"
        },
        {
          "internalType": "uint256",
          "name": "timeoutSeconds",
          "type": "uint256"
        },
        {
          "internalType": "uint256",
          "name": "decimals",
          "type": "uint256"
        },
        {
          "internalType": "bool",
          "name": "isEthIndexed",
          "type": "bool"
        },
        {
          "internalType": "bytes32",
          "name": "additionalData",
          "type": "bytes32"
        }
      ],
      "stateMutability": "view",
      "type": "function"
    },
    {
      "inputs": [],
      "name": "owner",
      "outputs": [
        {
          "internalType": "address",
          "name": "",
          "type": "address"
        }
      ],
      "stateMutability": "view",
      "type": "function"
    },
    {
      "inputs": [],
      "name": "priceFeed",
      "outputs": [
        {
          "internalType": "address",
          "name": "",
          "type": "address"
        }
      ],
      "stateMutability": "view",
      "type": "function"
    },
    {
      "inputs": [],
      "name": "proxiableUUID",
      "outputs": [
        {
          "internalType": "bytes32",
          "name": "",
          "type": "bytes32"
        }
      ],
      "stateMutability": "view",
      "type": "function"
    },
    {
      "inputs": [],
      "name": "renounceOwnership",
      "outputs": [],
      "stateMutability": "nonpayable",
      "type": "function"
    },
    {
      "inputs": [
        {
          "internalType": "address[]",
          "name": "_addresses",
          "type": "address[]"
        }
      ],
      "name": "setAddresses",
      "outputs": [],
      "stateMutability": "nonpayable",
      "type": "function"
    },
    {
      "inputs": [
        {
          "internalType": "address",
          "name": "_communityIssuance",
          "type": "address"
        }
      ],
      "name": "setCommunityIssuance",
      "outputs": [],
      "stateMutability": "nonpayable",
      "type": "function"
    },
    {
      "inputs": [
        {
          "internalType": "address",
          "name": "_token",
          "type": "address"
        },
        {
          "internalType": "address",
          "name": "_oracle",
          "type": "address"
        },
        {
          "internalType": "enum IPriceFeed.ProviderType",
          "name": "_type",
          "type": "uint8"
        },
        {
          "internalType": "uint256",
          "name": "_timeoutSeconds",
          "type": "uint256"
        },
        {
          "internalType": "bool",
          "name": "_isEthIndexed",
          "type": "bool"
        },
        {
          "internalType": "bool",
          "name": "_isFallback",
          "type": "bool"
        },
        {
          "internalType": "bytes32",
          "name": "_additionalData",
          "type": "bytes32"
        }
      ],
      "name": "setOracle",
      "outputs": [],
      "stateMutability": "nonpayable",
      "type": "function"
    },
    {
      "inputs": [
        {
          "internalType": "address",
          "name": "_trenStaking",
          "type": "address"
        }
      ],
      "name": "setTRENStaking",
      "outputs": [],
      "stateMutability": "nonpayable",
      "type": "function"
    },
    {
      "inputs": [],
      "name": "sortedTrenBoxes",
      "outputs": [
        {
          "internalType": "address",
          "name": "",
          "type": "address"
        }
      ],
      "stateMutability": "view",
      "type": "function"
    },
    {
      "inputs": [],
      "name": "stabilityPool",
      "outputs": [
        {
          "internalType": "address",
          "name": "",
          "type": "address"
        }
      ],
      "stateMutability": "view",
      "type": "function"
    },
    {
      "inputs": [],
      "name": "timelockAddress",
      "outputs": [
        {
          "internalType": "address",
          "name": "",
          "type": "address"
        }
      ],
      "stateMutability": "view",
      "type": "function"
    },
    {
      "inputs": [
        {
          "internalType": "address",
          "name": "newOwner",
          "type": "address"
        }
      ],
      "name": "transferOwnership",
      "outputs": [],
      "stateMutability": "nonpayable",
      "type": "function"
    },
    {
      "inputs": [],
      "name": "treasuryAddress",
      "outputs": [
        {
          "internalType": "address",
          "name": "",
          "type": "address"
        }
      ],
      "stateMutability": "view",
      "type": "function"
    },
    {
      "inputs": [],
      "name": "trenBoxManager",
      "outputs": [
        {
          "internalType": "address",
          "name": "",
          "type": "address"
        }
      ],
      "stateMutability": "view",
      "type": "function"
    },
    {
      "inputs": [],
      "name": "trenBoxManagerOperations",
      "outputs": [
        {
          "internalType": "address",
          "name": "",
          "type": "address"
        }
      ],
      "stateMutability": "view",
      "type": "function"
    },
    {
      "inputs": [],
      "name": "trenBoxStorage",
      "outputs": [
        {
          "internalType": "address",
          "name": "",
          "type": "address"
        }
      ],
      "stateMutability": "view",
      "type": "function"
    },
    {
      "inputs": [],
      "name": "trenStaking",
      "outputs": [
        {
          "internalType": "address",
          "name": "",
          "type": "address"
        }
      ],
      "stateMutability": "view",
      "type": "function"
    },
    {
      "inputs": [
        {
          "internalType": "address",
          "name": "newImplementation",
          "type": "address"
        },
        {
          "internalType": "bytes",
          "name": "data",
          "type": "bytes"
        }
      ],
      "name": "upgradeToAndCall",
      "outputs": [],
      "stateMutability": "payable",
      "type": "function"
    }
  ],
  "transactionHash": "0x7921dc126f717dfeda98fac6d2175a306dae77eec0aacff90c324c95b32f5ae1",
  "args": [],
  "numDeployments": 1,
  "solcInputHash": "ce0a60c92cd27ba5a217c9a57823311c",
  "bytecode": "0x60a06040523060805234801561001457600080fd5b5060805161227561003e600039600081816112e50152818161130e015261145401526122756000f3fe6080604052600436106101ee5760003560e01c806395fb16bb1161010d578063c4d66de8116100a0578063cc8b21e41161006f578063cc8b21e41461065f578063f1c05a7e1461067f578063f2fde38b1461069f578063f8d89898146106bf578063fe060733146106df57600080fd5b8063c4d66de8146105ce578063c5f956af146105ee578063c8564c621461060e578063ca4d7b741461063f57600080fd5b8063addd5099116100dc578063addd509914610511578063b95717211461056e578063c05c5e941461058e578063c415b95c146105ae57600080fd5b806395fb16bb1461045e578063a3f4df7e1461047e578063ace1798e146104c0578063ad3cb1cc146104e057600080fd5b80634f1ef28611610185578063715018a611610154578063715018a6146103cc578063741bef1a146103e157806377553ad4146104015780638da5cb5b1461042157600080fd5b80634f1ef2861461036457806352d1902d1461037757806355dafa461461038c5780636a85d67d146103ac57600080fd5b806326256c0b116101c157806326256c0b146102955780633f84a44d146103045780634169467d146103245780634bc66f321461034457600080fd5b806301c93100146101f3578063048c661d146102155780630a34d4d6146102525780631be5c92f14610272575b600080fd5b3480156101ff57600080fd5b5061021361020e366004611c35565b6106ff565b005b34801561022157600080fd5b50600954610235906001600160a01b031681565b6040516001600160a01b0390911681526020015b60405180910390f35b34801561025e57600080fd5b50600d54610235906001600160a01b031681565b34801561027e57600080fd5b50610287601281565b604051908152602001610249565b3480156102a157600080fd5b506102f26102b0366004611c35565b603160205260009081526040902080546001820154600283015460038401546004909401546001600160a01b0384169460ff600160a01b909504851694169086565b60405161024996959493929190611c66565b34801561031057600080fd5b50600e54610235906001600160a01b031681565b34801561033057600080fd5b50600554610235906001600160a01b031681565b34801561035057600080fd5b50600a54610235906001600160a01b031681565b610213610372366004611d05565b610750565b34801561038357600080fd5b5061028761076f565b34801561039857600080fd5b50600654610235906001600160a01b031681565b3480156103b857600080fd5b506102136103c7366004611c35565b61078c565b3480156103d857600080fd5b506102136107dd565b3480156103ed57600080fd5b50600754610235906001600160a01b031681565b34801561040d57600080fd5b50600154610235906001600160a01b031681565b34801561042d57600080fd5b507f9016d09d72d40fdae2fd8ceac6b6234c7706214fd39c1cd1e609a0528c199300546001600160a01b0316610235565b34801561046a57600080fd5b50600254610235906001600160a01b031681565b34801561048a57600080fd5b506104b360405180604001604052806009815260200168141c9a58d95199595960ba1b81525081565b6040516102499190611dcf565b3480156104cc57600080fd5b506102876104db366004611c35565b6107f1565b3480156104ec57600080fd5b506104b3604051806040016040528060058152602001640352e302e360dc1b81525081565b34801561051d57600080fd5b506102f261052c366004611c35565b603060205260009081526040902080546001820154600283015460038401546004909401546001600160a01b0384169460ff600160a01b909504851694169086565b34801561057a57600080fd5b50610213610589366004611e02565b610993565b34801561059a57600080fd5b50600054610235906001600160a01b031681565b3480156105ba57600080fd5b50600454610235906001600160a01b031681565b3480156105da57600080fd5b506102136105e9366004611c35565b610e37565b3480156105fa57600080fd5b50600b54610235906001600160a01b031681565b34801561061a57600080fd5b50600e5461062f90600160a01b900460ff1681565b6040519015158152602001610249565b34801561064b57600080fd5b5061021361065a366004611e87565b610f4f565b34801561066b57600080fd5b50600854610235906001600160a01b031681565b34801561068b57600080fd5b50600c54610235906001600160a01b031681565b3480156106ab57600080fd5b506102136106ba366004611c35565b611238565b3480156106cb57600080fd5b50600354610235906001600160a01b031681565b3480156106eb57600080fd5b506102136106fa366004611c35565b611276565b61070761127f565b6001600160a01b03811661072e576040516385d3330760e01b815260040160405180910390fd5b600680546001600160a01b0319166001600160a01b0392909216919091179055565b6107586112da565b6107618261137f565b61076b8282611387565b5050565b6000610779611449565b5060008051602061224983398151915290565b61079461127f565b6001600160a01b0381166107bb5760405163706ebc6560e11b815260040160405180910390fd5b600280546001600160a01b0319166001600160a01b0392909216919091179055565b6107e561127f565b6107ef6000611492565b565b6001600160a01b038181166000908152603060209081526040808320815160c0810190925280549485168252929384939192830190600160a01b900460ff16600281111561084157610841611c50565b600281111561085257610852611c50565b81526001820154602082015260028201546040820152600382015460ff16151560608201526004909101546080909101529050600061089082611503565b905080156108b85781608001516108a757806108b0565b6108b0816115f8565b949350505050565b6001600160a01b03848116600090815260316020908152604091829020825160c0810190935280549384168352919290830190600160a01b900460ff16600281111561090657610906611c50565b600281111561091757610917611c50565b81526001820154602082015260028201546040820152600382015460ff1615156060820152600490910154608090910152915061095382611503565b9050801561096a5781608001516108a757806108b0565b60405163283f5cb560e01b81526001600160a01b03851660048201526024015b60405180910390fd5b61099b61127f565b600e54600160a01b900460ff16156109c557604051625f22e960e41b815260040160405180910390fd5b600d81146109e657604051633f5a111d60e21b815260040160405180910390fd5b60005b600d811015610a84576000838383818110610a0657610a06611f05565b9050602002016020810190610a1b9190611c35565b6001600160a01b031603610a7c5780838383818110610a3c57610a3c611f05565b9050602002016020810190610a519190611c35565b604051630d9d339f60e01b815260048101929092526001600160a01b0316602482015260440161098a565b6001016109e9565b5081816000818110610a9857610a98611f05565b9050602002016020810190610aad9190611c35565b600080546001600160a01b0319166001600160a01b039290921691909117905581816001818110610ae057610ae0611f05565b9050602002016020810190610af59190611c35565b600180546001600160a01b0319166001600160a01b039290921691909117905581816002818110610b2857610b28611f05565b9050602002016020810190610b3d9190611c35565b600380546001600160a01b0319166001600160a01b039290921691909117815582908290818110610b7057610b70611f05565b9050602002016020810190610b859190611c35565b600480546001600160a01b0319166001600160a01b039290921691909117815582908290818110610bb857610bb8611f05565b9050602002016020810190610bcd9190611c35565b600580546001600160a01b0319166001600160a01b039290921691909117815582908290818110610c0057610c00611f05565b9050602002016020810190610c159190611c35565b600780546001600160a01b0319166001600160a01b039290921691909117905581816006818110610c4857610c48611f05565b9050602002016020810190610c5d9190611c35565b600880546001600160a01b0319166001600160a01b039290921691909117905581816007818110610c9057610c90611f05565b9050602002016020810190610ca59190611c35565b600980546001600160a01b0319166001600160a01b039290921691909117905581816008818110610cd857610cd8611f05565b9050602002016020810190610ced9190611c35565b600a80546001600160a01b0319166001600160a01b039290921691909117905581816009818110610d2057610d20611f05565b9050602002016020810190610d359190611c35565b600b80546001600160a01b0319166001600160a01b03929092169190911790558181600a818110610d6857610d68611f05565b9050602002016020810190610d7d9190611c35565b600c80546001600160a01b0319166001600160a01b03929092169190911790558181600b818110610db057610db0611f05565b9050602002016020810190610dc59190611c35565b600d80546001600160a01b0319166001600160a01b03929092169190911790558181600c818110610df857610df8611f05565b9050602002016020810190610e0d9190611c35565b600e80546001600160a81b0319166001600160a01b039290921691909117600160a01b1790555050565b7ff0c57e16840df040f15088dc2f81fe391c3923bec73e23a9662efc9c229c6a008054600160401b810460ff16159067ffffffffffffffff16600081158015610e7d5750825b905060008267ffffffffffffffff166001148015610e9a5750303b155b905081158015610ea8575080155b15610ec65760405163f92ee8a960e01b815260040160405180910390fd5b845467ffffffffffffffff191660011785558315610ef057845460ff60401b1916600160401b1785555b610ef98661162b565b610f0161163c565b8315610f4757845460ff60401b19168555604051600181527fc7f505b2f371ae2175ee4913f4499e1f2633a7b5936321eed1cdaeb6115181d29060200160405180910390a15b505050505050565b610f598783611644565b818015610f7e57506001600160a01b0387811660009081526030602052604090205416155b15610f9c57604051634a0e0c3b60e11b815260040160405180910390fd5b6000610fa887876116c6565b60ff16905080600003610fce5760405163ee65a7e560e01b815260040160405180910390fd5b6002866002811115610fe257610fe2611c50565b148015610fed575081155b1561100b5760405163ea195bcb60e01b815260040160405180910390fd5b60006040518060c00160405280896001600160a01b0316815260200188600281111561103957611039611c50565b81526020018781526020018381526020018615158152602001848152509050600061106382611503565b9050806000036110915760405163283f5cb560e01b81526001600160a01b038b16600482015260240161098a565b841561113a576001600160a01b03808b1660009081526031602090815260409091208451815493166001600160a01b03198416811782559185015185939192909183916001600160a81b031990911617600160a01b8360028111156110f8576110f8611c50565b02179055506040820151600182015560608201516002820155608082015160038201805460ff191691151591909117905560a0909101516004909101556111d9565b6001600160a01b03808b1660009081526030602090815260409091208451815493166001600160a01b03198416811782559185015185939192909183916001600160a81b031990911617600160a01b83600281111561119b5761119b611c50565b02179055506040820151600182015560608201516002820155608082015160038201805460ff191691151591909117905560a0909101516004909101555b604080516001600160a01b038c811682528b16602082015287151581830152861515606082015290517fcbde3c20c68ba036ef9cd1c074d075187be3640bc7a5b3fb85f045b07ab9a9309181900360800190a150505050505050505050565b61124061127f565b6001600160a01b03811661126a57604051631e4fbdf760e01b81526000600482015260240161098a565b61127381611492565b50565b6112738161137f565b336112b17f9016d09d72d40fdae2fd8ceac6b6234c7706214fd39c1cd1e609a0528c199300546001600160a01b031690565b6001600160a01b0316146107ef5760405163118cdaa760e01b815233600482015260240161098a565b306001600160a01b037f000000000000000000000000000000000000000000000000000000000000000016148061136157507f00000000000000000000000000000000000000000000000000000000000000006001600160a01b0316611355600080516020612249833981519152546001600160a01b031690565b6001600160a01b031614155b156107ef5760405163703e46dd60e11b815260040160405180910390fd5b61127361127f565b816001600160a01b03166352d1902d6040518163ffffffff1660e01b8152600401602060405180830381865afa9250505080156113e1575060408051601f3d908101601f191682019092526113de91810190611f1b565b60015b61140957604051634c9c8ce360e01b81526001600160a01b038316600482015260240161098a565b600080516020612249833981519152811461143a57604051632a87526960e21b81526004810182905260240161098a565b6114448383611796565b505050565b306001600160a01b037f000000000000000000000000000000000000000000000000000000000000000016146107ef5760405163703e46dd60e11b815260040160405180910390fd5b7f9016d09d72d40fdae2fd8ceac6b6234c7706214fd39c1cd1e609a0528c19930080546001600160a01b031981166001600160a01b03848116918217845560405192169182907f8be0079c531659141344cd1fd0a4f28419497f9722a3daafe3b4186f6b6457e090600090a3505050565b8051600090819081906001600160a01b031661153257604051632e054cdf60e21b815260040160405180910390fd5b8360200151600281111561154857611548611c50565b60000361156457835161155a906117ec565b90925090506115c1565b8360200151600281111561157a5761157a611c50565b60010361158c57835161155a90611893565b836020015160028111156115a2576115a2611c50565b6002036115c1576115bb84600001518560a00151611921565b90925090505b81158015906115db57506115d98185604001516119ec565b155b156115ee576108b0828560600151611a01565b5060009392505050565b60008061160560006107f1565b9050670de0b6b3a764000061161a8483611f4a565b6116249190611f77565b9392505050565b611633611a49565b61127381611a92565b6107ef611a49565b600081611668576001600160a01b0383166000908152603060205260409020611681565b6001600160a01b03831660009081526031602052604090205b80549091506001600160a01b031661169b5761144461127f565b600a546001600160a01b0316331461144457604051633bc92b2160e01b815260040160405180910390fd5b60008160028111156116da576116da611c50565b60000361174a57826001600160a01b031663313ce5676040518163ffffffff1660e01b8152600401602060405180830381865afa15801561171f573d6000803e3d6000fd5b505050506040513d601f19601f820116820180604052508101906117439190611f99565b9050611790565b81600281111561175c5761175c611c50565b60010361176b57506012611790565b81600281111561177d5761177d611c50565b60020361178c57506012611790565b5060005b92915050565b61179f82611a9a565b6040516001600160a01b038316907fbc7cd75a20ee27fd9adebab32041f755214dbc6bffa90cc0225b39da2e5c2d3b90600090a28051156117e4576114448282611aff565b61076b611b75565b600080826001600160a01b031663feaf968c6040518163ffffffff1660e01b815260040160a060405180830381865afa925050508015611849575060408051601f3d908101601f1916820190925261184691810190611fd6565b60015b61185857506000905080915091565b69ffffffffffffffffffff85161580159061187257508115155b801561187d57508315155b15611889578396508195505b5050505050915091565b600080600080846001600160a01b03166357de26a46040518163ffffffff1660e01b81526004016040805180830381865afa1580156118d6573d6000803e3d6000fd5b505050506040513d601f19601f820116820180604052508101906118fa9190612026565b63ffffffff1691509150600082601b0b131561191a5781601b0b93508092505b5050915091565b6040516396834ad360e01b8152600481018290526000908190849082906001600160a01b038316906396834ad390602401608060405180830381865afa15801561196f573d6000803e3d6000fd5b505050506040513d601f19601f82011682018060405250810190611993919061206f565b90508060600151925080604001516000196119ae9190612106565b6119b990600a61220a565b81516119d79067ffffffffffffffff16670de0b6b3a7640000611f4a565b6119e19190611f77565b935050509250929050565b6000816119f98442612219565b119392505050565b60006012821115611a295760128203600a0a8381611a2157611a21611f61565b049050611790565b6012821015611a425781601203600a0a83029050611790565b5090919050565b7ff0c57e16840df040f15088dc2f81fe391c3923bec73e23a9662efc9c229c6a0054600160401b900460ff166107ef57604051631afcd79f60e31b815260040160405180910390fd5b611240611a49565b806001600160a01b03163b600003611ad057604051634c9c8ce360e01b81526001600160a01b038216600482015260240161098a565b60008051602061224983398151915280546001600160a01b0319166001600160a01b0392909216919091179055565b6060600080846001600160a01b031684604051611b1c919061222c565b600060405180830381855af49150503d8060008114611b57576040519150601f19603f3d011682016040523d82523d6000602084013e611b5c565b606091505b5091509150611b6c858383611b94565b95945050505050565b34156107ef5760405163b398979f60e01b815260040160405180910390fd5b606082611ba957611ba482611bf0565b611624565b8151158015611bc057506001600160a01b0384163b155b15611be957604051639996b31560e01b81526001600160a01b038516600482015260240161098a565b5092915050565b805115611c005780518082602001fd5b604051630a12f52160e11b815260040160405180910390fd5b80356001600160a01b0381168114611c3057600080fd5b919050565b600060208284031215611c4757600080fd5b61162482611c19565b634e487b7160e01b600052602160045260246000fd5b6001600160a01b038716815260c0810160038710611c9457634e487b7160e01b600052602160045260246000fd5b6020820196909652604081019490945260608401929092521515608083015260a090910152919050565b634e487b7160e01b600052604160045260246000fd5b604051601f8201601f1916810167ffffffffffffffff81118282101715611cfd57611cfd611cbe565b604052919050565b60008060408385031215611d1857600080fd5b611d2183611c19565b915060208084013567ffffffffffffffff80821115611d3f57600080fd5b818601915086601f830112611d5357600080fd5b813581811115611d6557611d65611cbe565b611d77601f8201601f19168501611cd4565b91508082528784828501011115611d8d57600080fd5b80848401858401376000848284010152508093505050509250929050565b60005b83811015611dc6578181015183820152602001611dae565b50506000910152565b6020815260008251806020840152611dee816040850160208701611dab565b601f01601f19169190910160400192915050565b60008060208385031215611e1557600080fd5b823567ffffffffffffffff80821115611e2d57600080fd5b818501915085601f830112611e4157600080fd5b813581811115611e5057600080fd5b8660208260051b8501011115611e6557600080fd5b60209290920196919550909350505050565b80358015158114611c3057600080fd5b600080600080600080600060e0888a031215611ea257600080fd5b611eab88611c19565b9650611eb960208901611c19565b9550604088013560038110611ecd57600080fd5b945060608801359350611ee260808901611e77565b9250611ef060a08901611e77565b915060c0880135905092959891949750929550565b634e487b7160e01b600052603260045260246000fd5b600060208284031215611f2d57600080fd5b5051919050565b634e487b7160e01b600052601160045260246000fd5b808202811582820484141761179057611790611f34565b634e487b7160e01b600052601260045260246000fd5b600082611f9457634e487b7160e01b600052601260045260246000fd5b500490565b600060208284031215611fab57600080fd5b815160ff8116811461162457600080fd5b805169ffffffffffffffffffff81168114611c3057600080fd5b600080600080600060a08688031215611fee57600080fd5b611ff786611fbc565b945060208601519350604086015192506060860151915061201a60808701611fbc565b90509295509295909350565b6000806040838503121561203957600080fd5b825180601b0b811461204a57600080fd5b602084015190925063ffffffff8116811461206457600080fd5b809150509250929050565b60006080828403121561208157600080fd5b6040516080810167ffffffffffffffff82821081831117156120a5576120a5611cbe565b81604052845191508160070b82146120bc57600080fd5b90825260208401519080821682146120d357600080fd5b5060208201526040830151600381900b81146120ee57600080fd5b60408201526060928301519281019290925250919050565b60008260030b8260030b028060030b9150808214611be957611be9611f34565b600181815b8085111561216157816000190482111561214757612147611f34565b8085161561215457918102915b93841c939080029061212b565b509250929050565b60008261217857506001611790565b8161218557506000611790565b816001811461219b57600281146121a5576121c1565b6001915050611790565b60ff8411156121b6576121b6611f34565b50506001821b611790565b5060208310610133831016604e8410600b84101617156121e4575081810a611790565b6121ee8383612126565b806000190482111561220257612202611f34565b029392505050565b600061162460ff841683612169565b8181038181111561179057611790611f34565b6000825161223e818460208701611dab565b919091019291505056fe360894a13ba1a3210667c828492db98dca3e2076cc3735a920a3ca505d382bbca164736f6c6343000817000a",
  "devdoc": {
    "errors": {
      "AddressEmptyCode(address)": [
        {
          "details": "There's no code at `target` (it is not a contract)."
        }
      ],
      "ERC1967InvalidImplementation(address)": [
        {
          "details": "The `implementation` of the proxy is invalid."
        }
      ],
      "ERC1967NonPayable()": [
        {
          "details": "An upgrade function sees `msg.value > 0` that may be lost."
        }
      ],
      "FailedInnerCall()": [
        {
          "details": "A call to an address target failed. The target may have reverted."
        }
      ],
      "InvalidInitialization()": [
        {
          "details": "The contract is already initialized."
        }
      ],
      "NotInitializing()": [
        {
          "details": "The contract is not initializing."
        }
      ],
      "OwnableInvalidOwner(address)": [
        {
          "details": "The owner is not a valid owner account. (eg. `address(0)`)"
        }
      ],
      "OwnableUnauthorizedAccount(address)": [
        {
          "details": "The caller account is not authorized to perform an operation."
        }
      ],
      "PriceFeed__ExistingOracleRequired()": [
        {
          "details": "Error emitted when setting up fallback oracle without no existing primary oracle."
        }
      ],
      "PriceFeed__InvalidDecimalsError()": [
        {
          "details": "Error emitted when the decimal precision of price oracle is zero."
        }
      ],
      "PriceFeed__InvalidOracleResponseError(address)": [
        {
          "details": "Error emitted when the fetched price for a specific token is zero.",
          "params": {
            "_token": "The token address to fetch price."
          }
        }
      ],
      "PriceFeed__MissingPythFeedId()": [
        {
          "details": "Error emitted when the price feed is missing Pyth feed id."
        }
      ],
      "PriceFeed__TimelockOnlyError()": [
        {
          "details": "Error emitted when the caller is not Timelock contract."
        }
      ],
      "PriceFeed__UnknownAssetError()": [
        {
          "details": "Error emitted when returning oracle address for unknown asset."
        }
      ],
      "UUPSUnauthorizedCallContext()": [
        {
          "details": "The call is from an unauthorized context."
        }
      ],
      "UUPSUnsupportedProxiableUUID(bytes32)": [
        {
          "details": "The storage `slot` is unsupported as a UUID."
        }
      ]
    },
    "events": {
      "Initialized(uint64)": {
        "details": "Triggered when the contract has been initialized or reinitialized."
      },
      "NewOracleRegistered(address,address,bool,bool)": {
        "details": "Emitted when new oracle for a specific asset is registered.",
        "params": {
          "_isEthIndexed": "The flag to indicate whether to fetch price based on ETH.",
          "_isFallback": "The flag to indicate whether to set as fallback oracle.",
          "_oracleAddress": "The oracle address.",
          "_token": "The asset address."
        }
      },
      "Upgraded(address)": {
        "details": "Emitted when the implementation is upgraded."
      }
    },
    "kind": "dev",
    "methods": {
      "fetchPrice(address)": {
        "details": "Callers:    - BorrowerOperations.openTrenBox()    - BorrowerOperations.adjustTrenBox()    - BorrowerOperations.closeTrenBox()    - TrenBoxManagerOperations.liquidateTrenBoxes()    - TrenBoxManagerOperations.batchLiquidateTrenBoxes()    - TrenBoxManagerOperations.redeemCollateral()",
        "params": {
          "_token": "The asset address."
        }
      },
      "initialize(address)": {
        "details": "Runs all the setup logic only once.",
        "params": {
          "initialOwner": "The address of initial owner."
        }
      },
      "owner()": {
        "details": "Returns the address of the current owner."
      },
      "proxiableUUID()": {
        "details": "Implementation of the ERC1822 {proxiableUUID} function. This returns the storage slot used by the implementation. It is used to validate the implementation's compatibility when performing an upgrade. IMPORTANT: A proxy pointing at a proxiable contract should not be considered proxiable itself, because this risks bricking a proxy that upgrades to it, by delegating to itself until out of gas. Thus it is critical that this function revert if invoked through a proxy. This is guaranteed by the `notDelegated` modifier."
      },
      "renounceOwnership()": {
        "details": "Leaves the contract without owner. It will not be possible to call `onlyOwner` functions. Can only be called by the current owner. NOTE: Renouncing ownership will leave the contract without an owner, thereby disabling any functionality that is only available to the owner."
      },
      "setOracle(address,address,uint8,uint256,bool,bool,bytes32)": {
        "params": {
          "_additionalData": "The additional data required by the oracle provider.",
          "_isEthIndexed": "The flag to indicate whether to fetch price based on ETH.",
          "_isFallback": "The flag to indicate whether to set as fallback oracle.",
          "_oracle": "The oracle address.",
          "_timeoutSeconds": "The maximum period that lasts a stale price.",
          "_token": "The asset address.",
          "_type": "The provider type."
        }
      },
      "transferOwnership(address)": {
        "details": "Transfers ownership of the contract to a new account (`newOwner`). Can only be called by the current owner."
      },
      "upgradeToAndCall(address,bytes)": {
        "custom:oz-upgrades-unsafe-allow-reachable": "delegatecall",
        "details": "Upgrade the implementation of the proxy to `newImplementation`, and subsequently execute the function call encoded in `data`. Calls {_authorizeUpgrade}. Emits an {Upgraded} event."
      }
    },
    "title": "PriceFeed",
    "version": 1
  },
  "userdoc": {
    "kind": "user",
    "methods": {
      "NAME()": {
        "notice": "The contract name."
      },
      "TARGET_DIGITS()": {
        "notice": "Used to convert an oracle price answer to an 18-digit precision uint"
      },
      "fallbacks(address)": {
        "notice": "The mapping from an asset address to fallback oracle record."
      },
      "fetchPrice(address)": {
        "notice": "Fetches the price for an asset from a previously configured oracle."
      },
      "oracles(address)": {
        "notice": "The mapping from an asset address to primary oracle record."
      },
      "setOracle(address,address,uint8,uint256,bool,bool,bytes32)": {
        "notice": "Sets an oracle information for a specific asset."
      }
    },
    "notice": "Contains a directory of oracles for fetching prices for assets based on their addresses; optionally fallback oracles can also be registered in case the primary source fails or is stale.",
    "version": 1
  },
  "storageLayout": {
    "storage": [
      {
        "astId": 10105,
        "contract": "contracts/PriceFeed.sol:PriceFeed",
        "label": "adminContract",
        "offset": 0,
        "slot": "0",
        "type": "t_address"
      },
      {
        "astId": 10107,
        "contract": "contracts/PriceFeed.sol:PriceFeed",
        "label": "borrowerOperations",
        "offset": 0,
        "slot": "1",
        "type": "t_address"
      },
      {
        "astId": 10109,
        "contract": "contracts/PriceFeed.sol:PriceFeed",
        "label": "communityIssuance",
        "offset": 0,
        "slot": "2",
        "type": "t_address"
      },
      {
        "astId": 10111,
        "contract": "contracts/PriceFeed.sol:PriceFeed",
        "label": "debtToken",
        "offset": 0,
        "slot": "3",
        "type": "t_address"
      },
      {
        "astId": 10113,
        "contract": "contracts/PriceFeed.sol:PriceFeed",
        "label": "feeCollector",
        "offset": 0,
        "slot": "4",
        "type": "t_address"
      },
      {
        "astId": 10115,
        "contract": "contracts/PriceFeed.sol:PriceFeed",
        "label": "flashLoanAddress",
        "offset": 0,
        "slot": "5",
        "type": "t_address"
      },
      {
        "astId": 10117,
        "contract": "contracts/PriceFeed.sol:PriceFeed",
        "label": "trenStaking",
        "offset": 0,
        "slot": "6",
        "type": "t_address"
      },
      {
        "astId": 10119,
        "contract": "contracts/PriceFeed.sol:PriceFeed",
        "label": "priceFeed",
        "offset": 0,
        "slot": "7",
        "type": "t_address"
      },
      {
        "astId": 10121,
        "contract": "contracts/PriceFeed.sol:PriceFeed",
        "label": "sortedTrenBoxes",
        "offset": 0,
        "slot": "8",
        "type": "t_address"
      },
      {
        "astId": 10123,
        "contract": "contracts/PriceFeed.sol:PriceFeed",
        "label": "stabilityPool",
        "offset": 0,
        "slot": "9",
        "type": "t_address"
      },
      {
        "astId": 10125,
        "contract": "contracts/PriceFeed.sol:PriceFeed",
        "label": "timelockAddress",
        "offset": 0,
        "slot": "10",
        "type": "t_address"
      },
      {
        "astId": 10127,
        "contract": "contracts/PriceFeed.sol:PriceFeed",
        "label": "treasuryAddress",
        "offset": 0,
        "slot": "11",
        "type": "t_address"
      },
      {
        "astId": 10129,
        "contract": "contracts/PriceFeed.sol:PriceFeed",
        "label": "trenBoxManager",
        "offset": 0,
        "slot": "12",
        "type": "t_address"
      },
      {
        "astId": 10131,
        "contract": "contracts/PriceFeed.sol:PriceFeed",
        "label": "trenBoxManagerOperations",
        "offset": 0,
        "slot": "13",
        "type": "t_address"
      },
      {
        "astId": 10133,
        "contract": "contracts/PriceFeed.sol:PriceFeed",
        "label": "trenBoxStorage",
        "offset": 0,
        "slot": "14",
        "type": "t_address"
      },
      {
        "astId": 10135,
        "contract": "contracts/PriceFeed.sol:PriceFeed",
        "label": "isAddressSetupInitialized",
        "offset": 20,
        "slot": "14",
        "type": "t_bool"
      },
      {
        "astId": 10140,
        "contract": "contracts/PriceFeed.sol:PriceFeed",
        "label": "__gap",
        "offset": 0,
        "slot": "15",
        "type": "t_array(t_uint256)33_storage"
      },
      {
        "astId": 15568,
        "contract": "contracts/PriceFeed.sol:PriceFeed",
        "label": "oracles",
        "offset": 0,
        "slot": "48",
        "type": "t_mapping(t_address,t_struct(OracleRecord)13752_storage)"
      },
      {
        "astId": 15574,
        "contract": "contracts/PriceFeed.sol:PriceFeed",
        "label": "fallbacks",
        "offset": 0,
        "slot": "49",
        "type": "t_mapping(t_address,t_struct(OracleRecord)13752_storage)"
      }
    ],
    "types": {
      "t_address": {
        "encoding": "inplace",
        "label": "address",
        "numberOfBytes": "20"
      },
      "t_array(t_uint256)33_storage": {
        "base": "t_uint256",
        "encoding": "inplace",
        "label": "uint256[33]",
        "numberOfBytes": "1056"
      },
      "t_bool": {
        "encoding": "inplace",
        "label": "bool",
        "numberOfBytes": "1"
      },
      "t_bytes32": {
        "encoding": "inplace",
        "label": "bytes32",
        "numberOfBytes": "32"
      },
      "t_enum(ProviderType)13737": {
        "encoding": "inplace",
        "label": "enum IPriceFeed.ProviderType",
        "numberOfBytes": "1"
      },
      "t_mapping(t_address,t_struct(OracleRecord)13752_storage)": {
        "encoding": "mapping",
        "key": "t_address",
        "label": "mapping(address => struct IPriceFeed.OracleRecord)",
        "numberOfBytes": "32",
        "value": "t_struct(OracleRecord)13752_storage"
      },
      "t_struct(OracleRecord)13752_storage": {
        "encoding": "inplace",
        "label": "struct IPriceFeed.OracleRecord",
        "members": [
          {
            "astId": 13740,
            "contract": "contracts/PriceFeed.sol:PriceFeed",
            "label": "oracleAddress",
            "offset": 0,
            "slot": "0",
            "type": "t_address"
          },
          {
            "astId": 13743,
            "contract": "contracts/PriceFeed.sol:PriceFeed",
            "label": "providerType",
            "offset": 20,
            "slot": "0",
            "type": "t_enum(ProviderType)13737"
          },
          {
            "astId": 13745,
            "contract": "contracts/PriceFeed.sol:PriceFeed",
            "label": "timeoutSeconds",
            "offset": 0,
            "slot": "1",
            "type": "t_uint256"
          },
          {
            "astId": 13747,
            "contract": "contracts/PriceFeed.sol:PriceFeed",
            "label": "decimals",
            "offset": 0,
            "slot": "2",
            "type": "t_uint256"
          },
          {
            "astId": 13749,
            "contract": "contracts/PriceFeed.sol:PriceFeed",
            "label": "isEthIndexed",
            "offset": 0,
            "slot": "3",
            "type": "t_bool"
          },
          {
            "astId": 13751,
            "contract": "contracts/PriceFeed.sol:PriceFeed",
            "label": "additionalData",
            "offset": 0,
            "slot": "4",
            "type": "t_bytes32"
          }
        ],
        "numberOfBytes": "160"
      },
      "t_uint256": {
        "encoding": "inplace",
        "label": "uint256",
        "numberOfBytes": "32"
      }
    }
  }
}