{
  "address": "0x6c08c8eBf74f668743D912f43312733EA2C02E10",
  "abi": [
    {
      "inputs": [],
      "name": "PriceFeed__ExistingOracleRequired",
      "type": "error"
    },
    {
      "inputs": [],
      "name": "PriceFeed__InvalidDecimalsError",
      "type": "error"
    },
    {
      "inputs": [
        {
          "internalType": "address",
          "name": "_token",
          "type": "address"
        }
      ],
      "name": "PriceFeed__InvalidOracleResponseError",
      "type": "error"
    },
    {
      "inputs": [],
      "name": "PriceFeed__MissingPythFeedId",
      "type": "error"
    },
    {
      "inputs": [],
      "name": "PriceFeed__TimelockOnlyError",
      "type": "error"
    },
    {
      "inputs": [],
      "name": "PriceFeed__UnknownAssetError",
      "type": "error"
    },
    {
      "anonymous": false,
      "inputs": [
        {
          "indexed": false,
          "internalType": "address",
          "name": "_token",
          "type": "address"
        },
        {
          "indexed": false,
          "internalType": "address",
          "name": "_oracleAddress",
          "type": "address"
        },
        {
          "indexed": false,
          "internalType": "bool",
          "name": "_isEthIndexed",
          "type": "bool"
        },
        {
          "indexed": false,
          "internalType": "bool",
          "name": "_isFallback",
          "type": "bool"
        }
      ],
      "name": "NewOracleRegistered",
      "type": "event"
    },
    {
      "inputs": [],
      "name": "NAME",
      "outputs": [
        {
          "internalType": "string",
          "name": "",
          "type": "string"
        }
      ],
      "stateMutability": "view",
      "type": "function"
    },
    {
      "inputs": [
        {
          "internalType": "address",
          "name": "_asset",
          "type": "address"
        }
      ],
      "name": "fetchPrice",
      "outputs": [
        {
          "internalType": "uint256",
          "name": "",
          "type": "uint256"
        }
      ],
      "stateMutability": "view",
      "type": "function"
    },
    {
      "inputs": [
        {
          "internalType": "address",
          "name": "_asset",
          "type": "address"
        }
      ],
      "name": "getPrice",
      "outputs": [
        {
          "internalType": "uint256",
          "name": "",
          "type": "uint256"
        }
      ],
      "stateMutability": "view",
      "type": "function"
    },
    {
      "inputs": [
        {
          "internalType": "address",
          "name": "asset",
          "type": "address"
        }
      ],
      "name": "prices",
      "outputs": [
        {
          "internalType": "uint256",
          "name": "price",
          "type": "uint256"
        }
      ],
      "stateMutability": "view",
      "type": "function"
    },
    {
      "inputs": [
        {
          "internalType": "address",
          "name": "_token",
          "type": "address"
        },
        {
          "internalType": "address",
          "name": "_oracle",
          "type": "address"
        },
        {
          "internalType": "enum IPriceFeed.ProviderType",
          "name": "_type",
          "type": "uint8"
        },
        {
          "internalType": "uint256",
          "name": "_timeoutMinutes",
          "type": "uint256"
        },
        {
          "internalType": "bool",
          "name": "_isEthIndexed",
          "type": "bool"
        },
        {
          "internalType": "bool",
          "name": "_isFallback",
          "type": "bool"
        },
        {
          "internalType": "bytes32",
          "name": "_additionalData",
          "type": "bytes32"
        }
      ],
      "name": "setOracle",
      "outputs": [],
      "stateMutability": "nonpayable",
      "type": "function"
    },
    {
      "inputs": [
        {
          "internalType": "address",
          "name": "_asset",
          "type": "address"
        },
        {
          "internalType": "uint256",
          "name": "_price",
          "type": "uint256"
        }
      ],
      "name": "setPrice",
      "outputs": [],
      "stateMutability": "nonpayable",
      "type": "function"
    }
  ],
  "transactionHash": "0xa39a39df865d5d7301a8f71a2ce01d2799873820838d2263218ffb1f59df9bfd",
  "args": [],
  "numDeployments": 1,
  "solcInputHash": "a7f7c188236ff897d7313c3fc2b44a12",
  "bytecode": "0x608060405234801561001057600080fd5b50610330806100206000396000f3fe608060405234801561001057600080fd5b50600436106100615760003560e01c8062e4768b1461006657806341976e0914610092578063a3f4df7e146100ce578063ace1798e1461010a578063ca4d7b741461011d578063cfed246b14610134575b600080fd5b6100906100743660046101e1565b6001600160a01b03909116600090815260208190526040902055565b005b6100bb6100a036600461020b565b6001600160a01b031660009081526020819052604090205490565b6040519081526020015b60405180910390f35b6100fd6040518060400160405280601081526020016f141c9a58d95199595915195cdd1b995d60821b81525081565b6040516100c5919061022d565b6100bb61011836600461020b565b610154565b61009061012b36600461028c565b50505050505050565b6100bb61014236600461020b565b60006020819052908152604090205481565b6040516341976e0960e01b81526001600160a01b038216600482015260009030906341976e0990602401602060405180830381865afa15801561019b573d6000803e3d6000fd5b505050506040513d601f19601f820116820180604052508101906101bf919061030a565b92915050565b80356001600160a01b03811681146101dc57600080fd5b919050565b600080604083850312156101f457600080fd5b6101fd836101c5565b946020939093013593505050565b60006020828403121561021d57600080fd5b610226826101c5565b9392505050565b60006020808352835180602085015260005b8181101561025b5785810183015185820160400152820161023f565b506000604082860101526040601f19601f8301168501019250505092915050565b803580151581146101dc57600080fd5b600080600080600080600060e0888a0312156102a757600080fd5b6102b0886101c5565b96506102be602089016101c5565b95506040880135600381106102d257600080fd5b9450606088013593506102e76080890161027c565b92506102f560a0890161027c565b915060c0880135905092959891949750929550565b60006020828403121561031c57600080fd5b505191905056fea164736f6c6343000817000a",
  "devdoc": {
    "errors": {
      "PriceFeed__ExistingOracleRequired()": [
        {
          "details": "Error emitted when setting up fallback oracle without no existing primary oracle."
        }
      ],
      "PriceFeed__InvalidDecimalsError()": [
        {
          "details": "Error emitted when the decimal precision of price oracle is zero."
        }
      ],
      "PriceFeed__InvalidOracleResponseError(address)": [
        {
          "details": "Error emitted when the fetched price for a specific token is zero.",
          "params": {
            "_token": "The token address to fetch price."
          }
        }
      ],
      "PriceFeed__MissingPythFeedId()": [
        {
          "details": "Error emitted when the price feed is missing Pyth feed id."
        }
      ],
      "PriceFeed__TimelockOnlyError()": [
        {
          "details": "Error emitted when the caller is not Timelock contract."
        }
      ],
      "PriceFeed__UnknownAssetError()": [
        {
          "details": "Error emitted when returning oracle address for unknown asset."
        }
      ]
    },
    "events": {
      "NewOracleRegistered(address,address,bool,bool)": {
        "details": "Emitted when new oracle for a specific asset is registered.",
        "params": {
          "_isEthIndexed": "The flag to indicate whether to fetch price based on ETH.",
          "_isFallback": "The flag to indicate whether to set as fallback oracle.",
          "_oracleAddress": "The oracle address.",
          "_token": "The asset address."
        }
      }
    },
    "kind": "dev",
    "methods": {},
    "version": 1
  },
  "userdoc": {
    "kind": "user",
    "methods": {},
    "version": 1
  },
  "storageLayout": {
    "storage": [
      {
        "astId": 22666,
        "contract": "contracts/TestContracts/PriceFeedTestnet.sol:PriceFeedTestnet",
        "label": "prices",
        "offset": 0,
        "slot": "0",
        "type": "t_mapping(t_address,t_uint256)"
      }
    ],
    "types": {
      "t_address": {
        "encoding": "inplace",
        "label": "address",
        "numberOfBytes": "20"
      },
      "t_mapping(t_address,t_uint256)": {
        "encoding": "mapping",
        "key": "t_address",
        "label": "mapping(address => uint256)",
        "numberOfBytes": "32",
        "value": "t_uint256"
      },
      "t_uint256": {
        "encoding": "inplace",
        "label": "uint256",
        "numberOfBytes": "32"
      }
    }
  }
}