{
  "address": "0x5dA6F400bD28193288A718509C444e958AF1f2B9",
  "abi": [
    {
      "inputs": [
        {
          "internalType": "address",
          "name": "target",
          "type": "address"
        }
      ],
      "name": "AddressEmptyCode",
      "type": "error"
    },
    {
      "inputs": [],
      "name": "ConfigurableAddresses__CommunityIssuanceZeroAddress",
      "type": "error"
    },
    {
      "inputs": [],
      "name": "ConfigurableAddresses__LengthMismatch",
      "type": "error"
    },
    {
      "inputs": [],
      "name": "ConfigurableAddresses__SetupIsInitialized",
      "type": "error"
    },
    {
      "inputs": [],
      "name": "ConfigurableAddresses__TRENStakingZeroAddress",
      "type": "error"
    },
    {
      "inputs": [
        {
          "internalType": "uint256",
          "name": "position",
          "type": "uint256"
        },
        {
          "internalType": "address",
          "name": "address_",
          "type": "address"
        }
      ],
      "name": "ConfigurableAddresses__ZeroAddresses",
      "type": "error"
    },
    {
      "inputs": [
        {
          "internalType": "address",
          "name": "implementation",
          "type": "address"
        }
      ],
      "name": "ERC1967InvalidImplementation",
      "type": "error"
    },
    {
      "inputs": [],
      "name": "ERC1967NonPayable",
      "type": "error"
    },
    {
      "inputs": [],
      "name": "FailedInnerCall",
      "type": "error"
    },
    {
      "inputs": [],
      "name": "InvalidInitialization",
      "type": "error"
    },
    {
      "inputs": [],
      "name": "NotInitializing",
      "type": "error"
    },
    {
      "inputs": [
        {
          "internalType": "address",
          "name": "owner",
          "type": "address"
        }
      ],
      "name": "OwnableInvalidOwner",
      "type": "error"
    },
    {
      "inputs": [
        {
          "internalType": "address",
          "name": "account",
          "type": "address"
        }
      ],
      "name": "OwnableUnauthorizedAccount",
      "type": "error"
    },
    {
      "inputs": [],
      "name": "SortedTrenBoxes__CallerMustBeBorrowerOperationsOrTrenBoxManager",
      "type": "error"
    },
    {
      "inputs": [],
      "name": "SortedTrenBoxes__CallerMustBeTrenBoxManager",
      "type": "error"
    },
    {
      "inputs": [],
      "name": "SortedTrenBoxes__IdCannotBeZeroAddress",
      "type": "error"
    },
    {
      "inputs": [],
      "name": "SortedTrenBoxes__ListAlreadyContainsNode",
      "type": "error"
    },
    {
      "inputs": [],
      "name": "SortedTrenBoxes__ListDoesNotContainNode",
      "type": "error"
    },
    {
      "inputs": [],
      "name": "SortedTrenBoxes__NICRMustBeGreaterThanZero",
      "type": "error"
    },
    {
      "inputs": [],
      "name": "UUPSUnauthorizedCallContext",
      "type": "error"
    },
    {
      "inputs": [
        {
          "internalType": "bytes32",
          "name": "slot",
          "type": "bytes32"
        }
      ],
      "name": "UUPSUnsupportedProxiableUUID",
      "type": "error"
    },
    {
      "anonymous": false,
      "inputs": [
        {
          "indexed": false,
          "internalType": "uint64",
          "name": "version",
          "type": "uint64"
        }
      ],
      "name": "Initialized",
      "type": "event"
    },
    {
      "anonymous": false,
      "inputs": [
        {
          "indexed": true,
          "internalType": "address",
          "name": "_asset",
          "type": "address"
        },
        {
          "indexed": false,
          "internalType": "address",
          "name": "_id",
          "type": "address"
        },
        {
          "indexed": false,
          "internalType": "uint256",
          "name": "_NICR",
          "type": "uint256"
        }
      ],
      "name": "NodeAdded",
      "type": "event"
    },
    {
      "anonymous": false,
      "inputs": [
        {
          "indexed": true,
          "internalType": "address",
          "name": "_asset",
          "type": "address"
        },
        {
          "indexed": false,
          "internalType": "address",
          "name": "_id",
          "type": "address"
        }
      ],
      "name": "NodeRemoved",
      "type": "event"
    },
    {
      "anonymous": false,
      "inputs": [
        {
          "indexed": true,
          "internalType": "address",
          "name": "previousOwner",
          "type": "address"
        },
        {
          "indexed": true,
          "internalType": "address",
          "name": "newOwner",
          "type": "address"
        }
      ],
      "name": "OwnershipTransferred",
      "type": "event"
    },
    {
      "anonymous": false,
      "inputs": [
        {
          "indexed": true,
          "internalType": "address",
          "name": "implementation",
          "type": "address"
        }
      ],
      "name": "Upgraded",
      "type": "event"
    },
    {
      "inputs": [],
      "name": "NAME",
      "outputs": [
        {
          "internalType": "string",
          "name": "",
          "type": "string"
        }
      ],
      "stateMutability": "view",
      "type": "function"
    },
    {
      "inputs": [],
      "name": "UPGRADE_INTERFACE_VERSION",
      "outputs": [
        {
          "internalType": "string",
          "name": "",
          "type": "string"
        }
      ],
      "stateMutability": "view",
      "type": "function"
    },
    {
      "inputs": [],
      "name": "adminContract",
      "outputs": [
        {
          "internalType": "address",
          "name": "",
          "type": "address"
        }
      ],
      "stateMutability": "view",
      "type": "function"
    },
    {
      "inputs": [
        {
          "internalType": "address",
          "name": "newImplementation",
          "type": "address"
        }
      ],
      "name": "authorizeUpgrade",
      "outputs": [],
      "stateMutability": "nonpayable",
      "type": "function"
    },
    {
      "inputs": [],
      "name": "borrowerOperations",
      "outputs": [
        {
          "internalType": "address",
          "name": "",
          "type": "address"
        }
      ],
      "stateMutability": "view",
      "type": "function"
    },
    {
      "inputs": [],
      "name": "communityIssuance",
      "outputs": [
        {
          "internalType": "address",
          "name": "",
          "type": "address"
        }
      ],
      "stateMutability": "view",
      "type": "function"
    },
    {
      "inputs": [
        {
          "internalType": "address",
          "name": "_asset",
          "type": "address"
        },
        {
          "internalType": "address",
          "name": "_id",
          "type": "address"
        }
      ],
      "name": "contains",
      "outputs": [
        {
          "internalType": "bool",
          "name": "",
          "type": "bool"
        }
      ],
      "stateMutability": "view",
      "type": "function"
    },
    {
      "inputs": [],
      "name": "debtToken",
      "outputs": [
        {
          "internalType": "address",
          "name": "",
          "type": "address"
        }
      ],
      "stateMutability": "view",
      "type": "function"
    },
    {
      "inputs": [],
      "name": "feeCollector",
      "outputs": [
        {
          "internalType": "address",
          "name": "",
          "type": "address"
        }
      ],
      "stateMutability": "view",
      "type": "function"
    },
    {
      "inputs": [
        {
          "internalType": "address",
          "name": "_asset",
          "type": "address"
        },
        {
          "internalType": "uint256",
          "name": "_NICR",
          "type": "uint256"
        },
        {
          "internalType": "address",
          "name": "_prevId",
          "type": "address"
        },
        {
          "internalType": "address",
          "name": "_nextId",
          "type": "address"
        }
      ],
      "name": "findInsertPosition",
      "outputs": [
        {
          "internalType": "address",
          "name": "",
          "type": "address"
        },
        {
          "internalType": "address",
          "name": "",
          "type": "address"
        }
      ],
      "stateMutability": "view",
      "type": "function"
    },
    {
      "inputs": [],
      "name": "flashLoanAddress",
      "outputs": [
        {
          "internalType": "address",
          "name": "",
          "type": "address"
        }
      ],
      "stateMutability": "view",
      "type": "function"
    },
    {
      "inputs": [
        {
          "internalType": "address",
          "name": "_asset",
          "type": "address"
        }
      ],
      "name": "getFirst",
      "outputs": [
        {
          "internalType": "address",
          "name": "",
          "type": "address"
        }
      ],
      "stateMutability": "view",
      "type": "function"
    },
    {
      "inputs": [
        {
          "internalType": "address",
          "name": "_asset",
          "type": "address"
        }
      ],
      "name": "getLast",
      "outputs": [
        {
          "internalType": "address",
          "name": "",
          "type": "address"
        }
      ],
      "stateMutability": "view",
      "type": "function"
    },
    {
      "inputs": [
        {
          "internalType": "address",
          "name": "_asset",
          "type": "address"
        },
        {
          "internalType": "address",
          "name": "_id",
          "type": "address"
        }
      ],
      "name": "getNext",
      "outputs": [
        {
          "internalType": "address",
          "name": "",
          "type": "address"
        }
      ],
      "stateMutability": "view",
      "type": "function"
    },
    {
      "inputs": [
        {
          "internalType": "address",
          "name": "_asset",
          "type": "address"
        },
        {
          "internalType": "address",
          "name": "_id",
          "type": "address"
        }
      ],
      "name": "getPrev",
      "outputs": [
        {
          "internalType": "address",
          "name": "",
          "type": "address"
        }
      ],
      "stateMutability": "view",
      "type": "function"
    },
    {
      "inputs": [
        {
          "internalType": "address",
          "name": "_asset",
          "type": "address"
        }
      ],
      "name": "getSize",
      "outputs": [
        {
          "internalType": "uint256",
          "name": "",
          "type": "uint256"
        }
      ],
      "stateMutability": "view",
      "type": "function"
    },
    {
      "inputs": [
        {
          "internalType": "address",
          "name": "initialOwner",
          "type": "address"
        }
      ],
      "name": "initialize",
      "outputs": [],
      "stateMutability": "nonpayable",
      "type": "function"
    },
    {
      "inputs": [
        {
          "internalType": "address",
          "name": "_asset",
          "type": "address"
        },
        {
          "internalType": "address",
          "name": "_id",
          "type": "address"
        },
        {
          "internalType": "uint256",
          "name": "_NICR",
          "type": "uint256"
        },
        {
          "internalType": "address",
          "name": "_prevId",
          "type": "address"
        },
        {
          "internalType": "address",
          "name": "_nextId",
          "type": "address"
        }
      ],
      "name": "insert",
      "outputs": [],
      "stateMutability": "nonpayable",
      "type": "function"
    },
    {
      "inputs": [],
      "name": "isAddressSetupInitialized",
      "outputs": [
        {
          "internalType": "bool",
          "name": "",
          "type": "bool"
        }
      ],
      "stateMutability": "view",
      "type": "function"
    },
    {
      "inputs": [
        {
          "internalType": "address",
          "name": "_asset",
          "type": "address"
        }
      ],
      "name": "isEmpty",
      "outputs": [
        {
          "internalType": "bool",
          "name": "",
          "type": "bool"
        }
      ],
      "stateMutability": "view",
      "type": "function"
    },
    {
      "inputs": [],
      "name": "owner",
      "outputs": [
        {
          "internalType": "address",
          "name": "",
          "type": "address"
        }
      ],
      "stateMutability": "view",
      "type": "function"
    },
    {
      "inputs": [],
      "name": "priceFeed",
      "outputs": [
        {
          "internalType": "address",
          "name": "",
          "type": "address"
        }
      ],
      "stateMutability": "view",
      "type": "function"
    },
    {
      "inputs": [],
      "name": "proxiableUUID",
      "outputs": [
        {
          "internalType": "bytes32",
          "name": "",
          "type": "bytes32"
        }
      ],
      "stateMutability": "view",
      "type": "function"
    },
    {
      "inputs": [
        {
          "internalType": "address",
          "name": "_asset",
          "type": "address"
        },
        {
          "internalType": "address",
          "name": "_id",
          "type": "address"
        },
        {
          "internalType": "uint256",
          "name": "_newNICR",
          "type": "uint256"
        },
        {
          "internalType": "address",
          "name": "_prevId",
          "type": "address"
        },
        {
          "internalType": "address",
          "name": "_nextId",
          "type": "address"
        }
      ],
      "name": "reInsert",
      "outputs": [],
      "stateMutability": "nonpayable",
      "type": "function"
    },
    {
      "inputs": [
        {
          "internalType": "address",
          "name": "_asset",
          "type": "address"
        },
        {
          "internalType": "address",
          "name": "_id",
          "type": "address"
        }
      ],
      "name": "remove",
      "outputs": [],
      "stateMutability": "nonpayable",
      "type": "function"
    },
    {
      "inputs": [],
      "name": "renounceOwnership",
      "outputs": [],
      "stateMutability": "nonpayable",
      "type": "function"
    },
    {
      "inputs": [
        {
          "internalType": "address[]",
          "name": "_addresses",
          "type": "address[]"
        }
      ],
      "name": "setAddresses",
      "outputs": [],
      "stateMutability": "nonpayable",
      "type": "function"
    },
    {
      "inputs": [
        {
          "internalType": "address",
          "name": "_communityIssuance",
          "type": "address"
        }
      ],
      "name": "setCommunityIssuance",
      "outputs": [],
      "stateMutability": "nonpayable",
      "type": "function"
    },
    {
      "inputs": [
        {
          "internalType": "address",
          "name": "_trenStaking",
          "type": "address"
        }
      ],
      "name": "setTRENStaking",
      "outputs": [],
      "stateMutability": "nonpayable",
      "type": "function"
    },
    {
      "inputs": [],
      "name": "sortedTrenBoxes",
      "outputs": [
        {
          "internalType": "address",
          "name": "",
          "type": "address"
        }
      ],
      "stateMutability": "view",
      "type": "function"
    },
    {
      "inputs": [],
      "name": "stabilityPool",
      "outputs": [
        {
          "internalType": "address",
          "name": "",
          "type": "address"
        }
      ],
      "stateMutability": "view",
      "type": "function"
    },
    {
      "inputs": [],
      "name": "timelockAddress",
      "outputs": [
        {
          "internalType": "address",
          "name": "",
          "type": "address"
        }
      ],
      "stateMutability": "view",
      "type": "function"
    },
    {
      "inputs": [
        {
          "internalType": "address",
          "name": "newOwner",
          "type": "address"
        }
      ],
      "name": "transferOwnership",
      "outputs": [],
      "stateMutability": "nonpayable",
      "type": "function"
    },
    {
      "inputs": [],
      "name": "treasuryAddress",
      "outputs": [
        {
          "internalType": "address",
          "name": "",
          "type": "address"
        }
      ],
      "stateMutability": "view",
      "type": "function"
    },
    {
      "inputs": [],
      "name": "trenBoxManager",
      "outputs": [
        {
          "internalType": "address",
          "name": "",
          "type": "address"
        }
      ],
      "stateMutability": "view",
      "type": "function"
    },
    {
      "inputs": [],
      "name": "trenBoxManagerOperations",
      "outputs": [
        {
          "internalType": "address",
          "name": "",
          "type": "address"
        }
      ],
      "stateMutability": "view",
      "type": "function"
    },
    {
      "inputs": [],
      "name": "trenBoxStorage",
      "outputs": [
        {
          "internalType": "address",
          "name": "",
          "type": "address"
        }
      ],
      "stateMutability": "view",
      "type": "function"
    },
    {
      "inputs": [
        {
          "internalType": "address",
          "name": "collateral",
          "type": "address"
        }
      ],
      "name": "trenBoxes",
      "outputs": [
        {
          "internalType": "address",
          "name": "head",
          "type": "address"
        },
        {
          "internalType": "address",
          "name": "tail",
          "type": "address"
        },
        {
          "internalType": "uint256",
          "name": "size",
          "type": "uint256"
        }
      ],
      "stateMutability": "view",
      "type": "function"
    },
    {
      "inputs": [],
      "name": "trenStaking",
      "outputs": [
        {
          "internalType": "address",
          "name": "",
          "type": "address"
        }
      ],
      "stateMutability": "view",
      "type": "function"
    },
    {
      "inputs": [
        {
          "internalType": "address",
          "name": "newImplementation",
          "type": "address"
        },
        {
          "internalType": "bytes",
          "name": "data",
          "type": "bytes"
        }
      ],
      "name": "upgradeToAndCall",
      "outputs": [],
      "stateMutability": "payable",
      "type": "function"
    },
    {
      "inputs": [
        {
          "internalType": "address",
          "name": "_asset",
          "type": "address"
        },
        {
          "internalType": "uint256",
          "name": "_NICR",
          "type": "uint256"
        },
        {
          "internalType": "address",
          "name": "_prevId",
          "type": "address"
        },
        {
          "internalType": "address",
          "name": "_nextId",
          "type": "address"
        }
      ],
      "name": "validInsertPosition",
      "outputs": [
        {
          "internalType": "bool",
          "name": "",
          "type": "bool"
        }
      ],
      "stateMutability": "view",
      "type": "function"
    }
  ],
  "transactionHash": "0x03a14f146e7b5ae0f04eb42782c42aa4642491eda3449fe82beb27ba52909a63",
  "args": [],
  "numDeployments": 1,
  "solcInputHash": "ce0a60c92cd27ba5a217c9a57823311c",
  "bytecode": "0x60a06040523060805234801561001457600080fd5b5060805161267c61003e600039600081816111ef01528181611218015261135e015261267c6000f3fe6080604052600436106102465760003560e01c80637f7c149111610139578063c4d66de8116100b6578063eceea2fb1161007a578063eceea2fb1461080d578063ed26cae81461082d578063f1c05a7e1461084d578063f2fde38b1461086d578063f8d898981461088d578063fe060733146108ad57600080fd5b8063c4d66de814610740578063c5f956af14610760578063c8564c6214610780578063cc8b21e4146107a1578063e71b8400146107c157600080fd5b8063b9571721116100fd578063b957172114610692578063bc9b5bd5146106b2578063bff365c4146106d2578063c05c5e9414610700578063c415b95c1461072057600080fd5b80637f7c14911461059c5780638da5cb5b146105bc57806395fb16bb146105f9578063a3f4df7e14610619578063ad3cb1cc1461066157600080fd5b80634f1ef286116101c7578063715018a61161018b578063715018a6146104eb578063741bef1a14610500578063760827151461052057806377553ad41461055c5780637c933c0a1461057c57600080fd5b80634f1ef2861461043c578063504f16711461044f57806352d1902d1461049657806355dafa46146104ab5780636a85d67d146104cb57600080fd5b806339ed25cd1161020e57806339ed25cd146103725780633b725b23146103925780633f84a44d146103dc5780634169467d146103fc5780634bc66f321461041c57600080fd5b806301c931001461024b578063048c661d1461026d5780630a34d4d6146102aa5780630a4314c6146102ca5780631bdb4c8d14610339575b600080fd5b34801561025757600080fd5b5061026b610266366004612311565b6108cd565b005b34801561027957600080fd5b5060095461028d906001600160a01b031681565b6040516001600160a01b0390911681526020015b60405180910390f35b3480156102b657600080fd5b50600d5461028d906001600160a01b031681565b3480156102d657600080fd5b506103136102e5366004612311565b6030602052600090815260409020805460018201546002909201546001600160a01b03918216929091169083565b604080516001600160a01b039485168152939092166020840152908201526060016102a1565b34801561034557600080fd5b5061028d610354366004612311565b6001600160a01b039081166000908152603060205260409020541690565b34801561037e57600080fd5b5061028d61038d36600461232c565b61091e565b34801561039e57600080fd5b506103cc6103ad366004612311565b6001600160a01b03166000908152603060205260409020600201541590565b60405190151581526020016102a1565b3480156103e857600080fd5b50600e5461028d906001600160a01b031681565b34801561040857600080fd5b5060055461028d906001600160a01b031681565b34801561042857600080fd5b50600a5461028d906001600160a01b031681565b61026b61044a366004612375565b610955565b34801561045b57600080fd5b5061048861046a366004612311565b6001600160a01b031660009081526030602052604090206002015490565b6040519081526020016102a1565b3480156104a257600080fd5b50610488610974565b3480156104b757600080fd5b5060065461028d906001600160a01b031681565b3480156104d757600080fd5b5061026b6104e6366004612311565b610991565b3480156104f757600080fd5b5061026b6109e2565b34801561050c57600080fd5b5060075461028d906001600160a01b031681565b34801561052c57600080fd5b5061028d61053b366004612311565b6001600160a01b039081166000908152603060205260409020600101541690565b34801561056857600080fd5b5060015461028d906001600160a01b031681565b34801561058857600080fd5b5061026b610597366004612437565b6109f6565b3480156105a857600080fd5b5061026b6105b736600461232c565b610a4e565b3480156105c857600080fd5b507f9016d09d72d40fdae2fd8ceac6b6234c7706214fd39c1cd1e609a0528c199300546001600160a01b031661028d565b34801561060557600080fd5b5060025461028d906001600160a01b031681565b34801561062557600080fd5b506106546040518060400160405280600f81526020016e536f727465645472656e426f78657360881b81525081565b6040516102a191906124b9565b34801561066d57600080fd5b50610654604051806040016040528060058152602001640352e302e360dc1b81525081565b34801561069e57600080fd5b5061026b6106ad3660046124ec565b610a83565b3480156106be57600080fd5b5061026b6106cd366004612437565b610f2c565b3480156106de57600080fd5b506106f26106ed366004612561565b610fc2565b6040516102a19291906125ae565b34801561070c57600080fd5b5060005461028d906001600160a01b031681565b34801561072c57600080fd5b5060045461028d906001600160a01b031681565b34801561074c57600080fd5b5061026b61075b366004612311565b610fdf565b34801561076c57600080fd5b50600b5461028d906001600160a01b031681565b34801561078c57600080fd5b50600e546103cc90600160a01b900460ff1681565b3480156107ad57600080fd5b5060085461028d906001600160a01b031681565b3480156107cd57600080fd5b5061028d6107dc36600461232c565b6001600160a01b03918216600090815260306020908152604080832093851683526003909301905220600101541690565b34801561081957600080fd5b506103cc610828366004612561565b6110f7565b34801561083957600080fd5b506103cc61084836600461232c565b611110565b34801561085957600080fd5b50600c5461028d906001600160a01b031681565b34801561087957600080fd5b5061026b610888366004612311565b611142565b34801561089957600080fd5b5060035461028d906001600160a01b031681565b3480156108b957600080fd5b5061026b6108c8366004612311565b611180565b6108d5611189565b6001600160a01b0381166108fc576040516385d3330760e01b815260040160405180910390fd5b600680546001600160a01b0319166001600160a01b0392909216919091179055565b6001600160a01b03808316600090815260306020908152604080832085851684526003019091529020546101009004165b92915050565b61095d6111e4565b61096682611289565b6109708282611291565b5050565b600061097e611353565b5060008051602061265083398151915290565b610999611189565b6001600160a01b0381166109c05760405163706ebc6560e11b815260040160405180910390fd5b600280546001600160a01b0319166001600160a01b0392909216919091179055565b6109ea611189565b6109f4600061139c565b565b6001546001600160a01b03163314801590610a1c5750600c546001600160a01b03163314155b15610a3a57604051631028aee160e31b815260040160405180910390fd5b610a47858585858561140d565b5050505050565b600c546001600160a01b03163314610a7957604051631613adff60e21b815260040160405180910390fd5b6109708282611766565b610a8b611189565b600e54600160a01b900460ff1615610ab557604051625f22e960e41b815260040160405180910390fd5b600d8114610ad657604051633f5a111d60e21b815260040160405180910390fd5b60005b600d811015610b79576000838383818110610af657610af66125c8565b9050602002016020810190610b0b9190612311565b6001600160a01b031603610b715780838383818110610b2c57610b2c6125c8565b9050602002016020810190610b419190612311565b604051630d9d339f60e01b815260048101929092526001600160a01b031660248201526044015b60405180910390fd5b600101610ad9565b5081816000818110610b8d57610b8d6125c8565b9050602002016020810190610ba29190612311565b600080546001600160a01b0319166001600160a01b039290921691909117905581816001818110610bd557610bd56125c8565b9050602002016020810190610bea9190612311565b600180546001600160a01b0319166001600160a01b039290921691909117905581816002818110610c1d57610c1d6125c8565b9050602002016020810190610c329190612311565b600380546001600160a01b0319166001600160a01b039290921691909117815582908290818110610c6557610c656125c8565b9050602002016020810190610c7a9190612311565b600480546001600160a01b0319166001600160a01b039290921691909117815582908290818110610cad57610cad6125c8565b9050602002016020810190610cc29190612311565b600580546001600160a01b0319166001600160a01b039290921691909117815582908290818110610cf557610cf56125c8565b9050602002016020810190610d0a9190612311565b600780546001600160a01b0319166001600160a01b039290921691909117905581816006818110610d3d57610d3d6125c8565b9050602002016020810190610d529190612311565b600880546001600160a01b0319166001600160a01b039290921691909117905581816007818110610d8557610d856125c8565b9050602002016020810190610d9a9190612311565b600980546001600160a01b0319166001600160a01b039290921691909117905581816008818110610dcd57610dcd6125c8565b9050602002016020810190610de29190612311565b600a80546001600160a01b0319166001600160a01b039290921691909117905581816009818110610e1557610e156125c8565b9050602002016020810190610e2a9190612311565b600b80546001600160a01b0319166001600160a01b03929092169190911790558181600a818110610e5d57610e5d6125c8565b9050602002016020810190610e729190612311565b600c80546001600160a01b0319166001600160a01b03929092169190911790558181600b818110610ea557610ea56125c8565b9050602002016020810190610eba9190612311565b600d80546001600160a01b0319166001600160a01b03929092169190911790558181600c818110610eed57610eed6125c8565b9050602002016020810190610f029190612311565b600e80546001600160a81b0319166001600160a01b039290921691909117600160a01b1790555050565b6001546001600160a01b03163314801590610f525750600c546001600160a01b03163314155b15610f7057604051631028aee160e31b815260040160405180910390fd5b610f7a8585611110565b610f975760405163149f8b6360e31b815260040160405180910390fd5b82600003610fb85760405163d58a878560e01b815260040160405180910390fd5b610a3a8585611766565b600080610fd1868686866119b1565b915091505b94509492505050565b7ff0c57e16840df040f15088dc2f81fe391c3923bec73e23a9662efc9c229c6a008054600160401b810460ff16159067ffffffffffffffff166000811580156110255750825b905060008267ffffffffffffffff1660011480156110425750303b155b905081158015611050575080155b1561106e5760405163f92ee8a960e01b815260040160405180910390fd5b845467ffffffffffffffff19166001178555831561109857845460ff60401b1916600160401b1785555b6110a186611b88565b6110a9611b99565b83156110ef57845460ff60401b19168555604051600181527fc7f505b2f371ae2175ee4913f4499e1f2633a7b5936321eed1cdaeb6115181d29060200160405180910390a15b505050505050565b600061110585858585611ba1565b90505b949350505050565b6001600160a01b0391821660009081526030602090815260408083209390941682526003909201909152205460ff1690565b61114a611189565b6001600160a01b03811661117457604051631e4fbdf760e01b815260006004820152602401610b68565b61117d8161139c565b50565b61117d81611289565b336111bb7f9016d09d72d40fdae2fd8ceac6b6234c7706214fd39c1cd1e609a0528c199300546001600160a01b031690565b6001600160a01b0316146109f45760405163118cdaa760e01b8152336004820152602401610b68565b306001600160a01b037f000000000000000000000000000000000000000000000000000000000000000016148061126b57507f00000000000000000000000000000000000000000000000000000000000000006001600160a01b031661125f600080516020612650833981519152546001600160a01b031690565b6001600160a01b031614155b156109f45760405163703e46dd60e11b815260040160405180910390fd5b61117d611189565b816001600160a01b03166352d1902d6040518163ffffffff1660e01b8152600401602060405180830381865afa9250505080156112eb575060408051601f3d908101601f191682019092526112e8918101906125de565b60015b61131357604051634c9c8ce360e01b81526001600160a01b0383166004820152602401610b68565b600080516020612650833981519152811461134457604051632a87526960e21b815260048101829052602401610b68565b61134e8383611e3d565b505050565b306001600160a01b037f000000000000000000000000000000000000000000000000000000000000000016146109f45760405163703e46dd60e11b815260040160405180910390fd5b7f9016d09d72d40fdae2fd8ceac6b6234c7706214fd39c1cd1e609a0528c19930080546001600160a01b031981166001600160a01b03848116918217845560405192169182907f8be0079c531659141344cd1fd0a4f28419497f9722a3daafe3b4186f6b6457e090600090a3505050565b836001600160a01b03811661143557604051632b1156d160e21b815260040160405180910390fd5b83806000036114575760405163d58a878560e01b815260040160405180910390fd5b6001600160a01b038781166000908152603060209081526040808320938a1683526003840190915290205460ff16156114a357604051633f87282f60e01b815260040160405180910390fd5b84846114b18a898484611ba1565b6114c7576114c18a8984846119b1565b90925090505b6001600160a01b03808a1660009081526003850160205260409020805460ff1916600117815590831615801561150457506001600160a01b038216155b156115365783546001600160a01b038b166001600160a01b0319918216811786556001860180549092161790556116fe565b6001600160a01b03831661159e5783548154610100600160a81b0319166101006001600160a01b0392831602178255845481166000908152600386016020526040902060010180546001600160a01b0319908116928d169283179091558554161784556116fe565b6001600160a01b03821661160d576001848101805491830180546001600160a01b039384166001600160a01b03199182161790915581548316600090815260038801602052604090208054610100600160a81b031916610100948f1694850217905581541690911790556116fe565b818160000160016101000a8154816001600160a01b0302191690836001600160a01b03160217905550828160010160006101000a8154816001600160a01b0302191690836001600160a01b0316021790555089846003016000856001600160a01b03166001600160a01b0316815260200190815260200160002060000160016101000a8154816001600160a01b0302191690836001600160a01b0316021790555089846003016000846001600160a01b03166001600160a01b0316815260200190815260200160002060010160006101000a8154816001600160a01b0302191690836001600160a01b031602179055505b600284015461170e90600161260d565b6002850155604080516001600160a01b038c81168252602082018c90528d16917fa74a9cd584cc27d44e7f746f6715fae75b600cc5eb8f85a95752788d6b4547a5910160405180910390a25050505050505050505050565b6001600160a01b03828116600090815260306020908152604080832093851683526003840190915290205460ff166117b15760405163149f8b6360e31b815260040160405180910390fd5b6001600160a01b038216600090815260038201602052604090206002820154600110156119005781546001600160a01b039081169084160361182f57805482546101009091046001600160a01b03166001600160a01b031991821681178455600090815260038401602052604090206001018054909116905561191c565b60018201546001600160a01b03908116908416036118905760018082015490830180546001600160a01b0319166001600160a01b039092169182179055600090815260038301602052604090208054610100600160a81b031916905561191c565b8054600180830180546001600160a01b03908116600090815260038701602052604080822080546101009788900485168802610100600160a81b03199091161790559254865495909504821681529190912090910180546001600160a01b0319169290911691909117905561191c565b81546001600160a01b0319908116835560018301805490911690555b6001600160a01b0383166000908152600383016020526040902080546001600160a81b0319168155600190810180546001600160a01b031916905560028301546119669190612620565b60028301556040516001600160a01b0384811682528516907f202321eaea3aa2b5e1e2ef1dfd98a9d6ba8c90e293f5dc2755b32eb921a477979060200160405180910390a250505050565b60008083836001600160a01b03821615611a56576119cf8883611110565b1580611a4c5750600c546040516390ec230160e01b81526001600160a01b03909116906390ec230190611a08908b9086906004016125ae565b602060405180830381865afa158015611a25573d6000803e3d6000fd5b505050506040513d601f19601f82011682018060405250810190611a4991906125de565b87115b15611a5657600091505b6001600160a01b03811615611af557611a6f8882611110565b1580611aec5750600c546040516390ec230160e01b81526001600160a01b03909116906390ec230190611aa8908b9085906004016125ae565b602060405180830381865afa158015611ac5573d6000803e3d6000fd5b505050506040513d601f19601f82011682018060405250810190611ae991906125de565b87105b15611af5575060005b6001600160a01b038216158015611b1357506001600160a01b038116155b15611b4b576001600160a01b03808916600090815260306020526040902054611b40918a918a9116611e93565b935093505050610fd6565b6001600160a01b038216611b6457611b40888883611fdd565b6001600160a01b038116611b7d57611b40888884611e93565b611b40888884611e93565b611b90612122565b61117d8161216b565b6109f4612122565b60006001600160a01b038316158015611bc157506001600160a01b038216155b15611beb576001600160a01b038516600090815260306020526040902060020154155b9050611108565b6001600160a01b038316611c9d576001600160a01b038581166000908152603060205260409020548116908316148015611be45750600c546040516390ec230160e01b81526001600160a01b03909116906390ec230190611c5290889086906004016125ae565b602060405180830381865afa158015611c6f573d6000803e3d6000fd5b505050506040513d601f19601f82011682018060405250810190611c9391906125de565b8410159050611108565b6001600160a01b038216611d52576001600160a01b038581166000908152603060205260409020600101548116908416148015611be45750600c546040516390ec230160e01b81526001600160a01b03909116906390ec230190611d0790889087906004016125ae565b602060405180830381865afa158015611d24573d6000803e3d6000fd5b505050506040513d601f19601f82011682018060405250810190611d4891906125de565b8411159050611108565b6001600160a01b038581166000908152603060209081526040808320878516845260030190915290205461010090048116908316148015611e045750600c546040516390ec230160e01b815285916001600160a01b0316906390ec230190611dc090899088906004016125ae565b602060405180830381865afa158015611ddd573d6000803e3d6000fd5b505050506040513d601f19601f82011682018060405250810190611e0191906125de565b10155b8015611be45750600c546040516390ec230160e01b81526001600160a01b03909116906390ec230190611c5290889086906004016125ae565b611e4682612173565b6040516001600160a01b038316907fbc7cd75a20ee27fd9adebab32041f755214dbc6bffa90cc0225b39da2e5c2d3b90600090a2805115611e8b5761134e82826121d8565b61097061224e565b6001600160a01b0380841660009081526030602052604081208054919283928116908516148015611f365750600c546040516390ec230160e01b81526001600160a01b03909116906390ec230190611ef190899088906004016125ae565b602060405180830381865afa158015611f0e573d6000803e3d6000fd5b505050506040513d601f19601f82011682018060405250810190611f3291906125de565b8510155b15611f48576000849250925050611fd5565b6001600160a01b0380851660009081526003830160205260409020548591610100909104165b6001600160a01b03821615801590611f8f5750611f8d88888484611ba1565b155b15611fce57506001600160a01b039081166000908152600383016020526040808220546101009081900484168084529190922054909291900416611f6e565b9093509150505b935093915050565b6001600160a01b03808416600090815260306020526040812060018101549192839281169085161480156120835750600c546040516390ec230160e01b81526001600160a01b03909116906390ec23019061203e90899088906004016125ae565b602060405180830381865afa15801561205b573d6000803e3d6000fd5b505050506040513d601f19601f8201168201806040525081019061207f91906125de565b8511155b15612095578360009250925050611fd5565b6001600160a01b0380851660009081526003830160205260409020600101548591165b6001600160a01b038216158015906120d957506120d788888385611ba1565b155b1561211657506001600160a01b039081166000908152600383016020526040808220600190810154841680845291909220909101549091166120b8565b97909650945050505050565b7ff0c57e16840df040f15088dc2f81fe391c3923bec73e23a9662efc9c229c6a0054600160401b900460ff166109f457604051631afcd79f60e31b815260040160405180910390fd5b61114a612122565b806001600160a01b03163b6000036121a957604051634c9c8ce360e01b81526001600160a01b0382166004820152602401610b68565b60008051602061265083398151915280546001600160a01b0319166001600160a01b0392909216919091179055565b6060600080846001600160a01b0316846040516121f59190612633565b600060405180830381855af49150503d8060008114612230576040519150601f19603f3d011682016040523d82523d6000602084013e612235565b606091505b509150915061224585838361226d565b95945050505050565b34156109f45760405163b398979f60e01b815260040160405180910390fd5b6060826122825761227d826122cc565b6122c5565b815115801561229957506001600160a01b0384163b155b156122c257604051639996b31560e01b81526001600160a01b0385166004820152602401610b68565b50805b9392505050565b8051156122dc5780518082602001fd5b604051630a12f52160e11b815260040160405180910390fd5b80356001600160a01b038116811461230c57600080fd5b919050565b60006020828403121561232357600080fd5b6122c5826122f5565b6000806040838503121561233f57600080fd5b612348836122f5565b9150612356602084016122f5565b90509250929050565b634e487b7160e01b600052604160045260246000fd5b6000806040838503121561238857600080fd5b612391836122f5565b9150602083013567ffffffffffffffff808211156123ae57600080fd5b818501915085601f8301126123c257600080fd5b8135818111156123d4576123d461235f565b604051601f8201601f19908116603f011681019083821181831017156123fc576123fc61235f565b8160405282815288602084870101111561241557600080fd5b8260208601602083013760006020848301015280955050505050509250929050565b600080600080600060a0868803121561244f57600080fd5b612458866122f5565b9450612466602087016122f5565b93506040860135925061247b606087016122f5565b9150612489608087016122f5565b90509295509295909350565b60005b838110156124b0578181015183820152602001612498565b50506000910152565b60208152600082518060208401526124d8816040850160208701612495565b601f01601f19169190910160400192915050565b600080602083850312156124ff57600080fd5b823567ffffffffffffffff8082111561251757600080fd5b818501915085601f83011261252b57600080fd5b81358181111561253a57600080fd5b8660208260051b850101111561254f57600080fd5b60209290920196919550909350505050565b6000806000806080858703121561257757600080fd5b612580856122f5565b935060208501359250612595604086016122f5565b91506125a3606086016122f5565b905092959194509250565b6001600160a01b0392831681529116602082015260400190565b634e487b7160e01b600052603260045260246000fd5b6000602082840312156125f057600080fd5b5051919050565b634e487b7160e01b600052601160045260246000fd5b8082018082111561094f5761094f6125f7565b8181038181111561094f5761094f6125f7565b60008251612645818460208701612495565b919091019291505056fe360894a13ba1a3210667c828492db98dca3e2076cc3735a920a3ca505d382bbca164736f6c6343000817000a",
  "devdoc": {
    "details": "NICRs are computed dynamically at runtime, and not stored on the Node. This is because NICRs of active TrenBoxes change dynamically as liquidation events occur. The list relies on the fact that liquidation events preserve ordering: a liquidation decreases the NICRs of all active TrenBoxes, but maintains their order. A node inserted based on current NICR will maintain the correct position, relative to it's peers, as rewards accumulate, as long as it's raw collateral and debt have not changed. Thus, Nodes remain sorted by current NICR. Nodes need only be re-inserted upon a TrenBox operation - when the owner adds or removes collateral or debt to their position. The list is a modification of the following audited SortedDoublyLinkedList: https://github.com/livepeer/protocol/blob/master/contracts/libraries/SortedDoublyLL.sol Changes made in the Gravita implementation: - Keys have been removed from nodes - Ordering checks for insertion are performed by comparing an NICR argument to the current NICR, calculated at runtime.   The list relies on the property that ordering by ICR is maintained as the ETH:USD price varies. - Public functions with parameters have been made internal to save gas, and given an external wrapper function for external access",
    "errors": {
      "AddressEmptyCode(address)": [
        {
          "details": "There's no code at `target` (it is not a contract)."
        }
      ],
      "ERC1967InvalidImplementation(address)": [
        {
          "details": "The `implementation` of the proxy is invalid."
        }
      ],
      "ERC1967NonPayable()": [
        {
          "details": "An upgrade function sees `msg.value > 0` that may be lost."
        }
      ],
      "FailedInnerCall()": [
        {
          "details": "A call to an address target failed. The target may have reverted."
        }
      ],
      "InvalidInitialization()": [
        {
          "details": "The contract is already initialized."
        }
      ],
      "NotInitializing()": [
        {
          "details": "The contract is not initializing."
        }
      ],
      "OwnableInvalidOwner(address)": [
        {
          "details": "The owner is not a valid owner account. (eg. `address(0)`)"
        }
      ],
      "OwnableUnauthorizedAccount(address)": [
        {
          "details": "The caller account is not authorized to perform an operation."
        }
      ],
      "SortedTrenBoxes__CallerMustBeBorrowerOperationsOrTrenBoxManager()": [
        {
          "details": "Error emitted when the caller is neither BorrowerOperations nor TrenBoxManager contract."
        }
      ],
      "SortedTrenBoxes__CallerMustBeTrenBoxManager()": [
        {
          "details": "Error emitted when the caller is not TrenBoxManager contract."
        }
      ],
      "SortedTrenBoxes__IdCannotBeZeroAddress()": [
        {
          "details": "Error emitted when the specific Node's id is zero."
        }
      ],
      "SortedTrenBoxes__ListAlreadyContainsNode()": [
        {
          "details": "Error emitted when the list already contains the specific Node."
        }
      ],
      "SortedTrenBoxes__ListDoesNotContainNode()": [
        {
          "details": "Error emitted when the list does not contain the specific Node."
        }
      ],
      "SortedTrenBoxes__NICRMustBeGreaterThanZero()": [
        {
          "details": "Error emitted when the specific Node's NICR is zero."
        }
      ],
      "UUPSUnauthorizedCallContext()": [
        {
          "details": "The call is from an unauthorized context."
        }
      ],
      "UUPSUnsupportedProxiableUUID(bytes32)": [
        {
          "details": "The storage `slot` is unsupported as a UUID."
        }
      ]
    },
    "events": {
      "Initialized(uint64)": {
        "details": "Triggered when the contract has been initialized or reinitialized."
      },
      "NodeAdded(address,address,uint256)": {
        "details": "Emitted when the new Node is added to the list.",
        "params": {
          "_NICR": "The new Node's NICR.",
          "_asset": "The address of collateral asset.",
          "_id": "The new Node's id."
        }
      },
      "NodeRemoved(address,address)": {
        "details": "Emitted when a Node is removed from the list.",
        "params": {
          "_asset": "The address of collateral asset.",
          "_id": "The Node's id."
        }
      },
      "Upgraded(address)": {
        "details": "Emitted when the implementation is upgraded."
      }
    },
    "kind": "dev",
    "methods": {
      "contains(address,address)": {
        "params": {
          "_asset": "The address of collateral asset.",
          "_id": "The Node's id."
        }
      },
      "findInsertPosition(address,uint256,address,address)": {
        "params": {
          "_NICR": "The Node's NICR.",
          "_asset": "The address of collateral asset.",
          "_nextId": "The Id of next node for the insert position.",
          "_prevId": "The Id of previous node for the insert position."
        }
      },
      "getFirst(address)": {
        "params": {
          "_asset": "The address of collateral asset."
        }
      },
      "getLast(address)": {
        "params": {
          "_asset": "The address of collateral asset."
        }
      },
      "getNext(address,address)": {
        "params": {
          "_asset": "The address of collateral asset.",
          "_id": "The Node's id."
        }
      },
      "getPrev(address,address)": {
        "params": {
          "_asset": "The address of collateral asset.",
          "_id": "The Node's id."
        }
      },
      "getSize(address)": {
        "params": {
          "_asset": "The address of collateral asset."
        }
      },
      "initialize(address)": {
        "details": "Runs all the setup logic only once.",
        "params": {
          "initialOwner": "The address of initial owner."
        }
      },
      "insert(address,address,uint256,address,address)": {
        "params": {
          "_NICR": "The Node's NICR.",
          "_asset": "The address of collateral asset.",
          "_id": "The Node's id.",
          "_nextId": "The Id of next node for the insert position.",
          "_prevId": "The Id of previous node for the insert position."
        }
      },
      "isEmpty(address)": {
        "params": {
          "_asset": "The address of collateral asset."
        }
      },
      "owner()": {
        "details": "Returns the address of the current owner."
      },
      "proxiableUUID()": {
        "details": "Implementation of the ERC1822 {proxiableUUID} function. This returns the storage slot used by the implementation. It is used to validate the implementation's compatibility when performing an upgrade. IMPORTANT: A proxy pointing at a proxiable contract should not be considered proxiable itself, because this risks bricking a proxy that upgrades to it, by delegating to itself until out of gas. Thus it is critical that this function revert if invoked through a proxy. This is guaranteed by the `notDelegated` modifier."
      },
      "reInsert(address,address,uint256,address,address)": {
        "params": {
          "_asset": "The address of collateral asset.",
          "_id": "The Node's id.",
          "_newNICR": "The Node's new NICR.",
          "_nextId": "The Id of next Node for the new insert position.",
          "_prevId": "The Id of previous Node for the new insert position."
        }
      },
      "remove(address,address)": {
        "params": {
          "_asset": "The address of collateral asset.",
          "_id": "The Node's id."
        }
      },
      "renounceOwnership()": {
        "details": "Leaves the contract without owner. It will not be possible to call `onlyOwner` functions. Can only be called by the current owner. NOTE: Renouncing ownership will leave the contract without an owner, thereby disabling any functionality that is only available to the owner."
      },
      "transferOwnership(address)": {
        "details": "Transfers ownership of the contract to a new account (`newOwner`). Can only be called by the current owner."
      },
      "upgradeToAndCall(address,bytes)": {
        "custom:oz-upgrades-unsafe-allow-reachable": "delegatecall",
        "details": "Upgrade the implementation of the proxy to `newImplementation`, and subsequently execute the function call encoded in `data`. Calls {_authorizeUpgrade}. Emits an {Upgraded} event."
      },
      "validInsertPosition(address,uint256,address,address)": {
        "params": {
          "_NICR": "The Node's NICR.",
          "_asset": "The address of collateral asset.",
          "_nextId": "The Id of next Node for the insert position.",
          "_prevId": "The Id of previous Node for the insert position."
        }
      }
    },
    "title": "SortedTrenBoxes",
    "version": 1
  },
  "userdoc": {
    "kind": "user",
    "methods": {
      "NAME()": {
        "notice": "The contract name."
      },
      "contains(address,address)": {
        "notice": "Checks if the list contains a Node."
      },
      "findInsertPosition(address,uint256,address,address)": {
        "notice": "Finds the insert position for a new Node with the given NICR."
      },
      "getFirst(address)": {
        "notice": "Returns the first Node (with the largest NICR) in the list."
      },
      "getLast(address)": {
        "notice": "Returns the last Node (with the smallest NICR) in the list."
      },
      "getNext(address,address)": {
        "notice": "Returns the next Node (with a smaller NICR) in the list for a given Node."
      },
      "getPrev(address,address)": {
        "notice": "Returns the previous Node (with a larger NICR) in the list for a given Node."
      },
      "getSize(address)": {
        "notice": "Returns the current size of the list."
      },
      "insert(address,address,uint256,address,address)": {
        "notice": "Adds a new Node to the list."
      },
      "isEmpty(address)": {
        "notice": "Checks if the list is empty."
      },
      "reInsert(address,address,uint256,address,address)": {
        "notice": "Reinserts the Node at a new position based on its new NICR."
      },
      "remove(address,address)": {
        "notice": "Removes a Node from the list."
      },
      "trenBoxes(address)": {
        "notice": "The mapping from collateral asset to its Node list."
      },
      "validInsertPosition(address,uint256,address,address)": {
        "notice": "Checks if a pair of Nodes is a valid insertion point for a new Node with the given NICR."
      }
    },
    "notice": "A sorted doubly linked list with nodes sorted in descending order. Nodes map to active TrenBoxes in the system - the ID property is the address of a TrenBox owner. Nodes are ordered according to their current nominal individual collateral ratio (NICR), which is like the ICR but without the price, i.e., just collateral / debt. The list optionally accepts insert position hints.",
    "version": 1
  },
  "storageLayout": {
    "storage": [
      {
        "astId": 10105,
        "contract": "contracts/SortedTrenBoxes.sol:SortedTrenBoxes",
        "label": "adminContract",
        "offset": 0,
        "slot": "0",
        "type": "t_address"
      },
      {
        "astId": 10107,
        "contract": "contracts/SortedTrenBoxes.sol:SortedTrenBoxes",
        "label": "borrowerOperations",
        "offset": 0,
        "slot": "1",
        "type": "t_address"
      },
      {
        "astId": 10109,
        "contract": "contracts/SortedTrenBoxes.sol:SortedTrenBoxes",
        "label": "communityIssuance",
        "offset": 0,
        "slot": "2",
        "type": "t_address"
      },
      {
        "astId": 10111,
        "contract": "contracts/SortedTrenBoxes.sol:SortedTrenBoxes",
        "label": "debtToken",
        "offset": 0,
        "slot": "3",
        "type": "t_address"
      },
      {
        "astId": 10113,
        "contract": "contracts/SortedTrenBoxes.sol:SortedTrenBoxes",
        "label": "feeCollector",
        "offset": 0,
        "slot": "4",
        "type": "t_address"
      },
      {
        "astId": 10115,
        "contract": "contracts/SortedTrenBoxes.sol:SortedTrenBoxes",
        "label": "flashLoanAddress",
        "offset": 0,
        "slot": "5",
        "type": "t_address"
      },
      {
        "astId": 10117,
        "contract": "contracts/SortedTrenBoxes.sol:SortedTrenBoxes",
        "label": "trenStaking",
        "offset": 0,
        "slot": "6",
        "type": "t_address"
      },
      {
        "astId": 10119,
        "contract": "contracts/SortedTrenBoxes.sol:SortedTrenBoxes",
        "label": "priceFeed",
        "offset": 0,
        "slot": "7",
        "type": "t_address"
      },
      {
        "astId": 10121,
        "contract": "contracts/SortedTrenBoxes.sol:SortedTrenBoxes",
        "label": "sortedTrenBoxes",
        "offset": 0,
        "slot": "8",
        "type": "t_address"
      },
      {
        "astId": 10123,
        "contract": "contracts/SortedTrenBoxes.sol:SortedTrenBoxes",
        "label": "stabilityPool",
        "offset": 0,
        "slot": "9",
        "type": "t_address"
      },
      {
        "astId": 10125,
        "contract": "contracts/SortedTrenBoxes.sol:SortedTrenBoxes",
        "label": "timelockAddress",
        "offset": 0,
        "slot": "10",
        "type": "t_address"
      },
      {
        "astId": 10127,
        "contract": "contracts/SortedTrenBoxes.sol:SortedTrenBoxes",
        "label": "treasuryAddress",
        "offset": 0,
        "slot": "11",
        "type": "t_address"
      },
      {
        "astId": 10129,
        "contract": "contracts/SortedTrenBoxes.sol:SortedTrenBoxes",
        "label": "trenBoxManager",
        "offset": 0,
        "slot": "12",
        "type": "t_address"
      },
      {
        "astId": 10131,
        "contract": "contracts/SortedTrenBoxes.sol:SortedTrenBoxes",
        "label": "trenBoxManagerOperations",
        "offset": 0,
        "slot": "13",
        "type": "t_address"
      },
      {
        "astId": 10133,
        "contract": "contracts/SortedTrenBoxes.sol:SortedTrenBoxes",
        "label": "trenBoxStorage",
        "offset": 0,
        "slot": "14",
        "type": "t_address"
      },
      {
        "astId": 10135,
        "contract": "contracts/SortedTrenBoxes.sol:SortedTrenBoxes",
        "label": "isAddressSetupInitialized",
        "offset": 20,
        "slot": "14",
        "type": "t_bool"
      },
      {
        "astId": 10140,
        "contract": "contracts/SortedTrenBoxes.sol:SortedTrenBoxes",
        "label": "__gap",
        "offset": 0,
        "slot": "15",
        "type": "t_array(t_uint256)33_storage"
      },
      {
        "astId": 16921,
        "contract": "contracts/SortedTrenBoxes.sol:SortedTrenBoxes",
        "label": "trenBoxes",
        "offset": 0,
        "slot": "48",
        "type": "t_mapping(t_address,t_struct(TrenBoxesList)13860_storage)"
      }
    ],
    "types": {
      "t_address": {
        "encoding": "inplace",
        "label": "address",
        "numberOfBytes": "20"
      },
      "t_array(t_uint256)33_storage": {
        "base": "t_uint256",
        "encoding": "inplace",
        "label": "uint256[33]",
        "numberOfBytes": "1056"
      },
      "t_bool": {
        "encoding": "inplace",
        "label": "bool",
        "numberOfBytes": "1"
      },
      "t_mapping(t_address,t_struct(Node)13847_storage)": {
        "encoding": "mapping",
        "key": "t_address",
        "label": "mapping(address => struct ISortedTrenBoxes.Node)",
        "numberOfBytes": "32",
        "value": "t_struct(Node)13847_storage"
      },
      "t_mapping(t_address,t_struct(TrenBoxesList)13860_storage)": {
        "encoding": "mapping",
        "key": "t_address",
        "label": "mapping(address => struct ISortedTrenBoxes.TrenBoxesList)",
        "numberOfBytes": "32",
        "value": "t_struct(TrenBoxesList)13860_storage"
      },
      "t_struct(Node)13847_storage": {
        "encoding": "inplace",
        "label": "struct ISortedTrenBoxes.Node",
        "members": [
          {
            "astId": 13842,
            "contract": "contracts/SortedTrenBoxes.sol:SortedTrenBoxes",
            "label": "exists",
            "offset": 0,
            "slot": "0",
            "type": "t_bool"
          },
          {
            "astId": 13844,
            "contract": "contracts/SortedTrenBoxes.sol:SortedTrenBoxes",
            "label": "nextId",
            "offset": 1,
            "slot": "0",
            "type": "t_address"
          },
          {
            "astId": 13846,
            "contract": "contracts/SortedTrenBoxes.sol:SortedTrenBoxes",
            "label": "prevId",
            "offset": 0,
            "slot": "1",
            "type": "t_address"
          }
        ],
        "numberOfBytes": "64"
      },
      "t_struct(TrenBoxesList)13860_storage": {
        "encoding": "inplace",
        "label": "struct ISortedTrenBoxes.TrenBoxesList",
        "members": [
          {
            "astId": 13850,
            "contract": "contracts/SortedTrenBoxes.sol:SortedTrenBoxes",
            "label": "head",
            "offset": 0,
            "slot": "0",
            "type": "t_address"
          },
          {
            "astId": 13852,
            "contract": "contracts/SortedTrenBoxes.sol:SortedTrenBoxes",
            "label": "tail",
            "offset": 0,
            "slot": "1",
            "type": "t_address"
          },
          {
            "astId": 13854,
            "contract": "contracts/SortedTrenBoxes.sol:SortedTrenBoxes",
            "label": "size",
            "offset": 0,
            "slot": "2",
            "type": "t_uint256"
          },
          {
            "astId": 13859,
            "contract": "contracts/SortedTrenBoxes.sol:SortedTrenBoxes",
            "label": "nodes",
            "offset": 0,
            "slot": "3",
            "type": "t_mapping(t_address,t_struct(Node)13847_storage)"
          }
        ],
        "numberOfBytes": "128"
      },
      "t_uint256": {
        "encoding": "inplace",
        "label": "uint256",
        "numberOfBytes": "32"
      }
    }
  }
}