{
  "address": "0x3116B2D6130B5cAB37C817d59B4555B99d6736e2",
  "abi": [
    {
      "inputs": [
        {
          "internalType": "address",
          "name": "target",
          "type": "address"
        }
      ],
      "name": "AddressEmptyCode",
      "type": "error"
    },
    {
      "inputs": [],
      "name": "ConfigurableAddresses__CommunityIssuanceZeroAddress",
      "type": "error"
    },
    {
      "inputs": [],
      "name": "ConfigurableAddresses__LengthMismatch",
      "type": "error"
    },
    {
      "inputs": [],
      "name": "ConfigurableAddresses__SetupIsInitialized",
      "type": "error"
    },
    {
      "inputs": [],
      "name": "ConfigurableAddresses__TRENStakingZeroAddress",
      "type": "error"
    },
    {
      "inputs": [
        {
          "internalType": "uint256",
          "name": "position",
          "type": "uint256"
        },
        {
          "internalType": "address",
          "name": "address_",
          "type": "address"
        }
      ],
      "name": "ConfigurableAddresses__ZeroAddresses",
      "type": "error"
    },
    {
      "inputs": [
        {
          "internalType": "address",
          "name": "implementation",
          "type": "address"
        }
      ],
      "name": "ERC1967InvalidImplementation",
      "type": "error"
    },
    {
      "inputs": [],
      "name": "ERC1967NonPayable",
      "type": "error"
    },
    {
      "inputs": [],
      "name": "FailedInnerCall",
      "type": "error"
    },
    {
      "inputs": [],
      "name": "InvalidInitialization",
      "type": "error"
    },
    {
      "inputs": [],
      "name": "NotInitializing",
      "type": "error"
    },
    {
      "inputs": [
        {
          "internalType": "address",
          "name": "owner",
          "type": "address"
        }
      ],
      "name": "OwnableInvalidOwner",
      "type": "error"
    },
    {
      "inputs": [
        {
          "internalType": "address",
          "name": "account",
          "type": "address"
        }
      ],
      "name": "OwnableUnauthorizedAccount",
      "type": "error"
    },
    {
      "inputs": [],
      "name": "ReentrancyGuardReentrantCall",
      "type": "error"
    },
    {
      "inputs": [
        {
          "internalType": "uint256",
          "name": "feePercentage",
          "type": "uint256"
        },
        {
          "internalType": "uint256",
          "name": "maxFeePercentage",
          "type": "uint256"
        }
      ],
      "name": "TrenBase__FeeExceededMax",
      "type": "error"
    },
    {
      "inputs": [],
      "name": "TrenBoxManagerOperations__EmptyAmount",
      "type": "error"
    },
    {
      "inputs": [
        {
          "internalType": "uint256",
          "name": "lowerBoundary",
          "type": "uint256"
        },
        {
          "internalType": "uint256",
          "name": "upperBoundary",
          "type": "uint256"
        }
      ],
      "name": "TrenBoxManagerOperations__FeePercentOutOfBounds",
      "type": "error"
    },
    {
      "inputs": [
        {
          "internalType": "uint256",
          "name": "availableBalance",
          "type": "uint256"
        }
      ],
      "name": "TrenBoxManagerOperations__InsufficientDebtTokenBalance",
      "type": "error"
    },
    {
      "inputs": [],
      "name": "TrenBoxManagerOperations__InvalidArraySize",
      "type": "error"
    },
    {
      "inputs": [],
      "name": "TrenBoxManagerOperations__InvalidParam",
      "type": "error"
    },
    {
      "inputs": [],
      "name": "TrenBoxManagerOperations__NotTimelock",
      "type": "error"
    },
    {
      "inputs": [],
      "name": "TrenBoxManagerOperations__NothingToLiquidate",
      "type": "error"
    },
    {
      "inputs": [],
      "name": "TrenBoxManagerOperations__OnlyTrenBoxManager",
      "type": "error"
    },
    {
      "inputs": [],
      "name": "TrenBoxManagerOperations__RedemptionIsBlocked",
      "type": "error"
    },
    {
      "inputs": [
        {
          "internalType": "uint256",
          "name": "tcr",
          "type": "uint256"
        },
        {
          "internalType": "uint256",
          "name": "mcr",
          "type": "uint256"
        }
      ],
      "name": "TrenBoxManagerOperations__TCRMustBeAboveMCR",
      "type": "error"
    },
    {
      "inputs": [],
      "name": "TrenBoxManagerOperations__TrenBoxNotActive",
      "type": "error"
    },
    {
      "inputs": [],
      "name": "TrenBoxManagerOperations__UnableToRedeemAnyAmount",
      "type": "error"
    },
    {
      "inputs": [],
      "name": "UUPSUnauthorizedCallContext",
      "type": "error"
    },
    {
      "inputs": [
        {
          "internalType": "bytes32",
          "name": "slot",
          "type": "bytes32"
        }
      ],
      "name": "UUPSUnsupportedProxiableUUID",
      "type": "error"
    },
    {
      "anonymous": false,
      "inputs": [
        {
          "indexed": false,
          "internalType": "uint64",
          "name": "version",
          "type": "uint64"
        }
      ],
      "name": "Initialized",
      "type": "event"
    },
    {
      "anonymous": false,
      "inputs": [
        {
          "indexed": true,
          "internalType": "address",
          "name": "_asset",
          "type": "address"
        },
        {
          "indexed": false,
          "internalType": "uint256",
          "name": "_liquidatedDebt",
          "type": "uint256"
        },
        {
          "indexed": false,
          "internalType": "uint256",
          "name": "_liquidatedColl",
          "type": "uint256"
        },
        {
          "indexed": false,
          "internalType": "uint256",
          "name": "_collGasCompensation",
          "type": "uint256"
        },
        {
          "indexed": false,
          "internalType": "uint256",
          "name": "_debtTokenGasCompensation",
          "type": "uint256"
        }
      ],
      "name": "Liquidation",
      "type": "event"
    },
    {
      "anonymous": false,
      "inputs": [
        {
          "indexed": true,
          "internalType": "address",
          "name": "previousOwner",
          "type": "address"
        },
        {
          "indexed": true,
          "internalType": "address",
          "name": "newOwner",
          "type": "address"
        }
      ],
      "name": "OwnershipTransferred",
      "type": "event"
    },
    {
      "anonymous": false,
      "inputs": [
        {
          "indexed": true,
          "internalType": "address",
          "name": "_asset",
          "type": "address"
        },
        {
          "indexed": false,
          "internalType": "uint256",
          "name": "_attemptedDebtAmount",
          "type": "uint256"
        },
        {
          "indexed": false,
          "internalType": "uint256",
          "name": "_actualDebtAmount",
          "type": "uint256"
        },
        {
          "indexed": false,
          "internalType": "uint256",
          "name": "_collSent",
          "type": "uint256"
        },
        {
          "indexed": false,
          "internalType": "uint256",
          "name": "_collFee",
          "type": "uint256"
        }
      ],
      "name": "Redemption",
      "type": "event"
    },
    {
      "anonymous": false,
      "inputs": [
        {
          "indexed": false,
          "internalType": "uint256",
          "name": "_redemptionSofteningParam",
          "type": "uint256"
        }
      ],
      "name": "RedemptionSoftenParamChanged",
      "type": "event"
    },
    {
      "anonymous": false,
      "inputs": [
        {
          "indexed": true,
          "internalType": "address",
          "name": "_asset",
          "type": "address"
        },
        {
          "indexed": false,
          "internalType": "uint256",
          "name": "_redistributedDebt",
          "type": "uint256"
        },
        {
          "indexed": false,
          "internalType": "uint256",
          "name": "_redistributedCool",
          "type": "uint256"
        },
        {
          "indexed": false,
          "internalType": "uint256",
          "name": "_totalDebtTokenGasCompensation",
          "type": "uint256"
        }
      ],
      "name": "Redistribution",
      "type": "event"
    },
    {
      "anonymous": false,
      "inputs": [
        {
          "indexed": true,
          "internalType": "address",
          "name": "_asset",
          "type": "address"
        },
        {
          "indexed": true,
          "internalType": "address",
          "name": "_borrower",
          "type": "address"
        },
        {
          "indexed": false,
          "internalType": "uint256",
          "name": "_debt",
          "type": "uint256"
        },
        {
          "indexed": false,
          "internalType": "uint256",
          "name": "_coll",
          "type": "uint256"
        },
        {
          "indexed": false,
          "internalType": "enum ITrenBoxManager.TrenBoxManagerOperation",
          "name": "_operation",
          "type": "uint8"
        }
      ],
      "name": "TrenBoxLiquidated",
      "type": "event"
    },
    {
      "anonymous": false,
      "inputs": [
        {
          "indexed": true,
          "internalType": "address",
          "name": "implementation",
          "type": "address"
        }
      ],
      "name": "Upgraded",
      "type": "event"
    },
    {
      "inputs": [],
      "name": "BATCH_SIZE_LIMIT",
      "outputs": [
        {
          "internalType": "uint256",
          "name": "",
          "type": "uint256"
        }
      ],
      "stateMutability": "view",
      "type": "function"
    },
    {
      "inputs": [],
      "name": "NAME",
      "outputs": [
        {
          "internalType": "string",
          "name": "",
          "type": "string"
        }
      ],
      "stateMutability": "view",
      "type": "function"
    },
    {
      "inputs": [],
      "name": "PERCENTAGE_PRECISION",
      "outputs": [
        {
          "internalType": "uint256",
          "name": "",
          "type": "uint256"
        }
      ],
      "stateMutability": "view",
      "type": "function"
    },
    {
      "inputs": [],
      "name": "UPGRADE_INTERFACE_VERSION",
      "outputs": [
        {
          "internalType": "string",
          "name": "",
          "type": "string"
        }
      ],
      "stateMutability": "view",
      "type": "function"
    },
    {
      "inputs": [],
      "name": "adminContract",
      "outputs": [
        {
          "internalType": "address",
          "name": "",
          "type": "address"
        }
      ],
      "stateMutability": "view",
      "type": "function"
    },
    {
      "inputs": [
        {
          "internalType": "address",
          "name": "newImplementation",
          "type": "address"
        }
      ],
      "name": "authorizeUpgrade",
      "outputs": [],
      "stateMutability": "nonpayable",
      "type": "function"
    },
    {
      "inputs": [
        {
          "internalType": "address",
          "name": "_asset",
          "type": "address"
        },
        {
          "internalType": "address[]",
          "name": "_trenBoxArray",
          "type": "address[]"
        }
      ],
      "name": "batchLiquidateTrenBoxes",
      "outputs": [],
      "stateMutability": "nonpayable",
      "type": "function"
    },
    {
      "inputs": [],
      "name": "borrowerOperations",
      "outputs": [
        {
          "internalType": "address",
          "name": "",
          "type": "address"
        }
      ],
      "stateMutability": "view",
      "type": "function"
    },
    {
      "inputs": [],
      "name": "communityIssuance",
      "outputs": [
        {
          "internalType": "address",
          "name": "",
          "type": "address"
        }
      ],
      "stateMutability": "view",
      "type": "function"
    },
    {
      "inputs": [
        {
          "internalType": "uint256",
          "name": "_coll",
          "type": "uint256"
        },
        {
          "internalType": "uint256",
          "name": "_debt",
          "type": "uint256"
        }
      ],
      "name": "computeNominalCR",
      "outputs": [
        {
          "internalType": "uint256",
          "name": "",
          "type": "uint256"
        }
      ],
      "stateMutability": "pure",
      "type": "function"
    },
    {
      "inputs": [],
      "name": "debtToken",
      "outputs": [
        {
          "internalType": "address",
          "name": "",
          "type": "address"
        }
      ],
      "stateMutability": "view",
      "type": "function"
    },
    {
      "inputs": [],
      "name": "feeCollector",
      "outputs": [
        {
          "internalType": "address",
          "name": "",
          "type": "address"
        }
      ],
      "stateMutability": "view",
      "type": "function"
    },
    {
      "inputs": [],
      "name": "flashLoanAddress",
      "outputs": [
        {
          "internalType": "address",
          "name": "",
          "type": "address"
        }
      ],
      "stateMutability": "view",
      "type": "function"
    },
    {
      "inputs": [
        {
          "internalType": "address",
          "name": "_asset",
          "type": "address"
        },
        {
          "internalType": "uint256",
          "name": "_CR",
          "type": "uint256"
        },
        {
          "internalType": "uint256",
          "name": "_numTrials",
          "type": "uint256"
        },
        {
          "internalType": "uint256",
          "name": "_inputRandomSeed",
          "type": "uint256"
        }
      ],
      "name": "getApproxHint",
      "outputs": [
        {
          "internalType": "address",
          "name": "hintAddress",
          "type": "address"
        },
        {
          "internalType": "uint256",
          "name": "diff",
          "type": "uint256"
        },
        {
          "internalType": "uint256",
          "name": "latestRandomSeed",
          "type": "uint256"
        }
      ],
      "stateMutability": "view",
      "type": "function"
    },
    {
      "inputs": [
        {
          "internalType": "address",
          "name": "_asset",
          "type": "address"
        }
      ],
      "name": "getEntireSystemColl",
      "outputs": [
        {
          "internalType": "uint256",
          "name": "entireSystemColl",
          "type": "uint256"
        }
      ],
      "stateMutability": "view",
      "type": "function"
    },
    {
      "inputs": [
        {
          "internalType": "address",
          "name": "_asset",
          "type": "address"
        }
      ],
      "name": "getEntireSystemDebt",
      "outputs": [
        {
          "internalType": "uint256",
          "name": "entireSystemDebt",
          "type": "uint256"
        }
      ],
      "stateMutability": "view",
      "type": "function"
    },
    {
      "inputs": [
        {
          "internalType": "address",
          "name": "_asset",
          "type": "address"
        },
        {
          "internalType": "uint256",
          "name": "_debtTokenAmount",
          "type": "uint256"
        },
        {
          "internalType": "uint256",
          "name": "_price",
          "type": "uint256"
        },
        {
          "internalType": "uint256",
          "name": "_maxIterations",
          "type": "uint256"
        }
      ],
      "name": "getRedemptionHints",
      "outputs": [
        {
          "internalType": "address",
          "name": "firstRedemptionHint",
          "type": "address"
        },
        {
          "internalType": "uint256",
          "name": "partialRedemptionHintNewICR",
          "type": "uint256"
        },
        {
          "internalType": "uint256",
          "name": "truncatedDebtTokenAmount",
          "type": "uint256"
        }
      ],
      "stateMutability": "view",
      "type": "function"
    },
    {
      "inputs": [
        {
          "internalType": "address",
          "name": "initialOwner",
          "type": "address"
        }
      ],
      "name": "initialize",
      "outputs": [],
      "stateMutability": "nonpayable",
      "type": "function"
    },
    {
      "inputs": [],
      "name": "isAddressSetupInitialized",
      "outputs": [
        {
          "internalType": "bool",
          "name": "",
          "type": "bool"
        }
      ],
      "stateMutability": "view",
      "type": "function"
    },
    {
      "inputs": [
        {
          "internalType": "address",
          "name": "_asset",
          "type": "address"
        },
        {
          "internalType": "address",
          "name": "_borrower",
          "type": "address"
        }
      ],
      "name": "liquidate",
      "outputs": [],
      "stateMutability": "nonpayable",
      "type": "function"
    },
    {
      "inputs": [
        {
          "internalType": "address",
          "name": "_asset",
          "type": "address"
        },
        {
          "internalType": "uint256",
          "name": "_n",
          "type": "uint256"
        }
      ],
      "name": "liquidateTrenBoxes",
      "outputs": [],
      "stateMutability": "nonpayable",
      "type": "function"
    },
    {
      "inputs": [],
      "name": "owner",
      "outputs": [
        {
          "internalType": "address",
          "name": "",
          "type": "address"
        }
      ],
      "stateMutability": "view",
      "type": "function"
    },
    {
      "inputs": [],
      "name": "priceFeed",
      "outputs": [
        {
          "internalType": "address",
          "name": "",
          "type": "address"
        }
      ],
      "stateMutability": "view",
      "type": "function"
    },
    {
      "inputs": [],
      "name": "proxiableUUID",
      "outputs": [
        {
          "internalType": "bytes32",
          "name": "",
          "type": "bytes32"
        }
      ],
      "stateMutability": "view",
      "type": "function"
    },
    {
      "inputs": [
        {
          "internalType": "address",
          "name": "_asset",
          "type": "address"
        },
        {
          "internalType": "uint256",
          "name": "_debtTokenAmount",
          "type": "uint256"
        },
        {
          "internalType": "address",
          "name": "_upperPartialRedemptionHint",
          "type": "address"
        },
        {
          "internalType": "address",
          "name": "_lowerPartialRedemptionHint",
          "type": "address"
        },
        {
          "internalType": "address",
          "name": "_firstRedemptionHint",
          "type": "address"
        },
        {
          "internalType": "uint256",
          "name": "_partialRedemptionHintNICR",
          "type": "uint256"
        },
        {
          "internalType": "uint256",
          "name": "_maxIterations",
          "type": "uint256"
        },
        {
          "internalType": "uint256",
          "name": "_maxFeePercentage",
          "type": "uint256"
        }
      ],
      "name": "redeemCollateral",
      "outputs": [],
      "stateMutability": "nonpayable",
      "type": "function"
    },
    {
      "inputs": [],
      "name": "redemptionSofteningParam",
      "outputs": [
        {
          "internalType": "uint256",
          "name": "",
          "type": "uint256"
        }
      ],
      "stateMutability": "view",
      "type": "function"
    },
    {
      "inputs": [
        {
          "internalType": "address",
          "name": "_asset",
          "type": "address"
        },
        {
          "internalType": "uint256",
          "name": "_trenBoxes",
          "type": "uint256"
        }
      ],
      "name": "redistributeTrenBoxes",
      "outputs": [],
      "stateMutability": "nonpayable",
      "type": "function"
    },
    {
      "inputs": [],
      "name": "renounceOwnership",
      "outputs": [],
      "stateMutability": "nonpayable",
      "type": "function"
    },
    {
      "inputs": [
        {
          "internalType": "address[]",
          "name": "_addresses",
          "type": "address[]"
        }
      ],
      "name": "setAddresses",
      "outputs": [],
      "stateMutability": "nonpayable",
      "type": "function"
    },
    {
      "inputs": [
        {
          "internalType": "address",
          "name": "_communityIssuance",
          "type": "address"
        }
      ],
      "name": "setCommunityIssuance",
      "outputs": [],
      "stateMutability": "nonpayable",
      "type": "function"
    },
    {
      "inputs": [
        {
          "internalType": "uint256",
          "name": "_redemptionSofteningParam",
          "type": "uint256"
        }
      ],
      "name": "setRedemptionSofteningParam",
      "outputs": [],
      "stateMutability": "nonpayable",
      "type": "function"
    },
    {
      "inputs": [
        {
          "internalType": "address",
          "name": "_trenStaking",
          "type": "address"
        }
      ],
      "name": "setTRENStaking",
      "outputs": [],
      "stateMutability": "nonpayable",
      "type": "function"
    },
    {
      "inputs": [],
      "name": "sortedTrenBoxes",
      "outputs": [
        {
          "internalType": "address",
          "name": "",
          "type": "address"
        }
      ],
      "stateMutability": "view",
      "type": "function"
    },
    {
      "inputs": [],
      "name": "stabilityPool",
      "outputs": [
        {
          "internalType": "address",
          "name": "",
          "type": "address"
        }
      ],
      "stateMutability": "view",
      "type": "function"
    },
    {
      "inputs": [],
      "name": "timelockAddress",
      "outputs": [
        {
          "internalType": "address",
          "name": "",
          "type": "address"
        }
      ],
      "stateMutability": "view",
      "type": "function"
    },
    {
      "inputs": [
        {
          "internalType": "address",
          "name": "newOwner",
          "type": "address"
        }
      ],
      "name": "transferOwnership",
      "outputs": [],
      "stateMutability": "nonpayable",
      "type": "function"
    },
    {
      "inputs": [],
      "name": "treasuryAddress",
      "outputs": [
        {
          "internalType": "address",
          "name": "",
          "type": "address"
        }
      ],
      "stateMutability": "view",
      "type": "function"
    },
    {
      "inputs": [],
      "name": "trenBoxManager",
      "outputs": [
        {
          "internalType": "address",
          "name": "",
          "type": "address"
        }
      ],
      "stateMutability": "view",
      "type": "function"
    },
    {
      "inputs": [],
      "name": "trenBoxManagerOperations",
      "outputs": [
        {
          "internalType": "address",
          "name": "",
          "type": "address"
        }
      ],
      "stateMutability": "view",
      "type": "function"
    },
    {
      "inputs": [],
      "name": "trenBoxStorage",
      "outputs": [
        {
          "internalType": "address",
          "name": "",
          "type": "address"
        }
      ],
      "stateMutability": "view",
      "type": "function"
    },
    {
      "inputs": [],
      "name": "trenStaking",
      "outputs": [
        {
          "internalType": "address",
          "name": "",
          "type": "address"
        }
      ],
      "stateMutability": "view",
      "type": "function"
    },
    {
      "inputs": [
        {
          "internalType": "address",
          "name": "newImplementation",
          "type": "address"
        },
        {
          "internalType": "bytes",
          "name": "data",
          "type": "bytes"
        }
      ],
      "name": "upgradeToAndCall",
      "outputs": [],
      "stateMutability": "payable",
      "type": "function"
    }
  ],
  "transactionHash": "0xf201ab02302391eda5ce30294b29ce6b98e281aeada3fdbdf62d70124dfb701a",
  "args": [],
  "numDeployments": 1,
  "solcInputHash": "a7f7c188236ff897d7313c3fc2b44a12",
  "bytecode": "0x60a06040523060805234801561001457600080fd5b50608051615dc26200003f60003960008181613bcc01528181613bf50152613d360152615dc26000f3fe6080604052600436106102515760003560e01c806395fb16bb11610139578063c4d66de8116100b6578063d9eb5ff61161007a578063d9eb5ff61461074f578063e256888f1461076f578063f1c05a7e14610785578063f2fde38b146107a5578063f8d89898146107c5578063fe060733146107e557600080fd5b8063c4d66de81461069e578063c5f956af146106be578063c8564c62146106de578063cc8b21e41461070f578063d58d446c1461072f57600080fd5b8063b9571721116100fd578063b9571721146105fe578063bf74ba071461061e578063c05c5e941461063e578063c394a7fa1461065e578063c415b95c1461067e57600080fd5b806395fb16bb146105225780639e86d0c414610542578063a3f4df7e14610562578063ad3cb1cc146105b8578063ad59db65146105e957600080fd5b80634f1ef286116101d2578063715018a611610196578063715018a61461045a578063741bef1a1461046f57806377553ad41461048f57806382eaca21146104af57806386b9d81f146104c55780638da5cb5b146104e557600080fd5b80634f1ef286146103d257806352d1902d146103e557806355dafa46146103fa5780636a85d67d1461041a578063701526b41461043a57600080fd5b8063301be45911610219578063301be459146103235780633f84a44d1461035257806340a44bd1146103725780634169467d146103925780634bc66f32146103b257600080fd5b806301c9310014610256578063048c661d1461027857806309e198e0146102b55780630a34d4d6146102d557806327d04b35146102f5575b600080fd5b34801561026257600080fd5b5061027661027136600461572a565b610805565b005b34801561028457600080fd5b50600954610298906001600160a01b031681565b6040516001600160a01b0390911681526020015b60405180910390f35b3480156102c157600080fd5b506102766102d0366004615747565b610856565b3480156102e157600080fd5b50600d54610298906001600160a01b031681565b34801561030157600080fd5b5061031561031036600461572a565b610b0e565b6040519081526020016102ac565b34801561032f57600080fd5b5061034361033e366004615773565b610b84565b6040516102ac939291906157ae565b34801561035e57600080fd5b50600e54610298906001600160a01b031681565b34801561037e57600080fd5b5061027661038d3660046157cf565b611226565b34801561039e57600080fd5b50600554610298906001600160a01b031681565b3480156103be57600080fd5b50600a54610298906001600160a01b031681565b6102766103e0366004615897565b61194d565b3480156103f157600080fd5b50610315611968565b34801561040657600080fd5b50600654610298906001600160a01b031681565b34801561042657600080fd5b5061027661043536600461572a565b611985565b34801561044657600080fd5b50610343610455366004615773565b6119d6565b34801561046657600080fd5b50610276611cca565b34801561047b57600080fd5b50600754610298906001600160a01b031681565b34801561049b57600080fd5b50600154610298906001600160a01b031681565b3480156104bb57600080fd5b5061031560305481565b3480156104d157600080fd5b506102766104e036600461593f565b611cde565b3480156104f157600080fd5b507f9016d09d72d40fdae2fd8ceac6b6234c7706214fd39c1cd1e609a0528c199300546001600160a01b0316610298565b34801561052e57600080fd5b50600254610298906001600160a01b031681565b34801561054e57600080fd5b5061031561055d36600461572a565b611dd3565b34801561056e57600080fd5b506105ab6040518060400160405280601881526020017f5472656e426f784d616e616765724f7065726174696f6e73000000000000000081525081565b6040516102ac919061599c565b3480156105c457600080fd5b506105ab604051806040016040528060058152602001640352e302e360dc1b81525081565b3480156105f557600080fd5b50610315601981565b34801561060a57600080fd5b506102766106193660046159cf565b611e06565b34801561062a57600080fd5b50610276610639366004615a44565b6122af565b34801561064a57600080fd5b50600054610298906001600160a01b031681565b34801561066a57600080fd5b50610315610679366004615a5d565b612344565b34801561068a57600080fd5b50600454610298906001600160a01b031681565b3480156106aa57600080fd5b506102766106b936600461572a565b612357565b3480156106ca57600080fd5b50600b54610298906001600160a01b031681565b3480156106ea57600080fd5b50600e546106ff90600160a01b900460ff1681565b60405190151581526020016102ac565b34801561071b57600080fd5b50600854610298906001600160a01b031681565b34801561073b57600080fd5b5061027661074a366004615747565b612477565b34801561075b57600080fd5b5061027661076a366004615a7f565b61291a565b34801561077b57600080fd5b5061031561271081565b34801561079157600080fd5b50600c54610298906001600160a01b031681565b3480156107b157600080fd5b506102766107c036600461572a565b612ab7565b3480156107d157600080fd5b50600354610298906001600160a01b031681565b3480156107f157600080fd5b5061027661080036600461572a565b612af5565b61080d612afe565b6001600160a01b038116610834576040516385d3330760e01b815260040160405180910390fd5b600680546001600160a01b0319166001600160a01b0392909216919091179055565b61085e612b59565b610866612afe565b61089a6040518060a00160405280600081526020016000815260200160001515815260200160008152602001600081525090565b6108a2615681565b600960009054906101000a90046001600160a01b03166001600160a01b0316630d9a6b356040518163ffffffff1660e01b8152600401602060405180830381865afa1580156108f5573d6000803e3d6000fd5b505050506040513d601f19601f820116820180604052508101906109199190615b46565b6020830152600754604051635670bcc760e11b81526001600160a01b0386811660048301529091169063ace1798e90602401602060405180830381865afa158015610968573d6000803e3d6000fd5b505050506040513d601f19601f8201168201806040525081019061098c9190615b46565b80835261099a908590612b91565b15801560408401526109c3576109bc8483600001518460200151866001612c16565b90506109dc565b6109d98483600001518460200151866001613121565b90505b8060200151600003610a015760405163520522c760e01b815260040160405180910390fd5b600c5460c082015160e08301516080840151604051637012f7fb60e01b81526001600160a01b03898116600483015260248201949094526044810192909252606482015260006084820152911690637012f7fb9060a401600060405180830381600087803b158015610a7257600080fd5b505af1158015610a86573d6000803e3d6000fd5b50505050836001600160a01b03167f28da0b0f71bad1837e19234c912ff0ceba4ebe7516fcadb9d5e7aa99a4ab6b4582602001518361010001518460000151610acf9190615b75565b606085810151604080519485526020850193909352838301529051918290030190a25050610b0a6001600080516020615d9683398151915255565b5050565b600e5460405163b429464160e01b81526001600160a01b038381166004830152600092169063b4294641906024015b602060405180830381865afa158015610b5a573d6000803e3d6000fd5b505050506040513d601f19601f82011682018060405250810190610b7e9190615b46565b92915050565b604080516080810182526001600160a01b0386811680835260208301879052828401869052606083018590526008549351637608271560e01b81526004810191909152600093849384939092899285921690637608271590602401602060405180830381865afa158015610bfc573d6000803e3d6000fd5b505050506040513d601f19601f82011682018060405250810190610c209190615b88565b90505b6001600160a01b03811615801590610d2257506000548351604051633c557a6f60e11b81526001600160a01b0391821660048201529116906378aaf4de90602401602060405180830381865afa158015610c81573d6000803e3d6000fd5b505050506040513d601f19601f82011682018060405250810190610ca59190615b46565b600c548451604080870151905163b1eafaab60e01b81526001600160a01b039093169263b1eafaab92610cdf929091879190600401615ba5565b602060405180830381865afa158015610cfc573d6000803e3d6000fd5b505050506040513d601f19601f82011682018060405250810190610d209190615b46565b105b15610da05760085483516040516239c6e160ea1b81526001600160a01b039092169163e71b840091610d58918590600401615bc9565b602060405180830381865afa158015610d75573d6000803e3d6000fd5b505050506040513d601f19601f82011682018060405250810190610d999190615b88565b9050610c23565b8095508260600151600003610db85760001960608401525b6001600160a01b03811615801590610dcf57508115155b8015610deb575060608301805190610de682615be3565b905215155b1561120d578251600c5460405162a79b1d60e31b8152600092610eef9290916001600160a01b039091169063053cd8e890610e2c9084908890600401615bc9565b602060405180830381865afa158015610e49573d6000803e3d6000fd5b505050506040513d601f19601f82011682018060405250810190610e6d9190615b46565b600c54875160405163f9a3d41f60e01b81526001600160a01b039092169163f9a3d41f91610e9f918990600401615bc9565b602060405180830381865afa158015610ebc573d6000803e3d6000fd5b505050506040513d601f19601f82011682018060405250810190610ee09190615b46565b610eea9190615bfa565b61333e565b9050828111610f0957610f028184615b75565b9250611193565b60005484516040516321b443a360e21b81526001600160a01b0391821660048201529116906386d10e8c90602401602060405180830381865afa158015610f54573d6000803e3d6000fd5b505050506040513d601f19601f82011682018060405250810190610f789190615b46565b81111561118d576000805485516040516321b443a360e21b81526001600160a01b03918216600482015261100492879216906386d10e8c906024015b602060405180830381865afa158015610fd1573d6000803e3d6000fd5b505050506040513d601f19601f82011682018060405250810190610ff59190615b46565b610fff9085615b75565b6133b7565b600c548651604051635f0b504b60e11b81529293506000926001600160a01b039092169163be16a0969161103c918890600401615bc9565b602060405180830381865afa158015611059573d6000803e3d6000fd5b505050506040513d601f19601f8201168201806040525081019061107d9190615b46565b600c548751604051633517ff1b60e11b81526001600160a01b0390921691636a2ffe36916110af918990600401615bc9565b602060405180830381865afa1580156110cc573d6000803e3d6000fd5b505050506040513d601f19601f820116820180604052508101906110f09190615b46565b6110fa9190615bfa565b905060008660400151670de0b6b3a7640000846111179190615c0d565b6111219190615c3a565b9050612710603054826111349190615c0d565b61113e9190615c3a565b9050600061114c8284615b75565b9050600061115a8587615b75565b9050600061116c8a60000151836133cd565b90506111788382613446565b9b50611184868a615b75565b98505050505050505b5061120d565b60085484516040516239c6e160ea1b81526001600160a01b039092169163e71b8400916111c4918690600401615bc9565b602060405180830381865afa1580156111e1573d6000803e3d6000fd5b505050506040513d601f19601f820116820180604052508101906112059190615b88565b915050610db8565b611217828a615b75565b93505050509450945094915050565b61122e612b59565b6112676040518060c001604052806000815260200160008152602001600081526020016000815260200160008152602001600081525090565b600754604051635670bcc760e11b81526001600160a01b038b811660048301529091169063ace1798e90602401602060405180830381865afa1580156112b1573d6000803e3d6000fd5b505050506040513d601f19601f820116820180604052508101906112d59190615b46565b608082018190526112eb908a9084908b9061347c565b6112f489610b0e565b60a0820152878152600c5460808201516040516352576cdf60e01b81526000926001600160a01b0316916352576cdf91611335918e918b9190600401615ba5565b602060405180830381865afa158015611352573d6000803e3d6000fd5b505050506040513d601f19601f820116820180604052508101906113769190615c4e565b1561138257508461156c565b600854604051637608271560e01b81526001600160a01b038c8116600483015290911690637608271590602401602060405180830381865afa1580156113cc573d6000803e3d6000fd5b505050506040513d601f19601f820116820180604052508101906113f09190615b88565b90505b6001600160a01b038116158015906114ee5750600054604051633c557a6f60e11b81526001600160a01b038c81166004830152909116906378aaf4de90602401602060405180830381865afa158015611450573d6000803e3d6000fd5b505050506040513d601f19601f820116820180604052508101906114749190615b46565b600c54608084015160405163b1eafaab60e01b81526001600160a01b039092169163b1eafaab916114ab918f918791600401615ba5565b602060405180830381865afa1580156114c8573d6000803e3d6000fd5b505050506040513d601f19601f820116820180604052508101906114ec9190615b46565b105b1561156c576008546040516239c6e160ea1b81526001600160a01b039091169063e71b840090611524908d908590600401615bc9565b602060405180830381865afa158015611541573d6000803e3d6000fd5b505050506040513d601f19601f820116820180604052508101906115659190615b88565b90506113f3565b8360000361157a5760001993505b6001600160a01b038116158015906115925750815115155b801561159d57508315155b156116fd57836115ac81615be3565b6008546040516239c6e160ea1b8152919650600092506001600160a01b03169063e71b8400906115e2908e908690600401615bc9565b602060405180830381865afa1580156115ff573d6000803e3d6000fd5b505050506040513d601f19601f820116820180604052508101906116239190615b88565b600c5460405163df4fb9ef60e01b81529192506001600160a01b03169063df4fb9ef90611656908e908690600401615bc9565b600060405180830381600087803b15801561167057600080fd5b505af1158015611684573d6000803e3d6000fd5b5050505060006116a18c84866000015187608001518e8e8d61372c565b90508060400151156116b45750506116fd565b805160208501516116c59190615bfa565b60208086019190915281015160408501516116e09190615bfa565b6040850152805184516116f39190615b75565b845250905061157a565b8160400151600003611722576040516346c7d89b60e11b815260040160405180910390fd5b600c54604080840151608085015160a0860151925163c5d75f7b60e01b81526001600160a01b038f811660048301526024820193909352604481019190915260648101929092529091169063c5d75f7b90608401600060405180830381600087803b15801561179057600080fd5b505af11580156117a4573d6000803e3d6000fd5b5050600c546040858101519051631ee9211f60e01b81526001600160a01b038f81166004830152602482019290925291169250631ee9211f9150604401602060405180830381865afa1580156117fe573d6000803e3d6000fd5b505050506040513d601f19601f820116820180604052508101906118229190615b46565b606083018190526040830151611839919085613b0c565b600c5460208301516060840151604080860151905163025eeff360e41b81526001600160a01b038f811660048301523360248301526044820194909452606481019290925260848201529116906325eeff309060a401600060405180830381600087803b1580156118a957600080fd5b505af11580156118bd573d6000803e3d6000fd5b50505050896001600160a01b03167f08b6f1ce3f9ab2722e8ea40c31a3e3a806a41702c5994f29af43dc0c1f2837df8a846020015185604001518660600151604051611922949392919093845260208401929092526040830152606082015260800190565b60405180910390a250506119436001600080516020615d9683398151915255565b5050505050505050565b611955613bc1565b61195e82613c66565b610b0a8282613c6e565b6000611972613d2b565b50600080516020615d7683398151915290565b61198d612afe565b6001600160a01b0381166119b45760405163706ebc6560e11b815260040160405180910390fd5b600280546001600160a01b0319166001600160a01b0392909216919091179055565b600c5460405163bc8793a960e01b81526001600160a01b038681166004830152600092839283928392169063bc8793a990602401602060405180830381865afa158015611a27573d6000803e3d6000fd5b505050506040513d601f19601f82011682018060405250810190611a4b9190615b46565b905080600003611a65576000808693509350935050611cc0565b600854604051637608271560e01b81526001600160a01b038a8116600483015290911690637608271590602401602060405180830381865afa158015611aaf573d6000803e3d6000fd5b505050506040513d601f19601f82011682018060405250810190611ad39190615b88565b600c546040516390ec230160e01b8152919550611b529189916001600160a01b0316906390ec230190611b0c908d908a90600401615bc9565b602060405180830381865afa158015611b29573d6000803e3d6000fd5b505050506040513d601f19601f82011682018060405250810190611b4d9190615b46565b613d74565b925084915060015b86811015611cbd5760408051602081018590520160408051601f19818403018152919052805160209091012092506000611b948385615c70565b600c5460405163c226882360e01b81526001600160a01b038d81166004830152602482018490529293506000929091169063c226882390604401602060405180830381865afa158015611beb573d6000803e3d6000fd5b505050506040513d601f19601f82011682018060405250810190611c0f9190615b88565b600c546040516390ec230160e01b81529192506000916001600160a01b03909116906390ec230190611c47908f908690600401615bc9565b602060405180830381865afa158015611c64573d6000803e3d6000fd5b505050506040513d601f19601f82011682018060405250810190611c889190615b46565b90506000611c96828d613d74565b905087811015611ca7578097508298505b84611cb181615c84565b95505050505050611b5a565b50505b9450945094915050565b611cd2612afe565b611cdc6000613d97565b565b600c54604051637316290f60e11b81526001600160a01b039091169063e62c521e90611d109085908590600401615bc9565b602060405180830381865afa158015611d2d573d6000803e3d6000fd5b505050506040513d601f19601f82011682018060405250810190611d519190615c4e565b611d6e5760405163327cb9bf60e11b815260040160405180910390fd5b604080516001808252818301909252600091602080830190803683370190505090508181600081518110611da457611da4615c9d565b60200260200101906001600160a01b031690816001600160a01b031681525050611dce838261291a565b505050565b600e54604051635845309f60e11b81526001600160a01b038381166004830152600092169063b08a613e90602401610b3d565b611e0e612afe565b600e54600160a01b900460ff1615611e3857604051625f22e960e41b815260040160405180910390fd5b600d8114611e5957604051633f5a111d60e21b815260040160405180910390fd5b60005b600d811015611efc576000838383818110611e7957611e79615c9d565b9050602002016020810190611e8e919061572a565b6001600160a01b031603611ef45780838383818110611eaf57611eaf615c9d565b9050602002016020810190611ec4919061572a565b604051630d9d339f60e01b815260048101929092526001600160a01b031660248201526044015b60405180910390fd5b600101611e5c565b5081816000818110611f1057611f10615c9d565b9050602002016020810190611f25919061572a565b600080546001600160a01b0319166001600160a01b039290921691909117905581816001818110611f5857611f58615c9d565b9050602002016020810190611f6d919061572a565b600180546001600160a01b0319166001600160a01b039290921691909117905581816002818110611fa057611fa0615c9d565b9050602002016020810190611fb5919061572a565b600380546001600160a01b0319166001600160a01b039290921691909117815582908290818110611fe857611fe8615c9d565b9050602002016020810190611ffd919061572a565b600480546001600160a01b0319166001600160a01b03929092169190911781558290829081811061203057612030615c9d565b9050602002016020810190612045919061572a565b600580546001600160a01b0319166001600160a01b03929092169190911781558290829081811061207857612078615c9d565b905060200201602081019061208d919061572a565b600780546001600160a01b0319166001600160a01b0392909216919091179055818160068181106120c0576120c0615c9d565b90506020020160208101906120d5919061572a565b600880546001600160a01b0319166001600160a01b03929092169190911790558181600781811061210857612108615c9d565b905060200201602081019061211d919061572a565b600980546001600160a01b0319166001600160a01b03929092169190911790558181600881811061215057612150615c9d565b9050602002016020810190612165919061572a565b600a80546001600160a01b0319166001600160a01b03929092169190911790558181600981811061219857612198615c9d565b90506020020160208101906121ad919061572a565b600b80546001600160a01b0319166001600160a01b03929092169190911790558181600a8181106121e0576121e0615c9d565b90506020020160208101906121f5919061572a565b600c80546001600160a01b0319166001600160a01b03929092169190911790558181600b81811061222857612228615c9d565b905060200201602081019061223d919061572a565b600d80546001600160a01b0319166001600160a01b03929092169190911790558181600c81811061227057612270615c9d565b9050602002016020810190612285919061572a565b600e80546001600160a81b0319166001600160a01b039290921691909117600160a01b1790555050565b600a546001600160a01b031633146122da57604051630e50357d60e01b815260040160405180910390fd5b6125e48110806122eb575061271081115b15612309576040516334d8ee5360e21b815260040160405180910390fd5b60308190556040518181527f39e82d837dcc454e3b68bd2a39ec088a78af1570fa1a2de0b9b2e2d45c1158c69060200160405180910390a150565b60006123508383613446565b9392505050565b7ff0c57e16840df040f15088dc2f81fe391c3923bec73e23a9662efc9c229c6a008054600160401b810460ff16159067ffffffffffffffff1660008115801561239d5750825b905060008267ffffffffffffffff1660011480156123ba5750303b155b9050811580156123c8575080155b156123e65760405163f92ee8a960e01b815260040160405180910390fd5b845467ffffffffffffffff19166001178555831561241057845460ff60401b1916600160401b1785555b61241986613e08565b612421613e19565b612429613e21565b831561246f57845460ff60401b19168555604051600181527fc7f505b2f371ae2175ee4913f4499e1f2633a7b5936321eed1cdaeb6115181d29060200160405180910390a15b505050505050565b61247f612b59565b6124b36040518060a00160405280600081526020016000815260200160001515815260200160008152602001600081525090565b6124bb615681565b600754604051635670bcc760e11b81526001600160a01b0386811660048301529091169063ace1798e90602401602060405180830381865afa158015612505573d6000803e3d6000fd5b505050506040513d601f19601f820116820180604052508101906125299190615b46565b825260095460408051630d9a6b3560e01b815290516001600160a01b0390921691630d9a6b35916004808201926020929091908290030181865afa158015612575573d6000803e3d6000fd5b505050506040513d601f19601f820116820180604052508101906125999190615b46565b602083015281516125ab908590612b91565b15801560408401526125d4576125cd8483600001518460200151866000612c16565b90506125ed565b6125ea8483600001518460200151866000613121565b90505b80602001516000036126125760405163520522c760e01b815260040160405180910390fd5b600c5460c082015160e0830151608084015160a0850151604051637012f7fb60e01b81526001600160a01b038a811660048301526024820195909552604481019390935260648301919091526084820152911690637012f7fb9060a401600060405180830381600087803b15801561268957600080fd5b505af115801561269d573d6000803e3d6000fd5b5050505080610100015160001461278757600e5461010082015160405163181a023b60e01b81526001600160a01b038781166004830152602482019290925291169063181a023b90604401600060405180830381600087803b15801561270257600080fd5b505af1158015612716573d6000803e3d6000fd5b5050600e546101008401516040516367183e5360e11b81526001600160a01b03898116600483015260248201929092529116925063ce307ca69150604401600060405180830381600087803b15801561276e57600080fd5b505af1158015612782573d6000803e3d6000fd5b505050505b600c54604082810151905163da3835ad60e01b81526001600160a01b038781166004830152602482019290925291169063da3835ad90604401600060405180830381600087803b1580156127da57600080fd5b505af11580156127ee573d6000803e3d6000fd5b5050506020820151606084015250610100810151604082015182516128139190615b75565b61281d9190615b75565b6080808401829052606080850151604080860151868401518251938452602084019690965290820152908101929092526001600160a01b038616917fa3f221854f649364e9a3bb384dd1ff938482664f4a0eac0f6e39a542f5193bd3910160405180910390a2600c546060820151604080840151905163b65c72bf60e01b81526001600160a01b0388811660048301523360248301526044820193909352606481019190915291169063b65c72bf90608401600060405180830381600087803b1580156128e957600080fd5b505af11580156128fd573d6000803e3d6000fd5b505050505050610b0a6001600080516020615d9683398151915255565b612922612b59565b80511580612931575060198151115b1561294f57604051637f9c2a2560e01b815260040160405180910390fd5b6129836040518060a00160405280600081526020016000815260200160001515815260200160008152602001600081525090565b61298b615681565b600960009054906101000a90046001600160a01b03166001600160a01b0316630d9a6b356040518163ffffffff1660e01b8152600401602060405180830381865afa1580156129de573d6000803e3d6000fd5b505050506040513d601f19601f82011682018060405250810190612a029190615b46565b6020830152600754604051635670bcc760e11b81526001600160a01b0386811660048301529091169063ace1798e90602401602060405180830381865afa158015612a51573d6000803e3d6000fd5b505050506040513d601f19601f82011682018060405250810190612a759190615b46565b808352612a83908590612b91565b1580156040840152612aa3576125cd848360000151846020015186613e31565b6125ea8483600001518460200151866141d9565b612abf612afe565b6001600160a01b038116612ae957604051631e4fbdf760e01b815260006004820152602401611eeb565b612af281613d97565b50565b612af281613c66565b33612b307f9016d09d72d40fdae2fd8ceac6b6234c7706214fd39c1cd1e609a0528c199300546001600160a01b031690565b6001600160a01b031614611cdc5760405163118cdaa760e01b8152336004820152602401611eeb565b600080516020615d96833981519152805460011901612b8b57604051633ee5aeb560e01b815260040160405180910390fd5b60029055565b600080612b9e848461435a565b60005460405163316a306d60e11b81526001600160a01b0387811660048301529293509116906362d460da90602401602060405180830381865afa158015612bea573d6000803e3d6000fd5b505050506040513d601f19601f82011682018060405250810190612c0e9190615b46565b119392505050565b612c1e615681565b612c266156cd565b612c2e615681565b8582526000608083015260208201879052612c4888610b0e565b60a0830152612c5688611dd3565b60c0830152600854604051637608271560e01b81526001600160a01b038a8116600483015290911690637608271590602401602060405180830381865afa158015612ca5573d6000803e3d6000fd5b505050506040513d601f19601f82011682018060405250810190612cc99190615b88565b6001600160a01b039081166060840152600854604051631bdb4c8d60e01b81528a831660048201526000929190911690631bdb4c8d90602401602060405180830381865afa158015612d1f573d6000803e3d6000fd5b505050506040513d601f19601f82011682018060405250810190612d439190615b88565b905060005b8681108015612d6d5750816001600160a01b031684606001516001600160a01b031614155b156131145760085460608501516040516239c6e160ea1b81526000926001600160a01b03169163e71b840091612da7918f91600401615bc9565b602060405180830381865afa158015612dc4573d6000803e3d6000fd5b505050506040513d601f19601f82011682018060405250810190612de89190615b88565b9050600c60009054906101000a90046001600160a01b03166001600160a01b031663b1eafaab8c876060015188602001516040518463ffffffff1660e01b8152600401612e3793929190615ba5565b602060405180830381865afa158015612e54573d6000803e3d6000fd5b505050506040513d601f19601f82011682018060405250810190612e789190615b46565b6040860152608085015161301457600054604051633c557a6f60e11b81526001600160a01b038d81166004830152909116906378aaf4de90602401602060405180830381865afa158015612ed0573d6000803e3d6000fd5b505050506040513d601f19601f82011682018060405250810190612ef49190615b46565b856040015110158015612f0657508451155b15612f115750613114565b6000612f2a8660c001518760a001518860200151614389565b90508715612f5957612f528c876060015188604001518960000151858b6020015160016143bc565b9450612f7c565b612f798c876060015188604001518960000151858b6020015160006143bc565b94505b60808501518651612f8d9190615b75565b8652608085015160a0870151612fa39190615b75565b8660a001818152505084610100015185604001518660a001518860c00151612fcb9190615b75565b612fd59190615b75565b612fdf9190615b75565b60c0870152612fee8786614d3d565b96506130088c8760c001518860a001518960200151614e27565b156080870152506130fe565b846080015180156130955750600054604051633c557a6f60e11b81526001600160a01b038d81166004830152909116906378aaf4de90602401602060405180830381865afa15801561306a573d6000803e3d6000fd5b505050506040513d601f19601f8201168201806040525081019061308e9190615b46565b8560400151105b156130f85786156130bc576130b58b866060015187600001516001614eaf565b93506130d4565b6130d18b866060015187600001516000614eaf565b93505b608084015185516130e59190615b75565b85526130f18685614d3d565b95506130fe565b50613114565b6001600160a01b03166060850152600101612d48565b5050505095945050505050565b613129615681565b6131316156cd565b613139615681565b85825260005b8581101561331e57600854604051637608271560e01b81526001600160a01b038b8116600483015290911690637608271590602401602060405180830381865afa158015613191573d6000803e3d6000fd5b505050506040513d601f19601f820116820180604052508101906131b59190615b88565b6001600160a01b0390811660608501819052600c5460405163b1eafaab60e01b815292169163b1eafaab916131f1918d91908d90600401615ba5565b602060405180830381865afa15801561320e573d6000803e3d6000fd5b505050506040513d601f19601f820116820180604052508101906132329190615b46565b6040848101919091526000549051633c557a6f60e11b81526001600160a01b038b81166004830152909116906378aaf4de90602401602060405180830381865afa158015613284573d6000803e3d6000fd5b505050506040513d601f19601f820116820180604052508101906132a89190615b46565b836040015110156133115784156132d5576132ce89846060015185600001516001614eaf565b91506132ed565b6132ea89846060015185600001516000614eaf565b91505b608082015183516132fe9190615b75565b835261330a8483614d3d565b9350613316565b61331e565b60010161313f565b50505095945050505050565b6001600080516020615d9683398151915255565b6000805460405163c08261db60e01b81526001600160a01b0385811660048301529091169063c08261db90602401602060405180830381865afa158015613389573d6000803e3d6000fd5b505050506040513d601f19601f820116820180604052508101906133ad9190615b46565b6123509083615b75565b60008183106133c65781612350565b5090919050565b6000805460405163c08261db60e01b81526001600160a01b0385811660048301529091169063c08261db90602401602060405180830381865afa158015613418573d6000803e3d6000fd5b505050506040513d601f19601f8201168201806040525081019061343c9190615b46565b6123509083615bfa565b60008115613473578161346268056bc75e2d6310000085615c0d565b61346c9190615c3a565b9050610b7e565b50600019610b7e565b60008054604051633d15092560e21b81526001600160a01b0387811660048301529091169063f454249490602401602060405180830381865afa1580156134c7573d6000803e3d6000fd5b505050506040513d601f19601f820116820180604052508101906134eb9190615b46565b90504281111561350e57604051637fe8d35d60e01b815260040160405180910390fd5b6000805460405163443c4fcb60e01b81526001600160a01b0388811660048301529091169063443c4fcb90602401602060405180830381865afa158015613559573d6000803e3d6000fd5b505050506040513d601f19601f8201168201806040525081019061357d9190615b46565b9050808510806135945750670de0b6b3a764000085115b156135c357604051636b44726760e11b815260048101829052670de0b6b3a76400006024820152604401611eeb565b836000036135e457604051630fcbc67160e21b815260040160405180910390fd5b6003546040516370a0823160e01b81523360048201526000916001600160a01b0316906370a0823190602401602060405180830381865afa15801561362d573d6000803e3d6000fd5b505050506040513d601f19601f820116820180604052508101906136519190615b46565b9050848110156136775760405163780a921960e11b815260048101829052602401611eeb565b6000613683888661435a565b60008054604051633c557a6f60e11b81526001600160a01b038c81166004830152939450919216906378aaf4de90602401602060405180830381865afa1580156136d1573d6000803e3d6000fd5b505050506040513d601f19601f820116820180604052508101906136f59190615b46565b9050808210156137215760405162132add60e91b81526004810183905260248101829052604401611eeb565b505050505050505050565b613752604051806060016040528060008152602001600081526020016000151581525090565b600c5460405163f9a3d41f60e01b81526000916001600160a01b03169063f9a3d41f90613785908c908c90600401615bc9565b602060405180830381865afa1580156137a2573d6000803e3d6000fd5b505050506040513d601f19601f820116820180604052508101906137c69190615b46565b600c54604051633517ff1b60e11b81529192506000916001600160a01b0390911690636a2ffe36906137fe908d908d90600401615bc9565b602060405180830381865afa15801561381b573d6000803e3d6000fd5b505050506040513d601f19601f8201168201806040525081019061383f9190615b46565b60005460405163c08261db60e01b81526001600160a01b038d81166004830152929350613878928b92169063c08261db90602401610fb4565b808452879061389090670de0b6b3a764000090615c0d565b61389a9190615c3a565b60208401819052603054612710916138b29190615c0d565b6138bc9190615c3a565b602084015282516000906138d09084615b75565b905060008460200151836138e49190615b75565b60005460405163c08261db60e01b81526001600160a01b038f8116600483015292935091169063c08261db90602401602060405180830381865afa158015613930573d6000803e3d6000fd5b505050506040513d601f19601f820116820180604052508101906139549190615b46565b82036139c557600c5460405163456dc0ff60e11b81526001600160a01b0390911690638adb81fe9061398e908f908f908690600401615ba5565b600060405180830381600087803b1580156139a857600080fd5b505af11580156139bc573d6000803e3d6000fd5b50505050613afc565b60006139d18284613446565b90508681141580613a5757506000546040516321b443a360e21b81526001600160a01b038f81166004830152909116906386d10e8c90602401602060405180830381865afa158015613a27573d6000803e3d6000fd5b505050506040513d601f19601f82011682018060405250810190613a4b9190615b46565b613a558e8561333e565b105b15613a6e5750506001604085015250613b01915050565b600c5460405163038027ff60e21b81526001600160a01b038f811660048301528e811660248301526044820186905260648201859052608482018490528b811660a48301528a811660c483015290911690630e009ffc9060e401600060405180830381600087803b158015613ae257600080fd5b505af1158015613af6573d6000803e3d6000fd5b50505050505b505050505b979650505050505050565b6000805460408051635105d77360e11b8152905185926001600160a01b03169163a20baee69160048083019260209291908290030181865afa158015613b56573d6000803e3d6000fd5b505050506040513d601f19601f82011682018060405250810190613b7a9190615b46565b613b849086615c0d565b613b8e9190615c3a565b905081811115613bbb57604051632e364cc160e21b81526004810182905260248101839052604401611eeb565b50505050565b306001600160a01b037f0000000000000000000000000000000000000000000000000000000000000000161480613c4857507f00000000000000000000000000000000000000000000000000000000000000006001600160a01b0316613c3c600080516020615d76833981519152546001600160a01b031690565b6001600160a01b031614155b15611cdc5760405163703e46dd60e11b815260040160405180910390fd5b612af2612afe565b816001600160a01b03166352d1902d6040518163ffffffff1660e01b8152600401602060405180830381865afa925050508015613cc8575060408051601f3d908101601f19168201909252613cc591810190615b46565b60015b613cf057604051634c9c8ce360e01b81526001600160a01b0383166004820152602401611eeb565b600080516020615d768339815191528114613d2157604051632a87526960e21b815260048101829052602401611eeb565b611dce8383615229565b306001600160a01b037f00000000000000000000000000000000000000000000000000000000000000001614611cdc5760405163703e46dd60e11b815260040160405180910390fd5b600081831015613d8d57613d888383615b75565b612350565b6123508284615b75565b7f9016d09d72d40fdae2fd8ceac6b6234c7706214fd39c1cd1e609a0528c19930080546001600160a01b031981166001600160a01b03848116918217845560405192169182907f8be0079c531659141344cd1fd0a4f28419497f9722a3daafe3b4186f6b6457e090600090a3505050565b613e1061527f565b612af2816152c8565b611cdc61527f565b613e2961527f565b611cdc6152d0565b613e39615681565b613e416156cd565b613e49615681565b84825260006080830152613e5c87610b0e565b60a0830152613e6a87611dd3565b60c083015260005b84518110156141ce57848181518110613e8d57613e8d615c9d565b60209081029190910101516001600160a01b031660608401526001600c546060850151604051632862f79760e11b81526001600160a01b03909216916350c5ef2e91613ede918d9190600401615bc9565b602060405180830381865afa158015613efb573d6000803e3d6000fd5b505050506040513d601f19601f82011682018060405250810190613f1f9190615b46565b14613f2c57600101613e72565b600c54606084015160405163b1eafaab60e01b81526001600160a01b039092169163b1eafaab91613f64918c91908c90600401615ba5565b602060405180830381865afa158015613f81573d6000803e3d6000fd5b505050506040513d601f19601f82011682018060405250810190613fa59190615b46565b6040840152608083015161410957600054604051633c557a6f60e11b81526001600160a01b038a81166004830152909116906378aaf4de90602401602060405180830381865afa158015613ffd573d6000803e3d6000fd5b505050506040513d601f19601f820116820180604052508101906140219190615b46565b83604001511015801561403357508251155b1561404057600101613e72565b60006140558460c001518560a001518a614389565b905061407389856060015186604001518760000151858d60006143bc565b6080810151855191945061408691615b75565b8452608083015160a085015161409c9190615b75565b8460a001818152505082610100015183604001518460a001518660c001516140c49190615b75565b6140ce9190615b75565b6140d89190615b75565b60c08501526140e78584614d3d565b94506140fd898560c001518660a001518b614e27565b156080850152506141c6565b8260800151801561418a5750600054604051633c557a6f60e11b81526001600160a01b038a81166004830152909116906378aaf4de90602401602060405180830381865afa15801561415f573d6000803e3d6000fd5b505050506040513d601f19601f820116820180604052508101906141839190615b46565b8360400151105b156141c6576141a488846060015185600001516000614eaf565b608081015184519193506141b791615b75565b83526141c38483614d3d565b93505b600101613e72565b505050949350505050565b6141e1615681565b6141e96156cd565b6141f1615681565b84825260005b84518110156141ce5784818151811061421257614212615c9d565b60209081029190910101516001600160a01b0390811660608501819052600c5460405163b1eafaab60e01b815292169163b1eafaab91614259918c91908c90600401615ba5565b602060405180830381865afa158015614276573d6000803e3d6000fd5b505050506040513d601f19601f8201168201806040525081019061429a9190615b46565b6040848101919091526000549051633c557a6f60e11b81526001600160a01b038a81166004830152909116906378aaf4de90602401602060405180830381865afa1580156142ec573d6000803e3d6000fd5b505050506040513d601f19601f820116820180604052508101906143109190615b46565b836040015110156143525761433088846060015185600001516000614eaf565b6080810151845191935061434391615b75565b835261434f8483614d3d565b93505b6001016141f7565b60008061436684611dd3565b9050600061437385610b0e565b9050614380828286614389565b95945050505050565b600082156143b15760008361439e8487615c0d565b6143a89190615c3a565b91506123509050565b506000199392505050565b6143c4615681565b6143e860405180606001604052806000815260200160008152602001600081525090565b600c5460405163bc8793a960e01b81526001600160a01b038b81166004830152600192169063bc8793a990602401602060405180830381865afa158015614433573d6000803e3d6000fd5b505050506040513d601f19601f820116820180604052508101906144579190615b46565b116144625750613b01565b600c546040516309bde83560e21b81526001600160a01b03909116906326f7a0d490614494908c908c90600401615bc9565b608060405180830381865afa1580156144b1573d6000803e3d6000fd5b505050506040513d601f19601f820116820180604052508101906144d59190615cb3565b60408581019190915260208086019290925290850191909152908352600054905163c08261db60e01b81526001600160a01b038b811660048301529091169063c08261db90602401602060405180830381865afa15801561453a573d6000803e3d6000fd5b505050506040513d601f19601f8201168201806040525081019061455e9190615b46565b60608301528215614575576020820151815261459c565b6145838983602001516152d8565b6040830181905260208301516145999190615b75565b81525b60008054906101000a90046001600160a01b03166001600160a01b03166372fe25aa6040518163ffffffff1660e01b8152600401602060405180830381865afa1580156145ed573d6000803e3d6000fd5b505050506040513d601f19601f820116820180604052508101906146119190615b46565b8711158061461c5750825b1561486957600c54602082015160408084015190516330d0a26160e01b81526001600160a01b03909316926330d0a2619261465b928e926004016157ae565b600060405180830381600087803b15801561467557600080fd5b505af1158015614689573d6000803e3d6000fd5b5050600c54604051633ed3a18f60e21b81526001600160a01b03909116925063fb4e863c91506146bf908c908c90600401615bc9565b600060405180830381600087803b1580156146d957600080fd5b505af11580156146ed573d6000803e3d6000fd5b505060006080850181905260a08501525050815160c0830152805160e083015282156147c757600c54606083015160405163ca75007960e01b81526001600160a01b039092169163ca7500799161474a918d918d91600401615ba5565b600060405180830381600087803b15801561476457600080fd5b505af1158015614778573d6000803e3d6000fd5b50505050876001600160a01b0316896001600160a01b0316600080516020615d568339815191528460000151856020015160046040516147ba93929190615ce9565b60405180910390a3614d31565b600c5460405163550bc5ab60e11b81526001600160a01b039091169063aa178b56906147f9908c908c90600401615bc9565b600060405180830381600087803b15801561481357600080fd5b505af1158015614827573d6000803e3d6000fd5b50505050876001600160a01b0316896001600160a01b0316600080516020615d568339815191528460000151856020015160026040516147ba93929190615ce9565b60008054906101000a90046001600160a01b03166001600160a01b03166372fe25aa6040518163ffffffff1660e01b8152600401602060405180830381865afa1580156148ba573d6000803e3d6000fd5b505050506040513d601f19601f820116820180604052508101906148de9190615b46565b871180156149585750600054604051633c557a6f60e11b81526001600160a01b038b81166004830152909116906378aaf4de90602401602060405180830381865afa158015614931573d6000803e3d6000fd5b505050506040513d601f19601f820116820180604052508101906149559190615b46565b87105b15614a8357600c54602082015160408084015190516330d0a26160e01b81526001600160a01b03909316926330d0a26192614997928e926004016157ae565b600060405180830381600087803b1580156149b157600080fd5b505af11580156149c5573d6000803e3d6000fd5b5050600c54604051633ed3a18f60e21b81526001600160a01b03909116925063fb4e863c91506149fb908c908c90600401615bc9565b600060405180830381600087803b158015614a1557600080fd5b505af1158015614a29573d6000803e3d6000fd5b505083518351614a3d935090915088615351565b60e086015260c085015260a08401526080830152600c5460405163550bc5ab60e11b81526001600160a01b039091169063aa178b56906147f9908c908c90600401615bc9565b600054604051633c557a6f60e11b81526001600160a01b038b81166004830152909116906378aaf4de90602401602060405180830381865afa158015614acd573d6000803e3d6000fd5b505050506040513d601f19601f82011682018060405250810190614af19190615b46565b8710158015614aff57508487105b8015614b0c575081518610155b15614d2057600c54602082015160408084015190516330d0a26160e01b81526001600160a01b03909316926330d0a26192614b4b928e926004016157ae565b600060405180830381600087803b158015614b6557600080fd5b505af1158015614b79573d6000803e3d6000fd5b5050505085600003614b8d57614b8d615d23565b600c54604051633ed3a18f60e21b81526001600160a01b039091169063fb4e863c90614bbf908c908c90600401615bc9565b600060405180830381600087803b158015614bd957600080fd5b505af1158015614bed573d6000803e3d6000fd5b50505050614c058983600001518460200151876153b2565b600c5460405163550bc5ab60e11b81529193506001600160a01b03169063aa178b5690614c38908c908c90600401615bc9565b600060405180830381600087803b158015614c5257600080fd5b505af1158015614c66573d6000803e3d6000fd5b50505050816101000151600014614ce257600e54610100830151604051633600d88160e21b81526001600160a01b039092169163d803620491614caf918d918d91600401615ba5565b600060405180830381600087803b158015614cc957600080fd5b505af1158015614cdd573d6000803e3d6000fd5b505050505b876001600160a01b0316896001600160a01b0316600080516020615d5683398151915284600001518560a0015160026040516147ba93929190615ce9565b614d28615681565b9150613b019050565b50979650505050505050565b614d45615681565b81604001518360400151614d599190615bfa565b604082015260608083015190840151614d729190615bfa565b606082015281516020840151614d889190615bfa565b6020808301919091528201518351614da09190615bfa565b815260808083015190840151614db69190615bfa565b608082015260a08083015190840151614dcf9190615bfa565b60a082015260c08083015190840151614de89190615bfa565b60c082015260e08083015190840151614e019190615bfa565b60e08201526101008083015190840151614e1b9190615bfa565b61010082015292915050565b600080614e35858585614389565b60005460405163316a306d60e11b81526001600160a01b0389811660048301529293509116906362d460da90602401602060405180830381865afa158015614e81573d6000803e3d6000fd5b505050506040513d601f19601f82011682018060405250810190614ea59190615b46565b1195945050505050565b614eb7615681565b614edb60405180606001604052806000815260200160008152602001600081525090565b600c546040516309bde83560e21b81526001600160a01b03909116906326f7a0d490614f0d9089908990600401615bc9565b608060405180830381865afa158015614f2a573d6000803e3d6000fd5b505050506040513d601f19601f82011682018060405250810190614f4e9190615cb3565b60408086019182526020868101938452870193909352928552600c549051925191516330d0a26160e01b81526001600160a01b03909116926330d0a26192614f9c928b9291906004016157ae565b600060405180830381600087803b158015614fb657600080fd5b505af1158015614fca573d6000803e3d6000fd5b5050600c54604051633ed3a18f60e21b81526001600160a01b03909116925063fb4e863c91506150009089908990600401615bc9565b600060405180830381600087803b15801561501a57600080fd5b505af115801561502e573d6000803e3d6000fd5b505060005460405163c08261db60e01b81526001600160a01b038a81166004830152909116925063c08261db9150602401602060405180830381865afa15801561507c573d6000803e3d6000fd5b505050506040513d601f19601f820116820180604052508101906150a09190615b46565b6060830152600083156150b8575060208201516150df565b6150c68784602001516152d8565b6040840181905260208401516150dc9190615b75565b90505b82516150ec908287615351565b60e087015260c086015260a08501526080840152831561517457600c54606084015160405163ca75007960e01b81526001600160a01b039092169163ca7500799161513d918b918b91600401615ba5565b600060405180830381600087803b15801561515757600080fd5b505af115801561516b573d6000803e3d6000fd5b505050506151d9565b600c5460405163550bc5ab60e11b81526001600160a01b039091169063aa178b56906151a6908a908a90600401615bc9565b600060405180830381600087803b1580156151c057600080fd5b505af11580156151d4573d6000803e3d6000fd5b505050505b856001600160a01b0316876001600160a01b0316600080516020615d5683398151915285600001518660200151600160405161521793929190615ce9565b60405180910390a35050949350505050565b61523282615510565b6040516001600160a01b038316907fbc7cd75a20ee27fd9adebab32041f755214dbc6bffa90cc0225b39da2e5c2d3b90600090a280511561527757611dce8282615575565b610b0a6155e2565b7ff0c57e16840df040f15088dc2f81fe391c3923bec73e23a9662efc9c229c6a0054600160401b900460ff16611cdc57604051631afcd79f60e31b815260040160405180910390fd5b612abf61527f565b61332a61527f565b600080546040516315ee08fb60e31b81526001600160a01b0385811660048301529091169063af7047d890602401602060405180830381865afa158015615323573d6000803e3d6000fd5b505050506040513d601f19601f820116820180604052508101906153479190615b46565b6123509083615c3a565b6000808080841561539c5761536687866133b7565b9350866153738588615c0d565b61537d9190615c3a565b92506153898488615b75565b91506153958387615b75565b90506153a9565b5060009250829150859050845b93509350935093565b6153ba615681565b8381526020810183905260008054604051633c557a6f60e11b81526001600160a01b038881166004830152859216906378aaf4de90602401602060405180830381865afa15801561540f573d6000803e3d6000fd5b505050506040513d601f19601f820116820180604052508101906154339190615b46565b61543d9087615c0d565b6154479190615c3a565b905061545386826152d8565b604083810191909152600054905163c08261db60e01b81526001600160a01b0388811660048301529091169063c08261db90602401602060405180830381865afa1580156154a5573d6000803e3d6000fd5b505050506040513d601f19601f820116820180604052508101906154c99190615b46565b60608301526080820185905260408201516154e49082615b75565b60a08301526154f38185615b75565b61010083015250600060c0820181905260e0820152949350505050565b806001600160a01b03163b60000361554657604051634c9c8ce360e01b81526001600160a01b0382166004820152602401611eeb565b600080516020615d7683398151915280546001600160a01b0319166001600160a01b0392909216919091179055565b6060600080846001600160a01b0316846040516155929190615d39565b600060405180830381855af49150503d80600081146155cd576040519150601f19603f3d011682016040523d82523d6000602084013e6155d2565b606091505b5091509150614380858383615601565b3415611cdc5760405163b398979f60e01b815260040160405180910390fd5b60608261561157613d8882615658565b815115801561562857506001600160a01b0384163b155b1561565157604051639996b31560e01b81526001600160a01b0385166004820152602401611eeb565b5080612350565b8051156156685780518082602001fd5b604051630a12f52160e11b815260040160405180910390fd5b6040518061012001604052806000815260200160008152602001600081526020016000815260200160008152602001600081526020016000815260200160008152602001600081525090565b6040518060e0016040528060008152602001600081526020016000815260200160006001600160a01b0316815260200160001515815260200160008152602001600081525090565b6001600160a01b0381168114612af257600080fd5b60006020828403121561573c57600080fd5b813561235081615715565b6000806040838503121561575a57600080fd5b823561576581615715565b946020939093013593505050565b6000806000806080858703121561578957600080fd5b843561579481615715565b966020860135965060408601359560600135945092505050565b6001600160a01b039390931683526020830191909152604082015260600190565b600080600080600080600080610100898b0312156157ec57600080fd5b88356157f781615715565b975060208901359650604089013561580e81615715565b9550606089013561581e81615715565b9450608089013561582e81615715565b979a969950949793969560a0850135955060c08501359460e001359350915050565b634e487b7160e01b600052604160045260246000fd5b604051601f8201601f1916810167ffffffffffffffff8111828210171561588f5761588f615850565b604052919050565b600080604083850312156158aa57600080fd5b82356158b581615715565b915060208381013567ffffffffffffffff808211156158d357600080fd5b818601915086601f8301126158e757600080fd5b8135818111156158f9576158f9615850565b61590b601f8201601f19168501615866565b9150808252878482850101111561592157600080fd5b80848401858401376000848284010152508093505050509250929050565b6000806040838503121561595257600080fd5b823561595d81615715565b9150602083013561596d81615715565b809150509250929050565b60005b8381101561599357818101518382015260200161597b565b50506000910152565b60208152600082518060208401526159bb816040850160208701615978565b601f01601f19169190910160400192915050565b600080602083850312156159e257600080fd5b823567ffffffffffffffff808211156159fa57600080fd5b818501915085601f830112615a0e57600080fd5b813581811115615a1d57600080fd5b8660208260051b8501011115615a3257600080fd5b60209290920196919550909350505050565b600060208284031215615a5657600080fd5b5035919050565b60008060408385031215615a7057600080fd5b50508035926020909101359150565b60008060408385031215615a9257600080fd5b8235615a9d81615715565b915060208381013567ffffffffffffffff80821115615abb57600080fd5b818601915086601f830112615acf57600080fd5b813581811115615ae157615ae1615850565b8060051b9150615af2848301615866565b8181529183018401918481019089841115615b0c57600080fd5b938501935b83851015615b365784359250615b2683615715565b8282529385019390850190615b11565b8096505050505050509250929050565b600060208284031215615b5857600080fd5b5051919050565b634e487b7160e01b600052601160045260246000fd5b81810381811115610b7e57610b7e615b5f565b600060208284031215615b9a57600080fd5b815161235081615715565b6001600160a01b039384168152919092166020820152604081019190915260600190565b6001600160a01b0392831681529116602082015260400190565b600081615bf257615bf2615b5f565b506000190190565b80820180821115610b7e57610b7e615b5f565b8082028115828204841417610b7e57610b7e615b5f565b634e487b7160e01b600052601260045260246000fd5b600082615c4957615c49615c24565b500490565b600060208284031215615c6057600080fd5b8151801515811461235057600080fd5b600082615c7f57615c7f615c24565b500690565b600060018201615c9657615c96615b5f565b5060010190565b634e487b7160e01b600052603260045260246000fd5b60008060008060808587031215615cc957600080fd5b505082516020840151604085015160609095015191969095509092509050565b838152602081018390526060810160058310615d1557634e487b7160e01b600052602160045260246000fd5b826040830152949350505050565b634e487b7160e01b600052600160045260246000fd5b60008251615d4b818460208701615978565b919091019291505056fed13515134171b35d13ca928c7912f43125417d82681b5f284b52f97563ccb865360894a13ba1a3210667c828492db98dca3e2076cc3735a920a3ca505d382bbc9b779b17422d0df92223018b32b4d1fa46e071723d6817e2486d003becc55f00a164736f6c6343000817000a",
  "devdoc": {
    "errors": {
      "AddressEmptyCode(address)": [
        {
          "details": "There's no code at `target` (it is not a contract)."
        }
      ],
      "ERC1967InvalidImplementation(address)": [
        {
          "details": "The `implementation` of the proxy is invalid."
        }
      ],
      "ERC1967NonPayable()": [
        {
          "details": "An upgrade function sees `msg.value > 0` that may be lost."
        }
      ],
      "FailedInnerCall()": [
        {
          "details": "A call to an address target failed. The target may have reverted."
        }
      ],
      "InvalidInitialization()": [
        {
          "details": "The contract is already initialized."
        }
      ],
      "NotInitializing()": [
        {
          "details": "The contract is not initializing."
        }
      ],
      "OwnableInvalidOwner(address)": [
        {
          "details": "The owner is not a valid owner account. (eg. `address(0)`)"
        }
      ],
      "OwnableUnauthorizedAccount(address)": [
        {
          "details": "The caller account is not authorized to perform an operation."
        }
      ],
      "ReentrancyGuardReentrantCall()": [
        {
          "details": "Unauthorized reentrant call."
        }
      ],
      "TrenBase__FeeExceededMax(uint256,uint256)": [
        {
          "details": "Error emitted when the fee percentage exceeds max value."
        }
      ],
      "TrenBoxManagerOperations__EmptyAmount()": [
        {
          "details": "Thrown when an operation involves an amount that is empty or zero."
        }
      ],
      "TrenBoxManagerOperations__FeePercentOutOfBounds(uint256,uint256)": [
        {
          "details": "Thrown when the fee percentage is outside the allowed boundaries.",
          "params": {
            "lowerBoundary": "The lower boundary of the allowed fee percentage.",
            "upperBoundary": "The upper boundary of the allowed fee percentage."
          }
        }
      ],
      "TrenBoxManagerOperations__InsufficientDebtTokenBalance(uint256)": [
        {
          "details": "Thrown when there is insufficient balance of the debt token to complete an operation.",
          "params": {
            "availableBalance": "The available balance of the debt token."
          }
        }
      ],
      "TrenBoxManagerOperations__InvalidArraySize()": [
        {
          "details": "Thrown when an operation involves an array with an invalid size."
        }
      ],
      "TrenBoxManagerOperations__InvalidParam()": [
        {
          "details": "Thrown when a provided parameter is invalid."
        }
      ],
      "TrenBoxManagerOperations__NotTimelock()": [
        {
          "details": "Thrown when a function is called by caller that is not the Timelock contract."
        }
      ],
      "TrenBoxManagerOperations__NothingToLiquidate()": [
        {
          "details": "Thrown when there is nothing to liquidate during a liquidation process."
        }
      ],
      "TrenBoxManagerOperations__OnlyTrenBoxManager()": [
        {
          "details": "Thrown when a function is called by an entity that is not the TrenBox Manager."
        }
      ],
      "TrenBoxManagerOperations__RedemptionIsBlocked()": [
        {
          "details": "Thrown when redemption of tokens is blocked."
        }
      ],
      "TrenBoxManagerOperations__TCRMustBeAboveMCR(uint256,uint256)": [
        {
          "details": "Thrown when the Total Collateral Ratio (TCR) is below the Minimum Collateral Ratio (MCR).",
          "params": {
            "mcr": "The Minimum Collateral Ratio that must be met or exceeded.",
            "tcr": "The current Total Collateral Ratio."
          }
        }
      ],
      "TrenBoxManagerOperations__TrenBoxNotActive()": [
        {
          "details": "Thrown when an operation is attempted on an inactive TrenBox."
        }
      ],
      "TrenBoxManagerOperations__UnableToRedeemAnyAmount()": [
        {
          "details": "Thrown when no amount can be redeemed due to insufficient conditions or restrictions."
        }
      ],
      "UUPSUnauthorizedCallContext()": [
        {
          "details": "The call is from an unauthorized context."
        }
      ],
      "UUPSUnsupportedProxiableUUID(bytes32)": [
        {
          "details": "The storage `slot` is unsupported as a UUID."
        }
      ]
    },
    "events": {
      "Initialized(uint64)": {
        "details": "Triggered when the contract has been initialized or reinitialized."
      },
      "Liquidation(address,uint256,uint256,uint256,uint256)": {
        "details": "Emitted when the TrenBox is liquidated.",
        "params": {
          "_asset": "The address of collateral asset.",
          "_collGasCompensation": "The amount of gas compensation, expressed in collateral.",
          "_debtTokenGasCompensation": "The amount of gas compensation, expressed in trenUSD.",
          "_liquidatedColl": "The liquidated amount of collateral.",
          "_liquidatedDebt": "The liquidated amount of debt."
        }
      },
      "Redemption(address,uint256,uint256,uint256,uint256)": {
        "details": "Emitted when the TrenBox is redeemed.",
        "params": {
          "_actualDebtAmount": "The actual amount of debt.",
          "_asset": "The address of collateral asset.",
          "_attemptedDebtAmount": "The attempted amount of debt.",
          "_collFee": "The amount of collateral fee which should be paid.",
          "_collSent": "The amount of collateral which will be sent to redeemer."
        }
      },
      "RedemptionSoftenParamChanged(uint256)": {
        "details": "Emitted when the redemption softening parameter is changed.",
        "params": {
          "_redemptionSofteningParam": "The new redemption softening parameter."
        }
      },
      "Redistribution(address,uint256,uint256,uint256)": {
        "details": "Emitted when the TrenBox is redistributed.",
        "params": {
          "_asset": "The address of collateral asset.",
          "_redistributedCool": "The redistributed amount of collateral.",
          "_redistributedDebt": "The redistributed amount of debt.",
          "_totalDebtTokenGasCompensation": "The total amount of gas compensation, expressed in trenUSD."
        }
      },
      "TrenBoxLiquidated(address,address,uint256,uint256,uint8)": {
        "details": "Emitted when the exact TrenBox is liquidated.",
        "params": {
          "_asset": "The address of collateral asset.",
          "_borrower": "The address of borrower.",
          "_coll": "The amount of collateral.",
          "_debt": "The amount of debt.",
          "_operation": "The index of liquidation."
        }
      },
      "Upgraded(address)": {
        "details": "Emitted when the implementation is upgraded."
      }
    },
    "kind": "dev",
    "methods": {
      "batchLiquidateTrenBoxes(address,address[])": {
        "params": {
          "_asset": "The address of asset.",
          "_trenBoxArray": "The array of custom TrenBoxes."
        }
      },
      "computeNominalCR(uint256,uint256)": {
        "params": {
          "_coll": "The amount of collateral.",
          "_debt": "The amount of debt."
        }
      },
      "getEntireSystemColl(address)": {
        "params": {
          "_asset": "The address of collateral asset."
        }
      },
      "getEntireSystemDebt(address)": {
        "params": {
          "_asset": "The address of collateral asset."
        }
      },
      "initialize(address)": {
        "details": "Runs all the setup logic only once.",
        "params": {
          "initialOwner": "The address of initial owner."
        }
      },
      "liquidate(address,address)": {
        "details": "Closes the TrenBox if its ICR is lower than the minimum collateral ratio.",
        "params": {
          "_asset": "The address of asset.",
          "_borrower": "The address of borrower."
        }
      },
      "liquidateTrenBoxes(address,uint256)": {
        "details": "Closes a maximum number of n under-collateralized TrenBoxes, starting from the one with the lowest collateral ratio in the system, and moving upwards.",
        "params": {
          "_asset": "The address of asset.",
          "_n": "The list TrenBoxes that should be liquidated."
        }
      },
      "owner()": {
        "details": "Returns the address of the current owner."
      },
      "proxiableUUID()": {
        "details": "Implementation of the ERC1822 {proxiableUUID} function. This returns the storage slot used by the implementation. It is used to validate the implementation's compatibility when performing an upgrade. IMPORTANT: A proxy pointing at a proxiable contract should not be considered proxiable itself, because this risks bricking a proxy that upgrades to it, by delegating to itself until out of gas. Thus it is critical that this function revert if invoked through a proxy. This is guaranteed by the `notDelegated` modifier."
      },
      "redeemCollateral(address,uint256,address,address,address,uint256,uint256,uint256)": {
        "details": "Closes an active TrenBox even if its ICR is higher than the minimum collateral ratio.",
        "params": {
          "_asset": "The address of asset.",
          "_debtTokenAmount": "The amount of debt.",
          "_firstRedemptionHint": "The address of first redemption hint.",
          "_lowerPartialRedemptionHint": "The address of lower partial redemption hint.",
          "_maxFeePercentage": "The maximum number of fee.",
          "_maxIterations": "The maximum number of iterations.",
          "_partialRedemptionHintNICR": "The number of partial redemption hint NICR.",
          "_upperPartialRedemptionHint": "The address of upper partial redemption hint."
        }
      },
      "redistributeTrenBoxes(address,uint256)": {
        "params": {
          "_asset": "The address of collateral asset.",
          "_trenBoxes": "The list of TrenBoxes that should be redistributed."
        }
      },
      "renounceOwnership()": {
        "details": "Leaves the contract without owner. It will not be possible to call `onlyOwner` functions. Can only be called by the current owner. NOTE: Renouncing ownership will leave the contract without an owner, thereby disabling any functionality that is only available to the owner."
      },
      "setRedemptionSofteningParam(uint256)": {
        "params": {
          "_redemptionSofteningParam": "The new number of redemption softening parameter."
        }
      },
      "transferOwnership(address)": {
        "details": "Transfers ownership of the contract to a new account (`newOwner`). Can only be called by the current owner."
      },
      "upgradeToAndCall(address,bytes)": {
        "custom:oz-upgrades-unsafe-allow-reachable": "delegatecall",
        "details": "Upgrade the implementation of the proxy to `newImplementation`, and subsequently execute the function call encoded in `data`. Calls {_authorizeUpgrade}. Emits an {Upgraded} event."
      }
    },
    "title": "TrenBoxManagerOperations",
    "version": 1
  },
  "userdoc": {
    "kind": "user",
    "methods": {
      "BATCH_SIZE_LIMIT()": {
        "notice": "The array limit."
      },
      "NAME()": {
        "notice": "The contract name."
      },
      "PERCENTAGE_PRECISION()": {
        "notice": "The percentage divider."
      },
      "batchLiquidateTrenBoxes(address,address[])": {
        "notice": "Attempt to liquidate a custom list of TrenBoxes provided by the caller."
      },
      "computeNominalCR(uint256,uint256)": {
        "notice": "Return nominal collateral ratio."
      },
      "getApproxHint(address,uint256,uint256,uint256)": {
        "notice": "Return address of a TrenBox that is, on average, (length / numTrials) positions away in the sortedTrenBoxes list from the correct insert position of the TrenBox to be inserted. Note: The output address is worst-case O(n) positions away from the correct insert position, however, the function is probabilistic. Input can be tuned to guarantee results to a high degree of confidence, e.g: Submitting numTrials = k * sqrt(length), with k = 15 makes it very, very likely that the ouput address will be <= sqrt(length) positions away from the correct insert position."
      },
      "getEntireSystemColl(address)": {
        "notice": "Returns the entire collateral amount of a specific asset."
      },
      "getEntireSystemDebt(address)": {
        "notice": "Returns the entire debt amount of a specific asset."
      },
      "getRedemptionHints(address,uint256,uint256,uint256)": {
        "notice": "Find the right hints to pass to redeemCollateral(). It simulates a redemption of `_debtTokenAmount` to figure out where the redemption sequence will start and what state the final TrenBox of the sequence will end up in. Returns three hints:  - `firstRedemptionHint` is the address of the first TrenBox with ICR >= MCR (i.e. the first      TrenBox that will be redeemed).  - `partialRedemptionHintNICR` is the final nominal ICR of the last TrenBox of the sequence      after being hit by partial redemption, or zero in case of no partial redemption.  - `truncatedDebtTokenAmount` is the maximum amount that can be redeemed out of the the      provided `_debtTokenAmount`. This can be lower than `_debtTokenAmount` when redeeming      the full amount would leave the last TrenBox of the redemption sequence with less net debt      than the minimum allowed value (i.e. IAdminContract(adminContract).MIN_NET_DEBT()). The number of TrenBoxes to consider for redemption can be capped by passing a non-zero value as `_maxIterations`, while passing zero will leave it uncapped."
      },
      "liquidate(address,address)": {
        "notice": "Liquidate a single TrenBox."
      },
      "liquidateTrenBoxes(address,uint256)": {
        "notice": "Liquidate a sequence of TrenBoxes."
      },
      "redeemCollateral(address,uint256,address,address,address,uint256,uint256,uint256)": {
        "notice": "Redeem collateral from active TrenBox."
      },
      "redemptionSofteningParam()": {
        "notice": "The redemption softening peram."
      },
      "redistributeTrenBoxes(address,uint256)": {
        "notice": "Redistribute (liquidate by protocol) a sequence of low-value trenBoxes. Closes a maximum number of _trenBoxes under-collateralized TrenBoxes, starting from the one with the lowest collateral ratio in the system, and moving upwards."
      },
      "setRedemptionSofteningParam(uint256)": {
        "notice": "Set a new redemption softening parameter"
      }
    },
    "notice": "A contract with main operation functionality such as redemption, redistribution and liquidation.",
    "version": 1
  },
  "storageLayout": {
    "storage": [
      {
        "astId": 10105,
        "contract": "contracts/TrenBoxManagerOperations.sol:TrenBoxManagerOperations",
        "label": "adminContract",
        "offset": 0,
        "slot": "0",
        "type": "t_address"
      },
      {
        "astId": 10107,
        "contract": "contracts/TrenBoxManagerOperations.sol:TrenBoxManagerOperations",
        "label": "borrowerOperations",
        "offset": 0,
        "slot": "1",
        "type": "t_address"
      },
      {
        "astId": 10109,
        "contract": "contracts/TrenBoxManagerOperations.sol:TrenBoxManagerOperations",
        "label": "communityIssuance",
        "offset": 0,
        "slot": "2",
        "type": "t_address"
      },
      {
        "astId": 10111,
        "contract": "contracts/TrenBoxManagerOperations.sol:TrenBoxManagerOperations",
        "label": "debtToken",
        "offset": 0,
        "slot": "3",
        "type": "t_address"
      },
      {
        "astId": 10113,
        "contract": "contracts/TrenBoxManagerOperations.sol:TrenBoxManagerOperations",
        "label": "feeCollector",
        "offset": 0,
        "slot": "4",
        "type": "t_address"
      },
      {
        "astId": 10115,
        "contract": "contracts/TrenBoxManagerOperations.sol:TrenBoxManagerOperations",
        "label": "flashLoanAddress",
        "offset": 0,
        "slot": "5",
        "type": "t_address"
      },
      {
        "astId": 10117,
        "contract": "contracts/TrenBoxManagerOperations.sol:TrenBoxManagerOperations",
        "label": "trenStaking",
        "offset": 0,
        "slot": "6",
        "type": "t_address"
      },
      {
        "astId": 10119,
        "contract": "contracts/TrenBoxManagerOperations.sol:TrenBoxManagerOperations",
        "label": "priceFeed",
        "offset": 0,
        "slot": "7",
        "type": "t_address"
      },
      {
        "astId": 10121,
        "contract": "contracts/TrenBoxManagerOperations.sol:TrenBoxManagerOperations",
        "label": "sortedTrenBoxes",
        "offset": 0,
        "slot": "8",
        "type": "t_address"
      },
      {
        "astId": 10123,
        "contract": "contracts/TrenBoxManagerOperations.sol:TrenBoxManagerOperations",
        "label": "stabilityPool",
        "offset": 0,
        "slot": "9",
        "type": "t_address"
      },
      {
        "astId": 10125,
        "contract": "contracts/TrenBoxManagerOperations.sol:TrenBoxManagerOperations",
        "label": "timelockAddress",
        "offset": 0,
        "slot": "10",
        "type": "t_address"
      },
      {
        "astId": 10127,
        "contract": "contracts/TrenBoxManagerOperations.sol:TrenBoxManagerOperations",
        "label": "treasuryAddress",
        "offset": 0,
        "slot": "11",
        "type": "t_address"
      },
      {
        "astId": 10129,
        "contract": "contracts/TrenBoxManagerOperations.sol:TrenBoxManagerOperations",
        "label": "trenBoxManager",
        "offset": 0,
        "slot": "12",
        "type": "t_address"
      },
      {
        "astId": 10131,
        "contract": "contracts/TrenBoxManagerOperations.sol:TrenBoxManagerOperations",
        "label": "trenBoxManagerOperations",
        "offset": 0,
        "slot": "13",
        "type": "t_address"
      },
      {
        "astId": 10133,
        "contract": "contracts/TrenBoxManagerOperations.sol:TrenBoxManagerOperations",
        "label": "trenBoxStorage",
        "offset": 0,
        "slot": "14",
        "type": "t_address"
      },
      {
        "astId": 10135,
        "contract": "contracts/TrenBoxManagerOperations.sol:TrenBoxManagerOperations",
        "label": "isAddressSetupInitialized",
        "offset": 20,
        "slot": "14",
        "type": "t_bool"
      },
      {
        "astId": 10140,
        "contract": "contracts/TrenBoxManagerOperations.sol:TrenBoxManagerOperations",
        "label": "__gap",
        "offset": 0,
        "slot": "15",
        "type": "t_array(t_uint256)33_storage"
      },
      {
        "astId": 26005,
        "contract": "contracts/TrenBoxManagerOperations.sol:TrenBoxManagerOperations",
        "label": "redemptionSofteningParam",
        "offset": 0,
        "slot": "48",
        "type": "t_uint256"
      }
    ],
    "types": {
      "t_address": {
        "encoding": "inplace",
        "label": "address",
        "numberOfBytes": "20"
      },
      "t_array(t_uint256)33_storage": {
        "base": "t_uint256",
        "encoding": "inplace",
        "label": "uint256[33]",
        "numberOfBytes": "1056"
      },
      "t_bool": {
        "encoding": "inplace",
        "label": "bool",
        "numberOfBytes": "1"
      },
      "t_uint256": {
        "encoding": "inplace",
        "label": "uint256",
        "numberOfBytes": "32"
      }
    }
  }
}