{
  "address": "0x284401E5523d3941fa492774f229A984D6897da4",
  "abi": [
    {
      "inputs": [
        {
          "internalType": "address",
          "name": "initialOwner",
          "type": "address"
        }
      ],
      "stateMutability": "nonpayable",
      "type": "constructor"
    },
    {
      "inputs": [
        {
          "internalType": "address",
          "name": "_caller",
          "type": "address"
        }
      ],
      "name": "DebtToken__CallerIsNotBorrowerOperations",
      "type": "error"
    },
    {
      "inputs": [
        {
          "internalType": "address",
          "name": "_caller",
          "type": "address"
        }
      ],
      "name": "DebtToken__CallerIsNotStabilityPool",
      "type": "error"
    },
    {
      "inputs": [],
      "name": "DebtToken__CannotBurnTokens",
      "type": "error"
    },
    {
      "inputs": [],
      "name": "DebtToken__CannotReturnFromPool",
      "type": "error"
    },
    {
      "inputs": [],
      "name": "DebtToken__CannotTransferTokensToTokenContract",
      "type": "error"
    },
    {
      "inputs": [],
      "name": "DebtToken__CannotTransferTokensToZeroAddress",
      "type": "error"
    },
    {
      "inputs": [],
      "name": "DebtToken__InvalidAddressToConnect",
      "type": "error"
    },
    {
      "inputs": [
        {
          "internalType": "address",
          "name": "_collateral",
          "type": "address"
        }
      ],
      "name": "DebtToken__MintBlockedForCollateral",
      "type": "error"
    },
    {
      "inputs": [
        {
          "internalType": "address",
          "name": "_notWhitelistedContract",
          "type": "address"
        }
      ],
      "name": "DebtToken__NotWhitelistedContract",
      "type": "error"
    },
    {
      "inputs": [],
      "name": "ECDSAInvalidSignature",
      "type": "error"
    },
    {
      "inputs": [
        {
          "internalType": "uint256",
          "name": "length",
          "type": "uint256"
        }
      ],
      "name": "ECDSAInvalidSignatureLength",
      "type": "error"
    },
    {
      "inputs": [
        {
          "internalType": "bytes32",
          "name": "s",
          "type": "bytes32"
        }
      ],
      "name": "ECDSAInvalidSignatureS",
      "type": "error"
    },
    {
      "inputs": [
        {
          "internalType": "address",
          "name": "spender",
          "type": "address"
        },
        {
          "internalType": "uint256",
          "name": "allowance",
          "type": "uint256"
        },
        {
          "internalType": "uint256",
          "name": "needed",
          "type": "uint256"
        }
      ],
      "name": "ERC20InsufficientAllowance",
      "type": "error"
    },
    {
      "inputs": [
        {
          "internalType": "address",
          "name": "sender",
          "type": "address"
        },
        {
          "internalType": "uint256",
          "name": "balance",
          "type": "uint256"
        },
        {
          "internalType": "uint256",
          "name": "needed",
          "type": "uint256"
        }
      ],
      "name": "ERC20InsufficientBalance",
      "type": "error"
    },
    {
      "inputs": [
        {
          "internalType": "address",
          "name": "approver",
          "type": "address"
        }
      ],
      "name": "ERC20InvalidApprover",
      "type": "error"
    },
    {
      "inputs": [
        {
          "internalType": "address",
          "name": "receiver",
          "type": "address"
        }
      ],
      "name": "ERC20InvalidReceiver",
      "type": "error"
    },
    {
      "inputs": [
        {
          "internalType": "address",
          "name": "sender",
          "type": "address"
        }
      ],
      "name": "ERC20InvalidSender",
      "type": "error"
    },
    {
      "inputs": [
        {
          "internalType": "address",
          "name": "spender",
          "type": "address"
        }
      ],
      "name": "ERC20InvalidSpender",
      "type": "error"
    },
    {
      "inputs": [
        {
          "internalType": "uint256",
          "name": "deadline",
          "type": "uint256"
        }
      ],
      "name": "ERC2612ExpiredSignature",
      "type": "error"
    },
    {
      "inputs": [
        {
          "internalType": "address",
          "name": "signer",
          "type": "address"
        },
        {
          "internalType": "address",
          "name": "owner",
          "type": "address"
        }
      ],
      "name": "ERC2612InvalidSigner",
      "type": "error"
    },
    {
      "inputs": [
        {
          "internalType": "address",
          "name": "account",
          "type": "address"
        },
        {
          "internalType": "uint256",
          "name": "currentNonce",
          "type": "uint256"
        }
      ],
      "name": "InvalidAccountNonce",
      "type": "error"
    },
    {
      "inputs": [],
      "name": "InvalidShortString",
      "type": "error"
    },
    {
      "inputs": [
        {
          "internalType": "address",
          "name": "owner",
          "type": "address"
        }
      ],
      "name": "OwnableInvalidOwner",
      "type": "error"
    },
    {
      "inputs": [
        {
          "internalType": "address",
          "name": "account",
          "type": "address"
        }
      ],
      "name": "OwnableUnauthorizedAccount",
      "type": "error"
    },
    {
      "inputs": [
        {
          "internalType": "string",
          "name": "str",
          "type": "string"
        }
      ],
      "name": "StringTooLong",
      "type": "error"
    },
    {
      "anonymous": false,
      "inputs": [
        {
          "indexed": true,
          "internalType": "address",
          "name": "owner",
          "type": "address"
        },
        {
          "indexed": true,
          "internalType": "address",
          "name": "spender",
          "type": "address"
        },
        {
          "indexed": false,
          "internalType": "uint256",
          "name": "value",
          "type": "uint256"
        }
      ],
      "name": "Approval",
      "type": "event"
    },
    {
      "anonymous": false,
      "inputs": [],
      "name": "EIP712DomainChanged",
      "type": "event"
    },
    {
      "anonymous": false,
      "inputs": [
        {
          "indexed": true,
          "internalType": "address",
          "name": "_asset",
          "type": "address"
        },
        {
          "indexed": false,
          "internalType": "bool",
          "name": "_state",
          "type": "bool"
        }
      ],
      "name": "EmergencyStopMintingCollateral",
      "type": "event"
    },
    {
      "anonymous": false,
      "inputs": [
        {
          "indexed": true,
          "internalType": "address",
          "name": "previousOwner",
          "type": "address"
        },
        {
          "indexed": true,
          "internalType": "address",
          "name": "newOwner",
          "type": "address"
        }
      ],
      "name": "OwnershipTransferred",
      "type": "event"
    },
    {
      "anonymous": false,
      "inputs": [
        {
          "indexed": true,
          "internalType": "address",
          "name": "_borrowerOperations",
          "type": "address"
        },
        {
          "indexed": true,
          "internalType": "address",
          "name": "_stabilityPool",
          "type": "address"
        },
        {
          "indexed": true,
          "internalType": "address",
          "name": "_trenBoxManager",
          "type": "address"
        }
      ],
      "name": "ProtocolContractsAddressesSet",
      "type": "event"
    },
    {
      "anonymous": false,
      "inputs": [
        {
          "indexed": true,
          "internalType": "address",
          "name": "from",
          "type": "address"
        },
        {
          "indexed": true,
          "internalType": "address",
          "name": "to",
          "type": "address"
        },
        {
          "indexed": false,
          "internalType": "uint256",
          "name": "value",
          "type": "uint256"
        }
      ],
      "name": "Transfer",
      "type": "event"
    },
    {
      "anonymous": false,
      "inputs": [
        {
          "indexed": true,
          "internalType": "address",
          "name": "_address",
          "type": "address"
        },
        {
          "indexed": false,
          "internalType": "bool",
          "name": "_whitelisted",
          "type": "bool"
        }
      ],
      "name": "WhitelistChanged",
      "type": "event"
    },
    {
      "inputs": [],
      "name": "DOMAIN_SEPARATOR",
      "outputs": [
        {
          "internalType": "bytes32",
          "name": "",
          "type": "bytes32"
        }
      ],
      "stateMutability": "view",
      "type": "function"
    },
    {
      "inputs": [],
      "name": "NAME",
      "outputs": [
        {
          "internalType": "string",
          "name": "",
          "type": "string"
        }
      ],
      "stateMutability": "view",
      "type": "function"
    },
    {
      "inputs": [],
      "name": "SYMBOL",
      "outputs": [
        {
          "internalType": "string",
          "name": "",
          "type": "string"
        }
      ],
      "stateMutability": "view",
      "type": "function"
    },
    {
      "inputs": [
        {
          "internalType": "address",
          "name": "_address",
          "type": "address"
        }
      ],
      "name": "addWhitelist",
      "outputs": [],
      "stateMutability": "nonpayable",
      "type": "function"
    },
    {
      "inputs": [
        {
          "internalType": "address",
          "name": "owner",
          "type": "address"
        },
        {
          "internalType": "address",
          "name": "spender",
          "type": "address"
        }
      ],
      "name": "allowance",
      "outputs": [
        {
          "internalType": "uint256",
          "name": "",
          "type": "uint256"
        }
      ],
      "stateMutability": "view",
      "type": "function"
    },
    {
      "inputs": [
        {
          "internalType": "address",
          "name": "spender",
          "type": "address"
        },
        {
          "internalType": "uint256",
          "name": "value",
          "type": "uint256"
        }
      ],
      "name": "approve",
      "outputs": [
        {
          "internalType": "bool",
          "name": "",
          "type": "bool"
        }
      ],
      "stateMutability": "nonpayable",
      "type": "function"
    },
    {
      "inputs": [
        {
          "internalType": "address",
          "name": "account",
          "type": "address"
        }
      ],
      "name": "balanceOf",
      "outputs": [
        {
          "internalType": "uint256",
          "name": "",
          "type": "uint256"
        }
      ],
      "stateMutability": "view",
      "type": "function"
    },
    {
      "inputs": [],
      "name": "borrowerOperationsAddress",
      "outputs": [
        {
          "internalType": "address",
          "name": "",
          "type": "address"
        }
      ],
      "stateMutability": "view",
      "type": "function"
    },
    {
      "inputs": [
        {
          "internalType": "address",
          "name": "_account",
          "type": "address"
        },
        {
          "internalType": "uint256",
          "name": "_amount",
          "type": "uint256"
        }
      ],
      "name": "burn",
      "outputs": [],
      "stateMutability": "nonpayable",
      "type": "function"
    },
    {
      "inputs": [
        {
          "internalType": "uint256",
          "name": "_amount",
          "type": "uint256"
        }
      ],
      "name": "burnFromWhitelistedContract",
      "outputs": [],
      "stateMutability": "nonpayable",
      "type": "function"
    },
    {
      "inputs": [],
      "name": "decimals",
      "outputs": [
        {
          "internalType": "uint8",
          "name": "",
          "type": "uint8"
        }
      ],
      "stateMutability": "view",
      "type": "function"
    },
    {
      "inputs": [],
      "name": "eip712Domain",
      "outputs": [
        {
          "internalType": "bytes1",
          "name": "fields",
          "type": "bytes1"
        },
        {
          "internalType": "string",
          "name": "name",
          "type": "string"
        },
        {
          "internalType": "string",
          "name": "version",
          "type": "string"
        },
        {
          "internalType": "uint256",
          "name": "chainId",
          "type": "uint256"
        },
        {
          "internalType": "address",
          "name": "verifyingContract",
          "type": "address"
        },
        {
          "internalType": "bytes32",
          "name": "salt",
          "type": "bytes32"
        },
        {
          "internalType": "uint256[]",
          "name": "extensions",
          "type": "uint256[]"
        }
      ],
      "stateMutability": "view",
      "type": "function"
    },
    {
      "inputs": [
        {
          "internalType": "address",
          "name": "_asset",
          "type": "address"
        },
        {
          "internalType": "bool",
          "name": "_status",
          "type": "bool"
        }
      ],
      "name": "emergencyStopMinting",
      "outputs": [],
      "stateMutability": "nonpayable",
      "type": "function"
    },
    {
      "inputs": [
        {
          "internalType": "address",
          "name": "collateral",
          "type": "address"
        }
      ],
      "name": "emergencyStopMintingCollateral",
      "outputs": [
        {
          "internalType": "bool",
          "name": "isStopped",
          "type": "bool"
        }
      ],
      "stateMutability": "view",
      "type": "function"
    },
    {
      "inputs": [
        {
          "internalType": "address",
          "name": "_asset",
          "type": "address"
        },
        {
          "internalType": "address",
          "name": "_account",
          "type": "address"
        },
        {
          "internalType": "uint256",
          "name": "_amount",
          "type": "uint256"
        }
      ],
      "name": "mint",
      "outputs": [],
      "stateMutability": "nonpayable",
      "type": "function"
    },
    {
      "inputs": [
        {
          "internalType": "uint256",
          "name": "_amount",
          "type": "uint256"
        }
      ],
      "name": "mintFromWhitelistedContract",
      "outputs": [],
      "stateMutability": "nonpayable",
      "type": "function"
    },
    {
      "inputs": [],
      "name": "name",
      "outputs": [
        {
          "internalType": "string",
          "name": "",
          "type": "string"
        }
      ],
      "stateMutability": "view",
      "type": "function"
    },
    {
      "inputs": [
        {
          "internalType": "address",
          "name": "owner",
          "type": "address"
        }
      ],
      "name": "nonces",
      "outputs": [
        {
          "internalType": "uint256",
          "name": "",
          "type": "uint256"
        }
      ],
      "stateMutability": "view",
      "type": "function"
    },
    {
      "inputs": [],
      "name": "owner",
      "outputs": [
        {
          "internalType": "address",
          "name": "",
          "type": "address"
        }
      ],
      "stateMutability": "view",
      "type": "function"
    },
    {
      "inputs": [
        {
          "internalType": "address",
          "name": "owner",
          "type": "address"
        },
        {
          "internalType": "address",
          "name": "spender",
          "type": "address"
        },
        {
          "internalType": "uint256",
          "name": "value",
          "type": "uint256"
        },
        {
          "internalType": "uint256",
          "name": "deadline",
          "type": "uint256"
        },
        {
          "internalType": "uint8",
          "name": "v",
          "type": "uint8"
        },
        {
          "internalType": "bytes32",
          "name": "r",
          "type": "bytes32"
        },
        {
          "internalType": "bytes32",
          "name": "s",
          "type": "bytes32"
        }
      ],
      "name": "permit",
      "outputs": [],
      "stateMutability": "nonpayable",
      "type": "function"
    },
    {
      "inputs": [
        {
          "internalType": "address",
          "name": "_address",
          "type": "address"
        }
      ],
      "name": "removeWhitelist",
      "outputs": [],
      "stateMutability": "nonpayable",
      "type": "function"
    },
    {
      "inputs": [],
      "name": "renounceOwnership",
      "outputs": [],
      "stateMutability": "nonpayable",
      "type": "function"
    },
    {
      "inputs": [
        {
          "internalType": "address",
          "name": "_poolAddress",
          "type": "address"
        },
        {
          "internalType": "address",
          "name": "_receiver",
          "type": "address"
        },
        {
          "internalType": "uint256",
          "name": "_amount",
          "type": "uint256"
        }
      ],
      "name": "returnFromPool",
      "outputs": [],
      "stateMutability": "nonpayable",
      "type": "function"
    },
    {
      "inputs": [
        {
          "internalType": "address",
          "name": "_sender",
          "type": "address"
        },
        {
          "internalType": "address",
          "name": "_poolAddress",
          "type": "address"
        },
        {
          "internalType": "uint256",
          "name": "_amount",
          "type": "uint256"
        }
      ],
      "name": "sendToPool",
      "outputs": [],
      "stateMutability": "nonpayable",
      "type": "function"
    },
    {
      "inputs": [
        {
          "internalType": "address",
          "name": "_borrowerOperationsAddress",
          "type": "address"
        },
        {
          "internalType": "address",
          "name": "_stabilityPoolAddress",
          "type": "address"
        },
        {
          "internalType": "address",
          "name": "_trenBoxManagerAddress",
          "type": "address"
        }
      ],
      "name": "setAddresses",
      "outputs": [],
      "stateMutability": "nonpayable",
      "type": "function"
    },
    {
      "inputs": [],
      "name": "stabilityPoolAddress",
      "outputs": [
        {
          "internalType": "address",
          "name": "",
          "type": "address"
        }
      ],
      "stateMutability": "view",
      "type": "function"
    },
    {
      "inputs": [],
      "name": "symbol",
      "outputs": [
        {
          "internalType": "string",
          "name": "",
          "type": "string"
        }
      ],
      "stateMutability": "view",
      "type": "function"
    },
    {
      "inputs": [],
      "name": "totalSupply",
      "outputs": [
        {
          "internalType": "uint256",
          "name": "",
          "type": "uint256"
        }
      ],
      "stateMutability": "view",
      "type": "function"
    },
    {
      "inputs": [
        {
          "internalType": "address",
          "name": "_recipient",
          "type": "address"
        },
        {
          "internalType": "uint256",
          "name": "_amount",
          "type": "uint256"
        }
      ],
      "name": "transfer",
      "outputs": [
        {
          "internalType": "bool",
          "name": "",
          "type": "bool"
        }
      ],
      "stateMutability": "nonpayable",
      "type": "function"
    },
    {
      "inputs": [
        {
          "internalType": "address",
          "name": "_sender",
          "type": "address"
        },
        {
          "internalType": "address",
          "name": "_recipient",
          "type": "address"
        },
        {
          "internalType": "uint256",
          "name": "_amount",
          "type": "uint256"
        }
      ],
      "name": "transferFrom",
      "outputs": [
        {
          "internalType": "bool",
          "name": "",
          "type": "bool"
        }
      ],
      "stateMutability": "nonpayable",
      "type": "function"
    },
    {
      "inputs": [
        {
          "internalType": "address",
          "name": "newOwner",
          "type": "address"
        }
      ],
      "name": "transferOwnership",
      "outputs": [],
      "stateMutability": "nonpayable",
      "type": "function"
    },
    {
      "inputs": [],
      "name": "trenBoxManagerAddress",
      "outputs": [
        {
          "internalType": "address",
          "name": "",
          "type": "address"
        }
      ],
      "stateMutability": "view",
      "type": "function"
    },
    {
      "inputs": [
        {
          "internalType": "address",
          "name": "whitelistedContract",
          "type": "address"
        }
      ],
      "name": "whitelistedContracts",
      "outputs": [
        {
          "internalType": "bool",
          "name": "isWhitelisted",
          "type": "bool"
        }
      ],
      "stateMutability": "view",
      "type": "function"
    }
  ],
  "transactionHash": "0x165b57cba299f15e781be80e7645ceea383342d2d6e698fc8559e3322b73f471",
  "args": [
    "0x19E733F20aAdaB8996f7895ACBD04f746BF4Aac1"
  ],
  "numDeployments": 1,
  "solcInputHash": "ce0a60c92cd27ba5a217c9a57823311c",
  "bytecode": "0x6101606040523480156200001257600080fd5b5060405162001d5238038062001d528339810160408190526200003591620002ad565b806040518060400160405280600f81526020016e2a2922a7102232b13a102a37b5b2b760891b81525080604051806040016040528060018152602001603160f81b8152506040518060400160405280600f81526020016e2a2922a7102232b13a102a37b5b2b760891b815250604051806040016040528060078152602001661d1c995b9554d160ca1b8152508160039081620000d2919062000386565b506004620000e1828262000386565b50620000f391508390506005620001df565b6101205262000104816006620001df565b61014052815160208084019190912060e052815190820120610100524660a0526200019260e05161010051604080517f8b73c3c69bb8fe3d512ecc4cf759cc79239f7b179b0ffacaa9a75d522b39400f60208201529081019290925260608201524660808201523060a082015260009060c00160405160208183030381529060405280519060200120905090565b60805250503060c052506001600160a01b038116620001cc57604051631e4fbdf760e01b8152600060048201526024015b60405180910390fd5b620001d78162000218565b5050620004c8565b6000602083511015620001ff57620001f7836200026a565b905062000212565b816200020c848262000386565b5060ff90505b92915050565b600880546001600160a01b038381166001600160a01b0319831681179093556040519116919082907f8be0079c531659141344cd1fd0a4f28419497f9722a3daafe3b4186f6b6457e090600090a35050565b600080829050601f8151111562000298578260405163305a27a960e01b8152600401620001c3919062000452565b8051620002a582620004a3565b179392505050565b600060208284031215620002c057600080fd5b81516001600160a01b0381168114620002d857600080fd5b9392505050565b634e487b7160e01b600052604160045260246000fd5b600181811c908216806200030a57607f821691505b6020821081036200032b57634e487b7160e01b600052602260045260246000fd5b50919050565b601f82111562000381576000816000526020600020601f850160051c810160208610156200035c5750805b601f850160051c820191505b818110156200037d5782815560010162000368565b5050505b505050565b81516001600160401b03811115620003a257620003a2620002df565b620003ba81620003b38454620002f5565b8462000331565b602080601f831160018114620003f25760008415620003d95750858301515b600019600386901b1c1916600185901b1785556200037d565b600085815260208120601f198616915b82811015620004235788860151825594840194600190910190840162000402565b5085821015620004425787850151600019600388901b60f8161c191681555b5050505050600190811b01905550565b60006020808352835180602085015260005b81811015620004825785810183015185820160400152820162000464565b506000604082860101526040601f19601f8301168501019250505092915050565b805160208083015191908110156200032b5760001960209190910360031b1b16919050565b60805160a05160c05160e05161010051610120516101405161182f620005236000396000610ed001526000610ea301526000610df901526000610dd101526000610d2c01526000610d5601526000610d80015261182f6000f3fe608060405234801561001057600080fd5b50600436106101fb5760003560e01c80638da5cb5b1161011a578063bb997bac116100ad578063edd6cb911161007c578063edd6cb91146104a0578063f2fde38b146104b3578063f76f8d78146104c6578063f7f4d9da146104ec578063f80f5dd5146104ff57600080fd5b8063bb997bac1461042e578063c6c3bbe614610441578063d505accf14610454578063dd62ed3e1461046757600080fd5b8063a3f4df7e116100e9578063a3f4df7e146103c7578063a9059cbb146103f5578063b7f8cf9b14610408578063b95aac761461041b57600080fd5b80638da5cb5b1461037857806395d89b41146103895780639dc29fac14610391578063a1285d17146103a457600080fd5b8063363bf96411610192578063715018a611610161578063715018a61461032f57806378c8cda7146103375780637ecebe001461034a57806384b0196e1461035d57600080fd5b8063363bf964146102c85780633644e515146102db578063391feebb146102e357806370a082311461030657600080fd5b806320c582be116101ce57806320c582be1461027e57806323b872dd14610293578063313ce567146102a657806335995907146102b557600080fd5b806306fdde0314610200578063095ea7b31461021e5780630b622ab21461024157806318160ddd1461026c575b600080fd5b610208610512565b6040516102159190611523565b60405180910390f35b61023161022c366004611559565b6105a4565b6040519015158152602001610215565b600a54610254906001600160a01b031681565b6040516001600160a01b039091168152602001610215565b6002545b604051908152602001610215565b61029161028c366004611583565b6105be565b005b6102316102a1366004611583565b610612565b60405160128152602001610215565b6102916102c33660046115bf565b610679565b6102916102d63660046115fb565b6106e0565b6102706107a3565b6102316102f136600461163e565b600d6020526000908152604090205460ff1681565b61027061031436600461163e565b6001600160a01b031660009081526020819052604090205490565b6102916107b2565b61029161034536600461163e565b6107c6565b61027061035836600461163e565b610824565b610365610842565b6040516102159796959493929190611659565b6008546001600160a01b0316610254565b610208610888565b61029161039f366004611559565b610897565b6102316103b236600461163e565b600c6020526000908152604090205460ff1681565b6102086040518060400160405280600f81526020016e2a2922a7102232b13a102a37b5b2b760891b81525081565b610231610403366004611559565b610900565b600954610254906001600160a01b031681565b6102916104293660046116f2565b610965565b61029161043c366004611583565b6109a9565b61029161044f366004611583565b6109d6565b61029161046236600461170b565b610a52565b61027061047536600461177e565b6001600160a01b03918216600090815260016020908152604080832093909416825291909152205490565b600b54610254906001600160a01b031681565b6102916104c136600461163e565b610b8c565b610208604051806040016040528060078152602001661d1c995b9554d160ca1b81525081565b6102916104fa3660046116f2565b610bc7565b61029161050d36600461163e565b610c03565b606060038054610521906117b1565b80601f016020809104026020016040519081016040528092919081815260200182805461054d906117b1565b801561059a5780601f1061056f5761010080835404028352916020019161059a565b820191906000526020600020905b81548152906001019060200180831161057d57829003601f168201915b5050505050905090565b6000336105b2818585610c62565b60019150505b92915050565b600a546001600160a01b031633148015906105e45750600b546001600160a01b03163314155b156106025760405163286d9ce760e01b815260040160405180910390fd5b61060d838383610c6f565b505050565b6000826001600160a01b03811661063c57604051632beb969160e21b815260040160405180910390fd5b306001600160a01b0382160361066557604051633dfd74a960e21b815260040160405180910390fd5b610670858585610cce565b95945050505050565b610681610cf2565b6001600160a01b0382166000818152600c6020908152604091829020805460ff191685151590811790915591519182527f5bbb1afddf32881824ddeb3fb7fe693cbb0aa35de2ef25c53ad5e8e8d44c2720910160405180910390a25050565b6106e8610cf2565b6001600160a01b038316158061070557506001600160a01b038216155b8061071757506001600160a01b038116155b1561073557604051639ef92a2f60e01b815260040160405180910390fd5b600980546001600160a01b03199081166001600160a01b03868116918217909355600a80548316868516908117909155600b80549093169385169384179092556040517f2a9d9bd6cdff95b6cf4c75d1ba98cefffe6bc2ce43f314cdcc8a03456429719390600090a4505050565b60006107ad610d1f565b905090565b6107ba610cf2565b6107c46000610e4a565b565b6107ce610cf2565b6001600160a01b0381166000818152600d60209081526040808320805460ff19169055519182527fb840a1dbd8b09a3dc45161bba92dfb9aba643c0e44c085a447f839d1d02cf13b91015b60405180910390a250565b6001600160a01b0381166000908152600760205260408120546105b8565b600060608060008060006060610856610e9c565b61085e610ec9565b60408051600080825260208201909252600f60f81b9b939a50919850469750309650945092509050565b606060048054610521906117b1565b6009546001600160a01b031633148015906108bd5750600b546001600160a01b03163314155b80156108d45750600a546001600160a01b03163314155b156108f25760405163b0560a4f60e01b815260040160405180910390fd5b6108fc8282610ef6565b5050565b6000826001600160a01b03811661092a57604051632beb969160e21b815260040160405180910390fd5b306001600160a01b0382160361095357604051633dfd74a960e21b815260040160405180910390fd5b61095d8484610f2c565b949350505050565b336000908152600d602052604090205460ff1661099c57604051631e88279360e31b81523360048201526024015b60405180910390fd5b6109a63382610ef6565b50565b600a546001600160a01b03163314610602576040516301d0e72d60e41b8152336004820152602401610993565b6009546001600160a01b03163314610a0357604051637433a15b60e11b8152336004820152602401610993565b6001600160a01b0383166000908152600c602052604090205460ff1615610a485760405163474a286d60e11b81526001600160a01b0384166004820152602401610993565b61060d8282610f3a565b83421115610a765760405163313c898160e11b815260048101859052602401610993565b60007f6e71edae12b1b97f4d1f60370fef10105fa2faae0126114a169c64845d6126c9888888610ac38c6001600160a01b0316600090815260076020526040902080546001810190915590565b6040805160208101969096526001600160a01b0394851690860152929091166060840152608083015260a082015260c0810186905260e0016040516020818303038152906040528051906020012090506000610b1e82610f70565b90506000610b2e82878787610f9d565b9050896001600160a01b0316816001600160a01b031614610b75576040516325c0072360e11b81526001600160a01b0380831660048301528b166024820152604401610993565b610b808a8a8a610c62565b50505050505050505050565b610b94610cf2565b6001600160a01b038116610bbe57604051631e4fbdf760e01b815260006004820152602401610993565b6109a681610e4a565b336000908152600d602052604090205460ff16610bf957604051631e88279360e31b8152336004820152602401610993565b6109a63382610f3a565b610c0b610cf2565b6001600160a01b0381166000818152600d6020908152604091829020805460ff1916600190811790915591519182527fb840a1dbd8b09a3dc45161bba92dfb9aba643c0e44c085a447f839d1d02cf13b9101610819565b61060d8383836001610fcb565b6001600160a01b038316610c9957604051634b637e8f60e11b815260006004820152602401610993565b6001600160a01b038216610cc35760405163ec442f0560e01b815260006004820152602401610993565b61060d8383836110a1565b600033610cdc8582856111cb565b610ce7858585610c6f565b506001949350505050565b6008546001600160a01b031633146107c45760405163118cdaa760e01b8152336004820152602401610993565b6000306001600160a01b037f000000000000000000000000000000000000000000000000000000000000000016148015610d7857507f000000000000000000000000000000000000000000000000000000000000000046145b15610da257507f000000000000000000000000000000000000000000000000000000000000000090565b6107ad604080517f8b73c3c69bb8fe3d512ecc4cf759cc79239f7b179b0ffacaa9a75d522b39400f60208201527f0000000000000000000000000000000000000000000000000000000000000000918101919091527f000000000000000000000000000000000000000000000000000000000000000060608201524660808201523060a082015260009060c00160405160208183030381529060405280519060200120905090565b600880546001600160a01b038381166001600160a01b0319831681179093556040519116919082907f8be0079c531659141344cd1fd0a4f28419497f9722a3daafe3b4186f6b6457e090600090a35050565b60606107ad7f00000000000000000000000000000000000000000000000000000000000000006005611243565b60606107ad7f00000000000000000000000000000000000000000000000000000000000000006006611243565b6001600160a01b038216610f2057604051634b637e8f60e11b815260006004820152602401610993565b6108fc826000836110a1565b6000336105b2818585610c6f565b6001600160a01b038216610f645760405163ec442f0560e01b815260006004820152602401610993565b6108fc600083836110a1565b60006105b8610f7d610d1f565b8360405161190160f01b8152600281019290925260228201526042902090565b600080600080610faf888888886112ee565b925092509250610fbf82826113bd565b50909695505050505050565b6001600160a01b038416610ff55760405163e602df0560e01b815260006004820152602401610993565b6001600160a01b03831661101f57604051634a1406b160e11b815260006004820152602401610993565b6001600160a01b038085166000908152600160209081526040808320938716835292905220829055801561109b57826001600160a01b0316846001600160a01b03167f8c5be1e5ebec7d5bd14f71427d1e84f3dd0314c0f7b2291e5b200ac8c7c3b9258460405161109291815260200190565b60405180910390a35b50505050565b6001600160a01b0383166110cc5780600260008282546110c191906117eb565b9091555061113e9050565b6001600160a01b0383166000908152602081905260409020548181101561111f5760405163391434e360e21b81526001600160a01b03851660048201526024810182905260448101839052606401610993565b6001600160a01b03841660009081526020819052604090209082900390555b6001600160a01b03821661115a57600280548290039055611179565b6001600160a01b03821660009081526020819052604090208054820190555b816001600160a01b0316836001600160a01b03167fddf252ad1be2c89b69c2b068fc378daa952ba7f163c4a11628f55a4df523b3ef836040516111be91815260200190565b60405180910390a3505050565b6001600160a01b03838116600090815260016020908152604080832093861683529290522054600019811461109b578181101561123457604051637dc7a0d960e11b81526001600160a01b03841660048201526024810182905260448101839052606401610993565b61109b84848484036000610fcb565b606060ff831461125d5761125683611476565b90506105b8565b818054611269906117b1565b80601f0160208091040260200160405190810160405280929190818152602001828054611295906117b1565b80156112e25780601f106112b7576101008083540402835291602001916112e2565b820191906000526020600020905b8154815290600101906020018083116112c557829003601f168201915b505050505090506105b8565b600080807f7fffffffffffffffffffffffffffffff5d576e7357a4501ddfe92f46681b20a084111561132957506000915060039050826113b3565b604080516000808252602082018084528a905260ff891692820192909252606081018790526080810186905260019060a0016020604051602081039080840390855afa15801561137d573d6000803e3d6000fd5b5050604051601f1901519150506001600160a01b0381166113a9575060009250600191508290506113b3565b9250600091508190505b9450945094915050565b60008260038111156113d1576113d161180c565b036113da575050565b60018260038111156113ee576113ee61180c565b0361140c5760405163f645eedf60e01b815260040160405180910390fd5b60028260038111156114205761142061180c565b036114415760405163fce698f760e01b815260048101829052602401610993565b60038260038111156114555761145561180c565b036108fc576040516335e2f38360e21b815260048101829052602401610993565b60606000611483836114b5565b604080516020808252818301909252919250600091906020820181803683375050509182525060208101929092525090565b600060ff8216601f8111156105b857604051632cd44ac360e21b815260040160405180910390fd5b6000815180845260005b81811015611503576020818501810151868301820152016114e7565b506000602082860101526020601f19601f83011685010191505092915050565b60208152600061153660208301846114dd565b9392505050565b80356001600160a01b038116811461155457600080fd5b919050565b6000806040838503121561156c57600080fd5b6115758361153d565b946020939093013593505050565b60008060006060848603121561159857600080fd5b6115a18461153d565b92506115af6020850161153d565b9150604084013590509250925092565b600080604083850312156115d257600080fd5b6115db8361153d565b9150602083013580151581146115f057600080fd5b809150509250929050565b60008060006060848603121561161057600080fd5b6116198461153d565b92506116276020850161153d565b91506116356040850161153d565b90509250925092565b60006020828403121561165057600080fd5b6115368261153d565b60ff60f81b881681526000602060e0602084015261167a60e084018a6114dd565b838103604085015261168c818a6114dd565b606085018990526001600160a01b038816608086015260a0850187905284810360c08601528551808252602080880193509091019060005b818110156116e0578351835292840192918401916001016116c4565b50909c9b505050505050505050505050565b60006020828403121561170457600080fd5b5035919050565b600080600080600080600060e0888a03121561172657600080fd5b61172f8861153d565b965061173d6020890161153d565b95506040880135945060608801359350608088013560ff8116811461176157600080fd5b9699959850939692959460a0840135945060c09093013592915050565b6000806040838503121561179157600080fd5b61179a8361153d565b91506117a86020840161153d565b90509250929050565b600181811c908216806117c557607f821691505b6020821081036117e557634e487b7160e01b600052602260045260246000fd5b50919050565b808201808211156105b857634e487b7160e01b600052601160045260246000fd5b634e487b7160e01b600052602160045260246000fdfea164736f6c6343000817000a",
  "devdoc": {
    "errors": {
      "DebtToken__CallerIsNotBorrowerOperations(address)": [
        {
          "details": "Error emitted when caller is not BorrowerOperations.",
          "params": {
            "_caller": "The address of caller."
          }
        }
      ],
      "DebtToken__CallerIsNotStabilityPool(address)": [
        {
          "details": "Error emitted when caller is not StabilityPool.",
          "params": {
            "_caller": "The address of caller."
          }
        }
      ],
      "DebtToken__CannotBurnTokens()": [
        {
          "details": "Error emitted when caller is neither BorrowerOperations nor StabilityPool. nor TrenBoxManager"
        }
      ],
      "DebtToken__CannotReturnFromPool()": [
        {
          "details": "Error emitted when caller is neither StabilityPool nor TrenBoxManager."
        }
      ],
      "DebtToken__CannotTransferTokensToTokenContract()": [
        {
          "details": "Error emitted when the recipient address is token contract address itself."
        }
      ],
      "DebtToken__CannotTransferTokensToZeroAddress()": [
        {
          "details": "Error emitted when the recipient address is zero address."
        }
      ],
      "DebtToken__InvalidAddressToConnect()": [
        {
          "details": "Error emitted when zero address is set."
        }
      ],
      "DebtToken__MintBlockedForCollateral(address)": [
        {
          "details": "Error emitted when a specific collateral has been already blocked from minting.",
          "params": {
            "_collateral": "The address of the collateral asset."
          }
        }
      ],
      "DebtToken__NotWhitelistedContract(address)": [
        {
          "details": "Error emitted when caller is not whitelisted contract.",
          "params": {
            "_notWhitelistedContract": "The address of not whitelisted contract."
          }
        }
      ],
      "ECDSAInvalidSignature()": [
        {
          "details": "The signature derives the `address(0)`."
        }
      ],
      "ECDSAInvalidSignatureLength(uint256)": [
        {
          "details": "The signature has an invalid length."
        }
      ],
      "ECDSAInvalidSignatureS(bytes32)": [
        {
          "details": "The signature has an S value that is in the upper half order."
        }
      ],
      "ERC20InsufficientAllowance(address,uint256,uint256)": [
        {
          "details": "Indicates a failure with the `spender`s `allowance`. Used in transfers.",
          "params": {
            "allowance": "Amount of tokens a `spender` is allowed to operate with.",
            "needed": "Minimum amount required to perform a transfer.",
            "spender": "Address that may be allowed to operate on tokens without being their owner."
          }
        }
      ],
      "ERC20InsufficientBalance(address,uint256,uint256)": [
        {
          "details": "Indicates an error related to the current `balance` of a `sender`. Used in transfers.",
          "params": {
            "balance": "Current balance for the interacting account.",
            "needed": "Minimum amount required to perform a transfer.",
            "sender": "Address whose tokens are being transferred."
          }
        }
      ],
      "ERC20InvalidApprover(address)": [
        {
          "details": "Indicates a failure with the `approver` of a token to be approved. Used in approvals.",
          "params": {
            "approver": "Address initiating an approval operation."
          }
        }
      ],
      "ERC20InvalidReceiver(address)": [
        {
          "details": "Indicates a failure with the token `receiver`. Used in transfers.",
          "params": {
            "receiver": "Address to which tokens are being transferred."
          }
        }
      ],
      "ERC20InvalidSender(address)": [
        {
          "details": "Indicates a failure with the token `sender`. Used in transfers.",
          "params": {
            "sender": "Address whose tokens are being transferred."
          }
        }
      ],
      "ERC20InvalidSpender(address)": [
        {
          "details": "Indicates a failure with the `spender` to be approved. Used in approvals.",
          "params": {
            "spender": "Address that may be allowed to operate on tokens without being their owner."
          }
        }
      ],
      "ERC2612ExpiredSignature(uint256)": [
        {
          "details": "Permit deadline has expired."
        }
      ],
      "ERC2612InvalidSigner(address,address)": [
        {
          "details": "Mismatched signature."
        }
      ],
      "InvalidAccountNonce(address,uint256)": [
        {
          "details": "The nonce used for an `account` is not the expected current nonce."
        }
      ],
      "OwnableInvalidOwner(address)": [
        {
          "details": "The owner is not a valid owner account. (eg. `address(0)`)"
        }
      ],
      "OwnableUnauthorizedAccount(address)": [
        {
          "details": "The caller account is not authorized to perform an operation."
        }
      ]
    },
    "events": {
      "Approval(address,address,uint256)": {
        "details": "Emitted when the allowance of a `spender` for an `owner` is set by a call to {approve}. `value` is the new allowance."
      },
      "EIP712DomainChanged()": {
        "details": "MAY be emitted to signal that the domain could have changed."
      },
      "EmergencyStopMintingCollateral(address,bool)": {
        "details": "Emitted when minting debt tokens against specific collateral asset is stopped.",
        "params": {
          "_asset": "The address of the collateral asset.",
          "_state": "The indicator that shows if minting is stopped or not."
        }
      },
      "ProtocolContractsAddressesSet(address,address,address)": {
        "details": "Emitted when BorrowerOperations, StabilityPool, and TrenBoxManager addresses are set.",
        "params": {
          "_borrowerOperations": "The address of BorrowerOperations.",
          "_stabilityPool": "The address of StabilityPool.",
          "_trenBoxManager": "The address of TrenBoxManager."
        }
      },
      "Transfer(address,address,uint256)": {
        "details": "Emitted when `value` tokens are moved from one account (`from`) to another (`to`). Note that `value` may be zero."
      },
      "WhitelistChanged(address,bool)": {
        "details": "Emitted when a contract is added to whitelist or removed from it.",
        "params": {
          "_address": "The address of contract to add or remove.",
          "_whitelisted": "The indicator that shows if contract is added or removed."
        }
      }
    },
    "kind": "dev",
    "methods": {
      "DOMAIN_SEPARATOR()": {
        "details": "Returns the domain separator used in the encoding of the signature for {permit}, as defined by {EIP712}."
      },
      "addWhitelist(address)": {
        "params": {
          "_address": "The address of contract to add."
        }
      },
      "allowance(address,address)": {
        "details": "See {IERC20-allowance}."
      },
      "approve(address,uint256)": {
        "details": "See {IERC20-approve}. NOTE: If `value` is the maximum `uint256`, the allowance is not updated on `transferFrom`. This is semantically equivalent to an infinite approval. Requirements: - `spender` cannot be the zero address."
      },
      "balanceOf(address)": {
        "details": "See {IERC20-balanceOf}."
      },
      "burn(address,uint256)": {
        "params": {
          "_account": "The address of account to burn debt tokens",
          "_amount": "THe amount to burn debt tokens."
        }
      },
      "burnFromWhitelistedContract(uint256)": {
        "params": {
          "_amount": "The amount to burn debt token."
        }
      },
      "decimals()": {
        "details": "Returns the number of decimals used to get its user representation. For example, if `decimals` equals `2`, a balance of `505` tokens should be displayed to a user as `5.05` (`505 / 10 ** 2`). Tokens usually opt for a value of 18, imitating the relationship between Ether and Wei. This is the default value returned by this function, unless it's overridden. NOTE: This information is only used for _display_ purposes: it in no way affects any of the arithmetic of the contract, including {IERC20-balanceOf} and {IERC20-transfer}."
      },
      "eip712Domain()": {
        "details": "See {IERC-5267}."
      },
      "emergencyStopMinting(address,bool)": {
        "params": {
          "_asset": "The address of collateral asset.",
          "_status": "The indicator whether minting is possible or not."
        }
      },
      "mint(address,address,uint256)": {
        "params": {
          "_account": "The address of account to receive debt tokens.",
          "_amount": "The amount to mint debt token.",
          "_asset": "The address of collateral asset."
        }
      },
      "mintFromWhitelistedContract(uint256)": {
        "params": {
          "_amount": "The amount to mint debt token."
        }
      },
      "name()": {
        "details": "Returns the name of the token."
      },
      "nonces(address)": {
        "details": "Returns the current nonce for `owner`. This value must be included whenever a signature is generated for {permit}. Every successful call to {permit} increases ``owner``'s nonce by one. This prevents a signature from being used multiple times."
      },
      "owner()": {
        "details": "Returns the address of the current owner."
      },
      "permit(address,address,uint256,uint256,uint8,bytes32,bytes32)": {
        "details": "Sets `value` as the allowance of `spender` over ``owner``'s tokens, given ``owner``'s signed approval. IMPORTANT: The same issues {IERC20-approve} has related to transaction ordering also apply here. Emits an {Approval} event. Requirements: - `spender` cannot be the zero address. - `deadline` must be a timestamp in the future. - `v`, `r` and `s` must be a valid `secp256k1` signature from `owner` over the EIP712-formatted function arguments. - the signature must use ``owner``'s current nonce (see {nonces}). For more information on the signature format, see the https://eips.ethereum.org/EIPS/eip-2612#specification[relevant EIP section]. CAUTION: See Security Considerations above."
      },
      "removeWhitelist(address)": {
        "params": {
          "_address": "The address of contract to remove."
        }
      },
      "renounceOwnership()": {
        "details": "Leaves the contract without owner. It will not be possible to call `onlyOwner` functions. Can only be called by the current owner. NOTE: Renouncing ownership will leave the contract without an owner, thereby disabling any functionality that is only available to the owner."
      },
      "returnFromPool(address,address,uint256)": {
        "params": {
          "_amount": "The amount to send debt token.",
          "_poolAddress": "The address of pool that sends debt tokens.",
          "_receiver": "The address of account to receive debt tokens."
        }
      },
      "sendToPool(address,address,uint256)": {
        "params": {
          "_amount": "The amount to transfer debt tokens.",
          "_poolAddress": "The address of pool to receive debt tokens.",
          "_sender": "The address of account that sends debt tokens."
        }
      },
      "setAddresses(address,address,address)": {
        "params": {
          "_borrowerOperationsAddress": "The address of BorrowerOperations contract.",
          "_stabilityPoolAddress": "The address of StabilityPool contract.",
          "_trenBoxManagerAddress": "The  address of TrenBoxManager contract."
        }
      },
      "symbol()": {
        "details": "Returns the symbol of the token, usually a shorter version of the name."
      },
      "totalSupply()": {
        "details": "See {IERC20-totalSupply}."
      },
      "transfer(address,uint256)": {
        "params": {
          "_amount": "The amount to transfer debt tokens.",
          "_recipient": "The address of account to receive debt tokens."
        }
      },
      "transferFrom(address,address,uint256)": {
        "params": {
          "_amount": "The amount to transfer debt tokens.",
          "_recipient": "The address of account to receive debt tokens.",
          "_sender": "The address of account that sends debt tokens."
        }
      },
      "transferOwnership(address)": {
        "details": "Transfers ownership of the contract to a new account (`newOwner`). Can only be called by the current owner."
      }
    },
    "title": "DebtToken contract",
    "version": 1
  },
  "userdoc": {
    "kind": "user",
    "methods": {
      "NAME()": {
        "notice": "The debt token name."
      },
      "SYMBOL()": {
        "notice": "The debt token symbol."
      },
      "addWhitelist(address)": {
        "notice": "Adds a contract to whitelist, called by only owner."
      },
      "borrowerOperationsAddress()": {
        "notice": "The address of BorrowerOperations"
      },
      "burn(address,uint256)": {
        "notice": "Allows BorrowerOperations, TrenBoxManager & StabilityPool to burn debt tokens from the specific account"
      },
      "burnFromWhitelistedContract(uint256)": {
        "notice": "Allows the whitelisted contracts to burn their debt tokens."
      },
      "emergencyStopMinting(address,bool)": {
        "notice": "Stops minting debt tokens against specific collateral asset in emergency case."
      },
      "emergencyStopMintingCollateral(address)": {
        "notice": "The mapping from collateral asset address to mintable status"
      },
      "mint(address,address,uint256)": {
        "notice": "Allows BorrowerOperations to mint debt tokens to the specific account."
      },
      "mintFromWhitelistedContract(uint256)": {
        "notice": "Allows the whitelisted contracts to mint debt tokens without any collateral."
      },
      "removeWhitelist(address)": {
        "notice": "Removes a contract from whitelist, called by only owner."
      },
      "returnFromPool(address,address,uint256)": {
        "notice": "Sends debt tokens to a user from a pool contract."
      },
      "sendToPool(address,address,uint256)": {
        "notice": "Transfers the debt tokens from a user to a pool contract."
      },
      "setAddresses(address,address,address)": {
        "notice": "Sets addresses of BorrowerOperations, StabilityPool, and TrenBoxManager."
      },
      "stabilityPoolAddress()": {
        "notice": "The address of StabilityPool"
      },
      "transfer(address,uint256)": {
        "notice": "Transfers debt tokens from caller to another account."
      },
      "transferFrom(address,address,uint256)": {
        "notice": "Transfers debt tokens from specified sender to another account."
      },
      "trenBoxManagerAddress()": {
        "notice": "The address of TrenBoxManager"
      },
      "whitelistedContracts(address)": {
        "notice": "The mapping from contract address to its whitelisted status"
      }
    },
    "notice": "The stablecoin token contract which mints, burns and transfers TrenUSD tokens.",
    "version": 1
  },
  "storageLayout": {
    "storage": [
      {
        "astId": 1687,
        "contract": "contracts/DebtToken.sol:DebtToken",
        "label": "_balances",
        "offset": 0,
        "slot": "0",
        "type": "t_mapping(t_address,t_uint256)"
      },
      {
        "astId": 1693,
        "contract": "contracts/DebtToken.sol:DebtToken",
        "label": "_allowances",
        "offset": 0,
        "slot": "1",
        "type": "t_mapping(t_address,t_mapping(t_address,t_uint256))"
      },
      {
        "astId": 1695,
        "contract": "contracts/DebtToken.sol:DebtToken",
        "label": "_totalSupply",
        "offset": 0,
        "slot": "2",
        "type": "t_uint256"
      },
      {
        "astId": 1697,
        "contract": "contracts/DebtToken.sol:DebtToken",
        "label": "_name",
        "offset": 0,
        "slot": "3",
        "type": "t_string_storage"
      },
      {
        "astId": 1699,
        "contract": "contracts/DebtToken.sol:DebtToken",
        "label": "_symbol",
        "offset": 0,
        "slot": "4",
        "type": "t_string_storage"
      },
      {
        "astId": 4081,
        "contract": "contracts/DebtToken.sol:DebtToken",
        "label": "_nameFallback",
        "offset": 0,
        "slot": "5",
        "type": "t_string_storage"
      },
      {
        "astId": 4083,
        "contract": "contracts/DebtToken.sol:DebtToken",
        "label": "_versionFallback",
        "offset": 0,
        "slot": "6",
        "type": "t_string_storage"
      },
      {
        "astId": 3060,
        "contract": "contracts/DebtToken.sol:DebtToken",
        "label": "_nonces",
        "offset": 0,
        "slot": "7",
        "type": "t_mapping(t_address,t_uint256)"
      },
      {
        "astId": 1036,
        "contract": "contracts/DebtToken.sol:DebtToken",
        "label": "_owner",
        "offset": 0,
        "slot": "8",
        "type": "t_address"
      },
      {
        "astId": 9677,
        "contract": "contracts/DebtToken.sol:DebtToken",
        "label": "borrowerOperationsAddress",
        "offset": 0,
        "slot": "9",
        "type": "t_address"
      },
      {
        "astId": 9680,
        "contract": "contracts/DebtToken.sol:DebtToken",
        "label": "stabilityPoolAddress",
        "offset": 0,
        "slot": "10",
        "type": "t_address"
      },
      {
        "astId": 9683,
        "contract": "contracts/DebtToken.sol:DebtToken",
        "label": "trenBoxManagerAddress",
        "offset": 0,
        "slot": "11",
        "type": "t_address"
      },
      {
        "astId": 9688,
        "contract": "contracts/DebtToken.sol:DebtToken",
        "label": "emergencyStopMintingCollateral",
        "offset": 0,
        "slot": "12",
        "type": "t_mapping(t_address,t_bool)"
      },
      {
        "astId": 9693,
        "contract": "contracts/DebtToken.sol:DebtToken",
        "label": "whitelistedContracts",
        "offset": 0,
        "slot": "13",
        "type": "t_mapping(t_address,t_bool)"
      }
    ],
    "types": {
      "t_address": {
        "encoding": "inplace",
        "label": "address",
        "numberOfBytes": "20"
      },
      "t_bool": {
        "encoding": "inplace",
        "label": "bool",
        "numberOfBytes": "1"
      },
      "t_mapping(t_address,t_bool)": {
        "encoding": "mapping",
        "key": "t_address",
        "label": "mapping(address => bool)",
        "numberOfBytes": "32",
        "value": "t_bool"
      },
      "t_mapping(t_address,t_mapping(t_address,t_uint256))": {
        "encoding": "mapping",
        "key": "t_address",
        "label": "mapping(address => mapping(address => uint256))",
        "numberOfBytes": "32",
        "value": "t_mapping(t_address,t_uint256)"
      },
      "t_mapping(t_address,t_uint256)": {
        "encoding": "mapping",
        "key": "t_address",
        "label": "mapping(address => uint256)",
        "numberOfBytes": "32",
        "value": "t_uint256"
      },
      "t_string_storage": {
        "encoding": "bytes",
        "label": "string",
        "numberOfBytes": "32"
      },
      "t_uint256": {
        "encoding": "inplace",
        "label": "uint256",
        "numberOfBytes": "32"
      }
    }
  }
}