{
  "address": "0x12d2bd84C3D518b1818AFE61e5238DF50e9858c1",
  "abi": [
    {
      "inputs": [
        {
          "internalType": "address",
          "name": "target",
          "type": "address"
        }
      ],
      "name": "AddressEmptyCode",
      "type": "error"
    },
    {
      "inputs": [
        {
          "internalType": "address",
          "name": "account",
          "type": "address"
        }
      ],
      "name": "AddressInsufficientBalance",
      "type": "error"
    },
    {
      "inputs": [],
      "name": "ConfigurableAddresses__CommunityIssuanceZeroAddress",
      "type": "error"
    },
    {
      "inputs": [],
      "name": "ConfigurableAddresses__LengthMismatch",
      "type": "error"
    },
    {
      "inputs": [],
      "name": "ConfigurableAddresses__SetupIsInitialized",
      "type": "error"
    },
    {
      "inputs": [],
      "name": "ConfigurableAddresses__TRENStakingZeroAddress",
      "type": "error"
    },
    {
      "inputs": [
        {
          "internalType": "uint256",
          "name": "position",
          "type": "uint256"
        },
        {
          "internalType": "address",
          "name": "address_",
          "type": "address"
        }
      ],
      "name": "ConfigurableAddresses__ZeroAddresses",
      "type": "error"
    },
    {
      "inputs": [
        {
          "internalType": "address",
          "name": "implementation",
          "type": "address"
        }
      ],
      "name": "ERC1967InvalidImplementation",
      "type": "error"
    },
    {
      "inputs": [],
      "name": "ERC1967NonPayable",
      "type": "error"
    },
    {
      "inputs": [],
      "name": "FailedInnerCall",
      "type": "error"
    },
    {
      "inputs": [],
      "name": "FeeCollector__ArrayMismatch",
      "type": "error"
    },
    {
      "inputs": [
        {
          "internalType": "address",
          "name": "sender",
          "type": "address"
        },
        {
          "internalType": "address",
          "name": "expected",
          "type": "address"
        }
      ],
      "name": "FeeCollector__BorrowerOperationsOnly",
      "type": "error"
    },
    {
      "inputs": [
        {
          "internalType": "address",
          "name": "sender",
          "type": "address"
        },
        {
          "internalType": "address",
          "name": "expected1",
          "type": "address"
        },
        {
          "internalType": "address",
          "name": "expected2",
          "type": "address"
        }
      ],
      "name": "FeeCollector__BorrowerOperationsOrTrenBoxManagerOnly",
      "type": "error"
    },
    {
      "inputs": [],
      "name": "FeeCollector__InvalidTRENStakingAddress",
      "type": "error"
    },
    {
      "inputs": [
        {
          "internalType": "address",
          "name": "sender",
          "type": "address"
        },
        {
          "internalType": "address",
          "name": "expected",
          "type": "address"
        }
      ],
      "name": "FeeCollector__TrenBoxManagerOnly",
      "type": "error"
    },
    {
      "inputs": [],
      "name": "InvalidInitialization",
      "type": "error"
    },
    {
      "inputs": [],
      "name": "NotInitializing",
      "type": "error"
    },
    {
      "inputs": [
        {
          "internalType": "address",
          "name": "owner",
          "type": "address"
        }
      ],
      "name": "OwnableInvalidOwner",
      "type": "error"
    },
    {
      "inputs": [
        {
          "internalType": "address",
          "name": "account",
          "type": "address"
        }
      ],
      "name": "OwnableUnauthorizedAccount",
      "type": "error"
    },
    {
      "inputs": [
        {
          "internalType": "address",
          "name": "token",
          "type": "address"
        }
      ],
      "name": "SafeERC20FailedOperation",
      "type": "error"
    },
    {
      "inputs": [],
      "name": "UUPSUnauthorizedCallContext",
      "type": "error"
    },
    {
      "inputs": [
        {
          "internalType": "bytes32",
          "name": "slot",
          "type": "bytes32"
        }
      ],
      "name": "UUPSUnsupportedProxiableUUID",
      "type": "error"
    },
    {
      "anonymous": false,
      "inputs": [
        {
          "indexed": false,
          "internalType": "address",
          "name": "borrower",
          "type": "address"
        },
        {
          "indexed": false,
          "internalType": "address",
          "name": "asset",
          "type": "address"
        },
        {
          "indexed": false,
          "internalType": "address",
          "name": "collector",
          "type": "address"
        },
        {
          "indexed": false,
          "internalType": "uint256",
          "name": "amount",
          "type": "uint256"
        }
      ],
      "name": "FeeCollected",
      "type": "event"
    },
    {
      "anonymous": false,
      "inputs": [
        {
          "indexed": false,
          "internalType": "address",
          "name": "borrower",
          "type": "address"
        },
        {
          "indexed": false,
          "internalType": "address",
          "name": "asset",
          "type": "address"
        },
        {
          "indexed": false,
          "internalType": "uint256",
          "name": "from",
          "type": "uint256"
        },
        {
          "indexed": false,
          "internalType": "uint256",
          "name": "to",
          "type": "uint256"
        },
        {
          "indexed": false,
          "internalType": "uint256",
          "name": "amount",
          "type": "uint256"
        }
      ],
      "name": "FeeRecordUpdated",
      "type": "event"
    },
    {
      "anonymous": false,
      "inputs": [
        {
          "indexed": false,
          "internalType": "address",
          "name": "borrower",
          "type": "address"
        },
        {
          "indexed": false,
          "internalType": "address",
          "name": "asset",
          "type": "address"
        },
        {
          "indexed": false,
          "internalType": "uint256",
          "name": "amount",
          "type": "uint256"
        }
      ],
      "name": "FeeRefunded",
      "type": "event"
    },
    {
      "anonymous": false,
      "inputs": [
        {
          "indexed": false,
          "internalType": "uint64",
          "name": "version",
          "type": "uint64"
        }
      ],
      "name": "Initialized",
      "type": "event"
    },
    {
      "anonymous": false,
      "inputs": [
        {
          "indexed": true,
          "internalType": "address",
          "name": "previousOwner",
          "type": "address"
        },
        {
          "indexed": true,
          "internalType": "address",
          "name": "newOwner",
          "type": "address"
        }
      ],
      "name": "OwnershipTransferred",
      "type": "event"
    },
    {
      "anonymous": false,
      "inputs": [
        {
          "indexed": false,
          "internalType": "address",
          "name": "asset",
          "type": "address"
        },
        {
          "indexed": false,
          "internalType": "uint256",
          "name": "amount",
          "type": "uint256"
        }
      ],
      "name": "RedemptionFeeCollected",
      "type": "event"
    },
    {
      "anonymous": false,
      "inputs": [
        {
          "indexed": true,
          "internalType": "address",
          "name": "implementation",
          "type": "address"
        }
      ],
      "name": "Upgraded",
      "type": "event"
    },
    {
      "inputs": [],
      "name": "FEE_EXPIRATION_SECONDS",
      "outputs": [
        {
          "internalType": "uint256",
          "name": "",
          "type": "uint256"
        }
      ],
      "stateMutability": "view",
      "type": "function"
    },
    {
      "inputs": [],
      "name": "MIN_FEE_DAYS",
      "outputs": [
        {
          "internalType": "uint256",
          "name": "",
          "type": "uint256"
        }
      ],
      "stateMutability": "view",
      "type": "function"
    },
    {
      "inputs": [],
      "name": "MIN_FEE_FRACTION",
      "outputs": [
        {
          "internalType": "uint256",
          "name": "",
          "type": "uint256"
        }
      ],
      "stateMutability": "view",
      "type": "function"
    },
    {
      "inputs": [],
      "name": "NAME",
      "outputs": [
        {
          "internalType": "string",
          "name": "",
          "type": "string"
        }
      ],
      "stateMutability": "view",
      "type": "function"
    },
    {
      "inputs": [],
      "name": "UPGRADE_INTERFACE_VERSION",
      "outputs": [
        {
          "internalType": "string",
          "name": "",
          "type": "string"
        }
      ],
      "stateMutability": "view",
      "type": "function"
    },
    {
      "inputs": [],
      "name": "adminContract",
      "outputs": [
        {
          "internalType": "address",
          "name": "",
          "type": "address"
        }
      ],
      "stateMutability": "view",
      "type": "function"
    },
    {
      "inputs": [
        {
          "internalType": "address",
          "name": "newImplementation",
          "type": "address"
        }
      ],
      "name": "authorizeUpgrade",
      "outputs": [],
      "stateMutability": "nonpayable",
      "type": "function"
    },
    {
      "inputs": [],
      "name": "borrowerOperations",
      "outputs": [
        {
          "internalType": "address",
          "name": "",
          "type": "address"
        }
      ],
      "stateMutability": "view",
      "type": "function"
    },
    {
      "inputs": [
        {
          "internalType": "address",
          "name": "_borrower",
          "type": "address"
        },
        {
          "internalType": "address",
          "name": "_asset",
          "type": "address"
        }
      ],
      "name": "closeDebt",
      "outputs": [],
      "stateMutability": "nonpayable",
      "type": "function"
    },
    {
      "inputs": [
        {
          "internalType": "address[]",
          "name": "_borrowers",
          "type": "address[]"
        },
        {
          "internalType": "address[]",
          "name": "_assets",
          "type": "address[]"
        }
      ],
      "name": "collectFees",
      "outputs": [],
      "stateMutability": "nonpayable",
      "type": "function"
    },
    {
      "inputs": [],
      "name": "communityIssuance",
      "outputs": [
        {
          "internalType": "address",
          "name": "",
          "type": "address"
        }
      ],
      "stateMutability": "view",
      "type": "function"
    },
    {
      "inputs": [],
      "name": "debtToken",
      "outputs": [
        {
          "internalType": "address",
          "name": "",
          "type": "address"
        }
      ],
      "stateMutability": "view",
      "type": "function"
    },
    {
      "inputs": [
        {
          "internalType": "address",
          "name": "_borrower",
          "type": "address"
        },
        {
          "internalType": "address",
          "name": "_asset",
          "type": "address"
        },
        {
          "internalType": "uint256",
          "name": "_paybackFraction",
          "type": "uint256"
        }
      ],
      "name": "decreaseDebt",
      "outputs": [],
      "stateMutability": "nonpayable",
      "type": "function"
    },
    {
      "inputs": [],
      "name": "feeCollector",
      "outputs": [
        {
          "internalType": "address",
          "name": "",
          "type": "address"
        }
      ],
      "stateMutability": "view",
      "type": "function"
    },
    {
      "inputs": [
        {
          "internalType": "address",
          "name": "borrower",
          "type": "address"
        },
        {
          "internalType": "address",
          "name": "asset",
          "type": "address"
        }
      ],
      "name": "feeRecords",
      "outputs": [
        {
          "internalType": "uint256",
          "name": "from",
          "type": "uint256"
        },
        {
          "internalType": "uint256",
          "name": "to",
          "type": "uint256"
        },
        {
          "internalType": "uint256",
          "name": "amount",
          "type": "uint256"
        }
      ],
      "stateMutability": "view",
      "type": "function"
    },
    {
      "inputs": [],
      "name": "flashLoanAddress",
      "outputs": [
        {
          "internalType": "address",
          "name": "",
          "type": "address"
        }
      ],
      "stateMutability": "view",
      "type": "function"
    },
    {
      "inputs": [],
      "name": "getProtocolRevenueDestination",
      "outputs": [
        {
          "internalType": "address",
          "name": "",
          "type": "address"
        }
      ],
      "stateMutability": "view",
      "type": "function"
    },
    {
      "inputs": [
        {
          "internalType": "address",
          "name": "_asset",
          "type": "address"
        },
        {
          "internalType": "uint256",
          "name": "_amount",
          "type": "uint256"
        }
      ],
      "name": "handleRedemptionFee",
      "outputs": [],
      "stateMutability": "nonpayable",
      "type": "function"
    },
    {
      "inputs": [
        {
          "internalType": "address",
          "name": "_borrower",
          "type": "address"
        },
        {
          "internalType": "address",
          "name": "_asset",
          "type": "address"
        },
        {
          "internalType": "uint256",
          "name": "_feeAmount",
          "type": "uint256"
        }
      ],
      "name": "increaseDebt",
      "outputs": [],
      "stateMutability": "nonpayable",
      "type": "function"
    },
    {
      "inputs": [
        {
          "internalType": "address",
          "name": "initialOwner",
          "type": "address"
        }
      ],
      "name": "initialize",
      "outputs": [],
      "stateMutability": "nonpayable",
      "type": "function"
    },
    {
      "inputs": [],
      "name": "isAddressSetupInitialized",
      "outputs": [
        {
          "internalType": "bool",
          "name": "",
          "type": "bool"
        }
      ],
      "stateMutability": "view",
      "type": "function"
    },
    {
      "inputs": [
        {
          "internalType": "address",
          "name": "_borrower",
          "type": "address"
        },
        {
          "internalType": "address",
          "name": "_asset",
          "type": "address"
        }
      ],
      "name": "liquidateDebt",
      "outputs": [],
      "stateMutability": "nonpayable",
      "type": "function"
    },
    {
      "inputs": [],
      "name": "owner",
      "outputs": [
        {
          "internalType": "address",
          "name": "",
          "type": "address"
        }
      ],
      "stateMutability": "view",
      "type": "function"
    },
    {
      "inputs": [],
      "name": "priceFeed",
      "outputs": [
        {
          "internalType": "address",
          "name": "",
          "type": "address"
        }
      ],
      "stateMutability": "view",
      "type": "function"
    },
    {
      "inputs": [],
      "name": "proxiableUUID",
      "outputs": [
        {
          "internalType": "bytes32",
          "name": "",
          "type": "bytes32"
        }
      ],
      "stateMutability": "view",
      "type": "function"
    },
    {
      "inputs": [],
      "name": "renounceOwnership",
      "outputs": [],
      "stateMutability": "nonpayable",
      "type": "function"
    },
    {
      "inputs": [
        {
          "internalType": "address[]",
          "name": "_addresses",
          "type": "address[]"
        }
      ],
      "name": "setAddresses",
      "outputs": [],
      "stateMutability": "nonpayable",
      "type": "function"
    },
    {
      "inputs": [
        {
          "internalType": "address",
          "name": "_communityIssuance",
          "type": "address"
        }
      ],
      "name": "setCommunityIssuance",
      "outputs": [],
      "stateMutability": "nonpayable",
      "type": "function"
    },
    {
      "inputs": [
        {
          "internalType": "address",
          "name": "_trenStaking",
          "type": "address"
        }
      ],
      "name": "setTRENStaking",
      "outputs": [],
      "stateMutability": "nonpayable",
      "type": "function"
    },
    {
      "inputs": [
        {
          "internalType": "address",
          "name": "_borrower",
          "type": "address"
        },
        {
          "internalType": "address",
          "name": "_asset",
          "type": "address"
        },
        {
          "internalType": "uint256",
          "name": "_paybackFraction",
          "type": "uint256"
        }
      ],
      "name": "simulateRefund",
      "outputs": [
        {
          "internalType": "uint256",
          "name": "",
          "type": "uint256"
        }
      ],
      "stateMutability": "view",
      "type": "function"
    },
    {
      "inputs": [],
      "name": "sortedTrenBoxes",
      "outputs": [
        {
          "internalType": "address",
          "name": "",
          "type": "address"
        }
      ],
      "stateMutability": "view",
      "type": "function"
    },
    {
      "inputs": [],
      "name": "stabilityPool",
      "outputs": [
        {
          "internalType": "address",
          "name": "",
          "type": "address"
        }
      ],
      "stateMutability": "view",
      "type": "function"
    },
    {
      "inputs": [],
      "name": "timelockAddress",
      "outputs": [
        {
          "internalType": "address",
          "name": "",
          "type": "address"
        }
      ],
      "stateMutability": "view",
      "type": "function"
    },
    {
      "inputs": [
        {
          "internalType": "address",
          "name": "newOwner",
          "type": "address"
        }
      ],
      "name": "transferOwnership",
      "outputs": [],
      "stateMutability": "nonpayable",
      "type": "function"
    },
    {
      "inputs": [],
      "name": "treasuryAddress",
      "outputs": [
        {
          "internalType": "address",
          "name": "",
          "type": "address"
        }
      ],
      "stateMutability": "view",
      "type": "function"
    },
    {
      "inputs": [],
      "name": "trenBoxManager",
      "outputs": [
        {
          "internalType": "address",
          "name": "",
          "type": "address"
        }
      ],
      "stateMutability": "view",
      "type": "function"
    },
    {
      "inputs": [],
      "name": "trenBoxManagerOperations",
      "outputs": [
        {
          "internalType": "address",
          "name": "",
          "type": "address"
        }
      ],
      "stateMutability": "view",
      "type": "function"
    },
    {
      "inputs": [],
      "name": "trenBoxStorage",
      "outputs": [
        {
          "internalType": "address",
          "name": "",
          "type": "address"
        }
      ],
      "stateMutability": "view",
      "type": "function"
    },
    {
      "inputs": [],
      "name": "trenStaking",
      "outputs": [
        {
          "internalType": "address",
          "name": "",
          "type": "address"
        }
      ],
      "stateMutability": "view",
      "type": "function"
    },
    {
      "inputs": [
        {
          "internalType": "address",
          "name": "newImplementation",
          "type": "address"
        },
        {
          "internalType": "bytes",
          "name": "data",
          "type": "bytes"
        }
      ],
      "name": "upgradeToAndCall",
      "outputs": [],
      "stateMutability": "payable",
      "type": "function"
    }
  ],
  "transactionHash": "0xc5ad12dff3feff0d6289645304ce1abf7340157f28c17a50d90b2927c716c6fc",
  "args": [],
  "numDeployments": 1,
  "solcInputHash": "10f736271acd8614150314323b008696",
  "bytecode": "0x60a06040523060805234801561001457600080fd5b5060805161274861003e600039600081816117c0015281816117e9015261192a01526127486000f3fe60806040526004361061023b5760003560e01c80638da5cb5b1161012e578063c4d66de8116100ab578063ed60f1881161006f578063ed60f1881461072c578063f1c05a7e1461074c578063f2fde38b1461076c578063f8d898981461078c578063fe060733146107ac57600080fd5b8063c4d66de814610680578063c5f956af146106a0578063c8564c62146106c0578063cc8b21e4146106f1578063d0224e6c1461071157600080fd5b8063aa36069d116100f2578063aa36069d146105cf578063ad3cb1cc146105ef578063b957172114610620578063c05c5e9414610640578063c415b95c1461066057600080fd5b80638da5cb5b146104b457806395fb16bb146104f157806398768db2146105115780639f802fb814610528578063a3f4df7e1461058a57600080fd5b806352d1902d116101bc57806373c9bde01161018057806373c9bde01461042a578063741bef1a1461043f5780637693ccdb1461045f57806377553ad414610474578063871d81451461049457600080fd5b806352d1902d146103a057806355dafa46146103b55780636a85d67d146103d55780636de24492146103f5578063715018a61461041557600080fd5b80634169467d116102035780634169467d146102ff57806341c7a5ee1461031f5780634a7919571461034d5780634bc66f321461036d5780634f1ef2861461038d57600080fd5b806301c9310014610240578063048c661d146102625780630833c62d1461029f5780630a34d4d6146102bf5780633f84a44d146102df575b600080fd5b34801561024c57600080fd5b5061026061025b3660046122b8565b6107cc565b005b34801561026e57600080fd5b50600954610282906001600160a01b031681565b6040516001600160a01b0390911681526020015b60405180910390f35b3480156102ab57600080fd5b506102606102ba36600461231f565b61081d565b3480156102cb57600080fd5b50600d54610282906001600160a01b031681565b3480156102eb57600080fd5b50600e54610282906001600160a01b031681565b34801561030b57600080fd5b50600554610282906001600160a01b031681565b34801561032b57600080fd5b5061033f61033a36600461238b565b610968565b604051908152602001610296565b34801561035957600080fd5b506102606103683660046123c7565b610aab565b34801561037957600080fd5b50600a54610282906001600160a01b031681565b61026061039b366004612407565b610c12565b3480156103ac57600080fd5b5061033f610c31565b3480156103c157600080fd5b50600654610282906001600160a01b031681565b3480156103e157600080fd5b506102606103f03660046122b8565b610c4e565b34801561040157600080fd5b5061026061041036600461238b565b610c9f565b34801561042157600080fd5b50610260610d40565b34801561043657600080fd5b50610282610d54565b34801561044b57600080fd5b50600754610282906001600160a01b031681565b34801561046b57600080fd5b5061033f600781565b34801561048057600080fd5b50600154610282906001600160a01b031681565b3480156104a057600080fd5b506102606104af3660046124c9565b610df0565b3480156104c057600080fd5b507f9016d09d72d40fdae2fd8ceac6b6234c7706214fd39c1cd1e609a0528c199300546001600160a01b0316610282565b3480156104fd57600080fd5b50600254610282906001600160a01b031681565b34801561051d57600080fd5b5061033f62e6b68081565b34801561053457600080fd5b5061056f6105433660046124c9565b603060209081526000928352604080842090915290825290208054600182015460029092015490919083565b60408051938452602084019290925290820152606001610296565b34801561059657600080fd5b506105c26040518060400160405280600c81526020016b2332b2a1b7b63632b1ba37b960a11b81525081565b6040516102969190612520565b3480156105db57600080fd5b506102606105ea3660046124c9565b610e66565b3480156105fb57600080fd5b506105c2604051806040016040528060058152602001640352e302e360dc1b81525081565b34801561062c57600080fd5b5061026061063b366004612553565b610f0a565b34801561064c57600080fd5b50600054610282906001600160a01b031681565b34801561066c57600080fd5b50600454610282906001600160a01b031681565b34801561068c57600080fd5b5061026061069b3660046122b8565b6113ae565b3480156106ac57600080fd5b50600b54610282906001600160a01b031681565b3480156106cc57600080fd5b50600e546106e190600160a01b900460ff1681565b6040519015158152602001610296565b3480156106fd57600080fd5b50600854610282906001600160a01b031681565b34801561071d57600080fd5b5061033f6688a490a601540081565b34801561073857600080fd5b5061026061074736600461238b565b6114c6565b34801561075857600080fd5b50600c54610282906001600160a01b031681565b34801561077857600080fd5b506102606107873660046122b8565b611534565b34801561079857600080fd5b50600354610282906001600160a01b031681565b3480156107b857600080fd5b506102606107c73660046122b8565b611572565b6107d461157b565b6001600160a01b0381166107fb576040516385d3330760e01b815260040160405180910390fd5b600680546001600160a01b0319166001600160a01b0392909216919091179055565b82818114158061082b575080155b1561084957604051631a04c91160e01b815260040160405180910390fd5b4260005b8281101561095f57600087878381811061086957610869612595565b905060200201602081019061087e91906122b8565b9050600086868481811061089457610894612595565b90506020020160208101906108a991906122b8565b6001600160a01b038084166000908152603060209081526040808320938516835292905290812080546001820154600283015494955091936108eb92906115d6565b9050801561094f57600081836002015461090591906125c1565b60028401819055878455905061091c85858461165a565b6000805160206126fc8339815191528585898660010154856040516109459594939291906125d4565b60405180910390a1505b50506001909201915061084d9050565b50505050505050565b6000670de0b6b3a764000082111561099b5760405162461bcd60e51b815260040161099290612605565b60405180910390fd5b816000036109eb5760405162461bcd60e51b815260206004820152601f60248201527f5061796261636b206672616374696f6e2063616e6e6f74206265207a65726f006044820152606401610992565b6001600160a01b03808516600090815260306020908152604080832093871683529290522060028101541580610a245750428160010154105b15610a33576000915050610aa4565b6000610a4c8260000154836001015484600201546115d6565b905083670de0b6b3a764000003610a7657808260020154610a6d91906125c1565b92505050610aa4565b670de0b6b3a764000084828460020154610a9091906125c1565b610a9a9190612658565b610a6d919061266f565b9392505050565b600c546001600160a01b03163314610aeb57600c54604051636545048760e01b81523360048201526001600160a01b039091166024820152604401610992565b60008054906101000a90046001600160a01b03166001600160a01b031663650aabe26040518163ffffffff1660e01b8152600401602060405180830381865afa158015610b3c573d6000803e3d6000fd5b505050506040513d601f19601f82011682018060405250810190610b609190612691565b15610bcc576006546040516330a8d47360e11b81526001600160a01b0384811660048301526024820184905290911690636151a8e690604401600060405180830381600087803b158015610bb357600080fd5b505af1158015610bc7573d6000803e3d6000fd5b505050505b604080516001600160a01b0384168152602081018390527fcf74743fee8ef45d0f775d63c2e7129e1aec29d2ce0222e2d979104c29210481910160405180910390a15050565b610c1a6117b5565b610c238261185a565b610c2d8282611862565b5050565b6000610c3b61191f565b5060008051602061271c83398151915290565b610c5661157b565b6001600160a01b038116610c7d5760405163706ebc6560e11b815260040160405180910390fd5b600280546001600160a01b0319166001600160a01b0392909216919091179055565b6001546001600160a01b03163314610cdf5760015460405163428f391560e11b81523360048201526001600160a01b039091166024820152604401610992565b6000670de0b6b3a7640000610cfb836688a490a6015400612658565b610d05919061266f565b90506000610d1382846125c1565b90506000610d22868684611968565b9050610d388686610d3384876126b3565b61165a565b505050505050565b610d4861157b565b610d5260006119e0565b565b60008060009054906101000a90046001600160a01b03166001600160a01b031663650aabe26040518163ffffffff1660e01b8152600401602060405180830381865afa158015610da8573d6000803e3d6000fd5b505050506040513d601f19601f82011682018060405250810190610dcc9190612691565b610de05750600b546001600160a01b031690565b506006546001600160a01b031690565b6001546001600160a01b03163314801590610e165750600c546001600160a01b03163314155b15610e5357600154600c5460405163bea6c3fd60e01b81523360048201526001600160a01b03928316602482015291166044820152606401610992565b610c2d8282670de0b6b3a7640000611a51565b600c546001600160a01b03163314610ea657600c54604051636545048760e01b81523360048201526001600160a01b039091166024820152604401610992565b6001600160a01b038083166000908152603060209081526040808320938516835292815290829020825160608101845281548152600182015492810192909252600201549181018290529015610f0557610f0583838360400151611ca8565b505050565b610f1261157b565b600e54600160a01b900460ff1615610f3c57604051625f22e960e41b815260040160405180910390fd5b600d8114610f5d57604051633f5a111d60e21b815260040160405180910390fd5b60005b600d811015610ffb576000838383818110610f7d57610f7d612595565b9050602002016020810190610f9291906122b8565b6001600160a01b031603610ff35780838383818110610fb357610fb3612595565b9050602002016020810190610fc891906122b8565b604051630d9d339f60e01b815260048101929092526001600160a01b03166024820152604401610992565b600101610f60565b508181600081811061100f5761100f612595565b905060200201602081019061102491906122b8565b600080546001600160a01b0319166001600160a01b03929092169190911790558181600181811061105757611057612595565b905060200201602081019061106c91906122b8565b600180546001600160a01b0319166001600160a01b03929092169190911790558181600281811061109f5761109f612595565b90506020020160208101906110b491906122b8565b600380546001600160a01b0319166001600160a01b0392909216919091178155829082908181106110e7576110e7612595565b90506020020160208101906110fc91906122b8565b600480546001600160a01b0319166001600160a01b03929092169190911781558290829081811061112f5761112f612595565b905060200201602081019061114491906122b8565b600580546001600160a01b0319166001600160a01b03929092169190911781558290829081811061117757611177612595565b905060200201602081019061118c91906122b8565b600780546001600160a01b0319166001600160a01b0392909216919091179055818160068181106111bf576111bf612595565b90506020020160208101906111d491906122b8565b600880546001600160a01b0319166001600160a01b03929092169190911790558181600781811061120757611207612595565b905060200201602081019061121c91906122b8565b600980546001600160a01b0319166001600160a01b03929092169190911790558181600881811061124f5761124f612595565b905060200201602081019061126491906122b8565b600a80546001600160a01b0319166001600160a01b03929092169190911790558181600981811061129757611297612595565b90506020020160208101906112ac91906122b8565b600b80546001600160a01b0319166001600160a01b03929092169190911790558181600a8181106112df576112df612595565b90506020020160208101906112f491906122b8565b600c80546001600160a01b0319166001600160a01b03929092169190911790558181600b81811061132757611327612595565b905060200201602081019061133c91906122b8565b600d80546001600160a01b0319166001600160a01b03929092169190911790558181600c81811061136f5761136f612595565b905060200201602081019061138491906122b8565b600e80546001600160a81b0319166001600160a01b039290921691909117600160a01b1790555050565b7ff0c57e16840df040f15088dc2f81fe391c3923bec73e23a9662efc9c229c6a008054600160401b810460ff16159067ffffffffffffffff166000811580156113f45750825b905060008267ffffffffffffffff1660011480156114115750303b155b90508115801561141f575080155b1561143d5760405163f92ee8a960e01b815260040160405180910390fd5b845467ffffffffffffffff19166001178555831561146757845460ff60401b1916600160401b1785555b61147086611d1b565b611478611d2c565b8315610d3857845460ff60401b19168555604051600181527fc7f505b2f371ae2175ee4913f4499e1f2633a7b5936321eed1cdaeb6115181d2906020015b60405180910390a1505050505050565b6001546001600160a01b031633148015906114ec5750600c546001600160a01b03163314155b1561152957600154600c5460405163bea6c3fd60e01b81523360048201526001600160a01b03928316602482015291166044820152606401610992565b610f05838383611a51565b61153c61157b565b6001600160a01b03811661156657604051631e4fbdf760e01b815260006004820152602401610992565b61156f816119e0565b50565b61156f8161185a565b336115ad7f9016d09d72d40fdae2fd8ceac6b6234c7706214fd39c1cd1e609a0528c199300546001600160a01b031690565b6001600160a01b031614610d525760405163118cdaa760e01b8152336004820152602401610992565b600042808511156115eb576000915050610aa4565b8381106115fb5782915050610aa4565b633b9aca00600061160c87876125c1565b9050600061161a88856125c1565b90506000826116298589612658565b611633919061266f565b90506000846116428385612658565b61164c919061266f565b9a9950505050505050505050565b8015610f0557600061166a610d54565b600354909150611684906001600160a01b03168284611d34565b60008054906101000a90046001600160a01b03166001600160a01b031663650aabe26040518163ffffffff1660e01b8152600401602060405180830381865afa1580156116d5573d6000803e3d6000fd5b505050506040513d601f19601f820116820180604052508101906116f99190612691565b1561175d5760065460405163a035160d60e01b8152600481018490526001600160a01b039091169063a035160d90602401600060405180830381600087803b15801561174457600080fd5b505af1158015611758573d6000803e3d6000fd5b505050505b604080516001600160a01b03868116825285811660208301528316818301526060810184905290517f3e7be0af9d546b20a6a2e91e4151659dfcad117daa1df79e78d17c5ad2f45b769181900360800190a150505050565b306001600160a01b037f000000000000000000000000000000000000000000000000000000000000000016148061183c57507f00000000000000000000000000000000000000000000000000000000000000006001600160a01b031661183060008051602061271c833981519152546001600160a01b031690565b6001600160a01b031614155b15610d525760405163703e46dd60e11b815260040160405180910390fd5b61156f61157b565b816001600160a01b03166352d1902d6040518163ffffffff1660e01b8152600401602060405180830381865afa9250505080156118bc575060408051601f3d908101601f191682019092526118b9918101906126c6565b60015b6118e457604051634c9c8ce360e01b81526001600160a01b0383166004820152602401610992565b60008051602061271c833981519152811461191557604051632a87526960e21b815260048101829052602401610992565b610f058383611d86565b306001600160a01b037f00000000000000000000000000000000000000000000000000000000000000001614610d525760405163703e46dd60e11b815260040160405180910390fd5b6001600160a01b0380841660009081526030602090815260408083209386168352929052908120600281015482036119ab576119a685858584611ddc565b6119d8565b428160010154116119c957806002015491506119a685858584611ddc565b6119d585858584611e41565b91505b509392505050565b7f9016d09d72d40fdae2fd8ceac6b6234c7706214fd39c1cd1e609a0528c19930080546001600160a01b031981166001600160a01b03848116918217845560405192169182907f8be0079c531659141344cd1fd0a4f28419497f9722a3daafe3b4186f6b6457e090600090a3505050565b42670de0b6b3a7640000821115611a7a5760405162461bcd60e51b815260040161099290612605565b81600003611aca5760405162461bcd60e51b815260206004820152601f60248201527f5061796261636b206672616374696f6e2063616e6e6f74206265207a65726f006044820152606401610992565b6001600160a01b03808516600090815260306020908152604080832093871683529290529081206002810154909103611b04575050505050565b81816001015411611b2357611b1e85858360020154611ca8565b611ca1565b6000611b3c8260000154836001015484600201546115d6565b9050611b4986868361165a565b83670de0b6b3a764000003611c05576000818360020154611b6a91906125c1565b600354604051635cad563b60e11b8152600481018390529192506001600160a01b03169063b95aac7690602401600060405180830381600087803b158015611bb157600080fd5b505af1158015611bc5573d6000803e3d6000fd5b50506000600286018190556040516000805160206126fc8339815191529350611bf792508a918a9189919081906125d4565b60405180910390a150610d38565b6000670de0b6b3a764000085838560020154611c2191906125c1565b611c2b9190612658565b611c35919061266f565b9050611c42878783611f0c565b600081838560020154611c5591906125c1565b611c5f91906125c1565b6002850181905585855560018501546040519192506000805160206126fc83398151915291611c95918b918b918a9187906125d4565b60405180910390a15050505b5050505050565b611cb383838361165a565b6001600160a01b03808416600090815260306020908152604080832093861683529290528181208181556001810182905560020181905590516000805160206126fc83398151915291611d0e918691869142919081906125d4565b60405180910390a1505050565b611d23611f71565b61156f81611fba565b610d52611f71565b604080516001600160a01b038416602482015260448082018490528251808303909101815260649091019091526020810180516001600160e01b031663a9059cbb60e01b179052610f05908490611fc2565b611d8f82612025565b6040516001600160a01b038316907fbc7cd75a20ee27fd9adebab32041f755214dbc6bffa90cc0225b39da2e5c2d3b90600090a2805115611dd457610f05828261208a565b610c2d612102565b6000611dec600762015180612658565b611df690426126b3565b90506000611e0762e6b680836126b3565b60028401859055828455600184018190556040519091506000805160206126fc833981519152906114b69088908890869086908a906125d4565b80546000904290811015611e53575081545b6000611e6c8460000154856001015486600201546115d6565b90506000818560020154611e8091906125c1565b90506000838660010154611e9491906125c1565b90506000611ea288846126b3565b90506000611eb184848b612121565b611ebb90876126b3565b60028901839055868955600189018190556040519091506000805160206126fc83398151915290611ef5908d908d908a90869088906125d4565b60405180910390a150929998505050505050505050565b8015610f0557600354611f29906001600160a01b03168483611d34565b604080516001600160a01b038086168252841660208201529081018290527f70930c4d7c90caf6befd84368a02f1e5493c254095e7d3c5b5105922befb92e590606001611d0e565b7ff0c57e16840df040f15088dc2f81fe391c3923bec73e23a9662efc9c229c6a0054600160401b900460ff16610d5257604051631afcd79f60e31b815260040160405180910390fd5b61153c611f71565b6000611fd76001600160a01b0384168361216c565b90508051600014158015611ffc575080806020019051810190611ffa9190612691565b155b15610f0557604051635274afe760e01b81526001600160a01b0384166004820152602401610992565b806001600160a01b03163b60000361205b57604051634c9c8ce360e01b81526001600160a01b0382166004820152602401610992565b60008051602061271c83398151915280546001600160a01b0319166001600160a01b0392909216919091179055565b6060600080846001600160a01b0316846040516120a791906126df565b600060405180830381855af49150503d80600081146120e2576040519150601f19603f3d011682016040523d82523d6000602084013e6120e7565b606091505b50915091506120f785838361217a565b925050505b92915050565b3415610d525760405163b398979f60e01b815260040160405180910390fd5b60008061212e8486612658565b9050600061213f62e6b68085612658565b9050600061214d85886126b3565b61215783856126b3565b612161919061266f565b979650505050505050565b6060610aa4838360006121d6565b60608261218f5761218a82612273565b610aa4565b81511580156121a657506001600160a01b0384163b155b156121cf57604051639996b31560e01b81526001600160a01b0385166004820152602401610992565b5080610aa4565b6060814710156121fb5760405163cd78605960e01b8152306004820152602401610992565b600080856001600160a01b0316848660405161221791906126df565b60006040518083038185875af1925050503d8060008114612254576040519150601f19603f3d011682016040523d82523d6000602084013e612259565b606091505b509150915061226986838361217a565b9695505050505050565b8051156122835780518082602001fd5b604051630a12f52160e11b815260040160405180910390fd5b80356001600160a01b03811681146122b357600080fd5b919050565b6000602082840312156122ca57600080fd5b610aa48261229c565b60008083601f8401126122e557600080fd5b50813567ffffffffffffffff8111156122fd57600080fd5b6020830191508360208260051b850101111561231857600080fd5b9250929050565b6000806000806040858703121561233557600080fd5b843567ffffffffffffffff8082111561234d57600080fd5b612359888389016122d3565b9096509450602087013591508082111561237257600080fd5b5061237f878288016122d3565b95989497509550505050565b6000806000606084860312156123a057600080fd5b6123a98461229c565b92506123b76020850161229c565b9150604084013590509250925092565b600080604083850312156123da57600080fd5b6123e38361229c565b946020939093013593505050565b634e487b7160e01b600052604160045260246000fd5b6000806040838503121561241a57600080fd5b6124238361229c565b9150602083013567ffffffffffffffff8082111561244057600080fd5b818501915085601f83011261245457600080fd5b813581811115612466576124666123f1565b604051601f8201601f19908116603f0116810190838211818310171561248e5761248e6123f1565b816040528281528860208487010111156124a757600080fd5b8260208601602083013760006020848301015280955050505050509250929050565b600080604083850312156124dc57600080fd5b6124e58361229c565b91506124f36020840161229c565b90509250929050565b60005b838110156125175781810151838201526020016124ff565b50506000910152565b602081526000825180602084015261253f8160408501602087016124fc565b601f01601f19169190910160400192915050565b6000806020838503121561256657600080fd5b823567ffffffffffffffff81111561257d57600080fd5b612589858286016122d3565b90969095509350505050565b634e487b7160e01b600052603260045260246000fd5b634e487b7160e01b600052601160045260246000fd5b818103818111156120fc576120fc6125ab565b6001600160a01b03958616815293909416602084015260408301919091526060820152608081019190915260a00190565b60208082526033908201527f5061796261636b206672616374696f6e2063616e6e6f7420626520686967686560408201527272207468616e20312028402031302a2a31382960681b606082015260800190565b80820281158282048414176120fc576120fc6125ab565b60008261268c57634e487b7160e01b600052601260045260246000fd5b500490565b6000602082840312156126a357600080fd5b81518015158114610aa457600080fd5b808201808211156120fc576120fc6125ab565b6000602082840312156126d857600080fd5b5051919050565b600082516126f18184602087016124fc565b919091019291505056fe6f0b61812a1954a00351239cba469186147c5b10a1b12ed7f226dc5c1aaafa23360894a13ba1a3210667c828492db98dca3e2076cc3735a920a3ca505d382bbca164736f6c6343000817000a",
  "devdoc": {
    "errors": {
      "AddressEmptyCode(address)": [
        {
          "details": "There's no code at `target` (it is not a contract)."
        }
      ],
      "AddressInsufficientBalance(address)": [
        {
          "details": "The ETH balance of the account is not enough to perform the operation."
        }
      ],
      "ERC1967InvalidImplementation(address)": [
        {
          "details": "The `implementation` of the proxy is invalid."
        }
      ],
      "ERC1967NonPayable()": [
        {
          "details": "An upgrade function sees `msg.value > 0` that may be lost."
        }
      ],
      "FailedInnerCall()": [
        {
          "details": "A call to an address target failed. The target may have reverted."
        }
      ],
      "InvalidInitialization()": [
        {
          "details": "The contract is already initialized."
        }
      ],
      "NotInitializing()": [
        {
          "details": "The contract is not initializing."
        }
      ],
      "OwnableInvalidOwner(address)": [
        {
          "details": "The owner is not a valid owner account. (eg. `address(0)`)"
        }
      ],
      "OwnableUnauthorizedAccount(address)": [
        {
          "details": "The caller account is not authorized to perform an operation."
        }
      ],
      "SafeERC20FailedOperation(address)": [
        {
          "details": "An operation with an ERC20 token failed."
        }
      ],
      "UUPSUnauthorizedCallContext()": [
        {
          "details": "The call is from an unauthorized context."
        }
      ],
      "UUPSUnsupportedProxiableUUID(bytes32)": [
        {
          "details": "The storage `slot` is unsupported as a UUID."
        }
      ]
    },
    "events": {
      "Initialized(uint64)": {
        "details": "Triggered when the contract has been initialized or reinitialized."
      },
      "Upgraded(address)": {
        "details": "Emitted when the implementation is upgraded."
      }
    },
    "kind": "dev",
    "methods": {
      "owner()": {
        "details": "Returns the address of the current owner."
      },
      "proxiableUUID()": {
        "details": "Implementation of the ERC1822 {proxiableUUID} function. This returns the storage slot used by the implementation. It is used to validate the implementation's compatibility when performing an upgrade. IMPORTANT: A proxy pointing at a proxiable contract should not be considered proxiable itself, because this risks bricking a proxy that upgrades to it, by delegating to itself until out of gas. Thus it is critical that this function revert if invoked through a proxy. This is guaranteed by the `notDelegated` modifier."
      },
      "renounceOwnership()": {
        "details": "Leaves the contract without owner. It will not be possible to call `onlyOwner` functions. Can only be called by the current owner. NOTE: Renouncing ownership will leave the contract without an owner, thereby disabling any functionality that is only available to the owner."
      },
      "transferOwnership(address)": {
        "details": "Transfers ownership of the contract to a new account (`newOwner`). Can only be called by the current owner."
      },
      "upgradeToAndCall(address,bytes)": {
        "custom:oz-upgrades-unsafe-allow-reachable": "delegatecall",
        "details": "Upgrade the implementation of the proxy to `newImplementation`, and subsequently execute the function call encoded in `data`. Calls {_authorizeUpgrade}. Emits an {Upgraded} event."
      }
    },
    "version": 1
  },
  "userdoc": {
    "kind": "user",
    "methods": {
      "closeDebt(address,address)": {
        "notice": "Triggered when a debt is paid in full."
      },
      "collectFees(address[],address[])": {
        "notice": "Batch collect fees from an array of borrowers/assets."
      },
      "decreaseDebt(address,address,uint256)": {
        "notice": "Triggered when a trenBox is adjusted or closed (and the borrower has paid back/decreased his loan)."
      },
      "increaseDebt(address,address,uint256)": {
        "notice": "Triggered when a trenBox is created and again whenever the borrower acquires additional loans. Collects the minimum fee to the platform, for which there is no refund; holds on to the remaining fees until debt is paid, liquidated, or expired. Attention: this method assumes that (debt token) _feeAmount has already been minted and transferred to this contract."
      },
      "liquidateDebt(address,address)": {
        "notice": "Triggered when a trenBox is liquidated; in that case, all remaining fees are collected by the platform, and no refunds are generated."
      },
      "simulateRefund(address,address,uint256)": {
        "notice": "Simulates the refund due -if- trenBox would be closed at this moment (helper function used by the UI)."
      }
    },
    "version": 1
  },
  "storageLayout": {
    "storage": [
      {
        "astId": 8946,
        "contract": "contracts/FeeCollector.sol:FeeCollector",
        "label": "adminContract",
        "offset": 0,
        "slot": "0",
        "type": "t_address"
      },
      {
        "astId": 8948,
        "contract": "contracts/FeeCollector.sol:FeeCollector",
        "label": "borrowerOperations",
        "offset": 0,
        "slot": "1",
        "type": "t_address"
      },
      {
        "astId": 8950,
        "contract": "contracts/FeeCollector.sol:FeeCollector",
        "label": "communityIssuance",
        "offset": 0,
        "slot": "2",
        "type": "t_address"
      },
      {
        "astId": 8952,
        "contract": "contracts/FeeCollector.sol:FeeCollector",
        "label": "debtToken",
        "offset": 0,
        "slot": "3",
        "type": "t_address"
      },
      {
        "astId": 8954,
        "contract": "contracts/FeeCollector.sol:FeeCollector",
        "label": "feeCollector",
        "offset": 0,
        "slot": "4",
        "type": "t_address"
      },
      {
        "astId": 8956,
        "contract": "contracts/FeeCollector.sol:FeeCollector",
        "label": "flashLoanAddress",
        "offset": 0,
        "slot": "5",
        "type": "t_address"
      },
      {
        "astId": 8958,
        "contract": "contracts/FeeCollector.sol:FeeCollector",
        "label": "trenStaking",
        "offset": 0,
        "slot": "6",
        "type": "t_address"
      },
      {
        "astId": 8960,
        "contract": "contracts/FeeCollector.sol:FeeCollector",
        "label": "priceFeed",
        "offset": 0,
        "slot": "7",
        "type": "t_address"
      },
      {
        "astId": 8962,
        "contract": "contracts/FeeCollector.sol:FeeCollector",
        "label": "sortedTrenBoxes",
        "offset": 0,
        "slot": "8",
        "type": "t_address"
      },
      {
        "astId": 8964,
        "contract": "contracts/FeeCollector.sol:FeeCollector",
        "label": "stabilityPool",
        "offset": 0,
        "slot": "9",
        "type": "t_address"
      },
      {
        "astId": 8966,
        "contract": "contracts/FeeCollector.sol:FeeCollector",
        "label": "timelockAddress",
        "offset": 0,
        "slot": "10",
        "type": "t_address"
      },
      {
        "astId": 8968,
        "contract": "contracts/FeeCollector.sol:FeeCollector",
        "label": "treasuryAddress",
        "offset": 0,
        "slot": "11",
        "type": "t_address"
      },
      {
        "astId": 8970,
        "contract": "contracts/FeeCollector.sol:FeeCollector",
        "label": "trenBoxManager",
        "offset": 0,
        "slot": "12",
        "type": "t_address"
      },
      {
        "astId": 8972,
        "contract": "contracts/FeeCollector.sol:FeeCollector",
        "label": "trenBoxManagerOperations",
        "offset": 0,
        "slot": "13",
        "type": "t_address"
      },
      {
        "astId": 8974,
        "contract": "contracts/FeeCollector.sol:FeeCollector",
        "label": "trenBoxStorage",
        "offset": 0,
        "slot": "14",
        "type": "t_address"
      },
      {
        "astId": 8976,
        "contract": "contracts/FeeCollector.sol:FeeCollector",
        "label": "isAddressSetupInitialized",
        "offset": 20,
        "slot": "14",
        "type": "t_bool"
      },
      {
        "astId": 8981,
        "contract": "contracts/FeeCollector.sol:FeeCollector",
        "label": "__gap",
        "offset": 0,
        "slot": "15",
        "type": "t_array(t_uint256)33_storage"
      },
      {
        "astId": 9787,
        "contract": "contracts/FeeCollector.sol:FeeCollector",
        "label": "feeRecords",
        "offset": 0,
        "slot": "48",
        "type": "t_mapping(t_address,t_mapping(t_address,t_struct(FeeRecord)12185_storage))"
      }
    ],
    "types": {
      "t_address": {
        "encoding": "inplace",
        "label": "address",
        "numberOfBytes": "20"
      },
      "t_array(t_uint256)33_storage": {
        "base": "t_uint256",
        "encoding": "inplace",
        "label": "uint256[33]",
        "numberOfBytes": "1056"
      },
      "t_bool": {
        "encoding": "inplace",
        "label": "bool",
        "numberOfBytes": "1"
      },
      "t_mapping(t_address,t_mapping(t_address,t_struct(FeeRecord)12185_storage))": {
        "encoding": "mapping",
        "key": "t_address",
        "label": "mapping(address => mapping(address => struct IFeeCollector.FeeRecord))",
        "numberOfBytes": "32",
        "value": "t_mapping(t_address,t_struct(FeeRecord)12185_storage)"
      },
      "t_mapping(t_address,t_struct(FeeRecord)12185_storage)": {
        "encoding": "mapping",
        "key": "t_address",
        "label": "mapping(address => struct IFeeCollector.FeeRecord)",
        "numberOfBytes": "32",
        "value": "t_struct(FeeRecord)12185_storage"
      },
      "t_struct(FeeRecord)12185_storage": {
        "encoding": "inplace",
        "label": "struct IFeeCollector.FeeRecord",
        "members": [
          {
            "astId": 12180,
            "contract": "contracts/FeeCollector.sol:FeeCollector",
            "label": "from",
            "offset": 0,
            "slot": "0",
            "type": "t_uint256"
          },
          {
            "astId": 12182,
            "contract": "contracts/FeeCollector.sol:FeeCollector",
            "label": "to",
            "offset": 0,
            "slot": "1",
            "type": "t_uint256"
          },
          {
            "astId": 12184,
            "contract": "contracts/FeeCollector.sol:FeeCollector",
            "label": "amount",
            "offset": 0,
            "slot": "2",
            "type": "t_uint256"
          }
        ],
        "numberOfBytes": "96"
      },
      "t_uint256": {
        "encoding": "inplace",
        "label": "uint256",
        "numberOfBytes": "32"
      }
    }
  }
}