{
  "address": "0x5EDbeBe311abD315912b0ADd9Cc055477c34a25E",
  "abi": [
    {
      "inputs": [
        {
          "internalType": "address",
          "name": "target",
          "type": "address"
        }
      ],
      "name": "AddressEmptyCode",
      "type": "error"
    },
    {
      "inputs": [
        {
          "internalType": "address",
          "name": "account",
          "type": "address"
        }
      ],
      "name": "AddressInsufficientBalance",
      "type": "error"
    },
    {
      "inputs": [],
      "name": "ConfigurableAddresses__CommunityIssuanceZeroAddress",
      "type": "error"
    },
    {
      "inputs": [],
      "name": "ConfigurableAddresses__LengthMismatch",
      "type": "error"
    },
    {
      "inputs": [],
      "name": "ConfigurableAddresses__SetupIsInitialized",
      "type": "error"
    },
    {
      "inputs": [],
      "name": "ConfigurableAddresses__TRENStakingZeroAddress",
      "type": "error"
    },
    {
      "inputs": [
        {
          "internalType": "uint256",
          "name": "position",
          "type": "uint256"
        },
        {
          "internalType": "address",
          "name": "address_",
          "type": "address"
        }
      ],
      "name": "ConfigurableAddresses__ZeroAddresses",
      "type": "error"
    },
    {
      "inputs": [
        {
          "internalType": "address",
          "name": "implementation",
          "type": "address"
        }
      ],
      "name": "ERC1967InvalidImplementation",
      "type": "error"
    },
    {
      "inputs": [],
      "name": "ERC1967NonPayable",
      "type": "error"
    },
    {
      "inputs": [],
      "name": "FailedInnerCall",
      "type": "error"
    },
    {
      "inputs": [],
      "name": "FeeCollector__ArrayMismatch",
      "type": "error"
    },
    {
      "inputs": [
        {
          "internalType": "address",
          "name": "_sender",
          "type": "address"
        },
        {
          "internalType": "address",
          "name": "_expected",
          "type": "address"
        }
      ],
      "name": "FeeCollector__BorrowerOperationsOnly",
      "type": "error"
    },
    {
      "inputs": [
        {
          "internalType": "address",
          "name": "_sender",
          "type": "address"
        },
        {
          "internalType": "address",
          "name": "_expected1",
          "type": "address"
        },
        {
          "internalType": "address",
          "name": "_expected2",
          "type": "address"
        }
      ],
      "name": "FeeCollector__BorrowerOperationsOrTrenBoxManagerOnly",
      "type": "error"
    },
    {
      "inputs": [],
      "name": "FeeCollector__PaybackFractionHigherThanOne",
      "type": "error"
    },
    {
      "inputs": [
        {
          "internalType": "address",
          "name": "_sender",
          "type": "address"
        },
        {
          "internalType": "address",
          "name": "_expected",
          "type": "address"
        }
      ],
      "name": "FeeCollector__TrenBoxManagerOnly",
      "type": "error"
    },
    {
      "inputs": [],
      "name": "FeeCollector__ZeroPaybackFraction",
      "type": "error"
    },
    {
      "inputs": [],
      "name": "InvalidInitialization",
      "type": "error"
    },
    {
      "inputs": [],
      "name": "NotInitializing",
      "type": "error"
    },
    {
      "inputs": [
        {
          "internalType": "address",
          "name": "owner",
          "type": "address"
        }
      ],
      "name": "OwnableInvalidOwner",
      "type": "error"
    },
    {
      "inputs": [
        {
          "internalType": "address",
          "name": "account",
          "type": "address"
        }
      ],
      "name": "OwnableUnauthorizedAccount",
      "type": "error"
    },
    {
      "inputs": [
        {
          "internalType": "address",
          "name": "token",
          "type": "address"
        }
      ],
      "name": "SafeERC20FailedOperation",
      "type": "error"
    },
    {
      "inputs": [],
      "name": "UUPSUnauthorizedCallContext",
      "type": "error"
    },
    {
      "inputs": [
        {
          "internalType": "bytes32",
          "name": "slot",
          "type": "bytes32"
        }
      ],
      "name": "UUPSUnsupportedProxiableUUID",
      "type": "error"
    },
    {
      "anonymous": false,
      "inputs": [
        {
          "indexed": true,
          "internalType": "address",
          "name": "_borrower",
          "type": "address"
        },
        {
          "indexed": true,
          "internalType": "address",
          "name": "_asset",
          "type": "address"
        },
        {
          "indexed": true,
          "internalType": "address",
          "name": "_collector",
          "type": "address"
        },
        {
          "indexed": false,
          "internalType": "uint256",
          "name": "_amount",
          "type": "uint256"
        }
      ],
      "name": "FeeCollected",
      "type": "event"
    },
    {
      "anonymous": false,
      "inputs": [
        {
          "indexed": true,
          "internalType": "address",
          "name": "_borrower",
          "type": "address"
        },
        {
          "indexed": true,
          "internalType": "address",
          "name": "_asset",
          "type": "address"
        },
        {
          "indexed": false,
          "internalType": "uint256",
          "name": "_from",
          "type": "uint256"
        },
        {
          "indexed": false,
          "internalType": "uint256",
          "name": "_to",
          "type": "uint256"
        },
        {
          "indexed": false,
          "internalType": "uint256",
          "name": "_amount",
          "type": "uint256"
        }
      ],
      "name": "FeeRecordUpdated",
      "type": "event"
    },
    {
      "anonymous": false,
      "inputs": [
        {
          "indexed": true,
          "internalType": "address",
          "name": "_borrower",
          "type": "address"
        },
        {
          "indexed": true,
          "internalType": "address",
          "name": "_asset",
          "type": "address"
        },
        {
          "indexed": false,
          "internalType": "uint256",
          "name": "_amount",
          "type": "uint256"
        }
      ],
      "name": "FeeRefunded",
      "type": "event"
    },
    {
      "anonymous": false,
      "inputs": [
        {
          "indexed": false,
          "internalType": "uint64",
          "name": "version",
          "type": "uint64"
        }
      ],
      "name": "Initialized",
      "type": "event"
    },
    {
      "anonymous": false,
      "inputs": [
        {
          "indexed": true,
          "internalType": "address",
          "name": "previousOwner",
          "type": "address"
        },
        {
          "indexed": true,
          "internalType": "address",
          "name": "newOwner",
          "type": "address"
        }
      ],
      "name": "OwnershipTransferred",
      "type": "event"
    },
    {
      "anonymous": false,
      "inputs": [
        {
          "indexed": true,
          "internalType": "address",
          "name": "_asset",
          "type": "address"
        },
        {
          "indexed": false,
          "internalType": "uint256",
          "name": "_amount",
          "type": "uint256"
        }
      ],
      "name": "RedemptionFeeCollected",
      "type": "event"
    },
    {
      "anonymous": false,
      "inputs": [
        {
          "indexed": true,
          "internalType": "address",
          "name": "implementation",
          "type": "address"
        }
      ],
      "name": "Upgraded",
      "type": "event"
    },
    {
      "inputs": [],
      "name": "FEE_EXPIRATION_SECONDS",
      "outputs": [
        {
          "internalType": "uint256",
          "name": "",
          "type": "uint256"
        }
      ],
      "stateMutability": "view",
      "type": "function"
    },
    {
      "inputs": [],
      "name": "MIN_FEE_DAYS",
      "outputs": [
        {
          "internalType": "uint256",
          "name": "",
          "type": "uint256"
        }
      ],
      "stateMutability": "view",
      "type": "function"
    },
    {
      "inputs": [],
      "name": "MIN_FEE_FRACTION",
      "outputs": [
        {
          "internalType": "uint256",
          "name": "",
          "type": "uint256"
        }
      ],
      "stateMutability": "view",
      "type": "function"
    },
    {
      "inputs": [],
      "name": "NAME",
      "outputs": [
        {
          "internalType": "string",
          "name": "",
          "type": "string"
        }
      ],
      "stateMutability": "view",
      "type": "function"
    },
    {
      "inputs": [],
      "name": "UPGRADE_INTERFACE_VERSION",
      "outputs": [
        {
          "internalType": "string",
          "name": "",
          "type": "string"
        }
      ],
      "stateMutability": "view",
      "type": "function"
    },
    {
      "inputs": [],
      "name": "adminContract",
      "outputs": [
        {
          "internalType": "address",
          "name": "",
          "type": "address"
        }
      ],
      "stateMutability": "view",
      "type": "function"
    },
    {
      "inputs": [
        {
          "internalType": "address",
          "name": "newImplementation",
          "type": "address"
        }
      ],
      "name": "authorizeUpgrade",
      "outputs": [],
      "stateMutability": "nonpayable",
      "type": "function"
    },
    {
      "inputs": [],
      "name": "borrowerOperations",
      "outputs": [
        {
          "internalType": "address",
          "name": "",
          "type": "address"
        }
      ],
      "stateMutability": "view",
      "type": "function"
    },
    {
      "inputs": [
        {
          "internalType": "address",
          "name": "_borrower",
          "type": "address"
        },
        {
          "internalType": "address",
          "name": "_asset",
          "type": "address"
        }
      ],
      "name": "closeDebt",
      "outputs": [],
      "stateMutability": "nonpayable",
      "type": "function"
    },
    {
      "inputs": [
        {
          "internalType": "address[]",
          "name": "_borrowers",
          "type": "address[]"
        },
        {
          "internalType": "address[]",
          "name": "_assets",
          "type": "address[]"
        }
      ],
      "name": "collectFees",
      "outputs": [],
      "stateMutability": "nonpayable",
      "type": "function"
    },
    {
      "inputs": [],
      "name": "communityIssuance",
      "outputs": [
        {
          "internalType": "address",
          "name": "",
          "type": "address"
        }
      ],
      "stateMutability": "view",
      "type": "function"
    },
    {
      "inputs": [],
      "name": "debtToken",
      "outputs": [
        {
          "internalType": "address",
          "name": "",
          "type": "address"
        }
      ],
      "stateMutability": "view",
      "type": "function"
    },
    {
      "inputs": [
        {
          "internalType": "address",
          "name": "_borrower",
          "type": "address"
        },
        {
          "internalType": "address",
          "name": "_asset",
          "type": "address"
        },
        {
          "internalType": "uint256",
          "name": "_paybackFraction",
          "type": "uint256"
        }
      ],
      "name": "decreaseDebt",
      "outputs": [],
      "stateMutability": "nonpayable",
      "type": "function"
    },
    {
      "inputs": [],
      "name": "feeCollector",
      "outputs": [
        {
          "internalType": "address",
          "name": "",
          "type": "address"
        }
      ],
      "stateMutability": "view",
      "type": "function"
    },
    {
      "inputs": [
        {
          "internalType": "address",
          "name": "borrower",
          "type": "address"
        },
        {
          "internalType": "address",
          "name": "asset",
          "type": "address"
        }
      ],
      "name": "feeRecords",
      "outputs": [
        {
          "internalType": "uint256",
          "name": "from",
          "type": "uint256"
        },
        {
          "internalType": "uint256",
          "name": "to",
          "type": "uint256"
        },
        {
          "internalType": "uint256",
          "name": "amount",
          "type": "uint256"
        }
      ],
      "stateMutability": "view",
      "type": "function"
    },
    {
      "inputs": [],
      "name": "flashLoanAddress",
      "outputs": [
        {
          "internalType": "address",
          "name": "",
          "type": "address"
        }
      ],
      "stateMutability": "view",
      "type": "function"
    },
    {
      "inputs": [],
      "name": "getProtocolRevenueDestination",
      "outputs": [
        {
          "internalType": "address",
          "name": "",
          "type": "address"
        }
      ],
      "stateMutability": "view",
      "type": "function"
    },
    {
      "inputs": [
        {
          "internalType": "address",
          "name": "_asset",
          "type": "address"
        },
        {
          "internalType": "uint256",
          "name": "_amount",
          "type": "uint256"
        }
      ],
      "name": "handleRedemptionFee",
      "outputs": [],
      "stateMutability": "nonpayable",
      "type": "function"
    },
    {
      "inputs": [
        {
          "internalType": "address",
          "name": "_borrower",
          "type": "address"
        },
        {
          "internalType": "address",
          "name": "_asset",
          "type": "address"
        },
        {
          "internalType": "uint256",
          "name": "_feeAmount",
          "type": "uint256"
        }
      ],
      "name": "increaseDebt",
      "outputs": [],
      "stateMutability": "nonpayable",
      "type": "function"
    },
    {
      "inputs": [
        {
          "internalType": "address",
          "name": "initialOwner",
          "type": "address"
        }
      ],
      "name": "initialize",
      "outputs": [],
      "stateMutability": "nonpayable",
      "type": "function"
    },
    {
      "inputs": [],
      "name": "isAddressSetupInitialized",
      "outputs": [
        {
          "internalType": "bool",
          "name": "",
          "type": "bool"
        }
      ],
      "stateMutability": "view",
      "type": "function"
    },
    {
      "inputs": [
        {
          "internalType": "address",
          "name": "_borrower",
          "type": "address"
        },
        {
          "internalType": "address",
          "name": "_asset",
          "type": "address"
        }
      ],
      "name": "liquidateDebt",
      "outputs": [],
      "stateMutability": "nonpayable",
      "type": "function"
    },
    {
      "inputs": [],
      "name": "owner",
      "outputs": [
        {
          "internalType": "address",
          "name": "",
          "type": "address"
        }
      ],
      "stateMutability": "view",
      "type": "function"
    },
    {
      "inputs": [],
      "name": "priceFeed",
      "outputs": [
        {
          "internalType": "address",
          "name": "",
          "type": "address"
        }
      ],
      "stateMutability": "view",
      "type": "function"
    },
    {
      "inputs": [],
      "name": "proxiableUUID",
      "outputs": [
        {
          "internalType": "bytes32",
          "name": "",
          "type": "bytes32"
        }
      ],
      "stateMutability": "view",
      "type": "function"
    },
    {
      "inputs": [],
      "name": "renounceOwnership",
      "outputs": [],
      "stateMutability": "nonpayable",
      "type": "function"
    },
    {
      "inputs": [
        {
          "internalType": "address[]",
          "name": "_addresses",
          "type": "address[]"
        }
      ],
      "name": "setAddresses",
      "outputs": [],
      "stateMutability": "nonpayable",
      "type": "function"
    },
    {
      "inputs": [
        {
          "internalType": "address",
          "name": "_communityIssuance",
          "type": "address"
        }
      ],
      "name": "setCommunityIssuance",
      "outputs": [],
      "stateMutability": "nonpayable",
      "type": "function"
    },
    {
      "inputs": [
        {
          "internalType": "address",
          "name": "_trenStaking",
          "type": "address"
        }
      ],
      "name": "setTRENStaking",
      "outputs": [],
      "stateMutability": "nonpayable",
      "type": "function"
    },
    {
      "inputs": [
        {
          "internalType": "address",
          "name": "_borrower",
          "type": "address"
        },
        {
          "internalType": "address",
          "name": "_asset",
          "type": "address"
        },
        {
          "internalType": "uint256",
          "name": "_paybackFraction",
          "type": "uint256"
        }
      ],
      "name": "simulateRefund",
      "outputs": [
        {
          "internalType": "uint256",
          "name": "",
          "type": "uint256"
        }
      ],
      "stateMutability": "view",
      "type": "function"
    },
    {
      "inputs": [],
      "name": "sortedTrenBoxes",
      "outputs": [
        {
          "internalType": "address",
          "name": "",
          "type": "address"
        }
      ],
      "stateMutability": "view",
      "type": "function"
    },
    {
      "inputs": [],
      "name": "stabilityPool",
      "outputs": [
        {
          "internalType": "address",
          "name": "",
          "type": "address"
        }
      ],
      "stateMutability": "view",
      "type": "function"
    },
    {
      "inputs": [],
      "name": "timelockAddress",
      "outputs": [
        {
          "internalType": "address",
          "name": "",
          "type": "address"
        }
      ],
      "stateMutability": "view",
      "type": "function"
    },
    {
      "inputs": [
        {
          "internalType": "address",
          "name": "newOwner",
          "type": "address"
        }
      ],
      "name": "transferOwnership",
      "outputs": [],
      "stateMutability": "nonpayable",
      "type": "function"
    },
    {
      "inputs": [],
      "name": "treasuryAddress",
      "outputs": [
        {
          "internalType": "address",
          "name": "",
          "type": "address"
        }
      ],
      "stateMutability": "view",
      "type": "function"
    },
    {
      "inputs": [],
      "name": "trenBoxManager",
      "outputs": [
        {
          "internalType": "address",
          "name": "",
          "type": "address"
        }
      ],
      "stateMutability": "view",
      "type": "function"
    },
    {
      "inputs": [],
      "name": "trenBoxManagerOperations",
      "outputs": [
        {
          "internalType": "address",
          "name": "",
          "type": "address"
        }
      ],
      "stateMutability": "view",
      "type": "function"
    },
    {
      "inputs": [],
      "name": "trenBoxStorage",
      "outputs": [
        {
          "internalType": "address",
          "name": "",
          "type": "address"
        }
      ],
      "stateMutability": "view",
      "type": "function"
    },
    {
      "inputs": [],
      "name": "trenStaking",
      "outputs": [
        {
          "internalType": "address",
          "name": "",
          "type": "address"
        }
      ],
      "stateMutability": "view",
      "type": "function"
    },
    {
      "inputs": [
        {
          "internalType": "address",
          "name": "newImplementation",
          "type": "address"
        },
        {
          "internalType": "bytes",
          "name": "data",
          "type": "bytes"
        }
      ],
      "name": "upgradeToAndCall",
      "outputs": [],
      "stateMutability": "payable",
      "type": "function"
    }
  ],
  "transactionHash": "0xe876271c7deeaf66a62b3ebc3b52d19f2d2c1deff5f3f6470d17ce42a96c85d2",
  "args": [],
  "numDeployments": 1,
  "solcInputHash": "ce0a60c92cd27ba5a217c9a57823311c",
  "bytecode": "0x60a06040523060805234801561001457600080fd5b506080516126cf61003e600039600081816117a5015281816117ce015261190f01526126cf6000f3fe60806040526004361061023b5760003560e01c80638da5cb5b1161012e578063c4d66de8116100ab578063ed60f1881161006f578063ed60f1881461072c578063f1c05a7e1461074c578063f2fde38b1461076c578063f8d898981461078c578063fe060733146107ac57600080fd5b8063c4d66de814610680578063c5f956af146106a0578063c8564c62146106c0578063cc8b21e4146106f1578063d0224e6c1461071157600080fd5b8063aa36069d116100f2578063aa36069d146105cf578063ad3cb1cc146105ef578063b957172114610620578063c05c5e9414610640578063c415b95c1461066057600080fd5b80638da5cb5b146104b457806395fb16bb146104f157806398768db2146105115780639f802fb814610528578063a3f4df7e1461058a57600080fd5b806352d1902d116101bc57806373c9bde01161018057806373c9bde01461042a578063741bef1a1461043f5780637693ccdb1461045f57806377553ad414610474578063871d81451461049457600080fd5b806352d1902d146103a057806355dafa46146103b55780636a85d67d146103d55780636de24492146103f5578063715018a61461041557600080fd5b80634169467d116102035780634169467d146102ff57806341c7a5ee1461031f5780634a7919571461034d5780634bc66f321461036d5780634f1ef2861461038d57600080fd5b806301c9310014610240578063048c661d146102625780630833c62d1461029f5780630a34d4d6146102bf5780633f84a44d146102df575b600080fd5b34801561024c57600080fd5b5061026061025b3660046122c3565b6107cc565b005b34801561026e57600080fd5b50600954610282906001600160a01b031681565b6040516001600160a01b0390911681526020015b60405180910390f35b3480156102ab57600080fd5b506102606102ba36600461232a565b61081d565b3480156102cb57600080fd5b50600d54610282906001600160a01b031681565b3480156102eb57600080fd5b50600e54610282906001600160a01b031681565b34801561030b57600080fd5b50600554610282906001600160a01b031681565b34801561032b57600080fd5b5061033f61033a366004612396565b61097a565b604051908152602001610296565b34801561035957600080fd5b506102606103683660046123d2565b610a86565b34801561037957600080fd5b50600a54610282906001600160a01b031681565b61026061039b366004612412565b610bf3565b3480156103ac57600080fd5b5061033f610c12565b3480156103c157600080fd5b50600654610282906001600160a01b031681565b3480156103e157600080fd5b506102606103f03660046122c3565b610c2f565b34801561040157600080fd5b50610260610410366004612396565b610c80565b34801561042157600080fd5b50610260610d21565b34801561043657600080fd5b50610282610d35565b34801561044b57600080fd5b50600754610282906001600160a01b031681565b34801561046b57600080fd5b5061033f600781565b34801561048057600080fd5b50600154610282906001600160a01b031681565b3480156104a057600080fd5b506102606104af3660046124d4565b610dd1565b3480156104c057600080fd5b507f9016d09d72d40fdae2fd8ceac6b6234c7706214fd39c1cd1e609a0528c199300546001600160a01b0316610282565b3480156104fd57600080fd5b50600254610282906001600160a01b031681565b34801561051d57600080fd5b5061033f62e6b68081565b34801561053457600080fd5b5061056f6105433660046124d4565b603060209081526000928352604080842090915290825290208054600182015460029092015490919083565b60408051938452602084019290925290820152606001610296565b34801561059657600080fd5b506105c26040518060400160405280600c81526020016b2332b2a1b7b63632b1ba37b960a11b81525081565b604051610296919061252b565b3480156105db57600080fd5b506102606105ea3660046124d4565b610e47565b3480156105fb57600080fd5b506105c2604051806040016040528060058152602001640352e302e360dc1b81525081565b34801561062c57600080fd5b5061026061063b36600461255e565b610eeb565b34801561064c57600080fd5b50600054610282906001600160a01b031681565b34801561066c57600080fd5b50600454610282906001600160a01b031681565b34801561068c57600080fd5b5061026061069b3660046122c3565b61138f565b3480156106ac57600080fd5b50600b54610282906001600160a01b031681565b3480156106cc57600080fd5b50600e546106e190600160a01b900460ff1681565b6040519015158152602001610296565b3480156106fd57600080fd5b50600854610282906001600160a01b031681565b34801561071d57600080fd5b5061033f6688a490a601540081565b34801561073857600080fd5b50610260610747366004612396565b6114a6565b34801561075857600080fd5b50600c54610282906001600160a01b031681565b34801561077857600080fd5b506102606107873660046122c3565b611514565b34801561079857600080fd5b50600354610282906001600160a01b031681565b3480156107b857600080fd5b506102606107c73660046122c3565b611552565b6107d461155b565b6001600160a01b0381166107fb576040516385d3330760e01b815260040160405180910390fd5b600680546001600160a01b0319166001600160a01b0392909216919091179055565b82818114158061082b575080155b1561084957604051631a04c91160e01b815260040160405180910390fd5b4260005b82811015610971576000878783818110610869576108696125a0565b905060200201602081019061087e91906122c3565b90506000868684818110610894576108946125a0565b90506020020160208101906108a991906122c3565b6001600160a01b038084166000908152603060209081526040808320938516835292905290812080546001820154600283015494955091936108eb92906115b6565b9050801561096257600081836002015461090591906125cc565b60028401819055878455905061091c85858461163a565b600183015460408051898152602081019290925281018290526001600160a01b0380861691908716906000805160206126838339815191529060600160405180910390a3505b8460010194505050505061084d565b50505050505050565b6000670de0b6b3a76400008211156109a55760405163023b6bc760e61b815260040160405180910390fd5b816000036109c657604051638bc1d2c360e01b815260040160405180910390fd5b6001600160a01b038085166000908152603060209081526040808320938716835292905220600281015415806109ff5750428160010154105b15610a0e576000915050610a7f565b6000610a278260000154836001015484600201546115b6565b905083670de0b6b3a764000003610a5157808260020154610a4891906125cc565b92505050610a7f565b670de0b6b3a764000084828460020154610a6b91906125cc565b610a7591906125df565b610a4891906125f6565b9392505050565b600c546001600160a01b03163314610acb57600c54604051636545048760e01b81523360048201526001600160a01b0390911660248201526044015b60405180910390fd5b60008054906101000a90046001600160a01b03166001600160a01b031663650aabe26040518163ffffffff1660e01b8152600401602060405180830381865afa158015610b1c573d6000803e3d6000fd5b505050506040513d601f19601f82011682018060405250810190610b409190612618565b15610bac576006546040516330a8d47360e11b81526001600160a01b0384811660048301526024820184905290911690636151a8e690604401600060405180830381600087803b158015610b9357600080fd5b505af1158015610ba7573d6000803e3d6000fd5b505050505b816001600160a01b03167fcf74743fee8ef45d0f775d63c2e7129e1aec29d2ce0222e2d979104c2921048182604051610be791815260200190565b60405180910390a25050565b610bfb61179a565b610c048261183f565b610c0e8282611847565b5050565b6000610c1c611904565b506000805160206126a383398151915290565b610c3761155b565b6001600160a01b038116610c5e5760405163706ebc6560e11b815260040160405180910390fd5b600280546001600160a01b0319166001600160a01b0392909216919091179055565b6001546001600160a01b03163314610cc05760015460405163428f391560e11b81523360048201526001600160a01b039091166024820152604401610ac2565b6000670de0b6b3a7640000610cdc836688a490a60154006125df565b610ce691906125f6565b90506000610cf482846125cc565b90506000610d0386868461194d565b9050610d198686610d14848761263a565b61163a565b505050505050565b610d2961155b565b610d3360006119c5565b565b60008060009054906101000a90046001600160a01b03166001600160a01b031663650aabe26040518163ffffffff1660e01b8152600401602060405180830381865afa158015610d89573d6000803e3d6000fd5b505050506040513d601f19601f82011682018060405250810190610dad9190612618565b610dc15750600b546001600160a01b031690565b506006546001600160a01b031690565b6001546001600160a01b03163314801590610df75750600c546001600160a01b03163314155b15610e3457600154600c5460405163bea6c3fd60e01b81523360048201526001600160a01b03928316602482015291166044820152606401610ac2565b610c0e8282670de0b6b3a7640000611a36565b600c546001600160a01b03163314610e8757600c54604051636545048760e01b81523360048201526001600160a01b039091166024820152604401610ac2565b6001600160a01b038083166000908152603060209081526040808320938516835292815290829020825160608101845281548152600182015492810192909252600201549181018290529015610ee657610ee683838360400151611c82565b505050565b610ef361155b565b600e54600160a01b900460ff1615610f1d57604051625f22e960e41b815260040160405180910390fd5b600d8114610f3e57604051633f5a111d60e21b815260040160405180910390fd5b60005b600d811015610fdc576000838383818110610f5e57610f5e6125a0565b9050602002016020810190610f7391906122c3565b6001600160a01b031603610fd45780838383818110610f9457610f946125a0565b9050602002016020810190610fa991906122c3565b604051630d9d339f60e01b815260048101929092526001600160a01b03166024820152604401610ac2565b600101610f41565b5081816000818110610ff057610ff06125a0565b905060200201602081019061100591906122c3565b600080546001600160a01b0319166001600160a01b039290921691909117905581816001818110611038576110386125a0565b905060200201602081019061104d91906122c3565b600180546001600160a01b0319166001600160a01b039290921691909117905581816002818110611080576110806125a0565b905060200201602081019061109591906122c3565b600380546001600160a01b0319166001600160a01b0392909216919091178155829082908181106110c8576110c86125a0565b90506020020160208101906110dd91906122c3565b600480546001600160a01b0319166001600160a01b039290921691909117815582908290818110611110576111106125a0565b905060200201602081019061112591906122c3565b600580546001600160a01b0319166001600160a01b039290921691909117815582908290818110611158576111586125a0565b905060200201602081019061116d91906122c3565b600780546001600160a01b0319166001600160a01b0392909216919091179055818160068181106111a0576111a06125a0565b90506020020160208101906111b591906122c3565b600880546001600160a01b0319166001600160a01b0392909216919091179055818160078181106111e8576111e86125a0565b90506020020160208101906111fd91906122c3565b600980546001600160a01b0319166001600160a01b039290921691909117905581816008818110611230576112306125a0565b905060200201602081019061124591906122c3565b600a80546001600160a01b0319166001600160a01b039290921691909117905581816009818110611278576112786125a0565b905060200201602081019061128d91906122c3565b600b80546001600160a01b0319166001600160a01b03929092169190911790558181600a8181106112c0576112c06125a0565b90506020020160208101906112d591906122c3565b600c80546001600160a01b0319166001600160a01b03929092169190911790558181600b818110611308576113086125a0565b905060200201602081019061131d91906122c3565b600d80546001600160a01b0319166001600160a01b03929092169190911790558181600c818110611350576113506125a0565b905060200201602081019061136591906122c3565b600e80546001600160a81b0319166001600160a01b039290921691909117600160a01b1790555050565b7ff0c57e16840df040f15088dc2f81fe391c3923bec73e23a9662efc9c229c6a008054600160401b810460ff16159067ffffffffffffffff166000811580156113d55750825b905060008267ffffffffffffffff1660011480156113f25750303b155b905081158015611400575080155b1561141e5760405163f92ee8a960e01b815260040160405180910390fd5b845467ffffffffffffffff19166001178555831561144857845460ff60401b1916600160401b1785555b61145186611cf7565b611459611d08565b8315610d1957845460ff60401b19168555604051600181527fc7f505b2f371ae2175ee4913f4499e1f2633a7b5936321eed1cdaeb6115181d29060200160405180910390a1505050505050565b6001546001600160a01b031633148015906114cc5750600c546001600160a01b03163314155b1561150957600154600c5460405163bea6c3fd60e01b81523360048201526001600160a01b03928316602482015291166044820152606401610ac2565b610ee6838383611a36565b61151c61155b565b6001600160a01b03811661154657604051631e4fbdf760e01b815260006004820152602401610ac2565b61154f816119c5565b50565b61154f8161183f565b3361158d7f9016d09d72d40fdae2fd8ceac6b6234c7706214fd39c1cd1e609a0528c199300546001600160a01b031690565b6001600160a01b031614610d335760405163118cdaa760e01b8152336004820152602401610ac2565b600042808511156115cb576000915050610a7f565b8381106115db5782915050610a7f565b633b9aca0060006115ec87876125cc565b905060006115fa88856125cc565b905060008261160985896125df565b61161391906125f6565b905060008461162283856125df565b61162c91906125f6565b9a9950505050505050505050565b8015610ee657600061164a610d35565b600354909150611664906001600160a01b03168284611d10565b60008054906101000a90046001600160a01b03166001600160a01b031663650aabe26040518163ffffffff1660e01b8152600401602060405180830381865afa1580156116b5573d6000803e3d6000fd5b505050506040513d601f19601f820116820180604052508101906116d99190612618565b1561173d5760065460405163a035160d60e01b8152600481018490526001600160a01b039091169063a035160d90602401600060405180830381600087803b15801561172457600080fd5b505af1158015611738573d6000803e3d6000fd5b505050505b806001600160a01b0316836001600160a01b0316856001600160a01b03167f3e7be0af9d546b20a6a2e91e4151659dfcad117daa1df79e78d17c5ad2f45b768560405161178c91815260200190565b60405180910390a450505050565b306001600160a01b037f000000000000000000000000000000000000000000000000000000000000000016148061182157507f00000000000000000000000000000000000000000000000000000000000000006001600160a01b03166118156000805160206126a3833981519152546001600160a01b031690565b6001600160a01b031614155b15610d335760405163703e46dd60e11b815260040160405180910390fd5b61154f61155b565b816001600160a01b03166352d1902d6040518163ffffffff1660e01b8152600401602060405180830381865afa9250505080156118a1575060408051601f3d908101601f1916820190925261189e9181019061264d565b60015b6118c957604051634c9c8ce360e01b81526001600160a01b0383166004820152602401610ac2565b6000805160206126a383398151915281146118fa57604051632a87526960e21b815260048101829052602401610ac2565b610ee68383611d62565b306001600160a01b037f00000000000000000000000000000000000000000000000000000000000000001614610d335760405163703e46dd60e11b815260040160405180910390fd5b6001600160a01b0380841660009081526030602090815260408083209386168352929052908120600281015482036119905761198b85858584611db8565b6119bd565b428160010154116119ae578060020154915061198b85858584611db8565b6119ba85858584611e3e565b91505b509392505050565b7f9016d09d72d40fdae2fd8ceac6b6234c7706214fd39c1cd1e609a0528c19930080546001600160a01b031981166001600160a01b03848116918217845560405192169182907f8be0079c531659141344cd1fd0a4f28419497f9722a3daafe3b4186f6b6457e090600090a3505050565b42670de0b6b3a7640000821115611a605760405163023b6bc760e61b815260040160405180910390fd5b81600003611a8157604051638bc1d2c360e01b815260040160405180910390fd5b6001600160a01b03808516600090815260306020908152604080832093871683529290529081206002810154909103611abb575050505050565b81816001015411611ada57611ad585858360020154611c82565b611c7b565b6000611af38260000154836001015484600201546115b6565b9050611b0086868361163a565b83670de0b6b3a764000003611bcc576000818360020154611b2191906125cc565b600354604051635cad563b60e11b8152600481018390529192506001600160a01b03169063b95aac7690602401600060405180830381600087803b158015611b6857600080fd5b505af1158015611b7c573d6000803e3d6000fd5b5050600060028601819055604080518881526020810183905280820192909252516001600160a01b038a811694508b1692506000805160206126838339815191529181900360600190a350610d19565b6000670de0b6b3a764000085838560020154611be891906125cc565b611bf291906125df565b611bfc91906125f6565b9050611c09878783611f1a565b600081838560020154611c1c91906125cc565b611c2691906125cc565b60028501819055858555600185015460408051888152602081019290925281018290529091506001600160a01b0388811691908a16906000805160206126838339815191529060600160405180910390a35050505b5050505050565b611c8d83838361163a565b6001600160a01b038381166000818152603060209081526040808320948716808452948252808320838155600181018490556002018390558051428152918201839052810191909152600080516020612683833981519152906060015b60405180910390a3505050565b611cff611f7c565b61154f81611fc5565b610d33611f7c565b604080516001600160a01b038416602482015260448082018490528251808303909101815260649091019091526020810180516001600160e01b031663a9059cbb60e01b179052610ee6908490611fcd565b611d6b82612030565b6040516001600160a01b038316907fbc7cd75a20ee27fd9adebab32041f755214dbc6bffa90cc0225b39da2e5c2d3b90600090a2805115611db057610ee68282612095565b610c0e61210d565b6000611dc86007620151806125df565b611dd2904261263a565b90506000611de362e6b6808361263a565b600284018590558284556001840181905560408051848152602081018390529081018690529091506001600160a01b0386811691908816906000805160206126838339815191529060600160405180910390a3505050505050565b80546000904290811015611e50575081545b6000611e698460000154856001015486600201546115b6565b90506000818560020154611e7d91906125cc565b90506000838660010154611e9191906125cc565b90506000611e9f888461263a565b90506000611eae84848b61212c565b611eb8908761263a565b600289018390558689556001890181905560408051888152602081018390529081018490529091506001600160a01b038b811691908d16906000805160206126838339815191529060600160405180910390a350929998505050505050505050565b8015610ee657600354611f37906001600160a01b03168483611d10565b816001600160a01b0316836001600160a01b03167f70930c4d7c90caf6befd84368a02f1e5493c254095e7d3c5b5105922befb92e583604051611cea91815260200190565b7ff0c57e16840df040f15088dc2f81fe391c3923bec73e23a9662efc9c229c6a0054600160401b900460ff16610d3357604051631afcd79f60e31b815260040160405180910390fd5b61151c611f7c565b6000611fe26001600160a01b03841683612177565b905080516000141580156120075750808060200190518101906120059190612618565b155b15610ee657604051635274afe760e01b81526001600160a01b0384166004820152602401610ac2565b806001600160a01b03163b60000361206657604051634c9c8ce360e01b81526001600160a01b0382166004820152602401610ac2565b6000805160206126a383398151915280546001600160a01b0319166001600160a01b0392909216919091179055565b6060600080846001600160a01b0316846040516120b29190612666565b600060405180830381855af49150503d80600081146120ed576040519150601f19603f3d011682016040523d82523d6000602084013e6120f2565b606091505b5091509150612102858383612185565b925050505b92915050565b3415610d335760405163b398979f60e01b815260040160405180910390fd5b60008061213984866125df565b9050600061214a62e6b680856125df565b90506000612158858861263a565b612162838561263a565b61216c91906125f6565b979650505050505050565b6060610a7f838360006121e1565b60608261219a576121958261227e565b610a7f565b81511580156121b157506001600160a01b0384163b155b156121da57604051639996b31560e01b81526001600160a01b0385166004820152602401610ac2565b5080610a7f565b6060814710156122065760405163cd78605960e01b8152306004820152602401610ac2565b600080856001600160a01b031684866040516122229190612666565b60006040518083038185875af1925050503d806000811461225f576040519150601f19603f3d011682016040523d82523d6000602084013e612264565b606091505b5091509150612274868383612185565b9695505050505050565b80511561228e5780518082602001fd5b604051630a12f52160e11b815260040160405180910390fd5b80356001600160a01b03811681146122be57600080fd5b919050565b6000602082840312156122d557600080fd5b610a7f826122a7565b60008083601f8401126122f057600080fd5b50813567ffffffffffffffff81111561230857600080fd5b6020830191508360208260051b850101111561232357600080fd5b9250929050565b6000806000806040858703121561234057600080fd5b843567ffffffffffffffff8082111561235857600080fd5b612364888389016122de565b9096509450602087013591508082111561237d57600080fd5b5061238a878288016122de565b95989497509550505050565b6000806000606084860312156123ab57600080fd5b6123b4846122a7565b92506123c2602085016122a7565b9150604084013590509250925092565b600080604083850312156123e557600080fd5b6123ee836122a7565b946020939093013593505050565b634e487b7160e01b600052604160045260246000fd5b6000806040838503121561242557600080fd5b61242e836122a7565b9150602083013567ffffffffffffffff8082111561244b57600080fd5b818501915085601f83011261245f57600080fd5b813581811115612471576124716123fc565b604051601f8201601f19908116603f01168101908382118183101715612499576124996123fc565b816040528281528860208487010111156124b257600080fd5b8260208601602083013760006020848301015280955050505050509250929050565b600080604083850312156124e757600080fd5b6124f0836122a7565b91506124fe602084016122a7565b90509250929050565b60005b8381101561252257818101518382015260200161250a565b50506000910152565b602081526000825180602084015261254a816040850160208701612507565b601f01601f19169190910160400192915050565b6000806020838503121561257157600080fd5b823567ffffffffffffffff81111561258857600080fd5b612594858286016122de565b90969095509350505050565b634e487b7160e01b600052603260045260246000fd5b634e487b7160e01b600052601160045260246000fd5b81810381811115612107576121076125b6565b8082028115828204841417612107576121076125b6565b60008261261357634e487b7160e01b600052601260045260246000fd5b500490565b60006020828403121561262a57600080fd5b81518015158114610a7f57600080fd5b80820180821115612107576121076125b6565b60006020828403121561265f57600080fd5b5051919050565b60008251612678818460208701612507565b919091019291505056fe6f0b61812a1954a00351239cba469186147c5b10a1b12ed7f226dc5c1aaafa23360894a13ba1a3210667c828492db98dca3e2076cc3735a920a3ca505d382bbca164736f6c6343000817000a",
  "devdoc": {
    "errors": {
      "AddressEmptyCode(address)": [
        {
          "details": "There's no code at `target` (it is not a contract)."
        }
      ],
      "AddressInsufficientBalance(address)": [
        {
          "details": "The ETH balance of the account is not enough to perform the operation."
        }
      ],
      "ERC1967InvalidImplementation(address)": [
        {
          "details": "The `implementation` of the proxy is invalid."
        }
      ],
      "ERC1967NonPayable()": [
        {
          "details": "An upgrade function sees `msg.value > 0` that may be lost."
        }
      ],
      "FailedInnerCall()": [
        {
          "details": "A call to an address target failed. The target may have reverted."
        }
      ],
      "FeeCollector__ArrayMismatch()": [
        {
          "details": "Emitted when the lengths of array parameters are mismatched."
        }
      ],
      "FeeCollector__BorrowerOperationsOnly(address,address)": [
        {
          "details": "Emitted when the caller is not BorrowerOperations.",
          "params": {
            "_expected": "The address of BorrowerOperations.",
            "_sender": "The address of caller."
          }
        }
      ],
      "FeeCollector__BorrowerOperationsOrTrenBoxManagerOnly(address,address,address)": [
        {
          "details": "Emitted when the caller is neither BorrowerOperations nor TrenBoxManager.",
          "params": {
            "_expected1": "The address of BorrowerOperations.",
            "_expected2": "The address of TrenBoxManager.",
            "_sender": "The address of caller."
          }
        }
      ],
      "FeeCollector__PaybackFractionHigherThanOne()": [
        {
          "details": "Emitted when the payback fraction is higher than 1 ether(10**18 wei)."
        }
      ],
      "FeeCollector__TrenBoxManagerOnly(address,address)": [
        {
          "details": "Emitted when the caller is not TrenBoxManager.",
          "params": {
            "_expected": "The address of TrenBoxManager.",
            "_sender": "The address of caller."
          }
        }
      ],
      "FeeCollector__ZeroPaybackFraction()": [
        {
          "details": "Emitted when the payback fraction is zero."
        }
      ],
      "InvalidInitialization()": [
        {
          "details": "The contract is already initialized."
        }
      ],
      "NotInitializing()": [
        {
          "details": "The contract is not initializing."
        }
      ],
      "OwnableInvalidOwner(address)": [
        {
          "details": "The owner is not a valid owner account. (eg. `address(0)`)"
        }
      ],
      "OwnableUnauthorizedAccount(address)": [
        {
          "details": "The caller account is not authorized to perform an operation."
        }
      ],
      "SafeERC20FailedOperation(address)": [
        {
          "details": "An operation with an ERC20 token failed."
        }
      ],
      "UUPSUnauthorizedCallContext()": [
        {
          "details": "The call is from an unauthorized context."
        }
      ],
      "UUPSUnsupportedProxiableUUID(bytes32)": [
        {
          "details": "The storage `slot` is unsupported as a UUID."
        }
      ]
    },
    "events": {
      "FeeCollected(address,address,address,uint256)": {
        "details": "Emitted when the collected fees are transferred to either the treasury or the TRENStaking contract.",
        "params": {
          "_amount": "The amount of collected fees (debt tokens).",
          "_asset": "The address of collateral asset.",
          "_borrower": "The address of borrower.",
          "_collector": "The address of destination."
        }
      },
      "FeeRecordUpdated(address,address,uint256,uint256,uint256)": {
        "details": "Emitted when the fee record is updated.",
        "params": {
          "_amount": "The amount of refundable fee",
          "_asset": "The address of collateral asset.",
          "_borrower": "The address of borrower.",
          "_from": "The timestamp in seconds when the decay of refundable fee started.",
          "_to": "The timestamp in seconds when the decay of refundable fee expired."
        }
      },
      "FeeRefunded(address,address,uint256)": {
        "details": "Emitted when the fees are refunded to the borrower.",
        "params": {
          "_amount": "The amount of refunded fees.",
          "_asset": "The address of collateral asset.",
          "_borrower": "The address of borrower."
        }
      },
      "Initialized(uint64)": {
        "details": "Triggered when the contract has been initialized or reinitialized."
      },
      "RedemptionFeeCollected(address,uint256)": {
        "details": "Emitted when the redemption fees are collected.",
        "params": {
          "_amount": "The amount of collected fees.",
          "_asset": "The address of collateral asset."
        }
      },
      "Upgraded(address)": {
        "details": "Emitted when the implementation is upgraded."
      }
    },
    "kind": "dev",
    "methods": {
      "closeDebt(address,address)": {
        "params": {
          "_asset": "The address of collateral asset.",
          "_borrower": "The address of borrower."
        }
      },
      "collectFees(address[],address[])": {
        "params": {
          "_assets": "The address array of collateral assets.",
          "_borrowers": "The address array of borrowers."
        }
      },
      "decreaseDebt(address,address,uint256)": {
        "params": {
          "_asset": "The address of collateral asset.",
          "_borrower": "The address of borrower.",
          "_paybackFraction": "The amount that the borrower pays back."
        }
      },
      "handleRedemptionFee(address,uint256)": {
        "params": {
          "_amount": "The amount of redemption fee to send.",
          "_asset": "The address of collateral asset."
        }
      },
      "increaseDebt(address,address,uint256)": {
        "details": "Attention: this method assumes that (debt token) _feeAmount has already been minted and transferred to this contract.",
        "params": {
          "_asset": "The address of collateral asset.",
          "_borrower": "The address of borrower.",
          "_feeAmount": "The fee amount to collect."
        }
      },
      "initialize(address)": {
        "details": "Runs all the setup logic only once.",
        "params": {
          "initialOwner": "The address of initial owner."
        }
      },
      "liquidateDebt(address,address)": {
        "params": {
          "_asset": "The address of collateral asset.",
          "_borrower": "The address of borrower."
        }
      },
      "owner()": {
        "details": "Returns the address of the current owner."
      },
      "proxiableUUID()": {
        "details": "Implementation of the ERC1822 {proxiableUUID} function. This returns the storage slot used by the implementation. It is used to validate the implementation's compatibility when performing an upgrade. IMPORTANT: A proxy pointing at a proxiable contract should not be considered proxiable itself, because this risks bricking a proxy that upgrades to it, by delegating to itself until out of gas. Thus it is critical that this function revert if invoked through a proxy. This is guaranteed by the `notDelegated` modifier."
      },
      "renounceOwnership()": {
        "details": "Leaves the contract without owner. It will not be possible to call `onlyOwner` functions. Can only be called by the current owner. NOTE: Renouncing ownership will leave the contract without an owner, thereby disabling any functionality that is only available to the owner."
      },
      "simulateRefund(address,address,uint256)": {
        "details": "Helper function used by the UI.",
        "params": {
          "_asset": "The address of collateral asset.",
          "_borrower": "The address of borrower.",
          "_paybackFraction": "The amount that the borrower pays back."
        }
      },
      "transferOwnership(address)": {
        "details": "Transfers ownership of the contract to a new account (`newOwner`). Can only be called by the current owner."
      },
      "upgradeToAndCall(address,bytes)": {
        "custom:oz-upgrades-unsafe-allow-reachable": "delegatecall",
        "details": "Upgrade the implementation of the proxy to `newImplementation`, and subsequently execute the function call encoded in `data`. Calls {_authorizeUpgrade}. Emits an {Upgraded} event."
      }
    },
    "title": "FeeCollector contract",
    "version": 1
  },
  "userdoc": {
    "kind": "user",
    "methods": {
      "FEE_EXPIRATION_SECONDS()": {
        "notice": "The duration which the fee refund is expired. ~ 6 months minus one week (MIN_FEE_DAYS)"
      },
      "MIN_FEE_DAYS()": {
        "notice": "The duration which the minimum fee is applied."
      },
      "MIN_FEE_FRACTION()": {
        "notice": "The minimum fee fraction, divided by 26 (1/26)."
      },
      "NAME()": {
        "notice": "The contract name."
      },
      "closeDebt(address,address)": {
        "notice": "Closes debt when it is paid in full."
      },
      "collectFees(address[],address[])": {
        "notice": "Batches collect fees from an array of borrowers and assets."
      },
      "decreaseDebt(address,address,uint256)": {
        "notice": "Decreases debt when a TrenBox is adjusted."
      },
      "feeRecords(address,address)": {
        "notice": "The mapping from borrower address to the nested mapping from collateral asset address to fee record struct"
      },
      "getProtocolRevenueDestination()": {
        "notice": "Gets the protocol revenue destination."
      },
      "handleRedemptionFee(address,uint256)": {
        "notice": "Sends redemption fee to the protocol revenue destination."
      },
      "increaseDebt(address,address,uint256)": {
        "notice": "Increases debt of fee amount when a TrenBox is created and again whenever the borrower acquires additional loans. Collects the minimum fee to the platform, for which there is no refund; holds on to the remaining fees until debt is paid, liquidated, or expired."
      },
      "liquidateDebt(address,address)": {
        "notice": "Triggered when a TrenBox is liquidated. In that case, all remaining fees are collected by the platform, and no refunds are generated."
      },
      "simulateRefund(address,address,uint256)": {
        "notice": "Simulates the refund due if a TrenBox would be closed at this moment"
      }
    },
    "notice": "Handles the borrowing fee; controls the decaying refund and maintains its record that includes the refund balance.",
    "version": 1
  },
  "storageLayout": {
    "storage": [
      {
        "astId": 10105,
        "contract": "contracts/FeeCollector.sol:FeeCollector",
        "label": "adminContract",
        "offset": 0,
        "slot": "0",
        "type": "t_address"
      },
      {
        "astId": 10107,
        "contract": "contracts/FeeCollector.sol:FeeCollector",
        "label": "borrowerOperations",
        "offset": 0,
        "slot": "1",
        "type": "t_address"
      },
      {
        "astId": 10109,
        "contract": "contracts/FeeCollector.sol:FeeCollector",
        "label": "communityIssuance",
        "offset": 0,
        "slot": "2",
        "type": "t_address"
      },
      {
        "astId": 10111,
        "contract": "contracts/FeeCollector.sol:FeeCollector",
        "label": "debtToken",
        "offset": 0,
        "slot": "3",
        "type": "t_address"
      },
      {
        "astId": 10113,
        "contract": "contracts/FeeCollector.sol:FeeCollector",
        "label": "feeCollector",
        "offset": 0,
        "slot": "4",
        "type": "t_address"
      },
      {
        "astId": 10115,
        "contract": "contracts/FeeCollector.sol:FeeCollector",
        "label": "flashLoanAddress",
        "offset": 0,
        "slot": "5",
        "type": "t_address"
      },
      {
        "astId": 10117,
        "contract": "contracts/FeeCollector.sol:FeeCollector",
        "label": "trenStaking",
        "offset": 0,
        "slot": "6",
        "type": "t_address"
      },
      {
        "astId": 10119,
        "contract": "contracts/FeeCollector.sol:FeeCollector",
        "label": "priceFeed",
        "offset": 0,
        "slot": "7",
        "type": "t_address"
      },
      {
        "astId": 10121,
        "contract": "contracts/FeeCollector.sol:FeeCollector",
        "label": "sortedTrenBoxes",
        "offset": 0,
        "slot": "8",
        "type": "t_address"
      },
      {
        "astId": 10123,
        "contract": "contracts/FeeCollector.sol:FeeCollector",
        "label": "stabilityPool",
        "offset": 0,
        "slot": "9",
        "type": "t_address"
      },
      {
        "astId": 10125,
        "contract": "contracts/FeeCollector.sol:FeeCollector",
        "label": "timelockAddress",
        "offset": 0,
        "slot": "10",
        "type": "t_address"
      },
      {
        "astId": 10127,
        "contract": "contracts/FeeCollector.sol:FeeCollector",
        "label": "treasuryAddress",
        "offset": 0,
        "slot": "11",
        "type": "t_address"
      },
      {
        "astId": 10129,
        "contract": "contracts/FeeCollector.sol:FeeCollector",
        "label": "trenBoxManager",
        "offset": 0,
        "slot": "12",
        "type": "t_address"
      },
      {
        "astId": 10131,
        "contract": "contracts/FeeCollector.sol:FeeCollector",
        "label": "trenBoxManagerOperations",
        "offset": 0,
        "slot": "13",
        "type": "t_address"
      },
      {
        "astId": 10133,
        "contract": "contracts/FeeCollector.sol:FeeCollector",
        "label": "trenBoxStorage",
        "offset": 0,
        "slot": "14",
        "type": "t_address"
      },
      {
        "astId": 10135,
        "contract": "contracts/FeeCollector.sol:FeeCollector",
        "label": "isAddressSetupInitialized",
        "offset": 20,
        "slot": "14",
        "type": "t_bool"
      },
      {
        "astId": 10140,
        "contract": "contracts/FeeCollector.sol:FeeCollector",
        "label": "__gap",
        "offset": 0,
        "slot": "15",
        "type": "t_array(t_uint256)33_storage"
      },
      {
        "astId": 10970,
        "contract": "contracts/FeeCollector.sol:FeeCollector",
        "label": "feeRecords",
        "offset": 0,
        "slot": "48",
        "type": "t_mapping(t_address,t_mapping(t_address,t_struct(FeeRecord)13476_storage))"
      }
    ],
    "types": {
      "t_address": {
        "encoding": "inplace",
        "label": "address",
        "numberOfBytes": "20"
      },
      "t_array(t_uint256)33_storage": {
        "base": "t_uint256",
        "encoding": "inplace",
        "label": "uint256[33]",
        "numberOfBytes": "1056"
      },
      "t_bool": {
        "encoding": "inplace",
        "label": "bool",
        "numberOfBytes": "1"
      },
      "t_mapping(t_address,t_mapping(t_address,t_struct(FeeRecord)13476_storage))": {
        "encoding": "mapping",
        "key": "t_address",
        "label": "mapping(address => mapping(address => struct IFeeCollector.FeeRecord))",
        "numberOfBytes": "32",
        "value": "t_mapping(t_address,t_struct(FeeRecord)13476_storage)"
      },
      "t_mapping(t_address,t_struct(FeeRecord)13476_storage)": {
        "encoding": "mapping",
        "key": "t_address",
        "label": "mapping(address => struct IFeeCollector.FeeRecord)",
        "numberOfBytes": "32",
        "value": "t_struct(FeeRecord)13476_storage"
      },
      "t_struct(FeeRecord)13476_storage": {
        "encoding": "inplace",
        "label": "struct IFeeCollector.FeeRecord",
        "members": [
          {
            "astId": 13471,
            "contract": "contracts/FeeCollector.sol:FeeCollector",
            "label": "from",
            "offset": 0,
            "slot": "0",
            "type": "t_uint256"
          },
          {
            "astId": 13473,
            "contract": "contracts/FeeCollector.sol:FeeCollector",
            "label": "to",
            "offset": 0,
            "slot": "1",
            "type": "t_uint256"
          },
          {
            "astId": 13475,
            "contract": "contracts/FeeCollector.sol:FeeCollector",
            "label": "amount",
            "offset": 0,
            "slot": "2",
            "type": "t_uint256"
          }
        ],
        "numberOfBytes": "96"
      },
      "t_uint256": {
        "encoding": "inplace",
        "label": "uint256",
        "numberOfBytes": "32"
      }
    }
  }
}