{
  "address": "0x19A1a5aefd648dc1285E288ffdA584c5F63865ba",
  "abi": [
    {
      "inputs": [
        {
          "internalType": "address",
          "name": "target",
          "type": "address"
        }
      ],
      "name": "AddressEmptyCode",
      "type": "error"
    },
    {
      "inputs": [],
      "name": "ConfigurableAddresses__CommunityIssuanceZeroAddress",
      "type": "error"
    },
    {
      "inputs": [],
      "name": "ConfigurableAddresses__LengthMismatch",
      "type": "error"
    },
    {
      "inputs": [],
      "name": "ConfigurableAddresses__SetupIsInitialized",
      "type": "error"
    },
    {
      "inputs": [],
      "name": "ConfigurableAddresses__TRENStakingZeroAddress",
      "type": "error"
    },
    {
      "inputs": [
        {
          "internalType": "uint256",
          "name": "position",
          "type": "uint256"
        },
        {
          "internalType": "address",
          "name": "address_",
          "type": "address"
        }
      ],
      "name": "ConfigurableAddresses__ZeroAddresses",
      "type": "error"
    },
    {
      "inputs": [
        {
          "internalType": "address",
          "name": "implementation",
          "type": "address"
        }
      ],
      "name": "ERC1967InvalidImplementation",
      "type": "error"
    },
    {
      "inputs": [],
      "name": "ERC1967NonPayable",
      "type": "error"
    },
    {
      "inputs": [],
      "name": "FailedInnerCall",
      "type": "error"
    },
    {
      "inputs": [],
      "name": "FlashLoan__AmountBeyondMax",
      "type": "error"
    },
    {
      "inputs": [],
      "name": "FlashLoan__AmountBeyondMin",
      "type": "error"
    },
    {
      "inputs": [],
      "name": "FlashLoan__CollateralIsNotActive",
      "type": "error"
    },
    {
      "inputs": [],
      "name": "FlashLoan__LoanIsNotRepayable",
      "type": "error"
    },
    {
      "inputs": [],
      "name": "FlashLoan__SetupIsInitialized",
      "type": "error"
    },
    {
      "inputs": [],
      "name": "FlashLoan__ZeroAddresses",
      "type": "error"
    },
    {
      "inputs": [],
      "name": "InvalidInitialization",
      "type": "error"
    },
    {
      "inputs": [],
      "name": "NotInitializing",
      "type": "error"
    },
    {
      "inputs": [
        {
          "internalType": "address",
          "name": "owner",
          "type": "address"
        }
      ],
      "name": "OwnableInvalidOwner",
      "type": "error"
    },
    {
      "inputs": [
        {
          "internalType": "address",
          "name": "account",
          "type": "address"
        }
      ],
      "name": "OwnableUnauthorizedAccount",
      "type": "error"
    },
    {
      "inputs": [],
      "name": "ReentrancyGuardReentrantCall",
      "type": "error"
    },
    {
      "inputs": [],
      "name": "UUPSUnauthorizedCallContext",
      "type": "error"
    },
    {
      "inputs": [
        {
          "internalType": "bytes32",
          "name": "slot",
          "type": "bytes32"
        }
      ],
      "name": "UUPSUnsupportedProxiableUUID",
      "type": "error"
    },
    {
      "anonymous": false,
      "inputs": [
        {
          "indexed": false,
          "internalType": "address",
          "name": "_stableCoin",
          "type": "address"
        },
        {
          "indexed": false,
          "internalType": "address",
          "name": "_swapRouter",
          "type": "address"
        }
      ],
      "name": "AddressesSet",
      "type": "event"
    },
    {
      "anonymous": false,
      "inputs": [
        {
          "indexed": true,
          "internalType": "address",
          "name": "_borrower",
          "type": "address"
        },
        {
          "indexed": true,
          "internalType": "uint256",
          "name": "_debtAmount",
          "type": "uint256"
        },
        {
          "indexed": false,
          "internalType": "uint256",
          "name": "_feeAmount",
          "type": "uint256"
        }
      ],
      "name": "FlashLoanExecuted",
      "type": "event"
    },
    {
      "anonymous": false,
      "inputs": [
        {
          "indexed": false,
          "internalType": "uint64",
          "name": "version",
          "type": "uint64"
        }
      ],
      "name": "Initialized",
      "type": "event"
    },
    {
      "anonymous": false,
      "inputs": [
        {
          "indexed": true,
          "internalType": "address",
          "name": "previousOwner",
          "type": "address"
        },
        {
          "indexed": true,
          "internalType": "address",
          "name": "newOwner",
          "type": "address"
        }
      ],
      "name": "OwnershipTransferred",
      "type": "event"
    },
    {
      "anonymous": false,
      "inputs": [
        {
          "indexed": true,
          "internalType": "address",
          "name": "implementation",
          "type": "address"
        }
      ],
      "name": "Upgraded",
      "type": "event"
    },
    {
      "inputs": [],
      "name": "FEE_DENOMINATOR",
      "outputs": [
        {
          "internalType": "uint256",
          "name": "",
          "type": "uint256"
        }
      ],
      "stateMutability": "view",
      "type": "function"
    },
    {
      "inputs": [],
      "name": "NAME",
      "outputs": [
        {
          "internalType": "string",
          "name": "",
          "type": "string"
        }
      ],
      "stateMutability": "view",
      "type": "function"
    },
    {
      "inputs": [],
      "name": "UPGRADE_INTERFACE_VERSION",
      "outputs": [
        {
          "internalType": "string",
          "name": "",
          "type": "string"
        }
      ],
      "stateMutability": "view",
      "type": "function"
    },
    {
      "inputs": [],
      "name": "adminContract",
      "outputs": [
        {
          "internalType": "address",
          "name": "",
          "type": "address"
        }
      ],
      "stateMutability": "view",
      "type": "function"
    },
    {
      "inputs": [
        {
          "internalType": "address",
          "name": "newImplementation",
          "type": "address"
        }
      ],
      "name": "authorizeUpgrade",
      "outputs": [],
      "stateMutability": "nonpayable",
      "type": "function"
    },
    {
      "inputs": [],
      "name": "borrowerOperations",
      "outputs": [
        {
          "internalType": "address",
          "name": "",
          "type": "address"
        }
      ],
      "stateMutability": "view",
      "type": "function"
    },
    {
      "inputs": [],
      "name": "communityIssuance",
      "outputs": [
        {
          "internalType": "address",
          "name": "",
          "type": "address"
        }
      ],
      "stateMutability": "view",
      "type": "function"
    },
    {
      "inputs": [],
      "name": "debtToken",
      "outputs": [
        {
          "internalType": "address",
          "name": "",
          "type": "address"
        }
      ],
      "stateMutability": "view",
      "type": "function"
    },
    {
      "inputs": [],
      "name": "feeCollector",
      "outputs": [
        {
          "internalType": "address",
          "name": "",
          "type": "address"
        }
      ],
      "stateMutability": "view",
      "type": "function"
    },
    {
      "inputs": [
        {
          "internalType": "uint256",
          "name": "_amount",
          "type": "uint256"
        }
      ],
      "name": "flashLoan",
      "outputs": [],
      "stateMutability": "nonpayable",
      "type": "function"
    },
    {
      "inputs": [],
      "name": "flashLoanAddress",
      "outputs": [
        {
          "internalType": "address",
          "name": "",
          "type": "address"
        }
      ],
      "stateMutability": "view",
      "type": "function"
    },
    {
      "inputs": [
        {
          "internalType": "address",
          "name": "_asset",
          "type": "address"
        }
      ],
      "name": "flashLoanForRepay",
      "outputs": [],
      "stateMutability": "nonpayable",
      "type": "function"
    },
    {
      "inputs": [],
      "name": "getFlashLoanRate",
      "outputs": [
        {
          "internalType": "uint256",
          "name": "",
          "type": "uint256"
        }
      ],
      "stateMutability": "view",
      "type": "function"
    },
    {
      "inputs": [
        {
          "internalType": "address",
          "name": "initialOwner",
          "type": "address"
        }
      ],
      "name": "initialize",
      "outputs": [],
      "stateMutability": "nonpayable",
      "type": "function"
    },
    {
      "inputs": [],
      "name": "isAddressSetupInitialized",
      "outputs": [
        {
          "internalType": "bool",
          "name": "",
          "type": "bool"
        }
      ],
      "stateMutability": "view",
      "type": "function"
    },
    {
      "inputs": [],
      "name": "isSetupInitialized",
      "outputs": [
        {
          "internalType": "bool",
          "name": "",
          "type": "bool"
        }
      ],
      "stateMutability": "view",
      "type": "function"
    },
    {
      "inputs": [],
      "name": "owner",
      "outputs": [
        {
          "internalType": "address",
          "name": "",
          "type": "address"
        }
      ],
      "stateMutability": "view",
      "type": "function"
    },
    {
      "inputs": [],
      "name": "priceFeed",
      "outputs": [
        {
          "internalType": "address",
          "name": "",
          "type": "address"
        }
      ],
      "stateMutability": "view",
      "type": "function"
    },
    {
      "inputs": [],
      "name": "proxiableUUID",
      "outputs": [
        {
          "internalType": "bytes32",
          "name": "",
          "type": "bytes32"
        }
      ],
      "stateMutability": "view",
      "type": "function"
    },
    {
      "inputs": [],
      "name": "renounceOwnership",
      "outputs": [],
      "stateMutability": "nonpayable",
      "type": "function"
    },
    {
      "inputs": [
        {
          "internalType": "address[]",
          "name": "_addresses",
          "type": "address[]"
        }
      ],
      "name": "setAddresses",
      "outputs": [],
      "stateMutability": "nonpayable",
      "type": "function"
    },
    {
      "inputs": [
        {
          "internalType": "address",
          "name": "_communityIssuance",
          "type": "address"
        }
      ],
      "name": "setCommunityIssuance",
      "outputs": [],
      "stateMutability": "nonpayable",
      "type": "function"
    },
    {
      "inputs": [
        {
          "internalType": "address",
          "name": "_stableCoin",
          "type": "address"
        },
        {
          "internalType": "address",
          "name": "_swapRouter",
          "type": "address"
        }
      ],
      "name": "setInternalAddresses",
      "outputs": [],
      "stateMutability": "nonpayable",
      "type": "function"
    },
    {
      "inputs": [
        {
          "internalType": "address",
          "name": "_trenStaking",
          "type": "address"
        }
      ],
      "name": "setTRENStaking",
      "outputs": [],
      "stateMutability": "nonpayable",
      "type": "function"
    },
    {
      "inputs": [],
      "name": "sortedTrenBoxes",
      "outputs": [
        {
          "internalType": "address",
          "name": "",
          "type": "address"
        }
      ],
      "stateMutability": "view",
      "type": "function"
    },
    {
      "inputs": [],
      "name": "stabilityPool",
      "outputs": [
        {
          "internalType": "address",
          "name": "",
          "type": "address"
        }
      ],
      "stateMutability": "view",
      "type": "function"
    },
    {
      "inputs": [],
      "name": "stableCoin",
      "outputs": [
        {
          "internalType": "address",
          "name": "",
          "type": "address"
        }
      ],
      "stateMutability": "view",
      "type": "function"
    },
    {
      "inputs": [],
      "name": "swapRouter",
      "outputs": [
        {
          "internalType": "contract IUniswapRouterV3",
          "name": "",
          "type": "address"
        }
      ],
      "stateMutability": "view",
      "type": "function"
    },
    {
      "inputs": [],
      "name": "timelockAddress",
      "outputs": [
        {
          "internalType": "address",
          "name": "",
          "type": "address"
        }
      ],
      "stateMutability": "view",
      "type": "function"
    },
    {
      "inputs": [
        {
          "internalType": "address",
          "name": "newOwner",
          "type": "address"
        }
      ],
      "name": "transferOwnership",
      "outputs": [],
      "stateMutability": "nonpayable",
      "type": "function"
    },
    {
      "inputs": [],
      "name": "treasuryAddress",
      "outputs": [
        {
          "internalType": "address",
          "name": "",
          "type": "address"
        }
      ],
      "stateMutability": "view",
      "type": "function"
    },
    {
      "inputs": [],
      "name": "trenBoxManager",
      "outputs": [
        {
          "internalType": "address",
          "name": "",
          "type": "address"
        }
      ],
      "stateMutability": "view",
      "type": "function"
    },
    {
      "inputs": [],
      "name": "trenBoxManagerOperations",
      "outputs": [
        {
          "internalType": "address",
          "name": "",
          "type": "address"
        }
      ],
      "stateMutability": "view",
      "type": "function"
    },
    {
      "inputs": [],
      "name": "trenBoxStorage",
      "outputs": [
        {
          "internalType": "address",
          "name": "",
          "type": "address"
        }
      ],
      "stateMutability": "view",
      "type": "function"
    },
    {
      "inputs": [],
      "name": "trenStaking",
      "outputs": [
        {
          "internalType": "address",
          "name": "",
          "type": "address"
        }
      ],
      "stateMutability": "view",
      "type": "function"
    },
    {
      "inputs": [
        {
          "internalType": "address",
          "name": "newImplementation",
          "type": "address"
        },
        {
          "internalType": "bytes",
          "name": "data",
          "type": "bytes"
        }
      ],
      "name": "upgradeToAndCall",
      "outputs": [],
      "stateMutability": "payable",
      "type": "function"
    }
  ],
  "transactionHash": "0xc0d8b5e2c6e1742d3fdf9c5176bb42aaf08b3f6c852c4a3c3666b4322d67af0d",
  "args": [],
  "numDeployments": 1,
  "solcInputHash": "10f736271acd8614150314323b008696",
  "bytecode": "0x60a06040523060805234801561001457600080fd5b5060805161254961003e600039600081816117eb01528181611814015261195a01526125496000f3fe60806040526004361061020f5760003560e01c80639ab603b911610118578063c4d66de8116100a0578063d73792a91161006f578063d73792a914610655578063f1c05a7e1461066b578063f2fde38b1461068b578063f8d89898146106ab578063fe060733146106cb57600080fd5b8063c4d66de8146105d4578063c5f956af146105f4578063c8564c6214610614578063cc8b21e41461063557600080fd5b8063ad3cb1cc116100e7578063ad3cb1cc14610523578063b957172114610554578063c05c5e9414610574578063c31c9c0714610594578063c415b95c146105b457600080fd5b80639ab603b914610470578063a142f35a14610490578063a2e61b7b146104c1578063a3f4df7e146104e157600080fd5b806358fd44a51161019b57806377553ad41161016a57806377553ad4146103be5780638da5cb5b146103de57806390681ad31461041b57806395fb16bb14610430578063992642e51461045057600080fd5b806358fd44a5146103495780636a85d67d14610369578063715018a614610389578063741bef1a1461039e57600080fd5b80634169467d116101e25780634169467d146102b35780634bc66f32146102d35780634f1ef286146102f357806352d1902d1461030657806355dafa461461032957600080fd5b806301c9310014610214578063048c661d146102365780630a34d4d6146102735780633f84a44d14610293575b600080fd5b34801561022057600080fd5b5061023461022f3660046121a4565b6106eb565b005b34801561024257600080fd5b50600954610256906001600160a01b031681565b6040516001600160a01b0390911681526020015b60405180910390f35b34801561027f57600080fd5b50600d54610256906001600160a01b031681565b34801561029f57600080fd5b50600e54610256906001600160a01b031681565b3480156102bf57600080fd5b50600554610256906001600160a01b031681565b3480156102df57600080fd5b50600a54610256906001600160a01b031681565b6102346103013660046121d7565b61073c565b34801561031257600080fd5b5061031b61075b565b60405190815260200161026a565b34801561033557600080fd5b50600654610256906001600160a01b031681565b34801561035557600080fd5b5061023461036436600461229b565b610778565b34801561037557600080fd5b506102346103843660046121a4565b610863565b34801561039557600080fd5b506102346108b4565b3480156103aa57600080fd5b50600754610256906001600160a01b031681565b3480156103ca57600080fd5b50600154610256906001600160a01b031681565b3480156103ea57600080fd5b507f9016d09d72d40fdae2fd8ceac6b6234c7706214fd39c1cd1e609a0528c199300546001600160a01b0316610256565b34801561042757600080fd5b5061031b6108c8565b34801561043c57600080fd5b50600254610256906001600160a01b031681565b34801561045c57600080fd5b50603154610256906001600160a01b031681565b34801561047c57600080fd5b5061023461048b3660046122d4565b610945565b34801561049c57600080fd5b506031546104b190600160a01b900460ff1681565b604051901515815260200161026a565b3480156104cd57600080fd5b506102346104dc3660046121a4565b610cd7565b3480156104ed57600080fd5b5061051660405180604001604052806009815260200168233630b9b42637b0b760b91b81525081565b60405161026a919061233d565b34801561052f57600080fd5b50610516604051806040016040528060058152602001640352e302e360dc1b81525081565b34801561056057600080fd5b5061023461056f366004612350565b611180565b34801561058057600080fd5b50600054610256906001600160a01b031681565b3480156105a057600080fd5b50603054610256906001600160a01b031681565b3480156105c057600080fd5b50600454610256906001600160a01b031681565b3480156105e057600080fd5b506102346105ef3660046121a4565b611629565b34801561060057600080fd5b50600b54610256906001600160a01b031681565b34801561062057600080fd5b50600e546104b190600160a01b900460ff1681565b34801561064157600080fd5b50600854610256906001600160a01b031681565b34801561066157600080fd5b5061031b6103e881565b34801561067757600080fd5b50600c54610256906001600160a01b031681565b34801561069757600080fd5b506102346106a63660046121a4565b611741565b3480156106b757600080fd5b50600354610256906001600160a01b031681565b3480156106d757600080fd5b506102346106e63660046121a4565b61177c565b6106f3611785565b6001600160a01b03811661071a576040516385d3330760e01b815260040160405180910390fd5b600680546001600160a01b0319166001600160a01b0392909216919091179055565b6107446117e0565b61074d82611885565b610757828261188d565b5050565b600061076561194f565b5060008051602061251d83398151915290565b610780611785565b603154600160a01b900460ff16156107ab5760405163afe60fe960e01b815260040160405180910390fd5b6001600160a01b03821615806107c857506001600160a01b038116155b156107e65760405163cc8d850960e01b815260040160405180910390fd5b60318054603080546001600160a01b038581166001600160a01b031990921682179092556001600160a81b0319909216908516908117600160a01b179092556040805192835260208301919091527fc85d03f020ecd6e7e68d949922d7bfbf9b0ac67d6e9d24792773b8df88a89dea910160405180910390a15050565b61086b611785565b6001600160a01b0381166108925760405163706ebc6560e11b815260040160405180910390fd5b600280546001600160a01b0319166001600160a01b0392909216919091179055565b6108bc611785565b6108c66000611998565b565b60008060009054906101000a90046001600160a01b03166001600160a01b031663fd90c2be6040518163ffffffff1660e01b8152600401602060405180830381865afa15801561091c573d6000803e3d6000fd5b505050506040513d601f19601f8201168201806040525081019061094091906123c5565b905090565b61094d611a09565b60005460408051632416b72d60e01b8152905183926001600160a01b031691632416b72d9160048083019260209291908290030181865afa158015610996573d6000803e3d6000fd5b505050506040513d601f19601f820116820180604052508101906109ba91906123c5565b11156109d957604051637e77404960e01b815260040160405180910390fd5b60005460408051630f8624d760e21b8152905183926001600160a01b031691633e18935c9160048083019260209291908290030181865afa158015610a22573d6000803e3d6000fd5b505050506040513d601f19601f82011682018060405250810190610a4691906123c5565b1015610a655760405163ee7328bf60e01b815260040160405180910390fd5b610a6e81611a53565b6003546040516370a0823160e01b81523060048201526000916001600160a01b0316906370a0823190602401602060405180830381865afa158015610ab7573d6000803e3d6000fd5b505050506040513d601f19601f82011682018060405250810190610adb91906123c5565b90506000610ae883611ab5565b60035460405163a9059cbb60e01b8152336004820152602481018690529192506001600160a01b03169063a9059cbb906044016020604051808303816000875af1158015610b3a573d6000803e3d6000fd5b505050506040513d601f19601f82011682018060405250810190610b5e91906123de565b50600354604051636b4a653b60e11b815260048101859052602481018390526001600160a01b039091166044820152339063d694ca7690606401600060405180830381600087803b158015610bb257600080fd5b505af1158015610bc6573d6000803e3d6000fd5b505050508082610bd69190612416565b6003546040516370a0823160e01b81523060048201526001600160a01b03909116906370a0823190602401602060405180830381865afa158015610c1e573d6000803e3d6000fd5b505050506040513d601f19601f82011682018060405250810190610c4291906123c5565b1015610c6157604051639d29765b60e01b815260040160405180910390fd5b610c6a83611b43565b610c72611b74565b604051818152839033907f61268d74931c41c9775dffb6169a5208aab1d09cb2eb6aabe8b97162801e5dfa9060200160405180910390a35050610cd460017f9b779b17422d0df92223018b32b4d1fa46e071723d6817e2486d003becc55f0055565b50565b610cdf611a09565b6000546040516317ae1fc560e01b81526001600160a01b038381166004830152909116906317ae1fc590602401602060405180830381865afa158015610d29573d6000803e3d6000fd5b505050506040513d601f19601f82011682018060405250810190610d4d91906123de565b610d6a5760405163f4cdefa560e01b815260040160405180910390fd5b600c5460405163f9a3d41f60e01b81526001600160a01b038381166004830152336024830152600092169063f9a3d41f90604401602060405180830381865afa158015610dbb573d6000803e3d6000fd5b505050506040513d601f19601f82011682018060405250810190610ddf91906123c5565b6000805460405163c08261db60e01b81526001600160a01b0386811660048301529394509192169063c08261db90602401602060405180830381865afa158015610e2d573d6000803e3d6000fd5b505050506040513d601f19601f82011682018060405250810190610e5191906123c5565b600480546040516320e3d2f760e11b815233928101929092526001600160a01b038681166024840152670de0b6b3a7640000604484015292935060009216906341c7a5ee906064016020604051808303816000875af1158015610eb8573d6000803e3d6000fd5b505050506040513d601f19601f82011682018060405250810190610edc91906123c5565b9050600081610eeb8486612429565b610ef59190612429565b9050610f0081611a53565b60035460405163a9059cbb60e01b8152336004820152602481018390526001600160a01b039091169063a9059cbb906044016020604051808303816000875af1158015610f51573d6000803e3d6000fd5b505050506040513d601f19601f82011682018060405250810190610f7591906123de565b506000610f8182611ab5565b6001546040516307703d7360e41b81526001600160a01b038981166004830152602482018690526000604483018190526064830152929350911690637703d73090608401600060405180830381600087803b158015610fdf57600080fd5b505af1158015610ff3573d6000803e3d6000fd5b50506040516370a0823160e01b8152306004820152600092506001600160a01b03891691506370a0823190602401602060405180830381865afa15801561103e573d6000803e3d6000fd5b505050506040513d601f19601f8201168201806040525081019061106291906123c5565b905060006110708385612416565b905061107d888383611cd8565b6003546040516370a0823160e01b815230600482015282916001600160a01b0316906370a0823190602401602060405180830381865afa1580156110c5573d6000803e3d6000fd5b505050506040513d601f19601f820116820180604052508101906110e991906123c5565b101561110857604051639d29765b60e01b815260040160405180910390fd5b61111184611b43565b611119611b74565b604051838152849033907f61268d74931c41c9775dffb6169a5208aab1d09cb2eb6aabe8b97162801e5dfa9060200160405180910390a350505050505050610cd460017f9b779b17422d0df92223018b32b4d1fa46e071723d6817e2486d003becc55f0055565b611188611785565b600e54600160a01b900460ff16156111b257604051625f22e960e41b815260040160405180910390fd5b600d81146111d357604051633f5a111d60e21b815260040160405180910390fd5b60005b600d8110156112765760008383838181106111f3576111f361243c565b905060200201602081019061120891906121a4565b6001600160a01b03160361126e57808383838181106112295761122961243c565b905060200201602081019061123e91906121a4565b604051630d9d339f60e01b815260048101929092526001600160a01b031660248201526044015b60405180910390fd5b6001016111d6565b508181600081811061128a5761128a61243c565b905060200201602081019061129f91906121a4565b600080546001600160a01b0319166001600160a01b0392909216919091179055818160018181106112d2576112d261243c565b90506020020160208101906112e791906121a4565b600180546001600160a01b0319166001600160a01b03929092169190911790558181600281811061131a5761131a61243c565b905060200201602081019061132f91906121a4565b600380546001600160a01b0319166001600160a01b0392909216919091178155829082908181106113625761136261243c565b905060200201602081019061137791906121a4565b600480546001600160a01b0319166001600160a01b0392909216919091178155829082908181106113aa576113aa61243c565b90506020020160208101906113bf91906121a4565b600580546001600160a01b0319166001600160a01b0392909216919091178155829082908181106113f2576113f261243c565b905060200201602081019061140791906121a4565b600780546001600160a01b0319166001600160a01b03929092169190911790558181600681811061143a5761143a61243c565b905060200201602081019061144f91906121a4565b600880546001600160a01b0319166001600160a01b0392909216919091179055818160078181106114825761148261243c565b905060200201602081019061149791906121a4565b600980546001600160a01b0319166001600160a01b0392909216919091179055818160088181106114ca576114ca61243c565b90506020020160208101906114df91906121a4565b600a80546001600160a01b0319166001600160a01b0392909216919091179055818160098181106115125761151261243c565b905060200201602081019061152791906121a4565b600b80546001600160a01b0319166001600160a01b03929092169190911790558181600a81811061155a5761155a61243c565b905060200201602081019061156f91906121a4565b600c80546001600160a01b0319166001600160a01b03929092169190911790558181600b8181106115a2576115a261243c565b90506020020160208101906115b791906121a4565b600d80546001600160a01b0319166001600160a01b03929092169190911790558181600c8181106115ea576115ea61243c565b90506020020160208101906115ff91906121a4565b600e80546001600160a81b0319166001600160a01b039290921691909117600160a01b1790555050565b7ff0c57e16840df040f15088dc2f81fe391c3923bec73e23a9662efc9c229c6a008054600160401b810460ff16159067ffffffffffffffff1660008115801561166f5750825b905060008267ffffffffffffffff16600114801561168c5750303b155b90508115801561169a575080155b156116b85760405163f92ee8a960e01b815260040160405180910390fd5b845467ffffffffffffffff1916600117855583156116e257845460ff60401b1916600160401b1785555b6116eb86611f4e565b6116f3611f5f565b831561173957845460ff60401b19168555604051600181527fc7f505b2f371ae2175ee4913f4499e1f2633a7b5936321eed1cdaeb6115181d29060200160405180910390a15b505050505050565b611749611785565b6001600160a01b03811661177357604051631e4fbdf760e01b815260006004820152602401611265565b610cd481611998565b610cd481611885565b336117b77f9016d09d72d40fdae2fd8ceac6b6234c7706214fd39c1cd1e609a0528c199300546001600160a01b031690565b6001600160a01b0316146108c65760405163118cdaa760e01b8152336004820152602401611265565b306001600160a01b037f000000000000000000000000000000000000000000000000000000000000000016148061186757507f00000000000000000000000000000000000000000000000000000000000000006001600160a01b031661185b60008051602061251d833981519152546001600160a01b031690565b6001600160a01b031614155b156108c65760405163703e46dd60e11b815260040160405180910390fd5b610cd4611785565b816001600160a01b03166352d1902d6040518163ffffffff1660e01b8152600401602060405180830381865afa9250505080156118e7575060408051601f3d908101601f191682019092526118e4918101906123c5565b60015b61190f57604051634c9c8ce360e01b81526001600160a01b0383166004820152602401611265565b60008051602061251d833981519152811461194057604051632a87526960e21b815260048101829052602401611265565b61194a8383611f67565b505050565b306001600160a01b037f000000000000000000000000000000000000000000000000000000000000000016146108c65760405163703e46dd60e11b815260040160405180910390fd5b7f9016d09d72d40fdae2fd8ceac6b6234c7706214fd39c1cd1e609a0528c19930080546001600160a01b031981166001600160a01b03848116918217845560405192169182907f8be0079c531659141344cd1fd0a4f28419497f9722a3daafe3b4186f6b6457e090600090a3505050565b7f9b779b17422d0df92223018b32b4d1fa46e071723d6817e2486d003becc55f00805460011901611a4d57604051633ee5aeb560e01b815260040160405180910390fd5b60029055565b600354604051637bfa6ced60e11b8152600481018390526001600160a01b039091169063f7f4d9da906024015b600060405180830381600087803b158015611a9a57600080fd5b505af1158015611aae573d6000803e3d6000fd5b5050505050565b6000805460408051637ec8615f60e11b8152905183926001600160a01b03169163fd90c2be9160048083019260209291908290030181865afa158015611aff573d6000803e3d6000fd5b505050506040513d601f19601f82011682018060405250810190611b2391906123c5565b90506103e8611b328285612452565b611b3c9190612469565b9392505050565b600354604051635cad563b60e11b8152600481018390526001600160a01b039091169063b95aac7690602401611a80565b6000600460009054906101000a90046001600160a01b03166001600160a01b03166373c9bde06040518163ffffffff1660e01b8152600401602060405180830381865afa158015611bc9573d6000803e3d6000fd5b505050506040513d601f19601f82011682018060405250810190611bed919061248b565b6003546040516370a0823160e01b81523060048201529192506000916001600160a01b03909116906370a0823190602401602060405180830381865afa158015611c3b573d6000803e3d6000fd5b505050506040513d601f19601f82011682018060405250810190611c5f91906123c5565b60035460405163a9059cbb60e01b81526001600160a01b0385811660048301526024820184905292935091169063a9059cbb906044016020604051808303816000875af1158015611cb4573d6000803e3d6000fd5b505050506040513d601f19601f8201168201806040525081019061194a91906123de565b60305460405163095ea7b360e01b81526001600160a01b039182166004820152602481018490529084169063095ea7b3906044016020604051808303816000875af1158015611d2b573d6000803e3d6000fd5b505050506040513d601f19601f82011682018060405250810190611d4f91906123de565b506040805160a0810182526003546031546bffffffffffffffffffffffff19606092831b811660c085015261017760eb1b60d4850181905291831b811660d785015260eb84019190915286821b1660ee830152825180830360e201815261010283018452825230602083015242828401528101839052608081018490526030549151631e51809360e31b815290916000916001600160a01b039091169063f28c049890611e009085906004016124a8565b6020604051808303816000875af1158015611e1f573d6000803e3d6000fd5b505050506040513d601f19601f82011682018060405250810190611e4391906123c5565b905083811015611aae5760305460405163095ea7b360e01b81526001600160a01b039182166004820152600060248201529086169063095ea7b3906044016020604051808303816000875af1158015611ea0573d6000803e3d6000fd5b505050506040513d601f19601f82011682018060405250810190611ec491906123de565b506001600160a01b03851663a9059cbb33611edf8488612429565b6040516001600160e01b031960e085901b1681526001600160a01b03909216600483015260248201526044016020604051808303816000875af1158015611f2a573d6000803e3d6000fd5b505050506040513d601f19601f8201168201806040525081019061173991906123de565b611f56611fbd565b610cd481612006565b6108c6611fbd565b611f708261200e565b6040516001600160a01b038316907fbc7cd75a20ee27fd9adebab32041f755214dbc6bffa90cc0225b39da2e5c2d3b90600090a2805115611fb55761194a8282612073565b6107576120eb565b7ff0c57e16840df040f15088dc2f81fe391c3923bec73e23a9662efc9c229c6a0054600160401b900460ff166108c657604051631afcd79f60e31b815260040160405180910390fd5b611749611fbd565b806001600160a01b03163b60000361204457604051634c9c8ce360e01b81526001600160a01b0382166004820152602401611265565b60008051602061251d83398151915280546001600160a01b0319166001600160a01b0392909216919091179055565b6060600080846001600160a01b0316846040516120909190612500565b600060405180830381855af49150503d80600081146120cb576040519150601f19603f3d011682016040523d82523d6000602084013e6120d0565b606091505b50915091506120e085838361210a565b925050505b92915050565b34156108c65760405163b398979f60e01b815260040160405180910390fd5b60608261211f5761211a82612166565b611b3c565b815115801561213657506001600160a01b0384163b155b1561215f57604051639996b31560e01b81526001600160a01b0385166004820152602401611265565b5092915050565b8051156121765780518082602001fd5b604051630a12f52160e11b815260040160405180910390fd5b6001600160a01b0381168114610cd457600080fd5b6000602082840312156121b657600080fd5b8135611b3c8161218f565b634e487b7160e01b600052604160045260246000fd5b600080604083850312156121ea57600080fd5b82356121f58161218f565b9150602083013567ffffffffffffffff8082111561221257600080fd5b818501915085601f83011261222657600080fd5b813581811115612238576122386121c1565b604051601f8201601f19908116603f01168101908382118183101715612260576122606121c1565b8160405282815288602084870101111561227957600080fd5b8260208601602083013760006020848301015280955050505050509250929050565b600080604083850312156122ae57600080fd5b82356122b98161218f565b915060208301356122c98161218f565b809150509250929050565b6000602082840312156122e657600080fd5b5035919050565b60005b838110156123085781810151838201526020016122f0565b50506000910152565b600081518084526123298160208601602086016122ed565b601f01601f19169290920160200192915050565b602081526000611b3c6020830184612311565b6000806020838503121561236357600080fd5b823567ffffffffffffffff8082111561237b57600080fd5b818501915085601f83011261238f57600080fd5b81358181111561239e57600080fd5b8660208260051b85010111156123b357600080fd5b60209290920196919550909350505050565b6000602082840312156123d757600080fd5b5051919050565b6000602082840312156123f057600080fd5b81518015158114611b3c57600080fd5b634e487b7160e01b600052601160045260246000fd5b808201808211156120e5576120e5612400565b818103818111156120e5576120e5612400565b634e487b7160e01b600052603260045260246000fd5b80820281158282048414176120e5576120e5612400565b60008261248657634e487b7160e01b600052601260045260246000fd5b500490565b60006020828403121561249d57600080fd5b8151611b3c8161218f565b602081526000825160a060208401526124c460c0840182612311565b905060018060a01b0360208501511660408401526040840151606084015260608401516080840152608084015160a08401528091505092915050565b600082516125128184602087016122ed565b919091019291505056fe360894a13ba1a3210667c828492db98dca3e2076cc3735a920a3ca505d382bbca164736f6c6343000817000a",
  "devdoc": {
    "errors": {
      "AddressEmptyCode(address)": [
        {
          "details": "There's no code at `target` (it is not a contract)."
        }
      ],
      "ERC1967InvalidImplementation(address)": [
        {
          "details": "The `implementation` of the proxy is invalid."
        }
      ],
      "ERC1967NonPayable()": [
        {
          "details": "An upgrade function sees `msg.value > 0` that may be lost."
        }
      ],
      "FailedInnerCall()": [
        {
          "details": "A call to an address target failed. The target may have reverted."
        }
      ],
      "InvalidInitialization()": [
        {
          "details": "The contract is already initialized."
        }
      ],
      "NotInitializing()": [
        {
          "details": "The contract is not initializing."
        }
      ],
      "OwnableInvalidOwner(address)": [
        {
          "details": "The owner is not a valid owner account. (eg. `address(0)`)"
        }
      ],
      "OwnableUnauthorizedAccount(address)": [
        {
          "details": "The caller account is not authorized to perform an operation."
        }
      ],
      "ReentrancyGuardReentrantCall()": [
        {
          "details": "Unauthorized reentrant call."
        }
      ],
      "UUPSUnauthorizedCallContext()": [
        {
          "details": "The call is from an unauthorized context."
        }
      ],
      "UUPSUnsupportedProxiableUUID(bytes32)": [
        {
          "details": "The storage `slot` is unsupported as a UUID."
        }
      ]
    },
    "events": {
      "Initialized(uint64)": {
        "details": "Triggered when the contract has been initialized or reinitialized."
      },
      "Upgraded(address)": {
        "details": "Emitted when the implementation is upgraded."
      }
    },
    "kind": "dev",
    "methods": {
      "owner()": {
        "details": "Returns the address of the current owner."
      },
      "proxiableUUID()": {
        "details": "Implementation of the ERC1822 {proxiableUUID} function. This returns the storage slot used by the implementation. It is used to validate the implementation's compatibility when performing an upgrade. IMPORTANT: A proxy pointing at a proxiable contract should not be considered proxiable itself, because this risks bricking a proxy that upgrades to it, by delegating to itself until out of gas. Thus it is critical that this function revert if invoked through a proxy. This is guaranteed by the `notDelegated` modifier."
      },
      "renounceOwnership()": {
        "details": "Leaves the contract without owner. It will not be possible to call `onlyOwner` functions. Can only be called by the current owner. NOTE: Renouncing ownership will leave the contract without an owner, thereby disabling any functionality that is only available to the owner."
      },
      "transferOwnership(address)": {
        "details": "Transfers ownership of the contract to a new account (`newOwner`). Can only be called by the current owner."
      },
      "upgradeToAndCall(address,bytes)": {
        "custom:oz-upgrades-unsafe-allow-reachable": "delegatecall",
        "details": "Upgrade the implementation of the proxy to `newImplementation`, and subsequently execute the function call encoded in `data`. Calls {_authorizeUpgrade}. Emits an {Upgraded} event."
      }
    },
    "version": 1
  },
  "userdoc": {
    "kind": "user",
    "methods": {},
    "version": 1
  },
  "storageLayout": {
    "storage": [
      {
        "astId": 8946,
        "contract": "contracts/FlashLoan.sol:FlashLoan",
        "label": "adminContract",
        "offset": 0,
        "slot": "0",
        "type": "t_address"
      },
      {
        "astId": 8948,
        "contract": "contracts/FlashLoan.sol:FlashLoan",
        "label": "borrowerOperations",
        "offset": 0,
        "slot": "1",
        "type": "t_address"
      },
      {
        "astId": 8950,
        "contract": "contracts/FlashLoan.sol:FlashLoan",
        "label": "communityIssuance",
        "offset": 0,
        "slot": "2",
        "type": "t_address"
      },
      {
        "astId": 8952,
        "contract": "contracts/FlashLoan.sol:FlashLoan",
        "label": "debtToken",
        "offset": 0,
        "slot": "3",
        "type": "t_address"
      },
      {
        "astId": 8954,
        "contract": "contracts/FlashLoan.sol:FlashLoan",
        "label": "feeCollector",
        "offset": 0,
        "slot": "4",
        "type": "t_address"
      },
      {
        "astId": 8956,
        "contract": "contracts/FlashLoan.sol:FlashLoan",
        "label": "flashLoanAddress",
        "offset": 0,
        "slot": "5",
        "type": "t_address"
      },
      {
        "astId": 8958,
        "contract": "contracts/FlashLoan.sol:FlashLoan",
        "label": "trenStaking",
        "offset": 0,
        "slot": "6",
        "type": "t_address"
      },
      {
        "astId": 8960,
        "contract": "contracts/FlashLoan.sol:FlashLoan",
        "label": "priceFeed",
        "offset": 0,
        "slot": "7",
        "type": "t_address"
      },
      {
        "astId": 8962,
        "contract": "contracts/FlashLoan.sol:FlashLoan",
        "label": "sortedTrenBoxes",
        "offset": 0,
        "slot": "8",
        "type": "t_address"
      },
      {
        "astId": 8964,
        "contract": "contracts/FlashLoan.sol:FlashLoan",
        "label": "stabilityPool",
        "offset": 0,
        "slot": "9",
        "type": "t_address"
      },
      {
        "astId": 8966,
        "contract": "contracts/FlashLoan.sol:FlashLoan",
        "label": "timelockAddress",
        "offset": 0,
        "slot": "10",
        "type": "t_address"
      },
      {
        "astId": 8968,
        "contract": "contracts/FlashLoan.sol:FlashLoan",
        "label": "treasuryAddress",
        "offset": 0,
        "slot": "11",
        "type": "t_address"
      },
      {
        "astId": 8970,
        "contract": "contracts/FlashLoan.sol:FlashLoan",
        "label": "trenBoxManager",
        "offset": 0,
        "slot": "12",
        "type": "t_address"
      },
      {
        "astId": 8972,
        "contract": "contracts/FlashLoan.sol:FlashLoan",
        "label": "trenBoxManagerOperations",
        "offset": 0,
        "slot": "13",
        "type": "t_address"
      },
      {
        "astId": 8974,
        "contract": "contracts/FlashLoan.sol:FlashLoan",
        "label": "trenBoxStorage",
        "offset": 0,
        "slot": "14",
        "type": "t_address"
      },
      {
        "astId": 8976,
        "contract": "contracts/FlashLoan.sol:FlashLoan",
        "label": "isAddressSetupInitialized",
        "offset": 20,
        "slot": "14",
        "type": "t_bool"
      },
      {
        "astId": 8981,
        "contract": "contracts/FlashLoan.sol:FlashLoan",
        "label": "__gap",
        "offset": 0,
        "slot": "15",
        "type": "t_array(t_uint256)33_storage"
      },
      {
        "astId": 10882,
        "contract": "contracts/FlashLoan.sol:FlashLoan",
        "label": "swapRouter",
        "offset": 0,
        "slot": "48",
        "type": "t_contract(IUniswapRouterV3)13988"
      },
      {
        "astId": 10884,
        "contract": "contracts/FlashLoan.sol:FlashLoan",
        "label": "stableCoin",
        "offset": 0,
        "slot": "49",
        "type": "t_address"
      },
      {
        "astId": 10886,
        "contract": "contracts/FlashLoan.sol:FlashLoan",
        "label": "isSetupInitialized",
        "offset": 20,
        "slot": "49",
        "type": "t_bool"
      }
    ],
    "types": {
      "t_address": {
        "encoding": "inplace",
        "label": "address",
        "numberOfBytes": "20"
      },
      "t_array(t_uint256)33_storage": {
        "base": "t_uint256",
        "encoding": "inplace",
        "label": "uint256[33]",
        "numberOfBytes": "1056"
      },
      "t_bool": {
        "encoding": "inplace",
        "label": "bool",
        "numberOfBytes": "1"
      },
      "t_contract(IUniswapRouterV3)13988": {
        "encoding": "inplace",
        "label": "contract IUniswapRouterV3",
        "numberOfBytes": "20"
      },
      "t_uint256": {
        "encoding": "inplace",
        "label": "uint256",
        "numberOfBytes": "32"
      }
    }
  }
}