{
  "address": "0xb1EE37c9311BE8a3E63a2c1ae4cC37f7CA1482e8",
  "abi": [
    {
      "inputs": [
        {
          "internalType": "address",
          "name": "target",
          "type": "address"
        }
      ],
      "name": "AddressEmptyCode",
      "type": "error"
    },
    {
      "inputs": [
        {
          "internalType": "address",
          "name": "account",
          "type": "address"
        }
      ],
      "name": "AddressInsufficientBalance",
      "type": "error"
    },
    {
      "inputs": [],
      "name": "ConfigurableAddresses__CommunityIssuanceZeroAddress",
      "type": "error"
    },
    {
      "inputs": [],
      "name": "ConfigurableAddresses__LengthMismatch",
      "type": "error"
    },
    {
      "inputs": [],
      "name": "ConfigurableAddresses__SetupIsInitialized",
      "type": "error"
    },
    {
      "inputs": [],
      "name": "ConfigurableAddresses__TRENStakingZeroAddress",
      "type": "error"
    },
    {
      "inputs": [
        {
          "internalType": "uint256",
          "name": "position",
          "type": "uint256"
        },
        {
          "internalType": "address",
          "name": "address_",
          "type": "address"
        }
      ],
      "name": "ConfigurableAddresses__ZeroAddresses",
      "type": "error"
    },
    {
      "inputs": [
        {
          "internalType": "address",
          "name": "implementation",
          "type": "address"
        }
      ],
      "name": "ERC1967InvalidImplementation",
      "type": "error"
    },
    {
      "inputs": [],
      "name": "ERC1967NonPayable",
      "type": "error"
    },
    {
      "inputs": [],
      "name": "EthUnsupportedError",
      "type": "error"
    },
    {
      "inputs": [],
      "name": "FailedInnerCall",
      "type": "error"
    },
    {
      "inputs": [],
      "name": "InvalidAmountError",
      "type": "error"
    },
    {
      "inputs": [],
      "name": "InvalidInitialization",
      "type": "error"
    },
    {
      "inputs": [],
      "name": "NotInitializing",
      "type": "error"
    },
    {
      "inputs": [
        {
          "internalType": "address",
          "name": "owner",
          "type": "address"
        }
      ],
      "name": "OwnableInvalidOwner",
      "type": "error"
    },
    {
      "inputs": [
        {
          "internalType": "address",
          "name": "account",
          "type": "address"
        }
      ],
      "name": "OwnableUnauthorizedAccount",
      "type": "error"
    },
    {
      "inputs": [],
      "name": "ReentrancyGuardReentrantCall",
      "type": "error"
    },
    {
      "inputs": [
        {
          "internalType": "address",
          "name": "token",
          "type": "address"
        }
      ],
      "name": "SafeERC20FailedOperation",
      "type": "error"
    },
    {
      "inputs": [],
      "name": "TrenBoxStorage__BorrowerOperationsOnly",
      "type": "error"
    },
    {
      "inputs": [],
      "name": "TrenBoxStorage__BorrowerOperationsOrTrenBoxManagerOnly",
      "type": "error"
    },
    {
      "inputs": [],
      "name": "TrenBoxStorage__NoClaimableCollateral",
      "type": "error"
    },
    {
      "inputs": [],
      "name": "TrenBoxStorage__NotAuthorizedContract",
      "type": "error"
    },
    {
      "inputs": [],
      "name": "TrenBoxStorage__TrenBoxManagerOnly",
      "type": "error"
    },
    {
      "inputs": [],
      "name": "TrenBoxStorage__TrenBoxManagerOperationsOnly",
      "type": "error"
    },
    {
      "inputs": [],
      "name": "UUPSUnauthorizedCallContext",
      "type": "error"
    },
    {
      "inputs": [
        {
          "internalType": "bytes32",
          "name": "slot",
          "type": "bytes32"
        }
      ],
      "name": "UUPSUnsupportedProxiableUUID",
      "type": "error"
    },
    {
      "anonymous": false,
      "inputs": [
        {
          "indexed": true,
          "internalType": "address",
          "name": "_collateral",
          "type": "address"
        },
        {
          "indexed": false,
          "internalType": "uint256",
          "name": "_newBalance",
          "type": "uint256"
        }
      ],
      "name": "ActiveCollateralBalanceUpdated",
      "type": "event"
    },
    {
      "anonymous": false,
      "inputs": [
        {
          "indexed": true,
          "internalType": "address",
          "name": "_collateral",
          "type": "address"
        },
        {
          "indexed": false,
          "internalType": "uint256",
          "name": "_newBalance",
          "type": "uint256"
        }
      ],
      "name": "ActiveDebtBalanceUpdated",
      "type": "event"
    },
    {
      "anonymous": false,
      "inputs": [
        {
          "indexed": true,
          "internalType": "address",
          "name": "_collateral",
          "type": "address"
        },
        {
          "indexed": false,
          "internalType": "uint256",
          "name": "_newBalance",
          "type": "uint256"
        }
      ],
      "name": "ClaimableCollateralBalanceUpdated",
      "type": "event"
    },
    {
      "anonymous": false,
      "inputs": [
        {
          "indexed": true,
          "internalType": "address",
          "name": "_to",
          "type": "address"
        },
        {
          "indexed": true,
          "internalType": "address",
          "name": "_collateral",
          "type": "address"
        },
        {
          "indexed": false,
          "internalType": "uint256",
          "name": "_amount",
          "type": "uint256"
        }
      ],
      "name": "CollateralSent",
      "type": "event"
    },
    {
      "anonymous": false,
      "inputs": [
        {
          "indexed": false,
          "internalType": "uint64",
          "name": "version",
          "type": "uint64"
        }
      ],
      "name": "Initialized",
      "type": "event"
    },
    {
      "anonymous": false,
      "inputs": [
        {
          "indexed": true,
          "internalType": "address",
          "name": "_collateral",
          "type": "address"
        },
        {
          "indexed": false,
          "internalType": "uint256",
          "name": "_newBalance",
          "type": "uint256"
        }
      ],
      "name": "LiquidatedCollateralBalanceUpdated",
      "type": "event"
    },
    {
      "anonymous": false,
      "inputs": [
        {
          "indexed": true,
          "internalType": "address",
          "name": "_collateral",
          "type": "address"
        },
        {
          "indexed": false,
          "internalType": "uint256",
          "name": "_newBalance",
          "type": "uint256"
        }
      ],
      "name": "LiquidatedDebtBalanceUpdated",
      "type": "event"
    },
    {
      "anonymous": false,
      "inputs": [
        {
          "indexed": true,
          "internalType": "address",
          "name": "previousOwner",
          "type": "address"
        },
        {
          "indexed": true,
          "internalType": "address",
          "name": "newOwner",
          "type": "address"
        }
      ],
      "name": "OwnershipTransferred",
      "type": "event"
    },
    {
      "anonymous": false,
      "inputs": [
        {
          "indexed": true,
          "internalType": "address",
          "name": "implementation",
          "type": "address"
        }
      ],
      "name": "Upgraded",
      "type": "event"
    },
    {
      "anonymous": false,
      "inputs": [
        {
          "indexed": true,
          "internalType": "address",
          "name": "_account",
          "type": "address"
        },
        {
          "indexed": true,
          "internalType": "address",
          "name": "_collateral",
          "type": "address"
        },
        {
          "indexed": false,
          "internalType": "uint256",
          "name": "_newBalance",
          "type": "uint256"
        }
      ],
      "name": "UserClaimableCollateralBalanceUpdated",
      "type": "event"
    },
    {
      "inputs": [],
      "name": "NAME",
      "outputs": [
        {
          "internalType": "string",
          "name": "",
          "type": "string"
        }
      ],
      "stateMutability": "view",
      "type": "function"
    },
    {
      "inputs": [],
      "name": "UPGRADE_INTERFACE_VERSION",
      "outputs": [
        {
          "internalType": "string",
          "name": "",
          "type": "string"
        }
      ],
      "stateMutability": "view",
      "type": "function"
    },
    {
      "inputs": [],
      "name": "adminContract",
      "outputs": [
        {
          "internalType": "address",
          "name": "",
          "type": "address"
        }
      ],
      "stateMutability": "view",
      "type": "function"
    },
    {
      "inputs": [
        {
          "internalType": "address",
          "name": "_newImplementation",
          "type": "address"
        }
      ],
      "name": "authorizeUpgrade",
      "outputs": [],
      "stateMutability": "nonpayable",
      "type": "function"
    },
    {
      "inputs": [],
      "name": "borrowerOperations",
      "outputs": [
        {
          "internalType": "address",
          "name": "",
          "type": "address"
        }
      ],
      "stateMutability": "view",
      "type": "function"
    },
    {
      "inputs": [
        {
          "internalType": "address",
          "name": "_collateral",
          "type": "address"
        },
        {
          "internalType": "address",
          "name": "_account",
          "type": "address"
        }
      ],
      "name": "claimCollateral",
      "outputs": [],
      "stateMutability": "nonpayable",
      "type": "function"
    },
    {
      "inputs": [],
      "name": "communityIssuance",
      "outputs": [
        {
          "internalType": "address",
          "name": "",
          "type": "address"
        }
      ],
      "stateMutability": "view",
      "type": "function"
    },
    {
      "inputs": [],
      "name": "debtToken",
      "outputs": [
        {
          "internalType": "address",
          "name": "",
          "type": "address"
        }
      ],
      "stateMutability": "view",
      "type": "function"
    },
    {
      "inputs": [
        {
          "internalType": "address",
          "name": "_collateral",
          "type": "address"
        },
        {
          "internalType": "uint256",
          "name": "_debtAmount",
          "type": "uint256"
        },
        {
          "internalType": "uint256",
          "name": "_collAmount",
          "type": "uint256"
        }
      ],
      "name": "decreaseActiveBalancesAfterRedemption",
      "outputs": [],
      "stateMutability": "nonpayable",
      "type": "function"
    },
    {
      "inputs": [
        {
          "internalType": "address",
          "name": "_collateral",
          "type": "address"
        },
        {
          "internalType": "uint256",
          "name": "_amount",
          "type": "uint256"
        }
      ],
      "name": "decreaseActiveCollateral",
      "outputs": [],
      "stateMutability": "nonpayable",
      "type": "function"
    },
    {
      "inputs": [
        {
          "internalType": "address",
          "name": "_collateral",
          "type": "address"
        },
        {
          "internalType": "uint256",
          "name": "_amount",
          "type": "uint256"
        }
      ],
      "name": "decreaseActiveDebt",
      "outputs": [],
      "stateMutability": "nonpayable",
      "type": "function"
    },
    {
      "inputs": [],
      "name": "feeCollector",
      "outputs": [
        {
          "internalType": "address",
          "name": "",
          "type": "address"
        }
      ],
      "stateMutability": "view",
      "type": "function"
    },
    {
      "inputs": [],
      "name": "flashLoanAddress",
      "outputs": [
        {
          "internalType": "address",
          "name": "",
          "type": "address"
        }
      ],
      "stateMutability": "view",
      "type": "function"
    },
    {
      "inputs": [
        {
          "internalType": "address",
          "name": "_collateral",
          "type": "address"
        }
      ],
      "name": "getActiveCollateralBalance",
      "outputs": [
        {
          "internalType": "uint256",
          "name": "",
          "type": "uint256"
        }
      ],
      "stateMutability": "view",
      "type": "function"
    },
    {
      "inputs": [
        {
          "internalType": "address",
          "name": "_collateral",
          "type": "address"
        }
      ],
      "name": "getActiveDebtBalance",
      "outputs": [
        {
          "internalType": "uint256",
          "name": "",
          "type": "uint256"
        }
      ],
      "stateMutability": "view",
      "type": "function"
    },
    {
      "inputs": [
        {
          "internalType": "address",
          "name": "_collateral",
          "type": "address"
        }
      ],
      "name": "getClaimableCollateralBalance",
      "outputs": [
        {
          "internalType": "uint256",
          "name": "",
          "type": "uint256"
        }
      ],
      "stateMutability": "view",
      "type": "function"
    },
    {
      "inputs": [
        {
          "internalType": "address",
          "name": "_collateral",
          "type": "address"
        }
      ],
      "name": "getLiquidatedCollateralBalance",
      "outputs": [
        {
          "internalType": "uint256",
          "name": "",
          "type": "uint256"
        }
      ],
      "stateMutability": "view",
      "type": "function"
    },
    {
      "inputs": [
        {
          "internalType": "address",
          "name": "_collateral",
          "type": "address"
        }
      ],
      "name": "getLiquidatedDebtBalance",
      "outputs": [
        {
          "internalType": "uint256",
          "name": "",
          "type": "uint256"
        }
      ],
      "stateMutability": "view",
      "type": "function"
    },
    {
      "inputs": [
        {
          "internalType": "address",
          "name": "_collateral",
          "type": "address"
        }
      ],
      "name": "getTotalCollateralBalance",
      "outputs": [
        {
          "internalType": "uint256",
          "name": "",
          "type": "uint256"
        }
      ],
      "stateMutability": "view",
      "type": "function"
    },
    {
      "inputs": [
        {
          "internalType": "address",
          "name": "_collateral",
          "type": "address"
        }
      ],
      "name": "getTotalDebtBalance",
      "outputs": [
        {
          "internalType": "uint256",
          "name": "",
          "type": "uint256"
        }
      ],
      "stateMutability": "view",
      "type": "function"
    },
    {
      "inputs": [
        {
          "internalType": "address",
          "name": "_collateral",
          "type": "address"
        },
        {
          "internalType": "address",
          "name": "_account",
          "type": "address"
        }
      ],
      "name": "getUserClaimableCollateralBalance",
      "outputs": [
        {
          "internalType": "uint256",
          "name": "",
          "type": "uint256"
        }
      ],
      "stateMutability": "view",
      "type": "function"
    },
    {
      "inputs": [
        {
          "internalType": "address",
          "name": "_collateral",
          "type": "address"
        },
        {
          "internalType": "uint256",
          "name": "_amount",
          "type": "uint256"
        }
      ],
      "name": "increaseActiveCollateral",
      "outputs": [],
      "stateMutability": "nonpayable",
      "type": "function"
    },
    {
      "inputs": [
        {
          "internalType": "address",
          "name": "_collateral",
          "type": "address"
        },
        {
          "internalType": "uint256",
          "name": "_amount",
          "type": "uint256"
        }
      ],
      "name": "increaseActiveDebt",
      "outputs": [],
      "stateMutability": "nonpayable",
      "type": "function"
    },
    {
      "inputs": [
        {
          "internalType": "address",
          "name": "_collateral",
          "type": "address"
        },
        {
          "internalType": "uint256",
          "name": "_amount",
          "type": "uint256"
        }
      ],
      "name": "increaseClaimableCollateral",
      "outputs": [],
      "stateMutability": "nonpayable",
      "type": "function"
    },
    {
      "inputs": [
        {
          "internalType": "address",
          "name": "initialOwner",
          "type": "address"
        }
      ],
      "name": "initialize",
      "outputs": [],
      "stateMutability": "nonpayable",
      "type": "function"
    },
    {
      "inputs": [],
      "name": "isAddressSetupInitialized",
      "outputs": [
        {
          "internalType": "bool",
          "name": "",
          "type": "bool"
        }
      ],
      "stateMutability": "view",
      "type": "function"
    },
    {
      "inputs": [],
      "name": "owner",
      "outputs": [
        {
          "internalType": "address",
          "name": "",
          "type": "address"
        }
      ],
      "stateMutability": "view",
      "type": "function"
    },
    {
      "inputs": [],
      "name": "priceFeed",
      "outputs": [
        {
          "internalType": "address",
          "name": "",
          "type": "address"
        }
      ],
      "stateMutability": "view",
      "type": "function"
    },
    {
      "inputs": [],
      "name": "proxiableUUID",
      "outputs": [
        {
          "internalType": "bytes32",
          "name": "",
          "type": "bytes32"
        }
      ],
      "stateMutability": "view",
      "type": "function"
    },
    {
      "inputs": [],
      "name": "renounceOwnership",
      "outputs": [],
      "stateMutability": "nonpayable",
      "type": "function"
    },
    {
      "inputs": [
        {
          "internalType": "address",
          "name": "_collateral",
          "type": "address"
        },
        {
          "internalType": "address",
          "name": "_account",
          "type": "address"
        },
        {
          "internalType": "uint256",
          "name": "_amount",
          "type": "uint256"
        }
      ],
      "name": "sendCollateral",
      "outputs": [],
      "stateMutability": "nonpayable",
      "type": "function"
    },
    {
      "inputs": [
        {
          "internalType": "address[]",
          "name": "_addresses",
          "type": "address[]"
        }
      ],
      "name": "setAddresses",
      "outputs": [],
      "stateMutability": "nonpayable",
      "type": "function"
    },
    {
      "inputs": [
        {
          "internalType": "address",
          "name": "_communityIssuance",
          "type": "address"
        }
      ],
      "name": "setCommunityIssuance",
      "outputs": [],
      "stateMutability": "nonpayable",
      "type": "function"
    },
    {
      "inputs": [
        {
          "internalType": "address",
          "name": "_trenStaking",
          "type": "address"
        }
      ],
      "name": "setTRENStaking",
      "outputs": [],
      "stateMutability": "nonpayable",
      "type": "function"
    },
    {
      "inputs": [],
      "name": "sortedTrenBoxes",
      "outputs": [
        {
          "internalType": "address",
          "name": "",
          "type": "address"
        }
      ],
      "stateMutability": "view",
      "type": "function"
    },
    {
      "inputs": [],
      "name": "stabilityPool",
      "outputs": [
        {
          "internalType": "address",
          "name": "",
          "type": "address"
        }
      ],
      "stateMutability": "view",
      "type": "function"
    },
    {
      "inputs": [],
      "name": "timelockAddress",
      "outputs": [
        {
          "internalType": "address",
          "name": "",
          "type": "address"
        }
      ],
      "stateMutability": "view",
      "type": "function"
    },
    {
      "inputs": [
        {
          "internalType": "address",
          "name": "newOwner",
          "type": "address"
        }
      ],
      "name": "transferOwnership",
      "outputs": [],
      "stateMutability": "nonpayable",
      "type": "function"
    },
    {
      "inputs": [],
      "name": "treasuryAddress",
      "outputs": [
        {
          "internalType": "address",
          "name": "",
          "type": "address"
        }
      ],
      "stateMutability": "view",
      "type": "function"
    },
    {
      "inputs": [],
      "name": "trenBoxManager",
      "outputs": [
        {
          "internalType": "address",
          "name": "",
          "type": "address"
        }
      ],
      "stateMutability": "view",
      "type": "function"
    },
    {
      "inputs": [],
      "name": "trenBoxManagerOperations",
      "outputs": [
        {
          "internalType": "address",
          "name": "",
          "type": "address"
        }
      ],
      "stateMutability": "view",
      "type": "function"
    },
    {
      "inputs": [],
      "name": "trenBoxStorage",
      "outputs": [
        {
          "internalType": "address",
          "name": "",
          "type": "address"
        }
      ],
      "stateMutability": "view",
      "type": "function"
    },
    {
      "inputs": [],
      "name": "trenStaking",
      "outputs": [
        {
          "internalType": "address",
          "name": "",
          "type": "address"
        }
      ],
      "stateMutability": "view",
      "type": "function"
    },
    {
      "inputs": [
        {
          "internalType": "address",
          "name": "_collateral",
          "type": "address"
        },
        {
          "internalType": "uint256",
          "name": "_debtAmount",
          "type": "uint256"
        },
        {
          "internalType": "uint256",
          "name": "_collAmount",
          "type": "uint256"
        },
        {
          "internalType": "bool",
          "name": "_isActiveIncrease",
          "type": "bool"
        }
      ],
      "name": "updateDebtAndCollateralBalances",
      "outputs": [],
      "stateMutability": "nonpayable",
      "type": "function"
    },
    {
      "inputs": [
        {
          "internalType": "address",
          "name": "_collateral",
          "type": "address"
        },
        {
          "internalType": "address",
          "name": "_account",
          "type": "address"
        },
        {
          "internalType": "uint256",
          "name": "_amount",
          "type": "uint256"
        }
      ],
      "name": "updateUserAndEntireClaimableBalance",
      "outputs": [],
      "stateMutability": "nonpayable",
      "type": "function"
    },
    {
      "inputs": [
        {
          "internalType": "address",
          "name": "_collateral",
          "type": "address"
        },
        {
          "internalType": "address",
          "name": "_account",
          "type": "address"
        },
        {
          "internalType": "uint256",
          "name": "_amount",
          "type": "uint256"
        }
      ],
      "name": "updateUserClaimableBalance",
      "outputs": [],
      "stateMutability": "nonpayable",
      "type": "function"
    },
    {
      "inputs": [
        {
          "internalType": "address",
          "name": "newImplementation",
          "type": "address"
        },
        {
          "internalType": "bytes",
          "name": "data",
          "type": "bytes"
        }
      ],
      "name": "upgradeToAndCall",
      "outputs": [],
      "stateMutability": "payable",
      "type": "function"
    }
  ],
  "transactionHash": "0xa1d8750b7470a86ece2ed3695923ad708e31444689f51cc32d0c07cd526709de",
  "args": [],
  "numDeployments": 1,
  "solcInputHash": "10f736271acd8614150314323b008696",
  "bytecode": "0x60a06040523060805234801561001457600080fd5b506080516126ef61003e600039600081816118360152818161185f01526119a001526126ef6000f3fe6080604052600436106102885760003560e01c8063a0a349561161015a578063c7310f1a116100c1578063f1c05a7e1161007a578063f1c05a7e14610894578063f2fde38b146108b4578063f6b128ec146108d4578063f8d89898146108f4578063f91dff7214610914578063fe0607331461095b57600080fd5b8063c7310f1a146107ad578063c8564c62146107cd578063cc8b21e4146107fe578063ce307ca61461081e578063d80362041461083e578063f0690b291461085e57600080fd5b8063b429464111610113578063b4294641146106ed578063b95717211461070d578063c05c5e941461072d578063c415b95c1461074d578063c4d66de81461076d578063c5f956af1461078d57600080fd5b8063a0a34956146105f5578063a3f4df7e14610615578063a47055e71461065c578063ad3cb1cc1461067c578063b08a613e146106ad578063b1113882146106cd57600080fd5b806355dafa46116101fe578063715aa61b116101b7578063715aa61b1461051857806372caf7a814610538578063741bef1a1461055857806377553ad4146105785780638da5cb5b1461059857806395fb16bb146105d557600080fd5b806355dafa46146104315780635728ddda146104515780636592aa7a146104715780636789ec9a146104aa5780636a85d67d146104e3578063715018a61461050357600080fd5b806340ea8dea1161025057806340ea8dea1461034c5780634169467d146103935780634bc66f32146103b35780634f1ef286146103d357806351722f7b146103e657806352d1902d1461041c57600080fd5b806301c931001461028d578063048c661d146102af5780630a34d4d6146102ec578063181a023b1461030c5780633f84a44d1461032c575b600080fd5b34801561029957600080fd5b506102ad6102a83660046121b9565b61097b565b005b3480156102bb57600080fd5b506009546102cf906001600160a01b031681565b6040516001600160a01b0390911681526020015b60405180910390f35b3480156102f857600080fd5b50600d546102cf906001600160a01b031681565b34801561031857600080fd5b506102ad6103273660046121d4565b6109cc565b34801561033857600080fd5b50600e546102cf906001600160a01b031681565b34801561035857600080fd5b506103856103673660046121b9565b6001600160a01b031660009081526030602052604090206001015490565b6040519081526020016102e3565b34801561039f57600080fd5b506005546102cf906001600160a01b031681565b3480156103bf57600080fd5b50600a546102cf906001600160a01b031681565b6102ad6103e1366004612214565b610a07565b3480156103f257600080fd5b506103856104013660046121b9565b6001600160a01b031660009081526031602052604090205490565b34801561042857600080fd5b50610385610a22565b34801561043d57600080fd5b506006546102cf906001600160a01b031681565b34801561045d57600080fd5b506102ad61046c3660046122d6565b610a3f565b34801561047d57600080fd5b5061038561048c3660046121b9565b6001600160a01b031660009081526030602052604090206002015490565b3480156104b657600080fd5b506103856104c53660046121b9565b6001600160a01b031660009081526031602052604090206001015490565b3480156104ef57600080fd5b506102ad6104fe3660046121b9565b610b38565b34801561050f57600080fd5b506102ad610b89565b34801561052457600080fd5b506102ad610533366004612309565b610b9d565b34801561054457600080fd5b506102ad6105533660046121d4565b610d31565b34801561056457600080fd5b506007546102cf906001600160a01b031681565b34801561058457600080fd5b506001546102cf906001600160a01b031681565b3480156105a457600080fd5b507f9016d09d72d40fdae2fd8ceac6b6234c7706214fd39c1cd1e609a0528c199300546001600160a01b03166102cf565b3480156105e157600080fd5b506002546102cf906001600160a01b031681565b34801561060157600080fd5b506102ad610610366004612345565b610d68565b34801561062157600080fd5b5061064f6040518060400160405280600e81526020016d5472656e426f7853746f7261676560901b81525081565b6040516102e3919061239c565b34801561066857600080fd5b506102ad6106773660046121d4565b610dab565b34801561068857600080fd5b5061064f604051806040016040528060058152602001640352e302e360dc1b81525081565b3480156106b957600080fd5b506103856106c83660046121b9565b610e12565b3480156106d957600080fd5b506102ad6106e83660046121d4565b610e41565b3480156106f957600080fd5b506103856107083660046121b9565b610e78565b34801561071957600080fd5b506102ad6107283660046123cf565b610ea1565b34801561073957600080fd5b506000546102cf906001600160a01b031681565b34801561075957600080fd5b506004546102cf906001600160a01b031681565b34801561077957600080fd5b506102ad6107883660046121b9565b61134a565b34801561079957600080fd5b50600b546102cf906001600160a01b031681565b3480156107b957600080fd5b506102ad6107c8366004612452565b61146a565b3480156107d957600080fd5b50600e546107ee90600160a01b900460ff1681565b60405190151581526020016102e3565b34801561080a57600080fd5b506008546102cf906001600160a01b031681565b34801561082a57600080fd5b506102ad6108393660046121d4565b611630565b34801561084a57600080fd5b506102ad610859366004612309565b611667565b34801561086a57600080fd5b506103856108793660046121b9565b6001600160a01b031660009081526030602052604090205490565b3480156108a057600080fd5b50600c546102cf906001600160a01b031681565b3480156108c057600080fd5b506102ad6108cf3660046121b9565b61169d565b3480156108e057600080fd5b506102ad6108ef366004612309565b6116db565b34801561090057600080fd5b506003546102cf906001600160a01b031681565b34801561092057600080fd5b5061038561092f3660046122d6565b6001600160a01b0380821660009081526032602090815260408083209386168352929052205492915050565b34801561096757600080fd5b506102ad6109763660046121b9565b611712565b61098361171b565b6001600160a01b0381166109aa576040516385d3330760e01b815260040160405180910390fd5b600680546001600160a01b0319166001600160a01b0392909216919091179055565b600d546001600160a01b031633146109f75760405163191c47c560e31b815260040160405180910390fd5b610a0382826000611776565b5050565b610a0f61182b565b610a18826118d0565b610a0382826118d8565b6000610a2c611995565b506000805160206126c383398151915290565b6001546001600160a01b03163314610a6a5760405163722c395560e11b815260040160405180910390fd5b6001600160a01b03808216600090815260326020908152604080832093861683529083905281205490610a9d85836119de565b905080600003610ac057604051632a1db15b60e11b815260040160405180910390fd5b6001600160a01b038581166000818152602086815260408083208390555191825291928716917fa6453751e8d23eb578604a3bd6b2d4a2b4fdcb738fa16dfa462085ce4232960f910160405180910390a3610b1d85836000611b16565b610b316001600160a01b0386168583611bc6565b5050505050565b610b4061171b565b6001600160a01b038116610b675760405163706ebc6560e11b815260040160405180910390fd5b600280546001600160a01b0319166001600160a01b0392909216919091179055565b610b9161171b565b610b9b6000611c18565b565b610ba5611c89565b6001546001600160a01b03163314801590610bcb57506009546001600160a01b03163314155b8015610be25750600c546001600160a01b03163314155b15610c005760405163a59d25af60e01b815260040160405180910390fd5b6000610c0c84836119de565b905080600003610c1c5750610d03565b610c2884836000611776565b610c3c6001600160a01b0385168483611bc6565b6009546001600160a01b03848116911603610cb457604051633ac5bc0160e21b81526001600160a01b0385811660048301526024820184905284169063eb16f00490604401600060405180830381600087803b158015610c9b57600080fd5b505af1158015610caf573d6000803e3d6000fd5b505050505b836001600160a01b0316836001600160a01b03167fe664153eb516123e000bb334869ec912418f6fe4c1abb53fe2f848c947a8405d83604051610cf991815260200190565b60405180910390a3505b610d2c60017f9b779b17422d0df92223018b32b4d1fa46e071723d6817e2486d003becc55f0055565b505050565b6001546001600160a01b03163314610d5c5760405163722c395560e11b815260040160405180910390fd5b610a0382826001611cf9565b600c546001600160a01b03163314610d9357604051630294661b60e61b815260040160405180910390fd5b610d9f83836000611cf9565b610d2c83826000611776565b6001546001600160a01b03163314801590610dd157506009546001600160a01b03163314155b8015610de85750600c546001600160a01b03163314155b15610e065760405163a59d25af60e01b815260040160405180910390fd5b610a0382826000611cf9565b6001600160a01b038116600090815260306020526040812060018101549054610e3b91906124b0565b92915050565b6001546001600160a01b03163314610e6c5760405163722c395560e11b815260040160405180910390fd5b610a0382826001611776565b6001600160a01b038116600090815260316020526040812060018101549054610e3b91906124b0565b610ea961171b565b600e54600160a01b900460ff1615610ed357604051625f22e960e41b815260040160405180910390fd5b600d8114610ef457604051633f5a111d60e21b815260040160405180910390fd5b60005b600d811015610f97576000838383818110610f1457610f146124c3565b9050602002016020810190610f2991906121b9565b6001600160a01b031603610f8f5780838383818110610f4a57610f4a6124c3565b9050602002016020810190610f5f91906121b9565b604051630d9d339f60e01b815260048101929092526001600160a01b031660248201526044015b60405180910390fd5b600101610ef7565b5081816000818110610fab57610fab6124c3565b9050602002016020810190610fc091906121b9565b600080546001600160a01b0319166001600160a01b039290921691909117905581816001818110610ff357610ff36124c3565b905060200201602081019061100891906121b9565b600180546001600160a01b0319166001600160a01b03929092169190911790558181600281811061103b5761103b6124c3565b905060200201602081019061105091906121b9565b600380546001600160a01b0319166001600160a01b039290921691909117815582908290818110611083576110836124c3565b905060200201602081019061109891906121b9565b600480546001600160a01b0319166001600160a01b0392909216919091178155829082908181106110cb576110cb6124c3565b90506020020160208101906110e091906121b9565b600580546001600160a01b0319166001600160a01b039290921691909117815582908290818110611113576111136124c3565b905060200201602081019061112891906121b9565b600780546001600160a01b0319166001600160a01b03929092169190911790558181600681811061115b5761115b6124c3565b905060200201602081019061117091906121b9565b600880546001600160a01b0319166001600160a01b0392909216919091179055818160078181106111a3576111a36124c3565b90506020020160208101906111b891906121b9565b600980546001600160a01b0319166001600160a01b0392909216919091179055818160088181106111eb576111eb6124c3565b905060200201602081019061120091906121b9565b600a80546001600160a01b0319166001600160a01b039290921691909117905581816009818110611233576112336124c3565b905060200201602081019061124891906121b9565b600b80546001600160a01b0319166001600160a01b03929092169190911790558181600a81811061127b5761127b6124c3565b905060200201602081019061129091906121b9565b600c80546001600160a01b0319166001600160a01b03929092169190911790558181600b8181106112c3576112c36124c3565b90506020020160208101906112d891906121b9565b600d80546001600160a01b0319166001600160a01b03929092169190911790558181600c81811061130b5761130b6124c3565b905060200201602081019061132091906121b9565b600e80546001600160a81b0319166001600160a01b039290921691909117600160a01b1790555050565b7ff0c57e16840df040f15088dc2f81fe391c3923bec73e23a9662efc9c229c6a008054600160401b810460ff16159067ffffffffffffffff166000811580156113905750825b905060008267ffffffffffffffff1660011480156113ad5750303b155b9050811580156113bb575080155b156113d95760405163f92ee8a960e01b815260040160405180910390fd5b845467ffffffffffffffff19166001178555831561140357845460ff60401b1916600160401b1785555b61140c86611da0565b611414611db1565b61141c611dc1565b831561146257845460ff60401b19168555604051600181527fc7f505b2f371ae2175ee4913f4499e1f2633a7b5936321eed1cdaeb6115181d29060200160405180910390a15b505050505050565b600c546001600160a01b0316331461149557604051630294661b60e61b815260040160405180910390fd5b600080821561150d576114aa86866001611cf9565b6001600160a01b0386166000908152603160205260409020600101546114d19086906124d9565b91506114df86856001611776565b6001600160a01b0386166000908152603060205260409020600101546115069085906124d9565b9050611578565b61151986866000611cf9565b6001600160a01b0386166000908152603160205260409020600101546115409086906124b0565b915061154e86856000611776565b6001600160a01b0386166000908152603060205260409020600101546115759085906124b0565b90505b6001600160a01b03861660008181526031602052604090819020600101849055517f3f1e46f4054899e979b9337ce8efa0ceb3be5aad7e82d472fdbf9f9709728fa0906115c89085815260200190565b60405180910390a26001600160a01b03861660008181526030602052604090819020600101839055517ff4cf0c4148db272742be0726f71685ac1a586f91c5f32f6c5cda10eeccd16af5906116209084815260200190565b60405180910390a2505050505050565b600d546001600160a01b0316331461165b5760405163191c47c560e31b815260040160405180910390fd5b610a0382826001611b16565b600d546001600160a01b031633146116925760405163191c47c560e31b815260040160405180910390fd5b610d2c838383611dc9565b6116a561171b565b6001600160a01b0381166116cf57604051631e4fbdf760e01b815260006004820152602401610f86565b6116d881611c18565b50565b600c546001600160a01b0316331461170657604051630294661b60e61b815260040160405180910390fd5b61169283826001611b16565b6116d8816118d0565b3361174d7f9016d09d72d40fdae2fd8ceac6b6234c7706214fd39c1cd1e609a0528c199300546001600160a01b031690565b6001600160a01b031614610b9b5760405163118cdaa760e01b8152336004820152602401610f86565b600081156117a9576001600160a01b0384166000908152603060205260409020546117a29084906124b0565b90506117d0565b6001600160a01b0384166000908152603060205260409020546117cd9084906124d9565b90505b6001600160a01b03841660008181526030602052604090819020839055517fc390e3f2bc31f51fdc4bd3047286a04a1c1599a680905f1bfa2be1aad419cd0b9061181d9084815260200190565b60405180910390a250505050565b306001600160a01b037f00000000000000000000000000000000000000000000000000000000000000001614806118b257507f00000000000000000000000000000000000000000000000000000000000000006001600160a01b03166118a66000805160206126c3833981519152546001600160a01b031690565b6001600160a01b031614155b15610b9b5760405163703e46dd60e11b815260040160405180910390fd5b6116d861171b565b816001600160a01b03166352d1902d6040518163ffffffff1660e01b8152600401602060405180830381865afa925050508015611932575060408051601f3d908101601f1916820190925261192f918101906124ec565b60015b61195a57604051634c9c8ce360e01b81526001600160a01b0383166004820152602401610f86565b6000805160206126c3833981519152811461198b57604051632a87526960e21b815260048101829052602401610f86565b610d2c8383611e5a565b306001600160a01b037f00000000000000000000000000000000000000000000000000000000000000001614610b9b5760405163703e46dd60e11b815260040160405180910390fd5b60006001600160a01b038316611a0757604051631dcb38eb60e11b815260040160405180910390fd5b81600003611a1757506000610e3b565b6000836001600160a01b031663313ce5676040518163ffffffff1660e01b8152600401602060405180830381865afa158015611a57573d6000803e3d6000fd5b505050506040513d601f19601f82011682018060405250810190611a7b9190612505565b905060128160ff161015611ade576000611a96826012612528565b611aa190600a612625565b9050611aad818561264a565b15611acb57604051630f51ac8560e31b815260040160405180910390fd5b611ad5818561265e565b92505050610e3b565b60128160ff161115611b0e576000611af7601283612528565b611b0290600a612625565b9050611ad58185612672565b509092915050565b60008115611b4c576001600160a01b038416600090815260306020526040902060020154611b459084906124b0565b9050611b76565b6001600160a01b038416600090815260306020526040902060020154611b739084906124d9565b90505b6001600160a01b03841660008181526030602052604090819020600201839055517f8d604eda868a7b9c2f2273874a8e2a1d0c8bc43e8785b85d31d4dd0d4f338cb99061181d9084815260200190565b604080516001600160a01b038416602482015260448082018490528251808303909101815260649091019091526020810180516001600160e01b031663a9059cbb60e01b179052610d2c908490611eb0565b7f9016d09d72d40fdae2fd8ceac6b6234c7706214fd39c1cd1e609a0528c19930080546001600160a01b031981166001600160a01b03848116918217845560405192169182907f8be0079c531659141344cd1fd0a4f28419497f9722a3daafe3b4186f6b6457e090600090a3505050565b7f9b779b17422d0df92223018b32b4d1fa46e071723d6817e2486d003becc55f00805460011901611ccd57604051633ee5aeb560e01b815260040160405180910390fd5b60029055565b60017f9b779b17422d0df92223018b32b4d1fa46e071723d6817e2486d003becc55f0055565b60008115611d2c576001600160a01b038416600090815260316020526040902054611d259084906124b0565b9050611d53565b6001600160a01b038416600090815260316020526040902054611d509084906124d9565b90505b6001600160a01b03841660008181526031602052604090819020839055517f55aa865d22662754b07f0f094fb36e367aa1154f9c1bea09328be565209900619061181d9084815260200190565b611da8611f13565b6116d881611f5c565b611db9611f13565b610b9b611f64565b610b9b611f13565b6001600160a01b038083166000908152603260209081526040808320938716835290839052812054611dfc9084906124b0565b6001600160a01b038681166000818152602086815260409182902085905590518481529394509092918716917fa6453751e8d23eb578604a3bd6b2d4a2b4fdcb738fa16dfa462085ce4232960f910160405180910390a35050505050565b611e6382611f6c565b6040516001600160a01b038316907fbc7cd75a20ee27fd9adebab32041f755214dbc6bffa90cc0225b39da2e5c2d3b90600090a2805115611ea857610d2c8282611fd1565b610a03612047565b6000611ec56001600160a01b03841683612066565b90508051600014158015611eea575080806020019051810190611ee89190612689565b155b15610d2c57604051635274afe760e01b81526001600160a01b0384166004820152602401610f86565b7ff0c57e16840df040f15088dc2f81fe391c3923bec73e23a9662efc9c229c6a0054600160401b900460ff16610b9b57604051631afcd79f60e31b815260040160405180910390fd5b6116a5611f13565b611cd3611f13565b806001600160a01b03163b600003611fa257604051634c9c8ce360e01b81526001600160a01b0382166004820152602401610f86565b6000805160206126c383398151915280546001600160a01b0319166001600160a01b0392909216919091179055565b6060600080846001600160a01b031684604051611fee91906126a6565b600060405180830381855af49150503d8060008114612029576040519150601f19603f3d011682016040523d82523d6000602084013e61202e565b606091505b509150915061203e85838361207b565b95945050505050565b3415610b9b5760405163b398979f60e01b815260040160405180910390fd5b6060612074838360006120d7565b9392505050565b6060826120905761208b82612174565b612074565b81511580156120a757506001600160a01b0384163b155b156120d057604051639996b31560e01b81526001600160a01b0385166004820152602401610f86565b5092915050565b6060814710156120fc5760405163cd78605960e01b8152306004820152602401610f86565b600080856001600160a01b0316848660405161211891906126a6565b60006040518083038185875af1925050503d8060008114612155576040519150601f19603f3d011682016040523d82523d6000602084013e61215a565b606091505b509150915061216a86838361207b565b9695505050505050565b8051156121845780518082602001fd5b604051630a12f52160e11b815260040160405180910390fd5b80356001600160a01b03811681146121b457600080fd5b919050565b6000602082840312156121cb57600080fd5b6120748261219d565b600080604083850312156121e757600080fd5b6121f08361219d565b946020939093013593505050565b634e487b7160e01b600052604160045260246000fd5b6000806040838503121561222757600080fd5b6122308361219d565b9150602083013567ffffffffffffffff8082111561224d57600080fd5b818501915085601f83011261226157600080fd5b813581811115612273576122736121fe565b604051601f8201601f19908116603f0116810190838211818310171561229b5761229b6121fe565b816040528281528860208487010111156122b457600080fd5b8260208601602083013760006020848301015280955050505050509250929050565b600080604083850312156122e957600080fd5b6122f28361219d565b91506123006020840161219d565b90509250929050565b60008060006060848603121561231e57600080fd5b6123278461219d565b92506123356020850161219d565b9150604084013590509250925092565b60008060006060848603121561235a57600080fd5b6123638461219d565b95602085013595506040909401359392505050565b60005b8381101561239357818101518382015260200161237b565b50506000910152565b60208152600082518060208401526123bb816040850160208701612378565b601f01601f19169190910160400192915050565b600080602083850312156123e257600080fd5b823567ffffffffffffffff808211156123fa57600080fd5b818501915085601f83011261240e57600080fd5b81358181111561241d57600080fd5b8660208260051b850101111561243257600080fd5b60209290920196919550909350505050565b80151581146116d857600080fd5b6000806000806080858703121561246857600080fd5b6124718561219d565b93506020850135925060408501359150606085013561248f81612444565b939692955090935050565b634e487b7160e01b600052601160045260246000fd5b80820180821115610e3b57610e3b61249a565b634e487b7160e01b600052603260045260246000fd5b81810381811115610e3b57610e3b61249a565b6000602082840312156124fe57600080fd5b5051919050565b60006020828403121561251757600080fd5b815160ff8116811461207457600080fd5b60ff8281168282160390811115610e3b57610e3b61249a565b600181815b8085111561257c5781600019048211156125625761256261249a565b8085161561256f57918102915b93841c9390800290612546565b509250929050565b60008261259357506001610e3b565b816125a057506000610e3b565b81600181146125b657600281146125c0576125dc565b6001915050610e3b565b60ff8411156125d1576125d161249a565b50506001821b610e3b565b5060208310610133831016604e8410600b84101617156125ff575081810a610e3b565b6126098383612541565b806000190482111561261d5761261d61249a565b029392505050565b600061207460ff841683612584565b634e487b7160e01b600052601260045260246000fd5b60008261265957612659612634565b500690565b60008261266d5761266d612634565b500490565b8082028115828204841417610e3b57610e3b61249a565b60006020828403121561269b57600080fd5b815161207481612444565b600082516126b8818460208701612378565b919091019291505056fe360894a13ba1a3210667c828492db98dca3e2076cc3735a920a3ca505d382bbca164736f6c6343000817000a",
  "devdoc": {
    "errors": {
      "AddressEmptyCode(address)": [
        {
          "details": "There's no code at `target` (it is not a contract)."
        }
      ],
      "AddressInsufficientBalance(address)": [
        {
          "details": "The ETH balance of the account is not enough to perform the operation."
        }
      ],
      "ERC1967InvalidImplementation(address)": [
        {
          "details": "The `implementation` of the proxy is invalid."
        }
      ],
      "ERC1967NonPayable()": [
        {
          "details": "An upgrade function sees `msg.value > 0` that may be lost."
        }
      ],
      "FailedInnerCall()": [
        {
          "details": "A call to an address target failed. The target may have reverted."
        }
      ],
      "InvalidInitialization()": [
        {
          "details": "The contract is already initialized."
        }
      ],
      "NotInitializing()": [
        {
          "details": "The contract is not initializing."
        }
      ],
      "OwnableInvalidOwner(address)": [
        {
          "details": "The owner is not a valid owner account. (eg. `address(0)`)"
        }
      ],
      "OwnableUnauthorizedAccount(address)": [
        {
          "details": "The caller account is not authorized to perform an operation."
        }
      ],
      "ReentrancyGuardReentrantCall()": [
        {
          "details": "Unauthorized reentrant call."
        }
      ],
      "SafeERC20FailedOperation(address)": [
        {
          "details": "An operation with an ERC20 token failed."
        }
      ],
      "TrenBoxStorage__BorrowerOperationsOnly()": [
        {
          "details": "Error emitted when only BorrowerOperations is allowed."
        }
      ],
      "TrenBoxStorage__BorrowerOperationsOrTrenBoxManagerOnly()": [
        {
          "details": "Error emitted when only BorrowerOperations or TrenBoxManager can perform an operation."
        }
      ],
      "TrenBoxStorage__NoClaimableCollateral()": [
        {
          "details": "Error emitted when there is no claimable collateral available."
        }
      ],
      "TrenBoxStorage__NotAuthorizedContract()": [
        {
          "details": "Error emitted when contract is not authorized."
        }
      ],
      "TrenBoxStorage__TrenBoxManagerOnly()": [
        {
          "details": "Error emitted when only TrenBoxManager is allowed."
        }
      ],
      "TrenBoxStorage__TrenBoxManagerOperationsOnly()": [
        {
          "details": "Error emitted when only TrenBoxManagerOperations is allowed."
        }
      ],
      "UUPSUnauthorizedCallContext()": [
        {
          "details": "The call is from an unauthorized context."
        }
      ],
      "UUPSUnsupportedProxiableUUID(bytes32)": [
        {
          "details": "The storage `slot` is unsupported as a UUID."
        }
      ]
    },
    "events": {
      "ActiveCollateralBalanceUpdated(address,uint256)": {
        "details": "Emitted when the active collateral balance is updated.",
        "params": {
          "_collateral": "The address of the collateral asset.",
          "_newBalance": "The new active collateral balance."
        }
      },
      "ActiveDebtBalanceUpdated(address,uint256)": {
        "details": "Emitted when the active debt balance is updated.",
        "params": {
          "_collateral": "The address of the collateral asset.",
          "_newBalance": "The new active debt balance."
        }
      },
      "ClaimableCollateralBalanceUpdated(address,uint256)": {
        "details": "Emitted when the claimable collateral balance is updated.",
        "params": {
          "_collateral": "The address of the collateral asset.",
          "_newBalance": "The new claimable collateral balance."
        }
      },
      "CollateralSent(address,address,uint256)": {
        "details": "Emitted when collateral is sent.",
        "params": {
          "_amount": "The amount of collateral sent.",
          "_collateral": "The address of the collateral asset.",
          "_to": "The address of the user which get collateral amount."
        }
      },
      "Initialized(uint64)": {
        "details": "Triggered when the contract has been initialized or reinitialized."
      },
      "LiquidatedCollateralBalanceUpdated(address,uint256)": {
        "details": "Emitted when the liquidated collateral balance is updated.",
        "params": {
          "_collateral": "The address of the collateral asset.",
          "_newBalance": "The new liquidated collateral balance."
        }
      },
      "LiquidatedDebtBalanceUpdated(address,uint256)": {
        "details": "Emitted when the liquidated debt balance is updated.",
        "params": {
          "_collateral": "The address of the collateral asset.",
          "_newBalance": "The new liquidated debt balance."
        }
      },
      "Upgraded(address)": {
        "details": "Emitted when the implementation is upgraded."
      },
      "UserClaimableCollateralBalanceUpdated(address,address,uint256)": {
        "details": "Emitted when the user claimable collateral balance is updated.",
        "params": {
          "_account": "The address of the user.",
          "_collateral": "The address of the collateral asset.",
          "_newBalance": "The new user claimable collateral balance."
        }
      }
    },
    "kind": "dev",
    "methods": {
      "claimCollateral(address,address)": {
        "params": {
          "_account": "The address of the user to send.",
          "_collateral": "The address of the collateral asset."
        }
      },
      "decreaseActiveBalancesAfterRedemption(address,uint256,uint256)": {
        "params": {
          "_collAmount": "The amount to decrease the collateral balance.",
          "_collateral": "The address of the collateral asset.",
          "_debtAmount": "The amount to decrease the debt balance."
        }
      },
      "decreaseActiveCollateral(address,uint256)": {
        "params": {
          "_amount": "The amount to decrease the collateral balance.",
          "_collateral": "The address of the collateral asset."
        }
      },
      "decreaseActiveDebt(address,uint256)": {
        "params": {
          "_amount": "The amount to decrease the debt balance.",
          "_collateral": "The address of the collateral asset."
        }
      },
      "getActiveCollateralBalance(address)": {
        "params": {
          "_collateral": "The address of the collateral asset."
        }
      },
      "getActiveDebtBalance(address)": {
        "params": {
          "_collateral": "The address of the collateral asset."
        }
      },
      "getClaimableCollateralBalance(address)": {
        "params": {
          "_collateral": "The address of the collateral asset."
        }
      },
      "getLiquidatedCollateralBalance(address)": {
        "params": {
          "_collateral": "The address of the collateral asset."
        }
      },
      "getLiquidatedDebtBalance(address)": {
        "params": {
          "_collateral": "The address of the collateral asset."
        }
      },
      "getTotalCollateralBalance(address)": {
        "params": {
          "_collateral": "The address of the collateral asset."
        }
      },
      "getTotalDebtBalance(address)": {
        "params": {
          "_collateral": "The address of the collateral asset."
        }
      },
      "getUserClaimableCollateralBalance(address,address)": {
        "params": {
          "_account": "The address of the user.",
          "_collateral": "The address of the collateral asset."
        }
      },
      "increaseActiveCollateral(address,uint256)": {
        "params": {
          "_amount": "The amount to increase the debt balance.",
          "_collateral": "The address of the collateral asset."
        }
      },
      "increaseActiveDebt(address,uint256)": {
        "params": {
          "_amount": "The amount to increase the debt balance.",
          "_collateral": "The address of the collateral asset."
        }
      },
      "increaseClaimableCollateral(address,uint256)": {
        "params": {
          "_amount": "The amount to increase the claimable collateral balance.",
          "_collateral": "The address of the collateral asset."
        }
      },
      "initialize(address)": {
        "details": "Sets an intiial owner for the contract.",
        "params": {
          "initialOwner": "The address of initial owner."
        }
      },
      "owner()": {
        "details": "Returns the address of the current owner."
      },
      "proxiableUUID()": {
        "details": "Implementation of the ERC1822 {proxiableUUID} function. This returns the storage slot used by the implementation. It is used to validate the implementation's compatibility when performing an upgrade. IMPORTANT: A proxy pointing at a proxiable contract should not be considered proxiable itself, because this risks bricking a proxy that upgrades to it, by delegating to itself until out of gas. Thus it is critical that this function revert if invoked through a proxy. This is guaranteed by the `notDelegated` modifier."
      },
      "renounceOwnership()": {
        "details": "Leaves the contract without owner. It will not be possible to call `onlyOwner` functions. Can only be called by the current owner. NOTE: Renouncing ownership will leave the contract without an owner, thereby disabling any functionality that is only available to the owner."
      },
      "sendCollateral(address,address,uint256)": {
        "params": {
          "_account": "The address of the user to send.",
          "_amount": "The amount of the collateral to send.",
          "_collateral": "The address of the collateral asset."
        }
      },
      "transferOwnership(address)": {
        "details": "Transfers ownership of the contract to a new account (`newOwner`). Can only be called by the current owner."
      },
      "updateDebtAndCollateralBalances(address,uint256,uint256,bool)": {
        "params": {
          "_collAmount": "The amount to decrease the collateral balance.",
          "_collateral": "The address of the collateral asset.",
          "_debtAmount": "The amount to decrease the debt balance.",
          "_isActiveIncrease": "The indicator that shows increasing or decreasing of active balances."
        }
      },
      "updateUserAndEntireClaimableBalance(address,address,uint256)": {
        "params": {
          "_account": "The address of the user.",
          "_amount": "The amount to update the claimable balance.",
          "_collateral": "The address of the collateral asset."
        }
      },
      "updateUserClaimableBalance(address,address,uint256)": {
        "params": {
          "_account": "The address of the user.",
          "_amount": "The amount to update the claimable balance.",
          "_collateral": "The address of the collateral asset."
        }
      },
      "upgradeToAndCall(address,bytes)": {
        "custom:oz-upgrades-unsafe-allow-reachable": "delegatecall",
        "details": "Upgrade the implementation of the proxy to `newImplementation`, and subsequently execute the function call encoded in `data`. Calls {_authorizeUpgrade}. Emits an {Upgraded} event."
      }
    },
    "title": "A contract storage of the collateral amount, debt and gas compensation for each TrenBox.",
    "version": 1
  },
  "userdoc": {
    "kind": "user",
    "methods": {
      "NAME()": {
        "notice": "The contract name."
      },
      "claimCollateral(address,address)": {
        "notice": "Sends amount of claimable collateral from contract to user."
      },
      "decreaseActiveBalancesAfterRedemption(address,uint256,uint256)": {
        "notice": "Decreases the active balances of debt and collateral for a specific collateral after redemption exists."
      },
      "decreaseActiveCollateral(address,uint256)": {
        "notice": "Decreases the active balance for a specific collateral asset."
      },
      "decreaseActiveDebt(address,uint256)": {
        "notice": "Decreases the active debt balance for a specific collateral asset."
      },
      "getActiveCollateralBalance(address)": {
        "notice": "Returns the active collateral balance for a specific collateral asset."
      },
      "getActiveDebtBalance(address)": {
        "notice": "Returns the active debt balance for a specific collateral asset."
      },
      "getClaimableCollateralBalance(address)": {
        "notice": "Returns the claimable collateral balance for a specific collateral asset."
      },
      "getLiquidatedCollateralBalance(address)": {
        "notice": "Returns the liquidated collateral balance for a specific collateral asset."
      },
      "getLiquidatedDebtBalance(address)": {
        "notice": "Returns the liquidated debt balance for a specific collateral asset."
      },
      "getTotalCollateralBalance(address)": {
        "notice": "Returns sum of active and liquidated amount of a specific collateral asset."
      },
      "getTotalDebtBalance(address)": {
        "notice": "Returns sum of active and liquidated debt for a specific collateral asset."
      },
      "getUserClaimableCollateralBalance(address,address)": {
        "notice": "Returns the claimable collateral balance for a specific user."
      },
      "increaseActiveCollateral(address,uint256)": {
        "notice": "Increases the active balance for a specific collateral asset."
      },
      "increaseActiveDebt(address,uint256)": {
        "notice": "Increases the active debt balance for a specific collateral asset."
      },
      "increaseClaimableCollateral(address,uint256)": {
        "notice": "Increases the claimable collateral balance for a specific collateral asset."
      },
      "sendCollateral(address,address,uint256)": {
        "notice": "Sends amount of active collateral from contract to user."
      },
      "updateDebtAndCollateralBalances(address,uint256,uint256,bool)": {
        "notice": "Updates the active and liquidated debt and collateral balances."
      },
      "updateUserAndEntireClaimableBalance(address,address,uint256)": {
        "notice": "Updates the entire and user claimable balance for a specific collateral asset."
      },
      "updateUserClaimableBalance(address,address,uint256)": {
        "notice": "Updates the claimable collateral balance of the user for a specific collateral asset."
      }
    },
    "version": 1
  },
  "storageLayout": {
    "storage": [
      {
        "astId": 8946,
        "contract": "contracts/TrenBoxStorage.sol:TrenBoxStorage",
        "label": "adminContract",
        "offset": 0,
        "slot": "0",
        "type": "t_address"
      },
      {
        "astId": 8948,
        "contract": "contracts/TrenBoxStorage.sol:TrenBoxStorage",
        "label": "borrowerOperations",
        "offset": 0,
        "slot": "1",
        "type": "t_address"
      },
      {
        "astId": 8950,
        "contract": "contracts/TrenBoxStorage.sol:TrenBoxStorage",
        "label": "communityIssuance",
        "offset": 0,
        "slot": "2",
        "type": "t_address"
      },
      {
        "astId": 8952,
        "contract": "contracts/TrenBoxStorage.sol:TrenBoxStorage",
        "label": "debtToken",
        "offset": 0,
        "slot": "3",
        "type": "t_address"
      },
      {
        "astId": 8954,
        "contract": "contracts/TrenBoxStorage.sol:TrenBoxStorage",
        "label": "feeCollector",
        "offset": 0,
        "slot": "4",
        "type": "t_address"
      },
      {
        "astId": 8956,
        "contract": "contracts/TrenBoxStorage.sol:TrenBoxStorage",
        "label": "flashLoanAddress",
        "offset": 0,
        "slot": "5",
        "type": "t_address"
      },
      {
        "astId": 8958,
        "contract": "contracts/TrenBoxStorage.sol:TrenBoxStorage",
        "label": "trenStaking",
        "offset": 0,
        "slot": "6",
        "type": "t_address"
      },
      {
        "astId": 8960,
        "contract": "contracts/TrenBoxStorage.sol:TrenBoxStorage",
        "label": "priceFeed",
        "offset": 0,
        "slot": "7",
        "type": "t_address"
      },
      {
        "astId": 8962,
        "contract": "contracts/TrenBoxStorage.sol:TrenBoxStorage",
        "label": "sortedTrenBoxes",
        "offset": 0,
        "slot": "8",
        "type": "t_address"
      },
      {
        "astId": 8964,
        "contract": "contracts/TrenBoxStorage.sol:TrenBoxStorage",
        "label": "stabilityPool",
        "offset": 0,
        "slot": "9",
        "type": "t_address"
      },
      {
        "astId": 8966,
        "contract": "contracts/TrenBoxStorage.sol:TrenBoxStorage",
        "label": "timelockAddress",
        "offset": 0,
        "slot": "10",
        "type": "t_address"
      },
      {
        "astId": 8968,
        "contract": "contracts/TrenBoxStorage.sol:TrenBoxStorage",
        "label": "treasuryAddress",
        "offset": 0,
        "slot": "11",
        "type": "t_address"
      },
      {
        "astId": 8970,
        "contract": "contracts/TrenBoxStorage.sol:TrenBoxStorage",
        "label": "trenBoxManager",
        "offset": 0,
        "slot": "12",
        "type": "t_address"
      },
      {
        "astId": 8972,
        "contract": "contracts/TrenBoxStorage.sol:TrenBoxStorage",
        "label": "trenBoxManagerOperations",
        "offset": 0,
        "slot": "13",
        "type": "t_address"
      },
      {
        "astId": 8974,
        "contract": "contracts/TrenBoxStorage.sol:TrenBoxStorage",
        "label": "trenBoxStorage",
        "offset": 0,
        "slot": "14",
        "type": "t_address"
      },
      {
        "astId": 8976,
        "contract": "contracts/TrenBoxStorage.sol:TrenBoxStorage",
        "label": "isAddressSetupInitialized",
        "offset": 20,
        "slot": "14",
        "type": "t_bool"
      },
      {
        "astId": 8981,
        "contract": "contracts/TrenBoxStorage.sol:TrenBoxStorage",
        "label": "__gap",
        "offset": 0,
        "slot": "15",
        "type": "t_array(t_uint256)33_storage"
      },
      {
        "astId": 27434,
        "contract": "contracts/TrenBoxStorage.sol:TrenBoxStorage",
        "label": "collateralBalances",
        "offset": 0,
        "slot": "48",
        "type": "t_mapping(t_address,t_struct(CollBalances)13727_storage)"
      },
      {
        "astId": 27440,
        "contract": "contracts/TrenBoxStorage.sol:TrenBoxStorage",
        "label": "debtBalances",
        "offset": 0,
        "slot": "49",
        "type": "t_mapping(t_address,t_struct(DebtBalances)13719_storage)"
      },
      {
        "astId": 27447,
        "contract": "contracts/TrenBoxStorage.sol:TrenBoxStorage",
        "label": "userClaimableCollateralBalances",
        "offset": 0,
        "slot": "50",
        "type": "t_mapping(t_address,t_mapping(t_address,t_uint256))"
      }
    ],
    "types": {
      "t_address": {
        "encoding": "inplace",
        "label": "address",
        "numberOfBytes": "20"
      },
      "t_array(t_uint256)33_storage": {
        "base": "t_uint256",
        "encoding": "inplace",
        "label": "uint256[33]",
        "numberOfBytes": "1056"
      },
      "t_bool": {
        "encoding": "inplace",
        "label": "bool",
        "numberOfBytes": "1"
      },
      "t_mapping(t_address,t_mapping(t_address,t_uint256))": {
        "encoding": "mapping",
        "key": "t_address",
        "label": "mapping(address => mapping(address => uint256))",
        "numberOfBytes": "32",
        "value": "t_mapping(t_address,t_uint256)"
      },
      "t_mapping(t_address,t_struct(CollBalances)13727_storage)": {
        "encoding": "mapping",
        "key": "t_address",
        "label": "mapping(address => struct ITrenBoxStorage.CollBalances)",
        "numberOfBytes": "32",
        "value": "t_struct(CollBalances)13727_storage"
      },
      "t_mapping(t_address,t_struct(DebtBalances)13719_storage)": {
        "encoding": "mapping",
        "key": "t_address",
        "label": "mapping(address => struct ITrenBoxStorage.DebtBalances)",
        "numberOfBytes": "32",
        "value": "t_struct(DebtBalances)13719_storage"
      },
      "t_mapping(t_address,t_uint256)": {
        "encoding": "mapping",
        "key": "t_address",
        "label": "mapping(address => uint256)",
        "numberOfBytes": "32",
        "value": "t_uint256"
      },
      "t_struct(CollBalances)13727_storage": {
        "encoding": "inplace",
        "label": "struct ITrenBoxStorage.CollBalances",
        "members": [
          {
            "astId": 13722,
            "contract": "contracts/TrenBoxStorage.sol:TrenBoxStorage",
            "label": "active",
            "offset": 0,
            "slot": "0",
            "type": "t_uint256"
          },
          {
            "astId": 13724,
            "contract": "contracts/TrenBoxStorage.sol:TrenBoxStorage",
            "label": "liquidated",
            "offset": 0,
            "slot": "1",
            "type": "t_uint256"
          },
          {
            "astId": 13726,
            "contract": "contracts/TrenBoxStorage.sol:TrenBoxStorage",
            "label": "claimable",
            "offset": 0,
            "slot": "2",
            "type": "t_uint256"
          }
        ],
        "numberOfBytes": "96"
      },
      "t_struct(DebtBalances)13719_storage": {
        "encoding": "inplace",
        "label": "struct ITrenBoxStorage.DebtBalances",
        "members": [
          {
            "astId": 13716,
            "contract": "contracts/TrenBoxStorage.sol:TrenBoxStorage",
            "label": "active",
            "offset": 0,
            "slot": "0",
            "type": "t_uint256"
          },
          {
            "astId": 13718,
            "contract": "contracts/TrenBoxStorage.sol:TrenBoxStorage",
            "label": "liquidated",
            "offset": 0,
            "slot": "1",
            "type": "t_uint256"
          }
        ],
        "numberOfBytes": "64"
      },
      "t_uint256": {
        "encoding": "inplace",
        "label": "uint256",
        "numberOfBytes": "32"
      }
    }
  }
}