{
  "address": "0x8c2D729291F77B656BCa690FaEdc84a81029b966",
  "abi": [
    {
      "inputs": [
        {
          "internalType": "address",
          "name": "target",
          "type": "address"
        }
      ],
      "name": "AddressEmptyCode",
      "type": "error"
    },
    {
      "inputs": [],
      "name": "ConfigurableAddresses__CommunityIssuanceZeroAddress",
      "type": "error"
    },
    {
      "inputs": [],
      "name": "ConfigurableAddresses__LengthMismatch",
      "type": "error"
    },
    {
      "inputs": [],
      "name": "ConfigurableAddresses__SetupIsInitialized",
      "type": "error"
    },
    {
      "inputs": [],
      "name": "ConfigurableAddresses__TRENStakingZeroAddress",
      "type": "error"
    },
    {
      "inputs": [
        {
          "internalType": "uint256",
          "name": "position",
          "type": "uint256"
        },
        {
          "internalType": "address",
          "name": "address_",
          "type": "address"
        }
      ],
      "name": "ConfigurableAddresses__ZeroAddresses",
      "type": "error"
    },
    {
      "inputs": [
        {
          "internalType": "address",
          "name": "implementation",
          "type": "address"
        }
      ],
      "name": "ERC1967InvalidImplementation",
      "type": "error"
    },
    {
      "inputs": [],
      "name": "ERC1967NonPayable",
      "type": "error"
    },
    {
      "inputs": [],
      "name": "FailedInnerCall",
      "type": "error"
    },
    {
      "inputs": [],
      "name": "InvalidInitialization",
      "type": "error"
    },
    {
      "inputs": [],
      "name": "NotInitializing",
      "type": "error"
    },
    {
      "inputs": [
        {
          "internalType": "address",
          "name": "owner",
          "type": "address"
        }
      ],
      "name": "OwnableInvalidOwner",
      "type": "error"
    },
    {
      "inputs": [
        {
          "internalType": "address",
          "name": "account",
          "type": "address"
        }
      ],
      "name": "OwnableUnauthorizedAccount",
      "type": "error"
    },
    {
      "inputs": [],
      "name": "ReentrancyGuardReentrantCall",
      "type": "error"
    },
    {
      "inputs": [
        {
          "internalType": "uint256",
          "name": "feePercentage",
          "type": "uint256"
        },
        {
          "internalType": "uint256",
          "name": "maxFeePercentage",
          "type": "uint256"
        }
      ],
      "name": "TrenBase__FeeExceededMax",
      "type": "error"
    },
    {
      "inputs": [],
      "name": "TrenBoxManagerOperations__EmptyAmount",
      "type": "error"
    },
    {
      "inputs": [
        {
          "internalType": "uint256",
          "name": "lowerBoundary",
          "type": "uint256"
        },
        {
          "internalType": "uint256",
          "name": "upperBoundary",
          "type": "uint256"
        }
      ],
      "name": "TrenBoxManagerOperations__FeePercentOutOfBounds",
      "type": "error"
    },
    {
      "inputs": [
        {
          "internalType": "uint256",
          "name": "availableBalance",
          "type": "uint256"
        }
      ],
      "name": "TrenBoxManagerOperations__InsufficientDebtTokenBalance",
      "type": "error"
    },
    {
      "inputs": [],
      "name": "TrenBoxManagerOperations__InvalidArraySize",
      "type": "error"
    },
    {
      "inputs": [],
      "name": "TrenBoxManagerOperations__InvalidParam",
      "type": "error"
    },
    {
      "inputs": [],
      "name": "TrenBoxManagerOperations__NotTimelock",
      "type": "error"
    },
    {
      "inputs": [],
      "name": "TrenBoxManagerOperations__NothingToLiquidate",
      "type": "error"
    },
    {
      "inputs": [],
      "name": "TrenBoxManagerOperations__OnlyTrenBoxManager",
      "type": "error"
    },
    {
      "inputs": [],
      "name": "TrenBoxManagerOperations__RedemptionIsBlocked",
      "type": "error"
    },
    {
      "inputs": [
        {
          "internalType": "uint256",
          "name": "tcr",
          "type": "uint256"
        },
        {
          "internalType": "uint256",
          "name": "mcr",
          "type": "uint256"
        }
      ],
      "name": "TrenBoxManagerOperations__TCRMustBeAboveMCR",
      "type": "error"
    },
    {
      "inputs": [],
      "name": "TrenBoxManagerOperations__TrenBoxNotActive",
      "type": "error"
    },
    {
      "inputs": [],
      "name": "TrenBoxManagerOperations__UnableToRedeemAnyAmount",
      "type": "error"
    },
    {
      "inputs": [],
      "name": "UUPSUnauthorizedCallContext",
      "type": "error"
    },
    {
      "inputs": [
        {
          "internalType": "bytes32",
          "name": "slot",
          "type": "bytes32"
        }
      ],
      "name": "UUPSUnsupportedProxiableUUID",
      "type": "error"
    },
    {
      "anonymous": false,
      "inputs": [
        {
          "indexed": false,
          "internalType": "uint64",
          "name": "version",
          "type": "uint64"
        }
      ],
      "name": "Initialized",
      "type": "event"
    },
    {
      "anonymous": false,
      "inputs": [
        {
          "indexed": true,
          "internalType": "address",
          "name": "_asset",
          "type": "address"
        },
        {
          "indexed": false,
          "internalType": "uint256",
          "name": "_liquidatedDebt",
          "type": "uint256"
        },
        {
          "indexed": false,
          "internalType": "uint256",
          "name": "_liquidatedColl",
          "type": "uint256"
        },
        {
          "indexed": false,
          "internalType": "uint256",
          "name": "_collGasCompensation",
          "type": "uint256"
        },
        {
          "indexed": false,
          "internalType": "uint256",
          "name": "_debtTokenGasCompensation",
          "type": "uint256"
        }
      ],
      "name": "Liquidation",
      "type": "event"
    },
    {
      "anonymous": false,
      "inputs": [
        {
          "indexed": true,
          "internalType": "address",
          "name": "previousOwner",
          "type": "address"
        },
        {
          "indexed": true,
          "internalType": "address",
          "name": "newOwner",
          "type": "address"
        }
      ],
      "name": "OwnershipTransferred",
      "type": "event"
    },
    {
      "anonymous": false,
      "inputs": [
        {
          "indexed": true,
          "internalType": "address",
          "name": "_asset",
          "type": "address"
        },
        {
          "indexed": false,
          "internalType": "uint256",
          "name": "_attemptedDebtAmount",
          "type": "uint256"
        },
        {
          "indexed": false,
          "internalType": "uint256",
          "name": "_actualDebtAmount",
          "type": "uint256"
        },
        {
          "indexed": false,
          "internalType": "uint256",
          "name": "_collSent",
          "type": "uint256"
        },
        {
          "indexed": false,
          "internalType": "uint256",
          "name": "_collFee",
          "type": "uint256"
        }
      ],
      "name": "Redemption",
      "type": "event"
    },
    {
      "anonymous": false,
      "inputs": [
        {
          "indexed": false,
          "internalType": "uint256",
          "name": "_redemptionSofteningParam",
          "type": "uint256"
        }
      ],
      "name": "RedemptionSoftenParamChanged",
      "type": "event"
    },
    {
      "anonymous": false,
      "inputs": [
        {
          "indexed": true,
          "internalType": "address",
          "name": "_asset",
          "type": "address"
        },
        {
          "indexed": false,
          "internalType": "uint256",
          "name": "_redistributedDebt",
          "type": "uint256"
        },
        {
          "indexed": false,
          "internalType": "uint256",
          "name": "_redistributedCool",
          "type": "uint256"
        },
        {
          "indexed": false,
          "internalType": "uint256",
          "name": "_totalDebtTokenGasCompensation",
          "type": "uint256"
        }
      ],
      "name": "Redistribution",
      "type": "event"
    },
    {
      "anonymous": false,
      "inputs": [
        {
          "indexed": true,
          "internalType": "address",
          "name": "_asset",
          "type": "address"
        },
        {
          "indexed": true,
          "internalType": "address",
          "name": "_borrower",
          "type": "address"
        },
        {
          "indexed": false,
          "internalType": "uint256",
          "name": "_debt",
          "type": "uint256"
        },
        {
          "indexed": false,
          "internalType": "uint256",
          "name": "_coll",
          "type": "uint256"
        },
        {
          "indexed": false,
          "internalType": "enum ITrenBoxManager.TrenBoxManagerOperation",
          "name": "_operation",
          "type": "uint8"
        }
      ],
      "name": "TrenBoxLiquidated",
      "type": "event"
    },
    {
      "anonymous": false,
      "inputs": [
        {
          "indexed": true,
          "internalType": "address",
          "name": "implementation",
          "type": "address"
        }
      ],
      "name": "Upgraded",
      "type": "event"
    },
    {
      "inputs": [],
      "name": "BATCH_SIZE_LIMIT",
      "outputs": [
        {
          "internalType": "uint256",
          "name": "",
          "type": "uint256"
        }
      ],
      "stateMutability": "view",
      "type": "function"
    },
    {
      "inputs": [],
      "name": "NAME",
      "outputs": [
        {
          "internalType": "string",
          "name": "",
          "type": "string"
        }
      ],
      "stateMutability": "view",
      "type": "function"
    },
    {
      "inputs": [],
      "name": "PERCENTAGE_PRECISION",
      "outputs": [
        {
          "internalType": "uint256",
          "name": "",
          "type": "uint256"
        }
      ],
      "stateMutability": "view",
      "type": "function"
    },
    {
      "inputs": [],
      "name": "UPGRADE_INTERFACE_VERSION",
      "outputs": [
        {
          "internalType": "string",
          "name": "",
          "type": "string"
        }
      ],
      "stateMutability": "view",
      "type": "function"
    },
    {
      "inputs": [],
      "name": "adminContract",
      "outputs": [
        {
          "internalType": "address",
          "name": "",
          "type": "address"
        }
      ],
      "stateMutability": "view",
      "type": "function"
    },
    {
      "inputs": [
        {
          "internalType": "address",
          "name": "newImplementation",
          "type": "address"
        }
      ],
      "name": "authorizeUpgrade",
      "outputs": [],
      "stateMutability": "nonpayable",
      "type": "function"
    },
    {
      "inputs": [
        {
          "internalType": "address",
          "name": "_asset",
          "type": "address"
        },
        {
          "internalType": "address[]",
          "name": "_trenBoxArray",
          "type": "address[]"
        }
      ],
      "name": "batchLiquidateTrenBoxes",
      "outputs": [],
      "stateMutability": "nonpayable",
      "type": "function"
    },
    {
      "inputs": [],
      "name": "borrowerOperations",
      "outputs": [
        {
          "internalType": "address",
          "name": "",
          "type": "address"
        }
      ],
      "stateMutability": "view",
      "type": "function"
    },
    {
      "inputs": [],
      "name": "communityIssuance",
      "outputs": [
        {
          "internalType": "address",
          "name": "",
          "type": "address"
        }
      ],
      "stateMutability": "view",
      "type": "function"
    },
    {
      "inputs": [
        {
          "internalType": "uint256",
          "name": "_coll",
          "type": "uint256"
        },
        {
          "internalType": "uint256",
          "name": "_debt",
          "type": "uint256"
        }
      ],
      "name": "computeNominalCR",
      "outputs": [
        {
          "internalType": "uint256",
          "name": "",
          "type": "uint256"
        }
      ],
      "stateMutability": "pure",
      "type": "function"
    },
    {
      "inputs": [],
      "name": "debtToken",
      "outputs": [
        {
          "internalType": "address",
          "name": "",
          "type": "address"
        }
      ],
      "stateMutability": "view",
      "type": "function"
    },
    {
      "inputs": [],
      "name": "feeCollector",
      "outputs": [
        {
          "internalType": "address",
          "name": "",
          "type": "address"
        }
      ],
      "stateMutability": "view",
      "type": "function"
    },
    {
      "inputs": [],
      "name": "flashLoanAddress",
      "outputs": [
        {
          "internalType": "address",
          "name": "",
          "type": "address"
        }
      ],
      "stateMutability": "view",
      "type": "function"
    },
    {
      "inputs": [
        {
          "internalType": "address",
          "name": "_asset",
          "type": "address"
        },
        {
          "internalType": "uint256",
          "name": "_CR",
          "type": "uint256"
        },
        {
          "internalType": "uint256",
          "name": "_numTrials",
          "type": "uint256"
        },
        {
          "internalType": "uint256",
          "name": "_inputRandomSeed",
          "type": "uint256"
        }
      ],
      "name": "getApproxHint",
      "outputs": [
        {
          "internalType": "address",
          "name": "hintAddress",
          "type": "address"
        },
        {
          "internalType": "uint256",
          "name": "diff",
          "type": "uint256"
        },
        {
          "internalType": "uint256",
          "name": "latestRandomSeed",
          "type": "uint256"
        }
      ],
      "stateMutability": "view",
      "type": "function"
    },
    {
      "inputs": [
        {
          "internalType": "address",
          "name": "_asset",
          "type": "address"
        }
      ],
      "name": "getEntireSystemColl",
      "outputs": [
        {
          "internalType": "uint256",
          "name": "entireSystemColl",
          "type": "uint256"
        }
      ],
      "stateMutability": "view",
      "type": "function"
    },
    {
      "inputs": [
        {
          "internalType": "address",
          "name": "_asset",
          "type": "address"
        }
      ],
      "name": "getEntireSystemDebt",
      "outputs": [
        {
          "internalType": "uint256",
          "name": "entireSystemDebt",
          "type": "uint256"
        }
      ],
      "stateMutability": "view",
      "type": "function"
    },
    {
      "inputs": [
        {
          "internalType": "address",
          "name": "_asset",
          "type": "address"
        },
        {
          "internalType": "uint256",
          "name": "_debtTokenAmount",
          "type": "uint256"
        },
        {
          "internalType": "uint256",
          "name": "_price",
          "type": "uint256"
        },
        {
          "internalType": "uint256",
          "name": "_maxIterations",
          "type": "uint256"
        }
      ],
      "name": "getRedemptionHints",
      "outputs": [
        {
          "internalType": "address",
          "name": "firstRedemptionHint",
          "type": "address"
        },
        {
          "internalType": "uint256",
          "name": "partialRedemptionHintNewICR",
          "type": "uint256"
        },
        {
          "internalType": "uint256",
          "name": "truncatedDebtTokenAmount",
          "type": "uint256"
        }
      ],
      "stateMutability": "view",
      "type": "function"
    },
    {
      "inputs": [
        {
          "internalType": "address",
          "name": "initialOwner",
          "type": "address"
        }
      ],
      "name": "initialize",
      "outputs": [],
      "stateMutability": "nonpayable",
      "type": "function"
    },
    {
      "inputs": [],
      "name": "isAddressSetupInitialized",
      "outputs": [
        {
          "internalType": "bool",
          "name": "",
          "type": "bool"
        }
      ],
      "stateMutability": "view",
      "type": "function"
    },
    {
      "inputs": [
        {
          "internalType": "address",
          "name": "_asset",
          "type": "address"
        },
        {
          "internalType": "address",
          "name": "_borrower",
          "type": "address"
        }
      ],
      "name": "liquidate",
      "outputs": [],
      "stateMutability": "nonpayable",
      "type": "function"
    },
    {
      "inputs": [
        {
          "internalType": "address",
          "name": "_asset",
          "type": "address"
        },
        {
          "internalType": "uint256",
          "name": "_n",
          "type": "uint256"
        }
      ],
      "name": "liquidateTrenBoxes",
      "outputs": [],
      "stateMutability": "nonpayable",
      "type": "function"
    },
    {
      "inputs": [],
      "name": "owner",
      "outputs": [
        {
          "internalType": "address",
          "name": "",
          "type": "address"
        }
      ],
      "stateMutability": "view",
      "type": "function"
    },
    {
      "inputs": [],
      "name": "priceFeed",
      "outputs": [
        {
          "internalType": "address",
          "name": "",
          "type": "address"
        }
      ],
      "stateMutability": "view",
      "type": "function"
    },
    {
      "inputs": [],
      "name": "proxiableUUID",
      "outputs": [
        {
          "internalType": "bytes32",
          "name": "",
          "type": "bytes32"
        }
      ],
      "stateMutability": "view",
      "type": "function"
    },
    {
      "inputs": [
        {
          "internalType": "address",
          "name": "_asset",
          "type": "address"
        },
        {
          "internalType": "uint256",
          "name": "_debtTokenAmount",
          "type": "uint256"
        },
        {
          "internalType": "address",
          "name": "_upperPartialRedemptionHint",
          "type": "address"
        },
        {
          "internalType": "address",
          "name": "_lowerPartialRedemptionHint",
          "type": "address"
        },
        {
          "internalType": "address",
          "name": "_firstRedemptionHint",
          "type": "address"
        },
        {
          "internalType": "uint256",
          "name": "_partialRedemptionHintNICR",
          "type": "uint256"
        },
        {
          "internalType": "uint256",
          "name": "_maxIterations",
          "type": "uint256"
        },
        {
          "internalType": "uint256",
          "name": "_maxFeePercentage",
          "type": "uint256"
        }
      ],
      "name": "redeemCollateral",
      "outputs": [],
      "stateMutability": "nonpayable",
      "type": "function"
    },
    {
      "inputs": [],
      "name": "redemptionSofteningParam",
      "outputs": [
        {
          "internalType": "uint256",
          "name": "",
          "type": "uint256"
        }
      ],
      "stateMutability": "view",
      "type": "function"
    },
    {
      "inputs": [
        {
          "internalType": "address",
          "name": "_asset",
          "type": "address"
        },
        {
          "internalType": "uint256",
          "name": "_trenBoxes",
          "type": "uint256"
        }
      ],
      "name": "redistributeTrenBoxes",
      "outputs": [],
      "stateMutability": "nonpayable",
      "type": "function"
    },
    {
      "inputs": [],
      "name": "renounceOwnership",
      "outputs": [],
      "stateMutability": "nonpayable",
      "type": "function"
    },
    {
      "inputs": [
        {
          "internalType": "address[]",
          "name": "_addresses",
          "type": "address[]"
        }
      ],
      "name": "setAddresses",
      "outputs": [],
      "stateMutability": "nonpayable",
      "type": "function"
    },
    {
      "inputs": [
        {
          "internalType": "address",
          "name": "_communityIssuance",
          "type": "address"
        }
      ],
      "name": "setCommunityIssuance",
      "outputs": [],
      "stateMutability": "nonpayable",
      "type": "function"
    },
    {
      "inputs": [
        {
          "internalType": "uint256",
          "name": "_redemptionSofteningParam",
          "type": "uint256"
        }
      ],
      "name": "setRedemptionSofteningParam",
      "outputs": [],
      "stateMutability": "nonpayable",
      "type": "function"
    },
    {
      "inputs": [
        {
          "internalType": "address",
          "name": "_trenStaking",
          "type": "address"
        }
      ],
      "name": "setTRENStaking",
      "outputs": [],
      "stateMutability": "nonpayable",
      "type": "function"
    },
    {
      "inputs": [],
      "name": "sortedTrenBoxes",
      "outputs": [
        {
          "internalType": "address",
          "name": "",
          "type": "address"
        }
      ],
      "stateMutability": "view",
      "type": "function"
    },
    {
      "inputs": [],
      "name": "stabilityPool",
      "outputs": [
        {
          "internalType": "address",
          "name": "",
          "type": "address"
        }
      ],
      "stateMutability": "view",
      "type": "function"
    },
    {
      "inputs": [],
      "name": "timelockAddress",
      "outputs": [
        {
          "internalType": "address",
          "name": "",
          "type": "address"
        }
      ],
      "stateMutability": "view",
      "type": "function"
    },
    {
      "inputs": [
        {
          "internalType": "address",
          "name": "newOwner",
          "type": "address"
        }
      ],
      "name": "transferOwnership",
      "outputs": [],
      "stateMutability": "nonpayable",
      "type": "function"
    },
    {
      "inputs": [],
      "name": "treasuryAddress",
      "outputs": [
        {
          "internalType": "address",
          "name": "",
          "type": "address"
        }
      ],
      "stateMutability": "view",
      "type": "function"
    },
    {
      "inputs": [],
      "name": "trenBoxManager",
      "outputs": [
        {
          "internalType": "address",
          "name": "",
          "type": "address"
        }
      ],
      "stateMutability": "view",
      "type": "function"
    },
    {
      "inputs": [],
      "name": "trenBoxManagerOperations",
      "outputs": [
        {
          "internalType": "address",
          "name": "",
          "type": "address"
        }
      ],
      "stateMutability": "view",
      "type": "function"
    },
    {
      "inputs": [],
      "name": "trenBoxStorage",
      "outputs": [
        {
          "internalType": "address",
          "name": "",
          "type": "address"
        }
      ],
      "stateMutability": "view",
      "type": "function"
    },
    {
      "inputs": [],
      "name": "trenStaking",
      "outputs": [
        {
          "internalType": "address",
          "name": "",
          "type": "address"
        }
      ],
      "stateMutability": "view",
      "type": "function"
    },
    {
      "inputs": [
        {
          "internalType": "address",
          "name": "newImplementation",
          "type": "address"
        },
        {
          "internalType": "bytes",
          "name": "data",
          "type": "bytes"
        }
      ],
      "name": "upgradeToAndCall",
      "outputs": [],
      "stateMutability": "payable",
      "type": "function"
    }
  ],
  "transactionHash": "0xccec401b6747fba66329a75f811bc696bd078c222ce41c0514e5e6d36ddd2261",
  "args": [],
  "numDeployments": 1,
  "solcInputHash": "10f736271acd8614150314323b008696",
  "bytecode": "0x60a06040523060805234801561001457600080fd5b50608051615dd36200003f60003960008181613bdd01528181613c060152613d470152615dd36000f3fe6080604052600436106102515760003560e01c806395fb16bb11610139578063c4d66de8116100b6578063d9eb5ff61161007a578063d9eb5ff61461074f578063e256888f1461076f578063f1c05a7e14610785578063f2fde38b146107a5578063f8d89898146107c5578063fe060733146107e557600080fd5b8063c4d66de81461069e578063c5f956af146106be578063c8564c62146106de578063cc8b21e41461070f578063d58d446c1461072f57600080fd5b8063b9571721116100fd578063b9571721146105fe578063bf74ba071461061e578063c05c5e941461063e578063c394a7fa1461065e578063c415b95c1461067e57600080fd5b806395fb16bb146105225780639e86d0c414610542578063a3f4df7e14610562578063ad3cb1cc146105b8578063ad59db65146105e957600080fd5b80634f1ef286116101d2578063715018a611610196578063715018a61461045a578063741bef1a1461046f57806377553ad41461048f57806382eaca21146104af57806386b9d81f146104c55780638da5cb5b146104e557600080fd5b80634f1ef286146103d257806352d1902d146103e557806355dafa46146103fa5780636a85d67d1461041a578063701526b41461043a57600080fd5b8063301be45911610219578063301be459146103235780633f84a44d1461035257806340a44bd1146103725780634169467d146103925780634bc66f32146103b257600080fd5b806301c9310014610256578063048c661d1461027857806309e198e0146102b55780630a34d4d6146102d557806327d04b35146102f5575b600080fd5b34801561026257600080fd5b5061027661027136600461573b565b610805565b005b34801561028457600080fd5b50600954610298906001600160a01b031681565b6040516001600160a01b0390911681526020015b60405180910390f35b3480156102c157600080fd5b506102766102d0366004615758565b610856565b3480156102e157600080fd5b50600d54610298906001600160a01b031681565b34801561030157600080fd5b5061031561031036600461573b565b610b0e565b6040519081526020016102ac565b34801561032f57600080fd5b5061034361033e366004615784565b610b84565b6040516102ac939291906157bf565b34801561035e57600080fd5b50600e54610298906001600160a01b031681565b34801561037e57600080fd5b5061027661038d3660046157e0565b611226565b34801561039e57600080fd5b50600554610298906001600160a01b031681565b3480156103be57600080fd5b50600a54610298906001600160a01b031681565b6102766103e03660046158a8565b61195e565b3480156103f157600080fd5b50610315611979565b34801561040657600080fd5b50600654610298906001600160a01b031681565b34801561042657600080fd5b5061027661043536600461573b565b611996565b34801561044657600080fd5b50610343610455366004615784565b6119e7565b34801561046657600080fd5b50610276611cdb565b34801561047b57600080fd5b50600754610298906001600160a01b031681565b34801561049b57600080fd5b50600154610298906001600160a01b031681565b3480156104bb57600080fd5b5061031560305481565b3480156104d157600080fd5b506102766104e0366004615950565b611cef565b3480156104f157600080fd5b507f9016d09d72d40fdae2fd8ceac6b6234c7706214fd39c1cd1e609a0528c199300546001600160a01b0316610298565b34801561052e57600080fd5b50600254610298906001600160a01b031681565b34801561054e57600080fd5b5061031561055d36600461573b565b611de4565b34801561056e57600080fd5b506105ab6040518060400160405280601881526020017f5472656e426f784d616e616765724f7065726174696f6e73000000000000000081525081565b6040516102ac91906159ad565b3480156105c457600080fd5b506105ab604051806040016040528060058152602001640352e302e360dc1b81525081565b3480156105f557600080fd5b50610315601981565b34801561060a57600080fd5b506102766106193660046159e0565b611e17565b34801561062a57600080fd5b50610276610639366004615a55565b6122c0565b34801561064a57600080fd5b50600054610298906001600160a01b031681565b34801561066a57600080fd5b50610315610679366004615a6e565b612355565b34801561068a57600080fd5b50600454610298906001600160a01b031681565b3480156106aa57600080fd5b506102766106b936600461573b565b612368565b3480156106ca57600080fd5b50600b54610298906001600160a01b031681565b3480156106ea57600080fd5b50600e546106ff90600160a01b900460ff1681565b60405190151581526020016102ac565b34801561071b57600080fd5b50600854610298906001600160a01b031681565b34801561073b57600080fd5b5061027661074a366004615758565b612488565b34801561075b57600080fd5b5061027661076a366004615a90565b61292b565b34801561077b57600080fd5b5061031561271081565b34801561079157600080fd5b50600c54610298906001600160a01b031681565b3480156107b157600080fd5b506102766107c036600461573b565b612ac8565b3480156107d157600080fd5b50600354610298906001600160a01b031681565b3480156107f157600080fd5b5061027661080036600461573b565b612b06565b61080d612b0f565b6001600160a01b038116610834576040516385d3330760e01b815260040160405180910390fd5b600680546001600160a01b0319166001600160a01b0392909216919091179055565b61085e612b6a565b610866612b0f565b61089a6040518060a00160405280600081526020016000815260200160001515815260200160008152602001600081525090565b6108a2615692565b600960009054906101000a90046001600160a01b03166001600160a01b0316630d9a6b356040518163ffffffff1660e01b8152600401602060405180830381865afa1580156108f5573d6000803e3d6000fd5b505050506040513d601f19601f820116820180604052508101906109199190615b57565b6020830152600754604051635670bcc760e11b81526001600160a01b0386811660048301529091169063ace1798e90602401602060405180830381865afa158015610968573d6000803e3d6000fd5b505050506040513d601f19601f8201168201806040525081019061098c9190615b57565b80835261099a908590612ba2565b15801560408401526109c3576109bc8483600001518460200151866001612c27565b90506109dc565b6109d98483600001518460200151866001613132565b90505b8060200151600003610a015760405163520522c760e01b815260040160405180910390fd5b600c5460c082015160e08301516080840151604051637012f7fb60e01b81526001600160a01b03898116600483015260248201949094526044810192909252606482015260006084820152911690637012f7fb9060a401600060405180830381600087803b158015610a7257600080fd5b505af1158015610a86573d6000803e3d6000fd5b50505050836001600160a01b03167f28da0b0f71bad1837e19234c912ff0ceba4ebe7516fcadb9d5e7aa99a4ab6b4582602001518361010001518460000151610acf9190615b86565b606085810151604080519485526020850193909352838301529051918290030190a25050610b0a6001600080516020615da783398151915255565b5050565b600e5460405163b429464160e01b81526001600160a01b038381166004830152600092169063b4294641906024015b602060405180830381865afa158015610b5a573d6000803e3d6000fd5b505050506040513d601f19601f82011682018060405250810190610b7e9190615b57565b92915050565b604080516080810182526001600160a01b0386811680835260208301879052828401869052606083018590526008549351637608271560e01b81526004810191909152600093849384939092899285921690637608271590602401602060405180830381865afa158015610bfc573d6000803e3d6000fd5b505050506040513d601f19601f82011682018060405250810190610c209190615b99565b90505b6001600160a01b03811615801590610d2257506000548351604051633c557a6f60e11b81526001600160a01b0391821660048201529116906378aaf4de90602401602060405180830381865afa158015610c81573d6000803e3d6000fd5b505050506040513d601f19601f82011682018060405250810190610ca59190615b57565b600c548451604080870151905163b1eafaab60e01b81526001600160a01b039093169263b1eafaab92610cdf929091879190600401615bb6565b602060405180830381865afa158015610cfc573d6000803e3d6000fd5b505050506040513d601f19601f82011682018060405250810190610d209190615b57565b105b15610da05760085483516040516239c6e160ea1b81526001600160a01b039092169163e71b840091610d58918590600401615bda565b602060405180830381865afa158015610d75573d6000803e3d6000fd5b505050506040513d601f19601f82011682018060405250810190610d999190615b99565b9050610c23565b8095508260600151600003610db85760001960608401525b6001600160a01b03811615801590610dcf57508115155b8015610deb575060608301805190610de682615bf4565b905215155b1561120d578251600c5460405162a79b1d60e31b8152600092610eef9290916001600160a01b039091169063053cd8e890610e2c9084908890600401615bda565b602060405180830381865afa158015610e49573d6000803e3d6000fd5b505050506040513d601f19601f82011682018060405250810190610e6d9190615b57565b600c54875160405163f9a3d41f60e01b81526001600160a01b039092169163f9a3d41f91610e9f918990600401615bda565b602060405180830381865afa158015610ebc573d6000803e3d6000fd5b505050506040513d601f19601f82011682018060405250810190610ee09190615b57565b610eea9190615c0b565b61334f565b9050828111610f0957610f028184615b86565b9250611193565b60005484516040516321b443a360e21b81526001600160a01b0391821660048201529116906386d10e8c90602401602060405180830381865afa158015610f54573d6000803e3d6000fd5b505050506040513d601f19601f82011682018060405250810190610f789190615b57565b81111561118d576000805485516040516321b443a360e21b81526001600160a01b03918216600482015261100492879216906386d10e8c906024015b602060405180830381865afa158015610fd1573d6000803e3d6000fd5b505050506040513d601f19601f82011682018060405250810190610ff59190615b57565b610fff9085615b86565b6133c8565b600c548651604051635f0b504b60e11b81529293506000926001600160a01b039092169163be16a0969161103c918890600401615bda565b602060405180830381865afa158015611059573d6000803e3d6000fd5b505050506040513d601f19601f8201168201806040525081019061107d9190615b57565b600c548751604051633517ff1b60e11b81526001600160a01b0390921691636a2ffe36916110af918990600401615bda565b602060405180830381865afa1580156110cc573d6000803e3d6000fd5b505050506040513d601f19601f820116820180604052508101906110f09190615b57565b6110fa9190615c0b565b905060008660400151670de0b6b3a7640000846111179190615c1e565b6111219190615c4b565b9050612710603054826111349190615c1e565b61113e9190615c4b565b9050600061114c8284615b86565b9050600061115a8587615b86565b9050600061116c8a60000151836133de565b90506111788382613457565b9b50611184868a615b86565b98505050505050505b5061120d565b60085484516040516239c6e160ea1b81526001600160a01b039092169163e71b8400916111c4918690600401615bda565b602060405180830381865afa1580156111e1573d6000803e3d6000fd5b505050506040513d601f19601f820116820180604052508101906112059190615b99565b915050610db8565b611217828a615b86565b93505050509450945094915050565b61122e612b6a565b61127660405180610100016040528060008152602001600081526020016000815260200160008152602001600081526020016000815260200160008152602001600081525090565b600754604051635670bcc760e11b81526001600160a01b038b811660048301529091169063ace1798e90602401602060405180830381865afa1580156112c0573d6000803e3d6000fd5b505050506040513d601f19601f820116820180604052508101906112e49190615b57565b60c082018190526112fa908a9084908b9061348d565b61130389610b0e565b60e0820152878152600c5460c08201516040516352576cdf60e01b81526000926001600160a01b0316916352576cdf91611344918e918b9190600401615bb6565b6020604051808303816000875af1158015611363573d6000803e3d6000fd5b505050506040513d601f19601f820116820180604052508101906113879190615c5f565b1561139357508461157d565b600854604051637608271560e01b81526001600160a01b038c8116600483015290911690637608271590602401602060405180830381865afa1580156113dd573d6000803e3d6000fd5b505050506040513d601f19601f820116820180604052508101906114019190615b99565b90505b6001600160a01b038116158015906114ff5750600054604051633c557a6f60e11b81526001600160a01b038c81166004830152909116906378aaf4de90602401602060405180830381865afa158015611461573d6000803e3d6000fd5b505050506040513d601f19601f820116820180604052508101906114859190615b57565b600c5460c084015160405163b1eafaab60e01b81526001600160a01b039092169163b1eafaab916114bc918f918791600401615bb6565b602060405180830381865afa1580156114d9573d6000803e3d6000fd5b505050506040513d601f19601f820116820180604052508101906114fd9190615b57565b105b1561157d576008546040516239c6e160ea1b81526001600160a01b039091169063e71b840090611535908d908590600401615bda565b602060405180830381865afa158015611552573d6000803e3d6000fd5b505050506040513d601f19601f820116820180604052508101906115769190615b99565b9050611404565b8360000361158b5760001993505b6001600160a01b038116158015906115a35750815115155b80156115ae57508315155b1561170e57836115bd81615bf4565b6008546040516239c6e160ea1b8152919650600092506001600160a01b03169063e71b8400906115f3908e908690600401615bda565b602060405180830381865afa158015611610573d6000803e3d6000fd5b505050506040513d601f19601f820116820180604052508101906116349190615b99565b600c5460405163df4fb9ef60e01b81529192506001600160a01b03169063df4fb9ef90611667908e908690600401615bda565b600060405180830381600087803b15801561168157600080fd5b505af1158015611695573d6000803e3d6000fd5b5050505060006116b28c8486600001518760c001518e8e8d61373d565b90508060400151156116c557505061170e565b805160208501516116d69190615c0b565b60208086019190915281015160408501516116f19190615c0b565b6040850152805184516117049190615b86565b845250905061158b565b8160400151600003611733576040516346c7d89b60e11b815260040160405180910390fd5b600c5460408084015160c085015160e0860151925163c5d75f7b60e01b81526001600160a01b038f811660048301526024820193909352604481019190915260648101929092529091169063c5d75f7b90608401600060405180830381600087803b1580156117a157600080fd5b505af11580156117b5573d6000803e3d6000fd5b5050600c546040858101519051631ee9211f60e01b81526001600160a01b038f81166004830152602482019290925291169250631ee9211f9150604401602060405180830381865afa15801561180f573d6000803e3d6000fd5b505050506040513d601f19601f820116820180604052508101906118339190615b57565b60608301819052604083015161184a919085613b1d565b600c5460208301516060840151604080860151905163025eeff360e41b81526001600160a01b038f811660048301523360248301526044820194909452606481019290925260848201529116906325eeff309060a401600060405180830381600087803b1580156118ba57600080fd5b505af11580156118ce573d6000803e3d6000fd5b50505050896001600160a01b03167f08b6f1ce3f9ab2722e8ea40c31a3e3a806a41702c5994f29af43dc0c1f2837df8a846020015185604001518660600151604051611933949392919093845260208401929092526040830152606082015260800190565b60405180910390a250506119546001600080516020615da783398151915255565b5050505050505050565b611966613bd2565b61196f82613c77565b610b0a8282613c7f565b6000611983613d3c565b50600080516020615d8783398151915290565b61199e612b0f565b6001600160a01b0381166119c55760405163706ebc6560e11b815260040160405180910390fd5b600280546001600160a01b0319166001600160a01b0392909216919091179055565b600c5460405163bc8793a960e01b81526001600160a01b038681166004830152600092839283928392169063bc8793a990602401602060405180830381865afa158015611a38573d6000803e3d6000fd5b505050506040513d601f19601f82011682018060405250810190611a5c9190615b57565b905080600003611a76576000808693509350935050611cd1565b600854604051637608271560e01b81526001600160a01b038a8116600483015290911690637608271590602401602060405180830381865afa158015611ac0573d6000803e3d6000fd5b505050506040513d601f19601f82011682018060405250810190611ae49190615b99565b600c546040516390ec230160e01b8152919550611b639189916001600160a01b0316906390ec230190611b1d908d908a90600401615bda565b602060405180830381865afa158015611b3a573d6000803e3d6000fd5b505050506040513d601f19601f82011682018060405250810190611b5e9190615b57565b613d85565b925084915060015b86811015611cce5760408051602081018590520160408051601f19818403018152919052805160209091012092506000611ba58385615c81565b600c5460405163c226882360e01b81526001600160a01b038d81166004830152602482018490529293506000929091169063c226882390604401602060405180830381865afa158015611bfc573d6000803e3d6000fd5b505050506040513d601f19601f82011682018060405250810190611c209190615b99565b600c546040516390ec230160e01b81529192506000916001600160a01b03909116906390ec230190611c58908f908690600401615bda565b602060405180830381865afa158015611c75573d6000803e3d6000fd5b505050506040513d601f19601f82011682018060405250810190611c999190615b57565b90506000611ca7828d613d85565b905087811015611cb8578097508298505b84611cc281615c95565b95505050505050611b6b565b50505b9450945094915050565b611ce3612b0f565b611ced6000613da8565b565b600c54604051637316290f60e11b81526001600160a01b039091169063e62c521e90611d219085908590600401615bda565b602060405180830381865afa158015611d3e573d6000803e3d6000fd5b505050506040513d601f19601f82011682018060405250810190611d629190615c5f565b611d7f5760405163327cb9bf60e11b815260040160405180910390fd5b604080516001808252818301909252600091602080830190803683370190505090508181600081518110611db557611db5615cae565b60200260200101906001600160a01b031690816001600160a01b031681525050611ddf838261292b565b505050565b600e54604051635845309f60e11b81526001600160a01b038381166004830152600092169063b08a613e90602401610b3d565b611e1f612b0f565b600e54600160a01b900460ff1615611e4957604051625f22e960e41b815260040160405180910390fd5b600d8114611e6a57604051633f5a111d60e21b815260040160405180910390fd5b60005b600d811015611f0d576000838383818110611e8a57611e8a615cae565b9050602002016020810190611e9f919061573b565b6001600160a01b031603611f055780838383818110611ec057611ec0615cae565b9050602002016020810190611ed5919061573b565b604051630d9d339f60e01b815260048101929092526001600160a01b031660248201526044015b60405180910390fd5b600101611e6d565b5081816000818110611f2157611f21615cae565b9050602002016020810190611f36919061573b565b600080546001600160a01b0319166001600160a01b039290921691909117905581816001818110611f6957611f69615cae565b9050602002016020810190611f7e919061573b565b600180546001600160a01b0319166001600160a01b039290921691909117905581816002818110611fb157611fb1615cae565b9050602002016020810190611fc6919061573b565b600380546001600160a01b0319166001600160a01b039290921691909117815582908290818110611ff957611ff9615cae565b905060200201602081019061200e919061573b565b600480546001600160a01b0319166001600160a01b03929092169190911781558290829081811061204157612041615cae565b9050602002016020810190612056919061573b565b600580546001600160a01b0319166001600160a01b03929092169190911781558290829081811061208957612089615cae565b905060200201602081019061209e919061573b565b600780546001600160a01b0319166001600160a01b0392909216919091179055818160068181106120d1576120d1615cae565b90506020020160208101906120e6919061573b565b600880546001600160a01b0319166001600160a01b03929092169190911790558181600781811061211957612119615cae565b905060200201602081019061212e919061573b565b600980546001600160a01b0319166001600160a01b03929092169190911790558181600881811061216157612161615cae565b9050602002016020810190612176919061573b565b600a80546001600160a01b0319166001600160a01b0392909216919091179055818160098181106121a9576121a9615cae565b90506020020160208101906121be919061573b565b600b80546001600160a01b0319166001600160a01b03929092169190911790558181600a8181106121f1576121f1615cae565b9050602002016020810190612206919061573b565b600c80546001600160a01b0319166001600160a01b03929092169190911790558181600b81811061223957612239615cae565b905060200201602081019061224e919061573b565b600d80546001600160a01b0319166001600160a01b03929092169190911790558181600c81811061228157612281615cae565b9050602002016020810190612296919061573b565b600e80546001600160a81b0319166001600160a01b039290921691909117600160a01b1790555050565b600a546001600160a01b031633146122eb57604051630e50357d60e01b815260040160405180910390fd5b6125e48110806122fc575061271081115b1561231a576040516334d8ee5360e21b815260040160405180910390fd5b60308190556040518181527f39e82d837dcc454e3b68bd2a39ec088a78af1570fa1a2de0b9b2e2d45c1158c69060200160405180910390a150565b60006123618383613457565b9392505050565b7ff0c57e16840df040f15088dc2f81fe391c3923bec73e23a9662efc9c229c6a008054600160401b810460ff16159067ffffffffffffffff166000811580156123ae5750825b905060008267ffffffffffffffff1660011480156123cb5750303b155b9050811580156123d9575080155b156123f75760405163f92ee8a960e01b815260040160405180910390fd5b845467ffffffffffffffff19166001178555831561242157845460ff60401b1916600160401b1785555b61242a86613e19565b612432613e2a565b61243a613e32565b831561248057845460ff60401b19168555604051600181527fc7f505b2f371ae2175ee4913f4499e1f2633a7b5936321eed1cdaeb6115181d29060200160405180910390a15b505050505050565b612490612b6a565b6124c46040518060a00160405280600081526020016000815260200160001515815260200160008152602001600081525090565b6124cc615692565b600754604051635670bcc760e11b81526001600160a01b0386811660048301529091169063ace1798e90602401602060405180830381865afa158015612516573d6000803e3d6000fd5b505050506040513d601f19601f8201168201806040525081019061253a9190615b57565b825260095460408051630d9a6b3560e01b815290516001600160a01b0390921691630d9a6b35916004808201926020929091908290030181865afa158015612586573d6000803e3d6000fd5b505050506040513d601f19601f820116820180604052508101906125aa9190615b57565b602083015281516125bc908590612ba2565b15801560408401526125e5576125de8483600001518460200151866000612c27565b90506125fe565b6125fb8483600001518460200151866000613132565b90505b80602001516000036126235760405163520522c760e01b815260040160405180910390fd5b600c5460c082015160e0830151608084015160a0850151604051637012f7fb60e01b81526001600160a01b038a811660048301526024820195909552604481019390935260648301919091526084820152911690637012f7fb9060a401600060405180830381600087803b15801561269a57600080fd5b505af11580156126ae573d6000803e3d6000fd5b5050505080610100015160001461279857600e5461010082015160405163181a023b60e01b81526001600160a01b038781166004830152602482019290925291169063181a023b90604401600060405180830381600087803b15801561271357600080fd5b505af1158015612727573d6000803e3d6000fd5b5050600e546101008401516040516367183e5360e11b81526001600160a01b03898116600483015260248201929092529116925063ce307ca69150604401600060405180830381600087803b15801561277f57600080fd5b505af1158015612793573d6000803e3d6000fd5b505050505b600c54604082810151905163da3835ad60e01b81526001600160a01b038781166004830152602482019290925291169063da3835ad90604401600060405180830381600087803b1580156127eb57600080fd5b505af11580156127ff573d6000803e3d6000fd5b5050506020820151606084015250610100810151604082015182516128249190615b86565b61282e9190615b86565b6080808401829052606080850151604080860151868401518251938452602084019690965290820152908101929092526001600160a01b038616917fa3f221854f649364e9a3bb384dd1ff938482664f4a0eac0f6e39a542f5193bd3910160405180910390a2600c546060820151604080840151905163b65c72bf60e01b81526001600160a01b0388811660048301523360248301526044820193909352606481019190915291169063b65c72bf90608401600060405180830381600087803b1580156128fa57600080fd5b505af115801561290e573d6000803e3d6000fd5b505050505050610b0a6001600080516020615da783398151915255565b612933612b6a565b80511580612942575060198151115b1561296057604051637f9c2a2560e01b815260040160405180910390fd5b6129946040518060a00160405280600081526020016000815260200160001515815260200160008152602001600081525090565b61299c615692565b600960009054906101000a90046001600160a01b03166001600160a01b0316630d9a6b356040518163ffffffff1660e01b8152600401602060405180830381865afa1580156129ef573d6000803e3d6000fd5b505050506040513d601f19601f82011682018060405250810190612a139190615b57565b6020830152600754604051635670bcc760e11b81526001600160a01b0386811660048301529091169063ace1798e90602401602060405180830381865afa158015612a62573d6000803e3d6000fd5b505050506040513d601f19601f82011682018060405250810190612a869190615b57565b808352612a94908590612ba2565b1580156040840152612ab4576125de848360000151846020015186613e42565b6125fb8483600001518460200151866141ea565b612ad0612b0f565b6001600160a01b038116612afa57604051631e4fbdf760e01b815260006004820152602401611efc565b612b0381613da8565b50565b612b0381613c77565b33612b417f9016d09d72d40fdae2fd8ceac6b6234c7706214fd39c1cd1e609a0528c199300546001600160a01b031690565b6001600160a01b031614611ced5760405163118cdaa760e01b8152336004820152602401611efc565b600080516020615da7833981519152805460011901612b9c57604051633ee5aeb560e01b815260040160405180910390fd5b60029055565b600080612baf848461436b565b60005460405163316a306d60e11b81526001600160a01b0387811660048301529293509116906362d460da90602401602060405180830381865afa158015612bfb573d6000803e3d6000fd5b505050506040513d601f19601f82011682018060405250810190612c1f9190615b57565b119392505050565b612c2f615692565b612c376156de565b612c3f615692565b8582526000608083015260208201879052612c5988610b0e565b60a0830152612c6788611de4565b60c0830152600854604051637608271560e01b81526001600160a01b038a8116600483015290911690637608271590602401602060405180830381865afa158015612cb6573d6000803e3d6000fd5b505050506040513d601f19601f82011682018060405250810190612cda9190615b99565b6001600160a01b039081166060840152600854604051631bdb4c8d60e01b81528a831660048201526000929190911690631bdb4c8d90602401602060405180830381865afa158015612d30573d6000803e3d6000fd5b505050506040513d601f19601f82011682018060405250810190612d549190615b99565b905060005b8681108015612d7e5750816001600160a01b031684606001516001600160a01b031614155b156131255760085460608501516040516239c6e160ea1b81526000926001600160a01b03169163e71b840091612db8918f91600401615bda565b602060405180830381865afa158015612dd5573d6000803e3d6000fd5b505050506040513d601f19601f82011682018060405250810190612df99190615b99565b9050600c60009054906101000a90046001600160a01b03166001600160a01b031663b1eafaab8c876060015188602001516040518463ffffffff1660e01b8152600401612e4893929190615bb6565b602060405180830381865afa158015612e65573d6000803e3d6000fd5b505050506040513d601f19601f82011682018060405250810190612e899190615b57565b6040860152608085015161302557600054604051633c557a6f60e11b81526001600160a01b038d81166004830152909116906378aaf4de90602401602060405180830381865afa158015612ee1573d6000803e3d6000fd5b505050506040513d601f19601f82011682018060405250810190612f059190615b57565b856040015110158015612f1757508451155b15612f225750613125565b6000612f3b8660c001518760a00151886020015161439a565b90508715612f6a57612f638c876060015188604001518960000151858b6020015160016143cd565b9450612f8d565b612f8a8c876060015188604001518960000151858b6020015160006143cd565b94505b60808501518651612f9e9190615b86565b8652608085015160a0870151612fb49190615b86565b8660a001818152505084610100015185604001518660a001518860c00151612fdc9190615b86565b612fe69190615b86565b612ff09190615b86565b60c0870152612fff8786614d4e565b96506130198c8760c001518860a001518960200151614e38565b1560808701525061310f565b846080015180156130a65750600054604051633c557a6f60e11b81526001600160a01b038d81166004830152909116906378aaf4de90602401602060405180830381865afa15801561307b573d6000803e3d6000fd5b505050506040513d601f19601f8201168201806040525081019061309f9190615b57565b8560400151105b156131095786156130cd576130c68b866060015187600001516001614ec0565b93506130e5565b6130e28b866060015187600001516000614ec0565b93505b608084015185516130f69190615b86565b85526131028685614d4e565b955061310f565b50613125565b6001600160a01b03166060850152600101612d59565b5050505095945050505050565b61313a615692565b6131426156de565b61314a615692565b85825260005b8581101561332f57600854604051637608271560e01b81526001600160a01b038b8116600483015290911690637608271590602401602060405180830381865afa1580156131a2573d6000803e3d6000fd5b505050506040513d601f19601f820116820180604052508101906131c69190615b99565b6001600160a01b0390811660608501819052600c5460405163b1eafaab60e01b815292169163b1eafaab91613202918d91908d90600401615bb6565b602060405180830381865afa15801561321f573d6000803e3d6000fd5b505050506040513d601f19601f820116820180604052508101906132439190615b57565b6040848101919091526000549051633c557a6f60e11b81526001600160a01b038b81166004830152909116906378aaf4de90602401602060405180830381865afa158015613295573d6000803e3d6000fd5b505050506040513d601f19601f820116820180604052508101906132b99190615b57565b836040015110156133225784156132e6576132df89846060015185600001516001614ec0565b91506132fe565b6132fb89846060015185600001516000614ec0565b91505b6080820151835161330f9190615b86565b835261331b8483614d4e565b9350613327565b61332f565b600101613150565b50505095945050505050565b6001600080516020615da783398151915255565b6000805460405163c08261db60e01b81526001600160a01b0385811660048301529091169063c08261db90602401602060405180830381865afa15801561339a573d6000803e3d6000fd5b505050506040513d601f19601f820116820180604052508101906133be9190615b57565b6123619083615b86565b60008183106133d75781612361565b5090919050565b6000805460405163c08261db60e01b81526001600160a01b0385811660048301529091169063c08261db90602401602060405180830381865afa158015613429573d6000803e3d6000fd5b505050506040513d601f19601f8201168201806040525081019061344d9190615b57565b6123619083615c0b565b60008115613484578161347368056bc75e2d6310000085615c1e565b61347d9190615c4b565b9050610b7e565b50600019610b7e565b60008054604051633d15092560e21b81526001600160a01b0387811660048301529091169063f454249490602401602060405180830381865afa1580156134d8573d6000803e3d6000fd5b505050506040513d601f19601f820116820180604052508101906134fc9190615b57565b90504281111561351f57604051637fe8d35d60e01b815260040160405180910390fd5b6000805460405163443c4fcb60e01b81526001600160a01b0388811660048301529091169063443c4fcb90602401602060405180830381865afa15801561356a573d6000803e3d6000fd5b505050506040513d601f19601f8201168201806040525081019061358e9190615b57565b9050808510806135a55750670de0b6b3a764000085115b156135d457604051636b44726760e11b815260048101829052670de0b6b3a76400006024820152604401611efc565b836000036135f557604051630fcbc67160e21b815260040160405180910390fd5b6003546040516370a0823160e01b81523360048201526000916001600160a01b0316906370a0823190602401602060405180830381865afa15801561363e573d6000803e3d6000fd5b505050506040513d601f19601f820116820180604052508101906136629190615b57565b9050848110156136885760405163780a921960e11b815260048101829052602401611efc565b6000613694888661436b565b60008054604051633c557a6f60e11b81526001600160a01b038c81166004830152939450919216906378aaf4de90602401602060405180830381865afa1580156136e2573d6000803e3d6000fd5b505050506040513d601f19601f820116820180604052508101906137069190615b57565b9050808210156137325760405162132add60e91b81526004810183905260248101829052604401611efc565b505050505050505050565b613763604051806060016040528060008152602001600081526020016000151581525090565b600c5460405163f9a3d41f60e01b81526000916001600160a01b03169063f9a3d41f90613796908c908c90600401615bda565b602060405180830381865afa1580156137b3573d6000803e3d6000fd5b505050506040513d601f19601f820116820180604052508101906137d79190615b57565b600c54604051633517ff1b60e11b81529192506000916001600160a01b0390911690636a2ffe369061380f908d908d90600401615bda565b602060405180830381865afa15801561382c573d6000803e3d6000fd5b505050506040513d601f19601f820116820180604052508101906138509190615b57565b60005460405163c08261db60e01b81526001600160a01b038d81166004830152929350613889928b92169063c08261db90602401610fb4565b80845287906138a190670de0b6b3a764000090615c1e565b6138ab9190615c4b565b60208401819052603054612710916138c39190615c1e565b6138cd9190615c4b565b602084015282516000906138e19084615b86565b905060008460200151836138f59190615b86565b60005460405163c08261db60e01b81526001600160a01b038f8116600483015292935091169063c08261db90602401602060405180830381865afa158015613941573d6000803e3d6000fd5b505050506040513d601f19601f820116820180604052508101906139659190615b57565b82036139d657600c5460405163456dc0ff60e11b81526001600160a01b0390911690638adb81fe9061399f908f908f908690600401615bb6565b600060405180830381600087803b1580156139b957600080fd5b505af11580156139cd573d6000803e3d6000fd5b50505050613b0d565b60006139e28284613457565b90508681141580613a6857506000546040516321b443a360e21b81526001600160a01b038f81166004830152909116906386d10e8c90602401602060405180830381865afa158015613a38573d6000803e3d6000fd5b505050506040513d601f19601f82011682018060405250810190613a5c9190615b57565b613a668e8561334f565b105b15613a7f5750506001604085015250613b12915050565b600c5460405163038027ff60e21b81526001600160a01b038f811660048301528e811660248301526044820186905260648201859052608482018490528b811660a48301528a811660c483015290911690630e009ffc9060e401600060405180830381600087803b158015613af357600080fd5b505af1158015613b07573d6000803e3d6000fd5b50505050505b505050505b979650505050505050565b6000805460408051635105d77360e11b8152905185926001600160a01b03169163a20baee69160048083019260209291908290030181865afa158015613b67573d6000803e3d6000fd5b505050506040513d601f19601f82011682018060405250810190613b8b9190615b57565b613b959086615c1e565b613b9f9190615c4b565b905081811115613bcc57604051632e364cc160e21b81526004810182905260248101839052604401611efc565b50505050565b306001600160a01b037f0000000000000000000000000000000000000000000000000000000000000000161480613c5957507f00000000000000000000000000000000000000000000000000000000000000006001600160a01b0316613c4d600080516020615d87833981519152546001600160a01b031690565b6001600160a01b031614155b15611ced5760405163703e46dd60e11b815260040160405180910390fd5b612b03612b0f565b816001600160a01b03166352d1902d6040518163ffffffff1660e01b8152600401602060405180830381865afa925050508015613cd9575060408051601f3d908101601f19168201909252613cd691810190615b57565b60015b613d0157604051634c9c8ce360e01b81526001600160a01b0383166004820152602401611efc565b600080516020615d878339815191528114613d3257604051632a87526960e21b815260048101829052602401611efc565b611ddf838361523a565b306001600160a01b037f00000000000000000000000000000000000000000000000000000000000000001614611ced5760405163703e46dd60e11b815260040160405180910390fd5b600081831015613d9e57613d998383615b86565b612361565b6123618284615b86565b7f9016d09d72d40fdae2fd8ceac6b6234c7706214fd39c1cd1e609a0528c19930080546001600160a01b031981166001600160a01b03848116918217845560405192169182907f8be0079c531659141344cd1fd0a4f28419497f9722a3daafe3b4186f6b6457e090600090a3505050565b613e21615290565b612b03816152d9565b611ced615290565b613e3a615290565b611ced6152e1565b613e4a615692565b613e526156de565b613e5a615692565b84825260006080830152613e6d87610b0e565b60a0830152613e7b87611de4565b60c083015260005b84518110156141df57848181518110613e9e57613e9e615cae565b60209081029190910101516001600160a01b031660608401526001600c546060850151604051632862f79760e11b81526001600160a01b03909216916350c5ef2e91613eef918d9190600401615bda565b602060405180830381865afa158015613f0c573d6000803e3d6000fd5b505050506040513d601f19601f82011682018060405250810190613f309190615b57565b14613f3d57600101613e83565b600c54606084015160405163b1eafaab60e01b81526001600160a01b039092169163b1eafaab91613f75918c91908c90600401615bb6565b602060405180830381865afa158015613f92573d6000803e3d6000fd5b505050506040513d601f19601f82011682018060405250810190613fb69190615b57565b6040840152608083015161411a57600054604051633c557a6f60e11b81526001600160a01b038a81166004830152909116906378aaf4de90602401602060405180830381865afa15801561400e573d6000803e3d6000fd5b505050506040513d601f19601f820116820180604052508101906140329190615b57565b83604001511015801561404457508251155b1561405157600101613e83565b60006140668460c001518560a001518a61439a565b905061408489856060015186604001518760000151858d60006143cd565b6080810151855191945061409791615b86565b8452608083015160a08501516140ad9190615b86565b8460a001818152505082610100015183604001518460a001518660c001516140d59190615b86565b6140df9190615b86565b6140e99190615b86565b60c08501526140f88584614d4e565b945061410e898560c001518660a001518b614e38565b156080850152506141d7565b8260800151801561419b5750600054604051633c557a6f60e11b81526001600160a01b038a81166004830152909116906378aaf4de90602401602060405180830381865afa158015614170573d6000803e3d6000fd5b505050506040513d601f19601f820116820180604052508101906141949190615b57565b8360400151105b156141d7576141b588846060015185600001516000614ec0565b608081015184519193506141c891615b86565b83526141d48483614d4e565b93505b600101613e83565b505050949350505050565b6141f2615692565b6141fa6156de565b614202615692565b84825260005b84518110156141df5784818151811061422357614223615cae565b60209081029190910101516001600160a01b0390811660608501819052600c5460405163b1eafaab60e01b815292169163b1eafaab9161426a918c91908c90600401615bb6565b602060405180830381865afa158015614287573d6000803e3d6000fd5b505050506040513d601f19601f820116820180604052508101906142ab9190615b57565b6040848101919091526000549051633c557a6f60e11b81526001600160a01b038a81166004830152909116906378aaf4de90602401602060405180830381865afa1580156142fd573d6000803e3d6000fd5b505050506040513d601f19601f820116820180604052508101906143219190615b57565b836040015110156143635761434188846060015185600001516000614ec0565b6080810151845191935061435491615b86565b83526143608483614d4e565b93505b600101614208565b60008061437784611de4565b9050600061438485610b0e565b905061439182828661439a565b95945050505050565b600082156143c2576000836143af8487615c1e565b6143b99190615c4b565b91506123619050565b506000199392505050565b6143d5615692565b6143f960405180606001604052806000815260200160008152602001600081525090565b600c5460405163bc8793a960e01b81526001600160a01b038b81166004830152600192169063bc8793a990602401602060405180830381865afa158015614444573d6000803e3d6000fd5b505050506040513d601f19601f820116820180604052508101906144689190615b57565b116144735750613b12565b600c546040516309bde83560e21b81526001600160a01b03909116906326f7a0d4906144a5908c908c90600401615bda565b608060405180830381865afa1580156144c2573d6000803e3d6000fd5b505050506040513d601f19601f820116820180604052508101906144e69190615cc4565b60408581019190915260208086019290925290850191909152908352600054905163c08261db60e01b81526001600160a01b038b811660048301529091169063c08261db90602401602060405180830381865afa15801561454b573d6000803e3d6000fd5b505050506040513d601f19601f8201168201806040525081019061456f9190615b57565b6060830152821561458657602082015181526145ad565b6145948983602001516152e9565b6040830181905260208301516145aa9190615b86565b81525b60008054906101000a90046001600160a01b03166001600160a01b03166372fe25aa6040518163ffffffff1660e01b8152600401602060405180830381865afa1580156145fe573d6000803e3d6000fd5b505050506040513d601f19601f820116820180604052508101906146229190615b57565b8711158061462d5750825b1561487a57600c54602082015160408084015190516330d0a26160e01b81526001600160a01b03909316926330d0a2619261466c928e926004016157bf565b600060405180830381600087803b15801561468657600080fd5b505af115801561469a573d6000803e3d6000fd5b5050600c54604051633ed3a18f60e21b81526001600160a01b03909116925063fb4e863c91506146d0908c908c90600401615bda565b600060405180830381600087803b1580156146ea57600080fd5b505af11580156146fe573d6000803e3d6000fd5b505060006080850181905260a08501525050815160c0830152805160e083015282156147d857600c54606083015160405163ca75007960e01b81526001600160a01b039092169163ca7500799161475b918d918d91600401615bb6565b600060405180830381600087803b15801561477557600080fd5b505af1158015614789573d6000803e3d6000fd5b50505050876001600160a01b0316896001600160a01b0316600080516020615d678339815191528460000151856020015160046040516147cb93929190615cfa565b60405180910390a3614d42565b600c5460405163550bc5ab60e11b81526001600160a01b039091169063aa178b569061480a908c908c90600401615bda565b600060405180830381600087803b15801561482457600080fd5b505af1158015614838573d6000803e3d6000fd5b50505050876001600160a01b0316896001600160a01b0316600080516020615d678339815191528460000151856020015160026040516147cb93929190615cfa565b60008054906101000a90046001600160a01b03166001600160a01b03166372fe25aa6040518163ffffffff1660e01b8152600401602060405180830381865afa1580156148cb573d6000803e3d6000fd5b505050506040513d601f19601f820116820180604052508101906148ef9190615b57565b871180156149695750600054604051633c557a6f60e11b81526001600160a01b038b81166004830152909116906378aaf4de90602401602060405180830381865afa158015614942573d6000803e3d6000fd5b505050506040513d601f19601f820116820180604052508101906149669190615b57565b87105b15614a9457600c54602082015160408084015190516330d0a26160e01b81526001600160a01b03909316926330d0a261926149a8928e926004016157bf565b600060405180830381600087803b1580156149c257600080fd5b505af11580156149d6573d6000803e3d6000fd5b5050600c54604051633ed3a18f60e21b81526001600160a01b03909116925063fb4e863c9150614a0c908c908c90600401615bda565b600060405180830381600087803b158015614a2657600080fd5b505af1158015614a3a573d6000803e3d6000fd5b505083518351614a4e935090915088615362565b60e086015260c085015260a08401526080830152600c5460405163550bc5ab60e11b81526001600160a01b039091169063aa178b569061480a908c908c90600401615bda565b600054604051633c557a6f60e11b81526001600160a01b038b81166004830152909116906378aaf4de90602401602060405180830381865afa158015614ade573d6000803e3d6000fd5b505050506040513d601f19601f82011682018060405250810190614b029190615b57565b8710158015614b1057508487105b8015614b1d575081518610155b15614d3157600c54602082015160408084015190516330d0a26160e01b81526001600160a01b03909316926330d0a26192614b5c928e926004016157bf565b600060405180830381600087803b158015614b7657600080fd5b505af1158015614b8a573d6000803e3d6000fd5b5050505085600003614b9e57614b9e615d34565b600c54604051633ed3a18f60e21b81526001600160a01b039091169063fb4e863c90614bd0908c908c90600401615bda565b600060405180830381600087803b158015614bea57600080fd5b505af1158015614bfe573d6000803e3d6000fd5b50505050614c168983600001518460200151876153c3565b600c5460405163550bc5ab60e11b81529193506001600160a01b03169063aa178b5690614c49908c908c90600401615bda565b600060405180830381600087803b158015614c6357600080fd5b505af1158015614c77573d6000803e3d6000fd5b50505050816101000151600014614cf357600e54610100830151604051633600d88160e21b81526001600160a01b039092169163d803620491614cc0918d918d91600401615bb6565b600060405180830381600087803b158015614cda57600080fd5b505af1158015614cee573d6000803e3d6000fd5b505050505b876001600160a01b0316896001600160a01b0316600080516020615d6783398151915284600001518560a0015160026040516147cb93929190615cfa565b614d39615692565b9150613b129050565b50979650505050505050565b614d56615692565b81604001518360400151614d6a9190615c0b565b604082015260608083015190840151614d839190615c0b565b606082015281516020840151614d999190615c0b565b6020808301919091528201518351614db19190615c0b565b815260808083015190840151614dc79190615c0b565b608082015260a08083015190840151614de09190615c0b565b60a082015260c08083015190840151614df99190615c0b565b60c082015260e08083015190840151614e129190615c0b565b60e08201526101008083015190840151614e2c9190615c0b565b61010082015292915050565b600080614e4685858561439a565b60005460405163316a306d60e11b81526001600160a01b0389811660048301529293509116906362d460da90602401602060405180830381865afa158015614e92573d6000803e3d6000fd5b505050506040513d601f19601f82011682018060405250810190614eb69190615b57565b1195945050505050565b614ec8615692565b614eec60405180606001604052806000815260200160008152602001600081525090565b600c546040516309bde83560e21b81526001600160a01b03909116906326f7a0d490614f1e9089908990600401615bda565b608060405180830381865afa158015614f3b573d6000803e3d6000fd5b505050506040513d601f19601f82011682018060405250810190614f5f9190615cc4565b60408086019182526020868101938452870193909352928552600c549051925191516330d0a26160e01b81526001600160a01b03909116926330d0a26192614fad928b9291906004016157bf565b600060405180830381600087803b158015614fc757600080fd5b505af1158015614fdb573d6000803e3d6000fd5b5050600c54604051633ed3a18f60e21b81526001600160a01b03909116925063fb4e863c91506150119089908990600401615bda565b600060405180830381600087803b15801561502b57600080fd5b505af115801561503f573d6000803e3d6000fd5b505060005460405163c08261db60e01b81526001600160a01b038a81166004830152909116925063c08261db9150602401602060405180830381865afa15801561508d573d6000803e3d6000fd5b505050506040513d601f19601f820116820180604052508101906150b19190615b57565b6060830152600083156150c9575060208201516150f0565b6150d78784602001516152e9565b6040840181905260208401516150ed9190615b86565b90505b82516150fd908287615362565b60e087015260c086015260a08501526080840152831561518557600c54606084015160405163ca75007960e01b81526001600160a01b039092169163ca7500799161514e918b918b91600401615bb6565b600060405180830381600087803b15801561516857600080fd5b505af115801561517c573d6000803e3d6000fd5b505050506151ea565b600c5460405163550bc5ab60e11b81526001600160a01b039091169063aa178b56906151b7908a908a90600401615bda565b600060405180830381600087803b1580156151d157600080fd5b505af11580156151e5573d6000803e3d6000fd5b505050505b856001600160a01b0316876001600160a01b0316600080516020615d6783398151915285600001518660200151600160405161522893929190615cfa565b60405180910390a35050949350505050565b61524382615521565b6040516001600160a01b038316907fbc7cd75a20ee27fd9adebab32041f755214dbc6bffa90cc0225b39da2e5c2d3b90600090a280511561528857611ddf8282615586565b610b0a6155f3565b7ff0c57e16840df040f15088dc2f81fe391c3923bec73e23a9662efc9c229c6a0054600160401b900460ff16611ced57604051631afcd79f60e31b815260040160405180910390fd5b612ad0615290565b61333b615290565b600080546040516315ee08fb60e31b81526001600160a01b0385811660048301529091169063af7047d890602401602060405180830381865afa158015615334573d6000803e3d6000fd5b505050506040513d601f19601f820116820180604052508101906153589190615b57565b6123619083615c4b565b600080808084156153ad5761537787866133c8565b9350866153848588615c1e565b61538e9190615c4b565b925061539a8488615b86565b91506153a68387615b86565b90506153ba565b5060009250829150859050845b93509350935093565b6153cb615692565b8381526020810183905260008054604051633c557a6f60e11b81526001600160a01b038881166004830152859216906378aaf4de90602401602060405180830381865afa158015615420573d6000803e3d6000fd5b505050506040513d601f19601f820116820180604052508101906154449190615b57565b61544e9087615c1e565b6154589190615c4b565b905061546486826152e9565b604083810191909152600054905163c08261db60e01b81526001600160a01b0388811660048301529091169063c08261db90602401602060405180830381865afa1580156154b6573d6000803e3d6000fd5b505050506040513d601f19601f820116820180604052508101906154da9190615b57565b60608301526080820185905260408201516154f59082615b86565b60a08301526155048185615b86565b61010083015250600060c0820181905260e0820152949350505050565b806001600160a01b03163b60000361555757604051634c9c8ce360e01b81526001600160a01b0382166004820152602401611efc565b600080516020615d8783398151915280546001600160a01b0319166001600160a01b0392909216919091179055565b6060600080846001600160a01b0316846040516155a39190615d4a565b600060405180830381855af49150503d80600081146155de576040519150601f19603f3d011682016040523d82523d6000602084013e6155e3565b606091505b5091509150614391858383615612565b3415611ced5760405163b398979f60e01b815260040160405180910390fd5b60608261562257613d9982615669565b815115801561563957506001600160a01b0384163b155b1561566257604051639996b31560e01b81526001600160a01b0385166004820152602401611efc565b5080612361565b8051156156795780518082602001fd5b604051630a12f52160e11b815260040160405180910390fd5b6040518061012001604052806000815260200160008152602001600081526020016000815260200160008152602001600081526020016000815260200160008152602001600081525090565b6040518060e0016040528060008152602001600081526020016000815260200160006001600160a01b0316815260200160001515815260200160008152602001600081525090565b6001600160a01b0381168114612b0357600080fd5b60006020828403121561574d57600080fd5b813561236181615726565b6000806040838503121561576b57600080fd5b823561577681615726565b946020939093013593505050565b6000806000806080858703121561579a57600080fd5b84356157a581615726565b966020860135965060408601359560600135945092505050565b6001600160a01b039390931683526020830191909152604082015260600190565b600080600080600080600080610100898b0312156157fd57600080fd5b883561580881615726565b975060208901359650604089013561581f81615726565b9550606089013561582f81615726565b9450608089013561583f81615726565b979a969950949793969560a0850135955060c08501359460e001359350915050565b634e487b7160e01b600052604160045260246000fd5b604051601f8201601f1916810167ffffffffffffffff811182821017156158a0576158a0615861565b604052919050565b600080604083850312156158bb57600080fd5b82356158c681615726565b915060208381013567ffffffffffffffff808211156158e457600080fd5b818601915086601f8301126158f857600080fd5b81358181111561590a5761590a615861565b61591c601f8201601f19168501615877565b9150808252878482850101111561593257600080fd5b80848401858401376000848284010152508093505050509250929050565b6000806040838503121561596357600080fd5b823561596e81615726565b9150602083013561597e81615726565b809150509250929050565b60005b838110156159a457818101518382015260200161598c565b50506000910152565b60208152600082518060208401526159cc816040850160208701615989565b601f01601f19169190910160400192915050565b600080602083850312156159f357600080fd5b823567ffffffffffffffff80821115615a0b57600080fd5b818501915085601f830112615a1f57600080fd5b813581811115615a2e57600080fd5b8660208260051b8501011115615a4357600080fd5b60209290920196919550909350505050565b600060208284031215615a6757600080fd5b5035919050565b60008060408385031215615a8157600080fd5b50508035926020909101359150565b60008060408385031215615aa357600080fd5b8235615aae81615726565b915060208381013567ffffffffffffffff80821115615acc57600080fd5b818601915086601f830112615ae057600080fd5b813581811115615af257615af2615861565b8060051b9150615b03848301615877565b8181529183018401918481019089841115615b1d57600080fd5b938501935b83851015615b475784359250615b3783615726565b8282529385019390850190615b22565b8096505050505050509250929050565b600060208284031215615b6957600080fd5b5051919050565b634e487b7160e01b600052601160045260246000fd5b81810381811115610b7e57610b7e615b70565b600060208284031215615bab57600080fd5b815161236181615726565b6001600160a01b039384168152919092166020820152604081019190915260600190565b6001600160a01b0392831681529116602082015260400190565b600081615c0357615c03615b70565b506000190190565b80820180821115610b7e57610b7e615b70565b8082028115828204841417610b7e57610b7e615b70565b634e487b7160e01b600052601260045260246000fd5b600082615c5a57615c5a615c35565b500490565b600060208284031215615c7157600080fd5b8151801515811461236157600080fd5b600082615c9057615c90615c35565b500690565b600060018201615ca757615ca7615b70565b5060010190565b634e487b7160e01b600052603260045260246000fd5b60008060008060808587031215615cda57600080fd5b505082516020840151604085015160609095015191969095509092509050565b838152602081018390526060810160058310615d2657634e487b7160e01b600052602160045260246000fd5b826040830152949350505050565b634e487b7160e01b600052600160045260246000fd5b60008251615d5c818460208701615989565b919091019291505056fed13515134171b35d13ca928c7912f43125417d82681b5f284b52f97563ccb865360894a13ba1a3210667c828492db98dca3e2076cc3735a920a3ca505d382bbc9b779b17422d0df92223018b32b4d1fa46e071723d6817e2486d003becc55f00a164736f6c6343000817000a",
  "devdoc": {
    "errors": {
      "AddressEmptyCode(address)": [
        {
          "details": "There's no code at `target` (it is not a contract)."
        }
      ],
      "ERC1967InvalidImplementation(address)": [
        {
          "details": "The `implementation` of the proxy is invalid."
        }
      ],
      "ERC1967NonPayable()": [
        {
          "details": "An upgrade function sees `msg.value > 0` that may be lost."
        }
      ],
      "FailedInnerCall()": [
        {
          "details": "A call to an address target failed. The target may have reverted."
        }
      ],
      "InvalidInitialization()": [
        {
          "details": "The contract is already initialized."
        }
      ],
      "NotInitializing()": [
        {
          "details": "The contract is not initializing."
        }
      ],
      "OwnableInvalidOwner(address)": [
        {
          "details": "The owner is not a valid owner account. (eg. `address(0)`)"
        }
      ],
      "OwnableUnauthorizedAccount(address)": [
        {
          "details": "The caller account is not authorized to perform an operation."
        }
      ],
      "ReentrancyGuardReentrantCall()": [
        {
          "details": "Unauthorized reentrant call."
        }
      ],
      "UUPSUnauthorizedCallContext()": [
        {
          "details": "The call is from an unauthorized context."
        }
      ],
      "UUPSUnsupportedProxiableUUID(bytes32)": [
        {
          "details": "The storage `slot` is unsupported as a UUID."
        }
      ]
    },
    "events": {
      "Initialized(uint64)": {
        "details": "Triggered when the contract has been initialized or reinitialized."
      },
      "Upgraded(address)": {
        "details": "Emitted when the implementation is upgraded."
      }
    },
    "kind": "dev",
    "methods": {
      "owner()": {
        "details": "Returns the address of the current owner."
      },
      "proxiableUUID()": {
        "details": "Implementation of the ERC1822 {proxiableUUID} function. This returns the storage slot used by the implementation. It is used to validate the implementation's compatibility when performing an upgrade. IMPORTANT: A proxy pointing at a proxiable contract should not be considered proxiable itself, because this risks bricking a proxy that upgrades to it, by delegating to itself until out of gas. Thus it is critical that this function revert if invoked through a proxy. This is guaranteed by the `notDelegated` modifier."
      },
      "renounceOwnership()": {
        "details": "Leaves the contract without owner. It will not be possible to call `onlyOwner` functions. Can only be called by the current owner. NOTE: Renouncing ownership will leave the contract without an owner, thereby disabling any functionality that is only available to the owner."
      },
      "transferOwnership(address)": {
        "details": "Transfers ownership of the contract to a new account (`newOwner`). Can only be called by the current owner."
      },
      "upgradeToAndCall(address,bytes)": {
        "custom:oz-upgrades-unsafe-allow-reachable": "delegatecall",
        "details": "Upgrade the implementation of the proxy to `newImplementation`, and subsequently execute the function call encoded in `data`. Calls {_authorizeUpgrade}. Emits an {Upgraded} event."
      }
    },
    "version": 1
  },
  "userdoc": {
    "kind": "user",
    "methods": {
      "batchLiquidateTrenBoxes(address,address[])": {
        "notice": "Attempt to liquidate a custom list of trenBoxes provided by the caller."
      },
      "getApproxHint(address,uint256,uint256,uint256)": {
        "notice": "getApproxHint() - return address of a TrenBox that is, on average, (length / numTrials) positions away in the sortedTrenBoxes list from the correct insert position of the TrenBox to be inserted. Note: The output address is worst-case O(n) positions away from the correct insert position, however, the function is probabilistic. Input can be tuned to guarantee results to a high degree of confidence, e.g: Submitting numTrials = k * sqrt(length), with k = 15 makes it very, very likely that the ouput address will be <= sqrt(length) positions away from the correct insert position."
      },
      "getRedemptionHints(address,uint256,uint256,uint256)": {
        "notice": "getRedemptionHints() - Helper function for finding the right hints to pass to redeemCollateral(). It simulates a redemption of `_debtTokenAmount` to figure out where the redemption sequence will start and what state the final TrenBox of the sequence will end up in. Returns three hints:  - `firstRedemptionHint` is the address of the first TrenBox with ICR >= MCR (i.e. the first      TrenBox that will be redeemed).  - `partialRedemptionHintNICR` is the final nominal ICR of the last TrenBox of the sequence      after being hit by partial redemption, or zero in case of no partial redemption.  - `truncatedDebtTokenAmount` is the maximum amount that can be redeemed out of the the      provided `_debtTokenAmount`. This can be lower than `_debtTokenAmount` when redeeming      the full amount would leave the last TrenBox of the redemption sequence with less net debt      than the minimum allowed value (i.e. IAdminContract(adminContract).MIN_NET_DEBT()). The number of TrenBoxes to consider for redemption can be capped by passing a non-zero value as `_maxIterations`, while passing zero will leave it uncapped."
      },
      "liquidate(address,address)": {
        "notice": "Single liquidation function. Closes the trenBox if its ICR is lower than the minimum collateral ratio."
      },
      "liquidateTrenBoxes(address,uint256)": {
        "notice": "Liquidate a sequence of trenBoxes. Closes a maximum number of n under-collateralized TrenBoxes, starting from the one with the lowest collateral ratio in the system, and moving upwards."
      },
      "redistributeTrenBoxes(address,uint256)": {
        "notice": "Redistribute (liquidate by protocol) a sequence of low-value trenBoxes. Closes a maximum number of _trenBoxes under-collateralized TrenBoxes, starting from the one with the lowest collateral ratio in the system, and moving upwards."
      }
    },
    "version": 1
  },
  "storageLayout": {
    "storage": [
      {
        "astId": 8946,
        "contract": "contracts/TrenBoxManagerOperations.sol:TrenBoxManagerOperations",
        "label": "adminContract",
        "offset": 0,
        "slot": "0",
        "type": "t_address"
      },
      {
        "astId": 8948,
        "contract": "contracts/TrenBoxManagerOperations.sol:TrenBoxManagerOperations",
        "label": "borrowerOperations",
        "offset": 0,
        "slot": "1",
        "type": "t_address"
      },
      {
        "astId": 8950,
        "contract": "contracts/TrenBoxManagerOperations.sol:TrenBoxManagerOperations",
        "label": "communityIssuance",
        "offset": 0,
        "slot": "2",
        "type": "t_address"
      },
      {
        "astId": 8952,
        "contract": "contracts/TrenBoxManagerOperations.sol:TrenBoxManagerOperations",
        "label": "debtToken",
        "offset": 0,
        "slot": "3",
        "type": "t_address"
      },
      {
        "astId": 8954,
        "contract": "contracts/TrenBoxManagerOperations.sol:TrenBoxManagerOperations",
        "label": "feeCollector",
        "offset": 0,
        "slot": "4",
        "type": "t_address"
      },
      {
        "astId": 8956,
        "contract": "contracts/TrenBoxManagerOperations.sol:TrenBoxManagerOperations",
        "label": "flashLoanAddress",
        "offset": 0,
        "slot": "5",
        "type": "t_address"
      },
      {
        "astId": 8958,
        "contract": "contracts/TrenBoxManagerOperations.sol:TrenBoxManagerOperations",
        "label": "trenStaking",
        "offset": 0,
        "slot": "6",
        "type": "t_address"
      },
      {
        "astId": 8960,
        "contract": "contracts/TrenBoxManagerOperations.sol:TrenBoxManagerOperations",
        "label": "priceFeed",
        "offset": 0,
        "slot": "7",
        "type": "t_address"
      },
      {
        "astId": 8962,
        "contract": "contracts/TrenBoxManagerOperations.sol:TrenBoxManagerOperations",
        "label": "sortedTrenBoxes",
        "offset": 0,
        "slot": "8",
        "type": "t_address"
      },
      {
        "astId": 8964,
        "contract": "contracts/TrenBoxManagerOperations.sol:TrenBoxManagerOperations",
        "label": "stabilityPool",
        "offset": 0,
        "slot": "9",
        "type": "t_address"
      },
      {
        "astId": 8966,
        "contract": "contracts/TrenBoxManagerOperations.sol:TrenBoxManagerOperations",
        "label": "timelockAddress",
        "offset": 0,
        "slot": "10",
        "type": "t_address"
      },
      {
        "astId": 8968,
        "contract": "contracts/TrenBoxManagerOperations.sol:TrenBoxManagerOperations",
        "label": "treasuryAddress",
        "offset": 0,
        "slot": "11",
        "type": "t_address"
      },
      {
        "astId": 8970,
        "contract": "contracts/TrenBoxManagerOperations.sol:TrenBoxManagerOperations",
        "label": "trenBoxManager",
        "offset": 0,
        "slot": "12",
        "type": "t_address"
      },
      {
        "astId": 8972,
        "contract": "contracts/TrenBoxManagerOperations.sol:TrenBoxManagerOperations",
        "label": "trenBoxManagerOperations",
        "offset": 0,
        "slot": "13",
        "type": "t_address"
      },
      {
        "astId": 8974,
        "contract": "contracts/TrenBoxManagerOperations.sol:TrenBoxManagerOperations",
        "label": "trenBoxStorage",
        "offset": 0,
        "slot": "14",
        "type": "t_address"
      },
      {
        "astId": 8976,
        "contract": "contracts/TrenBoxManagerOperations.sol:TrenBoxManagerOperations",
        "label": "isAddressSetupInitialized",
        "offset": 20,
        "slot": "14",
        "type": "t_bool"
      },
      {
        "astId": 8981,
        "contract": "contracts/TrenBoxManagerOperations.sol:TrenBoxManagerOperations",
        "label": "__gap",
        "offset": 0,
        "slot": "15",
        "type": "t_array(t_uint256)33_storage"
      },
      {
        "astId": 24134,
        "contract": "contracts/TrenBoxManagerOperations.sol:TrenBoxManagerOperations",
        "label": "redemptionSofteningParam",
        "offset": 0,
        "slot": "48",
        "type": "t_uint256"
      }
    ],
    "types": {
      "t_address": {
        "encoding": "inplace",
        "label": "address",
        "numberOfBytes": "20"
      },
      "t_array(t_uint256)33_storage": {
        "base": "t_uint256",
        "encoding": "inplace",
        "label": "uint256[33]",
        "numberOfBytes": "1056"
      },
      "t_bool": {
        "encoding": "inplace",
        "label": "bool",
        "numberOfBytes": "1"
      },
      "t_uint256": {
        "encoding": "inplace",
        "label": "uint256",
        "numberOfBytes": "32"
      }
    }
  }
}