{
  "address": "0x232A0Ad55A02E39A5216Be9C78e9Ad7587Afcc3e",
  "abi": [
    {
      "inputs": [
        {
          "internalType": "address",
          "name": "target",
          "type": "address"
        }
      ],
      "name": "AddressEmptyCode",
      "type": "error"
    },
    {
      "inputs": [],
      "name": "ConfigurableAddresses__CommunityIssuanceZeroAddress",
      "type": "error"
    },
    {
      "inputs": [],
      "name": "ConfigurableAddresses__LengthMismatch",
      "type": "error"
    },
    {
      "inputs": [],
      "name": "ConfigurableAddresses__SetupIsInitialized",
      "type": "error"
    },
    {
      "inputs": [],
      "name": "ConfigurableAddresses__TRENStakingZeroAddress",
      "type": "error"
    },
    {
      "inputs": [
        {
          "internalType": "uint256",
          "name": "position",
          "type": "uint256"
        },
        {
          "internalType": "address",
          "name": "address_",
          "type": "address"
        }
      ],
      "name": "ConfigurableAddresses__ZeroAddresses",
      "type": "error"
    },
    {
      "inputs": [
        {
          "internalType": "address",
          "name": "implementation",
          "type": "address"
        }
      ],
      "name": "ERC1967InvalidImplementation",
      "type": "error"
    },
    {
      "inputs": [],
      "name": "ERC1967NonPayable",
      "type": "error"
    },
    {
      "inputs": [],
      "name": "FailedInnerCall",
      "type": "error"
    },
    {
      "inputs": [],
      "name": "InvalidInitialization",
      "type": "error"
    },
    {
      "inputs": [],
      "name": "NotInitializing",
      "type": "error"
    },
    {
      "inputs": [
        {
          "internalType": "address",
          "name": "owner",
          "type": "address"
        }
      ],
      "name": "OwnableInvalidOwner",
      "type": "error"
    },
    {
      "inputs": [
        {
          "internalType": "address",
          "name": "account",
          "type": "address"
        }
      ],
      "name": "OwnableUnauthorizedAccount",
      "type": "error"
    },
    {
      "inputs": [],
      "name": "ReentrancyGuardReentrantCall",
      "type": "error"
    },
    {
      "inputs": [
        {
          "internalType": "uint256",
          "name": "feePercentage",
          "type": "uint256"
        },
        {
          "internalType": "uint256",
          "name": "maxFeePercentage",
          "type": "uint256"
        }
      ],
      "name": "TrenBase__FeeExceededMax",
      "type": "error"
    },
    {
      "inputs": [],
      "name": "TrenBoxManager__FeeBiggerThanAssetDraw",
      "type": "error"
    },
    {
      "inputs": [],
      "name": "TrenBoxManager__OnlyBorrowerOperations",
      "type": "error"
    },
    {
      "inputs": [],
      "name": "TrenBoxManager__OnlyOneTrenBox",
      "type": "error"
    },
    {
      "inputs": [],
      "name": "TrenBoxManager__OnlyTrenBoxManagerOperations",
      "type": "error"
    },
    {
      "inputs": [],
      "name": "TrenBoxManager__OnlyTrenBoxManagerOperationsOrBorrowerOperations",
      "type": "error"
    },
    {
      "inputs": [],
      "name": "UUPSUnauthorizedCallContext",
      "type": "error"
    },
    {
      "inputs": [
        {
          "internalType": "bytes32",
          "name": "slot",
          "type": "bytes32"
        }
      ],
      "name": "UUPSUnsupportedProxiableUUID",
      "type": "error"
    },
    {
      "anonymous": false,
      "inputs": [
        {
          "indexed": true,
          "internalType": "address",
          "name": "_asset",
          "type": "address"
        },
        {
          "indexed": false,
          "internalType": "uint256",
          "name": "_baseRate",
          "type": "uint256"
        }
      ],
      "name": "BaseRateUpdated",
      "type": "event"
    },
    {
      "anonymous": false,
      "inputs": [
        {
          "indexed": false,
          "internalType": "uint64",
          "name": "version",
          "type": "uint64"
        }
      ],
      "name": "Initialized",
      "type": "event"
    },
    {
      "anonymous": false,
      "inputs": [
        {
          "indexed": true,
          "internalType": "address",
          "name": "_asset",
          "type": "address"
        },
        {
          "indexed": false,
          "internalType": "uint256",
          "name": "_L_Coll",
          "type": "uint256"
        },
        {
          "indexed": false,
          "internalType": "uint256",
          "name": "_L_Debt",
          "type": "uint256"
        }
      ],
      "name": "LTermsUpdated",
      "type": "event"
    },
    {
      "anonymous": false,
      "inputs": [
        {
          "indexed": true,
          "internalType": "address",
          "name": "_asset",
          "type": "address"
        },
        {
          "indexed": false,
          "internalType": "uint256",
          "name": "_lastFeeOpTime",
          "type": "uint256"
        }
      ],
      "name": "LastFeeOpTimeUpdated",
      "type": "event"
    },
    {
      "anonymous": false,
      "inputs": [
        {
          "indexed": true,
          "internalType": "address",
          "name": "previousOwner",
          "type": "address"
        },
        {
          "indexed": true,
          "internalType": "address",
          "name": "newOwner",
          "type": "address"
        }
      ],
      "name": "OwnershipTransferred",
      "type": "event"
    },
    {
      "anonymous": false,
      "inputs": [
        {
          "indexed": true,
          "internalType": "address",
          "name": "_asset",
          "type": "address"
        },
        {
          "indexed": false,
          "internalType": "uint256",
          "name": "_totalStakesSnapshot",
          "type": "uint256"
        },
        {
          "indexed": false,
          "internalType": "uint256",
          "name": "_totalCollateralSnapshot",
          "type": "uint256"
        }
      ],
      "name": "SystemSnapshotsUpdated",
      "type": "event"
    },
    {
      "anonymous": false,
      "inputs": [
        {
          "indexed": true,
          "internalType": "address",
          "name": "_asset",
          "type": "address"
        },
        {
          "indexed": false,
          "internalType": "uint256",
          "name": "_newTotalStakes",
          "type": "uint256"
        }
      ],
      "name": "TotalStakesUpdated",
      "type": "event"
    },
    {
      "anonymous": false,
      "inputs": [
        {
          "indexed": true,
          "internalType": "address",
          "name": "_asset",
          "type": "address"
        },
        {
          "indexed": false,
          "internalType": "address",
          "name": "_borrower",
          "type": "address"
        },
        {
          "indexed": false,
          "internalType": "uint256",
          "name": "_newIndex",
          "type": "uint256"
        }
      ],
      "name": "TrenBoxIndexUpdated",
      "type": "event"
    },
    {
      "anonymous": false,
      "inputs": [
        {
          "indexed": true,
          "internalType": "address",
          "name": "_asset",
          "type": "address"
        },
        {
          "indexed": false,
          "internalType": "uint256",
          "name": "_L_Coll",
          "type": "uint256"
        },
        {
          "indexed": false,
          "internalType": "uint256",
          "name": "_L_Debt",
          "type": "uint256"
        }
      ],
      "name": "TrenBoxSnapshotsUpdated",
      "type": "event"
    },
    {
      "anonymous": false,
      "inputs": [
        {
          "indexed": true,
          "internalType": "address",
          "name": "_asset",
          "type": "address"
        },
        {
          "indexed": true,
          "internalType": "address",
          "name": "_borrower",
          "type": "address"
        },
        {
          "indexed": false,
          "internalType": "uint256",
          "name": "_debt",
          "type": "uint256"
        },
        {
          "indexed": false,
          "internalType": "uint256",
          "name": "_coll",
          "type": "uint256"
        },
        {
          "indexed": false,
          "internalType": "uint256",
          "name": "_stake",
          "type": "uint256"
        },
        {
          "indexed": false,
          "internalType": "enum ITrenBoxManager.TrenBoxManagerOperation",
          "name": "_operation",
          "type": "uint8"
        }
      ],
      "name": "TrenBoxUpdated",
      "type": "event"
    },
    {
      "anonymous": false,
      "inputs": [
        {
          "indexed": true,
          "internalType": "address",
          "name": "implementation",
          "type": "address"
        }
      ],
      "name": "Upgraded",
      "type": "event"
    },
    {
      "inputs": [],
      "name": "BETA",
      "outputs": [
        {
          "internalType": "uint256",
          "name": "",
          "type": "uint256"
        }
      ],
      "stateMutability": "view",
      "type": "function"
    },
    {
      "inputs": [
        {
          "internalType": "address",
          "name": "collateral",
          "type": "address"
        }
      ],
      "name": "L_Colls",
      "outputs": [
        {
          "internalType": "uint256",
          "name": "accumulatedRewards",
          "type": "uint256"
        }
      ],
      "stateMutability": "view",
      "type": "function"
    },
    {
      "inputs": [
        {
          "internalType": "address",
          "name": "collateral",
          "type": "address"
        }
      ],
      "name": "L_Debts",
      "outputs": [
        {
          "internalType": "uint256",
          "name": "accumulatedRewards",
          "type": "uint256"
        }
      ],
      "stateMutability": "view",
      "type": "function"
    },
    {
      "inputs": [],
      "name": "MINUTE_DECAY_FACTOR",
      "outputs": [
        {
          "internalType": "uint256",
          "name": "",
          "type": "uint256"
        }
      ],
      "stateMutability": "view",
      "type": "function"
    },
    {
      "inputs": [],
      "name": "NAME",
      "outputs": [
        {
          "internalType": "string",
          "name": "",
          "type": "string"
        }
      ],
      "stateMutability": "view",
      "type": "function"
    },
    {
      "inputs": [],
      "name": "SECONDS_IN_ONE_MINUTE",
      "outputs": [
        {
          "internalType": "uint256",
          "name": "",
          "type": "uint256"
        }
      ],
      "stateMutability": "view",
      "type": "function"
    },
    {
      "inputs": [
        {
          "internalType": "address",
          "name": "borrower",
          "type": "address"
        },
        {
          "internalType": "address",
          "name": "collateral",
          "type": "address"
        }
      ],
      "name": "TrenBoxes",
      "outputs": [
        {
          "internalType": "uint256",
          "name": "debt",
          "type": "uint256"
        },
        {
          "internalType": "uint256",
          "name": "coll",
          "type": "uint256"
        },
        {
          "internalType": "uint256",
          "name": "stake",
          "type": "uint256"
        },
        {
          "internalType": "enum ITrenBoxManager.Status",
          "name": "status",
          "type": "uint8"
        },
        {
          "internalType": "uint128",
          "name": "arrayIndex",
          "type": "uint128"
        }
      ],
      "stateMutability": "view",
      "type": "function"
    },
    {
      "inputs": [],
      "name": "UPGRADE_INTERFACE_VERSION",
      "outputs": [
        {
          "internalType": "string",
          "name": "",
          "type": "string"
        }
      ],
      "stateMutability": "view",
      "type": "function"
    },
    {
      "inputs": [
        {
          "internalType": "address",
          "name": "_asset",
          "type": "address"
        },
        {
          "internalType": "address",
          "name": "_borrower",
          "type": "address"
        }
      ],
      "name": "addTrenBoxOwnerToArray",
      "outputs": [
        {
          "internalType": "uint256",
          "name": "index",
          "type": "uint256"
        }
      ],
      "stateMutability": "nonpayable",
      "type": "function"
    },
    {
      "inputs": [],
      "name": "adminContract",
      "outputs": [
        {
          "internalType": "address",
          "name": "",
          "type": "address"
        }
      ],
      "stateMutability": "view",
      "type": "function"
    },
    {
      "inputs": [
        {
          "internalType": "address",
          "name": "_asset",
          "type": "address"
        },
        {
          "internalType": "address",
          "name": "_borrower",
          "type": "address"
        }
      ],
      "name": "applyPendingRewards",
      "outputs": [],
      "stateMutability": "nonpayable",
      "type": "function"
    },
    {
      "inputs": [
        {
          "internalType": "address",
          "name": "newImplementation",
          "type": "address"
        }
      ],
      "name": "authorizeUpgrade",
      "outputs": [],
      "stateMutability": "nonpayable",
      "type": "function"
    },
    {
      "inputs": [
        {
          "internalType": "address",
          "name": "collateral",
          "type": "address"
        }
      ],
      "name": "baseRate",
      "outputs": [
        {
          "internalType": "uint256",
          "name": "rate",
          "type": "uint256"
        }
      ],
      "stateMutability": "view",
      "type": "function"
    },
    {
      "inputs": [],
      "name": "borrowerOperations",
      "outputs": [
        {
          "internalType": "address",
          "name": "",
          "type": "address"
        }
      ],
      "stateMutability": "view",
      "type": "function"
    },
    {
      "inputs": [
        {
          "internalType": "address",
          "name": "_asset",
          "type": "address"
        },
        {
          "internalType": "uint256",
          "name": "_price",
          "type": "uint256"
        }
      ],
      "name": "checkRecoveryMode",
      "outputs": [
        {
          "internalType": "bool",
          "name": "",
          "type": "bool"
        }
      ],
      "stateMutability": "view",
      "type": "function"
    },
    {
      "inputs": [
        {
          "internalType": "address",
          "name": "_asset",
          "type": "address"
        },
        {
          "internalType": "address",
          "name": "_borrower",
          "type": "address"
        }
      ],
      "name": "closeTrenBox",
      "outputs": [],
      "stateMutability": "nonpayable",
      "type": "function"
    },
    {
      "inputs": [
        {
          "internalType": "address",
          "name": "_asset",
          "type": "address"
        },
        {
          "internalType": "address",
          "name": "_borrower",
          "type": "address"
        }
      ],
      "name": "closeTrenBoxLiquidation",
      "outputs": [],
      "stateMutability": "nonpayable",
      "type": "function"
    },
    {
      "inputs": [
        {
          "internalType": "address",
          "name": "_asset",
          "type": "address"
        },
        {
          "internalType": "address",
          "name": "_borrower",
          "type": "address"
        },
        {
          "internalType": "uint256",
          "name": "_debtTokenGasCompensation",
          "type": "uint256"
        }
      ],
      "name": "closeTrenBoxRedistribution",
      "outputs": [],
      "stateMutability": "nonpayable",
      "type": "function"
    },
    {
      "inputs": [],
      "name": "communityIssuance",
      "outputs": [
        {
          "internalType": "address",
          "name": "",
          "type": "address"
        }
      ],
      "stateMutability": "view",
      "type": "function"
    },
    {
      "inputs": [],
      "name": "debtToken",
      "outputs": [
        {
          "internalType": "address",
          "name": "",
          "type": "address"
        }
      ],
      "stateMutability": "view",
      "type": "function"
    },
    {
      "inputs": [
        {
          "internalType": "address",
          "name": "_asset",
          "type": "address"
        },
        {
          "internalType": "address",
          "name": "_borrower",
          "type": "address"
        },
        {
          "internalType": "uint256",
          "name": "_collDecrease",
          "type": "uint256"
        }
      ],
      "name": "decreaseTrenBoxColl",
      "outputs": [
        {
          "internalType": "uint256",
          "name": "newColl",
          "type": "uint256"
        }
      ],
      "stateMutability": "nonpayable",
      "type": "function"
    },
    {
      "inputs": [
        {
          "internalType": "address",
          "name": "_asset",
          "type": "address"
        },
        {
          "internalType": "address",
          "name": "_borrower",
          "type": "address"
        },
        {
          "internalType": "uint256",
          "name": "_debtDecrease",
          "type": "uint256"
        }
      ],
      "name": "decreaseTrenBoxDebt",
      "outputs": [
        {
          "internalType": "uint256",
          "name": "",
          "type": "uint256"
        }
      ],
      "stateMutability": "nonpayable",
      "type": "function"
    },
    {
      "inputs": [
        {
          "internalType": "address",
          "name": "_asset",
          "type": "address"
        },
        {
          "internalType": "address",
          "name": "_borrower",
          "type": "address"
        },
        {
          "internalType": "uint256",
          "name": "_newColl",
          "type": "uint256"
        }
      ],
      "name": "executeFullRedemption",
      "outputs": [],
      "stateMutability": "nonpayable",
      "type": "function"
    },
    {
      "inputs": [
        {
          "internalType": "address",
          "name": "_asset",
          "type": "address"
        },
        {
          "internalType": "address",
          "name": "_borrower",
          "type": "address"
        },
        {
          "internalType": "uint256",
          "name": "_newDebt",
          "type": "uint256"
        },
        {
          "internalType": "uint256",
          "name": "_newColl",
          "type": "uint256"
        },
        {
          "internalType": "uint256",
          "name": "_newNICR",
          "type": "uint256"
        },
        {
          "internalType": "address",
          "name": "_upperPartialRedemptionHint",
          "type": "address"
        },
        {
          "internalType": "address",
          "name": "_lowerPartialRedemptionHint",
          "type": "address"
        }
      ],
      "name": "executePartialRedemption",
      "outputs": [],
      "stateMutability": "nonpayable",
      "type": "function"
    },
    {
      "inputs": [],
      "name": "feeCollector",
      "outputs": [
        {
          "internalType": "address",
          "name": "",
          "type": "address"
        }
      ],
      "stateMutability": "view",
      "type": "function"
    },
    {
      "inputs": [
        {
          "internalType": "address",
          "name": "_asset",
          "type": "address"
        },
        {
          "internalType": "address",
          "name": "_receiver",
          "type": "address"
        },
        {
          "internalType": "uint256",
          "name": "_debtToRedeem",
          "type": "uint256"
        },
        {
          "internalType": "uint256",
          "name": "_assetFeeAmount",
          "type": "uint256"
        },
        {
          "internalType": "uint256",
          "name": "_assetRedeemedAmount",
          "type": "uint256"
        }
      ],
      "name": "finalizeRedemption",
      "outputs": [],
      "stateMutability": "nonpayable",
      "type": "function"
    },
    {
      "inputs": [],
      "name": "flashLoanAddress",
      "outputs": [
        {
          "internalType": "address",
          "name": "",
          "type": "address"
        }
      ],
      "stateMutability": "view",
      "type": "function"
    },
    {
      "inputs": [
        {
          "internalType": "address",
          "name": "_asset",
          "type": "address"
        },
        {
          "internalType": "uint256",
          "name": "_debt",
          "type": "uint256"
        }
      ],
      "name": "getBorrowingFee",
      "outputs": [
        {
          "internalType": "uint256",
          "name": "",
          "type": "uint256"
        }
      ],
      "stateMutability": "view",
      "type": "function"
    },
    {
      "inputs": [
        {
          "internalType": "address",
          "name": "_asset",
          "type": "address"
        }
      ],
      "name": "getBorrowingRate",
      "outputs": [
        {
          "internalType": "uint256",
          "name": "",
          "type": "uint256"
        }
      ],
      "stateMutability": "view",
      "type": "function"
    },
    {
      "inputs": [
        {
          "internalType": "address",
          "name": "_asset",
          "type": "address"
        },
        {
          "internalType": "address",
          "name": "_borrower",
          "type": "address"
        },
        {
          "internalType": "uint256",
          "name": "_price",
          "type": "uint256"
        }
      ],
      "name": "getCurrentICR",
      "outputs": [
        {
          "internalType": "uint256",
          "name": "",
          "type": "uint256"
        }
      ],
      "stateMutability": "view",
      "type": "function"
    },
    {
      "inputs": [
        {
          "internalType": "address",
          "name": "_asset",
          "type": "address"
        },
        {
          "internalType": "address",
          "name": "_borrower",
          "type": "address"
        }
      ],
      "name": "getEntireDebtAndColl",
      "outputs": [
        {
          "internalType": "uint256",
          "name": "debt",
          "type": "uint256"
        },
        {
          "internalType": "uint256",
          "name": "coll",
          "type": "uint256"
        },
        {
          "internalType": "uint256",
          "name": "pendingDebtReward",
          "type": "uint256"
        },
        {
          "internalType": "uint256",
          "name": "pendingCollReward",
          "type": "uint256"
        }
      ],
      "stateMutability": "view",
      "type": "function"
    },
    {
      "inputs": [
        {
          "internalType": "address",
          "name": "_asset",
          "type": "address"
        }
      ],
      "name": "getEntireSystemColl",
      "outputs": [
        {
          "internalType": "uint256",
          "name": "entireSystemColl",
          "type": "uint256"
        }
      ],
      "stateMutability": "view",
      "type": "function"
    },
    {
      "inputs": [
        {
          "internalType": "address",
          "name": "_asset",
          "type": "address"
        }
      ],
      "name": "getEntireSystemDebt",
      "outputs": [
        {
          "internalType": "uint256",
          "name": "entireSystemDebt",
          "type": "uint256"
        }
      ],
      "stateMutability": "view",
      "type": "function"
    },
    {
      "inputs": [
        {
          "internalType": "address",
          "name": "_asset",
          "type": "address"
        },
        {
          "internalType": "uint256",
          "name": "_debt",
          "type": "uint256"
        }
      ],
      "name": "getNetDebt",
      "outputs": [
        {
          "internalType": "uint256",
          "name": "",
          "type": "uint256"
        }
      ],
      "stateMutability": "view",
      "type": "function"
    },
    {
      "inputs": [
        {
          "internalType": "address",
          "name": "_asset",
          "type": "address"
        },
        {
          "internalType": "address",
          "name": "_borrower",
          "type": "address"
        }
      ],
      "name": "getNominalICR",
      "outputs": [
        {
          "internalType": "uint256",
          "name": "",
          "type": "uint256"
        }
      ],
      "stateMutability": "view",
      "type": "function"
    },
    {
      "inputs": [
        {
          "internalType": "address",
          "name": "_asset",
          "type": "address"
        },
        {
          "internalType": "address",
          "name": "_borrower",
          "type": "address"
        }
      ],
      "name": "getPendingAssetReward",
      "outputs": [
        {
          "internalType": "uint256",
          "name": "",
          "type": "uint256"
        }
      ],
      "stateMutability": "view",
      "type": "function"
    },
    {
      "inputs": [
        {
          "internalType": "address",
          "name": "_asset",
          "type": "address"
        },
        {
          "internalType": "address",
          "name": "_borrower",
          "type": "address"
        }
      ],
      "name": "getPendingDebtTokenReward",
      "outputs": [
        {
          "internalType": "uint256",
          "name": "",
          "type": "uint256"
        }
      ],
      "stateMutability": "view",
      "type": "function"
    },
    {
      "inputs": [
        {
          "internalType": "address",
          "name": "_asset",
          "type": "address"
        },
        {
          "internalType": "uint256",
          "name": "_assetDraw",
          "type": "uint256"
        }
      ],
      "name": "getRedemptionFee",
      "outputs": [
        {
          "internalType": "uint256",
          "name": "",
          "type": "uint256"
        }
      ],
      "stateMutability": "view",
      "type": "function"
    },
    {
      "inputs": [
        {
          "internalType": "address",
          "name": "_asset",
          "type": "address"
        },
        {
          "internalType": "uint256",
          "name": "_assetDraw",
          "type": "uint256"
        }
      ],
      "name": "getRedemptionFeeWithDecay",
      "outputs": [
        {
          "internalType": "uint256",
          "name": "",
          "type": "uint256"
        }
      ],
      "stateMutability": "view",
      "type": "function"
    },
    {
      "inputs": [
        {
          "internalType": "address",
          "name": "_asset",
          "type": "address"
        }
      ],
      "name": "getRedemptionRate",
      "outputs": [
        {
          "internalType": "uint256",
          "name": "",
          "type": "uint256"
        }
      ],
      "stateMutability": "view",
      "type": "function"
    },
    {
      "inputs": [
        {
          "internalType": "address",
          "name": "_asset",
          "type": "address"
        }
      ],
      "name": "getRedemptionRateWithDecay",
      "outputs": [
        {
          "internalType": "uint256",
          "name": "",
          "type": "uint256"
        }
      ],
      "stateMutability": "view",
      "type": "function"
    },
    {
      "inputs": [
        {
          "internalType": "address",
          "name": "_asset",
          "type": "address"
        },
        {
          "internalType": "uint256",
          "name": "_price",
          "type": "uint256"
        }
      ],
      "name": "getTCR",
      "outputs": [
        {
          "internalType": "uint256",
          "name": "",
          "type": "uint256"
        }
      ],
      "stateMutability": "view",
      "type": "function"
    },
    {
      "inputs": [
        {
          "internalType": "address",
          "name": "_asset",
          "type": "address"
        },
        {
          "internalType": "address",
          "name": "_borrower",
          "type": "address"
        }
      ],
      "name": "getTrenBoxColl",
      "outputs": [
        {
          "internalType": "uint256",
          "name": "",
          "type": "uint256"
        }
      ],
      "stateMutability": "view",
      "type": "function"
    },
    {
      "inputs": [
        {
          "internalType": "address",
          "name": "_asset",
          "type": "address"
        },
        {
          "internalType": "address",
          "name": "_borrower",
          "type": "address"
        }
      ],
      "name": "getTrenBoxDebt",
      "outputs": [
        {
          "internalType": "uint256",
          "name": "",
          "type": "uint256"
        }
      ],
      "stateMutability": "view",
      "type": "function"
    },
    {
      "inputs": [
        {
          "internalType": "address",
          "name": "_asset",
          "type": "address"
        },
        {
          "internalType": "uint256",
          "name": "_index",
          "type": "uint256"
        }
      ],
      "name": "getTrenBoxFromTrenBoxOwnersArray",
      "outputs": [
        {
          "internalType": "address",
          "name": "",
          "type": "address"
        }
      ],
      "stateMutability": "view",
      "type": "function"
    },
    {
      "inputs": [
        {
          "internalType": "address",
          "name": "_asset",
          "type": "address"
        }
      ],
      "name": "getTrenBoxOwnersCount",
      "outputs": [
        {
          "internalType": "uint256",
          "name": "",
          "type": "uint256"
        }
      ],
      "stateMutability": "view",
      "type": "function"
    },
    {
      "inputs": [
        {
          "internalType": "address",
          "name": "_asset",
          "type": "address"
        },
        {
          "internalType": "address",
          "name": "_borrower",
          "type": "address"
        }
      ],
      "name": "getTrenBoxStake",
      "outputs": [
        {
          "internalType": "uint256",
          "name": "",
          "type": "uint256"
        }
      ],
      "stateMutability": "view",
      "type": "function"
    },
    {
      "inputs": [
        {
          "internalType": "address",
          "name": "_asset",
          "type": "address"
        },
        {
          "internalType": "address",
          "name": "_borrower",
          "type": "address"
        }
      ],
      "name": "getTrenBoxStatus",
      "outputs": [
        {
          "internalType": "uint256",
          "name": "",
          "type": "uint256"
        }
      ],
      "stateMutability": "view",
      "type": "function"
    },
    {
      "inputs": [
        {
          "internalType": "address",
          "name": "_asset",
          "type": "address"
        },
        {
          "internalType": "address",
          "name": "_borrower",
          "type": "address"
        }
      ],
      "name": "hasPendingRewards",
      "outputs": [
        {
          "internalType": "bool",
          "name": "",
          "type": "bool"
        }
      ],
      "stateMutability": "view",
      "type": "function"
    },
    {
      "inputs": [
        {
          "internalType": "address",
          "name": "_asset",
          "type": "address"
        },
        {
          "internalType": "address",
          "name": "_borrower",
          "type": "address"
        },
        {
          "internalType": "uint256",
          "name": "_collIncrease",
          "type": "uint256"
        }
      ],
      "name": "increaseTrenBoxColl",
      "outputs": [
        {
          "internalType": "uint256",
          "name": "newColl",
          "type": "uint256"
        }
      ],
      "stateMutability": "nonpayable",
      "type": "function"
    },
    {
      "inputs": [
        {
          "internalType": "address",
          "name": "_asset",
          "type": "address"
        },
        {
          "internalType": "address",
          "name": "_borrower",
          "type": "address"
        },
        {
          "internalType": "uint256",
          "name": "_debtIncrease",
          "type": "uint256"
        }
      ],
      "name": "increaseTrenBoxDebt",
      "outputs": [
        {
          "internalType": "uint256",
          "name": "newDebt",
          "type": "uint256"
        }
      ],
      "stateMutability": "nonpayable",
      "type": "function"
    },
    {
      "inputs": [
        {
          "internalType": "address",
          "name": "initialOwner",
          "type": "address"
        }
      ],
      "name": "initialize",
      "outputs": [],
      "stateMutability": "nonpayable",
      "type": "function"
    },
    {
      "inputs": [],
      "name": "isAddressSetupInitialized",
      "outputs": [
        {
          "internalType": "bool",
          "name": "",
          "type": "bool"
        }
      ],
      "stateMutability": "view",
      "type": "function"
    },
    {
      "inputs": [
        {
          "internalType": "address",
          "name": "_asset",
          "type": "address"
        },
        {
          "internalType": "address",
          "name": "_borrower",
          "type": "address"
        }
      ],
      "name": "isTrenBoxActive",
      "outputs": [
        {
          "internalType": "bool",
          "name": "",
          "type": "bool"
        }
      ],
      "stateMutability": "view",
      "type": "function"
    },
    {
      "inputs": [
        {
          "internalType": "address",
          "name": "_asset",
          "type": "address"
        },
        {
          "internalType": "address",
          "name": "_firstRedemptionHint",
          "type": "address"
        },
        {
          "internalType": "uint256",
          "name": "_price",
          "type": "uint256"
        }
      ],
      "name": "isValidFirstRedemptionHint",
      "outputs": [
        {
          "internalType": "bool",
          "name": "",
          "type": "bool"
        }
      ],
      "stateMutability": "view",
      "type": "function"
    },
    {
      "inputs": [
        {
          "internalType": "address",
          "name": "collateral",
          "type": "address"
        }
      ],
      "name": "lastCollError_Redistribution",
      "outputs": [
        {
          "internalType": "uint256",
          "name": "collateralError",
          "type": "uint256"
        }
      ],
      "stateMutability": "view",
      "type": "function"
    },
    {
      "inputs": [
        {
          "internalType": "address",
          "name": "collateral",
          "type": "address"
        }
      ],
      "name": "lastDebtError_Redistribution",
      "outputs": [
        {
          "internalType": "uint256",
          "name": "debtError",
          "type": "uint256"
        }
      ],
      "stateMutability": "view",
      "type": "function"
    },
    {
      "inputs": [
        {
          "internalType": "address",
          "name": "collateral",
          "type": "address"
        }
      ],
      "name": "lastFeeOperationTime",
      "outputs": [
        {
          "internalType": "uint256",
          "name": "feeOpeartionTimestamp",
          "type": "uint256"
        }
      ],
      "stateMutability": "view",
      "type": "function"
    },
    {
      "inputs": [
        {
          "internalType": "address",
          "name": "_asset",
          "type": "address"
        },
        {
          "internalType": "uint256",
          "name": "_debt",
          "type": "uint256"
        },
        {
          "internalType": "uint256",
          "name": "_assetAmount",
          "type": "uint256"
        }
      ],
      "name": "movePendingTrenBoxRewardsFromLiquidatedToActive",
      "outputs": [],
      "stateMutability": "nonpayable",
      "type": "function"
    },
    {
      "inputs": [],
      "name": "owner",
      "outputs": [
        {
          "internalType": "address",
          "name": "",
          "type": "address"
        }
      ],
      "stateMutability": "view",
      "type": "function"
    },
    {
      "inputs": [],
      "name": "priceFeed",
      "outputs": [
        {
          "internalType": "address",
          "name": "",
          "type": "address"
        }
      ],
      "stateMutability": "view",
      "type": "function"
    },
    {
      "inputs": [],
      "name": "proxiableUUID",
      "outputs": [
        {
          "internalType": "bytes32",
          "name": "",
          "type": "bytes32"
        }
      ],
      "stateMutability": "view",
      "type": "function"
    },
    {
      "inputs": [
        {
          "internalType": "address",
          "name": "_asset",
          "type": "address"
        },
        {
          "internalType": "uint256",
          "name": "_debt",
          "type": "uint256"
        },
        {
          "internalType": "uint256",
          "name": "_coll",
          "type": "uint256"
        },
        {
          "internalType": "uint256",
          "name": "_debtToOffset",
          "type": "uint256"
        },
        {
          "internalType": "uint256",
          "name": "_collToSendToStabilityPool",
          "type": "uint256"
        }
      ],
      "name": "redistributeDebtAndColl",
      "outputs": [],
      "stateMutability": "nonpayable",
      "type": "function"
    },
    {
      "inputs": [
        {
          "internalType": "address",
          "name": "_asset",
          "type": "address"
        },
        {
          "internalType": "address",
          "name": "_borrower",
          "type": "address"
        }
      ],
      "name": "removeStake",
      "outputs": [],
      "stateMutability": "nonpayable",
      "type": "function"
    },
    {
      "inputs": [],
      "name": "renounceOwnership",
      "outputs": [],
      "stateMutability": "nonpayable",
      "type": "function"
    },
    {
      "inputs": [
        {
          "internalType": "address",
          "name": "borrower",
          "type": "address"
        },
        {
          "internalType": "address",
          "name": "collateral",
          "type": "address"
        }
      ],
      "name": "rewardSnapshots",
      "outputs": [
        {
          "internalType": "uint256",
          "name": "asset",
          "type": "uint256"
        },
        {
          "internalType": "uint256",
          "name": "debt",
          "type": "uint256"
        }
      ],
      "stateMutability": "view",
      "type": "function"
    },
    {
      "inputs": [
        {
          "internalType": "address",
          "name": "_asset",
          "type": "address"
        },
        {
          "internalType": "address",
          "name": "_liquidator",
          "type": "address"
        },
        {
          "internalType": "uint256",
          "name": "_debtTokenAmount",
          "type": "uint256"
        },
        {
          "internalType": "uint256",
          "name": "_assetAmount",
          "type": "uint256"
        }
      ],
      "name": "sendGasCompensation",
      "outputs": [],
      "stateMutability": "nonpayable",
      "type": "function"
    },
    {
      "inputs": [
        {
          "internalType": "address[]",
          "name": "_addresses",
          "type": "address[]"
        }
      ],
      "name": "setAddresses",
      "outputs": [],
      "stateMutability": "nonpayable",
      "type": "function"
    },
    {
      "inputs": [
        {
          "internalType": "address",
          "name": "_communityIssuance",
          "type": "address"
        }
      ],
      "name": "setCommunityIssuance",
      "outputs": [],
      "stateMutability": "nonpayable",
      "type": "function"
    },
    {
      "inputs": [
        {
          "internalType": "address",
          "name": "_trenStaking",
          "type": "address"
        }
      ],
      "name": "setTRENStaking",
      "outputs": [],
      "stateMutability": "nonpayable",
      "type": "function"
    },
    {
      "inputs": [
        {
          "internalType": "address",
          "name": "_asset",
          "type": "address"
        },
        {
          "internalType": "address",
          "name": "_borrower",
          "type": "address"
        },
        {
          "internalType": "uint256",
          "name": "_num",
          "type": "uint256"
        }
      ],
      "name": "setTrenBoxStatus",
      "outputs": [],
      "stateMutability": "nonpayable",
      "type": "function"
    },
    {
      "inputs": [],
      "name": "sortedTrenBoxes",
      "outputs": [
        {
          "internalType": "address",
          "name": "",
          "type": "address"
        }
      ],
      "stateMutability": "view",
      "type": "function"
    },
    {
      "inputs": [],
      "name": "stabilityPool",
      "outputs": [
        {
          "internalType": "address",
          "name": "",
          "type": "address"
        }
      ],
      "stateMutability": "view",
      "type": "function"
    },
    {
      "inputs": [],
      "name": "timelockAddress",
      "outputs": [
        {
          "internalType": "address",
          "name": "",
          "type": "address"
        }
      ],
      "stateMutability": "view",
      "type": "function"
    },
    {
      "inputs": [
        {
          "internalType": "address",
          "name": "collateral",
          "type": "address"
        }
      ],
      "name": "totalCollateralSnapshot",
      "outputs": [
        {
          "internalType": "uint256",
          "name": "totalCollateral",
          "type": "uint256"
        }
      ],
      "stateMutability": "view",
      "type": "function"
    },
    {
      "inputs": [
        {
          "internalType": "address",
          "name": "collateral",
          "type": "address"
        }
      ],
      "name": "totalStakes",
      "outputs": [
        {
          "internalType": "uint256",
          "name": "totalStake",
          "type": "uint256"
        }
      ],
      "stateMutability": "view",
      "type": "function"
    },
    {
      "inputs": [
        {
          "internalType": "address",
          "name": "collateral",
          "type": "address"
        }
      ],
      "name": "totalStakesSnapshot",
      "outputs": [
        {
          "internalType": "uint256",
          "name": "totalStake",
          "type": "uint256"
        }
      ],
      "stateMutability": "view",
      "type": "function"
    },
    {
      "inputs": [
        {
          "internalType": "address",
          "name": "newOwner",
          "type": "address"
        }
      ],
      "name": "transferOwnership",
      "outputs": [],
      "stateMutability": "nonpayable",
      "type": "function"
    },
    {
      "inputs": [],
      "name": "treasuryAddress",
      "outputs": [
        {
          "internalType": "address",
          "name": "",
          "type": "address"
        }
      ],
      "stateMutability": "view",
      "type": "function"
    },
    {
      "inputs": [],
      "name": "trenBoxManager",
      "outputs": [
        {
          "internalType": "address",
          "name": "",
          "type": "address"
        }
      ],
      "stateMutability": "view",
      "type": "function"
    },
    {
      "inputs": [],
      "name": "trenBoxManagerOperations",
      "outputs": [
        {
          "internalType": "address",
          "name": "",
          "type": "address"
        }
      ],
      "stateMutability": "view",
      "type": "function"
    },
    {
      "inputs": [
        {
          "internalType": "address",
          "name": "collateral",
          "type": "address"
        },
        {
          "internalType": "uint256",
          "name": "",
          "type": "uint256"
        }
      ],
      "name": "trenBoxOwners",
      "outputs": [
        {
          "internalType": "address",
          "name": "owners",
          "type": "address"
        }
      ],
      "stateMutability": "view",
      "type": "function"
    },
    {
      "inputs": [],
      "name": "trenBoxStorage",
      "outputs": [
        {
          "internalType": "address",
          "name": "",
          "type": "address"
        }
      ],
      "stateMutability": "view",
      "type": "function"
    },
    {
      "inputs": [],
      "name": "trenStaking",
      "outputs": [
        {
          "internalType": "address",
          "name": "",
          "type": "address"
        }
      ],
      "stateMutability": "view",
      "type": "function"
    },
    {
      "inputs": [
        {
          "internalType": "address",
          "name": "_asset",
          "type": "address"
        },
        {
          "internalType": "uint256",
          "name": "_assetDrawn",
          "type": "uint256"
        },
        {
          "internalType": "uint256",
          "name": "_price",
          "type": "uint256"
        },
        {
          "internalType": "uint256",
          "name": "_totalDebtTokenSupply",
          "type": "uint256"
        }
      ],
      "name": "updateBaseRateFromRedemption",
      "outputs": [],
      "stateMutability": "nonpayable",
      "type": "function"
    },
    {
      "inputs": [
        {
          "internalType": "address",
          "name": "_asset",
          "type": "address"
        },
        {
          "internalType": "address",
          "name": "_borrower",
          "type": "address"
        }
      ],
      "name": "updateStakeAndTotalStakes",
      "outputs": [
        {
          "internalType": "uint256",
          "name": "",
          "type": "uint256"
        }
      ],
      "stateMutability": "nonpayable",
      "type": "function"
    },
    {
      "inputs": [
        {
          "internalType": "address",
          "name": "_asset",
          "type": "address"
        },
        {
          "internalType": "uint256",
          "name": "_collRemainder",
          "type": "uint256"
        }
      ],
      "name": "updateSystemSnapshots_excludeCollRemainder",
      "outputs": [],
      "stateMutability": "nonpayable",
      "type": "function"
    },
    {
      "inputs": [
        {
          "internalType": "address",
          "name": "_asset",
          "type": "address"
        },
        {
          "internalType": "address",
          "name": "_borrower",
          "type": "address"
        }
      ],
      "name": "updateTrenBoxRewardSnapshots",
      "outputs": [],
      "stateMutability": "nonpayable",
      "type": "function"
    },
    {
      "inputs": [
        {
          "internalType": "address",
          "name": "newImplementation",
          "type": "address"
        },
        {
          "internalType": "bytes",
          "name": "data",
          "type": "bytes"
        }
      ],
      "name": "upgradeToAndCall",
      "outputs": [],
      "stateMutability": "payable",
      "type": "function"
    }
  ],
  "transactionHash": "0xc8d72e5defda8347940a813155f415967514ef8af943db4983db43c5448c9945",
  "args": [],
  "numDeployments": 1,
  "solcInputHash": "10f736271acd8614150314323b008696",
  "bytecode": "0x60a06040523060805234801561001457600080fd5b50608051614dc761003e600039600081816139410152818161396a0152613aab0152614dc76000f3fe6080604052600436106104d65760003560e01c80638adb81fe11610281578063c5f956af1161015a578063dbe9f919116100cc578063f2fde38b11610085578063f2fde38b146110eb578063f8d898981461110b578063f9a3d41f1461112b578063fb4e863c14611172578063fd01d98314611192578063fe060733146111dc57600080fd5b8063dbe9f91914611011578063de66583514611031578063df349ed51461105e578063df4fb9ef1461108b578063e62c521e146110ab578063f1c05a7e146110cb57600080fd5b8063cc8b21e41161011e578063cc8b21e414610ef3578063d0f312b714610f13578063d1a71b5f14610f40578063d201d32814610f60578063d299e9bb14610f80578063da3835ad14610ff157600080fd5b8063c5f956af14610e22578063c7b5548114610e42578063c8564c6214610e5e578063c93fd44a14610e7f578063ca75007914610ed357600080fd5b8063b65c72bf116101f3578063c05c5e94116101b7578063c05c5e9414610d62578063c226882314610d82578063c2bac5f114610da2578063c415b95c14610dc2578063c4d66de814610de2578063c5d75f7b14610e0257600080fd5b8063b65c72bf14610cac578063b6d3b04714610ccc578063b957172114610cec578063bc8793a914610d0c578063be16a09614610d4257600080fd5b8063a3abe09811610245578063a3abe09814610ba7578063a3f4df7e14610bc7578063aa178b5614610c0e578063ad3cb1cc14610c2e578063af3700dc14610c5f578063b1eafaab14610c8c57600080fd5b80638adb81fe14610aea5780638da5cb5b14610b0a57806390ec230114610b4757806395fb16bb14610b675780639e86d0c414610b8757600080fd5b80634169467d116103b357806361ec893d116103255780637012f7fb116102e95780637012f7fb14610a28578063715018a614610a48578063741bef1a14610a5d57806377553ad414610a7d57806384934b5914610a9d5780638a490ebf14610aca57600080fd5b806361ec893d146109695780636a2ffe361461097e5780636a85d67d146109c85780636f4ecd45146109e85780636fc6ecfc14610a0857600080fd5b806350c5ef2e1161037757806350c5ef2e146108a757806352576cdf146108c757806352d1902d146108e7578063551886b7146108fc57806355dafa461461091c5780635c6944e81461093c57600080fd5b80634169467d1461081457806349fe8858146108345780634bc66f32146108545780634eebd97f146108745780634f1ef2861461089457600080fd5b806326f7a0d41161044c57806333eeaefd1161041057806333eeaefd146107545780633982598e146107745780633d36cc95146107945780633d9ef931146107b45780633f84a44d146107d457806341107210146107f457600080fd5b806326f7a0d41461067757806327d04b35146106b75780632dcfca60146106d757806330d0a26114610707578063328e14041461072757600080fd5b80630a34d4d61161049e5780630a34d4d61461059d5780630e009ffc146105bd5780631ee9211f146105dd5780631f12cc41146105fd57806325c79ff41461062a57806325eeff301461065757600080fd5b806301c93100146104db578063048c661d146104fd578063053cd8e81461053a578063061e9dc314610568578063071a754114610588575b600080fd5b3480156104e757600080fd5b506104fb6104f6366004614730565b6111fc565b005b34801561050957600080fd5b5060095461051d906001600160a01b031681565b6040516001600160a01b0390911681526020015b60405180910390f35b34801561054657600080fd5b5061055a61055536600461474d565b61124d565b604051908152602001610531565b34801561057457600080fd5b5061055a610583366004614786565b611309565b34801561059457600080fd5b5061055a600281565b3480156105a957600080fd5b50600d5461051d906001600160a01b031681565b3480156105c957600080fd5b506104fb6105d83660046147c7565b61137c565b3480156105e957600080fd5b5061055a6105f8366004614842565b611548565b34801561060957600080fd5b5061055a610618366004614730565b60316020526000908152604090205481565b34801561063657600080fd5b5061055a610645366004614730565b60376020526000908152604090205481565b34801561066357600080fd5b506104fb61067236600461486e565b611563565b34801561068357600080fd5b5061069761069236600461474d565b611828565b604080519485526020850193909352918301526060820152608001610531565b3480156106c357600080fd5b5061055a6106d2366004614730565b611898565b3480156106e357600080fd5b506106f76106f236600461474d565b611908565b6040519015158152602001610531565b34801561071357600080fd5b506104fb6107223660046148bf565b611959565b34801561073357600080fd5b5061055a610742366004614730565b603a6020526000908152604090205481565b34801561076057600080fd5b5061055a61076f366004614786565b611994565b34801561078057600080fd5b5061055a61078f366004614786565b6119f7565b3480156107a057600080fd5b5061055a6107af366004614730565b611b09565b3480156107c057600080fd5b506104fb6107cf36600461474d565b611b1d565b3480156107e057600080fd5b50600e5461051d906001600160a01b031681565b34801561080057600080fd5b5061055a61080f366004614842565b611b71565b34801561082057600080fd5b5060055461051d906001600160a01b031681565b34801561084057600080fd5b5061055a61084f366004614842565b611b7f565b34801561086057600080fd5b50600a5461051d906001600160a01b031681565b34801561088057600080fd5b506104fb61088f36600461474d565b611b8b565b6104fb6108a236600461490a565b611bc0565b3480156108b357600080fd5b5061055a6108c236600461474d565b611bdb565b3480156108d357600080fd5b506106f76108e2366004614786565b611c1a565b3480156108f357600080fd5b5061055a611e41565b34801561090857600080fd5b5061055a610917366004614842565b611e5e565b34801561092857600080fd5b5060065461051d906001600160a01b031681565b34801561094857600080fd5b5061055a610957366004614730565b60306020526000908152604090205481565b34801561097557600080fd5b5061055a603c81565b34801561098a57600080fd5b5061055a61099936600461474d565b6001600160a01b0380821660009081526032602090815260408083209386168352929052206001015492915050565b3480156109d457600080fd5b506104fb6109e3366004614730565b611e6a565b3480156109f457600080fd5b506104fb610a03366004614786565b611ebb565b348015610a1457600080fd5b5061051d610a23366004614842565b611f44565b348015610a3457600080fd5b506104fb610a433660046149ce565b611f7c565b348015610a5457600080fd5b506104fb612262565b348015610a6957600080fd5b5060075461051d906001600160a01b031681565b348015610a8957600080fd5b5060015461051d906001600160a01b031681565b348015610aa957600080fd5b5061055a610ab8366004614730565b603b6020526000908152604090205481565b348015610ad657600080fd5b506106f7610ae5366004614842565b612276565b348015610af657600080fd5b506104fb610b05366004614786565b612282565b348015610b1657600080fd5b507f9016d09d72d40fdae2fd8ceac6b6234c7706214fd39c1cd1e609a0528c199300546001600160a01b031661051d565b348015610b5357600080fd5b5061055a610b6236600461474d565b612409565b348015610b7357600080fd5b5060025461051d906001600160a01b031681565b348015610b9357600080fd5b5061055a610ba2366004614730565b612428565b348015610bb357600080fd5b5061055a610bc2366004614842565b61245b565b348015610bd357600080fd5b50610c016040518060400160405280600e81526020016d2a3932b72137bc26b0b730b3b2b960911b81525081565b6040516105319190614a36565b348015610c1a57600080fd5b506104fb610c2936600461474d565b6124e9565b348015610c3a57600080fd5b50610c01604051806040016040528060058152602001640352e302e360dc1b81525081565b348015610c6b57600080fd5b5061055a610c7a366004614730565b60346020526000908152604090205481565b348015610c9857600080fd5b5061055a610ca7366004614786565b6125cf565b348015610cb857600080fd5b506104fb610cc7366004614a69565b6125ef565b348015610cd857600080fd5b5061055a610ce7366004614730565b61271d565b348015610cf857600080fd5b506104fb610d07366004614aaf565b612750565b348015610d1857600080fd5b5061055a610d27366004614730565b6001600160a01b031660009081526039602052604090205490565b348015610d4e57600080fd5b5061055a610d5d36600461474d565b612bf9565b348015610d6e57600080fd5b5060005461051d906001600160a01b031681565b348015610d8e57600080fd5b5061051d610d9d366004614842565b612ca9565b348015610dae57600080fd5b5061055a610dbd366004614786565b612cef565b348015610dce57600080fd5b5060045461051d906001600160a01b031681565b348015610dee57600080fd5b506104fb610dfd366004614730565b612d5b565b348015610e0e57600080fd5b506104fb610e1d366004614b24565b612e7b565b348015610e2e57600080fd5b50600b5461051d906001600160a01b031681565b348015610e4e57600080fd5b5061055a670ddd4b8c6c7d70d881565b348015610e6a57600080fd5b50600e546106f790600160a01b900460ff1681565b348015610e8b57600080fd5b50610ebe610e9a36600461474d565b60386020908152600092835260408084209091529082529020805460019091015482565b60408051928352602083019190915201610531565b348015610edf57600080fd5b506104fb610eee366004614786565b612f70565b348015610eff57600080fd5b5060085461051d906001600160a01b031681565b348015610f1f57600080fd5b5061055a610f2e366004614730565b60366020526000908152604090205481565b348015610f4c57600080fd5b5061055a610f5b36600461474d565b6130b7565b348015610f6c57600080fd5b5061055a610f7b366004614730565b613187565b348015610f8c57600080fd5b50610fe0610f9b36600461474d565b603260209081526000928352604080842090915290825290208054600182015460028301546003909301549192909160ff81169061010090046001600160801b031685565b604051610531959493929190614b75565b348015610ffd57600080fd5b506104fb61100c366004614842565b6131ab565b34801561101d57600080fd5b5061055a61102c36600461474d565b6132d6565b34801561103d57600080fd5b5061055a61104c366004614730565b60356020526000908152604090205481565b34801561106a57600080fd5b5061055a611079366004614730565b60336020526000908152604090205481565b34801561109757600080fd5b506104fb6110a636600461474d565b61330e565b3480156110b757600080fd5b506106f76110c636600461474d565b61337b565b3480156110d757600080fd5b50600c5461051d906001600160a01b031681565b3480156110f757600080fd5b506104fb611106366004614730565b613391565b34801561111757600080fd5b5060035461051d906001600160a01b031681565b34801561113757600080fd5b5061055a61114636600461474d565b6001600160a01b0380821660009081526032602090815260408083209386168352929052205492915050565b34801561117e57600080fd5b506104fb61118d36600461474d565b6133cf565b34801561119e57600080fd5b5061055a6111ad36600461474d565b6001600160a01b0380821660009081526032602090815260408083209386168352929052206002015492915050565b3480156111e857600080fd5b506104fb6111f7366004614730565b61341d565b611204613426565b6001600160a01b03811661122b576040516385d3330760e01b815260040160405180910390fd5b600680546001600160a01b0319166001600160a01b0392909216919091179055565b6001600160a01b0380821660009081526038602090815260408083209386168352928152828220600101546037909152918120549091908290611291908390614bcf565b90508015806112a757506112a5858561337b565b155b156112b757600092505050611303565b6001600160a01b03808516600090815260326020908152604080832093891683529290522060020154670de0b6b3a76400006112f38383614be2565b6112fd9190614c0f565b93505050505b92915050565b6001546000906001600160a01b031633146113375760405163233e9fff60e01b815260040160405180910390fd5b6001600160a01b038084166000908152603260209081526040808320938816835292905220600181015461136c908490614c23565b6001909101819055949350505050565b600d546001600160a01b031633146113a757604051634f1d868560e11b815260040160405180910390fd5b60085460405163bc9b5bd560e01b81526001600160a01b038981166004830152888116602483015260448201869052848116606483015283811660848301529091169063bc9b5bd59060a401600060405180830381600087803b15801561140d57600080fd5b505af1158015611421573d6000803e3d6000fd5b5050506001600160a01b038088166000908152603260209081526040808320938c168352929052908120805490925061145a8882614bcf565b61146c90670de0b6b3a7640000614be2565b6114769190614c0f565b905080156114e45760048054604051631dac1e3160e31b81526001600160a01b039091169163ed60f188916114b1918c918e91879101614c36565b600060405180830381600087803b1580156114cb57600080fd5b505af11580156114df573d6000803e3d6000fd5b505050505b868255600182018690556114f88989613481565b50876001600160a01b0316896001600160a01b0316600080516020614d5b8339815191528989866002015460036040516115359493929190614c6e565b60405180910390a3505050505050505050565b600061155c61155684613187565b8361355d565b9392505050565b600d546001600160a01b0316331461158e57604051634f1d868560e11b815260040160405180910390fd5b81156116de576000600460009054906101000a90046001600160a01b03166001600160a01b03166373c9bde06040518163ffffffff1660e01b8152600401602060405180830381865afa1580156115e9573d6000803e3d6000fd5b505050506040513d601f19601f8201168201806040525081019061160d9190614c90565b600e5460405163715aa61b60e01b81529192506001600160a01b03169063715aa61b9061164290899085908890600401614c36565b600060405180830381600087803b15801561165c57600080fd5b505af1158015611670573d6000803e3d6000fd5b505060048054604051634a79195760e01b81526001600160a01b038b8116938201939093526024810188905291169250634a7919579150604401600060405180830381600087803b1580156116c457600080fd5b505af11580156116d8573d6000803e3d6000fd5b50505050505b600354604051632770a7eb60e21b81526001600160a01b0386811660048301526024820186905290911690639dc29fac90604401600060405180830381600087803b15801561172c57600080fd5b505af1158015611740573d6000803e3d6000fd5b50505050600082826117529190614bcf565b600e5460405163a47055e760e01b81526001600160a01b0389811660048301526024820188905292935091169063a47055e790604401600060405180830381600087803b1580156117a257600080fd5b505af11580156117b6573d6000803e3d6000fd5b5050600e5460405163715aa61b60e01b81526001600160a01b03909116925063715aa61b91506117ee90899089908690600401614c36565b600060405180830381600087803b15801561180857600080fd5b505af115801561181c573d6000803e3d6000fd5b50505050505050505050565b600080600080611838868661124d565b91506118448686612bf9565b6001600160a01b038087166000908152603260209081526040808320938b1683529290522080549192509061187a908490614c23565b945081816001015461188c9190614c23565b93505092959194509250565b600e5460405163b429464160e01b81526001600160a01b038381166004830152600092169063b4294641906024015b602060405180830381865afa1580156118e4573d6000803e3d6000fd5b505050506040513d601f19601f820116820180604052508101906113039190614cad565b6000611914838361337b565b61192057506000611303565b506001600160a01b0380831660008181526036602090815260408083205494861683526038825280832093835292905220541092915050565b600d546001600160a01b0316331461198457604051634f1d868560e11b815260040160405180910390fd5b61198f83838361359f565b505050565b6001546000906001600160a01b031633146119c25760405163233e9fff60e01b815260040160405180910390fd5b6001600160a01b038084166000908152603260209081526040808320938816835292905220600181015461136c908490614bcf565b6001546000906001600160a01b03163314611a255760405163233e9fff60e01b815260040160405180910390fd5b6001600160a01b038084166000908152603260209081526040808320938816835292905290812080549091849003611a6057915061155c9050565b600081611a7586670de0b6b3a7640000614be2565b611a7f9190614c0f565b90506000611a8d8684614bcf565b80855590508115611afe5760048054604051631dac1e3160e31b81526001600160a01b039091169163ed60f18891611acb918b918d91889101614c36565b600060405180830381600087803b158015611ae557600080fd5b505af1158015611af9573d6000803e3d6000fd5b505050505b979650505050505050565b600061130382611b18846135e6565b61364b565b6001546001600160a01b03163314801590611b435750600d546001600160a01b03163314155b15611b615760405163bb9aee2760e01b815260040160405180910390fd5b611b6d828260026136d7565b5050565b600061155c61155684611b09565b600061155c8383613895565b6001546001600160a01b03163314611bb65760405163233e9fff60e01b815260040160405180910390fd5b611b6d82826138bb565b611bc8613936565b611bd1826139db565b611b6d82826139e3565b6001600160a01b03808216600090815260326020908152604080832093861683529290529081206003015460ff16600581111561155c5761155c614b5f565b60006001600160a01b0383161580611ca55750600854604051631da4d95d60e31b81526001600160a01b03868116600483015285811660248301529091169063ed26cae890604401602060405180830381865afa158015611c7f573d6000803e3d6000fd5b505050506040513d601f19601f82011682018060405250810190611ca39190614cc6565b155b80611d265750600054604051633c557a6f60e11b81526001600160a01b038681166004830152909116906378aaf4de90602401602060405180830381865afa158015611cf5573d6000803e3d6000fd5b505050506040513d601f19601f82011682018060405250810190611d199190614cad565b611d248585856125cf565b105b15611d335750600061155c565b6008546040516339ed25cd60e01b81526001600160a01b038681166004830152858116602483015260009216906339ed25cd90604401602060405180830381865afa158015611d86573d6000803e3d6000fd5b505050506040513d601f19601f82011682018060405250810190611daa9190614c90565b90506001600160a01b0381161580611e385750600054604051633c557a6f60e11b81526001600160a01b038781166004830152909116906378aaf4de90602401602060405180830381865afa158015611e07573d6000803e3d6000fd5b505050506040513d601f19601f82011682018060405250810190611e2b9190614cad565b611e368683866125cf565b105b95945050505050565b6000611e4b613aa0565b50600080516020614d7b83398151915290565b600061155c8383613ae9565b611e72613426565b6001600160a01b038116611e995760405163706ebc6560e11b815260040160405180910390fd5b600280546001600160a01b0319166001600160a01b0392909216919091179055565b6001546001600160a01b03163314611ee65760405163233e9fff60e01b815260040160405180910390fd5b806005811115611ef857611ef8614b5f565b6001600160a01b038084166000908152603260209081526040808320938816835292905220600301805460ff19166001836005811115611f3a57611f3a614b5f565b0217905550505050565b60396020528160005260406000208181548110611f6057600080fd5b6000918252602090912001546001600160a01b03169150829050565b611f84613b62565b600d546001600160a01b03163314611faf57604051634f1d868560e11b815260040160405180910390fd5b600954604051631091da8960e01b8152600481018490526001600160a01b0387811660248301526044820184905290911690631091da8990606401600060405180830381600087803b15801561200457600080fd5b505af1158015612018573d6000803e3d6000fd5b505050508360000315612244576001600160a01b0385166000908152603a6020526040812054612050670de0b6b3a764000086614be2565b61205a9190614c23565b6001600160a01b0387166000908152603b602052604081205491925090612089670de0b6b3a764000088614be2565b6120939190614c23565b6001600160a01b0388166000908152603360205260408120549192506120b98285614c0f565b905060006120c78385614c0f565b90506120d38383614be2565b6120dd9086614bcf565b6001600160a01b038b166000908152603a60205260409020556121008382614be2565b61210a9085614bcf565b6001600160a01b038b166000908152603b6020908152604080832093909355603690529081205461213c908490614c23565b6001600160a01b038c1660009081526037602052604081205491925090612164908490614c23565b6001600160a01b038d1660008181526036602090815260408083208790556037825291829020849055815186815290810184905292935090917f6f63d00bdf85957664165c9e20900aabd5a17378cb5c0955ce760e48a6ae48c7910160405180910390a2600e54604051636398878d60e11b81526001600160a01b038e81166004830152602482018e9052604482018d9052600060648301529091169063c7310f1a90608401600060405180830381600087803b15801561222457600080fd5b505af1158015612238573d6000803e3d6000fd5b50505050505050505050505b61225b6001600080516020614d9b83398151915255565b5050505050565b61226a613426565b6122746000613bae565b565b600061155c8383613c1f565b61228a613b62565b600d546001600160a01b031633146122b557604051634f1d868560e11b815260040160405180910390fd5b6122bf8383613ca4565b6122cb838360046136d7565b60005460405163c08261db60e01b81526001600160a01b03808616600483015261234792869286929091169063c08261db90602401602060405180830381865afa15801561231d573d6000803e3d6000fd5b505050506040513d601f19601f820116820180604052508101906123419190614cad565b84613cfa565b6004805460405163871d814560e01b81526001600160a01b0385811693820193909352858316602482015291169063871d814590604401600060405180830381600087803b15801561239857600080fd5b505af11580156123ac573d6000803e3d6000fd5b50505050816001600160a01b0316836001600160a01b0316600080516020614d5b833981519152600080600060036040516123ea9493929190614c6e565b60405180910390a361198f6001600080516020614d9b83398151915255565b60008060006124188585613e3b565b9150915060006112fd8383613f24565b600e54604051635845309f60e11b81526001600160a01b038381166004830152600092169063b08a613e906024016118c7565b6000805460405163300581d960e01b81526001600160a01b038581166004830152670de0b6b3a764000092859291169063300581d990602401602060405180830381865afa1580156124b1573d6000803e3d6000fd5b505050506040513d601f19601f820116820180604052508101906124d59190614cad565b6124df9190614be2565b61155c9190614c0f565b600d546001600160a01b0316331461251457604051634f1d868560e11b815260040160405180910390fd5b612520828260036136d7565b6004805460405163aa36069d60e01b81526001600160a01b0384811693820193909352848316602482015291169063aa36069d90604401600060405180830381600087803b15801561257157600080fd5b505af1158015612585573d6000803e3d6000fd5b50505050806001600160a01b0316826001600160a01b0316600080516020614d5b833981519152600080600060016040516125c39493929190614c6e565b60405180910390a35050565b60008060006125de8686613e3b565b915091506000611afe838387613f5a565b6125f7613b62565b600d546001600160a01b0316331461262257604051634f1d868560e11b815260040160405180910390fd5b811561269357600354600e54604051631062c15f60e11b81526001600160a01b03928316926320c582be926126609291169087908790600401614c36565b600060405180830381600087803b15801561267a57600080fd5b505af115801561268e573d6000803e3d6000fd5b505050505b801561270057600e5460405163715aa61b60e01b81526001600160a01b039091169063715aa61b906126cd90879087908690600401614c36565b600060405180830381600087803b1580156126e757600080fd5b505af11580156126fb573d6000803e3d6000fd5b505050505b6127176001600080516020614d9b83398151915255565b50505050565b6000805460405163300581d960e01b81526001600160a01b0384811660048301529091169063300581d9906024016118c7565b612758613426565b600e54600160a01b900460ff161561278257604051625f22e960e41b815260040160405180910390fd5b600d81146127a357604051633f5a111d60e21b815260040160405180910390fd5b60005b600d8110156128465760008383838181106127c3576127c3614ce8565b90506020020160208101906127d89190614730565b6001600160a01b03160361283e57808383838181106127f9576127f9614ce8565b905060200201602081019061280e9190614730565b604051630d9d339f60e01b815260048101929092526001600160a01b031660248201526044015b60405180910390fd5b6001016127a6565b508181600081811061285a5761285a614ce8565b905060200201602081019061286f9190614730565b600080546001600160a01b0319166001600160a01b0392909216919091179055818160018181106128a2576128a2614ce8565b90506020020160208101906128b79190614730565b600180546001600160a01b0319166001600160a01b0392909216919091179055818160028181106128ea576128ea614ce8565b90506020020160208101906128ff9190614730565b600380546001600160a01b0319166001600160a01b03929092169190911781558290829081811061293257612932614ce8565b90506020020160208101906129479190614730565b600480546001600160a01b0319166001600160a01b03929092169190911781558290829081811061297a5761297a614ce8565b905060200201602081019061298f9190614730565b600580546001600160a01b0319166001600160a01b0392909216919091178155829082908181106129c2576129c2614ce8565b90506020020160208101906129d79190614730565b600780546001600160a01b0319166001600160a01b039290921691909117905581816006818110612a0a57612a0a614ce8565b9050602002016020810190612a1f9190614730565b600880546001600160a01b0319166001600160a01b039290921691909117905581816007818110612a5257612a52614ce8565b9050602002016020810190612a679190614730565b600980546001600160a01b0319166001600160a01b039290921691909117905581816008818110612a9a57612a9a614ce8565b9050602002016020810190612aaf9190614730565b600a80546001600160a01b0319166001600160a01b039290921691909117905581816009818110612ae257612ae2614ce8565b9050602002016020810190612af79190614730565b600b80546001600160a01b0319166001600160a01b03929092169190911790558181600a818110612b2a57612b2a614ce8565b9050602002016020810190612b3f9190614730565b600c80546001600160a01b0319166001600160a01b03929092169190911790558181600b818110612b7257612b72614ce8565b9050602002016020810190612b879190614730565b600d80546001600160a01b0319166001600160a01b03929092169190911790558181600c818110612bba57612bba614ce8565b9050602002016020810190612bcf9190614730565b600e80546001600160a81b0319166001600160a01b039290921691909117600160a01b1790555050565b6001600160a01b0380821660009081526038602090815260408083209386168352928152828220546036909152918120549091908290612c3a908390614bcf565b9050801580612c505750612c4e858561337b565b155b15612c6057600092505050611303565b6001600160a01b03808516600090815260326020908152604080832093891683529290529081206002015490670de0b6b3a7640000612c9f8484614be2565b611afe9190614c0f565b6001600160a01b0382166000908152603960205260408120805483908110612cd357612cd3614ce8565b6000918252602090912001546001600160a01b03169392505050565b6001546000906001600160a01b03163314612d1d5760405163233e9fff60e01b815260040160405180910390fd5b6001600160a01b0380841660009081526032602090815260408083209388168352929052208054612d4f908490614c23565b90819055949350505050565b7ff0c57e16840df040f15088dc2f81fe391c3923bec73e23a9662efc9c229c6a008054600160401b810460ff16159067ffffffffffffffff16600081158015612da15750825b905060008267ffffffffffffffff166001148015612dbe5750303b155b905081158015612dcc575080155b15612dea5760405163f92ee8a960e01b815260040160405180910390fd5b845467ffffffffffffffff191660011785558315612e1457845460ff60401b1916600160401b1785555b612e1d86613f8b565b612e25613f9c565b612e2d613fa4565b8315612e7357845460ff60401b19168555604051600181527fc7f505b2f371ae2175ee4913f4499e1f2633a7b5936321eed1cdaeb6115181d29060200160405180910390a15b505050505050565b600d546001600160a01b03163314612ea657604051634f1d868560e11b815260040160405180910390fd5b6000612eb1856135e6565b9050600082612ec08587614be2565b612eca9190614c0f565b90506000612ed9600283614c0f565b612ee39084614c23565b9050612ef781670de0b6b3a7640000613fb4565b905060008111612f0957612f09614cfe565b6001600160a01b03871660008181526030602052604090819020839055517f2f992d01b594c040f05262961e43f8311e780be5fee3deb4c57880dd6374d12d90612f569084815260200190565b60405180910390a2612f6787613fca565b50505050505050565b600d546001600160a01b03163314612f9b57604051634f1d868560e11b815260040160405180910390fd5b612fa7838360056136d7565b6004805460405163aa36069d60e01b81526001600160a01b0385811693820193909352858316602482015291169063aa36069d90604401600060405180830381600087803b158015612ff857600080fd5b505af115801561300c573d6000803e3d6000fd5b50505050816001600160a01b0316836001600160a01b0316600080516020614d5b8339815191526000806000600460405161304a9493929190614c6e565b60405180910390a3600354600e54604051632770a7eb60e21b81526001600160a01b03918216600482015260248101849052911690639dc29fac906044015b600060405180830381600087803b1580156130a357600080fd5b505af1158015612f67573d6000803e3d6000fd5b6001546000906001600160a01b031633146130e55760405163233e9fff60e01b815260040160405180910390fd5b6001600160a01b03838116600090815260396020908152604082208054600180820183558285529290932090920180546001600160a01b031916938616939093179092558054909161313691614bcf565b6001600160a01b03808516600090815260326020908152604080832093891683529290522060030180546001600160801b03831661010002610100600160881b031990911617905591505092915050565b6001600160a01b03811660009081526030602052604081205461130390839061364b565b600d546001600160a01b031633146131d657604051634f1d868560e11b815260040160405180910390fd5b6001600160a01b038281166000818152603360209081526040808320546034909252808320829055600e549051635845309f60e11b815260048101949094529093919291169063b08a613e90602401602060405180830381865afa158015613242573d6000803e3d6000fd5b505050506040513d601f19601f820116820180604052508101906132669190614cad565b905060006132748483614bcf565b6001600160a01b038616600081815260356020908152604091829020849055815187815290810184905292935090917f9ea5863ffc9d961d6c6bb67235c553dfbdbcc8fe12671cdba8887a50501efbaf91015b60405180910390a25050505050565b6001546000906001600160a01b031633146133045760405163233e9fff60e01b815260040160405180910390fd5b61155c8383613481565b613316613b62565b6001546001600160a01b0316331480159061333c5750600d546001600160a01b03163314155b1561335a5760405163bb9aee2760e01b815260040160405180910390fd5b613364828261404c565b611b6d6001600080516020614d9b83398151915255565b600060016133898484611bdb565b149392505050565b613399613426565b6001600160a01b0381166133c357604051631e4fbdf760e01b815260006004820152602401612835565b6133cc81613bae565b50565b6001546001600160a01b031633148015906133f55750600d546001600160a01b03163314155b156134135760405163bb9aee2760e01b815260040160405180910390fd5b611b6d8282613ca4565b6133cc816139db565b336134587f9016d09d72d40fdae2fd8ceac6b6234c7706214fd39c1cd1e609a0528c199300546001600160a01b031690565b6001600160a01b0316146122745760405163118cdaa760e01b8152336004820152602401612835565b6001600160a01b0380821660009081526032602090815260408083209386168352929052908120600181015482906134ba908690614124565b600283018054908290556001600160a01b038716600090815260336020526040812054929350909183906134ef908490614bcf565b6134f99190614c23565b6001600160a01b0388166000818152603360205260409081902083905551919250907fd5630907014190fb9340da1cf427c96f094dabfbf73d25506e4b0cda9e3a4ca09061354a9084815260200190565b60405180910390a2509095945050505050565b600080670de0b6b3a76400006135738486614be2565b61357d9190614c0f565b905082811061155c5760405163515deaf560e11b815260040160405180910390fd5b600e54604051636398878d60e11b81526001600160a01b0385811660048301526024820185905260448201849052600160648301529091169063c7310f1a90608401613089565b6000806135f283614191565b90506000613608670ddd4b8c6c7d70d8836141c1565b6001600160a01b038516600090815260306020526040902054909150670de0b6b3a764000090613639908390614be2565b6136439190614c0f565b949350505050565b6000805460405163443c4fcb60e01b81526001600160a01b03858116600483015261155c92859291169063443c4fcb90602401602060405180830381865afa15801561369b573d6000803e3d6000fd5b505050506040513d601f19601f820116820180604052508101906136bf9190614cad565b6136c99190614c23565b670de0b6b3a7640000613fb4565b60008160058111156136eb576136eb614b5f565b1415801561370b5750600181600581111561370857613708614b5f565b14155b61371757613717614cfe565b6001600160a01b0383166000908152603960205260409020546001811115806137ad575060085460405163504f167160e01b81526001600160a01b038681166004830152600192169063504f167190602401602060405180830381865afa158015613786573d6000803e3d6000fd5b505050506040513d601f19601f820116820180604052508101906137aa9190614cad565b11155b156137cb57604051636d0c780760e11b815260040160405180910390fd5b6001600160a01b03808416600090815260326020908152604080832093881683529290522060038101805484919060ff1916600183600581111561381157613811614b5f565b0217905550600060018083018290558183556001600160a01b038087168352603860209081526040808520928a16855291905282208281559081019190915561385b86868561426c565b600854604051637f7c149160e01b81526001600160a01b038881166004830152878116602483015290911690637f7c1491906044016117ee565b6000806138a184612428565b905060006138ae85611898565b9050611e38828286613f5a565b6001600160a01b038281166000818152603660209081526040808320546037835281842054958716845260388352818420858552835292819020838155600181018690558151848152928301869052929493917fab91bee461c0d312c5595fb740744d5f01f42f2032cd4647b93d67fa9eedda1591016132c7565b306001600160a01b037f00000000000000000000000000000000000000000000000000000000000000001614806139bd57507f00000000000000000000000000000000000000000000000000000000000000006001600160a01b03166139b1600080516020614d7b833981519152546001600160a01b031690565b6001600160a01b031614155b156122745760405163703e46dd60e11b815260040160405180910390fd5b6133cc613426565b816001600160a01b03166352d1902d6040518163ffffffff1660e01b8152600401602060405180830381865afa925050508015613a3d575060408051601f3d908101601f19168201909252613a3a91810190614cad565b60015b613a6557604051634c9c8ce360e01b81526001600160a01b0383166004820152602401612835565b600080516020614d7b8339815191528114613a9657604051632a87526960e21b815260048101829052602401612835565b61198f83836144c9565b306001600160a01b037f000000000000000000000000000000000000000000000000000000000000000016146122745760405163703e46dd60e11b815260040160405180910390fd5b6000805460405163c08261db60e01b81526001600160a01b0385811660048301529091169063c08261db90602401602060405180830381865afa158015613b34573d6000803e3d6000fd5b505050506040513d601f19601f82011682018060405250810190613b589190614cad565b61155c9083614bcf565b600080516020614d9b833981519152805460011901613b9457604051633ee5aeb560e01b815260040160405180910390fd5b60029055565b6001600080516020614d9b83398151915255565b7f9016d09d72d40fdae2fd8ceac6b6234c7706214fd39c1cd1e609a0528c19930080546001600160a01b031981166001600160a01b03848116918217845560405192169182907f8be0079c531659141344cd1fd0a4f28419497f9722a3daafe3b4186f6b6457e090600090a3505050565b600080613c2c8484613895565b60005460405163316a306d60e11b81526001600160a01b0387811660048301529293509116906362d460da90602401602060405180830381865afa158015613c78573d6000803e3d6000fd5b505050506040513d601f19601f82011682018060405250810190613c9c9190614cad565b119392505050565b6001600160a01b038082166000908152603260209081526040808320938616835292815282822060028101546033909252928220805491929091613ce9908490614bcf565b909155505060006002909101555050565b600354600e54604051632770a7eb60e21b81526001600160a01b03918216600482015260248101859052911690639dc29fac90604401600060405180830381600087803b158015613d4a57600080fd5b505af1158015613d5e573d6000803e3d6000fd5b5050600e54604051635051a4ab60e11b81526001600160a01b0388811660048301526024820187905260448201869052909116925063a0a349569150606401600060405180830381600087803b158015613db757600080fd5b505af1158015613dcb573d6000803e3d6000fd5b5050600e54604051633dac4a3b60e21b81526001600160a01b03909116925063f6b128ec9150613e0390879087908690600401614c36565b600060405180830381600087803b158015613e1d57600080fd5b505af1158015613e31573d6000803e3d6000fd5b5050505050505050565b6000806000613e4a8585612bf9565b90506000613e58868661124d565b6001600160a01b038087166000908152603260209081526040808320938b168352928152828220835160a0810185528154815260018201549281019290925260028101549382019390935260038301549394509092909190606083019060ff166005811115613ec957613ec9614b5f565b6005811115613eda57613eda614b5f565b81526003919091015461010090046001600160801b0316602091820152810151909150613f08908490614c23565b8151909550613f18908390614c23565b93505050509250929050565b60008115613f515781613f4068056bc75e2d6310000085614be2565b613f4a9190614c0f565b9050611303565b50600019611303565b60008215613f8257600083613f6f8487614be2565b613f799190614c0f565b915061155c9050565b5060001961155c565b613f9361451f565b6133cc81614568565b61227461451f565b613fac61451f565b612274614570565b6000818310613fc3578161155c565b5090919050565b6001600160a01b038116600090815260316020526040812054613fed9042614bcf565b9050603c8110611b6d576001600160a01b038216600081815260316020908152604091829020429081905591519182527f4b1a24436e474bd20ff461d446818e19b145a1ff52f698dec751807684621acc910160405180910390a25050565b6140568282611908565b61405e575050565b600061406a8383612bf9565b90506000614078848461124d565b6001600160a01b0380851660009081526032602090815260408083209389168352929052206001810154919250906140b1908490614c23565b600182015580546140c3908390614c23565b81556140cf85856138bb565b6140da85838561359f565b8054600182015460028301546040516001600160a01b0380891694908a1693600080516020614d5b8339815191529361411593600090614c6e565b60405180910390a35050505050565b6001600160a01b03821660009081526035602052604081205480820361414c5782915061418a565b6001600160a01b0384166000908152603460205260408120549081900361417557614175614cfe565b816141808286614be2565b611e389190614c0f565b5092915050565b6001600160a01b038116600090815260316020526040812054603c906141b79042614bcf565b6113039190614c0f565b6000631f5405008211156141d757631f54050091505b816000036141ee5750670de0b6b3a7640000611303565b670de0b6b3a764000083835b60018111156142625761420e600282614d14565b6000036142335761421f8283614578565b915061422c600282614c0f565b90506141fa565b61423d8284614578565b92506142498283614578565b91506002614258600183614bcf565b61422c9190614c0f565b6112fd8284614578565b6001600160a01b0380831660009081526032602090815260408083209387168352928152828220835160a08101855281548152600182015492810192909252600281015493820193909352600383015491929091606083019060ff1660058111156142d9576142d9614b5f565b60058111156142ea576142ea614b5f565b81526003919091015461010090046001600160801b0316602090910152905060008160600151600581111561432157614321614b5f565b14158015614345575060018160600151600581111561434257614342614b5f565b14155b61435157614351614cfe565b6080810151826000614364600183614bcf565b905080836001600160801b0316111561437f5761437f614cfe565b6001600160a01b038716600090815260396020526040812080549091908290849081106143ae576143ae614ce8565b9060005260206000200160009054906101000a90046001600160a01b031690508082866001600160801b0316815481106143ea576143ea614ce8565b600091825260208083209190910180546001600160a01b0319166001600160a01b03948516179055838316808352603282526040808420948e16808552948352928390206003018054610100600160881b0319166101006001600160801b038c16908102919091179091558351918252918101919091527f1db60184cd8151ac443301e990e6b7737de8e5b41a5d9093f95621606d6aa21e910160405180910390a28180548061449c5761449c614d28565b600082815260209020810160001990810180546001600160a01b0319169055019055505050505050505050565b6144d2826145a5565b6040516001600160a01b038316907fbc7cd75a20ee27fd9adebab32041f755214dbc6bffa90cc0225b39da2e5c2d3b90600090a28051156145175761198f828261460a565b611b6d614677565b7ff0c57e16840df040f15088dc2f81fe391c3923bec73e23a9662efc9c229c6a0054600160401b900460ff1661227457604051631afcd79f60e31b815260040160405180910390fd5b61339961451f565b613b9a61451f565b6000806145858385614be2565b9050670de0b6b3a764000061459b600282614c0f565b6136399083614c23565b806001600160a01b03163b6000036145db57604051634c9c8ce360e01b81526001600160a01b0382166004820152602401612835565b600080516020614d7b83398151915280546001600160a01b0319166001600160a01b0392909216919091179055565b6060600080846001600160a01b0316846040516146279190614d3e565b600060405180830381855af49150503d8060008114614662576040519150601f19603f3d011682016040523d82523d6000602084013e614667565b606091505b5091509150611e38858383614696565b34156122745760405163b398979f60e01b815260040160405180910390fd5b6060826146ab576146a6826146f2565b61155c565b81511580156146c257506001600160a01b0384163b155b156146eb57604051639996b31560e01b81526001600160a01b0385166004820152602401612835565b508061155c565b8051156147025780518082602001fd5b604051630a12f52160e11b815260040160405180910390fd5b6001600160a01b03811681146133cc57600080fd5b60006020828403121561474257600080fd5b813561155c8161471b565b6000806040838503121561476057600080fd5b823561476b8161471b565b9150602083013561477b8161471b565b809150509250929050565b60008060006060848603121561479b57600080fd5b83356147a68161471b565b925060208401356147b68161471b565b929592945050506040919091013590565b600080600080600080600060e0888a0312156147e257600080fd5b87356147ed8161471b565b965060208801356147fd8161471b565b955060408801359450606088013593506080880135925060a08801356148228161471b565b915060c08801356148328161471b565b8091505092959891949750929550565b6000806040838503121561485557600080fd5b82356148608161471b565b946020939093013593505050565b600080600080600060a0868803121561488657600080fd5b85356148918161471b565b945060208601356148a18161471b565b94979496505050506040830135926060810135926080909101359150565b6000806000606084860312156148d457600080fd5b83356148df8161471b565b95602085013595506040909401359392505050565b634e487b7160e01b600052604160045260246000fd5b6000806040838503121561491d57600080fd5b82356149288161471b565b9150602083013567ffffffffffffffff8082111561494557600080fd5b818501915085601f83011261495957600080fd5b81358181111561496b5761496b6148f4565b604051601f8201601f19908116603f01168101908382118183101715614993576149936148f4565b816040528281528860208487010111156149ac57600080fd5b8260208601602083013760006020848301015280955050505050509250929050565b600080600080600060a086880312156149e657600080fd5b85356149f18161471b565b97602087013597506040870135966060810135965060800135945092505050565b60005b83811015614a2d578181015183820152602001614a15565b50506000910152565b6020815260008251806020840152614a55816040850160208701614a12565b601f01601f19169190910160400192915050565b60008060008060808587031215614a7f57600080fd5b8435614a8a8161471b565b93506020850135614a9a8161471b565b93969395505050506040820135916060013590565b60008060208385031215614ac257600080fd5b823567ffffffffffffffff80821115614ada57600080fd5b818501915085601f830112614aee57600080fd5b813581811115614afd57600080fd5b8660208260051b8501011115614b1257600080fd5b60209290920196919550909350505050565b60008060008060808587031215614b3a57600080fd5b8435614b458161471b565b966020860135965060408601359560600135945092505050565b634e487b7160e01b600052602160045260246000fd5b858152602081018590526040810184905260a0810160068410614b9a57614b9a614b5f565b8360608301526001600160801b03831660808301529695505050505050565b634e487b7160e01b600052601160045260246000fd5b8181038181111561130357611303614bb9565b808202811582820484141761130357611303614bb9565b634e487b7160e01b600052601260045260246000fd5b600082614c1e57614c1e614bf9565b500490565b8082018082111561130357611303614bb9565b6001600160a01b039384168152919092166020820152604081019190915260600190565b60058110614c6a57614c6a614b5f565b9052565b848152602081018490526040810183905260808101611e386060830184614c5a565b600060208284031215614ca257600080fd5b815161155c8161471b565b600060208284031215614cbf57600080fd5b5051919050565b600060208284031215614cd857600080fd5b8151801515811461155c57600080fd5b634e487b7160e01b600052603260045260246000fd5b634e487b7160e01b600052600160045260246000fd5b600082614d2357614d23614bf9565b500690565b634e487b7160e01b600052603160045260246000fd5b60008251614d50818460208701614a12565b919091019291505056fe7feef73802d9a37116f36078fbc66117c8cdb7b4c9bdddf51ee03257c786b32a360894a13ba1a3210667c828492db98dca3e2076cc3735a920a3ca505d382bbc9b779b17422d0df92223018b32b4d1fa46e071723d6817e2486d003becc55f00a164736f6c6343000817000a",
  "devdoc": {
    "errors": {
      "AddressEmptyCode(address)": [
        {
          "details": "There's no code at `target` (it is not a contract)."
        }
      ],
      "ERC1967InvalidImplementation(address)": [
        {
          "details": "The `implementation` of the proxy is invalid."
        }
      ],
      "ERC1967NonPayable()": [
        {
          "details": "An upgrade function sees `msg.value > 0` that may be lost."
        }
      ],
      "FailedInnerCall()": [
        {
          "details": "A call to an address target failed. The target may have reverted."
        }
      ],
      "InvalidInitialization()": [
        {
          "details": "The contract is already initialized."
        }
      ],
      "NotInitializing()": [
        {
          "details": "The contract is not initializing."
        }
      ],
      "OwnableInvalidOwner(address)": [
        {
          "details": "The owner is not a valid owner account. (eg. `address(0)`)"
        }
      ],
      "OwnableUnauthorizedAccount(address)": [
        {
          "details": "The caller account is not authorized to perform an operation."
        }
      ],
      "ReentrancyGuardReentrantCall()": [
        {
          "details": "Unauthorized reentrant call."
        }
      ],
      "UUPSUnauthorizedCallContext()": [
        {
          "details": "The call is from an unauthorized context."
        }
      ],
      "UUPSUnsupportedProxiableUUID(bytes32)": [
        {
          "details": "The storage `slot` is unsupported as a UUID."
        }
      ]
    },
    "events": {
      "Initialized(uint64)": {
        "details": "Triggered when the contract has been initialized or reinitialized."
      },
      "Upgraded(address)": {
        "details": "Emitted when the implementation is upgraded."
      }
    },
    "kind": "dev",
    "methods": {
      "owner()": {
        "details": "Returns the address of the current owner."
      },
      "proxiableUUID()": {
        "details": "Implementation of the ERC1822 {proxiableUUID} function. This returns the storage slot used by the implementation. It is used to validate the implementation's compatibility when performing an upgrade. IMPORTANT: A proxy pointing at a proxiable contract should not be considered proxiable itself, because this risks bricking a proxy that upgrades to it, by delegating to itself until out of gas. Thus it is critical that this function revert if invoked through a proxy. This is guaranteed by the `notDelegated` modifier."
      },
      "renounceOwnership()": {
        "details": "Leaves the contract without owner. It will not be possible to call `onlyOwner` functions. Can only be called by the current owner. NOTE: Renouncing ownership will leave the contract without an owner, thereby disabling any functionality that is only available to the owner."
      },
      "transferOwnership(address)": {
        "details": "Transfers ownership of the contract to a new account (`newOwner`). Can only be called by the current owner."
      },
      "upgradeToAndCall(address,bytes)": {
        "custom:oz-upgrades-unsafe-allow-reachable": "delegatecall",
        "details": "Upgrade the implementation of the proxy to `newImplementation`, and subsequently execute the function call encoded in `data`. Calls {_authorizeUpgrade}. Emits an {Upgraded} event."
      }
    },
    "version": 1
  },
  "userdoc": {
    "kind": "user",
    "methods": {},
    "version": 1
  },
  "storageLayout": {
    "storage": [
      {
        "astId": 8946,
        "contract": "contracts/TrenBoxManager.sol:TrenBoxManager",
        "label": "adminContract",
        "offset": 0,
        "slot": "0",
        "type": "t_address"
      },
      {
        "astId": 8948,
        "contract": "contracts/TrenBoxManager.sol:TrenBoxManager",
        "label": "borrowerOperations",
        "offset": 0,
        "slot": "1",
        "type": "t_address"
      },
      {
        "astId": 8950,
        "contract": "contracts/TrenBoxManager.sol:TrenBoxManager",
        "label": "communityIssuance",
        "offset": 0,
        "slot": "2",
        "type": "t_address"
      },
      {
        "astId": 8952,
        "contract": "contracts/TrenBoxManager.sol:TrenBoxManager",
        "label": "debtToken",
        "offset": 0,
        "slot": "3",
        "type": "t_address"
      },
      {
        "astId": 8954,
        "contract": "contracts/TrenBoxManager.sol:TrenBoxManager",
        "label": "feeCollector",
        "offset": 0,
        "slot": "4",
        "type": "t_address"
      },
      {
        "astId": 8956,
        "contract": "contracts/TrenBoxManager.sol:TrenBoxManager",
        "label": "flashLoanAddress",
        "offset": 0,
        "slot": "5",
        "type": "t_address"
      },
      {
        "astId": 8958,
        "contract": "contracts/TrenBoxManager.sol:TrenBoxManager",
        "label": "trenStaking",
        "offset": 0,
        "slot": "6",
        "type": "t_address"
      },
      {
        "astId": 8960,
        "contract": "contracts/TrenBoxManager.sol:TrenBoxManager",
        "label": "priceFeed",
        "offset": 0,
        "slot": "7",
        "type": "t_address"
      },
      {
        "astId": 8962,
        "contract": "contracts/TrenBoxManager.sol:TrenBoxManager",
        "label": "sortedTrenBoxes",
        "offset": 0,
        "slot": "8",
        "type": "t_address"
      },
      {
        "astId": 8964,
        "contract": "contracts/TrenBoxManager.sol:TrenBoxManager",
        "label": "stabilityPool",
        "offset": 0,
        "slot": "9",
        "type": "t_address"
      },
      {
        "astId": 8966,
        "contract": "contracts/TrenBoxManager.sol:TrenBoxManager",
        "label": "timelockAddress",
        "offset": 0,
        "slot": "10",
        "type": "t_address"
      },
      {
        "astId": 8968,
        "contract": "contracts/TrenBoxManager.sol:TrenBoxManager",
        "label": "treasuryAddress",
        "offset": 0,
        "slot": "11",
        "type": "t_address"
      },
      {
        "astId": 8970,
        "contract": "contracts/TrenBoxManager.sol:TrenBoxManager",
        "label": "trenBoxManager",
        "offset": 0,
        "slot": "12",
        "type": "t_address"
      },
      {
        "astId": 8972,
        "contract": "contracts/TrenBoxManager.sol:TrenBoxManager",
        "label": "trenBoxManagerOperations",
        "offset": 0,
        "slot": "13",
        "type": "t_address"
      },
      {
        "astId": 8974,
        "contract": "contracts/TrenBoxManager.sol:TrenBoxManager",
        "label": "trenBoxStorage",
        "offset": 0,
        "slot": "14",
        "type": "t_address"
      },
      {
        "astId": 8976,
        "contract": "contracts/TrenBoxManager.sol:TrenBoxManager",
        "label": "isAddressSetupInitialized",
        "offset": 20,
        "slot": "14",
        "type": "t_bool"
      },
      {
        "astId": 8981,
        "contract": "contracts/TrenBoxManager.sol:TrenBoxManager",
        "label": "__gap",
        "offset": 0,
        "slot": "15",
        "type": "t_array(t_uint256)33_storage"
      },
      {
        "astId": 21647,
        "contract": "contracts/TrenBoxManager.sol:TrenBoxManager",
        "label": "baseRate",
        "offset": 0,
        "slot": "48",
        "type": "t_mapping(t_address,t_uint256)"
      },
      {
        "astId": 21651,
        "contract": "contracts/TrenBoxManager.sol:TrenBoxManager",
        "label": "lastFeeOperationTime",
        "offset": 0,
        "slot": "49",
        "type": "t_mapping(t_address,t_uint256)"
      },
      {
        "astId": 21658,
        "contract": "contracts/TrenBoxManager.sol:TrenBoxManager",
        "label": "TrenBoxes",
        "offset": 0,
        "slot": "50",
        "type": "t_mapping(t_address,t_mapping(t_address,t_struct(TrenBox)13018_storage))"
      },
      {
        "astId": 21662,
        "contract": "contracts/TrenBoxManager.sol:TrenBoxManager",
        "label": "totalStakes",
        "offset": 0,
        "slot": "51",
        "type": "t_mapping(t_address,t_uint256)"
      },
      {
        "astId": 21666,
        "contract": "contracts/TrenBoxManager.sol:TrenBoxManager",
        "label": "totalStakesSnapshot",
        "offset": 0,
        "slot": "52",
        "type": "t_mapping(t_address,t_uint256)"
      },
      {
        "astId": 21670,
        "contract": "contracts/TrenBoxManager.sol:TrenBoxManager",
        "label": "totalCollateralSnapshot",
        "offset": 0,
        "slot": "53",
        "type": "t_mapping(t_address,t_uint256)"
      },
      {
        "astId": 21674,
        "contract": "contracts/TrenBoxManager.sol:TrenBoxManager",
        "label": "L_Colls",
        "offset": 0,
        "slot": "54",
        "type": "t_mapping(t_address,t_uint256)"
      },
      {
        "astId": 21678,
        "contract": "contracts/TrenBoxManager.sol:TrenBoxManager",
        "label": "L_Debts",
        "offset": 0,
        "slot": "55",
        "type": "t_mapping(t_address,t_uint256)"
      },
      {
        "astId": 21685,
        "contract": "contracts/TrenBoxManager.sol:TrenBoxManager",
        "label": "rewardSnapshots",
        "offset": 0,
        "slot": "56",
        "type": "t_mapping(t_address,t_mapping(t_address,t_struct(RewardSnapshot)21643_storage))"
      },
      {
        "astId": 21690,
        "contract": "contracts/TrenBoxManager.sol:TrenBoxManager",
        "label": "trenBoxOwners",
        "offset": 0,
        "slot": "57",
        "type": "t_mapping(t_address,t_array(t_address)dyn_storage)"
      },
      {
        "astId": 21694,
        "contract": "contracts/TrenBoxManager.sol:TrenBoxManager",
        "label": "lastCollError_Redistribution",
        "offset": 0,
        "slot": "58",
        "type": "t_mapping(t_address,t_uint256)"
      },
      {
        "astId": 21698,
        "contract": "contracts/TrenBoxManager.sol:TrenBoxManager",
        "label": "lastDebtError_Redistribution",
        "offset": 0,
        "slot": "59",
        "type": "t_mapping(t_address,t_uint256)"
      }
    ],
    "types": {
      "t_address": {
        "encoding": "inplace",
        "label": "address",
        "numberOfBytes": "20"
      },
      "t_array(t_address)dyn_storage": {
        "base": "t_address",
        "encoding": "dynamic_array",
        "label": "address[]",
        "numberOfBytes": "32"
      },
      "t_array(t_uint256)33_storage": {
        "base": "t_uint256",
        "encoding": "inplace",
        "label": "uint256[33]",
        "numberOfBytes": "1056"
      },
      "t_bool": {
        "encoding": "inplace",
        "label": "bool",
        "numberOfBytes": "1"
      },
      "t_enum(Status)12925": {
        "encoding": "inplace",
        "label": "enum ITrenBoxManager.Status",
        "numberOfBytes": "1"
      },
      "t_mapping(t_address,t_array(t_address)dyn_storage)": {
        "encoding": "mapping",
        "key": "t_address",
        "label": "mapping(address => address[])",
        "numberOfBytes": "32",
        "value": "t_array(t_address)dyn_storage"
      },
      "t_mapping(t_address,t_mapping(t_address,t_struct(RewardSnapshot)21643_storage))": {
        "encoding": "mapping",
        "key": "t_address",
        "label": "mapping(address => mapping(address => struct TrenBoxManager.RewardSnapshot))",
        "numberOfBytes": "32",
        "value": "t_mapping(t_address,t_struct(RewardSnapshot)21643_storage)"
      },
      "t_mapping(t_address,t_mapping(t_address,t_struct(TrenBox)13018_storage))": {
        "encoding": "mapping",
        "key": "t_address",
        "label": "mapping(address => mapping(address => struct ITrenBoxManager.TrenBox))",
        "numberOfBytes": "32",
        "value": "t_mapping(t_address,t_struct(TrenBox)13018_storage)"
      },
      "t_mapping(t_address,t_struct(RewardSnapshot)21643_storage)": {
        "encoding": "mapping",
        "key": "t_address",
        "label": "mapping(address => struct TrenBoxManager.RewardSnapshot)",
        "numberOfBytes": "32",
        "value": "t_struct(RewardSnapshot)21643_storage"
      },
      "t_mapping(t_address,t_struct(TrenBox)13018_storage)": {
        "encoding": "mapping",
        "key": "t_address",
        "label": "mapping(address => struct ITrenBoxManager.TrenBox)",
        "numberOfBytes": "32",
        "value": "t_struct(TrenBox)13018_storage"
      },
      "t_mapping(t_address,t_uint256)": {
        "encoding": "mapping",
        "key": "t_address",
        "label": "mapping(address => uint256)",
        "numberOfBytes": "32",
        "value": "t_uint256"
      },
      "t_struct(RewardSnapshot)21643_storage": {
        "encoding": "inplace",
        "label": "struct TrenBoxManager.RewardSnapshot",
        "members": [
          {
            "astId": 21640,
            "contract": "contracts/TrenBoxManager.sol:TrenBoxManager",
            "label": "asset",
            "offset": 0,
            "slot": "0",
            "type": "t_uint256"
          },
          {
            "astId": 21642,
            "contract": "contracts/TrenBoxManager.sol:TrenBoxManager",
            "label": "debt",
            "offset": 0,
            "slot": "1",
            "type": "t_uint256"
          }
        ],
        "numberOfBytes": "64"
      },
      "t_struct(TrenBox)13018_storage": {
        "encoding": "inplace",
        "label": "struct ITrenBoxManager.TrenBox",
        "members": [
          {
            "astId": 13008,
            "contract": "contracts/TrenBoxManager.sol:TrenBoxManager",
            "label": "debt",
            "offset": 0,
            "slot": "0",
            "type": "t_uint256"
          },
          {
            "astId": 13010,
            "contract": "contracts/TrenBoxManager.sol:TrenBoxManager",
            "label": "coll",
            "offset": 0,
            "slot": "1",
            "type": "t_uint256"
          },
          {
            "astId": 13012,
            "contract": "contracts/TrenBoxManager.sol:TrenBoxManager",
            "label": "stake",
            "offset": 0,
            "slot": "2",
            "type": "t_uint256"
          },
          {
            "astId": 13015,
            "contract": "contracts/TrenBoxManager.sol:TrenBoxManager",
            "label": "status",
            "offset": 0,
            "slot": "3",
            "type": "t_enum(Status)12925"
          },
          {
            "astId": 13017,
            "contract": "contracts/TrenBoxManager.sol:TrenBoxManager",
            "label": "arrayIndex",
            "offset": 1,
            "slot": "3",
            "type": "t_uint128"
          }
        ],
        "numberOfBytes": "128"
      },
      "t_uint128": {
        "encoding": "inplace",
        "label": "uint128",
        "numberOfBytes": "16"
      },
      "t_uint256": {
        "encoding": "inplace",
        "label": "uint256",
        "numberOfBytes": "32"
      }
    }
  }
}