{
  "address": "0xc282DcC98e51BBFf4AA91E374d4a92623830565f",
  "abi": [
    {
      "inputs": [
        {
          "internalType": "address",
          "name": "target",
          "type": "address"
        }
      ],
      "name": "AddressEmptyCode",
      "type": "error"
    },
    {
      "inputs": [
        {
          "internalType": "address",
          "name": "account",
          "type": "address"
        }
      ],
      "name": "AddressInsufficientBalance",
      "type": "error"
    },
    {
      "inputs": [],
      "name": "BorrowerOperations__CollWithdrawalInRecoveryMode",
      "type": "error"
    },
    {
      "inputs": [],
      "name": "BorrowerOperations__CompositeDebtZero",
      "type": "error"
    },
    {
      "inputs": [],
      "name": "BorrowerOperations__ExceedMintCap",
      "type": "error"
    },
    {
      "inputs": [],
      "name": "BorrowerOperations__InsufficientCollateral",
      "type": "error"
    },
    {
      "inputs": [],
      "name": "BorrowerOperations__InsufficientDebtBalance",
      "type": "error"
    },
    {
      "inputs": [],
      "name": "BorrowerOperations__NotActiveColl",
      "type": "error"
    },
    {
      "inputs": [],
      "name": "BorrowerOperations__NotSingularChange",
      "type": "error"
    },
    {
      "inputs": [],
      "name": "BorrowerOperations__OperationInRecoveryMode",
      "type": "error"
    },
    {
      "inputs": [],
      "name": "BorrowerOperations__TrenBoxICRBelowCCR",
      "type": "error"
    },
    {
      "inputs": [],
      "name": "BorrowerOperations__TrenBoxICRBelowMCR",
      "type": "error"
    },
    {
      "inputs": [],
      "name": "BorrowerOperations__TrenBoxIsActive",
      "type": "error"
    },
    {
      "inputs": [],
      "name": "BorrowerOperations__TrenBoxNetDebtLessThanMin",
      "type": "error"
    },
    {
      "inputs": [],
      "name": "BorrowerOperations__TrenBoxNewICRBelowOldICR",
      "type": "error"
    },
    {
      "inputs": [],
      "name": "BorrowerOperations__TrenBoxNewTCRBelowCCR",
      "type": "error"
    },
    {
      "inputs": [],
      "name": "BorrowerOperations__TrenBoxNotExistOrClosed",
      "type": "error"
    },
    {
      "inputs": [],
      "name": "BorrowerOperations__ZeroAdjustment",
      "type": "error"
    },
    {
      "inputs": [],
      "name": "BorrowerOperations__ZeroDebtChange",
      "type": "error"
    },
    {
      "inputs": [],
      "name": "ConfigurableAddresses__CommunityIssuanceZeroAddress",
      "type": "error"
    },
    {
      "inputs": [],
      "name": "ConfigurableAddresses__LengthMismatch",
      "type": "error"
    },
    {
      "inputs": [],
      "name": "ConfigurableAddresses__SetupIsInitialized",
      "type": "error"
    },
    {
      "inputs": [],
      "name": "ConfigurableAddresses__TRENStakingZeroAddress",
      "type": "error"
    },
    {
      "inputs": [
        {
          "internalType": "uint256",
          "name": "position",
          "type": "uint256"
        },
        {
          "internalType": "address",
          "name": "address_",
          "type": "address"
        }
      ],
      "name": "ConfigurableAddresses__ZeroAddresses",
      "type": "error"
    },
    {
      "inputs": [
        {
          "internalType": "address",
          "name": "implementation",
          "type": "address"
        }
      ],
      "name": "ERC1967InvalidImplementation",
      "type": "error"
    },
    {
      "inputs": [],
      "name": "ERC1967NonPayable",
      "type": "error"
    },
    {
      "inputs": [],
      "name": "EthUnsupportedError",
      "type": "error"
    },
    {
      "inputs": [],
      "name": "FailedInnerCall",
      "type": "error"
    },
    {
      "inputs": [],
      "name": "InvalidAmountError",
      "type": "error"
    },
    {
      "inputs": [],
      "name": "InvalidInitialization",
      "type": "error"
    },
    {
      "inputs": [],
      "name": "NotInitializing",
      "type": "error"
    },
    {
      "inputs": [
        {
          "internalType": "address",
          "name": "owner",
          "type": "address"
        }
      ],
      "name": "OwnableInvalidOwner",
      "type": "error"
    },
    {
      "inputs": [
        {
          "internalType": "address",
          "name": "account",
          "type": "address"
        }
      ],
      "name": "OwnableUnauthorizedAccount",
      "type": "error"
    },
    {
      "inputs": [],
      "name": "ReentrancyGuardReentrantCall",
      "type": "error"
    },
    {
      "inputs": [
        {
          "internalType": "address",
          "name": "token",
          "type": "address"
        }
      ],
      "name": "SafeERC20FailedOperation",
      "type": "error"
    },
    {
      "inputs": [
        {
          "internalType": "uint256",
          "name": "feePercentage",
          "type": "uint256"
        },
        {
          "internalType": "uint256",
          "name": "maxFeePercentage",
          "type": "uint256"
        }
      ],
      "name": "TrenBase__FeeExceededMax",
      "type": "error"
    },
    {
      "inputs": [],
      "name": "UUPSUnauthorizedCallContext",
      "type": "error"
    },
    {
      "inputs": [
        {
          "internalType": "bytes32",
          "name": "slot",
          "type": "bytes32"
        }
      ],
      "name": "UUPSUnsupportedProxiableUUID",
      "type": "error"
    },
    {
      "anonymous": false,
      "inputs": [
        {
          "indexed": true,
          "internalType": "address",
          "name": "_asset",
          "type": "address"
        },
        {
          "indexed": true,
          "internalType": "address",
          "name": "_borrower",
          "type": "address"
        },
        {
          "indexed": false,
          "internalType": "uint256",
          "name": "_feeAmount",
          "type": "uint256"
        }
      ],
      "name": "BorrowingFeePaid",
      "type": "event"
    },
    {
      "anonymous": false,
      "inputs": [
        {
          "indexed": false,
          "internalType": "uint64",
          "name": "version",
          "type": "uint64"
        }
      ],
      "name": "Initialized",
      "type": "event"
    },
    {
      "anonymous": false,
      "inputs": [
        {
          "indexed": true,
          "internalType": "address",
          "name": "previousOwner",
          "type": "address"
        },
        {
          "indexed": true,
          "internalType": "address",
          "name": "newOwner",
          "type": "address"
        }
      ],
      "name": "OwnershipTransferred",
      "type": "event"
    },
    {
      "anonymous": false,
      "inputs": [
        {
          "indexed": true,
          "internalType": "address",
          "name": "_asset",
          "type": "address"
        },
        {
          "indexed": true,
          "internalType": "address",
          "name": "_borrower",
          "type": "address"
        },
        {
          "indexed": false,
          "internalType": "uint256",
          "name": "_arrayIndex",
          "type": "uint256"
        }
      ],
      "name": "TrenBoxCreated",
      "type": "event"
    },
    {
      "anonymous": false,
      "inputs": [
        {
          "indexed": true,
          "internalType": "address",
          "name": "_asset",
          "type": "address"
        },
        {
          "indexed": true,
          "internalType": "address",
          "name": "_borrower",
          "type": "address"
        },
        {
          "indexed": false,
          "internalType": "uint256",
          "name": "_debt",
          "type": "uint256"
        },
        {
          "indexed": false,
          "internalType": "uint256",
          "name": "_coll",
          "type": "uint256"
        },
        {
          "indexed": false,
          "internalType": "uint256",
          "name": "_stake",
          "type": "uint256"
        },
        {
          "indexed": false,
          "internalType": "enum IBorrowerOperations.BorrowerOperation",
          "name": "_operation",
          "type": "uint8"
        }
      ],
      "name": "TrenBoxUpdated",
      "type": "event"
    },
    {
      "anonymous": false,
      "inputs": [
        {
          "indexed": true,
          "internalType": "address",
          "name": "implementation",
          "type": "address"
        }
      ],
      "name": "Upgraded",
      "type": "event"
    },
    {
      "inputs": [],
      "name": "NAME",
      "outputs": [
        {
          "internalType": "string",
          "name": "",
          "type": "string"
        }
      ],
      "stateMutability": "view",
      "type": "function"
    },
    {
      "inputs": [],
      "name": "UPGRADE_INTERFACE_VERSION",
      "outputs": [
        {
          "internalType": "string",
          "name": "",
          "type": "string"
        }
      ],
      "stateMutability": "view",
      "type": "function"
    },
    {
      "inputs": [
        {
          "internalType": "address",
          "name": "_asset",
          "type": "address"
        },
        {
          "internalType": "uint256",
          "name": "_assetSent",
          "type": "uint256"
        },
        {
          "internalType": "address",
          "name": "_upperHint",
          "type": "address"
        },
        {
          "internalType": "address",
          "name": "_lowerHint",
          "type": "address"
        }
      ],
      "name": "addColl",
      "outputs": [],
      "stateMutability": "nonpayable",
      "type": "function"
    },
    {
      "inputs": [
        {
          "internalType": "address",
          "name": "_asset",
          "type": "address"
        },
        {
          "internalType": "uint256",
          "name": "_assetSent",
          "type": "uint256"
        },
        {
          "internalType": "uint256",
          "name": "_collWithdrawal",
          "type": "uint256"
        },
        {
          "internalType": "uint256",
          "name": "_debtTokenChange",
          "type": "uint256"
        },
        {
          "internalType": "bool",
          "name": "_isDebtIncrease",
          "type": "bool"
        },
        {
          "internalType": "address",
          "name": "_upperHint",
          "type": "address"
        },
        {
          "internalType": "address",
          "name": "_lowerHint",
          "type": "address"
        }
      ],
      "name": "adjustTrenBox",
      "outputs": [],
      "stateMutability": "nonpayable",
      "type": "function"
    },
    {
      "inputs": [],
      "name": "adminContract",
      "outputs": [
        {
          "internalType": "address",
          "name": "",
          "type": "address"
        }
      ],
      "stateMutability": "view",
      "type": "function"
    },
    {
      "inputs": [
        {
          "internalType": "address",
          "name": "newImplementation",
          "type": "address"
        }
      ],
      "name": "authorizeUpgrade",
      "outputs": [],
      "stateMutability": "nonpayable",
      "type": "function"
    },
    {
      "inputs": [],
      "name": "borrowerOperations",
      "outputs": [
        {
          "internalType": "address",
          "name": "",
          "type": "address"
        }
      ],
      "stateMutability": "view",
      "type": "function"
    },
    {
      "inputs": [
        {
          "internalType": "address",
          "name": "_asset",
          "type": "address"
        }
      ],
      "name": "claimCollateral",
      "outputs": [],
      "stateMutability": "nonpayable",
      "type": "function"
    },
    {
      "inputs": [],
      "name": "communityIssuance",
      "outputs": [
        {
          "internalType": "address",
          "name": "",
          "type": "address"
        }
      ],
      "stateMutability": "view",
      "type": "function"
    },
    {
      "inputs": [],
      "name": "debtToken",
      "outputs": [
        {
          "internalType": "address",
          "name": "",
          "type": "address"
        }
      ],
      "stateMutability": "view",
      "type": "function"
    },
    {
      "inputs": [],
      "name": "feeCollector",
      "outputs": [
        {
          "internalType": "address",
          "name": "",
          "type": "address"
        }
      ],
      "stateMutability": "view",
      "type": "function"
    },
    {
      "inputs": [],
      "name": "flashLoanAddress",
      "outputs": [
        {
          "internalType": "address",
          "name": "",
          "type": "address"
        }
      ],
      "stateMutability": "view",
      "type": "function"
    },
    {
      "inputs": [
        {
          "internalType": "address",
          "name": "_asset",
          "type": "address"
        },
        {
          "internalType": "uint256",
          "name": "_debt",
          "type": "uint256"
        }
      ],
      "name": "getCompositeDebt",
      "outputs": [
        {
          "internalType": "uint256",
          "name": "",
          "type": "uint256"
        }
      ],
      "stateMutability": "view",
      "type": "function"
    },
    {
      "inputs": [
        {
          "internalType": "address",
          "name": "_asset",
          "type": "address"
        }
      ],
      "name": "getEntireSystemColl",
      "outputs": [
        {
          "internalType": "uint256",
          "name": "entireSystemColl",
          "type": "uint256"
        }
      ],
      "stateMutability": "view",
      "type": "function"
    },
    {
      "inputs": [
        {
          "internalType": "address",
          "name": "_asset",
          "type": "address"
        }
      ],
      "name": "getEntireSystemDebt",
      "outputs": [
        {
          "internalType": "uint256",
          "name": "entireSystemDebt",
          "type": "uint256"
        }
      ],
      "stateMutability": "view",
      "type": "function"
    },
    {
      "inputs": [
        {
          "internalType": "address",
          "name": "initialOwner",
          "type": "address"
        }
      ],
      "name": "initialize",
      "outputs": [],
      "stateMutability": "nonpayable",
      "type": "function"
    },
    {
      "inputs": [],
      "name": "isAddressSetupInitialized",
      "outputs": [
        {
          "internalType": "bool",
          "name": "",
          "type": "bool"
        }
      ],
      "stateMutability": "view",
      "type": "function"
    },
    {
      "inputs": [
        {
          "internalType": "address",
          "name": "_asset",
          "type": "address"
        },
        {
          "internalType": "uint256",
          "name": "_assetAmount",
          "type": "uint256"
        },
        {
          "internalType": "uint256",
          "name": "_debtTokenAmount",
          "type": "uint256"
        },
        {
          "internalType": "address",
          "name": "_upperHint",
          "type": "address"
        },
        {
          "internalType": "address",
          "name": "_lowerHint",
          "type": "address"
        }
      ],
      "name": "openTrenBox",
      "outputs": [],
      "stateMutability": "nonpayable",
      "type": "function"
    },
    {
      "inputs": [],
      "name": "owner",
      "outputs": [
        {
          "internalType": "address",
          "name": "",
          "type": "address"
        }
      ],
      "stateMutability": "view",
      "type": "function"
    },
    {
      "inputs": [],
      "name": "priceFeed",
      "outputs": [
        {
          "internalType": "address",
          "name": "",
          "type": "address"
        }
      ],
      "stateMutability": "view",
      "type": "function"
    },
    {
      "inputs": [],
      "name": "proxiableUUID",
      "outputs": [
        {
          "internalType": "bytes32",
          "name": "",
          "type": "bytes32"
        }
      ],
      "stateMutability": "view",
      "type": "function"
    },
    {
      "inputs": [],
      "name": "renounceOwnership",
      "outputs": [],
      "stateMutability": "nonpayable",
      "type": "function"
    },
    {
      "inputs": [
        {
          "internalType": "address",
          "name": "_asset",
          "type": "address"
        },
        {
          "internalType": "uint256",
          "name": "_debtTokenAmount",
          "type": "uint256"
        },
        {
          "internalType": "address",
          "name": "_upperHint",
          "type": "address"
        },
        {
          "internalType": "address",
          "name": "_lowerHint",
          "type": "address"
        }
      ],
      "name": "repayDebtTokens",
      "outputs": [],
      "stateMutability": "nonpayable",
      "type": "function"
    },
    {
      "inputs": [
        {
          "internalType": "address[]",
          "name": "_addresses",
          "type": "address[]"
        }
      ],
      "name": "setAddresses",
      "outputs": [],
      "stateMutability": "nonpayable",
      "type": "function"
    },
    {
      "inputs": [
        {
          "internalType": "address",
          "name": "_communityIssuance",
          "type": "address"
        }
      ],
      "name": "setCommunityIssuance",
      "outputs": [],
      "stateMutability": "nonpayable",
      "type": "function"
    },
    {
      "inputs": [
        {
          "internalType": "address",
          "name": "_trenStaking",
          "type": "address"
        }
      ],
      "name": "setTRENStaking",
      "outputs": [],
      "stateMutability": "nonpayable",
      "type": "function"
    },
    {
      "inputs": [],
      "name": "sortedTrenBoxes",
      "outputs": [
        {
          "internalType": "address",
          "name": "",
          "type": "address"
        }
      ],
      "stateMutability": "view",
      "type": "function"
    },
    {
      "inputs": [],
      "name": "stabilityPool",
      "outputs": [
        {
          "internalType": "address",
          "name": "",
          "type": "address"
        }
      ],
      "stateMutability": "view",
      "type": "function"
    },
    {
      "inputs": [],
      "name": "timelockAddress",
      "outputs": [
        {
          "internalType": "address",
          "name": "",
          "type": "address"
        }
      ],
      "stateMutability": "view",
      "type": "function"
    },
    {
      "inputs": [
        {
          "internalType": "address",
          "name": "newOwner",
          "type": "address"
        }
      ],
      "name": "transferOwnership",
      "outputs": [],
      "stateMutability": "nonpayable",
      "type": "function"
    },
    {
      "inputs": [],
      "name": "treasuryAddress",
      "outputs": [
        {
          "internalType": "address",
          "name": "",
          "type": "address"
        }
      ],
      "stateMutability": "view",
      "type": "function"
    },
    {
      "inputs": [],
      "name": "trenBoxManager",
      "outputs": [
        {
          "internalType": "address",
          "name": "",
          "type": "address"
        }
      ],
      "stateMutability": "view",
      "type": "function"
    },
    {
      "inputs": [],
      "name": "trenBoxManagerOperations",
      "outputs": [
        {
          "internalType": "address",
          "name": "",
          "type": "address"
        }
      ],
      "stateMutability": "view",
      "type": "function"
    },
    {
      "inputs": [],
      "name": "trenBoxStorage",
      "outputs": [
        {
          "internalType": "address",
          "name": "",
          "type": "address"
        }
      ],
      "stateMutability": "view",
      "type": "function"
    },
    {
      "inputs": [],
      "name": "trenStaking",
      "outputs": [
        {
          "internalType": "address",
          "name": "",
          "type": "address"
        }
      ],
      "stateMutability": "view",
      "type": "function"
    },
    {
      "inputs": [
        {
          "internalType": "address",
          "name": "newImplementation",
          "type": "address"
        },
        {
          "internalType": "bytes",
          "name": "data",
          "type": "bytes"
        }
      ],
      "name": "upgradeToAndCall",
      "outputs": [],
      "stateMutability": "payable",
      "type": "function"
    },
    {
      "inputs": [
        {
          "internalType": "address",
          "name": "_asset",
          "type": "address"
        },
        {
          "internalType": "uint256",
          "name": "_collWithdrawal",
          "type": "uint256"
        },
        {
          "internalType": "address",
          "name": "_upperHint",
          "type": "address"
        },
        {
          "internalType": "address",
          "name": "_lowerHint",
          "type": "address"
        }
      ],
      "name": "withdrawColl",
      "outputs": [],
      "stateMutability": "nonpayable",
      "type": "function"
    },
    {
      "inputs": [
        {
          "internalType": "address",
          "name": "_asset",
          "type": "address"
        },
        {
          "internalType": "uint256",
          "name": "_debtTokenAmount",
          "type": "uint256"
        },
        {
          "internalType": "address",
          "name": "_upperHint",
          "type": "address"
        },
        {
          "internalType": "address",
          "name": "_lowerHint",
          "type": "address"
        }
      ],
      "name": "withdrawDebtTokens",
      "outputs": [],
      "stateMutability": "nonpayable",
      "type": "function"
    }
  ],
  "transactionHash": "0x49a1484310784c061db55587aa8522b94ce382563b857f96b024bbdd28884938",
  "args": [],
  "numDeployments": 1,
  "solcInputHash": "3a6e18213a29d49a1c6ac02986a2d311",
  "bytecode": "0x60a06040523060805234801561001457600080fd5b506080516140f361003e60003960008181611feb01528181612014015261215a01526140f36000f3fe6080604052600436106102255760003560e01c80638da5cb5b11610123578063c4d66de8116100ab578063e89f80541161006f578063e89f8054146106be578063f1c05a7e146106de578063f2fde38b146106fe578063f8d898981461071e578063fe0607331461073e57600080fd5b8063c4d66de81461060d578063c5f956af1461062d578063c8564c621461064d578063cc8b21e41461067e578063d721f52a1461069e57600080fd5b8063ad3cb1cc116100f2578063ad3cb1cc1461055c578063b5c5c9fc1461058d578063b9571721146105ad578063c05c5e94146105cd578063c415b95c146105ed57600080fd5b80638da5cb5b1461049457806395fb16bb146104d15780639e86d0c4146104f1578063a3f4df7e1461051157600080fd5b80634bc66f32116101b1578063715018a611610175578063715018a6146103ff578063741bef1a146104145780637703d7301461043457806377553ad4146104545780638235b2841461047457600080fd5b80634bc66f32146103775780634f1ef2861461039757806352d1902d146103aa57806355dafa46146103bf5780636a85d67d146103df57600080fd5b806327d04b35116101f857806327d04b35146102d75780633f84a44d146102f75780634169467d1461031757806348a4a39d1461033757806349b010c51461035757600080fd5b806301c931001461022a57806302540e481461024c578063048c661d1461027f5780630a34d4d6146102b7575b600080fd5b34801561023657600080fd5b5061024a610245366004613ad8565b61075e565b005b34801561025857600080fd5b5061026c610267366004613af3565b6107af565b6040519081526020015b60405180910390f35b34801561028b57600080fd5b5060095461029f906001600160a01b031681565b6040516001600160a01b039091168152602001610276565b3480156102c357600080fd5b50600d5461029f906001600160a01b031681565b3480156102e357600080fd5b5061026c6102f2366004613ad8565b6107c4565b34801561030357600080fd5b50600e5461029f906001600160a01b031681565b34801561032357600080fd5b5060055461029f906001600160a01b031681565b34801561034357600080fd5b5061024a610352366004613b1d565b610834565b34801561036357600080fd5b5061024a610372366004613b1d565b61086b565b34801561038357600080fd5b50600a5461029f906001600160a01b031681565b61024a6103a5366004613b80565b610885565b3480156103b657600080fd5b5061026c6108a4565b3480156103cb57600080fd5b5060065461029f906001600160a01b031681565b3480156103eb57600080fd5b5061024a6103fa366004613ad8565b6108c1565b34801561040b57600080fd5b5061024a610912565b34801561042057600080fd5b5060075461029f906001600160a01b031681565b34801561044057600080fd5b5061024a61044f366004613b1d565b610926565b34801561046057600080fd5b5060015461029f906001600160a01b031681565b34801561048057600080fd5b5061024a61048f366004613ad8565b6109d3565b3480156104a057600080fd5b507f9016d09d72d40fdae2fd8ceac6b6234c7706214fd39c1cd1e609a0528c199300546001600160a01b031661029f565b3480156104dd57600080fd5b5060025461029f906001600160a01b031681565b3480156104fd57600080fd5b5061026c61050c366004613ad8565b610a3a565b34801561051d57600080fd5b5061054f60405180604001604052806012815260200171426f72726f7765724f7065726174696f6e7360701b81525081565b6040516102769190613c66565b34801561056857600080fd5b5061054f604051806040016040528060058152602001640352e302e360dc1b81525081565b34801561059957600080fd5b5061024a6105a8366004613b1d565b610a6d565b3480156105b957600080fd5b5061024a6105c8366004613c99565b610a88565b3480156105d957600080fd5b5060005461029f906001600160a01b031681565b3480156105f957600080fd5b5060045461029f906001600160a01b031681565b34801561061957600080fd5b5061024a610628366004613ad8565b610f31565b34801561063957600080fd5b50600b5461029f906001600160a01b031681565b34801561065957600080fd5b50600e5461066e90600160a01b900460ff1681565b6040519015158152602001610276565b34801561068a57600080fd5b5060085461029f906001600160a01b031681565b3480156106aa57600080fd5b5061024a6106b9366004613d0e565b611049565b3480156106ca57600080fd5b5061024a6106d9366004613d73565b611852565b3480156106ea57600080fd5b50600c5461029f906001600160a01b031681565b34801561070a57600080fd5b5061024a610719366004613ad8565b61188a565b34801561072a57600080fd5b5060035461029f906001600160a01b031681565b34801561074a57600080fd5b5061024a610759366004613ad8565b6118c8565b6107666118d1565b6001600160a01b03811661078d576040516385d3330760e01b815260040160405180910390fd5b600680546001600160a01b0319166001600160a01b0392909216919091179055565b60006107bb838361192c565b90505b92915050565b600e5460405163b429464160e01b81526001600160a01b038381166004830152600092169063b4294641906024015b602060405180830381865afa158015610810573d6000803e3d6000fd5b505050506040513d601f19601f820116820180604052508101906107be9190613de6565b61083c6119a5565b61084e848433600080600088886119dd565b61086560016000805160206140c783398151915255565b50505050565b6108736119a5565b61084e846000338660008088886119dd565b61088d611fe0565b61089682612085565b6108a0828261208d565b5050565b60006108ae61214f565b506000805160206140a783398151915290565b6108c96118d1565b6001600160a01b0381166108f05760405163706ebc6560e11b815260040160405180910390fd5b600280546001600160a01b0319166001600160a01b0392909216919091179055565b61091a6118d1565b6109246000612198565b565b61092e6119a5565b600c5460405163f9a3d41f60e01b81526109ac9186916001600160a01b039091169063f9a3d41f906109669084903390600401613dff565b602060405180830381865afa158015610983573d6000803e3d6000fd5b505050506040513d601f19601f820116820180604052508101906109a79190613de6565b612209565b83036109c0576109bb84612282565b61084e565b61084e84600033600087600088886119dd565b600e54604051632b946eed60e11b81526001600160a01b0390911690635728ddda90610a059084903390600401613dff565b600060405180830381600087803b158015610a1f57600080fd5b505af1158015610a33573d6000803e3d6000fd5b5050505050565b600e54604051635845309f60e11b81526001600160a01b038381166004830152600092169063b08a613e906024016107f3565b610a756119a5565b61084e84600033600087600188886119dd565b610a906118d1565b600e54600160a01b900460ff1615610aba57604051625f22e960e41b815260040160405180910390fd5b600d8114610adb57604051633f5a111d60e21b815260040160405180910390fd5b60005b600d811015610b7e576000838383818110610afb57610afb613e19565b9050602002016020810190610b109190613ad8565b6001600160a01b031603610b765780838383818110610b3157610b31613e19565b9050602002016020810190610b469190613ad8565b604051630d9d339f60e01b815260048101929092526001600160a01b031660248201526044015b60405180910390fd5b600101610ade565b5081816000818110610b9257610b92613e19565b9050602002016020810190610ba79190613ad8565b600080546001600160a01b0319166001600160a01b039290921691909117905581816001818110610bda57610bda613e19565b9050602002016020810190610bef9190613ad8565b600180546001600160a01b0319166001600160a01b039290921691909117905581816002818110610c2257610c22613e19565b9050602002016020810190610c379190613ad8565b600380546001600160a01b0319166001600160a01b039290921691909117815582908290818110610c6a57610c6a613e19565b9050602002016020810190610c7f9190613ad8565b600480546001600160a01b0319166001600160a01b039290921691909117815582908290818110610cb257610cb2613e19565b9050602002016020810190610cc79190613ad8565b600580546001600160a01b0319166001600160a01b039290921691909117815582908290818110610cfa57610cfa613e19565b9050602002016020810190610d0f9190613ad8565b600780546001600160a01b0319166001600160a01b039290921691909117905581816006818110610d4257610d42613e19565b9050602002016020810190610d579190613ad8565b600880546001600160a01b0319166001600160a01b039290921691909117905581816007818110610d8a57610d8a613e19565b9050602002016020810190610d9f9190613ad8565b600980546001600160a01b0319166001600160a01b039290921691909117905581816008818110610dd257610dd2613e19565b9050602002016020810190610de79190613ad8565b600a80546001600160a01b0319166001600160a01b039290921691909117905581816009818110610e1a57610e1a613e19565b9050602002016020810190610e2f9190613ad8565b600b80546001600160a01b0319166001600160a01b03929092169190911790558181600a818110610e6257610e62613e19565b9050602002016020810190610e779190613ad8565b600c80546001600160a01b0319166001600160a01b03929092169190911790558181600b818110610eaa57610eaa613e19565b9050602002016020810190610ebf9190613ad8565b600d80546001600160a01b0319166001600160a01b03929092169190911790558181600c818110610ef257610ef2613e19565b9050602002016020810190610f079190613ad8565b600e80546001600160a81b0319166001600160a01b039290921691909117600160a01b1790555050565b7ff0c57e16840df040f15088dc2f81fe391c3923bec73e23a9662efc9c229c6a008054600160401b810460ff16159067ffffffffffffffff16600081158015610f775750825b905060008267ffffffffffffffff166001148015610f945750303b155b905081158015610fa2575080155b15610fc05760405163f92ee8a960e01b815260040160405180910390fd5b845467ffffffffffffffff191660011785558315610fea57845460ff60401b1916600160401b1785555b610ff3866127ae565b610ffb6127bf565b831561104157845460ff60401b19168555604051600181527fc7f505b2f371ae2175ee4913f4499e1f2633a7b5936321eed1cdaeb6115181d29060200160405180910390a15b505050505050565b6110516119a5565b6000546040516317ae1fc560e01b81526001600160a01b038781166004830152909116906317ae1fc590602401602060405180830381865afa15801561109b573d6000803e3d6000fd5b505050506040513d601f19601f820116820180604052508101906110bf9190613e2f565b6110dc57604051635024407160e11b815260040160405180910390fd5b61113460405180610120016040528060006001600160a01b0316815260200160008152602001600081526020016000815260200160008152602001600081526020016000815260200160008152602001600081525090565b6001600160a01b03868116808352600754604051635670bcc760e11b815260048101929092529091169063ace1798e90602401602060405180830381865afa158015611184573d6000803e3d6000fd5b505050506040513d601f19601f820116820180604052508101906111a89190613de6565b6020820181905281516000916111be91906127c7565b600c548351604051632862f79760e11b81529293506000926001600160a01b03909216916350c5ef2e916111f6913390600401613dff565b602060405180830381865afa158015611213573d6000803e3d6000fd5b505050506040513d601f19601f820116820180604052508101906112379190613de6565b90508060010361125a5760405163319aae6d60e21b815260040160405180910390fd5b606083018690528161128e578251611272908761284c565b6040840181905260608401516112889190613e62565b60608401525b6112a08360000151846060015161299f565b60008054845160405163c08261db60e01b81526001600160a01b03918216600482015291169063c08261db90602401602060405180830381865afa1580156112ec573d6000803e3d6000fd5b505050506040513d601f19601f820116820180604052508101906113109190613de6565b90508084606001516113229190613e62565b6080850181905260000361134957604051636c15d58360e11b815260040160405180910390fd5b61135c8885608001518660200151612a2d565b60a08501526080840151611371908990612a61565b60c085015282156113935761138e84600001518560a00151612a97565b6113d5565b6113a584600001518560a00151612b25565b60006113c385600001518a6001886080015160018a60200151612bb3565b90506113d3856000015182612c29565b505b600c548451604051636f4ecd4560e01b81526001600160a01b0390921691636f4ecd459161140a913390600190600401613e75565b600060405180830381600087803b15801561142457600080fd5b505af1158015611438573d6000803e3d6000fd5b5050600c54865160405163061e9dc360e01b8152600094506001600160a01b03909216925063061e9dc391611474919033908e90600401613e75565b6020604051808303816000875af1158015611493573d6000803e3d6000fd5b505050506040513d601f19601f820116820180604052508101906114b79190613de6565b600c548651608088015160405163c2bac5f160e01b81529394506000936001600160a01b039093169263c2bac5f1926114f7929091339190600401613e75565b6020604051808303816000875af1158015611516573d6000803e3d6000fd5b505050506040513d601f19601f8201168201806040525081019061153a9190613de6565b600c548751604051634eebd97f60e01b81529293506001600160a01b0390911691634eebd97f9161156f913390600401613dff565b600060405180830381600087803b15801561158957600080fd5b505af115801561159d573d6000803e3d6000fd5b5050600c54885160405163dbe9f91960e01b81526001600160a01b03909216935063dbe9f91992506115d3913390600401613dff565b6020604051808303816000875af11580156115f2573d6000803e3d6000fd5b505050506040513d601f19601f820116820180604052508101906116169190613de6565b60e0870152600854865160c0880151604051633e499e0560e11b81526001600160a01b03928316600482015233602482015260448101919091528a821660648201528982166084820152911690637c933c0a9060a401600060405180830381600087803b15801561168657600080fd5b505af115801561169a573d6000803e3d6000fd5b5050600c54885160405163d1a71b5f60e01b81526001600160a01b03909216935063d1a71b5f92506116d0913390600401613dff565b6020604051808303816000875af11580156116ef573d6000803e3d6000fd5b505050506040513d601f19601f820116820180604052508101906117139190613de6565b6101008701819052865160405191825233916001600160a01b03909116907f30d1b1917c27aa4ce4d813612d438af6adea3706bb2009e7309788f4bfc61f7d9060200160405180910390a3855161176a908b612cb7565b61177e8660000151338b8960600151612d4b565b821561179e578551600e5461179e91906001600160a01b03168580612d4b565b855160e087015160405133926001600160a01b0316917f7feef73802d9a37116f36078fbc66117c8cdb7b4c9bdddf51ee03257c786b32a916117e7918691889190600090613ebb565b60405180910390a38551604080880151905190815233916001600160a01b0316907fd89359f0d8e7f936d0682c5565cc5a16989a91560a80c7b06c46c28e52a5d43a9060200160405180910390a3505050505050610a3360016000805160206140c783398151915255565b61185a6119a5565b61186a87873388888888886119dd565b61188160016000805160206140c783398151915255565b50505050505050565b6118926118d1565b6001600160a01b0381166118bc57604051631e4fbdf760e01b815260006004820152602401610b6d565b6118c581612198565b50565b6118c581612085565b336119037f9016d09d72d40fdae2fd8ceac6b6234c7706214fd39c1cd1e609a0528c199300546001600160a01b031690565b6001600160a01b0316146109245760405163118cdaa760e01b8152336004820152602401610b6d565b6000805460405163c08261db60e01b81526001600160a01b0385811660048301529091169063c08261db90602401602060405180830381865afa158015611977573d6000803e3d6000fd5b505050506040513d601f19601f8201168201806040525081019061199b9190613de6565b6107bb9083613e62565b6000805160206140c78339815191528054600119016119d757604051633ee5aeb560e01b815260040160405180910390fd5b60029055565b611a5a604051806101c0016040528060006001600160a01b031681526020016000151581526020016000815260200160008152602001600081526020016000815260200160008152602001600081526020016000815260200160008152602001600081526020016000815260200160008152602001600081525090565b6001600160a01b03898116808352600754604051635670bcc760e11b815260048101929092529091169063ace1798e90602401602060405180830381865afa158015611aaa573d6000803e3d6000fd5b505050506040513d601f19601f82011682018060405250810190611ace9190613de6565b604082018190528151600091611ae491906127c7565b90508415611b0d5785600003611b0d57604051636862f00560e11b815260040160405180910390fd5b611b17878a612f2a565b611b2287878b612f56565b8151611b2e9089612f8a565b336001600160a01b0389161480611b6357506009546001600160a01b031633148015611b5957508815155b8015611b63575085155b611b6f57611b6f613edd565b600c54825160405163df4fb9ef60e01b81526001600160a01b039092169163df4fb9ef91611ba1918c90600401613dff565b600060405180830381600087803b158015611bbb57600080fd5b505af1158015611bcf573d6000803e3d6000fd5b50505050611bdd8988613021565b15156020840152606083015260808201869052848015611bfb575080155b15611c29578151611c0c908761284c565b61014083018190526080830151611c239190613e62565b60808301525b600c54825160405163f9a3d41f60e01b81526001600160a01b039092169163f9a3d41f91611c5b918c90600401613dff565b602060405180830381865afa158015611c78573d6000803e3d6000fd5b505050506040513d601f19601f82011682018060405250810190611c9c9190613de6565b60a0830152600c548251604051633517ff1b60e11b81526001600160a01b0390921691636a2ffe3691611cd3918c90600401613dff565b602060405180830381865afa158015611cf0573d6000803e3d6000fd5b505050506040513d601f19601f82011682018060405250810190611d149190613de6565b60c0830181905260a08301516040840151611d30929190612a2d565b8260e0018181525050611d608260c001518360a001518460600151856020015186608001518a8860400151613040565b61010083015260c0820151871115611d8b57604051634767d7b360e11b815260040160405180910390fd5b8151611d9a9082898886613073565b84158015611da757508515155b15611dba57611dba8883608001516130ef565b611dd88260000151898460600151856020015186608001518a61317c565b610160840152610180830152600c54825160405163dbe9f91960e01b81526001600160a01b039092169163dbe9f91991611e16918c90600401613dff565b6020604051808303816000875af1158015611e35573d6000803e3d6000fd5b505050506040513d601f19601f82011682018060405250810190611e599190613de6565b826101a00181815250506000611e878360c001518460a001518560600151866020015187608001518b613386565b600854845160405163bc9b5bd560e01b81526001600160a01b0391821660048201528c821660248201526044810184905288821660648201528782166084820152929350169063bc9b5bd59060a401600060405180830381600087803b158015611ef057600080fd5b505af1158015611f04573d6000803e3d6000fd5b50505050886001600160a01b031683600001516001600160a01b03167f7feef73802d9a37116f36078fbc66117c8cdb7b4c9bdddf51ee03257c786b32a856101600151866101800151876101a001516002604051611f659493929190613ebb565b60405180910390a3825161014084015160405190815233916001600160a01b0316907fd89359f0d8e7f936d0682c5565cc5a16989a91560a80c7b06c46c28e52a5d43a9060200160405180910390a3611fd3836000015133856060015186602001518b8b89608001516133a9565b5050505050505050505050565b306001600160a01b037f000000000000000000000000000000000000000000000000000000000000000016148061206757507f00000000000000000000000000000000000000000000000000000000000000006001600160a01b031661205b6000805160206140a7833981519152546001600160a01b031690565b6001600160a01b031614155b156109245760405163703e46dd60e11b815260040160405180910390fd5b6118c56118d1565b816001600160a01b03166352d1902d6040518163ffffffff1660e01b8152600401602060405180830381865afa9250505080156120e7575060408051601f3d908101601f191682019092526120e491810190613de6565b60015b61210f57604051634c9c8ce360e01b81526001600160a01b0383166004820152602401610b6d565b6000805160206140a7833981519152811461214057604051632a87526960e21b815260048101829052602401610b6d565b61214a8383613444565b505050565b306001600160a01b037f000000000000000000000000000000000000000000000000000000000000000016146109245760405163703e46dd60e11b815260040160405180910390fd5b7f9016d09d72d40fdae2fd8ceac6b6234c7706214fd39c1cd1e609a0528c19930080546001600160a01b031981166001600160a01b03848116918217845560405192169182907f8be0079c531659141344cd1fd0a4f28419497f9722a3daafe3b4186f6b6457e090600090a3505050565b6000805460405163c08261db60e01b81526001600160a01b0385811660048301529091169063c08261db90602401602060405180830381865afa158015612254573d6000803e3d6000fd5b505050506040513d601f19601f820116820180604052508101906122789190613de6565b6107bb9083613ef3565b61228c8133612f8a565b600754604051635670bcc760e11b81526001600160a01b038381166004830152600092169063ace1798e90602401602060405180830381865afa1580156122d7573d6000803e3d6000fd5b505050506040513d601f19601f820116820180604052508101906122fb9190613de6565b9050612307828261349a565b600c5460405163df4fb9ef60e01b81526001600160a01b039091169063df4fb9ef906123399085903390600401613dff565b600060405180830381600087803b15801561235357600080fd5b505af1158015612367573d6000803e3d6000fd5b5050600c54604051633517ff1b60e11b8152600093506001600160a01b039091169150636a2ffe36906123a09086903390600401613dff565b602060405180830381865afa1580156123bd573d6000803e3d6000fd5b505050506040513d601f19601f820116820180604052508101906123e19190613de6565b600c5460405163f9a3d41f60e01b81529192506000916001600160a01b039091169063f9a3d41f906124199087903390600401613dff565b602060405180830381865afa158015612436573d6000803e3d6000fd5b505050506040513d601f19601f8201168201806040525081019061245a9190613de6565b6000805460405163c08261db60e01b81526001600160a01b0388811660048301529394509192169063c08261db90602401602060405180830381865afa1580156124a8573d6000803e3d6000fd5b505050506040513d601f19601f820116820180604052508101906124cc9190613de6565b600480546040516320e3d2f760e11b81529293506000926001600160a01b03909116916341c7a5ee9161250d9133918b91670de0b6b3a76400009101613e75565b6020604051808303816000875af115801561252c573d6000803e3d6000fd5b505050506040513d601f19601f820116820180604052508101906125509190613de6565b905060008161255f8486613ef3565b6125699190613ef3565b905061257533826130ef565b6000612587888760008860008c612bb3565b90506125938882612c29565b600c54604051633ed3a18f60e21b81526001600160a01b039091169063fb4e863c906125c5908b903390600401613dff565b600060405180830381600087803b1580156125df57600080fd5b505af11580156125f3573d6000803e3d6000fd5b5050600c54604051633d9ef93160e01b81526001600160a01b039091169250633d9ef9319150612629908b903390600401613dff565b600060405180830381600087803b15801561264357600080fd5b505af1158015612657573d6000803e3d6000fd5b50505050336001600160a01b0316886001600160a01b03167f7feef73802d9a37116f36078fbc66117c8cdb7b4c9bdddf51ee03257c786b32a600080600060016040516126a79493929190613ebb565b60405180910390a36126bb883384866134c2565b83156126db57600e546126db9089906001600160a01b03168660006134c2565b6004805460405163871d814560e01b81526001600160a01b039091169163871d81459161270c9133918d9101613dff565b600060405180830381600087803b15801561272657600080fd5b505af115801561273a573d6000803e3d6000fd5b5050600e5460405163715aa61b60e01b81526001600160a01b03909116925063715aa61b9150612772908b9033908b90600401613e75565b600060405180830381600087803b15801561278c57600080fd5b505af11580156127a0573d6000803e3d6000fd5b505050505050505050505050565b6127b66135a8565b6118c5816135f1565b6109246135a8565b6000806127d484846135f9565b60005460405163316a306d60e11b81526001600160a01b0387811660048301529293509116906362d460da90602401602060405180830381865afa158015612820573d6000803e3d6000fd5b505050506040513d601f19601f820116820180604052508101906128449190613de6565b119392505050565b600c546040516314757c1360e31b81526001600160a01b03848116600483015260248201849052600092839291169063a3abe09890604401602060405180830381865afa1580156128a1573d6000803e3d6000fd5b505050506040513d601f19601f820116820180604052508101906128c59190613de6565b60035460048054604051636361ddf360e11b81529394506001600160a01b039283169363c6c3bbe693612900938a9390911691879101613e75565b600060405180830381600087803b15801561291a57600080fd5b505af115801561292e573d6000803e3d6000fd5b5050600480546040516336f1224960e11b81526001600160a01b039091169350636de2449292506129659133918991879101613e75565b600060405180830381600087803b15801561297f57600080fd5b505af1158015612993573d6000803e3d6000fd5b50929695505050505050565b6000546040516321b443a360e21b81526001600160a01b038481166004830152909116906386d10e8c90602401602060405180830381865afa1580156129e9573d6000803e3d6000fd5b505050506040513d601f19601f82011682018060405250810190612a0d9190613de6565b8110156108a057604051633c762e9160e01b815260040160405180910390fd5b60008215612a5557600083612a428487613f06565b612a4c9190613f33565b9150612a5a9050565b506000195b9392505050565b60008115612a8e5781612a7d68056bc75e2d6310000085613f06565b612a879190613f33565b90506107be565b506000196107be565b60005460405163316a306d60e11b81526001600160a01b038481166004830152909116906362d460da90602401602060405180830381865afa158015612ae1573d6000803e3d6000fd5b505050506040513d601f19601f82011682018060405250810190612b059190613de6565b8110156108a05760405163a5107d2d60e01b815260040160405180910390fd5b600054604051633c557a6f60e11b81526001600160a01b038481166004830152909116906378aaf4de90602401602060405180830381865afa158015612b6f573d6000803e3d6000fd5b505050506040513d601f19601f82011682018060405250810190612b939190613de6565b8110156108a057604051633b02ce0760e11b815260040160405180910390fd5b600080612bbf88610a3a565b90506000612bcc896107c4565b905086612be257612bdd8883613ef3565b612bec565b612bec8883613e62565b915084612c0257612bfd8682613ef3565b612c0c565b612c0c8682613e62565b90506000612c1b838387612a2d565b9a9950505050505050505050565b60005460405163316a306d60e11b81526001600160a01b038481166004830152909116906362d460da90602401602060405180830381865afa158015612c73573d6000803e3d6000fd5b505050506040513d601f19601f82011682018060405250810190612c979190613de6565b8110156108a05760405163200c362760e21b815260040160405180910390fd5b600e546040516358889c4160e11b81526001600160a01b038481166004830152602482018490529091169063b111388290604401600060405180830381600087803b158015612d0557600080fd5b505af1158015612d19573d6000803e3d6000fd5b5050600e546108a092503391506001600160a01b0316612d398585613628565b6001600160a01b038616929190613760565b600e5460405163b429464160e01b81526001600160a01b038681166004830152600092849291169063b429464190602401602060405180830381865afa158015612d99573d6000803e3d6000fd5b505050506040513d601f19601f82011682018060405250810190612dbd9190613de6565b612dc79190613e62565b6000546040516391bbfd0d60e01b81526001600160a01b0388811660048301529293509116906391bbfd0d90602401602060405180830381865afa158015612e13573d6000803e3d6000fd5b505050506040513d601f19601f82011682018060405250810190612e379190613de6565b811115612e575760405163fd5daa2360e01b815260040160405180910390fd5b600e54604051630e595ef560e31b81526001600160a01b03878116600483015260248201859052909116906372caf7a890604401600060405180830381600087803b158015612ea557600080fd5b505af1158015612eb9573d6000803e3d6000fd5b5050600354604051636361ddf360e11b81526001600160a01b03909116925063c6c3bbe69150612ef190889088908890600401613e75565b600060405180830381600087803b158015612f0b57600080fd5b505af1158015612f1f573d6000803e3d6000fd5b505050505050505050565b8115801590612f3857508015155b156108a05760405163ce86896960e01b815260040160405180910390fd5b82158015612f62575081155b8015612f6c575080155b1561214a5760405163579bd2b160e01b815260040160405180910390fd5b600c54604051632862f79760e11b81526000916001600160a01b0316906350c5ef2e90612fbd9086908690600401613dff565b602060405180830381865afa158015612fda573d6000803e3d6000fd5b505050506040513d601f19601f82011682018060405250810190612ffe9190613de6565b90508060011461214a576040516306e92e5560e21b815260040160405180910390fd5b600080831561303557508290506001613039565b8291505b9250929050565b60008060006130538a8a8a8a8a8a6137ba565b915091506000613064838387612a2d565b9b9a5050505050505050505050565b83156130af57613082836137f8565b81156130aa5761309785826101000151612a97565b6130aa8161010001518260e00151613817565b610a33565b6130be85826101000151612b25565b6130dc85826060015183602001518460800151868660400151612bb3565b6101208201819052610a33908690612c29565b6003546040516370a0823160e01b81526001600160a01b038481166004830152839216906370a0823190602401602060405180830381865afa158015613139573d6000803e3d6000fd5b505050506040513d601f19601f8201168201806040525081019061315d9190613de6565b10156108a0576040516349d5cf0d60e11b815260040160405180910390fd5b60008060008561320257600c546040516333eeaefd60e01b81526001600160a01b03909116906333eeaefd906131ba908c908c908c90600401613e75565b6020604051808303816000875af11580156131d9573d6000803e3d6000fd5b505050506040513d601f19601f820116820180604052508101906131fd9190613de6565b613279565b600c5460405163061e9dc360e01b81526001600160a01b039091169063061e9dc390613236908c908c908c90600401613e75565b6020604051808303816000875af1158015613255573d6000803e3d6000fd5b505050506040513d601f19601f820116820180604052508101906132799190613de6565b90506000846132fe57600c54604051631cc12cc760e11b81526001600160a01b0390911690633982598e906132b6908d908d908b90600401613e75565b6020604051808303816000875af11580156132d5573d6000803e3d6000fd5b505050506040513d601f19601f820116820180604052508101906132f99190613de6565b613375565b600c5460405163c2bac5f160e01b81526001600160a01b039091169063c2bac5f190613332908d908d908b90600401613e75565b6020604051808303816000875af1158015613351573d6000803e3d6000fd5b505050506040513d601f19601f820116820180604052508101906133759190613de6565b919a91995090975050505050505050565b60008060006133998989898989896137ba565b915091506000612c1b8383612a61565b81156133c0576133bb87878584612d4b565b6133cd565b6133cd87878560006134c2565b83156133e2576133dd8786612cb7565b611881565b600e5460405163715aa61b60e01b81526001600160a01b039091169063715aa61b90613416908a908a908a90600401613e75565b600060405180830381600087803b15801561343057600080fd5b505af1158015611fd3573d6000803e3d6000fd5b61344d82613838565b6040516001600160a01b038316907fbc7cd75a20ee27fd9adebab32041f755214dbc6bffa90cc0225b39da2e5c2d3b90600090a28051156134925761214a828261389d565b6108a061390a565b6134a482826127c7565b156108a057604051630cd60a2360e01b815260040160405180910390fd5b600e546001600160a01b031663a47055e7856134de8486613e62565b6040516001600160e01b031960e085901b1681526001600160a01b0390921660048301526024820152604401600060405180830381600087803b15801561352457600080fd5b505af1158015613538573d6000803e3d6000fd5b5050600354604051632770a7eb60e21b81526001600160a01b038781166004830152602482018790529091169250639dc29fac9150604401600060405180830381600087803b15801561358a57600080fd5b505af115801561359e573d6000803e3d6000fd5b5050505050505050565b7ff0c57e16840df040f15088dc2f81fe391c3923bec73e23a9662efc9c229c6a0054600160401b900460ff1661092457604051631afcd79f60e31b815260040160405180910390fd5b6118926135a8565b60008061360584610a3a565b90506000613612856107c4565b905061361f828286612a2d565b95945050505050565b60006001600160a01b03831661365157604051631dcb38eb60e11b815260040160405180910390fd5b81600003613661575060006107be565b6000836001600160a01b031663313ce5676040518163ffffffff1660e01b8152600401602060405180830381865afa1580156136a1573d6000803e3d6000fd5b505050506040513d601f19601f820116820180604052508101906136c59190613f47565b905060128160ff1610156137285760006136e0826012613f6a565b6136eb90600a614067565b90506136f78185614076565b1561371557604051630f51ac8560e31b815260040160405180910390fd5b61371f8185613f33565b925050506107be565b60128160ff161115613758576000613741601283613f6a565b61374c90600a614067565b905061371f8185613f06565b509092915050565b61086584856001600160a01b03166323b872dd86868660405160240161378893929190613e75565b604051602081830303815290604052915060e01b6020820180516001600160e01b038381831617835250505050613929565b6000808787866137d3576137ce888b613ef3565b6137dd565b6137dd888b613e62565b9150846137ee576132f9868a613ef3565b613375868a613e62565b80156118c557604051633280b52560e21b815260040160405180910390fd5b808210156108a0576040516329e4ea8b60e01b815260040160405180910390fd5b806001600160a01b03163b60000361386e57604051634c9c8ce360e01b81526001600160a01b0382166004820152602401610b6d565b6000805160206140a783398151915280546001600160a01b0319166001600160a01b0392909216919091179055565b6060600080846001600160a01b0316846040516138ba919061408a565b600060405180830381855af49150503d80600081146138f5576040519150601f19603f3d011682016040523d82523d6000602084013e6138fa565b606091505b509150915061361f85838361398c565b34156109245760405163b398979f60e01b815260040160405180910390fd5b600061393e6001600160a01b038416836139e8565b905080516000141580156139635750808060200190518101906139619190613e2f565b155b1561214a57604051635274afe760e01b81526001600160a01b0384166004820152602401610b6d565b6060826139a15761399c826139f6565b612a5a565b81511580156139b857506001600160a01b0384163b155b156139e157604051639996b31560e01b81526001600160a01b0385166004820152602401610b6d565b5080612a5a565b60606107bb83836000613a1f565b805115613a065780518082602001fd5b604051630a12f52160e11b815260040160405180910390fd5b606081471015613a445760405163cd78605960e01b8152306004820152602401610b6d565b600080856001600160a01b03168486604051613a60919061408a565b60006040518083038185875af1925050503d8060008114613a9d576040519150601f19603f3d011682016040523d82523d6000602084013e613aa2565b606091505b5091509150613ab286838361398c565b9695505050505050565b80356001600160a01b0381168114613ad357600080fd5b919050565b600060208284031215613aea57600080fd5b6107bb82613abc565b60008060408385031215613b0657600080fd5b613b0f83613abc565b946020939093013593505050565b60008060008060808587031215613b3357600080fd5b613b3c85613abc565b935060208501359250613b5160408601613abc565b9150613b5f60608601613abc565b905092959194509250565b634e487b7160e01b600052604160045260246000fd5b60008060408385031215613b9357600080fd5b613b9c83613abc565b9150602083013567ffffffffffffffff80821115613bb957600080fd5b818501915085601f830112613bcd57600080fd5b813581811115613bdf57613bdf613b6a565b604051601f8201601f19908116603f01168101908382118183101715613c0757613c07613b6a565b81604052828152886020848701011115613c2057600080fd5b8260208601602083013760006020848301015280955050505050509250929050565b60005b83811015613c5d578181015183820152602001613c45565b50506000910152565b6020815260008251806020840152613c85816040850160208701613c42565b601f01601f19169190910160400192915050565b60008060208385031215613cac57600080fd5b823567ffffffffffffffff80821115613cc457600080fd5b818501915085601f830112613cd857600080fd5b813581811115613ce757600080fd5b8660208260051b8501011115613cfc57600080fd5b60209290920196919550909350505050565b600080600080600060a08688031215613d2657600080fd5b613d2f86613abc565b94506020860135935060408601359250613d4b60608701613abc565b9150613d5960808701613abc565b90509295509295909350565b80151581146118c557600080fd5b600080600080600080600060e0888a031215613d8e57600080fd5b613d9788613abc565b96506020880135955060408801359450606088013593506080880135613dbc81613d65565b9250613dca60a08901613abc565b9150613dd860c08901613abc565b905092959891949750929550565b600060208284031215613df857600080fd5b5051919050565b6001600160a01b0392831681529116602082015260400190565b634e487b7160e01b600052603260045260246000fd5b600060208284031215613e4157600080fd5b8151612a5a81613d65565b634e487b7160e01b600052601160045260246000fd5b808201808211156107be576107be613e4c565b6001600160a01b039384168152919092166020820152604081019190915260600190565b60038110613eb757634e487b7160e01b600052602160045260246000fd5b9052565b84815260208101849052604081018390526080810161361f6060830184613e99565b634e487b7160e01b600052600160045260246000fd5b818103818111156107be576107be613e4c565b80820281158282048414176107be576107be613e4c565b634e487b7160e01b600052601260045260246000fd5b600082613f4257613f42613f1d565b500490565b600060208284031215613f5957600080fd5b815160ff81168114612a5a57600080fd5b60ff82811682821603908111156107be576107be613e4c565b600181815b80851115613fbe578160001904821115613fa457613fa4613e4c565b80851615613fb157918102915b93841c9390800290613f88565b509250929050565b600082613fd5575060016107be565b81613fe2575060006107be565b8160018114613ff857600281146140025761401e565b60019150506107be565b60ff84111561401357614013613e4c565b50506001821b6107be565b5060208310610133831016604e8410600b8410161715614041575081810a6107be565b61404b8383613f83565b806000190482111561405f5761405f613e4c565b029392505050565b60006107bb60ff841683613fc6565b60008261408557614085613f1d565b500690565b6000825161409c818460208701613c42565b919091019291505056fe360894a13ba1a3210667c828492db98dca3e2076cc3735a920a3ca505d382bbc9b779b17422d0df92223018b32b4d1fa46e071723d6817e2486d003becc55f00a164736f6c6343000817000a",
  "devdoc": {
    "errors": {
      "AddressEmptyCode(address)": [
        {
          "details": "There's no code at `target` (it is not a contract)."
        }
      ],
      "AddressInsufficientBalance(address)": [
        {
          "details": "The ETH balance of the account is not enough to perform the operation."
        }
      ],
      "BorrowerOperations__CollWithdrawalInRecoveryMode()": [
        {
          "details": "Error emitted when the collateral withdrawal is requested in Recovery Mode."
        }
      ],
      "BorrowerOperations__CompositeDebtZero()": [
        {
          "details": "Error emitted when the composite debt amount is zero."
        }
      ],
      "BorrowerOperations__ExceedMintCap()": [
        {
          "details": "Error emitted when the total debt amount exceeds mint cap."
        }
      ],
      "BorrowerOperations__InsufficientCollateral()": [
        {
          "details": "Error emitted when the withdrawal amount is above current collateral balance."
        }
      ],
      "BorrowerOperations__InsufficientDebtBalance()": [
        {
          "details": "Error emitted when the current debt balance is below repayment amount."
        }
      ],
      "BorrowerOperations__NotActiveColl()": [
        {
          "details": "Error emitted when the specific collateral asset is not active."
        }
      ],
      "BorrowerOperations__NotSingularChange()": [
        {
          "details": "Error emitted when both collateral top-up and withdrawal changes are made."
        }
      ],
      "BorrowerOperations__OperationInRecoveryMode()": [
        {
          "details": "Error emitted when a borrowing operation is not allowed in Recovery Mode."
        }
      ],
      "BorrowerOperations__TrenBoxICRBelowCCR()": [
        {
          "details": "Error emitted when new individual collateral ratio is below the critical collateral ratio."
        }
      ],
      "BorrowerOperations__TrenBoxICRBelowMCR()": [
        {
          "details": "Error emitted when new individual collateral ratio is below the minimum collateral ratio."
        }
      ],
      "BorrowerOperations__TrenBoxIsActive()": [
        {
          "details": "Error emitted when the specific borrower's trenBox is active."
        }
      ],
      "BorrowerOperations__TrenBoxNetDebtLessThanMin()": [
        {
          "details": "Error emitted when the net debt of a specific collateral asset is less than minimum debt amount."
        }
      ],
      "BorrowerOperations__TrenBoxNewICRBelowOldICR()": [
        {
          "details": "Error emitted when new individual collateral ratio is below the old ratio."
        }
      ],
      "BorrowerOperations__TrenBoxNewTCRBelowCCR()": [
        {
          "details": "Error emitted when the total collateral ratio is below the critical collateral ratio."
        }
      ],
      "BorrowerOperations__TrenBoxNotExistOrClosed()": [
        {
          "details": "Error emitted when the specific borrower's trenBox is not active."
        }
      ],
      "BorrowerOperations__ZeroAdjustment()": [
        {
          "details": "Error emitted when neither debt change nor collateral top-up nor collateral withdrawal happened."
        }
      ],
      "BorrowerOperations__ZeroDebtChange()": [
        {
          "details": "Error emitted when the debt balance change is zero."
        }
      ],
      "ERC1967InvalidImplementation(address)": [
        {
          "details": "The `implementation` of the proxy is invalid."
        }
      ],
      "ERC1967NonPayable()": [
        {
          "details": "An upgrade function sees `msg.value > 0` that may be lost."
        }
      ],
      "EthUnsupportedError()": [
        {
          "details": "Error emitted when the specific token is ETH or zero address."
        }
      ],
      "FailedInnerCall()": [
        {
          "details": "A call to an address target failed. The target may have reverted."
        }
      ],
      "InvalidAmountError()": [
        {
          "details": "Error emitted when the amount for decimal correction is invalid."
        }
      ],
      "InvalidInitialization()": [
        {
          "details": "The contract is already initialized."
        }
      ],
      "NotInitializing()": [
        {
          "details": "The contract is not initializing."
        }
      ],
      "OwnableInvalidOwner(address)": [
        {
          "details": "The owner is not a valid owner account. (eg. `address(0)`)"
        }
      ],
      "OwnableUnauthorizedAccount(address)": [
        {
          "details": "The caller account is not authorized to perform an operation."
        }
      ],
      "ReentrancyGuardReentrantCall()": [
        {
          "details": "Unauthorized reentrant call."
        }
      ],
      "SafeERC20FailedOperation(address)": [
        {
          "details": "An operation with an ERC20 token failed."
        }
      ],
      "TrenBase__FeeExceededMax(uint256,uint256)": [
        {
          "details": "Error emitted when the fee percentage exceeds max value."
        }
      ],
      "UUPSUnauthorizedCallContext()": [
        {
          "details": "The call is from an unauthorized context."
        }
      ],
      "UUPSUnsupportedProxiableUUID(bytes32)": [
        {
          "details": "The storage `slot` is unsupported as a UUID."
        }
      ]
    },
    "events": {
      "BorrowingFeePaid(address,address,uint256)": {
        "details": "Emitted when the borrowing fee is paid on opening or adjusting a trenBox.",
        "params": {
          "_asset": "The address of collateral asset.",
          "_borrower": "The address of borrower.",
          "_feeAmount": "The amount paid as borrowing fee."
        }
      },
      "Initialized(uint64)": {
        "details": "Triggered when the contract has been initialized or reinitialized."
      },
      "TrenBoxCreated(address,address,uint256)": {
        "details": "Emitted when a trenBox is created.",
        "params": {
          "_arrayIndex": "The index to map to borrower address from owners array.",
          "_asset": "The address of collateral asset.",
          "_borrower": "The address of borrower."
        }
      },
      "TrenBoxUpdated(address,address,uint256,uint256,uint256,uint8)": {
        "details": "Emitted when a trenBox is adjusted.",
        "params": {
          "_asset": "The address of collateral asset.",
          "_borrower": "The address of borrower.",
          "_coll": "The new collateral balance.",
          "_debt": "The new debt balance.",
          "_operation": "The type of borrower's operation.",
          "_stake": "The new stake balance."
        }
      },
      "Upgraded(address)": {
        "details": "Emitted when the implementation is upgraded."
      }
    },
    "kind": "dev",
    "methods": {
      "addColl(address,uint256,address,address)": {
        "params": {
          "_asset": "The address of collateral asset.",
          "_assetSent": "The amount of collateral asset to add.",
          "_lowerHint": "Id of next node for the new insert position, used in SortedTrenBoxes.",
          "_upperHint": "Id of previous node for the new insert position, used in SortedTrenBoxes."
        }
      },
      "adjustTrenBox(address,uint256,uint256,uint256,bool,address,address)": {
        "params": {
          "_asset": "The address of collateral asset.",
          "_assetSent": "The amount of collateral asset to send.",
          "_collWithdrawal": "The amount of collateral asset to withdraw.",
          "_debtTokenChange": "The amount of debt token to withdraw or repay.",
          "_isDebtIncrease": "The flag to indicate if current operation is withdrawal or repayment.",
          "_lowerHint": "Id of next node for the new insert position.",
          "_upperHint": "Id of previous node for the new insert position."
        }
      },
      "claimCollateral(address)": {
        "params": {
          "_asset": "The address of collateral asset."
        }
      },
      "getEntireSystemColl(address)": {
        "params": {
          "_asset": "The address of collateral asset."
        }
      },
      "getEntireSystemDebt(address)": {
        "params": {
          "_asset": "The address of collateral asset."
        }
      },
      "initialize(address)": {
        "details": "Runs all the setup logic only once.",
        "params": {
          "initialOwner": "The address of initial owner."
        }
      },
      "openTrenBox(address,uint256,uint256,address,address)": {
        "details": "In addition to the requested debt, extra debt is issued to pay the borrowing fee, and cover the gas compensation.",
        "params": {
          "_asset": "The address of collateral asset.",
          "_assetAmount": "The amount of collateral asset.",
          "_debtTokenAmount": "The amount of debt tokens.",
          "_lowerHint": "Id of next node for the insert position, used in SortedTrenBoxes.",
          "_upperHint": "Id of previous node for the insert position, used in SortedTrenBoxes."
        }
      },
      "owner()": {
        "details": "Returns the address of the current owner."
      },
      "proxiableUUID()": {
        "details": "Implementation of the ERC1822 {proxiableUUID} function. This returns the storage slot used by the implementation. It is used to validate the implementation's compatibility when performing an upgrade. IMPORTANT: A proxy pointing at a proxiable contract should not be considered proxiable itself, because this risks bricking a proxy that upgrades to it, by delegating to itself until out of gas. Thus it is critical that this function revert if invoked through a proxy. This is guaranteed by the `notDelegated` modifier."
      },
      "renounceOwnership()": {
        "details": "Leaves the contract without owner. It will not be possible to call `onlyOwner` functions. Can only be called by the current owner. NOTE: Renouncing ownership will leave the contract without an owner, thereby disabling any functionality that is only available to the owner."
      },
      "repayDebtTokens(address,uint256,address,address)": {
        "params": {
          "_asset": "The address of collateral asset.",
          "_debtTokenAmount": "The amount of debt token to repay.",
          "_lowerHint": "Id of next node for the new insert position.",
          "_upperHint": "Id of previous node for the new insert position."
        }
      },
      "transferOwnership(address)": {
        "details": "Transfers ownership of the contract to a new account (`newOwner`). Can only be called by the current owner."
      },
      "upgradeToAndCall(address,bytes)": {
        "custom:oz-upgrades-unsafe-allow-reachable": "delegatecall",
        "details": "Upgrade the implementation of the proxy to `newImplementation`, and subsequently execute the function call encoded in `data`. Calls {_authorizeUpgrade}. Emits an {Upgraded} event."
      },
      "withdrawColl(address,uint256,address,address)": {
        "params": {
          "_asset": "The address of collateral asset.",
          "_collWithdrawal": "The amount of collateral asset to withdraw.",
          "_lowerHint": "Id of next node for the new insert position.",
          "_upperHint": "Id of previous node for the new insert position."
        }
      },
      "withdrawDebtTokens(address,uint256,address,address)": {
        "params": {
          "_asset": "The address of collateral asset.",
          "_debtTokenAmount": "The amount of debt token to withdraw.",
          "_lowerHint": "Id of next node for the new insert position.",
          "_upperHint": "Id of previous node for the new insert position."
        }
      }
    },
    "title": "BorrowerOperations contract",
    "version": 1
  },
  "userdoc": {
    "kind": "user",
    "methods": {
      "NAME()": {
        "notice": "The contract name."
      },
      "addColl(address,uint256,address,address)": {
        "notice": "Adds collateral to the caller's active trenBox."
      },
      "adjustTrenBox(address,uint256,uint256,uint256,bool,address,address)": {
        "notice": "Enables a caller to simultaneously change both their collateral and debt balances."
      },
      "claimCollateral(address)": {
        "notice": "Claims remaining collateral from a redemption or from a liquidation with ICR > MCR in Recovery Mode."
      },
      "getCompositeDebt(address,uint256)": {
        "notice": "Returns the composite debt (drawn debt + gas compensation) of a trenBox."
      },
      "getEntireSystemColl(address)": {
        "notice": "Returns the entire collateral amount of a specific asset."
      },
      "getEntireSystemDebt(address)": {
        "notice": "Returns the entire debt amount of a specific asset."
      },
      "openTrenBox(address,uint256,uint256,address,address)": {
        "notice": "Creates a trenBox for the specific collateral asset with requested debt amount."
      },
      "repayDebtTokens(address,uint256,address,address)": {
        "notice": "Repays debt tokens to the caller's trenBox. Burns the repaid debt tokens, and reduces the trenBox's debt accordingly or Closes trenBox if user has enough tokens at all."
      },
      "withdrawColl(address,uint256,address,address)": {
        "notice": "Withdraws collateral from the caller's active trenBox."
      },
      "withdrawDebtTokens(address,uint256,address,address)": {
        "notice": "Withdraws debt tokens from the caller's trenBox. Mints new debt tokens to the owner, and increase the trenBox's debt accordingly."
      }
    },
    "notice": "Contains the basic operations by which borrowers interact with their TrenBoxes: TrenBox creation, collateral top-up / withdrawal, debt token issuance and repayment.",
    "version": 1
  },
  "storageLayout": {
    "storage": [
      {
        "astId": 10105,
        "contract": "contracts/BorrowerOperations.sol:BorrowerOperations",
        "label": "adminContract",
        "offset": 0,
        "slot": "0",
        "type": "t_address"
      },
      {
        "astId": 10107,
        "contract": "contracts/BorrowerOperations.sol:BorrowerOperations",
        "label": "borrowerOperations",
        "offset": 0,
        "slot": "1",
        "type": "t_address"
      },
      {
        "astId": 10109,
        "contract": "contracts/BorrowerOperations.sol:BorrowerOperations",
        "label": "communityIssuance",
        "offset": 0,
        "slot": "2",
        "type": "t_address"
      },
      {
        "astId": 10111,
        "contract": "contracts/BorrowerOperations.sol:BorrowerOperations",
        "label": "debtToken",
        "offset": 0,
        "slot": "3",
        "type": "t_address"
      },
      {
        "astId": 10113,
        "contract": "contracts/BorrowerOperations.sol:BorrowerOperations",
        "label": "feeCollector",
        "offset": 0,
        "slot": "4",
        "type": "t_address"
      },
      {
        "astId": 10115,
        "contract": "contracts/BorrowerOperations.sol:BorrowerOperations",
        "label": "flashLoanAddress",
        "offset": 0,
        "slot": "5",
        "type": "t_address"
      },
      {
        "astId": 10117,
        "contract": "contracts/BorrowerOperations.sol:BorrowerOperations",
        "label": "trenStaking",
        "offset": 0,
        "slot": "6",
        "type": "t_address"
      },
      {
        "astId": 10119,
        "contract": "contracts/BorrowerOperations.sol:BorrowerOperations",
        "label": "priceFeed",
        "offset": 0,
        "slot": "7",
        "type": "t_address"
      },
      {
        "astId": 10121,
        "contract": "contracts/BorrowerOperations.sol:BorrowerOperations",
        "label": "sortedTrenBoxes",
        "offset": 0,
        "slot": "8",
        "type": "t_address"
      },
      {
        "astId": 10123,
        "contract": "contracts/BorrowerOperations.sol:BorrowerOperations",
        "label": "stabilityPool",
        "offset": 0,
        "slot": "9",
        "type": "t_address"
      },
      {
        "astId": 10125,
        "contract": "contracts/BorrowerOperations.sol:BorrowerOperations",
        "label": "timelockAddress",
        "offset": 0,
        "slot": "10",
        "type": "t_address"
      },
      {
        "astId": 10127,
        "contract": "contracts/BorrowerOperations.sol:BorrowerOperations",
        "label": "treasuryAddress",
        "offset": 0,
        "slot": "11",
        "type": "t_address"
      },
      {
        "astId": 10129,
        "contract": "contracts/BorrowerOperations.sol:BorrowerOperations",
        "label": "trenBoxManager",
        "offset": 0,
        "slot": "12",
        "type": "t_address"
      },
      {
        "astId": 10131,
        "contract": "contracts/BorrowerOperations.sol:BorrowerOperations",
        "label": "trenBoxManagerOperations",
        "offset": 0,
        "slot": "13",
        "type": "t_address"
      },
      {
        "astId": 10133,
        "contract": "contracts/BorrowerOperations.sol:BorrowerOperations",
        "label": "trenBoxStorage",
        "offset": 0,
        "slot": "14",
        "type": "t_address"
      },
      {
        "astId": 10135,
        "contract": "contracts/BorrowerOperations.sol:BorrowerOperations",
        "label": "isAddressSetupInitialized",
        "offset": 20,
        "slot": "14",
        "type": "t_bool"
      },
      {
        "astId": 10140,
        "contract": "contracts/BorrowerOperations.sol:BorrowerOperations",
        "label": "__gap",
        "offset": 0,
        "slot": "15",
        "type": "t_array(t_uint256)33_storage"
      }
    ],
    "types": {
      "t_address": {
        "encoding": "inplace",
        "label": "address",
        "numberOfBytes": "20"
      },
      "t_array(t_uint256)33_storage": {
        "base": "t_uint256",
        "encoding": "inplace",
        "label": "uint256[33]",
        "numberOfBytes": "1056"
      },
      "t_bool": {
        "encoding": "inplace",
        "label": "bool",
        "numberOfBytes": "1"
      },
      "t_uint256": {
        "encoding": "inplace",
        "label": "uint256",
        "numberOfBytes": "32"
      }
    }
  }
}