{
  "address": "0xcA25e4cAE43DcEF2C2260485e50C1d8005dC1237",
  "abi": [
    {
      "inputs": [
        {
          "internalType": "uint256",
          "name": "_delay",
          "type": "uint256"
        },
        {
          "internalType": "address",
          "name": "_adminAddress",
          "type": "address"
        }
      ],
      "stateMutability": "nonpayable",
      "type": "constructor"
    },
    {
      "inputs": [],
      "name": "Timelock__AdminZeroAddress",
      "type": "error"
    },
    {
      "inputs": [],
      "name": "Timelock__DelayMustExceedMininumDelay",
      "type": "error"
    },
    {
      "inputs": [],
      "name": "Timelock__DelayMustNotExceedMaximumDelay",
      "type": "error"
    },
    {
      "inputs": [],
      "name": "Timelock__ETAMustSatisfyDelay",
      "type": "error"
    },
    {
      "inputs": [],
      "name": "Timelock__OnlyAdmin",
      "type": "error"
    },
    {
      "inputs": [],
      "name": "Timelock__OnlyPendingAdmin",
      "type": "error"
    },
    {
      "inputs": [],
      "name": "Timelock__OnlyTimelock",
      "type": "error"
    },
    {
      "inputs": [],
      "name": "Timelock__TargetZeroAddress",
      "type": "error"
    },
    {
      "inputs": [],
      "name": "Timelock__TxAlreadyQueued",
      "type": "error"
    },
    {
      "inputs": [],
      "name": "Timelock__TxExpired",
      "type": "error"
    },
    {
      "inputs": [],
      "name": "Timelock__TxNoQueued",
      "type": "error"
    },
    {
      "inputs": [],
      "name": "Timelock__TxReverted",
      "type": "error"
    },
    {
      "inputs": [],
      "name": "Timelock__TxStillLocked",
      "type": "error"
    },
    {
      "anonymous": false,
      "inputs": [
        {
          "indexed": true,
          "internalType": "bytes32",
          "name": "txHash",
          "type": "bytes32"
        },
        {
          "indexed": true,
          "internalType": "address",
          "name": "target",
          "type": "address"
        },
        {
          "indexed": false,
          "internalType": "uint256",
          "name": "value",
          "type": "uint256"
        },
        {
          "indexed": false,
          "internalType": "string",
          "name": "signature",
          "type": "string"
        },
        {
          "indexed": false,
          "internalType": "bytes",
          "name": "data",
          "type": "bytes"
        },
        {
          "indexed": false,
          "internalType": "uint256",
          "name": "eta",
          "type": "uint256"
        }
      ],
      "name": "CancelTransaction",
      "type": "event"
    },
    {
      "anonymous": false,
      "inputs": [
        {
          "indexed": true,
          "internalType": "bytes32",
          "name": "txHash",
          "type": "bytes32"
        },
        {
          "indexed": true,
          "internalType": "address",
          "name": "target",
          "type": "address"
        },
        {
          "indexed": false,
          "internalType": "uint256",
          "name": "value",
          "type": "uint256"
        },
        {
          "indexed": false,
          "internalType": "string",
          "name": "signature",
          "type": "string"
        },
        {
          "indexed": false,
          "internalType": "bytes",
          "name": "data",
          "type": "bytes"
        },
        {
          "indexed": false,
          "internalType": "uint256",
          "name": "eta",
          "type": "uint256"
        }
      ],
      "name": "ExecuteTransaction",
      "type": "event"
    },
    {
      "anonymous": false,
      "inputs": [
        {
          "indexed": true,
          "internalType": "address",
          "name": "newAdmin",
          "type": "address"
        }
      ],
      "name": "NewAdmin",
      "type": "event"
    },
    {
      "anonymous": false,
      "inputs": [
        {
          "indexed": true,
          "internalType": "uint256",
          "name": "newDelay",
          "type": "uint256"
        }
      ],
      "name": "NewDelay",
      "type": "event"
    },
    {
      "anonymous": false,
      "inputs": [
        {
          "indexed": true,
          "internalType": "address",
          "name": "newPendingAdmin",
          "type": "address"
        }
      ],
      "name": "NewPendingAdmin",
      "type": "event"
    },
    {
      "anonymous": false,
      "inputs": [
        {
          "indexed": true,
          "internalType": "bytes32",
          "name": "txHash",
          "type": "bytes32"
        },
        {
          "indexed": true,
          "internalType": "address",
          "name": "target",
          "type": "address"
        },
        {
          "indexed": false,
          "internalType": "uint256",
          "name": "value",
          "type": "uint256"
        },
        {
          "indexed": false,
          "internalType": "string",
          "name": "signature",
          "type": "string"
        },
        {
          "indexed": false,
          "internalType": "bytes",
          "name": "data",
          "type": "bytes"
        },
        {
          "indexed": false,
          "internalType": "uint256",
          "name": "eta",
          "type": "uint256"
        }
      ],
      "name": "QueueTransaction",
      "type": "event"
    },
    {
      "inputs": [],
      "name": "GRACE_PERIOD",
      "outputs": [
        {
          "internalType": "uint256",
          "name": "",
          "type": "uint256"
        }
      ],
      "stateMutability": "view",
      "type": "function"
    },
    {
      "inputs": [],
      "name": "MAXIMUM_DELAY",
      "outputs": [
        {
          "internalType": "uint256",
          "name": "",
          "type": "uint256"
        }
      ],
      "stateMutability": "view",
      "type": "function"
    },
    {
      "inputs": [],
      "name": "MINIMUM_DELAY",
      "outputs": [
        {
          "internalType": "uint256",
          "name": "",
          "type": "uint256"
        }
      ],
      "stateMutability": "view",
      "type": "function"
    },
    {
      "inputs": [],
      "name": "NAME",
      "outputs": [
        {
          "internalType": "string",
          "name": "",
          "type": "string"
        }
      ],
      "stateMutability": "view",
      "type": "function"
    },
    {
      "inputs": [],
      "name": "acceptAdmin",
      "outputs": [],
      "stateMutability": "nonpayable",
      "type": "function"
    },
    {
      "inputs": [],
      "name": "admin",
      "outputs": [
        {
          "internalType": "address",
          "name": "",
          "type": "address"
        }
      ],
      "stateMutability": "view",
      "type": "function"
    },
    {
      "inputs": [
        {
          "internalType": "address",
          "name": "target",
          "type": "address"
        },
        {
          "internalType": "uint256",
          "name": "value",
          "type": "uint256"
        },
        {
          "internalType": "string",
          "name": "signature",
          "type": "string"
        },
        {
          "internalType": "bytes",
          "name": "data",
          "type": "bytes"
        },
        {
          "internalType": "uint256",
          "name": "eta",
          "type": "uint256"
        }
      ],
      "name": "cancelTransaction",
      "outputs": [],
      "stateMutability": "nonpayable",
      "type": "function"
    },
    {
      "inputs": [],
      "name": "delay",
      "outputs": [
        {
          "internalType": "uint256",
          "name": "",
          "type": "uint256"
        }
      ],
      "stateMutability": "view",
      "type": "function"
    },
    {
      "inputs": [
        {
          "internalType": "address",
          "name": "target",
          "type": "address"
        },
        {
          "internalType": "uint256",
          "name": "value",
          "type": "uint256"
        },
        {
          "internalType": "string",
          "name": "signature",
          "type": "string"
        },
        {
          "internalType": "bytes",
          "name": "data",
          "type": "bytes"
        },
        {
          "internalType": "uint256",
          "name": "eta",
          "type": "uint256"
        }
      ],
      "name": "executeTransaction",
      "outputs": [
        {
          "internalType": "bytes",
          "name": "",
          "type": "bytes"
        }
      ],
      "stateMutability": "payable",
      "type": "function"
    },
    {
      "inputs": [],
      "name": "pendingAdmin",
      "outputs": [
        {
          "internalType": "address",
          "name": "",
          "type": "address"
        }
      ],
      "stateMutability": "view",
      "type": "function"
    },
    {
      "inputs": [
        {
          "internalType": "address",
          "name": "target",
          "type": "address"
        },
        {
          "internalType": "uint256",
          "name": "value",
          "type": "uint256"
        },
        {
          "internalType": "string",
          "name": "signature",
          "type": "string"
        },
        {
          "internalType": "bytes",
          "name": "data",
          "type": "bytes"
        },
        {
          "internalType": "uint256",
          "name": "eta",
          "type": "uint256"
        }
      ],
      "name": "queueTransaction",
      "outputs": [
        {
          "internalType": "bytes32",
          "name": "",
          "type": "bytes32"
        }
      ],
      "stateMutability": "nonpayable",
      "type": "function"
    },
    {
      "inputs": [
        {
          "internalType": "bytes32",
          "name": "txHash",
          "type": "bytes32"
        }
      ],
      "name": "queuedTransactions",
      "outputs": [
        {
          "internalType": "bool",
          "name": "isQueued",
          "type": "bool"
        }
      ],
      "stateMutability": "view",
      "type": "function"
    },
    {
      "inputs": [
        {
          "internalType": "uint256",
          "name": "_delay",
          "type": "uint256"
        }
      ],
      "name": "setDelay",
      "outputs": [],
      "stateMutability": "nonpayable",
      "type": "function"
    },
    {
      "inputs": [
        {
          "internalType": "address",
          "name": "_pendingAdmin",
          "type": "address"
        }
      ],
      "name": "setPendingAdmin",
      "outputs": [],
      "stateMutability": "nonpayable",
      "type": "function"
    },
    {
      "stateMutability": "payable",
      "type": "receive"
    }
  ],
  "transactionHash": "0x39f23854d8b7b6feb25b15b39ee506773539b63ea35dc86a0ad228a549e00c1b",
  "args": [
    "172800",
    "0xf39Fd6e51aad88F6F4ce6aB8827279cffFb92266"
  ],
  "numDeployments": 1,
  "solcInputHash": "3a6e18213a29d49a1c6ac02986a2d311",
  "bytecode": "0x608060405234801561001057600080fd5b50604051610d0d380380610d0d83398101604081905261002f916100c8565b816202a30081101561005457604051634c2c3b8760e01b815260040160405180910390fd5b6213c68081111561007857604051631c5056b160e01b815260040160405180910390fd5b6001600160a01b03821661009f57604051632ab787c960e21b815260040160405180910390fd5b50600080546001600160a01b0319166001600160a01b0392909216919091179055600255610105565b600080604083850312156100db57600080fd5b825160208401519092506001600160a01b03811681146100fa57600080fd5b809150509250929050565b610bf9806101146000396000f3fe6080604052600436106100e15760003560e01c80637d645fab1161007f578063c1a287e211610059578063c1a287e21461024b578063e177246e14610262578063f2b0653714610282578063f851a440146102c257600080fd5b80637d645fab146101e9578063a3f4df7e14610200578063b1b43ae51461023457600080fd5b80633a66f901116100bb5780633a66f901146101655780634dd18bf514610193578063591fcdfe146101b35780636a42b8f8146101d357600080fd5b80630825f38f146100ed5780630e18b68114610116578063267822471461012d57600080fd5b366100e857005b600080fd5b6101006100fb3660046109a0565b6102e2565b60405161010d9190610aa1565b60405180910390f35b34801561012257600080fd5b5061012b610510565b005b34801561013957600080fd5b5060015461014d906001600160a01b031681565b6040516001600160a01b03909116815260200161010d565b34801561017157600080fd5b506101856101803660046109a0565b610584565b60405190815260200161010d565b34801561019f57600080fd5b5061012b6101ae366004610abb565b6106d4565b3480156101bf57600080fd5b5061012b6101ce3660046109a0565b610765565b3480156101df57600080fd5b5061018560025481565b3480156101f557600080fd5b506101856213c68081565b34801561020c57600080fd5b506101006040518060400160405280600881526020016754696d656c6f636b60c01b81525081565b34801561024057600080fd5b506101856202a30081565b34801561025757600080fd5b506101856212750081565b34801561026e57600080fd5b5061012b61027d366004610ad6565b61085b565b34801561028e57600080fd5b506102b261029d366004610ad6565b60036020526000908152604090205460ff1681565b604051901515815260200161010d565b3480156102ce57600080fd5b5060005461014d906001600160a01b031681565b6000546060906001600160a01b03163314610310576040516347d8d35760e11b815260040160405180910390fd5b6001600160a01b0386166103375760405163e554a2f360e01b815260040160405180910390fd5b60008686868686604051602001610352959493929190610aef565b60408051601f1981840301815291815281516020928301206000818152600390935291205490915060ff1661039957604051626c127560e71b815260040160405180910390fd5b824210156103ba5760405163a6abb5a760e01b815260040160405180910390fd5b6103c76212750084610b3b565b4211156103e757604051634849c44b60e01b815260040160405180910390fd5b6000818152600360205260408120805460ff1916905585516060910361040e57508361043a565b858051906020012085604051602001610428929190610b62565b60405160208183030381529060405290505b600080896001600160a01b031689846040516104569190610b93565b60006040518083038185875af1925050503d8060008114610493576040519150601f19603f3d011682016040523d82523d6000602084013e610498565b606091505b5091509150816104bb576040516301b81eed60e61b815260040160405180910390fd5b896001600160a01b0316847fa560e3198060a2f10670c1ec5b403077ea6ae93ca8de1c32b451dc1a943cd6e78b8b8b8b6040516104fb9493929190610baf565b60405180910390a39998505050505050505050565b6001546001600160a01b0316331461053b5760405163781251e360e01b815260040160405180910390fd5b60008054336001600160a01b0319918216811783556001805490921690915560405190917f71614071b88dee5e0b2ae578a9dd7b2ebbe9ae832ba419dc0242cd065a290b6c91a2565b600080546001600160a01b031633146105b0576040516347d8d35760e11b815260040160405180910390fd5b6002546105bd9042610b3b565b8210806105e4575062127500600254426105d79190610b3b565b6105e19190610b3b565b82115b15610602576040516307feb5af60e21b815260040160405180910390fd5b6000868686868660405160200161061d959493929190610aef565b60408051601f1981840301815291815281516020928301206000818152600390935291205490915060ff1615610666576040516381f9990f60e01b815260040160405180910390fd5b60008181526003602052604090819020805460ff19166001179055516001600160a01b0388169082907f76e2796dc3a81d57b0e8504b647febcbeeb5f4af818e164f11eef8131a6a763f906106c2908a908a908a908a90610baf565b60405180910390a39695505050505050565b3330146106f45760405163a0c09c8160e01b815260040160405180910390fd5b6001600160a01b03811661071b57604051632ab787c960e21b815260040160405180910390fd5b600180546001600160a01b0319166001600160a01b0383169081179091556040517f69d78e38a01985fbb1462961809b4b2d65531bc93b2b94037f3334b82ca4a75690600090a250565b6000546001600160a01b03163314610790576040516347d8d35760e11b815260040160405180910390fd5b600085858585856040516020016107ab959493929190610aef565b60408051601f1981840301815291815281516020928301206000818152600390935291205490915060ff166107f257604051626c127560e71b815260040160405180910390fd5b60008181526003602052604090819020805460ff19169055516001600160a01b0387169082907f2fffc091a501fd91bfbff27141450d3acb40fb8e6d8382b243ec7a812a3aaf879061084b908990899089908990610baf565b60405180910390a3505050505050565b806202a30081101561088057604051634c2c3b8760e01b815260040160405180910390fd5b6213c6808111156108a457604051631c5056b160e01b815260040160405180910390fd5b3330146108c45760405163a0c09c8160e01b815260040160405180910390fd5b600282905560405182907f948b1f6a42ee138b7e34058ba85a37f716d55ff25ff05a763f15bed6a04c8d2c90600090a25050565b80356001600160a01b038116811461090f57600080fd5b919050565b634e487b7160e01b600052604160045260246000fd5b600067ffffffffffffffff8084111561094557610945610914565b604051601f8501601f19908116603f0116810190828211818310171561096d5761096d610914565b8160405280935085815286868601111561098657600080fd5b858560208301376000602087830101525050509392505050565b600080600080600060a086880312156109b857600080fd5b6109c1866108f8565b945060208601359350604086013567ffffffffffffffff808211156109e557600080fd5b818801915088601f8301126109f957600080fd5b610a088983356020850161092a565b94506060880135915080821115610a1e57600080fd5b508601601f81018813610a3057600080fd5b610a3f8882356020840161092a565b95989497509295608001359392505050565b60005b83811015610a6c578181015183820152602001610a54565b50506000910152565b60008151808452610a8d816020860160208601610a51565b601f01601f19169290920160200192915050565b602081526000610ab46020830184610a75565b9392505050565b600060208284031215610acd57600080fd5b610ab4826108f8565b600060208284031215610ae857600080fd5b5035919050565b60018060a01b038616815284602082015260a060408201526000610b1660a0830186610a75565b8281036060840152610b288186610a75565b9150508260808301529695505050505050565b80820180821115610b5c57634e487b7160e01b600052601160045260246000fd5b92915050565b6001600160e01b0319831681528151600090610b85816004850160208701610a51565b919091016004019392505050565b60008251610ba5818460208701610a51565b9190910192915050565b848152608060208201526000610bc86080830186610a75565b8281036040840152610bda8186610a75565b9150508260608301529594505050505056fea164736f6c6343000817000a",
  "devdoc": {
    "kind": "dev",
    "methods": {},
    "version": 1
  },
  "userdoc": {
    "kind": "user",
    "methods": {},
    "version": 1
  },
  "storageLayout": {
    "storage": [
      {
        "astId": 22891,
        "contract": "contracts/Timelock.sol:Timelock",
        "label": "admin",
        "offset": 0,
        "slot": "0",
        "type": "t_address"
      },
      {
        "astId": 22893,
        "contract": "contracts/Timelock.sol:Timelock",
        "label": "pendingAdmin",
        "offset": 0,
        "slot": "1",
        "type": "t_address"
      },
      {
        "astId": 22895,
        "contract": "contracts/Timelock.sol:Timelock",
        "label": "delay",
        "offset": 0,
        "slot": "2",
        "type": "t_uint256"
      },
      {
        "astId": 22899,
        "contract": "contracts/Timelock.sol:Timelock",
        "label": "queuedTransactions",
        "offset": 0,
        "slot": "3",
        "type": "t_mapping(t_bytes32,t_bool)"
      }
    ],
    "types": {
      "t_address": {
        "encoding": "inplace",
        "label": "address",
        "numberOfBytes": "20"
      },
      "t_bool": {
        "encoding": "inplace",
        "label": "bool",
        "numberOfBytes": "1"
      },
      "t_bytes32": {
        "encoding": "inplace",
        "label": "bytes32",
        "numberOfBytes": "32"
      },
      "t_mapping(t_bytes32,t_bool)": {
        "encoding": "mapping",
        "key": "t_bytes32",
        "label": "mapping(bytes32 => bool)",
        "numberOfBytes": "32",
        "value": "t_bool"
      },
      "t_uint256": {
        "encoding": "inplace",
        "label": "uint256",
        "numberOfBytes": "32"
      }
    }
  }
}