{
  "address": "0x98Ea5D2796a1d050291492C721B7F5B37918b0C6",
  "abi": [
    {
      "inputs": [
        {
          "internalType": "address",
          "name": "target",
          "type": "address"
        }
      ],
      "name": "AddressEmptyCode",
      "type": "error"
    },
    {
      "inputs": [
        {
          "internalType": "address",
          "name": "account",
          "type": "address"
        }
      ],
      "name": "AddressInsufficientBalance",
      "type": "error"
    },
    {
      "inputs": [
        {
          "internalType": "address",
          "name": "implementation",
          "type": "address"
        }
      ],
      "name": "ERC1967InvalidImplementation",
      "type": "error"
    },
    {
      "inputs": [],
      "name": "ERC1967NonPayable",
      "type": "error"
    },
    {
      "inputs": [],
      "name": "EthUnsupportedError",
      "type": "error"
    },
    {
      "inputs": [],
      "name": "FailedInnerCall",
      "type": "error"
    },
    {
      "inputs": [],
      "name": "InvalidAmountError",
      "type": "error"
    },
    {
      "inputs": [],
      "name": "InvalidInitialization",
      "type": "error"
    },
    {
      "inputs": [],
      "name": "NotInitializing",
      "type": "error"
    },
    {
      "inputs": [
        {
          "internalType": "address",
          "name": "owner",
          "type": "address"
        }
      ],
      "name": "OwnableInvalidOwner",
      "type": "error"
    },
    {
      "inputs": [
        {
          "internalType": "address",
          "name": "account",
          "type": "address"
        }
      ],
      "name": "OwnableUnauthorizedAccount",
      "type": "error"
    },
    {
      "inputs": [],
      "name": "ReentrancyGuardReentrantCall",
      "type": "error"
    },
    {
      "inputs": [
        {
          "internalType": "address",
          "name": "token",
          "type": "address"
        }
      ],
      "name": "SafeERC20FailedOperation",
      "type": "error"
    },
    {
      "inputs": [],
      "name": "UUPSUnauthorizedCallContext",
      "type": "error"
    },
    {
      "inputs": [
        {
          "internalType": "bytes32",
          "name": "slot",
          "type": "bytes32"
        }
      ],
      "name": "UUPSUnsupportedProxiableUUID",
      "type": "error"
    },
    {
      "anonymous": false,
      "inputs": [
        {
          "indexed": false,
          "internalType": "address",
          "name": "_asset",
          "type": "address"
        },
        {
          "indexed": false,
          "internalType": "uint256",
          "name": "_balance",
          "type": "uint256"
        }
      ],
      "name": "ActivePoolAssetBalanceUpdated",
      "type": "event"
    },
    {
      "anonymous": false,
      "inputs": [
        {
          "indexed": false,
          "internalType": "address",
          "name": "_asset",
          "type": "address"
        },
        {
          "indexed": false,
          "internalType": "uint256",
          "name": "_debtTokenAmount",
          "type": "uint256"
        }
      ],
      "name": "ActivePoolDebtUpdated",
      "type": "event"
    },
    {
      "anonymous": false,
      "inputs": [
        {
          "indexed": false,
          "internalType": "address",
          "name": "_to",
          "type": "address"
        },
        {
          "indexed": true,
          "internalType": "address",
          "name": "_asset",
          "type": "address"
        },
        {
          "indexed": false,
          "internalType": "uint256",
          "name": "_amount",
          "type": "uint256"
        }
      ],
      "name": "AssetSent",
      "type": "event"
    },
    {
      "anonymous": false,
      "inputs": [
        {
          "indexed": false,
          "internalType": "uint64",
          "name": "version",
          "type": "uint64"
        }
      ],
      "name": "Initialized",
      "type": "event"
    },
    {
      "anonymous": false,
      "inputs": [
        {
          "indexed": true,
          "internalType": "address",
          "name": "previousOwner",
          "type": "address"
        },
        {
          "indexed": true,
          "internalType": "address",
          "name": "newOwner",
          "type": "address"
        }
      ],
      "name": "OwnershipTransferred",
      "type": "event"
    },
    {
      "anonymous": false,
      "inputs": [
        {
          "indexed": true,
          "internalType": "address",
          "name": "implementation",
          "type": "address"
        }
      ],
      "name": "Upgraded",
      "type": "event"
    },
    {
      "inputs": [],
      "name": "NAME",
      "outputs": [
        {
          "internalType": "string",
          "name": "",
          "type": "string"
        }
      ],
      "stateMutability": "view",
      "type": "function"
    },
    {
      "inputs": [],
      "name": "UPGRADE_INTERFACE_VERSION",
      "outputs": [
        {
          "internalType": "string",
          "name": "",
          "type": "string"
        }
      ],
      "stateMutability": "view",
      "type": "function"
    },
    {
      "inputs": [],
      "name": "activePool",
      "outputs": [
        {
          "internalType": "address",
          "name": "",
          "type": "address"
        }
      ],
      "stateMutability": "view",
      "type": "function"
    },
    {
      "inputs": [],
      "name": "adminContract",
      "outputs": [
        {
          "internalType": "address",
          "name": "",
          "type": "address"
        }
      ],
      "stateMutability": "view",
      "type": "function"
    },
    {
      "inputs": [
        {
          "internalType": "address",
          "name": "newImplementation",
          "type": "address"
        }
      ],
      "name": "authorizeUpgrade",
      "outputs": [],
      "stateMutability": "nonpayable",
      "type": "function"
    },
    {
      "inputs": [],
      "name": "borrowerOperations",
      "outputs": [
        {
          "internalType": "address",
          "name": "",
          "type": "address"
        }
      ],
      "stateMutability": "view",
      "type": "function"
    },
    {
      "inputs": [],
      "name": "collSurplusPool",
      "outputs": [
        {
          "internalType": "address",
          "name": "",
          "type": "address"
        }
      ],
      "stateMutability": "view",
      "type": "function"
    },
    {
      "inputs": [],
      "name": "communityIssuance",
      "outputs": [
        {
          "internalType": "address",
          "name": "",
          "type": "address"
        }
      ],
      "stateMutability": "view",
      "type": "function"
    },
    {
      "inputs": [],
      "name": "debtToken",
      "outputs": [
        {
          "internalType": "address",
          "name": "",
          "type": "address"
        }
      ],
      "stateMutability": "view",
      "type": "function"
    },
    {
      "inputs": [
        {
          "internalType": "address",
          "name": "_asset",
          "type": "address"
        },
        {
          "internalType": "uint256",
          "name": "_amount",
          "type": "uint256"
        }
      ],
      "name": "decreaseDebt",
      "outputs": [],
      "stateMutability": "nonpayable",
      "type": "function"
    },
    {
      "inputs": [],
      "name": "defaultPool",
      "outputs": [
        {
          "internalType": "address",
          "name": "",
          "type": "address"
        }
      ],
      "stateMutability": "view",
      "type": "function"
    },
    {
      "inputs": [],
      "name": "feeCollector",
      "outputs": [
        {
          "internalType": "address",
          "name": "",
          "type": "address"
        }
      ],
      "stateMutability": "view",
      "type": "function"
    },
    {
      "inputs": [],
      "name": "gasPoolAddress",
      "outputs": [
        {
          "internalType": "address",
          "name": "",
          "type": "address"
        }
      ],
      "stateMutability": "view",
      "type": "function"
    },
    {
      "inputs": [
        {
          "internalType": "address",
          "name": "_asset",
          "type": "address"
        }
      ],
      "name": "getAssetBalance",
      "outputs": [
        {
          "internalType": "uint256",
          "name": "",
          "type": "uint256"
        }
      ],
      "stateMutability": "view",
      "type": "function"
    },
    {
      "inputs": [
        {
          "internalType": "address",
          "name": "_asset",
          "type": "address"
        }
      ],
      "name": "getDebtTokenBalance",
      "outputs": [
        {
          "internalType": "uint256",
          "name": "",
          "type": "uint256"
        }
      ],
      "stateMutability": "view",
      "type": "function"
    },
    {
      "inputs": [
        {
          "internalType": "address",
          "name": "_collateral",
          "type": "address"
        },
        {
          "internalType": "uint256",
          "name": "_amount",
          "type": "uint256"
        }
      ],
      "name": "increaseDebt",
      "outputs": [],
      "stateMutability": "nonpayable",
      "type": "function"
    },
    {
      "inputs": [],
      "name": "initialize",
      "outputs": [],
      "stateMutability": "nonpayable",
      "type": "function"
    },
    {
      "inputs": [],
      "name": "isAddressSetupInitialized",
      "outputs": [
        {
          "internalType": "bool",
          "name": "",
          "type": "bool"
        }
      ],
      "stateMutability": "view",
      "type": "function"
    },
    {
      "inputs": [],
      "name": "owner",
      "outputs": [
        {
          "internalType": "address",
          "name": "",
          "type": "address"
        }
      ],
      "stateMutability": "view",
      "type": "function"
    },
    {
      "inputs": [],
      "name": "priceFeed",
      "outputs": [
        {
          "internalType": "address",
          "name": "",
          "type": "address"
        }
      ],
      "stateMutability": "view",
      "type": "function"
    },
    {
      "inputs": [],
      "name": "proxiableUUID",
      "outputs": [
        {
          "internalType": "bytes32",
          "name": "",
          "type": "bytes32"
        }
      ],
      "stateMutability": "view",
      "type": "function"
    },
    {
      "inputs": [
        {
          "internalType": "address",
          "name": "_asset",
          "type": "address"
        },
        {
          "internalType": "uint256",
          "name": "_amount",
          "type": "uint256"
        }
      ],
      "name": "receivedERC20",
      "outputs": [],
      "stateMutability": "nonpayable",
      "type": "function"
    },
    {
      "inputs": [],
      "name": "renounceOwnership",
      "outputs": [],
      "stateMutability": "nonpayable",
      "type": "function"
    },
    {
      "inputs": [
        {
          "internalType": "address",
          "name": "_asset",
          "type": "address"
        },
        {
          "internalType": "address",
          "name": "_account",
          "type": "address"
        },
        {
          "internalType": "uint256",
          "name": "_amount",
          "type": "uint256"
        }
      ],
      "name": "sendAsset",
      "outputs": [],
      "stateMutability": "nonpayable",
      "type": "function"
    },
    {
      "inputs": [
        {
          "internalType": "address[]",
          "name": "_addresses",
          "type": "address[]"
        }
      ],
      "name": "setAddresses",
      "outputs": [],
      "stateMutability": "nonpayable",
      "type": "function"
    },
    {
      "inputs": [
        {
          "internalType": "address",
          "name": "_communityIssuance",
          "type": "address"
        }
      ],
      "name": "setCommunityIssuance",
      "outputs": [],
      "stateMutability": "nonpayable",
      "type": "function"
    },
    {
      "inputs": [
        {
          "internalType": "address",
          "name": "_trenStaking",
          "type": "address"
        }
      ],
      "name": "setTRENStaking",
      "outputs": [],
      "stateMutability": "nonpayable",
      "type": "function"
    },
    {
      "inputs": [],
      "name": "sortedTrenBoxes",
      "outputs": [
        {
          "internalType": "address",
          "name": "",
          "type": "address"
        }
      ],
      "stateMutability": "view",
      "type": "function"
    },
    {
      "inputs": [],
      "name": "stabilityPool",
      "outputs": [
        {
          "internalType": "address",
          "name": "",
          "type": "address"
        }
      ],
      "stateMutability": "view",
      "type": "function"
    },
    {
      "inputs": [],
      "name": "timelockAddress",
      "outputs": [
        {
          "internalType": "address",
          "name": "",
          "type": "address"
        }
      ],
      "stateMutability": "view",
      "type": "function"
    },
    {
      "inputs": [
        {
          "internalType": "address",
          "name": "newOwner",
          "type": "address"
        }
      ],
      "name": "transferOwnership",
      "outputs": [],
      "stateMutability": "nonpayable",
      "type": "function"
    },
    {
      "inputs": [],
      "name": "treasuryAddress",
      "outputs": [
        {
          "internalType": "address",
          "name": "",
          "type": "address"
        }
      ],
      "stateMutability": "view",
      "type": "function"
    },
    {
      "inputs": [],
      "name": "trenBoxManager",
      "outputs": [
        {
          "internalType": "address",
          "name": "",
          "type": "address"
        }
      ],
      "stateMutability": "view",
      "type": "function"
    },
    {
      "inputs": [],
      "name": "trenBoxManagerOperations",
      "outputs": [
        {
          "internalType": "address",
          "name": "",
          "type": "address"
        }
      ],
      "stateMutability": "view",
      "type": "function"
    },
    {
      "inputs": [],
      "name": "trenStaking",
      "outputs": [
        {
          "internalType": "address",
          "name": "",
          "type": "address"
        }
      ],
      "stateMutability": "view",
      "type": "function"
    },
    {
      "inputs": [
        {
          "internalType": "address",
          "name": "newImplementation",
          "type": "address"
        },
        {
          "internalType": "bytes",
          "name": "data",
          "type": "bytes"
        }
      ],
      "name": "upgradeToAndCall",
      "outputs": [],
      "stateMutability": "payable",
      "type": "function"
    }
  ],
  "transactionHash": "0x3842cb0a4b525c723e26765f8a1e0bd3ae74d8b914810fc9de72979cd3ed09fd",
  "args": [],
  "numDeployments": 1,
  "solcInputHash": "e6971fb87a17deef3641f1719687e39f",
  "bytecode": "0x60a06040523060805234801561001457600080fd5b50608051611fc261003e6000396000818161154d0152818161157601526116b70152611fc26000f3fe60806040526004361061020f5760003560e01c806395fb16bb11610118578063cc8b21e4116100a0578063f2fde38b1161006f578063f2fde38b14610681578063f8585db3146106a1578063f8d89898146106c1578063fe060733146106e1578063fe9d03231461070157600080fd5b8063cc8b21e414610601578063cda775f914610621578063eb16f00414610641578063f1c05a7e1461066157600080fd5b8063c05c5e94116100e7578063c05c5e941461053a578063c415b95c1461055a578063c5739d0b1461057a578063c5f956af146105b0578063c8564c62146105d057600080fd5b806395fb16bb14610486578063a3f4df7e146104a6578063ad3cb1cc146104e9578063b95717211461051a57600080fd5b80635373433f1161019b578063741bef1a1161016a578063741bef1a146103d457806377553ad4146103f45780637f7dde4a146104145780638129fc1c146104345780638da5cb5b1461044957600080fd5b80635373433f1461034957806355dafa461461037f5780636a85d67d1461039f578063715018a6146103bf57600080fd5b80633cc74225116101e25780633cc74225146102b357806347878f15146102d35780634bc66f32146102f35780634f1ef2861461031357806352d1902d1461032657600080fd5b806301c9310014610214578063048c661d146102365780630a34d4d6146102735780632fb9ba3114610293575b600080fd5b34801561022057600080fd5b5061023461022f366004611aee565b610721565b005b34801561024257600080fd5b50600c54610256906001600160a01b031681565b6040516001600160a01b0390911681526020015b60405180910390f35b34801561027f57600080fd5b50601054610256906001600160a01b031681565b34801561029f57600080fd5b506102346102ae366004611b09565b61074b565b3480156102bf57600080fd5b50600654610256906001600160a01b031681565b3480156102df57600080fd5b506102346102ee366004611b33565b610829565b3480156102ff57600080fd5b50600d54610256906001600160a01b031681565b610234610321366004611b85565b610a2d565b34801561033257600080fd5b5061033b610a4c565b60405190815260200161026a565b34801561035557600080fd5b5061033b610364366004611aee565b6001600160a01b031660009081526032602052604090205490565b34801561038b57600080fd5b50600954610256906001600160a01b031681565b3480156103ab57600080fd5b506102346103ba366004611aee565b610a69565b3480156103cb57600080fd5b50610234610a93565b3480156103e057600080fd5b50600a54610256906001600160a01b031681565b34801561040057600080fd5b50600254610256906001600160a01b031681565b34801561042057600080fd5b50600054610256906001600160a01b031681565b34801561044057600080fd5b50610234610aa7565b34801561045557600080fd5b507f9016d09d72d40fdae2fd8ceac6b6234c7706214fd39c1cd1e609a0528c199300546001600160a01b0316610256565b34801561049257600080fd5b50600454610256906001600160a01b031681565b3480156104b257600080fd5b506104dc6040518060400160405280600a8152602001691058dd1a5d99541bdbdb60b21b81525081565b60405161026a9190611c6b565b3480156104f557600080fd5b506104dc604051806040016040528060058152602001640352e302e360dc1b81525081565b34801561052657600080fd5b50610234610535366004611c9e565b610bc8565b34801561054657600080fd5b50600154610256906001600160a01b031681565b34801561056657600080fd5b50600754610256906001600160a01b031681565b34801561058657600080fd5b5061033b610595366004611aee565b6001600160a01b031660009081526033602052604090205490565b3480156105bc57600080fd5b50600e54610256906001600160a01b031681565b3480156105dc57600080fd5b506010546105f190600160a01b900460ff1681565b604051901515815260200161026a565b34801561060d57600080fd5b50600b54610256906001600160a01b031681565b34801561062d57600080fd5b50600354610256906001600160a01b031681565b34801561064d57600080fd5b5061023461065c366004611b09565b611142565b34801561066d57600080fd5b50600f54610256906001600160a01b031681565b34801561068d57600080fd5b5061023461069c366004611aee565b6111f9565b3480156106ad57600080fd5b506102346106bc366004611b09565b611237565b3480156106cd57600080fd5b50600554610256906001600160a01b031681565b3480156106ed57600080fd5b506102346106fc366004611aee565b61129a565b34801561070d57600080fd5b50600854610256906001600160a01b031681565b6107296112a3565b600980546001600160a01b0319166001600160a01b0392909216919091179055565b6002546001600160a01b031633148061076e5750600c546001600160a01b031633145b806107835750600f546001600160a01b031633145b6107a85760405162461bcd60e51b815260040161079f90611d13565b60405180910390fd5b6001600160a01b0382166000908152603360205260408120546107cc908390611d7e565b6001600160a01b038416600081815260336020908152604091829020849055815192835282018390529192507fba3cba821ede632a9d6a3901362b7515d545b577b21c90002327f209f05afb4f91015b60405180910390a1505050565b6108316112fe565b6002546001600160a01b03163314806108545750600c546001600160a01b031633145b806108695750600f546001600160a01b031633145b8061087e57506010546001600160a01b031633145b61089a5760405162461bcd60e51b815260040161079f90611d13565b60006108a68483611348565b9050806000036108b657506109ff565b6001600160a01b0384166000908152603260205260408120546108da908490611d7e565b6001600160a01b0386166000818152603260205260409020829055909150610903908584611483565b61090c846114d5565b1561097457604051633ac5bc0160e21b81526001600160a01b0386811660048301526024820185905285169063eb16f00490604401600060405180830381600087803b15801561095b57600080fd5b505af115801561096f573d6000803e3d6000fd5b505050505b604080516001600160a01b0387168152602081018390527fd9d22224b27bb4fd824c68076d2a2f5ecbe57af6aadc3564516e4d14dd0930f9910160405180910390a1604080516001600160a01b038681168252602082018590528716917ff89c3306c782ffbbe4593aa5673e97e9ad6a8c65d240405e8986363fada66392910160405180910390a250505b610a2860017f9b779b17422d0df92223018b32b4d1fa46e071723d6817e2486d003becc55f0055565b505050565b610a35611542565b610a3e826115e7565b610a4882826115ef565b5050565b6000610a566116ac565b50600080516020611f9683398151915290565b610a716112a3565b600480546001600160a01b0319166001600160a01b0392909216919091179055565b610a9b6112a3565b610aa560006116f5565b565b7ff0c57e16840df040f15088dc2f81fe391c3923bec73e23a9662efc9c229c6a008054600160401b810460ff16159067ffffffffffffffff16600081158015610aed5750825b905060008267ffffffffffffffff166001148015610b0a5750303b155b905081158015610b18575080155b15610b365760405163f92ee8a960e01b815260040160405180910390fd5b845467ffffffffffffffff191660011785558315610b6057845460ff60401b1916600160401b1785555b33610b6a81611766565b610b72611777565b610b7a611787565b508315610bc157845460ff60401b19168555604051600181527fc7f505b2f371ae2175ee4913f4499e1f2633a7b5936321eed1cdaeb6115181d29060200160405180910390a15b5050505050565b610bd06112a3565b601054600160a01b900460ff1615610c2a5760405162461bcd60e51b815260206004820152601c60248201527f536574757020697320616c726561647920696e697469616c697a656400000000604482015260640161079f565b600f8114610c7a5760405162461bcd60e51b815260206004820152601e60248201527f4578706563746564203135206164647265737365732061742073657475700000604482015260640161079f565b60005b600f811015610cff576000838383818110610c9a57610c9a611d91565b9050602002016020810190610caf9190611aee565b6001600160a01b031603610cf75760405162461bcd60e51b815260206004820152600f60248201526e496e76616c6964206164647265737360881b604482015260640161079f565b600101610c7d565b5081816000818110610d1357610d13611d91565b9050602002016020810190610d289190611aee565b600080546001600160a01b0319166001600160a01b039290921691909117905581816001818110610d5b57610d5b611d91565b9050602002016020810190610d709190611aee565b600180546001600160a01b0319166001600160a01b039290921691909117905581816002818110610da357610da3611d91565b9050602002016020810190610db89190611aee565b600280546001600160a01b0319166001600160a01b039290921691909117905581816003818110610deb57610deb611d91565b9050602002016020810190610e009190611aee565b600380546001600160a01b0319166001600160a01b039290921691909117905581816004818110610e3357610e33611d91565b9050602002016020810190610e489190611aee565b600580546001600160a01b0319166001600160a01b039290921691909117815582908290818110610e7b57610e7b611d91565b9050602002016020810190610e909190611aee565b600680546001600160a01b0319166001600160a01b039290921691909117815582908290818110610ec357610ec3611d91565b9050602002016020810190610ed89190611aee565b600780546001600160a01b0319166001600160a01b039290921691909117815582908290818110610f0b57610f0b611d91565b9050602002016020810190610f209190611aee565b600880546001600160a01b0319166001600160a01b039290921691909117815582908290818110610f5357610f53611d91565b9050602002016020810190610f689190611aee565b600a80546001600160a01b0319166001600160a01b039290921691909117905581816009818110610f9b57610f9b611d91565b9050602002016020810190610fb09190611aee565b600b80546001600160a01b0319166001600160a01b03929092169190911790558181600a818110610fe357610fe3611d91565b9050602002016020810190610ff89190611aee565b600c80546001600160a01b0319166001600160a01b03929092169190911790558181600b81811061102b5761102b611d91565b90506020020160208101906110409190611aee565b600d80546001600160a01b0319166001600160a01b03929092169190911790558181600c81811061107357611073611d91565b90506020020160208101906110889190611aee565b600e80546001600160a01b0319166001600160a01b03929092169190911790558181600d8181106110bb576110bb611d91565b90506020020160208101906110d09190611aee565b600f80546001600160a01b0319166001600160a01b03929092169190911790558181600e81811061110357611103611d91565b90506020020160208101906111189190611aee565b601080546001600160a81b0319166001600160a01b039290921691909117600160a01b1790555050565b6002546001600160a01b031633148061116557506006546001600160a01b031633145b6111815760405162461bcd60e51b815260040161079f90611d13565b6001600160a01b0382166000908152603260205260408120546111a5908390611da7565b6001600160a01b038416600081815260326020908152604091829020849055815192835282018390529192507fd9d22224b27bb4fd824c68076d2a2f5ecbe57af6aadc3564516e4d14dd0930f9910161081c565b6112016112a3565b6001600160a01b03811661122b57604051631e4fbdf760e01b81526000600482015260240161079f565b611234816116f5565b50565b6002546001600160a01b031633148061125a5750600f546001600160a01b031633145b6112765760405162461bcd60e51b815260040161079f90611d13565b6001600160a01b0382166000908152603360205260408120546107cc908390611da7565b611234816115e7565b336112d57f9016d09d72d40fdae2fd8ceac6b6234c7706214fd39c1cd1e609a0528c199300546001600160a01b031690565b6001600160a01b031614610aa55760405163118cdaa760e01b815233600482015260240161079f565b7f9b779b17422d0df92223018b32b4d1fa46e071723d6817e2486d003becc55f0080546001190161134257604051633ee5aeb560e01b815260040160405180910390fd5b60029055565b60006001600160a01b03831661137157604051631dcb38eb60e11b815260040160405180910390fd5b816000036113815750600061147d565b6000836001600160a01b031663313ce5676040518163ffffffff1660e01b8152600401602060405180830381865afa1580156113c1573d6000803e3d6000fd5b505050506040513d601f19601f820116820180604052508101906113e59190611dba565b905060128160ff161015611448576000611400826012611ddd565b61140b90600a611eda565b90506114178185611eff565b1561143557604051630f51ac8560e31b815260040160405180910390fd5b61143f8185611f13565b9250505061147d565b60128160ff161115611478576000611461601283611ddd565b61146c90600a611eda565b905061143f8185611f27565b829150505b92915050565b604080516001600160a01b038416602482015260448082018490528251808303909101815260649091019091526020810180516001600160e01b031663a9059cbb60e01b179052610a2890849061178f565b6006546000906001600160a01b038381169116148061150157506003546001600160a01b038381169116145b8061147d575050600c546001600160a01b0390811691161490565b60017f9b779b17422d0df92223018b32b4d1fa46e071723d6817e2486d003becc55f0055565b306001600160a01b037f00000000000000000000000000000000000000000000000000000000000000001614806115c957507f00000000000000000000000000000000000000000000000000000000000000006001600160a01b03166115bd600080516020611f96833981519152546001600160a01b031690565b6001600160a01b031614155b15610aa55760405163703e46dd60e11b815260040160405180910390fd5b6112346112a3565b816001600160a01b03166352d1902d6040518163ffffffff1660e01b8152600401602060405180830381865afa925050508015611649575060408051601f3d908101601f1916820190925261164691810190611f3e565b60015b61167157604051634c9c8ce360e01b81526001600160a01b038316600482015260240161079f565b600080516020611f9683398151915281146116a257604051632a87526960e21b81526004810182905260240161079f565b610a2883836117f2565b306001600160a01b037f00000000000000000000000000000000000000000000000000000000000000001614610aa55760405163703e46dd60e11b815260040160405180910390fd5b7f9016d09d72d40fdae2fd8ceac6b6234c7706214fd39c1cd1e609a0528c19930080546001600160a01b031981166001600160a01b03848116918217845560405192169182907f8be0079c531659141344cd1fd0a4f28419497f9722a3daafe3b4186f6b6457e090600090a3505050565b61176e611848565b61123481611891565b61177f611848565b610aa5611899565b610aa5611848565b60006117a46001600160a01b038416836118a1565b905080516000141580156117c95750808060200190518101906117c79190611f57565b155b15610a2857604051635274afe760e01b81526001600160a01b038416600482015260240161079f565b6117fb826118b6565b6040516001600160a01b038316907fbc7cd75a20ee27fd9adebab32041f755214dbc6bffa90cc0225b39da2e5c2d3b90600090a280511561184057610a28828261191b565b610a48611991565b7ff0c57e16840df040f15088dc2f81fe391c3923bec73e23a9662efc9c229c6a0054600160401b900460ff16610aa557604051631afcd79f60e31b815260040160405180910390fd5b611201611848565b61151c611848565b60606118af838360006119b0565b9392505050565b806001600160a01b03163b6000036118ec57604051634c9c8ce360e01b81526001600160a01b038216600482015260240161079f565b600080516020611f9683398151915280546001600160a01b0319166001600160a01b0392909216919091179055565b6060600080846001600160a01b0316846040516119389190611f79565b600060405180830381855af49150503d8060008114611973576040519150601f19603f3d011682016040523d82523d6000602084013e611978565b606091505b5091509150611988858383611a4d565b95945050505050565b3415610aa55760405163b398979f60e01b815260040160405180910390fd5b6060814710156119d55760405163cd78605960e01b815230600482015260240161079f565b600080856001600160a01b031684866040516119f19190611f79565b60006040518083038185875af1925050503d8060008114611a2e576040519150601f19603f3d011682016040523d82523d6000602084013e611a33565b606091505b5091509150611a43868383611a4d565b9695505050505050565b606082611a6257611a5d82611aa9565b6118af565b8151158015611a7957506001600160a01b0384163b155b15611aa257604051639996b31560e01b81526001600160a01b038516600482015260240161079f565b50806118af565b805115611ab95780518082602001fd5b604051630a12f52160e11b815260040160405180910390fd5b80356001600160a01b0381168114611ae957600080fd5b919050565b600060208284031215611b0057600080fd5b6118af82611ad2565b60008060408385031215611b1c57600080fd5b611b2583611ad2565b946020939093013593505050565b600080600060608486031215611b4857600080fd5b611b5184611ad2565b9250611b5f60208501611ad2565b9150604084013590509250925092565b634e487b7160e01b600052604160045260246000fd5b60008060408385031215611b9857600080fd5b611ba183611ad2565b9150602083013567ffffffffffffffff80821115611bbe57600080fd5b818501915085601f830112611bd257600080fd5b813581811115611be457611be4611b6f565b604051601f8201601f19908116603f01168101908382118183101715611c0c57611c0c611b6f565b81604052828152886020848701011115611c2557600080fd5b8260208601602083013760006020848301015280955050505050509250929050565b60005b83811015611c62578181015183820152602001611c4a565b50506000910152565b6020815260008251806020840152611c8a816040850160208701611c47565b601f01601f19169190910160400192915050565b60008060208385031215611cb157600080fd5b823567ffffffffffffffff80821115611cc957600080fd5b818501915085601f830112611cdd57600080fd5b813581811115611cec57600080fd5b8660208260051b8501011115611d0157600080fd5b60209290920196919550909350505050565b60208082526035908201527f416374697665506f6f6c3a2043616c6c6572206973206e6f7420616e206175746040820152741a1bdc9a5e995908151c995b8818dbdb9d1c9858dd605a1b606082015260800190565b634e487b7160e01b600052601160045260246000fd5b8181038181111561147d5761147d611d68565b634e487b7160e01b600052603260045260246000fd5b8082018082111561147d5761147d611d68565b600060208284031215611dcc57600080fd5b815160ff811681146118af57600080fd5b60ff828116828216039081111561147d5761147d611d68565b600181815b80851115611e31578160001904821115611e1757611e17611d68565b80851615611e2457918102915b93841c9390800290611dfb565b509250929050565b600082611e485750600161147d565b81611e555750600061147d565b8160018114611e6b5760028114611e7557611e91565b600191505061147d565b60ff841115611e8657611e86611d68565b50506001821b61147d565b5060208310610133831016604e8410600b8410161715611eb4575081810a61147d565b611ebe8383611df6565b8060001904821115611ed257611ed2611d68565b029392505050565b60006118af60ff841683611e39565b634e487b7160e01b600052601260045260246000fd5b600082611f0e57611f0e611ee9565b500690565b600082611f2257611f22611ee9565b500490565b808202811582820484141761147d5761147d611d68565b600060208284031215611f5057600080fd5b5051919050565b600060208284031215611f6957600080fd5b815180151581146118af57600080fd5b60008251611f8b818460208701611c47565b919091019291505056fe360894a13ba1a3210667c828492db98dca3e2076cc3735a920a3ca505d382bbca164736f6c6343000817000a",
  "devdoc": {
    "errors": {
      "AddressEmptyCode(address)": [
        {
          "details": "There's no code at `target` (it is not a contract)."
        }
      ],
      "AddressInsufficientBalance(address)": [
        {
          "details": "The ETH balance of the account is not enough to perform the operation."
        }
      ],
      "ERC1967InvalidImplementation(address)": [
        {
          "details": "The `implementation` of the proxy is invalid."
        }
      ],
      "ERC1967NonPayable()": [
        {
          "details": "An upgrade function sees `msg.value > 0` that may be lost."
        }
      ],
      "FailedInnerCall()": [
        {
          "details": "A call to an address target failed. The target may have reverted."
        }
      ],
      "InvalidInitialization()": [
        {
          "details": "The contract is already initialized."
        }
      ],
      "NotInitializing()": [
        {
          "details": "The contract is not initializing."
        }
      ],
      "OwnableInvalidOwner(address)": [
        {
          "details": "The owner is not a valid owner account. (eg. `address(0)`)"
        }
      ],
      "OwnableUnauthorizedAccount(address)": [
        {
          "details": "The caller account is not authorized to perform an operation."
        }
      ],
      "ReentrancyGuardReentrantCall()": [
        {
          "details": "Unauthorized reentrant call."
        }
      ],
      "SafeERC20FailedOperation(address)": [
        {
          "details": "An operation with an ERC20 token failed."
        }
      ],
      "UUPSUnauthorizedCallContext()": [
        {
          "details": "The call is from an unauthorized context."
        }
      ],
      "UUPSUnsupportedProxiableUUID(bytes32)": [
        {
          "details": "The storage `slot` is unsupported as a UUID."
        }
      ]
    },
    "events": {
      "Initialized(uint64)": {
        "details": "Triggered when the contract has been initialized or reinitialized."
      },
      "Upgraded(address)": {
        "details": "Emitted when the implementation is upgraded."
      }
    },
    "kind": "dev",
    "methods": {
      "owner()": {
        "details": "Returns the address of the current owner."
      },
      "proxiableUUID()": {
        "details": "Implementation of the ERC1822 {proxiableUUID} function. This returns the storage slot used by the implementation. It is used to validate the implementation's compatibility when performing an upgrade. IMPORTANT: A proxy pointing at a proxiable contract should not be considered proxiable itself, because this risks bricking a proxy that upgrades to it, by delegating to itself until out of gas. Thus it is critical that this function revert if invoked through a proxy. This is guaranteed by the `notDelegated` modifier."
      },
      "renounceOwnership()": {
        "details": "Leaves the contract without owner. It will not be possible to call `onlyOwner` functions. Can only be called by the current owner. NOTE: Renouncing ownership will leave the contract without an owner, thereby disabling any functionality that is only available to the owner."
      },
      "transferOwnership(address)": {
        "details": "Transfers ownership of the contract to a new account (`newOwner`). Can only be called by the current owner."
      },
      "upgradeToAndCall(address,bytes)": {
        "custom:oz-upgrades-unsafe-allow-reachable": "delegatecall",
        "details": "Upgrade the implementation of the proxy to `newImplementation`, and subsequently execute the function call encoded in `data`. Calls {_authorizeUpgrade}. Emits an {Upgraded} event."
      }
    },
    "version": 1
  },
  "userdoc": {
    "kind": "user",
    "methods": {},
    "version": 1
  },
  "storageLayout": {
    "storage": [
      {
        "astId": 9891,
        "contract": "contracts/ActivePool.sol:ActivePool",
        "label": "activePool",
        "offset": 0,
        "slot": "0",
        "type": "t_address"
      },
      {
        "astId": 9893,
        "contract": "contracts/ActivePool.sol:ActivePool",
        "label": "adminContract",
        "offset": 0,
        "slot": "1",
        "type": "t_address"
      },
      {
        "astId": 9895,
        "contract": "contracts/ActivePool.sol:ActivePool",
        "label": "borrowerOperations",
        "offset": 0,
        "slot": "2",
        "type": "t_address"
      },
      {
        "astId": 9897,
        "contract": "contracts/ActivePool.sol:ActivePool",
        "label": "collSurplusPool",
        "offset": 0,
        "slot": "3",
        "type": "t_address"
      },
      {
        "astId": 9899,
        "contract": "contracts/ActivePool.sol:ActivePool",
        "label": "communityIssuance",
        "offset": 0,
        "slot": "4",
        "type": "t_address"
      },
      {
        "astId": 9901,
        "contract": "contracts/ActivePool.sol:ActivePool",
        "label": "debtToken",
        "offset": 0,
        "slot": "5",
        "type": "t_address"
      },
      {
        "astId": 9903,
        "contract": "contracts/ActivePool.sol:ActivePool",
        "label": "defaultPool",
        "offset": 0,
        "slot": "6",
        "type": "t_address"
      },
      {
        "astId": 9905,
        "contract": "contracts/ActivePool.sol:ActivePool",
        "label": "feeCollector",
        "offset": 0,
        "slot": "7",
        "type": "t_address"
      },
      {
        "astId": 9907,
        "contract": "contracts/ActivePool.sol:ActivePool",
        "label": "gasPoolAddress",
        "offset": 0,
        "slot": "8",
        "type": "t_address"
      },
      {
        "astId": 9909,
        "contract": "contracts/ActivePool.sol:ActivePool",
        "label": "trenStaking",
        "offset": 0,
        "slot": "9",
        "type": "t_address"
      },
      {
        "astId": 9911,
        "contract": "contracts/ActivePool.sol:ActivePool",
        "label": "priceFeed",
        "offset": 0,
        "slot": "10",
        "type": "t_address"
      },
      {
        "astId": 9913,
        "contract": "contracts/ActivePool.sol:ActivePool",
        "label": "sortedTrenBoxes",
        "offset": 0,
        "slot": "11",
        "type": "t_address"
      },
      {
        "astId": 9915,
        "contract": "contracts/ActivePool.sol:ActivePool",
        "label": "stabilityPool",
        "offset": 0,
        "slot": "12",
        "type": "t_address"
      },
      {
        "astId": 9917,
        "contract": "contracts/ActivePool.sol:ActivePool",
        "label": "timelockAddress",
        "offset": 0,
        "slot": "13",
        "type": "t_address"
      },
      {
        "astId": 9919,
        "contract": "contracts/ActivePool.sol:ActivePool",
        "label": "treasuryAddress",
        "offset": 0,
        "slot": "14",
        "type": "t_address"
      },
      {
        "astId": 9921,
        "contract": "contracts/ActivePool.sol:ActivePool",
        "label": "trenBoxManager",
        "offset": 0,
        "slot": "15",
        "type": "t_address"
      },
      {
        "astId": 9923,
        "contract": "contracts/ActivePool.sol:ActivePool",
        "label": "trenBoxManagerOperations",
        "offset": 0,
        "slot": "16",
        "type": "t_address"
      },
      {
        "astId": 9925,
        "contract": "contracts/ActivePool.sol:ActivePool",
        "label": "isAddressSetupInitialized",
        "offset": 20,
        "slot": "16",
        "type": "t_bool"
      },
      {
        "astId": 9930,
        "contract": "contracts/ActivePool.sol:ActivePool",
        "label": "__gap",
        "offset": 0,
        "slot": "17",
        "type": "t_array(t_uint256)33_storage"
      },
      {
        "astId": 5540,
        "contract": "contracts/ActivePool.sol:ActivePool",
        "label": "assetsBalances",
        "offset": 0,
        "slot": "50",
        "type": "t_mapping(t_address,t_uint256)"
      },
      {
        "astId": 5544,
        "contract": "contracts/ActivePool.sol:ActivePool",
        "label": "debtTokenBalances",
        "offset": 0,
        "slot": "51",
        "type": "t_mapping(t_address,t_uint256)"
      }
    ],
    "types": {
      "t_address": {
        "encoding": "inplace",
        "label": "address",
        "numberOfBytes": "20"
      },
      "t_array(t_uint256)33_storage": {
        "base": "t_uint256",
        "encoding": "inplace",
        "label": "uint256[33]",
        "numberOfBytes": "1056"
      },
      "t_bool": {
        "encoding": "inplace",
        "label": "bool",
        "numberOfBytes": "1"
      },
      "t_mapping(t_address,t_uint256)": {
        "encoding": "mapping",
        "key": "t_address",
        "label": "mapping(address => uint256)",
        "numberOfBytes": "32",
        "value": "t_uint256"
      },
      "t_uint256": {
        "encoding": "inplace",
        "label": "uint256",
        "numberOfBytes": "32"
      }
    }
  }
}