{
  "address": "0x5640fc24a04b12aF6E14AfD0D9f8Ed0DA7A98E54",
  "abi": [
    {
      "inputs": [
        {
          "internalType": "address",
          "name": "target",
          "type": "address"
        }
      ],
      "name": "AddressEmptyCode",
      "type": "error"
    },
    {
      "inputs": [],
      "name": "AdminContract__CollateralAlreadyInitialized",
      "type": "error"
    },
    {
      "inputs": [],
      "name": "AdminContract__CollateralDoesNotExist",
      "type": "error"
    },
    {
      "inputs": [],
      "name": "AdminContract__CollateralExists",
      "type": "error"
    },
    {
      "inputs": [],
      "name": "AdminContract__CollateralNotConfigured",
      "type": "error"
    },
    {
      "inputs": [],
      "name": "AdminContract__OnlyOwner",
      "type": "error"
    },
    {
      "inputs": [],
      "name": "AdminContract__OnlyTimelock",
      "type": "error"
    },
    {
      "inputs": [],
      "name": "ConfigurableAddresses__CommunityIssuanceZeroAddress",
      "type": "error"
    },
    {
      "inputs": [],
      "name": "ConfigurableAddresses__LengthMismatch",
      "type": "error"
    },
    {
      "inputs": [],
      "name": "ConfigurableAddresses__SetupIsInitialized",
      "type": "error"
    },
    {
      "inputs": [],
      "name": "ConfigurableAddresses__TRENStakingZeroAddress",
      "type": "error"
    },
    {
      "inputs": [
        {
          "internalType": "uint256",
          "name": "position",
          "type": "uint256"
        },
        {
          "internalType": "address",
          "name": "address_",
          "type": "address"
        }
      ],
      "name": "ConfigurableAddresses__ZeroAddresses",
      "type": "error"
    },
    {
      "inputs": [
        {
          "internalType": "address",
          "name": "implementation",
          "type": "address"
        }
      ],
      "name": "ERC1967InvalidImplementation",
      "type": "error"
    },
    {
      "inputs": [],
      "name": "ERC1967NonPayable",
      "type": "error"
    },
    {
      "inputs": [],
      "name": "FailedInnerCall",
      "type": "error"
    },
    {
      "inputs": [],
      "name": "InvalidInitialization",
      "type": "error"
    },
    {
      "inputs": [],
      "name": "NotInitializing",
      "type": "error"
    },
    {
      "inputs": [
        {
          "internalType": "address",
          "name": "owner",
          "type": "address"
        }
      ],
      "name": "OwnableInvalidOwner",
      "type": "error"
    },
    {
      "inputs": [
        {
          "internalType": "address",
          "name": "account",
          "type": "address"
        }
      ],
      "name": "OwnableUnauthorizedAccount",
      "type": "error"
    },
    {
      "inputs": [
        {
          "internalType": "string",
          "name": "parameter",
          "type": "string"
        },
        {
          "internalType": "uint256",
          "name": "valueEntered",
          "type": "uint256"
        },
        {
          "internalType": "uint256",
          "name": "minValue",
          "type": "uint256"
        },
        {
          "internalType": "uint256",
          "name": "maxValue",
          "type": "uint256"
        }
      ],
      "name": "SafeCheckError",
      "type": "error"
    },
    {
      "inputs": [],
      "name": "UUPSUnauthorizedCallContext",
      "type": "error"
    },
    {
      "inputs": [
        {
          "internalType": "bytes32",
          "name": "slot",
          "type": "bytes32"
        }
      ],
      "name": "UUPSUnsupportedProxiableUUID",
      "type": "error"
    },
    {
      "anonymous": false,
      "inputs": [
        {
          "indexed": false,
          "internalType": "uint256",
          "name": "oldBorrowingFee",
          "type": "uint256"
        },
        {
          "indexed": false,
          "internalType": "uint256",
          "name": "newBorrowingFee",
          "type": "uint256"
        }
      ],
      "name": "BorrowingFeeChanged",
      "type": "event"
    },
    {
      "anonymous": false,
      "inputs": [
        {
          "indexed": false,
          "internalType": "uint256",
          "name": "oldCCR",
          "type": "uint256"
        },
        {
          "indexed": false,
          "internalType": "uint256",
          "name": "newCCR",
          "type": "uint256"
        }
      ],
      "name": "CCRChanged",
      "type": "event"
    },
    {
      "anonymous": false,
      "inputs": [
        {
          "indexed": false,
          "internalType": "address",
          "name": "_collateral",
          "type": "address"
        }
      ],
      "name": "CollateralAdded",
      "type": "event"
    },
    {
      "anonymous": false,
      "inputs": [
        {
          "indexed": false,
          "internalType": "uint256",
          "name": "oldFee",
          "type": "uint256"
        },
        {
          "indexed": false,
          "internalType": "uint256",
          "name": "newFee",
          "type": "uint256"
        }
      ],
      "name": "FlashLoanFeeChanged",
      "type": "event"
    },
    {
      "anonymous": false,
      "inputs": [
        {
          "indexed": false,
          "internalType": "uint256",
          "name": "oldMaxDebt",
          "type": "uint256"
        },
        {
          "indexed": false,
          "internalType": "uint256",
          "name": "newMaxDebt",
          "type": "uint256"
        }
      ],
      "name": "FlashLoanMaxDebtChanged",
      "type": "event"
    },
    {
      "anonymous": false,
      "inputs": [
        {
          "indexed": false,
          "internalType": "uint256",
          "name": "oldMinDebt",
          "type": "uint256"
        },
        {
          "indexed": false,
          "internalType": "uint256",
          "name": "newMinDebt",
          "type": "uint256"
        }
      ],
      "name": "FlashLoanMinDebtChanged",
      "type": "event"
    },
    {
      "anonymous": false,
      "inputs": [
        {
          "indexed": false,
          "internalType": "uint64",
          "name": "version",
          "type": "uint64"
        }
      ],
      "name": "Initialized",
      "type": "event"
    },
    {
      "anonymous": false,
      "inputs": [
        {
          "indexed": false,
          "internalType": "uint256",
          "name": "oldMCR",
          "type": "uint256"
        },
        {
          "indexed": false,
          "internalType": "uint256",
          "name": "newMCR",
          "type": "uint256"
        }
      ],
      "name": "MCRChanged",
      "type": "event"
    },
    {
      "anonymous": false,
      "inputs": [
        {
          "indexed": false,
          "internalType": "uint256",
          "name": "oldMinNet",
          "type": "uint256"
        },
        {
          "indexed": false,
          "internalType": "uint256",
          "name": "newMinNet",
          "type": "uint256"
        }
      ],
      "name": "MinNetDebtChanged",
      "type": "event"
    },
    {
      "anonymous": false,
      "inputs": [
        {
          "indexed": false,
          "internalType": "uint256",
          "name": "oldMintCap",
          "type": "uint256"
        },
        {
          "indexed": false,
          "internalType": "uint256",
          "name": "newMintCap",
          "type": "uint256"
        }
      ],
      "name": "MintCapChanged",
      "type": "event"
    },
    {
      "anonymous": false,
      "inputs": [
        {
          "indexed": true,
          "internalType": "address",
          "name": "previousOwner",
          "type": "address"
        },
        {
          "indexed": true,
          "internalType": "address",
          "name": "newOwner",
          "type": "address"
        }
      ],
      "name": "OwnershipTransferred",
      "type": "event"
    },
    {
      "anonymous": false,
      "inputs": [
        {
          "indexed": false,
          "internalType": "uint256",
          "name": "oldPercentDiv",
          "type": "uint256"
        },
        {
          "indexed": false,
          "internalType": "uint256",
          "name": "newPercentDiv",
          "type": "uint256"
        }
      ],
      "name": "PercentDivisorChanged",
      "type": "event"
    },
    {
      "anonymous": false,
      "inputs": [
        {
          "indexed": false,
          "internalType": "address",
          "name": "_collateral",
          "type": "address"
        },
        {
          "indexed": false,
          "internalType": "uint256",
          "name": "_blockTimestamp",
          "type": "uint256"
        }
      ],
      "name": "RedemptionBlockTimestampChanged",
      "type": "event"
    },
    {
      "anonymous": false,
      "inputs": [
        {
          "indexed": false,
          "internalType": "uint256",
          "name": "oldRedemptionFeeFloor",
          "type": "uint256"
        },
        {
          "indexed": false,
          "internalType": "uint256",
          "name": "newRedemptionFeeFloor",
          "type": "uint256"
        }
      ],
      "name": "RedemptionFeeFloorChanged",
      "type": "event"
    },
    {
      "anonymous": false,
      "inputs": [
        {
          "indexed": true,
          "internalType": "address",
          "name": "implementation",
          "type": "address"
        }
      ],
      "name": "Upgraded",
      "type": "event"
    },
    {
      "inputs": [],
      "name": "BORROWING_FEE_DEFAULT",
      "outputs": [
        {
          "internalType": "uint256",
          "name": "",
          "type": "uint256"
        }
      ],
      "stateMutability": "view",
      "type": "function"
    },
    {
      "inputs": [],
      "name": "CCR_DEFAULT",
      "outputs": [
        {
          "internalType": "uint256",
          "name": "",
          "type": "uint256"
        }
      ],
      "stateMutability": "view",
      "type": "function"
    },
    {
      "inputs": [],
      "name": "DECIMAL_PRECISION",
      "outputs": [
        {
          "internalType": "uint256",
          "name": "",
          "type": "uint256"
        }
      ],
      "stateMutability": "pure",
      "type": "function"
    },
    {
      "inputs": [],
      "name": "MCR_DEFAULT",
      "outputs": [
        {
          "internalType": "uint256",
          "name": "",
          "type": "uint256"
        }
      ],
      "stateMutability": "view",
      "type": "function"
    },
    {
      "inputs": [],
      "name": "MINT_CAP_DEFAULT",
      "outputs": [
        {
          "internalType": "uint256",
          "name": "",
          "type": "uint256"
        }
      ],
      "stateMutability": "view",
      "type": "function"
    },
    {
      "inputs": [],
      "name": "MIN_NET_DEBT_DEFAULT",
      "outputs": [
        {
          "internalType": "uint256",
          "name": "",
          "type": "uint256"
        }
      ],
      "stateMutability": "view",
      "type": "function"
    },
    {
      "inputs": [],
      "name": "NAME",
      "outputs": [
        {
          "internalType": "string",
          "name": "",
          "type": "string"
        }
      ],
      "stateMutability": "view",
      "type": "function"
    },
    {
      "inputs": [],
      "name": "PERCENT_DIVISOR_DEFAULT",
      "outputs": [
        {
          "internalType": "uint256",
          "name": "",
          "type": "uint256"
        }
      ],
      "stateMutability": "view",
      "type": "function"
    },
    {
      "inputs": [],
      "name": "REDEMPTION_BLOCK_TIMESTAMP_DEFAULT",
      "outputs": [
        {
          "internalType": "uint256",
          "name": "",
          "type": "uint256"
        }
      ],
      "stateMutability": "view",
      "type": "function"
    },
    {
      "inputs": [],
      "name": "REDEMPTION_FEE_FLOOR_DEFAULT",
      "outputs": [
        {
          "internalType": "uint256",
          "name": "",
          "type": "uint256"
        }
      ],
      "stateMutability": "view",
      "type": "function"
    },
    {
      "inputs": [],
      "name": "UPGRADE_INTERFACE_VERSION",
      "outputs": [
        {
          "internalType": "string",
          "name": "",
          "type": "string"
        }
      ],
      "stateMutability": "view",
      "type": "function"
    },
    {
      "inputs": [],
      "name": "_100pct",
      "outputs": [
        {
          "internalType": "uint256",
          "name": "",
          "type": "uint256"
        }
      ],
      "stateMutability": "view",
      "type": "function"
    },
    {
      "inputs": [],
      "name": "activePool",
      "outputs": [
        {
          "internalType": "address",
          "name": "",
          "type": "address"
        }
      ],
      "stateMutability": "view",
      "type": "function"
    },
    {
      "inputs": [
        {
          "internalType": "address",
          "name": "_collateral",
          "type": "address"
        },
        {
          "internalType": "uint256",
          "name": "_debtTokenGasCompensation",
          "type": "uint256"
        },
        {
          "internalType": "uint256",
          "name": "_decimals",
          "type": "uint256"
        }
      ],
      "name": "addNewCollateral",
      "outputs": [],
      "stateMutability": "nonpayable",
      "type": "function"
    },
    {
      "inputs": [],
      "name": "adminContract",
      "outputs": [
        {
          "internalType": "address",
          "name": "",
          "type": "address"
        }
      ],
      "stateMutability": "view",
      "type": "function"
    },
    {
      "inputs": [
        {
          "internalType": "address",
          "name": "newImplementation",
          "type": "address"
        }
      ],
      "name": "authorizeUpgrade",
      "outputs": [],
      "stateMutability": "nonpayable",
      "type": "function"
    },
    {
      "inputs": [],
      "name": "borrowerOperations",
      "outputs": [
        {
          "internalType": "address",
          "name": "",
          "type": "address"
        }
      ],
      "stateMutability": "view",
      "type": "function"
    },
    {
      "inputs": [],
      "name": "collSurplusPool",
      "outputs": [
        {
          "internalType": "address",
          "name": "",
          "type": "address"
        }
      ],
      "stateMutability": "view",
      "type": "function"
    },
    {
      "inputs": [],
      "name": "communityIssuance",
      "outputs": [
        {
          "internalType": "address",
          "name": "",
          "type": "address"
        }
      ],
      "stateMutability": "view",
      "type": "function"
    },
    {
      "inputs": [],
      "name": "debtToken",
      "outputs": [
        {
          "internalType": "address",
          "name": "",
          "type": "address"
        }
      ],
      "stateMutability": "view",
      "type": "function"
    },
    {
      "inputs": [],
      "name": "defaultPool",
      "outputs": [
        {
          "internalType": "address",
          "name": "",
          "type": "address"
        }
      ],
      "stateMutability": "view",
      "type": "function"
    },
    {
      "inputs": [],
      "name": "feeCollector",
      "outputs": [
        {
          "internalType": "address",
          "name": "",
          "type": "address"
        }
      ],
      "stateMutability": "view",
      "type": "function"
    },
    {
      "inputs": [],
      "name": "flashLoanAddress",
      "outputs": [
        {
          "internalType": "address",
          "name": "",
          "type": "address"
        }
      ],
      "stateMutability": "view",
      "type": "function"
    },
    {
      "inputs": [],
      "name": "flashLoanParams",
      "outputs": [
        {
          "internalType": "uint256",
          "name": "flashLoanFee",
          "type": "uint256"
        },
        {
          "internalType": "uint256",
          "name": "flashLoanMinDebt",
          "type": "uint256"
        },
        {
          "internalType": "uint256",
          "name": "flashLoanMaxDebt",
          "type": "uint256"
        }
      ],
      "stateMutability": "view",
      "type": "function"
    },
    {
      "inputs": [],
      "name": "gasPoolAddress",
      "outputs": [
        {
          "internalType": "address",
          "name": "",
          "type": "address"
        }
      ],
      "stateMutability": "view",
      "type": "function"
    },
    {
      "inputs": [
        {
          "internalType": "address",
          "name": "_collateral",
          "type": "address"
        }
      ],
      "name": "getBorrowingFee",
      "outputs": [
        {
          "internalType": "uint256",
          "name": "",
          "type": "uint256"
        }
      ],
      "stateMutability": "view",
      "type": "function"
    },
    {
      "inputs": [
        {
          "internalType": "address",
          "name": "_collateral",
          "type": "address"
        }
      ],
      "name": "getCcr",
      "outputs": [
        {
          "internalType": "uint256",
          "name": "",
          "type": "uint256"
        }
      ],
      "stateMutability": "view",
      "type": "function"
    },
    {
      "inputs": [
        {
          "internalType": "address",
          "name": "_collateral",
          "type": "address"
        }
      ],
      "name": "getDebtTokenGasCompensation",
      "outputs": [
        {
          "internalType": "uint256",
          "name": "",
          "type": "uint256"
        }
      ],
      "stateMutability": "view",
      "type": "function"
    },
    {
      "inputs": [
        {
          "internalType": "address",
          "name": "_collateral",
          "type": "address"
        }
      ],
      "name": "getDecimals",
      "outputs": [
        {
          "internalType": "uint256",
          "name": "",
          "type": "uint256"
        }
      ],
      "stateMutability": "view",
      "type": "function"
    },
    {
      "inputs": [],
      "name": "getFlashLoanFee",
      "outputs": [
        {
          "internalType": "uint256",
          "name": "",
          "type": "uint256"
        }
      ],
      "stateMutability": "view",
      "type": "function"
    },
    {
      "inputs": [],
      "name": "getFlashLoanMaxNetDebt",
      "outputs": [
        {
          "internalType": "uint256",
          "name": "",
          "type": "uint256"
        }
      ],
      "stateMutability": "view",
      "type": "function"
    },
    {
      "inputs": [],
      "name": "getFlashLoanMinNetDebt",
      "outputs": [
        {
          "internalType": "uint256",
          "name": "",
          "type": "uint256"
        }
      ],
      "stateMutability": "view",
      "type": "function"
    },
    {
      "inputs": [
        {
          "internalType": "address",
          "name": "_collateral",
          "type": "address"
        }
      ],
      "name": "getIndex",
      "outputs": [
        {
          "internalType": "uint256",
          "name": "",
          "type": "uint256"
        }
      ],
      "stateMutability": "view",
      "type": "function"
    },
    {
      "inputs": [
        {
          "internalType": "address[]",
          "name": "_colls",
          "type": "address[]"
        }
      ],
      "name": "getIndices",
      "outputs": [
        {
          "internalType": "uint256[]",
          "name": "indices",
          "type": "uint256[]"
        }
      ],
      "stateMutability": "view",
      "type": "function"
    },
    {
      "inputs": [
        {
          "internalType": "address",
          "name": "_collateral",
          "type": "address"
        }
      ],
      "name": "getIsActive",
      "outputs": [
        {
          "internalType": "bool",
          "name": "",
          "type": "bool"
        }
      ],
      "stateMutability": "view",
      "type": "function"
    },
    {
      "inputs": [
        {
          "internalType": "address",
          "name": "_collateral",
          "type": "address"
        }
      ],
      "name": "getMcr",
      "outputs": [
        {
          "internalType": "uint256",
          "name": "",
          "type": "uint256"
        }
      ],
      "stateMutability": "view",
      "type": "function"
    },
    {
      "inputs": [
        {
          "internalType": "address",
          "name": "_collateral",
          "type": "address"
        }
      ],
      "name": "getMinNetDebt",
      "outputs": [
        {
          "internalType": "uint256",
          "name": "",
          "type": "uint256"
        }
      ],
      "stateMutability": "view",
      "type": "function"
    },
    {
      "inputs": [
        {
          "internalType": "address",
          "name": "_collateral",
          "type": "address"
        }
      ],
      "name": "getMintCap",
      "outputs": [
        {
          "internalType": "uint256",
          "name": "",
          "type": "uint256"
        }
      ],
      "stateMutability": "view",
      "type": "function"
    },
    {
      "inputs": [
        {
          "internalType": "address",
          "name": "_collateral",
          "type": "address"
        }
      ],
      "name": "getPercentDivisor",
      "outputs": [
        {
          "internalType": "uint256",
          "name": "",
          "type": "uint256"
        }
      ],
      "stateMutability": "view",
      "type": "function"
    },
    {
      "inputs": [
        {
          "internalType": "address",
          "name": "_collateral",
          "type": "address"
        }
      ],
      "name": "getRedemptionBlockTimestamp",
      "outputs": [
        {
          "internalType": "uint256",
          "name": "",
          "type": "uint256"
        }
      ],
      "stateMutability": "view",
      "type": "function"
    },
    {
      "inputs": [
        {
          "internalType": "address",
          "name": "_collateral",
          "type": "address"
        }
      ],
      "name": "getRedemptionFeeFloor",
      "outputs": [
        {
          "internalType": "uint256",
          "name": "",
          "type": "uint256"
        }
      ],
      "stateMutability": "view",
      "type": "function"
    },
    {
      "inputs": [
        {
          "internalType": "address",
          "name": "_asset",
          "type": "address"
        }
      ],
      "name": "getTotalAssetDebt",
      "outputs": [
        {
          "internalType": "uint256",
          "name": "",
          "type": "uint256"
        }
      ],
      "stateMutability": "view",
      "type": "function"
    },
    {
      "inputs": [],
      "name": "getValidCollateral",
      "outputs": [
        {
          "internalType": "address[]",
          "name": "",
          "type": "address[]"
        }
      ],
      "stateMutability": "view",
      "type": "function"
    },
    {
      "inputs": [],
      "name": "initialize",
      "outputs": [],
      "stateMutability": "nonpayable",
      "type": "function"
    },
    {
      "inputs": [],
      "name": "isAddressSetupInitialized",
      "outputs": [
        {
          "internalType": "bool",
          "name": "",
          "type": "bool"
        }
      ],
      "stateMutability": "view",
      "type": "function"
    },
    {
      "inputs": [],
      "name": "isSetupInitialized",
      "outputs": [
        {
          "internalType": "bool",
          "name": "",
          "type": "bool"
        }
      ],
      "stateMutability": "view",
      "type": "function"
    },
    {
      "inputs": [],
      "name": "owner",
      "outputs": [
        {
          "internalType": "address",
          "name": "",
          "type": "address"
        }
      ],
      "stateMutability": "view",
      "type": "function"
    },
    {
      "inputs": [],
      "name": "priceFeed",
      "outputs": [
        {
          "internalType": "address",
          "name": "",
          "type": "address"
        }
      ],
      "stateMutability": "view",
      "type": "function"
    },
    {
      "inputs": [],
      "name": "proxiableUUID",
      "outputs": [
        {
          "internalType": "bytes32",
          "name": "",
          "type": "bytes32"
        }
      ],
      "stateMutability": "view",
      "type": "function"
    },
    {
      "inputs": [],
      "name": "renounceOwnership",
      "outputs": [],
      "stateMutability": "nonpayable",
      "type": "function"
    },
    {
      "inputs": [
        {
          "internalType": "address[]",
          "name": "_addresses",
          "type": "address[]"
        }
      ],
      "name": "setAddresses",
      "outputs": [],
      "stateMutability": "nonpayable",
      "type": "function"
    },
    {
      "inputs": [
        {
          "internalType": "address",
          "name": "_collateral",
          "type": "address"
        },
        {
          "internalType": "uint256",
          "name": "borrowingFee",
          "type": "uint256"
        }
      ],
      "name": "setBorrowingFee",
      "outputs": [],
      "stateMutability": "nonpayable",
      "type": "function"
    },
    {
      "inputs": [
        {
          "internalType": "address",
          "name": "_collateral",
          "type": "address"
        },
        {
          "internalType": "uint256",
          "name": "newCCR",
          "type": "uint256"
        }
      ],
      "name": "setCCR",
      "outputs": [],
      "stateMutability": "nonpayable",
      "type": "function"
    },
    {
      "inputs": [
        {
          "internalType": "address",
          "name": "_collateral",
          "type": "address"
        },
        {
          "internalType": "uint256",
          "name": "borrowingFee",
          "type": "uint256"
        },
        {
          "internalType": "uint256",
          "name": "ccr",
          "type": "uint256"
        },
        {
          "internalType": "uint256",
          "name": "mcr",
          "type": "uint256"
        },
        {
          "internalType": "uint256",
          "name": "minNetDebt",
          "type": "uint256"
        },
        {
          "internalType": "uint256",
          "name": "mintCap",
          "type": "uint256"
        },
        {
          "internalType": "uint256",
          "name": "percentDivisor",
          "type": "uint256"
        },
        {
          "internalType": "uint256",
          "name": "redemptionFeeFloor",
          "type": "uint256"
        }
      ],
      "name": "setCollateralParameters",
      "outputs": [],
      "stateMutability": "nonpayable",
      "type": "function"
    },
    {
      "inputs": [
        {
          "internalType": "address",
          "name": "_communityIssuance",
          "type": "address"
        }
      ],
      "name": "setCommunityIssuance",
      "outputs": [],
      "stateMutability": "nonpayable",
      "type": "function"
    },
    {
      "inputs": [
        {
          "internalType": "uint256",
          "name": "_flashLoanFee",
          "type": "uint256"
        }
      ],
      "name": "setFeeForFlashLoan",
      "outputs": [],
      "stateMutability": "nonpayable",
      "type": "function"
    },
    {
      "inputs": [
        {
          "internalType": "address",
          "name": "_collateral",
          "type": "address"
        },
        {
          "internalType": "bool",
          "name": "_active",
          "type": "bool"
        }
      ],
      "name": "setIsActive",
      "outputs": [],
      "stateMutability": "nonpayable",
      "type": "function"
    },
    {
      "inputs": [
        {
          "internalType": "address",
          "name": "_collateral",
          "type": "address"
        },
        {
          "internalType": "uint256",
          "name": "newMCR",
          "type": "uint256"
        }
      ],
      "name": "setMCR",
      "outputs": [],
      "stateMutability": "nonpayable",
      "type": "function"
    },
    {
      "inputs": [
        {
          "internalType": "uint256",
          "name": "_flashLoanMaxDebt",
          "type": "uint256"
        }
      ],
      "name": "setMaxDebtForFlashLoan",
      "outputs": [],
      "stateMutability": "nonpayable",
      "type": "function"
    },
    {
      "inputs": [
        {
          "internalType": "uint256",
          "name": "_flashLoanMinDebt",
          "type": "uint256"
        }
      ],
      "name": "setMinDebtForFlashLoan",
      "outputs": [],
      "stateMutability": "nonpayable",
      "type": "function"
    },
    {
      "inputs": [
        {
          "internalType": "address",
          "name": "_collateral",
          "type": "address"
        },
        {
          "internalType": "uint256",
          "name": "minNetDebt",
          "type": "uint256"
        }
      ],
      "name": "setMinNetDebt",
      "outputs": [],
      "stateMutability": "nonpayable",
      "type": "function"
    },
    {
      "inputs": [
        {
          "internalType": "address",
          "name": "_collateral",
          "type": "address"
        },
        {
          "internalType": "uint256",
          "name": "mintCap",
          "type": "uint256"
        }
      ],
      "name": "setMintCap",
      "outputs": [],
      "stateMutability": "nonpayable",
      "type": "function"
    },
    {
      "inputs": [
        {
          "internalType": "address",
          "name": "_collateral",
          "type": "address"
        },
        {
          "internalType": "uint256",
          "name": "percentDivisor",
          "type": "uint256"
        }
      ],
      "name": "setPercentDivisor",
      "outputs": [],
      "stateMutability": "nonpayable",
      "type": "function"
    },
    {
      "inputs": [
        {
          "internalType": "address",
          "name": "_collateral",
          "type": "address"
        },
        {
          "internalType": "uint256",
          "name": "_blockTimestamp",
          "type": "uint256"
        }
      ],
      "name": "setRedemptionBlockTimestamp",
      "outputs": [],
      "stateMutability": "nonpayable",
      "type": "function"
    },
    {
      "inputs": [
        {
          "internalType": "address",
          "name": "_collateral",
          "type": "address"
        },
        {
          "internalType": "uint256",
          "name": "redemptionFeeFloor",
          "type": "uint256"
        }
      ],
      "name": "setRedemptionFeeFloor",
      "outputs": [],
      "stateMutability": "nonpayable",
      "type": "function"
    },
    {
      "inputs": [],
      "name": "setSetupIsInitialized",
      "outputs": [],
      "stateMutability": "nonpayable",
      "type": "function"
    },
    {
      "inputs": [
        {
          "internalType": "address",
          "name": "_trenStaking",
          "type": "address"
        }
      ],
      "name": "setTRENStaking",
      "outputs": [],
      "stateMutability": "nonpayable",
      "type": "function"
    },
    {
      "inputs": [],
      "name": "sortedTrenBoxes",
      "outputs": [
        {
          "internalType": "address",
          "name": "",
          "type": "address"
        }
      ],
      "stateMutability": "view",
      "type": "function"
    },
    {
      "inputs": [],
      "name": "stabilityPool",
      "outputs": [
        {
          "internalType": "address",
          "name": "",
          "type": "address"
        }
      ],
      "stateMutability": "view",
      "type": "function"
    },
    {
      "inputs": [],
      "name": "timelockAddress",
      "outputs": [
        {
          "internalType": "address",
          "name": "",
          "type": "address"
        }
      ],
      "stateMutability": "view",
      "type": "function"
    },
    {
      "inputs": [
        {
          "internalType": "address",
          "name": "newOwner",
          "type": "address"
        }
      ],
      "name": "transferOwnership",
      "outputs": [],
      "stateMutability": "nonpayable",
      "type": "function"
    },
    {
      "inputs": [],
      "name": "treasuryAddress",
      "outputs": [
        {
          "internalType": "address",
          "name": "",
          "type": "address"
        }
      ],
      "stateMutability": "view",
      "type": "function"
    },
    {
      "inputs": [],
      "name": "trenBoxManager",
      "outputs": [
        {
          "internalType": "address",
          "name": "",
          "type": "address"
        }
      ],
      "stateMutability": "view",
      "type": "function"
    },
    {
      "inputs": [],
      "name": "trenBoxManagerOperations",
      "outputs": [
        {
          "internalType": "address",
          "name": "",
          "type": "address"
        }
      ],
      "stateMutability": "view",
      "type": "function"
    },
    {
      "inputs": [],
      "name": "trenStaking",
      "outputs": [
        {
          "internalType": "address",
          "name": "",
          "type": "address"
        }
      ],
      "stateMutability": "view",
      "type": "function"
    },
    {
      "inputs": [
        {
          "internalType": "address",
          "name": "newImplementation",
          "type": "address"
        },
        {
          "internalType": "bytes",
          "name": "data",
          "type": "bytes"
        }
      ],
      "name": "upgradeToAndCall",
      "outputs": [],
      "stateMutability": "payable",
      "type": "function"
    },
    {
      "inputs": [
        {
          "internalType": "uint256",
          "name": "",
          "type": "uint256"
        }
      ],
      "name": "validCollateral",
      "outputs": [
        {
          "internalType": "address",
          "name": "",
          "type": "address"
        }
      ],
      "stateMutability": "view",
      "type": "function"
    }
  ],
  "transactionHash": "0xde27dd73958ba8a53209642eb32839276dd07d378aeaab8e272356138c99c192",
  "args": [],
  "numDeployments": 1,
  "solcInputHash": "95c5aca5a7d37a227eda09db9261aa6b",
  "bytecode": "0x60a06040523060805234801561001457600080fd5b5060805161357761003e60003960008181612bf801528181612c210152612d6701526135776000f3fe6080604052600436106104525760003560e01c806391bbfd0d1161023f578063c0c067a411610139578063f1c05a7e116100b6578063f7e37b8d1161007a578063f7e37b8d14610e2a578063f8d8989814610e46578063fd90c2be14610e66578063fe06073314610e7b578063fe9d032314610e9b57600080fd5b8063f1c05a7e14610d74578063f2ecdcae14610d94578063f2fde38b14610db1578063f454249414610dd1578063f73acf6a14610e0a57600080fd5b8063cc8b21e4116100fd578063cc8b21e414610cdf578063cda775f914610cff578063cf54aaa014610d1f578063d1c11bc514610d3f578063e8ff898614610d5f57600080fd5b8063c0c067a414610c24578063c415b95c14610c44578063c5f956af14610c64578063c629812014610c84578063c8564c6214610cbe57600080fd5b8063a72bd4e8116101c7578063b31610db1161018b578063b31610db14610b6b578063b957172114610b8b578063c05c5e9414610bab578063c06abe7714610bcb578063c08261db14610beb57600080fd5b8063a72bd4e814610aab578063a80f9aee14610ac1578063ad3cb1cc14610ae1578063aebe1ccb14610b12578063af7047d814610b3257600080fd5b80639d8d5a171161020e5780639d8d5a1714610a1b578063a142f35a14610a30578063a17e64cc14610965578063a20baee614610a4a578063a3f4df7e14610a6557600080fd5b806391bbfd0d1461098057806395fb16bb146109b957806399bd6dda146109d95780639d6aea0a146109f957600080fd5b80634f1ef2861161035057806377553ad4116102d85780638129fc1c1161029c5780638129fc1c146108e257806386d10e8c146108f757806388ecb0db146109305780638da5cb5b1461095057806390b988c61461096557600080fd5b806377553ad41461082f57806378aaf4de1461084f5780637a305122146108885780637c120312146108a65780637f7dde4a146108c257600080fd5b80636a85d67d1161031f5780636a85d67d1461079e578063715018a6146107be57806372fe25aa146107d3578063741bef1a146107ef57806375e1c3d81461080f57600080fd5b80634f1ef2861461071d57806352d1902d1461073057806355dafa461461074557806362d460da1461076557600080fd5b80632416b72d116103de5780633e18935c116103a25780633e18935c1461066f5780633f8f5f42146106845780634169467d146106a4578063443c4fcb146106c45780634bc66f32146106fd57600080fd5b80632416b72d146105b45780632a6e7603146105c95780632d79b8eb146105e9578063300581d9146106165780633cc742251461064f57600080fd5b80630e8dfa81116104255780630e8dfa81146104f65780630fe66cdd1461051657806311a40d871461053657806317ae1fc51461055657806318a151131461058657600080fd5b806301c9310014610457578063048c661d146104795780630a34d4d6146104b65780630bc028c2146104d6575b600080fd5b34801561046357600080fd5b50610477610472366004613074565b610ebb565b005b34801561048557600080fd5b50600d54610499906001600160a01b031681565b6040516001600160a01b0390911681526020015b60405180910390f35b3480156104c257600080fd5b50601154610499906001600160a01b031681565b3480156104e257600080fd5b506104776104f136600461308f565b610f0c565b34801561050257600080fd5b5061047761051136600461308f565b61109f565b34801561052257600080fd5b506104776105313660046130b9565b61122b565b34801561054257600080fd5b506104776105513660046130f5565b6112cd565b34801561056257600080fd5b50610576610571366004613074565b611387565b60405190151581526020016104ad565b34801561059257600080fd5b506105a66105a1366004613074565b6113b6565b6040519081526020016104ad565b3480156105c057600080fd5b506035546105a6565b3480156105d557600080fd5b506104996105e43660046130f5565b6114a3565b3480156105f557600080fd5b50610609610604366004613155565b6114cd565b6040516104ad9190613202565b34801561062257600080fd5b506105a6610631366004613074565b6001600160a01b031660009081526033602052604090206003015490565b34801561065b57600080fd5b50600654610499906001600160a01b031681565b34801561067b57600080fd5b506036546105a6565b34801561069057600080fd5b5061047761069f36600461308f565b6115b2565b3480156106b057600080fd5b50600854610499906001600160a01b031681565b3480156106d057600080fd5b506105a66106df366004613074565b6001600160a01b03166000908152603360205260409020600a015490565b34801561070957600080fd5b50600e54610499906001600160a01b031681565b61047761072b366004613246565b61172e565b34801561073c57600080fd5b506105a661174d565b34801561075157600080fd5b50600a54610499906001600160a01b031681565b34801561077157600080fd5b506105a6610780366004613074565b6001600160a01b031660009081526033602052604090206004015490565b3480156107aa57600080fd5b506104776107b9366004613074565b61176a565b3480156107ca57600080fd5b506104776117bb565b3480156107df57600080fd5b506105a6670de0b6b3a764000081565b3480156107fb57600080fd5b50600b54610499906001600160a01b031681565b34801561081b57600080fd5b5061047761082a36600461308f565b6117cf565b34801561083b57600080fd5b50600254610499906001600160a01b031681565b34801561085b57600080fd5b506105a661086a366004613074565b6001600160a01b031660009081526033602052604090206005015490565b34801561089457600080fd5b506105a669d3c21bcecceda100000081565b3480156108b257600080fd5b506105a6670f43fc2c04ee000081565b3480156108ce57600080fd5b50600054610499906001600160a01b031681565b3480156108ee57600080fd5b50610477611947565b34801561090357600080fd5b506105a6610912366004613074565b6001600160a01b031660009081526033602052604090206007015490565b34801561093c57600080fd5b5061047761094b36600461308f565b611a60565b34801561095c57600080fd5b50610499611bdc565b34801561097157600080fd5b506105a66611c37937e0800081565b34801561098c57600080fd5b506105a661099b366004613074565b6001600160a01b031660009081526033602052604090206008015490565b3480156109c557600080fd5b50600454610499906001600160a01b031681565b3480156109e557600080fd5b506104776109f43660046130f5565b611c0a565b348015610a0557600080fd5b50610a0e611cbc565b6040516104ad91906132ec565b348015610a2757600080fd5b506105a660c881565b348015610a3c57600080fd5b506038546105769060ff1681565b348015610a5657600080fd5b50670de0b6b3a76400006105a6565b348015610a7157600080fd5b50610a9e6040518060400160405280600d81526020016c10591b5a5b90dbdb9d1c9858dd609a1b81525081565b6040516104ad919061337d565b348015610ab757600080fd5b506105a660001981565b348015610acd57600080fd5b50610477610adc36600461308f565b611d1e565b348015610aed57600080fd5b50610a9e604051806040016040528060058152602001640352e302e360dc1b81525081565b348015610b1e57600080fd5b50610477610b2d36600461308f565b611e99565b348015610b3e57600080fd5b506105a6610b4d366004613074565b6001600160a01b031660009081526033602052604090206009015490565b348015610b7757600080fd5b506105a6610b86366004613074565b611f61565b348015610b9757600080fd5b50610477610ba6366004613390565b611f8d565b348015610bb757600080fd5b50600154610499906001600160a01b031681565b348015610bd757600080fd5b50610477610be636600461308f565b612509565b348015610bf757600080fd5b506105a6610c06366004613074565b6001600160a01b031660009081526033602052604090206006015490565b348015610c3057600080fd5b50610477610c3f366004613405565b6125e3565b348015610c5057600080fd5b50600754610499906001600160a01b031681565b348015610c7057600080fd5b50600f54610499906001600160a01b031681565b348015610c9057600080fd5b50603454603554603654610ca392919083565b604080519384526020840192909252908201526060016104ad565b348015610cca57600080fd5b5060115461057690600160a01b900460ff1681565b348015610ceb57600080fd5b50600c54610499906001600160a01b031681565b348015610d0b57600080fd5b50600354610499906001600160a01b031681565b348015610d2b57600080fd5b506105a6610d3a366004613074565b6126cd565b348015610d4b57600080fd5b50610477610d5a3660046130f5565b6126f6565b348015610d6b57600080fd5b506104776127a8565b348015610d8057600080fd5b50601054610499906001600160a01b031681565b348015610da057600080fd5b506105a6686c6b935b8bbd40000081565b348015610dbd57600080fd5b50610477610dcc366004613074565b61282b565b348015610ddd57600080fd5b506105a6610dec366004613074565b6001600160a01b03166000908152603360205260409020600b015490565b348015610e1657600080fd5b50610477610e25366004613461565b612869565b348015610e3657600080fd5b506105a66714d1120d7b16000081565b348015610e5257600080fd5b50600554610499906001600160a01b031681565b348015610e7257600080fd5b506034546105a6565b348015610e8757600080fd5b50610477610e96366004613074565b612b77565b348015610ea757600080fd5b50600954610499906001600160a01b031681565b610ec3612b80565b6001600160a01b038116610eea576040516385d3330760e01b815260040160405180910390fd5b600a80546001600160a01b0319166001600160a01b0392909216919091179055565b60385460ff1615610f4757600e546001600160a01b03163314610f4257604051631dc5ba9560e01b815260040160405180910390fd5b610f80565b610f4f611bdc565b6001600160a01b0316336001600160a01b031614610f805760405163ec4adddf60e01b815260040160405180910390fd5b604080518082018252600c81526b135a5b8813995d081119589d60a21b6020808301919091526001600160a01b038516600090815260339091529182206002015490918491849190686c6b935b8bbd4000009060ff1615158203610ff7576040516316c1362560e21b815260040160405180910390fd5b8183108061100457508083115b156110335784838383604051630714ded760e31b815260040161102a9493929190613494565b60405180910390fd5b6001600160a01b038716600090815260336020908152604091829020600781018054908a905583518181529283018a9052909290917f794abdbe21b3b4556467be6af2b2d5e75ae16613bd128dbd47c3727bd52b4b5591015b60405180910390a1505050505050505050565b60385460ff16156110da57600e546001600160a01b031633146110d557604051631dc5ba9560e01b815260040160405180910390fd5b611113565b6110e2611bdc565b6001600160a01b0316336001600160a01b0316146111135760405163ec4adddf60e01b815260040160405180910390fd5b60408051808201825260148152732932b232b6b83a34b7b7102332b290233637b7b960611b6020808301919091526001600160a01b038516600090815260339091529182206002015490918491849166038d7ea4c680009167016345785d8a00009160ff9091161515900361119b576040516316c1362560e21b815260040160405180910390fd5b818310806111a857508083115b156111ce5784838383604051630714ded760e31b815260040161102a9493929190613494565b6001600160a01b038716600090815260336020908152604091829020600a81018054908a905583518181529283018a9052909290917fbb07ced1b1536afc600a5d97cba6e4b294731026286cddc33b98cb2d18569ab7910161108c565b60385460ff161561126657600e546001600160a01b0316331461126157604051631dc5ba9560e01b815260040160405180910390fd5b61129f565b61126e611bdc565b6001600160a01b0316336001600160a01b03161461129f5760405163ec4adddf60e01b815260040160405180910390fd5b6001600160a01b03919091166000908152603360205260409020600201805460ff1916911515919091179055565b60385460ff161561130857600e546001600160a01b0316331461130357604051631dc5ba9560e01b815260040160405180910390fd5b611341565b611310611bdc565b6001600160a01b0316336001600160a01b0316146113415760405163ec4adddf60e01b815260040160405180910390fd5b603480549082905560408051828152602081018490527fe3b4f88e1a9792e4c88056012d3c2d95f88686e9f0422d216ddde64913868a3091015b60405180910390a15050565b60008161139381612bb2565b50506001600160a01b031660009081526033602052604090206002015460ff1690565b60065460405163c5739d0b60e01b81526001600160a01b038381166004830152600092169063c5739d0b90602401602060405180830381865afa158015611401573d6000803e3d6000fd5b505050506040513d601f19601f8201168201806040525081019061142591906134c3565b60005460405163c5739d0b60e01b81526001600160a01b0385811660048301529091169063c5739d0b90602401602060405180830381865afa15801561146f573d6000803e3d6000fd5b505050506040513d601f19601f8201168201806040525081019061149391906134c3565b61149d91906134f2565b92915050565b603781815481106114b357600080fd5b6000918252602090912001546001600160a01b0316905081565b80516060908067ffffffffffffffff8111156114eb576114eb61310e565b604051908082528060200260200182016040528015611514578160200160208202803683370190505b50915060005b818110156115ab5761154484828151811061153757611537613505565b6020026020010151612bb2565b6033600085838151811061155a5761155a613505565b60200260200101516001600160a01b03166001600160a01b031681526020019081526020016000206001015483828151811061159857611598613505565b602090810291909101015260010161151a565b5050919050565b60385460ff16156115ed57600e546001600160a01b031633146115e857604051631dc5ba9560e01b815260040160405180910390fd5b611626565b6115f5611bdc565b6001600160a01b0316336001600160a01b0316146116265760405163ec4adddf60e01b815260040160405180910390fd5b604080518082018252600381526221a1a960e91b6020808301919091526001600160a01b0385166000908152603390915291822060020154909184918491670de0b6b3a764000091678ac7230489e800009160ff9091161515900361169e576040516316c1362560e21b815260040160405180910390fd5b818310806116ab57508083115b156116d15784838383604051630714ded760e31b815260040161102a9493929190613494565b6001600160a01b038716600090815260336020908152604091829020600481018054908a905583518181529283018a9052909290917f8fef8cb3d376ea764ea9e41cc4380bb23ed262ed1883cfd0ee00f4b08a288b69910161108c565b611736612bed565b61173f82612c92565b6117498282612c9a565b5050565b6000611757612d5c565b5060008051602061354b83398151915290565b611772612b80565b6001600160a01b0381166117995760405163706ebc6560e11b815260040160405180910390fd5b600480546001600160a01b0319166001600160a01b0392909216919091179055565b6117c3612b80565b6117cd6000612da5565b565b60385460ff161561180a57600e546001600160a01b0316331461180557604051631dc5ba9560e01b815260040160405180910390fd5b611843565b611812611bdc565b6001600160a01b0316336001600160a01b0316146118435760405163ec4adddf60e01b815260040160405180910390fd5b604080518082018252600f81526e2832b931b2b73a102234bb34b9b7b960891b6020808301919091526001600160a01b038516600090815260339091529182206002908101549192859285929160c89160ff16151590036118b7576040516316c1362560e21b815260040160405180910390fd5b818310806118c457508083115b156118ea5784838383604051630714ded760e31b815260040161102a9493929190613494565b6001600160a01b038716600090815260336020908152604091829020600981018054908a905583518181529283018a9052909290917fdfb04317e088794badba78956b7c092fac7986add660c0fc3d01569808c32b36910161108c565b7ff0c57e16840df040f15088dc2f81fe391c3923bec73e23a9662efc9c229c6a008054600160401b810460ff16159067ffffffffffffffff1660008115801561198d5750825b905060008267ffffffffffffffff1660011480156119aa5750303b155b9050811580156119b8575080155b156119d65760405163f92ee8a960e01b815260040160405180910390fd5b845467ffffffffffffffff191660011785558315611a0057845460ff60401b1916600160401b1785555b33611a0a81612e16565b611a12612e27565b508315611a5957845460ff60401b19168555604051600181527fc7f505b2f371ae2175ee4913f4499e1f2633a7b5936321eed1cdaeb6115181d29060200160405180910390a15b5050505050565b60385460ff1615611a9b57600e546001600160a01b03163314611a9657604051631dc5ba9560e01b815260040160405180910390fd5b611ad4565b611aa3611bdc565b6001600160a01b0316336001600160a01b031614611ad45760405163ec4adddf60e01b815260040160405180910390fd5b604080518082018252600381526226a1a960e91b6020808301919091526001600160a01b0385166000908152603390915291822060020154909184918491670e043da61725000091678ac7230489e800009160ff90911615159003611b4c576040516316c1362560e21b815260040160405180910390fd5b81831080611b5957508083115b15611b7f5784838383604051630714ded760e31b815260040161102a9493929190613494565b6001600160a01b038716600090815260336020908152604091829020600581018054908a905583518181529283018a9052909290917fefeb589e088ecf2bc2a0b6d364f91a4fee37ee6b9c6f089c71169e86f03dc944910161108c565b7f9016d09d72d40fdae2fd8ceac6b6234c7706214fd39c1cd1e609a0528c199300546001600160a01b031690565b60385460ff1615611c4557600e546001600160a01b03163314611c4057604051631dc5ba9560e01b815260040160405180910390fd5b611c7e565b611c4d611bdc565b6001600160a01b0316336001600160a01b031614611c7e5760405163ec4adddf60e01b815260040160405180910390fd5b603580549082905560408051828152602081018490527f841b8d7786ab206e084452d4121e409254159a21459476b3875af811e81ddece910161137b565b60606037805480602002602001604051908101604052809291908181526020018280548015611d1457602002820191906000526020600020905b81546001600160a01b03168152600190910190602001808311611cf6575b5050505050905090565b60385460ff1615611d5957600e546001600160a01b03163314611d5457604051631dc5ba9560e01b815260040160405180910390fd5b611d92565b611d61611bdc565b6001600160a01b0316336001600160a01b031614611d925760405163ec4adddf60e01b815260040160405180910390fd5b604080518082018252600d81526c426f72726f77696e672046656560981b6020808301919091526001600160a01b03851660009081526033909152918220600201549091849184919067016345785d8a00009060ff1615158203611e09576040516316c1362560e21b815260040160405180910390fd5b81831080611e1657508083115b15611e3c5784838383604051630714ded760e31b815260040161102a9493929190613494565b6001600160a01b038716600090815260336020908152604091829020600381018054908a905583518181529283018a9052909290917fa7beab75e7a7d89dcacb5a82b33606192c31b8bbc1868c5240f95abcd95bbeee910161108c565b60385460ff1615611ed457600e546001600160a01b03163314611ecf57604051631dc5ba9560e01b815260040160405180910390fd5b611f0d565b611edc611bdc565b6001600160a01b0316336001600160a01b031614611f0d5760405163ec4adddf60e01b815260040160405180910390fd5b6001600160a01b038216600081815260336020908152604091829020600b01849055815192835282018390527f2f92337ec07da93d49659c3dbafa91599df53c9c9147edcff44eabc99d945950910161137b565b600081611f6d81612bb2565b50506001600160a01b031660009081526033602052604090206001015490565b611f95612b80565b601154600160a01b900460ff1615611fbf57604051625f22e960e41b815260040160405180910390fd5b60108114611fe057604051633f5a111d60e21b815260040160405180910390fd5b60005b601081101561207e57600083838381811061200057612000613505565b90506020020160208101906120159190613074565b6001600160a01b031603612076578083838381811061203657612036613505565b905060200201602081019061204b9190613074565b604051630d9d339f60e01b815260048101929092526001600160a01b0316602482015260440161102a565b600101611fe3565b508181600081811061209257612092613505565b90506020020160208101906120a79190613074565b600080546001600160a01b0319166001600160a01b0392909216919091179055818160018181106120da576120da613505565b90506020020160208101906120ef9190613074565b600180546001600160a01b0319166001600160a01b03929092169190911790558181600281811061212257612122613505565b90506020020160208101906121379190613074565b600280546001600160a01b0319166001600160a01b03929092169190911790558181600381811061216a5761216a613505565b905060200201602081019061217f9190613074565b600380546001600160a01b0319166001600160a01b0392909216919091179055818160048181106121b2576121b2613505565b90506020020160208101906121c79190613074565b600580546001600160a01b0319166001600160a01b0392909216919091178155829082908181106121fa576121fa613505565b905060200201602081019061220f9190613074565b600680546001600160a01b0319166001600160a01b03929092169190911781558290829081811061224257612242613505565b90506020020160208101906122579190613074565b600780546001600160a01b0319166001600160a01b03929092169190911781558290829081811061228a5761228a613505565b905060200201602081019061229f9190613074565b600880546001600160a01b0319166001600160a01b0392909216919091178155829082908181106122d2576122d2613505565b90506020020160208101906122e79190613074565b600980546001600160a01b0319166001600160a01b03929092169190911781558290829081811061231a5761231a613505565b905060200201602081019061232f9190613074565b600b80546001600160a01b0319166001600160a01b03929092169190911790558181600a81811061236257612362613505565b90506020020160208101906123779190613074565b600c80546001600160a01b0319166001600160a01b03929092169190911790558181600b8181106123aa576123aa613505565b90506020020160208101906123bf9190613074565b600d80546001600160a01b0319166001600160a01b03929092169190911790558181600c8181106123f2576123f2613505565b90506020020160208101906124079190613074565b600e80546001600160a01b0319166001600160a01b03929092169190911790558181600d81811061243a5761243a613505565b905060200201602081019061244f9190613074565b600f80546001600160a01b0319166001600160a01b03929092169190911790558181600e81811061248257612482613505565b90506020020160208101906124979190613074565b601080546001600160a01b0319166001600160a01b03929092169190911790558181600f8181106124ca576124ca613505565b90506020020160208101906124df9190613074565b601180546001600160a81b0319166001600160a01b039290921691909117600160a01b1790555050565b60385460ff161561254457600e546001600160a01b0316331461253f57604051631dc5ba9560e01b815260040160405180910390fd5b61257d565b61254c611bdc565b6001600160a01b0316336001600160a01b03161461257d5760405163ec4adddf60e01b815260040160405180910390fd5b6001600160a01b038216600090815260336020908152604091829020600881018054908590558351818152928301859052909290917f903452cfae6c90575a1e7327283877d56dda9ed43a4711f44bf796e103e4e120910160405180910390a150505050565b60385460ff161561261e57600e546001600160a01b0316331461261957604051631dc5ba9560e01b815260040160405180910390fd5b612657565b612626611bdc565b6001600160a01b0316336001600160a01b0316146126575760405163ec4adddf60e01b815260040160405180910390fd5b6001600160a01b0388166000908152603360205260409020600201805460ff191660011790556126878888611d1e565b61269188876115b2565b61269b8886611a60565b6126a58885610f0c565b6126af8884612509565b6126b988836117cf565b6126c3888261109f565b5050505050505050565b6000816126d981612bb2565b50506001600160a01b031660009081526033602052604090205490565b60385460ff161561273157600e546001600160a01b0316331461272c57604051631dc5ba9560e01b815260040160405180910390fd5b61276a565b612739611bdc565b6001600160a01b0316336001600160a01b03161461276a5760405163ec4adddf60e01b815260040160405180910390fd5b603680549082905560408051828152602081018490527f7196cc0c7a60a899fecba676605ed35cd076078c7823305611d2e11fe269ae35910161137b565b60385460ff16156127e357600e546001600160a01b031633146127de57604051631dc5ba9560e01b815260040160405180910390fd5b61281c565b6127eb611bdc565b6001600160a01b0316336001600160a01b03161461281c5760405163ec4adddf60e01b815260040160405180910390fd5b6038805460ff19166001179055565b612833612b80565b6001600160a01b03811661285d57604051631e4fbdf760e01b81526000600482015260240161102a565b61286681612da5565b50565b60385460ff16156128a457600e546001600160a01b0316331461289f57604051631dc5ba9560e01b815260040160405180910390fd5b6128dd565b6128ac611bdc565b6001600160a01b0316336001600160a01b0316146128dd5760405163ec4adddf60e01b815260040160405180910390fd5b6001600160a01b0383166000908152603360205260409020600501541561291757604051634dc81d2760e01b815260040160405180910390fd5b603780546001808201835560008390527f42a7b7dd785cd69714a189dffb3fd7d7174edc9ece837694ce50f7078f7c31ae90910180546001600160a01b0319166001600160a01b038716179055604080516101808101909152838152915460208301916129839161351b565b81526020016000151581526020016611c37937e0800081526020016714d1120d7b1600008152602001670f43fc2c04ee00008152602001838152602001686c6b935b8bbd400000815260200169d3c21bcecceda1000000815260200160c881526020016611c37937e08000815260200160001981525060336000856001600160a01b03166001600160a01b03168152602001908152602001600020600082015181600001556020820151816001015560408201518160020160006101000a81548160ff021916908315150217905550606082015181600301556080820151816004015560a0820151816005015560c0820151816006015560e082015181600701556101008201518160080155610120820151816009015561014082015181600a015561016082015181600b0155905050600d60009054906101000a90046001600160a01b03166001600160a01b031663ec0d5e0c846040518263ffffffff1660e01b8152600401612b0391906001600160a01b0391909116815260200190565b600060405180830381600087803b158015612b1d57600080fd5b505af1158015612b31573d6000803e3d6000fd5b50506040516001600160a01b03861681527f7db05e63d635a68c62fd7fd8f3107ae8ab584a383e102d1bd8a40f4c977e465f9250602001905060405180910390a1505050565b61286681612c92565b33612b89611bdc565b6001600160a01b0316146117cd5760405163118cdaa760e01b815233600482015260240161102a565b6001600160a01b03811660009081526033602052604081206005015490036128665760405163e2d0e9ed60e01b815260040160405180910390fd5b306001600160a01b037f0000000000000000000000000000000000000000000000000000000000000000161480612c7457507f00000000000000000000000000000000000000000000000000000000000000006001600160a01b0316612c6860008051602061354b833981519152546001600160a01b031690565b6001600160a01b031614155b156117cd5760405163703e46dd60e11b815260040160405180910390fd5b612866612b80565b816001600160a01b03166352d1902d6040518163ffffffff1660e01b8152600401602060405180830381865afa925050508015612cf4575060408051601f3d908101601f19168201909252612cf1918101906134c3565b60015b612d1c57604051634c9c8ce360e01b81526001600160a01b038316600482015260240161102a565b60008051602061354b8339815191528114612d4d57604051632a87526960e21b81526004810182905260240161102a565b612d578383612e2f565b505050565b306001600160a01b037f000000000000000000000000000000000000000000000000000000000000000016146117cd5760405163703e46dd60e11b815260040160405180910390fd5b7f9016d09d72d40fdae2fd8ceac6b6234c7706214fd39c1cd1e609a0528c19930080546001600160a01b031981166001600160a01b03848116918217845560405192169182907f8be0079c531659141344cd1fd0a4f28419497f9722a3daafe3b4186f6b6457e090600090a3505050565b612e1e612e85565b61286681612ece565b6117cd612e85565b612e3882612ed6565b6040516001600160a01b038316907fbc7cd75a20ee27fd9adebab32041f755214dbc6bffa90cc0225b39da2e5c2d3b90600090a2805115612e7d57612d578282612f3b565b611749612fb1565b7ff0c57e16840df040f15088dc2f81fe391c3923bec73e23a9662efc9c229c6a0054600160401b900460ff166117cd57604051631afcd79f60e31b815260040160405180910390fd5b612833612e85565b806001600160a01b03163b600003612f0c57604051634c9c8ce360e01b81526001600160a01b038216600482015260240161102a565b60008051602061354b83398151915280546001600160a01b0319166001600160a01b0392909216919091179055565b6060600080846001600160a01b031684604051612f58919061352e565b600060405180830381855af49150503d8060008114612f93576040519150601f19603f3d011682016040523d82523d6000602084013e612f98565b606091505b5091509150612fa8858383612fd0565b95945050505050565b34156117cd5760405163b398979f60e01b815260040160405180910390fd5b606082612fe557612fe08261302f565b613028565b8151158015612ffc57506001600160a01b0384163b155b1561302557604051639996b31560e01b81526001600160a01b038516600482015260240161102a565b50805b9392505050565b80511561303f5780518082602001fd5b604051630a12f52160e11b815260040160405180910390fd5b80356001600160a01b038116811461306f57600080fd5b919050565b60006020828403121561308657600080fd5b61302882613058565b600080604083850312156130a257600080fd5b6130ab83613058565b946020939093013593505050565b600080604083850312156130cc57600080fd5b6130d583613058565b9150602083013580151581146130ea57600080fd5b809150509250929050565b60006020828403121561310757600080fd5b5035919050565b634e487b7160e01b600052604160045260246000fd5b604051601f8201601f1916810167ffffffffffffffff8111828210171561314d5761314d61310e565b604052919050565b6000602080838503121561316857600080fd5b823567ffffffffffffffff8082111561318057600080fd5b818501915085601f83011261319457600080fd5b8135818111156131a6576131a661310e565b8060051b91506131b7848301613124565b81815291830184019184810190888411156131d157600080fd5b938501935b838510156131f6576131e785613058565b825293850193908501906131d6565b98975050505050505050565b6020808252825182820181905260009190848201906040850190845b8181101561323a5783518352928401929184019160010161321e565b50909695505050505050565b6000806040838503121561325957600080fd5b61326283613058565b915060208084013567ffffffffffffffff8082111561328057600080fd5b818601915086601f83011261329457600080fd5b8135818111156132a6576132a661310e565b6132b8601f8201601f19168501613124565b915080825287848285010111156132ce57600080fd5b80848401858401376000848284010152508093505050509250929050565b6020808252825182820181905260009190848201906040850190845b8181101561323a5783516001600160a01b031683529284019291840191600101613308565b60005b83811015613348578181015183820152602001613330565b50506000910152565b6000815180845261336981602086016020860161332d565b601f01601f19169290920160200192915050565b6020815260006130286020830184613351565b600080602083850312156133a357600080fd5b823567ffffffffffffffff808211156133bb57600080fd5b818501915085601f8301126133cf57600080fd5b8135818111156133de57600080fd5b8660208260051b85010111156133f357600080fd5b60209290920196919550909350505050565b600080600080600080600080610100898b03121561342257600080fd5b61342b89613058565b9a60208a01359a5060408a013599606081013599506080810135985060a0810135975060c0810135965060e00135945092505050565b60008060006060848603121561347657600080fd5b61347f84613058565b95602085013595506040909401359392505050565b6080815260006134a76080830187613351565b6020830195909552506040810192909252606090910152919050565b6000602082840312156134d557600080fd5b5051919050565b634e487b7160e01b600052601160045260246000fd5b8082018082111561149d5761149d6134dc565b634e487b7160e01b600052603260045260246000fd5b8181038181111561149d5761149d6134dc565b6000825161354081846020870161332d565b919091019291505056fe360894a13ba1a3210667c828492db98dca3e2076cc3735a920a3ca505d382bbca164736f6c6343000817000a",
  "devdoc": {
    "errors": {
      "AddressEmptyCode(address)": [
        {
          "details": "There's no code at `target` (it is not a contract)."
        }
      ],
      "ERC1967InvalidImplementation(address)": [
        {
          "details": "The `implementation` of the proxy is invalid."
        }
      ],
      "ERC1967NonPayable()": [
        {
          "details": "An upgrade function sees `msg.value > 0` that may be lost."
        }
      ],
      "FailedInnerCall()": [
        {
          "details": "A call to an address target failed. The target may have reverted."
        }
      ],
      "InvalidInitialization()": [
        {
          "details": "The contract is already initialized."
        }
      ],
      "NotInitializing()": [
        {
          "details": "The contract is not initializing."
        }
      ],
      "OwnableInvalidOwner(address)": [
        {
          "details": "The owner is not a valid owner account. (eg. `address(0)`)"
        }
      ],
      "OwnableUnauthorizedAccount(address)": [
        {
          "details": "The caller account is not authorized to perform an operation."
        }
      ],
      "UUPSUnauthorizedCallContext()": [
        {
          "details": "The call is from an unauthorized context."
        }
      ],
      "UUPSUnsupportedProxiableUUID(bytes32)": [
        {
          "details": "The storage `slot` is unsupported as a UUID."
        }
      ]
    },
    "events": {
      "Initialized(uint64)": {
        "details": "Triggered when the contract has been initialized or reinitialized."
      },
      "Upgraded(address)": {
        "details": "Emitted when the implementation is upgraded."
      }
    },
    "kind": "dev",
    "methods": {
      "owner()": {
        "details": "Returns the address of the current owner."
      },
      "proxiableUUID()": {
        "details": "Implementation of the ERC1822 {proxiableUUID} function. This returns the storage slot used by the implementation. It is used to validate the implementation's compatibility when performing an upgrade. IMPORTANT: A proxy pointing at a proxiable contract should not be considered proxiable itself, because this risks bricking a proxy that upgrades to it, by delegating to itself until out of gas. Thus it is critical that this function revert if invoked through a proxy. This is guaranteed by the `notDelegated` modifier."
      },
      "renounceOwnership()": {
        "details": "Leaves the contract without owner. It will not be possible to call `onlyOwner` functions. Can only be called by the current owner. NOTE: Renouncing ownership will leave the contract without an owner, thereby disabling any functionality that is only available to the owner."
      },
      "setSetupIsInitialized()": {
        "details": "The deployment script will call this function when all initial collaterals have been configured;      after this is set to true, all subsequent config/setters will need to go through the timelocks."
      },
      "transferOwnership(address)": {
        "details": "Transfers ownership of the contract to a new account (`newOwner`). Can only be called by the current owner."
      },
      "upgradeToAndCall(address,bytes)": {
        "custom:oz-upgrades-unsafe-allow-reachable": "delegatecall",
        "details": "Upgrade the implementation of the proxy to `newImplementation`, and subsequently execute the function call encoded in `data`. Calls {_authorizeUpgrade}. Emits an {Upgraded} event."
      }
    },
    "stateVariables": {
      "collateralParams": {
        "details": "Cannot be public as struct has too many variables for the stack.Create special view structs/getters instead."
      }
    },
    "version": 1
  },
  "userdoc": {
    "kind": "user",
    "methods": {},
    "version": 1
  },
  "storageLayout": {
    "storage": [
      {
        "astId": 9991,
        "contract": "contracts/AdminContract.sol:AdminContract",
        "label": "activePool",
        "offset": 0,
        "slot": "0",
        "type": "t_address"
      },
      {
        "astId": 9993,
        "contract": "contracts/AdminContract.sol:AdminContract",
        "label": "adminContract",
        "offset": 0,
        "slot": "1",
        "type": "t_address"
      },
      {
        "astId": 9995,
        "contract": "contracts/AdminContract.sol:AdminContract",
        "label": "borrowerOperations",
        "offset": 0,
        "slot": "2",
        "type": "t_address"
      },
      {
        "astId": 9997,
        "contract": "contracts/AdminContract.sol:AdminContract",
        "label": "collSurplusPool",
        "offset": 0,
        "slot": "3",
        "type": "t_address"
      },
      {
        "astId": 9999,
        "contract": "contracts/AdminContract.sol:AdminContract",
        "label": "communityIssuance",
        "offset": 0,
        "slot": "4",
        "type": "t_address"
      },
      {
        "astId": 10001,
        "contract": "contracts/AdminContract.sol:AdminContract",
        "label": "debtToken",
        "offset": 0,
        "slot": "5",
        "type": "t_address"
      },
      {
        "astId": 10003,
        "contract": "contracts/AdminContract.sol:AdminContract",
        "label": "defaultPool",
        "offset": 0,
        "slot": "6",
        "type": "t_address"
      },
      {
        "astId": 10005,
        "contract": "contracts/AdminContract.sol:AdminContract",
        "label": "feeCollector",
        "offset": 0,
        "slot": "7",
        "type": "t_address"
      },
      {
        "astId": 10007,
        "contract": "contracts/AdminContract.sol:AdminContract",
        "label": "flashLoanAddress",
        "offset": 0,
        "slot": "8",
        "type": "t_address"
      },
      {
        "astId": 10009,
        "contract": "contracts/AdminContract.sol:AdminContract",
        "label": "gasPoolAddress",
        "offset": 0,
        "slot": "9",
        "type": "t_address"
      },
      {
        "astId": 10011,
        "contract": "contracts/AdminContract.sol:AdminContract",
        "label": "trenStaking",
        "offset": 0,
        "slot": "10",
        "type": "t_address"
      },
      {
        "astId": 10013,
        "contract": "contracts/AdminContract.sol:AdminContract",
        "label": "priceFeed",
        "offset": 0,
        "slot": "11",
        "type": "t_address"
      },
      {
        "astId": 10015,
        "contract": "contracts/AdminContract.sol:AdminContract",
        "label": "sortedTrenBoxes",
        "offset": 0,
        "slot": "12",
        "type": "t_address"
      },
      {
        "astId": 10017,
        "contract": "contracts/AdminContract.sol:AdminContract",
        "label": "stabilityPool",
        "offset": 0,
        "slot": "13",
        "type": "t_address"
      },
      {
        "astId": 10019,
        "contract": "contracts/AdminContract.sol:AdminContract",
        "label": "timelockAddress",
        "offset": 0,
        "slot": "14",
        "type": "t_address"
      },
      {
        "astId": 10021,
        "contract": "contracts/AdminContract.sol:AdminContract",
        "label": "treasuryAddress",
        "offset": 0,
        "slot": "15",
        "type": "t_address"
      },
      {
        "astId": 10023,
        "contract": "contracts/AdminContract.sol:AdminContract",
        "label": "trenBoxManager",
        "offset": 0,
        "slot": "16",
        "type": "t_address"
      },
      {
        "astId": 10025,
        "contract": "contracts/AdminContract.sol:AdminContract",
        "label": "trenBoxManagerOperations",
        "offset": 0,
        "slot": "17",
        "type": "t_address"
      },
      {
        "astId": 10027,
        "contract": "contracts/AdminContract.sol:AdminContract",
        "label": "isAddressSetupInitialized",
        "offset": 20,
        "slot": "17",
        "type": "t_bool"
      },
      {
        "astId": 10032,
        "contract": "contracts/AdminContract.sol:AdminContract",
        "label": "__gap",
        "offset": 0,
        "slot": "18",
        "type": "t_array(t_uint256)33_storage"
      },
      {
        "astId": 5954,
        "contract": "contracts/AdminContract.sol:AdminContract",
        "label": "collateralParams",
        "offset": 0,
        "slot": "51",
        "type": "t_mapping(t_address,t_struct(CollateralParams)12590_storage)"
      },
      {
        "astId": 5957,
        "contract": "contracts/AdminContract.sol:AdminContract",
        "label": "flashLoanParams",
        "offset": 0,
        "slot": "52",
        "type": "t_struct(FlashLoanParams)12597_storage"
      },
      {
        "astId": 5960,
        "contract": "contracts/AdminContract.sol:AdminContract",
        "label": "validCollateral",
        "offset": 0,
        "slot": "55",
        "type": "t_array(t_address)dyn_storage"
      },
      {
        "astId": 5962,
        "contract": "contracts/AdminContract.sol:AdminContract",
        "label": "isSetupInitialized",
        "offset": 0,
        "slot": "56",
        "type": "t_bool"
      }
    ],
    "types": {
      "t_address": {
        "encoding": "inplace",
        "label": "address",
        "numberOfBytes": "20"
      },
      "t_array(t_address)dyn_storage": {
        "base": "t_address",
        "encoding": "dynamic_array",
        "label": "address[]",
        "numberOfBytes": "32"
      },
      "t_array(t_uint256)33_storage": {
        "base": "t_uint256",
        "encoding": "inplace",
        "label": "uint256[33]",
        "numberOfBytes": "1056"
      },
      "t_bool": {
        "encoding": "inplace",
        "label": "bool",
        "numberOfBytes": "1"
      },
      "t_mapping(t_address,t_struct(CollateralParams)12590_storage)": {
        "encoding": "mapping",
        "key": "t_address",
        "label": "mapping(address => struct IAdminContract.CollateralParams)",
        "numberOfBytes": "32",
        "value": "t_struct(CollateralParams)12590_storage"
      },
      "t_struct(CollateralParams)12590_storage": {
        "encoding": "inplace",
        "label": "struct IAdminContract.CollateralParams",
        "members": [
          {
            "astId": 12567,
            "contract": "contracts/AdminContract.sol:AdminContract",
            "label": "decimals",
            "offset": 0,
            "slot": "0",
            "type": "t_uint256"
          },
          {
            "astId": 12569,
            "contract": "contracts/AdminContract.sol:AdminContract",
            "label": "index",
            "offset": 0,
            "slot": "1",
            "type": "t_uint256"
          },
          {
            "astId": 12571,
            "contract": "contracts/AdminContract.sol:AdminContract",
            "label": "active",
            "offset": 0,
            "slot": "2",
            "type": "t_bool"
          },
          {
            "astId": 12573,
            "contract": "contracts/AdminContract.sol:AdminContract",
            "label": "borrowingFee",
            "offset": 0,
            "slot": "3",
            "type": "t_uint256"
          },
          {
            "astId": 12575,
            "contract": "contracts/AdminContract.sol:AdminContract",
            "label": "ccr",
            "offset": 0,
            "slot": "4",
            "type": "t_uint256"
          },
          {
            "astId": 12577,
            "contract": "contracts/AdminContract.sol:AdminContract",
            "label": "mcr",
            "offset": 0,
            "slot": "5",
            "type": "t_uint256"
          },
          {
            "astId": 12579,
            "contract": "contracts/AdminContract.sol:AdminContract",
            "label": "debtTokenGasCompensation",
            "offset": 0,
            "slot": "6",
            "type": "t_uint256"
          },
          {
            "astId": 12581,
            "contract": "contracts/AdminContract.sol:AdminContract",
            "label": "minNetDebt",
            "offset": 0,
            "slot": "7",
            "type": "t_uint256"
          },
          {
            "astId": 12583,
            "contract": "contracts/AdminContract.sol:AdminContract",
            "label": "mintCap",
            "offset": 0,
            "slot": "8",
            "type": "t_uint256"
          },
          {
            "astId": 12585,
            "contract": "contracts/AdminContract.sol:AdminContract",
            "label": "percentDivisor",
            "offset": 0,
            "slot": "9",
            "type": "t_uint256"
          },
          {
            "astId": 12587,
            "contract": "contracts/AdminContract.sol:AdminContract",
            "label": "redemptionFeeFloor",
            "offset": 0,
            "slot": "10",
            "type": "t_uint256"
          },
          {
            "astId": 12589,
            "contract": "contracts/AdminContract.sol:AdminContract",
            "label": "redemptionBlockTimestamp",
            "offset": 0,
            "slot": "11",
            "type": "t_uint256"
          }
        ],
        "numberOfBytes": "384"
      },
      "t_struct(FlashLoanParams)12597_storage": {
        "encoding": "inplace",
        "label": "struct IAdminContract.FlashLoanParams",
        "members": [
          {
            "astId": 12592,
            "contract": "contracts/AdminContract.sol:AdminContract",
            "label": "flashLoanFee",
            "offset": 0,
            "slot": "0",
            "type": "t_uint256"
          },
          {
            "astId": 12594,
            "contract": "contracts/AdminContract.sol:AdminContract",
            "label": "flashLoanMinDebt",
            "offset": 0,
            "slot": "1",
            "type": "t_uint256"
          },
          {
            "astId": 12596,
            "contract": "contracts/AdminContract.sol:AdminContract",
            "label": "flashLoanMaxDebt",
            "offset": 0,
            "slot": "2",
            "type": "t_uint256"
          }
        ],
        "numberOfBytes": "96"
      },
      "t_uint256": {
        "encoding": "inplace",
        "label": "uint256",
        "numberOfBytes": "32"
      }
    }
  }
}