{
  "address": "0x991338103bf9Ab4DDcfCe5A74892DaaaE08e81DC",
  "abi": [
    {
      "inputs": [
        {
          "internalType": "address",
          "name": "target",
          "type": "address"
        }
      ],
      "name": "AddressEmptyCode",
      "type": "error"
    },
    {
      "inputs": [],
      "name": "AdminContract__CollateralAlreadyInitialized",
      "type": "error"
    },
    {
      "inputs": [],
      "name": "AdminContract__OnlyOwner",
      "type": "error"
    },
    {
      "inputs": [],
      "name": "AdminContract__OnlyTimelock",
      "type": "error"
    },
    {
      "inputs": [
        {
          "internalType": "address",
          "name": "implementation",
          "type": "address"
        }
      ],
      "name": "ERC1967InvalidImplementation",
      "type": "error"
    },
    {
      "inputs": [],
      "name": "ERC1967NonPayable",
      "type": "error"
    },
    {
      "inputs": [],
      "name": "FailedInnerCall",
      "type": "error"
    },
    {
      "inputs": [],
      "name": "InvalidInitialization",
      "type": "error"
    },
    {
      "inputs": [],
      "name": "NotInitializing",
      "type": "error"
    },
    {
      "inputs": [
        {
          "internalType": "address",
          "name": "owner",
          "type": "address"
        }
      ],
      "name": "OwnableInvalidOwner",
      "type": "error"
    },
    {
      "inputs": [
        {
          "internalType": "address",
          "name": "account",
          "type": "address"
        }
      ],
      "name": "OwnableUnauthorizedAccount",
      "type": "error"
    },
    {
      "inputs": [
        {
          "internalType": "string",
          "name": "parameter",
          "type": "string"
        },
        {
          "internalType": "uint256",
          "name": "valueEntered",
          "type": "uint256"
        },
        {
          "internalType": "uint256",
          "name": "minValue",
          "type": "uint256"
        },
        {
          "internalType": "uint256",
          "name": "maxValue",
          "type": "uint256"
        }
      ],
      "name": "SafeCheckError",
      "type": "error"
    },
    {
      "inputs": [],
      "name": "UUPSUnauthorizedCallContext",
      "type": "error"
    },
    {
      "inputs": [
        {
          "internalType": "bytes32",
          "name": "slot",
          "type": "bytes32"
        }
      ],
      "name": "UUPSUnsupportedProxiableUUID",
      "type": "error"
    },
    {
      "anonymous": false,
      "inputs": [
        {
          "indexed": false,
          "internalType": "uint256",
          "name": "oldBorrowingFee",
          "type": "uint256"
        },
        {
          "indexed": false,
          "internalType": "uint256",
          "name": "newBorrowingFee",
          "type": "uint256"
        }
      ],
      "name": "BorrowingFeeChanged",
      "type": "event"
    },
    {
      "anonymous": false,
      "inputs": [
        {
          "indexed": false,
          "internalType": "uint256",
          "name": "oldCCR",
          "type": "uint256"
        },
        {
          "indexed": false,
          "internalType": "uint256",
          "name": "newCCR",
          "type": "uint256"
        }
      ],
      "name": "CCRChanged",
      "type": "event"
    },
    {
      "anonymous": false,
      "inputs": [
        {
          "indexed": false,
          "internalType": "address",
          "name": "_collateral",
          "type": "address"
        }
      ],
      "name": "CollateralAdded",
      "type": "event"
    },
    {
      "anonymous": false,
      "inputs": [
        {
          "indexed": false,
          "internalType": "uint64",
          "name": "version",
          "type": "uint64"
        }
      ],
      "name": "Initialized",
      "type": "event"
    },
    {
      "anonymous": false,
      "inputs": [
        {
          "indexed": false,
          "internalType": "uint256",
          "name": "oldMCR",
          "type": "uint256"
        },
        {
          "indexed": false,
          "internalType": "uint256",
          "name": "newMCR",
          "type": "uint256"
        }
      ],
      "name": "MCRChanged",
      "type": "event"
    },
    {
      "anonymous": false,
      "inputs": [
        {
          "indexed": false,
          "internalType": "uint256",
          "name": "oldMinNet",
          "type": "uint256"
        },
        {
          "indexed": false,
          "internalType": "uint256",
          "name": "newMinNet",
          "type": "uint256"
        }
      ],
      "name": "MinNetDebtChanged",
      "type": "event"
    },
    {
      "anonymous": false,
      "inputs": [
        {
          "indexed": false,
          "internalType": "uint256",
          "name": "oldMintCap",
          "type": "uint256"
        },
        {
          "indexed": false,
          "internalType": "uint256",
          "name": "newMintCap",
          "type": "uint256"
        }
      ],
      "name": "MintCapChanged",
      "type": "event"
    },
    {
      "anonymous": false,
      "inputs": [
        {
          "indexed": true,
          "internalType": "address",
          "name": "previousOwner",
          "type": "address"
        },
        {
          "indexed": true,
          "internalType": "address",
          "name": "newOwner",
          "type": "address"
        }
      ],
      "name": "OwnershipTransferred",
      "type": "event"
    },
    {
      "anonymous": false,
      "inputs": [
        {
          "indexed": false,
          "internalType": "uint256",
          "name": "oldPercentDiv",
          "type": "uint256"
        },
        {
          "indexed": false,
          "internalType": "uint256",
          "name": "newPercentDiv",
          "type": "uint256"
        }
      ],
      "name": "PercentDivisorChanged",
      "type": "event"
    },
    {
      "anonymous": false,
      "inputs": [
        {
          "indexed": false,
          "internalType": "address",
          "name": "_collateral",
          "type": "address"
        },
        {
          "indexed": false,
          "internalType": "uint256",
          "name": "_blockTimestamp",
          "type": "uint256"
        }
      ],
      "name": "RedemptionBlockTimestampChanged",
      "type": "event"
    },
    {
      "anonymous": false,
      "inputs": [
        {
          "indexed": false,
          "internalType": "uint256",
          "name": "oldRedemptionFeeFloor",
          "type": "uint256"
        },
        {
          "indexed": false,
          "internalType": "uint256",
          "name": "newRedemptionFeeFloor",
          "type": "uint256"
        }
      ],
      "name": "RedemptionFeeFloorChanged",
      "type": "event"
    },
    {
      "anonymous": false,
      "inputs": [
        {
          "indexed": true,
          "internalType": "address",
          "name": "implementation",
          "type": "address"
        }
      ],
      "name": "Upgraded",
      "type": "event"
    },
    {
      "inputs": [],
      "name": "BORROWING_FEE_DEFAULT",
      "outputs": [
        {
          "internalType": "uint256",
          "name": "",
          "type": "uint256"
        }
      ],
      "stateMutability": "view",
      "type": "function"
    },
    {
      "inputs": [],
      "name": "CCR_DEFAULT",
      "outputs": [
        {
          "internalType": "uint256",
          "name": "",
          "type": "uint256"
        }
      ],
      "stateMutability": "view",
      "type": "function"
    },
    {
      "inputs": [],
      "name": "DECIMAL_PRECISION",
      "outputs": [
        {
          "internalType": "uint256",
          "name": "",
          "type": "uint256"
        }
      ],
      "stateMutability": "view",
      "type": "function"
    },
    {
      "inputs": [],
      "name": "MCR_DEFAULT",
      "outputs": [
        {
          "internalType": "uint256",
          "name": "",
          "type": "uint256"
        }
      ],
      "stateMutability": "view",
      "type": "function"
    },
    {
      "inputs": [],
      "name": "MINT_CAP_DEFAULT",
      "outputs": [
        {
          "internalType": "uint256",
          "name": "",
          "type": "uint256"
        }
      ],
      "stateMutability": "view",
      "type": "function"
    },
    {
      "inputs": [],
      "name": "MIN_NET_DEBT_DEFAULT",
      "outputs": [
        {
          "internalType": "uint256",
          "name": "",
          "type": "uint256"
        }
      ],
      "stateMutability": "view",
      "type": "function"
    },
    {
      "inputs": [],
      "name": "NAME",
      "outputs": [
        {
          "internalType": "string",
          "name": "",
          "type": "string"
        }
      ],
      "stateMutability": "view",
      "type": "function"
    },
    {
      "inputs": [],
      "name": "PERCENT_DIVISOR_DEFAULT",
      "outputs": [
        {
          "internalType": "uint256",
          "name": "",
          "type": "uint256"
        }
      ],
      "stateMutability": "view",
      "type": "function"
    },
    {
      "inputs": [],
      "name": "REDEMPTION_BLOCK_TIMESTAMP_DEFAULT",
      "outputs": [
        {
          "internalType": "uint256",
          "name": "",
          "type": "uint256"
        }
      ],
      "stateMutability": "view",
      "type": "function"
    },
    {
      "inputs": [],
      "name": "REDEMPTION_FEE_FLOOR_DEFAULT",
      "outputs": [
        {
          "internalType": "uint256",
          "name": "",
          "type": "uint256"
        }
      ],
      "stateMutability": "view",
      "type": "function"
    },
    {
      "inputs": [],
      "name": "UPGRADE_INTERFACE_VERSION",
      "outputs": [
        {
          "internalType": "string",
          "name": "",
          "type": "string"
        }
      ],
      "stateMutability": "view",
      "type": "function"
    },
    {
      "inputs": [],
      "name": "_100pct",
      "outputs": [
        {
          "internalType": "uint256",
          "name": "",
          "type": "uint256"
        }
      ],
      "stateMutability": "view",
      "type": "function"
    },
    {
      "inputs": [],
      "name": "activePool",
      "outputs": [
        {
          "internalType": "address",
          "name": "",
          "type": "address"
        }
      ],
      "stateMutability": "view",
      "type": "function"
    },
    {
      "inputs": [
        {
          "internalType": "address",
          "name": "_collateral",
          "type": "address"
        },
        {
          "internalType": "uint256",
          "name": "_debtTokenGasCompensation",
          "type": "uint256"
        },
        {
          "internalType": "uint256",
          "name": "_decimals",
          "type": "uint256"
        }
      ],
      "name": "addNewCollateral",
      "outputs": [],
      "stateMutability": "nonpayable",
      "type": "function"
    },
    {
      "inputs": [],
      "name": "adminContract",
      "outputs": [
        {
          "internalType": "address",
          "name": "",
          "type": "address"
        }
      ],
      "stateMutability": "view",
      "type": "function"
    },
    {
      "inputs": [
        {
          "internalType": "address",
          "name": "newImplementation",
          "type": "address"
        }
      ],
      "name": "authorizeUpgrade",
      "outputs": [],
      "stateMutability": "nonpayable",
      "type": "function"
    },
    {
      "inputs": [],
      "name": "borrowerOperations",
      "outputs": [
        {
          "internalType": "address",
          "name": "",
          "type": "address"
        }
      ],
      "stateMutability": "view",
      "type": "function"
    },
    {
      "inputs": [],
      "name": "collSurplusPool",
      "outputs": [
        {
          "internalType": "address",
          "name": "",
          "type": "address"
        }
      ],
      "stateMutability": "view",
      "type": "function"
    },
    {
      "inputs": [],
      "name": "communityIssuance",
      "outputs": [
        {
          "internalType": "address",
          "name": "",
          "type": "address"
        }
      ],
      "stateMutability": "view",
      "type": "function"
    },
    {
      "inputs": [],
      "name": "debtToken",
      "outputs": [
        {
          "internalType": "address",
          "name": "",
          "type": "address"
        }
      ],
      "stateMutability": "view",
      "type": "function"
    },
    {
      "inputs": [],
      "name": "defaultPool",
      "outputs": [
        {
          "internalType": "address",
          "name": "",
          "type": "address"
        }
      ],
      "stateMutability": "view",
      "type": "function"
    },
    {
      "inputs": [],
      "name": "feeCollector",
      "outputs": [
        {
          "internalType": "address",
          "name": "",
          "type": "address"
        }
      ],
      "stateMutability": "view",
      "type": "function"
    },
    {
      "inputs": [],
      "name": "gasPoolAddress",
      "outputs": [
        {
          "internalType": "address",
          "name": "",
          "type": "address"
        }
      ],
      "stateMutability": "view",
      "type": "function"
    },
    {
      "inputs": [
        {
          "internalType": "address",
          "name": "_collateral",
          "type": "address"
        }
      ],
      "name": "getBorrowingFee",
      "outputs": [
        {
          "internalType": "uint256",
          "name": "",
          "type": "uint256"
        }
      ],
      "stateMutability": "view",
      "type": "function"
    },
    {
      "inputs": [
        {
          "internalType": "address",
          "name": "_collateral",
          "type": "address"
        }
      ],
      "name": "getCcr",
      "outputs": [
        {
          "internalType": "uint256",
          "name": "",
          "type": "uint256"
        }
      ],
      "stateMutability": "view",
      "type": "function"
    },
    {
      "inputs": [
        {
          "internalType": "address",
          "name": "_collateral",
          "type": "address"
        }
      ],
      "name": "getDebtTokenGasCompensation",
      "outputs": [
        {
          "internalType": "uint256",
          "name": "",
          "type": "uint256"
        }
      ],
      "stateMutability": "view",
      "type": "function"
    },
    {
      "inputs": [
        {
          "internalType": "address",
          "name": "_collateral",
          "type": "address"
        }
      ],
      "name": "getDecimals",
      "outputs": [
        {
          "internalType": "uint256",
          "name": "",
          "type": "uint256"
        }
      ],
      "stateMutability": "view",
      "type": "function"
    },
    {
      "inputs": [
        {
          "internalType": "address",
          "name": "_collateral",
          "type": "address"
        }
      ],
      "name": "getIndex",
      "outputs": [
        {
          "internalType": "uint256",
          "name": "",
          "type": "uint256"
        }
      ],
      "stateMutability": "view",
      "type": "function"
    },
    {
      "inputs": [
        {
          "internalType": "address[]",
          "name": "_colls",
          "type": "address[]"
        }
      ],
      "name": "getIndices",
      "outputs": [
        {
          "internalType": "uint256[]",
          "name": "indices",
          "type": "uint256[]"
        }
      ],
      "stateMutability": "view",
      "type": "function"
    },
    {
      "inputs": [
        {
          "internalType": "address",
          "name": "_collateral",
          "type": "address"
        }
      ],
      "name": "getIsActive",
      "outputs": [
        {
          "internalType": "bool",
          "name": "",
          "type": "bool"
        }
      ],
      "stateMutability": "view",
      "type": "function"
    },
    {
      "inputs": [
        {
          "internalType": "address",
          "name": "_collateral",
          "type": "address"
        }
      ],
      "name": "getMcr",
      "outputs": [
        {
          "internalType": "uint256",
          "name": "",
          "type": "uint256"
        }
      ],
      "stateMutability": "view",
      "type": "function"
    },
    {
      "inputs": [
        {
          "internalType": "address",
          "name": "_collateral",
          "type": "address"
        }
      ],
      "name": "getMinNetDebt",
      "outputs": [
        {
          "internalType": "uint256",
          "name": "",
          "type": "uint256"
        }
      ],
      "stateMutability": "view",
      "type": "function"
    },
    {
      "inputs": [
        {
          "internalType": "address",
          "name": "_collateral",
          "type": "address"
        }
      ],
      "name": "getMintCap",
      "outputs": [
        {
          "internalType": "uint256",
          "name": "",
          "type": "uint256"
        }
      ],
      "stateMutability": "view",
      "type": "function"
    },
    {
      "inputs": [
        {
          "internalType": "address",
          "name": "_collateral",
          "type": "address"
        }
      ],
      "name": "getPercentDivisor",
      "outputs": [
        {
          "internalType": "uint256",
          "name": "",
          "type": "uint256"
        }
      ],
      "stateMutability": "view",
      "type": "function"
    },
    {
      "inputs": [
        {
          "internalType": "address",
          "name": "_collateral",
          "type": "address"
        }
      ],
      "name": "getRedemptionBlockTimestamp",
      "outputs": [
        {
          "internalType": "uint256",
          "name": "",
          "type": "uint256"
        }
      ],
      "stateMutability": "view",
      "type": "function"
    },
    {
      "inputs": [
        {
          "internalType": "address",
          "name": "_collateral",
          "type": "address"
        }
      ],
      "name": "getRedemptionFeeFloor",
      "outputs": [
        {
          "internalType": "uint256",
          "name": "",
          "type": "uint256"
        }
      ],
      "stateMutability": "view",
      "type": "function"
    },
    {
      "inputs": [
        {
          "internalType": "address",
          "name": "_asset",
          "type": "address"
        }
      ],
      "name": "getTotalAssetDebt",
      "outputs": [
        {
          "internalType": "uint256",
          "name": "",
          "type": "uint256"
        }
      ],
      "stateMutability": "view",
      "type": "function"
    },
    {
      "inputs": [],
      "name": "getValidCollateral",
      "outputs": [
        {
          "internalType": "address[]",
          "name": "",
          "type": "address[]"
        }
      ],
      "stateMutability": "view",
      "type": "function"
    },
    {
      "inputs": [],
      "name": "initialize",
      "outputs": [],
      "stateMutability": "nonpayable",
      "type": "function"
    },
    {
      "inputs": [],
      "name": "isAddressSetupInitialized",
      "outputs": [
        {
          "internalType": "bool",
          "name": "",
          "type": "bool"
        }
      ],
      "stateMutability": "view",
      "type": "function"
    },
    {
      "inputs": [],
      "name": "isSetupInitialized",
      "outputs": [
        {
          "internalType": "bool",
          "name": "",
          "type": "bool"
        }
      ],
      "stateMutability": "view",
      "type": "function"
    },
    {
      "inputs": [],
      "name": "owner",
      "outputs": [
        {
          "internalType": "address",
          "name": "",
          "type": "address"
        }
      ],
      "stateMutability": "view",
      "type": "function"
    },
    {
      "inputs": [],
      "name": "priceFeed",
      "outputs": [
        {
          "internalType": "address",
          "name": "",
          "type": "address"
        }
      ],
      "stateMutability": "view",
      "type": "function"
    },
    {
      "inputs": [],
      "name": "proxiableUUID",
      "outputs": [
        {
          "internalType": "bytes32",
          "name": "",
          "type": "bytes32"
        }
      ],
      "stateMutability": "view",
      "type": "function"
    },
    {
      "inputs": [],
      "name": "renounceOwnership",
      "outputs": [],
      "stateMutability": "nonpayable",
      "type": "function"
    },
    {
      "inputs": [
        {
          "internalType": "address[]",
          "name": "_addresses",
          "type": "address[]"
        }
      ],
      "name": "setAddresses",
      "outputs": [],
      "stateMutability": "nonpayable",
      "type": "function"
    },
    {
      "inputs": [
        {
          "internalType": "address",
          "name": "_collateral",
          "type": "address"
        },
        {
          "internalType": "uint256",
          "name": "borrowingFee",
          "type": "uint256"
        }
      ],
      "name": "setBorrowingFee",
      "outputs": [],
      "stateMutability": "nonpayable",
      "type": "function"
    },
    {
      "inputs": [
        {
          "internalType": "address",
          "name": "_collateral",
          "type": "address"
        },
        {
          "internalType": "uint256",
          "name": "newCCR",
          "type": "uint256"
        }
      ],
      "name": "setCCR",
      "outputs": [],
      "stateMutability": "nonpayable",
      "type": "function"
    },
    {
      "inputs": [
        {
          "internalType": "address",
          "name": "_collateral",
          "type": "address"
        },
        {
          "internalType": "uint256",
          "name": "borrowingFee",
          "type": "uint256"
        },
        {
          "internalType": "uint256",
          "name": "ccr",
          "type": "uint256"
        },
        {
          "internalType": "uint256",
          "name": "mcr",
          "type": "uint256"
        },
        {
          "internalType": "uint256",
          "name": "minNetDebt",
          "type": "uint256"
        },
        {
          "internalType": "uint256",
          "name": "mintCap",
          "type": "uint256"
        },
        {
          "internalType": "uint256",
          "name": "percentDivisor",
          "type": "uint256"
        },
        {
          "internalType": "uint256",
          "name": "redemptionFeeFloor",
          "type": "uint256"
        }
      ],
      "name": "setCollateralParameters",
      "outputs": [],
      "stateMutability": "nonpayable",
      "type": "function"
    },
    {
      "inputs": [
        {
          "internalType": "address",
          "name": "_communityIssuance",
          "type": "address"
        }
      ],
      "name": "setCommunityIssuance",
      "outputs": [],
      "stateMutability": "nonpayable",
      "type": "function"
    },
    {
      "inputs": [
        {
          "internalType": "address",
          "name": "_collateral",
          "type": "address"
        },
        {
          "internalType": "bool",
          "name": "_active",
          "type": "bool"
        }
      ],
      "name": "setIsActive",
      "outputs": [],
      "stateMutability": "nonpayable",
      "type": "function"
    },
    {
      "inputs": [
        {
          "internalType": "address",
          "name": "_collateral",
          "type": "address"
        },
        {
          "internalType": "uint256",
          "name": "newMCR",
          "type": "uint256"
        }
      ],
      "name": "setMCR",
      "outputs": [],
      "stateMutability": "nonpayable",
      "type": "function"
    },
    {
      "inputs": [
        {
          "internalType": "address",
          "name": "_collateral",
          "type": "address"
        },
        {
          "internalType": "uint256",
          "name": "minNetDebt",
          "type": "uint256"
        }
      ],
      "name": "setMinNetDebt",
      "outputs": [],
      "stateMutability": "nonpayable",
      "type": "function"
    },
    {
      "inputs": [
        {
          "internalType": "address",
          "name": "_collateral",
          "type": "address"
        },
        {
          "internalType": "uint256",
          "name": "mintCap",
          "type": "uint256"
        }
      ],
      "name": "setMintCap",
      "outputs": [],
      "stateMutability": "nonpayable",
      "type": "function"
    },
    {
      "inputs": [
        {
          "internalType": "address",
          "name": "_collateral",
          "type": "address"
        },
        {
          "internalType": "uint256",
          "name": "percentDivisor",
          "type": "uint256"
        }
      ],
      "name": "setPercentDivisor",
      "outputs": [],
      "stateMutability": "nonpayable",
      "type": "function"
    },
    {
      "inputs": [
        {
          "internalType": "address",
          "name": "_collateral",
          "type": "address"
        },
        {
          "internalType": "uint256",
          "name": "_blockTimestamp",
          "type": "uint256"
        }
      ],
      "name": "setRedemptionBlockTimestamp",
      "outputs": [],
      "stateMutability": "nonpayable",
      "type": "function"
    },
    {
      "inputs": [
        {
          "internalType": "address",
          "name": "_collateral",
          "type": "address"
        },
        {
          "internalType": "uint256",
          "name": "redemptionFeeFloor",
          "type": "uint256"
        }
      ],
      "name": "setRedemptionFeeFloor",
      "outputs": [],
      "stateMutability": "nonpayable",
      "type": "function"
    },
    {
      "inputs": [],
      "name": "setSetupIsInitialized",
      "outputs": [],
      "stateMutability": "nonpayable",
      "type": "function"
    },
    {
      "inputs": [
        {
          "internalType": "address",
          "name": "_trenStaking",
          "type": "address"
        }
      ],
      "name": "setTRENStaking",
      "outputs": [],
      "stateMutability": "nonpayable",
      "type": "function"
    },
    {
      "inputs": [],
      "name": "sortedTrenBoxes",
      "outputs": [
        {
          "internalType": "address",
          "name": "",
          "type": "address"
        }
      ],
      "stateMutability": "view",
      "type": "function"
    },
    {
      "inputs": [],
      "name": "stabilityPool",
      "outputs": [
        {
          "internalType": "address",
          "name": "",
          "type": "address"
        }
      ],
      "stateMutability": "view",
      "type": "function"
    },
    {
      "inputs": [],
      "name": "timelockAddress",
      "outputs": [
        {
          "internalType": "address",
          "name": "",
          "type": "address"
        }
      ],
      "stateMutability": "view",
      "type": "function"
    },
    {
      "inputs": [
        {
          "internalType": "address",
          "name": "newOwner",
          "type": "address"
        }
      ],
      "name": "transferOwnership",
      "outputs": [],
      "stateMutability": "nonpayable",
      "type": "function"
    },
    {
      "inputs": [],
      "name": "treasuryAddress",
      "outputs": [
        {
          "internalType": "address",
          "name": "",
          "type": "address"
        }
      ],
      "stateMutability": "view",
      "type": "function"
    },
    {
      "inputs": [],
      "name": "trenBoxManager",
      "outputs": [
        {
          "internalType": "address",
          "name": "",
          "type": "address"
        }
      ],
      "stateMutability": "view",
      "type": "function"
    },
    {
      "inputs": [],
      "name": "trenBoxManagerOperations",
      "outputs": [
        {
          "internalType": "address",
          "name": "",
          "type": "address"
        }
      ],
      "stateMutability": "view",
      "type": "function"
    },
    {
      "inputs": [],
      "name": "trenStaking",
      "outputs": [
        {
          "internalType": "address",
          "name": "",
          "type": "address"
        }
      ],
      "stateMutability": "view",
      "type": "function"
    },
    {
      "inputs": [
        {
          "internalType": "address",
          "name": "newImplementation",
          "type": "address"
        },
        {
          "internalType": "bytes",
          "name": "data",
          "type": "bytes"
        }
      ],
      "name": "upgradeToAndCall",
      "outputs": [],
      "stateMutability": "payable",
      "type": "function"
    },
    {
      "inputs": [
        {
          "internalType": "uint256",
          "name": "",
          "type": "uint256"
        }
      ],
      "name": "validCollateral",
      "outputs": [
        {
          "internalType": "address",
          "name": "",
          "type": "address"
        }
      ],
      "stateMutability": "view",
      "type": "function"
    }
  ],
  "transactionHash": "0xbd69456e93650c8d1b975055e35dd4cfc415352d32f9fba55073f24efcb36fce",
  "args": [],
  "numDeployments": 1,
  "solcInputHash": "e6971fb87a17deef3641f1719687e39f",
  "bytecode": "0x60a06040523060805234801561001457600080fd5b5060805161329961003e600039600081816128bd015281816128e60152612a2c01526132996000f3fe6080604052600436106103fa5760003560e01c806391bbfd0d11610213578063c08261db11610123578063f1c05a7e116100ab578063f73acf6a1161007a578063f73acf6a14610cb3578063f7e37b8d14610cd3578063f8d8989814610cef578063fe06073314610d0f578063fe9d032314610d2f57600080fd5b8063f1c05a7e14610c1d578063f2ecdcae14610c3d578063f2fde38b14610c5a578063f454249414610c7a57600080fd5b8063c8564c62116100f2578063c8564c6214610b87578063cc8b21e414610ba8578063cda775f914610bc8578063cf54aaa014610be8578063e8ff898614610c0857600080fd5b8063c08261db14610aee578063c0c067a414610b27578063c415b95c14610b47578063c5f956af14610b6757600080fd5b8063a72bd4e8116101a6578063af7047d811610175578063af7047d814610a35578063b31610db14610a6e578063b957172114610a8e578063c05c5e9414610aae578063c06abe7714610ace57600080fd5b8063a72bd4e8146109ae578063a80f9aee146109c4578063ad3cb1cc146109e4578063aebe1ccb14610a1557600080fd5b8063a142f35a116101e2578063a142f35a1461094e578063a17e64cc146108a3578063a20baee614610711578063a3f4df7e1461096857600080fd5b806391bbfd0d146108be57806395fb16bb146108f75780639d6aea0a146109175780639d8d5a171461093957600080fd5b806355dafa461161030e57806378aaf4de116102a15780638129fc1c116102705780638129fc1c1461082057806386d10e8c1461083557806388ecb0db1461086e5780638da5cb5b1461088e57806390b988c6146108a357600080fd5b806378aaf4de1461078d5780637a305122146107c65780637c120312146107e45780637f7dde4a1461080057600080fd5b806372fe25aa116102dd57806372fe25aa14610711578063741bef1a1461072d57806375e1c3d81461074d57806377553ad41461076d57600080fd5b806355dafa461461068357806362d460da146106a35780636a85d67d146106dc578063715018a6146106fc57600080fd5b80632a6e7603116103915780633f8f5f42116103605780633f8f5f42146105e2578063443c4fcb146106025780634bc66f321461063b5780634f1ef2861461065b57806352d1902d1461066e57600080fd5b80632a6e76031461053c5780632d79b8eb1461055c578063300581d9146105895780633cc74225146105c257600080fd5b80630e8dfa81116103cd5780630e8dfa811461049e5780630fe66cdd146104be57806317ae1fc5146104de57806318a151131461050e57600080fd5b806301c93100146103ff578063048c661d146104215780630a34d4d61461045e5780630bc028c21461047e575b600080fd5b34801561040b57600080fd5b5061041f61041a366004612d39565b610d4f565b005b34801561042d57600080fd5b50600c54610441906001600160a01b031681565b6040516001600160a01b0390911681526020015b60405180910390f35b34801561046a57600080fd5b50601054610441906001600160a01b031681565b34801561048a57600080fd5b5061041f610499366004612d54565b610d79565b3480156104aa57600080fd5b5061041f6104b9366004612d54565b610f07565b3480156104ca57600080fd5b5061041f6104d9366004612d7e565b61108b565b3480156104ea57600080fd5b506104fe6104f9366004612d39565b61112d565b6040519015158152602001610455565b34801561051a57600080fd5b5061052e610529366004612d39565b61115c565b604051908152602001610455565b34801561054857600080fd5b50610441610557366004612dba565b611249565b34801561056857600080fd5b5061057c610577366004612e1a565b611273565b6040516104559190612ec7565b34801561059557600080fd5b5061052e6105a4366004612d39565b6001600160a01b031660009081526032602052604090206003015490565b3480156105ce57600080fd5b50600654610441906001600160a01b031681565b3480156105ee57600080fd5b5061041f6105fd366004612d54565b611358565b34801561060e57600080fd5b5061052e61061d366004612d39565b6001600160a01b03166000908152603260205260409020600a015490565b34801561064757600080fd5b50600d54610441906001600160a01b031681565b61041f610669366004612f0b565b6114cc565b34801561067a57600080fd5b5061052e6114eb565b34801561068f57600080fd5b50600954610441906001600160a01b031681565b3480156106af57600080fd5b5061052e6106be366004612d39565b6001600160a01b031660009081526032602052604090206004015490565b3480156106e857600080fd5b5061041f6106f7366004612d39565b611508565b34801561070857600080fd5b5061041f611532565b34801561071d57600080fd5b5061052e670de0b6b3a764000081565b34801561073957600080fd5b50600a54610441906001600160a01b031681565b34801561075957600080fd5b5061041f610768366004612d54565b611546565b34801561077957600080fd5b50600254610441906001600160a01b031681565b34801561079957600080fd5b5061052e6107a8366004612d39565b6001600160a01b031660009081526032602052604090206005015490565b3480156107d257600080fd5b5061052e69d3c21bcecceda100000081565b3480156107f057600080fd5b5061052e670f43fc2c04ee000081565b34801561080c57600080fd5b50600054610441906001600160a01b031681565b34801561082c57600080fd5b5061041f6116b7565b34801561084157600080fd5b5061052e610850366004612d39565b6001600160a01b031660009081526032602052604090206007015490565b34801561087a57600080fd5b5061041f610889366004612d54565b6117d0565b34801561089a57600080fd5b50610441611944565b3480156108af57600080fd5b5061052e6611c37937e0800081565b3480156108ca57600080fd5b5061052e6108d9366004612d39565b6001600160a01b031660009081526032602052604090206008015490565b34801561090357600080fd5b50600454610441906001600160a01b031681565b34801561092357600080fd5b5061092c611972565b6040516104559190612fb1565b34801561094557600080fd5b5061052e60c881565b34801561095a57600080fd5b506034546104fe9060ff1681565b34801561097457600080fd5b506109a16040518060400160405280600d81526020016c10591b5a5b90dbdb9d1c9858dd609a1b81525081565b6040516104559190613042565b3480156109ba57600080fd5b5061052e60001981565b3480156109d057600080fd5b5061041f6109df366004612d54565b6119d4565b3480156109f057600080fd5b506109a1604051806040016040528060058152602001640352e302e360dc1b81525081565b348015610a2157600080fd5b5061041f610a30366004612d54565b611b4a565b348015610a4157600080fd5b5061052e610a50366004612d39565b6001600160a01b031660009081526032602052604090206009015490565b348015610a7a57600080fd5b5061052e610a89366004612d39565b611c19565b348015610a9a57600080fd5b5061041f610aa9366004613055565b611c45565b348015610aba57600080fd5b50600154610441906001600160a01b031681565b348015610ada57600080fd5b5061041f610ae9366004612d54565b6121bf565b348015610afa57600080fd5b5061052e610b09366004612d39565b6001600160a01b031660009081526032602052604090206006015490565b348015610b3357600080fd5b5061041f610b423660046130ca565b612299565b348015610b5357600080fd5b50600754610441906001600160a01b031681565b348015610b7357600080fd5b50600e54610441906001600160a01b031681565b348015610b9357600080fd5b506010546104fe90600160a01b900460ff1681565b348015610bb457600080fd5b50600b54610441906001600160a01b031681565b348015610bd457600080fd5b50600354610441906001600160a01b031681565b348015610bf457600080fd5b5061052e610c03366004612d39565b612383565b348015610c1457600080fd5b5061041f6123ac565b348015610c2957600080fd5b50600f54610441906001600160a01b031681565b348015610c4957600080fd5b5061052e686c6b935b8bbd40000081565b348015610c6657600080fd5b5061041f610c75366004612d39565b61242f565b348015610c8657600080fd5b5061052e610c95366004612d39565b6001600160a01b03166000908152603260205260409020600b015490565b348015610cbf57600080fd5b5061041f610cce366004613126565b61246d565b348015610cdf57600080fd5b5061052e6714d1120d7b16000081565b348015610cfb57600080fd5b50600554610441906001600160a01b031681565b348015610d1b57600080fd5b5061041f610d2a366004612d39565b61280d565b348015610d3b57600080fd5b50600854610441906001600160a01b031681565b610d57612816565b600980546001600160a01b0319166001600160a01b0392909216919091179055565b60345460ff1615610db457600d546001600160a01b03163314610daf57604051631dc5ba9560e01b815260040160405180910390fd5b610ded565b610dbc611944565b6001600160a01b0316336001600160a01b031614610ded5760405163ec4adddf60e01b815260040160405180910390fd5b604080518082018252600c81526b135a5b8813995d081119589d60a21b6020808301919091526001600160a01b038516600090815260329091529182206002015490918491849190686c6b935b8bbd4000009060ff16610e685760405162461bcd60e51b8152600401610e5f90613159565b60405180910390fd5b81831080610e7557508083115b15610e9b5784838383604051630714ded760e31b8152600401610e5f94939291906131b6565b6001600160a01b038716600090815260326020908152604091829020600781018054908a905583518181529283018a9052909290917f794abdbe21b3b4556467be6af2b2d5e75ae16613bd128dbd47c3727bd52b4b5591015b60405180910390a1505050505050505050565b60345460ff1615610f4257600d546001600160a01b03163314610f3d57604051631dc5ba9560e01b815260040160405180910390fd5b610f7b565b610f4a611944565b6001600160a01b0316336001600160a01b031614610f7b5760405163ec4adddf60e01b815260040160405180910390fd5b60408051808201825260148152732932b232b6b83a34b7b7102332b290233637b7b960611b6020808301919091526001600160a01b0385166000908152603290915291909120600201548390839066038d7ea4c680009067016345785d8a00009060ff16610ffb5760405162461bcd60e51b8152600401610e5f90613159565b8183108061100857508083115b1561102e5784838383604051630714ded760e31b8152600401610e5f94939291906131b6565b6001600160a01b038716600090815260326020908152604091829020600a81018054908a905583518181529283018a9052909290917fbb07ced1b1536afc600a5d97cba6e4b294731026286cddc33b98cb2d18569ab79101610ef4565b60345460ff16156110c657600d546001600160a01b031633146110c157604051631dc5ba9560e01b815260040160405180910390fd5b6110ff565b6110ce611944565b6001600160a01b0316336001600160a01b0316146110ff5760405163ec4adddf60e01b815260040160405180910390fd5b6001600160a01b03919091166000908152603260205260409020600201805460ff1916911515919091179055565b60008161113981612848565b50506001600160a01b031660009081526032602052604090206002015460ff1690565b60065460405163c5739d0b60e01b81526001600160a01b038381166004830152600092169063c5739d0b90602401602060405180830381865afa1580156111a7573d6000803e3d6000fd5b505050506040513d601f19601f820116820180604052508101906111cb91906131e5565b60005460405163c5739d0b60e01b81526001600160a01b0385811660048301529091169063c5739d0b90602401602060405180830381865afa158015611215573d6000803e3d6000fd5b505050506040513d601f19601f8201168201806040525081019061123991906131e5565b6112439190613214565b92915050565b6033818154811061125957600080fd5b6000918252602090912001546001600160a01b0316905081565b80516060908067ffffffffffffffff81111561129157611291612dd3565b6040519080825280602002602001820160405280156112ba578160200160208202803683370190505b50915060005b81811015611351576112ea8482815181106112dd576112dd613227565b6020026020010151612848565b6032600085838151811061130057611300613227565b60200260200101516001600160a01b03166001600160a01b031681526020019081526020016000206001015483828151811061133e5761133e613227565b60209081029190910101526001016112c0565b5050919050565b60345460ff161561139357600d546001600160a01b0316331461138e57604051631dc5ba9560e01b815260040160405180910390fd5b6113cc565b61139b611944565b6001600160a01b0316336001600160a01b0316146113cc5760405163ec4adddf60e01b815260040160405180910390fd5b604080518082018252600381526221a1a960e91b6020808301919091526001600160a01b03851660009081526032909152919091206002015483908390670de0b6b3a764000090678ac7230489e800009060ff1661143c5760405162461bcd60e51b8152600401610e5f90613159565b8183108061144957508083115b1561146f5784838383604051630714ded760e31b8152600401610e5f94939291906131b6565b6001600160a01b038716600090815260326020908152604091829020600481018054908a905583518181529283018a9052909290917f8fef8cb3d376ea764ea9e41cc4380bb23ed262ed1883cfd0ee00f4b08a288b699101610ef4565b6114d46128b2565b6114dd82612957565b6114e7828261295f565b5050565b60006114f5612a21565b5060008051602061326d83398151915290565b611510612816565b600480546001600160a01b0319166001600160a01b0392909216919091179055565b61153a612816565b6115446000612a6a565b565b60345460ff161561158157600d546001600160a01b0316331461157c57604051631dc5ba9560e01b815260040160405180910390fd5b6115ba565b611589611944565b6001600160a01b0316336001600160a01b0316146115ba5760405163ec4adddf60e01b815260040160405180910390fd5b604080518082018252600f81526e2832b931b2b73a102234bb34b9b7b960891b6020808301919091526001600160a01b03851660009081526032909152919091206002908101548491849160c89060ff166116275760405162461bcd60e51b8152600401610e5f90613159565b8183108061163457508083115b1561165a5784838383604051630714ded760e31b8152600401610e5f94939291906131b6565b6001600160a01b038716600090815260326020908152604091829020600981018054908a905583518181529283018a9052909290917fdfb04317e088794badba78956b7c092fac7986add660c0fc3d01569808c32b369101610ef4565b7ff0c57e16840df040f15088dc2f81fe391c3923bec73e23a9662efc9c229c6a008054600160401b810460ff16159067ffffffffffffffff166000811580156116fd5750825b905060008267ffffffffffffffff16600114801561171a5750303b155b905081158015611728575080155b156117465760405163f92ee8a960e01b815260040160405180910390fd5b845467ffffffffffffffff19166001178555831561177057845460ff60401b1916600160401b1785555b3361177a81612adb565b611782612aec565b5083156117c957845460ff60401b19168555604051600181527fc7f505b2f371ae2175ee4913f4499e1f2633a7b5936321eed1cdaeb6115181d29060200160405180910390a15b5050505050565b60345460ff161561180b57600d546001600160a01b0316331461180657604051631dc5ba9560e01b815260040160405180910390fd5b611844565b611813611944565b6001600160a01b0316336001600160a01b0316146118445760405163ec4adddf60e01b815260040160405180910390fd5b604080518082018252600381526226a1a960e91b6020808301919091526001600160a01b03851660009081526032909152919091206002015483908390670e043da61725000090678ac7230489e800009060ff166118b45760405162461bcd60e51b8152600401610e5f90613159565b818310806118c157508083115b156118e75784838383604051630714ded760e31b8152600401610e5f94939291906131b6565b6001600160a01b038716600090815260326020908152604091829020600581018054908a905583518181529283018a9052909290917fefeb589e088ecf2bc2a0b6d364f91a4fee37ee6b9c6f089c71169e86f03dc9449101610ef4565b7f9016d09d72d40fdae2fd8ceac6b6234c7706214fd39c1cd1e609a0528c199300546001600160a01b031690565b606060338054806020026020016040519081016040528092919081815260200182805480156119ca57602002820191906000526020600020905b81546001600160a01b031681526001909101906020018083116119ac575b5050505050905090565b60345460ff1615611a0f57600d546001600160a01b03163314611a0a57604051631dc5ba9560e01b815260040160405180910390fd5b611a48565b611a17611944565b6001600160a01b0316336001600160a01b031614611a485760405163ec4adddf60e01b815260040160405180910390fd5b604080518082018252600d81526c426f72726f77696e672046656560981b6020808301919091526001600160a01b03851660009081526032909152918220600201549091849184919067016345785d8a00009060ff16611aba5760405162461bcd60e51b8152600401610e5f90613159565b81831080611ac757508083115b15611aed5784838383604051630714ded760e31b8152600401610e5f94939291906131b6565b6001600160a01b038716600090815260326020908152604091829020600381018054908a905583518181529283018a9052909290917fa7beab75e7a7d89dcacb5a82b33606192c31b8bbc1868c5240f95abcd95bbeee9101610ef4565b60345460ff1615611b8557600d546001600160a01b03163314611b8057604051631dc5ba9560e01b815260040160405180910390fd5b611bbe565b611b8d611944565b6001600160a01b0316336001600160a01b031614611bbe5760405163ec4adddf60e01b815260040160405180910390fd5b6001600160a01b038216600081815260326020908152604091829020600b01849055815192835282018390527f2f92337ec07da93d49659c3dbafa91599df53c9c9147edcff44eabc99d945950910160405180910390a15050565b600081611c2581612848565b50506001600160a01b031660009081526032602052604090206001015490565b611c4d612816565b601054600160a01b900460ff1615611ca75760405162461bcd60e51b815260206004820152601c60248201527f536574757020697320616c726561647920696e697469616c697a6564000000006044820152606401610e5f565b600f8114611cf75760405162461bcd60e51b815260206004820152601e60248201527f45787065637465642031352061646472657373657320617420736574757000006044820152606401610e5f565b60005b600f811015611d7c576000838383818110611d1757611d17613227565b9050602002016020810190611d2c9190612d39565b6001600160a01b031603611d745760405162461bcd60e51b815260206004820152600f60248201526e496e76616c6964206164647265737360881b6044820152606401610e5f565b600101611cfa565b5081816000818110611d9057611d90613227565b9050602002016020810190611da59190612d39565b600080546001600160a01b0319166001600160a01b039290921691909117905581816001818110611dd857611dd8613227565b9050602002016020810190611ded9190612d39565b600180546001600160a01b0319166001600160a01b039290921691909117905581816002818110611e2057611e20613227565b9050602002016020810190611e359190612d39565b600280546001600160a01b0319166001600160a01b039290921691909117905581816003818110611e6857611e68613227565b9050602002016020810190611e7d9190612d39565b600380546001600160a01b0319166001600160a01b039290921691909117905581816004818110611eb057611eb0613227565b9050602002016020810190611ec59190612d39565b600580546001600160a01b0319166001600160a01b039290921691909117815582908290818110611ef857611ef8613227565b9050602002016020810190611f0d9190612d39565b600680546001600160a01b0319166001600160a01b039290921691909117815582908290818110611f4057611f40613227565b9050602002016020810190611f559190612d39565b600780546001600160a01b0319166001600160a01b039290921691909117815582908290818110611f8857611f88613227565b9050602002016020810190611f9d9190612d39565b600880546001600160a01b0319166001600160a01b039290921691909117815582908290818110611fd057611fd0613227565b9050602002016020810190611fe59190612d39565b600a80546001600160a01b0319166001600160a01b03929092169190911790558181600981811061201857612018613227565b905060200201602081019061202d9190612d39565b600b80546001600160a01b0319166001600160a01b03929092169190911790558181600a81811061206057612060613227565b90506020020160208101906120759190612d39565b600c80546001600160a01b0319166001600160a01b03929092169190911790558181600b8181106120a8576120a8613227565b90506020020160208101906120bd9190612d39565b600d80546001600160a01b0319166001600160a01b03929092169190911790558181600c8181106120f0576120f0613227565b90506020020160208101906121059190612d39565b600e80546001600160a01b0319166001600160a01b03929092169190911790558181600d81811061213857612138613227565b905060200201602081019061214d9190612d39565b600f80546001600160a01b0319166001600160a01b03929092169190911790558181600e81811061218057612180613227565b90506020020160208101906121959190612d39565b601080546001600160a81b0319166001600160a01b039290921691909117600160a01b1790555050565b60345460ff16156121fa57600d546001600160a01b031633146121f557604051631dc5ba9560e01b815260040160405180910390fd5b612233565b612202611944565b6001600160a01b0316336001600160a01b0316146122335760405163ec4adddf60e01b815260040160405180910390fd5b6001600160a01b038216600090815260326020908152604091829020600881018054908590558351818152928301859052909290917f903452cfae6c90575a1e7327283877d56dda9ed43a4711f44bf796e103e4e120910160405180910390a150505050565b60345460ff16156122d457600d546001600160a01b031633146122cf57604051631dc5ba9560e01b815260040160405180910390fd5b61230d565b6122dc611944565b6001600160a01b0316336001600160a01b03161461230d5760405163ec4adddf60e01b815260040160405180910390fd5b6001600160a01b0388166000908152603260205260409020600201805460ff1916600117905561233d88886119d4565b6123478887611358565b61235188866117d0565b61235b8885610d79565b61236588846121bf565b61236f8883611546565b6123798882610f07565b5050505050505050565b60008161238f81612848565b50506001600160a01b031660009081526032602052604090205490565b60345460ff16156123e757600d546001600160a01b031633146123e257604051631dc5ba9560e01b815260040160405180910390fd5b612420565b6123ef611944565b6001600160a01b0316336001600160a01b0316146124205760405163ec4adddf60e01b815260040160405180910390fd5b6034805460ff19166001179055565b612437612816565b6001600160a01b03811661246157604051631e4fbdf760e01b815260006004820152602401610e5f565b61246a81612a6a565b50565b60345460ff16156124a857600d546001600160a01b031633146124a357604051631dc5ba9560e01b815260040160405180910390fd5b6124e1565b6124b0611944565b6001600160a01b0316336001600160a01b0316146124e15760405163ec4adddf60e01b815260040160405180910390fd5b6001600160a01b0383166000908152603260205260409020600501541561254a5760405162461bcd60e51b815260206004820152601960248201527f636f6c6c61746572616c20616c726561647920657869737473000000000000006044820152606401610e5f565b601281146125ad5760405162461bcd60e51b815260206004820152602a60248201527f636f6c6c61746572616c73206d7573742068617665207468652064656661756c6044820152697420646563696d616c7360b01b6064820152608401610e5f565b603380546001808201835560008390527f82a75bdeeae8604d839476ae9efd8b0e15aa447e21bfd7f41283bb54e22c9a8290910180546001600160a01b0319166001600160a01b038716179055604080516101808101909152838152915460208301916126199161323d565b81526020016000151581526020016611c37937e0800081526020016714d1120d7b1600008152602001670f43fc2c04ee00008152602001838152602001686c6b935b8bbd400000815260200169d3c21bcecceda1000000815260200160c881526020016611c37937e08000815260200160001981525060326000856001600160a01b03166001600160a01b03168152602001908152602001600020600082015181600001556020820151816001015560408201518160020160006101000a81548160ff021916908315150217905550606082015181600301556080820151816004015560a0820151816005015560c0820151816006015560e082015181600701556101008201518160080155610120820151816009015561014082015181600a015561016082015181600b0155905050600c60009054906101000a90046001600160a01b03166001600160a01b031663ec0d5e0c846040518263ffffffff1660e01b815260040161279991906001600160a01b0391909116815260200190565b600060405180830381600087803b1580156127b357600080fd5b505af11580156127c7573d6000803e3d6000fd5b50506040516001600160a01b03861681527f7db05e63d635a68c62fd7fd8f3107ae8ab584a383e102d1bd8a40f4c977e465f9250602001905060405180910390a1505050565b61246a81612957565b3361281f611944565b6001600160a01b0316146115445760405163118cdaa760e01b8152336004820152602401610e5f565b6001600160a01b038116600090815260326020526040812060050154900361246a5760405162461bcd60e51b815260206004820152601960248201527f636f6c6c61746572616c20646f6573206e6f74206578697374000000000000006044820152606401610e5f565b306001600160a01b037f000000000000000000000000000000000000000000000000000000000000000016148061293957507f00000000000000000000000000000000000000000000000000000000000000006001600160a01b031661292d60008051602061326d833981519152546001600160a01b031690565b6001600160a01b031614155b156115445760405163703e46dd60e11b815260040160405180910390fd5b61246a612816565b816001600160a01b03166352d1902d6040518163ffffffff1660e01b8152600401602060405180830381865afa9250505080156129b9575060408051601f3d908101601f191682019092526129b6918101906131e5565b60015b6129e157604051634c9c8ce360e01b81526001600160a01b0383166004820152602401610e5f565b60008051602061326d8339815191528114612a1257604051632a87526960e21b815260048101829052602401610e5f565b612a1c8383612af4565b505050565b306001600160a01b037f000000000000000000000000000000000000000000000000000000000000000016146115445760405163703e46dd60e11b815260040160405180910390fd5b7f9016d09d72d40fdae2fd8ceac6b6234c7706214fd39c1cd1e609a0528c19930080546001600160a01b031981166001600160a01b03848116918217845560405192169182907f8be0079c531659141344cd1fd0a4f28419497f9722a3daafe3b4186f6b6457e090600090a3505050565b612ae3612b4a565b61246a81612b93565b611544612b4a565b612afd82612b9b565b6040516001600160a01b038316907fbc7cd75a20ee27fd9adebab32041f755214dbc6bffa90cc0225b39da2e5c2d3b90600090a2805115612b4257612a1c8282612c00565b6114e7612c76565b7ff0c57e16840df040f15088dc2f81fe391c3923bec73e23a9662efc9c229c6a0054600160401b900460ff1661154457604051631afcd79f60e31b815260040160405180910390fd5b612437612b4a565b806001600160a01b03163b600003612bd157604051634c9c8ce360e01b81526001600160a01b0382166004820152602401610e5f565b60008051602061326d83398151915280546001600160a01b0319166001600160a01b0392909216919091179055565b6060600080846001600160a01b031684604051612c1d9190613250565b600060405180830381855af49150503d8060008114612c58576040519150601f19603f3d011682016040523d82523d6000602084013e612c5d565b606091505b5091509150612c6d858383612c95565b95945050505050565b34156115445760405163b398979f60e01b815260040160405180910390fd5b606082612caa57612ca582612cf4565b612ced565b8151158015612cc157506001600160a01b0384163b155b15612cea57604051639996b31560e01b81526001600160a01b0385166004820152602401610e5f565b50805b9392505050565b805115612d045780518082602001fd5b604051630a12f52160e11b815260040160405180910390fd5b80356001600160a01b0381168114612d3457600080fd5b919050565b600060208284031215612d4b57600080fd5b612ced82612d1d565b60008060408385031215612d6757600080fd5b612d7083612d1d565b946020939093013593505050565b60008060408385031215612d9157600080fd5b612d9a83612d1d565b915060208301358015158114612daf57600080fd5b809150509250929050565b600060208284031215612dcc57600080fd5b5035919050565b634e487b7160e01b600052604160045260246000fd5b604051601f8201601f1916810167ffffffffffffffff81118282101715612e1257612e12612dd3565b604052919050565b60006020808385031215612e2d57600080fd5b823567ffffffffffffffff80821115612e4557600080fd5b818501915085601f830112612e5957600080fd5b813581811115612e6b57612e6b612dd3565b8060051b9150612e7c848301612de9565b8181529183018401918481019088841115612e9657600080fd5b938501935b83851015612ebb57612eac85612d1d565b82529385019390850190612e9b565b98975050505050505050565b6020808252825182820181905260009190848201906040850190845b81811015612eff57835183529284019291840191600101612ee3565b50909695505050505050565b60008060408385031215612f1e57600080fd5b612f2783612d1d565b915060208084013567ffffffffffffffff80821115612f4557600080fd5b818601915086601f830112612f5957600080fd5b813581811115612f6b57612f6b612dd3565b612f7d601f8201601f19168501612de9565b91508082528784828501011115612f9357600080fd5b80848401858401376000848284010152508093505050509250929050565b6020808252825182820181905260009190848201906040850190845b81811015612eff5783516001600160a01b031683529284019291840191600101612fcd565b60005b8381101561300d578181015183820152602001612ff5565b50506000910152565b6000815180845261302e816020860160208601612ff2565b601f01601f19169290920160200192915050565b602081526000612ced6020830184613016565b6000806020838503121561306857600080fd5b823567ffffffffffffffff8082111561308057600080fd5b818501915085601f83011261309457600080fd5b8135818111156130a357600080fd5b8660208260051b85010111156130b857600080fd5b60209290920196919550909350505050565b600080600080600080600080610100898b0312156130e757600080fd5b6130f089612d1d565b9a60208a01359a5060408a013599606081013599506080810135985060a0810135975060c0810135965060e00135945092505050565b60008060006060848603121561313b57600080fd5b61314484612d1d565b95602085013595506040909401359392505050565b60208082526039908201527f436f6c6c61746572616c206973206e6f7420636f6e666967757265642c20757360408201527f6520736574436f6c6c61746572616c506172616d657465727300000000000000606082015260800190565b6080815260006131c96080830187613016565b6020830195909552506040810192909252606090910152919050565b6000602082840312156131f757600080fd5b5051919050565b634e487b7160e01b600052601160045260246000fd5b80820180821115611243576112436131fe565b634e487b7160e01b600052603260045260246000fd5b81810381811115611243576112436131fe565b60008251613262818460208701612ff2565b919091019291505056fe360894a13ba1a3210667c828492db98dca3e2076cc3735a920a3ca505d382bbca164736f6c6343000817000a",
  "devdoc": {
    "errors": {
      "AddressEmptyCode(address)": [
        {
          "details": "There's no code at `target` (it is not a contract)."
        }
      ],
      "ERC1967InvalidImplementation(address)": [
        {
          "details": "The `implementation` of the proxy is invalid."
        }
      ],
      "ERC1967NonPayable()": [
        {
          "details": "An upgrade function sees `msg.value > 0` that may be lost."
        }
      ],
      "FailedInnerCall()": [
        {
          "details": "A call to an address target failed. The target may have reverted."
        }
      ],
      "InvalidInitialization()": [
        {
          "details": "The contract is already initialized."
        }
      ],
      "NotInitializing()": [
        {
          "details": "The contract is not initializing."
        }
      ],
      "OwnableInvalidOwner(address)": [
        {
          "details": "The owner is not a valid owner account. (eg. `address(0)`)"
        }
      ],
      "OwnableUnauthorizedAccount(address)": [
        {
          "details": "The caller account is not authorized to perform an operation."
        }
      ],
      "UUPSUnauthorizedCallContext()": [
        {
          "details": "The call is from an unauthorized context."
        }
      ],
      "UUPSUnsupportedProxiableUUID(bytes32)": [
        {
          "details": "The storage `slot` is unsupported as a UUID."
        }
      ]
    },
    "events": {
      "Initialized(uint64)": {
        "details": "Triggered when the contract has been initialized or reinitialized."
      },
      "Upgraded(address)": {
        "details": "Emitted when the implementation is upgraded."
      }
    },
    "kind": "dev",
    "methods": {
      "owner()": {
        "details": "Returns the address of the current owner."
      },
      "proxiableUUID()": {
        "details": "Implementation of the ERC1822 {proxiableUUID} function. This returns the storage slot used by the implementation. It is used to validate the implementation's compatibility when performing an upgrade. IMPORTANT: A proxy pointing at a proxiable contract should not be considered proxiable itself, because this risks bricking a proxy that upgrades to it, by delegating to itself until out of gas. Thus it is critical that this function revert if invoked through a proxy. This is guaranteed by the `notDelegated` modifier."
      },
      "renounceOwnership()": {
        "details": "Leaves the contract without owner. It will not be possible to call `onlyOwner` functions. Can only be called by the current owner. NOTE: Renouncing ownership will leave the contract without an owner, thereby disabling any functionality that is only available to the owner."
      },
      "setSetupIsInitialized()": {
        "details": "The deployment script will call this function when all initial collaterals have been configured;      after this is set to true, all subsequent config/setters will need to go through the timelocks."
      },
      "transferOwnership(address)": {
        "details": "Transfers ownership of the contract to a new account (`newOwner`). Can only be called by the current owner."
      },
      "upgradeToAndCall(address,bytes)": {
        "custom:oz-upgrades-unsafe-allow-reachable": "delegatecall",
        "details": "Upgrade the implementation of the proxy to `newImplementation`, and subsequently execute the function call encoded in `data`. Calls {_authorizeUpgrade}. Emits an {Upgraded} event."
      }
    },
    "stateVariables": {
      "collateralParams": {
        "details": "Cannot be public as struct has too many variables for the stack.Create special view structs/getters instead."
      }
    },
    "version": 1
  },
  "userdoc": {
    "kind": "user",
    "methods": {},
    "version": 1
  },
  "storageLayout": {
    "storage": [
      {
        "astId": 9891,
        "contract": "contracts/AdminContract.sol:AdminContract",
        "label": "activePool",
        "offset": 0,
        "slot": "0",
        "type": "t_address"
      },
      {
        "astId": 9893,
        "contract": "contracts/AdminContract.sol:AdminContract",
        "label": "adminContract",
        "offset": 0,
        "slot": "1",
        "type": "t_address"
      },
      {
        "astId": 9895,
        "contract": "contracts/AdminContract.sol:AdminContract",
        "label": "borrowerOperations",
        "offset": 0,
        "slot": "2",
        "type": "t_address"
      },
      {
        "astId": 9897,
        "contract": "contracts/AdminContract.sol:AdminContract",
        "label": "collSurplusPool",
        "offset": 0,
        "slot": "3",
        "type": "t_address"
      },
      {
        "astId": 9899,
        "contract": "contracts/AdminContract.sol:AdminContract",
        "label": "communityIssuance",
        "offset": 0,
        "slot": "4",
        "type": "t_address"
      },
      {
        "astId": 9901,
        "contract": "contracts/AdminContract.sol:AdminContract",
        "label": "debtToken",
        "offset": 0,
        "slot": "5",
        "type": "t_address"
      },
      {
        "astId": 9903,
        "contract": "contracts/AdminContract.sol:AdminContract",
        "label": "defaultPool",
        "offset": 0,
        "slot": "6",
        "type": "t_address"
      },
      {
        "astId": 9905,
        "contract": "contracts/AdminContract.sol:AdminContract",
        "label": "feeCollector",
        "offset": 0,
        "slot": "7",
        "type": "t_address"
      },
      {
        "astId": 9907,
        "contract": "contracts/AdminContract.sol:AdminContract",
        "label": "gasPoolAddress",
        "offset": 0,
        "slot": "8",
        "type": "t_address"
      },
      {
        "astId": 9909,
        "contract": "contracts/AdminContract.sol:AdminContract",
        "label": "trenStaking",
        "offset": 0,
        "slot": "9",
        "type": "t_address"
      },
      {
        "astId": 9911,
        "contract": "contracts/AdminContract.sol:AdminContract",
        "label": "priceFeed",
        "offset": 0,
        "slot": "10",
        "type": "t_address"
      },
      {
        "astId": 9913,
        "contract": "contracts/AdminContract.sol:AdminContract",
        "label": "sortedTrenBoxes",
        "offset": 0,
        "slot": "11",
        "type": "t_address"
      },
      {
        "astId": 9915,
        "contract": "contracts/AdminContract.sol:AdminContract",
        "label": "stabilityPool",
        "offset": 0,
        "slot": "12",
        "type": "t_address"
      },
      {
        "astId": 9917,
        "contract": "contracts/AdminContract.sol:AdminContract",
        "label": "timelockAddress",
        "offset": 0,
        "slot": "13",
        "type": "t_address"
      },
      {
        "astId": 9919,
        "contract": "contracts/AdminContract.sol:AdminContract",
        "label": "treasuryAddress",
        "offset": 0,
        "slot": "14",
        "type": "t_address"
      },
      {
        "astId": 9921,
        "contract": "contracts/AdminContract.sol:AdminContract",
        "label": "trenBoxManager",
        "offset": 0,
        "slot": "15",
        "type": "t_address"
      },
      {
        "astId": 9923,
        "contract": "contracts/AdminContract.sol:AdminContract",
        "label": "trenBoxManagerOperations",
        "offset": 0,
        "slot": "16",
        "type": "t_address"
      },
      {
        "astId": 9925,
        "contract": "contracts/AdminContract.sol:AdminContract",
        "label": "isAddressSetupInitialized",
        "offset": 20,
        "slot": "16",
        "type": "t_bool"
      },
      {
        "astId": 9930,
        "contract": "contracts/AdminContract.sol:AdminContract",
        "label": "__gap",
        "offset": 0,
        "slot": "17",
        "type": "t_array(t_uint256)33_storage"
      },
      {
        "astId": 5956,
        "contract": "contracts/AdminContract.sol:AdminContract",
        "label": "collateralParams",
        "offset": 0,
        "slot": "50",
        "type": "t_mapping(t_address,t_struct(CollateralParams)11870_storage)"
      },
      {
        "astId": 5959,
        "contract": "contracts/AdminContract.sol:AdminContract",
        "label": "validCollateral",
        "offset": 0,
        "slot": "51",
        "type": "t_array(t_address)dyn_storage"
      },
      {
        "astId": 5961,
        "contract": "contracts/AdminContract.sol:AdminContract",
        "label": "isSetupInitialized",
        "offset": 0,
        "slot": "52",
        "type": "t_bool"
      }
    ],
    "types": {
      "t_address": {
        "encoding": "inplace",
        "label": "address",
        "numberOfBytes": "20"
      },
      "t_array(t_address)dyn_storage": {
        "base": "t_address",
        "encoding": "dynamic_array",
        "label": "address[]",
        "numberOfBytes": "32"
      },
      "t_array(t_uint256)33_storage": {
        "base": "t_uint256",
        "encoding": "inplace",
        "label": "uint256[33]",
        "numberOfBytes": "1056"
      },
      "t_bool": {
        "encoding": "inplace",
        "label": "bool",
        "numberOfBytes": "1"
      },
      "t_mapping(t_address,t_struct(CollateralParams)11870_storage)": {
        "encoding": "mapping",
        "key": "t_address",
        "label": "mapping(address => struct IAdminContract.CollateralParams)",
        "numberOfBytes": "32",
        "value": "t_struct(CollateralParams)11870_storage"
      },
      "t_struct(CollateralParams)11870_storage": {
        "encoding": "inplace",
        "label": "struct IAdminContract.CollateralParams",
        "members": [
          {
            "astId": 11847,
            "contract": "contracts/AdminContract.sol:AdminContract",
            "label": "decimals",
            "offset": 0,
            "slot": "0",
            "type": "t_uint256"
          },
          {
            "astId": 11849,
            "contract": "contracts/AdminContract.sol:AdminContract",
            "label": "index",
            "offset": 0,
            "slot": "1",
            "type": "t_uint256"
          },
          {
            "astId": 11851,
            "contract": "contracts/AdminContract.sol:AdminContract",
            "label": "active",
            "offset": 0,
            "slot": "2",
            "type": "t_bool"
          },
          {
            "astId": 11853,
            "contract": "contracts/AdminContract.sol:AdminContract",
            "label": "borrowingFee",
            "offset": 0,
            "slot": "3",
            "type": "t_uint256"
          },
          {
            "astId": 11855,
            "contract": "contracts/AdminContract.sol:AdminContract",
            "label": "ccr",
            "offset": 0,
            "slot": "4",
            "type": "t_uint256"
          },
          {
            "astId": 11857,
            "contract": "contracts/AdminContract.sol:AdminContract",
            "label": "mcr",
            "offset": 0,
            "slot": "5",
            "type": "t_uint256"
          },
          {
            "astId": 11859,
            "contract": "contracts/AdminContract.sol:AdminContract",
            "label": "debtTokenGasCompensation",
            "offset": 0,
            "slot": "6",
            "type": "t_uint256"
          },
          {
            "astId": 11861,
            "contract": "contracts/AdminContract.sol:AdminContract",
            "label": "minNetDebt",
            "offset": 0,
            "slot": "7",
            "type": "t_uint256"
          },
          {
            "astId": 11863,
            "contract": "contracts/AdminContract.sol:AdminContract",
            "label": "mintCap",
            "offset": 0,
            "slot": "8",
            "type": "t_uint256"
          },
          {
            "astId": 11865,
            "contract": "contracts/AdminContract.sol:AdminContract",
            "label": "percentDivisor",
            "offset": 0,
            "slot": "9",
            "type": "t_uint256"
          },
          {
            "astId": 11867,
            "contract": "contracts/AdminContract.sol:AdminContract",
            "label": "redemptionFeeFloor",
            "offset": 0,
            "slot": "10",
            "type": "t_uint256"
          },
          {
            "astId": 11869,
            "contract": "contracts/AdminContract.sol:AdminContract",
            "label": "redemptionBlockTimestamp",
            "offset": 0,
            "slot": "11",
            "type": "t_uint256"
          }
        ],
        "numberOfBytes": "384"
      },
      "t_uint256": {
        "encoding": "inplace",
        "label": "uint256",
        "numberOfBytes": "32"
      }
    }
  }
}