{
  "address": "0xA3671cd32ACb1Eab33CEa877B31Fd6A0eb67EdFa",
  "abi": [
    {
      "inputs": [
        {
          "internalType": "address",
          "name": "target",
          "type": "address"
        }
      ],
      "name": "AddressEmptyCode",
      "type": "error"
    },
    {
      "inputs": [
        {
          "internalType": "address",
          "name": "account",
          "type": "address"
        }
      ],
      "name": "AddressInsufficientBalance",
      "type": "error"
    },
    {
      "inputs": [],
      "name": "ConfigurableAddresses__CommunityIssuanceZeroAddress",
      "type": "error"
    },
    {
      "inputs": [],
      "name": "ConfigurableAddresses__LengthMismatch",
      "type": "error"
    },
    {
      "inputs": [],
      "name": "ConfigurableAddresses__SetupIsInitialized",
      "type": "error"
    },
    {
      "inputs": [],
      "name": "ConfigurableAddresses__TRENStakingZeroAddress",
      "type": "error"
    },
    {
      "inputs": [
        {
          "internalType": "uint256",
          "name": "position",
          "type": "uint256"
        },
        {
          "internalType": "address",
          "name": "address_",
          "type": "address"
        }
      ],
      "name": "ConfigurableAddresses__ZeroAddresses",
      "type": "error"
    },
    {
      "inputs": [
        {
          "internalType": "address",
          "name": "implementation",
          "type": "address"
        }
      ],
      "name": "ERC1967InvalidImplementation",
      "type": "error"
    },
    {
      "inputs": [],
      "name": "ERC1967NonPayable",
      "type": "error"
    },
    {
      "inputs": [],
      "name": "EthUnsupportedError",
      "type": "error"
    },
    {
      "inputs": [],
      "name": "FailedInnerCall",
      "type": "error"
    },
    {
      "inputs": [],
      "name": "InvalidAmountError",
      "type": "error"
    },
    {
      "inputs": [],
      "name": "InvalidInitialization",
      "type": "error"
    },
    {
      "inputs": [],
      "name": "NotInitializing",
      "type": "error"
    },
    {
      "inputs": [
        {
          "internalType": "address",
          "name": "owner",
          "type": "address"
        }
      ],
      "name": "OwnableInvalidOwner",
      "type": "error"
    },
    {
      "inputs": [
        {
          "internalType": "address",
          "name": "account",
          "type": "address"
        }
      ],
      "name": "OwnableUnauthorizedAccount",
      "type": "error"
    },
    {
      "inputs": [],
      "name": "ReentrancyGuardReentrantCall",
      "type": "error"
    },
    {
      "inputs": [
        {
          "internalType": "address",
          "name": "token",
          "type": "address"
        }
      ],
      "name": "SafeERC20FailedOperation",
      "type": "error"
    },
    {
      "inputs": [
        {
          "internalType": "uint256",
          "name": "feePercentage",
          "type": "uint256"
        },
        {
          "internalType": "uint256",
          "name": "maxFeePercentage",
          "type": "uint256"
        }
      ],
      "name": "TrenBase__FeeExceededMax",
      "type": "error"
    },
    {
      "inputs": [],
      "name": "UUPSUnauthorizedCallContext",
      "type": "error"
    },
    {
      "inputs": [
        {
          "internalType": "bytes32",
          "name": "slot",
          "type": "bytes32"
        }
      ],
      "name": "UUPSUnsupportedProxiableUUID",
      "type": "error"
    },
    {
      "anonymous": false,
      "inputs": [
        {
          "indexed": true,
          "internalType": "address",
          "name": "_asset",
          "type": "address"
        },
        {
          "indexed": true,
          "internalType": "address",
          "name": "_borrower",
          "type": "address"
        },
        {
          "indexed": false,
          "internalType": "uint256",
          "name": "_feeAmount",
          "type": "uint256"
        }
      ],
      "name": "BorrowingFeePaid",
      "type": "event"
    },
    {
      "anonymous": false,
      "inputs": [
        {
          "indexed": false,
          "internalType": "uint64",
          "name": "version",
          "type": "uint64"
        }
      ],
      "name": "Initialized",
      "type": "event"
    },
    {
      "anonymous": false,
      "inputs": [
        {
          "indexed": true,
          "internalType": "address",
          "name": "previousOwner",
          "type": "address"
        },
        {
          "indexed": true,
          "internalType": "address",
          "name": "newOwner",
          "type": "address"
        }
      ],
      "name": "OwnershipTransferred",
      "type": "event"
    },
    {
      "anonymous": false,
      "inputs": [
        {
          "indexed": true,
          "internalType": "address",
          "name": "_asset",
          "type": "address"
        },
        {
          "indexed": true,
          "internalType": "address",
          "name": "_borrower",
          "type": "address"
        },
        {
          "indexed": false,
          "internalType": "uint256",
          "name": "arrayIndex",
          "type": "uint256"
        }
      ],
      "name": "TrenBoxCreated",
      "type": "event"
    },
    {
      "anonymous": false,
      "inputs": [
        {
          "indexed": true,
          "internalType": "address",
          "name": "_asset",
          "type": "address"
        },
        {
          "indexed": true,
          "internalType": "address",
          "name": "_borrower",
          "type": "address"
        },
        {
          "indexed": false,
          "internalType": "uint256",
          "name": "_debt",
          "type": "uint256"
        },
        {
          "indexed": false,
          "internalType": "uint256",
          "name": "_coll",
          "type": "uint256"
        },
        {
          "indexed": false,
          "internalType": "uint256",
          "name": "stake",
          "type": "uint256"
        },
        {
          "indexed": false,
          "internalType": "enum IBorrowerOperations.BorrowerOperation",
          "name": "operation",
          "type": "uint8"
        }
      ],
      "name": "TrenBoxUpdated",
      "type": "event"
    },
    {
      "anonymous": false,
      "inputs": [
        {
          "indexed": true,
          "internalType": "address",
          "name": "implementation",
          "type": "address"
        }
      ],
      "name": "Upgraded",
      "type": "event"
    },
    {
      "inputs": [],
      "name": "NAME",
      "outputs": [
        {
          "internalType": "string",
          "name": "",
          "type": "string"
        }
      ],
      "stateMutability": "view",
      "type": "function"
    },
    {
      "inputs": [],
      "name": "UPGRADE_INTERFACE_VERSION",
      "outputs": [
        {
          "internalType": "string",
          "name": "",
          "type": "string"
        }
      ],
      "stateMutability": "view",
      "type": "function"
    },
    {
      "inputs": [],
      "name": "activePool",
      "outputs": [
        {
          "internalType": "address",
          "name": "",
          "type": "address"
        }
      ],
      "stateMutability": "view",
      "type": "function"
    },
    {
      "inputs": [
        {
          "internalType": "address",
          "name": "_asset",
          "type": "address"
        },
        {
          "internalType": "uint256",
          "name": "_assetSent",
          "type": "uint256"
        },
        {
          "internalType": "address",
          "name": "_upperHint",
          "type": "address"
        },
        {
          "internalType": "address",
          "name": "_lowerHint",
          "type": "address"
        }
      ],
      "name": "addColl",
      "outputs": [],
      "stateMutability": "nonpayable",
      "type": "function"
    },
    {
      "inputs": [
        {
          "internalType": "address",
          "name": "_asset",
          "type": "address"
        },
        {
          "internalType": "uint256",
          "name": "_assetSent",
          "type": "uint256"
        },
        {
          "internalType": "uint256",
          "name": "_collWithdrawal",
          "type": "uint256"
        },
        {
          "internalType": "uint256",
          "name": "_debtTokenChange",
          "type": "uint256"
        },
        {
          "internalType": "bool",
          "name": "_isDebtIncrease",
          "type": "bool"
        },
        {
          "internalType": "address",
          "name": "_upperHint",
          "type": "address"
        },
        {
          "internalType": "address",
          "name": "_lowerHint",
          "type": "address"
        }
      ],
      "name": "adjustTrenBox",
      "outputs": [],
      "stateMutability": "nonpayable",
      "type": "function"
    },
    {
      "inputs": [],
      "name": "adminContract",
      "outputs": [
        {
          "internalType": "address",
          "name": "",
          "type": "address"
        }
      ],
      "stateMutability": "view",
      "type": "function"
    },
    {
      "inputs": [
        {
          "internalType": "address",
          "name": "newImplementation",
          "type": "address"
        }
      ],
      "name": "authorizeUpgrade",
      "outputs": [],
      "stateMutability": "nonpayable",
      "type": "function"
    },
    {
      "inputs": [],
      "name": "borrowerOperations",
      "outputs": [
        {
          "internalType": "address",
          "name": "",
          "type": "address"
        }
      ],
      "stateMutability": "view",
      "type": "function"
    },
    {
      "inputs": [
        {
          "internalType": "address",
          "name": "_asset",
          "type": "address"
        }
      ],
      "name": "claimCollateral",
      "outputs": [],
      "stateMutability": "nonpayable",
      "type": "function"
    },
    {
      "inputs": [
        {
          "internalType": "address",
          "name": "_asset",
          "type": "address"
        }
      ],
      "name": "closeTrenBox",
      "outputs": [],
      "stateMutability": "nonpayable",
      "type": "function"
    },
    {
      "inputs": [],
      "name": "collSurplusPool",
      "outputs": [
        {
          "internalType": "address",
          "name": "",
          "type": "address"
        }
      ],
      "stateMutability": "view",
      "type": "function"
    },
    {
      "inputs": [],
      "name": "communityIssuance",
      "outputs": [
        {
          "internalType": "address",
          "name": "",
          "type": "address"
        }
      ],
      "stateMutability": "view",
      "type": "function"
    },
    {
      "inputs": [],
      "name": "debtToken",
      "outputs": [
        {
          "internalType": "address",
          "name": "",
          "type": "address"
        }
      ],
      "stateMutability": "view",
      "type": "function"
    },
    {
      "inputs": [],
      "name": "defaultPool",
      "outputs": [
        {
          "internalType": "address",
          "name": "",
          "type": "address"
        }
      ],
      "stateMutability": "view",
      "type": "function"
    },
    {
      "inputs": [],
      "name": "feeCollector",
      "outputs": [
        {
          "internalType": "address",
          "name": "",
          "type": "address"
        }
      ],
      "stateMutability": "view",
      "type": "function"
    },
    {
      "inputs": [],
      "name": "flashLoanAddress",
      "outputs": [
        {
          "internalType": "address",
          "name": "",
          "type": "address"
        }
      ],
      "stateMutability": "view",
      "type": "function"
    },
    {
      "inputs": [],
      "name": "gasPoolAddress",
      "outputs": [
        {
          "internalType": "address",
          "name": "",
          "type": "address"
        }
      ],
      "stateMutability": "view",
      "type": "function"
    },
    {
      "inputs": [
        {
          "internalType": "address",
          "name": "_asset",
          "type": "address"
        },
        {
          "internalType": "uint256",
          "name": "_debt",
          "type": "uint256"
        }
      ],
      "name": "getCompositeDebt",
      "outputs": [
        {
          "internalType": "uint256",
          "name": "",
          "type": "uint256"
        }
      ],
      "stateMutability": "view",
      "type": "function"
    },
    {
      "inputs": [
        {
          "internalType": "address",
          "name": "_asset",
          "type": "address"
        }
      ],
      "name": "getEntireSystemColl",
      "outputs": [
        {
          "internalType": "uint256",
          "name": "entireSystemColl",
          "type": "uint256"
        }
      ],
      "stateMutability": "view",
      "type": "function"
    },
    {
      "inputs": [
        {
          "internalType": "address",
          "name": "_asset",
          "type": "address"
        }
      ],
      "name": "getEntireSystemDebt",
      "outputs": [
        {
          "internalType": "uint256",
          "name": "entireSystemDebt",
          "type": "uint256"
        }
      ],
      "stateMutability": "view",
      "type": "function"
    },
    {
      "inputs": [],
      "name": "initialize",
      "outputs": [],
      "stateMutability": "nonpayable",
      "type": "function"
    },
    {
      "inputs": [],
      "name": "isAddressSetupInitialized",
      "outputs": [
        {
          "internalType": "bool",
          "name": "",
          "type": "bool"
        }
      ],
      "stateMutability": "view",
      "type": "function"
    },
    {
      "inputs": [
        {
          "internalType": "address",
          "name": "_asset",
          "type": "address"
        },
        {
          "internalType": "uint256",
          "name": "_assetAmount",
          "type": "uint256"
        },
        {
          "internalType": "uint256",
          "name": "_debtTokenAmount",
          "type": "uint256"
        },
        {
          "internalType": "address",
          "name": "_upperHint",
          "type": "address"
        },
        {
          "internalType": "address",
          "name": "_lowerHint",
          "type": "address"
        }
      ],
      "name": "openTrenBox",
      "outputs": [],
      "stateMutability": "nonpayable",
      "type": "function"
    },
    {
      "inputs": [],
      "name": "owner",
      "outputs": [
        {
          "internalType": "address",
          "name": "",
          "type": "address"
        }
      ],
      "stateMutability": "view",
      "type": "function"
    },
    {
      "inputs": [],
      "name": "priceFeed",
      "outputs": [
        {
          "internalType": "address",
          "name": "",
          "type": "address"
        }
      ],
      "stateMutability": "view",
      "type": "function"
    },
    {
      "inputs": [],
      "name": "proxiableUUID",
      "outputs": [
        {
          "internalType": "bytes32",
          "name": "",
          "type": "bytes32"
        }
      ],
      "stateMutability": "view",
      "type": "function"
    },
    {
      "inputs": [],
      "name": "renounceOwnership",
      "outputs": [],
      "stateMutability": "nonpayable",
      "type": "function"
    },
    {
      "inputs": [
        {
          "internalType": "address",
          "name": "_asset",
          "type": "address"
        },
        {
          "internalType": "uint256",
          "name": "_debtTokenAmount",
          "type": "uint256"
        },
        {
          "internalType": "address",
          "name": "_upperHint",
          "type": "address"
        },
        {
          "internalType": "address",
          "name": "_lowerHint",
          "type": "address"
        }
      ],
      "name": "repayDebtTokens",
      "outputs": [],
      "stateMutability": "nonpayable",
      "type": "function"
    },
    {
      "inputs": [
        {
          "internalType": "address[]",
          "name": "_addresses",
          "type": "address[]"
        }
      ],
      "name": "setAddresses",
      "outputs": [],
      "stateMutability": "nonpayable",
      "type": "function"
    },
    {
      "inputs": [
        {
          "internalType": "address",
          "name": "_communityIssuance",
          "type": "address"
        }
      ],
      "name": "setCommunityIssuance",
      "outputs": [],
      "stateMutability": "nonpayable",
      "type": "function"
    },
    {
      "inputs": [
        {
          "internalType": "address",
          "name": "_trenStaking",
          "type": "address"
        }
      ],
      "name": "setTRENStaking",
      "outputs": [],
      "stateMutability": "nonpayable",
      "type": "function"
    },
    {
      "inputs": [],
      "name": "sortedTrenBoxes",
      "outputs": [
        {
          "internalType": "address",
          "name": "",
          "type": "address"
        }
      ],
      "stateMutability": "view",
      "type": "function"
    },
    {
      "inputs": [],
      "name": "stabilityPool",
      "outputs": [
        {
          "internalType": "address",
          "name": "",
          "type": "address"
        }
      ],
      "stateMutability": "view",
      "type": "function"
    },
    {
      "inputs": [],
      "name": "timelockAddress",
      "outputs": [
        {
          "internalType": "address",
          "name": "",
          "type": "address"
        }
      ],
      "stateMutability": "view",
      "type": "function"
    },
    {
      "inputs": [
        {
          "internalType": "address",
          "name": "newOwner",
          "type": "address"
        }
      ],
      "name": "transferOwnership",
      "outputs": [],
      "stateMutability": "nonpayable",
      "type": "function"
    },
    {
      "inputs": [],
      "name": "treasuryAddress",
      "outputs": [
        {
          "internalType": "address",
          "name": "",
          "type": "address"
        }
      ],
      "stateMutability": "view",
      "type": "function"
    },
    {
      "inputs": [],
      "name": "trenBoxManager",
      "outputs": [
        {
          "internalType": "address",
          "name": "",
          "type": "address"
        }
      ],
      "stateMutability": "view",
      "type": "function"
    },
    {
      "inputs": [],
      "name": "trenBoxManagerOperations",
      "outputs": [
        {
          "internalType": "address",
          "name": "",
          "type": "address"
        }
      ],
      "stateMutability": "view",
      "type": "function"
    },
    {
      "inputs": [],
      "name": "trenStaking",
      "outputs": [
        {
          "internalType": "address",
          "name": "",
          "type": "address"
        }
      ],
      "stateMutability": "view",
      "type": "function"
    },
    {
      "inputs": [
        {
          "internalType": "address",
          "name": "newImplementation",
          "type": "address"
        },
        {
          "internalType": "bytes",
          "name": "data",
          "type": "bytes"
        }
      ],
      "name": "upgradeToAndCall",
      "outputs": [],
      "stateMutability": "payable",
      "type": "function"
    },
    {
      "inputs": [
        {
          "internalType": "address",
          "name": "_asset",
          "type": "address"
        },
        {
          "internalType": "uint256",
          "name": "_collWithdrawal",
          "type": "uint256"
        },
        {
          "internalType": "address",
          "name": "_upperHint",
          "type": "address"
        },
        {
          "internalType": "address",
          "name": "_lowerHint",
          "type": "address"
        }
      ],
      "name": "withdrawColl",
      "outputs": [],
      "stateMutability": "nonpayable",
      "type": "function"
    },
    {
      "inputs": [
        {
          "internalType": "address",
          "name": "_asset",
          "type": "address"
        },
        {
          "internalType": "uint256",
          "name": "_debtTokenAmount",
          "type": "uint256"
        },
        {
          "internalType": "address",
          "name": "_upperHint",
          "type": "address"
        },
        {
          "internalType": "address",
          "name": "_lowerHint",
          "type": "address"
        }
      ],
      "name": "withdrawDebtTokens",
      "outputs": [],
      "stateMutability": "nonpayable",
      "type": "function"
    }
  ],
  "transactionHash": "0x86cd9da34af8f7bc0d6bbc2e05870a639740691f564fe4ebf47033535b08d549",
  "args": [],
  "numDeployments": 1,
  "solcInputHash": "95c5aca5a7d37a227eda09db9261aa6b",
  "bytecode": "0x60a06040523060805234801561001457600080fd5b506080516149b161003e600039600081816127570152818161278001526128c601526149b16000f3fe6080604052600436106102515760003560e01c80638da5cb5b11610139578063c5f956af116100b6578063e89f80541161007a578063e89f80541461073f578063f1c05a7e1461075f578063f2fde38b1461077f578063f8d898981461079f578063fe060733146107bf578063fe9d0323146107df57600080fd5b8063c5f956af1461068e578063c8564c62146106ae578063cc8b21e4146106df578063cda775f9146106ff578063d721f52a1461071f57600080fd5b8063b5c5c9fc116100fd578063b5c5c9fc146105ee578063b95717211461060e578063c05c5e941461062e578063c14e0a8a1461064e578063c415b95c1461066e57600080fd5b80638da5cb5b146104f557806395fb16bb146105325780639e86d0c414610552578063a3f4df7e14610572578063ad3cb1cc146105bd57600080fd5b80634f1ef286116101d2578063741bef1a11610196578063741bef1a146104405780637703d7301461046057806377553ad4146104805780637f7dde4a146104a05780638129fc1c146104c05780638235b284146104d557600080fd5b80634f1ef286146103c357806352d1902d146103d657806355dafa46146103eb5780636a85d67d1461040b578063715018a61461042b57600080fd5b80633cc74225116102195780633cc74225146103235780634169467d1461034357806348a4a39d1461036357806349b010c5146103835780634bc66f32146103a357600080fd5b806301c931001461025657806302540e4814610278578063048c661d146102ab5780630a34d4d6146102e357806327d04b3514610303575b600080fd5b34801561026257600080fd5b506102766102713660046143b6565b6107ff565b005b34801561028457600080fd5b506102986102933660046143d1565b610850565b6040519081526020015b60405180910390f35b3480156102b757600080fd5b50600d546102cb906001600160a01b031681565b6040516001600160a01b0390911681526020016102a2565b3480156102ef57600080fd5b506011546102cb906001600160a01b031681565b34801561030f57600080fd5b5061029861031e3660046143b6565b610865565b34801561032f57600080fd5b506006546102cb906001600160a01b031681565b34801561034f57600080fd5b506008546102cb906001600160a01b031681565b34801561036f57600080fd5b5061027661037e3660046143fb565b61095d565b34801561038f57600080fd5b5061027661039e3660046143fb565b6109a6565b3480156103af57600080fd5b50600e546102cb906001600160a01b031681565b6102766103d136600461445e565b6109c0565b3480156103e257600080fd5b506102986109df565b3480156103f757600080fd5b50600a546102cb906001600160a01b031681565b34801561041757600080fd5b506102766104263660046143b6565b6109fc565b34801561043757600080fd5b50610276610a4d565b34801561044c57600080fd5b50600b546102cb906001600160a01b031681565b34801561046c57600080fd5b5061027661047b3660046143fb565b610a61565b34801561048c57600080fd5b506002546102cb906001600160a01b031681565b3480156104ac57600080fd5b506000546102cb906001600160a01b031681565b3480156104cc57600080fd5b50610276610a7c565b3480156104e157600080fd5b506102766104f03660046143b6565b610b95565b34801561050157600080fd5b507f9016d09d72d40fdae2fd8ceac6b6234c7706214fd39c1cd1e609a0528c199300546001600160a01b03166102cb565b34801561053e57600080fd5b506004546102cb906001600160a01b031681565b34801561055e57600080fd5b5061029861056d3660046143b6565b610bf5565b34801561057e57600080fd5b506105b060405180604001604052806012815260200171426f72726f7765724f7065726174696f6e7360701b81525081565b6040516102a29190614544565b3480156105c957600080fd5b506105b0604051806040016040528060058152602001640352e302e360dc1b81525081565b3480156105fa57600080fd5b506102766106093660046143fb565b610c9c565b34801561061a57600080fd5b50610276610629366004614577565b610cb7565b34801561063a57600080fd5b506001546102cb906001600160a01b031681565b34801561065a57600080fd5b506102766106693660046143b6565b611238565b34801561067a57600080fd5b506007546102cb906001600160a01b031681565b34801561069a57600080fd5b50600f546102cb906001600160a01b031681565b3480156106ba57600080fd5b506011546106cf90600160a01b900460ff1681565b60405190151581526020016102a2565b3480156106eb57600080fd5b50600c546102cb906001600160a01b031681565b34801561070b57600080fd5b506003546102cb906001600160a01b031681565b34801561072b57600080fd5b5061027661073a3660046145ec565b611768565b34801561074b57600080fd5b5061027661075a366004614651565b611f3e565b34801561076b57600080fd5b506010546102cb906001600160a01b031681565b34801561078b57600080fd5b5061027661079a3660046143b6565b611f88565b3480156107ab57600080fd5b506005546102cb906001600160a01b031681565b3480156107cb57600080fd5b506102766107da3660046143b6565b611fc6565b3480156107eb57600080fd5b506009546102cb906001600160a01b031681565b610807611fcf565b6001600160a01b03811661082e576040516385d3330760e01b815260040160405180910390fd5b600a80546001600160a01b0319166001600160a01b0392909216919091179055565b600061085c838361202a565b90505b92915050565b6000805460405163c5739d0b60e01b81526001600160a01b0384811660048301528392169063c5739d0b90602401602060405180830381865afa1580156108b0573d6000803e3d6000fd5b505050506040513d601f19601f820116820180604052508101906108d491906146c4565b60065460405163c5739d0b60e01b81526001600160a01b0386811660048301529293506000929091169063c5739d0b906024015b602060405180830381865afa158015610925573d6000803e3d6000fd5b505050506040513d601f19601f8201168201806040525081019061094991906146c4565b905061095581836146f3565b949350505050565b6109656120a3565b610977848433600080600088886120ed565b6109a060017f9b779b17422d0df92223018b32b4d1fa46e071723d6817e2486d003becc55f0055565b50505050565b6109ae6120a3565b610977846000338660008088886120ed565b6109c861274c565b6109d1826127f1565b6109db82826127f9565b5050565b60006109e96128bb565b5060008051602061498583398151915290565b610a04611fcf565b6001600160a01b038116610a2b5760405163706ebc6560e11b815260040160405180910390fd5b600480546001600160a01b0319166001600160a01b0392909216919091179055565b610a55611fcf565b610a5f6000612904565b565b610a696120a3565b61097784600033600087600088886120ed565b7ff0c57e16840df040f15088dc2f81fe391c3923bec73e23a9662efc9c229c6a008054600160401b810460ff16159067ffffffffffffffff16600081158015610ac25750825b905060008267ffffffffffffffff166001148015610adf5750303b155b905081158015610aed575080155b15610b0b5760405163f92ee8a960e01b815260040160405180910390fd5b845467ffffffffffffffff191660011785558315610b3557845460ff60401b1916600160401b1785555b33610b3f81612975565b610b47612986565b508315610b8e57845460ff60401b19168555604051600181527fc7f505b2f371ae2175ee4913f4499e1f2633a7b5936321eed1cdaeb6115181d29060200160405180910390a15b5050505050565b60035460405163ea16003f60e01b81526001600160a01b039091169063ea16003f90610bc79084903390600401614706565b600060405180830381600087803b158015610be157600080fd5b505af1158015610b8e573d6000803e3d6000fd5b60008054604051635373433f60e01b81526001600160a01b03848116600483015283921690635373433f90602401602060405180830381865afa158015610c40573d6000803e3d6000fd5b505050506040513d601f19601f82011682018060405250810190610c6491906146c4565b600654604051635373433f60e01b81526001600160a01b03868116600483015292935060009290911690635373433f90602401610908565b610ca46120a3565b61097784600033600087600188886120ed565b610cbf611fcf565b601154600160a01b900460ff1615610ce957604051625f22e960e41b815260040160405180910390fd5b60108114610d0a57604051633f5a111d60e21b815260040160405180910390fd5b60005b6010811015610dad576000838383818110610d2a57610d2a614720565b9050602002016020810190610d3f91906143b6565b6001600160a01b031603610da55780838383818110610d6057610d60614720565b9050602002016020810190610d7591906143b6565b604051630d9d339f60e01b815260048101929092526001600160a01b031660248201526044015b60405180910390fd5b600101610d0d565b5081816000818110610dc157610dc1614720565b9050602002016020810190610dd691906143b6565b600080546001600160a01b0319166001600160a01b039290921691909117905581816001818110610e0957610e09614720565b9050602002016020810190610e1e91906143b6565b600180546001600160a01b0319166001600160a01b039290921691909117905581816002818110610e5157610e51614720565b9050602002016020810190610e6691906143b6565b600280546001600160a01b0319166001600160a01b039290921691909117905581816003818110610e9957610e99614720565b9050602002016020810190610eae91906143b6565b600380546001600160a01b0319166001600160a01b039290921691909117905581816004818110610ee157610ee1614720565b9050602002016020810190610ef691906143b6565b600580546001600160a01b0319166001600160a01b039290921691909117815582908290818110610f2957610f29614720565b9050602002016020810190610f3e91906143b6565b600680546001600160a01b0319166001600160a01b039290921691909117815582908290818110610f7157610f71614720565b9050602002016020810190610f8691906143b6565b600780546001600160a01b0319166001600160a01b039290921691909117815582908290818110610fb957610fb9614720565b9050602002016020810190610fce91906143b6565b600880546001600160a01b0319166001600160a01b03929092169190911781558290829081811061100157611001614720565b905060200201602081019061101691906143b6565b600980546001600160a01b0319166001600160a01b03929092169190911781558290829081811061104957611049614720565b905060200201602081019061105e91906143b6565b600b80546001600160a01b0319166001600160a01b03929092169190911790558181600a81811061109157611091614720565b90506020020160208101906110a691906143b6565b600c80546001600160a01b0319166001600160a01b03929092169190911790558181600b8181106110d9576110d9614720565b90506020020160208101906110ee91906143b6565b600d80546001600160a01b0319166001600160a01b03929092169190911790558181600c81811061112157611121614720565b905060200201602081019061113691906143b6565b600e80546001600160a01b0319166001600160a01b03929092169190911790558181600d81811061116957611169614720565b905060200201602081019061117e91906143b6565b600f80546001600160a01b0319166001600160a01b03929092169190911790558181600e8181106111b1576111b1614720565b90506020020160208101906111c691906143b6565b601080546001600160a01b0319166001600160a01b03929092169190911790558181600f8181106111f9576111f9614720565b905060200201602081019061120e91906143b6565b601180546001600160a81b0319166001600160a01b039290921691909117600160a01b1790555050565b611242813361298e565b600b54604051635670bcc760e11b81526001600160a01b038381166004830152600092169063ace1798e90602401602060405180830381865afa15801561128d573d6000803e3d6000fd5b505050506040513d601f19601f820116820180604052508101906112b191906146c4565b90506112bd8282612a6d565b60105460405163df4fb9ef60e01b81526001600160a01b039091169063df4fb9ef906112ef9085903390600401614706565b600060405180830381600087803b15801561130957600080fd5b505af115801561131d573d6000803e3d6000fd5b5050601054604051633517ff1b60e11b8152600093506001600160a01b039091169150636a2ffe36906113569086903390600401614706565b602060405180830381865afa158015611373573d6000803e3d6000fd5b505050506040513d601f19601f8201168201806040525081019061139791906146c4565b60105460405163f9a3d41f60e01b81529192506000916001600160a01b039091169063f9a3d41f906113cf9087903390600401614706565b602060405180830381865afa1580156113ec573d6000803e3d6000fd5b505050506040513d601f19601f8201168201806040525081019061141091906146c4565b60015460405163c08261db60e01b81526001600160a01b0387811660048301529293506000929091169063c08261db90602401602060405180830381865afa158015611460573d6000803e3d6000fd5b505050506040513d601f19601f8201168201806040525081019061148491906146c4565b6007546040516320e3d2f760e11b81529192506000916001600160a01b03909116906341c7a5ee906114c69033908a90670de0b6b3a764000090600401614736565b6020604051808303816000875af11580156114e5573d6000803e3d6000fd5b505050506040513d601f19601f8201168201806040525081019061150991906146c4565b9050600081611518848661475a565b611522919061475a565b905061152e3382612aea565b6000611540888760008860008c612bda565b905061154c8882612c50565b601054604051633ed3a18f60e21b81526001600160a01b039091169063fb4e863c9061157e908b903390600401614706565b600060405180830381600087803b15801561159857600080fd5b505af11580156115ac573d6000803e3d6000fd5b5050601054604051633d9ef93160e01b81526001600160a01b039091169250633d9ef93191506115e2908b903390600401614706565b600060405180830381600087803b1580156115fc57600080fd5b505af1158015611610573d6000803e3d6000fd5b50505050336001600160a01b0316886001600160a01b03167f7feef73802d9a37116f36078fbc66117c8cdb7b4c9bdddf51ee03257c786b32a60008060006001604051611660949392919061478f565b60405180910390a361167488338486612d45565b8315611694576009546116949089906001600160a01b0316866000612d45565b60075460405163871d814560e01b81526001600160a01b039091169063871d8145906116c69033908c90600401614706565b600060405180830381600087803b1580156116e057600080fd5b505af11580156116f4573d6000803e3d6000fd5b50506000546040516347878f1560e01b81526001600160a01b0390911692506347878f15915061172c908b9033908b90600401614736565b600060405180830381600087803b15801561174657600080fd5b505af115801561175a573d6000803e3d6000fd5b505050505050505050505050565b6001546040516317ae1fc560e01b81526001600160a01b038781166004830152909116906317ae1fc590602401602060405180830381865afa1580156117b2573d6000803e3d6000fd5b505050506040513d601f19601f820116820180604052508101906117d691906147b1565b6118325760405162461bcd60e51b815260206004820152602760248201527f426f72726f7765724f7065726174696f6e733a204173736574206973206e6f746044820152662061637469766560c81b6064820152608401610d9c565b61188a60405180610120016040528060006001600160a01b0316815260200160008152602001600081526020016000815260200160008152602001600081526020016000815260200160008152602001600081525090565b6001600160a01b03868116808352600b54604051635670bcc760e11b815260048101929092529091169063ace1798e90602401602060405180830381865afa1580156118da573d6000803e3d6000fd5b505050506040513d601f19601f820116820180604052508101906118fe91906146c4565b6020820181905281516000916119149190612e2b565b9050611924826000015133612eb0565b606082018590528061195857815161193c9086612f76565b60408301819052606083015161195291906146f3565b60608301525b61196a826000015183606001516130ca565b600154825160405163c08261db60e01b81526001600160a01b039182166004820152600092919091169063c08261db90602401602060405180830381865afa1580156119ba573d6000803e3d6000fd5b505050506040513d601f19601f820116820180604052508101906119de91906146c4565b90508083606001516119f091906146f3565b60808401819052600003611a465760405162461bcd60e51b815260206004820152601960248201527f636f6d706f73697465446562742063616e6e6f742062652030000000000000006044820152606401610d9c565b611a5987846080015185602001516131ad565b60a08401526080830151611a6e9088906131e1565b60c08401528115611a9057611a8b83600001518460a00151613217565b611ad2565b611aa283600001518460a001516132fa565b6000611ac08460000151896001876080015160018960200151612bda565b9050611ad0846000015182612c50565b505b6010548351604051636f4ecd4560e01b81526001600160a01b0390921691636f4ecd4591611b07913390600190600401614736565b600060405180830381600087803b158015611b2157600080fd5b505af1158015611b35573d6000803e3d6000fd5b5050601054855160405163061e9dc360e01b8152600094506001600160a01b03909216925063061e9dc391611b71919033908d90600401614736565b6020604051808303816000875af1158015611b90573d6000803e3d6000fd5b505050506040513d601f19601f82011682018060405250810190611bb491906146c4565b6010548551608087015160405163c2bac5f160e01b81529394506000936001600160a01b039093169263c2bac5f192611bf4929091339190600401614736565b6020604051808303816000875af1158015611c13573d6000803e3d6000fd5b505050506040513d601f19601f82011682018060405250810190611c3791906146c4565b6010548651604051634eebd97f60e01b81529293506001600160a01b0390911691634eebd97f91611c6c913390600401614706565b600060405180830381600087803b158015611c8657600080fd5b505af1158015611c9a573d6000803e3d6000fd5b5050601054875160405163dbe9f91960e01b81526001600160a01b03909216935063dbe9f9199250611cd0913390600401614706565b6020604051808303816000875af1158015611cef573d6000803e3d6000fd5b505050506040513d601f19601f82011682018060405250810190611d1391906146c4565b60e0860152600c54855160c0870151604051633e499e0560e11b81526001600160a01b039283166004820152336024820152604481019190915289821660648201528882166084820152911690637c933c0a9060a401600060405180830381600087803b158015611d8357600080fd5b505af1158015611d97573d6000803e3d6000fd5b5050601054875160405163d1a71b5f60e01b81526001600160a01b03909216935063d1a71b5f9250611dcd913390600401614706565b6020604051808303816000875af1158015611dec573d6000803e3d6000fd5b505050506040513d601f19601f82011682018060405250810190611e1091906146c4565b6101008601819052855160405191825233916001600160a01b03909116907f30d1b1917c27aa4ce4d813612d438af6adea3706bb2009e7309788f4bfc61f7d9060200160405180910390a38451611e67908a6133ef565b611e7b8560000151338a8860600151613483565b8215611e9b578451600954611e9b91906001600160a01b03168580613483565b845160e086015160405133926001600160a01b0316917f7feef73802d9a37116f36078fbc66117c8cdb7b4c9bdddf51ee03257c786b32a91611ee491869188919060009061478f565b60405180910390a38451604080870151905190815233916001600160a01b0316907fd89359f0d8e7f936d0682c5565cc5a16989a91560a80c7b06c46c28e52a5d43a9060200160405180910390a350505050505050505050565b611f466120a3565b611f5687873388888888886120ed565b611f7f60017f9b779b17422d0df92223018b32b4d1fa46e071723d6817e2486d003becc55f0055565b50505050505050565b611f90611fcf565b6001600160a01b038116611fba57604051631e4fbdf760e01b815260006004820152602401610d9c565b611fc381612904565b50565b611fc3816127f1565b336120017f9016d09d72d40fdae2fd8ceac6b6234c7706214fd39c1cd1e609a0528c199300546001600160a01b031690565b6001600160a01b031614610a5f5760405163118cdaa760e01b8152336004820152602401610d9c565b60015460405163c08261db60e01b81526001600160a01b038481166004830152600092169063c08261db90602401602060405180830381865afa158015612075573d6000803e3d6000fd5b505050506040513d601f19601f8201168201806040525081019061209991906146c4565b61085c90836146f3565b7f9b779b17422d0df92223018b32b4d1fa46e071723d6817e2486d003becc55f008054600119016120e757604051633ee5aeb560e01b815260040160405180910390fd5b60029055565b61216a604051806101c0016040528060006001600160a01b031681526020016000151581526020016000815260200160008152602001600081526020016000815260200160008152602001600081526020016000815260200160008152602001600081526020016000815260200160008152602001600081525090565b6001600160a01b03898116808352600b54604051635670bcc760e11b815260048101929092529091169063ace1798e90602401602060405180830381865afa1580156121ba573d6000803e3d6000fd5b505050506040513d601f19601f820116820180604052508101906121de91906146c4565b6040820181905281516000916121f49190612e2b565b9050841561220557612205866136fc565b61220f878a613772565b61221a87878b6137e2565b8151612226908961298e565b336001600160a01b038916148061225b5750600d546001600160a01b03163314801561225157508815155b801561225b575085155b612267576122676147ce565b601054825160405163df4fb9ef60e01b81526001600160a01b039092169163df4fb9ef91612299918c90600401614706565b600060405180830381600087803b1580156122b357600080fd5b505af11580156122c7573d6000803e3d6000fd5b505050506122d5898861387a565b151560208401526060830152608082018690528480156122f3575080155b156123215781516123049087612f76565b6101408301819052608083015161231b91906146f3565b60808301525b601054825160405163f9a3d41f60e01b81526001600160a01b039092169163f9a3d41f91612353918c90600401614706565b602060405180830381865afa158015612370573d6000803e3d6000fd5b505050506040513d601f19601f8201168201806040525081019061239491906146c4565b60a08301526010548251604051633517ff1b60e11b81526001600160a01b0390921691636a2ffe36916123cb918c90600401614706565b602060405180830381865afa1580156123e8573d6000803e3d6000fd5b505050506040513d601f19601f8201168201806040525081019061240c91906146c4565b60c0830181905260a083015160408401516124289291906131ad565b8260e00181815250506124588260c001518360a001518460600151856020015186608001518a8860400151613899565b61010083015260c08201518711156124b25760405162461bcd60e51b815260206004820181905260248201527f426f72726f7765724f70733a20626164205f636f6c6c5769746864726177616c6044820152606401610d9c565b81516124c190828988866138cc565b841580156124ce57508515155b1561252657612501826000015183608001516124f285600001518660a00151613948565b6124fc919061475a565b6130ca565b61251882600001518360a0015184608001516139c1565b612526888360800151612aea565b6125448260000151898460600151856020015186608001518a613abc565b610160840152610180830152601054825160405163dbe9f91960e01b81526001600160a01b039092169163dbe9f91991612582918c90600401614706565b6020604051808303816000875af11580156125a1573d6000803e3d6000fd5b505050506040513d601f19601f820116820180604052508101906125c591906146c4565b826101a001818152505060006125f38360c001518460a001518560600151866020015187608001518b613cc6565b600c54845160405163bc9b5bd560e01b81526001600160a01b0391821660048201528c821660248201526044810184905288821660648201528782166084820152929350169063bc9b5bd59060a401600060405180830381600087803b15801561265c57600080fd5b505af1158015612670573d6000803e3d6000fd5b50505050886001600160a01b031683600001516001600160a01b03167f7feef73802d9a37116f36078fbc66117c8cdb7b4c9bdddf51ee03257c786b32a856101600151866101800151876101a0015160026040516126d1949392919061478f565b60405180910390a3825161014084015160405190815233916001600160a01b0316907fd89359f0d8e7f936d0682c5565cc5a16989a91560a80c7b06c46c28e52a5d43a9060200160405180910390a361273f836000015133856060015186602001518b8b8960800151613ce9565b5050505050505050505050565b306001600160a01b037f00000000000000000000000000000000000000000000000000000000000000001614806127d357507f00000000000000000000000000000000000000000000000000000000000000006001600160a01b03166127c7600080516020614985833981519152546001600160a01b031690565b6001600160a01b031614155b15610a5f5760405163703e46dd60e11b815260040160405180910390fd5b611fc3611fcf565b816001600160a01b03166352d1902d6040518163ffffffff1660e01b8152600401602060405180830381865afa925050508015612853575060408051601f3d908101601f19168201909252612850918101906146c4565b60015b61287b57604051634c9c8ce360e01b81526001600160a01b0383166004820152602401610d9c565b60008051602061498583398151915281146128ac57604051632a87526960e21b815260048101829052602401610d9c565b6128b68383613d84565b505050565b306001600160a01b037f00000000000000000000000000000000000000000000000000000000000000001614610a5f5760405163703e46dd60e11b815260040160405180910390fd5b7f9016d09d72d40fdae2fd8ceac6b6234c7706214fd39c1cd1e609a0528c19930080546001600160a01b031981166001600160a01b03848116918217845560405192169182907f8be0079c531659141344cd1fd0a4f28419497f9722a3daafe3b4186f6b6457e090600090a3505050565b61297d613dda565b611fc381613e23565b610a5f613dda565b601054604051632862f79760e11b81526000916001600160a01b0316906350c5ef2e906129c19086908690600401614706565b602060405180830381865afa1580156129de573d6000803e3d6000fd5b505050506040513d601f19601f82011682018060405250810190612a0291906146c4565b9050806001146128b65760405162461bcd60e51b815260206004820152603060248201527f426f72726f7765724f70733a205472656e426f7820646f6573206e6f7420657860448201526f1a5cdd081bdc881a5cc818db1bdcd95960821b6064820152608401610d9c565b612a778282612e2b565b156109db5760405162461bcd60e51b815260206004820152603960248201527f426f72726f7765724f70733a204f7065726174696f6e206e6f74207065726d6960448201527f7474656420647572696e67205265636f76657279204d6f6465000000000000006064820152608401610d9c565b6005546040516370a0823160e01b81526001600160a01b038481166004830152839216906370a0823190602401602060405180830381865afa158015612b34573d6000803e3d6000fd5b505050506040513d601f19601f82011682018060405250810190612b5891906146c4565b10156109db5760405162461bcd60e51b8152602060048201526044602482018190527f426f72726f7765724f70733a2043616c6c657220646f65736e74206861766520908201527f656e6f756768206465627420746f6b656e7320746f206d616b652072657061796064820152631b595b9d60e21b608482015260a401610d9c565b600080612be688610bf5565b90506000612bf389610865565b905086612c0957612c04888361475a565b612c13565b612c1388836146f3565b915084612c2957612c24868261475a565b612c33565b612c3386826146f3565b90506000612c428383876131ad565b9a9950505050505050505050565b60015460405163316a306d60e11b81526001600160a01b038481166004830152909116906362d460da90602401602060405180830381865afa158015612c9a573d6000803e3d6000fd5b505050506040513d601f19601f82011682018060405250810190612cbe91906146c4565b8110156109db5760405162461bcd60e51b815260206004820152604960248201527f426f72726f7765724f70733a20416e206f7065726174696f6e2074686174207760448201527f6f756c6420726573756c7420696e20544352203c20434352206973206e6f74206064820152681c195c9b5a5d1d195960ba1b608482015260a401610d9c565b6000546001600160a01b0316632fb9ba3185612d6184866146f3565b6040516001600160e01b031960e085901b1681526001600160a01b0390921660048301526024820152604401600060405180830381600087803b158015612da757600080fd5b505af1158015612dbb573d6000803e3d6000fd5b5050600554604051632770a7eb60e21b81526001600160a01b038781166004830152602482018790529091169250639dc29fac9150604401600060405180830381600087803b158015612e0d57600080fd5b505af1158015612e21573d6000803e3d6000fd5b5050505050505050565b600080612e388484613e2b565b60015460405163316a306d60e11b81526001600160a01b0387811660048301529293509116906362d460da90602401602060405180830381865afa158015612e84573d6000803e3d6000fd5b505050506040513d601f19601f82011682018060405250810190612ea891906146c4565b119392505050565b601054604051632862f79760e11b81526000916001600160a01b0316906350c5ef2e90612ee39086908690600401614706565b602060405180830381865afa158015612f00573d6000803e3d6000fd5b505050506040513d601f19601f82011682018060405250810190612f2491906146c4565b9050806001036128b65760405162461bcd60e51b815260206004820152601e60248201527f426f72726f7765724f70733a205472656e426f782069732061637469766500006044820152606401610d9c565b6010546040516314757c1360e31b81526001600160a01b03848116600483015260248201849052600092839291169063a3abe09890604401602060405180830381865afa158015612fcb573d6000803e3d6000fd5b505050506040513d601f19601f82011682018060405250810190612fef91906146c4565b600554600754604051636361ddf360e11b81529293506001600160a01b039182169263c6c3bbe69261302a9289929116908690600401614736565b600060405180830381600087803b15801561304457600080fd5b505af1158015613058573d6000803e3d6000fd5b50506007546040516336f1224960e11b81526001600160a01b039091169250636de24492915061309090339088908690600401614736565b600060405180830381600087803b1580156130aa57600080fd5b505af11580156130be573d6000803e3d6000fd5b50929695505050505050565b6001546040516321b443a360e21b81526001600160a01b038481166004830152909116906386d10e8c90602401602060405180830381865afa158015613114573d6000803e3d6000fd5b505050506040513d601f19601f8201168201806040525081019061313891906146c4565b8110156109db5760405162461bcd60e51b815260206004820152603c60248201527f426f72726f7765724f70733a205472656e426f782773206e657420646562742060448201527f6d7573742062652067726561746572207468616e206d696e696d756d000000006064820152608401610d9c565b600082156131d5576000836131c284876147e4565b6131cc9190614811565b91506131da9050565b506000195b9392505050565b6000811561320e57816131fd68056bc75e2d63100000856147e4565b6132079190614811565b905061085f565b5060001961085f565b60015460405163316a306d60e11b81526001600160a01b038481166004830152909116906362d460da90602401602060405180830381865afa158015613261573d6000803e3d6000fd5b505050506040513d601f19601f8201168201806040525081019061328591906146c4565b8110156109db5760405162461bcd60e51b815260206004820152603960248201527f426f72726f7765724f70733a204f7065726174696f6e206d757374206c65617660448201527f65207472656e426f78207769746820494352203e3d20434352000000000000006064820152608401610d9c565b600154604051633c557a6f60e11b81526001600160a01b038481166004830152909116906378aaf4de90602401602060405180830381865afa158015613344573d6000803e3d6000fd5b505050506040513d601f19601f8201168201806040525081019061336891906146c4565b8110156109db5760405162461bcd60e51b815260206004820152604960248201527f426f72726f7765724f70733a20416e206f7065726174696f6e2074686174207760448201527f6f756c6420726573756c7420696e20494352203c204d4352206973206e6f74206064820152681c195c9b5a5d1d195960ba1b608482015260a401610d9c565b600054604051633ac5bc0160e21b81526001600160a01b038481166004830152602482018490529091169063eb16f00490604401600060405180830381600087803b15801561343d57600080fd5b505af1158015613451573d6000803e3d6000fd5b50506000546109db92503391506001600160a01b03166134718585613e5a565b6001600160a01b038616929190613f92565b60065460405163c5739d0b60e01b81526001600160a01b038681166004830152600092849291169063c5739d0b90602401602060405180830381865afa1580156134d1573d6000803e3d6000fd5b505050506040513d601f19601f820116820180604052508101906134f591906146c4565b60005460405163c5739d0b60e01b81526001600160a01b0389811660048301529091169063c5739d0b90602401602060405180830381865afa15801561353f573d6000803e3d6000fd5b505050506040513d601f19601f8201168201806040525081019061356391906146c4565b61356d91906146f3565b61357791906146f3565b6001546040516391bbfd0d60e01b81526001600160a01b0388811660048301529293509116906391bbfd0d90602401602060405180830381865afa1580156135c3573d6000803e3d6000fd5b505050506040513d601f19601f820116820180604052508101906135e791906146c4565b8111156136295760405162461bcd60e51b815260206004820152601060248201526f045786365656473206d696e74206361760841b6044820152606401610d9c565b60005460405163f8585db360e01b81526001600160a01b038781166004830152602482018590529091169063f8585db390604401600060405180830381600087803b15801561367757600080fd5b505af115801561368b573d6000803e3d6000fd5b5050600554604051636361ddf360e11b81526001600160a01b03909116925063c6c3bbe691506136c390889088908890600401614736565b600060405180830381600087803b1580156136dd57600080fd5b505af11580156136f1573d6000803e3d6000fd5b505050505050505050565b80600003611fc35760405162461bcd60e51b815260206004820152603760248201527f426f72726f7765724f70733a204465627420696e63726561736520726571756960448201527f726573206e6f6e2d7a65726f20646562744368616e67650000000000000000006064820152608401610d9c565b81158061377d575080155b6109db5760405162461bcd60e51b815260206004820152603060248201527f426f72726f7765724f7065726174696f6e733a2043616e6e6f7420776974686460448201526f1c985dc8185b99081859190818dbdb1b60821b6064820152608401610d9c565b821515806137ef57508115155b806137f957508015155b6128b65760405162461bcd60e51b815260206004820152604660248201527f426f72726f7765724f70733a205468657265206d75737420626520656974686560448201527f72206120636f6c6c61746572616c206368616e6765206f7220612064656274206064820152656368616e676560d01b608482015260a401610d9c565b600080831561388e57508290506001613892565b8291505b9250929050565b60008060006138ac8a8a8a8a8a8a613fec565b9150915060006138bd8383876131ad565b9b9a5050505050505050505050565b8315613908576138db8361402a565b8115613903576138f085826101000151613217565b6139038161010001518260e0015161409e565b610b8e565b613917858261010001516132fa565b61393585826060015183602001518460800151868660400151612bda565b6101208201819052610b8e908690612c50565b60015460405163c08261db60e01b81526001600160a01b038481166004830152600092169063c08261db90602401602060405180830381865afa158015613993573d6000803e3d6000fd5b505050506040513d601f19601f820116820180604052508101906139b791906146c4565b61085c908361475a565b60015460405163c08261db60e01b81526001600160a01b0385811660048301529091169063c08261db90602401602060405180830381865afa158015613a0b573d6000803e3d6000fd5b505050506040513d601f19601f82011682018060405250810190613a2f91906146c4565b613a39908361475a565b8111156128b65760405162461bcd60e51b815260206004820152604560248201527f426f72726f7765724f70733a20416d6f756e7420726570616964206d7573742060448201527f6e6f74206265206c6172676572207468616e20746865205472656e426f782773606482015264081919589d60da1b608482015260a401610d9c565b600080600085613b42576010546040516333eeaefd60e01b81526001600160a01b03909116906333eeaefd90613afa908c908c908c90600401614736565b6020604051808303816000875af1158015613b19573d6000803e3d6000fd5b505050506040513d601f19601f82011682018060405250810190613b3d91906146c4565b613bb9565b60105460405163061e9dc360e01b81526001600160a01b039091169063061e9dc390613b76908c908c908c90600401614736565b6020604051808303816000875af1158015613b95573d6000803e3d6000fd5b505050506040513d601f19601f82011682018060405250810190613bb991906146c4565b9050600084613c3e57601054604051631cc12cc760e11b81526001600160a01b0390911690633982598e90613bf6908d908d908b90600401614736565b6020604051808303816000875af1158015613c15573d6000803e3d6000fd5b505050506040513d601f19601f82011682018060405250810190613c3991906146c4565b613cb5565b60105460405163c2bac5f160e01b81526001600160a01b039091169063c2bac5f190613c72908d908d908b90600401614736565b6020604051808303816000875af1158015613c91573d6000803e3d6000fd5b505050506040513d601f19601f82011682018060405250810190613cb591906146c4565b919a91995090975050505050505050565b6000806000613cd9898989898989613fec565b915091506000612c4283836131e1565b8115613d0057613cfb87878584613483565b613d0d565b613d0d8787856000612d45565b8315613d2257613d1d87866133ef565b611f7f565b6000546040516347878f1560e01b81526001600160a01b03909116906347878f1590613d56908a908a908a90600401614736565b600060405180830381600087803b158015613d7057600080fd5b505af115801561273f573d6000803e3d6000fd5b613d8d82614116565b6040516001600160a01b038316907fbc7cd75a20ee27fd9adebab32041f755214dbc6bffa90cc0225b39da2e5c2d3b90600090a2805115613dd2576128b6828261417b565b6109db6141e8565b7ff0c57e16840df040f15088dc2f81fe391c3923bec73e23a9662efc9c229c6a0054600160401b900460ff16610a5f57604051631afcd79f60e31b815260040160405180910390fd5b611f90613dda565b600080613e3784610bf5565b90506000613e4485610865565b9050613e518282866131ad565b95945050505050565b60006001600160a01b038316613e8357604051631dcb38eb60e11b815260040160405180910390fd5b81600003613e935750600061085f565b6000836001600160a01b031663313ce5676040518163ffffffff1660e01b8152600401602060405180830381865afa158015613ed3573d6000803e3d6000fd5b505050506040513d601f19601f82011682018060405250810190613ef79190614825565b905060128160ff161015613f5a576000613f12826012614848565b613f1d90600a614945565b9050613f298185614954565b15613f4757604051630f51ac8560e31b815260040160405180910390fd5b613f518185614811565b9250505061085f565b60128160ff161115613f8a576000613f73601283614848565b613f7e90600a614945565b9050613f5181856147e4565b509092915050565b6109a084856001600160a01b03166323b872dd868686604051602401613fba93929190614736565b604051602081830303815290604052915060e01b6020820180516001600160e01b038381831617835250505050614207565b60008087878661400557614000888b61475a565b61400f565b61400f888b6146f3565b91508461402057613c39868a61475a565b613cb5868a6146f3565b8015611fc35760405162461bcd60e51b815260206004820152603e60248201527f426f72726f7765724f70733a20436f6c6c61746572616c20776974686472617760448201527f616c206e6f74207065726d6974746564205265636f76657279204d6f646500006064820152608401610d9c565b808210156109db576040805162461bcd60e51b81526020600482015260248101919091527f426f72726f7765724f70733a2043616e6e6f7420646563726561736520796f7560448201527f72205472656e426f7827732049435220696e205265636f76657279204d6f64656064820152608401610d9c565b806001600160a01b03163b60000361414c57604051634c9c8ce360e01b81526001600160a01b0382166004820152602401610d9c565b60008051602061498583398151915280546001600160a01b0319166001600160a01b0392909216919091179055565b6060600080846001600160a01b0316846040516141989190614968565b600060405180830381855af49150503d80600081146141d3576040519150601f19603f3d011682016040523d82523d6000602084013e6141d8565b606091505b5091509150613e5185838361426a565b3415610a5f5760405163b398979f60e01b815260040160405180910390fd5b600061421c6001600160a01b038416836142c6565b9050805160001415801561424157508080602001905181019061423f91906147b1565b155b156128b657604051635274afe760e01b81526001600160a01b0384166004820152602401610d9c565b60608261427f5761427a826142d4565b6131da565b815115801561429657506001600160a01b0384163b155b156142bf57604051639996b31560e01b81526001600160a01b0385166004820152602401610d9c565b50806131da565b606061085c838360006142fd565b8051156142e45780518082602001fd5b604051630a12f52160e11b815260040160405180910390fd5b6060814710156143225760405163cd78605960e01b8152306004820152602401610d9c565b600080856001600160a01b0316848660405161433e9190614968565b60006040518083038185875af1925050503d806000811461437b576040519150601f19603f3d011682016040523d82523d6000602084013e614380565b606091505b509150915061439086838361426a565b9695505050505050565b80356001600160a01b03811681146143b157600080fd5b919050565b6000602082840312156143c857600080fd5b61085c8261439a565b600080604083850312156143e457600080fd5b6143ed8361439a565b946020939093013593505050565b6000806000806080858703121561441157600080fd5b61441a8561439a565b93506020850135925061442f6040860161439a565b915061443d6060860161439a565b905092959194509250565b634e487b7160e01b600052604160045260246000fd5b6000806040838503121561447157600080fd5b61447a8361439a565b9150602083013567ffffffffffffffff8082111561449757600080fd5b818501915085601f8301126144ab57600080fd5b8135818111156144bd576144bd614448565b604051601f8201601f19908116603f011681019083821181831017156144e5576144e5614448565b816040528281528860208487010111156144fe57600080fd5b8260208601602083013760006020848301015280955050505050509250929050565b60005b8381101561453b578181015183820152602001614523565b50506000910152565b6020815260008251806020840152614563816040850160208701614520565b601f01601f19169190910160400192915050565b6000806020838503121561458a57600080fd5b823567ffffffffffffffff808211156145a257600080fd5b818501915085601f8301126145b657600080fd5b8135818111156145c557600080fd5b8660208260051b85010111156145da57600080fd5b60209290920196919550909350505050565b600080600080600060a0868803121561460457600080fd5b61460d8661439a565b945060208601359350604086013592506146296060870161439a565b91506146376080870161439a565b90509295509295909350565b8015158114611fc357600080fd5b600080600080600080600060e0888a03121561466c57600080fd5b6146758861439a565b9650602088013595506040880135945060608801359350608088013561469a81614643565b92506146a860a0890161439a565b91506146b660c0890161439a565b905092959891949750929550565b6000602082840312156146d657600080fd5b5051919050565b634e487b7160e01b600052601160045260246000fd5b8082018082111561085f5761085f6146dd565b6001600160a01b0392831681529116602082015260400190565b634e487b7160e01b600052603260045260246000fd5b6001600160a01b039384168152919092166020820152604081019190915260600190565b8181038181111561085f5761085f6146dd565b6003811061478b57634e487b7160e01b600052602160045260246000fd5b9052565b848152602081018490526040810183905260808101613e51606083018461476d565b6000602082840312156147c357600080fd5b81516131da81614643565b634e487b7160e01b600052600160045260246000fd5b808202811582820484141761085f5761085f6146dd565b634e487b7160e01b600052601260045260246000fd5b600082614820576148206147fb565b500490565b60006020828403121561483757600080fd5b815160ff811681146131da57600080fd5b60ff828116828216039081111561085f5761085f6146dd565b600181815b8085111561489c578160001904821115614882576148826146dd565b8085161561488f57918102915b93841c9390800290614866565b509250929050565b6000826148b35750600161085f565b816148c05750600061085f565b81600181146148d657600281146148e0576148fc565b600191505061085f565b60ff8411156148f1576148f16146dd565b50506001821b61085f565b5060208310610133831016604e8410600b841016171561491f575081810a61085f565b6149298383614861565b806000190482111561493d5761493d6146dd565b029392505050565b600061085c60ff8416836148a4565b600082614963576149636147fb565b500690565b6000825161497a818460208701614520565b919091019291505056fe360894a13ba1a3210667c828492db98dca3e2076cc3735a920a3ca505d382bbca164736f6c6343000817000a",
  "devdoc": {
    "errors": {
      "AddressEmptyCode(address)": [
        {
          "details": "There's no code at `target` (it is not a contract)."
        }
      ],
      "AddressInsufficientBalance(address)": [
        {
          "details": "The ETH balance of the account is not enough to perform the operation."
        }
      ],
      "ERC1967InvalidImplementation(address)": [
        {
          "details": "The `implementation` of the proxy is invalid."
        }
      ],
      "ERC1967NonPayable()": [
        {
          "details": "An upgrade function sees `msg.value > 0` that may be lost."
        }
      ],
      "FailedInnerCall()": [
        {
          "details": "A call to an address target failed. The target may have reverted."
        }
      ],
      "InvalidInitialization()": [
        {
          "details": "The contract is already initialized."
        }
      ],
      "NotInitializing()": [
        {
          "details": "The contract is not initializing."
        }
      ],
      "OwnableInvalidOwner(address)": [
        {
          "details": "The owner is not a valid owner account. (eg. `address(0)`)"
        }
      ],
      "OwnableUnauthorizedAccount(address)": [
        {
          "details": "The caller account is not authorized to perform an operation."
        }
      ],
      "ReentrancyGuardReentrantCall()": [
        {
          "details": "Unauthorized reentrant call."
        }
      ],
      "SafeERC20FailedOperation(address)": [
        {
          "details": "An operation with an ERC20 token failed."
        }
      ],
      "UUPSUnauthorizedCallContext()": [
        {
          "details": "The call is from an unauthorized context."
        }
      ],
      "UUPSUnsupportedProxiableUUID(bytes32)": [
        {
          "details": "The storage `slot` is unsupported as a UUID."
        }
      ]
    },
    "events": {
      "Initialized(uint64)": {
        "details": "Triggered when the contract has been initialized or reinitialized."
      },
      "Upgraded(address)": {
        "details": "Emitted when the implementation is upgraded."
      }
    },
    "kind": "dev",
    "methods": {
      "owner()": {
        "details": "Returns the address of the current owner."
      },
      "proxiableUUID()": {
        "details": "Implementation of the ERC1822 {proxiableUUID} function. This returns the storage slot used by the implementation. It is used to validate the implementation's compatibility when performing an upgrade. IMPORTANT: A proxy pointing at a proxiable contract should not be considered proxiable itself, because this risks bricking a proxy that upgrades to it, by delegating to itself until out of gas. Thus it is critical that this function revert if invoked through a proxy. This is guaranteed by the `notDelegated` modifier."
      },
      "renounceOwnership()": {
        "details": "Leaves the contract without owner. It will not be possible to call `onlyOwner` functions. Can only be called by the current owner. NOTE: Renouncing ownership will leave the contract without an owner, thereby disabling any functionality that is only available to the owner."
      },
      "transferOwnership(address)": {
        "details": "Transfers ownership of the contract to a new account (`newOwner`). Can only be called by the current owner."
      },
      "upgradeToAndCall(address,bytes)": {
        "custom:oz-upgrades-unsafe-allow-reachable": "delegatecall",
        "details": "Upgrade the implementation of the proxy to `newImplementation`, and subsequently execute the function call encoded in `data`. Calls {_authorizeUpgrade}. Emits an {Upgraded} event."
      }
    },
    "version": 1
  },
  "userdoc": {
    "kind": "user",
    "methods": {
      "claimCollateral(address)": {
        "notice": "Claim remaining collateral from a redemption or from a liquidation with ICR > MCR in Recovery Mode"
      }
    },
    "version": 1
  },
  "storageLayout": {
    "storage": [
      {
        "astId": 9991,
        "contract": "contracts/BorrowerOperations.sol:BorrowerOperations",
        "label": "activePool",
        "offset": 0,
        "slot": "0",
        "type": "t_address"
      },
      {
        "astId": 9993,
        "contract": "contracts/BorrowerOperations.sol:BorrowerOperations",
        "label": "adminContract",
        "offset": 0,
        "slot": "1",
        "type": "t_address"
      },
      {
        "astId": 9995,
        "contract": "contracts/BorrowerOperations.sol:BorrowerOperations",
        "label": "borrowerOperations",
        "offset": 0,
        "slot": "2",
        "type": "t_address"
      },
      {
        "astId": 9997,
        "contract": "contracts/BorrowerOperations.sol:BorrowerOperations",
        "label": "collSurplusPool",
        "offset": 0,
        "slot": "3",
        "type": "t_address"
      },
      {
        "astId": 9999,
        "contract": "contracts/BorrowerOperations.sol:BorrowerOperations",
        "label": "communityIssuance",
        "offset": 0,
        "slot": "4",
        "type": "t_address"
      },
      {
        "astId": 10001,
        "contract": "contracts/BorrowerOperations.sol:BorrowerOperations",
        "label": "debtToken",
        "offset": 0,
        "slot": "5",
        "type": "t_address"
      },
      {
        "astId": 10003,
        "contract": "contracts/BorrowerOperations.sol:BorrowerOperations",
        "label": "defaultPool",
        "offset": 0,
        "slot": "6",
        "type": "t_address"
      },
      {
        "astId": 10005,
        "contract": "contracts/BorrowerOperations.sol:BorrowerOperations",
        "label": "feeCollector",
        "offset": 0,
        "slot": "7",
        "type": "t_address"
      },
      {
        "astId": 10007,
        "contract": "contracts/BorrowerOperations.sol:BorrowerOperations",
        "label": "flashLoanAddress",
        "offset": 0,
        "slot": "8",
        "type": "t_address"
      },
      {
        "astId": 10009,
        "contract": "contracts/BorrowerOperations.sol:BorrowerOperations",
        "label": "gasPoolAddress",
        "offset": 0,
        "slot": "9",
        "type": "t_address"
      },
      {
        "astId": 10011,
        "contract": "contracts/BorrowerOperations.sol:BorrowerOperations",
        "label": "trenStaking",
        "offset": 0,
        "slot": "10",
        "type": "t_address"
      },
      {
        "astId": 10013,
        "contract": "contracts/BorrowerOperations.sol:BorrowerOperations",
        "label": "priceFeed",
        "offset": 0,
        "slot": "11",
        "type": "t_address"
      },
      {
        "astId": 10015,
        "contract": "contracts/BorrowerOperations.sol:BorrowerOperations",
        "label": "sortedTrenBoxes",
        "offset": 0,
        "slot": "12",
        "type": "t_address"
      },
      {
        "astId": 10017,
        "contract": "contracts/BorrowerOperations.sol:BorrowerOperations",
        "label": "stabilityPool",
        "offset": 0,
        "slot": "13",
        "type": "t_address"
      },
      {
        "astId": 10019,
        "contract": "contracts/BorrowerOperations.sol:BorrowerOperations",
        "label": "timelockAddress",
        "offset": 0,
        "slot": "14",
        "type": "t_address"
      },
      {
        "astId": 10021,
        "contract": "contracts/BorrowerOperations.sol:BorrowerOperations",
        "label": "treasuryAddress",
        "offset": 0,
        "slot": "15",
        "type": "t_address"
      },
      {
        "astId": 10023,
        "contract": "contracts/BorrowerOperations.sol:BorrowerOperations",
        "label": "trenBoxManager",
        "offset": 0,
        "slot": "16",
        "type": "t_address"
      },
      {
        "astId": 10025,
        "contract": "contracts/BorrowerOperations.sol:BorrowerOperations",
        "label": "trenBoxManagerOperations",
        "offset": 0,
        "slot": "17",
        "type": "t_address"
      },
      {
        "astId": 10027,
        "contract": "contracts/BorrowerOperations.sol:BorrowerOperations",
        "label": "isAddressSetupInitialized",
        "offset": 20,
        "slot": "17",
        "type": "t_bool"
      },
      {
        "astId": 10032,
        "contract": "contracts/BorrowerOperations.sol:BorrowerOperations",
        "label": "__gap",
        "offset": 0,
        "slot": "18",
        "type": "t_array(t_uint256)33_storage"
      }
    ],
    "types": {
      "t_address": {
        "encoding": "inplace",
        "label": "address",
        "numberOfBytes": "20"
      },
      "t_array(t_uint256)33_storage": {
        "base": "t_uint256",
        "encoding": "inplace",
        "label": "uint256[33]",
        "numberOfBytes": "1056"
      },
      "t_bool": {
        "encoding": "inplace",
        "label": "bool",
        "numberOfBytes": "1"
      },
      "t_uint256": {
        "encoding": "inplace",
        "label": "uint256",
        "numberOfBytes": "32"
      }
    }
  }
}