{
  "address": "0xa3671cd32acb1eab33cea877b31fd6a0eb67edfa",
  "abi": [
    {
      "inputs": [
        {
          "internalType": "address",
          "name": "target",
          "type": "address"
        }
      ],
      "name": "AddressEmptyCode",
      "type": "error"
    },
    {
      "inputs": [
        {
          "internalType": "address",
          "name": "account",
          "type": "address"
        }
      ],
      "name": "AddressInsufficientBalance",
      "type": "error"
    },
    {
      "inputs": [
        {
          "internalType": "address",
          "name": "implementation",
          "type": "address"
        }
      ],
      "name": "ERC1967InvalidImplementation",
      "type": "error"
    },
    {
      "inputs": [],
      "name": "ERC1967NonPayable",
      "type": "error"
    },
    {
      "inputs": [],
      "name": "EthUnsupportedError",
      "type": "error"
    },
    {
      "inputs": [],
      "name": "FailedInnerCall",
      "type": "error"
    },
    {
      "inputs": [],
      "name": "InvalidAmountError",
      "type": "error"
    },
    {
      "inputs": [],
      "name": "InvalidInitialization",
      "type": "error"
    },
    {
      "inputs": [],
      "name": "NotInitializing",
      "type": "error"
    },
    {
      "inputs": [
        {
          "internalType": "address",
          "name": "owner",
          "type": "address"
        }
      ],
      "name": "OwnableInvalidOwner",
      "type": "error"
    },
    {
      "inputs": [
        {
          "internalType": "address",
          "name": "account",
          "type": "address"
        }
      ],
      "name": "OwnableUnauthorizedAccount",
      "type": "error"
    },
    {
      "inputs": [],
      "name": "ReentrancyGuardReentrantCall",
      "type": "error"
    },
    {
      "inputs": [
        {
          "internalType": "address",
          "name": "token",
          "type": "address"
        }
      ],
      "name": "SafeERC20FailedOperation",
      "type": "error"
    },
    {
      "inputs": [],
      "name": "UUPSUnauthorizedCallContext",
      "type": "error"
    },
    {
      "inputs": [
        {
          "internalType": "bytes32",
          "name": "slot",
          "type": "bytes32"
        }
      ],
      "name": "UUPSUnsupportedProxiableUUID",
      "type": "error"
    },
    {
      "anonymous": false,
      "inputs": [
        {
          "indexed": true,
          "internalType": "address",
          "name": "_asset",
          "type": "address"
        },
        {
          "indexed": true,
          "internalType": "address",
          "name": "_borrower",
          "type": "address"
        },
        {
          "indexed": false,
          "internalType": "uint256",
          "name": "_feeAmount",
          "type": "uint256"
        }
      ],
      "name": "BorrowingFeePaid",
      "type": "event"
    },
    {
      "anonymous": false,
      "inputs": [
        {
          "indexed": false,
          "internalType": "uint64",
          "name": "version",
          "type": "uint64"
        }
      ],
      "name": "Initialized",
      "type": "event"
    },
    {
      "anonymous": false,
      "inputs": [
        {
          "indexed": true,
          "internalType": "address",
          "name": "previousOwner",
          "type": "address"
        },
        {
          "indexed": true,
          "internalType": "address",
          "name": "newOwner",
          "type": "address"
        }
      ],
      "name": "OwnershipTransferred",
      "type": "event"
    },
    {
      "anonymous": false,
      "inputs": [
        {
          "indexed": true,
          "internalType": "address",
          "name": "_asset",
          "type": "address"
        },
        {
          "indexed": true,
          "internalType": "address",
          "name": "_borrower",
          "type": "address"
        },
        {
          "indexed": false,
          "internalType": "uint256",
          "name": "arrayIndex",
          "type": "uint256"
        }
      ],
      "name": "TrenBoxCreated",
      "type": "event"
    },
    {
      "anonymous": false,
      "inputs": [
        {
          "indexed": true,
          "internalType": "address",
          "name": "_asset",
          "type": "address"
        },
        {
          "indexed": true,
          "internalType": "address",
          "name": "_borrower",
          "type": "address"
        },
        {
          "indexed": false,
          "internalType": "uint256",
          "name": "_debt",
          "type": "uint256"
        },
        {
          "indexed": false,
          "internalType": "uint256",
          "name": "_coll",
          "type": "uint256"
        },
        {
          "indexed": false,
          "internalType": "uint256",
          "name": "stake",
          "type": "uint256"
        },
        {
          "indexed": false,
          "internalType": "enum IBorrowerOperations.BorrowerOperation",
          "name": "operation",
          "type": "uint8"
        }
      ],
      "name": "TrenBoxUpdated",
      "type": "event"
    },
    {
      "anonymous": false,
      "inputs": [
        {
          "indexed": true,
          "internalType": "address",
          "name": "implementation",
          "type": "address"
        }
      ],
      "name": "Upgraded",
      "type": "event"
    },
    {
      "inputs": [],
      "name": "DECIMAL_PRECISION",
      "outputs": [
        {
          "internalType": "uint256",
          "name": "",
          "type": "uint256"
        }
      ],
      "stateMutability": "view",
      "type": "function"
    },
    {
      "inputs": [],
      "name": "NAME",
      "outputs": [
        {
          "internalType": "string",
          "name": "",
          "type": "string"
        }
      ],
      "stateMutability": "view",
      "type": "function"
    },
    {
      "inputs": [],
      "name": "UPGRADE_INTERFACE_VERSION",
      "outputs": [
        {
          "internalType": "string",
          "name": "",
          "type": "string"
        }
      ],
      "stateMutability": "view",
      "type": "function"
    },
    {
      "inputs": [],
      "name": "activePool",
      "outputs": [
        {
          "internalType": "address",
          "name": "",
          "type": "address"
        }
      ],
      "stateMutability": "view",
      "type": "function"
    },
    {
      "inputs": [
        {
          "internalType": "address",
          "name": "_asset",
          "type": "address"
        },
        {
          "internalType": "uint256",
          "name": "_assetSent",
          "type": "uint256"
        },
        {
          "internalType": "address",
          "name": "_upperHint",
          "type": "address"
        },
        {
          "internalType": "address",
          "name": "_lowerHint",
          "type": "address"
        }
      ],
      "name": "addColl",
      "outputs": [],
      "stateMutability": "nonpayable",
      "type": "function"
    },
    {
      "inputs": [
        {
          "internalType": "address",
          "name": "_asset",
          "type": "address"
        },
        {
          "internalType": "uint256",
          "name": "_assetSent",
          "type": "uint256"
        },
        {
          "internalType": "uint256",
          "name": "_collWithdrawal",
          "type": "uint256"
        },
        {
          "internalType": "uint256",
          "name": "_debtTokenChange",
          "type": "uint256"
        },
        {
          "internalType": "bool",
          "name": "_isDebtIncrease",
          "type": "bool"
        },
        {
          "internalType": "address",
          "name": "_upperHint",
          "type": "address"
        },
        {
          "internalType": "address",
          "name": "_lowerHint",
          "type": "address"
        }
      ],
      "name": "adjustTrenBox",
      "outputs": [],
      "stateMutability": "nonpayable",
      "type": "function"
    },
    {
      "inputs": [],
      "name": "adminContract",
      "outputs": [
        {
          "internalType": "address",
          "name": "",
          "type": "address"
        }
      ],
      "stateMutability": "view",
      "type": "function"
    },
    {
      "inputs": [
        {
          "internalType": "address",
          "name": "newImplementation",
          "type": "address"
        }
      ],
      "name": "authorizeUpgrade",
      "outputs": [],
      "stateMutability": "nonpayable",
      "type": "function"
    },
    {
      "inputs": [],
      "name": "borrowerOperations",
      "outputs": [
        {
          "internalType": "address",
          "name": "",
          "type": "address"
        }
      ],
      "stateMutability": "view",
      "type": "function"
    },
    {
      "inputs": [
        {
          "internalType": "address",
          "name": "_asset",
          "type": "address"
        }
      ],
      "name": "claimCollateral",
      "outputs": [],
      "stateMutability": "nonpayable",
      "type": "function"
    },
    {
      "inputs": [
        {
          "internalType": "address",
          "name": "_asset",
          "type": "address"
        }
      ],
      "name": "closeTrenBox",
      "outputs": [],
      "stateMutability": "nonpayable",
      "type": "function"
    },
    {
      "inputs": [],
      "name": "collSurplusPool",
      "outputs": [
        {
          "internalType": "address",
          "name": "",
          "type": "address"
        }
      ],
      "stateMutability": "view",
      "type": "function"
    },
    {
      "inputs": [],
      "name": "communityIssuance",
      "outputs": [
        {
          "internalType": "address",
          "name": "",
          "type": "address"
        }
      ],
      "stateMutability": "view",
      "type": "function"
    },
    {
      "inputs": [],
      "name": "debtToken",
      "outputs": [
        {
          "internalType": "address",
          "name": "",
          "type": "address"
        }
      ],
      "stateMutability": "view",
      "type": "function"
    },
    {
      "inputs": [],
      "name": "defaultPool",
      "outputs": [
        {
          "internalType": "address",
          "name": "",
          "type": "address"
        }
      ],
      "stateMutability": "view",
      "type": "function"
    },
    {
      "inputs": [],
      "name": "feeCollector",
      "outputs": [
        {
          "internalType": "address",
          "name": "",
          "type": "address"
        }
      ],
      "stateMutability": "view",
      "type": "function"
    },
    {
      "inputs": [],
      "name": "gasPoolAddress",
      "outputs": [
        {
          "internalType": "address",
          "name": "",
          "type": "address"
        }
      ],
      "stateMutability": "view",
      "type": "function"
    },
    {
      "inputs": [
        {
          "internalType": "address",
          "name": "_asset",
          "type": "address"
        },
        {
          "internalType": "uint256",
          "name": "_debt",
          "type": "uint256"
        }
      ],
      "name": "getCompositeDebt",
      "outputs": [
        {
          "internalType": "uint256",
          "name": "",
          "type": "uint256"
        }
      ],
      "stateMutability": "view",
      "type": "function"
    },
    {
      "inputs": [
        {
          "internalType": "address",
          "name": "_asset",
          "type": "address"
        }
      ],
      "name": "getEntireSystemColl",
      "outputs": [
        {
          "internalType": "uint256",
          "name": "entireSystemColl",
          "type": "uint256"
        }
      ],
      "stateMutability": "view",
      "type": "function"
    },
    {
      "inputs": [
        {
          "internalType": "address",
          "name": "_asset",
          "type": "address"
        }
      ],
      "name": "getEntireSystemDebt",
      "outputs": [
        {
          "internalType": "uint256",
          "name": "entireSystemDebt",
          "type": "uint256"
        }
      ],
      "stateMutability": "view",
      "type": "function"
    },
    {
      "inputs": [],
      "name": "initialize",
      "outputs": [],
      "stateMutability": "nonpayable",
      "type": "function"
    },
    {
      "inputs": [],
      "name": "isAddressSetupInitialized",
      "outputs": [
        {
          "internalType": "bool",
          "name": "",
          "type": "bool"
        }
      ],
      "stateMutability": "view",
      "type": "function"
    },
    {
      "inputs": [
        {
          "internalType": "address",
          "name": "_asset",
          "type": "address"
        },
        {
          "internalType": "uint256",
          "name": "_assetAmount",
          "type": "uint256"
        },
        {
          "internalType": "uint256",
          "name": "_debtTokenAmount",
          "type": "uint256"
        },
        {
          "internalType": "address",
          "name": "_upperHint",
          "type": "address"
        },
        {
          "internalType": "address",
          "name": "_lowerHint",
          "type": "address"
        }
      ],
      "name": "openTrenBox",
      "outputs": [],
      "stateMutability": "nonpayable",
      "type": "function"
    },
    {
      "inputs": [],
      "name": "owner",
      "outputs": [
        {
          "internalType": "address",
          "name": "",
          "type": "address"
        }
      ],
      "stateMutability": "view",
      "type": "function"
    },
    {
      "inputs": [],
      "name": "priceFeed",
      "outputs": [
        {
          "internalType": "address",
          "name": "",
          "type": "address"
        }
      ],
      "stateMutability": "view",
      "type": "function"
    },
    {
      "inputs": [],
      "name": "proxiableUUID",
      "outputs": [
        {
          "internalType": "bytes32",
          "name": "",
          "type": "bytes32"
        }
      ],
      "stateMutability": "view",
      "type": "function"
    },
    {
      "inputs": [],
      "name": "renounceOwnership",
      "outputs": [],
      "stateMutability": "nonpayable",
      "type": "function"
    },
    {
      "inputs": [
        {
          "internalType": "address",
          "name": "_asset",
          "type": "address"
        },
        {
          "internalType": "uint256",
          "name": "_debtTokenAmount",
          "type": "uint256"
        },
        {
          "internalType": "address",
          "name": "_upperHint",
          "type": "address"
        },
        {
          "internalType": "address",
          "name": "_lowerHint",
          "type": "address"
        }
      ],
      "name": "repayDebtTokens",
      "outputs": [],
      "stateMutability": "nonpayable",
      "type": "function"
    },
    {
      "inputs": [
        {
          "internalType": "address[]",
          "name": "_addresses",
          "type": "address[]"
        }
      ],
      "name": "setAddresses",
      "outputs": [],
      "stateMutability": "nonpayable",
      "type": "function"
    },
    {
      "inputs": [
        {
          "internalType": "address",
          "name": "_communityIssuance",
          "type": "address"
        }
      ],
      "name": "setCommunityIssuance",
      "outputs": [],
      "stateMutability": "nonpayable",
      "type": "function"
    },
    {
      "inputs": [
        {
          "internalType": "address",
          "name": "_trenStaking",
          "type": "address"
        }
      ],
      "name": "setTRENStaking",
      "outputs": [],
      "stateMutability": "nonpayable",
      "type": "function"
    },
    {
      "inputs": [],
      "name": "sortedTrenBoxes",
      "outputs": [
        {
          "internalType": "address",
          "name": "",
          "type": "address"
        }
      ],
      "stateMutability": "view",
      "type": "function"
    },
    {
      "inputs": [],
      "name": "stabilityPool",
      "outputs": [
        {
          "internalType": "address",
          "name": "",
          "type": "address"
        }
      ],
      "stateMutability": "view",
      "type": "function"
    },
    {
      "inputs": [],
      "name": "timelockAddress",
      "outputs": [
        {
          "internalType": "address",
          "name": "",
          "type": "address"
        }
      ],
      "stateMutability": "view",
      "type": "function"
    },
    {
      "inputs": [
        {
          "internalType": "address",
          "name": "newOwner",
          "type": "address"
        }
      ],
      "name": "transferOwnership",
      "outputs": [],
      "stateMutability": "nonpayable",
      "type": "function"
    },
    {
      "inputs": [],
      "name": "treasuryAddress",
      "outputs": [
        {
          "internalType": "address",
          "name": "",
          "type": "address"
        }
      ],
      "stateMutability": "view",
      "type": "function"
    },
    {
      "inputs": [],
      "name": "trenBoxManager",
      "outputs": [
        {
          "internalType": "address",
          "name": "",
          "type": "address"
        }
      ],
      "stateMutability": "view",
      "type": "function"
    },
    {
      "inputs": [],
      "name": "trenBoxManagerOperations",
      "outputs": [
        {
          "internalType": "address",
          "name": "",
          "type": "address"
        }
      ],
      "stateMutability": "view",
      "type": "function"
    },
    {
      "inputs": [],
      "name": "trenStaking",
      "outputs": [
        {
          "internalType": "address",
          "name": "",
          "type": "address"
        }
      ],
      "stateMutability": "view",
      "type": "function"
    },
    {
      "inputs": [
        {
          "internalType": "address",
          "name": "newImplementation",
          "type": "address"
        },
        {
          "internalType": "bytes",
          "name": "data",
          "type": "bytes"
        }
      ],
      "name": "upgradeToAndCall",
      "outputs": [],
      "stateMutability": "payable",
      "type": "function"
    },
    {
      "inputs": [
        {
          "internalType": "address",
          "name": "_asset",
          "type": "address"
        },
        {
          "internalType": "uint256",
          "name": "_collWithdrawal",
          "type": "uint256"
        },
        {
          "internalType": "address",
          "name": "_upperHint",
          "type": "address"
        },
        {
          "internalType": "address",
          "name": "_lowerHint",
          "type": "address"
        }
      ],
      "name": "withdrawColl",
      "outputs": [],
      "stateMutability": "nonpayable",
      "type": "function"
    },
    {
      "inputs": [
        {
          "internalType": "address",
          "name": "_asset",
          "type": "address"
        },
        {
          "internalType": "uint256",
          "name": "_debtTokenAmount",
          "type": "uint256"
        },
        {
          "internalType": "address",
          "name": "_upperHint",
          "type": "address"
        },
        {
          "internalType": "address",
          "name": "_lowerHint",
          "type": "address"
        }
      ],
      "name": "withdrawDebtTokens",
      "outputs": [],
      "stateMutability": "nonpayable",
      "type": "function"
    }
  ],
  "transactionHash": "0x98134a3ddc8aa67b2e3455088f163026eb52db1ce2c3dbbd52c696c052e409e3",
  "args": [],
  "numDeployments": 1,
  "solcInputHash": "e6971fb87a17deef3641f1719687e39f",
  "bytecode": "0x60a06040523060805234801561001457600080fd5b5060805161495361003e600039600081816126f901528181612722015261286801526149536000f3fe6080604052600436106102515760003560e01c806395fb16bb11610139578063c5f956af116100b6578063e89f80541161007a578063e89f80541461073b578063f1c05a7e1461075b578063f2fde38b1461077b578063f8d898981461079b578063fe060733146107bb578063fe9d0323146107db57600080fd5b8063c5f956af1461068a578063c8564c62146106aa578063cc8b21e4146106db578063cda775f9146106fb578063d721f52a1461071b57600080fd5b8063b5c5c9fc116100fd578063b5c5c9fc146105ea578063b95717211461060a578063c05c5e941461062a578063c14e0a8a1461064a578063c415b95c1461066a57600080fd5b806395fb16bb146105125780639e86d0c414610532578063a20baee614610552578063a3f4df7e1461056e578063ad3cb1cc146105b957600080fd5b806352d1902d116101d25780637703d730116101965780637703d7301461044057806377553ad4146104605780637f7dde4a146104805780638129fc1c146104a05780638235b284146104b55780638da5cb5b146104d557600080fd5b806352d1902d146103b657806355dafa46146103cb5780636a85d67d146103eb578063715018a61461040b578063741bef1a1461042057600080fd5b80633cc74225116102195780633cc742251461032357806348a4a39d1461034357806349b010c5146103635780634bc66f32146103835780634f1ef286146103a357600080fd5b806301c931001461025657806302540e4814610278578063048c661d146102ab5780630a34d4d6146102e357806327d04b3514610303575b600080fd5b34801561026257600080fd5b50610276610271366004614358565b6107fb565b005b34801561028457600080fd5b50610298610293366004614373565b610825565b6040519081526020015b60405180910390f35b3480156102b757600080fd5b50600c546102cb906001600160a01b031681565b6040516001600160a01b0390911681526020016102a2565b3480156102ef57600080fd5b506010546102cb906001600160a01b031681565b34801561030f57600080fd5b5061029861031e366004614358565b61083a565b34801561032f57600080fd5b506006546102cb906001600160a01b031681565b34801561034f57600080fd5b5061027661035e36600461439d565b610932565b34801561036f57600080fd5b5061027661037e36600461439d565b61097b565b34801561038f57600080fd5b50600d546102cb906001600160a01b031681565b6102766103b1366004614400565b610995565b3480156103c257600080fd5b506102986109b4565b3480156103d757600080fd5b506009546102cb906001600160a01b031681565b3480156103f757600080fd5b50610276610406366004614358565b6109d1565b34801561041757600080fd5b506102766109fb565b34801561042c57600080fd5b50600a546102cb906001600160a01b031681565b34801561044c57600080fd5b5061027661045b36600461439d565b610a0f565b34801561046c57600080fd5b506002546102cb906001600160a01b031681565b34801561048c57600080fd5b506000546102cb906001600160a01b031681565b3480156104ac57600080fd5b50610276610a2a565b3480156104c157600080fd5b506102766104d0366004614358565b610b43565b3480156104e157600080fd5b507f9016d09d72d40fdae2fd8ceac6b6234c7706214fd39c1cd1e609a0528c199300546001600160a01b03166102cb565b34801561051e57600080fd5b506004546102cb906001600160a01b031681565b34801561053e57600080fd5b5061029861054d366004614358565b610ba3565b34801561055e57600080fd5b50610298670de0b6b3a764000081565b34801561057a57600080fd5b506105ac60405180604001604052806012815260200171426f72726f7765724f7065726174696f6e7360701b81525081565b6040516102a291906144e6565b3480156105c557600080fd5b506105ac604051806040016040528060058152602001640352e302e360dc1b81525081565b3480156105f657600080fd5b5061027661060536600461439d565b610c4a565b34801561061657600080fd5b50610276610625366004614519565b610c65565b34801561063657600080fd5b506001546102cb906001600160a01b031681565b34801561065657600080fd5b50610276610665366004614358565b6111e4565b34801561067657600080fd5b506007546102cb906001600160a01b031681565b34801561069657600080fd5b50600e546102cb906001600160a01b031681565b3480156106b657600080fd5b506010546106cb90600160a01b900460ff1681565b60405190151581526020016102a2565b3480156106e757600080fd5b50600b546102cb906001600160a01b031681565b34801561070757600080fd5b506003546102cb906001600160a01b031681565b34801561072757600080fd5b5061027661073636600461458e565b611714565b34801561074757600080fd5b506102766107563660046145f3565b611ee0565b34801561076757600080fd5b50600f546102cb906001600160a01b031681565b34801561078757600080fd5b50610276610796366004614358565b611f2a565b3480156107a757600080fd5b506005546102cb906001600160a01b031681565b3480156107c757600080fd5b506102766107d6366004614358565b611f68565b3480156107e757600080fd5b506008546102cb906001600160a01b031681565b610803611f71565b600980546001600160a01b0319166001600160a01b0392909216919091179055565b60006108318383611fcc565b90505b92915050565b6000805460405163c5739d0b60e01b81526001600160a01b0384811660048301528392169063c5739d0b90602401602060405180830381865afa158015610885573d6000803e3d6000fd5b505050506040513d601f19601f820116820180604052508101906108a99190614666565b60065460405163c5739d0b60e01b81526001600160a01b0386811660048301529293506000929091169063c5739d0b906024015b602060405180830381865afa1580156108fa573d6000803e3d6000fd5b505050506040513d601f19601f8201168201806040525081019061091e9190614666565b905061092a8183614695565b949350505050565b61093a612045565b61094c8484336000806000888861208f565b61097560017f9b779b17422d0df92223018b32b4d1fa46e071723d6817e2486d003becc55f0055565b50505050565b610983612045565b61094c8460003386600080888861208f565b61099d6126ee565b6109a682612793565b6109b0828261279b565b5050565b60006109be61285d565b5060008051602061492783398151915290565b6109d9611f71565b600480546001600160a01b0319166001600160a01b0392909216919091179055565b610a03611f71565b610a0d60006128a6565b565b610a17612045565b61094c846000336000876000888861208f565b7ff0c57e16840df040f15088dc2f81fe391c3923bec73e23a9662efc9c229c6a008054600160401b810460ff16159067ffffffffffffffff16600081158015610a705750825b905060008267ffffffffffffffff166001148015610a8d5750303b155b905081158015610a9b575080155b15610ab95760405163f92ee8a960e01b815260040160405180910390fd5b845467ffffffffffffffff191660011785558315610ae357845460ff60401b1916600160401b1785555b33610aed81612917565b610af5612928565b508315610b3c57845460ff60401b19168555604051600181527fc7f505b2f371ae2175ee4913f4499e1f2633a7b5936321eed1cdaeb6115181d29060200160405180910390a15b5050505050565b60035460405163ea16003f60e01b81526001600160a01b039091169063ea16003f90610b7590849033906004016146a8565b600060405180830381600087803b158015610b8f57600080fd5b505af1158015610b3c573d6000803e3d6000fd5b60008054604051635373433f60e01b81526001600160a01b03848116600483015283921690635373433f90602401602060405180830381865afa158015610bee573d6000803e3d6000fd5b505050506040513d601f19601f82011682018060405250810190610c129190614666565b600654604051635373433f60e01b81526001600160a01b03868116600483015292935060009290911690635373433f906024016108dd565b610c52612045565b61094c846000336000876001888861208f565b610c6d611f71565b601054600160a01b900460ff1615610ccc5760405162461bcd60e51b815260206004820152601c60248201527f536574757020697320616c726561647920696e697469616c697a65640000000060448201526064015b60405180910390fd5b600f8114610d1c5760405162461bcd60e51b815260206004820152601e60248201527f45787065637465642031352061646472657373657320617420736574757000006044820152606401610cc3565b60005b600f811015610da1576000838383818110610d3c57610d3c6146c2565b9050602002016020810190610d519190614358565b6001600160a01b031603610d995760405162461bcd60e51b815260206004820152600f60248201526e496e76616c6964206164647265737360881b6044820152606401610cc3565b600101610d1f565b5081816000818110610db557610db56146c2565b9050602002016020810190610dca9190614358565b600080546001600160a01b0319166001600160a01b039290921691909117905581816001818110610dfd57610dfd6146c2565b9050602002016020810190610e129190614358565b600180546001600160a01b0319166001600160a01b039290921691909117905581816002818110610e4557610e456146c2565b9050602002016020810190610e5a9190614358565b600280546001600160a01b0319166001600160a01b039290921691909117905581816003818110610e8d57610e8d6146c2565b9050602002016020810190610ea29190614358565b600380546001600160a01b0319166001600160a01b039290921691909117905581816004818110610ed557610ed56146c2565b9050602002016020810190610eea9190614358565b600580546001600160a01b0319166001600160a01b039290921691909117815582908290818110610f1d57610f1d6146c2565b9050602002016020810190610f329190614358565b600680546001600160a01b0319166001600160a01b039290921691909117815582908290818110610f6557610f656146c2565b9050602002016020810190610f7a9190614358565b600780546001600160a01b0319166001600160a01b039290921691909117815582908290818110610fad57610fad6146c2565b9050602002016020810190610fc29190614358565b600880546001600160a01b0319166001600160a01b039290921691909117815582908290818110610ff557610ff56146c2565b905060200201602081019061100a9190614358565b600a80546001600160a01b0319166001600160a01b03929092169190911790558181600981811061103d5761103d6146c2565b90506020020160208101906110529190614358565b600b80546001600160a01b0319166001600160a01b03929092169190911790558181600a818110611085576110856146c2565b905060200201602081019061109a9190614358565b600c80546001600160a01b0319166001600160a01b03929092169190911790558181600b8181106110cd576110cd6146c2565b90506020020160208101906110e29190614358565b600d80546001600160a01b0319166001600160a01b03929092169190911790558181600c818110611115576111156146c2565b905060200201602081019061112a9190614358565b600e80546001600160a01b0319166001600160a01b03929092169190911790558181600d81811061115d5761115d6146c2565b90506020020160208101906111729190614358565b600f80546001600160a01b0319166001600160a01b03929092169190911790558181600e8181106111a5576111a56146c2565b90506020020160208101906111ba9190614358565b601080546001600160a81b0319166001600160a01b039290921691909117600160a01b1790555050565b6111ee8133612930565b600a54604051635670bcc760e11b81526001600160a01b038381166004830152600092169063ace1798e90602401602060405180830381865afa158015611239573d6000803e3d6000fd5b505050506040513d601f19601f8201168201806040525081019061125d9190614666565b90506112698282612a0f565b600f5460405163df4fb9ef60e01b81526001600160a01b039091169063df4fb9ef9061129b90859033906004016146a8565b600060405180830381600087803b1580156112b557600080fd5b505af11580156112c9573d6000803e3d6000fd5b5050600f54604051633517ff1b60e11b8152600093506001600160a01b039091169150636a2ffe369061130290869033906004016146a8565b602060405180830381865afa15801561131f573d6000803e3d6000fd5b505050506040513d601f19601f820116820180604052508101906113439190614666565b600f5460405163f9a3d41f60e01b81529192506000916001600160a01b039091169063f9a3d41f9061137b90879033906004016146a8565b602060405180830381865afa158015611398573d6000803e3d6000fd5b505050506040513d601f19601f820116820180604052508101906113bc9190614666565b60015460405163c08261db60e01b81526001600160a01b0387811660048301529293506000929091169063c08261db90602401602060405180830381865afa15801561140c573d6000803e3d6000fd5b505050506040513d601f19601f820116820180604052508101906114309190614666565b6007546040516320e3d2f760e11b81529192506000916001600160a01b03909116906341c7a5ee906114729033908a90670de0b6b3a7640000906004016146d8565b6020604051808303816000875af1158015611491573d6000803e3d6000fd5b505050506040513d601f19601f820116820180604052508101906114b59190614666565b90506000816114c484866146fc565b6114ce91906146fc565b90506114da3382612a8c565b60006114ec888760008860008c612b7c565b90506114f88882612bf2565b600f54604051633ed3a18f60e21b81526001600160a01b039091169063fb4e863c9061152a908b9033906004016146a8565b600060405180830381600087803b15801561154457600080fd5b505af1158015611558573d6000803e3d6000fd5b5050600f54604051633d9ef93160e01b81526001600160a01b039091169250633d9ef931915061158e908b9033906004016146a8565b600060405180830381600087803b1580156115a857600080fd5b505af11580156115bc573d6000803e3d6000fd5b50505050336001600160a01b0316886001600160a01b03167f7feef73802d9a37116f36078fbc66117c8cdb7b4c9bdddf51ee03257c786b32a6000806000600160405161160c9493929190614731565b60405180910390a361162088338486612ce7565b8315611640576008546116409089906001600160a01b0316866000612ce7565b60075460405163871d814560e01b81526001600160a01b039091169063871d8145906116729033908c906004016146a8565b600060405180830381600087803b15801561168c57600080fd5b505af11580156116a0573d6000803e3d6000fd5b50506000546040516347878f1560e01b81526001600160a01b0390911692506347878f1591506116d8908b9033908b906004016146d8565b600060405180830381600087803b1580156116f257600080fd5b505af1158015611706573d6000803e3d6000fd5b505050505050505050505050565b6001546040516317ae1fc560e01b81526001600160a01b038781166004830152909116906317ae1fc590602401602060405180830381865afa15801561175e573d6000803e3d6000fd5b505050506040513d601f19601f820116820180604052508101906117829190614753565b6117de5760405162461bcd60e51b815260206004820152602760248201527f426f72726f7765724f7065726174696f6e733a204173736574206973206e6f746044820152662061637469766560c81b6064820152608401610cc3565b61183660405180610120016040528060006001600160a01b0316815260200160008152602001600081526020016000815260200160008152602001600081526020016000815260200160008152602001600081525090565b6001600160a01b03868116808352600a54604051635670bcc760e11b815260048101929092529091169063ace1798e90602401602060405180830381865afa158015611886573d6000803e3d6000fd5b505050506040513d601f19601f820116820180604052508101906118aa9190614666565b6020820181905281516000916118c09190612dcd565b90506118d0826000015133612e52565b60608201859052806119045781516118e89086612f18565b6040830181905260608301516118fe9190614695565b60608301525b6119168260000151836060015161306c565b600154825160405163c08261db60e01b81526001600160a01b039182166004820152600092919091169063c08261db90602401602060405180830381865afa158015611966573d6000803e3d6000fd5b505050506040513d601f19601f8201168201806040525081019061198a9190614666565b905080836060015161199c9190614695565b608084018190526000036119f25760405162461bcd60e51b815260206004820152601960248201527f636f6d706f73697465446562742063616e6e6f742062652030000000000000006044820152606401610cc3565b611a05878460800151856020015161314f565b60a08401526080830151611a1a908890613183565b60c08401528115611a3c57611a3783600001518460a001516131b9565b611a7e565b611a4e83600001518460a0015161329c565b6000611a6c8460000151896001876080015160018960200151612b7c565b9050611a7c846000015182612bf2565b505b600f548351604051636f4ecd4560e01b81526001600160a01b0390921691636f4ecd4591611ab39133906001906004016146d8565b600060405180830381600087803b158015611acd57600080fd5b505af1158015611ae1573d6000803e3d6000fd5b5050600f54855160405163061e9dc360e01b81526001600160a01b03909216935063061e9dc39250611b199133908c906004016146d8565b6020604051808303816000875af1158015611b38573d6000803e3d6000fd5b505050506040513d601f19601f82011682018060405250810190611b5c9190614666565b50600f548351608085015160405163c2bac5f160e01b81526001600160a01b039093169263c2bac5f192611b979290913391906004016146d8565b6020604051808303816000875af1158015611bb6573d6000803e3d6000fd5b505050506040513d601f19601f82011682018060405250810190611bda9190614666565b50600f548351604051634eebd97f60e01b81526001600160a01b0390921691634eebd97f91611c0d9133906004016146a8565b600060405180830381600087803b158015611c2757600080fd5b505af1158015611c3b573d6000803e3d6000fd5b5050600f54855160405163dbe9f91960e01b81526001600160a01b03909216935063dbe9f9199250611c719133906004016146a8565b6020604051808303816000875af1158015611c90573d6000803e3d6000fd5b505050506040513d601f19601f82011682018060405250810190611cb49190614666565b60e0840152600b54835160c0850151604051633e499e0560e11b81526001600160a01b039283166004820152336024820152604481019190915287821660648201528682166084820152911690637c933c0a9060a401600060405180830381600087803b158015611d2457600080fd5b505af1158015611d38573d6000803e3d6000fd5b5050600f54855160405163d1a71b5f60e01b81526001600160a01b03909216935063d1a71b5f9250611d6e9133906004016146a8565b6020604051808303816000875af1158015611d8d573d6000803e3d6000fd5b505050506040513d601f19601f82011682018060405250810190611db19190614666565b6101008401819052835160405191825233916001600160a01b03909116907f30d1b1917c27aa4ce4d813612d438af6adea3706bb2009e7309788f4bfc61f7d9060200160405180910390a38251611e089088613391565b611e1c836000015133888660600151613425565b8015611e3c578251600854611e3c91906001600160a01b03168380613425565b8251608084015160e085015160405133936001600160a01b0316927f7feef73802d9a37116f36078fbc66117c8cdb7b4c9bdddf51ee03257c786b32a92611e88928d9190600090614731565b60405180910390a38251604080850151905190815233916001600160a01b0316907fd89359f0d8e7f936d0682c5565cc5a16989a91560a80c7b06c46c28e52a5d43a9060200160405180910390a35050505050505050565b611ee8612045565b611ef8878733888888888861208f565b611f2160017f9b779b17422d0df92223018b32b4d1fa46e071723d6817e2486d003becc55f0055565b50505050505050565b611f32611f71565b6001600160a01b038116611f5c57604051631e4fbdf760e01b815260006004820152602401610cc3565b611f65816128a6565b50565b611f6581612793565b33611fa37f9016d09d72d40fdae2fd8ceac6b6234c7706214fd39c1cd1e609a0528c199300546001600160a01b031690565b6001600160a01b031614610a0d5760405163118cdaa760e01b8152336004820152602401610cc3565b60015460405163c08261db60e01b81526001600160a01b038481166004830152600092169063c08261db90602401602060405180830381865afa158015612017573d6000803e3d6000fd5b505050506040513d601f19601f8201168201806040525081019061203b9190614666565b6108319083614695565b7f9b779b17422d0df92223018b32b4d1fa46e071723d6817e2486d003becc55f0080546001190161208957604051633ee5aeb560e01b815260040160405180910390fd5b60029055565b61210c604051806101c0016040528060006001600160a01b031681526020016000151581526020016000815260200160008152602001600081526020016000815260200160008152602001600081526020016000815260200160008152602001600081526020016000815260200160008152602001600081525090565b6001600160a01b03898116808352600a54604051635670bcc760e11b815260048101929092529091169063ace1798e90602401602060405180830381865afa15801561215c573d6000803e3d6000fd5b505050506040513d601f19601f820116820180604052508101906121809190614666565b6040820181905281516000916121969190612dcd565b905084156121a7576121a78661369e565b6121b1878a613714565b6121bc87878b613784565b81516121c89089612930565b336001600160a01b03891614806121fd5750600c546001600160a01b0316331480156121f357508815155b80156121fd575085155b61220957612209614770565b600f54825160405163df4fb9ef60e01b81526001600160a01b039092169163df4fb9ef9161223b918c906004016146a8565b600060405180830381600087803b15801561225557600080fd5b505af1158015612269573d6000803e3d6000fd5b50505050612277898861381c565b15156020840152606083015260808201869052848015612295575080155b156122c35781516122a69087612f18565b610140830181905260808301516122bd9190614695565b60808301525b600f54825160405163f9a3d41f60e01b81526001600160a01b039092169163f9a3d41f916122f5918c906004016146a8565b602060405180830381865afa158015612312573d6000803e3d6000fd5b505050506040513d601f19601f820116820180604052508101906123369190614666565b60a0830152600f548251604051633517ff1b60e11b81526001600160a01b0390921691636a2ffe369161236d918c906004016146a8565b602060405180830381865afa15801561238a573d6000803e3d6000fd5b505050506040513d601f19601f820116820180604052508101906123ae9190614666565b60c0830181905260a083015160408401516123ca92919061314f565b8260e00181815250506123fa8260c001518360a001518460600151856020015186608001518a886040015161383b565b61010083015260c08201518711156124545760405162461bcd60e51b815260206004820181905260248201527f426f72726f7765724f70733a20626164205f636f6c6c5769746864726177616c6044820152606401610cc3565b8151612463908289888661386e565b8415801561247057508515155b156124c8576124a38260000151836080015161249485600001518660a001516138ea565b61249e91906146fc565b61306c565b6124ba82600001518360a001518460800151613963565b6124c8888360800151612a8c565b6124e68260000151898460600151856020015186608001518a613a5e565b610160840152610180830152600f54825160405163dbe9f91960e01b81526001600160a01b039092169163dbe9f91991612524918c906004016146a8565b6020604051808303816000875af1158015612543573d6000803e3d6000fd5b505050506040513d601f19601f820116820180604052508101906125679190614666565b826101a001818152505060006125958360c001518460a001518560600151866020015187608001518b613c68565b600b54845160405163bc9b5bd560e01b81526001600160a01b0391821660048201528c821660248201526044810184905288821660648201528782166084820152929350169063bc9b5bd59060a401600060405180830381600087803b1580156125fe57600080fd5b505af1158015612612573d6000803e3d6000fd5b50505050886001600160a01b031683600001516001600160a01b03167f7feef73802d9a37116f36078fbc66117c8cdb7b4c9bdddf51ee03257c786b32a856101600151866101800151876101a0015160026040516126739493929190614731565b60405180910390a3825161014084015160405190815233916001600160a01b0316907fd89359f0d8e7f936d0682c5565cc5a16989a91560a80c7b06c46c28e52a5d43a9060200160405180910390a36126e1836000015133856060015186602001518b8b8960800151613c8b565b5050505050505050505050565b306001600160a01b037f000000000000000000000000000000000000000000000000000000000000000016148061277557507f00000000000000000000000000000000000000000000000000000000000000006001600160a01b0316612769600080516020614927833981519152546001600160a01b031690565b6001600160a01b031614155b15610a0d5760405163703e46dd60e11b815260040160405180910390fd5b611f65611f71565b816001600160a01b03166352d1902d6040518163ffffffff1660e01b8152600401602060405180830381865afa9250505080156127f5575060408051601f3d908101601f191682019092526127f291810190614666565b60015b61281d57604051634c9c8ce360e01b81526001600160a01b0383166004820152602401610cc3565b600080516020614927833981519152811461284e57604051632a87526960e21b815260048101829052602401610cc3565b6128588383613d26565b505050565b306001600160a01b037f00000000000000000000000000000000000000000000000000000000000000001614610a0d5760405163703e46dd60e11b815260040160405180910390fd5b7f9016d09d72d40fdae2fd8ceac6b6234c7706214fd39c1cd1e609a0528c19930080546001600160a01b031981166001600160a01b03848116918217845560405192169182907f8be0079c531659141344cd1fd0a4f28419497f9722a3daafe3b4186f6b6457e090600090a3505050565b61291f613d7c565b611f6581613dc5565b610a0d613d7c565b600f54604051632862f79760e11b81526000916001600160a01b0316906350c5ef2e9061296390869086906004016146a8565b602060405180830381865afa158015612980573d6000803e3d6000fd5b505050506040513d601f19601f820116820180604052508101906129a49190614666565b9050806001146128585760405162461bcd60e51b815260206004820152603060248201527f426f72726f7765724f70733a205472656e426f7820646f6573206e6f7420657860448201526f1a5cdd081bdc881a5cc818db1bdcd95960821b6064820152608401610cc3565b612a198282612dcd565b156109b05760405162461bcd60e51b815260206004820152603960248201527f426f72726f7765724f70733a204f7065726174696f6e206e6f74207065726d6960448201527f7474656420647572696e67205265636f76657279204d6f6465000000000000006064820152608401610cc3565b6005546040516370a0823160e01b81526001600160a01b038481166004830152839216906370a0823190602401602060405180830381865afa158015612ad6573d6000803e3d6000fd5b505050506040513d601f19601f82011682018060405250810190612afa9190614666565b10156109b05760405162461bcd60e51b8152602060048201526044602482018190527f426f72726f7765724f70733a2043616c6c657220646f65736e74206861766520908201527f656e6f756768206465627420746f6b656e7320746f206d616b652072657061796064820152631b595b9d60e21b608482015260a401610cc3565b600080612b8888610ba3565b90506000612b958961083a565b905086612bab57612ba688836146fc565b612bb5565b612bb58883614695565b915084612bcb57612bc686826146fc565b612bd5565b612bd58682614695565b90506000612be483838761314f565b9a9950505050505050505050565b60015460405163316a306d60e11b81526001600160a01b038481166004830152909116906362d460da90602401602060405180830381865afa158015612c3c573d6000803e3d6000fd5b505050506040513d601f19601f82011682018060405250810190612c609190614666565b8110156109b05760405162461bcd60e51b815260206004820152604960248201527f426f72726f7765724f70733a20416e206f7065726174696f6e2074686174207760448201527f6f756c6420726573756c7420696e20544352203c20434352206973206e6f74206064820152681c195c9b5a5d1d195960ba1b608482015260a401610cc3565b6000546001600160a01b0316632fb9ba3185612d038486614695565b6040516001600160e01b031960e085901b1681526001600160a01b0390921660048301526024820152604401600060405180830381600087803b158015612d4957600080fd5b505af1158015612d5d573d6000803e3d6000fd5b5050600554604051632770a7eb60e21b81526001600160a01b038781166004830152602482018790529091169250639dc29fac9150604401600060405180830381600087803b158015612daf57600080fd5b505af1158015612dc3573d6000803e3d6000fd5b5050505050505050565b600080612dda8484613dcd565b60015460405163316a306d60e11b81526001600160a01b0387811660048301529293509116906362d460da90602401602060405180830381865afa158015612e26573d6000803e3d6000fd5b505050506040513d601f19601f82011682018060405250810190612e4a9190614666565b119392505050565b600f54604051632862f79760e11b81526000916001600160a01b0316906350c5ef2e90612e8590869086906004016146a8565b602060405180830381865afa158015612ea2573d6000803e3d6000fd5b505050506040513d601f19601f82011682018060405250810190612ec69190614666565b9050806001036128585760405162461bcd60e51b815260206004820152601e60248201527f426f72726f7765724f70733a205472656e426f782069732061637469766500006044820152606401610cc3565b600f546040516314757c1360e31b81526001600160a01b03848116600483015260248201849052600092839291169063a3abe09890604401602060405180830381865afa158015612f6d573d6000803e3d6000fd5b505050506040513d601f19601f82011682018060405250810190612f919190614666565b600554600754604051636361ddf360e11b81529293506001600160a01b039182169263c6c3bbe692612fcc92899291169086906004016146d8565b600060405180830381600087803b158015612fe657600080fd5b505af1158015612ffa573d6000803e3d6000fd5b50506007546040516336f1224960e11b81526001600160a01b039091169250636de244929150613032903390889086906004016146d8565b600060405180830381600087803b15801561304c57600080fd5b505af1158015613060573d6000803e3d6000fd5b50929695505050505050565b6001546040516321b443a360e21b81526001600160a01b038481166004830152909116906386d10e8c90602401602060405180830381865afa1580156130b6573d6000803e3d6000fd5b505050506040513d601f19601f820116820180604052508101906130da9190614666565b8110156109b05760405162461bcd60e51b815260206004820152603c60248201527f426f72726f7765724f70733a205472656e426f782773206e657420646562742060448201527f6d7573742062652067726561746572207468616e206d696e696d756d000000006064820152608401610cc3565b60008215613177576000836131648487614786565b61316e91906147b3565b915061317c9050565b506000195b9392505050565b600081156131b0578161319f68056bc75e2d6310000085614786565b6131a991906147b3565b9050610834565b50600019610834565b60015460405163316a306d60e11b81526001600160a01b038481166004830152909116906362d460da90602401602060405180830381865afa158015613203573d6000803e3d6000fd5b505050506040513d601f19601f820116820180604052508101906132279190614666565b8110156109b05760405162461bcd60e51b815260206004820152603960248201527f426f72726f7765724f70733a204f7065726174696f6e206d757374206c65617660448201527f65207472656e426f78207769746820494352203e3d20434352000000000000006064820152608401610cc3565b600154604051633c557a6f60e11b81526001600160a01b038481166004830152909116906378aaf4de90602401602060405180830381865afa1580156132e6573d6000803e3d6000fd5b505050506040513d601f19601f8201168201806040525081019061330a9190614666565b8110156109b05760405162461bcd60e51b815260206004820152604960248201527f426f72726f7765724f70733a20416e206f7065726174696f6e2074686174207760448201527f6f756c6420726573756c7420696e20494352203c204d4352206973206e6f74206064820152681c195c9b5a5d1d195960ba1b608482015260a401610cc3565b600054604051633ac5bc0160e21b81526001600160a01b038481166004830152602482018490529091169063eb16f00490604401600060405180830381600087803b1580156133df57600080fd5b505af11580156133f3573d6000803e3d6000fd5b50506000546109b092503391506001600160a01b03166134138585613dfc565b6001600160a01b038616929190613f34565b60065460405163c5739d0b60e01b81526001600160a01b038681166004830152600092849291169063c5739d0b90602401602060405180830381865afa158015613473573d6000803e3d6000fd5b505050506040513d601f19601f820116820180604052508101906134979190614666565b60005460405163c5739d0b60e01b81526001600160a01b0389811660048301529091169063c5739d0b90602401602060405180830381865afa1580156134e1573d6000803e3d6000fd5b505050506040513d601f19601f820116820180604052508101906135059190614666565b61350f9190614695565b6135199190614695565b6001546040516391bbfd0d60e01b81526001600160a01b0388811660048301529293509116906391bbfd0d90602401602060405180830381865afa158015613565573d6000803e3d6000fd5b505050506040513d601f19601f820116820180604052508101906135899190614666565b8111156135cb5760405162461bcd60e51b815260206004820152601060248201526f045786365656473206d696e74206361760841b6044820152606401610cc3565b60005460405163f8585db360e01b81526001600160a01b038781166004830152602482018590529091169063f8585db390604401600060405180830381600087803b15801561361957600080fd5b505af115801561362d573d6000803e3d6000fd5b5050600554604051636361ddf360e11b81526001600160a01b03909116925063c6c3bbe69150613665908890889088906004016146d8565b600060405180830381600087803b15801561367f57600080fd5b505af1158015613693573d6000803e3d6000fd5b505050505050505050565b80600003611f655760405162461bcd60e51b815260206004820152603760248201527f426f72726f7765724f70733a204465627420696e63726561736520726571756960448201527f726573206e6f6e2d7a65726f20646562744368616e67650000000000000000006064820152608401610cc3565b81158061371f575080155b6109b05760405162461bcd60e51b815260206004820152603060248201527f426f72726f7765724f7065726174696f6e733a2043616e6e6f7420776974686460448201526f1c985dc8185b99081859190818dbdb1b60821b6064820152608401610cc3565b8215158061379157508115155b8061379b57508015155b6128585760405162461bcd60e51b815260206004820152604660248201527f426f72726f7765724f70733a205468657265206d75737420626520656974686560448201527f72206120636f6c6c61746572616c206368616e6765206f7220612064656274206064820152656368616e676560d01b608482015260a401610cc3565b600080831561383057508290506001613834565b8291505b9250929050565b600080600061384e8a8a8a8a8a8a613f8e565b91509150600061385f83838761314f565b9b9a5050505050505050505050565b83156138aa5761387d83613fcc565b81156138a557613892858261010001516131b9565b6138a58161010001518260e00151614040565b610b3c565b6138b98582610100015161329c565b6138d785826060015183602001518460800151868660400151612b7c565b6101208201819052610b3c908690612bf2565b60015460405163c08261db60e01b81526001600160a01b038481166004830152600092169063c08261db90602401602060405180830381865afa158015613935573d6000803e3d6000fd5b505050506040513d601f19601f820116820180604052508101906139599190614666565b61083190836146fc565b60015460405163c08261db60e01b81526001600160a01b0385811660048301529091169063c08261db90602401602060405180830381865afa1580156139ad573d6000803e3d6000fd5b505050506040513d601f19601f820116820180604052508101906139d19190614666565b6139db90836146fc565b8111156128585760405162461bcd60e51b815260206004820152604560248201527f426f72726f7765724f70733a20416d6f756e7420726570616964206d7573742060448201527f6e6f74206265206c6172676572207468616e20746865205472656e426f782773606482015264081919589d60da1b608482015260a401610cc3565b600080600085613ae457600f546040516333eeaefd60e01b81526001600160a01b03909116906333eeaefd90613a9c908c908c908c906004016146d8565b6020604051808303816000875af1158015613abb573d6000803e3d6000fd5b505050506040513d601f19601f82011682018060405250810190613adf9190614666565b613b5b565b600f5460405163061e9dc360e01b81526001600160a01b039091169063061e9dc390613b18908c908c908c906004016146d8565b6020604051808303816000875af1158015613b37573d6000803e3d6000fd5b505050506040513d601f19601f82011682018060405250810190613b5b9190614666565b9050600084613be057600f54604051631cc12cc760e11b81526001600160a01b0390911690633982598e90613b98908d908d908b906004016146d8565b6020604051808303816000875af1158015613bb7573d6000803e3d6000fd5b505050506040513d601f19601f82011682018060405250810190613bdb9190614666565b613c57565b600f5460405163c2bac5f160e01b81526001600160a01b039091169063c2bac5f190613c14908d908d908b906004016146d8565b6020604051808303816000875af1158015613c33573d6000803e3d6000fd5b505050506040513d601f19601f82011682018060405250810190613c579190614666565b919a91995090975050505050505050565b6000806000613c7b898989898989613f8e565b915091506000612be48383613183565b8115613ca257613c9d87878584613425565b613caf565b613caf8787856000612ce7565b8315613cc457613cbf8786613391565b611f21565b6000546040516347878f1560e01b81526001600160a01b03909116906347878f1590613cf8908a908a908a906004016146d8565b600060405180830381600087803b158015613d1257600080fd5b505af11580156126e1573d6000803e3d6000fd5b613d2f826140b8565b6040516001600160a01b038316907fbc7cd75a20ee27fd9adebab32041f755214dbc6bffa90cc0225b39da2e5c2d3b90600090a2805115613d7457612858828261411d565b6109b061418a565b7ff0c57e16840df040f15088dc2f81fe391c3923bec73e23a9662efc9c229c6a0054600160401b900460ff16610a0d57604051631afcd79f60e31b815260040160405180910390fd5b611f32613d7c565b600080613dd984610ba3565b90506000613de68561083a565b9050613df382828661314f565b95945050505050565b60006001600160a01b038316613e2557604051631dcb38eb60e11b815260040160405180910390fd5b81600003613e3557506000610834565b6000836001600160a01b031663313ce5676040518163ffffffff1660e01b8152600401602060405180830381865afa158015613e75573d6000803e3d6000fd5b505050506040513d601f19601f82011682018060405250810190613e9991906147c7565b905060128160ff161015613efc576000613eb48260126147ea565b613ebf90600a6148e7565b9050613ecb81856148f6565b15613ee957604051630f51ac8560e31b815260040160405180910390fd5b613ef381856147b3565b92505050610834565b60128160ff161115613f2c576000613f156012836147ea565b613f2090600a6148e7565b9050613ef38185614786565b509092915050565b61097584856001600160a01b03166323b872dd868686604051602401613f5c939291906146d8565b604051602081830303815290604052915060e01b6020820180516001600160e01b0383818316178352505050506141a9565b600080878786613fa757613fa2888b6146fc565b613fb1565b613fb1888b614695565b915084613fc257613bdb868a6146fc565b613c57868a614695565b8015611f655760405162461bcd60e51b815260206004820152603e60248201527f426f72726f7765724f70733a20436f6c6c61746572616c20776974686472617760448201527f616c206e6f74207065726d6974746564205265636f76657279204d6f646500006064820152608401610cc3565b808210156109b0576040805162461bcd60e51b81526020600482015260248101919091527f426f72726f7765724f70733a2043616e6e6f7420646563726561736520796f7560448201527f72205472656e426f7827732049435220696e205265636f76657279204d6f64656064820152608401610cc3565b806001600160a01b03163b6000036140ee57604051634c9c8ce360e01b81526001600160a01b0382166004820152602401610cc3565b60008051602061492783398151915280546001600160a01b0319166001600160a01b0392909216919091179055565b6060600080846001600160a01b03168460405161413a919061490a565b600060405180830381855af49150503d8060008114614175576040519150601f19603f3d011682016040523d82523d6000602084013e61417a565b606091505b5091509150613df385838361420c565b3415610a0d5760405163b398979f60e01b815260040160405180910390fd5b60006141be6001600160a01b03841683614268565b905080516000141580156141e35750808060200190518101906141e19190614753565b155b1561285857604051635274afe760e01b81526001600160a01b0384166004820152602401610cc3565b6060826142215761421c82614276565b61317c565b815115801561423857506001600160a01b0384163b155b1561426157604051639996b31560e01b81526001600160a01b0385166004820152602401610cc3565b508061317c565b60606108318383600061429f565b8051156142865780518082602001fd5b604051630a12f52160e11b815260040160405180910390fd5b6060814710156142c45760405163cd78605960e01b8152306004820152602401610cc3565b600080856001600160a01b031684866040516142e0919061490a565b60006040518083038185875af1925050503d806000811461431d576040519150601f19603f3d011682016040523d82523d6000602084013e614322565b606091505b509150915061433286838361420c565b9695505050505050565b80356001600160a01b038116811461435357600080fd5b919050565b60006020828403121561436a57600080fd5b6108318261433c565b6000806040838503121561438657600080fd5b61438f8361433c565b946020939093013593505050565b600080600080608085870312156143b357600080fd5b6143bc8561433c565b9350602085013592506143d16040860161433c565b91506143df6060860161433c565b905092959194509250565b634e487b7160e01b600052604160045260246000fd5b6000806040838503121561441357600080fd5b61441c8361433c565b9150602083013567ffffffffffffffff8082111561443957600080fd5b818501915085601f83011261444d57600080fd5b81358181111561445f5761445f6143ea565b604051601f8201601f19908116603f01168101908382118183101715614487576144876143ea565b816040528281528860208487010111156144a057600080fd5b8260208601602083013760006020848301015280955050505050509250929050565b60005b838110156144dd5781810151838201526020016144c5565b50506000910152565b60208152600082518060208401526145058160408501602087016144c2565b601f01601f19169190910160400192915050565b6000806020838503121561452c57600080fd5b823567ffffffffffffffff8082111561454457600080fd5b818501915085601f83011261455857600080fd5b81358181111561456757600080fd5b8660208260051b850101111561457c57600080fd5b60209290920196919550909350505050565b600080600080600060a086880312156145a657600080fd5b6145af8661433c565b945060208601359350604086013592506145cb6060870161433c565b91506145d96080870161433c565b90509295509295909350565b8015158114611f6557600080fd5b600080600080600080600060e0888a03121561460e57600080fd5b6146178861433c565b9650602088013595506040880135945060608801359350608088013561463c816145e5565b925061464a60a0890161433c565b915061465860c0890161433c565b905092959891949750929550565b60006020828403121561467857600080fd5b5051919050565b634e487b7160e01b600052601160045260246000fd5b808201808211156108345761083461467f565b6001600160a01b0392831681529116602082015260400190565b634e487b7160e01b600052603260045260246000fd5b6001600160a01b039384168152919092166020820152604081019190915260600190565b818103818111156108345761083461467f565b6003811061472d57634e487b7160e01b600052602160045260246000fd5b9052565b848152602081018490526040810183905260808101613df3606083018461470f565b60006020828403121561476557600080fd5b815161317c816145e5565b634e487b7160e01b600052600160045260246000fd5b80820281158282048414176108345761083461467f565b634e487b7160e01b600052601260045260246000fd5b6000826147c2576147c261479d565b500490565b6000602082840312156147d957600080fd5b815160ff8116811461317c57600080fd5b60ff82811682821603908111156108345761083461467f565b600181815b8085111561483e5781600019048211156148245761482461467f565b8085161561483157918102915b93841c9390800290614808565b509250929050565b60008261485557506001610834565b8161486257506000610834565b816001811461487857600281146148825761489e565b6001915050610834565b60ff8411156148935761489361467f565b50506001821b610834565b5060208310610133831016604e8410600b84101617156148c1575081810a610834565b6148cb8383614803565b80600019048211156148df576148df61467f565b029392505050565b600061083160ff841683614846565b6000826149055761490561479d565b500690565b6000825161491c8184602087016144c2565b919091019291505056fe360894a13ba1a3210667c828492db98dca3e2076cc3735a920a3ca505d382bbca164736f6c6343000817000a",
  "devdoc": {
    "errors": {
      "AddressEmptyCode(address)": [
        {
          "details": "There's no code at `target` (it is not a contract)."
        }
      ],
      "AddressInsufficientBalance(address)": [
        {
          "details": "The ETH balance of the account is not enough to perform the operation."
        }
      ],
      "ERC1967InvalidImplementation(address)": [
        {
          "details": "The `implementation` of the proxy is invalid."
        }
      ],
      "ERC1967NonPayable()": [
        {
          "details": "An upgrade function sees `msg.value > 0` that may be lost."
        }
      ],
      "FailedInnerCall()": [
        {
          "details": "A call to an address target failed. The target may have reverted."
        }
      ],
      "InvalidInitialization()": [
        {
          "details": "The contract is already initialized."
        }
      ],
      "NotInitializing()": [
        {
          "details": "The contract is not initializing."
        }
      ],
      "OwnableInvalidOwner(address)": [
        {
          "details": "The owner is not a valid owner account. (eg. `address(0)`)"
        }
      ],
      "OwnableUnauthorizedAccount(address)": [
        {
          "details": "The caller account is not authorized to perform an operation."
        }
      ],
      "ReentrancyGuardReentrantCall()": [
        {
          "details": "Unauthorized reentrant call."
        }
      ],
      "SafeERC20FailedOperation(address)": [
        {
          "details": "An operation with an ERC20 token failed."
        }
      ],
      "UUPSUnauthorizedCallContext()": [
        {
          "details": "The call is from an unauthorized context."
        }
      ],
      "UUPSUnsupportedProxiableUUID(bytes32)": [
        {
          "details": "The storage `slot` is unsupported as a UUID."
        }
      ]
    },
    "events": {
      "Initialized(uint64)": {
        "details": "Triggered when the contract has been initialized or reinitialized."
      },
      "Upgraded(address)": {
        "details": "Emitted when the implementation is upgraded."
      }
    },
    "kind": "dev",
    "methods": {
      "owner()": {
        "details": "Returns the address of the current owner."
      },
      "proxiableUUID()": {
        "details": "Implementation of the ERC1822 {proxiableUUID} function. This returns the storage slot used by the implementation. It is used to validate the implementation's compatibility when performing an upgrade. IMPORTANT: A proxy pointing at a proxiable contract should not be considered proxiable itself, because this risks bricking a proxy that upgrades to it, by delegating to itself until out of gas. Thus it is critical that this function revert if invoked through a proxy. This is guaranteed by the `notDelegated` modifier."
      },
      "renounceOwnership()": {
        "details": "Leaves the contract without owner. It will not be possible to call `onlyOwner` functions. Can only be called by the current owner. NOTE: Renouncing ownership will leave the contract without an owner, thereby disabling any functionality that is only available to the owner."
      },
      "transferOwnership(address)": {
        "details": "Transfers ownership of the contract to a new account (`newOwner`). Can only be called by the current owner."
      },
      "upgradeToAndCall(address,bytes)": {
        "custom:oz-upgrades-unsafe-allow-reachable": "delegatecall",
        "details": "Upgrade the implementation of the proxy to `newImplementation`, and subsequently execute the function call encoded in `data`. Calls {_authorizeUpgrade}. Emits an {Upgraded} event."
      }
    },
    "version": 1
  },
  "userdoc": {
    "kind": "user",
    "methods": {
      "claimCollateral(address)": {
        "notice": "Claim remaining collateral from a redemption or from a liquidation with ICR > MCR in Recovery Mode"
      }
    },
    "version": 1
  },
  "storageLayout": {
    "storage": [
      {
        "astId": 9891,
        "contract": "contracts/BorrowerOperations.sol:BorrowerOperations",
        "label": "activePool",
        "offset": 0,
        "slot": "0",
        "type": "t_address"
      },
      {
        "astId": 9893,
        "contract": "contracts/BorrowerOperations.sol:BorrowerOperations",
        "label": "adminContract",
        "offset": 0,
        "slot": "1",
        "type": "t_address"
      },
      {
        "astId": 9895,
        "contract": "contracts/BorrowerOperations.sol:BorrowerOperations",
        "label": "borrowerOperations",
        "offset": 0,
        "slot": "2",
        "type": "t_address"
      },
      {
        "astId": 9897,
        "contract": "contracts/BorrowerOperations.sol:BorrowerOperations",
        "label": "collSurplusPool",
        "offset": 0,
        "slot": "3",
        "type": "t_address"
      },
      {
        "astId": 9899,
        "contract": "contracts/BorrowerOperations.sol:BorrowerOperations",
        "label": "communityIssuance",
        "offset": 0,
        "slot": "4",
        "type": "t_address"
      },
      {
        "astId": 9901,
        "contract": "contracts/BorrowerOperations.sol:BorrowerOperations",
        "label": "debtToken",
        "offset": 0,
        "slot": "5",
        "type": "t_address"
      },
      {
        "astId": 9903,
        "contract": "contracts/BorrowerOperations.sol:BorrowerOperations",
        "label": "defaultPool",
        "offset": 0,
        "slot": "6",
        "type": "t_address"
      },
      {
        "astId": 9905,
        "contract": "contracts/BorrowerOperations.sol:BorrowerOperations",
        "label": "feeCollector",
        "offset": 0,
        "slot": "7",
        "type": "t_address"
      },
      {
        "astId": 9907,
        "contract": "contracts/BorrowerOperations.sol:BorrowerOperations",
        "label": "gasPoolAddress",
        "offset": 0,
        "slot": "8",
        "type": "t_address"
      },
      {
        "astId": 9909,
        "contract": "contracts/BorrowerOperations.sol:BorrowerOperations",
        "label": "trenStaking",
        "offset": 0,
        "slot": "9",
        "type": "t_address"
      },
      {
        "astId": 9911,
        "contract": "contracts/BorrowerOperations.sol:BorrowerOperations",
        "label": "priceFeed",
        "offset": 0,
        "slot": "10",
        "type": "t_address"
      },
      {
        "astId": 9913,
        "contract": "contracts/BorrowerOperations.sol:BorrowerOperations",
        "label": "sortedTrenBoxes",
        "offset": 0,
        "slot": "11",
        "type": "t_address"
      },
      {
        "astId": 9915,
        "contract": "contracts/BorrowerOperations.sol:BorrowerOperations",
        "label": "stabilityPool",
        "offset": 0,
        "slot": "12",
        "type": "t_address"
      },
      {
        "astId": 9917,
        "contract": "contracts/BorrowerOperations.sol:BorrowerOperations",
        "label": "timelockAddress",
        "offset": 0,
        "slot": "13",
        "type": "t_address"
      },
      {
        "astId": 9919,
        "contract": "contracts/BorrowerOperations.sol:BorrowerOperations",
        "label": "treasuryAddress",
        "offset": 0,
        "slot": "14",
        "type": "t_address"
      },
      {
        "astId": 9921,
        "contract": "contracts/BorrowerOperations.sol:BorrowerOperations",
        "label": "trenBoxManager",
        "offset": 0,
        "slot": "15",
        "type": "t_address"
      },
      {
        "astId": 9923,
        "contract": "contracts/BorrowerOperations.sol:BorrowerOperations",
        "label": "trenBoxManagerOperations",
        "offset": 0,
        "slot": "16",
        "type": "t_address"
      },
      {
        "astId": 9925,
        "contract": "contracts/BorrowerOperations.sol:BorrowerOperations",
        "label": "isAddressSetupInitialized",
        "offset": 20,
        "slot": "16",
        "type": "t_bool"
      },
      {
        "astId": 9930,
        "contract": "contracts/BorrowerOperations.sol:BorrowerOperations",
        "label": "__gap",
        "offset": 0,
        "slot": "17",
        "type": "t_array(t_uint256)33_storage"
      }
    ],
    "types": {
      "t_address": {
        "encoding": "inplace",
        "label": "address",
        "numberOfBytes": "20"
      },
      "t_array(t_uint256)33_storage": {
        "base": "t_uint256",
        "encoding": "inplace",
        "label": "uint256[33]",
        "numberOfBytes": "1056"
      },
      "t_bool": {
        "encoding": "inplace",
        "label": "bool",
        "numberOfBytes": "1"
      },
      "t_uint256": {
        "encoding": "inplace",
        "label": "uint256",
        "numberOfBytes": "32"
      }
    }
  }
}