{
  "address": "0xBf2FB6b1643CAa9B3b1D640F09D0b54d11A5E9AE",
  "abi": [
    {
      "inputs": [
        {
          "internalType": "address",
          "name": "initialOwner",
          "type": "address"
        }
      ],
      "stateMutability": "nonpayable",
      "type": "constructor"
    },
    {
      "inputs": [],
      "name": "ECDSAInvalidSignature",
      "type": "error"
    },
    {
      "inputs": [
        {
          "internalType": "uint256",
          "name": "length",
          "type": "uint256"
        }
      ],
      "name": "ECDSAInvalidSignatureLength",
      "type": "error"
    },
    {
      "inputs": [
        {
          "internalType": "bytes32",
          "name": "s",
          "type": "bytes32"
        }
      ],
      "name": "ECDSAInvalidSignatureS",
      "type": "error"
    },
    {
      "inputs": [
        {
          "internalType": "address",
          "name": "spender",
          "type": "address"
        },
        {
          "internalType": "uint256",
          "name": "allowance",
          "type": "uint256"
        },
        {
          "internalType": "uint256",
          "name": "needed",
          "type": "uint256"
        }
      ],
      "name": "ERC20InsufficientAllowance",
      "type": "error"
    },
    {
      "inputs": [
        {
          "internalType": "address",
          "name": "sender",
          "type": "address"
        },
        {
          "internalType": "uint256",
          "name": "balance",
          "type": "uint256"
        },
        {
          "internalType": "uint256",
          "name": "needed",
          "type": "uint256"
        }
      ],
      "name": "ERC20InsufficientBalance",
      "type": "error"
    },
    {
      "inputs": [
        {
          "internalType": "address",
          "name": "approver",
          "type": "address"
        }
      ],
      "name": "ERC20InvalidApprover",
      "type": "error"
    },
    {
      "inputs": [
        {
          "internalType": "address",
          "name": "receiver",
          "type": "address"
        }
      ],
      "name": "ERC20InvalidReceiver",
      "type": "error"
    },
    {
      "inputs": [
        {
          "internalType": "address",
          "name": "sender",
          "type": "address"
        }
      ],
      "name": "ERC20InvalidSender",
      "type": "error"
    },
    {
      "inputs": [
        {
          "internalType": "address",
          "name": "spender",
          "type": "address"
        }
      ],
      "name": "ERC20InvalidSpender",
      "type": "error"
    },
    {
      "inputs": [
        {
          "internalType": "uint256",
          "name": "deadline",
          "type": "uint256"
        }
      ],
      "name": "ERC2612ExpiredSignature",
      "type": "error"
    },
    {
      "inputs": [
        {
          "internalType": "address",
          "name": "signer",
          "type": "address"
        },
        {
          "internalType": "address",
          "name": "owner",
          "type": "address"
        }
      ],
      "name": "ERC2612InvalidSigner",
      "type": "error"
    },
    {
      "inputs": [
        {
          "internalType": "address",
          "name": "account",
          "type": "address"
        },
        {
          "internalType": "uint256",
          "name": "currentNonce",
          "type": "uint256"
        }
      ],
      "name": "InvalidAccountNonce",
      "type": "error"
    },
    {
      "inputs": [],
      "name": "InvalidShortString",
      "type": "error"
    },
    {
      "inputs": [
        {
          "internalType": "address",
          "name": "owner",
          "type": "address"
        }
      ],
      "name": "OwnableInvalidOwner",
      "type": "error"
    },
    {
      "inputs": [
        {
          "internalType": "address",
          "name": "account",
          "type": "address"
        }
      ],
      "name": "OwnableUnauthorizedAccount",
      "type": "error"
    },
    {
      "inputs": [
        {
          "internalType": "string",
          "name": "str",
          "type": "string"
        }
      ],
      "name": "StringTooLong",
      "type": "error"
    },
    {
      "anonymous": false,
      "inputs": [
        {
          "indexed": true,
          "internalType": "address",
          "name": "owner",
          "type": "address"
        },
        {
          "indexed": true,
          "internalType": "address",
          "name": "spender",
          "type": "address"
        },
        {
          "indexed": false,
          "internalType": "uint256",
          "name": "value",
          "type": "uint256"
        }
      ],
      "name": "Approval",
      "type": "event"
    },
    {
      "anonymous": false,
      "inputs": [],
      "name": "EIP712DomainChanged",
      "type": "event"
    },
    {
      "anonymous": false,
      "inputs": [
        {
          "indexed": false,
          "internalType": "address",
          "name": "_asset",
          "type": "address"
        },
        {
          "indexed": false,
          "internalType": "bool",
          "name": "state",
          "type": "bool"
        }
      ],
      "name": "EmergencyStopMintingCollateral",
      "type": "event"
    },
    {
      "anonymous": false,
      "inputs": [
        {
          "indexed": true,
          "internalType": "address",
          "name": "previousOwner",
          "type": "address"
        },
        {
          "indexed": true,
          "internalType": "address",
          "name": "newOwner",
          "type": "address"
        }
      ],
      "name": "OwnershipTransferred",
      "type": "event"
    },
    {
      "anonymous": false,
      "inputs": [
        {
          "indexed": false,
          "internalType": "address",
          "name": "_user",
          "type": "address"
        },
        {
          "indexed": false,
          "internalType": "uint256",
          "name": "_amount",
          "type": "uint256"
        }
      ],
      "name": "TokenBalanceUpdated",
      "type": "event"
    },
    {
      "anonymous": false,
      "inputs": [
        {
          "indexed": true,
          "internalType": "address",
          "name": "from",
          "type": "address"
        },
        {
          "indexed": true,
          "internalType": "address",
          "name": "to",
          "type": "address"
        },
        {
          "indexed": false,
          "internalType": "uint256",
          "name": "value",
          "type": "uint256"
        }
      ],
      "name": "Transfer",
      "type": "event"
    },
    {
      "anonymous": false,
      "inputs": [
        {
          "indexed": false,
          "internalType": "address",
          "name": "_whitelisted",
          "type": "address"
        },
        {
          "indexed": false,
          "internalType": "bool",
          "name": "whitelisted",
          "type": "bool"
        }
      ],
      "name": "WhitelistChanged",
      "type": "event"
    },
    {
      "inputs": [],
      "name": "DOMAIN_SEPARATOR",
      "outputs": [
        {
          "internalType": "bytes32",
          "name": "",
          "type": "bytes32"
        }
      ],
      "stateMutability": "view",
      "type": "function"
    },
    {
      "inputs": [],
      "name": "NAME",
      "outputs": [
        {
          "internalType": "string",
          "name": "",
          "type": "string"
        }
      ],
      "stateMutability": "view",
      "type": "function"
    },
    {
      "inputs": [],
      "name": "SYMBOL",
      "outputs": [
        {
          "internalType": "string",
          "name": "",
          "type": "string"
        }
      ],
      "stateMutability": "view",
      "type": "function"
    },
    {
      "inputs": [
        {
          "internalType": "address",
          "name": "_address",
          "type": "address"
        }
      ],
      "name": "addWhitelist",
      "outputs": [],
      "stateMutability": "nonpayable",
      "type": "function"
    },
    {
      "inputs": [
        {
          "internalType": "address",
          "name": "owner",
          "type": "address"
        },
        {
          "internalType": "address",
          "name": "spender",
          "type": "address"
        }
      ],
      "name": "allowance",
      "outputs": [
        {
          "internalType": "uint256",
          "name": "",
          "type": "uint256"
        }
      ],
      "stateMutability": "view",
      "type": "function"
    },
    {
      "inputs": [
        {
          "internalType": "address",
          "name": "spender",
          "type": "address"
        },
        {
          "internalType": "uint256",
          "name": "value",
          "type": "uint256"
        }
      ],
      "name": "approve",
      "outputs": [
        {
          "internalType": "bool",
          "name": "",
          "type": "bool"
        }
      ],
      "stateMutability": "nonpayable",
      "type": "function"
    },
    {
      "inputs": [
        {
          "internalType": "address",
          "name": "account",
          "type": "address"
        }
      ],
      "name": "balanceOf",
      "outputs": [
        {
          "internalType": "uint256",
          "name": "",
          "type": "uint256"
        }
      ],
      "stateMutability": "view",
      "type": "function"
    },
    {
      "inputs": [],
      "name": "borrowerOperationsAddress",
      "outputs": [
        {
          "internalType": "address",
          "name": "",
          "type": "address"
        }
      ],
      "stateMutability": "view",
      "type": "function"
    },
    {
      "inputs": [
        {
          "internalType": "address",
          "name": "_account",
          "type": "address"
        },
        {
          "internalType": "uint256",
          "name": "_amount",
          "type": "uint256"
        }
      ],
      "name": "burn",
      "outputs": [],
      "stateMutability": "nonpayable",
      "type": "function"
    },
    {
      "inputs": [
        {
          "internalType": "uint256",
          "name": "_amount",
          "type": "uint256"
        }
      ],
      "name": "burnFromWhitelistedContract",
      "outputs": [],
      "stateMutability": "nonpayable",
      "type": "function"
    },
    {
      "inputs": [],
      "name": "decimals",
      "outputs": [
        {
          "internalType": "uint8",
          "name": "",
          "type": "uint8"
        }
      ],
      "stateMutability": "view",
      "type": "function"
    },
    {
      "inputs": [],
      "name": "eip712Domain",
      "outputs": [
        {
          "internalType": "bytes1",
          "name": "fields",
          "type": "bytes1"
        },
        {
          "internalType": "string",
          "name": "name",
          "type": "string"
        },
        {
          "internalType": "string",
          "name": "version",
          "type": "string"
        },
        {
          "internalType": "uint256",
          "name": "chainId",
          "type": "uint256"
        },
        {
          "internalType": "address",
          "name": "verifyingContract",
          "type": "address"
        },
        {
          "internalType": "bytes32",
          "name": "salt",
          "type": "bytes32"
        },
        {
          "internalType": "uint256[]",
          "name": "extensions",
          "type": "uint256[]"
        }
      ],
      "stateMutability": "view",
      "type": "function"
    },
    {
      "inputs": [
        {
          "internalType": "address",
          "name": "_asset",
          "type": "address"
        },
        {
          "internalType": "bool",
          "name": "status",
          "type": "bool"
        }
      ],
      "name": "emergencyStopMinting",
      "outputs": [],
      "stateMutability": "nonpayable",
      "type": "function"
    },
    {
      "inputs": [
        {
          "internalType": "address",
          "name": "",
          "type": "address"
        }
      ],
      "name": "emergencyStopMintingCollateral",
      "outputs": [
        {
          "internalType": "bool",
          "name": "",
          "type": "bool"
        }
      ],
      "stateMutability": "view",
      "type": "function"
    },
    {
      "inputs": [
        {
          "internalType": "address",
          "name": "_asset",
          "type": "address"
        },
        {
          "internalType": "address",
          "name": "_account",
          "type": "address"
        },
        {
          "internalType": "uint256",
          "name": "_amount",
          "type": "uint256"
        }
      ],
      "name": "mint",
      "outputs": [],
      "stateMutability": "nonpayable",
      "type": "function"
    },
    {
      "inputs": [
        {
          "internalType": "uint256",
          "name": "_amount",
          "type": "uint256"
        }
      ],
      "name": "mintFromWhitelistedContract",
      "outputs": [],
      "stateMutability": "nonpayable",
      "type": "function"
    },
    {
      "inputs": [],
      "name": "name",
      "outputs": [
        {
          "internalType": "string",
          "name": "",
          "type": "string"
        }
      ],
      "stateMutability": "view",
      "type": "function"
    },
    {
      "inputs": [
        {
          "internalType": "address",
          "name": "owner",
          "type": "address"
        }
      ],
      "name": "nonces",
      "outputs": [
        {
          "internalType": "uint256",
          "name": "",
          "type": "uint256"
        }
      ],
      "stateMutability": "view",
      "type": "function"
    },
    {
      "inputs": [],
      "name": "owner",
      "outputs": [
        {
          "internalType": "address",
          "name": "",
          "type": "address"
        }
      ],
      "stateMutability": "view",
      "type": "function"
    },
    {
      "inputs": [
        {
          "internalType": "address",
          "name": "owner",
          "type": "address"
        },
        {
          "internalType": "address",
          "name": "spender",
          "type": "address"
        },
        {
          "internalType": "uint256",
          "name": "value",
          "type": "uint256"
        },
        {
          "internalType": "uint256",
          "name": "deadline",
          "type": "uint256"
        },
        {
          "internalType": "uint8",
          "name": "v",
          "type": "uint8"
        },
        {
          "internalType": "bytes32",
          "name": "r",
          "type": "bytes32"
        },
        {
          "internalType": "bytes32",
          "name": "s",
          "type": "bytes32"
        }
      ],
      "name": "permit",
      "outputs": [],
      "stateMutability": "nonpayable",
      "type": "function"
    },
    {
      "inputs": [
        {
          "internalType": "address",
          "name": "_address",
          "type": "address"
        }
      ],
      "name": "removeWhitelist",
      "outputs": [],
      "stateMutability": "nonpayable",
      "type": "function"
    },
    {
      "inputs": [],
      "name": "renounceOwnership",
      "outputs": [],
      "stateMutability": "nonpayable",
      "type": "function"
    },
    {
      "inputs": [
        {
          "internalType": "address",
          "name": "_poolAddress",
          "type": "address"
        },
        {
          "internalType": "address",
          "name": "_receiver",
          "type": "address"
        },
        {
          "internalType": "uint256",
          "name": "_amount",
          "type": "uint256"
        }
      ],
      "name": "returnFromPool",
      "outputs": [],
      "stateMutability": "nonpayable",
      "type": "function"
    },
    {
      "inputs": [
        {
          "internalType": "address",
          "name": "_sender",
          "type": "address"
        },
        {
          "internalType": "address",
          "name": "_poolAddress",
          "type": "address"
        },
        {
          "internalType": "uint256",
          "name": "_amount",
          "type": "uint256"
        }
      ],
      "name": "sendToPool",
      "outputs": [],
      "stateMutability": "nonpayable",
      "type": "function"
    },
    {
      "inputs": [
        {
          "internalType": "address",
          "name": "_borrowerOperationsAddress",
          "type": "address"
        },
        {
          "internalType": "address",
          "name": "_stabilityPoolAddress",
          "type": "address"
        },
        {
          "internalType": "address",
          "name": "_trenBoxManagerAddress",
          "type": "address"
        }
      ],
      "name": "setAddresses",
      "outputs": [],
      "stateMutability": "nonpayable",
      "type": "function"
    },
    {
      "inputs": [],
      "name": "stabilityPoolAddress",
      "outputs": [
        {
          "internalType": "address",
          "name": "",
          "type": "address"
        }
      ],
      "stateMutability": "view",
      "type": "function"
    },
    {
      "inputs": [],
      "name": "symbol",
      "outputs": [
        {
          "internalType": "string",
          "name": "",
          "type": "string"
        }
      ],
      "stateMutability": "view",
      "type": "function"
    },
    {
      "inputs": [],
      "name": "totalSupply",
      "outputs": [
        {
          "internalType": "uint256",
          "name": "",
          "type": "uint256"
        }
      ],
      "stateMutability": "view",
      "type": "function"
    },
    {
      "inputs": [
        {
          "internalType": "address",
          "name": "recipient",
          "type": "address"
        },
        {
          "internalType": "uint256",
          "name": "amount",
          "type": "uint256"
        }
      ],
      "name": "transfer",
      "outputs": [
        {
          "internalType": "bool",
          "name": "",
          "type": "bool"
        }
      ],
      "stateMutability": "nonpayable",
      "type": "function"
    },
    {
      "inputs": [
        {
          "internalType": "address",
          "name": "sender",
          "type": "address"
        },
        {
          "internalType": "address",
          "name": "recipient",
          "type": "address"
        },
        {
          "internalType": "uint256",
          "name": "amount",
          "type": "uint256"
        }
      ],
      "name": "transferFrom",
      "outputs": [
        {
          "internalType": "bool",
          "name": "",
          "type": "bool"
        }
      ],
      "stateMutability": "nonpayable",
      "type": "function"
    },
    {
      "inputs": [
        {
          "internalType": "address",
          "name": "newOwner",
          "type": "address"
        }
      ],
      "name": "transferOwnership",
      "outputs": [],
      "stateMutability": "nonpayable",
      "type": "function"
    },
    {
      "inputs": [],
      "name": "trenBoxManagerAddress",
      "outputs": [
        {
          "internalType": "address",
          "name": "",
          "type": "address"
        }
      ],
      "stateMutability": "view",
      "type": "function"
    },
    {
      "inputs": [
        {
          "internalType": "address",
          "name": "",
          "type": "address"
        }
      ],
      "name": "whitelistedContracts",
      "outputs": [
        {
          "internalType": "bool",
          "name": "",
          "type": "bool"
        }
      ],
      "stateMutability": "view",
      "type": "function"
    }
  ],
  "transactionHash": "0x659e0a5ef8c9e655d7a6245fa39405d20ced8f7005a6f2df36ac5a69b5e7bb54",
  "args": [
    "0x19E733F20aAdaB8996f7895ACBD04f746BF4Aac1"
  ],
  "numDeployments": 1,
  "solcInputHash": "e6971fb87a17deef3641f1719687e39f",
  "bytecode": "0x6101606040523480156200001257600080fd5b5060405162001f1938038062001f198339810160408190526200003591620002ad565b806040518060400160405280600f81526020016e2a2922a7102232b13a102a37b5b2b760891b81525080604051806040016040528060018152602001603160f81b8152506040518060400160405280600f81526020016e2a2922a7102232b13a102a37b5b2b760891b815250604051806040016040528060078152602001661d1c995b9554d160ca1b8152508160039081620000d2919062000386565b506004620000e1828262000386565b50620000f391508390506005620001df565b6101205262000104816006620001df565b61014052815160208084019190912060e052815190820120610100524660a0526200019260e05161010051604080517f8b73c3c69bb8fe3d512ecc4cf759cc79239f7b179b0ffacaa9a75d522b39400f60208201529081019290925260608201524660808201523060a082015260009060c00160405160208183030381529060405280519060200120905090565b60805250503060c052506001600160a01b038116620001cc57604051631e4fbdf760e01b8152600060048201526024015b60405180910390fd5b620001d78162000218565b5050620004c8565b6000602083511015620001ff57620001f7836200026a565b905062000212565b816200020c848262000386565b5060ff90505b92915050565b600880546001600160a01b038381166001600160a01b0319831681179093556040519116919082907f8be0079c531659141344cd1fd0a4f28419497f9722a3daafe3b4186f6b6457e090600090a35050565b600080829050601f8151111562000298578260405163305a27a960e01b8152600401620001c3919062000452565b8051620002a582620004a3565b179392505050565b600060208284031215620002c057600080fd5b81516001600160a01b0381168114620002d857600080fd5b9392505050565b634e487b7160e01b600052604160045260246000fd5b600181811c908216806200030a57607f821691505b6020821081036200032b57634e487b7160e01b600052602260045260246000fd5b50919050565b601f82111562000381576000816000526020600020601f850160051c810160208610156200035c5750805b601f850160051c820191505b818110156200037d5782815560010162000368565b5050505b505050565b81516001600160401b03811115620003a257620003a2620002df565b620003ba81620003b38454620002f5565b8462000331565b602080601f831160018114620003f25760008415620003d95750858301515b600019600386901b1c1916600185901b1785556200037d565b600085815260208120601f198616915b82811015620004235788860151825594840194600190910190840162000402565b5085821015620004425787850151600019600388901b60f8161c191681555b5050505050600190811b01905550565b60006020808352835180602085015260005b81811015620004825785810183015185820160400152820162000464565b506000604082860101526040601f19601f8301168501019250505092915050565b805160208083015191908110156200032b5760001960209190910360031b1b16919050565b60805160a05160c05160e0516101005161012051610140516119f6620005236000396000610e8b01526000610e5e01526000610db401526000610d8c01526000610ce701526000610d1101526000610d3b01526119f66000f3fe608060405234801561001057600080fd5b50600436106101fb5760003560e01c80638da5cb5b1161011a578063bb997bac116100ad578063edd6cb911161007c578063edd6cb91146104a0578063f2fde38b146104b3578063f76f8d78146104c6578063f7f4d9da146104ec578063f80f5dd5146104ff57600080fd5b8063bb997bac1461042e578063c6c3bbe614610441578063d505accf14610454578063dd62ed3e1461046757600080fd5b8063a3f4df7e116100e9578063a3f4df7e146103c7578063a9059cbb146103f5578063b7f8cf9b14610408578063b95aac761461041b57600080fd5b80638da5cb5b1461037857806395d89b41146103895780639dc29fac14610391578063a1285d17146103a457600080fd5b8063363bf96411610192578063715018a611610161578063715018a61461032f57806378c8cda7146103375780637ecebe001461034a57806384b0196e1461035d57600080fd5b8063363bf964146102c85780633644e515146102db578063391feebb146102e357806370a082311461030657600080fd5b806320c582be116101ce57806320c582be1461027e57806323b872dd14610293578063313ce567146102a657806335995907146102b557600080fd5b806306fdde0314610200578063095ea7b31461021e5780630b622ab21461024157806318160ddd1461026c575b600080fd5b610208610512565b60405161021591906116f1565b60405180910390f35b61023161022c366004611720565b6105a4565b6040519015158152602001610215565b600a54610254906001600160a01b031681565b6040516001600160a01b039091168152602001610215565b6002545b604051908152602001610215565b61029161028c36600461174a565b6105be565b005b6102316102a136600461174a565b6105d6565b60405160128152602001610215565b6102916102c3366004611786565b6105f4565b6102916102d63660046117c2565b61065f565b61027061071d565b6102316102f1366004611805565b600d6020526000908152604090205460ff1681565b610270610314366004611805565b6001600160a01b031660009081526020819052604090205490565b61029161072c565b610291610345366004611805565b610740565b610270610358366004611805565b6107a6565b6103656107c4565b6040516102159796959493929190611820565b6008546001600160a01b0316610254565b61020861080a565b61029161039f366004611720565b610819565b6102316103b2366004611805565b600c6020526000908152604090205460ff1681565b6102086040518060400160405280600f81526020016e2a2922a7102232b13a102a37b5b2b760891b81525081565b610231610403366004611720565b61082f565b600954610254906001600160a01b031681565b6102916104293660046118b9565b61084b565b61029161043c36600461174a565b610860565b61029161044f36600461174a565b610868565b6102916104623660046118d2565b6108ee565b610270610475366004611945565b6001600160a01b03918216600090815260016020908152604080832093909416825291909152205490565b600b54610254906001600160a01b031681565b6102916104c1366004611805565b610a28565b610208604051806040016040528060078152602001661d1c995b9554d160ca1b81525081565b6102916104fa3660046118b9565b610a63565b61029161050d366004611805565b610a75565b60606003805461052190611978565b80601f016020809104026020016040519081016040528092919081815260200182805461054d90611978565b801561059a5780601f1061056f5761010080835404028352916020019161059a565b820191906000526020600020905b81548152906001019060200180831161057d57829003601f168201915b5050505050905090565b6000336105b2818585610ad8565b60019150505b92915050565b6105c6610ae5565b6105d1838383610b7a565b505050565b60006105e183610bd9565b6105ec848484610c89565b949350505050565b6105fc610cad565b6001600160a01b0382166000818152600c6020908152604091829020805460ff19168515159081179091558251938452908301527f5bbb1afddf32881824ddeb3fb7fe693cbb0aa35de2ef25c53ad5e8e8d44c2720910160405180910390a15050565b610667610cad565b6001600160a01b0383161580159061068757506001600160a01b03821615155b801561069b57506001600160a01b03811615155b6106de5760405162461bcd60e51b815260206004820152600f60248201526e496e76616c6964206164647265737360881b60448201526064015b60405180910390fd5b600980546001600160a01b039485166001600160a01b031991821617909155600a805493851693821693909317909255600b8054919093169116179055565b6000610727610cda565b905090565b610734610cad565b61073e6000610e05565b565b610748610cad565b6001600160a01b0381166000818152600d60209081526040808320805460ff191690558051938452908301919091527fb840a1dbd8b09a3dc45161bba92dfb9aba643c0e44c085a447f839d1d02cf13b91015b60405180910390a150565b6001600160a01b0381166000908152600760205260408120546105b8565b6000606080600080600060606107d8610e57565b6107e0610e84565b60408051600080825260208201909252600f60f81b9b939a50919850469750309650945092509050565b60606004805461052190611978565b610821610eb1565b61082b8282610f78565b5050565b600061083a83610bd9565b6108448383610fae565b9392505050565b610853610fbc565b61085d3382610f78565b50565b6105c661102d565b61087061109a565b6001600160a01b0383166000908152600c602052604090205460ff16156108e45760405162461bcd60e51b815260206004820152602260248201527f4d696e7420697320626c6f636b6564206f6e207468697320636f6c6c61746572604482015261185b60f21b60648201526084016106d5565b6105d18282611108565b834211156109125760405163313c898160e11b8152600481018590526024016106d5565b60007f6e71edae12b1b97f4d1f60370fef10105fa2faae0126114a169c64845d6126c988888861095f8c6001600160a01b0316600090815260076020526040902080546001810190915590565b6040805160208101969096526001600160a01b0394851690860152929091166060840152608083015260a082015260c0810186905260e00160405160208183030381529060405280519060200120905060006109ba8261113e565b905060006109ca8287878761116b565b9050896001600160a01b0316816001600160a01b031614610a11576040516325c0072360e11b81526001600160a01b0380831660048301528b1660248201526044016106d5565b610a1c8a8a8a610ad8565b50505050505050505050565b610a30610cad565b6001600160a01b038116610a5a57604051631e4fbdf760e01b8152600060048201526024016106d5565b61085d81610e05565b610a6b610fbc565b61085d3382611108565b610a7d610cad565b6001600160a01b0381166000818152600d6020908152604091829020805460ff191660019081179091558251938452908301527fb840a1dbd8b09a3dc45161bba92dfb9aba643c0e44c085a447f839d1d02cf13b910161079b565b6105d18383836001611199565b600b546001600160a01b0316331480610b085750600a546001600160a01b031633145b61073e5760405162461bcd60e51b815260206004820152603d60248201527f44656274546f6b656e3a2043616c6c6572206973206e6569746865722054726560448201527f6e426f784d616e61676572206e6f722053746162696c697479506f6f6c00000060648201526084016106d5565b6001600160a01b038316610ba457604051634b637e8f60e11b8152600060048201526024016106d5565b6001600160a01b038216610bce5760405163ec442f0560e01b8152600060048201526024016106d5565b6105d183838361126f565b6001600160a01b03811615801590610bfa57506001600160a01b0381163014155b61085d5760405162461bcd60e51b815260206004820152605460248201527f44656274546f6b656e3a2043616e6e6f74207472616e7366657220746f6b656e60448201527f73206469726563746c7920746f2074686520746f6b656e20636f6e7472616374606482015273206f7220746865207a65726f206164647265737360601b608482015260a4016106d5565b600033610c97858285611399565b610ca2858585610b7a565b506001949350505050565b6008546001600160a01b0316331461073e5760405163118cdaa760e01b81523360048201526024016106d5565b6000306001600160a01b037f000000000000000000000000000000000000000000000000000000000000000016148015610d3357507f000000000000000000000000000000000000000000000000000000000000000046145b15610d5d57507f000000000000000000000000000000000000000000000000000000000000000090565b610727604080517f8b73c3c69bb8fe3d512ecc4cf759cc79239f7b179b0ffacaa9a75d522b39400f60208201527f0000000000000000000000000000000000000000000000000000000000000000918101919091527f000000000000000000000000000000000000000000000000000000000000000060608201524660808201523060a082015260009060c00160405160208183030381529060405280519060200120905090565b600880546001600160a01b038381166001600160a01b0319831681179093556040519116919082907f8be0079c531659141344cd1fd0a4f28419497f9722a3daafe3b4186f6b6457e090600090a35050565b60606107277f00000000000000000000000000000000000000000000000000000000000000006005611411565b60606107277f00000000000000000000000000000000000000000000000000000000000000006006611411565b6009546001600160a01b0316331480610ed45750600b546001600160a01b031633145b80610ee95750600a546001600160a01b031633145b61073e5760405162461bcd60e51b815260206004820152605460248201527f44656274546f6b656e3a2043616c6c6572206973206e65697468657220426f7260448201527f726f7765724f7065726174696f6e73206e6f72205472656e426f784d616e6167606482015273195c881b9bdc8814dd18589a5b1a5d1e541bdbdb60621b608482015260a4016106d5565b6001600160a01b038216610fa257604051634b637e8f60e11b8152600060048201526024016106d5565b61082b8260008361126f565b6000336105b2818585610b7a565b336000908152600d602052604090205460ff1661073e5760405162461bcd60e51b815260206004820152602960248201527f44656274546f6b656e3a2043616c6c6572206973206e6f7420612077686974656044820152686c697374656420534360b81b60648201526084016106d5565b600a546001600160a01b0316331461073e5760405162461bcd60e51b815260206004820152602a60248201527f44656274546f6b656e3a2043616c6c6572206973206e6f742074686520537461604482015269189a5b1a5d1e541bdbdb60b21b60648201526084016106d5565b6009546001600160a01b0316331461073e5760405162461bcd60e51b815260206004820152602b60248201527f44656274546f6b656e3a2043616c6c6572206973206e6f7420426f72726f776560448201526a724f7065726174696f6e7360a81b60648201526084016106d5565b6001600160a01b0382166111325760405163ec442f0560e01b8152600060048201526024016106d5565b61082b6000838361126f565b60006105b861114b610cda565b8360405161190160f01b8152600281019290925260228201526042902090565b60008060008061117d888888886114bc565b92509250925061118d828261158b565b50909695505050505050565b6001600160a01b0384166111c35760405163e602df0560e01b8152600060048201526024016106d5565b6001600160a01b0383166111ed57604051634a1406b160e11b8152600060048201526024016106d5565b6001600160a01b038085166000908152600160209081526040808320938716835292905220829055801561126957826001600160a01b0316846001600160a01b03167f8c5be1e5ebec7d5bd14f71427d1e84f3dd0314c0f7b2291e5b200ac8c7c3b9258460405161126091815260200190565b60405180910390a35b50505050565b6001600160a01b03831661129a57806002600082825461128f91906119b2565b9091555061130c9050565b6001600160a01b038316600090815260208190526040902054818110156112ed5760405163391434e360e21b81526001600160a01b038516600482015260248101829052604481018390526064016106d5565b6001600160a01b03841660009081526020819052604090209082900390555b6001600160a01b03821661132857600280548290039055611347565b6001600160a01b03821660009081526020819052604090208054820190555b816001600160a01b0316836001600160a01b03167fddf252ad1be2c89b69c2b068fc378daa952ba7f163c4a11628f55a4df523b3ef8360405161138c91815260200190565b60405180910390a3505050565b6001600160a01b038381166000908152600160209081526040808320938616835292905220546000198114611269578181101561140257604051637dc7a0d960e11b81526001600160a01b038416600482015260248101829052604481018390526064016106d5565b61126984848484036000611199565b606060ff831461142b5761142483611644565b90506105b8565b81805461143790611978565b80601f016020809104026020016040519081016040528092919081815260200182805461146390611978565b80156114b05780601f10611485576101008083540402835291602001916114b0565b820191906000526020600020905b81548152906001019060200180831161149357829003601f168201915b505050505090506105b8565b600080807f7fffffffffffffffffffffffffffffff5d576e7357a4501ddfe92f46681b20a08411156114f75750600091506003905082611581565b604080516000808252602082018084528a905260ff891692820192909252606081018790526080810186905260019060a0016020604051602081039080840390855afa15801561154b573d6000803e3d6000fd5b5050604051601f1901519150506001600160a01b03811661157757506000925060019150829050611581565b9250600091508190505b9450945094915050565b600082600381111561159f5761159f6119d3565b036115a8575050565b60018260038111156115bc576115bc6119d3565b036115da5760405163f645eedf60e01b815260040160405180910390fd5b60028260038111156115ee576115ee6119d3565b0361160f5760405163fce698f760e01b8152600481018290526024016106d5565b6003826003811115611623576116236119d3565b0361082b576040516335e2f38360e21b8152600481018290526024016106d5565b6060600061165183611683565b604080516020808252818301909252919250600091906020820181803683375050509182525060208101929092525090565b600060ff8216601f8111156105b857604051632cd44ac360e21b815260040160405180910390fd5b6000815180845260005b818110156116d1576020818501810151868301820152016116b5565b506000602082860101526020601f19601f83011685010191505092915050565b60208152600061084460208301846116ab565b80356001600160a01b038116811461171b57600080fd5b919050565b6000806040838503121561173357600080fd5b61173c83611704565b946020939093013593505050565b60008060006060848603121561175f57600080fd5b61176884611704565b925061177660208501611704565b9150604084013590509250925092565b6000806040838503121561179957600080fd5b6117a283611704565b9150602083013580151581146117b757600080fd5b809150509250929050565b6000806000606084860312156117d757600080fd5b6117e084611704565b92506117ee60208501611704565b91506117fc60408501611704565b90509250925092565b60006020828403121561181757600080fd5b61084482611704565b60ff60f81b881681526000602060e0602084015261184160e084018a6116ab565b8381036040850152611853818a6116ab565b606085018990526001600160a01b038816608086015260a0850187905284810360c08601528551808252602080880193509091019060005b818110156118a75783518352928401929184019160010161188b565b50909c9b505050505050505050505050565b6000602082840312156118cb57600080fd5b5035919050565b600080600080600080600060e0888a0312156118ed57600080fd5b6118f688611704565b965061190460208901611704565b95506040880135945060608801359350608088013560ff8116811461192857600080fd5b9699959850939692959460a0840135945060c09093013592915050565b6000806040838503121561195857600080fd5b61196183611704565b915061196f60208401611704565b90509250929050565b600181811c9082168061198c57607f821691505b6020821081036119ac57634e487b7160e01b600052602260045260246000fd5b50919050565b808201808211156105b857634e487b7160e01b600052601160045260246000fd5b634e487b7160e01b600052602160045260246000fdfea164736f6c6343000817000a",
  "devdoc": {
    "errors": {
      "ECDSAInvalidSignature()": [
        {
          "details": "The signature derives the `address(0)`."
        }
      ],
      "ECDSAInvalidSignatureLength(uint256)": [
        {
          "details": "The signature has an invalid length."
        }
      ],
      "ECDSAInvalidSignatureS(bytes32)": [
        {
          "details": "The signature has an S value that is in the upper half order."
        }
      ],
      "ERC20InsufficientAllowance(address,uint256,uint256)": [
        {
          "details": "Indicates a failure with the `spender`s `allowance`. Used in transfers.",
          "params": {
            "allowance": "Amount of tokens a `spender` is allowed to operate with.",
            "needed": "Minimum amount required to perform a transfer.",
            "spender": "Address that may be allowed to operate on tokens without being their owner."
          }
        }
      ],
      "ERC20InsufficientBalance(address,uint256,uint256)": [
        {
          "details": "Indicates an error related to the current `balance` of a `sender`. Used in transfers.",
          "params": {
            "balance": "Current balance for the interacting account.",
            "needed": "Minimum amount required to perform a transfer.",
            "sender": "Address whose tokens are being transferred."
          }
        }
      ],
      "ERC20InvalidApprover(address)": [
        {
          "details": "Indicates a failure with the `approver` of a token to be approved. Used in approvals.",
          "params": {
            "approver": "Address initiating an approval operation."
          }
        }
      ],
      "ERC20InvalidReceiver(address)": [
        {
          "details": "Indicates a failure with the token `receiver`. Used in transfers.",
          "params": {
            "receiver": "Address to which tokens are being transferred."
          }
        }
      ],
      "ERC20InvalidSender(address)": [
        {
          "details": "Indicates a failure with the token `sender`. Used in transfers.",
          "params": {
            "sender": "Address whose tokens are being transferred."
          }
        }
      ],
      "ERC20InvalidSpender(address)": [
        {
          "details": "Indicates a failure with the `spender` to be approved. Used in approvals.",
          "params": {
            "spender": "Address that may be allowed to operate on tokens without being their owner."
          }
        }
      ],
      "ERC2612ExpiredSignature(uint256)": [
        {
          "details": "Permit deadline has expired."
        }
      ],
      "ERC2612InvalidSigner(address,address)": [
        {
          "details": "Mismatched signature."
        }
      ],
      "InvalidAccountNonce(address,uint256)": [
        {
          "details": "The nonce used for an `account` is not the expected current nonce."
        }
      ],
      "OwnableInvalidOwner(address)": [
        {
          "details": "The owner is not a valid owner account. (eg. `address(0)`)"
        }
      ],
      "OwnableUnauthorizedAccount(address)": [
        {
          "details": "The caller account is not authorized to perform an operation."
        }
      ]
    },
    "events": {
      "Approval(address,address,uint256)": {
        "details": "Emitted when the allowance of a `spender` for an `owner` is set by a call to {approve}. `value` is the new allowance."
      },
      "EIP712DomainChanged()": {
        "details": "MAY be emitted to signal that the domain could have changed."
      },
      "Transfer(address,address,uint256)": {
        "details": "Emitted when `value` tokens are moved from one account (`from`) to another (`to`). Note that `value` may be zero."
      }
    },
    "kind": "dev",
    "methods": {
      "DOMAIN_SEPARATOR()": {
        "details": "Returns the domain separator used in the encoding of the signature for {permit}, as defined by {EIP712}."
      },
      "allowance(address,address)": {
        "details": "See {IERC20-allowance}."
      },
      "approve(address,uint256)": {
        "details": "See {IERC20-approve}. NOTE: If `value` is the maximum `uint256`, the allowance is not updated on `transferFrom`. This is semantically equivalent to an infinite approval. Requirements: - `spender` cannot be the zero address."
      },
      "balanceOf(address)": {
        "details": "See {IERC20-balanceOf}."
      },
      "decimals()": {
        "details": "Returns the number of decimals used to get its user representation. For example, if `decimals` equals `2`, a balance of `505` tokens should be displayed to a user as `5.05` (`505 / 10 ** 2`). Tokens usually opt for a value of 18, imitating the relationship between Ether and Wei. This is the default value returned by this function, unless it's overridden. NOTE: This information is only used for _display_ purposes: it in no way affects any of the arithmetic of the contract, including {IERC20-balanceOf} and {IERC20-transfer}."
      },
      "eip712Domain()": {
        "details": "See {IERC-5267}."
      },
      "name()": {
        "details": "Returns the name of the token."
      },
      "nonces(address)": {
        "details": "Returns the current nonce for `owner`. This value must be included whenever a signature is generated for {permit}. Every successful call to {permit} increases ``owner``'s nonce by one. This prevents a signature from being used multiple times."
      },
      "owner()": {
        "details": "Returns the address of the current owner."
      },
      "permit(address,address,uint256,uint256,uint8,bytes32,bytes32)": {
        "details": "Sets `value` as the allowance of `spender` over ``owner``'s tokens, given ``owner``'s signed approval. IMPORTANT: The same issues {IERC20-approve} has related to transaction ordering also apply here. Emits an {Approval} event. Requirements: - `spender` cannot be the zero address. - `deadline` must be a timestamp in the future. - `v`, `r` and `s` must be a valid `secp256k1` signature from `owner` over the EIP712-formatted function arguments. - the signature must use ``owner``'s current nonce (see {nonces}). For more information on the signature format, see the https://eips.ethereum.org/EIPS/eip-2612#specification[relevant EIP section]. CAUTION: See Security Considerations above."
      },
      "renounceOwnership()": {
        "details": "Leaves the contract without owner. It will not be possible to call `onlyOwner` functions. Can only be called by the current owner. NOTE: Renouncing ownership will leave the contract without an owner, thereby disabling any functionality that is only available to the owner."
      },
      "symbol()": {
        "details": "Returns the symbol of the token, usually a shorter version of the name."
      },
      "totalSupply()": {
        "details": "See {IERC20-totalSupply}."
      },
      "transferOwnership(address)": {
        "details": "Transfers ownership of the contract to a new account (`newOwner`). Can only be called by the current owner."
      }
    },
    "version": 1
  },
  "userdoc": {
    "kind": "user",
    "methods": {},
    "version": 1
  },
  "storageLayout": {
    "storage": [
      {
        "astId": 1683,
        "contract": "contracts/DebtToken.sol:DebtToken",
        "label": "_balances",
        "offset": 0,
        "slot": "0",
        "type": "t_mapping(t_address,t_uint256)"
      },
      {
        "astId": 1689,
        "contract": "contracts/DebtToken.sol:DebtToken",
        "label": "_allowances",
        "offset": 0,
        "slot": "1",
        "type": "t_mapping(t_address,t_mapping(t_address,t_uint256))"
      },
      {
        "astId": 1691,
        "contract": "contracts/DebtToken.sol:DebtToken",
        "label": "_totalSupply",
        "offset": 0,
        "slot": "2",
        "type": "t_uint256"
      },
      {
        "astId": 1693,
        "contract": "contracts/DebtToken.sol:DebtToken",
        "label": "_name",
        "offset": 0,
        "slot": "3",
        "type": "t_string_storage"
      },
      {
        "astId": 1695,
        "contract": "contracts/DebtToken.sol:DebtToken",
        "label": "_symbol",
        "offset": 0,
        "slot": "4",
        "type": "t_string_storage"
      },
      {
        "astId": 4077,
        "contract": "contracts/DebtToken.sol:DebtToken",
        "label": "_nameFallback",
        "offset": 0,
        "slot": "5",
        "type": "t_string_storage"
      },
      {
        "astId": 4079,
        "contract": "contracts/DebtToken.sol:DebtToken",
        "label": "_versionFallback",
        "offset": 0,
        "slot": "6",
        "type": "t_string_storage"
      },
      {
        "astId": 3056,
        "contract": "contracts/DebtToken.sol:DebtToken",
        "label": "_nonces",
        "offset": 0,
        "slot": "7",
        "type": "t_mapping(t_address,t_uint256)"
      },
      {
        "astId": 1036,
        "contract": "contracts/DebtToken.sol:DebtToken",
        "label": "_owner",
        "offset": 0,
        "slot": "8",
        "type": "t_address"
      },
      {
        "astId": 9197,
        "contract": "contracts/DebtToken.sol:DebtToken",
        "label": "borrowerOperationsAddress",
        "offset": 0,
        "slot": "9",
        "type": "t_address"
      },
      {
        "astId": 9199,
        "contract": "contracts/DebtToken.sol:DebtToken",
        "label": "stabilityPoolAddress",
        "offset": 0,
        "slot": "10",
        "type": "t_address"
      },
      {
        "astId": 9201,
        "contract": "contracts/DebtToken.sol:DebtToken",
        "label": "trenBoxManagerAddress",
        "offset": 0,
        "slot": "11",
        "type": "t_address"
      },
      {
        "astId": 9269,
        "contract": "contracts/DebtToken.sol:DebtToken",
        "label": "emergencyStopMintingCollateral",
        "offset": 0,
        "slot": "12",
        "type": "t_mapping(t_address,t_bool)"
      },
      {
        "astId": 9273,
        "contract": "contracts/DebtToken.sol:DebtToken",
        "label": "whitelistedContracts",
        "offset": 0,
        "slot": "13",
        "type": "t_mapping(t_address,t_bool)"
      }
    ],
    "types": {
      "t_address": {
        "encoding": "inplace",
        "label": "address",
        "numberOfBytes": "20"
      },
      "t_bool": {
        "encoding": "inplace",
        "label": "bool",
        "numberOfBytes": "1"
      },
      "t_mapping(t_address,t_bool)": {
        "encoding": "mapping",
        "key": "t_address",
        "label": "mapping(address => bool)",
        "numberOfBytes": "32",
        "value": "t_bool"
      },
      "t_mapping(t_address,t_mapping(t_address,t_uint256))": {
        "encoding": "mapping",
        "key": "t_address",
        "label": "mapping(address => mapping(address => uint256))",
        "numberOfBytes": "32",
        "value": "t_mapping(t_address,t_uint256)"
      },
      "t_mapping(t_address,t_uint256)": {
        "encoding": "mapping",
        "key": "t_address",
        "label": "mapping(address => uint256)",
        "numberOfBytes": "32",
        "value": "t_uint256"
      },
      "t_string_storage": {
        "encoding": "bytes",
        "label": "string",
        "numberOfBytes": "32"
      },
      "t_uint256": {
        "encoding": "inplace",
        "label": "uint256",
        "numberOfBytes": "32"
      }
    }
  }
}