{
  "address": "0x50183816A5D467CE98e44F1E637e379fe846eDaf",
  "abi": [
    {
      "inputs": [
        {
          "internalType": "address",
          "name": "target",
          "type": "address"
        }
      ],
      "name": "AddressEmptyCode",
      "type": "error"
    },
    {
      "inputs": [
        {
          "internalType": "address",
          "name": "account",
          "type": "address"
        }
      ],
      "name": "AddressInsufficientBalance",
      "type": "error"
    },
    {
      "inputs": [],
      "name": "ConfigurableAddresses__CommunityIssuanceZeroAddress",
      "type": "error"
    },
    {
      "inputs": [],
      "name": "ConfigurableAddresses__LengthMismatch",
      "type": "error"
    },
    {
      "inputs": [],
      "name": "ConfigurableAddresses__SetupIsInitialized",
      "type": "error"
    },
    {
      "inputs": [],
      "name": "ConfigurableAddresses__TRENStakingZeroAddress",
      "type": "error"
    },
    {
      "inputs": [
        {
          "internalType": "uint256",
          "name": "position",
          "type": "uint256"
        },
        {
          "internalType": "address",
          "name": "address_",
          "type": "address"
        }
      ],
      "name": "ConfigurableAddresses__ZeroAddresses",
      "type": "error"
    },
    {
      "inputs": [
        {
          "internalType": "address",
          "name": "implementation",
          "type": "address"
        }
      ],
      "name": "ERC1967InvalidImplementation",
      "type": "error"
    },
    {
      "inputs": [],
      "name": "ERC1967NonPayable",
      "type": "error"
    },
    {
      "inputs": [],
      "name": "FailedInnerCall",
      "type": "error"
    },
    {
      "inputs": [],
      "name": "FeeCollector__ArrayMismatch",
      "type": "error"
    },
    {
      "inputs": [
        {
          "internalType": "address",
          "name": "sender",
          "type": "address"
        },
        {
          "internalType": "address",
          "name": "expected",
          "type": "address"
        }
      ],
      "name": "FeeCollector__BorrowerOperationsOnly",
      "type": "error"
    },
    {
      "inputs": [
        {
          "internalType": "address",
          "name": "sender",
          "type": "address"
        },
        {
          "internalType": "address",
          "name": "expected1",
          "type": "address"
        },
        {
          "internalType": "address",
          "name": "expected2",
          "type": "address"
        }
      ],
      "name": "FeeCollector__BorrowerOperationsOrTrenBoxManagerOnly",
      "type": "error"
    },
    {
      "inputs": [],
      "name": "FeeCollector__InvalidTRENStakingAddress",
      "type": "error"
    },
    {
      "inputs": [
        {
          "internalType": "address",
          "name": "sender",
          "type": "address"
        },
        {
          "internalType": "address",
          "name": "expected",
          "type": "address"
        }
      ],
      "name": "FeeCollector__TrenBoxManagerOnly",
      "type": "error"
    },
    {
      "inputs": [],
      "name": "InvalidInitialization",
      "type": "error"
    },
    {
      "inputs": [],
      "name": "NotInitializing",
      "type": "error"
    },
    {
      "inputs": [
        {
          "internalType": "address",
          "name": "owner",
          "type": "address"
        }
      ],
      "name": "OwnableInvalidOwner",
      "type": "error"
    },
    {
      "inputs": [
        {
          "internalType": "address",
          "name": "account",
          "type": "address"
        }
      ],
      "name": "OwnableUnauthorizedAccount",
      "type": "error"
    },
    {
      "inputs": [
        {
          "internalType": "address",
          "name": "token",
          "type": "address"
        }
      ],
      "name": "SafeERC20FailedOperation",
      "type": "error"
    },
    {
      "inputs": [],
      "name": "UUPSUnauthorizedCallContext",
      "type": "error"
    },
    {
      "inputs": [
        {
          "internalType": "bytes32",
          "name": "slot",
          "type": "bytes32"
        }
      ],
      "name": "UUPSUnsupportedProxiableUUID",
      "type": "error"
    },
    {
      "anonymous": false,
      "inputs": [
        {
          "indexed": false,
          "internalType": "address",
          "name": "borrower",
          "type": "address"
        },
        {
          "indexed": false,
          "internalType": "address",
          "name": "asset",
          "type": "address"
        },
        {
          "indexed": false,
          "internalType": "address",
          "name": "collector",
          "type": "address"
        },
        {
          "indexed": false,
          "internalType": "uint256",
          "name": "amount",
          "type": "uint256"
        }
      ],
      "name": "FeeCollected",
      "type": "event"
    },
    {
      "anonymous": false,
      "inputs": [
        {
          "indexed": false,
          "internalType": "address",
          "name": "borrower",
          "type": "address"
        },
        {
          "indexed": false,
          "internalType": "address",
          "name": "asset",
          "type": "address"
        },
        {
          "indexed": false,
          "internalType": "uint256",
          "name": "from",
          "type": "uint256"
        },
        {
          "indexed": false,
          "internalType": "uint256",
          "name": "to",
          "type": "uint256"
        },
        {
          "indexed": false,
          "internalType": "uint256",
          "name": "amount",
          "type": "uint256"
        }
      ],
      "name": "FeeRecordUpdated",
      "type": "event"
    },
    {
      "anonymous": false,
      "inputs": [
        {
          "indexed": false,
          "internalType": "address",
          "name": "borrower",
          "type": "address"
        },
        {
          "indexed": false,
          "internalType": "address",
          "name": "asset",
          "type": "address"
        },
        {
          "indexed": false,
          "internalType": "uint256",
          "name": "amount",
          "type": "uint256"
        }
      ],
      "name": "FeeRefunded",
      "type": "event"
    },
    {
      "anonymous": false,
      "inputs": [
        {
          "indexed": false,
          "internalType": "uint64",
          "name": "version",
          "type": "uint64"
        }
      ],
      "name": "Initialized",
      "type": "event"
    },
    {
      "anonymous": false,
      "inputs": [
        {
          "indexed": true,
          "internalType": "address",
          "name": "previousOwner",
          "type": "address"
        },
        {
          "indexed": true,
          "internalType": "address",
          "name": "newOwner",
          "type": "address"
        }
      ],
      "name": "OwnershipTransferred",
      "type": "event"
    },
    {
      "anonymous": false,
      "inputs": [
        {
          "indexed": false,
          "internalType": "address",
          "name": "asset",
          "type": "address"
        },
        {
          "indexed": false,
          "internalType": "uint256",
          "name": "amount",
          "type": "uint256"
        }
      ],
      "name": "RedemptionFeeCollected",
      "type": "event"
    },
    {
      "anonymous": false,
      "inputs": [
        {
          "indexed": true,
          "internalType": "address",
          "name": "implementation",
          "type": "address"
        }
      ],
      "name": "Upgraded",
      "type": "event"
    },
    {
      "inputs": [],
      "name": "FEE_EXPIRATION_SECONDS",
      "outputs": [
        {
          "internalType": "uint256",
          "name": "",
          "type": "uint256"
        }
      ],
      "stateMutability": "view",
      "type": "function"
    },
    {
      "inputs": [],
      "name": "MIN_FEE_DAYS",
      "outputs": [
        {
          "internalType": "uint256",
          "name": "",
          "type": "uint256"
        }
      ],
      "stateMutability": "view",
      "type": "function"
    },
    {
      "inputs": [],
      "name": "MIN_FEE_FRACTION",
      "outputs": [
        {
          "internalType": "uint256",
          "name": "",
          "type": "uint256"
        }
      ],
      "stateMutability": "view",
      "type": "function"
    },
    {
      "inputs": [],
      "name": "NAME",
      "outputs": [
        {
          "internalType": "string",
          "name": "",
          "type": "string"
        }
      ],
      "stateMutability": "view",
      "type": "function"
    },
    {
      "inputs": [],
      "name": "UPGRADE_INTERFACE_VERSION",
      "outputs": [
        {
          "internalType": "string",
          "name": "",
          "type": "string"
        }
      ],
      "stateMutability": "view",
      "type": "function"
    },
    {
      "inputs": [],
      "name": "activePool",
      "outputs": [
        {
          "internalType": "address",
          "name": "",
          "type": "address"
        }
      ],
      "stateMutability": "view",
      "type": "function"
    },
    {
      "inputs": [],
      "name": "adminContract",
      "outputs": [
        {
          "internalType": "address",
          "name": "",
          "type": "address"
        }
      ],
      "stateMutability": "view",
      "type": "function"
    },
    {
      "inputs": [
        {
          "internalType": "address",
          "name": "newImplementation",
          "type": "address"
        }
      ],
      "name": "authorizeUpgrade",
      "outputs": [],
      "stateMutability": "nonpayable",
      "type": "function"
    },
    {
      "inputs": [],
      "name": "borrowerOperations",
      "outputs": [
        {
          "internalType": "address",
          "name": "",
          "type": "address"
        }
      ],
      "stateMutability": "view",
      "type": "function"
    },
    {
      "inputs": [
        {
          "internalType": "address",
          "name": "_borrower",
          "type": "address"
        },
        {
          "internalType": "address",
          "name": "_asset",
          "type": "address"
        }
      ],
      "name": "closeDebt",
      "outputs": [],
      "stateMutability": "nonpayable",
      "type": "function"
    },
    {
      "inputs": [],
      "name": "collSurplusPool",
      "outputs": [
        {
          "internalType": "address",
          "name": "",
          "type": "address"
        }
      ],
      "stateMutability": "view",
      "type": "function"
    },
    {
      "inputs": [
        {
          "internalType": "address[]",
          "name": "_borrowers",
          "type": "address[]"
        },
        {
          "internalType": "address[]",
          "name": "_assets",
          "type": "address[]"
        }
      ],
      "name": "collectFees",
      "outputs": [],
      "stateMutability": "nonpayable",
      "type": "function"
    },
    {
      "inputs": [],
      "name": "communityIssuance",
      "outputs": [
        {
          "internalType": "address",
          "name": "",
          "type": "address"
        }
      ],
      "stateMutability": "view",
      "type": "function"
    },
    {
      "inputs": [],
      "name": "debtToken",
      "outputs": [
        {
          "internalType": "address",
          "name": "",
          "type": "address"
        }
      ],
      "stateMutability": "view",
      "type": "function"
    },
    {
      "inputs": [
        {
          "internalType": "address",
          "name": "_borrower",
          "type": "address"
        },
        {
          "internalType": "address",
          "name": "_asset",
          "type": "address"
        },
        {
          "internalType": "uint256",
          "name": "_paybackFraction",
          "type": "uint256"
        }
      ],
      "name": "decreaseDebt",
      "outputs": [],
      "stateMutability": "nonpayable",
      "type": "function"
    },
    {
      "inputs": [],
      "name": "defaultPool",
      "outputs": [
        {
          "internalType": "address",
          "name": "",
          "type": "address"
        }
      ],
      "stateMutability": "view",
      "type": "function"
    },
    {
      "inputs": [],
      "name": "feeCollector",
      "outputs": [
        {
          "internalType": "address",
          "name": "",
          "type": "address"
        }
      ],
      "stateMutability": "view",
      "type": "function"
    },
    {
      "inputs": [
        {
          "internalType": "address",
          "name": "borrower",
          "type": "address"
        },
        {
          "internalType": "address",
          "name": "asset",
          "type": "address"
        }
      ],
      "name": "feeRecords",
      "outputs": [
        {
          "internalType": "uint256",
          "name": "from",
          "type": "uint256"
        },
        {
          "internalType": "uint256",
          "name": "to",
          "type": "uint256"
        },
        {
          "internalType": "uint256",
          "name": "amount",
          "type": "uint256"
        }
      ],
      "stateMutability": "view",
      "type": "function"
    },
    {
      "inputs": [],
      "name": "flashLoanAddress",
      "outputs": [
        {
          "internalType": "address",
          "name": "",
          "type": "address"
        }
      ],
      "stateMutability": "view",
      "type": "function"
    },
    {
      "inputs": [],
      "name": "gasPoolAddress",
      "outputs": [
        {
          "internalType": "address",
          "name": "",
          "type": "address"
        }
      ],
      "stateMutability": "view",
      "type": "function"
    },
    {
      "inputs": [],
      "name": "getProtocolRevenueDestination",
      "outputs": [
        {
          "internalType": "address",
          "name": "",
          "type": "address"
        }
      ],
      "stateMutability": "view",
      "type": "function"
    },
    {
      "inputs": [
        {
          "internalType": "address",
          "name": "_asset",
          "type": "address"
        },
        {
          "internalType": "uint256",
          "name": "_amount",
          "type": "uint256"
        }
      ],
      "name": "handleRedemptionFee",
      "outputs": [],
      "stateMutability": "nonpayable",
      "type": "function"
    },
    {
      "inputs": [
        {
          "internalType": "address",
          "name": "_borrower",
          "type": "address"
        },
        {
          "internalType": "address",
          "name": "_asset",
          "type": "address"
        },
        {
          "internalType": "uint256",
          "name": "_feeAmount",
          "type": "uint256"
        }
      ],
      "name": "increaseDebt",
      "outputs": [],
      "stateMutability": "nonpayable",
      "type": "function"
    },
    {
      "inputs": [],
      "name": "initialize",
      "outputs": [],
      "stateMutability": "nonpayable",
      "type": "function"
    },
    {
      "inputs": [],
      "name": "isAddressSetupInitialized",
      "outputs": [
        {
          "internalType": "bool",
          "name": "",
          "type": "bool"
        }
      ],
      "stateMutability": "view",
      "type": "function"
    },
    {
      "inputs": [
        {
          "internalType": "address",
          "name": "_borrower",
          "type": "address"
        },
        {
          "internalType": "address",
          "name": "_asset",
          "type": "address"
        }
      ],
      "name": "liquidateDebt",
      "outputs": [],
      "stateMutability": "nonpayable",
      "type": "function"
    },
    {
      "inputs": [],
      "name": "owner",
      "outputs": [
        {
          "internalType": "address",
          "name": "",
          "type": "address"
        }
      ],
      "stateMutability": "view",
      "type": "function"
    },
    {
      "inputs": [],
      "name": "priceFeed",
      "outputs": [
        {
          "internalType": "address",
          "name": "",
          "type": "address"
        }
      ],
      "stateMutability": "view",
      "type": "function"
    },
    {
      "inputs": [],
      "name": "proxiableUUID",
      "outputs": [
        {
          "internalType": "bytes32",
          "name": "",
          "type": "bytes32"
        }
      ],
      "stateMutability": "view",
      "type": "function"
    },
    {
      "inputs": [],
      "name": "renounceOwnership",
      "outputs": [],
      "stateMutability": "nonpayable",
      "type": "function"
    },
    {
      "inputs": [],
      "name": "routeToTRENStaking",
      "outputs": [
        {
          "internalType": "bool",
          "name": "",
          "type": "bool"
        }
      ],
      "stateMutability": "view",
      "type": "function"
    },
    {
      "inputs": [
        {
          "internalType": "address[]",
          "name": "_addresses",
          "type": "address[]"
        }
      ],
      "name": "setAddresses",
      "outputs": [],
      "stateMutability": "nonpayable",
      "type": "function"
    },
    {
      "inputs": [
        {
          "internalType": "address",
          "name": "_communityIssuance",
          "type": "address"
        }
      ],
      "name": "setCommunityIssuance",
      "outputs": [],
      "stateMutability": "nonpayable",
      "type": "function"
    },
    {
      "inputs": [
        {
          "internalType": "address",
          "name": "_trenStaking",
          "type": "address"
        }
      ],
      "name": "setTRENStaking",
      "outputs": [],
      "stateMutability": "nonpayable",
      "type": "function"
    },
    {
      "inputs": [
        {
          "internalType": "address",
          "name": "_borrower",
          "type": "address"
        },
        {
          "internalType": "address",
          "name": "_asset",
          "type": "address"
        },
        {
          "internalType": "uint256",
          "name": "_paybackFraction",
          "type": "uint256"
        }
      ],
      "name": "simulateRefund",
      "outputs": [
        {
          "internalType": "uint256",
          "name": "",
          "type": "uint256"
        }
      ],
      "stateMutability": "view",
      "type": "function"
    },
    {
      "inputs": [],
      "name": "sortedTrenBoxes",
      "outputs": [
        {
          "internalType": "address",
          "name": "",
          "type": "address"
        }
      ],
      "stateMutability": "view",
      "type": "function"
    },
    {
      "inputs": [],
      "name": "stabilityPool",
      "outputs": [
        {
          "internalType": "address",
          "name": "",
          "type": "address"
        }
      ],
      "stateMutability": "view",
      "type": "function"
    },
    {
      "inputs": [],
      "name": "timelockAddress",
      "outputs": [
        {
          "internalType": "address",
          "name": "",
          "type": "address"
        }
      ],
      "stateMutability": "view",
      "type": "function"
    },
    {
      "inputs": [
        {
          "internalType": "address",
          "name": "newOwner",
          "type": "address"
        }
      ],
      "name": "transferOwnership",
      "outputs": [],
      "stateMutability": "nonpayable",
      "type": "function"
    },
    {
      "inputs": [],
      "name": "treasuryAddress",
      "outputs": [
        {
          "internalType": "address",
          "name": "",
          "type": "address"
        }
      ],
      "stateMutability": "view",
      "type": "function"
    },
    {
      "inputs": [],
      "name": "trenBoxManager",
      "outputs": [
        {
          "internalType": "address",
          "name": "",
          "type": "address"
        }
      ],
      "stateMutability": "view",
      "type": "function"
    },
    {
      "inputs": [],
      "name": "trenBoxManagerOperations",
      "outputs": [
        {
          "internalType": "address",
          "name": "",
          "type": "address"
        }
      ],
      "stateMutability": "view",
      "type": "function"
    },
    {
      "inputs": [],
      "name": "trenStaking",
      "outputs": [
        {
          "internalType": "address",
          "name": "",
          "type": "address"
        }
      ],
      "stateMutability": "view",
      "type": "function"
    },
    {
      "inputs": [
        {
          "internalType": "address",
          "name": "newImplementation",
          "type": "address"
        },
        {
          "internalType": "bytes",
          "name": "data",
          "type": "bytes"
        }
      ],
      "name": "upgradeToAndCall",
      "outputs": [],
      "stateMutability": "payable",
      "type": "function"
    }
  ],
  "transactionHash": "0x0565b35704ebc0be1464155ee0a9295ecb434e3652ba5bd4f79ef2082dcac8ce",
  "args": [],
  "numDeployments": 1,
  "solcInputHash": "95c5aca5a7d37a227eda09db9261aa6b",
  "bytecode": "0x60a06040523060805234801561001457600080fd5b5060805161268361003e600039600081816116ec01528181611715015261185601526126836000f3fe6080604052600436106102675760003560e01c80638da5cb5b11610144578063c5f956af116100b6578063ed60f1881161007a578063ed60f188146107ab578063f1c05a7e146107cb578063f2fde38b146107eb578063f8d898981461080b578063fe0607331461082b578063fe9d03231461084b57600080fd5b8063c5f956af1461070f578063c8564c621461072f578063cc8b21e414610750578063cda775f914610770578063d0224e6c1461079057600080fd5b8063a3f4df7e11610108578063a3f4df7e14610619578063aa36069d1461065e578063ad3cb1cc1461067e578063b9571721146106af578063c05c5e94146106cf578063c415b95c146106ef57600080fd5b80638da5cb5b1461051e5780638dfac87a1461055b57806395fb16bb1461058057806398768db2146105a05780639f802fb8146105b757600080fd5b806355dafa46116101dd578063741bef1a116101a1578063741bef1a146104745780637693ccdb1461049457806377553ad4146104a95780637f7dde4a146104c95780638129fc1c146104e9578063871d8145146104fe57600080fd5b806355dafa46146103e15780636a85d67d146104015780636de2449214610421578063715018a61461044157806373c9bde01461045657600080fd5b80634169467d1161022f5780634169467d1461032b57806341c7a5ee1461034b5780634a791957146103795780634bc66f32146103995780634f1ef286146103b957806352d1902d146103cc57600080fd5b806301c931001461026c578063048c661d1461028e5780630833c62d146102cb5780630a34d4d6146102eb5780633cc742251461030b575b600080fd5b34801561027857600080fd5b5061028c6102873660046121f3565b61086b565b005b34801561029a57600080fd5b50600d546102ae906001600160a01b031681565b6040516001600160a01b0390911681526020015b60405180910390f35b3480156102d757600080fd5b5061028c6102e636600461225a565b6108bc565b3480156102f757600080fd5b506011546102ae906001600160a01b031681565b34801561031757600080fd5b506006546102ae906001600160a01b031681565b34801561033757600080fd5b506008546102ae906001600160a01b031681565b34801561035757600080fd5b5061036b6103663660046122c6565b610a07565b6040519081526020016102c2565b34801561038557600080fd5b5061028c610394366004612302565b610b4a565b3480156103a557600080fd5b50600e546102ae906001600160a01b031681565b61028c6103c7366004612342565b610bd0565b3480156103d857600080fd5b5061036b610bef565b3480156103ed57600080fd5b50600a546102ae906001600160a01b031681565b34801561040d57600080fd5b5061028c61041c3660046121f3565b610c0c565b34801561042d57600080fd5b5061028c61043c3660046122c6565b610c5d565b34801561044d57600080fd5b5061028c610cfe565b34801561046257600080fd5b50600f546001600160a01b03166102ae565b34801561048057600080fd5b50600b546102ae906001600160a01b031681565b3480156104a057600080fd5b5061036b600781565b3480156104b557600080fd5b506002546102ae906001600160a01b031681565b3480156104d557600080fd5b506000546102ae906001600160a01b031681565b3480156104f557600080fd5b5061028c610d12565b34801561050a57600080fd5b5061028c610519366004612404565b610e2b565b34801561052a57600080fd5b507f9016d09d72d40fdae2fd8ceac6b6234c7706214fd39c1cd1e609a0528c199300546001600160a01b03166102ae565b34801561056757600080fd5b50610570600081565b60405190151581526020016102c2565b34801561058c57600080fd5b506004546102ae906001600160a01b031681565b3480156105ac57600080fd5b5061036b62e6b68081565b3480156105c357600080fd5b506105fe6105d2366004612404565b603360209081526000928352604080842090915290825290208054600182015460029092015490919083565b604080519384526020840192909252908201526060016102c2565b34801561062557600080fd5b506106516040518060400160405280600c81526020016b2332b2a1b7b63632b1ba37b960a11b81525081565b6040516102c2919061245b565b34801561066a57600080fd5b5061028c610679366004612404565b610ea1565b34801561068a57600080fd5b50610651604051806040016040528060058152602001640352e302e360dc1b81525081565b3480156106bb57600080fd5b5061028c6106ca36600461248e565b610f45565b3480156106db57600080fd5b506001546102ae906001600160a01b031681565b3480156106fb57600080fd5b506007546102ae906001600160a01b031681565b34801561071b57600080fd5b50600f546102ae906001600160a01b031681565b34801561073b57600080fd5b5060115461057090600160a01b900460ff1681565b34801561075c57600080fd5b50600c546102ae906001600160a01b031681565b34801561077c57600080fd5b506003546102ae906001600160a01b031681565b34801561079c57600080fd5b5061036b6688a490a601540081565b3480156107b757600080fd5b5061028c6107c63660046122c6565b6114c1565b3480156107d757600080fd5b506010546102ae906001600160a01b031681565b3480156107f757600080fd5b5061028c6108063660046121f3565b61152f565b34801561081757600080fd5b506005546102ae906001600160a01b031681565b34801561083757600080fd5b5061028c6108463660046121f3565b61156d565b34801561085757600080fd5b506009546102ae906001600160a01b031681565b610873611576565b6001600160a01b03811661089a576040516385d3330760e01b815260040160405180910390fd5b600a80546001600160a01b0319166001600160a01b0392909216919091179055565b8281811415806108ca575080155b156108e857604051631a04c91160e01b815260040160405180910390fd5b4260005b828110156109fe576000878783818110610908576109086124d0565b905060200201602081019061091d91906121f3565b90506000868684818110610933576109336124d0565b905060200201602081019061094891906121f3565b6001600160a01b0380841660009081526033602090815260408083209385168352929052908120805460018201546002830154949550919361098a92906115d1565b905080156109ee5760008183600201546109a491906124fc565b6002840181905587845590506109bb858584611655565b6000805160206126378339815191528585898660010154856040516109e495949392919061250f565b60405180910390a1505b5050600190920191506108ec9050565b50505050505050565b6000670de0b6b3a7640000821115610a3a5760405162461bcd60e51b8152600401610a3190612540565b60405180910390fd5b81600003610a8a5760405162461bcd60e51b815260206004820152601f60248201527f5061796261636b206672616374696f6e2063616e6e6f74206265207a65726f006044820152606401610a31565b6001600160a01b03808516600090815260336020908152604080832093871683529290522060028101541580610ac35750428160010154105b15610ad2576000915050610b43565b6000610aeb8260000154836001015484600201546115d1565b905083670de0b6b3a764000003610b1557808260020154610b0c91906124fc565b92505050610b43565b670de0b6b3a764000084828460020154610b2f91906124fc565b610b399190612593565b610b0c91906125aa565b9392505050565b6010546001600160a01b03163314610b8a57601054604051636545048760e01b81523360048201526001600160a01b039091166024820152604401610a31565b604080516001600160a01b0384168152602081018390527fcf74743fee8ef45d0f775d63c2e7129e1aec29d2ce0222e2d979104c29210481910160405180910390a15050565b610bd86116e1565b610be182611786565b610beb828261178e565b5050565b6000610bf961184b565b5060008051602061265783398151915290565b610c14611576565b6001600160a01b038116610c3b5760405163706ebc6560e11b815260040160405180910390fd5b600480546001600160a01b0319166001600160a01b0392909216919091179055565b6002546001600160a01b03163314610c9d5760025460405163428f391560e11b81523360048201526001600160a01b039091166024820152604401610a31565b6000670de0b6b3a7640000610cb9836688a490a6015400612593565b610cc391906125aa565b90506000610cd182846124fc565b90506000610ce0868684611894565b9050610cf68686610cf184876125cc565b611655565b505050505050565b610d06611576565b610d10600061190c565b565b7ff0c57e16840df040f15088dc2f81fe391c3923bec73e23a9662efc9c229c6a008054600160401b810460ff16159067ffffffffffffffff16600081158015610d585750825b905060008267ffffffffffffffff166001148015610d755750303b155b905081158015610d83575080155b15610da15760405163f92ee8a960e01b815260040160405180910390fd5b845467ffffffffffffffff191660011785558315610dcb57845460ff60401b1916600160401b1785555b33610dd58161197d565b610ddd61198e565b508315610e2457845460ff60401b19168555604051600181527fc7f505b2f371ae2175ee4913f4499e1f2633a7b5936321eed1cdaeb6115181d29060200160405180910390a15b5050505050565b6002546001600160a01b03163314801590610e5157506010546001600160a01b03163314155b15610e8e5760025460105460405163bea6c3fd60e01b81523360048201526001600160a01b03928316602482015291166044820152606401610a31565b610beb8282670de0b6b3a7640000611996565b6010546001600160a01b03163314610ee157601054604051636545048760e01b81523360048201526001600160a01b039091166024820152604401610a31565b6001600160a01b038083166000908152603360209081526040808320938516835292815290829020825160608101845281548152600182015492810192909252600201549181018290529015610f4057610f4083838360400151611bec565b505050565b610f4d611576565b601154600160a01b900460ff1615610f7757604051625f22e960e41b815260040160405180910390fd5b60108114610f9857604051633f5a111d60e21b815260040160405180910390fd5b60005b6010811015611036576000838383818110610fb857610fb86124d0565b9050602002016020810190610fcd91906121f3565b6001600160a01b03160361102e5780838383818110610fee57610fee6124d0565b905060200201602081019061100391906121f3565b604051630d9d339f60e01b815260048101929092526001600160a01b03166024820152604401610a31565b600101610f9b565b508181600081811061104a5761104a6124d0565b905060200201602081019061105f91906121f3565b600080546001600160a01b0319166001600160a01b039290921691909117905581816001818110611092576110926124d0565b90506020020160208101906110a791906121f3565b600180546001600160a01b0319166001600160a01b0392909216919091179055818160028181106110da576110da6124d0565b90506020020160208101906110ef91906121f3565b600280546001600160a01b0319166001600160a01b039290921691909117905581816003818110611122576111226124d0565b905060200201602081019061113791906121f3565b600380546001600160a01b0319166001600160a01b03929092169190911790558181600481811061116a5761116a6124d0565b905060200201602081019061117f91906121f3565b600580546001600160a01b0319166001600160a01b0392909216919091178155829082908181106111b2576111b26124d0565b90506020020160208101906111c791906121f3565b600680546001600160a01b0319166001600160a01b0392909216919091178155829082908181106111fa576111fa6124d0565b905060200201602081019061120f91906121f3565b600780546001600160a01b0319166001600160a01b039290921691909117815582908290818110611242576112426124d0565b905060200201602081019061125791906121f3565b600880546001600160a01b0319166001600160a01b03929092169190911781558290829081811061128a5761128a6124d0565b905060200201602081019061129f91906121f3565b600980546001600160a01b0319166001600160a01b0392909216919091178155829082908181106112d2576112d26124d0565b90506020020160208101906112e791906121f3565b600b80546001600160a01b0319166001600160a01b03929092169190911790558181600a81811061131a5761131a6124d0565b905060200201602081019061132f91906121f3565b600c80546001600160a01b0319166001600160a01b03929092169190911790558181600b818110611362576113626124d0565b905060200201602081019061137791906121f3565b600d80546001600160a01b0319166001600160a01b03929092169190911790558181600c8181106113aa576113aa6124d0565b90506020020160208101906113bf91906121f3565b600e80546001600160a01b0319166001600160a01b03929092169190911790558181600d8181106113f2576113f26124d0565b905060200201602081019061140791906121f3565b600f80546001600160a01b0319166001600160a01b03929092169190911790558181600e81811061143a5761143a6124d0565b905060200201602081019061144f91906121f3565b601080546001600160a01b0319166001600160a01b03929092169190911790558181600f818110611482576114826124d0565b905060200201602081019061149791906121f3565b601180546001600160a81b0319166001600160a01b039290921691909117600160a01b1790555050565b6002546001600160a01b031633148015906114e757506010546001600160a01b03163314155b156115245760025460105460405163bea6c3fd60e01b81523360048201526001600160a01b03928316602482015291166044820152606401610a31565b610f40838383611996565b611537611576565b6001600160a01b03811661156157604051631e4fbdf760e01b815260006004820152602401610a31565b61156a8161190c565b50565b61156a81611786565b336115a87f9016d09d72d40fdae2fd8ceac6b6234c7706214fd39c1cd1e609a0528c199300546001600160a01b031690565b6001600160a01b031614610d105760405163118cdaa760e01b8152336004820152602401610a31565b600042808511156115e6576000915050610b43565b8381106115f65782915050610b43565b633b9aca00600061160787876124fc565b9050600061161588856124fc565b90506000826116248589612593565b61162e91906125aa565b905060008461163d8385612593565b61164791906125aa565b9a9950505050505050505050565b8015610f4057600061166f600f546001600160a01b031690565b600554909150611689906001600160a01b03168284611c5f565b604080516001600160a01b03868116825285811660208301528316818301526060810184905290517f3e7be0af9d546b20a6a2e91e4151659dfcad117daa1df79e78d17c5ad2f45b769181900360800190a150505050565b306001600160a01b037f000000000000000000000000000000000000000000000000000000000000000016148061176857507f00000000000000000000000000000000000000000000000000000000000000006001600160a01b031661175c600080516020612657833981519152546001600160a01b031690565b6001600160a01b031614155b15610d105760405163703e46dd60e11b815260040160405180910390fd5b61156a611576565b816001600160a01b03166352d1902d6040518163ffffffff1660e01b8152600401602060405180830381865afa9250505080156117e8575060408051601f3d908101601f191682019092526117e5918101906125df565b60015b61181057604051634c9c8ce360e01b81526001600160a01b0383166004820152602401610a31565b600080516020612657833981519152811461184157604051632a87526960e21b815260048101829052602401610a31565b610f408383611cb1565b306001600160a01b037f00000000000000000000000000000000000000000000000000000000000000001614610d105760405163703e46dd60e11b815260040160405180910390fd5b6001600160a01b0380841660009081526033602090815260408083209386168352929052908120600281015482036118d7576118d285858584611d07565b611904565b428160010154116118f557806002015491506118d285858584611d07565b61190185858584611d7c565b91505b509392505050565b7f9016d09d72d40fdae2fd8ceac6b6234c7706214fd39c1cd1e609a0528c19930080546001600160a01b031981166001600160a01b03848116918217845560405192169182907f8be0079c531659141344cd1fd0a4f28419497f9722a3daafe3b4186f6b6457e090600090a3505050565b611985611e47565b61156a81611e90565b610d10611e47565b42670de0b6b3a76400008211156119bf5760405162461bcd60e51b8152600401610a3190612540565b81600003611a0f5760405162461bcd60e51b815260206004820152601f60248201527f5061796261636b206672616374696f6e2063616e6e6f74206265207a65726f006044820152606401610a31565b6001600160a01b03808516600090815260336020908152604080832093871683529290529081206002810154909103611a49575050505050565b81816001015411611a6857611a6385858360020154611bec565b610e24565b6000611a818260000154836001015484600201546115d1565b9050611a8e868683611655565b83670de0b6b3a764000003611b4a576000818360020154611aaf91906124fc565b600554604051635cad563b60e11b8152600481018390529192506001600160a01b03169063b95aac7690602401600060405180830381600087803b158015611af657600080fd5b505af1158015611b0a573d6000803e3d6000fd5b50506000600286018190556040516000805160206126378339815191529350611b3c92508a918a91899190819061250f565b60405180910390a150610cf6565b6000670de0b6b3a764000085838560020154611b6691906124fc565b611b709190612593565b611b7a91906125aa565b9050611b87878783611e98565b600081838560020154611b9a91906124fc565b611ba491906124fc565b60028501819055858555600185015460405191925060008051602061263783398151915291611bda918b918b918a91879061250f565b60405180910390a15050505050505050565b611bf7838383611655565b6001600160a01b038084166000908152603360209081526040808320938616835292905281812081815560018101829055600201819055905160008051602061263783398151915291611c529186918691429190819061250f565b60405180910390a1505050565b604080516001600160a01b038416602482015260448082018490528251808303909101815260649091019091526020810180516001600160e01b031663a9059cbb60e01b179052610f40908490611efd565b611cba82611f60565b6040516001600160a01b038316907fbc7cd75a20ee27fd9adebab32041f755214dbc6bffa90cc0225b39da2e5c2d3b90600090a2805115611cff57610f408282611fc5565b610beb61203d565b6000611d17600762015180612593565b611d2190426125cc565b90506000611d3262e6b680836125cc565b600284018590558284556001840181905560405190915060008051602061263783398151915290611d6c9088908890869086908a9061250f565b60405180910390a1505050505050565b80546000904290811015611d8e575081545b6000611da78460000154856001015486600201546115d1565b90506000818560020154611dbb91906124fc565b90506000838660010154611dcf91906124fc565b90506000611ddd88846125cc565b90506000611dec84848b61205c565b611df690876125cc565b600289018390558689556001890181905560405190915060008051602061263783398151915290611e30908d908d908a908690889061250f565b60405180910390a150929998505050505050505050565b7ff0c57e16840df040f15088dc2f81fe391c3923bec73e23a9662efc9c229c6a0054600160401b900460ff16610d1057604051631afcd79f60e31b815260040160405180910390fd5b611537611e47565b8015610f4057600554611eb5906001600160a01b03168483611c5f565b604080516001600160a01b038086168252841660208201529081018290527f70930c4d7c90caf6befd84368a02f1e5493c254095e7d3c5b5105922befb92e590606001611c52565b6000611f126001600160a01b038416836120a7565b90508051600014158015611f37575080806020019051810190611f3591906125f8565b155b15610f4057604051635274afe760e01b81526001600160a01b0384166004820152602401610a31565b806001600160a01b03163b600003611f9657604051634c9c8ce360e01b81526001600160a01b0382166004820152602401610a31565b60008051602061265783398151915280546001600160a01b0319166001600160a01b0392909216919091179055565b6060600080846001600160a01b031684604051611fe2919061261a565b600060405180830381855af49150503d806000811461201d576040519150601f19603f3d011682016040523d82523d6000602084013e612022565b606091505b50915091506120328583836120b5565b925050505b92915050565b3415610d105760405163b398979f60e01b815260040160405180910390fd5b6000806120698486612593565b9050600061207a62e6b68085612593565b9050600061208885886125cc565b61209283856125cc565b61209c91906125aa565b979650505050505050565b6060610b4383836000612111565b6060826120ca576120c5826121ae565b610b43565b81511580156120e157506001600160a01b0384163b155b1561210a57604051639996b31560e01b81526001600160a01b0385166004820152602401610a31565b5080610b43565b6060814710156121365760405163cd78605960e01b8152306004820152602401610a31565b600080856001600160a01b03168486604051612152919061261a565b60006040518083038185875af1925050503d806000811461218f576040519150601f19603f3d011682016040523d82523d6000602084013e612194565b606091505b50915091506121a48683836120b5565b9695505050505050565b8051156121be5780518082602001fd5b604051630a12f52160e11b815260040160405180910390fd5b80356001600160a01b03811681146121ee57600080fd5b919050565b60006020828403121561220557600080fd5b610b43826121d7565b60008083601f84011261222057600080fd5b50813567ffffffffffffffff81111561223857600080fd5b6020830191508360208260051b850101111561225357600080fd5b9250929050565b6000806000806040858703121561227057600080fd5b843567ffffffffffffffff8082111561228857600080fd5b6122948883890161220e565b909650945060208701359150808211156122ad57600080fd5b506122ba8782880161220e565b95989497509550505050565b6000806000606084860312156122db57600080fd5b6122e4846121d7565b92506122f2602085016121d7565b9150604084013590509250925092565b6000806040838503121561231557600080fd5b61231e836121d7565b946020939093013593505050565b634e487b7160e01b600052604160045260246000fd5b6000806040838503121561235557600080fd5b61235e836121d7565b9150602083013567ffffffffffffffff8082111561237b57600080fd5b818501915085601f83011261238f57600080fd5b8135818111156123a1576123a161232c565b604051601f8201601f19908116603f011681019083821181831017156123c9576123c961232c565b816040528281528860208487010111156123e257600080fd5b8260208601602083013760006020848301015280955050505050509250929050565b6000806040838503121561241757600080fd5b612420836121d7565b915061242e602084016121d7565b90509250929050565b60005b8381101561245257818101518382015260200161243a565b50506000910152565b602081526000825180602084015261247a816040850160208701612437565b601f01601f19169190910160400192915050565b600080602083850312156124a157600080fd5b823567ffffffffffffffff8111156124b857600080fd5b6124c48582860161220e565b90969095509350505050565b634e487b7160e01b600052603260045260246000fd5b634e487b7160e01b600052601160045260246000fd5b81810381811115612037576120376124e6565b6001600160a01b03958616815293909416602084015260408301919091526060820152608081019190915260a00190565b60208082526033908201527f5061796261636b206672616374696f6e2063616e6e6f7420626520686967686560408201527272207468616e20312028402031302a2a31382960681b606082015260800190565b8082028115828204841417612037576120376124e6565b6000826125c757634e487b7160e01b600052601260045260246000fd5b500490565b80820180821115612037576120376124e6565b6000602082840312156125f157600080fd5b5051919050565b60006020828403121561260a57600080fd5b81518015158114610b4357600080fd5b6000825161262c818460208701612437565b919091019291505056fe6f0b61812a1954a00351239cba469186147c5b10a1b12ed7f226dc5c1aaafa23360894a13ba1a3210667c828492db98dca3e2076cc3735a920a3ca505d382bbca164736f6c6343000817000a",
  "devdoc": {
    "errors": {
      "AddressEmptyCode(address)": [
        {
          "details": "There's no code at `target` (it is not a contract)."
        }
      ],
      "AddressInsufficientBalance(address)": [
        {
          "details": "The ETH balance of the account is not enough to perform the operation."
        }
      ],
      "ERC1967InvalidImplementation(address)": [
        {
          "details": "The `implementation` of the proxy is invalid."
        }
      ],
      "ERC1967NonPayable()": [
        {
          "details": "An upgrade function sees `msg.value > 0` that may be lost."
        }
      ],
      "FailedInnerCall()": [
        {
          "details": "A call to an address target failed. The target may have reverted."
        }
      ],
      "InvalidInitialization()": [
        {
          "details": "The contract is already initialized."
        }
      ],
      "NotInitializing()": [
        {
          "details": "The contract is not initializing."
        }
      ],
      "OwnableInvalidOwner(address)": [
        {
          "details": "The owner is not a valid owner account. (eg. `address(0)`)"
        }
      ],
      "OwnableUnauthorizedAccount(address)": [
        {
          "details": "The caller account is not authorized to perform an operation."
        }
      ],
      "SafeERC20FailedOperation(address)": [
        {
          "details": "An operation with an ERC20 token failed."
        }
      ],
      "UUPSUnauthorizedCallContext()": [
        {
          "details": "The call is from an unauthorized context."
        }
      ],
      "UUPSUnsupportedProxiableUUID(bytes32)": [
        {
          "details": "The storage `slot` is unsupported as a UUID."
        }
      ]
    },
    "events": {
      "Initialized(uint64)": {
        "details": "Triggered when the contract has been initialized or reinitialized."
      },
      "Upgraded(address)": {
        "details": "Emitted when the implementation is upgraded."
      }
    },
    "kind": "dev",
    "methods": {
      "owner()": {
        "details": "Returns the address of the current owner."
      },
      "proxiableUUID()": {
        "details": "Implementation of the ERC1822 {proxiableUUID} function. This returns the storage slot used by the implementation. It is used to validate the implementation's compatibility when performing an upgrade. IMPORTANT: A proxy pointing at a proxiable contract should not be considered proxiable itself, because this risks bricking a proxy that upgrades to it, by delegating to itself until out of gas. Thus it is critical that this function revert if invoked through a proxy. This is guaranteed by the `notDelegated` modifier."
      },
      "renounceOwnership()": {
        "details": "Leaves the contract without owner. It will not be possible to call `onlyOwner` functions. Can only be called by the current owner. NOTE: Renouncing ownership will leave the contract without an owner, thereby disabling any functionality that is only available to the owner."
      },
      "transferOwnership(address)": {
        "details": "Transfers ownership of the contract to a new account (`newOwner`). Can only be called by the current owner."
      },
      "upgradeToAndCall(address,bytes)": {
        "custom:oz-upgrades-unsafe-allow-reachable": "delegatecall",
        "details": "Upgrade the implementation of the proxy to `newImplementation`, and subsequently execute the function call encoded in `data`. Calls {_authorizeUpgrade}. Emits an {Upgraded} event."
      }
    },
    "version": 1
  },
  "userdoc": {
    "kind": "user",
    "methods": {
      "closeDebt(address,address)": {
        "notice": "Triggered when a debt is paid in full."
      },
      "collectFees(address[],address[])": {
        "notice": "Batch collect fees from an array of borrowers/assets."
      },
      "decreaseDebt(address,address,uint256)": {
        "notice": "Triggered when a trenBox is adjusted or closed (and the borrower has paid back/decreased his loan)."
      },
      "handleRedemptionFee(address,uint256)": {
        "notice": "Triggered by TrenBoxManager.finalizeRedemption(); assumes _amount of _asset has been already transferred to getProtocolRevenueDestination()."
      },
      "increaseDebt(address,address,uint256)": {
        "notice": "Triggered when a trenBox is created and again whenever the borrower acquires additional loans. Collects the minimum fee to the platform, for which there is no refund; holds on to the remaining fees until debt is paid, liquidated, or expired. Attention: this method assumes that (debt token) _feeAmount has already been minted and transferred to this contract."
      },
      "liquidateDebt(address,address)": {
        "notice": "Triggered when a trenBox is liquidated; in that case, all remaining fees are collected by the platform, and no refunds are generated."
      },
      "simulateRefund(address,address,uint256)": {
        "notice": "Simulates the refund due -if- trenBox would be closed at this moment (helper function used by the UI)."
      }
    },
    "version": 1
  },
  "storageLayout": {
    "storage": [
      {
        "astId": 9991,
        "contract": "contracts/FeeCollector.sol:FeeCollector",
        "label": "activePool",
        "offset": 0,
        "slot": "0",
        "type": "t_address"
      },
      {
        "astId": 9993,
        "contract": "contracts/FeeCollector.sol:FeeCollector",
        "label": "adminContract",
        "offset": 0,
        "slot": "1",
        "type": "t_address"
      },
      {
        "astId": 9995,
        "contract": "contracts/FeeCollector.sol:FeeCollector",
        "label": "borrowerOperations",
        "offset": 0,
        "slot": "2",
        "type": "t_address"
      },
      {
        "astId": 9997,
        "contract": "contracts/FeeCollector.sol:FeeCollector",
        "label": "collSurplusPool",
        "offset": 0,
        "slot": "3",
        "type": "t_address"
      },
      {
        "astId": 9999,
        "contract": "contracts/FeeCollector.sol:FeeCollector",
        "label": "communityIssuance",
        "offset": 0,
        "slot": "4",
        "type": "t_address"
      },
      {
        "astId": 10001,
        "contract": "contracts/FeeCollector.sol:FeeCollector",
        "label": "debtToken",
        "offset": 0,
        "slot": "5",
        "type": "t_address"
      },
      {
        "astId": 10003,
        "contract": "contracts/FeeCollector.sol:FeeCollector",
        "label": "defaultPool",
        "offset": 0,
        "slot": "6",
        "type": "t_address"
      },
      {
        "astId": 10005,
        "contract": "contracts/FeeCollector.sol:FeeCollector",
        "label": "feeCollector",
        "offset": 0,
        "slot": "7",
        "type": "t_address"
      },
      {
        "astId": 10007,
        "contract": "contracts/FeeCollector.sol:FeeCollector",
        "label": "flashLoanAddress",
        "offset": 0,
        "slot": "8",
        "type": "t_address"
      },
      {
        "astId": 10009,
        "contract": "contracts/FeeCollector.sol:FeeCollector",
        "label": "gasPoolAddress",
        "offset": 0,
        "slot": "9",
        "type": "t_address"
      },
      {
        "astId": 10011,
        "contract": "contracts/FeeCollector.sol:FeeCollector",
        "label": "trenStaking",
        "offset": 0,
        "slot": "10",
        "type": "t_address"
      },
      {
        "astId": 10013,
        "contract": "contracts/FeeCollector.sol:FeeCollector",
        "label": "priceFeed",
        "offset": 0,
        "slot": "11",
        "type": "t_address"
      },
      {
        "astId": 10015,
        "contract": "contracts/FeeCollector.sol:FeeCollector",
        "label": "sortedTrenBoxes",
        "offset": 0,
        "slot": "12",
        "type": "t_address"
      },
      {
        "astId": 10017,
        "contract": "contracts/FeeCollector.sol:FeeCollector",
        "label": "stabilityPool",
        "offset": 0,
        "slot": "13",
        "type": "t_address"
      },
      {
        "astId": 10019,
        "contract": "contracts/FeeCollector.sol:FeeCollector",
        "label": "timelockAddress",
        "offset": 0,
        "slot": "14",
        "type": "t_address"
      },
      {
        "astId": 10021,
        "contract": "contracts/FeeCollector.sol:FeeCollector",
        "label": "treasuryAddress",
        "offset": 0,
        "slot": "15",
        "type": "t_address"
      },
      {
        "astId": 10023,
        "contract": "contracts/FeeCollector.sol:FeeCollector",
        "label": "trenBoxManager",
        "offset": 0,
        "slot": "16",
        "type": "t_address"
      },
      {
        "astId": 10025,
        "contract": "contracts/FeeCollector.sol:FeeCollector",
        "label": "trenBoxManagerOperations",
        "offset": 0,
        "slot": "17",
        "type": "t_address"
      },
      {
        "astId": 10027,
        "contract": "contracts/FeeCollector.sol:FeeCollector",
        "label": "isAddressSetupInitialized",
        "offset": 20,
        "slot": "17",
        "type": "t_bool"
      },
      {
        "astId": 10032,
        "contract": "contracts/FeeCollector.sol:FeeCollector",
        "label": "__gap",
        "offset": 0,
        "slot": "18",
        "type": "t_array(t_uint256)33_storage"
      },
      {
        "astId": 10888,
        "contract": "contracts/FeeCollector.sol:FeeCollector",
        "label": "feeRecords",
        "offset": 0,
        "slot": "51",
        "type": "t_mapping(t_address,t_mapping(t_address,t_struct(FeeRecord)13322_storage))"
      }
    ],
    "types": {
      "t_address": {
        "encoding": "inplace",
        "label": "address",
        "numberOfBytes": "20"
      },
      "t_array(t_uint256)33_storage": {
        "base": "t_uint256",
        "encoding": "inplace",
        "label": "uint256[33]",
        "numberOfBytes": "1056"
      },
      "t_bool": {
        "encoding": "inplace",
        "label": "bool",
        "numberOfBytes": "1"
      },
      "t_mapping(t_address,t_mapping(t_address,t_struct(FeeRecord)13322_storage))": {
        "encoding": "mapping",
        "key": "t_address",
        "label": "mapping(address => mapping(address => struct IFeeCollector.FeeRecord))",
        "numberOfBytes": "32",
        "value": "t_mapping(t_address,t_struct(FeeRecord)13322_storage)"
      },
      "t_mapping(t_address,t_struct(FeeRecord)13322_storage)": {
        "encoding": "mapping",
        "key": "t_address",
        "label": "mapping(address => struct IFeeCollector.FeeRecord)",
        "numberOfBytes": "32",
        "value": "t_struct(FeeRecord)13322_storage"
      },
      "t_struct(FeeRecord)13322_storage": {
        "encoding": "inplace",
        "label": "struct IFeeCollector.FeeRecord",
        "members": [
          {
            "astId": 13317,
            "contract": "contracts/FeeCollector.sol:FeeCollector",
            "label": "from",
            "offset": 0,
            "slot": "0",
            "type": "t_uint256"
          },
          {
            "astId": 13319,
            "contract": "contracts/FeeCollector.sol:FeeCollector",
            "label": "to",
            "offset": 0,
            "slot": "1",
            "type": "t_uint256"
          },
          {
            "astId": 13321,
            "contract": "contracts/FeeCollector.sol:FeeCollector",
            "label": "amount",
            "offset": 0,
            "slot": "2",
            "type": "t_uint256"
          }
        ],
        "numberOfBytes": "96"
      },
      "t_uint256": {
        "encoding": "inplace",
        "label": "uint256",
        "numberOfBytes": "32"
      }
    }
  }
}