{
  "address": "0x50183816a5d467ce98e44f1e637e379fe846edaf",
  "abi": [
    {
      "inputs": [
        {
          "internalType": "address",
          "name": "target",
          "type": "address"
        }
      ],
      "name": "AddressEmptyCode",
      "type": "error"
    },
    {
      "inputs": [
        {
          "internalType": "address",
          "name": "account",
          "type": "address"
        }
      ],
      "name": "AddressInsufficientBalance",
      "type": "error"
    },
    {
      "inputs": [
        {
          "internalType": "address",
          "name": "implementation",
          "type": "address"
        }
      ],
      "name": "ERC1967InvalidImplementation",
      "type": "error"
    },
    {
      "inputs": [],
      "name": "ERC1967NonPayable",
      "type": "error"
    },
    {
      "inputs": [],
      "name": "FailedInnerCall",
      "type": "error"
    },
    {
      "inputs": [],
      "name": "FeeCollector__ArrayMismatch",
      "type": "error"
    },
    {
      "inputs": [
        {
          "internalType": "address",
          "name": "sender",
          "type": "address"
        },
        {
          "internalType": "address",
          "name": "expected",
          "type": "address"
        }
      ],
      "name": "FeeCollector__BorrowerOperationsOnly",
      "type": "error"
    },
    {
      "inputs": [
        {
          "internalType": "address",
          "name": "sender",
          "type": "address"
        },
        {
          "internalType": "address",
          "name": "expected1",
          "type": "address"
        },
        {
          "internalType": "address",
          "name": "expected2",
          "type": "address"
        }
      ],
      "name": "FeeCollector__BorrowerOperationsOrTrenBoxManagerOnly",
      "type": "error"
    },
    {
      "inputs": [],
      "name": "FeeCollector__InvalidTRENStakingAddress",
      "type": "error"
    },
    {
      "inputs": [
        {
          "internalType": "address",
          "name": "sender",
          "type": "address"
        },
        {
          "internalType": "address",
          "name": "expected",
          "type": "address"
        }
      ],
      "name": "FeeCollector__TrenBoxManagerOnly",
      "type": "error"
    },
    {
      "inputs": [],
      "name": "InvalidInitialization",
      "type": "error"
    },
    {
      "inputs": [],
      "name": "NotInitializing",
      "type": "error"
    },
    {
      "inputs": [
        {
          "internalType": "address",
          "name": "owner",
          "type": "address"
        }
      ],
      "name": "OwnableInvalidOwner",
      "type": "error"
    },
    {
      "inputs": [
        {
          "internalType": "address",
          "name": "account",
          "type": "address"
        }
      ],
      "name": "OwnableUnauthorizedAccount",
      "type": "error"
    },
    {
      "inputs": [
        {
          "internalType": "address",
          "name": "token",
          "type": "address"
        }
      ],
      "name": "SafeERC20FailedOperation",
      "type": "error"
    },
    {
      "inputs": [],
      "name": "UUPSUnauthorizedCallContext",
      "type": "error"
    },
    {
      "inputs": [
        {
          "internalType": "bytes32",
          "name": "slot",
          "type": "bytes32"
        }
      ],
      "name": "UUPSUnsupportedProxiableUUID",
      "type": "error"
    },
    {
      "anonymous": false,
      "inputs": [
        {
          "indexed": false,
          "internalType": "address",
          "name": "borrower",
          "type": "address"
        },
        {
          "indexed": false,
          "internalType": "address",
          "name": "asset",
          "type": "address"
        },
        {
          "indexed": false,
          "internalType": "address",
          "name": "collector",
          "type": "address"
        },
        {
          "indexed": false,
          "internalType": "uint256",
          "name": "amount",
          "type": "uint256"
        }
      ],
      "name": "FeeCollected",
      "type": "event"
    },
    {
      "anonymous": false,
      "inputs": [
        {
          "indexed": false,
          "internalType": "address",
          "name": "borrower",
          "type": "address"
        },
        {
          "indexed": false,
          "internalType": "address",
          "name": "asset",
          "type": "address"
        },
        {
          "indexed": false,
          "internalType": "uint256",
          "name": "from",
          "type": "uint256"
        },
        {
          "indexed": false,
          "internalType": "uint256",
          "name": "to",
          "type": "uint256"
        },
        {
          "indexed": false,
          "internalType": "uint256",
          "name": "amount",
          "type": "uint256"
        }
      ],
      "name": "FeeRecordUpdated",
      "type": "event"
    },
    {
      "anonymous": false,
      "inputs": [
        {
          "indexed": false,
          "internalType": "address",
          "name": "borrower",
          "type": "address"
        },
        {
          "indexed": false,
          "internalType": "address",
          "name": "asset",
          "type": "address"
        },
        {
          "indexed": false,
          "internalType": "uint256",
          "name": "amount",
          "type": "uint256"
        }
      ],
      "name": "FeeRefunded",
      "type": "event"
    },
    {
      "anonymous": false,
      "inputs": [
        {
          "indexed": false,
          "internalType": "uint64",
          "name": "version",
          "type": "uint64"
        }
      ],
      "name": "Initialized",
      "type": "event"
    },
    {
      "anonymous": false,
      "inputs": [
        {
          "indexed": true,
          "internalType": "address",
          "name": "previousOwner",
          "type": "address"
        },
        {
          "indexed": true,
          "internalType": "address",
          "name": "newOwner",
          "type": "address"
        }
      ],
      "name": "OwnershipTransferred",
      "type": "event"
    },
    {
      "anonymous": false,
      "inputs": [
        {
          "indexed": false,
          "internalType": "address",
          "name": "asset",
          "type": "address"
        },
        {
          "indexed": false,
          "internalType": "uint256",
          "name": "amount",
          "type": "uint256"
        }
      ],
      "name": "RedemptionFeeCollected",
      "type": "event"
    },
    {
      "anonymous": false,
      "inputs": [
        {
          "indexed": true,
          "internalType": "address",
          "name": "implementation",
          "type": "address"
        }
      ],
      "name": "Upgraded",
      "type": "event"
    },
    {
      "inputs": [],
      "name": "FEE_EXPIRATION_SECONDS",
      "outputs": [
        {
          "internalType": "uint256",
          "name": "",
          "type": "uint256"
        }
      ],
      "stateMutability": "view",
      "type": "function"
    },
    {
      "inputs": [],
      "name": "MIN_FEE_DAYS",
      "outputs": [
        {
          "internalType": "uint256",
          "name": "",
          "type": "uint256"
        }
      ],
      "stateMutability": "view",
      "type": "function"
    },
    {
      "inputs": [],
      "name": "MIN_FEE_FRACTION",
      "outputs": [
        {
          "internalType": "uint256",
          "name": "",
          "type": "uint256"
        }
      ],
      "stateMutability": "view",
      "type": "function"
    },
    {
      "inputs": [],
      "name": "NAME",
      "outputs": [
        {
          "internalType": "string",
          "name": "",
          "type": "string"
        }
      ],
      "stateMutability": "view",
      "type": "function"
    },
    {
      "inputs": [],
      "name": "UPGRADE_INTERFACE_VERSION",
      "outputs": [
        {
          "internalType": "string",
          "name": "",
          "type": "string"
        }
      ],
      "stateMutability": "view",
      "type": "function"
    },
    {
      "inputs": [],
      "name": "activePool",
      "outputs": [
        {
          "internalType": "address",
          "name": "",
          "type": "address"
        }
      ],
      "stateMutability": "view",
      "type": "function"
    },
    {
      "inputs": [],
      "name": "adminContract",
      "outputs": [
        {
          "internalType": "address",
          "name": "",
          "type": "address"
        }
      ],
      "stateMutability": "view",
      "type": "function"
    },
    {
      "inputs": [
        {
          "internalType": "address",
          "name": "newImplementation",
          "type": "address"
        }
      ],
      "name": "authorizeUpgrade",
      "outputs": [],
      "stateMutability": "nonpayable",
      "type": "function"
    },
    {
      "inputs": [],
      "name": "borrowerOperations",
      "outputs": [
        {
          "internalType": "address",
          "name": "",
          "type": "address"
        }
      ],
      "stateMutability": "view",
      "type": "function"
    },
    {
      "inputs": [
        {
          "internalType": "address",
          "name": "_borrower",
          "type": "address"
        },
        {
          "internalType": "address",
          "name": "_asset",
          "type": "address"
        }
      ],
      "name": "closeDebt",
      "outputs": [],
      "stateMutability": "nonpayable",
      "type": "function"
    },
    {
      "inputs": [],
      "name": "collSurplusPool",
      "outputs": [
        {
          "internalType": "address",
          "name": "",
          "type": "address"
        }
      ],
      "stateMutability": "view",
      "type": "function"
    },
    {
      "inputs": [
        {
          "internalType": "address[]",
          "name": "_borrowers",
          "type": "address[]"
        },
        {
          "internalType": "address[]",
          "name": "_assets",
          "type": "address[]"
        }
      ],
      "name": "collectFees",
      "outputs": [],
      "stateMutability": "nonpayable",
      "type": "function"
    },
    {
      "inputs": [],
      "name": "communityIssuance",
      "outputs": [
        {
          "internalType": "address",
          "name": "",
          "type": "address"
        }
      ],
      "stateMutability": "view",
      "type": "function"
    },
    {
      "inputs": [],
      "name": "debtToken",
      "outputs": [
        {
          "internalType": "address",
          "name": "",
          "type": "address"
        }
      ],
      "stateMutability": "view",
      "type": "function"
    },
    {
      "inputs": [
        {
          "internalType": "address",
          "name": "_borrower",
          "type": "address"
        },
        {
          "internalType": "address",
          "name": "_asset",
          "type": "address"
        },
        {
          "internalType": "uint256",
          "name": "_paybackFraction",
          "type": "uint256"
        }
      ],
      "name": "decreaseDebt",
      "outputs": [],
      "stateMutability": "nonpayable",
      "type": "function"
    },
    {
      "inputs": [],
      "name": "defaultPool",
      "outputs": [
        {
          "internalType": "address",
          "name": "",
          "type": "address"
        }
      ],
      "stateMutability": "view",
      "type": "function"
    },
    {
      "inputs": [],
      "name": "feeCollector",
      "outputs": [
        {
          "internalType": "address",
          "name": "",
          "type": "address"
        }
      ],
      "stateMutability": "view",
      "type": "function"
    },
    {
      "inputs": [
        {
          "internalType": "address",
          "name": "",
          "type": "address"
        },
        {
          "internalType": "address",
          "name": "",
          "type": "address"
        }
      ],
      "name": "feeRecords",
      "outputs": [
        {
          "internalType": "uint256",
          "name": "from",
          "type": "uint256"
        },
        {
          "internalType": "uint256",
          "name": "to",
          "type": "uint256"
        },
        {
          "internalType": "uint256",
          "name": "amount",
          "type": "uint256"
        }
      ],
      "stateMutability": "view",
      "type": "function"
    },
    {
      "inputs": [],
      "name": "gasPoolAddress",
      "outputs": [
        {
          "internalType": "address",
          "name": "",
          "type": "address"
        }
      ],
      "stateMutability": "view",
      "type": "function"
    },
    {
      "inputs": [],
      "name": "getProtocolRevenueDestination",
      "outputs": [
        {
          "internalType": "address",
          "name": "",
          "type": "address"
        }
      ],
      "stateMutability": "view",
      "type": "function"
    },
    {
      "inputs": [
        {
          "internalType": "address",
          "name": "_asset",
          "type": "address"
        },
        {
          "internalType": "uint256",
          "name": "_amount",
          "type": "uint256"
        }
      ],
      "name": "handleRedemptionFee",
      "outputs": [],
      "stateMutability": "nonpayable",
      "type": "function"
    },
    {
      "inputs": [
        {
          "internalType": "address",
          "name": "_borrower",
          "type": "address"
        },
        {
          "internalType": "address",
          "name": "_asset",
          "type": "address"
        },
        {
          "internalType": "uint256",
          "name": "_feeAmount",
          "type": "uint256"
        }
      ],
      "name": "increaseDebt",
      "outputs": [],
      "stateMutability": "nonpayable",
      "type": "function"
    },
    {
      "inputs": [],
      "name": "initialize",
      "outputs": [],
      "stateMutability": "nonpayable",
      "type": "function"
    },
    {
      "inputs": [],
      "name": "isAddressSetupInitialized",
      "outputs": [
        {
          "internalType": "bool",
          "name": "",
          "type": "bool"
        }
      ],
      "stateMutability": "view",
      "type": "function"
    },
    {
      "inputs": [
        {
          "internalType": "address",
          "name": "_borrower",
          "type": "address"
        },
        {
          "internalType": "address",
          "name": "_asset",
          "type": "address"
        }
      ],
      "name": "liquidateDebt",
      "outputs": [],
      "stateMutability": "nonpayable",
      "type": "function"
    },
    {
      "inputs": [],
      "name": "owner",
      "outputs": [
        {
          "internalType": "address",
          "name": "",
          "type": "address"
        }
      ],
      "stateMutability": "view",
      "type": "function"
    },
    {
      "inputs": [],
      "name": "priceFeed",
      "outputs": [
        {
          "internalType": "address",
          "name": "",
          "type": "address"
        }
      ],
      "stateMutability": "view",
      "type": "function"
    },
    {
      "inputs": [],
      "name": "proxiableUUID",
      "outputs": [
        {
          "internalType": "bytes32",
          "name": "",
          "type": "bytes32"
        }
      ],
      "stateMutability": "view",
      "type": "function"
    },
    {
      "inputs": [],
      "name": "renounceOwnership",
      "outputs": [],
      "stateMutability": "nonpayable",
      "type": "function"
    },
    {
      "inputs": [],
      "name": "routeToTRENStaking",
      "outputs": [
        {
          "internalType": "bool",
          "name": "",
          "type": "bool"
        }
      ],
      "stateMutability": "view",
      "type": "function"
    },
    {
      "inputs": [
        {
          "internalType": "address[]",
          "name": "_addresses",
          "type": "address[]"
        }
      ],
      "name": "setAddresses",
      "outputs": [],
      "stateMutability": "nonpayable",
      "type": "function"
    },
    {
      "inputs": [
        {
          "internalType": "address",
          "name": "_communityIssuance",
          "type": "address"
        }
      ],
      "name": "setCommunityIssuance",
      "outputs": [],
      "stateMutability": "nonpayable",
      "type": "function"
    },
    {
      "inputs": [
        {
          "internalType": "address",
          "name": "_trenStaking",
          "type": "address"
        }
      ],
      "name": "setTRENStaking",
      "outputs": [],
      "stateMutability": "nonpayable",
      "type": "function"
    },
    {
      "inputs": [
        {
          "internalType": "address",
          "name": "_borrower",
          "type": "address"
        },
        {
          "internalType": "address",
          "name": "_asset",
          "type": "address"
        },
        {
          "internalType": "uint256",
          "name": "_paybackFraction",
          "type": "uint256"
        }
      ],
      "name": "simulateRefund",
      "outputs": [
        {
          "internalType": "uint256",
          "name": "",
          "type": "uint256"
        }
      ],
      "stateMutability": "view",
      "type": "function"
    },
    {
      "inputs": [],
      "name": "sortedTrenBoxes",
      "outputs": [
        {
          "internalType": "address",
          "name": "",
          "type": "address"
        }
      ],
      "stateMutability": "view",
      "type": "function"
    },
    {
      "inputs": [],
      "name": "stabilityPool",
      "outputs": [
        {
          "internalType": "address",
          "name": "",
          "type": "address"
        }
      ],
      "stateMutability": "view",
      "type": "function"
    },
    {
      "inputs": [],
      "name": "timelockAddress",
      "outputs": [
        {
          "internalType": "address",
          "name": "",
          "type": "address"
        }
      ],
      "stateMutability": "view",
      "type": "function"
    },
    {
      "inputs": [
        {
          "internalType": "address",
          "name": "newOwner",
          "type": "address"
        }
      ],
      "name": "transferOwnership",
      "outputs": [],
      "stateMutability": "nonpayable",
      "type": "function"
    },
    {
      "inputs": [],
      "name": "treasuryAddress",
      "outputs": [
        {
          "internalType": "address",
          "name": "",
          "type": "address"
        }
      ],
      "stateMutability": "view",
      "type": "function"
    },
    {
      "inputs": [],
      "name": "trenBoxManager",
      "outputs": [
        {
          "internalType": "address",
          "name": "",
          "type": "address"
        }
      ],
      "stateMutability": "view",
      "type": "function"
    },
    {
      "inputs": [],
      "name": "trenBoxManagerOperations",
      "outputs": [
        {
          "internalType": "address",
          "name": "",
          "type": "address"
        }
      ],
      "stateMutability": "view",
      "type": "function"
    },
    {
      "inputs": [],
      "name": "trenStaking",
      "outputs": [
        {
          "internalType": "address",
          "name": "",
          "type": "address"
        }
      ],
      "stateMutability": "view",
      "type": "function"
    },
    {
      "inputs": [
        {
          "internalType": "address",
          "name": "newImplementation",
          "type": "address"
        },
        {
          "internalType": "bytes",
          "name": "data",
          "type": "bytes"
        }
      ],
      "name": "upgradeToAndCall",
      "outputs": [],
      "stateMutability": "payable",
      "type": "function"
    }
  ],
  "transactionHash": "0x36ecab752a2cc8a4c027b54adc19573af9d5b68dabcf692a65b109c21b94978c",
  "args": [],
  "numDeployments": 1,
  "solcInputHash": "e6971fb87a17deef3641f1719687e39f",
  "bytecode": "0x60a06040523060805234801561001457600080fd5b5060805161260861003e600039600081816116710152818161169a01526117db01526126086000f3fe60806040526004361061025c5760003560e01c80638da5cb5b11610144578063c5f956af116100b6578063ed60f1881161007a578063ed60f18814610780578063f1c05a7e146107a0578063f2fde38b146107c0578063f8d89898146107e0578063fe06073314610800578063fe9d03231461082057600080fd5b8063c5f956af146106e4578063c8564c6214610704578063cc8b21e414610725578063cda775f914610745578063d0224e6c1461076557600080fd5b8063a3f4df7e11610108578063a3f4df7e146105ee578063aa36069d14610633578063ad3cb1cc14610653578063b957172114610684578063c05c5e94146106a4578063c415b95c146106c457600080fd5b80638da5cb5b146104f35780638dfac87a1461053057806395fb16bb1461055557806398768db2146105755780639f802fb81461058c57600080fd5b806355dafa46116101dd578063741bef1a116101a1578063741bef1a146104495780637693ccdb1461046957806377553ad41461047e5780637f7dde4a1461049e5780638129fc1c146104be578063871d8145146104d357600080fd5b806355dafa46146103b65780636a85d67d146103d65780636de24492146103f6578063715018a61461041657806373c9bde01461042b57600080fd5b806341c7a5ee1161022457806341c7a5ee146103205780634a7919571461034e5780634bc66f321461036e5780634f1ef2861461038e57806352d1902d146103a157600080fd5b806301c9310014610261578063048c661d146102835780630833c62d146102c05780630a34d4d6146102e05780633cc7422514610300575b600080fd5b34801561026d57600080fd5b5061028161027c366004612178565b610840565b005b34801561028f57600080fd5b50600c546102a3906001600160a01b031681565b6040516001600160a01b0390911681526020015b60405180910390f35b3480156102cc57600080fd5b506102816102db3660046121df565b61086a565b3480156102ec57600080fd5b506010546102a3906001600160a01b031681565b34801561030c57600080fd5b506006546102a3906001600160a01b031681565b34801561032c57600080fd5b5061034061033b36600461224b565b6109b5565b6040519081526020016102b7565b34801561035a57600080fd5b50610281610369366004612287565b610af8565b34801561037a57600080fd5b50600d546102a3906001600160a01b031681565b61028161039c3660046122c7565b610b7e565b3480156103ad57600080fd5b50610340610b9d565b3480156103c257600080fd5b506009546102a3906001600160a01b031681565b3480156103e257600080fd5b506102816103f1366004612178565b610bba565b34801561040257600080fd5b5061028161041136600461224b565b610be4565b34801561042257600080fd5b50610281610c85565b34801561043757600080fd5b50600e546001600160a01b03166102a3565b34801561045557600080fd5b50600a546102a3906001600160a01b031681565b34801561047557600080fd5b50610340600781565b34801561048a57600080fd5b506002546102a3906001600160a01b031681565b3480156104aa57600080fd5b506000546102a3906001600160a01b031681565b3480156104ca57600080fd5b50610281610c99565b3480156104df57600080fd5b506102816104ee366004612389565b610db2565b3480156104ff57600080fd5b507f9016d09d72d40fdae2fd8ceac6b6234c7706214fd39c1cd1e609a0528c199300546001600160a01b03166102a3565b34801561053c57600080fd5b50610545600081565b60405190151581526020016102b7565b34801561056157600080fd5b506004546102a3906001600160a01b031681565b34801561058157600080fd5b5061034062e6b68081565b34801561059857600080fd5b506105d36105a7366004612389565b603260209081526000928352604080842090915290825290208054600182015460029092015490919083565b604080519384526020840192909252908201526060016102b7565b3480156105fa57600080fd5b506106266040518060400160405280600c81526020016b2332b2a1b7b63632b1ba37b960a11b81525081565b6040516102b791906123e0565b34801561063f57600080fd5b5061028161064e366004612389565b610e28565b34801561065f57600080fd5b50610626604051806040016040528060058152602001640352e302e360dc1b81525081565b34801561069057600080fd5b5061028161069f366004612413565b610ecc565b3480156106b057600080fd5b506001546102a3906001600160a01b031681565b3480156106d057600080fd5b506007546102a3906001600160a01b031681565b3480156106f057600080fd5b50600e546102a3906001600160a01b031681565b34801561071057600080fd5b5060105461054590600160a01b900460ff1681565b34801561073157600080fd5b50600b546102a3906001600160a01b031681565b34801561075157600080fd5b506003546102a3906001600160a01b031681565b34801561077157600080fd5b506103406688a490a601540081565b34801561078c57600080fd5b5061028161079b36600461224b565b611446565b3480156107ac57600080fd5b50600f546102a3906001600160a01b031681565b3480156107cc57600080fd5b506102816107db366004612178565b6114b4565b3480156107ec57600080fd5b506005546102a3906001600160a01b031681565b34801561080c57600080fd5b5061028161081b366004612178565b6114f2565b34801561082c57600080fd5b506008546102a3906001600160a01b031681565b6108486114fb565b600980546001600160a01b0319166001600160a01b0392909216919091179055565b828181141580610878575080155b1561089657604051631a04c91160e01b815260040160405180910390fd5b4260005b828110156109ac5760008787838181106108b6576108b6612455565b90506020020160208101906108cb9190612178565b905060008686848181106108e1576108e1612455565b90506020020160208101906108f69190612178565b6001600160a01b038084166000908152603260209081526040808320938516835292905290812080546001820154600283015494955091936109389290611556565b9050801561099c5760008183600201546109529190612481565b6002840181905587845590506109698585846115da565b6000805160206125bc833981519152858589866001015485604051610992959493929190612494565b60405180910390a1505b50506001909201915061089a9050565b50505050505050565b6000670de0b6b3a76400008211156109e85760405162461bcd60e51b81526004016109df906124c5565b60405180910390fd5b81600003610a385760405162461bcd60e51b815260206004820152601f60248201527f5061796261636b206672616374696f6e2063616e6e6f74206265207a65726f0060448201526064016109df565b6001600160a01b03808516600090815260326020908152604080832093871683529290522060028101541580610a715750428160010154105b15610a80576000915050610af1565b6000610a99826000015483600101548460020154611556565b905083670de0b6b3a764000003610ac357808260020154610aba9190612481565b92505050610af1565b670de0b6b3a764000084828460020154610add9190612481565b610ae79190612518565b610aba919061252f565b9392505050565b600f546001600160a01b03163314610b3857600f54604051636545048760e01b81523360048201526001600160a01b0390911660248201526044016109df565b604080516001600160a01b0384168152602081018390527fcf74743fee8ef45d0f775d63c2e7129e1aec29d2ce0222e2d979104c29210481910160405180910390a15050565b610b86611666565b610b8f8261170b565b610b998282611713565b5050565b6000610ba76117d0565b506000805160206125dc83398151915290565b610bc26114fb565b600480546001600160a01b0319166001600160a01b0392909216919091179055565b6002546001600160a01b03163314610c245760025460405163428f391560e11b81523360048201526001600160a01b0390911660248201526044016109df565b6000670de0b6b3a7640000610c40836688a490a6015400612518565b610c4a919061252f565b90506000610c588284612481565b90506000610c67868684611819565b9050610c7d8686610c788487612551565b6115da565b505050505050565b610c8d6114fb565b610c976000611891565b565b7ff0c57e16840df040f15088dc2f81fe391c3923bec73e23a9662efc9c229c6a008054600160401b810460ff16159067ffffffffffffffff16600081158015610cdf5750825b905060008267ffffffffffffffff166001148015610cfc5750303b155b905081158015610d0a575080155b15610d285760405163f92ee8a960e01b815260040160405180910390fd5b845467ffffffffffffffff191660011785558315610d5257845460ff60401b1916600160401b1785555b33610d5c81611902565b610d64611913565b508315610dab57845460ff60401b19168555604051600181527fc7f505b2f371ae2175ee4913f4499e1f2633a7b5936321eed1cdaeb6115181d29060200160405180910390a15b5050505050565b6002546001600160a01b03163314801590610dd85750600f546001600160a01b03163314155b15610e1557600254600f5460405163bea6c3fd60e01b81523360048201526001600160a01b039283166024820152911660448201526064016109df565b610b998282670de0b6b3a764000061191b565b600f546001600160a01b03163314610e6857600f54604051636545048760e01b81523360048201526001600160a01b0390911660248201526044016109df565b6001600160a01b038083166000908152603260209081526040808320938516835292815290829020825160608101845281548152600182015492810192909252600201549181018290529015610ec757610ec783838360400151611b71565b505050565b610ed46114fb565b601054600160a01b900460ff1615610f2e5760405162461bcd60e51b815260206004820152601c60248201527f536574757020697320616c726561647920696e697469616c697a65640000000060448201526064016109df565b600f8114610f7e5760405162461bcd60e51b815260206004820152601e60248201527f457870656374656420313520616464726573736573206174207365747570000060448201526064016109df565b60005b600f811015611003576000838383818110610f9e57610f9e612455565b9050602002016020810190610fb39190612178565b6001600160a01b031603610ffb5760405162461bcd60e51b815260206004820152600f60248201526e496e76616c6964206164647265737360881b60448201526064016109df565b600101610f81565b508181600081811061101757611017612455565b905060200201602081019061102c9190612178565b600080546001600160a01b0319166001600160a01b03929092169190911790558181600181811061105f5761105f612455565b90506020020160208101906110749190612178565b600180546001600160a01b0319166001600160a01b0392909216919091179055818160028181106110a7576110a7612455565b90506020020160208101906110bc9190612178565b600280546001600160a01b0319166001600160a01b0392909216919091179055818160038181106110ef576110ef612455565b90506020020160208101906111049190612178565b600380546001600160a01b0319166001600160a01b03929092169190911790558181600481811061113757611137612455565b905060200201602081019061114c9190612178565b600580546001600160a01b0319166001600160a01b03929092169190911781558290829081811061117f5761117f612455565b90506020020160208101906111949190612178565b600680546001600160a01b0319166001600160a01b0392909216919091178155829082908181106111c7576111c7612455565b90506020020160208101906111dc9190612178565b600780546001600160a01b0319166001600160a01b03929092169190911781558290829081811061120f5761120f612455565b90506020020160208101906112249190612178565b600880546001600160a01b0319166001600160a01b03929092169190911781558290829081811061125757611257612455565b905060200201602081019061126c9190612178565b600a80546001600160a01b0319166001600160a01b03929092169190911790558181600981811061129f5761129f612455565b90506020020160208101906112b49190612178565b600b80546001600160a01b0319166001600160a01b03929092169190911790558181600a8181106112e7576112e7612455565b90506020020160208101906112fc9190612178565b600c80546001600160a01b0319166001600160a01b03929092169190911790558181600b81811061132f5761132f612455565b90506020020160208101906113449190612178565b600d80546001600160a01b0319166001600160a01b03929092169190911790558181600c81811061137757611377612455565b905060200201602081019061138c9190612178565b600e80546001600160a01b0319166001600160a01b03929092169190911790558181600d8181106113bf576113bf612455565b90506020020160208101906113d49190612178565b600f80546001600160a01b0319166001600160a01b03929092169190911790558181600e81811061140757611407612455565b905060200201602081019061141c9190612178565b601080546001600160a81b0319166001600160a01b039290921691909117600160a01b1790555050565b6002546001600160a01b0316331480159061146c5750600f546001600160a01b03163314155b156114a957600254600f5460405163bea6c3fd60e01b81523360048201526001600160a01b039283166024820152911660448201526064016109df565b610ec783838361191b565b6114bc6114fb565b6001600160a01b0381166114e657604051631e4fbdf760e01b8152600060048201526024016109df565b6114ef81611891565b50565b6114ef8161170b565b3361152d7f9016d09d72d40fdae2fd8ceac6b6234c7706214fd39c1cd1e609a0528c199300546001600160a01b031690565b6001600160a01b031614610c975760405163118cdaa760e01b81523360048201526024016109df565b6000428085111561156b576000915050610af1565b83811061157b5782915050610af1565b633b9aca00600061158c8787612481565b9050600061159a8885612481565b90506000826115a98589612518565b6115b3919061252f565b90506000846115c28385612518565b6115cc919061252f565b9a9950505050505050505050565b8015610ec75760006115f4600e546001600160a01b031690565b60055490915061160e906001600160a01b03168284611be4565b604080516001600160a01b03868116825285811660208301528316818301526060810184905290517f3e7be0af9d546b20a6a2e91e4151659dfcad117daa1df79e78d17c5ad2f45b769181900360800190a150505050565b306001600160a01b037f00000000000000000000000000000000000000000000000000000000000000001614806116ed57507f00000000000000000000000000000000000000000000000000000000000000006001600160a01b03166116e16000805160206125dc833981519152546001600160a01b031690565b6001600160a01b031614155b15610c975760405163703e46dd60e11b815260040160405180910390fd5b6114ef6114fb565b816001600160a01b03166352d1902d6040518163ffffffff1660e01b8152600401602060405180830381865afa92505050801561176d575060408051601f3d908101601f1916820190925261176a91810190612564565b60015b61179557604051634c9c8ce360e01b81526001600160a01b03831660048201526024016109df565b6000805160206125dc83398151915281146117c657604051632a87526960e21b8152600481018290526024016109df565b610ec78383611c36565b306001600160a01b037f00000000000000000000000000000000000000000000000000000000000000001614610c975760405163703e46dd60e11b815260040160405180910390fd5b6001600160a01b03808416600090815260326020908152604080832093861683529290529081206002810154820361185c5761185785858584611c8c565b611889565b4281600101541161187a578060020154915061185785858584611c8c565b61188685858584611d01565b91505b509392505050565b7f9016d09d72d40fdae2fd8ceac6b6234c7706214fd39c1cd1e609a0528c19930080546001600160a01b031981166001600160a01b03848116918217845560405192169182907f8be0079c531659141344cd1fd0a4f28419497f9722a3daafe3b4186f6b6457e090600090a3505050565b61190a611dcc565b6114ef81611e15565b610c97611dcc565b42670de0b6b3a76400008211156119445760405162461bcd60e51b81526004016109df906124c5565b816000036119945760405162461bcd60e51b815260206004820152601f60248201527f5061796261636b206672616374696f6e2063616e6e6f74206265207a65726f0060448201526064016109df565b6001600160a01b038085166000908152603260209081526040808320938716835292905290812060028101549091036119ce575050505050565b818160010154116119ed576119e885858360020154611b71565b610dab565b6000611a06826000015483600101548460020154611556565b9050611a138686836115da565b83670de0b6b3a764000003611acf576000818360020154611a349190612481565b600554604051635cad563b60e11b8152600481018390529192506001600160a01b03169063b95aac7690602401600060405180830381600087803b158015611a7b57600080fd5b505af1158015611a8f573d6000803e3d6000fd5b50506000600286018190556040516000805160206125bc8339815191529350611ac192508a918a918991908190612494565b60405180910390a150610c7d565b6000670de0b6b3a764000085838560020154611aeb9190612481565b611af59190612518565b611aff919061252f565b9050611b0c878783611e1d565b600081838560020154611b1f9190612481565b611b299190612481565b6002850181905585855560018501546040519192506000805160206125bc83398151915291611b5f918b918b918a918790612494565b60405180910390a15050505050505050565b611b7c8383836115da565b6001600160a01b03808416600090815260326020908152604080832093861683529290528181208181556001810182905560020181905590516000805160206125bc83398151915291611bd791869186914291908190612494565b60405180910390a1505050565b604080516001600160a01b038416602482015260448082018490528251808303909101815260649091019091526020810180516001600160e01b031663a9059cbb60e01b179052610ec7908490611e82565b611c3f82611ee5565b6040516001600160a01b038316907fbc7cd75a20ee27fd9adebab32041f755214dbc6bffa90cc0225b39da2e5c2d3b90600090a2805115611c8457610ec78282611f4a565b610b99611fc2565b6000611c9c600762015180612518565b611ca69042612551565b90506000611cb762e6b68083612551565b60028401859055828455600184018190556040519091506000805160206125bc83398151915290611cf19088908890869086908a90612494565b60405180910390a1505050505050565b80546000904290811015611d13575081545b6000611d2c846000015485600101548660020154611556565b90506000818560020154611d409190612481565b90506000838660010154611d549190612481565b90506000611d628884612551565b90506000611d7184848b611fe1565b611d7b9087612551565b60028901839055868955600189018190556040519091506000805160206125bc83398151915290611db5908d908d908a9086908890612494565b60405180910390a150929998505050505050505050565b7ff0c57e16840df040f15088dc2f81fe391c3923bec73e23a9662efc9c229c6a0054600160401b900460ff16610c9757604051631afcd79f60e31b815260040160405180910390fd5b6114bc611dcc565b8015610ec757600554611e3a906001600160a01b03168483611be4565b604080516001600160a01b038086168252841660208201529081018290527f70930c4d7c90caf6befd84368a02f1e5493c254095e7d3c5b5105922befb92e590606001611bd7565b6000611e976001600160a01b0384168361202c565b90508051600014158015611ebc575080806020019051810190611eba919061257d565b155b15610ec757604051635274afe760e01b81526001600160a01b03841660048201526024016109df565b806001600160a01b03163b600003611f1b57604051634c9c8ce360e01b81526001600160a01b03821660048201526024016109df565b6000805160206125dc83398151915280546001600160a01b0319166001600160a01b0392909216919091179055565b6060600080846001600160a01b031684604051611f67919061259f565b600060405180830381855af49150503d8060008114611fa2576040519150601f19603f3d011682016040523d82523d6000602084013e611fa7565b606091505b5091509150611fb785838361203a565b925050505b92915050565b3415610c975760405163b398979f60e01b815260040160405180910390fd5b600080611fee8486612518565b90506000611fff62e6b68085612518565b9050600061200d8588612551565b6120178385612551565b612021919061252f565b979650505050505050565b6060610af183836000612096565b60608261204f5761204a82612133565b610af1565b815115801561206657506001600160a01b0384163b155b1561208f57604051639996b31560e01b81526001600160a01b03851660048201526024016109df565b5080610af1565b6060814710156120bb5760405163cd78605960e01b81523060048201526024016109df565b600080856001600160a01b031684866040516120d7919061259f565b60006040518083038185875af1925050503d8060008114612114576040519150601f19603f3d011682016040523d82523d6000602084013e612119565b606091505b509150915061212986838361203a565b9695505050505050565b8051156121435780518082602001fd5b604051630a12f52160e11b815260040160405180910390fd5b80356001600160a01b038116811461217357600080fd5b919050565b60006020828403121561218a57600080fd5b610af18261215c565b60008083601f8401126121a557600080fd5b50813567ffffffffffffffff8111156121bd57600080fd5b6020830191508360208260051b85010111156121d857600080fd5b9250929050565b600080600080604085870312156121f557600080fd5b843567ffffffffffffffff8082111561220d57600080fd5b61221988838901612193565b9096509450602087013591508082111561223257600080fd5b5061223f87828801612193565b95989497509550505050565b60008060006060848603121561226057600080fd5b6122698461215c565b92506122776020850161215c565b9150604084013590509250925092565b6000806040838503121561229a57600080fd5b6122a38361215c565b946020939093013593505050565b634e487b7160e01b600052604160045260246000fd5b600080604083850312156122da57600080fd5b6122e38361215c565b9150602083013567ffffffffffffffff8082111561230057600080fd5b818501915085601f83011261231457600080fd5b813581811115612326576123266122b1565b604051601f8201601f19908116603f0116810190838211818310171561234e5761234e6122b1565b8160405282815288602084870101111561236757600080fd5b8260208601602083013760006020848301015280955050505050509250929050565b6000806040838503121561239c57600080fd5b6123a58361215c565b91506123b36020840161215c565b90509250929050565b60005b838110156123d75781810151838201526020016123bf565b50506000910152565b60208152600082518060208401526123ff8160408501602087016123bc565b601f01601f19169190910160400192915050565b6000806020838503121561242657600080fd5b823567ffffffffffffffff81111561243d57600080fd5b61244985828601612193565b90969095509350505050565b634e487b7160e01b600052603260045260246000fd5b634e487b7160e01b600052601160045260246000fd5b81810381811115611fbc57611fbc61246b565b6001600160a01b03958616815293909416602084015260408301919091526060820152608081019190915260a00190565b60208082526033908201527f5061796261636b206672616374696f6e2063616e6e6f7420626520686967686560408201527272207468616e20312028402031302a2a31382960681b606082015260800190565b8082028115828204841417611fbc57611fbc61246b565b60008261254c57634e487b7160e01b600052601260045260246000fd5b500490565b80820180821115611fbc57611fbc61246b565b60006020828403121561257657600080fd5b5051919050565b60006020828403121561258f57600080fd5b81518015158114610af157600080fd5b600082516125b18184602087016123bc565b919091019291505056fe6f0b61812a1954a00351239cba469186147c5b10a1b12ed7f226dc5c1aaafa23360894a13ba1a3210667c828492db98dca3e2076cc3735a920a3ca505d382bbca164736f6c6343000817000a",
  "devdoc": {
    "errors": {
      "AddressEmptyCode(address)": [
        {
          "details": "There's no code at `target` (it is not a contract)."
        }
      ],
      "AddressInsufficientBalance(address)": [
        {
          "details": "The ETH balance of the account is not enough to perform the operation."
        }
      ],
      "ERC1967InvalidImplementation(address)": [
        {
          "details": "The `implementation` of the proxy is invalid."
        }
      ],
      "ERC1967NonPayable()": [
        {
          "details": "An upgrade function sees `msg.value > 0` that may be lost."
        }
      ],
      "FailedInnerCall()": [
        {
          "details": "A call to an address target failed. The target may have reverted."
        }
      ],
      "InvalidInitialization()": [
        {
          "details": "The contract is already initialized."
        }
      ],
      "NotInitializing()": [
        {
          "details": "The contract is not initializing."
        }
      ],
      "OwnableInvalidOwner(address)": [
        {
          "details": "The owner is not a valid owner account. (eg. `address(0)`)"
        }
      ],
      "OwnableUnauthorizedAccount(address)": [
        {
          "details": "The caller account is not authorized to perform an operation."
        }
      ],
      "SafeERC20FailedOperation(address)": [
        {
          "details": "An operation with an ERC20 token failed."
        }
      ],
      "UUPSUnauthorizedCallContext()": [
        {
          "details": "The call is from an unauthorized context."
        }
      ],
      "UUPSUnsupportedProxiableUUID(bytes32)": [
        {
          "details": "The storage `slot` is unsupported as a UUID."
        }
      ]
    },
    "events": {
      "Initialized(uint64)": {
        "details": "Triggered when the contract has been initialized or reinitialized."
      },
      "Upgraded(address)": {
        "details": "Emitted when the implementation is upgraded."
      }
    },
    "kind": "dev",
    "methods": {
      "owner()": {
        "details": "Returns the address of the current owner."
      },
      "proxiableUUID()": {
        "details": "Implementation of the ERC1822 {proxiableUUID} function. This returns the storage slot used by the implementation. It is used to validate the implementation's compatibility when performing an upgrade. IMPORTANT: A proxy pointing at a proxiable contract should not be considered proxiable itself, because this risks bricking a proxy that upgrades to it, by delegating to itself until out of gas. Thus it is critical that this function revert if invoked through a proxy. This is guaranteed by the `notDelegated` modifier."
      },
      "renounceOwnership()": {
        "details": "Leaves the contract without owner. It will not be possible to call `onlyOwner` functions. Can only be called by the current owner. NOTE: Renouncing ownership will leave the contract without an owner, thereby disabling any functionality that is only available to the owner."
      },
      "transferOwnership(address)": {
        "details": "Transfers ownership of the contract to a new account (`newOwner`). Can only be called by the current owner."
      },
      "upgradeToAndCall(address,bytes)": {
        "custom:oz-upgrades-unsafe-allow-reachable": "delegatecall",
        "details": "Upgrade the implementation of the proxy to `newImplementation`, and subsequently execute the function call encoded in `data`. Calls {_authorizeUpgrade}. Emits an {Upgraded} event."
      }
    },
    "version": 1
  },
  "userdoc": {
    "kind": "user",
    "methods": {
      "closeDebt(address,address)": {
        "notice": "Triggered when a debt is paid in full."
      },
      "collectFees(address[],address[])": {
        "notice": "Batch collect fees from an array of borrowers/assets."
      },
      "decreaseDebt(address,address,uint256)": {
        "notice": "Triggered when a trenBox is adjusted or closed (and the borrower has paid back/decreased his loan)."
      },
      "handleRedemptionFee(address,uint256)": {
        "notice": "Triggered by TrenBoxManager.finalizeRedemption(); assumes _amount of _asset has been already transferred to getProtocolRevenueDestination()."
      },
      "increaseDebt(address,address,uint256)": {
        "notice": "Triggered when a trenBox is created and again whenever the borrower acquires additional loans. Collects the minimum fee to the platform, for which there is no refund; holds on to the remaining fees until debt is paid, liquidated, or expired. Attention: this method assumes that (debt token) _feeAmount has already been minted and transferred to this contract."
      },
      "liquidateDebt(address,address)": {
        "notice": "Triggered when a trenBox is liquidated; in that case, all remaining fees are collected by the platform, and no refunds are generated."
      },
      "simulateRefund(address,address,uint256)": {
        "notice": "Simulates the refund due -if- trenBox would be closed at this moment (helper function used by the UI)."
      }
    },
    "version": 1
  },
  "storageLayout": {
    "storage": [
      {
        "astId": 9891,
        "contract": "contracts/FeeCollector.sol:FeeCollector",
        "label": "activePool",
        "offset": 0,
        "slot": "0",
        "type": "t_address"
      },
      {
        "astId": 9893,
        "contract": "contracts/FeeCollector.sol:FeeCollector",
        "label": "adminContract",
        "offset": 0,
        "slot": "1",
        "type": "t_address"
      },
      {
        "astId": 9895,
        "contract": "contracts/FeeCollector.sol:FeeCollector",
        "label": "borrowerOperations",
        "offset": 0,
        "slot": "2",
        "type": "t_address"
      },
      {
        "astId": 9897,
        "contract": "contracts/FeeCollector.sol:FeeCollector",
        "label": "collSurplusPool",
        "offset": 0,
        "slot": "3",
        "type": "t_address"
      },
      {
        "astId": 9899,
        "contract": "contracts/FeeCollector.sol:FeeCollector",
        "label": "communityIssuance",
        "offset": 0,
        "slot": "4",
        "type": "t_address"
      },
      {
        "astId": 9901,
        "contract": "contracts/FeeCollector.sol:FeeCollector",
        "label": "debtToken",
        "offset": 0,
        "slot": "5",
        "type": "t_address"
      },
      {
        "astId": 9903,
        "contract": "contracts/FeeCollector.sol:FeeCollector",
        "label": "defaultPool",
        "offset": 0,
        "slot": "6",
        "type": "t_address"
      },
      {
        "astId": 9905,
        "contract": "contracts/FeeCollector.sol:FeeCollector",
        "label": "feeCollector",
        "offset": 0,
        "slot": "7",
        "type": "t_address"
      },
      {
        "astId": 9907,
        "contract": "contracts/FeeCollector.sol:FeeCollector",
        "label": "gasPoolAddress",
        "offset": 0,
        "slot": "8",
        "type": "t_address"
      },
      {
        "astId": 9909,
        "contract": "contracts/FeeCollector.sol:FeeCollector",
        "label": "trenStaking",
        "offset": 0,
        "slot": "9",
        "type": "t_address"
      },
      {
        "astId": 9911,
        "contract": "contracts/FeeCollector.sol:FeeCollector",
        "label": "priceFeed",
        "offset": 0,
        "slot": "10",
        "type": "t_address"
      },
      {
        "astId": 9913,
        "contract": "contracts/FeeCollector.sol:FeeCollector",
        "label": "sortedTrenBoxes",
        "offset": 0,
        "slot": "11",
        "type": "t_address"
      },
      {
        "astId": 9915,
        "contract": "contracts/FeeCollector.sol:FeeCollector",
        "label": "stabilityPool",
        "offset": 0,
        "slot": "12",
        "type": "t_address"
      },
      {
        "astId": 9917,
        "contract": "contracts/FeeCollector.sol:FeeCollector",
        "label": "timelockAddress",
        "offset": 0,
        "slot": "13",
        "type": "t_address"
      },
      {
        "astId": 9919,
        "contract": "contracts/FeeCollector.sol:FeeCollector",
        "label": "treasuryAddress",
        "offset": 0,
        "slot": "14",
        "type": "t_address"
      },
      {
        "astId": 9921,
        "contract": "contracts/FeeCollector.sol:FeeCollector",
        "label": "trenBoxManager",
        "offset": 0,
        "slot": "15",
        "type": "t_address"
      },
      {
        "astId": 9923,
        "contract": "contracts/FeeCollector.sol:FeeCollector",
        "label": "trenBoxManagerOperations",
        "offset": 0,
        "slot": "16",
        "type": "t_address"
      },
      {
        "astId": 9925,
        "contract": "contracts/FeeCollector.sol:FeeCollector",
        "label": "isAddressSetupInitialized",
        "offset": 20,
        "slot": "16",
        "type": "t_bool"
      },
      {
        "astId": 9930,
        "contract": "contracts/FeeCollector.sol:FeeCollector",
        "label": "__gap",
        "offset": 0,
        "slot": "17",
        "type": "t_array(t_uint256)33_storage"
      },
      {
        "astId": 10735,
        "contract": "contracts/FeeCollector.sol:FeeCollector",
        "label": "feeRecords",
        "offset": 0,
        "slot": "50",
        "type": "t_mapping(t_address,t_mapping(t_address,t_struct(FeeRecord)12518_storage))"
      }
    ],
    "types": {
      "t_address": {
        "encoding": "inplace",
        "label": "address",
        "numberOfBytes": "20"
      },
      "t_array(t_uint256)33_storage": {
        "base": "t_uint256",
        "encoding": "inplace",
        "label": "uint256[33]",
        "numberOfBytes": "1056"
      },
      "t_bool": {
        "encoding": "inplace",
        "label": "bool",
        "numberOfBytes": "1"
      },
      "t_mapping(t_address,t_mapping(t_address,t_struct(FeeRecord)12518_storage))": {
        "encoding": "mapping",
        "key": "t_address",
        "label": "mapping(address => mapping(address => struct IFeeCollector.FeeRecord))",
        "numberOfBytes": "32",
        "value": "t_mapping(t_address,t_struct(FeeRecord)12518_storage)"
      },
      "t_mapping(t_address,t_struct(FeeRecord)12518_storage)": {
        "encoding": "mapping",
        "key": "t_address",
        "label": "mapping(address => struct IFeeCollector.FeeRecord)",
        "numberOfBytes": "32",
        "value": "t_struct(FeeRecord)12518_storage"
      },
      "t_struct(FeeRecord)12518_storage": {
        "encoding": "inplace",
        "label": "struct IFeeCollector.FeeRecord",
        "members": [
          {
            "astId": 12513,
            "contract": "contracts/FeeCollector.sol:FeeCollector",
            "label": "from",
            "offset": 0,
            "slot": "0",
            "type": "t_uint256"
          },
          {
            "astId": 12515,
            "contract": "contracts/FeeCollector.sol:FeeCollector",
            "label": "to",
            "offset": 0,
            "slot": "1",
            "type": "t_uint256"
          },
          {
            "astId": 12517,
            "contract": "contracts/FeeCollector.sol:FeeCollector",
            "label": "amount",
            "offset": 0,
            "slot": "2",
            "type": "t_uint256"
          }
        ],
        "numberOfBytes": "96"
      },
      "t_uint256": {
        "encoding": "inplace",
        "label": "uint256",
        "numberOfBytes": "32"
      }
    }
  }
}