{
  "address": "0x31a607AA5bee642177a7b755002729346953f7AC",
  "abi": [
    {
      "inputs": [
        {
          "internalType": "address",
          "name": "target",
          "type": "address"
        }
      ],
      "name": "AddressEmptyCode",
      "type": "error"
    },
    {
      "inputs": [],
      "name": "ConfigurableAddresses__CommunityIssuanceZeroAddress",
      "type": "error"
    },
    {
      "inputs": [],
      "name": "ConfigurableAddresses__LengthMismatch",
      "type": "error"
    },
    {
      "inputs": [],
      "name": "ConfigurableAddresses__SetupIsInitialized",
      "type": "error"
    },
    {
      "inputs": [],
      "name": "ConfigurableAddresses__TRENStakingZeroAddress",
      "type": "error"
    },
    {
      "inputs": [
        {
          "internalType": "uint256",
          "name": "position",
          "type": "uint256"
        },
        {
          "internalType": "address",
          "name": "address_",
          "type": "address"
        }
      ],
      "name": "ConfigurableAddresses__ZeroAddresses",
      "type": "error"
    },
    {
      "inputs": [
        {
          "internalType": "address",
          "name": "implementation",
          "type": "address"
        }
      ],
      "name": "ERC1967InvalidImplementation",
      "type": "error"
    },
    {
      "inputs": [],
      "name": "ERC1967NonPayable",
      "type": "error"
    },
    {
      "inputs": [],
      "name": "FailedInnerCall",
      "type": "error"
    },
    {
      "inputs": [],
      "name": "FlashLoan__AmountBeyondMax",
      "type": "error"
    },
    {
      "inputs": [],
      "name": "FlashLoan__AmountBeyondMin",
      "type": "error"
    },
    {
      "inputs": [],
      "name": "FlashLoan__CollateralIsNotActive",
      "type": "error"
    },
    {
      "inputs": [],
      "name": "FlashLoan__LoanIsNotRepayable",
      "type": "error"
    },
    {
      "inputs": [],
      "name": "FlashLoan__SetupIsInitialized",
      "type": "error"
    },
    {
      "inputs": [],
      "name": "FlashLoan__ZeroAddresses",
      "type": "error"
    },
    {
      "inputs": [],
      "name": "InvalidInitialization",
      "type": "error"
    },
    {
      "inputs": [],
      "name": "NotInitializing",
      "type": "error"
    },
    {
      "inputs": [
        {
          "internalType": "address",
          "name": "owner",
          "type": "address"
        }
      ],
      "name": "OwnableInvalidOwner",
      "type": "error"
    },
    {
      "inputs": [
        {
          "internalType": "address",
          "name": "account",
          "type": "address"
        }
      ],
      "name": "OwnableUnauthorizedAccount",
      "type": "error"
    },
    {
      "inputs": [],
      "name": "ReentrancyGuardReentrantCall",
      "type": "error"
    },
    {
      "inputs": [],
      "name": "UUPSUnauthorizedCallContext",
      "type": "error"
    },
    {
      "inputs": [
        {
          "internalType": "bytes32",
          "name": "slot",
          "type": "bytes32"
        }
      ],
      "name": "UUPSUnsupportedProxiableUUID",
      "type": "error"
    },
    {
      "anonymous": false,
      "inputs": [
        {
          "indexed": false,
          "internalType": "address",
          "name": "_stableCoin",
          "type": "address"
        },
        {
          "indexed": false,
          "internalType": "address",
          "name": "_swapRouter",
          "type": "address"
        }
      ],
      "name": "AddressesSet",
      "type": "event"
    },
    {
      "anonymous": false,
      "inputs": [
        {
          "indexed": true,
          "internalType": "address",
          "name": "_borrower",
          "type": "address"
        },
        {
          "indexed": true,
          "internalType": "uint256",
          "name": "_debtAmount",
          "type": "uint256"
        },
        {
          "indexed": false,
          "internalType": "uint256",
          "name": "_feeAmount",
          "type": "uint256"
        }
      ],
      "name": "FlashLoanExecuted",
      "type": "event"
    },
    {
      "anonymous": false,
      "inputs": [
        {
          "indexed": false,
          "internalType": "uint64",
          "name": "version",
          "type": "uint64"
        }
      ],
      "name": "Initialized",
      "type": "event"
    },
    {
      "anonymous": false,
      "inputs": [
        {
          "indexed": true,
          "internalType": "address",
          "name": "previousOwner",
          "type": "address"
        },
        {
          "indexed": true,
          "internalType": "address",
          "name": "newOwner",
          "type": "address"
        }
      ],
      "name": "OwnershipTransferred",
      "type": "event"
    },
    {
      "anonymous": false,
      "inputs": [
        {
          "indexed": true,
          "internalType": "address",
          "name": "implementation",
          "type": "address"
        }
      ],
      "name": "Upgraded",
      "type": "event"
    },
    {
      "inputs": [],
      "name": "FEE_DENOMINATOR",
      "outputs": [
        {
          "internalType": "uint256",
          "name": "",
          "type": "uint256"
        }
      ],
      "stateMutability": "view",
      "type": "function"
    },
    {
      "inputs": [],
      "name": "NAME",
      "outputs": [
        {
          "internalType": "string",
          "name": "",
          "type": "string"
        }
      ],
      "stateMutability": "view",
      "type": "function"
    },
    {
      "inputs": [],
      "name": "UPGRADE_INTERFACE_VERSION",
      "outputs": [
        {
          "internalType": "string",
          "name": "",
          "type": "string"
        }
      ],
      "stateMutability": "view",
      "type": "function"
    },
    {
      "inputs": [],
      "name": "activePool",
      "outputs": [
        {
          "internalType": "address",
          "name": "",
          "type": "address"
        }
      ],
      "stateMutability": "view",
      "type": "function"
    },
    {
      "inputs": [],
      "name": "adminContract",
      "outputs": [
        {
          "internalType": "address",
          "name": "",
          "type": "address"
        }
      ],
      "stateMutability": "view",
      "type": "function"
    },
    {
      "inputs": [
        {
          "internalType": "address",
          "name": "newImplementation",
          "type": "address"
        }
      ],
      "name": "authorizeUpgrade",
      "outputs": [],
      "stateMutability": "nonpayable",
      "type": "function"
    },
    {
      "inputs": [],
      "name": "borrowerOperations",
      "outputs": [
        {
          "internalType": "address",
          "name": "",
          "type": "address"
        }
      ],
      "stateMutability": "view",
      "type": "function"
    },
    {
      "inputs": [],
      "name": "collSurplusPool",
      "outputs": [
        {
          "internalType": "address",
          "name": "",
          "type": "address"
        }
      ],
      "stateMutability": "view",
      "type": "function"
    },
    {
      "inputs": [],
      "name": "communityIssuance",
      "outputs": [
        {
          "internalType": "address",
          "name": "",
          "type": "address"
        }
      ],
      "stateMutability": "view",
      "type": "function"
    },
    {
      "inputs": [],
      "name": "debtToken",
      "outputs": [
        {
          "internalType": "address",
          "name": "",
          "type": "address"
        }
      ],
      "stateMutability": "view",
      "type": "function"
    },
    {
      "inputs": [],
      "name": "defaultPool",
      "outputs": [
        {
          "internalType": "address",
          "name": "",
          "type": "address"
        }
      ],
      "stateMutability": "view",
      "type": "function"
    },
    {
      "inputs": [],
      "name": "feeCollector",
      "outputs": [
        {
          "internalType": "address",
          "name": "",
          "type": "address"
        }
      ],
      "stateMutability": "view",
      "type": "function"
    },
    {
      "inputs": [
        {
          "internalType": "uint256",
          "name": "_amount",
          "type": "uint256"
        }
      ],
      "name": "flashLoan",
      "outputs": [],
      "stateMutability": "nonpayable",
      "type": "function"
    },
    {
      "inputs": [],
      "name": "flashLoanAddress",
      "outputs": [
        {
          "internalType": "address",
          "name": "",
          "type": "address"
        }
      ],
      "stateMutability": "view",
      "type": "function"
    },
    {
      "inputs": [
        {
          "internalType": "address",
          "name": "_asset",
          "type": "address"
        }
      ],
      "name": "flashLoanForRepay",
      "outputs": [],
      "stateMutability": "nonpayable",
      "type": "function"
    },
    {
      "inputs": [],
      "name": "gasPoolAddress",
      "outputs": [
        {
          "internalType": "address",
          "name": "",
          "type": "address"
        }
      ],
      "stateMutability": "view",
      "type": "function"
    },
    {
      "inputs": [],
      "name": "getFlashLoanRate",
      "outputs": [
        {
          "internalType": "uint256",
          "name": "",
          "type": "uint256"
        }
      ],
      "stateMutability": "view",
      "type": "function"
    },
    {
      "inputs": [],
      "name": "initialize",
      "outputs": [],
      "stateMutability": "nonpayable",
      "type": "function"
    },
    {
      "inputs": [],
      "name": "isAddressSetupInitialized",
      "outputs": [
        {
          "internalType": "bool",
          "name": "",
          "type": "bool"
        }
      ],
      "stateMutability": "view",
      "type": "function"
    },
    {
      "inputs": [],
      "name": "isSetupInitialized",
      "outputs": [
        {
          "internalType": "bool",
          "name": "",
          "type": "bool"
        }
      ],
      "stateMutability": "view",
      "type": "function"
    },
    {
      "inputs": [],
      "name": "owner",
      "outputs": [
        {
          "internalType": "address",
          "name": "",
          "type": "address"
        }
      ],
      "stateMutability": "view",
      "type": "function"
    },
    {
      "inputs": [],
      "name": "priceFeed",
      "outputs": [
        {
          "internalType": "address",
          "name": "",
          "type": "address"
        }
      ],
      "stateMutability": "view",
      "type": "function"
    },
    {
      "inputs": [],
      "name": "proxiableUUID",
      "outputs": [
        {
          "internalType": "bytes32",
          "name": "",
          "type": "bytes32"
        }
      ],
      "stateMutability": "view",
      "type": "function"
    },
    {
      "inputs": [],
      "name": "renounceOwnership",
      "outputs": [],
      "stateMutability": "nonpayable",
      "type": "function"
    },
    {
      "inputs": [
        {
          "internalType": "address[]",
          "name": "_addresses",
          "type": "address[]"
        }
      ],
      "name": "setAddresses",
      "outputs": [],
      "stateMutability": "nonpayable",
      "type": "function"
    },
    {
      "inputs": [
        {
          "internalType": "address",
          "name": "_communityIssuance",
          "type": "address"
        }
      ],
      "name": "setCommunityIssuance",
      "outputs": [],
      "stateMutability": "nonpayable",
      "type": "function"
    },
    {
      "inputs": [
        {
          "internalType": "address",
          "name": "_stableCoin",
          "type": "address"
        },
        {
          "internalType": "address",
          "name": "_swapRouter",
          "type": "address"
        }
      ],
      "name": "setInternalAddresses",
      "outputs": [],
      "stateMutability": "nonpayable",
      "type": "function"
    },
    {
      "inputs": [
        {
          "internalType": "address",
          "name": "_trenStaking",
          "type": "address"
        }
      ],
      "name": "setTRENStaking",
      "outputs": [],
      "stateMutability": "nonpayable",
      "type": "function"
    },
    {
      "inputs": [],
      "name": "sortedTrenBoxes",
      "outputs": [
        {
          "internalType": "address",
          "name": "",
          "type": "address"
        }
      ],
      "stateMutability": "view",
      "type": "function"
    },
    {
      "inputs": [],
      "name": "stabilityPool",
      "outputs": [
        {
          "internalType": "address",
          "name": "",
          "type": "address"
        }
      ],
      "stateMutability": "view",
      "type": "function"
    },
    {
      "inputs": [],
      "name": "stableCoin",
      "outputs": [
        {
          "internalType": "address",
          "name": "",
          "type": "address"
        }
      ],
      "stateMutability": "view",
      "type": "function"
    },
    {
      "inputs": [],
      "name": "swapRouter",
      "outputs": [
        {
          "internalType": "contract IUniswapRouterV3",
          "name": "",
          "type": "address"
        }
      ],
      "stateMutability": "view",
      "type": "function"
    },
    {
      "inputs": [],
      "name": "timelockAddress",
      "outputs": [
        {
          "internalType": "address",
          "name": "",
          "type": "address"
        }
      ],
      "stateMutability": "view",
      "type": "function"
    },
    {
      "inputs": [
        {
          "internalType": "address",
          "name": "newOwner",
          "type": "address"
        }
      ],
      "name": "transferOwnership",
      "outputs": [],
      "stateMutability": "nonpayable",
      "type": "function"
    },
    {
      "inputs": [],
      "name": "treasuryAddress",
      "outputs": [
        {
          "internalType": "address",
          "name": "",
          "type": "address"
        }
      ],
      "stateMutability": "view",
      "type": "function"
    },
    {
      "inputs": [],
      "name": "trenBoxManager",
      "outputs": [
        {
          "internalType": "address",
          "name": "",
          "type": "address"
        }
      ],
      "stateMutability": "view",
      "type": "function"
    },
    {
      "inputs": [],
      "name": "trenBoxManagerOperations",
      "outputs": [
        {
          "internalType": "address",
          "name": "",
          "type": "address"
        }
      ],
      "stateMutability": "view",
      "type": "function"
    },
    {
      "inputs": [],
      "name": "trenStaking",
      "outputs": [
        {
          "internalType": "address",
          "name": "",
          "type": "address"
        }
      ],
      "stateMutability": "view",
      "type": "function"
    },
    {
      "inputs": [
        {
          "internalType": "address",
          "name": "newImplementation",
          "type": "address"
        },
        {
          "internalType": "bytes",
          "name": "data",
          "type": "bytes"
        }
      ],
      "name": "upgradeToAndCall",
      "outputs": [],
      "stateMutability": "payable",
      "type": "function"
    }
  ],
  "transactionHash": "0x62d516514dcbc155fdd3aa0288ddfdfa87e8aa4a43cf0bac9d0f6189935f9335",
  "args": [],
  "numDeployments": 1,
  "solcInputHash": "95c5aca5a7d37a227eda09db9261aa6b",
  "bytecode": "0x60a06040523060805234801561001457600080fd5b5060805161267c61003e6000396000818161191c015281816119450152611a8b015261267c6000f3fe6080604052600436106102305760003560e01c8063992642e51161012e578063c5f956af116100ab578063f1c05a7e1161006f578063f1c05a7e146106c1578063f2fde38b146106e1578063f8d8989814610701578063fe06073314610721578063fe9d03231461074157600080fd5b8063c5f956af1461062a578063c8564c621461064a578063cc8b21e41461066b578063cda775f91461068b578063d73792a9146106ab57600080fd5b8063ad3cb1cc116100f2578063ad3cb1cc14610579578063b9571721146105aa578063c05c5e94146105ca578063c31c9c07146105ea578063c415b95c1461060a57600080fd5b8063992642e5146104a65780639ab603b9146104c6578063a142f35a146104e6578063a2e61b7b14610517578063a3f4df7e1461053757600080fd5b806358fd44a5116101bc5780637f7dde4a116101805780637f7dde4a146103ff5780638129fc1c1461041f5780638da5cb5b1461043457806390681ad31461047157806395fb16bb1461048657600080fd5b806358fd44a51461036a5780636a85d67d1461038a578063715018a6146103aa578063741bef1a146103bf57806377553ad4146103df57600080fd5b80634169467d116102035780634169467d146102d45780634bc66f32146102f45780634f1ef2861461031457806352d1902d1461032757806355dafa461461034a57600080fd5b806301c9310014610235578063048c661d146102575780630a34d4d6146102945780633cc74225146102b4575b600080fd5b34801561024157600080fd5b506102556102503660046122d7565b610761565b005b34801561026357600080fd5b50600d54610277906001600160a01b031681565b6040516001600160a01b0390911681526020015b60405180910390f35b3480156102a057600080fd5b50601154610277906001600160a01b031681565b3480156102c057600080fd5b50600654610277906001600160a01b031681565b3480156102e057600080fd5b50600854610277906001600160a01b031681565b34801561030057600080fd5b50600e54610277906001600160a01b031681565b61025561032236600461230a565b6107b2565b34801561033357600080fd5b5061033c6107d1565b60405190815260200161028b565b34801561035657600080fd5b50600a54610277906001600160a01b031681565b34801561037657600080fd5b506102556103853660046123ce565b6107ee565b34801561039657600080fd5b506102556103a53660046122d7565b6108d9565b3480156103b657600080fd5b5061025561092a565b3480156103cb57600080fd5b50600b54610277906001600160a01b031681565b3480156103eb57600080fd5b50600254610277906001600160a01b031681565b34801561040b57600080fd5b50600054610277906001600160a01b031681565b34801561042b57600080fd5b5061025561093e565b34801561044057600080fd5b507f9016d09d72d40fdae2fd8ceac6b6234c7706214fd39c1cd1e609a0528c199300546001600160a01b0316610277565b34801561047d57600080fd5b5061033c610a57565b34801561049257600080fd5b50600454610277906001600160a01b031681565b3480156104b257600080fd5b50603454610277906001600160a01b031681565b3480156104d257600080fd5b506102556104e1366004612407565b610aca565b3480156104f257600080fd5b5060345461050790600160a01b900460ff1681565b604051901515815260200161028b565b34801561052357600080fd5b506102556105323660046122d7565b610e5c565b34801561054357600080fd5b5061056c60405180604001604052806009815260200168233630b9b42637b0b760b91b81525081565b60405161028b9190612470565b34801561058557600080fd5b5061056c604051806040016040528060058152602001640352e302e360dc1b81525081565b3480156105b657600080fd5b506102556105c5366004612483565b6112f1565b3480156105d657600080fd5b50600154610277906001600160a01b031681565b3480156105f657600080fd5b50603354610277906001600160a01b031681565b34801561061657600080fd5b50600754610277906001600160a01b031681565b34801561063657600080fd5b50600f54610277906001600160a01b031681565b34801561065657600080fd5b5060115461050790600160a01b900460ff1681565b34801561067757600080fd5b50600c54610277906001600160a01b031681565b34801561069757600080fd5b50600354610277906001600160a01b031681565b3480156106b757600080fd5b5061033c6103e881565b3480156106cd57600080fd5b50601054610277906001600160a01b031681565b3480156106ed57600080fd5b506102556106fc3660046122d7565b611872565b34801561070d57600080fd5b50600554610277906001600160a01b031681565b34801561072d57600080fd5b5061025561073c3660046122d7565b6118ad565b34801561074d57600080fd5b50600954610277906001600160a01b031681565b6107696118b6565b6001600160a01b038116610790576040516385d3330760e01b815260040160405180910390fd5b600a80546001600160a01b0319166001600160a01b0392909216919091179055565b6107ba611911565b6107c3826119b6565b6107cd82826119be565b5050565b60006107db611a80565b5060008051602061265083398151915290565b6107f66118b6565b603454600160a01b900460ff16156108215760405163afe60fe960e01b815260040160405180910390fd5b6001600160a01b038216158061083e57506001600160a01b038116155b1561085c5760405163cc8d850960e01b815260040160405180910390fd5b60348054603380546001600160a01b038581166001600160a01b031990921682179092556001600160a81b0319909216908516908117600160a01b179092556040805192835260208301919091527fc85d03f020ecd6e7e68d949922d7bfbf9b0ac67d6e9d24792773b8df88a89dea910160405180910390a15050565b6108e16118b6565b6001600160a01b0381166109085760405163706ebc6560e11b815260040160405180910390fd5b600480546001600160a01b0319166001600160a01b0392909216919091179055565b6109326118b6565b61093c6000611ac9565b565b7ff0c57e16840df040f15088dc2f81fe391c3923bec73e23a9662efc9c229c6a008054600160401b810460ff16159067ffffffffffffffff166000811580156109845750825b905060008267ffffffffffffffff1660011480156109a15750303b155b9050811580156109af575080155b156109cd5760405163f92ee8a960e01b815260040160405180910390fd5b845467ffffffffffffffff1916600117855583156109f757845460ff60401b1916600160401b1785555b33610a0181611b3a565b610a09611b4b565b508315610a5057845460ff60401b19168555604051600181527fc7f505b2f371ae2175ee4913f4499e1f2633a7b5936321eed1cdaeb6115181d29060200160405180910390a15b5050505050565b60015460408051637ec8615f60e11b815290516000926001600160a01b03169163fd90c2be9160048083019260209291908290030181865afa158015610aa1573d6000803e3d6000fd5b505050506040513d601f19601f82011682018060405250810190610ac591906124f8565b905090565b610ad2611b53565b60015460408051632416b72d60e01b8152905183926001600160a01b031691632416b72d9160048083019260209291908290030181865afa158015610b1b573d6000803e3d6000fd5b505050506040513d601f19601f82011682018060405250810190610b3f91906124f8565b1115610b5e57604051637e77404960e01b815260040160405180910390fd5b60015460408051630f8624d760e21b8152905183926001600160a01b031691633e18935c9160048083019260209291908290030181865afa158015610ba7573d6000803e3d6000fd5b505050506040513d601f19601f82011682018060405250810190610bcb91906124f8565b1015610bea5760405163ee7328bf60e01b815260040160405180910390fd5b610bf381611b9d565b6005546040516370a0823160e01b81523060048201526000916001600160a01b0316906370a0823190602401602060405180830381865afa158015610c3c573d6000803e3d6000fd5b505050506040513d601f19601f82011682018060405250810190610c6091906124f8565b90506000610c6d83611bf8565b60055460405163a9059cbb60e01b8152336004820152602481018690529192506001600160a01b03169063a9059cbb906044016020604051808303816000875af1158015610cbf573d6000803e3d6000fd5b505050506040513d601f19601f82011682018060405250810190610ce39190612511565b50600554604051636b4a653b60e11b815260048101859052602481018390526001600160a01b039091166044820152339063d694ca7690606401600060405180830381600087803b158015610d3757600080fd5b505af1158015610d4b573d6000803e3d6000fd5b505050508082610d5b9190612549565b6005546040516370a0823160e01b81523060048201526001600160a01b03909116906370a0823190602401602060405180830381865afa158015610da3573d6000803e3d6000fd5b505050506040513d601f19601f82011682018060405250810190610dc791906124f8565b1015610de657604051639d29765b60e01b815260040160405180910390fd5b610def83611c92565b610df7611cc3565b604051818152839033907f61268d74931c41c9775dffb6169a5208aab1d09cb2eb6aabe8b97162801e5dfa9060200160405180910390a35050610e5960017f9b779b17422d0df92223018b32b4d1fa46e071723d6817e2486d003becc55f0055565b50565b610e64611b53565b6001546040516317ae1fc560e01b81526001600160a01b038381166004830152909116906317ae1fc590602401602060405180830381865afa158015610eae573d6000803e3d6000fd5b505050506040513d601f19601f82011682018060405250810190610ed29190612511565b610eef5760405163f4cdefa560e01b815260040160405180910390fd5b60105460405163f9a3d41f60e01b81526001600160a01b038381166004830152336024830152600092169063f9a3d41f90604401602060405180830381865afa158015610f40573d6000803e3d6000fd5b505050506040513d601f19601f82011682018060405250810190610f6491906124f8565b60015460405163c08261db60e01b81526001600160a01b0385811660048301529293506000929091169063c08261db90602401602060405180830381865afa158015610fb4573d6000803e3d6000fd5b505050506040513d601f19601f82011682018060405250810190610fd891906124f8565b6007546040516320e3d2f760e11b81523360048201526001600160a01b038681166024830152670de0b6b3a76400006044830152929350600092909116906341c7a5ee906064016020604051808303816000875af115801561103e573d6000803e3d6000fd5b505050506040513d601f19601f8201168201806040525081019061106291906124f8565b9050600081611071848661255c565b61107b919061255c565b905061108681611b9d565b60055460405163a9059cbb60e01b8152336004820152602481018390526001600160a01b039091169063a9059cbb906044016020604051808303816000875af11580156110d7573d6000803e3d6000fd5b505050506040513d601f19601f820116820180604052508101906110fb9190612511565b50600061110782611bf8565b6002546040516360a7054560e11b81526001600160a01b03898116600483015292935091169063c14e0a8a90602401600060405180830381600087803b15801561115057600080fd5b505af1158015611164573d6000803e3d6000fd5b50506040516370a0823160e01b8152306004820152600092506001600160a01b03891691506370a0823190602401602060405180830381865afa1580156111af573d6000803e3d6000fd5b505050506040513d601f19601f820116820180604052508101906111d391906124f8565b905060006111e18385612549565b90506111ee888383611e1c565b6005546040516370a0823160e01b815230600482015282916001600160a01b0316906370a0823190602401602060405180830381865afa158015611236573d6000803e3d6000fd5b505050506040513d601f19601f8201168201806040525081019061125a91906124f8565b101561127957604051639d29765b60e01b815260040160405180910390fd5b61128284611c92565b61128a611cc3565b604051838152849033907f61268d74931c41c9775dffb6169a5208aab1d09cb2eb6aabe8b97162801e5dfa9060200160405180910390a350505050505050610e5960017f9b779b17422d0df92223018b32b4d1fa46e071723d6817e2486d003becc55f0055565b6112f96118b6565b601154600160a01b900460ff161561132357604051625f22e960e41b815260040160405180910390fd5b6010811461134457604051633f5a111d60e21b815260040160405180910390fd5b60005b60108110156113e75760008383838181106113645761136461256f565b905060200201602081019061137991906122d7565b6001600160a01b0316036113df578083838381811061139a5761139a61256f565b90506020020160208101906113af91906122d7565b604051630d9d339f60e01b815260048101929092526001600160a01b031660248201526044015b60405180910390fd5b600101611347565b50818160008181106113fb576113fb61256f565b905060200201602081019061141091906122d7565b600080546001600160a01b0319166001600160a01b0392909216919091179055818160018181106114435761144361256f565b905060200201602081019061145891906122d7565b600180546001600160a01b0319166001600160a01b03929092169190911790558181600281811061148b5761148b61256f565b90506020020160208101906114a091906122d7565b600280546001600160a01b0319166001600160a01b0392909216919091179055818160038181106114d3576114d361256f565b90506020020160208101906114e891906122d7565b600380546001600160a01b0319166001600160a01b03929092169190911790558181600481811061151b5761151b61256f565b905060200201602081019061153091906122d7565b600580546001600160a01b0319166001600160a01b0392909216919091178155829082908181106115635761156361256f565b905060200201602081019061157891906122d7565b600680546001600160a01b0319166001600160a01b0392909216919091178155829082908181106115ab576115ab61256f565b90506020020160208101906115c091906122d7565b600780546001600160a01b0319166001600160a01b0392909216919091178155829082908181106115f3576115f361256f565b905060200201602081019061160891906122d7565b600880546001600160a01b0319166001600160a01b03929092169190911781558290829081811061163b5761163b61256f565b905060200201602081019061165091906122d7565b600980546001600160a01b0319166001600160a01b0392909216919091178155829082908181106116835761168361256f565b905060200201602081019061169891906122d7565b600b80546001600160a01b0319166001600160a01b03929092169190911790558181600a8181106116cb576116cb61256f565b90506020020160208101906116e091906122d7565b600c80546001600160a01b0319166001600160a01b03929092169190911790558181600b8181106117135761171361256f565b905060200201602081019061172891906122d7565b600d80546001600160a01b0319166001600160a01b03929092169190911790558181600c81811061175b5761175b61256f565b905060200201602081019061177091906122d7565b600e80546001600160a01b0319166001600160a01b03929092169190911790558181600d8181106117a3576117a361256f565b90506020020160208101906117b891906122d7565b600f80546001600160a01b0319166001600160a01b03929092169190911790558181600e8181106117eb576117eb61256f565b905060200201602081019061180091906122d7565b601080546001600160a01b0319166001600160a01b03929092169190911790558181600f8181106118335761183361256f565b905060200201602081019061184891906122d7565b601180546001600160a81b0319166001600160a01b039290921691909117600160a01b1790555050565b61187a6118b6565b6001600160a01b0381166118a457604051631e4fbdf760e01b8152600060048201526024016113d6565b610e5981611ac9565b610e59816119b6565b336118e87f9016d09d72d40fdae2fd8ceac6b6234c7706214fd39c1cd1e609a0528c199300546001600160a01b031690565b6001600160a01b03161461093c5760405163118cdaa760e01b81523360048201526024016113d6565b306001600160a01b037f000000000000000000000000000000000000000000000000000000000000000016148061199857507f00000000000000000000000000000000000000000000000000000000000000006001600160a01b031661198c600080516020612650833981519152546001600160a01b031690565b6001600160a01b031614155b1561093c5760405163703e46dd60e11b815260040160405180910390fd5b610e596118b6565b816001600160a01b03166352d1902d6040518163ffffffff1660e01b8152600401602060405180830381865afa925050508015611a18575060408051601f3d908101601f19168201909252611a15918101906124f8565b60015b611a4057604051634c9c8ce360e01b81526001600160a01b03831660048201526024016113d6565b6000805160206126508339815191528114611a7157604051632a87526960e21b8152600481018290526024016113d6565b611a7b838361209a565b505050565b306001600160a01b037f0000000000000000000000000000000000000000000000000000000000000000161461093c5760405163703e46dd60e11b815260040160405180910390fd5b7f9016d09d72d40fdae2fd8ceac6b6234c7706214fd39c1cd1e609a0528c19930080546001600160a01b031981166001600160a01b03848116918217845560405192169182907f8be0079c531659141344cd1fd0a4f28419497f9722a3daafe3b4186f6b6457e090600090a3505050565b611b426120f0565b610e5981612139565b61093c6120f0565b7f9b779b17422d0df92223018b32b4d1fa46e071723d6817e2486d003becc55f00805460011901611b9757604051633ee5aeb560e01b815260040160405180910390fd5b60029055565b600554604051637bfa6ced60e11b8152600481018390526001600160a01b039091169063f7f4d9da906024015b600060405180830381600087803b158015611be457600080fd5b505af1158015610a50573d6000803e3d6000fd5b600080600160009054906101000a90046001600160a01b03166001600160a01b031663fd90c2be6040518163ffffffff1660e01b8152600401602060405180830381865afa158015611c4e573d6000803e3d6000fd5b505050506040513d601f19601f82011682018060405250810190611c7291906124f8565b90506103e8611c818285612585565b611c8b919061259c565b9392505050565b600554604051635cad563b60e11b8152600481018390526001600160a01b039091169063b95aac7690602401611bca565b6007546040805163039e4def60e51b815290516000926001600160a01b0316916373c9bde09160048083019260209291908290030181865afa158015611d0d573d6000803e3d6000fd5b505050506040513d601f19601f82011682018060405250810190611d3191906125be565b6005546040516370a0823160e01b81523060048201529192506000916001600160a01b03909116906370a0823190602401602060405180830381865afa158015611d7f573d6000803e3d6000fd5b505050506040513d601f19601f82011682018060405250810190611da391906124f8565b60055460405163a9059cbb60e01b81526001600160a01b0385811660048301526024820184905292935091169063a9059cbb906044016020604051808303816000875af1158015611df8573d6000803e3d6000fd5b505050506040513d601f19601f82011682018060405250810190611a7b9190612511565b60335460405163095ea7b360e01b81526001600160a01b039182166004820152602481018490529084169063095ea7b3906044016020604051808303816000875af1158015611e6f573d6000803e3d6000fd5b505050506040513d601f19601f82011682018060405250810190611e939190612511565b506040805160a0810182526005546034546bffffffffffffffffffffffff19606092831b811660c085015261017760eb1b60d4850181905291831b811660d785015260eb84019190915286821b1660ee830152825180830360e201815261010283018452825230602083015242828401528101839052608081018490526033549151631e51809360e31b815290916000916001600160a01b039091169063f28c049890611f449085906004016125db565b6020604051808303816000875af1158015611f63573d6000803e3d6000fd5b505050506040513d601f19601f82011682018060405250810190611f8791906124f8565b905083811015610a505760335460405163095ea7b360e01b81526001600160a01b039182166004820152600060248201529086169063095ea7b3906044016020604051808303816000875af1158015611fe4573d6000803e3d6000fd5b505050506040513d601f19601f820116820180604052508101906120089190612511565b506001600160a01b03851663a9059cbb33612023848861255c565b6040516001600160e01b031960e085901b1681526001600160a01b03909216600483015260248201526044016020604051808303816000875af115801561206e573d6000803e3d6000fd5b505050506040513d601f19601f820116820180604052508101906120929190612511565b505050505050565b6120a382612141565b6040516001600160a01b038316907fbc7cd75a20ee27fd9adebab32041f755214dbc6bffa90cc0225b39da2e5c2d3b90600090a28051156120e857611a7b82826121a6565b6107cd61221e565b7ff0c57e16840df040f15088dc2f81fe391c3923bec73e23a9662efc9c229c6a0054600160401b900460ff1661093c57604051631afcd79f60e31b815260040160405180910390fd5b61187a6120f0565b806001600160a01b03163b60000361217757604051634c9c8ce360e01b81526001600160a01b03821660048201526024016113d6565b60008051602061265083398151915280546001600160a01b0319166001600160a01b0392909216919091179055565b6060600080846001600160a01b0316846040516121c39190612633565b600060405180830381855af49150503d80600081146121fe576040519150601f19603f3d011682016040523d82523d6000602084013e612203565b606091505b509150915061221385838361223d565b925050505b92915050565b341561093c5760405163b398979f60e01b815260040160405180910390fd5b6060826122525761224d82612299565b611c8b565b815115801561226957506001600160a01b0384163b155b1561229257604051639996b31560e01b81526001600160a01b03851660048201526024016113d6565b5092915050565b8051156122a95780518082602001fd5b604051630a12f52160e11b815260040160405180910390fd5b6001600160a01b0381168114610e5957600080fd5b6000602082840312156122e957600080fd5b8135611c8b816122c2565b634e487b7160e01b600052604160045260246000fd5b6000806040838503121561231d57600080fd5b8235612328816122c2565b9150602083013567ffffffffffffffff8082111561234557600080fd5b818501915085601f83011261235957600080fd5b81358181111561236b5761236b6122f4565b604051601f8201601f19908116603f01168101908382118183101715612393576123936122f4565b816040528281528860208487010111156123ac57600080fd5b8260208601602083013760006020848301015280955050505050509250929050565b600080604083850312156123e157600080fd5b82356123ec816122c2565b915060208301356123fc816122c2565b809150509250929050565b60006020828403121561241957600080fd5b5035919050565b60005b8381101561243b578181015183820152602001612423565b50506000910152565b6000815180845261245c816020860160208601612420565b601f01601f19169290920160200192915050565b602081526000611c8b6020830184612444565b6000806020838503121561249657600080fd5b823567ffffffffffffffff808211156124ae57600080fd5b818501915085601f8301126124c257600080fd5b8135818111156124d157600080fd5b8660208260051b85010111156124e657600080fd5b60209290920196919550909350505050565b60006020828403121561250a57600080fd5b5051919050565b60006020828403121561252357600080fd5b81518015158114611c8b57600080fd5b634e487b7160e01b600052601160045260246000fd5b8082018082111561221857612218612533565b8181038181111561221857612218612533565b634e487b7160e01b600052603260045260246000fd5b808202811582820484141761221857612218612533565b6000826125b957634e487b7160e01b600052601260045260246000fd5b500490565b6000602082840312156125d057600080fd5b8151611c8b816122c2565b602081526000825160a060208401526125f760c0840182612444565b905060018060a01b0360208501511660408401526040840151606084015260608401516080840152608084015160a08401528091505092915050565b60008251612645818460208701612420565b919091019291505056fe360894a13ba1a3210667c828492db98dca3e2076cc3735a920a3ca505d382bbca164736f6c6343000817000a",
  "devdoc": {
    "errors": {
      "AddressEmptyCode(address)": [
        {
          "details": "There's no code at `target` (it is not a contract)."
        }
      ],
      "ERC1967InvalidImplementation(address)": [
        {
          "details": "The `implementation` of the proxy is invalid."
        }
      ],
      "ERC1967NonPayable()": [
        {
          "details": "An upgrade function sees `msg.value > 0` that may be lost."
        }
      ],
      "FailedInnerCall()": [
        {
          "details": "A call to an address target failed. The target may have reverted."
        }
      ],
      "InvalidInitialization()": [
        {
          "details": "The contract is already initialized."
        }
      ],
      "NotInitializing()": [
        {
          "details": "The contract is not initializing."
        }
      ],
      "OwnableInvalidOwner(address)": [
        {
          "details": "The owner is not a valid owner account. (eg. `address(0)`)"
        }
      ],
      "OwnableUnauthorizedAccount(address)": [
        {
          "details": "The caller account is not authorized to perform an operation."
        }
      ],
      "ReentrancyGuardReentrantCall()": [
        {
          "details": "Unauthorized reentrant call."
        }
      ],
      "UUPSUnauthorizedCallContext()": [
        {
          "details": "The call is from an unauthorized context."
        }
      ],
      "UUPSUnsupportedProxiableUUID(bytes32)": [
        {
          "details": "The storage `slot` is unsupported as a UUID."
        }
      ]
    },
    "events": {
      "Initialized(uint64)": {
        "details": "Triggered when the contract has been initialized or reinitialized."
      },
      "Upgraded(address)": {
        "details": "Emitted when the implementation is upgraded."
      }
    },
    "kind": "dev",
    "methods": {
      "owner()": {
        "details": "Returns the address of the current owner."
      },
      "proxiableUUID()": {
        "details": "Implementation of the ERC1822 {proxiableUUID} function. This returns the storage slot used by the implementation. It is used to validate the implementation's compatibility when performing an upgrade. IMPORTANT: A proxy pointing at a proxiable contract should not be considered proxiable itself, because this risks bricking a proxy that upgrades to it, by delegating to itself until out of gas. Thus it is critical that this function revert if invoked through a proxy. This is guaranteed by the `notDelegated` modifier."
      },
      "renounceOwnership()": {
        "details": "Leaves the contract without owner. It will not be possible to call `onlyOwner` functions. Can only be called by the current owner. NOTE: Renouncing ownership will leave the contract without an owner, thereby disabling any functionality that is only available to the owner."
      },
      "transferOwnership(address)": {
        "details": "Transfers ownership of the contract to a new account (`newOwner`). Can only be called by the current owner."
      },
      "upgradeToAndCall(address,bytes)": {
        "custom:oz-upgrades-unsafe-allow-reachable": "delegatecall",
        "details": "Upgrade the implementation of the proxy to `newImplementation`, and subsequently execute the function call encoded in `data`. Calls {_authorizeUpgrade}. Emits an {Upgraded} event."
      }
    },
    "version": 1
  },
  "userdoc": {
    "kind": "user",
    "methods": {},
    "version": 1
  },
  "storageLayout": {
    "storage": [
      {
        "astId": 9991,
        "contract": "contracts/FlashLoan.sol:FlashLoan",
        "label": "activePool",
        "offset": 0,
        "slot": "0",
        "type": "t_address"
      },
      {
        "astId": 9993,
        "contract": "contracts/FlashLoan.sol:FlashLoan",
        "label": "adminContract",
        "offset": 0,
        "slot": "1",
        "type": "t_address"
      },
      {
        "astId": 9995,
        "contract": "contracts/FlashLoan.sol:FlashLoan",
        "label": "borrowerOperations",
        "offset": 0,
        "slot": "2",
        "type": "t_address"
      },
      {
        "astId": 9997,
        "contract": "contracts/FlashLoan.sol:FlashLoan",
        "label": "collSurplusPool",
        "offset": 0,
        "slot": "3",
        "type": "t_address"
      },
      {
        "astId": 9999,
        "contract": "contracts/FlashLoan.sol:FlashLoan",
        "label": "communityIssuance",
        "offset": 0,
        "slot": "4",
        "type": "t_address"
      },
      {
        "astId": 10001,
        "contract": "contracts/FlashLoan.sol:FlashLoan",
        "label": "debtToken",
        "offset": 0,
        "slot": "5",
        "type": "t_address"
      },
      {
        "astId": 10003,
        "contract": "contracts/FlashLoan.sol:FlashLoan",
        "label": "defaultPool",
        "offset": 0,
        "slot": "6",
        "type": "t_address"
      },
      {
        "astId": 10005,
        "contract": "contracts/FlashLoan.sol:FlashLoan",
        "label": "feeCollector",
        "offset": 0,
        "slot": "7",
        "type": "t_address"
      },
      {
        "astId": 10007,
        "contract": "contracts/FlashLoan.sol:FlashLoan",
        "label": "flashLoanAddress",
        "offset": 0,
        "slot": "8",
        "type": "t_address"
      },
      {
        "astId": 10009,
        "contract": "contracts/FlashLoan.sol:FlashLoan",
        "label": "gasPoolAddress",
        "offset": 0,
        "slot": "9",
        "type": "t_address"
      },
      {
        "astId": 10011,
        "contract": "contracts/FlashLoan.sol:FlashLoan",
        "label": "trenStaking",
        "offset": 0,
        "slot": "10",
        "type": "t_address"
      },
      {
        "astId": 10013,
        "contract": "contracts/FlashLoan.sol:FlashLoan",
        "label": "priceFeed",
        "offset": 0,
        "slot": "11",
        "type": "t_address"
      },
      {
        "astId": 10015,
        "contract": "contracts/FlashLoan.sol:FlashLoan",
        "label": "sortedTrenBoxes",
        "offset": 0,
        "slot": "12",
        "type": "t_address"
      },
      {
        "astId": 10017,
        "contract": "contracts/FlashLoan.sol:FlashLoan",
        "label": "stabilityPool",
        "offset": 0,
        "slot": "13",
        "type": "t_address"
      },
      {
        "astId": 10019,
        "contract": "contracts/FlashLoan.sol:FlashLoan",
        "label": "timelockAddress",
        "offset": 0,
        "slot": "14",
        "type": "t_address"
      },
      {
        "astId": 10021,
        "contract": "contracts/FlashLoan.sol:FlashLoan",
        "label": "treasuryAddress",
        "offset": 0,
        "slot": "15",
        "type": "t_address"
      },
      {
        "astId": 10023,
        "contract": "contracts/FlashLoan.sol:FlashLoan",
        "label": "trenBoxManager",
        "offset": 0,
        "slot": "16",
        "type": "t_address"
      },
      {
        "astId": 10025,
        "contract": "contracts/FlashLoan.sol:FlashLoan",
        "label": "trenBoxManagerOperations",
        "offset": 0,
        "slot": "17",
        "type": "t_address"
      },
      {
        "astId": 10027,
        "contract": "contracts/FlashLoan.sol:FlashLoan",
        "label": "isAddressSetupInitialized",
        "offset": 20,
        "slot": "17",
        "type": "t_bool"
      },
      {
        "astId": 10032,
        "contract": "contracts/FlashLoan.sol:FlashLoan",
        "label": "__gap",
        "offset": 0,
        "slot": "18",
        "type": "t_array(t_uint256)33_storage"
      },
      {
        "astId": 11990,
        "contract": "contracts/FlashLoan.sol:FlashLoan",
        "label": "swapRouter",
        "offset": 0,
        "slot": "51",
        "type": "t_contract(IUniswapRouterV3)14846"
      },
      {
        "astId": 11992,
        "contract": "contracts/FlashLoan.sol:FlashLoan",
        "label": "stableCoin",
        "offset": 0,
        "slot": "52",
        "type": "t_address"
      },
      {
        "astId": 11994,
        "contract": "contracts/FlashLoan.sol:FlashLoan",
        "label": "isSetupInitialized",
        "offset": 20,
        "slot": "52",
        "type": "t_bool"
      }
    ],
    "types": {
      "t_address": {
        "encoding": "inplace",
        "label": "address",
        "numberOfBytes": "20"
      },
      "t_array(t_uint256)33_storage": {
        "base": "t_uint256",
        "encoding": "inplace",
        "label": "uint256[33]",
        "numberOfBytes": "1056"
      },
      "t_bool": {
        "encoding": "inplace",
        "label": "bool",
        "numberOfBytes": "1"
      },
      "t_contract(IUniswapRouterV3)14846": {
        "encoding": "inplace",
        "label": "contract IUniswapRouterV3",
        "numberOfBytes": "20"
      },
      "t_uint256": {
        "encoding": "inplace",
        "label": "uint256",
        "numberOfBytes": "32"
      }
    }
  }
}