{
  "address": "0x384A045c2ea0bf3388B9A1BF38f7800Ebd6D1185",
  "abi": [
    {
      "inputs": [
        {
          "internalType": "address",
          "name": "target",
          "type": "address"
        }
      ],
      "name": "AddressEmptyCode",
      "type": "error"
    },
    {
      "inputs": [
        {
          "internalType": "address",
          "name": "implementation",
          "type": "address"
        }
      ],
      "name": "ERC1967InvalidImplementation",
      "type": "error"
    },
    {
      "inputs": [],
      "name": "ERC1967NonPayable",
      "type": "error"
    },
    {
      "inputs": [],
      "name": "FailedInnerCall",
      "type": "error"
    },
    {
      "inputs": [],
      "name": "InvalidInitialization",
      "type": "error"
    },
    {
      "inputs": [],
      "name": "NotInitializing",
      "type": "error"
    },
    {
      "inputs": [
        {
          "internalType": "address",
          "name": "owner",
          "type": "address"
        }
      ],
      "name": "OwnableInvalidOwner",
      "type": "error"
    },
    {
      "inputs": [
        {
          "internalType": "address",
          "name": "account",
          "type": "address"
        }
      ],
      "name": "OwnableUnauthorizedAccount",
      "type": "error"
    },
    {
      "inputs": [],
      "name": "PriceFeed__ExistingOracleRequired",
      "type": "error"
    },
    {
      "inputs": [],
      "name": "PriceFeed__InvalidDecimalsError",
      "type": "error"
    },
    {
      "inputs": [
        {
          "internalType": "address",
          "name": "token",
          "type": "address"
        }
      ],
      "name": "PriceFeed__InvalidOracleResponseError",
      "type": "error"
    },
    {
      "inputs": [],
      "name": "PriceFeed__TimelockOnlyError",
      "type": "error"
    },
    {
      "inputs": [],
      "name": "PriceFeed__UnknownAssetError",
      "type": "error"
    },
    {
      "inputs": [],
      "name": "UUPSUnauthorizedCallContext",
      "type": "error"
    },
    {
      "inputs": [
        {
          "internalType": "bytes32",
          "name": "slot",
          "type": "bytes32"
        }
      ],
      "name": "UUPSUnsupportedProxiableUUID",
      "type": "error"
    },
    {
      "anonymous": false,
      "inputs": [
        {
          "indexed": false,
          "internalType": "uint64",
          "name": "version",
          "type": "uint64"
        }
      ],
      "name": "Initialized",
      "type": "event"
    },
    {
      "anonymous": false,
      "inputs": [
        {
          "indexed": false,
          "internalType": "address",
          "name": "token",
          "type": "address"
        },
        {
          "indexed": false,
          "internalType": "address",
          "name": "oracleAddress",
          "type": "address"
        },
        {
          "indexed": false,
          "internalType": "bool",
          "name": "isEthIndexed",
          "type": "bool"
        },
        {
          "indexed": false,
          "internalType": "bool",
          "name": "isFallback",
          "type": "bool"
        }
      ],
      "name": "NewOracleRegistered",
      "type": "event"
    },
    {
      "anonymous": false,
      "inputs": [
        {
          "indexed": true,
          "internalType": "address",
          "name": "previousOwner",
          "type": "address"
        },
        {
          "indexed": true,
          "internalType": "address",
          "name": "newOwner",
          "type": "address"
        }
      ],
      "name": "OwnershipTransferred",
      "type": "event"
    },
    {
      "anonymous": false,
      "inputs": [
        {
          "indexed": true,
          "internalType": "address",
          "name": "implementation",
          "type": "address"
        }
      ],
      "name": "Upgraded",
      "type": "event"
    },
    {
      "inputs": [],
      "name": "NAME",
      "outputs": [
        {
          "internalType": "string",
          "name": "",
          "type": "string"
        }
      ],
      "stateMutability": "view",
      "type": "function"
    },
    {
      "inputs": [],
      "name": "TARGET_DIGITS",
      "outputs": [
        {
          "internalType": "uint256",
          "name": "",
          "type": "uint256"
        }
      ],
      "stateMutability": "view",
      "type": "function"
    },
    {
      "inputs": [],
      "name": "UPGRADE_INTERFACE_VERSION",
      "outputs": [
        {
          "internalType": "string",
          "name": "",
          "type": "string"
        }
      ],
      "stateMutability": "view",
      "type": "function"
    },
    {
      "inputs": [],
      "name": "activePool",
      "outputs": [
        {
          "internalType": "address",
          "name": "",
          "type": "address"
        }
      ],
      "stateMutability": "view",
      "type": "function"
    },
    {
      "inputs": [],
      "name": "adminContract",
      "outputs": [
        {
          "internalType": "address",
          "name": "",
          "type": "address"
        }
      ],
      "stateMutability": "view",
      "type": "function"
    },
    {
      "inputs": [
        {
          "internalType": "address",
          "name": "newImplementation",
          "type": "address"
        }
      ],
      "name": "authorizeUpgrade",
      "outputs": [],
      "stateMutability": "nonpayable",
      "type": "function"
    },
    {
      "inputs": [],
      "name": "borrowerOperations",
      "outputs": [
        {
          "internalType": "address",
          "name": "",
          "type": "address"
        }
      ],
      "stateMutability": "view",
      "type": "function"
    },
    {
      "inputs": [],
      "name": "collSurplusPool",
      "outputs": [
        {
          "internalType": "address",
          "name": "",
          "type": "address"
        }
      ],
      "stateMutability": "view",
      "type": "function"
    },
    {
      "inputs": [],
      "name": "communityIssuance",
      "outputs": [
        {
          "internalType": "address",
          "name": "",
          "type": "address"
        }
      ],
      "stateMutability": "view",
      "type": "function"
    },
    {
      "inputs": [],
      "name": "debtToken",
      "outputs": [
        {
          "internalType": "address",
          "name": "",
          "type": "address"
        }
      ],
      "stateMutability": "view",
      "type": "function"
    },
    {
      "inputs": [],
      "name": "defaultPool",
      "outputs": [
        {
          "internalType": "address",
          "name": "",
          "type": "address"
        }
      ],
      "stateMutability": "view",
      "type": "function"
    },
    {
      "inputs": [
        {
          "internalType": "address",
          "name": "",
          "type": "address"
        }
      ],
      "name": "fallbacks",
      "outputs": [
        {
          "internalType": "address",
          "name": "oracleAddress",
          "type": "address"
        },
        {
          "internalType": "enum IPriceFeed.ProviderType",
          "name": "providerType",
          "type": "uint8"
        },
        {
          "internalType": "uint256",
          "name": "timeoutSeconds",
          "type": "uint256"
        },
        {
          "internalType": "uint256",
          "name": "decimals",
          "type": "uint256"
        },
        {
          "internalType": "bool",
          "name": "isEthIndexed",
          "type": "bool"
        }
      ],
      "stateMutability": "view",
      "type": "function"
    },
    {
      "inputs": [],
      "name": "feeCollector",
      "outputs": [
        {
          "internalType": "address",
          "name": "",
          "type": "address"
        }
      ],
      "stateMutability": "view",
      "type": "function"
    },
    {
      "inputs": [
        {
          "internalType": "address",
          "name": "_token",
          "type": "address"
        }
      ],
      "name": "fetchPrice",
      "outputs": [
        {
          "internalType": "uint256",
          "name": "",
          "type": "uint256"
        }
      ],
      "stateMutability": "view",
      "type": "function"
    },
    {
      "inputs": [],
      "name": "gasPoolAddress",
      "outputs": [
        {
          "internalType": "address",
          "name": "",
          "type": "address"
        }
      ],
      "stateMutability": "view",
      "type": "function"
    },
    {
      "inputs": [],
      "name": "initialize",
      "outputs": [],
      "stateMutability": "nonpayable",
      "type": "function"
    },
    {
      "inputs": [],
      "name": "isAddressSetupInitialized",
      "outputs": [
        {
          "internalType": "bool",
          "name": "",
          "type": "bool"
        }
      ],
      "stateMutability": "view",
      "type": "function"
    },
    {
      "inputs": [
        {
          "internalType": "address",
          "name": "",
          "type": "address"
        }
      ],
      "name": "oracles",
      "outputs": [
        {
          "internalType": "address",
          "name": "oracleAddress",
          "type": "address"
        },
        {
          "internalType": "enum IPriceFeed.ProviderType",
          "name": "providerType",
          "type": "uint8"
        },
        {
          "internalType": "uint256",
          "name": "timeoutSeconds",
          "type": "uint256"
        },
        {
          "internalType": "uint256",
          "name": "decimals",
          "type": "uint256"
        },
        {
          "internalType": "bool",
          "name": "isEthIndexed",
          "type": "bool"
        }
      ],
      "stateMutability": "view",
      "type": "function"
    },
    {
      "inputs": [],
      "name": "owner",
      "outputs": [
        {
          "internalType": "address",
          "name": "",
          "type": "address"
        }
      ],
      "stateMutability": "view",
      "type": "function"
    },
    {
      "inputs": [],
      "name": "priceFeed",
      "outputs": [
        {
          "internalType": "address",
          "name": "",
          "type": "address"
        }
      ],
      "stateMutability": "view",
      "type": "function"
    },
    {
      "inputs": [],
      "name": "proxiableUUID",
      "outputs": [
        {
          "internalType": "bytes32",
          "name": "",
          "type": "bytes32"
        }
      ],
      "stateMutability": "view",
      "type": "function"
    },
    {
      "inputs": [],
      "name": "renounceOwnership",
      "outputs": [],
      "stateMutability": "nonpayable",
      "type": "function"
    },
    {
      "inputs": [
        {
          "internalType": "address[]",
          "name": "_addresses",
          "type": "address[]"
        }
      ],
      "name": "setAddresses",
      "outputs": [],
      "stateMutability": "nonpayable",
      "type": "function"
    },
    {
      "inputs": [
        {
          "internalType": "address",
          "name": "_communityIssuance",
          "type": "address"
        }
      ],
      "name": "setCommunityIssuance",
      "outputs": [],
      "stateMutability": "nonpayable",
      "type": "function"
    },
    {
      "inputs": [
        {
          "internalType": "address",
          "name": "_token",
          "type": "address"
        },
        {
          "internalType": "address",
          "name": "_oracle",
          "type": "address"
        },
        {
          "internalType": "enum IPriceFeed.ProviderType",
          "name": "_type",
          "type": "uint8"
        },
        {
          "internalType": "uint256",
          "name": "_timeoutSeconds",
          "type": "uint256"
        },
        {
          "internalType": "bool",
          "name": "_isEthIndexed",
          "type": "bool"
        },
        {
          "internalType": "bool",
          "name": "_isFallback",
          "type": "bool"
        }
      ],
      "name": "setOracle",
      "outputs": [],
      "stateMutability": "nonpayable",
      "type": "function"
    },
    {
      "inputs": [
        {
          "internalType": "address",
          "name": "_trenStaking",
          "type": "address"
        }
      ],
      "name": "setTRENStaking",
      "outputs": [],
      "stateMutability": "nonpayable",
      "type": "function"
    },
    {
      "inputs": [],
      "name": "sortedTrenBoxes",
      "outputs": [
        {
          "internalType": "address",
          "name": "",
          "type": "address"
        }
      ],
      "stateMutability": "view",
      "type": "function"
    },
    {
      "inputs": [],
      "name": "stabilityPool",
      "outputs": [
        {
          "internalType": "address",
          "name": "",
          "type": "address"
        }
      ],
      "stateMutability": "view",
      "type": "function"
    },
    {
      "inputs": [],
      "name": "timelockAddress",
      "outputs": [
        {
          "internalType": "address",
          "name": "",
          "type": "address"
        }
      ],
      "stateMutability": "view",
      "type": "function"
    },
    {
      "inputs": [
        {
          "internalType": "address",
          "name": "newOwner",
          "type": "address"
        }
      ],
      "name": "transferOwnership",
      "outputs": [],
      "stateMutability": "nonpayable",
      "type": "function"
    },
    {
      "inputs": [],
      "name": "treasuryAddress",
      "outputs": [
        {
          "internalType": "address",
          "name": "",
          "type": "address"
        }
      ],
      "stateMutability": "view",
      "type": "function"
    },
    {
      "inputs": [],
      "name": "trenBoxManager",
      "outputs": [
        {
          "internalType": "address",
          "name": "",
          "type": "address"
        }
      ],
      "stateMutability": "view",
      "type": "function"
    },
    {
      "inputs": [],
      "name": "trenBoxManagerOperations",
      "outputs": [
        {
          "internalType": "address",
          "name": "",
          "type": "address"
        }
      ],
      "stateMutability": "view",
      "type": "function"
    },
    {
      "inputs": [],
      "name": "trenStaking",
      "outputs": [
        {
          "internalType": "address",
          "name": "",
          "type": "address"
        }
      ],
      "stateMutability": "view",
      "type": "function"
    },
    {
      "inputs": [
        {
          "internalType": "address",
          "name": "newImplementation",
          "type": "address"
        },
        {
          "internalType": "bytes",
          "name": "data",
          "type": "bytes"
        }
      ],
      "name": "upgradeToAndCall",
      "outputs": [],
      "stateMutability": "payable",
      "type": "function"
    }
  ],
  "transactionHash": "0x8ad8402905e953ee6280b4cf81e089f982f8bdfe485d38da56b112ff61a661aa",
  "args": [],
  "numDeployments": 1,
  "solcInputHash": "e6971fb87a17deef3641f1719687e39f",
  "bytecode": "0x60a06040523060805234801561001457600080fd5b50608051611fe061003e600039600081816113440152818161136d01526114b30152611fe06000f3fe6080604052600436106102045760003560e01c806395fb16bb11610118578063c8564c62116100a0578063f2fde38b1161006f578063f2fde38b146106a1578063f8d89898146106c1578063fcca7fd1146106e1578063fe06073314610701578063fe9d03231461072157600080fd5b8063c8564c6214610610578063cc8b21e414610641578063cda775f914610661578063f1c05a7e1461068157600080fd5b8063addd5099116100e7578063addd509914610537578063b957172114610590578063c05c5e94146105b0578063c415b95c146105d0578063c5f956af146105f057600080fd5b806395fb16bb14610484578063a3f4df7e146104a4578063ace1798e146104e6578063ad3cb1cc1461050657600080fd5b806352d1902d1161019b578063741bef1a1161016a578063741bef1a146103d257806377553ad4146103f25780637f7dde4a146104125780638129fc1c146104325780638da5cb5b1461044757600080fd5b806352d1902d1461036857806355dafa461461037d5780636a85d67d1461039d578063715018a6146103bd57600080fd5b806326256c0b116101d757806326256c0b146102ab5780633cc74225146103155780634bc66f32146103355780634f1ef2861461035557600080fd5b806301c9310014610209578063048c661d1461022b5780630a34d4d6146102685780631be5c92f14610288575b600080fd5b34801561021557600080fd5b50610229610224366004611b70565b610741565b005b34801561023757600080fd5b50600c5461024b906001600160a01b031681565b6040516001600160a01b0390911681526020015b60405180910390f35b34801561027457600080fd5b5060105461024b906001600160a01b031681565b34801561029457600080fd5b5061029d601281565b60405190815260200161025f565b3480156102b757600080fd5b506103046102c6366004611b70565b60356020526000908152604090208054600182015460028301546003909301546001600160a01b0383169360ff600160a01b90940484169390911685565b60405161025f959493929190611ba1565b34801561032157600080fd5b5060065461024b906001600160a01b031681565b34801561034157600080fd5b50600d5461024b906001600160a01b031681565b610229610363366004611c09565b61076b565b34801561037457600080fd5b5061029d61078a565b34801561038957600080fd5b5060095461024b906001600160a01b031681565b3480156103a957600080fd5b506102296103b8366004611b70565b6107a7565b3480156103c957600080fd5b506102296107d1565b3480156103de57600080fd5b50600a5461024b906001600160a01b031681565b3480156103fe57600080fd5b5060025461024b906001600160a01b031681565b34801561041e57600080fd5b5060005461024b906001600160a01b031681565b34801561043e57600080fd5b506102296107e5565b34801561045357600080fd5b507f9016d09d72d40fdae2fd8ceac6b6234c7706214fd39c1cd1e609a0528c199300546001600160a01b031661024b565b34801561049057600080fd5b5060045461024b906001600160a01b031681565b3480156104b057600080fd5b506104d960405180604001604052806009815260200168141c9a58d95199595960ba1b81525081565b60405161025f9190611cef565b3480156104f257600080fd5b5061029d610501366004611b70565b6108fe565b34801561051257600080fd5b506104d9604051806040016040528060058152602001640352e302e360dc1b81525081565b34801561054357600080fd5b50610304610552366004611b70565b60346020526000908152604090208054600182015460028301546003909301546001600160a01b0383169360ff600160a01b90940484169390911685565b34801561059c57600080fd5b506102296105ab366004611d22565b610a8c565b3480156105bc57600080fd5b5060015461024b906001600160a01b031681565b3480156105dc57600080fd5b5060075461024b906001600160a01b031681565b3480156105fc57600080fd5b50600e5461024b906001600160a01b031681565b34801561061c57600080fd5b5060105461063190600160a01b900460ff1681565b604051901515815260200161025f565b34801561064d57600080fd5b50600b5461024b906001600160a01b031681565b34801561066d57600080fd5b5060035461024b906001600160a01b031681565b34801561068d57600080fd5b50600f5461024b906001600160a01b031681565b3480156106ad57600080fd5b506102296106bc366004611b70565b611006565b3480156106cd57600080fd5b5060055461024b906001600160a01b031681565b3480156106ed57600080fd5b506102296106fc366004611da7565b611044565b34801561070d57600080fd5b5061022961071c366004611b70565b6112d5565b34801561072d57600080fd5b5060085461024b906001600160a01b031681565b6107496112de565b600980546001600160a01b0319166001600160a01b0392909216919091179055565b610773611339565b61077c826113de565b61078682826113e6565b5050565b60006107946114a8565b50600080516020611fb483398151915290565b6107af6112de565b600480546001600160a01b0319166001600160a01b0392909216919091179055565b6107d96112de565b6107e360006114f1565b565b7ff0c57e16840df040f15088dc2f81fe391c3923bec73e23a9662efc9c229c6a008054600160401b810460ff16159067ffffffffffffffff1660008115801561082b5750825b905060008267ffffffffffffffff1660011480156108485750303b155b905081158015610856575080155b156108745760405163f92ee8a960e01b815260040160405180910390fd5b845467ffffffffffffffff19166001178555831561089e57845460ff60401b1916600160401b1785555b336108a881611562565b6108b0611573565b5083156108f757845460ff60401b19168555604051600181527fc7f505b2f371ae2175ee4913f4499e1f2633a7b5936321eed1cdaeb6115181d29060200160405180910390a15b5050505050565b6001600160a01b038181166000908152603460209081526040808320815160a0810190925280549485168252929384939192830190600160a01b900460ff16600181111561094e5761094e611b8b565b600181111561095f5761095f611b8b565b8152600182015460208201526002820154604082015260039091015460ff161515606090910152905060006109938261157b565b905080156109bb5781608001516109aa57806109b3565b6109b381611641565b949350505050565b6001600160a01b03848116600090815260356020908152604091829020825160a0810190935280549384168352919290830190600160a01b900460ff166001811115610a0957610a09611b8b565b6001811115610a1a57610a1a611b8b565b8152600182015460208201526002820154604082015260039091015460ff1615156060909101529150610a4c8261157b565b90508015610a635781608001516109aa57806109b3565b60405163283f5cb560e01b81526001600160a01b03851660048201526024015b60405180910390fd5b610a946112de565b601054600160a01b900460ff1615610aee5760405162461bcd60e51b815260206004820152601c60248201527f536574757020697320616c726561647920696e697469616c697a6564000000006044820152606401610a83565b600f8114610b3e5760405162461bcd60e51b815260206004820152601e60248201527f45787065637465642031352061646472657373657320617420736574757000006044820152606401610a83565b60005b600f811015610bc3576000838383818110610b5e57610b5e611e1a565b9050602002016020810190610b739190611b70565b6001600160a01b031603610bbb5760405162461bcd60e51b815260206004820152600f60248201526e496e76616c6964206164647265737360881b6044820152606401610a83565b600101610b41565b5081816000818110610bd757610bd7611e1a565b9050602002016020810190610bec9190611b70565b600080546001600160a01b0319166001600160a01b039290921691909117905581816001818110610c1f57610c1f611e1a565b9050602002016020810190610c349190611b70565b600180546001600160a01b0319166001600160a01b039290921691909117905581816002818110610c6757610c67611e1a565b9050602002016020810190610c7c9190611b70565b600280546001600160a01b0319166001600160a01b039290921691909117905581816003818110610caf57610caf611e1a565b9050602002016020810190610cc49190611b70565b600380546001600160a01b0319166001600160a01b039290921691909117905581816004818110610cf757610cf7611e1a565b9050602002016020810190610d0c9190611b70565b600580546001600160a01b0319166001600160a01b039290921691909117815582908290818110610d3f57610d3f611e1a565b9050602002016020810190610d549190611b70565b600680546001600160a01b0319166001600160a01b039290921691909117815582908290818110610d8757610d87611e1a565b9050602002016020810190610d9c9190611b70565b600780546001600160a01b0319166001600160a01b039290921691909117815582908290818110610dcf57610dcf611e1a565b9050602002016020810190610de49190611b70565b600880546001600160a01b0319166001600160a01b039290921691909117815582908290818110610e1757610e17611e1a565b9050602002016020810190610e2c9190611b70565b600a80546001600160a01b0319166001600160a01b039290921691909117905581816009818110610e5f57610e5f611e1a565b9050602002016020810190610e749190611b70565b600b80546001600160a01b0319166001600160a01b03929092169190911790558181600a818110610ea757610ea7611e1a565b9050602002016020810190610ebc9190611b70565b600c80546001600160a01b0319166001600160a01b03929092169190911790558181600b818110610eef57610eef611e1a565b9050602002016020810190610f049190611b70565b600d80546001600160a01b0319166001600160a01b03929092169190911790558181600c818110610f3757610f37611e1a565b9050602002016020810190610f4c9190611b70565b600e80546001600160a01b0319166001600160a01b03929092169190911790558181600d818110610f7f57610f7f611e1a565b9050602002016020810190610f949190611b70565b600f80546001600160a01b0319166001600160a01b03929092169190911790558181600e818110610fc757610fc7611e1a565b9050602002016020810190610fdc9190611b70565b601080546001600160a81b0319166001600160a01b039290921691909117600160a01b1790555050565b61100e6112de565b6001600160a01b03811661103857604051631e4fbdf760e01b815260006004820152602401610a83565b611041816114f1565b50565b61104e8682611674565b80801561107357506001600160a01b0386811660009081526034602052604090205416155b1561109157604051634a0e0c3b60e11b815260040160405180910390fd5b600061109d86866116f6565b60ff169050806000036110c35760405163ee65a7e560e01b815260040160405180910390fd5b60006040518060a00160405280886001600160a01b031681526020018760018111156110f1576110f1611b8b565b8152602001868152602001838152602001851515815250905060006111158261157b565b9050806000036111435760405163283f5cb560e01b81526001600160a01b038a166004820152602401610a83565b83156111e2576001600160a01b03808a1660009081526035602090815260409091208451815493166001600160a01b03198416811782559185015185939192909183916001600160a81b031990911617600160a01b8360018111156111aa576111aa611b8b565b021790555060408201516001820155606082015160028201556080909101516003909101805460ff1916911515919091179055611277565b6001600160a01b03808a1660009081526034602090815260409091208451815493166001600160a01b03198416811782559185015185939192909183916001600160a81b031990911617600160a01b83600181111561124357611243611b8b565b021790555060408201516001820155606082015160028201556080909101516003909101805460ff19169115159190911790555b604080516001600160a01b038b811682528a16602082015286151581830152851515606082015290517fcbde3c20c68ba036ef9cd1c074d075187be3640bc7a5b3fb85f045b07ab9a9309181900360800190a1505050505050505050565b611041816113de565b336113107f9016d09d72d40fdae2fd8ceac6b6234c7706214fd39c1cd1e609a0528c199300546001600160a01b031690565b6001600160a01b0316146107e35760405163118cdaa760e01b8152336004820152602401610a83565b306001600160a01b037f00000000000000000000000000000000000000000000000000000000000000001614806113c057507f00000000000000000000000000000000000000000000000000000000000000006001600160a01b03166113b4600080516020611fb4833981519152546001600160a01b031690565b6001600160a01b031614155b156107e35760405163703e46dd60e11b815260040160405180910390fd5b6110416112de565b816001600160a01b03166352d1902d6040518163ffffffff1660e01b8152600401602060405180830381865afa925050508015611440575060408051601f3d908101601f1916820190925261143d91810190611e30565b60015b61146857604051634c9c8ce360e01b81526001600160a01b0383166004820152602401610a83565b600080516020611fb4833981519152811461149957604051632a87526960e21b815260048101829052602401610a83565b6114a383836117a5565b505050565b306001600160a01b037f000000000000000000000000000000000000000000000000000000000000000016146107e35760405163703e46dd60e11b815260040160405180910390fd5b7f9016d09d72d40fdae2fd8ceac6b6234c7706214fd39c1cd1e609a0528c19930080546001600160a01b031981166001600160a01b03848116918217845560405192169182907f8be0079c531659141344cd1fd0a4f28419497f9722a3daafe3b4186f6b6457e090600090a3505050565b61156a6117fb565b61104181611844565b6107e36117fb565b8051600090819081906001600160a01b03166115aa57604051632e054cdf60e21b815260040160405180910390fd5b836020015160018111156115c0576115c0611b8b565b6000036115dc5783516115d29061184c565b909250905061160a565b836020015160018111156115f2576115f2611b8b565b60010361160a578351611604906118ea565b90925090505b81158015906116245750611622818560400151611978565b155b15611637576109b382856060015161198d565b5060009392505050565b60008061164e60006108fe565b9050670de0b6b3a76400006116638483611e5f565b61166d9190611e8c565b9392505050565b600081611698576001600160a01b03831660009081526034602052604090206116b1565b6001600160a01b03831660009081526035602052604090205b80549091506001600160a01b03166116cb576114a36112de565b600d546001600160a01b031633146114a357604051633bc92b2160e01b815260040160405180910390fd5b600081600181111561170a5761170a611b8b565b60000361177a57826001600160a01b031663313ce5676040518163ffffffff1660e01b8152600401602060405180830381865afa15801561174f573d6000803e3d6000fd5b505050506040513d601f19601f820116820180604052508101906117739190611eae565b905061179f565b81600181111561178c5761178c611b8b565b60010361179b5750601261179f565b5060005b92915050565b6117ae826119d5565b6040516001600160a01b038316907fbc7cd75a20ee27fd9adebab32041f755214dbc6bffa90cc0225b39da2e5c2d3b90600090a28051156117f3576114a38282611a3a565b610786611ab0565b7ff0c57e16840df040f15088dc2f81fe391c3923bec73e23a9662efc9c229c6a0054600160401b900460ff166107e357604051631afcd79f60e31b815260040160405180910390fd5b61100e6117fb565b600080826001600160a01b031663feaf968c6040518163ffffffff1660e01b815260040160a060405180830381865afa9250505080156118a9575060408051601f3d908101601f191682019092526118a691810190611eeb565b60015b156118e55769ffffffffffffffffffff8516158015906118c857508115155b80156118d357508315155b156118df578396508195505b50505050505b915091565b600080600080846001600160a01b03166357de26a46040518163ffffffff1660e01b81526004016040805180830381865afa15801561192d573d6000803e3d6000fd5b505050506040513d601f19601f820116820180604052508101906119519190611f3b565b63ffffffff1691509150600082601b0b13156119715781601b0b93508092505b5050915091565b6000816119858442611f84565b119392505050565b600060128211156119b55760128203600a0a83816119ad576119ad611e76565b04905061179f565b60128210156119ce5781601203600a0a8302905061179f565b5090919050565b806001600160a01b03163b600003611a0b57604051634c9c8ce360e01b81526001600160a01b0382166004820152602401610a83565b600080516020611fb483398151915280546001600160a01b0319166001600160a01b0392909216919091179055565b6060600080846001600160a01b031684604051611a579190611f97565b600060405180830381855af49150503d8060008114611a92576040519150601f19603f3d011682016040523d82523d6000602084013e611a97565b606091505b5091509150611aa7858383611acf565b95945050505050565b34156107e35760405163b398979f60e01b815260040160405180910390fd5b606082611ae457611adf82611b2b565b61166d565b8151158015611afb57506001600160a01b0384163b155b15611b2457604051639996b31560e01b81526001600160a01b0385166004820152602401610a83565b5092915050565b805115611b3b5780518082602001fd5b604051630a12f52160e11b815260040160405180910390fd5b80356001600160a01b0381168114611b6b57600080fd5b919050565b600060208284031215611b8257600080fd5b61166d82611b54565b634e487b7160e01b600052602160045260246000fd5b6001600160a01b038616815260a0810160028610611bcf57634e487b7160e01b600052602160045260246000fd5b85602083015284604083015283606083015282151560808301529695505050505050565b634e487b7160e01b600052604160045260246000fd5b60008060408385031215611c1c57600080fd5b611c2583611b54565b9150602083013567ffffffffffffffff80821115611c4257600080fd5b818501915085601f830112611c5657600080fd5b813581811115611c6857611c68611bf3565b604051601f8201601f19908116603f01168101908382118183101715611c9057611c90611bf3565b81604052828152886020848701011115611ca957600080fd5b8260208601602083013760006020848301015280955050505050509250929050565b60005b83811015611ce6578181015183820152602001611cce565b50506000910152565b6020815260008251806020840152611d0e816040850160208701611ccb565b601f01601f19169190910160400192915050565b60008060208385031215611d3557600080fd5b823567ffffffffffffffff80821115611d4d57600080fd5b818501915085601f830112611d6157600080fd5b813581811115611d7057600080fd5b8660208260051b8501011115611d8557600080fd5b60209290920196919550909350505050565b80358015158114611b6b57600080fd5b60008060008060008060c08789031215611dc057600080fd5b611dc987611b54565b9550611dd760208801611b54565b9450604087013560028110611deb57600080fd5b935060608701359250611e0060808801611d97565b9150611e0e60a08801611d97565b90509295509295509295565b634e487b7160e01b600052603260045260246000fd5b600060208284031215611e4257600080fd5b5051919050565b634e487b7160e01b600052601160045260246000fd5b808202811582820484141761179f5761179f611e49565b634e487b7160e01b600052601260045260246000fd5b600082611ea957634e487b7160e01b600052601260045260246000fd5b500490565b600060208284031215611ec057600080fd5b815160ff8116811461166d57600080fd5b805169ffffffffffffffffffff81168114611b6b57600080fd5b600080600080600060a08688031215611f0357600080fd5b611f0c86611ed1565b9450602086015193506040860151925060608601519150611f2f60808701611ed1565b90509295509295909350565b60008060408385031215611f4e57600080fd5b825180601b0b8114611f5f57600080fd5b602084015190925063ffffffff81168114611f7957600080fd5b809150509250929050565b8181038181111561179f5761179f611e49565b60008251611fa9818460208701611ccb565b919091019291505056fe360894a13ba1a3210667c828492db98dca3e2076cc3735a920a3ca505d382bbca164736f6c6343000817000a",
  "devdoc": {
    "errors": {
      "AddressEmptyCode(address)": [
        {
          "details": "There's no code at `target` (it is not a contract)."
        }
      ],
      "ERC1967InvalidImplementation(address)": [
        {
          "details": "The `implementation` of the proxy is invalid."
        }
      ],
      "ERC1967NonPayable()": [
        {
          "details": "An upgrade function sees `msg.value > 0` that may be lost."
        }
      ],
      "FailedInnerCall()": [
        {
          "details": "A call to an address target failed. The target may have reverted."
        }
      ],
      "InvalidInitialization()": [
        {
          "details": "The contract is already initialized."
        }
      ],
      "NotInitializing()": [
        {
          "details": "The contract is not initializing."
        }
      ],
      "OwnableInvalidOwner(address)": [
        {
          "details": "The owner is not a valid owner account. (eg. `address(0)`)"
        }
      ],
      "OwnableUnauthorizedAccount(address)": [
        {
          "details": "The caller account is not authorized to perform an operation."
        }
      ],
      "UUPSUnauthorizedCallContext()": [
        {
          "details": "The call is from an unauthorized context."
        }
      ],
      "UUPSUnsupportedProxiableUUID(bytes32)": [
        {
          "details": "The storage `slot` is unsupported as a UUID."
        }
      ]
    },
    "events": {
      "Initialized(uint64)": {
        "details": "Triggered when the contract has been initialized or reinitialized."
      },
      "Upgraded(address)": {
        "details": "Emitted when the implementation is upgraded."
      }
    },
    "kind": "dev",
    "methods": {
      "fetchPrice(address)": {
        "details": "Callers:     - BorrowerOperations.openTrenBox()     - BorrowerOperations.adjustTrenBox()     - BorrowerOperations.closeTrenBox()     - TrenBoxManagerOperations.liquidateTrenBoxes()     - TrenBoxManagerOperations.batchLiquidateTrenBoxes()     - TrenBoxManagerOperations.redeemCollateral()"
      },
      "owner()": {
        "details": "Returns the address of the current owner."
      },
      "proxiableUUID()": {
        "details": "Implementation of the ERC1822 {proxiableUUID} function. This returns the storage slot used by the implementation. It is used to validate the implementation's compatibility when performing an upgrade. IMPORTANT: A proxy pointing at a proxiable contract should not be considered proxiable itself, because this risks bricking a proxy that upgrades to it, by delegating to itself until out of gas. Thus it is critical that this function revert if invoked through a proxy. This is guaranteed by the `notDelegated` modifier."
      },
      "renounceOwnership()": {
        "details": "Leaves the contract without owner. It will not be possible to call `onlyOwner` functions. Can only be called by the current owner. NOTE: Renouncing ownership will leave the contract without an owner, thereby disabling any functionality that is only available to the owner."
      },
      "transferOwnership(address)": {
        "details": "Transfers ownership of the contract to a new account (`newOwner`). Can only be called by the current owner."
      },
      "upgradeToAndCall(address,bytes)": {
        "custom:oz-upgrades-unsafe-allow-reachable": "delegatecall",
        "details": "Upgrade the implementation of the proxy to `newImplementation`, and subsequently execute the function call encoded in `data`. Calls {_authorizeUpgrade}. Emits an {Upgraded} event."
      }
    },
    "stateVariables": {
      "RESPONSE_TIMEOUT": {
        "details": "Deprecated, but retained for upgradeability"
      },
      "TARGET_DIGITS": {
        "details": "Used to convert an oracle price answer to an 18-digit precision uint"
      },
      "oracleRecords": {
        "details": "Deprecated, but retained for upgradeability"
      }
    },
    "title": "The PriceFeed contract contains a directory of oracles for fetching prices for assets based on their     addresses; optionally fallback oracles can also be registered in case the primary source fails or is stale.",
    "version": 1
  },
  "userdoc": {
    "kind": "user",
    "methods": {
      "fetchPrice(address)": {
        "notice": "Fetches the price for an asset from a previosly configured oracle."
      }
    },
    "version": 1
  },
  "storageLayout": {
    "storage": [
      {
        "astId": 9891,
        "contract": "contracts/PriceFeed.sol:PriceFeed",
        "label": "activePool",
        "offset": 0,
        "slot": "0",
        "type": "t_address"
      },
      {
        "astId": 9893,
        "contract": "contracts/PriceFeed.sol:PriceFeed",
        "label": "adminContract",
        "offset": 0,
        "slot": "1",
        "type": "t_address"
      },
      {
        "astId": 9895,
        "contract": "contracts/PriceFeed.sol:PriceFeed",
        "label": "borrowerOperations",
        "offset": 0,
        "slot": "2",
        "type": "t_address"
      },
      {
        "astId": 9897,
        "contract": "contracts/PriceFeed.sol:PriceFeed",
        "label": "collSurplusPool",
        "offset": 0,
        "slot": "3",
        "type": "t_address"
      },
      {
        "astId": 9899,
        "contract": "contracts/PriceFeed.sol:PriceFeed",
        "label": "communityIssuance",
        "offset": 0,
        "slot": "4",
        "type": "t_address"
      },
      {
        "astId": 9901,
        "contract": "contracts/PriceFeed.sol:PriceFeed",
        "label": "debtToken",
        "offset": 0,
        "slot": "5",
        "type": "t_address"
      },
      {
        "astId": 9903,
        "contract": "contracts/PriceFeed.sol:PriceFeed",
        "label": "defaultPool",
        "offset": 0,
        "slot": "6",
        "type": "t_address"
      },
      {
        "astId": 9905,
        "contract": "contracts/PriceFeed.sol:PriceFeed",
        "label": "feeCollector",
        "offset": 0,
        "slot": "7",
        "type": "t_address"
      },
      {
        "astId": 9907,
        "contract": "contracts/PriceFeed.sol:PriceFeed",
        "label": "gasPoolAddress",
        "offset": 0,
        "slot": "8",
        "type": "t_address"
      },
      {
        "astId": 9909,
        "contract": "contracts/PriceFeed.sol:PriceFeed",
        "label": "trenStaking",
        "offset": 0,
        "slot": "9",
        "type": "t_address"
      },
      {
        "astId": 9911,
        "contract": "contracts/PriceFeed.sol:PriceFeed",
        "label": "priceFeed",
        "offset": 0,
        "slot": "10",
        "type": "t_address"
      },
      {
        "astId": 9913,
        "contract": "contracts/PriceFeed.sol:PriceFeed",
        "label": "sortedTrenBoxes",
        "offset": 0,
        "slot": "11",
        "type": "t_address"
      },
      {
        "astId": 9915,
        "contract": "contracts/PriceFeed.sol:PriceFeed",
        "label": "stabilityPool",
        "offset": 0,
        "slot": "12",
        "type": "t_address"
      },
      {
        "astId": 9917,
        "contract": "contracts/PriceFeed.sol:PriceFeed",
        "label": "timelockAddress",
        "offset": 0,
        "slot": "13",
        "type": "t_address"
      },
      {
        "astId": 9919,
        "contract": "contracts/PriceFeed.sol:PriceFeed",
        "label": "treasuryAddress",
        "offset": 0,
        "slot": "14",
        "type": "t_address"
      },
      {
        "astId": 9921,
        "contract": "contracts/PriceFeed.sol:PriceFeed",
        "label": "trenBoxManager",
        "offset": 0,
        "slot": "15",
        "type": "t_address"
      },
      {
        "astId": 9923,
        "contract": "contracts/PriceFeed.sol:PriceFeed",
        "label": "trenBoxManagerOperations",
        "offset": 0,
        "slot": "16",
        "type": "t_address"
      },
      {
        "astId": 9925,
        "contract": "contracts/PriceFeed.sol:PriceFeed",
        "label": "isAddressSetupInitialized",
        "offset": 20,
        "slot": "16",
        "type": "t_bool"
      },
      {
        "astId": 9930,
        "contract": "contracts/PriceFeed.sol:PriceFeed",
        "label": "__gap",
        "offset": 0,
        "slot": "17",
        "type": "t_array(t_uint256)33_storage"
      },
      {
        "astId": 14135,
        "contract": "contracts/PriceFeed.sol:PriceFeed",
        "label": "oracleRecords",
        "offset": 0,
        "slot": "50",
        "type": "t_mapping(t_address,t_struct(OracleRecord)12698_storage)"
      },
      {
        "astId": 14140,
        "contract": "contracts/PriceFeed.sol:PriceFeed",
        "label": "priceRecords",
        "offset": 0,
        "slot": "51",
        "type": "t_mapping(t_address,t_struct(PriceRecord)12704_storage)"
      },
      {
        "astId": 14145,
        "contract": "contracts/PriceFeed.sol:PriceFeed",
        "label": "oracles",
        "offset": 0,
        "slot": "52",
        "type": "t_mapping(t_address,t_struct(OracleRecordV2)12686_storage)"
      },
      {
        "astId": 14150,
        "contract": "contracts/PriceFeed.sol:PriceFeed",
        "label": "fallbacks",
        "offset": 0,
        "slot": "53",
        "type": "t_mapping(t_address,t_struct(OracleRecordV2)12686_storage)"
      }
    ],
    "types": {
      "t_address": {
        "encoding": "inplace",
        "label": "address",
        "numberOfBytes": "20"
      },
      "t_array(t_uint256)33_storage": {
        "base": "t_uint256",
        "encoding": "inplace",
        "label": "uint256[33]",
        "numberOfBytes": "1056"
      },
      "t_bool": {
        "encoding": "inplace",
        "label": "bool",
        "numberOfBytes": "1"
      },
      "t_enum(ProviderType)12674": {
        "encoding": "inplace",
        "label": "enum IPriceFeed.ProviderType",
        "numberOfBytes": "1"
      },
      "t_mapping(t_address,t_struct(OracleRecord)12698_storage)": {
        "encoding": "mapping",
        "key": "t_address",
        "label": "mapping(address => struct IPriceFeed.OracleRecord)",
        "numberOfBytes": "32",
        "value": "t_struct(OracleRecord)12698_storage"
      },
      "t_mapping(t_address,t_struct(OracleRecordV2)12686_storage)": {
        "encoding": "mapping",
        "key": "t_address",
        "label": "mapping(address => struct IPriceFeed.OracleRecordV2)",
        "numberOfBytes": "32",
        "value": "t_struct(OracleRecordV2)12686_storage"
      },
      "t_mapping(t_address,t_struct(PriceRecord)12704_storage)": {
        "encoding": "mapping",
        "key": "t_address",
        "label": "mapping(address => struct IPriceFeed.PriceRecord)",
        "numberOfBytes": "32",
        "value": "t_struct(PriceRecord)12704_storage"
      },
      "t_struct(OracleRecord)12698_storage": {
        "encoding": "inplace",
        "label": "struct IPriceFeed.OracleRecord",
        "members": [
          {
            "astId": 12689,
            "contract": "contracts/PriceFeed.sol:PriceFeed",
            "label": "chainLinkOracle",
            "offset": 0,
            "slot": "0",
            "type": "t_address"
          },
          {
            "astId": 12691,
            "contract": "contracts/PriceFeed.sol:PriceFeed",
            "label": "maxDeviationBetweenRounds",
            "offset": 0,
            "slot": "1",
            "type": "t_uint256"
          },
          {
            "astId": 12693,
            "contract": "contracts/PriceFeed.sol:PriceFeed",
            "label": "exists",
            "offset": 0,
            "slot": "2",
            "type": "t_bool"
          },
          {
            "astId": 12695,
            "contract": "contracts/PriceFeed.sol:PriceFeed",
            "label": "isFeedWorking",
            "offset": 1,
            "slot": "2",
            "type": "t_bool"
          },
          {
            "astId": 12697,
            "contract": "contracts/PriceFeed.sol:PriceFeed",
            "label": "isEthIndexed",
            "offset": 2,
            "slot": "2",
            "type": "t_bool"
          }
        ],
        "numberOfBytes": "96"
      },
      "t_struct(OracleRecordV2)12686_storage": {
        "encoding": "inplace",
        "label": "struct IPriceFeed.OracleRecordV2",
        "members": [
          {
            "astId": 12676,
            "contract": "contracts/PriceFeed.sol:PriceFeed",
            "label": "oracleAddress",
            "offset": 0,
            "slot": "0",
            "type": "t_address"
          },
          {
            "astId": 12679,
            "contract": "contracts/PriceFeed.sol:PriceFeed",
            "label": "providerType",
            "offset": 20,
            "slot": "0",
            "type": "t_enum(ProviderType)12674"
          },
          {
            "astId": 12681,
            "contract": "contracts/PriceFeed.sol:PriceFeed",
            "label": "timeoutSeconds",
            "offset": 0,
            "slot": "1",
            "type": "t_uint256"
          },
          {
            "astId": 12683,
            "contract": "contracts/PriceFeed.sol:PriceFeed",
            "label": "decimals",
            "offset": 0,
            "slot": "2",
            "type": "t_uint256"
          },
          {
            "astId": 12685,
            "contract": "contracts/PriceFeed.sol:PriceFeed",
            "label": "isEthIndexed",
            "offset": 0,
            "slot": "3",
            "type": "t_bool"
          }
        ],
        "numberOfBytes": "128"
      },
      "t_struct(PriceRecord)12704_storage": {
        "encoding": "inplace",
        "label": "struct IPriceFeed.PriceRecord",
        "members": [
          {
            "astId": 12701,
            "contract": "contracts/PriceFeed.sol:PriceFeed",
            "label": "scaledPrice",
            "offset": 0,
            "slot": "0",
            "type": "t_uint256"
          },
          {
            "astId": 12703,
            "contract": "contracts/PriceFeed.sol:PriceFeed",
            "label": "timestamp",
            "offset": 0,
            "slot": "1",
            "type": "t_uint256"
          }
        ],
        "numberOfBytes": "64"
      },
      "t_uint256": {
        "encoding": "inplace",
        "label": "uint256",
        "numberOfBytes": "32"
      }
    }
  }
}