{
  "address": "0x8cecfe0ce5fe55ca3cd64cda3673ea60722edbf5",
  "abi": [
    {
      "inputs": [
        {
          "internalType": "address",
          "name": "target",
          "type": "address"
        }
      ],
      "name": "AddressEmptyCode",
      "type": "error"
    },
    {
      "inputs": [
        {
          "internalType": "address",
          "name": "implementation",
          "type": "address"
        }
      ],
      "name": "ERC1967InvalidImplementation",
      "type": "error"
    },
    {
      "inputs": [],
      "name": "ERC1967NonPayable",
      "type": "error"
    },
    {
      "inputs": [],
      "name": "FailedInnerCall",
      "type": "error"
    },
    {
      "inputs": [],
      "name": "InvalidInitialization",
      "type": "error"
    },
    {
      "inputs": [],
      "name": "NotInitializing",
      "type": "error"
    },
    {
      "inputs": [
        {
          "internalType": "address",
          "name": "owner",
          "type": "address"
        }
      ],
      "name": "OwnableInvalidOwner",
      "type": "error"
    },
    {
      "inputs": [
        {
          "internalType": "address",
          "name": "account",
          "type": "address"
        }
      ],
      "name": "OwnableUnauthorizedAccount",
      "type": "error"
    },
    {
      "inputs": [],
      "name": "UUPSUnauthorizedCallContext",
      "type": "error"
    },
    {
      "inputs": [
        {
          "internalType": "bytes32",
          "name": "slot",
          "type": "bytes32"
        }
      ],
      "name": "UUPSUnsupportedProxiableUUID",
      "type": "error"
    },
    {
      "anonymous": false,
      "inputs": [
        {
          "indexed": false,
          "internalType": "uint64",
          "name": "version",
          "type": "uint64"
        }
      ],
      "name": "Initialized",
      "type": "event"
    },
    {
      "anonymous": false,
      "inputs": [
        {
          "indexed": true,
          "internalType": "address",
          "name": "_asset",
          "type": "address"
        },
        {
          "indexed": false,
          "internalType": "address",
          "name": "_id",
          "type": "address"
        },
        {
          "indexed": false,
          "internalType": "uint256",
          "name": "_NICR",
          "type": "uint256"
        }
      ],
      "name": "NodeAdded",
      "type": "event"
    },
    {
      "anonymous": false,
      "inputs": [
        {
          "indexed": true,
          "internalType": "address",
          "name": "_asset",
          "type": "address"
        },
        {
          "indexed": false,
          "internalType": "address",
          "name": "_id",
          "type": "address"
        }
      ],
      "name": "NodeRemoved",
      "type": "event"
    },
    {
      "anonymous": false,
      "inputs": [
        {
          "indexed": true,
          "internalType": "address",
          "name": "previousOwner",
          "type": "address"
        },
        {
          "indexed": true,
          "internalType": "address",
          "name": "newOwner",
          "type": "address"
        }
      ],
      "name": "OwnershipTransferred",
      "type": "event"
    },
    {
      "anonymous": false,
      "inputs": [
        {
          "indexed": true,
          "internalType": "address",
          "name": "implementation",
          "type": "address"
        }
      ],
      "name": "Upgraded",
      "type": "event"
    },
    {
      "inputs": [],
      "name": "NAME",
      "outputs": [
        {
          "internalType": "string",
          "name": "",
          "type": "string"
        }
      ],
      "stateMutability": "view",
      "type": "function"
    },
    {
      "inputs": [],
      "name": "UPGRADE_INTERFACE_VERSION",
      "outputs": [
        {
          "internalType": "string",
          "name": "",
          "type": "string"
        }
      ],
      "stateMutability": "view",
      "type": "function"
    },
    {
      "inputs": [],
      "name": "activePool",
      "outputs": [
        {
          "internalType": "address",
          "name": "",
          "type": "address"
        }
      ],
      "stateMutability": "view",
      "type": "function"
    },
    {
      "inputs": [],
      "name": "adminContract",
      "outputs": [
        {
          "internalType": "address",
          "name": "",
          "type": "address"
        }
      ],
      "stateMutability": "view",
      "type": "function"
    },
    {
      "inputs": [
        {
          "internalType": "address",
          "name": "newImplementation",
          "type": "address"
        }
      ],
      "name": "authorizeUpgrade",
      "outputs": [],
      "stateMutability": "nonpayable",
      "type": "function"
    },
    {
      "inputs": [],
      "name": "borrowerOperations",
      "outputs": [
        {
          "internalType": "address",
          "name": "",
          "type": "address"
        }
      ],
      "stateMutability": "view",
      "type": "function"
    },
    {
      "inputs": [],
      "name": "collSurplusPool",
      "outputs": [
        {
          "internalType": "address",
          "name": "",
          "type": "address"
        }
      ],
      "stateMutability": "view",
      "type": "function"
    },
    {
      "inputs": [],
      "name": "communityIssuance",
      "outputs": [
        {
          "internalType": "address",
          "name": "",
          "type": "address"
        }
      ],
      "stateMutability": "view",
      "type": "function"
    },
    {
      "inputs": [
        {
          "internalType": "address",
          "name": "_asset",
          "type": "address"
        },
        {
          "internalType": "address",
          "name": "_id",
          "type": "address"
        }
      ],
      "name": "contains",
      "outputs": [
        {
          "internalType": "bool",
          "name": "",
          "type": "bool"
        }
      ],
      "stateMutability": "view",
      "type": "function"
    },
    {
      "inputs": [
        {
          "internalType": "address",
          "name": "",
          "type": "address"
        }
      ],
      "name": "data",
      "outputs": [
        {
          "internalType": "address",
          "name": "head",
          "type": "address"
        },
        {
          "internalType": "address",
          "name": "tail",
          "type": "address"
        },
        {
          "internalType": "uint256",
          "name": "size",
          "type": "uint256"
        }
      ],
      "stateMutability": "view",
      "type": "function"
    },
    {
      "inputs": [],
      "name": "debtToken",
      "outputs": [
        {
          "internalType": "address",
          "name": "",
          "type": "address"
        }
      ],
      "stateMutability": "view",
      "type": "function"
    },
    {
      "inputs": [],
      "name": "defaultPool",
      "outputs": [
        {
          "internalType": "address",
          "name": "",
          "type": "address"
        }
      ],
      "stateMutability": "view",
      "type": "function"
    },
    {
      "inputs": [],
      "name": "feeCollector",
      "outputs": [
        {
          "internalType": "address",
          "name": "",
          "type": "address"
        }
      ],
      "stateMutability": "view",
      "type": "function"
    },
    {
      "inputs": [
        {
          "internalType": "address",
          "name": "_asset",
          "type": "address"
        },
        {
          "internalType": "uint256",
          "name": "_NICR",
          "type": "uint256"
        },
        {
          "internalType": "address",
          "name": "_prevId",
          "type": "address"
        },
        {
          "internalType": "address",
          "name": "_nextId",
          "type": "address"
        }
      ],
      "name": "findInsertPosition",
      "outputs": [
        {
          "internalType": "address",
          "name": "",
          "type": "address"
        },
        {
          "internalType": "address",
          "name": "",
          "type": "address"
        }
      ],
      "stateMutability": "view",
      "type": "function"
    },
    {
      "inputs": [],
      "name": "gasPoolAddress",
      "outputs": [
        {
          "internalType": "address",
          "name": "",
          "type": "address"
        }
      ],
      "stateMutability": "view",
      "type": "function"
    },
    {
      "inputs": [
        {
          "internalType": "address",
          "name": "_asset",
          "type": "address"
        }
      ],
      "name": "getFirst",
      "outputs": [
        {
          "internalType": "address",
          "name": "",
          "type": "address"
        }
      ],
      "stateMutability": "view",
      "type": "function"
    },
    {
      "inputs": [
        {
          "internalType": "address",
          "name": "_asset",
          "type": "address"
        }
      ],
      "name": "getLast",
      "outputs": [
        {
          "internalType": "address",
          "name": "",
          "type": "address"
        }
      ],
      "stateMutability": "view",
      "type": "function"
    },
    {
      "inputs": [
        {
          "internalType": "address",
          "name": "_asset",
          "type": "address"
        },
        {
          "internalType": "address",
          "name": "_id",
          "type": "address"
        }
      ],
      "name": "getNext",
      "outputs": [
        {
          "internalType": "address",
          "name": "",
          "type": "address"
        }
      ],
      "stateMutability": "view",
      "type": "function"
    },
    {
      "inputs": [
        {
          "internalType": "address",
          "name": "_asset",
          "type": "address"
        },
        {
          "internalType": "address",
          "name": "_id",
          "type": "address"
        }
      ],
      "name": "getPrev",
      "outputs": [
        {
          "internalType": "address",
          "name": "",
          "type": "address"
        }
      ],
      "stateMutability": "view",
      "type": "function"
    },
    {
      "inputs": [
        {
          "internalType": "address",
          "name": "_asset",
          "type": "address"
        }
      ],
      "name": "getSize",
      "outputs": [
        {
          "internalType": "uint256",
          "name": "",
          "type": "uint256"
        }
      ],
      "stateMutability": "view",
      "type": "function"
    },
    {
      "inputs": [],
      "name": "initialize",
      "outputs": [],
      "stateMutability": "nonpayable",
      "type": "function"
    },
    {
      "inputs": [
        {
          "internalType": "address",
          "name": "_asset",
          "type": "address"
        },
        {
          "internalType": "address",
          "name": "_id",
          "type": "address"
        },
        {
          "internalType": "uint256",
          "name": "_NICR",
          "type": "uint256"
        },
        {
          "internalType": "address",
          "name": "_prevId",
          "type": "address"
        },
        {
          "internalType": "address",
          "name": "_nextId",
          "type": "address"
        }
      ],
      "name": "insert",
      "outputs": [],
      "stateMutability": "nonpayable",
      "type": "function"
    },
    {
      "inputs": [],
      "name": "isAddressSetupInitialized",
      "outputs": [
        {
          "internalType": "bool",
          "name": "",
          "type": "bool"
        }
      ],
      "stateMutability": "view",
      "type": "function"
    },
    {
      "inputs": [
        {
          "internalType": "address",
          "name": "_asset",
          "type": "address"
        }
      ],
      "name": "isEmpty",
      "outputs": [
        {
          "internalType": "bool",
          "name": "",
          "type": "bool"
        }
      ],
      "stateMutability": "view",
      "type": "function"
    },
    {
      "inputs": [],
      "name": "owner",
      "outputs": [
        {
          "internalType": "address",
          "name": "",
          "type": "address"
        }
      ],
      "stateMutability": "view",
      "type": "function"
    },
    {
      "inputs": [],
      "name": "priceFeed",
      "outputs": [
        {
          "internalType": "address",
          "name": "",
          "type": "address"
        }
      ],
      "stateMutability": "view",
      "type": "function"
    },
    {
      "inputs": [],
      "name": "proxiableUUID",
      "outputs": [
        {
          "internalType": "bytes32",
          "name": "",
          "type": "bytes32"
        }
      ],
      "stateMutability": "view",
      "type": "function"
    },
    {
      "inputs": [
        {
          "internalType": "address",
          "name": "_asset",
          "type": "address"
        },
        {
          "internalType": "address",
          "name": "_id",
          "type": "address"
        },
        {
          "internalType": "uint256",
          "name": "_newNICR",
          "type": "uint256"
        },
        {
          "internalType": "address",
          "name": "_prevId",
          "type": "address"
        },
        {
          "internalType": "address",
          "name": "_nextId",
          "type": "address"
        }
      ],
      "name": "reInsert",
      "outputs": [],
      "stateMutability": "nonpayable",
      "type": "function"
    },
    {
      "inputs": [
        {
          "internalType": "address",
          "name": "_asset",
          "type": "address"
        },
        {
          "internalType": "address",
          "name": "_id",
          "type": "address"
        }
      ],
      "name": "remove",
      "outputs": [],
      "stateMutability": "nonpayable",
      "type": "function"
    },
    {
      "inputs": [],
      "name": "renounceOwnership",
      "outputs": [],
      "stateMutability": "nonpayable",
      "type": "function"
    },
    {
      "inputs": [
        {
          "internalType": "address[]",
          "name": "_addresses",
          "type": "address[]"
        }
      ],
      "name": "setAddresses",
      "outputs": [],
      "stateMutability": "nonpayable",
      "type": "function"
    },
    {
      "inputs": [
        {
          "internalType": "address",
          "name": "_communityIssuance",
          "type": "address"
        }
      ],
      "name": "setCommunityIssuance",
      "outputs": [],
      "stateMutability": "nonpayable",
      "type": "function"
    },
    {
      "inputs": [
        {
          "internalType": "address",
          "name": "_trenStaking",
          "type": "address"
        }
      ],
      "name": "setTRENStaking",
      "outputs": [],
      "stateMutability": "nonpayable",
      "type": "function"
    },
    {
      "inputs": [],
      "name": "sortedTrenBoxes",
      "outputs": [
        {
          "internalType": "address",
          "name": "",
          "type": "address"
        }
      ],
      "stateMutability": "view",
      "type": "function"
    },
    {
      "inputs": [],
      "name": "stabilityPool",
      "outputs": [
        {
          "internalType": "address",
          "name": "",
          "type": "address"
        }
      ],
      "stateMutability": "view",
      "type": "function"
    },
    {
      "inputs": [],
      "name": "timelockAddress",
      "outputs": [
        {
          "internalType": "address",
          "name": "",
          "type": "address"
        }
      ],
      "stateMutability": "view",
      "type": "function"
    },
    {
      "inputs": [
        {
          "internalType": "address",
          "name": "newOwner",
          "type": "address"
        }
      ],
      "name": "transferOwnership",
      "outputs": [],
      "stateMutability": "nonpayable",
      "type": "function"
    },
    {
      "inputs": [],
      "name": "treasuryAddress",
      "outputs": [
        {
          "internalType": "address",
          "name": "",
          "type": "address"
        }
      ],
      "stateMutability": "view",
      "type": "function"
    },
    {
      "inputs": [],
      "name": "trenBoxManager",
      "outputs": [
        {
          "internalType": "address",
          "name": "",
          "type": "address"
        }
      ],
      "stateMutability": "view",
      "type": "function"
    },
    {
      "inputs": [],
      "name": "trenBoxManagerOperations",
      "outputs": [
        {
          "internalType": "address",
          "name": "",
          "type": "address"
        }
      ],
      "stateMutability": "view",
      "type": "function"
    },
    {
      "inputs": [],
      "name": "trenStaking",
      "outputs": [
        {
          "internalType": "address",
          "name": "",
          "type": "address"
        }
      ],
      "stateMutability": "view",
      "type": "function"
    },
    {
      "inputs": [
        {
          "internalType": "address",
          "name": "newImplementation",
          "type": "address"
        },
        {
          "internalType": "bytes",
          "name": "data",
          "type": "bytes"
        }
      ],
      "name": "upgradeToAndCall",
      "outputs": [],
      "stateMutability": "payable",
      "type": "function"
    },
    {
      "inputs": [
        {
          "internalType": "address",
          "name": "_asset",
          "type": "address"
        },
        {
          "internalType": "uint256",
          "name": "_NICR",
          "type": "uint256"
        },
        {
          "internalType": "address",
          "name": "_prevId",
          "type": "address"
        },
        {
          "internalType": "address",
          "name": "_nextId",
          "type": "address"
        }
      ],
      "name": "validInsertPosition",
      "outputs": [
        {
          "internalType": "bool",
          "name": "",
          "type": "bool"
        }
      ],
      "stateMutability": "view",
      "type": "function"
    }
  ],
  "transactionHash": "0x304dbae171947ecc26ffdc39686f0d303b7e3c6acd5ad5355ae4c8ed996690fd",
  "args": [],
  "numDeployments": 1,
  "solcInputHash": "e6971fb87a17deef3641f1719687e39f",
  "bytecode": "0x60a06040523060805234801561001457600080fd5b506080516128be61003e600039600081816112250152818161124e015261139401526128be6000f3fe60806040526004361061025c5760003560e01c80638da5cb5b11610144578063c8564c62116100b6578063ed26cae81161007a578063ed26cae814610858578063f1c05a7e14610878578063f2fde38b14610898578063f8d89898146108b8578063fe060733146108d8578063fe9d0323146108f857600080fd5b8063c8564c621461078b578063cc8b21e4146107ac578063cda775f9146107cc578063e71b8400146107ec578063eceea2fb1461083857600080fd5b8063b957172111610108578063b9571721146106bd578063bc9b5bd5146106dd578063bff365c4146106fd578063c05c5e941461072b578063c415b95c1461074b578063c5f956af1461076b57600080fd5b80638da5cb5b1461057857806395fb16bb146105b5578063a3f4df7e146105d5578063ad3cb1cc1461061d578063b90d3d0c1461064e57600080fd5b806352d1902d116101dd57806376082715116101a157806376082715146104a757806377553ad4146104e35780637c933c0a146105035780637f7c1491146105235780637f7dde4a146105435780638129fc1c1461056357600080fd5b806352d1902d1461041d57806355dafa46146104325780636a85d67d14610452578063715018a614610472578063741bef1a1461048757600080fd5b80633b725b23116102245780633b725b23146103395780633cc74225146103835780634bc66f32146103a35780634f1ef286146103c3578063504f1671146103d657600080fd5b806301c9310014610261578063048c661d146102835780630a34d4d6146102c05780631bdb4c8d146102e057806339ed25cd14610319575b600080fd5b34801561026d57600080fd5b5061028161027c3660046124c0565b610918565b005b34801561028f57600080fd5b50600c546102a3906001600160a01b031681565b6040516001600160a01b0390911681526020015b60405180910390f35b3480156102cc57600080fd5b506010546102a3906001600160a01b031681565b3480156102ec57600080fd5b506102a36102fb3660046124c0565b6001600160a01b039081166000908152603260205260409020541690565b34801561032557600080fd5b506102a36103343660046124db565b610942565b34801561034557600080fd5b506103736103543660046124c0565b6001600160a01b03166000908152603260205260409020600201541590565b60405190151581526020016102b7565b34801561038f57600080fd5b506006546102a3906001600160a01b031681565b3480156103af57600080fd5b50600d546102a3906001600160a01b031681565b6102816103d1366004612524565b610979565b3480156103e257600080fd5b5061040f6103f13660046124c0565b6001600160a01b031660009081526032602052604090206002015490565b6040519081526020016102b7565b34801561042957600080fd5b5061040f610998565b34801561043e57600080fd5b506009546102a3906001600160a01b031681565b34801561045e57600080fd5b5061028161046d3660046124c0565b6109b5565b34801561047e57600080fd5b506102816109df565b34801561049357600080fd5b50600a546102a3906001600160a01b031681565b3480156104b357600080fd5b506102a36104c23660046124c0565b6001600160a01b039081166000908152603260205260409020600101541690565b3480156104ef57600080fd5b506002546102a3906001600160a01b031681565b34801561050f57600080fd5b5061028161051e3660046125e6565b6109f3565b34801561052f57600080fd5b5061028161053e3660046124db565b610a0f565b34801561054f57600080fd5b506000546102a3906001600160a01b031681565b34801561056f57600080fd5b50610281610a21565b34801561058457600080fd5b507f9016d09d72d40fdae2fd8ceac6b6234c7706214fd39c1cd1e609a0528c199300546001600160a01b03166102a3565b3480156105c157600080fd5b506004546102a3906001600160a01b031681565b3480156105e157600080fd5b506106106040518060400160405280600f81526020016e536f727465645472656e426f78657360881b81525081565b6040516102b79190612668565b34801561062957600080fd5b50610610604051806040016040528060058152602001640352e302e360dc1b81525081565b34801561065a57600080fd5b506106976106693660046124c0565b6032602052600090815260409020805460018201546002909201546001600160a01b03918216929091169083565b604080516001600160a01b039485168152939092166020840152908201526060016102b7565b3480156106c957600080fd5b506102816106d836600461269b565b610b39565b3480156106e957600080fd5b506102816106f83660046125e6565b6110b8565b34801561070957600080fd5b5061071d610718366004612710565b611110565b6040516102b792919061275d565b34801561073757600080fd5b506001546102a3906001600160a01b031681565b34801561075757600080fd5b506007546102a3906001600160a01b031681565b34801561077757600080fd5b50600e546102a3906001600160a01b031681565b34801561079757600080fd5b5060105461037390600160a01b900460ff1681565b3480156107b857600080fd5b50600b546102a3906001600160a01b031681565b3480156107d857600080fd5b506003546102a3906001600160a01b031681565b3480156107f857600080fd5b506102a36108073660046124db565b6001600160a01b03918216600090815260326020908152604080832093851683526003909301905220600101541690565b34801561084457600080fd5b50610373610853366004612710565b61112d565b34801561086457600080fd5b506103736108733660046124db565b611146565b34801561088457600080fd5b50600f546102a3906001600160a01b031681565b3480156108a457600080fd5b506102816108b33660046124c0565b611178565b3480156108c457600080fd5b506005546102a3906001600160a01b031681565b3480156108e457600080fd5b506102816108f33660046124c0565b6111b6565b34801561090457600080fd5b506008546102a3906001600160a01b031681565b6109206111bf565b600980546001600160a01b0319166001600160a01b0392909216919091179055565b6001600160a01b03808316600090815260326020908152604080832085851684526003019091529020546101009004165b92915050565b61098161121a565b61098a826112bf565b61099482826112c7565b5050565b60006109a2611389565b5060008051602061289283398151915290565b6109bd6111bf565b600480546001600160a01b0319166001600160a01b0392909216919091179055565b6109e76111bf565b6109f160006113d2565b565b6109fb611443565b610a0885858585856114cd565b5050505050565b610a176118a2565b6109948282611916565b7ff0c57e16840df040f15088dc2f81fe391c3923bec73e23a9662efc9c229c6a008054600160401b810460ff16159067ffffffffffffffff16600081158015610a675750825b905060008267ffffffffffffffff166001148015610a845750303b155b905081158015610a92575080155b15610ab05760405163f92ee8a960e01b815260040160405180910390fd5b845467ffffffffffffffff191660011785558315610ada57845460ff60401b1916600160401b1785555b33610ae481611b60565b610aec611b71565b508315610a0857845460ff60401b19168555604051600181527fc7f505b2f371ae2175ee4913f4499e1f2633a7b5936321eed1cdaeb6115181d29060200160405180910390a15050505050565b610b416111bf565b601054600160a01b900460ff1615610ba05760405162461bcd60e51b815260206004820152601c60248201527f536574757020697320616c726561647920696e697469616c697a65640000000060448201526064015b60405180910390fd5b600f8114610bf05760405162461bcd60e51b815260206004820152601e60248201527f45787065637465642031352061646472657373657320617420736574757000006044820152606401610b97565b60005b600f811015610c75576000838383818110610c1057610c10612777565b9050602002016020810190610c2591906124c0565b6001600160a01b031603610c6d5760405162461bcd60e51b815260206004820152600f60248201526e496e76616c6964206164647265737360881b6044820152606401610b97565b600101610bf3565b5081816000818110610c8957610c89612777565b9050602002016020810190610c9e91906124c0565b600080546001600160a01b0319166001600160a01b039290921691909117905581816001818110610cd157610cd1612777565b9050602002016020810190610ce691906124c0565b600180546001600160a01b0319166001600160a01b039290921691909117905581816002818110610d1957610d19612777565b9050602002016020810190610d2e91906124c0565b600280546001600160a01b0319166001600160a01b039290921691909117905581816003818110610d6157610d61612777565b9050602002016020810190610d7691906124c0565b600380546001600160a01b0319166001600160a01b039290921691909117905581816004818110610da957610da9612777565b9050602002016020810190610dbe91906124c0565b600580546001600160a01b0319166001600160a01b039290921691909117815582908290818110610df157610df1612777565b9050602002016020810190610e0691906124c0565b600680546001600160a01b0319166001600160a01b039290921691909117815582908290818110610e3957610e39612777565b9050602002016020810190610e4e91906124c0565b600780546001600160a01b0319166001600160a01b039290921691909117815582908290818110610e8157610e81612777565b9050602002016020810190610e9691906124c0565b600880546001600160a01b0319166001600160a01b039290921691909117815582908290818110610ec957610ec9612777565b9050602002016020810190610ede91906124c0565b600a80546001600160a01b0319166001600160a01b039290921691909117905581816009818110610f1157610f11612777565b9050602002016020810190610f2691906124c0565b600b80546001600160a01b0319166001600160a01b03929092169190911790558181600a818110610f5957610f59612777565b9050602002016020810190610f6e91906124c0565b600c80546001600160a01b0319166001600160a01b03929092169190911790558181600b818110610fa157610fa1612777565b9050602002016020810190610fb691906124c0565b600d80546001600160a01b0319166001600160a01b03929092169190911790558181600c818110610fe957610fe9612777565b9050602002016020810190610ffe91906124c0565b600e80546001600160a01b0319166001600160a01b03929092169190911790558181600d81811061103157611031612777565b905060200201602081019061104691906124c0565b600f80546001600160a01b0319166001600160a01b03929092169190911790558181600e81811061107957611079612777565b905060200201602081019061108e91906124c0565b601080546001600160a81b0319166001600160a01b039290921691909117600160a01b1790555050565b6110c0611443565b6110ca8585611146565b6110e65760405162461bcd60e51b8152600401610b979061278d565b826000036111065760405162461bcd60e51b8152600401610b97906127da565b6109fb8585611916565b60008061111f86868686611b79565b915091505b94509492505050565b600061113b85858585611d50565b90505b949350505050565b6001600160a01b0391821660009081526032602090815260408083209390941682526003909201909152205460ff1690565b6111806111bf565b6001600160a01b0381166111aa57604051631e4fbdf760e01b815260006004820152602401610b97565b6111b3816113d2565b50565b6111b3816112bf565b336111f17f9016d09d72d40fdae2fd8ceac6b6234c7706214fd39c1cd1e609a0528c199300546001600160a01b031690565b6001600160a01b0316146109f15760405163118cdaa760e01b8152336004820152602401610b97565b306001600160a01b037f00000000000000000000000000000000000000000000000000000000000000001614806112a157507f00000000000000000000000000000000000000000000000000000000000000006001600160a01b0316611295600080516020612892833981519152546001600160a01b031690565b6001600160a01b031614155b156109f15760405163703e46dd60e11b815260040160405180910390fd5b6111b36111bf565b816001600160a01b03166352d1902d6040518163ffffffff1660e01b8152600401602060405180830381865afa925050508015611321575060408051601f3d908101601f1916820190925261131e91810190612820565b60015b61134957604051634c9c8ce360e01b81526001600160a01b0383166004820152602401610b97565b600080516020612892833981519152811461137a57604051632a87526960e21b815260048101829052602401610b97565b6113848383611fec565b505050565b306001600160a01b037f000000000000000000000000000000000000000000000000000000000000000016146109f15760405163703e46dd60e11b815260040160405180910390fd5b7f9016d09d72d40fdae2fd8ceac6b6234c7706214fd39c1cd1e609a0528c19930080546001600160a01b031981166001600160a01b03848116918217845560405192169182907f8be0079c531659141344cd1fd0a4f28419497f9722a3daafe3b4186f6b6457e090600090a3505050565b6002546001600160a01b03163314806114665750600f546001600160a01b031633145b6109f15760405162461bcd60e51b815260206004820152603260248201527f536f727465645472656e426f7865733a2043616c6c6572206973206e65697468604482015271657220424f206e6f72205472656e426f784d60701b6064820152608401610b97565b6001600160a01b03858116600090815260326020908152604080832093881683526003840190915290205460ff16156115605760405162461bcd60e51b815260206004820152602f60248201527f536f727465645472656e426f7865733a204c69737420616c726561647920636f60448201526e6e7461696e7320746865206e6f646560881b6064820152608401610b97565b6001600160a01b0385166115c15760405162461bcd60e51b815260206004820152602260248201527f536f727465645472656e426f7865733a2049642063616e6e6f74206265207a65604482015261726f60f01b6064820152608401610b97565b836000036115e15760405162461bcd60e51b8152600401610b97906127da565b82826115ef88878484611d50565b611605576115ff88878484611b79565b90925090505b6001600160a01b0380881660009081526003850160205260409020805460ff1916600117815590831615801561164257506001600160a01b038216155b156116745783546001600160a01b0389166001600160a01b03199182168117865560018601805490921617905561183c565b6001600160a01b0383166116dc5783548154610100600160a81b0319166101006001600160a01b0392831602178255845481166000908152600386016020526040902060010180546001600160a01b0319908116928b1692831790915585541617845561183c565b6001600160a01b03821661174b576001848101805491830180546001600160a01b039384166001600160a01b03199182161790915581548316600090815260038801602052604090208054610100600160a81b031916610100948d16948502179055815416909117905561183c565b818160000160016101000a8154816001600160a01b0302191690836001600160a01b03160217905550828160010160006101000a8154816001600160a01b0302191690836001600160a01b0316021790555087846003016000856001600160a01b03166001600160a01b0316815260200190815260200160002060000160016101000a8154816001600160a01b0302191690836001600160a01b0316021790555087846003016000846001600160a01b03166001600160a01b0316815260200190815260200160002060010160006101000a8154816001600160a01b0302191690836001600160a01b031602179055505b600284015461184c90600161284f565b6002850155604080516001600160a01b038a81168252602082018a90528b16917fa74a9cd584cc27d44e7f746f6715fae75b600cc5eb8f85a95752788d6b4547a5910160405180910390a2505050505050505050565b600f546001600160a01b031633146109f15760405162461bcd60e51b815260206004820152603160248201527f536f727465645472656e426f7865733a2043616c6c6572206973206e6f7420746044820152703432902a3932b72137bc26b0b730b3b2b960791b6064820152608401610b97565b6001600160a01b03828116600090815260326020908152604080832093851683526003840190915290205460ff166119605760405162461bcd60e51b8152600401610b979061278d565b6001600160a01b03821660009081526003820160205260409020600282015460011015611aaf5781546001600160a01b03908116908416036119de57805482546101009091046001600160a01b03166001600160a01b0319918216811784556000908152600384016020526040902060010180549091169055611acb565b60018201546001600160a01b0390811690841603611a3f5760018082015490830180546001600160a01b0319166001600160a01b039092169182179055600090815260038301602052604090208054610100600160a81b0319169055611acb565b8054600180830180546001600160a01b03908116600090815260038701602052604080822080546101009788900485168802610100600160a81b03199091161790559254865495909504821681529190912090910180546001600160a01b03191692909116919091179055611acb565b81546001600160a01b0319908116835560018301805490911690555b6001600160a01b0383166000908152600383016020526040902080546001600160a81b0319168155600190810180546001600160a01b03191690556002830154611b159190612862565b60028301556040516001600160a01b0384811682528516907f202321eaea3aa2b5e1e2ef1dfd98a9d6ba8c90e293f5dc2755b32eb921a477979060200160405180910390a250505050565b611b68612042565b6111b38161208b565b6109f1612042565b60008083836001600160a01b03821615611c1e57611b978883611146565b1580611c145750600f546040516390ec230160e01b81526001600160a01b03909116906390ec230190611bd0908b90869060040161275d565b602060405180830381865afa158015611bed573d6000803e3d6000fd5b505050506040513d601f19601f82011682018060405250810190611c119190612820565b87115b15611c1e57600091505b6001600160a01b03811615611cbd57611c378882611146565b1580611cb45750600f546040516390ec230160e01b81526001600160a01b03909116906390ec230190611c70908b90859060040161275d565b602060405180830381865afa158015611c8d573d6000803e3d6000fd5b505050506040513d601f19601f82011682018060405250810190611cb19190612820565b87105b15611cbd575060005b6001600160a01b038216158015611cdb57506001600160a01b038116155b15611d13576001600160a01b03808916600090815260326020526040902054611d08918a918a9116612093565b935093505050611124565b6001600160a01b038216611d2c57611d088888836121dd565b6001600160a01b038116611d4557611d08888884612093565b611d08888884612093565b60006001600160a01b038316158015611d7057506001600160a01b038216155b15611d9a576001600160a01b038516600090815260326020526040902060020154155b905061113e565b6001600160a01b038316611e4c576001600160a01b038581166000908152603260205260409020548116908316148015611d935750600f546040516390ec230160e01b81526001600160a01b03909116906390ec230190611e01908890869060040161275d565b602060405180830381865afa158015611e1e573d6000803e3d6000fd5b505050506040513d601f19601f82011682018060405250810190611e429190612820565b841015905061113e565b6001600160a01b038216611f01576001600160a01b038581166000908152603260205260409020600101548116908416148015611d935750600f546040516390ec230160e01b81526001600160a01b03909116906390ec230190611eb6908890879060040161275d565b602060405180830381865afa158015611ed3573d6000803e3d6000fd5b505050506040513d601f19601f82011682018060405250810190611ef79190612820565b841115905061113e565b6001600160a01b038581166000908152603260209081526040808320878516845260030190915290205461010090048116908316148015611fb35750600f546040516390ec230160e01b815285916001600160a01b0316906390ec230190611f6f908990889060040161275d565b602060405180830381865afa158015611f8c573d6000803e3d6000fd5b505050506040513d601f19601f82011682018060405250810190611fb09190612820565b10155b8015611d935750600f546040516390ec230160e01b81526001600160a01b03909116906390ec230190611e01908890869060040161275d565b611ff582612322565b6040516001600160a01b038316907fbc7cd75a20ee27fd9adebab32041f755214dbc6bffa90cc0225b39da2e5c2d3b90600090a280511561203a576113848282612387565b6109946123fd565b7ff0c57e16840df040f15088dc2f81fe391c3923bec73e23a9662efc9c229c6a0054600160401b900460ff166109f157604051631afcd79f60e31b815260040160405180910390fd5b611180612042565b6001600160a01b03808416600090815260326020526040812080549192839281169085161480156121365750600f546040516390ec230160e01b81526001600160a01b03909116906390ec2301906120f1908990889060040161275d565b602060405180830381865afa15801561210e573d6000803e3d6000fd5b505050506040513d601f19601f820116820180604052508101906121329190612820565b8510155b156121485760008492509250506121d5565b6001600160a01b0380851660009081526003830160205260409020548591610100909104165b6001600160a01b0382161580159061218f575061218d88888484611d50565b155b156121ce57506001600160a01b03908116600090815260038301602052604080822054610100908190048416808452919092205490929190041661216e565b9093509150505b935093915050565b6001600160a01b03808416600090815260326020526040812060018101549192839281169085161480156122835750600f546040516390ec230160e01b81526001600160a01b03909116906390ec23019061223e908990889060040161275d565b602060405180830381865afa15801561225b573d6000803e3d6000fd5b505050506040513d601f19601f8201168201806040525081019061227f9190612820565b8511155b156122955783600092509250506121d5565b6001600160a01b0380851660009081526003830160205260409020600101548591165b6001600160a01b038216158015906122d957506122d788888385611d50565b155b1561231657506001600160a01b039081166000908152600383016020526040808220600190810154841680845291909220909101549091166122b8565b97909650945050505050565b806001600160a01b03163b60000361235857604051634c9c8ce360e01b81526001600160a01b0382166004820152602401610b97565b60008051602061289283398151915280546001600160a01b0319166001600160a01b0392909216919091179055565b6060600080846001600160a01b0316846040516123a49190612875565b600060405180830381855af49150503d80600081146123df576040519150601f19603f3d011682016040523d82523d6000602084013e6123e4565b606091505b50915091506123f485838361241c565b95945050505050565b34156109f15760405163b398979f60e01b815260040160405180910390fd5b6060826124315761242c8261247b565b612474565b815115801561244857506001600160a01b0384163b155b1561247157604051639996b31560e01b81526001600160a01b0385166004820152602401610b97565b50805b9392505050565b80511561248b5780518082602001fd5b604051630a12f52160e11b815260040160405180910390fd5b80356001600160a01b03811681146124bb57600080fd5b919050565b6000602082840312156124d257600080fd5b612474826124a4565b600080604083850312156124ee57600080fd5b6124f7836124a4565b9150612505602084016124a4565b90509250929050565b634e487b7160e01b600052604160045260246000fd5b6000806040838503121561253757600080fd5b612540836124a4565b9150602083013567ffffffffffffffff8082111561255d57600080fd5b818501915085601f83011261257157600080fd5b8135818111156125835761258361250e565b604051601f8201601f19908116603f011681019083821181831017156125ab576125ab61250e565b816040528281528860208487010111156125c457600080fd5b8260208601602083013760006020848301015280955050505050509250929050565b600080600080600060a086880312156125fe57600080fd5b612607866124a4565b9450612615602087016124a4565b93506040860135925061262a606087016124a4565b9150612638608087016124a4565b90509295509295909350565b60005b8381101561265f578181015183820152602001612647565b50506000910152565b6020815260008251806020840152612687816040850160208701612644565b601f01601f19169190910160400192915050565b600080602083850312156126ae57600080fd5b823567ffffffffffffffff808211156126c657600080fd5b818501915085601f8301126126da57600080fd5b8135818111156126e957600080fd5b8660208260051b85010111156126fe57600080fd5b60209290920196919550909350505050565b6000806000806080858703121561272657600080fd5b61272f856124a4565b935060208501359250612744604086016124a4565b9150612752606086016124a4565b905092959194509250565b6001600160a01b0392831681529116602082015260400190565b634e487b7160e01b600052603260045260246000fd5b6020808252602d908201527f536f727465645472656e426f7865733a204c69737420646f6573206e6f74206360408201526c1bdb9d185a5b881d1a19481a59609a1b606082015260800190565b60208082526026908201527f536f727465645472656e426f7865733a204e494352206d75737420626520706f60408201526573697469766560d01b606082015260800190565b60006020828403121561283257600080fd5b5051919050565b634e487b7160e01b600052601160045260246000fd5b8082018082111561097357610973612839565b8181038181111561097357610973612839565b60008251612887818460208701612644565b919091019291505056fe360894a13ba1a3210667c828492db98dca3e2076cc3735a920a3ca505d382bbca164736f6c6343000817000a",
  "devdoc": {
    "errors": {
      "AddressEmptyCode(address)": [
        {
          "details": "There's no code at `target` (it is not a contract)."
        }
      ],
      "ERC1967InvalidImplementation(address)": [
        {
          "details": "The `implementation` of the proxy is invalid."
        }
      ],
      "ERC1967NonPayable()": [
        {
          "details": "An upgrade function sees `msg.value > 0` that may be lost."
        }
      ],
      "FailedInnerCall()": [
        {
          "details": "A call to an address target failed. The target may have reverted."
        }
      ],
      "InvalidInitialization()": [
        {
          "details": "The contract is already initialized."
        }
      ],
      "NotInitializing()": [
        {
          "details": "The contract is not initializing."
        }
      ],
      "OwnableInvalidOwner(address)": [
        {
          "details": "The owner is not a valid owner account. (eg. `address(0)`)"
        }
      ],
      "OwnableUnauthorizedAccount(address)": [
        {
          "details": "The caller account is not authorized to perform an operation."
        }
      ],
      "UUPSUnauthorizedCallContext()": [
        {
          "details": "The call is from an unauthorized context."
        }
      ],
      "UUPSUnsupportedProxiableUUID(bytes32)": [
        {
          "details": "The storage `slot` is unsupported as a UUID."
        }
      ]
    },
    "events": {
      "Initialized(uint64)": {
        "details": "Triggered when the contract has been initialized or reinitialized."
      },
      "Upgraded(address)": {
        "details": "Emitted when the implementation is upgraded."
      }
    },
    "kind": "dev",
    "methods": {
      "owner()": {
        "details": "Returns the address of the current owner."
      },
      "proxiableUUID()": {
        "details": "Implementation of the ERC1822 {proxiableUUID} function. This returns the storage slot used by the implementation. It is used to validate the implementation's compatibility when performing an upgrade. IMPORTANT: A proxy pointing at a proxiable contract should not be considered proxiable itself, because this risks bricking a proxy that upgrades to it, by delegating to itself until out of gas. Thus it is critical that this function revert if invoked through a proxy. This is guaranteed by the `notDelegated` modifier."
      },
      "renounceOwnership()": {
        "details": "Leaves the contract without owner. It will not be possible to call `onlyOwner` functions. Can only be called by the current owner. NOTE: Renouncing ownership will leave the contract without an owner, thereby disabling any functionality that is only available to the owner."
      },
      "transferOwnership(address)": {
        "details": "Transfers ownership of the contract to a new account (`newOwner`). Can only be called by the current owner."
      },
      "upgradeToAndCall(address,bytes)": {
        "custom:oz-upgrades-unsafe-allow-reachable": "delegatecall",
        "details": "Upgrade the implementation of the proxy to `newImplementation`, and subsequently execute the function call encoded in `data`. Calls {_authorizeUpgrade}. Emits an {Upgraded} event."
      }
    },
    "version": 1
  },
  "userdoc": {
    "kind": "user",
    "methods": {},
    "version": 1
  },
  "storageLayout": {
    "storage": [
      {
        "astId": 9891,
        "contract": "contracts/SortedTrenBoxes.sol:SortedTrenBoxes",
        "label": "activePool",
        "offset": 0,
        "slot": "0",
        "type": "t_address"
      },
      {
        "astId": 9893,
        "contract": "contracts/SortedTrenBoxes.sol:SortedTrenBoxes",
        "label": "adminContract",
        "offset": 0,
        "slot": "1",
        "type": "t_address"
      },
      {
        "astId": 9895,
        "contract": "contracts/SortedTrenBoxes.sol:SortedTrenBoxes",
        "label": "borrowerOperations",
        "offset": 0,
        "slot": "2",
        "type": "t_address"
      },
      {
        "astId": 9897,
        "contract": "contracts/SortedTrenBoxes.sol:SortedTrenBoxes",
        "label": "collSurplusPool",
        "offset": 0,
        "slot": "3",
        "type": "t_address"
      },
      {
        "astId": 9899,
        "contract": "contracts/SortedTrenBoxes.sol:SortedTrenBoxes",
        "label": "communityIssuance",
        "offset": 0,
        "slot": "4",
        "type": "t_address"
      },
      {
        "astId": 9901,
        "contract": "contracts/SortedTrenBoxes.sol:SortedTrenBoxes",
        "label": "debtToken",
        "offset": 0,
        "slot": "5",
        "type": "t_address"
      },
      {
        "astId": 9903,
        "contract": "contracts/SortedTrenBoxes.sol:SortedTrenBoxes",
        "label": "defaultPool",
        "offset": 0,
        "slot": "6",
        "type": "t_address"
      },
      {
        "astId": 9905,
        "contract": "contracts/SortedTrenBoxes.sol:SortedTrenBoxes",
        "label": "feeCollector",
        "offset": 0,
        "slot": "7",
        "type": "t_address"
      },
      {
        "astId": 9907,
        "contract": "contracts/SortedTrenBoxes.sol:SortedTrenBoxes",
        "label": "gasPoolAddress",
        "offset": 0,
        "slot": "8",
        "type": "t_address"
      },
      {
        "astId": 9909,
        "contract": "contracts/SortedTrenBoxes.sol:SortedTrenBoxes",
        "label": "trenStaking",
        "offset": 0,
        "slot": "9",
        "type": "t_address"
      },
      {
        "astId": 9911,
        "contract": "contracts/SortedTrenBoxes.sol:SortedTrenBoxes",
        "label": "priceFeed",
        "offset": 0,
        "slot": "10",
        "type": "t_address"
      },
      {
        "astId": 9913,
        "contract": "contracts/SortedTrenBoxes.sol:SortedTrenBoxes",
        "label": "sortedTrenBoxes",
        "offset": 0,
        "slot": "11",
        "type": "t_address"
      },
      {
        "astId": 9915,
        "contract": "contracts/SortedTrenBoxes.sol:SortedTrenBoxes",
        "label": "stabilityPool",
        "offset": 0,
        "slot": "12",
        "type": "t_address"
      },
      {
        "astId": 9917,
        "contract": "contracts/SortedTrenBoxes.sol:SortedTrenBoxes",
        "label": "timelockAddress",
        "offset": 0,
        "slot": "13",
        "type": "t_address"
      },
      {
        "astId": 9919,
        "contract": "contracts/SortedTrenBoxes.sol:SortedTrenBoxes",
        "label": "treasuryAddress",
        "offset": 0,
        "slot": "14",
        "type": "t_address"
      },
      {
        "astId": 9921,
        "contract": "contracts/SortedTrenBoxes.sol:SortedTrenBoxes",
        "label": "trenBoxManager",
        "offset": 0,
        "slot": "15",
        "type": "t_address"
      },
      {
        "astId": 9923,
        "contract": "contracts/SortedTrenBoxes.sol:SortedTrenBoxes",
        "label": "trenBoxManagerOperations",
        "offset": 0,
        "slot": "16",
        "type": "t_address"
      },
      {
        "astId": 9925,
        "contract": "contracts/SortedTrenBoxes.sol:SortedTrenBoxes",
        "label": "isAddressSetupInitialized",
        "offset": 20,
        "slot": "16",
        "type": "t_bool"
      },
      {
        "astId": 9930,
        "contract": "contracts/SortedTrenBoxes.sol:SortedTrenBoxes",
        "label": "__gap",
        "offset": 0,
        "slot": "17",
        "type": "t_array(t_uint256)33_storage"
      },
      {
        "astId": 15364,
        "contract": "contracts/SortedTrenBoxes.sol:SortedTrenBoxes",
        "label": "data",
        "offset": 0,
        "slot": "50",
        "type": "t_mapping(t_address,t_struct(Data)15359_storage)"
      }
    ],
    "types": {
      "t_address": {
        "encoding": "inplace",
        "label": "address",
        "numberOfBytes": "20"
      },
      "t_array(t_uint256)33_storage": {
        "base": "t_uint256",
        "encoding": "inplace",
        "label": "uint256[33]",
        "numberOfBytes": "1056"
      },
      "t_bool": {
        "encoding": "inplace",
        "label": "bool",
        "numberOfBytes": "1"
      },
      "t_mapping(t_address,t_struct(Data)15359_storage)": {
        "encoding": "mapping",
        "key": "t_address",
        "label": "mapping(address => struct SortedTrenBoxes.Data)",
        "numberOfBytes": "32",
        "value": "t_struct(Data)15359_storage"
      },
      "t_mapping(t_address,t_struct(Node)15347_storage)": {
        "encoding": "mapping",
        "key": "t_address",
        "label": "mapping(address => struct SortedTrenBoxes.Node)",
        "numberOfBytes": "32",
        "value": "t_struct(Node)15347_storage"
      },
      "t_struct(Data)15359_storage": {
        "encoding": "inplace",
        "label": "struct SortedTrenBoxes.Data",
        "members": [
          {
            "astId": 15349,
            "contract": "contracts/SortedTrenBoxes.sol:SortedTrenBoxes",
            "label": "head",
            "offset": 0,
            "slot": "0",
            "type": "t_address"
          },
          {
            "astId": 15351,
            "contract": "contracts/SortedTrenBoxes.sol:SortedTrenBoxes",
            "label": "tail",
            "offset": 0,
            "slot": "1",
            "type": "t_address"
          },
          {
            "astId": 15353,
            "contract": "contracts/SortedTrenBoxes.sol:SortedTrenBoxes",
            "label": "size",
            "offset": 0,
            "slot": "2",
            "type": "t_uint256"
          },
          {
            "astId": 15358,
            "contract": "contracts/SortedTrenBoxes.sol:SortedTrenBoxes",
            "label": "nodes",
            "offset": 0,
            "slot": "3",
            "type": "t_mapping(t_address,t_struct(Node)15347_storage)"
          }
        ],
        "numberOfBytes": "128"
      },
      "t_struct(Node)15347_storage": {
        "encoding": "inplace",
        "label": "struct SortedTrenBoxes.Node",
        "members": [
          {
            "astId": 15342,
            "contract": "contracts/SortedTrenBoxes.sol:SortedTrenBoxes",
            "label": "exists",
            "offset": 0,
            "slot": "0",
            "type": "t_bool"
          },
          {
            "astId": 15344,
            "contract": "contracts/SortedTrenBoxes.sol:SortedTrenBoxes",
            "label": "nextId",
            "offset": 1,
            "slot": "0",
            "type": "t_address"
          },
          {
            "astId": 15346,
            "contract": "contracts/SortedTrenBoxes.sol:SortedTrenBoxes",
            "label": "prevId",
            "offset": 0,
            "slot": "1",
            "type": "t_address"
          }
        ],
        "numberOfBytes": "64"
      },
      "t_uint256": {
        "encoding": "inplace",
        "label": "uint256",
        "numberOfBytes": "32"
      }
    }
  }
}