{
  "address": "0x68E41C8B5EbC787035697F29ceeAA758085d9723",
  "abi": [
    {
      "inputs": [
        {
          "internalType": "address",
          "name": "target",
          "type": "address"
        }
      ],
      "name": "AddressEmptyCode",
      "type": "error"
    },
    {
      "inputs": [
        {
          "internalType": "address",
          "name": "account",
          "type": "address"
        }
      ],
      "name": "AddressInsufficientBalance",
      "type": "error"
    },
    {
      "inputs": [
        {
          "internalType": "address",
          "name": "implementation",
          "type": "address"
        }
      ],
      "name": "ERC1967InvalidImplementation",
      "type": "error"
    },
    {
      "inputs": [],
      "name": "ERC1967NonPayable",
      "type": "error"
    },
    {
      "inputs": [],
      "name": "FailedInnerCall",
      "type": "error"
    },
    {
      "inputs": [],
      "name": "InvalidInitialization",
      "type": "error"
    },
    {
      "inputs": [],
      "name": "NotInitializing",
      "type": "error"
    },
    {
      "inputs": [
        {
          "internalType": "address",
          "name": "owner",
          "type": "address"
        }
      ],
      "name": "OwnableInvalidOwner",
      "type": "error"
    },
    {
      "inputs": [
        {
          "internalType": "address",
          "name": "account",
          "type": "address"
        }
      ],
      "name": "OwnableUnauthorizedAccount",
      "type": "error"
    },
    {
      "inputs": [],
      "name": "ReentrancyGuardReentrantCall",
      "type": "error"
    },
    {
      "inputs": [
        {
          "internalType": "address",
          "name": "token",
          "type": "address"
        }
      ],
      "name": "SafeERC20FailedOperation",
      "type": "error"
    },
    {
      "inputs": [
        {
          "internalType": "address",
          "name": "sender",
          "type": "address"
        },
        {
          "internalType": "address",
          "name": "expected",
          "type": "address"
        }
      ],
      "name": "StabilityPool__ActivePoolOnly",
      "type": "error"
    },
    {
      "inputs": [
        {
          "internalType": "address",
          "name": "sender",
          "type": "address"
        },
        {
          "internalType": "address",
          "name": "expected",
          "type": "address"
        }
      ],
      "name": "StabilityPool__AdminContractOnly",
      "type": "error"
    },
    {
      "inputs": [],
      "name": "StabilityPool__ArrayNotInAscendingOrder",
      "type": "error"
    },
    {
      "inputs": [
        {
          "internalType": "address",
          "name": "sender",
          "type": "address"
        },
        {
          "internalType": "address",
          "name": "expected",
          "type": "address"
        }
      ],
      "name": "StabilityPool__TrenBoxManagerOnly",
      "type": "error"
    },
    {
      "inputs": [],
      "name": "UUPSUnauthorizedCallContext",
      "type": "error"
    },
    {
      "inputs": [
        {
          "internalType": "bytes32",
          "name": "slot",
          "type": "bytes32"
        }
      ],
      "name": "UUPSUnsupportedProxiableUUID",
      "type": "error"
    },
    {
      "anonymous": false,
      "inputs": [
        {
          "indexed": false,
          "internalType": "address",
          "name": "_asset",
          "type": "address"
        },
        {
          "indexed": false,
          "internalType": "address",
          "name": "_to",
          "type": "address"
        },
        {
          "indexed": false,
          "internalType": "uint256",
          "name": "_amount",
          "type": "uint256"
        }
      ],
      "name": "AssetSent",
      "type": "event"
    },
    {
      "anonymous": false,
      "inputs": [
        {
          "indexed": false,
          "internalType": "address",
          "name": "newAddress",
          "type": "address"
        }
      ],
      "name": "CommunityIssuanceAddressChanged",
      "type": "event"
    },
    {
      "anonymous": false,
      "inputs": [
        {
          "indexed": true,
          "internalType": "address",
          "name": "_depositor",
          "type": "address"
        },
        {
          "indexed": false,
          "internalType": "uint256",
          "name": "_P",
          "type": "uint256"
        },
        {
          "indexed": false,
          "internalType": "uint256",
          "name": "_G",
          "type": "uint256"
        }
      ],
      "name": "DepositSnapshotUpdated",
      "type": "event"
    },
    {
      "anonymous": false,
      "inputs": [
        {
          "indexed": false,
          "internalType": "uint128",
          "name": "_currentEpoch",
          "type": "uint128"
        }
      ],
      "name": "EpochUpdated",
      "type": "event"
    },
    {
      "anonymous": false,
      "inputs": [
        {
          "indexed": false,
          "internalType": "uint256",
          "name": "_G",
          "type": "uint256"
        },
        {
          "indexed": false,
          "internalType": "uint128",
          "name": "_epoch",
          "type": "uint128"
        },
        {
          "indexed": false,
          "internalType": "uint128",
          "name": "_scale",
          "type": "uint128"
        }
      ],
      "name": "G_Updated",
      "type": "event"
    },
    {
      "anonymous": false,
      "inputs": [
        {
          "indexed": true,
          "internalType": "address",
          "name": "_depositor",
          "type": "address"
        },
        {
          "indexed": false,
          "internalType": "address[]",
          "name": "_collaterals",
          "type": "address[]"
        },
        {
          "indexed": false,
          "internalType": "uint256[]",
          "name": "_amounts",
          "type": "uint256[]"
        },
        {
          "indexed": false,
          "internalType": "uint256",
          "name": "_debtTokenLoss",
          "type": "uint256"
        }
      ],
      "name": "GainsWithdrawn",
      "type": "event"
    },
    {
      "anonymous": false,
      "inputs": [
        {
          "indexed": false,
          "internalType": "uint64",
          "name": "version",
          "type": "uint64"
        }
      ],
      "name": "Initialized",
      "type": "event"
    },
    {
      "anonymous": false,
      "inputs": [
        {
          "indexed": true,
          "internalType": "address",
          "name": "previousOwner",
          "type": "address"
        },
        {
          "indexed": true,
          "internalType": "address",
          "name": "newOwner",
          "type": "address"
        }
      ],
      "name": "OwnershipTransferred",
      "type": "event"
    },
    {
      "anonymous": false,
      "inputs": [
        {
          "indexed": false,
          "internalType": "uint256",
          "name": "_P",
          "type": "uint256"
        }
      ],
      "name": "P_Updated",
      "type": "event"
    },
    {
      "anonymous": false,
      "inputs": [
        {
          "indexed": false,
          "internalType": "address",
          "name": "_asset",
          "type": "address"
        },
        {
          "indexed": false,
          "internalType": "uint256",
          "name": "_S",
          "type": "uint256"
        },
        {
          "indexed": false,
          "internalType": "uint128",
          "name": "_epoch",
          "type": "uint128"
        },
        {
          "indexed": false,
          "internalType": "uint128",
          "name": "_scale",
          "type": "uint128"
        }
      ],
      "name": "S_Updated",
      "type": "event"
    },
    {
      "anonymous": false,
      "inputs": [
        {
          "indexed": false,
          "internalType": "uint128",
          "name": "_currentScale",
          "type": "uint128"
        }
      ],
      "name": "ScaleUpdated",
      "type": "event"
    },
    {
      "anonymous": false,
      "inputs": [
        {
          "indexed": false,
          "internalType": "address",
          "name": "_asset",
          "type": "address"
        },
        {
          "indexed": false,
          "internalType": "uint256",
          "name": "_newBalance",
          "type": "uint256"
        }
      ],
      "name": "StabilityPoolAssetBalanceUpdated",
      "type": "event"
    },
    {
      "anonymous": false,
      "inputs": [
        {
          "indexed": false,
          "internalType": "uint256",
          "name": "_newBalance",
          "type": "uint256"
        }
      ],
      "name": "StabilityPoolDebtTokenBalanceUpdated",
      "type": "event"
    },
    {
      "anonymous": false,
      "inputs": [
        {
          "indexed": false,
          "internalType": "uint256",
          "name": "_newSystemStake",
          "type": "uint256"
        },
        {
          "indexed": false,
          "internalType": "address",
          "name": "_depositor",
          "type": "address"
        }
      ],
      "name": "StakeChanged",
      "type": "event"
    },
    {
      "anonymous": false,
      "inputs": [
        {
          "indexed": false,
          "internalType": "uint256",
          "name": "_P",
          "type": "uint256"
        },
        {
          "indexed": false,
          "internalType": "uint256",
          "name": "_G",
          "type": "uint256"
        }
      ],
      "name": "SystemSnapshotUpdated",
      "type": "event"
    },
    {
      "anonymous": false,
      "inputs": [
        {
          "indexed": true,
          "internalType": "address",
          "name": "_depositor",
          "type": "address"
        },
        {
          "indexed": false,
          "internalType": "uint256",
          "name": "_TREN",
          "type": "uint256"
        }
      ],
      "name": "TRENPaidToDepositor",
      "type": "event"
    },
    {
      "anonymous": false,
      "inputs": [
        {
          "indexed": true,
          "internalType": "address",
          "name": "implementation",
          "type": "address"
        }
      ],
      "name": "Upgraded",
      "type": "event"
    },
    {
      "anonymous": false,
      "inputs": [
        {
          "indexed": true,
          "internalType": "address",
          "name": "_depositor",
          "type": "address"
        },
        {
          "indexed": false,
          "internalType": "uint256",
          "name": "_newDeposit",
          "type": "uint256"
        }
      ],
      "name": "UserDepositChanged",
      "type": "event"
    },
    {
      "inputs": [],
      "name": "DECIMAL_PRECISION",
      "outputs": [
        {
          "internalType": "uint256",
          "name": "",
          "type": "uint256"
        }
      ],
      "stateMutability": "view",
      "type": "function"
    },
    {
      "inputs": [],
      "name": "NAME",
      "outputs": [
        {
          "internalType": "string",
          "name": "",
          "type": "string"
        }
      ],
      "stateMutability": "view",
      "type": "function"
    },
    {
      "inputs": [],
      "name": "P",
      "outputs": [
        {
          "internalType": "uint256",
          "name": "",
          "type": "uint256"
        }
      ],
      "stateMutability": "view",
      "type": "function"
    },
    {
      "inputs": [
        {
          "internalType": "address",
          "name": "_depositor",
          "type": "address"
        },
        {
          "internalType": "address",
          "name": "_asset",
          "type": "address"
        }
      ],
      "name": "S",
      "outputs": [
        {
          "internalType": "uint256",
          "name": "",
          "type": "uint256"
        }
      ],
      "stateMutability": "view",
      "type": "function"
    },
    {
      "inputs": [],
      "name": "SCALE_FACTOR",
      "outputs": [
        {
          "internalType": "uint256",
          "name": "",
          "type": "uint256"
        }
      ],
      "stateMutability": "view",
      "type": "function"
    },
    {
      "inputs": [],
      "name": "UPGRADE_INTERFACE_VERSION",
      "outputs": [
        {
          "internalType": "string",
          "name": "",
          "type": "string"
        }
      ],
      "stateMutability": "view",
      "type": "function"
    },
    {
      "inputs": [],
      "name": "activePool",
      "outputs": [
        {
          "internalType": "address",
          "name": "",
          "type": "address"
        }
      ],
      "stateMutability": "view",
      "type": "function"
    },
    {
      "inputs": [
        {
          "internalType": "address",
          "name": "_collateral",
          "type": "address"
        }
      ],
      "name": "addCollateralType",
      "outputs": [],
      "stateMutability": "nonpayable",
      "type": "function"
    },
    {
      "inputs": [],
      "name": "adminContract",
      "outputs": [
        {
          "internalType": "address",
          "name": "",
          "type": "address"
        }
      ],
      "stateMutability": "view",
      "type": "function"
    },
    {
      "inputs": [
        {
          "internalType": "address",
          "name": "newImplementation",
          "type": "address"
        }
      ],
      "name": "authorizeUpgrade",
      "outputs": [],
      "stateMutability": "nonpayable",
      "type": "function"
    },
    {
      "inputs": [],
      "name": "borrowerOperations",
      "outputs": [
        {
          "internalType": "address",
          "name": "",
          "type": "address"
        }
      ],
      "stateMutability": "view",
      "type": "function"
    },
    {
      "inputs": [],
      "name": "collSurplusPool",
      "outputs": [
        {
          "internalType": "address",
          "name": "",
          "type": "address"
        }
      ],
      "stateMutability": "view",
      "type": "function"
    },
    {
      "inputs": [],
      "name": "communityIssuance",
      "outputs": [
        {
          "internalType": "address",
          "name": "",
          "type": "address"
        }
      ],
      "stateMutability": "view",
      "type": "function"
    },
    {
      "inputs": [],
      "name": "currentEpoch",
      "outputs": [
        {
          "internalType": "uint128",
          "name": "",
          "type": "uint128"
        }
      ],
      "stateMutability": "view",
      "type": "function"
    },
    {
      "inputs": [],
      "name": "currentScale",
      "outputs": [
        {
          "internalType": "uint128",
          "name": "",
          "type": "uint128"
        }
      ],
      "stateMutability": "view",
      "type": "function"
    },
    {
      "inputs": [],
      "name": "debtToken",
      "outputs": [
        {
          "internalType": "address",
          "name": "",
          "type": "address"
        }
      ],
      "stateMutability": "view",
      "type": "function"
    },
    {
      "inputs": [],
      "name": "defaultPool",
      "outputs": [
        {
          "internalType": "address",
          "name": "",
          "type": "address"
        }
      ],
      "stateMutability": "view",
      "type": "function"
    },
    {
      "inputs": [
        {
          "internalType": "address",
          "name": "",
          "type": "address"
        }
      ],
      "name": "depositSnapshots",
      "outputs": [
        {
          "internalType": "uint256",
          "name": "P",
          "type": "uint256"
        },
        {
          "internalType": "uint256",
          "name": "G",
          "type": "uint256"
        },
        {
          "internalType": "uint128",
          "name": "scale",
          "type": "uint128"
        },
        {
          "internalType": "uint128",
          "name": "epoch",
          "type": "uint128"
        }
      ],
      "stateMutability": "view",
      "type": "function"
    },
    {
      "inputs": [
        {
          "internalType": "address",
          "name": "",
          "type": "address"
        }
      ],
      "name": "deposits",
      "outputs": [
        {
          "internalType": "uint256",
          "name": "",
          "type": "uint256"
        }
      ],
      "stateMutability": "view",
      "type": "function"
    },
    {
      "inputs": [
        {
          "internalType": "uint128",
          "name": "",
          "type": "uint128"
        },
        {
          "internalType": "uint128",
          "name": "",
          "type": "uint128"
        }
      ],
      "name": "epochToScaleToG",
      "outputs": [
        {
          "internalType": "uint256",
          "name": "",
          "type": "uint256"
        }
      ],
      "stateMutability": "view",
      "type": "function"
    },
    {
      "inputs": [
        {
          "internalType": "address",
          "name": "",
          "type": "address"
        },
        {
          "internalType": "uint128",
          "name": "",
          "type": "uint128"
        },
        {
          "internalType": "uint128",
          "name": "",
          "type": "uint128"
        }
      ],
      "name": "epochToScaleToSum",
      "outputs": [
        {
          "internalType": "uint256",
          "name": "",
          "type": "uint256"
        }
      ],
      "stateMutability": "view",
      "type": "function"
    },
    {
      "inputs": [],
      "name": "feeCollector",
      "outputs": [
        {
          "internalType": "address",
          "name": "",
          "type": "address"
        }
      ],
      "stateMutability": "view",
      "type": "function"
    },
    {
      "inputs": [],
      "name": "gasPoolAddress",
      "outputs": [
        {
          "internalType": "address",
          "name": "",
          "type": "address"
        }
      ],
      "stateMutability": "view",
      "type": "function"
    },
    {
      "inputs": [],
      "name": "getAllCollateral",
      "outputs": [
        {
          "internalType": "address[]",
          "name": "",
          "type": "address[]"
        },
        {
          "internalType": "uint256[]",
          "name": "",
          "type": "uint256[]"
        }
      ],
      "stateMutability": "view",
      "type": "function"
    },
    {
      "inputs": [
        {
          "internalType": "address",
          "name": "_collateral",
          "type": "address"
        }
      ],
      "name": "getCollateral",
      "outputs": [
        {
          "internalType": "uint256",
          "name": "",
          "type": "uint256"
        }
      ],
      "stateMutability": "view",
      "type": "function"
    },
    {
      "inputs": [
        {
          "internalType": "address",
          "name": "_depositor",
          "type": "address"
        }
      ],
      "name": "getCompoundedDebtTokenDeposits",
      "outputs": [
        {
          "internalType": "uint256",
          "name": "",
          "type": "uint256"
        }
      ],
      "stateMutability": "view",
      "type": "function"
    },
    {
      "inputs": [
        {
          "internalType": "address",
          "name": "_depositor",
          "type": "address"
        },
        {
          "internalType": "address[]",
          "name": "_assets",
          "type": "address[]"
        }
      ],
      "name": "getDepositorGains",
      "outputs": [
        {
          "internalType": "address[]",
          "name": "",
          "type": "address[]"
        },
        {
          "internalType": "uint256[]",
          "name": "",
          "type": "uint256[]"
        }
      ],
      "stateMutability": "view",
      "type": "function"
    },
    {
      "inputs": [
        {
          "internalType": "address",
          "name": "_depositor",
          "type": "address"
        }
      ],
      "name": "getDepositorTRENGain",
      "outputs": [
        {
          "internalType": "uint256",
          "name": "",
          "type": "uint256"
        }
      ],
      "stateMutability": "view",
      "type": "function"
    },
    {
      "inputs": [
        {
          "internalType": "address",
          "name": "_asset",
          "type": "address"
        }
      ],
      "name": "getEntireSystemColl",
      "outputs": [
        {
          "internalType": "uint256",
          "name": "entireSystemColl",
          "type": "uint256"
        }
      ],
      "stateMutability": "view",
      "type": "function"
    },
    {
      "inputs": [
        {
          "internalType": "address",
          "name": "_asset",
          "type": "address"
        }
      ],
      "name": "getEntireSystemDebt",
      "outputs": [
        {
          "internalType": "uint256",
          "name": "entireSystemDebt",
          "type": "uint256"
        }
      ],
      "stateMutability": "view",
      "type": "function"
    },
    {
      "inputs": [],
      "name": "getTotalDebtTokenDeposits",
      "outputs": [
        {
          "internalType": "uint256",
          "name": "",
          "type": "uint256"
        }
      ],
      "stateMutability": "view",
      "type": "function"
    },
    {
      "inputs": [],
      "name": "initialize",
      "outputs": [],
      "stateMutability": "nonpayable",
      "type": "function"
    },
    {
      "inputs": [],
      "name": "isAddressSetupInitialized",
      "outputs": [
        {
          "internalType": "bool",
          "name": "",
          "type": "bool"
        }
      ],
      "stateMutability": "view",
      "type": "function"
    },
    {
      "inputs": [
        {
          "internalType": "uint256",
          "name": "",
          "type": "uint256"
        }
      ],
      "name": "lastAssetError_Offset",
      "outputs": [
        {
          "internalType": "uint256",
          "name": "",
          "type": "uint256"
        }
      ],
      "stateMutability": "view",
      "type": "function"
    },
    {
      "inputs": [],
      "name": "lastDebtTokenLossError_Offset",
      "outputs": [
        {
          "internalType": "uint256",
          "name": "",
          "type": "uint256"
        }
      ],
      "stateMutability": "view",
      "type": "function"
    },
    {
      "inputs": [],
      "name": "lastTRENError",
      "outputs": [
        {
          "internalType": "uint256",
          "name": "",
          "type": "uint256"
        }
      ],
      "stateMutability": "view",
      "type": "function"
    },
    {
      "inputs": [
        {
          "internalType": "uint256",
          "name": "_debtToOffset",
          "type": "uint256"
        },
        {
          "internalType": "address",
          "name": "_asset",
          "type": "address"
        },
        {
          "internalType": "uint256",
          "name": "_amountAdded",
          "type": "uint256"
        }
      ],
      "name": "offset",
      "outputs": [],
      "stateMutability": "nonpayable",
      "type": "function"
    },
    {
      "inputs": [],
      "name": "owner",
      "outputs": [
        {
          "internalType": "address",
          "name": "",
          "type": "address"
        }
      ],
      "stateMutability": "view",
      "type": "function"
    },
    {
      "inputs": [],
      "name": "priceFeed",
      "outputs": [
        {
          "internalType": "address",
          "name": "",
          "type": "address"
        }
      ],
      "stateMutability": "view",
      "type": "function"
    },
    {
      "inputs": [
        {
          "internalType": "uint256",
          "name": "_amount",
          "type": "uint256"
        },
        {
          "internalType": "address[]",
          "name": "_assets",
          "type": "address[]"
        }
      ],
      "name": "provideToSP",
      "outputs": [],
      "stateMutability": "nonpayable",
      "type": "function"
    },
    {
      "inputs": [],
      "name": "proxiableUUID",
      "outputs": [
        {
          "internalType": "bytes32",
          "name": "",
          "type": "bytes32"
        }
      ],
      "stateMutability": "view",
      "type": "function"
    },
    {
      "inputs": [
        {
          "internalType": "address",
          "name": "_asset",
          "type": "address"
        },
        {
          "internalType": "uint256",
          "name": "_amount",
          "type": "uint256"
        }
      ],
      "name": "receivedERC20",
      "outputs": [],
      "stateMutability": "nonpayable",
      "type": "function"
    },
    {
      "inputs": [],
      "name": "renounceOwnership",
      "outputs": [],
      "stateMutability": "nonpayable",
      "type": "function"
    },
    {
      "inputs": [
        {
          "internalType": "address[]",
          "name": "_addresses",
          "type": "address[]"
        }
      ],
      "name": "setAddresses",
      "outputs": [],
      "stateMutability": "nonpayable",
      "type": "function"
    },
    {
      "inputs": [
        {
          "internalType": "address",
          "name": "_communityIssuance",
          "type": "address"
        }
      ],
      "name": "setCommunityIssuance",
      "outputs": [],
      "stateMutability": "nonpayable",
      "type": "function"
    },
    {
      "inputs": [
        {
          "internalType": "address",
          "name": "_trenStaking",
          "type": "address"
        }
      ],
      "name": "setTRENStaking",
      "outputs": [],
      "stateMutability": "nonpayable",
      "type": "function"
    },
    {
      "inputs": [],
      "name": "sortedTrenBoxes",
      "outputs": [
        {
          "internalType": "address",
          "name": "",
          "type": "address"
        }
      ],
      "stateMutability": "view",
      "type": "function"
    },
    {
      "inputs": [],
      "name": "stabilityPool",
      "outputs": [
        {
          "internalType": "address",
          "name": "",
          "type": "address"
        }
      ],
      "stateMutability": "view",
      "type": "function"
    },
    {
      "inputs": [],
      "name": "timelockAddress",
      "outputs": [
        {
          "internalType": "address",
          "name": "",
          "type": "address"
        }
      ],
      "stateMutability": "view",
      "type": "function"
    },
    {
      "inputs": [
        {
          "internalType": "address",
          "name": "newOwner",
          "type": "address"
        }
      ],
      "name": "transferOwnership",
      "outputs": [],
      "stateMutability": "nonpayable",
      "type": "function"
    },
    {
      "inputs": [],
      "name": "treasuryAddress",
      "outputs": [
        {
          "internalType": "address",
          "name": "",
          "type": "address"
        }
      ],
      "stateMutability": "view",
      "type": "function"
    },
    {
      "inputs": [],
      "name": "trenBoxManager",
      "outputs": [
        {
          "internalType": "address",
          "name": "",
          "type": "address"
        }
      ],
      "stateMutability": "view",
      "type": "function"
    },
    {
      "inputs": [],
      "name": "trenBoxManagerOperations",
      "outputs": [
        {
          "internalType": "address",
          "name": "",
          "type": "address"
        }
      ],
      "stateMutability": "view",
      "type": "function"
    },
    {
      "inputs": [],
      "name": "trenStaking",
      "outputs": [
        {
          "internalType": "address",
          "name": "",
          "type": "address"
        }
      ],
      "stateMutability": "view",
      "type": "function"
    },
    {
      "inputs": [
        {
          "internalType": "address",
          "name": "newImplementation",
          "type": "address"
        },
        {
          "internalType": "bytes",
          "name": "data",
          "type": "bytes"
        }
      ],
      "name": "upgradeToAndCall",
      "outputs": [],
      "stateMutability": "payable",
      "type": "function"
    },
    {
      "inputs": [
        {
          "internalType": "uint256",
          "name": "_amount",
          "type": "uint256"
        },
        {
          "internalType": "address[]",
          "name": "_assets",
          "type": "address[]"
        }
      ],
      "name": "withdrawFromSP",
      "outputs": [],
      "stateMutability": "nonpayable",
      "type": "function"
    }
  ],
  "transactionHash": "0x0e6cc0533032271c52f71ad0c1fddb699dcad9399380d62f1d38f87a64b171dd",
  "args": [],
  "numDeployments": 1,
  "solcInputHash": "e6971fb87a17deef3641f1719687e39f",
  "bytecode": "0x60a06040523060805234801561001457600080fd5b50608051613fad61003e6000396000818161241b0152818161244401526126730152613fad6000f3fe60806040526004361061036b5760003560e01c806395fb16bb116101c6578063c5f956af116100f7578063ec0d5e0c11610095578063f8d898981161006f578063f8d8989814610ad5578063fc7e286d14610af5578063fe06073314610b22578063fe9d032314610b4257600080fd5b8063ec0d5e0c14610a75578063f1c05a7e14610a95578063f2fde38b14610ab557600080fd5b8063cc8b21e4116100d1578063cc8b21e4146109fd578063cda775f914610a1d578063ce4b5bbe14610a3d578063eb16f00414610a5557600080fd5b8063c5f956af14610997578063c6ba0936146109b7578063c8564c62146109cc57600080fd5b8063ad3018f011610164578063b95717211161013e578063b957172114610917578063be35d3bd14610937578063c05c5e9414610957578063c415b95c1461097757600080fd5b8063ad3018f0146108a2578063ad3cb1cc146108d0578063b5d0c4c71461090157600080fd5b8063a20baee6116101a0578063a20baee61461080a578063a3f4df7e14610826578063a4e59ac81461086c578063a7a488841461088c57600080fd5b806395fb16bb146107aa5780639b56d6c9146107ca5780639e86d0c4146107ea57600080fd5b80636a85d67d116102a05780637f7dde4a1161023e57806386da08241161021857806386da0824146106b55780638b8fbd92146107375780638da5cb5b1461074d5780638e9171b01461078a57600080fd5b80637f7dde4a146106485780638129fc1c1461066857806382e0a5741461067d57600080fd5b8063741bef1a1161027a578063741bef1a1461058b57806376671808146105ab57806377553ad4146105ea5780637ee4196b1461060a57600080fd5b80636a85d67d146105365780636aebb1ab14610556578063715018a61461057657600080fd5b80633cc742251161030d5780634f1ef286116102e75780634f1ef286146104ce57806352ce8272146104e157806352d1902d1461050157806355dafa461461051657600080fd5b80633cc742251461046e5780634bc66f321461048e5780634e8338eb146104ae57600080fd5b80630d9a6b35116103495780630d9a6b35146103ef5780631091da891461040e578063121f2b261461042e57806327d04b351461044e57600080fd5b806301c9310014610370578063048c661d146103925780630a34d4d6146103cf575b600080fd5b34801561037c57600080fd5b5061039061038b366004613894565b610b62565b005b34801561039e57600080fd5b50600c546103b2906001600160a01b031681565b6040516001600160a01b0390911681526020015b60405180910390f35b3480156103db57600080fd5b506010546103b2906001600160a01b031681565b3480156103fb57600080fd5b506032545b6040519081526020016103c6565b34801561041a57600080fd5b506103906104293660046138b1565b610b8c565b34801561043a57600080fd5b50610400610449366004613894565b610c24565b34801561045a57600080fd5b50610400610469366004613894565b610c77565b34801561047a57600080fd5b506006546103b2906001600160a01b031681565b34801561049a57600080fd5b50600d546103b2906001600160a01b031681565b3480156104ba57600080fd5b506104006104c93660046138e9565b610d6f565b6103906104dc366004613969565b610d9c565b3480156104ed57600080fd5b506104006104fc366004613894565b610dbb565b34801561050d57600080fd5b50610400610e06565b34801561052257600080fd5b506009546103b2906001600160a01b031681565b34801561054257600080fd5b50610390610551366004613894565b610e23565b34801561056257600080fd5b50610390610571366004613a56565b610e4d565b34801561058257600080fd5b50610390610fb4565b34801561059757600080fd5b50600a546103b2906001600160a01b031681565b3480156105b757600080fd5b506038546105d290600160801b90046001600160801b031681565b6040516001600160801b0390911681526020016103c6565b3480156105f657600080fd5b506002546103b2906001600160a01b031681565b34801561061657600080fd5b50610400610625366004613abe565b603960209081526000938452604080852082529284528284209052825290205481565b34801561065457600080fd5b506000546103b2906001600160a01b031681565b34801561067457600080fd5b50610390610fc8565b34801561068957600080fd5b50610400610698366004613b03565b603a60209081526000928352604080842090915290825290205481565b3480156106c157600080fd5b506107086106d0366004613894565b6036602052600090815260409020600181015460028201546003909201549091906001600160801b0380821691600160801b90041684565b6040805194855260208501939093526001600160801b03918216928401929092521660608201526080016103c6565b34801561074357600080fd5b5061040060375481565b34801561075957600080fd5b507f9016d09d72d40fdae2fd8ceac6b6234c7706214fd39c1cd1e609a0528c199300546001600160a01b03166103b2565b34801561079657600080fd5b506103906107a5366004613a56565b6110f6565b3480156107b657600080fd5b506004546103b2906001600160a01b031681565b3480156107d657600080fd5b506104006107e5366004613894565b611113565b3480156107f657600080fd5b50610400610805366004613894565b6111b0565b34801561081657600080fd5b50610400670de0b6b3a764000081565b34801561083257600080fd5b5061085f6040518060400160405280600d81526020016c14dd18589a5b1a5d1e541bdbdb609a1b81525081565b6040516103c69190613b5a565b34801561087857600080fd5b506038546105d2906001600160801b031681565b34801561089857600080fd5b50610400603d5481565b3480156108ae57600080fd5b506108c26108bd366004613bb1565b611257565b6040516103c6929190613cdb565b3480156108dc57600080fd5b5061085f604051806040016040528060058152602001640352e302e360dc1b81525081565b34801561090d57600080fd5b50610400603b5481565b34801561092357600080fd5b50610390610932366004613d00565b6112d0565b34801561094357600080fd5b50610400610952366004613d42565b61184a565b34801561096357600080fd5b506001546103b2906001600160a01b031681565b34801561098357600080fd5b506007546103b2906001600160a01b031681565b3480156109a357600080fd5b50600e546103b2906001600160a01b031681565b3480156109c357600080fd5b506108c261186b565b3480156109d857600080fd5b506010546109ed90600160a01b900460ff1681565b60405190151581526020016103c6565b348015610a0957600080fd5b50600b546103b2906001600160a01b031681565b348015610a2957600080fd5b506003546103b2906001600160a01b031681565b348015610a4957600080fd5b50610400633b9aca0081565b348015610a6157600080fd5b50610390610a70366004613d5b565b61192e565b348015610a8157600080fd5b50610390610a90366004613894565b611a7d565b348015610aa157600080fd5b50600f546103b2906001600160a01b031681565b348015610ac157600080fd5b50610390610ad0366004613894565b611b6d565b348015610ae157600080fd5b506005546103b2906001600160a01b031681565b348015610b0157600080fd5b50610400610b10366004613894565b60356020526000908152604090205481565b348015610b2e57600080fd5b50610390610b3d366004613894565b611bab565b348015610b4e57600080fd5b506008546103b2906001600160a01b031681565b610b6a611bb4565b600980546001600160a01b0319166001600160a01b0392909216919091179055565b600f546001600160a01b03163314610bd157600f546040516339bf765b60e01b81523360048201526001600160a01b0390911660248201526044015b60405180910390fd5b603254801580610bdf575083155b15610bea5750505050565b610bf2611c0f565b600080610c0185858886611ca6565b91509150610c10858383611e83565b610c1b8585886121dc565b5050505b505050565b6001600160a01b038116600090815260356020526040812054808203610c4d5750600092915050565b6001600160a01b0383166000908152603660205260409020610c70908290612320565b9392505050565b6000805460405163c5739d0b60e01b81526001600160a01b0384811660048301528392169063c5739d0b90602401602060405180830381865afa158015610cc2573d6000803e3d6000fd5b505050506040513d601f19601f82011682018060405250810190610ce69190613d87565b60065460405163c5739d0b60e01b81526001600160a01b0386811660048301529293506000929091169063c5739d0b906024015b602060405180830381865afa158015610d37573d6000803e3d6000fd5b505050506040513d601f19601f82011682018060405250810190610d5b9190613d87565b9050610d678183613db6565b949350505050565b6001600160a01b038083166000908152603660209081526040808320938516835292905220545b92915050565b610da4612410565b610dad826124b5565b610db782826124bd565b5050565b6001600160a01b038116600090815260356020526040812054808203610de45750600092915050565b6001600160a01b0383166000908152603660205260409020610d67828261257a565b6000610e10612668565b50600080516020613f8183398151915290565b610e2b611bb4565b600480546001600160a01b0319166001600160a01b0392909216919091179055565b610e556126b1565b610e5e836126fb565b33600090815260356020526040902054610e76611c0f565b600080610eb63386868080602002602001604051908101604052809392919081815260200183836020028082843760009201919091525061125792505050565b915091506000610ec533610c24565b90506000610ed38286613dc9565b9050610ede3361275a565b610ee83389612827565b6000610ef48984613db6565b9050610f0033826128e3565b60405181815233907fbce78369dccab09eec1986f4d409ab09ffbb47d65423e5148fcf98411c5111c99060200160405180910390a2336001600160a01b03167ff20651f7c9cd4e1c112f77cbf2a13a44f79d4165dd781c41b52052bfc888174a868685604051610f7293929190613ddc565b60405180910390a2610f85338686612b8b565b505050505050610c1f60017f9b779b17422d0df92223018b32b4d1fa46e071723d6817e2486d003becc55f0055565b610fbc611bb4565b610fc66000612d5b565b565b7ff0c57e16840df040f15088dc2f81fe391c3923bec73e23a9662efc9c229c6a008054600160401b810460ff16159067ffffffffffffffff1660008115801561100e5750825b905060008267ffffffffffffffff16600114801561102b5750303b155b905081158015611039575080155b156110575760405163f92ee8a960e01b815260040160405180910390fd5b845467ffffffffffffffff19166001178555831561108157845460ff60401b1916600160401b1785555b3361108b81612dcc565b611093612ddd565b61109b612ded565b50670de0b6b3a764000060375583156110ef57845460ff60401b19168555604051600181527fc7f505b2f371ae2175ee4913f4499e1f2633a7b5936321eed1cdaeb6115181d2906020015b60405180910390a15b5050505050565b600080611104858585612df5565b915091506110ef338383612b8b565b60015460405163b31610db60e01b81526001600160a01b038381166004830152600092839291169063b31610db90602401602060405180830381865afa158015611161573d6000803e3d6000fd5b505050506040513d601f19601f820116820180604052508101906111859190613d87565b90506033600101818154811061119d5761119d613e12565b9060005260206000200154915050919050565b60008054604051635373433f60e01b81526001600160a01b03848116600483015283921690635373433f90602401602060405180830381865afa1580156111fb573d6000803e3d6000fd5b505050506040513d601f19601f8201168201806040525081019061121f9190613d87565b600654604051635373433f60e01b81526001600160a01b03868116600483015292935060009290911690635373433f90602401610d1a565b6001600160a01b03821660009081526035602052604081205460609182919081900361129c5750506040805160008082526020820190815281830190925291506112c9565b6001600160a01b0385166000908152603660205260408120906112c0838388612f38565b86955093505050505b9250929050565b6112d8611bb4565b601054600160a01b900460ff16156113325760405162461bcd60e51b815260206004820152601c60248201527f536574757020697320616c726561647920696e697469616c697a6564000000006044820152606401610bc8565b600f81146113825760405162461bcd60e51b815260206004820152601e60248201527f45787065637465642031352061646472657373657320617420736574757000006044820152606401610bc8565b60005b600f8110156114075760008383838181106113a2576113a2613e12565b90506020020160208101906113b79190613894565b6001600160a01b0316036113ff5760405162461bcd60e51b815260206004820152600f60248201526e496e76616c6964206164647265737360881b6044820152606401610bc8565b600101611385565b508181600081811061141b5761141b613e12565b90506020020160208101906114309190613894565b600080546001600160a01b0319166001600160a01b03929092169190911790558181600181811061146357611463613e12565b90506020020160208101906114789190613894565b600180546001600160a01b0319166001600160a01b0392909216919091179055818160028181106114ab576114ab613e12565b90506020020160208101906114c09190613894565b600280546001600160a01b0319166001600160a01b0392909216919091179055818160038181106114f3576114f3613e12565b90506020020160208101906115089190613894565b600380546001600160a01b0319166001600160a01b03929092169190911790558181600481811061153b5761153b613e12565b90506020020160208101906115509190613894565b600580546001600160a01b0319166001600160a01b03929092169190911781558290829081811061158357611583613e12565b90506020020160208101906115989190613894565b600680546001600160a01b0319166001600160a01b0392909216919091178155829082908181106115cb576115cb613e12565b90506020020160208101906115e09190613894565b600780546001600160a01b0319166001600160a01b03929092169190911781558290829081811061161357611613613e12565b90506020020160208101906116289190613894565b600880546001600160a01b0319166001600160a01b03929092169190911781558290829081811061165b5761165b613e12565b90506020020160208101906116709190613894565b600a80546001600160a01b0319166001600160a01b0392909216919091179055818160098181106116a3576116a3613e12565b90506020020160208101906116b89190613894565b600b80546001600160a01b0319166001600160a01b03929092169190911790558181600a8181106116eb576116eb613e12565b90506020020160208101906117009190613894565b600c80546001600160a01b0319166001600160a01b03929092169190911790558181600b81811061173357611733613e12565b90506020020160208101906117489190613894565b600d80546001600160a01b0319166001600160a01b03929092169190911790558181600c81811061177b5761177b613e12565b90506020020160208101906117909190613894565b600e80546001600160a01b0319166001600160a01b03929092169190911790558181600d8181106117c3576117c3613e12565b90506020020160208101906117d89190613894565b600f80546001600160a01b0319166001600160a01b03929092169190911790558181600e81811061180b5761180b613e12565b90506020020160208101906118209190613894565b601080546001600160a81b0319166001600160a01b039290921691909117600160a01b1790555050565b603c818154811061185a57600080fd5b600091825260209091200154905081565b60608060336000016033600101818054806020026020016040519081016040528092919081815260200182805480156118cd57602002820191906000526020600020905b81546001600160a01b031681526001909101906020018083116118af575b505050505091508080548060200260200160405190810160405280929190818152602001828054801561191f57602002820191906000526020600020905b81548152602001906001019080831161190b575b50505050509050915091509091565b6000546001600160a01b0316331461196e57600054604051633eafff5160e11b81523360048201526001600160a01b039091166024820152604401610bc8565b60015460405163b31610db60e01b81526001600160a01b038481166004830152600092169063b31610db90602401602060405180830381865afa1580156119b9573d6000803e3d6000fd5b505050506040513d601f19601f820116820180604052508101906119dd9190613d87565b9050600082603360010183815481106119f8576119f8613e12565b9060005260206000200154611a0d9190613db6565b90508060336001018381548110611a2657611a26613e12565b60009182526020918290200191909155604080516001600160a01b03871681529182018390527fb36e395f001a695c24ce43be3fb7c2338a2e794c691d5665d2f7847cc231a4b5910160405180910390a150505050565b6001546001600160a01b03163314611abd57600154604051632abcdbcb60e21b81523360048201526001600160a01b039091166024820152604401610bc8565b603c8054600180820190925560007fc6bb06cb7f92603de181bf256cd16846b93b752a170ff24824098b31aa008a7e909101819055603380548084019091557f82a75bdeeae8604d839476ae9efd8b0e15aa447e21bfd7f41283bb54e22c9a820180546001600160a01b0319166001600160a01b03949094169390931790925560348054918201815582527f46bddb1178e94d7f2892ff5f366840eb658911794f2c3a44c450aa2c505186c10155565b611b75611bb4565b6001600160a01b038116611b9f57604051631e4fbdf760e01b815260006004820152602401610bc8565b611ba881612d5b565b50565b611ba8816124b5565b33611be67f9016d09d72d40fdae2fd8ceac6b6234c7706214fd39c1cd1e609a0528c199300546001600160a01b031690565b6001600160a01b031614610fc65760405163118cdaa760e01b8152336004820152602401610bc8565b6004546001600160a01b031615610fc6576000600460009054906101000a90046001600160a01b03166001600160a01b031663234209eb6040518163ffffffff1660e01b81526004016020604051808303816000875af1158015611c77573d6000803e3d6000fd5b505050506040513d601f19601f82011682018060405250810190611c9b9190613d87565b9050611ba88161305a565b60015460405163b31610db60e01b81526001600160a01b038681166004830152600092839283929091169063b31610db90602401602060405180830381865afa158015611cf7573d6000803e3d6000fd5b505050506040513d601f19601f82011682018060405250810190611d1b9190613d87565b90506000603c8281548110611d3257611d32613e12565b9060005260206000200154670de0b6b3a764000088611d519190613e28565b611d5b9190613db6565b905084861115611dc65760405162461bcd60e51b815260206004820152603060248201527f53746162696c697479506f6f6c3a2044656274206973206c617267657220746860448201526f616e20746f74616c4465706f7369747360801b6064820152608401610bc8565b848603611de2576000603d55670de0b6b3a76400009250611e37565b603d54600090611dfa670de0b6b3a764000089613e28565b611e049190613dc9565b9050611e108682613e3f565b611e1b906001613db6565b935080611e288786613e28565b611e329190613dc9565b603d55505b611e418582613e3f565b9350611e4d8585613e28565b611e579082613dc9565b603c8381548110611e6a57611e6a613e12565b9060005260206000200181905550505094509492505050565b670de0b6b3a7640000811115611edb5760405162461bcd60e51b815260206004820152601760248201527f53746162696c697479506f6f6c3a204c6f7373203c20310000000000000000006044820152606401610bc8565b603754600080611ef384670de0b6b3a7640000613dc9565b6038546001600160a01b03881660009081526039602090815260408083206001600160801b03600160801b86048116808652918452828520951680855294909252822054939450919290611f47878a613e28565b90506000611f558284613db6565b6001600160a01b038c1660008181526039602090815260408083206001600160801b038a8116808652918452828520908c1680865290845293829020869055815194855291840185905283015260608201529091507fe799d8213ffd47c58af0bad222f3f83a7bacf689130d897017d6c2cb9346e8cb9060800160405180910390a18560000361209257611fea600185613e61565b603880546001600160801b03908116600160801b918416918202179091556040519081529094507fb50f0f59e7cb5b421dc77581c3a9919e3806e076e5fa78a874c3f120cb7d874d9060200160405180910390a1603880546001600160801b0319169055604051600081527f1f9dfc70cd666adb18a39d60a797518f7b4febf4b6e24ef37d44f6e1e7219fbe9060200160405180910390a1670de0b6b3a76400009650612150565b600061209e878a613e28565b905060006120b4670de0b6b3a764000083613e3f565b9050633b9aca0081101561214957670de0b6b3a76400006120d9633b9aca0084613e28565b6120e39190613e3f565b98506120f0600188613e61565b603880546001600160801b0319166001600160801b0383169081179091556040519081529097507f1f9dfc70cd666adb18a39d60a797518f7b4febf4b6e24ef37d44f6e1e7219fbe9060200160405180910390a161214d565b8098505b50505b866000036121975760405162461bcd60e51b8152602060048201526014602482015273053746162696c697479506f6f6c3a2050203d20360641b6044820152606401610bc8565b60378790556040518781527fc1a9618cb59ebca77cbdbc2949f126823c407ff13edb285fd0262519a9c18e8c9060200160405180910390a15050505050505050505050565b600054604051632fb9ba3160e01b81526001600160a01b0385811660048301526024820184905290911690632fb9ba3190604401600060405180830381600087803b15801561222a57600080fd5b505af115801561223e573d6000803e3d6000fd5b5050505061224b81613149565b600554604051632770a7eb60e21b8152306004820152602481018390526001600160a01b0390911690639dc29fac90604401600060405180830381600087803b15801561229757600080fd5b505af11580156122ab573d6000803e3d6000fd5b50506000546040516347878f1560e01b81526001600160a01b0387811660048301523060248301526044820187905290911692506347878f159150606401600060405180830381600087803b15801561230357600080fd5b505af1158015612317573d6000803e3d6000fd5b50505050505050565b60018101546003820154603854600092916001600160801b0380821692600160801b9283900482169290041681101561235f5760009350505050610d96565b603854600090819061237b9085906001600160801b0316613e88565b9050806001600160801b03166000036123ae57846037548961239d9190613e28565b6123a79190613e3f565b91506123e2565b806001600160801b03166001036123dd57633b9aca00856037548a6123d39190613e28565b61239d9190613e3f565b600091505b6123f0633b9aca0089613e3f565b82101561240557600095505050505050610d96565b509695505050505050565b306001600160a01b037f000000000000000000000000000000000000000000000000000000000000000016148061249757507f00000000000000000000000000000000000000000000000000000000000000006001600160a01b031661248b600080516020613f81833981519152546001600160a01b031690565b6001600160a01b031614155b15610fc65760405163703e46dd60e11b815260040160405180910390fd5b611ba8611bb4565b816001600160a01b03166352d1902d6040518163ffffffff1660e01b8152600401602060405180830381865afa925050508015612517575060408051601f3d908101601f1916820190925261251491810190613d87565b60015b61253f57604051634c9c8ce360e01b81526001600160a01b0383166004820152602401610bc8565b600080516020613f81833981519152811461257057604051632a87526960e21b815260048101829052602401610bc8565b610c1f8383613198565b6003810154600282015460018301546001600160801b03600160801b840481166000818152603a602090815260408083209490971680835293905294852054909391929085906125cb908490613dc9565b6001600160801b0386166000908152603a6020526040812091925090633b9aca0090826125f9886001613e61565b6001600160801b03166001600160801b03168152602001908152602001600020546126249190613e3f565b90506000670de0b6b3a76400008461263c8486613db6565b612646908d613e28565b6126509190613e3f565b61265a9190613e3f565b9a9950505050505050505050565b306001600160a01b037f00000000000000000000000000000000000000000000000000000000000000001614610fc65760405163703e46dd60e11b815260040160405180910390fd5b7f9b779b17422d0df92223018b32b4d1fa46e071723d6817e2486d003becc55f008054600119016126f557604051633ee5aeb560e01b815260040160405180910390fd5b60029055565b80600003611ba85760405162461bcd60e51b815260206004820152602660248201527f53746162696c697479506f6f6c3a20416d6f756e74206d757374206265206e6f6044820152656e2d7a65726f60d01b6064820152608401610bc8565b6004546001600160a01b031615611ba857600061277682610dbb565b60048054604051630227f7bb60e61b81526001600160a01b03868116938201939093526024810184905292935016906389fdeec090604401600060405180830381600087803b1580156127c857600080fd5b505af11580156127dc573d6000803e3d6000fd5b50505050816001600160a01b03167f60243fd2e9882f8d26aa92149ed8254e5ebfd16b84a891bb88168b1adebda9568260405161281b91815260200190565b60405180910390a25050565b600554604051632ee65eeb60e21b81526001600160a01b038481166004830152306024830152604482018490529091169063bb997bac90606401600060405180830381600087803b15801561287b57600080fd5b505af115801561288f573d6000803e3d6000fd5b505050506000816032546128a39190613db6565b60328190556040518181529091507f8c9268469ff6265448f46f8119962e815f393b25b87bb55bda5e709a412b85d79060200160405180910390a1505050565b6001600160a01b038083166000908152603560205260408082208490556001548151634eb5750560e11b8152915192931691639d6aea0a9160048082019286929091908290030181865afa15801561293f573d6000803e3d6000fd5b505050506040513d6000823e601f3d908101601f191682016040526129679190810190613ea8565b80516001600160a01b0385166000908152603660205260408120929350909190849003612a575760005b828110156129f3576001600160a01b0386166000908152603660205260408120855182908790859081106129c7576129c7613e12565b6020908102919091018101516001600160a01b0316825281019190915260400160002055600101612991565b5060006001820181905560028201819055600382018190556040805182815260208101929092526001600160a01b038716917fc48943df4095f4f20d171fd2872eafdc0eed4d9014ac3672f3bde7fd425449d5910160405180910390a25050505050565b6038546037546001600160801b0380831692600160801b9004169060005b85811015612af4576000878281518110612a9157612a91613e12565b6020908102919091018101516001600160a01b0390811660008181526039845260408082206001600160801b03808b168452908652818320908b168352855280822054938f16825260368552808220928252919093529091205550600101612a75565b506001600160801b038281166000818152603a6020908152604080832094881680845294825291829020546001890186905560028901819055600160801b9093029093176003880155805184815292830182905290916001600160a01b038b16917fc48943df4095f4f20d171fd2872eafdc0eed4d9014ac3672f3bde7fd425449d5910160405180910390a2505050505050505050565b815181518114612bdd5760405162461bcd60e51b815260206004820152601e60248201527f53746162696c697479506f6f6c3a204c656e677468206d69736d6174636800006044820152606401610bc8565b60005b81811015612c5d576000838281518110612bfc57612bfc613e12565b6020026020010151905080600003612c175750600101612be0565b6000858381518110612c2b57612c2b613e12565b60200260200101519050612c538783836001600160a01b03166131ee9092919063ffffffff16565b5050600101612be0565b506040805160338054606060208202840181018552938301818152612d219484928491840182828015612cb957602002820191906000526020600020905b81546001600160a01b03168152600190910190602001808311612c9b575b5050505050815260200160018201805480602002602001604051908101604052809291908181526020018280548015612d1157602002820191906000526020600020905b815481526020019060010190808311612cfd575b5050505050815250508484613240565b80516110ef9160349160209091019061381f565b60017f9b779b17422d0df92223018b32b4d1fa46e071723d6817e2486d003becc55f0055565b7f9016d09d72d40fdae2fd8ceac6b6234c7706214fd39c1cd1e609a0528c19930080546001600160a01b031981166001600160a01b03848116918217845560405192169182907f8be0079c531659141344cd1fd0a4f28419497f9722a3daafe3b4186f6b6457e090600090a3505050565b612dd461331a565b611ba881613363565b612de561331a565b610fc661336b565b610fc661331a565b336000908152603560205260409020546060908190612e1381613373565b612e1b611c0f565b612e583386868080602002602001604051908101604052809392919081815260200183836020028082843760009201919091525061125792505050565b90935091506000612e6833610c24565b90506000612e7688836133dc565b90506000612e848385613dc9565b9050612e8f3361275a565b612e9933836133f2565b6000612ea58385613dc9565b9050612eb133826128e3565b60405181815233907fbce78369dccab09eec1986f4d409ab09ffbb47d65423e5148fcf98411c5111c99060200160405180910390a2336001600160a01b03167ff20651f7c9cd4e1c112f77cbf2a13a44f79d4165dd781c41b52052bfc888174a888885604051612f2393929190613ddc565b60405180910390a25050505050935093915050565b805160609060015b81811015612fb757836001820381518110612f5d57612f5d613e12565b60200260200101516001600160a01b0316848281518110612f8057612f80613e12565b60200260200101516001600160a01b031611612faf57604051637243bc1760e11b815260040160405180910390fd5b600101612f40565b508067ffffffffffffffff811115612fd157612fd1613922565b604051908082528060200260200182016040528015612ffa578160200160208202803683370190505b50915060005b818110156130515761302c868686848151811061301f5761301f613e12565b6020026020010151613473565b83828151811061303e5761303e613e12565b6020908102919091010152600101613000565b50509392505050565b603254801580613068575081155b15613071575050565b600061307d838361353f565b905060006037548261308f9190613e28565b6038546001600160801b03600160801b820481166000908152603a602090815260408083209390941682529190915220549091506130cd8282613db6565b603880546001600160801b03600160801b80830482166000908152603a60209081526040808320958516835294815290849020869055935483518681529181048316948201949094529216908201529091507f2d6127771b164a9cc8827d24b5955db2a77e7a81dac389107ebb8bce9fb64968906060016110e6565b6000816032546131599190613dc9565b60328190556040518181529091507f8c9268469ff6265448f46f8119962e815f393b25b87bb55bda5e709a412b85d79060200160405180910390a15050565b6131a182613592565b6040516001600160a01b038316907fbc7cd75a20ee27fd9adebab32041f755214dbc6bffa90cc0225b39da2e5c2d3b90600090a28051156131e657610c1f82826135f7565b610db761366d565b604080516001600160a01b038416602482015260448082018490528251808303909101815260649091019091526020810180516001600160e01b031663a9059cbb60e01b179052610c1f90849061368c565b60208301515182516060919060005b8281101561330a5760005b828110156133015786818151811061327457613274613e12565b60200260200101516001600160a01b03168860000151838151811061329b5761329b613e12565b60200260200101516001600160a01b0316036132f9578581815181106132c3576132c3613e12565b6020026020010151886020015183815181106132e1576132e1613e12565b602002602001018181516132f59190613dc9565b9052505b60010161325a565b5060010161324f565b5050506020909301519392505050565b7ff0c57e16840df040f15088dc2f81fe391c3923bec73e23a9662efc9c229c6a0054600160401b900460ff16610fc657604051631afcd79f60e31b815260040160405180910390fd5b611b7561331a565b612d3561331a565b80600003611ba85760405162461bcd60e51b815260206004820152603060248201527f53746162696c697479506f6f6c3a2055736572206d757374206861766520612060448201526f1b9bdb8b5e995c9bc819195c1bdcda5d60821b6064820152608401610bc8565b60008183106133eb5781610c70565b5090919050565b806000036133fe575050565b600554604051631062c15f60e11b81523060048201526001600160a01b03848116602483015260448201849052909116906320c582be90606401600060405180830381600087803b15801561345257600080fd5b505af1158015613466573d6000803e3d6000fd5b50505050610db781613149565b6001600160a01b0381166000908152602083815260408083205460018601546039845282852060038801546001600160801b03600160801b82048116885291865284872091168652938490529184205490929084906134d3908590613dc9565b6003880154909150600090633b9aca0090849083906134fc906001600160801b03166001613e61565b6001600160801b03166001600160801b03168152602001908152602001600020546135279190613e3f565b90506000670de0b6b3a76400008561263c8486613db6565b600080603b54670de0b6b3a7640000856135599190613e28565b6135639190613db6565b905060006135718483613e3f565b905061357d8482613e28565b6135879083613dc9565b603b55949350505050565b806001600160a01b03163b6000036135c857604051634c9c8ce360e01b81526001600160a01b0382166004820152602401610bc8565b600080516020613f8183398151915280546001600160a01b0319166001600160a01b0392909216919091179055565b6060600080846001600160a01b0316846040516136149190613f42565b600060405180830381855af49150503d806000811461364f576040519150601f19603f3d011682016040523d82523d6000602084013e613654565b606091505b50915091506136648583836136ef565b95945050505050565b3415610fc65760405163b398979f60e01b815260040160405180910390fd5b60006136a16001600160a01b0384168361374b565b905080516000141580156136c65750808060200190518101906136c49190613f5e565b155b15610c1f57604051635274afe760e01b81526001600160a01b0384166004820152602401610bc8565b606082613704576136ff82613759565b610c70565b815115801561371b57506001600160a01b0384163b155b1561374457604051639996b31560e01b81526001600160a01b0385166004820152602401610bc8565b5080610c70565b6060610c7083836000613782565b8051156137695780518082602001fd5b604051630a12f52160e11b815260040160405180910390fd5b6060814710156137a75760405163cd78605960e01b8152306004820152602401610bc8565b600080856001600160a01b031684866040516137c39190613f42565b60006040518083038185875af1925050503d8060008114613800576040519150601f19603f3d011682016040523d82523d6000602084013e613805565b606091505b50915091506138158683836136ef565b9695505050505050565b82805482825590600052602060002090810192821561385a579160200282015b8281111561385a57825182559160200191906001019061383f565b5061386692915061386a565b5090565b5b80821115613866576000815560010161386b565b6001600160a01b0381168114611ba857600080fd5b6000602082840312156138a657600080fd5b8135610c708161387f565b6000806000606084860312156138c657600080fd5b8335925060208401356138d88161387f565b929592945050506040919091013590565b600080604083850312156138fc57600080fd5b82356139078161387f565b915060208301356139178161387f565b809150509250929050565b634e487b7160e01b600052604160045260246000fd5b604051601f8201601f1916810167ffffffffffffffff8111828210171561396157613961613922565b604052919050565b6000806040838503121561397c57600080fd5b82356139878161387f565b915060208381013567ffffffffffffffff808211156139a557600080fd5b818601915086601f8301126139b957600080fd5b8135818111156139cb576139cb613922565b6139dd601f8201601f19168501613938565b915080825287848285010111156139f357600080fd5b80848401858401376000848284010152508093505050509250929050565b60008083601f840112613a2357600080fd5b50813567ffffffffffffffff811115613a3b57600080fd5b6020830191508360208260051b85010111156112c957600080fd5b600080600060408486031215613a6b57600080fd5b83359250602084013567ffffffffffffffff811115613a8957600080fd5b613a9586828701613a11565b9497909650939450505050565b80356001600160801b0381168114613ab957600080fd5b919050565b600080600060608486031215613ad357600080fd5b8335613ade8161387f565b9250613aec60208501613aa2565b9150613afa60408501613aa2565b90509250925092565b60008060408385031215613b1657600080fd5b613b1f83613aa2565b9150613b2d60208401613aa2565b90509250929050565b60005b83811015613b51578181015183820152602001613b39565b50506000910152565b6020815260008251806020840152613b79816040850160208701613b36565b601f01601f19169190910160400192915050565b600067ffffffffffffffff821115613ba757613ba7613922565b5060051b60200190565b60008060408385031215613bc457600080fd5b8235613bcf8161387f565b915060208381013567ffffffffffffffff811115613bec57600080fd5b8401601f81018613613bfd57600080fd5b8035613c10613c0b82613b8d565b613938565b81815260059190911b82018301908381019088831115613c2f57600080fd5b928401925b82841015613c56578335613c478161387f565b82529284019290840190613c34565b80955050505050509250929050565b60008151808452602080850194506020840160005b83811015613c9f5781516001600160a01b031687529582019590820190600101613c7a565b509495945050505050565b60008151808452602080850194506020840160005b83811015613c9f57815187529582019590820190600101613cbf565b604081526000613cee6040830185613c65565b82810360208401526136648185613caa565b60008060208385031215613d1357600080fd5b823567ffffffffffffffff811115613d2a57600080fd5b613d3685828601613a11565b90969095509350505050565b600060208284031215613d5457600080fd5b5035919050565b60008060408385031215613d6e57600080fd5b8235613d798161387f565b946020939093013593505050565b600060208284031215613d9957600080fd5b5051919050565b634e487b7160e01b600052601160045260246000fd5b80820180821115610d9657610d96613da0565b81810381811115610d9657610d96613da0565b606081526000613def6060830186613c65565b8281036020840152613e018186613caa565b915050826040830152949350505050565b634e487b7160e01b600052603260045260246000fd5b8082028115828204841417610d9657610d96613da0565b600082613e5c57634e487b7160e01b600052601260045260246000fd5b500490565b6001600160801b03818116838216019080821115613e8157613e81613da0565b5092915050565b6001600160801b03828116828216039080821115613e8157613e81613da0565b60006020808385031215613ebb57600080fd5b825167ffffffffffffffff811115613ed257600080fd5b8301601f81018513613ee357600080fd5b8051613ef1613c0b82613b8d565b81815260059190911b82018301908381019087831115613f1057600080fd5b928401925b82841015613f37578351613f288161387f565b82529284019290840190613f15565b979650505050505050565b60008251613f54818460208701613b36565b9190910192915050565b600060208284031215613f7057600080fd5b81518015158114610c7057600080fdfe360894a13ba1a3210667c828492db98dca3e2076cc3735a920a3ca505d382bbca164736f6c6343000817000a",
  "devdoc": {
    "details": "When a trenBox is liquidated, then depending on system conditions, some of its debt tokens debt gets offset with debt tokens in the Stability Pool: that is, the offset debt evaporates, and an equal amount of debt tokens tokens in the Stability Pool is burned. Thus, a liquidation causes each depositor to receive a debt tokens loss, in proportion to their deposit as a share of total deposits. They also receive an Collateral gain, as the amount of collateral of the liquidated trenBox is distributed among Stability depositors, in the same proportion. When a liquidation occurs, it depletes every deposit by the same fraction: for example, a liquidation that depletes 40% of the total debt tokens in the Stability Pool, depletes 40% of each deposit. A deposit that has experienced a series of liquidations is termed a \"compounded deposit\": each liquidation depletes the deposit, multiplying it by some factor in range ]0,1[ --- IMPLEMENTATION --- We use a highly scalable method of tracking deposits and Collateral gains that has O(1) complexity. When a liquidation occurs, rather than updating each depositor's deposit and Collateral gain, we simply update two state variables: a product P, and a sum S. These are kept track for each type of collateral. A mathematical manipulation allows us to factor out the initial deposit, and accurately track all depositors' compounded deposits and accumulated Collateral amount gains over time, as liquidations occur, using just these two variables P and S. When depositors join the Stability Pool, they get a snapshot of the latest P and S: P_t and S_t, respectively. The formula for a depositor's accumulated Collateral amount gain is derived here: https://github.com/liquity/dev/blob/main/papers/Scalable_Reward_Distribution_with_Compounding_Stakes.pdf For a given deposit d_t, the ratio P/P_t tells us the factor by which a deposit has decreased since it joined the Stability Pool, and the term d_t * (S - S_t)/P_t gives us the deposit's total accumulated Collateral amount gain. Each liquidation updates the product P and sum S. After a series of liquidations, a compounded deposit and corresponding Collateral amount gain can be calculated using the initial deposit, the depositors snapshots of P and S, and the latest values of P and S. Any time a depositor updates their deposit (withdrawal, top-up) their accumulated Collateral amount gain is paid out, their new deposit is recorded (based on their latest compounded deposit and modified by the withdrawal/top-up), and they receive new snapshots of the latest P and S. Essentially, they make a fresh deposit that overwrites the old one. --- SCALE FACTOR --- Since P is a running product in range ]0,1] that is always-decreasing, it should never reach 0 when multiplied by a number in range ]0,1[. Unfortunately, Solidity floor division always reaches 0, sooner or later. A series of liquidations that nearly empty the Pool (and thus each multiply P by a very small number in range ]0,1[ ) may push P to its 18 digit decimal limit, and round it to 0, when in fact the Pool hasn't been emptied: this would break deposit tracking. So, to track P accurately, we use a scale factor: if a liquidation would cause P to decrease to <1e-9 (and be rounded to 0 by Solidity), we first multiply P by 1e9, and increment a currentScale factor by 1. The added benefit of using 1e9 for the scale factor (rather than 1e18) is that it ensures negligible precision loss close to the scale boundary: when P is at its minimum value of 1e9, the relative precision loss in P due to floor division is only on the order of 1e-9. --- EPOCHS --- Whenever a liquidation fully empties the Stability Pool, all deposits should become 0. However, setting P to 0 would make P be 0 forever, and break all future reward calculations. So, every time the Stability Pool is emptied by a liquidation, we reset P = 1 and currentScale = 0, and increment the currentEpoch by 1. --- TRACKING DEPOSIT OVER SCALE CHANGES AND EPOCHS --- When a deposit is made, it gets snapshots of the currentEpoch and the currentScale. When calculating a compounded deposit, we compare the current epoch to the deposit's epoch snapshot. If the current epoch is newer, then the deposit was present during a pool-emptying liquidation, and necessarily has been depleted to 0. Otherwise, we then compare the current scale to the deposit's scale snapshot. If they're equal, the compounded deposit is given by d_t * P/P_t. If it spans one scale change, it is given by d_t * P/(P_t * 1e9). If it spans more than one scale change, we define the compounded deposit as 0, since it is now less than 1e-9'th of its initial value (e.g. a deposit of 1 billion debt tokens has depleted to < 1 debt token).  --- TRACKING DEPOSITOR'S COLLATERAL AMOUNT GAIN OVER SCALE CHANGES AND EPOCHS --- In the current epoch, the latest value of S is stored upon each scale change, and the mapping (scale -> S) is stored for each epoch. This allows us to calculate a deposit's accumulated Collateral amount gain, during the epoch in which the deposit was non-zero and earned Collateral amount. We calculate the depositor's accumulated Collateral amount gain for the scale at which they made the deposit, using the Collateral amount gain formula: e_1 = d_t * (S - S_t) / P_t and also for scale after, taking care to divide the latter by a factor of 1e9: e_2 = d_t * S / (P_t * 1e9) The gain in the second scale will be full, as the starting point was in the previous scale, thus no need to subtract anything. The deposit therefore was present for reward events from the beginning of that second scale.        S_i-S_t + S_{i+1}      .<--------.------------>      .         .      . S_i     .   S_{i+1}   <--.-------->.<----------->   S_t.         .   <->.         .      t         .  |---+---------|-------------|-----...         i            i+1 The sum of (e_1 + e_2) captures the depositor's total accumulated Collateral amount gain, handling the case where their deposit spanned one scale change. We only care about gains across one scale change, since the compounded deposit is defined as being 0 once it has spanned more than one scale change. --- UPDATING P WHEN A LIQUIDATION OCCURS --- Please see the implementation spec in the proof document, which closely follows on from the compounded deposit / Collateral amount gain derivations: https://github.com/liquity/liquity/blob/master/papers/Scalable_Reward_Distribution_with_Compounding_Stakes.pdf --- Gravita ISSUANCE TO STABILITY POOL DEPOSITORS --- An Gravita issuance event occurs at every deposit operation, and every liquidation. All deposits earn a share of the issued Gravita in proportion to the deposit as a share of total deposits. Please see the system Readme for an overview: https://github.com/liquity/dev/blob/main/README.md#lqty-issuance-to-stability-providers We use the same mathematical product-sum approach to track Gravita gains for depositors, where 'G' is the sum corresponding to Gravita gains. The product P (and snapshot P_t) is re-used, as the ratio P/P_t tracks a deposit's depletion due to liquidations.",
    "errors": {
      "AddressEmptyCode(address)": [
        {
          "details": "There's no code at `target` (it is not a contract)."
        }
      ],
      "AddressInsufficientBalance(address)": [
        {
          "details": "The ETH balance of the account is not enough to perform the operation."
        }
      ],
      "ERC1967InvalidImplementation(address)": [
        {
          "details": "The `implementation` of the proxy is invalid."
        }
      ],
      "ERC1967NonPayable()": [
        {
          "details": "An upgrade function sees `msg.value > 0` that may be lost."
        }
      ],
      "FailedInnerCall()": [
        {
          "details": "A call to an address target failed. The target may have reverted."
        }
      ],
      "InvalidInitialization()": [
        {
          "details": "The contract is already initialized."
        }
      ],
      "NotInitializing()": [
        {
          "details": "The contract is not initializing."
        }
      ],
      "OwnableInvalidOwner(address)": [
        {
          "details": "The owner is not a valid owner account. (eg. `address(0)`)"
        }
      ],
      "OwnableUnauthorizedAccount(address)": [
        {
          "details": "The caller account is not authorized to perform an operation."
        }
      ],
      "ReentrancyGuardReentrantCall()": [
        {
          "details": "Unauthorized reentrant call."
        }
      ],
      "SafeERC20FailedOperation(address)": [
        {
          "details": "An operation with an ERC20 token failed."
        }
      ],
      "UUPSUnauthorizedCallContext()": [
        {
          "details": "The call is from an unauthorized context."
        }
      ],
      "UUPSUnsupportedProxiableUUID(bytes32)": [
        {
          "details": "The storage `slot` is unsupported as a UUID."
        }
      ]
    },
    "events": {
      "Initialized(uint64)": {
        "details": "Triggered when the contract has been initialized or reinitialized."
      },
      "Upgraded(address)": {
        "details": "Emitted when the implementation is upgraded."
      }
    },
    "kind": "dev",
    "methods": {
      "addCollateralType(address)": {
        "details": "should be called anytime a collateral is added to controller keeps all arrays the correct length",
        "params": {
          "_collateral": "address of collateral to add"
        }
      },
      "getAllCollateral()": {
        "details": "gets collateral from totalColl This is not necessarily the contract's actual collateral balance; just what is stored in state",
        "returns": {
          "_0": "tokens and amounts"
        }
      },
      "getCollateral(address)": {
        "details": "Not necessarily this contract's actual collateral balance; just what is stored in state",
        "params": {
          "_collateral": "address of the collateral to get amount of"
        },
        "returns": {
          "_0": "amount of this specific collateral"
        }
      },
      "getDepositorGains(address,address[])": {
        "details": "Given by the formula:  E = d0 * (S - S(0))/P(0) where S(0) and P(0) are the depositor's snapshots of the sum S and product P, respectively. d0 is the last recorded deposit value.",
        "params": {
          "_assets": "array of assets to check gains for",
          "_depositor": "address of depositor in question"
        },
        "returns": {
          "_0": "assets, amounts"
        }
      },
      "getTotalDebtTokenDeposits()": {
        "details": "gets total debtToken from deposits",
        "returns": {
          "_0": "totalDebtTokenDeposits"
        }
      },
      "offset(uint256,address,uint256)": {
        "details": "Cancels out the specified debt against the debtTokens contained in the Stability Pool (as far as possible) and transfers the TrenBox's collateral from ActivePool to StabilityPool. Only called by liquidation functions in the TrenBoxManager.",
        "params": {
          "_amountAdded": "token amount as uint256",
          "_asset": "token address",
          "_debtToOffset": "how much debt to offset"
        }
      },
      "owner()": {
        "details": "Returns the address of the current owner."
      },
      "provideToSP(uint256,address[])": {
        "details": "Triggers a TREN issuance, based on time passed since the last issuance. The TREN issuance is shared between *all* depositors - Sends depositor's accumulated gains (TREN, collateral assets) to depositor - Increases deposit stake, and takes new snapshots for each.",
        "params": {
          "_amount": "amount of debtToken provided",
          "_assets": "an array of collaterals to be claimed. Skipping a collateral forfeits the available rewards (can be useful for gas optimizations)"
        }
      },
      "proxiableUUID()": {
        "details": "Implementation of the ERC1822 {proxiableUUID} function. This returns the storage slot used by the implementation. It is used to validate the implementation's compatibility when performing an upgrade. IMPORTANT: A proxy pointing at a proxiable contract should not be considered proxiable itself, because this risks bricking a proxy that upgrades to it, by delegating to itself until out of gas. Thus it is critical that this function revert if invoked through a proxy. This is guaranteed by the `notDelegated` modifier."
      },
      "renounceOwnership()": {
        "details": "Leaves the contract without owner. It will not be possible to call `onlyOwner` functions. Can only be called by the current owner. NOTE: Renouncing ownership will leave the contract without an owner, thereby disabling any functionality that is only available to the owner."
      },
      "transferOwnership(address)": {
        "details": "Transfers ownership of the contract to a new account (`newOwner`). Can only be called by the current owner."
      },
      "upgradeToAndCall(address,bytes)": {
        "custom:oz-upgrades-unsafe-allow-reachable": "delegatecall",
        "details": "Upgrade the implementation of the proxy to `newImplementation`, and subsequently execute the function call encoded in `data`. Calls {_authorizeUpgrade}. Emits an {Upgraded} event."
      },
      "withdrawFromSP(uint256,address[])": {
        "params": {
          "_amount": "amount of debtToken to withdraw",
          "_assets": "an array of collaterals to be claimed."
        }
      }
    },
    "title": "The Stability Pool holds debt tokens deposited by Stability Pool depositors.",
    "version": 1
  },
  "userdoc": {
    "kind": "user",
    "methods": {
      "addCollateralType(address)": {
        "notice": "add a collateral"
      },
      "getAllCollateral()": {
        "notice": "getter function"
      },
      "getCollateral(address)": {
        "notice": "get collateral balance in the SP for a given collateral type"
      },
      "getDepositorGains(address,address[])": {
        "notice": "Calculates the gains earned by the deposit since its last snapshots were taken for selected assets."
      },
      "getTotalDebtTokenDeposits()": {
        "notice": "getter function"
      },
      "offset(uint256,address,uint256)": {
        "notice": "sets the offset for liquidation"
      },
      "provideToSP(uint256,address[])": {
        "notice": "Used to provide debt tokens to the stability Pool"
      }
    },
    "version": 1
  },
  "storageLayout": {
    "storage": [
      {
        "astId": 9891,
        "contract": "contracts/StabilityPool.sol:StabilityPool",
        "label": "activePool",
        "offset": 0,
        "slot": "0",
        "type": "t_address"
      },
      {
        "astId": 9893,
        "contract": "contracts/StabilityPool.sol:StabilityPool",
        "label": "adminContract",
        "offset": 0,
        "slot": "1",
        "type": "t_address"
      },
      {
        "astId": 9895,
        "contract": "contracts/StabilityPool.sol:StabilityPool",
        "label": "borrowerOperations",
        "offset": 0,
        "slot": "2",
        "type": "t_address"
      },
      {
        "astId": 9897,
        "contract": "contracts/StabilityPool.sol:StabilityPool",
        "label": "collSurplusPool",
        "offset": 0,
        "slot": "3",
        "type": "t_address"
      },
      {
        "astId": 9899,
        "contract": "contracts/StabilityPool.sol:StabilityPool",
        "label": "communityIssuance",
        "offset": 0,
        "slot": "4",
        "type": "t_address"
      },
      {
        "astId": 9901,
        "contract": "contracts/StabilityPool.sol:StabilityPool",
        "label": "debtToken",
        "offset": 0,
        "slot": "5",
        "type": "t_address"
      },
      {
        "astId": 9903,
        "contract": "contracts/StabilityPool.sol:StabilityPool",
        "label": "defaultPool",
        "offset": 0,
        "slot": "6",
        "type": "t_address"
      },
      {
        "astId": 9905,
        "contract": "contracts/StabilityPool.sol:StabilityPool",
        "label": "feeCollector",
        "offset": 0,
        "slot": "7",
        "type": "t_address"
      },
      {
        "astId": 9907,
        "contract": "contracts/StabilityPool.sol:StabilityPool",
        "label": "gasPoolAddress",
        "offset": 0,
        "slot": "8",
        "type": "t_address"
      },
      {
        "astId": 9909,
        "contract": "contracts/StabilityPool.sol:StabilityPool",
        "label": "trenStaking",
        "offset": 0,
        "slot": "9",
        "type": "t_address"
      },
      {
        "astId": 9911,
        "contract": "contracts/StabilityPool.sol:StabilityPool",
        "label": "priceFeed",
        "offset": 0,
        "slot": "10",
        "type": "t_address"
      },
      {
        "astId": 9913,
        "contract": "contracts/StabilityPool.sol:StabilityPool",
        "label": "sortedTrenBoxes",
        "offset": 0,
        "slot": "11",
        "type": "t_address"
      },
      {
        "astId": 9915,
        "contract": "contracts/StabilityPool.sol:StabilityPool",
        "label": "stabilityPool",
        "offset": 0,
        "slot": "12",
        "type": "t_address"
      },
      {
        "astId": 9917,
        "contract": "contracts/StabilityPool.sol:StabilityPool",
        "label": "timelockAddress",
        "offset": 0,
        "slot": "13",
        "type": "t_address"
      },
      {
        "astId": 9919,
        "contract": "contracts/StabilityPool.sol:StabilityPool",
        "label": "treasuryAddress",
        "offset": 0,
        "slot": "14",
        "type": "t_address"
      },
      {
        "astId": 9921,
        "contract": "contracts/StabilityPool.sol:StabilityPool",
        "label": "trenBoxManager",
        "offset": 0,
        "slot": "15",
        "type": "t_address"
      },
      {
        "astId": 9923,
        "contract": "contracts/StabilityPool.sol:StabilityPool",
        "label": "trenBoxManagerOperations",
        "offset": 0,
        "slot": "16",
        "type": "t_address"
      },
      {
        "astId": 9925,
        "contract": "contracts/StabilityPool.sol:StabilityPool",
        "label": "isAddressSetupInitialized",
        "offset": 20,
        "slot": "16",
        "type": "t_bool"
      },
      {
        "astId": 9930,
        "contract": "contracts/StabilityPool.sol:StabilityPool",
        "label": "__gap",
        "offset": 0,
        "slot": "17",
        "type": "t_array(t_uint256)33_storage"
      },
      {
        "astId": 16563,
        "contract": "contracts/StabilityPool.sol:StabilityPool",
        "label": "totalDebtTokenDeposits",
        "offset": 0,
        "slot": "50",
        "type": "t_uint256"
      },
      {
        "astId": 16566,
        "contract": "contracts/StabilityPool.sol:StabilityPool",
        "label": "totalColl",
        "offset": 0,
        "slot": "51",
        "type": "t_struct(Colls)13212_storage"
      },
      {
        "astId": 16570,
        "contract": "contracts/StabilityPool.sol:StabilityPool",
        "label": "deposits",
        "offset": 0,
        "slot": "53",
        "type": "t_mapping(t_address,t_uint256)"
      },
      {
        "astId": 16575,
        "contract": "contracts/StabilityPool.sol:StabilityPool",
        "label": "depositSnapshots",
        "offset": 0,
        "slot": "54",
        "type": "t_mapping(t_address,t_struct(Snapshots)12914_storage)"
      },
      {
        "astId": 16577,
        "contract": "contracts/StabilityPool.sol:StabilityPool",
        "label": "P",
        "offset": 0,
        "slot": "55",
        "type": "t_uint256"
      },
      {
        "astId": 16582,
        "contract": "contracts/StabilityPool.sol:StabilityPool",
        "label": "currentScale",
        "offset": 0,
        "slot": "56",
        "type": "t_uint128"
      },
      {
        "astId": 16584,
        "contract": "contracts/StabilityPool.sol:StabilityPool",
        "label": "currentEpoch",
        "offset": 16,
        "slot": "56",
        "type": "t_uint128"
      },
      {
        "astId": 16592,
        "contract": "contracts/StabilityPool.sol:StabilityPool",
        "label": "epochToScaleToSum",
        "offset": 0,
        "slot": "57",
        "type": "t_mapping(t_address,t_mapping(t_uint128,t_mapping(t_uint128,t_uint256)))"
      },
      {
        "astId": 16598,
        "contract": "contracts/StabilityPool.sol:StabilityPool",
        "label": "epochToScaleToG",
        "offset": 0,
        "slot": "58",
        "type": "t_mapping(t_uint128,t_mapping(t_uint128,t_uint256))"
      },
      {
        "astId": 16600,
        "contract": "contracts/StabilityPool.sol:StabilityPool",
        "label": "lastTRENError",
        "offset": 0,
        "slot": "59",
        "type": "t_uint256"
      },
      {
        "astId": 16603,
        "contract": "contracts/StabilityPool.sol:StabilityPool",
        "label": "lastAssetError_Offset",
        "offset": 0,
        "slot": "60",
        "type": "t_array(t_uint256)dyn_storage"
      },
      {
        "astId": 16605,
        "contract": "contracts/StabilityPool.sol:StabilityPool",
        "label": "lastDebtTokenLossError_Offset",
        "offset": 0,
        "slot": "61",
        "type": "t_uint256"
      }
    ],
    "types": {
      "t_address": {
        "encoding": "inplace",
        "label": "address",
        "numberOfBytes": "20"
      },
      "t_array(t_address)dyn_storage": {
        "base": "t_address",
        "encoding": "dynamic_array",
        "label": "address[]",
        "numberOfBytes": "32"
      },
      "t_array(t_uint256)33_storage": {
        "base": "t_uint256",
        "encoding": "inplace",
        "label": "uint256[33]",
        "numberOfBytes": "1056"
      },
      "t_array(t_uint256)dyn_storage": {
        "base": "t_uint256",
        "encoding": "dynamic_array",
        "label": "uint256[]",
        "numberOfBytes": "32"
      },
      "t_bool": {
        "encoding": "inplace",
        "label": "bool",
        "numberOfBytes": "1"
      },
      "t_mapping(t_address,t_mapping(t_uint128,t_mapping(t_uint128,t_uint256)))": {
        "encoding": "mapping",
        "key": "t_address",
        "label": "mapping(address => mapping(uint128 => mapping(uint128 => uint256)))",
        "numberOfBytes": "32",
        "value": "t_mapping(t_uint128,t_mapping(t_uint128,t_uint256))"
      },
      "t_mapping(t_address,t_struct(Snapshots)12914_storage)": {
        "encoding": "mapping",
        "key": "t_address",
        "label": "mapping(address => struct IStabilityPool.Snapshots)",
        "numberOfBytes": "32",
        "value": "t_struct(Snapshots)12914_storage"
      },
      "t_mapping(t_address,t_uint256)": {
        "encoding": "mapping",
        "key": "t_address",
        "label": "mapping(address => uint256)",
        "numberOfBytes": "32",
        "value": "t_uint256"
      },
      "t_mapping(t_uint128,t_mapping(t_uint128,t_uint256))": {
        "encoding": "mapping",
        "key": "t_uint128",
        "label": "mapping(uint128 => mapping(uint128 => uint256))",
        "numberOfBytes": "32",
        "value": "t_mapping(t_uint128,t_uint256)"
      },
      "t_mapping(t_uint128,t_uint256)": {
        "encoding": "mapping",
        "key": "t_uint128",
        "label": "mapping(uint128 => uint256)",
        "numberOfBytes": "32",
        "value": "t_uint256"
      },
      "t_struct(Colls)13212_storage": {
        "encoding": "inplace",
        "label": "struct ITrenBase.Colls",
        "members": [
          {
            "astId": 13208,
            "contract": "contracts/StabilityPool.sol:StabilityPool",
            "label": "tokens",
            "offset": 0,
            "slot": "0",
            "type": "t_array(t_address)dyn_storage"
          },
          {
            "astId": 13211,
            "contract": "contracts/StabilityPool.sol:StabilityPool",
            "label": "amounts",
            "offset": 0,
            "slot": "1",
            "type": "t_array(t_uint256)dyn_storage"
          }
        ],
        "numberOfBytes": "64"
      },
      "t_struct(Snapshots)12914_storage": {
        "encoding": "inplace",
        "label": "struct IStabilityPool.Snapshots",
        "members": [
          {
            "astId": 12905,
            "contract": "contracts/StabilityPool.sol:StabilityPool",
            "label": "S",
            "offset": 0,
            "slot": "0",
            "type": "t_mapping(t_address,t_uint256)"
          },
          {
            "astId": 12907,
            "contract": "contracts/StabilityPool.sol:StabilityPool",
            "label": "P",
            "offset": 0,
            "slot": "1",
            "type": "t_uint256"
          },
          {
            "astId": 12909,
            "contract": "contracts/StabilityPool.sol:StabilityPool",
            "label": "G",
            "offset": 0,
            "slot": "2",
            "type": "t_uint256"
          },
          {
            "astId": 12911,
            "contract": "contracts/StabilityPool.sol:StabilityPool",
            "label": "scale",
            "offset": 0,
            "slot": "3",
            "type": "t_uint128"
          },
          {
            "astId": 12913,
            "contract": "contracts/StabilityPool.sol:StabilityPool",
            "label": "epoch",
            "offset": 16,
            "slot": "3",
            "type": "t_uint128"
          }
        ],
        "numberOfBytes": "128"
      },
      "t_uint128": {
        "encoding": "inplace",
        "label": "uint128",
        "numberOfBytes": "16"
      },
      "t_uint256": {
        "encoding": "inplace",
        "label": "uint256",
        "numberOfBytes": "32"
      }
    }
  }
}