{
  "address": "0x38657842d3C59F60370844a84801E54230f62757",
  "abi": [
    {
      "inputs": [
        {
          "internalType": "uint256",
          "name": "_delay",
          "type": "uint256"
        },
        {
          "internalType": "address",
          "name": "_adminAddress",
          "type": "address"
        }
      ],
      "stateMutability": "nonpayable",
      "type": "constructor"
    },
    {
      "inputs": [],
      "name": "Timelock__AdminOnly",
      "type": "error"
    },
    {
      "inputs": [],
      "name": "Timelock__DelayMustExceedMininumDelay",
      "type": "error"
    },
    {
      "inputs": [],
      "name": "Timelock__DelayMustNotExceedMaximumDelay",
      "type": "error"
    },
    {
      "inputs": [],
      "name": "Timelock__ETAMustSatisfyDelay",
      "type": "error"
    },
    {
      "inputs": [],
      "name": "Timelock__PendingAdminOnly",
      "type": "error"
    },
    {
      "inputs": [],
      "name": "Timelock__TimelockOnly",
      "type": "error"
    },
    {
      "inputs": [],
      "name": "Timelock__TxAlreadyQueued",
      "type": "error"
    },
    {
      "inputs": [],
      "name": "Timelock__TxExpired",
      "type": "error"
    },
    {
      "inputs": [],
      "name": "Timelock__TxNoQueued",
      "type": "error"
    },
    {
      "inputs": [],
      "name": "Timelock__TxReverted",
      "type": "error"
    },
    {
      "inputs": [],
      "name": "Timelock__TxStillLocked",
      "type": "error"
    },
    {
      "anonymous": false,
      "inputs": [
        {
          "indexed": true,
          "internalType": "bytes32",
          "name": "txHash",
          "type": "bytes32"
        },
        {
          "indexed": true,
          "internalType": "address",
          "name": "target",
          "type": "address"
        },
        {
          "indexed": false,
          "internalType": "uint256",
          "name": "value",
          "type": "uint256"
        },
        {
          "indexed": false,
          "internalType": "string",
          "name": "signature",
          "type": "string"
        },
        {
          "indexed": false,
          "internalType": "bytes",
          "name": "data",
          "type": "bytes"
        },
        {
          "indexed": false,
          "internalType": "uint256",
          "name": "eta",
          "type": "uint256"
        }
      ],
      "name": "CancelTransaction",
      "type": "event"
    },
    {
      "anonymous": false,
      "inputs": [
        {
          "indexed": true,
          "internalType": "bytes32",
          "name": "txHash",
          "type": "bytes32"
        },
        {
          "indexed": true,
          "internalType": "address",
          "name": "target",
          "type": "address"
        },
        {
          "indexed": false,
          "internalType": "uint256",
          "name": "value",
          "type": "uint256"
        },
        {
          "indexed": false,
          "internalType": "string",
          "name": "signature",
          "type": "string"
        },
        {
          "indexed": false,
          "internalType": "bytes",
          "name": "data",
          "type": "bytes"
        },
        {
          "indexed": false,
          "internalType": "uint256",
          "name": "eta",
          "type": "uint256"
        }
      ],
      "name": "ExecuteTransaction",
      "type": "event"
    },
    {
      "anonymous": false,
      "inputs": [
        {
          "indexed": true,
          "internalType": "address",
          "name": "newAdmin",
          "type": "address"
        }
      ],
      "name": "NewAdmin",
      "type": "event"
    },
    {
      "anonymous": false,
      "inputs": [
        {
          "indexed": true,
          "internalType": "uint256",
          "name": "newDelay",
          "type": "uint256"
        }
      ],
      "name": "NewDelay",
      "type": "event"
    },
    {
      "anonymous": false,
      "inputs": [
        {
          "indexed": true,
          "internalType": "address",
          "name": "newPendingAdmin",
          "type": "address"
        }
      ],
      "name": "NewPendingAdmin",
      "type": "event"
    },
    {
      "anonymous": false,
      "inputs": [
        {
          "indexed": true,
          "internalType": "bytes32",
          "name": "txHash",
          "type": "bytes32"
        },
        {
          "indexed": true,
          "internalType": "address",
          "name": "target",
          "type": "address"
        },
        {
          "indexed": false,
          "internalType": "uint256",
          "name": "value",
          "type": "uint256"
        },
        {
          "indexed": false,
          "internalType": "string",
          "name": "signature",
          "type": "string"
        },
        {
          "indexed": false,
          "internalType": "bytes",
          "name": "data",
          "type": "bytes"
        },
        {
          "indexed": false,
          "internalType": "uint256",
          "name": "eta",
          "type": "uint256"
        }
      ],
      "name": "QueueTransaction",
      "type": "event"
    },
    {
      "inputs": [],
      "name": "GRACE_PERIOD",
      "outputs": [
        {
          "internalType": "uint256",
          "name": "",
          "type": "uint256"
        }
      ],
      "stateMutability": "view",
      "type": "function"
    },
    {
      "inputs": [],
      "name": "MAXIMUM_DELAY",
      "outputs": [
        {
          "internalType": "uint256",
          "name": "",
          "type": "uint256"
        }
      ],
      "stateMutability": "view",
      "type": "function"
    },
    {
      "inputs": [],
      "name": "MINIMUM_DELAY",
      "outputs": [
        {
          "internalType": "uint256",
          "name": "",
          "type": "uint256"
        }
      ],
      "stateMutability": "view",
      "type": "function"
    },
    {
      "inputs": [],
      "name": "NAME",
      "outputs": [
        {
          "internalType": "string",
          "name": "",
          "type": "string"
        }
      ],
      "stateMutability": "view",
      "type": "function"
    },
    {
      "inputs": [],
      "name": "acceptAdmin",
      "outputs": [],
      "stateMutability": "nonpayable",
      "type": "function"
    },
    {
      "inputs": [],
      "name": "admin",
      "outputs": [
        {
          "internalType": "address",
          "name": "",
          "type": "address"
        }
      ],
      "stateMutability": "view",
      "type": "function"
    },
    {
      "inputs": [
        {
          "internalType": "address",
          "name": "target",
          "type": "address"
        },
        {
          "internalType": "uint256",
          "name": "value",
          "type": "uint256"
        },
        {
          "internalType": "string",
          "name": "signature",
          "type": "string"
        },
        {
          "internalType": "bytes",
          "name": "data",
          "type": "bytes"
        },
        {
          "internalType": "uint256",
          "name": "eta",
          "type": "uint256"
        }
      ],
      "name": "cancelTransaction",
      "outputs": [],
      "stateMutability": "nonpayable",
      "type": "function"
    },
    {
      "inputs": [],
      "name": "delay",
      "outputs": [
        {
          "internalType": "uint256",
          "name": "",
          "type": "uint256"
        }
      ],
      "stateMutability": "view",
      "type": "function"
    },
    {
      "inputs": [
        {
          "internalType": "address",
          "name": "target",
          "type": "address"
        },
        {
          "internalType": "uint256",
          "name": "value",
          "type": "uint256"
        },
        {
          "internalType": "string",
          "name": "signature",
          "type": "string"
        },
        {
          "internalType": "bytes",
          "name": "data",
          "type": "bytes"
        },
        {
          "internalType": "uint256",
          "name": "eta",
          "type": "uint256"
        }
      ],
      "name": "executeTransaction",
      "outputs": [
        {
          "internalType": "bytes",
          "name": "",
          "type": "bytes"
        }
      ],
      "stateMutability": "payable",
      "type": "function"
    },
    {
      "inputs": [],
      "name": "pendingAdmin",
      "outputs": [
        {
          "internalType": "address",
          "name": "",
          "type": "address"
        }
      ],
      "stateMutability": "view",
      "type": "function"
    },
    {
      "inputs": [
        {
          "internalType": "address",
          "name": "target",
          "type": "address"
        },
        {
          "internalType": "uint256",
          "name": "value",
          "type": "uint256"
        },
        {
          "internalType": "string",
          "name": "signature",
          "type": "string"
        },
        {
          "internalType": "bytes",
          "name": "data",
          "type": "bytes"
        },
        {
          "internalType": "uint256",
          "name": "eta",
          "type": "uint256"
        }
      ],
      "name": "queueTransaction",
      "outputs": [
        {
          "internalType": "bytes32",
          "name": "",
          "type": "bytes32"
        }
      ],
      "stateMutability": "nonpayable",
      "type": "function"
    },
    {
      "inputs": [
        {
          "internalType": "bytes32",
          "name": "",
          "type": "bytes32"
        }
      ],
      "name": "queuedTransactions",
      "outputs": [
        {
          "internalType": "bool",
          "name": "",
          "type": "bool"
        }
      ],
      "stateMutability": "view",
      "type": "function"
    },
    {
      "inputs": [
        {
          "internalType": "uint256",
          "name": "_delay",
          "type": "uint256"
        }
      ],
      "name": "setDelay",
      "outputs": [],
      "stateMutability": "nonpayable",
      "type": "function"
    },
    {
      "inputs": [
        {
          "internalType": "address",
          "name": "_pendingAdmin",
          "type": "address"
        }
      ],
      "name": "setPendingAdmin",
      "outputs": [],
      "stateMutability": "nonpayable",
      "type": "function"
    },
    {
      "stateMutability": "payable",
      "type": "receive"
    }
  ],
  "transactionHash": "0xebf28d32de486d2ce4cb75d848ff0a778fec4b849c330ac0a43c627adda3a0c6",
  "args": [
    "172800",
    "0x19E733F20aAdaB8996f7895ACBD04f746BF4Aac1"
  ],
  "numDeployments": 1,
  "solcInputHash": "e6971fb87a17deef3641f1719687e39f",
  "bytecode": "0x608060405234801561001057600080fd5b50604051610cab380380610cab83398101604081905261002f916100b4565b816202a30081101561005457604051634c2c3b8760e01b815260040160405180910390fd5b6213c68081111561007857604051631c5056b160e01b815260040160405180910390fd5b6001600160a01b03821661008b57600080fd5b50600080546001600160a01b0319166001600160a01b03929092169190911790556002556100f1565b600080604083850312156100c757600080fd5b825160208401519092506001600160a01b03811681146100e657600080fd5b809150509250929050565b610bab806101006000396000f3fe6080604052600436106100e15760003560e01c80637d645fab1161007f578063c1a287e211610059578063c1a287e21461024b578063e177246e14610262578063f2b0653714610282578063f851a440146102c257600080fd5b80637d645fab146101e9578063a3f4df7e14610200578063b1b43ae51461023457600080fd5b80633a66f901116100bb5780633a66f901146101655780634dd18bf514610193578063591fcdfe146101b35780636a42b8f8146101d357600080fd5b80630825f38f146100ed5780630e18b68114610116578063267822471461012d57600080fd5b366100e857005b600080fd5b6101006100fb366004610952565b6102e2565b60405161010d9190610a53565b60405180910390f35b34801561012257600080fd5b5061012b6104e9565b005b34801561013957600080fd5b5060015461014d906001600160a01b031681565b6040516001600160a01b03909116815260200161010d565b34801561017157600080fd5b50610185610180366004610952565b61055d565b60405190815260200161010d565b34801561019f57600080fd5b5061012b6101ae366004610a6d565b6106ad565b3480156101bf57600080fd5b5061012b6101ce366004610952565b610717565b3480156101df57600080fd5b5061018560025481565b3480156101f557600080fd5b506101856213c68081565b34801561020c57600080fd5b506101006040518060400160405280600881526020016754696d656c6f636b60c01b81525081565b34801561024057600080fd5b506101856202a30081565b34801561025757600080fd5b506101856212750081565b34801561026e57600080fd5b5061012b61027d366004610a88565b61080d565b34801561028e57600080fd5b506102b261029d366004610a88565b60036020526000908152604090205460ff1681565b604051901515815260200161010d565b3480156102ce57600080fd5b5060005461014d906001600160a01b031681565b6000546060906001600160a01b031633146103105760405163ea3e175760e01b815260040160405180910390fd5b6000868686868660405160200161032b959493929190610aa1565b60408051601f1981840301815291815281516020928301206000818152600390935291205490915060ff1661037257604051626c127560e71b815260040160405180910390fd5b824210156103935760405163a6abb5a760e01b815260040160405180910390fd5b6103a06212750084610aed565b4211156103c057604051634849c44b60e01b815260040160405180910390fd5b6000818152600360205260408120805460ff191690558551606091036103e7575083610413565b858051906020012085604051602001610401929190610b14565b60405160208183030381529060405290505b600080896001600160a01b0316898460405161042f9190610b45565b60006040518083038185875af1925050503d806000811461046c576040519150601f19603f3d011682016040523d82523d6000602084013e610471565b606091505b509150915081610494576040516301b81eed60e61b815260040160405180910390fd5b896001600160a01b0316847fa560e3198060a2f10670c1ec5b403077ea6ae93ca8de1c32b451dc1a943cd6e78b8b8b8b6040516104d49493929190610b61565b60405180910390a39998505050505050505050565b6001546001600160a01b031633146105145760405163097f043b60e01b815260040160405180910390fd5b60008054336001600160a01b0319918216811783556001805490921690915560405190917f71614071b88dee5e0b2ae578a9dd7b2ebbe9ae832ba419dc0242cd065a290b6c91a2565b600080546001600160a01b031633146105895760405163ea3e175760e01b815260040160405180910390fd5b6002546105969042610aed565b8210806105bd575062127500600254426105b09190610aed565b6105ba9190610aed565b82115b156105db576040516307feb5af60e21b815260040160405180910390fd5b600086868686866040516020016105f6959493929190610aa1565b60408051601f1981840301815291815281516020928301206000818152600390935291205490915060ff161561063f576040516381f9990f60e01b815260040160405180910390fd5b60008181526003602052604090819020805460ff19166001179055516001600160a01b0388169082907f76e2796dc3a81d57b0e8504b647febcbeeb5f4af818e164f11eef8131a6a763f9061069b908a908a908a908a90610b61565b60405180910390a39695505050505050565b3330146106cd5760405163f5bb6b8d60e01b815260040160405180910390fd5b600180546001600160a01b0319166001600160a01b0383169081179091556040517f69d78e38a01985fbb1462961809b4b2d65531bc93b2b94037f3334b82ca4a75690600090a250565b6000546001600160a01b031633146107425760405163ea3e175760e01b815260040160405180910390fd5b6000858585858560405160200161075d959493929190610aa1565b60408051601f1981840301815291815281516020928301206000818152600390935291205490915060ff166107a457604051626c127560e71b815260040160405180910390fd5b60008181526003602052604090819020805460ff19169055516001600160a01b0387169082907f2fffc091a501fd91bfbff27141450d3acb40fb8e6d8382b243ec7a812a3aaf87906107fd908990899089908990610b61565b60405180910390a3505050505050565b806202a30081101561083257604051634c2c3b8760e01b815260040160405180910390fd5b6213c68081111561085657604051631c5056b160e01b815260040160405180910390fd5b3330146108765760405163f5bb6b8d60e01b815260040160405180910390fd5b600282905560405182907f948b1f6a42ee138b7e34058ba85a37f716d55ff25ff05a763f15bed6a04c8d2c90600090a25050565b80356001600160a01b03811681146108c157600080fd5b919050565b634e487b7160e01b600052604160045260246000fd5b600067ffffffffffffffff808411156108f7576108f76108c6565b604051601f8501601f19908116603f0116810190828211818310171561091f5761091f6108c6565b8160405280935085815286868601111561093857600080fd5b858560208301376000602087830101525050509392505050565b600080600080600060a0868803121561096a57600080fd5b610973866108aa565b945060208601359350604086013567ffffffffffffffff8082111561099757600080fd5b818801915088601f8301126109ab57600080fd5b6109ba898335602085016108dc565b945060608801359150808211156109d057600080fd5b508601601f810188136109e257600080fd5b6109f1888235602084016108dc565b95989497509295608001359392505050565b60005b83811015610a1e578181015183820152602001610a06565b50506000910152565b60008151808452610a3f816020860160208601610a03565b601f01601f19169290920160200192915050565b602081526000610a666020830184610a27565b9392505050565b600060208284031215610a7f57600080fd5b610a66826108aa565b600060208284031215610a9a57600080fd5b5035919050565b60018060a01b038616815284602082015260a060408201526000610ac860a0830186610a27565b8281036060840152610ada8186610a27565b9150508260808301529695505050505050565b80820180821115610b0e57634e487b7160e01b600052601160045260246000fd5b92915050565b6001600160e01b0319831681528151600090610b37816004850160208701610a03565b919091016004019392505050565b60008251610b57818460208701610a03565b9190910192915050565b848152608060208201526000610b7a6080830186610a27565b8281036040840152610b8c8186610a27565b9150508260608301529594505050505056fea164736f6c6343000817000a",
  "devdoc": {
    "kind": "dev",
    "methods": {},
    "version": 1
  },
  "userdoc": {
    "kind": "user",
    "methods": {},
    "version": 1
  },
  "storageLayout": {
    "storage": [
      {
        "astId": 20718,
        "contract": "contracts/Timelock.sol:Timelock",
        "label": "admin",
        "offset": 0,
        "slot": "0",
        "type": "t_address"
      },
      {
        "astId": 20720,
        "contract": "contracts/Timelock.sol:Timelock",
        "label": "pendingAdmin",
        "offset": 0,
        "slot": "1",
        "type": "t_address"
      },
      {
        "astId": 20722,
        "contract": "contracts/Timelock.sol:Timelock",
        "label": "delay",
        "offset": 0,
        "slot": "2",
        "type": "t_uint256"
      },
      {
        "astId": 20726,
        "contract": "contracts/Timelock.sol:Timelock",
        "label": "queuedTransactions",
        "offset": 0,
        "slot": "3",
        "type": "t_mapping(t_bytes32,t_bool)"
      }
    ],
    "types": {
      "t_address": {
        "encoding": "inplace",
        "label": "address",
        "numberOfBytes": "20"
      },
      "t_bool": {
        "encoding": "inplace",
        "label": "bool",
        "numberOfBytes": "1"
      },
      "t_bytes32": {
        "encoding": "inplace",
        "label": "bytes32",
        "numberOfBytes": "32"
      },
      "t_mapping(t_bytes32,t_bool)": {
        "encoding": "mapping",
        "key": "t_bytes32",
        "label": "mapping(bytes32 => bool)",
        "numberOfBytes": "32",
        "value": "t_bool"
      },
      "t_uint256": {
        "encoding": "inplace",
        "label": "uint256",
        "numberOfBytes": "32"
      }
    }
  }
}