{
  "address": "0x758507DAAa0537e23ca55EBf33e1C64Cb4Ab3d36",
  "abi": [
    {
      "inputs": [
        {
          "internalType": "address",
          "name": "target",
          "type": "address"
        }
      ],
      "name": "AddressEmptyCode",
      "type": "error"
    },
    {
      "inputs": [],
      "name": "ConfigurableAddresses__CommunityIssuanceZeroAddress",
      "type": "error"
    },
    {
      "inputs": [],
      "name": "ConfigurableAddresses__LengthMismatch",
      "type": "error"
    },
    {
      "inputs": [],
      "name": "ConfigurableAddresses__SetupIsInitialized",
      "type": "error"
    },
    {
      "inputs": [],
      "name": "ConfigurableAddresses__TRENStakingZeroAddress",
      "type": "error"
    },
    {
      "inputs": [
        {
          "internalType": "uint256",
          "name": "position",
          "type": "uint256"
        },
        {
          "internalType": "address",
          "name": "address_",
          "type": "address"
        }
      ],
      "name": "ConfigurableAddresses__ZeroAddresses",
      "type": "error"
    },
    {
      "inputs": [
        {
          "internalType": "address",
          "name": "implementation",
          "type": "address"
        }
      ],
      "name": "ERC1967InvalidImplementation",
      "type": "error"
    },
    {
      "inputs": [],
      "name": "ERC1967NonPayable",
      "type": "error"
    },
    {
      "inputs": [],
      "name": "FailedInnerCall",
      "type": "error"
    },
    {
      "inputs": [],
      "name": "InvalidInitialization",
      "type": "error"
    },
    {
      "inputs": [],
      "name": "NotInitializing",
      "type": "error"
    },
    {
      "inputs": [
        {
          "internalType": "address",
          "name": "owner",
          "type": "address"
        }
      ],
      "name": "OwnableInvalidOwner",
      "type": "error"
    },
    {
      "inputs": [
        {
          "internalType": "address",
          "name": "account",
          "type": "address"
        }
      ],
      "name": "OwnableUnauthorizedAccount",
      "type": "error"
    },
    {
      "inputs": [],
      "name": "ReentrancyGuardReentrantCall",
      "type": "error"
    },
    {
      "inputs": [
        {
          "internalType": "uint256",
          "name": "feePercentage",
          "type": "uint256"
        },
        {
          "internalType": "uint256",
          "name": "maxFeePercentage",
          "type": "uint256"
        }
      ],
      "name": "TrenBase__FeeExceededMax",
      "type": "error"
    },
    {
      "inputs": [],
      "name": "TrenBoxManagerOperations__EmptyAmount",
      "type": "error"
    },
    {
      "inputs": [
        {
          "internalType": "uint256",
          "name": "lowerBoundary",
          "type": "uint256"
        },
        {
          "internalType": "uint256",
          "name": "upperBoundary",
          "type": "uint256"
        }
      ],
      "name": "TrenBoxManagerOperations__FeePercentOutOfBounds",
      "type": "error"
    },
    {
      "inputs": [
        {
          "internalType": "uint256",
          "name": "availableBalance",
          "type": "uint256"
        }
      ],
      "name": "TrenBoxManagerOperations__InsufficientDebtTokenBalance",
      "type": "error"
    },
    {
      "inputs": [],
      "name": "TrenBoxManagerOperations__InvalidArraySize",
      "type": "error"
    },
    {
      "inputs": [],
      "name": "TrenBoxManagerOperations__InvalidParam",
      "type": "error"
    },
    {
      "inputs": [],
      "name": "TrenBoxManagerOperations__NotTimelock",
      "type": "error"
    },
    {
      "inputs": [],
      "name": "TrenBoxManagerOperations__NothingToLiquidate",
      "type": "error"
    },
    {
      "inputs": [],
      "name": "TrenBoxManagerOperations__OnlyTrenBoxManager",
      "type": "error"
    },
    {
      "inputs": [],
      "name": "TrenBoxManagerOperations__RedemptionIsBlocked",
      "type": "error"
    },
    {
      "inputs": [
        {
          "internalType": "uint256",
          "name": "tcr",
          "type": "uint256"
        },
        {
          "internalType": "uint256",
          "name": "mcr",
          "type": "uint256"
        }
      ],
      "name": "TrenBoxManagerOperations__TCRMustBeAboveMCR",
      "type": "error"
    },
    {
      "inputs": [],
      "name": "TrenBoxManagerOperations__TrenBoxNotActive",
      "type": "error"
    },
    {
      "inputs": [],
      "name": "TrenBoxManagerOperations__UnableToRedeemAnyAmount",
      "type": "error"
    },
    {
      "inputs": [],
      "name": "UUPSUnauthorizedCallContext",
      "type": "error"
    },
    {
      "inputs": [
        {
          "internalType": "bytes32",
          "name": "slot",
          "type": "bytes32"
        }
      ],
      "name": "UUPSUnsupportedProxiableUUID",
      "type": "error"
    },
    {
      "anonymous": false,
      "inputs": [
        {
          "indexed": false,
          "internalType": "uint64",
          "name": "version",
          "type": "uint64"
        }
      ],
      "name": "Initialized",
      "type": "event"
    },
    {
      "anonymous": false,
      "inputs": [
        {
          "indexed": true,
          "internalType": "address",
          "name": "_asset",
          "type": "address"
        },
        {
          "indexed": false,
          "internalType": "uint256",
          "name": "_liquidatedDebt",
          "type": "uint256"
        },
        {
          "indexed": false,
          "internalType": "uint256",
          "name": "_liquidatedColl",
          "type": "uint256"
        },
        {
          "indexed": false,
          "internalType": "uint256",
          "name": "_collGasCompensation",
          "type": "uint256"
        },
        {
          "indexed": false,
          "internalType": "uint256",
          "name": "_debtTokenGasCompensation",
          "type": "uint256"
        }
      ],
      "name": "Liquidation",
      "type": "event"
    },
    {
      "anonymous": false,
      "inputs": [
        {
          "indexed": true,
          "internalType": "address",
          "name": "previousOwner",
          "type": "address"
        },
        {
          "indexed": true,
          "internalType": "address",
          "name": "newOwner",
          "type": "address"
        }
      ],
      "name": "OwnershipTransferred",
      "type": "event"
    },
    {
      "anonymous": false,
      "inputs": [
        {
          "indexed": true,
          "internalType": "address",
          "name": "_asset",
          "type": "address"
        },
        {
          "indexed": false,
          "internalType": "uint256",
          "name": "_attemptedDebtAmount",
          "type": "uint256"
        },
        {
          "indexed": false,
          "internalType": "uint256",
          "name": "_actualDebtAmount",
          "type": "uint256"
        },
        {
          "indexed": false,
          "internalType": "uint256",
          "name": "_collSent",
          "type": "uint256"
        },
        {
          "indexed": false,
          "internalType": "uint256",
          "name": "_collFee",
          "type": "uint256"
        }
      ],
      "name": "Redemption",
      "type": "event"
    },
    {
      "anonymous": false,
      "inputs": [
        {
          "indexed": false,
          "internalType": "uint256",
          "name": "_redemptionSofteningParam",
          "type": "uint256"
        }
      ],
      "name": "RedemptionSoftenParamChanged",
      "type": "event"
    },
    {
      "anonymous": false,
      "inputs": [
        {
          "indexed": true,
          "internalType": "address",
          "name": "_asset",
          "type": "address"
        },
        {
          "indexed": true,
          "internalType": "address",
          "name": "_borrower",
          "type": "address"
        },
        {
          "indexed": false,
          "internalType": "uint256",
          "name": "_debt",
          "type": "uint256"
        },
        {
          "indexed": false,
          "internalType": "uint256",
          "name": "_coll",
          "type": "uint256"
        },
        {
          "indexed": false,
          "internalType": "enum ITrenBoxManager.TrenBoxManagerOperation",
          "name": "_operation",
          "type": "uint8"
        }
      ],
      "name": "TrenBoxLiquidated",
      "type": "event"
    },
    {
      "anonymous": false,
      "inputs": [
        {
          "indexed": true,
          "internalType": "address",
          "name": "implementation",
          "type": "address"
        }
      ],
      "name": "Upgraded",
      "type": "event"
    },
    {
      "inputs": [],
      "name": "BATCH_SIZE_LIMIT",
      "outputs": [
        {
          "internalType": "uint256",
          "name": "",
          "type": "uint256"
        }
      ],
      "stateMutability": "view",
      "type": "function"
    },
    {
      "inputs": [],
      "name": "NAME",
      "outputs": [
        {
          "internalType": "string",
          "name": "",
          "type": "string"
        }
      ],
      "stateMutability": "view",
      "type": "function"
    },
    {
      "inputs": [],
      "name": "PERCENTAGE_PRECISION",
      "outputs": [
        {
          "internalType": "uint256",
          "name": "",
          "type": "uint256"
        }
      ],
      "stateMutability": "view",
      "type": "function"
    },
    {
      "inputs": [],
      "name": "UPGRADE_INTERFACE_VERSION",
      "outputs": [
        {
          "internalType": "string",
          "name": "",
          "type": "string"
        }
      ],
      "stateMutability": "view",
      "type": "function"
    },
    {
      "inputs": [],
      "name": "activePool",
      "outputs": [
        {
          "internalType": "address",
          "name": "",
          "type": "address"
        }
      ],
      "stateMutability": "view",
      "type": "function"
    },
    {
      "inputs": [],
      "name": "adminContract",
      "outputs": [
        {
          "internalType": "address",
          "name": "",
          "type": "address"
        }
      ],
      "stateMutability": "view",
      "type": "function"
    },
    {
      "inputs": [
        {
          "internalType": "address",
          "name": "newImplementation",
          "type": "address"
        }
      ],
      "name": "authorizeUpgrade",
      "outputs": [],
      "stateMutability": "nonpayable",
      "type": "function"
    },
    {
      "inputs": [
        {
          "internalType": "address",
          "name": "_asset",
          "type": "address"
        },
        {
          "internalType": "address[]",
          "name": "_trenBoxArray",
          "type": "address[]"
        }
      ],
      "name": "batchLiquidateTrenBoxes",
      "outputs": [],
      "stateMutability": "nonpayable",
      "type": "function"
    },
    {
      "inputs": [],
      "name": "borrowerOperations",
      "outputs": [
        {
          "internalType": "address",
          "name": "",
          "type": "address"
        }
      ],
      "stateMutability": "view",
      "type": "function"
    },
    {
      "inputs": [],
      "name": "collSurplusPool",
      "outputs": [
        {
          "internalType": "address",
          "name": "",
          "type": "address"
        }
      ],
      "stateMutability": "view",
      "type": "function"
    },
    {
      "inputs": [],
      "name": "communityIssuance",
      "outputs": [
        {
          "internalType": "address",
          "name": "",
          "type": "address"
        }
      ],
      "stateMutability": "view",
      "type": "function"
    },
    {
      "inputs": [
        {
          "internalType": "uint256",
          "name": "_coll",
          "type": "uint256"
        },
        {
          "internalType": "uint256",
          "name": "_debt",
          "type": "uint256"
        }
      ],
      "name": "computeNominalCR",
      "outputs": [
        {
          "internalType": "uint256",
          "name": "",
          "type": "uint256"
        }
      ],
      "stateMutability": "pure",
      "type": "function"
    },
    {
      "inputs": [],
      "name": "debtToken",
      "outputs": [
        {
          "internalType": "address",
          "name": "",
          "type": "address"
        }
      ],
      "stateMutability": "view",
      "type": "function"
    },
    {
      "inputs": [],
      "name": "defaultPool",
      "outputs": [
        {
          "internalType": "address",
          "name": "",
          "type": "address"
        }
      ],
      "stateMutability": "view",
      "type": "function"
    },
    {
      "inputs": [],
      "name": "feeCollector",
      "outputs": [
        {
          "internalType": "address",
          "name": "",
          "type": "address"
        }
      ],
      "stateMutability": "view",
      "type": "function"
    },
    {
      "inputs": [],
      "name": "flashLoanAddress",
      "outputs": [
        {
          "internalType": "address",
          "name": "",
          "type": "address"
        }
      ],
      "stateMutability": "view",
      "type": "function"
    },
    {
      "inputs": [],
      "name": "gasPoolAddress",
      "outputs": [
        {
          "internalType": "address",
          "name": "",
          "type": "address"
        }
      ],
      "stateMutability": "view",
      "type": "function"
    },
    {
      "inputs": [
        {
          "internalType": "address",
          "name": "_asset",
          "type": "address"
        },
        {
          "internalType": "uint256",
          "name": "_CR",
          "type": "uint256"
        },
        {
          "internalType": "uint256",
          "name": "_numTrials",
          "type": "uint256"
        },
        {
          "internalType": "uint256",
          "name": "_inputRandomSeed",
          "type": "uint256"
        }
      ],
      "name": "getApproxHint",
      "outputs": [
        {
          "internalType": "address",
          "name": "hintAddress",
          "type": "address"
        },
        {
          "internalType": "uint256",
          "name": "diff",
          "type": "uint256"
        },
        {
          "internalType": "uint256",
          "name": "latestRandomSeed",
          "type": "uint256"
        }
      ],
      "stateMutability": "view",
      "type": "function"
    },
    {
      "inputs": [
        {
          "internalType": "address",
          "name": "_asset",
          "type": "address"
        }
      ],
      "name": "getEntireSystemColl",
      "outputs": [
        {
          "internalType": "uint256",
          "name": "entireSystemColl",
          "type": "uint256"
        }
      ],
      "stateMutability": "view",
      "type": "function"
    },
    {
      "inputs": [
        {
          "internalType": "address",
          "name": "_asset",
          "type": "address"
        }
      ],
      "name": "getEntireSystemDebt",
      "outputs": [
        {
          "internalType": "uint256",
          "name": "entireSystemDebt",
          "type": "uint256"
        }
      ],
      "stateMutability": "view",
      "type": "function"
    },
    {
      "inputs": [
        {
          "internalType": "address",
          "name": "_asset",
          "type": "address"
        },
        {
          "internalType": "uint256",
          "name": "_debtTokenAmount",
          "type": "uint256"
        },
        {
          "internalType": "uint256",
          "name": "_price",
          "type": "uint256"
        },
        {
          "internalType": "uint256",
          "name": "_maxIterations",
          "type": "uint256"
        }
      ],
      "name": "getRedemptionHints",
      "outputs": [
        {
          "internalType": "address",
          "name": "firstRedemptionHint",
          "type": "address"
        },
        {
          "internalType": "uint256",
          "name": "partialRedemptionHintNewICR",
          "type": "uint256"
        },
        {
          "internalType": "uint256",
          "name": "truncatedDebtTokenAmount",
          "type": "uint256"
        }
      ],
      "stateMutability": "view",
      "type": "function"
    },
    {
      "inputs": [],
      "name": "initialize",
      "outputs": [],
      "stateMutability": "nonpayable",
      "type": "function"
    },
    {
      "inputs": [],
      "name": "isAddressSetupInitialized",
      "outputs": [
        {
          "internalType": "bool",
          "name": "",
          "type": "bool"
        }
      ],
      "stateMutability": "view",
      "type": "function"
    },
    {
      "inputs": [
        {
          "internalType": "address",
          "name": "_asset",
          "type": "address"
        },
        {
          "internalType": "address",
          "name": "_borrower",
          "type": "address"
        }
      ],
      "name": "liquidate",
      "outputs": [],
      "stateMutability": "nonpayable",
      "type": "function"
    },
    {
      "inputs": [
        {
          "internalType": "address",
          "name": "_asset",
          "type": "address"
        },
        {
          "internalType": "uint256",
          "name": "_n",
          "type": "uint256"
        }
      ],
      "name": "liquidateTrenBoxes",
      "outputs": [],
      "stateMutability": "nonpayable",
      "type": "function"
    },
    {
      "inputs": [],
      "name": "owner",
      "outputs": [
        {
          "internalType": "address",
          "name": "",
          "type": "address"
        }
      ],
      "stateMutability": "view",
      "type": "function"
    },
    {
      "inputs": [],
      "name": "priceFeed",
      "outputs": [
        {
          "internalType": "address",
          "name": "",
          "type": "address"
        }
      ],
      "stateMutability": "view",
      "type": "function"
    },
    {
      "inputs": [],
      "name": "proxiableUUID",
      "outputs": [
        {
          "internalType": "bytes32",
          "name": "",
          "type": "bytes32"
        }
      ],
      "stateMutability": "view",
      "type": "function"
    },
    {
      "inputs": [
        {
          "internalType": "address",
          "name": "_asset",
          "type": "address"
        },
        {
          "internalType": "uint256",
          "name": "_debtTokenAmount",
          "type": "uint256"
        },
        {
          "internalType": "address",
          "name": "_upperPartialRedemptionHint",
          "type": "address"
        },
        {
          "internalType": "address",
          "name": "_lowerPartialRedemptionHint",
          "type": "address"
        },
        {
          "internalType": "address",
          "name": "_firstRedemptionHint",
          "type": "address"
        },
        {
          "internalType": "uint256",
          "name": "_partialRedemptionHintNICR",
          "type": "uint256"
        },
        {
          "internalType": "uint256",
          "name": "_maxIterations",
          "type": "uint256"
        },
        {
          "internalType": "uint256",
          "name": "_maxFeePercentage",
          "type": "uint256"
        }
      ],
      "name": "redeemCollateral",
      "outputs": [],
      "stateMutability": "nonpayable",
      "type": "function"
    },
    {
      "inputs": [],
      "name": "redemptionSofteningParam",
      "outputs": [
        {
          "internalType": "uint256",
          "name": "",
          "type": "uint256"
        }
      ],
      "stateMutability": "view",
      "type": "function"
    },
    {
      "inputs": [],
      "name": "renounceOwnership",
      "outputs": [],
      "stateMutability": "nonpayable",
      "type": "function"
    },
    {
      "inputs": [
        {
          "internalType": "address[]",
          "name": "_addresses",
          "type": "address[]"
        }
      ],
      "name": "setAddresses",
      "outputs": [],
      "stateMutability": "nonpayable",
      "type": "function"
    },
    {
      "inputs": [
        {
          "internalType": "address",
          "name": "_communityIssuance",
          "type": "address"
        }
      ],
      "name": "setCommunityIssuance",
      "outputs": [],
      "stateMutability": "nonpayable",
      "type": "function"
    },
    {
      "inputs": [
        {
          "internalType": "uint256",
          "name": "_redemptionSofteningParam",
          "type": "uint256"
        }
      ],
      "name": "setRedemptionSofteningParam",
      "outputs": [],
      "stateMutability": "nonpayable",
      "type": "function"
    },
    {
      "inputs": [
        {
          "internalType": "address",
          "name": "_trenStaking",
          "type": "address"
        }
      ],
      "name": "setTRENStaking",
      "outputs": [],
      "stateMutability": "nonpayable",
      "type": "function"
    },
    {
      "inputs": [],
      "name": "sortedTrenBoxes",
      "outputs": [
        {
          "internalType": "address",
          "name": "",
          "type": "address"
        }
      ],
      "stateMutability": "view",
      "type": "function"
    },
    {
      "inputs": [],
      "name": "stabilityPool",
      "outputs": [
        {
          "internalType": "address",
          "name": "",
          "type": "address"
        }
      ],
      "stateMutability": "view",
      "type": "function"
    },
    {
      "inputs": [],
      "name": "timelockAddress",
      "outputs": [
        {
          "internalType": "address",
          "name": "",
          "type": "address"
        }
      ],
      "stateMutability": "view",
      "type": "function"
    },
    {
      "inputs": [
        {
          "internalType": "address",
          "name": "newOwner",
          "type": "address"
        }
      ],
      "name": "transferOwnership",
      "outputs": [],
      "stateMutability": "nonpayable",
      "type": "function"
    },
    {
      "inputs": [],
      "name": "treasuryAddress",
      "outputs": [
        {
          "internalType": "address",
          "name": "",
          "type": "address"
        }
      ],
      "stateMutability": "view",
      "type": "function"
    },
    {
      "inputs": [],
      "name": "trenBoxManager",
      "outputs": [
        {
          "internalType": "address",
          "name": "",
          "type": "address"
        }
      ],
      "stateMutability": "view",
      "type": "function"
    },
    {
      "inputs": [],
      "name": "trenBoxManagerOperations",
      "outputs": [
        {
          "internalType": "address",
          "name": "",
          "type": "address"
        }
      ],
      "stateMutability": "view",
      "type": "function"
    },
    {
      "inputs": [],
      "name": "trenStaking",
      "outputs": [
        {
          "internalType": "address",
          "name": "",
          "type": "address"
        }
      ],
      "stateMutability": "view",
      "type": "function"
    },
    {
      "inputs": [
        {
          "internalType": "address",
          "name": "newImplementation",
          "type": "address"
        },
        {
          "internalType": "bytes",
          "name": "data",
          "type": "bytes"
        }
      ],
      "name": "upgradeToAndCall",
      "outputs": [],
      "stateMutability": "payable",
      "type": "function"
    }
  ],
  "transactionHash": "0xf70ad4a0f22bb82509665a741138f4dcb9a145b3c2c35d0b99ea85cf009a1b91",
  "args": [],
  "numDeployments": 1,
  "solcInputHash": "95c5aca5a7d37a227eda09db9261aa6b",
  "bytecode": "0x60a06040523060805234801561001457600080fd5b50608051615ae86200003f600039600081816133510152818161337a01526134bb0152615ae86000f3fe6080604052600436106102675760003560e01c806395fb16bb11610144578063c8564c62116100b6578063e256888f1161007a578063e256888f1461079a578063f1c05a7e146107b0578063f2fde38b146107d0578063f8d89898146107f0578063fe06073314610810578063fe9d03231461083057600080fd5b8063c8564c62146106e9578063cc8b21e41461071a578063cda775f91461073a578063d58d446c1461075a578063d9eb5ff61461077a57600080fd5b8063b957172111610108578063b957172114610629578063bf74ba0714610649578063c05c5e9414610669578063c394a7fa14610689578063c415b95c146106a9578063c5f956af146106c957600080fd5b806395fb16bb1461054d5780639e86d0c41461056d578063a3f4df7e1461058d578063ad3cb1cc146105e3578063ad59db651461061457600080fd5b806355dafa46116101dd57806377553ad4116101a157806377553ad4146104855780637f7dde4a146104a55780638129fc1c146104c557806382eaca21146104da57806386b9d81f146104f05780638da5cb5b1461051057600080fd5b806355dafa46146103f05780636a85d67d14610410578063701526b414610430578063715018a614610450578063741bef1a1461046557600080fd5b80633cc742251161022f5780633cc742251461034857806340a44bd1146103685780634169467d146103885780634bc66f32146103a85780634f1ef286146103c857806352d1902d146103db57600080fd5b806301c931001461026c578063048c661d1461028e5780630a34d4d6146102cb57806327d04b35146102eb578063301be45914610319575b600080fd5b34801561027857600080fd5b5061028c610287366004615470565b610850565b005b34801561029a57600080fd5b50600d546102ae906001600160a01b031681565b6040516001600160a01b0390911681526020015b60405180910390f35b3480156102d757600080fd5b506011546102ae906001600160a01b031681565b3480156102f757600080fd5b5061030b610306366004615470565b6108a1565b6040519081526020016102c2565b34801561032557600080fd5b5061033961033436600461548d565b610999565b6040516102c2939291906154c8565b34801561035457600080fd5b506006546102ae906001600160a01b031681565b34801561037457600080fd5b5061028c6103833660046154e9565b61103e565b34801561039457600080fd5b506008546102ae906001600160a01b031681565b3480156103b457600080fd5b50600e546102ae906001600160a01b031681565b61028c6103d63660046155b1565b611776565b3480156103e757600080fd5b5061030b611795565b3480156103fc57600080fd5b50600a546102ae906001600160a01b031681565b34801561041c57600080fd5b5061028c61042b366004615470565b6117b2565b34801561043c57600080fd5b5061033961044b36600461548d565b611803565b34801561045c57600080fd5b5061028c611af7565b34801561047157600080fd5b50600b546102ae906001600160a01b031681565b34801561049157600080fd5b506002546102ae906001600160a01b031681565b3480156104b157600080fd5b506000546102ae906001600160a01b031681565b3480156104d157600080fd5b5061028c611b0b565b3480156104e657600080fd5b5061030b60335481565b3480156104fc57600080fd5b5061028c61050b366004615659565b611c2c565b34801561051c57600080fd5b507f9016d09d72d40fdae2fd8ceac6b6234c7706214fd39c1cd1e609a0528c199300546001600160a01b03166102ae565b34801561055957600080fd5b506004546102ae906001600160a01b031681565b34801561057957600080fd5b5061030b610588366004615470565b611d21565b34801561059957600080fd5b506105d66040518060400160405280601881526020017f5472656e426f784d616e616765724f7065726174696f6e73000000000000000081525081565b6040516102c291906156b6565b3480156105ef57600080fd5b506105d6604051806040016040528060058152602001640352e302e360dc1b81525081565b34801561062057600080fd5b5061030b601981565b34801561063557600080fd5b5061028c6106443660046156e9565b611dc8565b34801561065557600080fd5b5061028c61066436600461575e565b612349565b34801561067557600080fd5b506001546102ae906001600160a01b031681565b34801561069557600080fd5b5061030b6106a4366004615777565b6123de565b3480156106b557600080fd5b506007546102ae906001600160a01b031681565b3480156106d557600080fd5b50600f546102ae906001600160a01b031681565b3480156106f557600080fd5b5060115461070a90600160a01b900460ff1681565b60405190151581526020016102c2565b34801561072657600080fd5b50600c546102ae906001600160a01b031681565b34801561074657600080fd5b506003546102ae906001600160a01b031681565b34801561076657600080fd5b5061028c610775366004615799565b6123f3565b34801561078657600080fd5b5061028c6107953660046157c5565b61282a565b3480156107a657600080fd5b5061030b61271081565b3480156107bc57600080fd5b506010546102ae906001600160a01b031681565b3480156107dc57600080fd5b5061028c6107eb366004615470565b6129c7565b3480156107fc57600080fd5b506005546102ae906001600160a01b031681565b34801561081c57600080fd5b5061028c61082b366004615470565b612a05565b34801561083c57600080fd5b506009546102ae906001600160a01b031681565b610858612a0e565b6001600160a01b03811661087f576040516385d3330760e01b815260040160405180910390fd5b600a80546001600160a01b0319166001600160a01b0392909216919091179055565b6000805460405163c5739d0b60e01b81526001600160a01b0384811660048301528392169063c5739d0b90602401602060405180830381865afa1580156108ec573d6000803e3d6000fd5b505050506040513d601f19601f82011682018060405250810190610910919061588c565b60065460405163c5739d0b60e01b81526001600160a01b0386811660048301529293506000929091169063c5739d0b906024015b602060405180830381865afa158015610961573d6000803e3d6000fd5b505050506040513d601f19601f82011682018060405250810190610985919061588c565b905061099181836158bb565b949350505050565b604080516080810182526001600160a01b038681168083526020830187905282840186905260608301859052600c549351637608271560e01b81526004810191909152600093849384939092899285921690637608271590602401602060405180830381865afa158015610a11573d6000803e3d6000fd5b505050506040513d601f19601f82011682018060405250810190610a3591906158ce565b90505b6001600160a01b03811615801590610b3757506001548351604051633c557a6f60e11b81526001600160a01b0391821660048201529116906378aaf4de90602401602060405180830381865afa158015610a96573d6000803e3d6000fd5b505050506040513d601f19601f82011682018060405250810190610aba919061588c565b6010548451604080870151905163b1eafaab60e01b81526001600160a01b039093169263b1eafaab92610af49290918791906004016158eb565b602060405180830381865afa158015610b11573d6000803e3d6000fd5b505050506040513d601f19601f82011682018060405250810190610b35919061588c565b105b15610bb557600c5483516040516239c6e160ea1b81526001600160a01b039092169163e71b840091610b6d91859060040161590f565b602060405180830381865afa158015610b8a573d6000803e3d6000fd5b505050506040513d601f19601f82011682018060405250810190610bae91906158ce565b9050610a38565b8095508260600151600003610bcd5760001960608401525b6001600160a01b03811615801590610be457508115155b8015610c00575060608301805190610bfb82615929565b905215155b1561102557825160105460405162a79b1d60e31b8152600092610d049290916001600160a01b039091169063053cd8e890610c41908490889060040161590f565b602060405180830381865afa158015610c5e573d6000803e3d6000fd5b505050506040513d601f19601f82011682018060405250810190610c82919061588c565b601054875160405163f9a3d41f60e01b81526001600160a01b039092169163f9a3d41f91610cb491899060040161590f565b602060405180830381865afa158015610cd1573d6000803e3d6000fd5b505050506040513d601f19601f82011682018060405250810190610cf5919061588c565b610cff91906158bb565b612a69565b9050828111610d1e57610d178184615940565b9250610fab565b60015484516040516321b443a360e21b81526001600160a01b0391821660048201529116906386d10e8c90602401602060405180830381865afa158015610d69573d6000803e3d6000fd5b505050506040513d601f19601f82011682018060405250810190610d8d919061588c565b811115610fa55760015484516040516321b443a360e21b81526001600160a01b039182166004820152600092610e1c9287929116906386d10e8c906024015b602060405180830381865afa158015610de9573d6000803e3d6000fd5b505050506040513d601f19601f82011682018060405250810190610e0d919061588c565b610e179085615940565b612ae2565b6010548651604051635f0b504b60e11b81529293506000926001600160a01b039092169163be16a09691610e5491889060040161590f565b602060405180830381865afa158015610e71573d6000803e3d6000fd5b505050506040513d601f19601f82011682018060405250810190610e95919061588c565b6010548751604051633517ff1b60e11b81526001600160a01b0390921691636a2ffe3691610ec791899060040161590f565b602060405180830381865afa158015610ee4573d6000803e3d6000fd5b505050506040513d601f19601f82011682018060405250810190610f08919061588c565b610f1291906158bb565b905060008660400151670de0b6b3a764000084610f2f9190615953565b610f399190615980565b905061271060335482610f4c9190615953565b610f569190615980565b90506000610f648284615940565b90506000610f728587615940565b90506000610f848a6000015183612af8565b9050610f908382612b71565b9b50610f9c868a615940565b98505050505050505b50611025565b600c5484516040516239c6e160ea1b81526001600160a01b039092169163e71b840091610fdc91869060040161590f565b602060405180830381865afa158015610ff9573d6000803e3d6000fd5b505050506040513d601f19601f8201168201806040525081019061101d91906158ce565b915050610bcd565b61102f828a615940565b93505050509450945094915050565b611046612ba7565b61108e60405180610100016040528060008152602001600081526020016000815260200160008152602001600081526020016000815260200160008152602001600081525090565b600b54604051635670bcc760e11b81526001600160a01b038b811660048301529091169063ace1798e90602401602060405180830381865afa1580156110d8573d6000803e3d6000fd5b505050506040513d601f19601f820116820180604052508101906110fc919061588c565b60c08201819052611112908a9084908b90612bdf565b61111b896108a1565b60e082015287815260105460c08201516040516352576cdf60e01b81526000926001600160a01b0316916352576cdf9161115c918e918b91906004016158eb565b6020604051808303816000875af115801561117b573d6000803e3d6000fd5b505050506040513d601f19601f8201168201806040525081019061119f9190615994565b156111ab575084611395565b600c54604051637608271560e01b81526001600160a01b038c8116600483015290911690637608271590602401602060405180830381865afa1580156111f5573d6000803e3d6000fd5b505050506040513d601f19601f8201168201806040525081019061121991906158ce565b90505b6001600160a01b038116158015906113175750600154604051633c557a6f60e11b81526001600160a01b038c81166004830152909116906378aaf4de90602401602060405180830381865afa158015611279573d6000803e3d6000fd5b505050506040513d601f19601f8201168201806040525081019061129d919061588c565b60105460c084015160405163b1eafaab60e01b81526001600160a01b039092169163b1eafaab916112d4918f9187916004016158eb565b602060405180830381865afa1580156112f1573d6000803e3d6000fd5b505050506040513d601f19601f82011682018060405250810190611315919061588c565b105b1561139557600c546040516239c6e160ea1b81526001600160a01b039091169063e71b84009061134d908d90859060040161590f565b602060405180830381865afa15801561136a573d6000803e3d6000fd5b505050506040513d601f19601f8201168201806040525081019061138e91906158ce565b905061121c565b836000036113a35760001993505b6001600160a01b038116158015906113bb5750815115155b80156113c657508315155b1561152657836113d581615929565b600c546040516239c6e160ea1b8152919650600092506001600160a01b03169063e71b84009061140b908e90869060040161590f565b602060405180830381865afa158015611428573d6000803e3d6000fd5b505050506040513d601f19601f8201168201806040525081019061144c91906158ce565b60105460405163df4fb9ef60e01b81529192506001600160a01b03169063df4fb9ef9061147f908e90869060040161590f565b600060405180830381600087803b15801561149957600080fd5b505af11580156114ad573d6000803e3d6000fd5b5050505060006114ca8c8486600001518760c001518e8e8d612e91565b90508060400151156114dd575050611526565b805160208501516114ee91906158bb565b602080860191909152810151604085015161150991906158bb565b60408501528051845161151c9190615940565b84525090506113a3565b816040015160000361154b576040516346c7d89b60e11b815260040160405180910390fd5b60105460408084015160c085015160e0860151925163c5d75f7b60e01b81526001600160a01b038f811660048301526024820193909352604481019190915260648101929092529091169063c5d75f7b90608401600060405180830381600087803b1580156115b957600080fd5b505af11580156115cd573d6000803e3d6000fd5b50506010546040858101519051631ee9211f60e01b81526001600160a01b038f81166004830152602482019290925291169250631ee9211f9150604401602060405180830381865afa158015611627573d6000803e3d6000fd5b505050506040513d601f19601f8201168201806040525081019061164b919061588c565b606083018190526040830151611662919085613271565b60105460208301516060840151604080860151905163025eeff360e41b81526001600160a01b038f811660048301523360248301526044820194909452606481019290925260848201529116906325eeff309060a401600060405180830381600087803b1580156116d257600080fd5b505af11580156116e6573d6000803e3d6000fd5b50505050896001600160a01b03167f08b6f1ce3f9ab2722e8ea40c31a3e3a806a41702c5994f29af43dc0c1f2837df8a84602001518560400151866060015160405161174b949392919093845260208401929092526040830152606082015260800190565b60405180910390a2505061176c6001600080516020615abc83398151915255565b5050505050505050565b61177e613346565b611787826133eb565b61179182826133f3565b5050565b600061179f6134b0565b50600080516020615a9c83398151915290565b6117ba612a0e565b6001600160a01b0381166117e15760405163706ebc6560e11b815260040160405180910390fd5b600480546001600160a01b0319166001600160a01b0392909216919091179055565b60105460405163bc8793a960e01b81526001600160a01b038681166004830152600092839283928392169063bc8793a990602401602060405180830381865afa158015611854573d6000803e3d6000fd5b505050506040513d601f19601f82011682018060405250810190611878919061588c565b905080600003611892576000808693509350935050611aed565b600c54604051637608271560e01b81526001600160a01b038a8116600483015290911690637608271590602401602060405180830381865afa1580156118dc573d6000803e3d6000fd5b505050506040513d601f19601f8201168201806040525081019061190091906158ce565b6010546040516390ec230160e01b815291955061197f9189916001600160a01b0316906390ec230190611939908d908a9060040161590f565b602060405180830381865afa158015611956573d6000803e3d6000fd5b505050506040513d601f19601f8201168201806040525081019061197a919061588c565b6134f9565b925084915060015b86811015611aea5760408051602081018590520160408051601f198184030181529190528051602090910120925060006119c183856159b6565b60105460405163c226882360e01b81526001600160a01b038d81166004830152602482018490529293506000929091169063c226882390604401602060405180830381865afa158015611a18573d6000803e3d6000fd5b505050506040513d601f19601f82011682018060405250810190611a3c91906158ce565b6010546040516390ec230160e01b81529192506000916001600160a01b03909116906390ec230190611a74908f90869060040161590f565b602060405180830381865afa158015611a91573d6000803e3d6000fd5b505050506040513d601f19601f82011682018060405250810190611ab5919061588c565b90506000611ac3828d6134f9565b905087811015611ad4578097508298505b84611ade816159ca565b95505050505050611987565b50505b9450945094915050565b611aff612a0e565b611b09600061351c565b565b7ff0c57e16840df040f15088dc2f81fe391c3923bec73e23a9662efc9c229c6a008054600160401b810460ff16159067ffffffffffffffff16600081158015611b515750825b905060008267ffffffffffffffff166001148015611b6e5750303b155b905081158015611b7c575080155b15611b9a5760405163f92ee8a960e01b815260040160405180910390fd5b845467ffffffffffffffff191660011785558315611bc457845460ff60401b1916600160401b1785555b33611bce8161358d565b611bd661359e565b611bde6135a6565b508315611c2557845460ff60401b19168555604051600181527fc7f505b2f371ae2175ee4913f4499e1f2633a7b5936321eed1cdaeb6115181d29060200160405180910390a15b5050505050565b601054604051637316290f60e11b81526001600160a01b039091169063e62c521e90611c5e908590859060040161590f565b602060405180830381865afa158015611c7b573d6000803e3d6000fd5b505050506040513d601f19601f82011682018060405250810190611c9f9190615994565b611cbc5760405163327cb9bf60e11b815260040160405180910390fd5b604080516001808252818301909252600091602080830190803683370190505090508181600081518110611cf257611cf26159e3565b60200260200101906001600160a01b031690816001600160a01b031681525050611d1c838261282a565b505050565b60008054604051635373433f60e01b81526001600160a01b03848116600483015283921690635373433f90602401602060405180830381865afa158015611d6c573d6000803e3d6000fd5b505050506040513d601f19601f82011682018060405250810190611d90919061588c565b600654604051635373433f60e01b81526001600160a01b03868116600483015292935060009290911690635373433f90602401610944565b611dd0612a0e565b601154600160a01b900460ff1615611dfa57604051625f22e960e41b815260040160405180910390fd5b60108114611e1b57604051633f5a111d60e21b815260040160405180910390fd5b60005b6010811015611ebe576000838383818110611e3b57611e3b6159e3565b9050602002016020810190611e509190615470565b6001600160a01b031603611eb65780838383818110611e7157611e716159e3565b9050602002016020810190611e869190615470565b604051630d9d339f60e01b815260048101929092526001600160a01b031660248201526044015b60405180910390fd5b600101611e1e565b5081816000818110611ed257611ed26159e3565b9050602002016020810190611ee79190615470565b600080546001600160a01b0319166001600160a01b039290921691909117905581816001818110611f1a57611f1a6159e3565b9050602002016020810190611f2f9190615470565b600180546001600160a01b0319166001600160a01b039290921691909117905581816002818110611f6257611f626159e3565b9050602002016020810190611f779190615470565b600280546001600160a01b0319166001600160a01b039290921691909117905581816003818110611faa57611faa6159e3565b9050602002016020810190611fbf9190615470565b600380546001600160a01b0319166001600160a01b039290921691909117905581816004818110611ff257611ff26159e3565b90506020020160208101906120079190615470565b600580546001600160a01b0319166001600160a01b03929092169190911781558290829081811061203a5761203a6159e3565b905060200201602081019061204f9190615470565b600680546001600160a01b0319166001600160a01b039290921691909117815582908290818110612082576120826159e3565b90506020020160208101906120979190615470565b600780546001600160a01b0319166001600160a01b0392909216919091178155829082908181106120ca576120ca6159e3565b90506020020160208101906120df9190615470565b600880546001600160a01b0319166001600160a01b039290921691909117815582908290818110612112576121126159e3565b90506020020160208101906121279190615470565b600980546001600160a01b0319166001600160a01b03929092169190911781558290829081811061215a5761215a6159e3565b905060200201602081019061216f9190615470565b600b80546001600160a01b0319166001600160a01b03929092169190911790558181600a8181106121a2576121a26159e3565b90506020020160208101906121b79190615470565b600c80546001600160a01b0319166001600160a01b03929092169190911790558181600b8181106121ea576121ea6159e3565b90506020020160208101906121ff9190615470565b600d80546001600160a01b0319166001600160a01b03929092169190911790558181600c818110612232576122326159e3565b90506020020160208101906122479190615470565b600e80546001600160a01b0319166001600160a01b03929092169190911790558181600d81811061227a5761227a6159e3565b905060200201602081019061228f9190615470565b600f80546001600160a01b0319166001600160a01b03929092169190911790558181600e8181106122c2576122c26159e3565b90506020020160208101906122d79190615470565b601080546001600160a01b0319166001600160a01b03929092169190911790558181600f81811061230a5761230a6159e3565b905060200201602081019061231f9190615470565b601180546001600160a81b0319166001600160a01b039290921691909117600160a01b1790555050565b600e546001600160a01b0316331461237457604051630e50357d60e01b815260040160405180910390fd5b6125e4811080612385575061271081115b156123a3576040516334d8ee5360e21b815260040160405180910390fd5b60338190556040518181527f39e82d837dcc454e3b68bd2a39ec088a78af1570fa1a2de0b9b2e2d45c1158c69060200160405180910390a150565b60006123ea8383612b71565b90505b92915050565b6123fb612ba7565b61242f6040518060a00160405280600081526020016000815260200160001515815260200160008152602001600081525090565b6124376153ce565b600b54604051635670bcc760e11b81526001600160a01b0386811660048301529091169063ace1798e90602401602060405180830381865afa158015612481573d6000803e3d6000fd5b505050506040513d601f19601f820116820180604052508101906124a5919061588c565b8252600d5460408051630d9a6b3560e01b815290516001600160a01b0390921691630d9a6b35916004808201926020929091908290030181865afa1580156124f1573d6000803e3d6000fd5b505050506040513d601f19601f82011682018060405250810190612515919061588c565b602083015281516125279085906135b6565b158015604084015261254e5761254784836000015184602001518661363b565b9050612565565b612562848360000151846020015186613ac8565b90505b806020015160000361258a5760405163520522c760e01b815260040160405180910390fd5b60105460c082015160e0830151608084015160a0850151604051637012f7fb60e01b81526001600160a01b038a811660048301526024820195909552604481019390935260648301919091526084820152911690637012f7fb9060a401600060405180830381600087803b15801561260157600080fd5b505af1158015612615573d6000803e3d6000fd5b50505050806101000151600014612697576000546003546101008301516040516347878f1560e01b81526001600160a01b03938416936347878f1593612664938a9392909116916004016158eb565b600060405180830381600087803b15801561267e57600080fd5b505af1158015612692573d6000803e3d6000fd5b505050505b601054604082810151905163da3835ad60e01b81526001600160a01b038781166004830152602482019290925291169063da3835ad90604401600060405180830381600087803b1580156126ea57600080fd5b505af11580156126fe573d6000803e3d6000fd5b5050506020820151606084015250610100810151604082015182516127239190615940565b61272d9190615940565b6080808401829052606080850151604080860151868401518251938452602084019690965290820152908101929092526001600160a01b038616917fa3f221854f649364e9a3bb384dd1ff938482664f4a0eac0f6e39a542f5193bd3910160405180910390a26010546060820151604080840151905163b65c72bf60e01b81526001600160a01b0388811660048301523360248301526044820193909352606481019190915291169063b65c72bf90608401600060405180830381600087803b1580156127f957600080fd5b505af115801561280d573d6000803e3d6000fd5b5050505050506117916001600080516020615abc83398151915255565b612832612ba7565b80511580612841575060198151115b1561285f57604051637f9c2a2560e01b815260040160405180910390fd5b6128936040518060a00160405280600081526020016000815260200160001515815260200160008152602001600081525090565b61289b6153ce565b600d60009054906101000a90046001600160a01b03166001600160a01b0316630d9a6b356040518163ffffffff1660e01b8152600401602060405180830381865afa1580156128ee573d6000803e3d6000fd5b505050506040513d601f19601f82011682018060405250810190612912919061588c565b6020830152600b54604051635670bcc760e11b81526001600160a01b0386811660048301529091169063ace1798e90602401602060405180830381865afa158015612961573d6000803e3d6000fd5b505050506040513d601f19601f82011682018060405250810190612985919061588c565b8083526129939085906135b6565b15801560408401526129b357612547848360000151846020015186613ca8565b61256284836000015184602001518661403d565b6129cf612a0e565b6001600160a01b0381166129f957604051631e4fbdf760e01b815260006004820152602401611ead565b612a028161351c565b50565b612a02816133eb565b33612a407f9016d09d72d40fdae2fd8ceac6b6234c7706214fd39c1cd1e609a0528c199300546001600160a01b031690565b6001600160a01b031614611b095760405163118cdaa760e01b8152336004820152602401611ead565b60015460405163c08261db60e01b81526001600160a01b038481166004830152600092169063c08261db90602401602060405180830381865afa158015612ab4573d6000803e3d6000fd5b505050506040513d601f19601f82011682018060405250810190612ad8919061588c565b6123ea9083615940565b6000818310612af157816123ea565b5090919050565b60015460405163c08261db60e01b81526001600160a01b038481166004830152600092169063c08261db90602401602060405180830381865afa158015612b43573d6000803e3d6000fd5b505050506040513d601f19601f82011682018060405250810190612b67919061588c565b6123ea90836158bb565b60008115612b9e5781612b8d68056bc75e2d6310000085615953565b612b979190615980565b90506123ed565b506000196123ed565b600080516020615abc833981519152805460011901612bd957604051633ee5aeb560e01b815260040160405180910390fd5b60029055565b600154604051633d15092560e21b81526001600160a01b038681166004830152600092169063f454249490602401602060405180830381865afa158015612c2a573d6000803e3d6000fd5b505050506040513d601f19601f82011682018060405250810190612c4e919061588c565b905042811115612c7157604051637fe8d35d60e01b815260040160405180910390fd5b60015460405163443c4fcb60e01b81526001600160a01b038781166004830152600092169063443c4fcb90602401602060405180830381865afa158015612cbc573d6000803e3d6000fd5b505050506040513d601f19601f82011682018060405250810190612ce0919061588c565b905080851080612cf75750670de0b6b3a764000085115b15612d2657604051636b44726760e11b815260048101829052670de0b6b3a76400006024820152604401611ead565b83600003612d4757604051630fcbc67160e21b815260040160405180910390fd5b6005546040516370a0823160e01b81523360048201526000916001600160a01b0316906370a0823190602401602060405180830381865afa158015612d90573d6000803e3d6000fd5b505050506040513d601f19601f82011682018060405250810190612db4919061588c565b905084811015612dda5760405163780a921960e11b815260048101829052602401611ead565b6000612de688866141b9565b600154604051633c557a6f60e11b81526001600160a01b038b81166004830152929350600092909116906378aaf4de90602401602060405180830381865afa158015612e36573d6000803e3d6000fd5b505050506040513d601f19601f82011682018060405250810190612e5a919061588c565b905080821015612e865760405162132add60e91b81526004810183905260248101829052604401611ead565b505050505050505050565b612eb7604051806060016040528060008152602001600081526020016000151581525090565b60105460405163f9a3d41f60e01b81526000916001600160a01b03169063f9a3d41f90612eea908c908c9060040161590f565b602060405180830381865afa158015612f07573d6000803e3d6000fd5b505050506040513d601f19601f82011682018060405250810190612f2b919061588c565b601054604051633517ff1b60e11b81529192506000916001600160a01b0390911690636a2ffe3690612f63908d908d9060040161590f565b602060405180830381865afa158015612f80573d6000803e3d6000fd5b505050506040513d601f19601f82011682018060405250810190612fa4919061588c565b60015460405163c08261db60e01b81526001600160a01b038d81166004830152929350612fdd928b92169063c08261db90602401610dcc565b8084528790612ff590670de0b6b3a764000090615953565b612fff9190615980565b60208401819052603354612710916130179190615953565b6130219190615980565b602084015282516000906130359084615940565b905060008460200151836130499190615940565b60015460405163c08261db60e01b81526001600160a01b038f8116600483015292935091169063c08261db90602401602060405180830381865afa158015613095573d6000803e3d6000fd5b505050506040513d601f19601f820116820180604052508101906130b9919061588c565b820361312a5760105460405163456dc0ff60e11b81526001600160a01b0390911690638adb81fe906130f3908f908f9086906004016158eb565b600060405180830381600087803b15801561310d57600080fd5b505af1158015613121573d6000803e3d6000fd5b50505050613261565b60006131368284612b71565b905086811415806131bc57506001546040516321b443a360e21b81526001600160a01b038f81166004830152909116906386d10e8c90602401602060405180830381865afa15801561318c573d6000803e3d6000fd5b505050506040513d601f19601f820116820180604052508101906131b0919061588c565b6131ba8e85612a69565b105b156131d35750506001604085015250613266915050565b60105460405163038027ff60e21b81526001600160a01b038f811660048301528e811660248301526044820186905260648201859052608482018490528b811660a48301528a811660c483015290911690630e009ffc9060e401600060405180830381600087803b15801561324757600080fd5b505af115801561325b573d6000803e3d6000fd5b50505050505b505050505b979650505050505050565b600082600160009054906101000a90046001600160a01b03166001600160a01b031663a20baee66040518163ffffffff1660e01b8152600401602060405180830381865afa1580156132c7573d6000803e3d6000fd5b505050506040513d601f19601f820116820180604052508101906132eb919061588c565b6132f59086615953565b6132ff9190615980565b90508181111561332c57604051632e364cc160e21b81526004810182905260248101839052604401611ead565b50505050565b6001600080516020615abc83398151915255565b306001600160a01b037f00000000000000000000000000000000000000000000000000000000000000001614806133cd57507f00000000000000000000000000000000000000000000000000000000000000006001600160a01b03166133c1600080516020615a9c833981519152546001600160a01b031690565b6001600160a01b031614155b15611b095760405163703e46dd60e11b815260040160405180910390fd5b612a02612a0e565b816001600160a01b03166352d1902d6040518163ffffffff1660e01b8152600401602060405180830381865afa92505050801561344d575060408051601f3d908101601f1916820190925261344a9181019061588c565b60015b61347557604051634c9c8ce360e01b81526001600160a01b0383166004820152602401611ead565b600080516020615a9c83398151915281146134a657604051632a87526960e21b815260048101829052602401611ead565b611d1c83836141e8565b306001600160a01b037f00000000000000000000000000000000000000000000000000000000000000001614611b095760405163703e46dd60e11b815260040160405180910390fd5b6000818310156135125761350d8383615940565b6123ea565b6123ea8284615940565b7f9016d09d72d40fdae2fd8ceac6b6234c7706214fd39c1cd1e609a0528c19930080546001600160a01b031981166001600160a01b03848116918217845560405192169182907f8be0079c531659141344cd1fd0a4f28419497f9722a3daafe3b4186f6b6457e090600090a3505050565b61359561423e565b612a0281614287565b611b0961423e565b6135ae61423e565b611b0961428f565b6000806135c384846141b9565b60015460405163316a306d60e11b81526001600160a01b0387811660048301529293509116906362d460da90602401602060405180830381865afa15801561360f573d6000803e3d6000fd5b505050506040513d601f19601f82011682018060405250810190613633919061588c565b119392505050565b6136436153ce565b61364b61541a565b6136536153ce565b84825260006060830152613666876108a1565b608083015261367487611d21565b60a0830152600c54604051637608271560e01b81526001600160a01b03898116600483015290911690637608271590602401602060405180830381865afa1580156136c3573d6000803e3d6000fd5b505050506040513d601f19601f820116820180604052508101906136e791906158ce565b6001600160a01b03908116604084810191909152600c549051631bdb4c8d60e01b815289831660048201526000929190911690631bdb4c8d90602401602060405180830381865afa158015613740573d6000803e3d6000fd5b505050506040513d601f19601f8201168201806040525081019061376491906158ce565b905060005b858110801561378e5750816001600160a01b031684604001516001600160a01b031614155b15613abc57600c5460408086015190516239c6e160ea1b81526000926001600160a01b03169163e71b8400916137c8918e9160040161590f565b602060405180830381865afa1580156137e5573d6000803e3d6000fd5b505050506040513d601f19601f8201168201806040525081019061380991906158ce565b601054604080880151905163b1eafaab60e01b81529293506001600160a01b039091169163b1eafaab91613844918e91908e906004016158eb565b602060405180830381865afa158015613861573d6000803e3d6000fd5b505050506040513d601f19601f82011682018060405250810190613885919061588c565b602086015260608501516139e157600154604051633c557a6f60e11b81526001600160a01b038c81166004830152909116906378aaf4de90602401602060405180830381865afa1580156138dd573d6000803e3d6000fd5b505050506040513d601f19601f82011682018060405250810190613901919061588c565b85602001511015801561391357508451155b1561391e5750613abc565b60006139338660a0015187608001518c614297565b905061394f8b876040015188602001518960000151858f6142cb565b6080810151875191965061396291615940565b8652608080860151908701516139789190615940565b6080870152610100850151604086015160a0808801519089015161399c9190615940565b6139a69190615940565b6139b09190615940565b60a08701526139bf8786614b9f565b96506139d58b8760a0015188608001518d614c89565b15606087015250613aa6565b84606001518015613a625750600154604051633c557a6f60e11b81526001600160a01b038c81166004830152909116906378aaf4de90602401602060405180830381865afa158015613a37573d6000803e3d6000fd5b505050506040513d601f19601f82011682018060405250810190613a5b919061588c565b8560200151105b15613aa057613a7a8a86604001518760000151614d11565b60808101518651919550613a8d91615940565b8552613a998685614b9f565b9550613aa6565b50613abc565b6001600160a01b03166040850152600101613769565b50505050949350505050565b613ad06153ce565b613ad861541a565b613ae06153ce565b84825260005b84811015613c9d57600c54604051637608271560e01b81526001600160a01b038a8116600483015290911690637608271590602401602060405180830381865afa158015613b38573d6000803e3d6000fd5b505050506040513d601f19601f82011682018060405250810190613b5c91906158ce565b6001600160a01b039081166040808601829052601054905163b1eafaab60e01b815292169163b1eafaab91613b98918c91908c906004016158eb565b602060405180830381865afa158015613bb5573d6000803e3d6000fd5b505050506040513d601f19601f82011682018060405250810190613bd9919061588c565b6020840152600154604051633c557a6f60e11b81526001600160a01b038a81166004830152909116906378aaf4de90602401602060405180830381865afa158015613c28573d6000803e3d6000fd5b505050506040513d601f19601f82011682018060405250810190613c4c919061588c565b83602001511015613c9057613c6a8884604001518560000151614d11565b60808101518451919350613c7d91615940565b8352613c898483614b9f565b9350613c95565b613c9d565b600101613ae6565b505050949350505050565b613cb06153ce565b613cb861541a565b613cc06153ce565b84825260006060830152613cd3876108a1565b6080830152613ce187611d21565b60a083015260005b8451811015613c9d57848181518110613d0457613d046159e3565b60209081029190910101516001600160a01b0316604084015260016010546040808601519051632862f79760e11b81526001600160a01b03909216916350c5ef2e91613d55918d919060040161590f565b602060405180830381865afa158015613d72573d6000803e3d6000fd5b505050506040513d601f19601f82011682018060405250810190613d96919061588c565b14613da357600101613ce9565b601054604080850151905163b1eafaab60e01b81526001600160a01b039092169163b1eafaab91613ddb918c91908c906004016158eb565b602060405180830381865afa158015613df8573d6000803e3d6000fd5b505050506040513d601f19601f82011682018060405250810190613e1c919061588c565b60208401526060830151613f7a57600154604051633c557a6f60e11b81526001600160a01b038a81166004830152909116906378aaf4de90602401602060405180830381865afa158015613e74573d6000803e3d6000fd5b505050506040513d601f19601f82011682018060405250810190613e98919061588c565b836020015110158015613eaa57508251155b15613eb757600101613ce9565b6000613ecc8460a0015185608001518a614297565b9050613ee889856040015186602001518760000151858d6142cb565b60808101518551919450613efb91615940565b845260808084015190850151613f119190615940565b6080850152610100830151604084015160a08086015190870151613f359190615940565b613f3f9190615940565b613f499190615940565b60a0850152613f588584614b9f565b9450613f6e898560a0015186608001518b614c89565b15606085015250614035565b82606001518015613ffb5750600154604051633c557a6f60e11b81526001600160a01b038a81166004830152909116906378aaf4de90602401602060405180830381865afa158015613fd0573d6000803e3d6000fd5b505050506040513d601f19601f82011682018060405250810190613ff4919061588c565b8360200151105b15614035576140138884604001518560000151614d11565b6080810151845191935061402691615940565b83526140328483614b9f565b93505b600101613ce9565b6140456153ce565b61404d61541a565b6140556153ce565b84825260005b8451811015613c9d57848181518110614076576140766159e3565b60209081029190910101516001600160a01b039081166040808601829052601054905163b1eafaab60e01b815292169163b1eafaab916140bd918c91908c906004016158eb565b602060405180830381865afa1580156140da573d6000803e3d6000fd5b505050506040513d601f19601f820116820180604052508101906140fe919061588c565b6020840152600154604051633c557a6f60e11b81526001600160a01b038a81166004830152909116906378aaf4de90602401602060405180830381865afa15801561414d573d6000803e3d6000fd5b505050506040513d601f19601f82011682018060405250810190614171919061588c565b836020015110156141b15761418f8884604001518560000151614d11565b608081015184519193506141a291615940565b83526141ae8483614b9f565b93505b60010161405b565b6000806141c584611d21565b905060006141d2856108a1565b90506141df828286614297565b95945050505050565b6141f18261501d565b6040516001600160a01b038316907fbc7cd75a20ee27fd9adebab32041f755214dbc6bffa90cc0225b39da2e5c2d3b90600090a280511561423657611d1c8282615082565b6117916150ef565b7ff0c57e16840df040f15088dc2f81fe391c3923bec73e23a9662efc9c229c6a0054600160401b900460ff16611b0957604051631afcd79f60e31b815260040160405180910390fd5b6129cf61423e565b61333261423e565b600082156142bf576000836142ac8487615953565b6142b69190615980565b91506142c49050565b506000195b9392505050565b6142d36153ce565b6142f760405180606001604052806000815260200160008152602001600081525090565b60105460405163bc8793a960e01b81526001600160a01b038a81166004830152600192169063bc8793a990602401602060405180830381865afa158015614342573d6000803e3d6000fd5b505050506040513d601f19601f82011682018060405250810190614366919061588c565b116143715750614b95565b6010546040516309bde83560e21b81526001600160a01b03909116906326f7a0d4906143a3908b908b9060040161590f565b608060405180830381865afa1580156143c0573d6000803e3d6000fd5b505050506040513d601f19601f820116820180604052508101906143e491906159f9565b6040850152602084810191909152840181905290835261440590899061510e565b604083810191909152600154905163c08261db60e01b81526001600160a01b038a811660048301529091169063c08261db90602401602060405180830381865afa158015614457573d6000803e3d6000fd5b505050506040513d601f19601f8201168201806040525081019061447b919061588c565b6060830152604082015160208301516144949190615940565b81526001546040805163397f12d560e11b815290516001600160a01b03909216916372fe25aa916004808201926020929091908290030181865afa1580156144e0573d6000803e3d6000fd5b505050506040513d601f19601f82011682018060405250810190614504919061588c565b86116146b75760105460208201516040808401519051632076ee1d60e01b81526001600160a01b0390931692632076ee1d92614544928d926004016154c8565b600060405180830381600087803b15801561455e57600080fd5b505af1158015614572573d6000803e3d6000fd5b5050601054604051633ed3a18f60e21b81526001600160a01b03909116925063fb4e863c91506145a8908b908b9060040161590f565b600060405180830381600087803b1580156145c257600080fd5b505af11580156145d6573d6000803e3d6000fd5b505060006080850181905260a08501525050815160c0830152805160e083015260105460405163550bc5ab60e11b81526001600160a01b039091169063aa178b5690614628908b908b9060040161590f565b600060405180830381600087803b15801561464257600080fd5b505af1158015614656573d6000803e3d6000fd5b50505050866001600160a01b0316886001600160a01b03167fd13515134171b35d13ca928c7912f43125417d82681b5f284b52f97563ccb8658460000151856020015160026040516146aa93929190615a2f565b60405180910390a3614b93565b600160009054906101000a90046001600160a01b03166001600160a01b03166372fe25aa6040518163ffffffff1660e01b8152600401602060405180830381865afa15801561470a573d6000803e3d6000fd5b505050506040513d601f19601f8201168201806040525081019061472e919061588c565b861180156147a85750600154604051633c557a6f60e11b81526001600160a01b038a81166004830152909116906378aaf4de90602401602060405180830381865afa158015614781573d6000803e3d6000fd5b505050506040513d601f19601f820116820180604052508101906147a5919061588c565b86105b156148d35760105460208201516040808401519051632076ee1d60e01b81526001600160a01b0390931692632076ee1d926147e7928d926004016154c8565b600060405180830381600087803b15801561480157600080fd5b505af1158015614815573d6000803e3d6000fd5b5050601054604051633ed3a18f60e21b81526001600160a01b03909116925063fb4e863c915061484b908b908b9060040161590f565b600060405180830381600087803b15801561486557600080fd5b505af1158015614879573d6000803e3d6000fd5b50508351835161488d935090915087615187565b60e086015260c085015260a0840152608083015260105460405163550bc5ab60e11b81526001600160a01b039091169063aa178b5690614628908b908b9060040161590f565b600154604051633c557a6f60e11b81526001600160a01b038a81166004830152909116906378aaf4de90602401602060405180830381865afa15801561491d573d6000803e3d6000fd5b505050506040513d601f19601f82011682018060405250810190614941919061588c565b861015801561494f57508386105b801561495c575081518510155b15614b825760105460208201516040808401519051632076ee1d60e01b81526001600160a01b0390931692632076ee1d9261499b928d926004016154c8565b600060405180830381600087803b1580156149b557600080fd5b505af11580156149c9573d6000803e3d6000fd5b50505050846000036149dd576149dd615a69565b601054604051633ed3a18f60e21b81526001600160a01b039091169063fb4e863c90614a0f908b908b9060040161590f565b600060405180830381600087803b158015614a2957600080fd5b505af1158015614a3d573d6000803e3d6000fd5b50505050614a558883600001518460200151866151e8565b60105460405163550bc5ab60e11b81529193506001600160a01b03169063aa178b5690614a88908b908b9060040161590f565b600060405180830381600087803b158015614aa257600080fd5b505af1158015614ab6573d6000803e3d6000fd5b50505050816101000151600014614b3257600354610100830151604051633fa5152d60e21b81526001600160a01b039092169163fe9454b491614aff918c918c916004016158eb565b600060405180830381600087803b158015614b1957600080fd5b505af1158015614b2d573d6000803e3d6000fd5b505050505b866001600160a01b0316886001600160a01b03167fd13515134171b35d13ca928c7912f43125417d82681b5f284b52f97563ccb86584600001518560a0015160026040516146aa93929190615a2f565b614b8a6153ce565b9150614b959050565b505b9695505050505050565b614ba76153ce565b81604001518360400151614bbb91906158bb565b604082015260608083015190840151614bd491906158bb565b606082015281516020840151614bea91906158bb565b6020808301919091528201518351614c0291906158bb565b815260808083015190840151614c1891906158bb565b608082015260a08083015190840151614c3191906158bb565b60a082015260c08083015190840151614c4a91906158bb565b60c082015260e08083015190840151614c6391906158bb565b60e08201526101008083015190840151614c7d91906158bb565b61010082015292915050565b600080614c97858585614297565b60015460405163316a306d60e11b81526001600160a01b0389811660048301529293509116906362d460da90602401602060405180830381865afa158015614ce3573d6000803e3d6000fd5b505050506040513d601f19601f82011682018060405250810190614d07919061588c565b1195945050505050565b614d196153ce565b614d3d60405180606001604052806000815260200160008152602001600081525090565b6010546040516309bde83560e21b81526001600160a01b03909116906326f7a0d490614d6f908890889060040161590f565b608060405180830381865afa158015614d8c573d6000803e3d6000fd5b505050506040513d601f19601f82011682018060405250810190614db091906159f9565b60408086019182526020868101938452870193909352928552601054905192519151632076ee1d60e01b81526001600160a01b0390911692632076ee1d92614dfe928a9291906004016154c8565b600060405180830381600087803b158015614e1857600080fd5b505af1158015614e2c573d6000803e3d6000fd5b5050601054604051633ed3a18f60e21b81526001600160a01b03909116925063fb4e863c9150614e62908890889060040161590f565b600060405180830381600087803b158015614e7c57600080fd5b505af1158015614e90573d6000803e3d6000fd5b50505050614ea285836020015161510e565b604083810191909152600154905163c08261db60e01b81526001600160a01b0387811660048301529091169063c08261db90602401602060405180830381865afa158015614ef4573d6000803e3d6000fd5b505050506040513d601f19601f82011682018060405250810190614f18919061588c565b606083015260408201516020830151600091614f3391615940565b9050614f4483600001518286615187565b60e087015260c086015260a0850152608084015260105460405163550bc5ab60e11b81526001600160a01b039091169063aa178b5690614f8a908990899060040161590f565b600060405180830381600087803b158015614fa457600080fd5b505af1158015614fb8573d6000803e3d6000fd5b50505050846001600160a01b0316866001600160a01b03167fd13515134171b35d13ca928c7912f43125417d82681b5f284b52f97563ccb86585600001518660200151600160405161500c93929190615a2f565b60405180910390a350509392505050565b806001600160a01b03163b60000361505357604051634c9c8ce360e01b81526001600160a01b0382166004820152602401611ead565b600080516020615a9c83398151915280546001600160a01b0319166001600160a01b0392909216919091179055565b6060600080846001600160a01b03168460405161509f9190615a7f565b600060405180830381855af49150503d80600081146150da576040519150601f19603f3d011682016040523d82523d6000602084013e6150df565b606091505b50915091506141df858383615349565b3415611b095760405163b398979f60e01b815260040160405180910390fd5b6001546040516315ee08fb60e31b81526001600160a01b038481166004830152600092169063af7047d890602401602060405180830381865afa158015615159573d6000803e3d6000fd5b505050506040513d601f19601f8201168201806040525081019061517d919061588c565b6123ea9083615980565b600080808084156151d25761519c8786612ae2565b9350866151a98588615953565b6151b39190615980565b92506151bf8488615940565b91506151cb8387615940565b90506151df565b5060009250829150859050845b93509350935093565b6151f06153ce565b83815260208101839052600154604051633c557a6f60e11b81526001600160a01b03878116600483015260009285929116906378aaf4de90602401602060405180830381865afa158015615248573d6000803e3d6000fd5b505050506040513d601f19601f8201168201806040525081019061526c919061588c565b6152769087615953565b6152809190615980565b905061528c868261510e565b604083810191909152600154905163c08261db60e01b81526001600160a01b0388811660048301529091169063c08261db90602401602060405180830381865afa1580156152de573d6000803e3d6000fd5b505050506040513d601f19601f82011682018060405250810190615302919061588c565b606083015260808201859052604082015161531d9082615940565b60a083015261532c8185615940565b61010083015250600060c0820181905260e0820152949350505050565b60608261535e57615359826153a5565b6142c4565b815115801561537557506001600160a01b0384163b155b1561539e57604051639996b31560e01b81526001600160a01b0385166004820152602401611ead565b50806142c4565b8051156153b55780518082602001fd5b604051630a12f52160e11b815260040160405180910390fd5b6040518061012001604052806000815260200160008152602001600081526020016000815260200160008152602001600081526020016000815260200160008152602001600081525090565b6040518060c00160405280600081526020016000815260200160006001600160a01b0316815260200160001515815260200160008152602001600081525090565b6001600160a01b0381168114612a0257600080fd5b60006020828403121561548257600080fd5b81356142c48161545b565b600080600080608085870312156154a357600080fd5b84356154ae8161545b565b966020860135965060408601359560600135945092505050565b6001600160a01b039390931683526020830191909152604082015260600190565b600080600080600080600080610100898b03121561550657600080fd5b88356155118161545b565b97506020890135965060408901356155288161545b565b955060608901356155388161545b565b945060808901356155488161545b565b979a969950949793969560a0850135955060c08501359460e001359350915050565b634e487b7160e01b600052604160045260246000fd5b604051601f8201601f1916810167ffffffffffffffff811182821017156155a9576155a961556a565b604052919050565b600080604083850312156155c457600080fd5b82356155cf8161545b565b915060208381013567ffffffffffffffff808211156155ed57600080fd5b818601915086601f83011261560157600080fd5b8135818111156156135761561361556a565b615625601f8201601f19168501615580565b9150808252878482850101111561563b57600080fd5b80848401858401376000848284010152508093505050509250929050565b6000806040838503121561566c57600080fd5b82356156778161545b565b915060208301356156878161545b565b809150509250929050565b60005b838110156156ad578181015183820152602001615695565b50506000910152565b60208152600082518060208401526156d5816040850160208701615692565b601f01601f19169190910160400192915050565b600080602083850312156156fc57600080fd5b823567ffffffffffffffff8082111561571457600080fd5b818501915085601f83011261572857600080fd5b81358181111561573757600080fd5b8660208260051b850101111561574c57600080fd5b60209290920196919550909350505050565b60006020828403121561577057600080fd5b5035919050565b6000806040838503121561578a57600080fd5b50508035926020909101359150565b600080604083850312156157ac57600080fd5b82356157b78161545b565b946020939093013593505050565b600080604083850312156157d857600080fd5b82356157e38161545b565b915060208381013567ffffffffffffffff8082111561580157600080fd5b818601915086601f83011261581557600080fd5b8135818111156158275761582761556a565b8060051b9150615838848301615580565b818152918301840191848101908984111561585257600080fd5b938501935b8385101561587c578435925061586c8361545b565b8282529385019390850190615857565b8096505050505050509250929050565b60006020828403121561589e57600080fd5b5051919050565b634e487b7160e01b600052601160045260246000fd5b808201808211156123ed576123ed6158a5565b6000602082840312156158e057600080fd5b81516142c48161545b565b6001600160a01b039384168152919092166020820152604081019190915260600190565b6001600160a01b0392831681529116602082015260400190565b600081615938576159386158a5565b506000190190565b818103818111156123ed576123ed6158a5565b80820281158282048414176123ed576123ed6158a5565b634e487b7160e01b600052601260045260246000fd5b60008261598f5761598f61596a565b500490565b6000602082840312156159a657600080fd5b815180151581146142c457600080fd5b6000826159c5576159c561596a565b500690565b6000600182016159dc576159dc6158a5565b5060010190565b634e487b7160e01b600052603260045260246000fd5b60008060008060808587031215615a0f57600080fd5b505082516020840151604085015160609095015191969095509092509050565b838152602081018390526060810160048310615a5b57634e487b7160e01b600052602160045260246000fd5b826040830152949350505050565b634e487b7160e01b600052600160045260246000fd5b60008251615a91818460208701615692565b919091019291505056fe360894a13ba1a3210667c828492db98dca3e2076cc3735a920a3ca505d382bbc9b779b17422d0df92223018b32b4d1fa46e071723d6817e2486d003becc55f00a164736f6c6343000817000a",
  "devdoc": {
    "errors": {
      "AddressEmptyCode(address)": [
        {
          "details": "There's no code at `target` (it is not a contract)."
        }
      ],
      "ERC1967InvalidImplementation(address)": [
        {
          "details": "The `implementation` of the proxy is invalid."
        }
      ],
      "ERC1967NonPayable()": [
        {
          "details": "An upgrade function sees `msg.value > 0` that may be lost."
        }
      ],
      "FailedInnerCall()": [
        {
          "details": "A call to an address target failed. The target may have reverted."
        }
      ],
      "InvalidInitialization()": [
        {
          "details": "The contract is already initialized."
        }
      ],
      "NotInitializing()": [
        {
          "details": "The contract is not initializing."
        }
      ],
      "OwnableInvalidOwner(address)": [
        {
          "details": "The owner is not a valid owner account. (eg. `address(0)`)"
        }
      ],
      "OwnableUnauthorizedAccount(address)": [
        {
          "details": "The caller account is not authorized to perform an operation."
        }
      ],
      "ReentrancyGuardReentrantCall()": [
        {
          "details": "Unauthorized reentrant call."
        }
      ],
      "UUPSUnauthorizedCallContext()": [
        {
          "details": "The call is from an unauthorized context."
        }
      ],
      "UUPSUnsupportedProxiableUUID(bytes32)": [
        {
          "details": "The storage `slot` is unsupported as a UUID."
        }
      ]
    },
    "events": {
      "Initialized(uint64)": {
        "details": "Triggered when the contract has been initialized or reinitialized."
      },
      "Upgraded(address)": {
        "details": "Emitted when the implementation is upgraded."
      }
    },
    "kind": "dev",
    "methods": {
      "owner()": {
        "details": "Returns the address of the current owner."
      },
      "proxiableUUID()": {
        "details": "Implementation of the ERC1822 {proxiableUUID} function. This returns the storage slot used by the implementation. It is used to validate the implementation's compatibility when performing an upgrade. IMPORTANT: A proxy pointing at a proxiable contract should not be considered proxiable itself, because this risks bricking a proxy that upgrades to it, by delegating to itself until out of gas. Thus it is critical that this function revert if invoked through a proxy. This is guaranteed by the `notDelegated` modifier."
      },
      "renounceOwnership()": {
        "details": "Leaves the contract without owner. It will not be possible to call `onlyOwner` functions. Can only be called by the current owner. NOTE: Renouncing ownership will leave the contract without an owner, thereby disabling any functionality that is only available to the owner."
      },
      "transferOwnership(address)": {
        "details": "Transfers ownership of the contract to a new account (`newOwner`). Can only be called by the current owner."
      },
      "upgradeToAndCall(address,bytes)": {
        "custom:oz-upgrades-unsafe-allow-reachable": "delegatecall",
        "details": "Upgrade the implementation of the proxy to `newImplementation`, and subsequently execute the function call encoded in `data`. Calls {_authorizeUpgrade}. Emits an {Upgraded} event."
      }
    },
    "version": 1
  },
  "userdoc": {
    "kind": "user",
    "methods": {},
    "version": 1
  },
  "storageLayout": {
    "storage": [
      {
        "astId": 9991,
        "contract": "contracts/TrenBoxManagerOperations.sol:TrenBoxManagerOperations",
        "label": "activePool",
        "offset": 0,
        "slot": "0",
        "type": "t_address"
      },
      {
        "astId": 9993,
        "contract": "contracts/TrenBoxManagerOperations.sol:TrenBoxManagerOperations",
        "label": "adminContract",
        "offset": 0,
        "slot": "1",
        "type": "t_address"
      },
      {
        "astId": 9995,
        "contract": "contracts/TrenBoxManagerOperations.sol:TrenBoxManagerOperations",
        "label": "borrowerOperations",
        "offset": 0,
        "slot": "2",
        "type": "t_address"
      },
      {
        "astId": 9997,
        "contract": "contracts/TrenBoxManagerOperations.sol:TrenBoxManagerOperations",
        "label": "collSurplusPool",
        "offset": 0,
        "slot": "3",
        "type": "t_address"
      },
      {
        "astId": 9999,
        "contract": "contracts/TrenBoxManagerOperations.sol:TrenBoxManagerOperations",
        "label": "communityIssuance",
        "offset": 0,
        "slot": "4",
        "type": "t_address"
      },
      {
        "astId": 10001,
        "contract": "contracts/TrenBoxManagerOperations.sol:TrenBoxManagerOperations",
        "label": "debtToken",
        "offset": 0,
        "slot": "5",
        "type": "t_address"
      },
      {
        "astId": 10003,
        "contract": "contracts/TrenBoxManagerOperations.sol:TrenBoxManagerOperations",
        "label": "defaultPool",
        "offset": 0,
        "slot": "6",
        "type": "t_address"
      },
      {
        "astId": 10005,
        "contract": "contracts/TrenBoxManagerOperations.sol:TrenBoxManagerOperations",
        "label": "feeCollector",
        "offset": 0,
        "slot": "7",
        "type": "t_address"
      },
      {
        "astId": 10007,
        "contract": "contracts/TrenBoxManagerOperations.sol:TrenBoxManagerOperations",
        "label": "flashLoanAddress",
        "offset": 0,
        "slot": "8",
        "type": "t_address"
      },
      {
        "astId": 10009,
        "contract": "contracts/TrenBoxManagerOperations.sol:TrenBoxManagerOperations",
        "label": "gasPoolAddress",
        "offset": 0,
        "slot": "9",
        "type": "t_address"
      },
      {
        "astId": 10011,
        "contract": "contracts/TrenBoxManagerOperations.sol:TrenBoxManagerOperations",
        "label": "trenStaking",
        "offset": 0,
        "slot": "10",
        "type": "t_address"
      },
      {
        "astId": 10013,
        "contract": "contracts/TrenBoxManagerOperations.sol:TrenBoxManagerOperations",
        "label": "priceFeed",
        "offset": 0,
        "slot": "11",
        "type": "t_address"
      },
      {
        "astId": 10015,
        "contract": "contracts/TrenBoxManagerOperations.sol:TrenBoxManagerOperations",
        "label": "sortedTrenBoxes",
        "offset": 0,
        "slot": "12",
        "type": "t_address"
      },
      {
        "astId": 10017,
        "contract": "contracts/TrenBoxManagerOperations.sol:TrenBoxManagerOperations",
        "label": "stabilityPool",
        "offset": 0,
        "slot": "13",
        "type": "t_address"
      },
      {
        "astId": 10019,
        "contract": "contracts/TrenBoxManagerOperations.sol:TrenBoxManagerOperations",
        "label": "timelockAddress",
        "offset": 0,
        "slot": "14",
        "type": "t_address"
      },
      {
        "astId": 10021,
        "contract": "contracts/TrenBoxManagerOperations.sol:TrenBoxManagerOperations",
        "label": "treasuryAddress",
        "offset": 0,
        "slot": "15",
        "type": "t_address"
      },
      {
        "astId": 10023,
        "contract": "contracts/TrenBoxManagerOperations.sol:TrenBoxManagerOperations",
        "label": "trenBoxManager",
        "offset": 0,
        "slot": "16",
        "type": "t_address"
      },
      {
        "astId": 10025,
        "contract": "contracts/TrenBoxManagerOperations.sol:TrenBoxManagerOperations",
        "label": "trenBoxManagerOperations",
        "offset": 0,
        "slot": "17",
        "type": "t_address"
      },
      {
        "astId": 10027,
        "contract": "contracts/TrenBoxManagerOperations.sol:TrenBoxManagerOperations",
        "label": "isAddressSetupInitialized",
        "offset": 20,
        "slot": "17",
        "type": "t_bool"
      },
      {
        "astId": 10032,
        "contract": "contracts/TrenBoxManagerOperations.sol:TrenBoxManagerOperations",
        "label": "__gap",
        "offset": 0,
        "slot": "18",
        "type": "t_array(t_uint256)33_storage"
      },
      {
        "astId": 24979,
        "contract": "contracts/TrenBoxManagerOperations.sol:TrenBoxManagerOperations",
        "label": "redemptionSofteningParam",
        "offset": 0,
        "slot": "51",
        "type": "t_uint256"
      }
    ],
    "types": {
      "t_address": {
        "encoding": "inplace",
        "label": "address",
        "numberOfBytes": "20"
      },
      "t_array(t_uint256)33_storage": {
        "base": "t_uint256",
        "encoding": "inplace",
        "label": "uint256[33]",
        "numberOfBytes": "1056"
      },
      "t_bool": {
        "encoding": "inplace",
        "label": "bool",
        "numberOfBytes": "1"
      },
      "t_uint256": {
        "encoding": "inplace",
        "label": "uint256",
        "numberOfBytes": "32"
      }
    }
  }
}