{
  "address": "0xfCD3b631B6e99F6b448bf91c3cc0024B13bC45ED",
  "abi": [
    {
      "inputs": [
        {
          "internalType": "address",
          "name": "target",
          "type": "address"
        }
      ],
      "name": "AddressEmptyCode",
      "type": "error"
    },
    {
      "inputs": [
        {
          "internalType": "address",
          "name": "implementation",
          "type": "address"
        }
      ],
      "name": "ERC1967InvalidImplementation",
      "type": "error"
    },
    {
      "inputs": [],
      "name": "ERC1967NonPayable",
      "type": "error"
    },
    {
      "inputs": [],
      "name": "FailedInnerCall",
      "type": "error"
    },
    {
      "inputs": [],
      "name": "InvalidInitialization",
      "type": "error"
    },
    {
      "inputs": [],
      "name": "NotInitializing",
      "type": "error"
    },
    {
      "inputs": [
        {
          "internalType": "address",
          "name": "owner",
          "type": "address"
        }
      ],
      "name": "OwnableInvalidOwner",
      "type": "error"
    },
    {
      "inputs": [
        {
          "internalType": "address",
          "name": "account",
          "type": "address"
        }
      ],
      "name": "OwnableUnauthorizedAccount",
      "type": "error"
    },
    {
      "inputs": [],
      "name": "ReentrancyGuardReentrantCall",
      "type": "error"
    },
    {
      "inputs": [],
      "name": "TrenBoxManagerOperations__EmptyAmount",
      "type": "error"
    },
    {
      "inputs": [
        {
          "internalType": "uint256",
          "name": "lowerBoundary",
          "type": "uint256"
        },
        {
          "internalType": "uint256",
          "name": "upperBoundary",
          "type": "uint256"
        }
      ],
      "name": "TrenBoxManagerOperations__FeePercentOutOfBounds",
      "type": "error"
    },
    {
      "inputs": [
        {
          "internalType": "uint256",
          "name": "availableBalance",
          "type": "uint256"
        }
      ],
      "name": "TrenBoxManagerOperations__InsufficientDebtTokenBalance",
      "type": "error"
    },
    {
      "inputs": [],
      "name": "TrenBoxManagerOperations__InvalidArraySize",
      "type": "error"
    },
    {
      "inputs": [],
      "name": "TrenBoxManagerOperations__InvalidParam",
      "type": "error"
    },
    {
      "inputs": [],
      "name": "TrenBoxManagerOperations__NotTimelock",
      "type": "error"
    },
    {
      "inputs": [],
      "name": "TrenBoxManagerOperations__NothingToLiquidate",
      "type": "error"
    },
    {
      "inputs": [],
      "name": "TrenBoxManagerOperations__OnlyTrenBoxManager",
      "type": "error"
    },
    {
      "inputs": [],
      "name": "TrenBoxManagerOperations__RedemptionIsBlocked",
      "type": "error"
    },
    {
      "inputs": [
        {
          "internalType": "uint256",
          "name": "tcr",
          "type": "uint256"
        },
        {
          "internalType": "uint256",
          "name": "mcr",
          "type": "uint256"
        }
      ],
      "name": "TrenBoxManagerOperations__TCRMustBeAboveMCR",
      "type": "error"
    },
    {
      "inputs": [],
      "name": "TrenBoxManagerOperations__TrenBoxNotActive",
      "type": "error"
    },
    {
      "inputs": [],
      "name": "TrenBoxManagerOperations__UnableToRedeemAnyAmount",
      "type": "error"
    },
    {
      "inputs": [],
      "name": "UUPSUnauthorizedCallContext",
      "type": "error"
    },
    {
      "inputs": [
        {
          "internalType": "bytes32",
          "name": "slot",
          "type": "bytes32"
        }
      ],
      "name": "UUPSUnsupportedProxiableUUID",
      "type": "error"
    },
    {
      "anonymous": false,
      "inputs": [
        {
          "indexed": false,
          "internalType": "uint64",
          "name": "version",
          "type": "uint64"
        }
      ],
      "name": "Initialized",
      "type": "event"
    },
    {
      "anonymous": false,
      "inputs": [
        {
          "indexed": true,
          "internalType": "address",
          "name": "_asset",
          "type": "address"
        },
        {
          "indexed": false,
          "internalType": "uint256",
          "name": "_liquidatedDebt",
          "type": "uint256"
        },
        {
          "indexed": false,
          "internalType": "uint256",
          "name": "_liquidatedColl",
          "type": "uint256"
        },
        {
          "indexed": false,
          "internalType": "uint256",
          "name": "_collGasCompensation",
          "type": "uint256"
        },
        {
          "indexed": false,
          "internalType": "uint256",
          "name": "_debtTokenGasCompensation",
          "type": "uint256"
        }
      ],
      "name": "Liquidation",
      "type": "event"
    },
    {
      "anonymous": false,
      "inputs": [
        {
          "indexed": true,
          "internalType": "address",
          "name": "previousOwner",
          "type": "address"
        },
        {
          "indexed": true,
          "internalType": "address",
          "name": "newOwner",
          "type": "address"
        }
      ],
      "name": "OwnershipTransferred",
      "type": "event"
    },
    {
      "anonymous": false,
      "inputs": [
        {
          "indexed": true,
          "internalType": "address",
          "name": "_asset",
          "type": "address"
        },
        {
          "indexed": false,
          "internalType": "uint256",
          "name": "_attemptedDebtAmount",
          "type": "uint256"
        },
        {
          "indexed": false,
          "internalType": "uint256",
          "name": "_actualDebtAmount",
          "type": "uint256"
        },
        {
          "indexed": false,
          "internalType": "uint256",
          "name": "_collSent",
          "type": "uint256"
        },
        {
          "indexed": false,
          "internalType": "uint256",
          "name": "_collFee",
          "type": "uint256"
        }
      ],
      "name": "Redemption",
      "type": "event"
    },
    {
      "anonymous": false,
      "inputs": [
        {
          "indexed": false,
          "internalType": "uint256",
          "name": "_redemptionSofteningParam",
          "type": "uint256"
        }
      ],
      "name": "RedemptionSoftenParamChanged",
      "type": "event"
    },
    {
      "anonymous": false,
      "inputs": [
        {
          "indexed": true,
          "internalType": "address",
          "name": "_asset",
          "type": "address"
        },
        {
          "indexed": true,
          "internalType": "address",
          "name": "_borrower",
          "type": "address"
        },
        {
          "indexed": false,
          "internalType": "uint256",
          "name": "_debt",
          "type": "uint256"
        },
        {
          "indexed": false,
          "internalType": "uint256",
          "name": "_coll",
          "type": "uint256"
        },
        {
          "indexed": false,
          "internalType": "enum ITrenBoxManager.TrenBoxManagerOperation",
          "name": "_operation",
          "type": "uint8"
        }
      ],
      "name": "TrenBoxLiquidated",
      "type": "event"
    },
    {
      "anonymous": false,
      "inputs": [
        {
          "indexed": true,
          "internalType": "address",
          "name": "implementation",
          "type": "address"
        }
      ],
      "name": "Upgraded",
      "type": "event"
    },
    {
      "inputs": [],
      "name": "BATCH_SIZE_LIMIT",
      "outputs": [
        {
          "internalType": "uint256",
          "name": "",
          "type": "uint256"
        }
      ],
      "stateMutability": "view",
      "type": "function"
    },
    {
      "inputs": [],
      "name": "DECIMAL_PRECISION",
      "outputs": [
        {
          "internalType": "uint256",
          "name": "",
          "type": "uint256"
        }
      ],
      "stateMutability": "view",
      "type": "function"
    },
    {
      "inputs": [],
      "name": "NAME",
      "outputs": [
        {
          "internalType": "string",
          "name": "",
          "type": "string"
        }
      ],
      "stateMutability": "view",
      "type": "function"
    },
    {
      "inputs": [],
      "name": "PERCENTAGE_PRECISION",
      "outputs": [
        {
          "internalType": "uint256",
          "name": "",
          "type": "uint256"
        }
      ],
      "stateMutability": "view",
      "type": "function"
    },
    {
      "inputs": [],
      "name": "UPGRADE_INTERFACE_VERSION",
      "outputs": [
        {
          "internalType": "string",
          "name": "",
          "type": "string"
        }
      ],
      "stateMutability": "view",
      "type": "function"
    },
    {
      "inputs": [],
      "name": "activePool",
      "outputs": [
        {
          "internalType": "address",
          "name": "",
          "type": "address"
        }
      ],
      "stateMutability": "view",
      "type": "function"
    },
    {
      "inputs": [],
      "name": "adminContract",
      "outputs": [
        {
          "internalType": "address",
          "name": "",
          "type": "address"
        }
      ],
      "stateMutability": "view",
      "type": "function"
    },
    {
      "inputs": [
        {
          "internalType": "address",
          "name": "newImplementation",
          "type": "address"
        }
      ],
      "name": "authorizeUpgrade",
      "outputs": [],
      "stateMutability": "nonpayable",
      "type": "function"
    },
    {
      "inputs": [
        {
          "internalType": "address",
          "name": "_asset",
          "type": "address"
        },
        {
          "internalType": "address[]",
          "name": "_trenBoxArray",
          "type": "address[]"
        }
      ],
      "name": "batchLiquidateTrenBoxes",
      "outputs": [],
      "stateMutability": "nonpayable",
      "type": "function"
    },
    {
      "inputs": [],
      "name": "borrowerOperations",
      "outputs": [
        {
          "internalType": "address",
          "name": "",
          "type": "address"
        }
      ],
      "stateMutability": "view",
      "type": "function"
    },
    {
      "inputs": [],
      "name": "collSurplusPool",
      "outputs": [
        {
          "internalType": "address",
          "name": "",
          "type": "address"
        }
      ],
      "stateMutability": "view",
      "type": "function"
    },
    {
      "inputs": [],
      "name": "communityIssuance",
      "outputs": [
        {
          "internalType": "address",
          "name": "",
          "type": "address"
        }
      ],
      "stateMutability": "view",
      "type": "function"
    },
    {
      "inputs": [
        {
          "internalType": "uint256",
          "name": "_coll",
          "type": "uint256"
        },
        {
          "internalType": "uint256",
          "name": "_debt",
          "type": "uint256"
        }
      ],
      "name": "computeNominalCR",
      "outputs": [
        {
          "internalType": "uint256",
          "name": "",
          "type": "uint256"
        }
      ],
      "stateMutability": "pure",
      "type": "function"
    },
    {
      "inputs": [],
      "name": "debtToken",
      "outputs": [
        {
          "internalType": "address",
          "name": "",
          "type": "address"
        }
      ],
      "stateMutability": "view",
      "type": "function"
    },
    {
      "inputs": [],
      "name": "defaultPool",
      "outputs": [
        {
          "internalType": "address",
          "name": "",
          "type": "address"
        }
      ],
      "stateMutability": "view",
      "type": "function"
    },
    {
      "inputs": [],
      "name": "feeCollector",
      "outputs": [
        {
          "internalType": "address",
          "name": "",
          "type": "address"
        }
      ],
      "stateMutability": "view",
      "type": "function"
    },
    {
      "inputs": [],
      "name": "gasPoolAddress",
      "outputs": [
        {
          "internalType": "address",
          "name": "",
          "type": "address"
        }
      ],
      "stateMutability": "view",
      "type": "function"
    },
    {
      "inputs": [
        {
          "internalType": "address",
          "name": "_asset",
          "type": "address"
        },
        {
          "internalType": "uint256",
          "name": "_CR",
          "type": "uint256"
        },
        {
          "internalType": "uint256",
          "name": "_numTrials",
          "type": "uint256"
        },
        {
          "internalType": "uint256",
          "name": "_inputRandomSeed",
          "type": "uint256"
        }
      ],
      "name": "getApproxHint",
      "outputs": [
        {
          "internalType": "address",
          "name": "hintAddress",
          "type": "address"
        },
        {
          "internalType": "uint256",
          "name": "diff",
          "type": "uint256"
        },
        {
          "internalType": "uint256",
          "name": "latestRandomSeed",
          "type": "uint256"
        }
      ],
      "stateMutability": "view",
      "type": "function"
    },
    {
      "inputs": [
        {
          "internalType": "address",
          "name": "_asset",
          "type": "address"
        }
      ],
      "name": "getEntireSystemColl",
      "outputs": [
        {
          "internalType": "uint256",
          "name": "entireSystemColl",
          "type": "uint256"
        }
      ],
      "stateMutability": "view",
      "type": "function"
    },
    {
      "inputs": [
        {
          "internalType": "address",
          "name": "_asset",
          "type": "address"
        }
      ],
      "name": "getEntireSystemDebt",
      "outputs": [
        {
          "internalType": "uint256",
          "name": "entireSystemDebt",
          "type": "uint256"
        }
      ],
      "stateMutability": "view",
      "type": "function"
    },
    {
      "inputs": [
        {
          "internalType": "address",
          "name": "_asset",
          "type": "address"
        },
        {
          "internalType": "uint256",
          "name": "_debtTokenAmount",
          "type": "uint256"
        },
        {
          "internalType": "uint256",
          "name": "_price",
          "type": "uint256"
        },
        {
          "internalType": "uint256",
          "name": "_maxIterations",
          "type": "uint256"
        }
      ],
      "name": "getRedemptionHints",
      "outputs": [
        {
          "internalType": "address",
          "name": "firstRedemptionHint",
          "type": "address"
        },
        {
          "internalType": "uint256",
          "name": "partialRedemptionHintNewICR",
          "type": "uint256"
        },
        {
          "internalType": "uint256",
          "name": "truncatedDebtTokenAmount",
          "type": "uint256"
        }
      ],
      "stateMutability": "view",
      "type": "function"
    },
    {
      "inputs": [],
      "name": "initialize",
      "outputs": [],
      "stateMutability": "nonpayable",
      "type": "function"
    },
    {
      "inputs": [],
      "name": "isAddressSetupInitialized",
      "outputs": [
        {
          "internalType": "bool",
          "name": "",
          "type": "bool"
        }
      ],
      "stateMutability": "view",
      "type": "function"
    },
    {
      "inputs": [
        {
          "internalType": "address",
          "name": "_asset",
          "type": "address"
        },
        {
          "internalType": "address",
          "name": "_borrower",
          "type": "address"
        }
      ],
      "name": "liquidate",
      "outputs": [],
      "stateMutability": "nonpayable",
      "type": "function"
    },
    {
      "inputs": [
        {
          "internalType": "address",
          "name": "_asset",
          "type": "address"
        },
        {
          "internalType": "uint256",
          "name": "_n",
          "type": "uint256"
        }
      ],
      "name": "liquidateTrenBoxes",
      "outputs": [],
      "stateMutability": "nonpayable",
      "type": "function"
    },
    {
      "inputs": [],
      "name": "owner",
      "outputs": [
        {
          "internalType": "address",
          "name": "",
          "type": "address"
        }
      ],
      "stateMutability": "view",
      "type": "function"
    },
    {
      "inputs": [],
      "name": "priceFeed",
      "outputs": [
        {
          "internalType": "address",
          "name": "",
          "type": "address"
        }
      ],
      "stateMutability": "view",
      "type": "function"
    },
    {
      "inputs": [],
      "name": "proxiableUUID",
      "outputs": [
        {
          "internalType": "bytes32",
          "name": "",
          "type": "bytes32"
        }
      ],
      "stateMutability": "view",
      "type": "function"
    },
    {
      "inputs": [
        {
          "internalType": "address",
          "name": "_asset",
          "type": "address"
        },
        {
          "internalType": "uint256",
          "name": "_debtTokenAmount",
          "type": "uint256"
        },
        {
          "internalType": "address",
          "name": "_upperPartialRedemptionHint",
          "type": "address"
        },
        {
          "internalType": "address",
          "name": "_lowerPartialRedemptionHint",
          "type": "address"
        },
        {
          "internalType": "address",
          "name": "_firstRedemptionHint",
          "type": "address"
        },
        {
          "internalType": "uint256",
          "name": "_partialRedemptionHintNICR",
          "type": "uint256"
        },
        {
          "internalType": "uint256",
          "name": "_maxIterations",
          "type": "uint256"
        },
        {
          "internalType": "uint256",
          "name": "_maxFeePercentage",
          "type": "uint256"
        }
      ],
      "name": "redeemCollateral",
      "outputs": [],
      "stateMutability": "nonpayable",
      "type": "function"
    },
    {
      "inputs": [],
      "name": "redemptionSofteningParam",
      "outputs": [
        {
          "internalType": "uint256",
          "name": "",
          "type": "uint256"
        }
      ],
      "stateMutability": "view",
      "type": "function"
    },
    {
      "inputs": [],
      "name": "renounceOwnership",
      "outputs": [],
      "stateMutability": "nonpayable",
      "type": "function"
    },
    {
      "inputs": [
        {
          "internalType": "address[]",
          "name": "_addresses",
          "type": "address[]"
        }
      ],
      "name": "setAddresses",
      "outputs": [],
      "stateMutability": "nonpayable",
      "type": "function"
    },
    {
      "inputs": [
        {
          "internalType": "address",
          "name": "_communityIssuance",
          "type": "address"
        }
      ],
      "name": "setCommunityIssuance",
      "outputs": [],
      "stateMutability": "nonpayable",
      "type": "function"
    },
    {
      "inputs": [
        {
          "internalType": "uint256",
          "name": "_redemptionSofteningParam",
          "type": "uint256"
        }
      ],
      "name": "setRedemptionSofteningParam",
      "outputs": [],
      "stateMutability": "nonpayable",
      "type": "function"
    },
    {
      "inputs": [
        {
          "internalType": "address",
          "name": "_trenStaking",
          "type": "address"
        }
      ],
      "name": "setTRENStaking",
      "outputs": [],
      "stateMutability": "nonpayable",
      "type": "function"
    },
    {
      "inputs": [],
      "name": "sortedTrenBoxes",
      "outputs": [
        {
          "internalType": "address",
          "name": "",
          "type": "address"
        }
      ],
      "stateMutability": "view",
      "type": "function"
    },
    {
      "inputs": [],
      "name": "stabilityPool",
      "outputs": [
        {
          "internalType": "address",
          "name": "",
          "type": "address"
        }
      ],
      "stateMutability": "view",
      "type": "function"
    },
    {
      "inputs": [],
      "name": "timelockAddress",
      "outputs": [
        {
          "internalType": "address",
          "name": "",
          "type": "address"
        }
      ],
      "stateMutability": "view",
      "type": "function"
    },
    {
      "inputs": [
        {
          "internalType": "address",
          "name": "newOwner",
          "type": "address"
        }
      ],
      "name": "transferOwnership",
      "outputs": [],
      "stateMutability": "nonpayable",
      "type": "function"
    },
    {
      "inputs": [],
      "name": "treasuryAddress",
      "outputs": [
        {
          "internalType": "address",
          "name": "",
          "type": "address"
        }
      ],
      "stateMutability": "view",
      "type": "function"
    },
    {
      "inputs": [],
      "name": "trenBoxManager",
      "outputs": [
        {
          "internalType": "address",
          "name": "",
          "type": "address"
        }
      ],
      "stateMutability": "view",
      "type": "function"
    },
    {
      "inputs": [],
      "name": "trenBoxManagerOperations",
      "outputs": [
        {
          "internalType": "address",
          "name": "",
          "type": "address"
        }
      ],
      "stateMutability": "view",
      "type": "function"
    },
    {
      "inputs": [],
      "name": "trenStaking",
      "outputs": [
        {
          "internalType": "address",
          "name": "",
          "type": "address"
        }
      ],
      "stateMutability": "view",
      "type": "function"
    },
    {
      "inputs": [
        {
          "internalType": "address",
          "name": "newImplementation",
          "type": "address"
        },
        {
          "internalType": "bytes",
          "name": "data",
          "type": "bytes"
        }
      ],
      "name": "upgradeToAndCall",
      "outputs": [],
      "stateMutability": "payable",
      "type": "function"
    }
  ],
  "transactionHash": "0xa6b4a0e9a8c61664984d37fdd437fecfad134e650b0b53c46c204027d16b018e",
  "args": [],
  "numDeployments": 1,
  "solcInputHash": "e6971fb87a17deef3641f1719687e39f",
  "bytecode": "0x60a06040523060805234801561001457600080fd5b50608051615ac26200003f600039600081816132db0152818161330401526134450152615ac26000f3fe6080604052600436106102675760003560e01c80639e86d0c411610144578063c8564c62116100b6578063e256888f1161007a578063e256888f14610796578063f1c05a7e146107ac578063f2fde38b146107cc578063f8d89898146107ec578063fe0607331461080c578063fe9d03231461082c57600080fd5b8063c8564c62146106e5578063cc8b21e414610716578063cda775f914610736578063d58d446c14610756578063d9eb5ff61461077657600080fd5b8063b957172111610108578063b957172114610625578063bf74ba0714610645578063c05c5e9414610665578063c394a7fa14610685578063c415b95c146106a5578063c5f956af146106c557600080fd5b80639e86d0c41461054d578063a20baee61461056d578063a3f4df7e14610589578063ad3cb1cc146105df578063ad59db651461061057600080fd5b80636a85d67d116101dd5780637f7dde4a116101a15780637f7dde4a146104855780638129fc1c146104a557806382eaca21146104ba57806386b9d81f146104d05780638da5cb5b146104f057806395fb16bb1461052d57600080fd5b80636a85d67d146103f0578063701526b414610410578063715018a614610430578063741bef1a1461044557806377553ad41461046557600080fd5b80633cc742251161022f5780633cc742251461034857806340a44bd1146103685780634bc66f32146103885780634f1ef286146103a857806352d1902d146103bb57806355dafa46146103d057600080fd5b806301c931001461026c578063048c661d1461028e5780630a34d4d6146102cb57806327d04b35146102eb578063301be45914610319575b600080fd5b34801561027857600080fd5b5061028c61028736600461546a565b61084c565b005b34801561029a57600080fd5b50600c546102ae906001600160a01b031681565b6040516001600160a01b0390911681526020015b60405180910390f35b3480156102d757600080fd5b506010546102ae906001600160a01b031681565b3480156102f757600080fd5b5061030b61030636600461546a565b610876565b6040519081526020016102c2565b34801561032557600080fd5b50610339610334366004615487565b61096e565b6040516102c2939291906154c2565b34801561035457600080fd5b506006546102ae906001600160a01b031681565b34801561037457600080fd5b5061028c6103833660046154e3565b611013565b34801561039457600080fd5b50600d546102ae906001600160a01b031681565b61028c6103b63660046155ab565b61173e565b3480156103c757600080fd5b5061030b61175d565b3480156103dc57600080fd5b506009546102ae906001600160a01b031681565b3480156103fc57600080fd5b5061028c61040b36600461546a565b61177a565b34801561041c57600080fd5b5061033961042b366004615487565b6117a4565b34801561043c57600080fd5b5061028c611a98565b34801561045157600080fd5b50600a546102ae906001600160a01b031681565b34801561047157600080fd5b506002546102ae906001600160a01b031681565b34801561049157600080fd5b506000546102ae906001600160a01b031681565b3480156104b157600080fd5b5061028c611aac565b3480156104c657600080fd5b5061030b60325481565b3480156104dc57600080fd5b5061028c6104eb366004615653565b611bcd565b3480156104fc57600080fd5b507f9016d09d72d40fdae2fd8ceac6b6234c7706214fd39c1cd1e609a0528c199300546001600160a01b03166102ae565b34801561053957600080fd5b506004546102ae906001600160a01b031681565b34801561055957600080fd5b5061030b61056836600461546a565b611cc2565b34801561057957600080fd5b5061030b670de0b6b3a764000081565b34801561059557600080fd5b506105d26040518060400160405280601881526020017f5472656e426f784d616e616765724f7065726174696f6e73000000000000000081525081565b6040516102c291906156b0565b3480156105eb57600080fd5b506105d2604051806040016040528060058152602001640352e302e360dc1b81525081565b34801561061c57600080fd5b5061030b601981565b34801561063157600080fd5b5061028c6106403660046156e3565b611d69565b34801561065157600080fd5b5061028c610660366004615758565b6122e8565b34801561067157600080fd5b506001546102ae906001600160a01b031681565b34801561069157600080fd5b5061030b6106a0366004615771565b61237d565b3480156106b157600080fd5b506007546102ae906001600160a01b031681565b3480156106d157600080fd5b50600e546102ae906001600160a01b031681565b3480156106f157600080fd5b5060105461070690600160a01b900460ff1681565b60405190151581526020016102c2565b34801561072257600080fd5b50600b546102ae906001600160a01b031681565b34801561074257600080fd5b506003546102ae906001600160a01b031681565b34801561076257600080fd5b5061028c610771366004615793565b612392565b34801561078257600080fd5b5061028c6107913660046157bf565b6127db565b3480156107a257600080fd5b5061030b61271081565b3480156107b857600080fd5b50600f546102ae906001600160a01b031681565b3480156107d857600080fd5b5061028c6107e736600461546a565b612978565b3480156107f857600080fd5b506005546102ae906001600160a01b031681565b34801561081857600080fd5b5061028c61082736600461546a565b6129b6565b34801561083857600080fd5b506008546102ae906001600160a01b031681565b6108546129bf565b600980546001600160a01b0319166001600160a01b0392909216919091179055565b6000805460405163c5739d0b60e01b81526001600160a01b0384811660048301528392169063c5739d0b90602401602060405180830381865afa1580156108c1573d6000803e3d6000fd5b505050506040513d601f19601f820116820180604052508101906108e59190615886565b60065460405163c5739d0b60e01b81526001600160a01b0386811660048301529293506000929091169063c5739d0b906024015b602060405180830381865afa158015610936573d6000803e3d6000fd5b505050506040513d601f19601f8201168201806040525081019061095a9190615886565b905061096681836158b5565b949350505050565b604080516080810182526001600160a01b038681168083526020830187905282840186905260608301859052600b549351637608271560e01b81526004810191909152600093849384939092899285921690637608271590602401602060405180830381865afa1580156109e6573d6000803e3d6000fd5b505050506040513d601f19601f82011682018060405250810190610a0a91906158c8565b90505b6001600160a01b03811615801590610b0c57506001548351604051633c557a6f60e11b81526001600160a01b0391821660048201529116906378aaf4de90602401602060405180830381865afa158015610a6b573d6000803e3d6000fd5b505050506040513d601f19601f82011682018060405250810190610a8f9190615886565b600f548451604080870151905163b1eafaab60e01b81526001600160a01b039093169263b1eafaab92610ac99290918791906004016158e5565b602060405180830381865afa158015610ae6573d6000803e3d6000fd5b505050506040513d601f19601f82011682018060405250810190610b0a9190615886565b105b15610b8a57600b5483516040516239c6e160ea1b81526001600160a01b039092169163e71b840091610b42918590600401615909565b602060405180830381865afa158015610b5f573d6000803e3d6000fd5b505050506040513d601f19601f82011682018060405250810190610b8391906158c8565b9050610a0d565b8095508260600151600003610ba25760001960608401525b6001600160a01b03811615801590610bb957508115155b8015610bd5575060608301805190610bd082615923565b905215155b15610ffa578251600f5460405162a79b1d60e31b8152600092610cd99290916001600160a01b039091169063053cd8e890610c169084908890600401615909565b602060405180830381865afa158015610c33573d6000803e3d6000fd5b505050506040513d601f19601f82011682018060405250810190610c579190615886565b600f54875160405163f9a3d41f60e01b81526001600160a01b039092169163f9a3d41f91610c89918990600401615909565b602060405180830381865afa158015610ca6573d6000803e3d6000fd5b505050506040513d601f19601f82011682018060405250810190610cca9190615886565b610cd491906158b5565b612a1a565b9050828111610cf357610cec818461593a565b9250610f80565b60015484516040516321b443a360e21b81526001600160a01b0391821660048201529116906386d10e8c90602401602060405180830381865afa158015610d3e573d6000803e3d6000fd5b505050506040513d601f19601f82011682018060405250810190610d629190615886565b811115610f7a5760015484516040516321b443a360e21b81526001600160a01b039182166004820152600092610df19287929116906386d10e8c906024015b602060405180830381865afa158015610dbe573d6000803e3d6000fd5b505050506040513d601f19601f82011682018060405250810190610de29190615886565b610dec908561593a565b612a93565b600f548651604051635f0b504b60e11b81529293506000926001600160a01b039092169163be16a09691610e29918890600401615909565b602060405180830381865afa158015610e46573d6000803e3d6000fd5b505050506040513d601f19601f82011682018060405250810190610e6a9190615886565b600f548751604051633517ff1b60e11b81526001600160a01b0390921691636a2ffe3691610e9c918990600401615909565b602060405180830381865afa158015610eb9573d6000803e3d6000fd5b505050506040513d601f19601f82011682018060405250810190610edd9190615886565b610ee791906158b5565b905060008660400151670de0b6b3a764000084610f04919061594d565b610f0e919061597a565b905061271060325482610f21919061594d565b610f2b919061597a565b90506000610f39828461593a565b90506000610f47858761593a565b90506000610f598a6000015183612aa9565b9050610f658382612b22565b9b50610f71868a61593a565b98505050505050505b50610ffa565b600b5484516040516239c6e160ea1b81526001600160a01b039092169163e71b840091610fb1918690600401615909565b602060405180830381865afa158015610fce573d6000803e3d6000fd5b505050506040513d601f19601f82011682018060405250810190610ff291906158c8565b915050610ba2565b611004828a61593a565b93505050509450945094915050565b61105b60405180610100016040528060008152602001600081526020016000815260200160008152602001600081526020016000815260200160008152602001600081525090565b600a54604051635670bcc760e11b81526001600160a01b038b811660048301529091169063ace1798e90602401602060405180830381865afa1580156110a5573d6000803e3d6000fd5b505050506040513d601f19601f820116820180604052508101906110c99190615886565b60c082018190526110df908a9084908b90612b58565b6110e889610876565b60e0820152878152600f5460c08201516040516352576cdf60e01b81526000926001600160a01b0316916352576cdf91611129918e918b91906004016158e5565b6020604051808303816000875af1158015611148573d6000803e3d6000fd5b505050506040513d601f19601f8201168201806040525081019061116c919061598e565b15611178575084611362565b600b54604051637608271560e01b81526001600160a01b038c8116600483015290911690637608271590602401602060405180830381865afa1580156111c2573d6000803e3d6000fd5b505050506040513d601f19601f820116820180604052508101906111e691906158c8565b90505b6001600160a01b038116158015906112e45750600154604051633c557a6f60e11b81526001600160a01b038c81166004830152909116906378aaf4de90602401602060405180830381865afa158015611246573d6000803e3d6000fd5b505050506040513d601f19601f8201168201806040525081019061126a9190615886565b600f5460c084015160405163b1eafaab60e01b81526001600160a01b039092169163b1eafaab916112a1918f9187916004016158e5565b602060405180830381865afa1580156112be573d6000803e3d6000fd5b505050506040513d601f19601f820116820180604052508101906112e29190615886565b105b1561136257600b546040516239c6e160ea1b81526001600160a01b039091169063e71b84009061131a908d908590600401615909565b602060405180830381865afa158015611337573d6000803e3d6000fd5b505050506040513d601f19601f8201168201806040525081019061135b91906158c8565b90506111e9565b836000036113705760001993505b6001600160a01b038116158015906113885750815115155b801561139357508315155b156114f357836113a281615923565b600b546040516239c6e160ea1b8152919650600092506001600160a01b03169063e71b8400906113d8908e908690600401615909565b602060405180830381865afa1580156113f5573d6000803e3d6000fd5b505050506040513d601f19601f8201168201806040525081019061141991906158c8565b600f5460405163df4fb9ef60e01b81529192506001600160a01b03169063df4fb9ef9061144c908e908690600401615909565b600060405180830381600087803b15801561146657600080fd5b505af115801561147a573d6000803e3d6000fd5b5050505060006114978c8486600001518760c001518e8e8d612e0a565b90508060400151156114aa5750506114f3565b805160208501516114bb91906158b5565b60208086019190915281015160408501516114d691906158b5565b6040850152805184516114e9919061593a565b8452509050611370565b8160400151600003611518576040516346c7d89b60e11b815260040160405180910390fd5b600f5460408084015160c085015160e0860151925163c5d75f7b60e01b81526001600160a01b038f811660048301526024820193909352604481019190915260648101929092529091169063c5d75f7b906084016020604051808303816000875af115801561158b573d6000803e3d6000fd5b505050506040513d601f19601f820116820180604052508101906115af9190615886565b50600f546040838101519051631ee9211f60e01b81526001600160a01b038d811660048301526024820192909252911690631ee9211f90604401602060405180830381865afa158015611606573d6000803e3d6000fd5b505050506040513d601f19601f8201168201806040525081019061162a9190615886565b6060830181905260408301516116419190856131ea565b600f5460208301516060840151604080860151905163025eeff360e41b81526001600160a01b038f811660048301523360248301526044820194909452606481019290925260848201529116906325eeff309060a401600060405180830381600087803b1580156116b157600080fd5b505af11580156116c5573d6000803e3d6000fd5b50505050896001600160a01b03167f08b6f1ce3f9ab2722e8ea40c31a3e3a806a41702c5994f29af43dc0c1f2837df8a84602001518560400151866060015160405161172a949392919093845260208401929092526040830152606082015260800190565b60405180910390a250505050505050505050565b6117466132d0565b61174f82613375565b611759828261337d565b5050565b600061176761343a565b50600080516020615a9683398151915290565b6117826129bf565b600480546001600160a01b0319166001600160a01b0392909216919091179055565b600f5460405163bc8793a960e01b81526001600160a01b038681166004830152600092839283928392169063bc8793a990602401602060405180830381865afa1580156117f5573d6000803e3d6000fd5b505050506040513d601f19601f820116820180604052508101906118199190615886565b905080600003611833576000808693509350935050611a8e565b600b54604051637608271560e01b81526001600160a01b038a8116600483015290911690637608271590602401602060405180830381865afa15801561187d573d6000803e3d6000fd5b505050506040513d601f19601f820116820180604052508101906118a191906158c8565b600f546040516390ec230160e01b81529195506119209189916001600160a01b0316906390ec2301906118da908d908a90600401615909565b602060405180830381865afa1580156118f7573d6000803e3d6000fd5b505050506040513d601f19601f8201168201806040525081019061191b9190615886565b613483565b925084915060015b86811015611a8b5760408051602081018590520160408051601f1981840301815291905280516020909101209250600061196283856159b0565b600f5460405163c226882360e01b81526001600160a01b038d81166004830152602482018490529293506000929091169063c226882390604401602060405180830381865afa1580156119b9573d6000803e3d6000fd5b505050506040513d601f19601f820116820180604052508101906119dd91906158c8565b600f546040516390ec230160e01b81529192506000916001600160a01b03909116906390ec230190611a15908f908690600401615909565b602060405180830381865afa158015611a32573d6000803e3d6000fd5b505050506040513d601f19601f82011682018060405250810190611a569190615886565b90506000611a64828d613483565b905087811015611a75578097508298505b84611a7f816159c4565b95505050505050611928565b50505b9450945094915050565b611aa06129bf565b611aaa60006134a6565b565b7ff0c57e16840df040f15088dc2f81fe391c3923bec73e23a9662efc9c229c6a008054600160401b810460ff16159067ffffffffffffffff16600081158015611af25750825b905060008267ffffffffffffffff166001148015611b0f5750303b155b905081158015611b1d575080155b15611b3b5760405163f92ee8a960e01b815260040160405180910390fd5b845467ffffffffffffffff191660011785558315611b6557845460ff60401b1916600160401b1785555b33611b6f81613517565b611b77613528565b611b7f613530565b508315611bc657845460ff60401b19168555604051600181527fc7f505b2f371ae2175ee4913f4499e1f2633a7b5936321eed1cdaeb6115181d29060200160405180910390a15b5050505050565b600f54604051637316290f60e11b81526001600160a01b039091169063e62c521e90611bff9085908590600401615909565b602060405180830381865afa158015611c1c573d6000803e3d6000fd5b505050506040513d601f19601f82011682018060405250810190611c40919061598e565b611c5d5760405163327cb9bf60e11b815260040160405180910390fd5b604080516001808252818301909252600091602080830190803683370190505090508181600081518110611c9357611c936159dd565b60200260200101906001600160a01b031690816001600160a01b031681525050611cbd83826127db565b505050565b60008054604051635373433f60e01b81526001600160a01b03848116600483015283921690635373433f90602401602060405180830381865afa158015611d0d573d6000803e3d6000fd5b505050506040513d601f19601f82011682018060405250810190611d319190615886565b600654604051635373433f60e01b81526001600160a01b03868116600483015292935060009290911690635373433f90602401610919565b611d716129bf565b601054600160a01b900460ff1615611dd05760405162461bcd60e51b815260206004820152601c60248201527f536574757020697320616c726561647920696e697469616c697a65640000000060448201526064015b60405180910390fd5b600f8114611e205760405162461bcd60e51b815260206004820152601e60248201527f45787065637465642031352061646472657373657320617420736574757000006044820152606401611dc7565b60005b600f811015611ea5576000838383818110611e4057611e406159dd565b9050602002016020810190611e55919061546a565b6001600160a01b031603611e9d5760405162461bcd60e51b815260206004820152600f60248201526e496e76616c6964206164647265737360881b6044820152606401611dc7565b600101611e23565b5081816000818110611eb957611eb96159dd565b9050602002016020810190611ece919061546a565b600080546001600160a01b0319166001600160a01b039290921691909117905581816001818110611f0157611f016159dd565b9050602002016020810190611f16919061546a565b600180546001600160a01b0319166001600160a01b039290921691909117905581816002818110611f4957611f496159dd565b9050602002016020810190611f5e919061546a565b600280546001600160a01b0319166001600160a01b039290921691909117905581816003818110611f9157611f916159dd565b9050602002016020810190611fa6919061546a565b600380546001600160a01b0319166001600160a01b039290921691909117905581816004818110611fd957611fd96159dd565b9050602002016020810190611fee919061546a565b600580546001600160a01b0319166001600160a01b039290921691909117815582908290818110612021576120216159dd565b9050602002016020810190612036919061546a565b600680546001600160a01b0319166001600160a01b039290921691909117815582908290818110612069576120696159dd565b905060200201602081019061207e919061546a565b600780546001600160a01b0319166001600160a01b0392909216919091178155829082908181106120b1576120b16159dd565b90506020020160208101906120c6919061546a565b600880546001600160a01b0319166001600160a01b0392909216919091178155829082908181106120f9576120f96159dd565b905060200201602081019061210e919061546a565b600a80546001600160a01b0319166001600160a01b039290921691909117905581816009818110612141576121416159dd565b9050602002016020810190612156919061546a565b600b80546001600160a01b0319166001600160a01b03929092169190911790558181600a818110612189576121896159dd565b905060200201602081019061219e919061546a565b600c80546001600160a01b0319166001600160a01b03929092169190911790558181600b8181106121d1576121d16159dd565b90506020020160208101906121e6919061546a565b600d80546001600160a01b0319166001600160a01b03929092169190911790558181600c818110612219576122196159dd565b905060200201602081019061222e919061546a565b600e80546001600160a01b0319166001600160a01b03929092169190911790558181600d818110612261576122616159dd565b9050602002016020810190612276919061546a565b600f80546001600160a01b0319166001600160a01b03929092169190911790558181600e8181106122a9576122a96159dd565b90506020020160208101906122be919061546a565b601080546001600160a81b0319166001600160a01b039290921691909117600160a01b1790555050565b600d546001600160a01b0316331461231357604051630e50357d60e01b815260040160405180910390fd5b6125e4811080612324575061271081115b15612342576040516334d8ee5360e21b815260040160405180910390fd5b60328190556040518181527f39e82d837dcc454e3b68bd2a39ec088a78af1570fa1a2de0b9b2e2d45c1158c69060200160405180910390a150565b60006123898383612b22565b90505b92915050565b61239a613540565b6123ce6040518060a00160405280600081526020016000815260200160001515815260200160008152602001600081525090565b6123d66153c8565b600a54604051635670bcc760e11b81526001600160a01b0386811660048301529091169063ace1798e90602401602060405180830381865afa158015612420573d6000803e3d6000fd5b505050506040513d601f19601f820116820180604052508101906124449190615886565b8252600c5460408051630d9a6b3560e01b815290516001600160a01b0390921691630d9a6b35916004808201926020929091908290030181865afa158015612490573d6000803e3d6000fd5b505050506040513d601f19601f820116820180604052508101906124b49190615886565b602083015281516124c690859061358a565b15801560408401526124ed576124e684836000015184602001518661360f565b9050612504565b612501848360000151846020015186613a9c565b90505b80602001516000036125295760405163520522c760e01b815260040160405180910390fd5b600f5460c082015160e0830151608084015160a0850151604051637012f7fb60e01b81526001600160a01b038a811660048301526024820195909552604481019390935260648301919091526084820152911690637012f7fb9060a401600060405180830381600087803b1580156125a057600080fd5b505af11580156125b4573d6000803e3d6000fd5b50505050806101000151600014612636576000546003546101008301516040516347878f1560e01b81526001600160a01b03938416936347878f1593612603938a9392909116916004016158e5565b600060405180830381600087803b15801561261d57600080fd5b505af1158015612631573d6000803e3d6000fd5b505050505b600f54604082810151905163da3835ad60e01b81526001600160a01b038781166004830152602482019290925291169063da3835ad90604401600060405180830381600087803b15801561268957600080fd5b505af115801561269d573d6000803e3d6000fd5b5050506020820151606084015250610100810151604082015182516126c2919061593a565b6126cc919061593a565b6080808401829052606080850151604080860151868401518251938452602084019690965290820152908101929092526001600160a01b038616917fa3f221854f649364e9a3bb384dd1ff938482664f4a0eac0f6e39a542f5193bd3910160405180910390a2600f546060820151604080840151905163b65c72bf60e01b81526001600160a01b0388811660048301523360248301526044820193909352606481019190915291169063b65c72bf90608401600060405180830381600087803b15801561279857600080fd5b505af11580156127ac573d6000803e3d6000fd5b50505050505061175960017f9b779b17422d0df92223018b32b4d1fa46e071723d6817e2486d003becc55f0055565b6127e3613540565b805115806127f2575060198151115b1561281057604051637f9c2a2560e01b815260040160405180910390fd5b6128446040518060a00160405280600081526020016000815260200160001515815260200160008152602001600081525090565b61284c6153c8565b600c60009054906101000a90046001600160a01b03166001600160a01b0316630d9a6b356040518163ffffffff1660e01b8152600401602060405180830381865afa15801561289f573d6000803e3d6000fd5b505050506040513d601f19601f820116820180604052508101906128c39190615886565b6020830152600a54604051635670bcc760e11b81526001600160a01b0386811660048301529091169063ace1798e90602401602060405180830381865afa158015612912573d6000803e3d6000fd5b505050506040513d601f19601f820116820180604052508101906129369190615886565b80835261294490859061358a565b1580156040840152612964576124e6848360000151846020015186613ca2565b612501848360000151846020015186614037565b6129806129bf565b6001600160a01b0381166129aa57604051631e4fbdf760e01b815260006004820152602401611dc7565b6129b3816134a6565b50565b6129b381613375565b336129f17f9016d09d72d40fdae2fd8ceac6b6234c7706214fd39c1cd1e609a0528c199300546001600160a01b031690565b6001600160a01b031614611aaa5760405163118cdaa760e01b8152336004820152602401611dc7565b60015460405163c08261db60e01b81526001600160a01b038481166004830152600092169063c08261db90602401602060405180830381865afa158015612a65573d6000803e3d6000fd5b505050506040513d601f19601f82011682018060405250810190612a899190615886565b612389908361593a565b6000818310612aa25781612389565b5090919050565b60015460405163c08261db60e01b81526001600160a01b038481166004830152600092169063c08261db90602401602060405180830381865afa158015612af4573d6000803e3d6000fd5b505050506040513d601f19601f82011682018060405250810190612b189190615886565b61238990836158b5565b60008115612b4f5781612b3e68056bc75e2d631000008561594d565b612b48919061597a565b905061238c565b5060001961238c565b600154604051633d15092560e21b81526001600160a01b038681166004830152600092169063f454249490602401602060405180830381865afa158015612ba3573d6000803e3d6000fd5b505050506040513d601f19601f82011682018060405250810190612bc79190615886565b905042811115612bea57604051637fe8d35d60e01b815260040160405180910390fd5b60015460405163443c4fcb60e01b81526001600160a01b038781166004830152600092169063443c4fcb90602401602060405180830381865afa158015612c35573d6000803e3d6000fd5b505050506040513d601f19601f82011682018060405250810190612c599190615886565b905080851080612c705750670de0b6b3a764000085115b15612c9f57604051636b44726760e11b815260048101829052670de0b6b3a76400006024820152604401611dc7565b83600003612cc057604051630fcbc67160e21b815260040160405180910390fd5b6005546040516370a0823160e01b81523360048201526000916001600160a01b0316906370a0823190602401602060405180830381865afa158015612d09573d6000803e3d6000fd5b505050506040513d601f19601f82011682018060405250810190612d2d9190615886565b905084811015612d535760405163780a921960e11b815260048101829052602401611dc7565b6000612d5f88866141b3565b600154604051633c557a6f60e11b81526001600160a01b038b81166004830152929350600092909116906378aaf4de90602401602060405180830381865afa158015612daf573d6000803e3d6000fd5b505050506040513d601f19601f82011682018060405250810190612dd39190615886565b905080821015612dff5760405162132add60e91b81526004810183905260248101829052604401611dc7565b505050505050505050565b612e30604051806060016040528060008152602001600081526020016000151581525090565b600f5460405163f9a3d41f60e01b81526000916001600160a01b03169063f9a3d41f90612e63908c908c90600401615909565b602060405180830381865afa158015612e80573d6000803e3d6000fd5b505050506040513d601f19601f82011682018060405250810190612ea49190615886565b600f54604051633517ff1b60e11b81529192506000916001600160a01b0390911690636a2ffe3690612edc908d908d90600401615909565b602060405180830381865afa158015612ef9573d6000803e3d6000fd5b505050506040513d601f19601f82011682018060405250810190612f1d9190615886565b60015460405163c08261db60e01b81526001600160a01b038d81166004830152929350612f56928b92169063c08261db90602401610da1565b8084528790612f6e90670de0b6b3a76400009061594d565b612f78919061597a565b6020840181905260325461271091612f90919061594d565b612f9a919061597a565b60208401528251600090612fae908461593a565b90506000846020015183612fc2919061593a565b60015460405163c08261db60e01b81526001600160a01b038f8116600483015292935091169063c08261db90602401602060405180830381865afa15801561300e573d6000803e3d6000fd5b505050506040513d601f19601f820116820180604052508101906130329190615886565b82036130a357600f5460405163456dc0ff60e11b81526001600160a01b0390911690638adb81fe9061306c908f908f9086906004016158e5565b600060405180830381600087803b15801561308657600080fd5b505af115801561309a573d6000803e3d6000fd5b505050506131da565b60006130af8284612b22565b9050868114158061313557506001546040516321b443a360e21b81526001600160a01b038f81166004830152909116906386d10e8c90602401602060405180830381865afa158015613105573d6000803e3d6000fd5b505050506040513d601f19601f820116820180604052508101906131299190615886565b6131338e85612a1a565b105b1561314c57505060016040850152506131df915050565b600f5460405163038027ff60e21b81526001600160a01b038f811660048301528e811660248301526044820186905260648201859052608482018490528b811660a48301528a811660c483015290911690630e009ffc9060e401600060405180830381600087803b1580156131c057600080fd5b505af11580156131d4573d6000803e3d6000fd5b50505050505b505050505b979650505050505050565b600082600160009054906101000a90046001600160a01b03166001600160a01b031663a20baee66040518163ffffffff1660e01b8152600401602060405180830381865afa158015613240573d6000803e3d6000fd5b505050506040513d601f19601f820116820180604052508101906132649190615886565b61326e908661594d565b613278919061597a565b9050818111156132ca5760405162461bcd60e51b815260206004820152601d60248201527f4665652065786365656465642070726f7669646564206d6178696d756d0000006044820152606401611dc7565b50505050565b306001600160a01b037f000000000000000000000000000000000000000000000000000000000000000016148061335757507f00000000000000000000000000000000000000000000000000000000000000006001600160a01b031661334b600080516020615a96833981519152546001600160a01b031690565b6001600160a01b031614155b15611aaa5760405163703e46dd60e11b815260040160405180910390fd5b6129b36129bf565b816001600160a01b03166352d1902d6040518163ffffffff1660e01b8152600401602060405180830381865afa9250505080156133d7575060408051601f3d908101601f191682019092526133d491810190615886565b60015b6133ff57604051634c9c8ce360e01b81526001600160a01b0383166004820152602401611dc7565b600080516020615a96833981519152811461343057604051632a87526960e21b815260048101829052602401611dc7565b611cbd83836141e2565b306001600160a01b037f00000000000000000000000000000000000000000000000000000000000000001614611aaa5760405163703e46dd60e11b815260040160405180910390fd5b60008183101561349c57613497838361593a565b612389565b612389828461593a565b7f9016d09d72d40fdae2fd8ceac6b6234c7706214fd39c1cd1e609a0528c19930080546001600160a01b031981166001600160a01b03848116918217845560405192169182907f8be0079c531659141344cd1fd0a4f28419497f9722a3daafe3b4186f6b6457e090600090a3505050565b61351f614238565b6129b381614281565b611aaa614238565b613538614238565b611aaa614289565b7f9b779b17422d0df92223018b32b4d1fa46e071723d6817e2486d003becc55f0080546001190161358457604051633ee5aeb560e01b815260040160405180910390fd5b60029055565b60008061359784846141b3565b60015460405163316a306d60e11b81526001600160a01b0387811660048301529293509116906362d460da90602401602060405180830381865afa1580156135e3573d6000803e3d6000fd5b505050506040513d601f19601f820116820180604052508101906136079190615886565b119392505050565b6136176153c8565b61361f615414565b6136276153c8565b8482526000606083015261363a87610876565b608083015261364887611cc2565b60a0830152600b54604051637608271560e01b81526001600160a01b03898116600483015290911690637608271590602401602060405180830381865afa158015613697573d6000803e3d6000fd5b505050506040513d601f19601f820116820180604052508101906136bb91906158c8565b6001600160a01b03908116604084810191909152600b549051631bdb4c8d60e01b815289831660048201526000929190911690631bdb4c8d90602401602060405180830381865afa158015613714573d6000803e3d6000fd5b505050506040513d601f19601f8201168201806040525081019061373891906158c8565b905060005b85811080156137625750816001600160a01b031684604001516001600160a01b031614155b15613a9057600b5460408086015190516239c6e160ea1b81526000926001600160a01b03169163e71b84009161379c918e91600401615909565b602060405180830381865afa1580156137b9573d6000803e3d6000fd5b505050506040513d601f19601f820116820180604052508101906137dd91906158c8565b600f54604080880151905163b1eafaab60e01b81529293506001600160a01b039091169163b1eafaab91613818918e91908e906004016158e5565b602060405180830381865afa158015613835573d6000803e3d6000fd5b505050506040513d601f19601f820116820180604052508101906138599190615886565b602086015260608501516139b557600154604051633c557a6f60e11b81526001600160a01b038c81166004830152909116906378aaf4de90602401602060405180830381865afa1580156138b1573d6000803e3d6000fd5b505050506040513d601f19601f820116820180604052508101906138d59190615886565b8560200151101580156138e757508451155b156138f25750613a90565b60006139078660a0015187608001518c614291565b90506139238b876040015188602001518960000151858f6142c5565b608081015187519196506139369161593a565b86526080808601519087015161394c919061593a565b6080870152610100850151604086015160a08088015190890151613970919061593a565b61397a919061593a565b613984919061593a565b60a08701526139938786614b99565b96506139a98b8760a0015188608001518d614c83565b15606087015250613a7a565b84606001518015613a365750600154604051633c557a6f60e11b81526001600160a01b038c81166004830152909116906378aaf4de90602401602060405180830381865afa158015613a0b573d6000803e3d6000fd5b505050506040513d601f19601f82011682018060405250810190613a2f9190615886565b8560200151105b15613a7457613a4e8a86604001518760000151614d0b565b60808101518651919550613a619161593a565b8552613a6d8685614b99565b9550613a7a565b50613a90565b6001600160a01b0316604085015260010161373d565b50505050949350505050565b613aa46153c8565b613aac615414565b613ab46153c8565b84825260005b84811015613c7157600b54604051637608271560e01b81526001600160a01b038a8116600483015290911690637608271590602401602060405180830381865afa158015613b0c573d6000803e3d6000fd5b505050506040513d601f19601f82011682018060405250810190613b3091906158c8565b6001600160a01b039081166040808601829052600f54905163b1eafaab60e01b815292169163b1eafaab91613b6c918c91908c906004016158e5565b602060405180830381865afa158015613b89573d6000803e3d6000fd5b505050506040513d601f19601f82011682018060405250810190613bad9190615886565b6020840152600154604051633c557a6f60e11b81526001600160a01b038a81166004830152909116906378aaf4de90602401602060405180830381865afa158015613bfc573d6000803e3d6000fd5b505050506040513d601f19601f82011682018060405250810190613c209190615886565b83602001511015613c6457613c3e8884604001518560000151614d0b565b60808101518451919350613c519161593a565b8352613c5d8483614b99565b9350613c69565b613c71565b600101613aba565b505050949350505050565b60017f9b779b17422d0df92223018b32b4d1fa46e071723d6817e2486d003becc55f0055565b613caa6153c8565b613cb2615414565b613cba6153c8565b84825260006060830152613ccd87610876565b6080830152613cdb87611cc2565b60a083015260005b8451811015613c7157848181518110613cfe57613cfe6159dd565b60209081029190910101516001600160a01b031660408401526001600f546040808601519051632862f79760e11b81526001600160a01b03909216916350c5ef2e91613d4f918d9190600401615909565b602060405180830381865afa158015613d6c573d6000803e3d6000fd5b505050506040513d601f19601f82011682018060405250810190613d909190615886565b14613d9d57600101613ce3565b600f54604080850151905163b1eafaab60e01b81526001600160a01b039092169163b1eafaab91613dd5918c91908c906004016158e5565b602060405180830381865afa158015613df2573d6000803e3d6000fd5b505050506040513d601f19601f82011682018060405250810190613e169190615886565b60208401526060830151613f7457600154604051633c557a6f60e11b81526001600160a01b038a81166004830152909116906378aaf4de90602401602060405180830381865afa158015613e6e573d6000803e3d6000fd5b505050506040513d601f19601f82011682018060405250810190613e929190615886565b836020015110158015613ea457508251155b15613eb157600101613ce3565b6000613ec68460a0015185608001518a614291565b9050613ee289856040015186602001518760000151858d6142c5565b60808101518551919450613ef59161593a565b845260808084015190850151613f0b919061593a565b6080850152610100830151604084015160a08086015190870151613f2f919061593a565b613f39919061593a565b613f43919061593a565b60a0850152613f528584614b99565b9450613f68898560a0015186608001518b614c83565b1560608501525061402f565b82606001518015613ff55750600154604051633c557a6f60e11b81526001600160a01b038a81166004830152909116906378aaf4de90602401602060405180830381865afa158015613fca573d6000803e3d6000fd5b505050506040513d601f19601f82011682018060405250810190613fee9190615886565b8360200151105b1561402f5761400d8884604001518560000151614d0b565b608081015184519193506140209161593a565b835261402c8483614b99565b93505b600101613ce3565b61403f6153c8565b614047615414565b61404f6153c8565b84825260005b8451811015613c7157848181518110614070576140706159dd565b60209081029190910101516001600160a01b039081166040808601829052600f54905163b1eafaab60e01b815292169163b1eafaab916140b7918c91908c906004016158e5565b602060405180830381865afa1580156140d4573d6000803e3d6000fd5b505050506040513d601f19601f820116820180604052508101906140f89190615886565b6020840152600154604051633c557a6f60e11b81526001600160a01b038a81166004830152909116906378aaf4de90602401602060405180830381865afa158015614147573d6000803e3d6000fd5b505050506040513d601f19601f8201168201806040525081019061416b9190615886565b836020015110156141ab576141898884604001518560000151614d0b565b6080810151845191935061419c9161593a565b83526141a88483614b99565b93505b600101614055565b6000806141bf84611cc2565b905060006141cc85610876565b90506141d9828286614291565b95945050505050565b6141eb82615017565b6040516001600160a01b038316907fbc7cd75a20ee27fd9adebab32041f755214dbc6bffa90cc0225b39da2e5c2d3b90600090a280511561423057611cbd828261507c565b6117596150e9565b7ff0c57e16840df040f15088dc2f81fe391c3923bec73e23a9662efc9c229c6a0054600160401b900460ff16611aaa57604051631afcd79f60e31b815260040160405180910390fd5b612980614238565b613c7c614238565b600082156142b9576000836142a6848761594d565b6142b0919061597a565b91506142be9050565b506000195b9392505050565b6142cd6153c8565b6142f160405180606001604052806000815260200160008152602001600081525090565b600f5460405163bc8793a960e01b81526001600160a01b038a81166004830152600192169063bc8793a990602401602060405180830381865afa15801561433c573d6000803e3d6000fd5b505050506040513d601f19601f820116820180604052508101906143609190615886565b1161436b5750614b8f565b600f546040516309bde83560e21b81526001600160a01b03909116906326f7a0d49061439d908b908b90600401615909565b608060405180830381865afa1580156143ba573d6000803e3d6000fd5b505050506040513d601f19601f820116820180604052508101906143de91906159f3565b604085015260208481019190915284018190529083526143ff908990615108565b604083810191909152600154905163c08261db60e01b81526001600160a01b038a811660048301529091169063c08261db90602401602060405180830381865afa158015614451573d6000803e3d6000fd5b505050506040513d601f19601f820116820180604052508101906144759190615886565b60608301526040820151602083015161448e919061593a565b81526001546040805163397f12d560e11b815290516001600160a01b03909216916372fe25aa916004808201926020929091908290030181865afa1580156144da573d6000803e3d6000fd5b505050506040513d601f19601f820116820180604052508101906144fe9190615886565b86116146b157600f5460208201516040808401519051632076ee1d60e01b81526001600160a01b0390931692632076ee1d9261453e928d926004016154c2565b600060405180830381600087803b15801561455857600080fd5b505af115801561456c573d6000803e3d6000fd5b5050600f54604051633ed3a18f60e21b81526001600160a01b03909116925063fb4e863c91506145a2908b908b90600401615909565b600060405180830381600087803b1580156145bc57600080fd5b505af11580156145d0573d6000803e3d6000fd5b505060006080850181905260a08501525050815160c0830152805160e0830152600f5460405163550bc5ab60e11b81526001600160a01b039091169063aa178b5690614622908b908b90600401615909565b600060405180830381600087803b15801561463c57600080fd5b505af1158015614650573d6000803e3d6000fd5b50505050866001600160a01b0316886001600160a01b03167fd13515134171b35d13ca928c7912f43125417d82681b5f284b52f97563ccb8658460000151856020015160026040516146a493929190615a29565b60405180910390a3614b8d565b600160009054906101000a90046001600160a01b03166001600160a01b03166372fe25aa6040518163ffffffff1660e01b8152600401602060405180830381865afa158015614704573d6000803e3d6000fd5b505050506040513d601f19601f820116820180604052508101906147289190615886565b861180156147a25750600154604051633c557a6f60e11b81526001600160a01b038a81166004830152909116906378aaf4de90602401602060405180830381865afa15801561477b573d6000803e3d6000fd5b505050506040513d601f19601f8201168201806040525081019061479f9190615886565b86105b156148cd57600f5460208201516040808401519051632076ee1d60e01b81526001600160a01b0390931692632076ee1d926147e1928d926004016154c2565b600060405180830381600087803b1580156147fb57600080fd5b505af115801561480f573d6000803e3d6000fd5b5050600f54604051633ed3a18f60e21b81526001600160a01b03909116925063fb4e863c9150614845908b908b90600401615909565b600060405180830381600087803b15801561485f57600080fd5b505af1158015614873573d6000803e3d6000fd5b505083518351614887935090915087615181565b60e086015260c085015260a08401526080830152600f5460405163550bc5ab60e11b81526001600160a01b039091169063aa178b5690614622908b908b90600401615909565b600154604051633c557a6f60e11b81526001600160a01b038a81166004830152909116906378aaf4de90602401602060405180830381865afa158015614917573d6000803e3d6000fd5b505050506040513d601f19601f8201168201806040525081019061493b9190615886565b861015801561494957508386105b8015614956575081518510155b15614b7c57600f5460208201516040808401519051632076ee1d60e01b81526001600160a01b0390931692632076ee1d92614995928d926004016154c2565b600060405180830381600087803b1580156149af57600080fd5b505af11580156149c3573d6000803e3d6000fd5b50505050846000036149d7576149d7615a63565b600f54604051633ed3a18f60e21b81526001600160a01b039091169063fb4e863c90614a09908b908b90600401615909565b600060405180830381600087803b158015614a2357600080fd5b505af1158015614a37573d6000803e3d6000fd5b50505050614a4f8883600001518460200151866151e2565b600f5460405163550bc5ab60e11b81529193506001600160a01b03169063aa178b5690614a82908b908b90600401615909565b600060405180830381600087803b158015614a9c57600080fd5b505af1158015614ab0573d6000803e3d6000fd5b50505050816101000151600014614b2c57600354610100830151604051633fa5152d60e21b81526001600160a01b039092169163fe9454b491614af9918c918c916004016158e5565b600060405180830381600087803b158015614b1357600080fd5b505af1158015614b27573d6000803e3d6000fd5b505050505b866001600160a01b0316886001600160a01b03167fd13515134171b35d13ca928c7912f43125417d82681b5f284b52f97563ccb86584600001518560a0015160026040516146a493929190615a29565b614b846153c8565b9150614b8f9050565b505b9695505050505050565b614ba16153c8565b81604001518360400151614bb591906158b5565b604082015260608083015190840151614bce91906158b5565b606082015281516020840151614be491906158b5565b6020808301919091528201518351614bfc91906158b5565b815260808083015190840151614c1291906158b5565b608082015260a08083015190840151614c2b91906158b5565b60a082015260c08083015190840151614c4491906158b5565b60c082015260e08083015190840151614c5d91906158b5565b60e08201526101008083015190840151614c7791906158b5565b61010082015292915050565b600080614c91858585614291565b60015460405163316a306d60e11b81526001600160a01b0389811660048301529293509116906362d460da90602401602060405180830381865afa158015614cdd573d6000803e3d6000fd5b505050506040513d601f19601f82011682018060405250810190614d019190615886565b1195945050505050565b614d136153c8565b614d3760405180606001604052806000815260200160008152602001600081525090565b600f546040516309bde83560e21b81526001600160a01b03909116906326f7a0d490614d699088908890600401615909565b608060405180830381865afa158015614d86573d6000803e3d6000fd5b505050506040513d601f19601f82011682018060405250810190614daa91906159f3565b60408086019182526020868101938452870193909352928552600f54905192519151632076ee1d60e01b81526001600160a01b0390911692632076ee1d92614df8928a9291906004016154c2565b600060405180830381600087803b158015614e1257600080fd5b505af1158015614e26573d6000803e3d6000fd5b5050600f54604051633ed3a18f60e21b81526001600160a01b03909116925063fb4e863c9150614e5c9088908890600401615909565b600060405180830381600087803b158015614e7657600080fd5b505af1158015614e8a573d6000803e3d6000fd5b50505050614e9c858360200151615108565b604083810191909152600154905163c08261db60e01b81526001600160a01b0387811660048301529091169063c08261db90602401602060405180830381865afa158015614eee573d6000803e3d6000fd5b505050506040513d601f19601f82011682018060405250810190614f129190615886565b606083015260408201516020830151600091614f2d9161593a565b9050614f3e83600001518286615181565b60e087015260c086015260a08501526080840152600f5460405163550bc5ab60e11b81526001600160a01b039091169063aa178b5690614f849089908990600401615909565b600060405180830381600087803b158015614f9e57600080fd5b505af1158015614fb2573d6000803e3d6000fd5b50505050846001600160a01b0316866001600160a01b03167fd13515134171b35d13ca928c7912f43125417d82681b5f284b52f97563ccb86585600001518660200151600160405161500693929190615a29565b60405180910390a350509392505050565b806001600160a01b03163b60000361504d57604051634c9c8ce360e01b81526001600160a01b0382166004820152602401611dc7565b600080516020615a9683398151915280546001600160a01b0319166001600160a01b0392909216919091179055565b6060600080846001600160a01b0316846040516150999190615a79565b600060405180830381855af49150503d80600081146150d4576040519150601f19603f3d011682016040523d82523d6000602084013e6150d9565b606091505b50915091506141d9858383615343565b3415611aaa5760405163b398979f60e01b815260040160405180910390fd5b6001546040516315ee08fb60e31b81526001600160a01b038481166004830152600092169063af7047d890602401602060405180830381865afa158015615153573d6000803e3d6000fd5b505050506040513d601f19601f820116820180604052508101906151779190615886565b612389908361597a565b600080808084156151cc576151968786612a93565b9350866151a3858861594d565b6151ad919061597a565b92506151b9848861593a565b91506151c5838761593a565b90506151d9565b5060009250829150859050845b93509350935093565b6151ea6153c8565b83815260208101839052600154604051633c557a6f60e11b81526001600160a01b03878116600483015260009285929116906378aaf4de90602401602060405180830381865afa158015615242573d6000803e3d6000fd5b505050506040513d601f19601f820116820180604052508101906152669190615886565b615270908761594d565b61527a919061597a565b90506152868682615108565b604083810191909152600154905163c08261db60e01b81526001600160a01b0388811660048301529091169063c08261db90602401602060405180830381865afa1580156152d8573d6000803e3d6000fd5b505050506040513d601f19601f820116820180604052508101906152fc9190615886565b6060830152608082018590526040820151615317908261593a565b60a0830152615326818561593a565b61010083015250600060c0820181905260e0820152949350505050565b606082615358576153538261539f565b6142be565b815115801561536f57506001600160a01b0384163b155b1561539857604051639996b31560e01b81526001600160a01b0385166004820152602401611dc7565b50806142be565b8051156153af5780518082602001fd5b604051630a12f52160e11b815260040160405180910390fd5b6040518061012001604052806000815260200160008152602001600081526020016000815260200160008152602001600081526020016000815260200160008152602001600081525090565b6040518060c00160405280600081526020016000815260200160006001600160a01b0316815260200160001515815260200160008152602001600081525090565b6001600160a01b03811681146129b357600080fd5b60006020828403121561547c57600080fd5b81356142be81615455565b6000806000806080858703121561549d57600080fd5b84356154a881615455565b966020860135965060408601359560600135945092505050565b6001600160a01b039390931683526020830191909152604082015260600190565b600080600080600080600080610100898b03121561550057600080fd5b883561550b81615455565b975060208901359650604089013561552281615455565b9550606089013561553281615455565b9450608089013561554281615455565b979a969950949793969560a0850135955060c08501359460e001359350915050565b634e487b7160e01b600052604160045260246000fd5b604051601f8201601f1916810167ffffffffffffffff811182821017156155a3576155a3615564565b604052919050565b600080604083850312156155be57600080fd5b82356155c981615455565b915060208381013567ffffffffffffffff808211156155e757600080fd5b818601915086601f8301126155fb57600080fd5b81358181111561560d5761560d615564565b61561f601f8201601f1916850161557a565b9150808252878482850101111561563557600080fd5b80848401858401376000848284010152508093505050509250929050565b6000806040838503121561566657600080fd5b823561567181615455565b9150602083013561568181615455565b809150509250929050565b60005b838110156156a757818101518382015260200161568f565b50506000910152565b60208152600082518060208401526156cf81604085016020870161568c565b601f01601f19169190910160400192915050565b600080602083850312156156f657600080fd5b823567ffffffffffffffff8082111561570e57600080fd5b818501915085601f83011261572257600080fd5b81358181111561573157600080fd5b8660208260051b850101111561574657600080fd5b60209290920196919550909350505050565b60006020828403121561576a57600080fd5b5035919050565b6000806040838503121561578457600080fd5b50508035926020909101359150565b600080604083850312156157a657600080fd5b82356157b181615455565b946020939093013593505050565b600080604083850312156157d257600080fd5b82356157dd81615455565b915060208381013567ffffffffffffffff808211156157fb57600080fd5b818601915086601f83011261580f57600080fd5b81358181111561582157615821615564565b8060051b915061583284830161557a565b818152918301840191848101908984111561584c57600080fd5b938501935b83851015615876578435925061586683615455565b8282529385019390850190615851565b8096505050505050509250929050565b60006020828403121561589857600080fd5b5051919050565b634e487b7160e01b600052601160045260246000fd5b8082018082111561238c5761238c61589f565b6000602082840312156158da57600080fd5b81516142be81615455565b6001600160a01b039384168152919092166020820152604081019190915260600190565b6001600160a01b0392831681529116602082015260400190565b6000816159325761593261589f565b506000190190565b8181038181111561238c5761238c61589f565b808202811582820484141761238c5761238c61589f565b634e487b7160e01b600052601260045260246000fd5b60008261598957615989615964565b500490565b6000602082840312156159a057600080fd5b815180151581146142be57600080fd5b6000826159bf576159bf615964565b500690565b6000600182016159d6576159d661589f565b5060010190565b634e487b7160e01b600052603260045260246000fd5b60008060008060808587031215615a0957600080fd5b505082516020840151604085015160609095015191969095509092509050565b838152602081018390526060810160048310615a5557634e487b7160e01b600052602160045260246000fd5b826040830152949350505050565b634e487b7160e01b600052600160045260246000fd5b60008251615a8b81846020870161568c565b919091019291505056fe360894a13ba1a3210667c828492db98dca3e2076cc3735a920a3ca505d382bbca164736f6c6343000817000a",
  "devdoc": {
    "errors": {
      "AddressEmptyCode(address)": [
        {
          "details": "There's no code at `target` (it is not a contract)."
        }
      ],
      "ERC1967InvalidImplementation(address)": [
        {
          "details": "The `implementation` of the proxy is invalid."
        }
      ],
      "ERC1967NonPayable()": [
        {
          "details": "An upgrade function sees `msg.value > 0` that may be lost."
        }
      ],
      "FailedInnerCall()": [
        {
          "details": "A call to an address target failed. The target may have reverted."
        }
      ],
      "InvalidInitialization()": [
        {
          "details": "The contract is already initialized."
        }
      ],
      "NotInitializing()": [
        {
          "details": "The contract is not initializing."
        }
      ],
      "OwnableInvalidOwner(address)": [
        {
          "details": "The owner is not a valid owner account. (eg. `address(0)`)"
        }
      ],
      "OwnableUnauthorizedAccount(address)": [
        {
          "details": "The caller account is not authorized to perform an operation."
        }
      ],
      "ReentrancyGuardReentrantCall()": [
        {
          "details": "Unauthorized reentrant call."
        }
      ],
      "UUPSUnauthorizedCallContext()": [
        {
          "details": "The call is from an unauthorized context."
        }
      ],
      "UUPSUnsupportedProxiableUUID(bytes32)": [
        {
          "details": "The storage `slot` is unsupported as a UUID."
        }
      ]
    },
    "events": {
      "Initialized(uint64)": {
        "details": "Triggered when the contract has been initialized or reinitialized."
      },
      "Upgraded(address)": {
        "details": "Emitted when the implementation is upgraded."
      }
    },
    "kind": "dev",
    "methods": {
      "owner()": {
        "details": "Returns the address of the current owner."
      },
      "proxiableUUID()": {
        "details": "Implementation of the ERC1822 {proxiableUUID} function. This returns the storage slot used by the implementation. It is used to validate the implementation's compatibility when performing an upgrade. IMPORTANT: A proxy pointing at a proxiable contract should not be considered proxiable itself, because this risks bricking a proxy that upgrades to it, by delegating to itself until out of gas. Thus it is critical that this function revert if invoked through a proxy. This is guaranteed by the `notDelegated` modifier."
      },
      "renounceOwnership()": {
        "details": "Leaves the contract without owner. It will not be possible to call `onlyOwner` functions. Can only be called by the current owner. NOTE: Renouncing ownership will leave the contract without an owner, thereby disabling any functionality that is only available to the owner."
      },
      "transferOwnership(address)": {
        "details": "Transfers ownership of the contract to a new account (`newOwner`). Can only be called by the current owner."
      },
      "upgradeToAndCall(address,bytes)": {
        "custom:oz-upgrades-unsafe-allow-reachable": "delegatecall",
        "details": "Upgrade the implementation of the proxy to `newImplementation`, and subsequently execute the function call encoded in `data`. Calls {_authorizeUpgrade}. Emits an {Upgraded} event."
      }
    },
    "version": 1
  },
  "userdoc": {
    "kind": "user",
    "methods": {},
    "version": 1
  },
  "storageLayout": {
    "storage": [
      {
        "astId": 9891,
        "contract": "contracts/TrenBoxManagerOperations.sol:TrenBoxManagerOperations",
        "label": "activePool",
        "offset": 0,
        "slot": "0",
        "type": "t_address"
      },
      {
        "astId": 9893,
        "contract": "contracts/TrenBoxManagerOperations.sol:TrenBoxManagerOperations",
        "label": "adminContract",
        "offset": 0,
        "slot": "1",
        "type": "t_address"
      },
      {
        "astId": 9895,
        "contract": "contracts/TrenBoxManagerOperations.sol:TrenBoxManagerOperations",
        "label": "borrowerOperations",
        "offset": 0,
        "slot": "2",
        "type": "t_address"
      },
      {
        "astId": 9897,
        "contract": "contracts/TrenBoxManagerOperations.sol:TrenBoxManagerOperations",
        "label": "collSurplusPool",
        "offset": 0,
        "slot": "3",
        "type": "t_address"
      },
      {
        "astId": 9899,
        "contract": "contracts/TrenBoxManagerOperations.sol:TrenBoxManagerOperations",
        "label": "communityIssuance",
        "offset": 0,
        "slot": "4",
        "type": "t_address"
      },
      {
        "astId": 9901,
        "contract": "contracts/TrenBoxManagerOperations.sol:TrenBoxManagerOperations",
        "label": "debtToken",
        "offset": 0,
        "slot": "5",
        "type": "t_address"
      },
      {
        "astId": 9903,
        "contract": "contracts/TrenBoxManagerOperations.sol:TrenBoxManagerOperations",
        "label": "defaultPool",
        "offset": 0,
        "slot": "6",
        "type": "t_address"
      },
      {
        "astId": 9905,
        "contract": "contracts/TrenBoxManagerOperations.sol:TrenBoxManagerOperations",
        "label": "feeCollector",
        "offset": 0,
        "slot": "7",
        "type": "t_address"
      },
      {
        "astId": 9907,
        "contract": "contracts/TrenBoxManagerOperations.sol:TrenBoxManagerOperations",
        "label": "gasPoolAddress",
        "offset": 0,
        "slot": "8",
        "type": "t_address"
      },
      {
        "astId": 9909,
        "contract": "contracts/TrenBoxManagerOperations.sol:TrenBoxManagerOperations",
        "label": "trenStaking",
        "offset": 0,
        "slot": "9",
        "type": "t_address"
      },
      {
        "astId": 9911,
        "contract": "contracts/TrenBoxManagerOperations.sol:TrenBoxManagerOperations",
        "label": "priceFeed",
        "offset": 0,
        "slot": "10",
        "type": "t_address"
      },
      {
        "astId": 9913,
        "contract": "contracts/TrenBoxManagerOperations.sol:TrenBoxManagerOperations",
        "label": "sortedTrenBoxes",
        "offset": 0,
        "slot": "11",
        "type": "t_address"
      },
      {
        "astId": 9915,
        "contract": "contracts/TrenBoxManagerOperations.sol:TrenBoxManagerOperations",
        "label": "stabilityPool",
        "offset": 0,
        "slot": "12",
        "type": "t_address"
      },
      {
        "astId": 9917,
        "contract": "contracts/TrenBoxManagerOperations.sol:TrenBoxManagerOperations",
        "label": "timelockAddress",
        "offset": 0,
        "slot": "13",
        "type": "t_address"
      },
      {
        "astId": 9919,
        "contract": "contracts/TrenBoxManagerOperations.sol:TrenBoxManagerOperations",
        "label": "treasuryAddress",
        "offset": 0,
        "slot": "14",
        "type": "t_address"
      },
      {
        "astId": 9921,
        "contract": "contracts/TrenBoxManagerOperations.sol:TrenBoxManagerOperations",
        "label": "trenBoxManager",
        "offset": 0,
        "slot": "15",
        "type": "t_address"
      },
      {
        "astId": 9923,
        "contract": "contracts/TrenBoxManagerOperations.sol:TrenBoxManagerOperations",
        "label": "trenBoxManagerOperations",
        "offset": 0,
        "slot": "16",
        "type": "t_address"
      },
      {
        "astId": 9925,
        "contract": "contracts/TrenBoxManagerOperations.sol:TrenBoxManagerOperations",
        "label": "isAddressSetupInitialized",
        "offset": 20,
        "slot": "16",
        "type": "t_bool"
      },
      {
        "astId": 9930,
        "contract": "contracts/TrenBoxManagerOperations.sol:TrenBoxManagerOperations",
        "label": "__gap",
        "offset": 0,
        "slot": "17",
        "type": "t_array(t_uint256)33_storage"
      },
      {
        "astId": 23694,
        "contract": "contracts/TrenBoxManagerOperations.sol:TrenBoxManagerOperations",
        "label": "redemptionSofteningParam",
        "offset": 0,
        "slot": "50",
        "type": "t_uint256"
      }
    ],
    "types": {
      "t_address": {
        "encoding": "inplace",
        "label": "address",
        "numberOfBytes": "20"
      },
      "t_array(t_uint256)33_storage": {
        "base": "t_uint256",
        "encoding": "inplace",
        "label": "uint256[33]",
        "numberOfBytes": "1056"
      },
      "t_bool": {
        "encoding": "inplace",
        "label": "bool",
        "numberOfBytes": "1"
      },
      "t_uint256": {
        "encoding": "inplace",
        "label": "uint256",
        "numberOfBytes": "32"
      }
    }
  }
}