{
  "address": "0xa89dbb45c9c1a6173e729289d01b70f9e6371419",
  "abi": [
    {
      "inputs": [
        {
          "internalType": "address",
          "name": "target",
          "type": "address"
        }
      ],
      "name": "AddressEmptyCode",
      "type": "error"
    },
    {
      "inputs": [
        {
          "internalType": "address",
          "name": "implementation",
          "type": "address"
        }
      ],
      "name": "ERC1967InvalidImplementation",
      "type": "error"
    },
    {
      "inputs": [],
      "name": "ERC1967NonPayable",
      "type": "error"
    },
    {
      "inputs": [],
      "name": "FailedInnerCall",
      "type": "error"
    },
    {
      "inputs": [],
      "name": "InvalidInitialization",
      "type": "error"
    },
    {
      "inputs": [],
      "name": "NotInitializing",
      "type": "error"
    },
    {
      "inputs": [
        {
          "internalType": "address",
          "name": "owner",
          "type": "address"
        }
      ],
      "name": "OwnableInvalidOwner",
      "type": "error"
    },
    {
      "inputs": [
        {
          "internalType": "address",
          "name": "account",
          "type": "address"
        }
      ],
      "name": "OwnableUnauthorizedAccount",
      "type": "error"
    },
    {
      "inputs": [],
      "name": "ReentrancyGuardReentrantCall",
      "type": "error"
    },
    {
      "inputs": [],
      "name": "TrenBoxManager__FeeBiggerThanAssetDraw",
      "type": "error"
    },
    {
      "inputs": [],
      "name": "TrenBoxManager__OnlyBorrowerOperations",
      "type": "error"
    },
    {
      "inputs": [],
      "name": "TrenBoxManager__OnlyOneTrenBox",
      "type": "error"
    },
    {
      "inputs": [],
      "name": "TrenBoxManager__OnlyTrenBoxManagerOperations",
      "type": "error"
    },
    {
      "inputs": [],
      "name": "TrenBoxManager__OnlyTrenBoxManagerOperationsOrBorrowerOperations",
      "type": "error"
    },
    {
      "inputs": [],
      "name": "UUPSUnauthorizedCallContext",
      "type": "error"
    },
    {
      "inputs": [
        {
          "internalType": "bytes32",
          "name": "slot",
          "type": "bytes32"
        }
      ],
      "name": "UUPSUnsupportedProxiableUUID",
      "type": "error"
    },
    {
      "anonymous": false,
      "inputs": [
        {
          "indexed": true,
          "internalType": "address",
          "name": "_asset",
          "type": "address"
        },
        {
          "indexed": false,
          "internalType": "uint256",
          "name": "_baseRate",
          "type": "uint256"
        }
      ],
      "name": "BaseRateUpdated",
      "type": "event"
    },
    {
      "anonymous": false,
      "inputs": [
        {
          "indexed": false,
          "internalType": "uint64",
          "name": "version",
          "type": "uint64"
        }
      ],
      "name": "Initialized",
      "type": "event"
    },
    {
      "anonymous": false,
      "inputs": [
        {
          "indexed": true,
          "internalType": "address",
          "name": "_asset",
          "type": "address"
        },
        {
          "indexed": false,
          "internalType": "uint256",
          "name": "_L_Coll",
          "type": "uint256"
        },
        {
          "indexed": false,
          "internalType": "uint256",
          "name": "_L_Debt",
          "type": "uint256"
        }
      ],
      "name": "LTermsUpdated",
      "type": "event"
    },
    {
      "anonymous": false,
      "inputs": [
        {
          "indexed": true,
          "internalType": "address",
          "name": "_asset",
          "type": "address"
        },
        {
          "indexed": false,
          "internalType": "uint256",
          "name": "_lastFeeOpTime",
          "type": "uint256"
        }
      ],
      "name": "LastFeeOpTimeUpdated",
      "type": "event"
    },
    {
      "anonymous": false,
      "inputs": [
        {
          "indexed": true,
          "internalType": "address",
          "name": "previousOwner",
          "type": "address"
        },
        {
          "indexed": true,
          "internalType": "address",
          "name": "newOwner",
          "type": "address"
        }
      ],
      "name": "OwnershipTransferred",
      "type": "event"
    },
    {
      "anonymous": false,
      "inputs": [
        {
          "indexed": true,
          "internalType": "address",
          "name": "_asset",
          "type": "address"
        },
        {
          "indexed": false,
          "internalType": "uint256",
          "name": "_totalStakesSnapshot",
          "type": "uint256"
        },
        {
          "indexed": false,
          "internalType": "uint256",
          "name": "_totalCollateralSnapshot",
          "type": "uint256"
        }
      ],
      "name": "SystemSnapshotsUpdated",
      "type": "event"
    },
    {
      "anonymous": false,
      "inputs": [
        {
          "indexed": true,
          "internalType": "address",
          "name": "_asset",
          "type": "address"
        },
        {
          "indexed": false,
          "internalType": "uint256",
          "name": "_newTotalStakes",
          "type": "uint256"
        }
      ],
      "name": "TotalStakesUpdated",
      "type": "event"
    },
    {
      "anonymous": false,
      "inputs": [
        {
          "indexed": true,
          "internalType": "address",
          "name": "_asset",
          "type": "address"
        },
        {
          "indexed": false,
          "internalType": "address",
          "name": "_borrower",
          "type": "address"
        },
        {
          "indexed": false,
          "internalType": "uint256",
          "name": "_newIndex",
          "type": "uint256"
        }
      ],
      "name": "TrenBoxIndexUpdated",
      "type": "event"
    },
    {
      "anonymous": false,
      "inputs": [
        {
          "indexed": true,
          "internalType": "address",
          "name": "_asset",
          "type": "address"
        },
        {
          "indexed": false,
          "internalType": "uint256",
          "name": "_L_Coll",
          "type": "uint256"
        },
        {
          "indexed": false,
          "internalType": "uint256",
          "name": "_L_Debt",
          "type": "uint256"
        }
      ],
      "name": "TrenBoxSnapshotsUpdated",
      "type": "event"
    },
    {
      "anonymous": false,
      "inputs": [
        {
          "indexed": true,
          "internalType": "address",
          "name": "_asset",
          "type": "address"
        },
        {
          "indexed": true,
          "internalType": "address",
          "name": "_borrower",
          "type": "address"
        },
        {
          "indexed": false,
          "internalType": "uint256",
          "name": "_debt",
          "type": "uint256"
        },
        {
          "indexed": false,
          "internalType": "uint256",
          "name": "_coll",
          "type": "uint256"
        },
        {
          "indexed": false,
          "internalType": "uint256",
          "name": "_stake",
          "type": "uint256"
        },
        {
          "indexed": false,
          "internalType": "enum ITrenBoxManager.TrenBoxManagerOperation",
          "name": "_operation",
          "type": "uint8"
        }
      ],
      "name": "TrenBoxUpdated",
      "type": "event"
    },
    {
      "anonymous": false,
      "inputs": [
        {
          "indexed": true,
          "internalType": "address",
          "name": "implementation",
          "type": "address"
        }
      ],
      "name": "Upgraded",
      "type": "event"
    },
    {
      "inputs": [],
      "name": "BETA",
      "outputs": [
        {
          "internalType": "uint256",
          "name": "",
          "type": "uint256"
        }
      ],
      "stateMutability": "view",
      "type": "function"
    },
    {
      "inputs": [],
      "name": "DECIMAL_PRECISION",
      "outputs": [
        {
          "internalType": "uint256",
          "name": "",
          "type": "uint256"
        }
      ],
      "stateMutability": "view",
      "type": "function"
    },
    {
      "inputs": [
        {
          "internalType": "address",
          "name": "",
          "type": "address"
        }
      ],
      "name": "L_Colls",
      "outputs": [
        {
          "internalType": "uint256",
          "name": "",
          "type": "uint256"
        }
      ],
      "stateMutability": "view",
      "type": "function"
    },
    {
      "inputs": [
        {
          "internalType": "address",
          "name": "",
          "type": "address"
        }
      ],
      "name": "L_Debts",
      "outputs": [
        {
          "internalType": "uint256",
          "name": "",
          "type": "uint256"
        }
      ],
      "stateMutability": "view",
      "type": "function"
    },
    {
      "inputs": [],
      "name": "MINUTE_DECAY_FACTOR",
      "outputs": [
        {
          "internalType": "uint256",
          "name": "",
          "type": "uint256"
        }
      ],
      "stateMutability": "view",
      "type": "function"
    },
    {
      "inputs": [],
      "name": "NAME",
      "outputs": [
        {
          "internalType": "string",
          "name": "",
          "type": "string"
        }
      ],
      "stateMutability": "view",
      "type": "function"
    },
    {
      "inputs": [],
      "name": "SECONDS_IN_ONE_MINUTE",
      "outputs": [
        {
          "internalType": "uint256",
          "name": "",
          "type": "uint256"
        }
      ],
      "stateMutability": "view",
      "type": "function"
    },
    {
      "inputs": [
        {
          "internalType": "address",
          "name": "",
          "type": "address"
        },
        {
          "internalType": "uint256",
          "name": "",
          "type": "uint256"
        }
      ],
      "name": "TrenBoxOwners",
      "outputs": [
        {
          "internalType": "address",
          "name": "",
          "type": "address"
        }
      ],
      "stateMutability": "view",
      "type": "function"
    },
    {
      "inputs": [
        {
          "internalType": "address",
          "name": "",
          "type": "address"
        },
        {
          "internalType": "address",
          "name": "",
          "type": "address"
        }
      ],
      "name": "TrenBoxes",
      "outputs": [
        {
          "internalType": "uint256",
          "name": "debt",
          "type": "uint256"
        },
        {
          "internalType": "uint256",
          "name": "coll",
          "type": "uint256"
        },
        {
          "internalType": "uint256",
          "name": "stake",
          "type": "uint256"
        },
        {
          "internalType": "enum ITrenBoxManager.Status",
          "name": "status",
          "type": "uint8"
        },
        {
          "internalType": "uint128",
          "name": "arrayIndex",
          "type": "uint128"
        }
      ],
      "stateMutability": "view",
      "type": "function"
    },
    {
      "inputs": [],
      "name": "UPGRADE_INTERFACE_VERSION",
      "outputs": [
        {
          "internalType": "string",
          "name": "",
          "type": "string"
        }
      ],
      "stateMutability": "view",
      "type": "function"
    },
    {
      "inputs": [],
      "name": "activePool",
      "outputs": [
        {
          "internalType": "address",
          "name": "",
          "type": "address"
        }
      ],
      "stateMutability": "view",
      "type": "function"
    },
    {
      "inputs": [
        {
          "internalType": "address",
          "name": "_asset",
          "type": "address"
        },
        {
          "internalType": "address",
          "name": "_borrower",
          "type": "address"
        }
      ],
      "name": "addTrenBoxOwnerToArray",
      "outputs": [
        {
          "internalType": "uint256",
          "name": "index",
          "type": "uint256"
        }
      ],
      "stateMutability": "nonpayable",
      "type": "function"
    },
    {
      "inputs": [],
      "name": "adminContract",
      "outputs": [
        {
          "internalType": "address",
          "name": "",
          "type": "address"
        }
      ],
      "stateMutability": "view",
      "type": "function"
    },
    {
      "inputs": [
        {
          "internalType": "address",
          "name": "_asset",
          "type": "address"
        },
        {
          "internalType": "address",
          "name": "_borrower",
          "type": "address"
        }
      ],
      "name": "applyPendingRewards",
      "outputs": [],
      "stateMutability": "nonpayable",
      "type": "function"
    },
    {
      "inputs": [
        {
          "internalType": "address",
          "name": "newImplementation",
          "type": "address"
        }
      ],
      "name": "authorizeUpgrade",
      "outputs": [],
      "stateMutability": "nonpayable",
      "type": "function"
    },
    {
      "inputs": [
        {
          "internalType": "address",
          "name": "",
          "type": "address"
        }
      ],
      "name": "baseRate",
      "outputs": [
        {
          "internalType": "uint256",
          "name": "",
          "type": "uint256"
        }
      ],
      "stateMutability": "view",
      "type": "function"
    },
    {
      "inputs": [],
      "name": "borrowerOperations",
      "outputs": [
        {
          "internalType": "address",
          "name": "",
          "type": "address"
        }
      ],
      "stateMutability": "view",
      "type": "function"
    },
    {
      "inputs": [
        {
          "internalType": "address",
          "name": "_asset",
          "type": "address"
        },
        {
          "internalType": "uint256",
          "name": "_price",
          "type": "uint256"
        }
      ],
      "name": "checkRecoveryMode",
      "outputs": [
        {
          "internalType": "bool",
          "name": "",
          "type": "bool"
        }
      ],
      "stateMutability": "view",
      "type": "function"
    },
    {
      "inputs": [
        {
          "internalType": "address",
          "name": "_asset",
          "type": "address"
        },
        {
          "internalType": "address",
          "name": "_borrower",
          "type": "address"
        }
      ],
      "name": "closeTrenBox",
      "outputs": [],
      "stateMutability": "nonpayable",
      "type": "function"
    },
    {
      "inputs": [
        {
          "internalType": "address",
          "name": "_asset",
          "type": "address"
        },
        {
          "internalType": "address",
          "name": "_borrower",
          "type": "address"
        }
      ],
      "name": "closeTrenBoxLiquidation",
      "outputs": [],
      "stateMutability": "nonpayable",
      "type": "function"
    },
    {
      "inputs": [],
      "name": "collSurplusPool",
      "outputs": [
        {
          "internalType": "address",
          "name": "",
          "type": "address"
        }
      ],
      "stateMutability": "view",
      "type": "function"
    },
    {
      "inputs": [],
      "name": "communityIssuance",
      "outputs": [
        {
          "internalType": "address",
          "name": "",
          "type": "address"
        }
      ],
      "stateMutability": "view",
      "type": "function"
    },
    {
      "inputs": [],
      "name": "debtToken",
      "outputs": [
        {
          "internalType": "address",
          "name": "",
          "type": "address"
        }
      ],
      "stateMutability": "view",
      "type": "function"
    },
    {
      "inputs": [
        {
          "internalType": "address",
          "name": "_asset",
          "type": "address"
        },
        {
          "internalType": "address",
          "name": "_borrower",
          "type": "address"
        },
        {
          "internalType": "uint256",
          "name": "_collDecrease",
          "type": "uint256"
        }
      ],
      "name": "decreaseTrenBoxColl",
      "outputs": [
        {
          "internalType": "uint256",
          "name": "newColl",
          "type": "uint256"
        }
      ],
      "stateMutability": "nonpayable",
      "type": "function"
    },
    {
      "inputs": [
        {
          "internalType": "address",
          "name": "_asset",
          "type": "address"
        },
        {
          "internalType": "address",
          "name": "_borrower",
          "type": "address"
        },
        {
          "internalType": "uint256",
          "name": "_debtDecrease",
          "type": "uint256"
        }
      ],
      "name": "decreaseTrenBoxDebt",
      "outputs": [
        {
          "internalType": "uint256",
          "name": "",
          "type": "uint256"
        }
      ],
      "stateMutability": "nonpayable",
      "type": "function"
    },
    {
      "inputs": [],
      "name": "defaultPool",
      "outputs": [
        {
          "internalType": "address",
          "name": "",
          "type": "address"
        }
      ],
      "stateMutability": "view",
      "type": "function"
    },
    {
      "inputs": [
        {
          "internalType": "address",
          "name": "_asset",
          "type": "address"
        },
        {
          "internalType": "address",
          "name": "_borrower",
          "type": "address"
        },
        {
          "internalType": "uint256",
          "name": "_newColl",
          "type": "uint256"
        }
      ],
      "name": "executeFullRedemption",
      "outputs": [],
      "stateMutability": "nonpayable",
      "type": "function"
    },
    {
      "inputs": [
        {
          "internalType": "address",
          "name": "_asset",
          "type": "address"
        },
        {
          "internalType": "address",
          "name": "_borrower",
          "type": "address"
        },
        {
          "internalType": "uint256",
          "name": "_newDebt",
          "type": "uint256"
        },
        {
          "internalType": "uint256",
          "name": "_newColl",
          "type": "uint256"
        },
        {
          "internalType": "uint256",
          "name": "_newNICR",
          "type": "uint256"
        },
        {
          "internalType": "address",
          "name": "_upperPartialRedemptionHint",
          "type": "address"
        },
        {
          "internalType": "address",
          "name": "_lowerPartialRedemptionHint",
          "type": "address"
        }
      ],
      "name": "executePartialRedemption",
      "outputs": [],
      "stateMutability": "nonpayable",
      "type": "function"
    },
    {
      "inputs": [],
      "name": "feeCollector",
      "outputs": [
        {
          "internalType": "address",
          "name": "",
          "type": "address"
        }
      ],
      "stateMutability": "view",
      "type": "function"
    },
    {
      "inputs": [
        {
          "internalType": "address",
          "name": "_asset",
          "type": "address"
        },
        {
          "internalType": "address",
          "name": "_receiver",
          "type": "address"
        },
        {
          "internalType": "uint256",
          "name": "_debtToRedeem",
          "type": "uint256"
        },
        {
          "internalType": "uint256",
          "name": "_assetFeeAmount",
          "type": "uint256"
        },
        {
          "internalType": "uint256",
          "name": "_assetRedeemedAmount",
          "type": "uint256"
        }
      ],
      "name": "finalizeRedemption",
      "outputs": [],
      "stateMutability": "nonpayable",
      "type": "function"
    },
    {
      "inputs": [],
      "name": "gasPoolAddress",
      "outputs": [
        {
          "internalType": "address",
          "name": "",
          "type": "address"
        }
      ],
      "stateMutability": "view",
      "type": "function"
    },
    {
      "inputs": [
        {
          "internalType": "address",
          "name": "_asset",
          "type": "address"
        },
        {
          "internalType": "uint256",
          "name": "_debt",
          "type": "uint256"
        }
      ],
      "name": "getBorrowingFee",
      "outputs": [
        {
          "internalType": "uint256",
          "name": "",
          "type": "uint256"
        }
      ],
      "stateMutability": "view",
      "type": "function"
    },
    {
      "inputs": [
        {
          "internalType": "address",
          "name": "_asset",
          "type": "address"
        }
      ],
      "name": "getBorrowingRate",
      "outputs": [
        {
          "internalType": "uint256",
          "name": "",
          "type": "uint256"
        }
      ],
      "stateMutability": "view",
      "type": "function"
    },
    {
      "inputs": [
        {
          "internalType": "address",
          "name": "_asset",
          "type": "address"
        },
        {
          "internalType": "address",
          "name": "_borrower",
          "type": "address"
        },
        {
          "internalType": "uint256",
          "name": "_price",
          "type": "uint256"
        }
      ],
      "name": "getCurrentICR",
      "outputs": [
        {
          "internalType": "uint256",
          "name": "",
          "type": "uint256"
        }
      ],
      "stateMutability": "view",
      "type": "function"
    },
    {
      "inputs": [
        {
          "internalType": "address",
          "name": "_asset",
          "type": "address"
        },
        {
          "internalType": "address",
          "name": "_borrower",
          "type": "address"
        }
      ],
      "name": "getEntireDebtAndColl",
      "outputs": [
        {
          "internalType": "uint256",
          "name": "debt",
          "type": "uint256"
        },
        {
          "internalType": "uint256",
          "name": "coll",
          "type": "uint256"
        },
        {
          "internalType": "uint256",
          "name": "pendingDebtReward",
          "type": "uint256"
        },
        {
          "internalType": "uint256",
          "name": "pendingCollReward",
          "type": "uint256"
        }
      ],
      "stateMutability": "view",
      "type": "function"
    },
    {
      "inputs": [
        {
          "internalType": "address",
          "name": "_asset",
          "type": "address"
        }
      ],
      "name": "getEntireSystemColl",
      "outputs": [
        {
          "internalType": "uint256",
          "name": "entireSystemColl",
          "type": "uint256"
        }
      ],
      "stateMutability": "view",
      "type": "function"
    },
    {
      "inputs": [
        {
          "internalType": "address",
          "name": "_asset",
          "type": "address"
        }
      ],
      "name": "getEntireSystemDebt",
      "outputs": [
        {
          "internalType": "uint256",
          "name": "entireSystemDebt",
          "type": "uint256"
        }
      ],
      "stateMutability": "view",
      "type": "function"
    },
    {
      "inputs": [
        {
          "internalType": "address",
          "name": "_asset",
          "type": "address"
        },
        {
          "internalType": "uint256",
          "name": "_debt",
          "type": "uint256"
        }
      ],
      "name": "getNetDebt",
      "outputs": [
        {
          "internalType": "uint256",
          "name": "",
          "type": "uint256"
        }
      ],
      "stateMutability": "view",
      "type": "function"
    },
    {
      "inputs": [
        {
          "internalType": "address",
          "name": "_asset",
          "type": "address"
        },
        {
          "internalType": "address",
          "name": "_borrower",
          "type": "address"
        }
      ],
      "name": "getNominalICR",
      "outputs": [
        {
          "internalType": "uint256",
          "name": "",
          "type": "uint256"
        }
      ],
      "stateMutability": "view",
      "type": "function"
    },
    {
      "inputs": [
        {
          "internalType": "address",
          "name": "_asset",
          "type": "address"
        },
        {
          "internalType": "address",
          "name": "_borrower",
          "type": "address"
        }
      ],
      "name": "getPendingAssetReward",
      "outputs": [
        {
          "internalType": "uint256",
          "name": "",
          "type": "uint256"
        }
      ],
      "stateMutability": "view",
      "type": "function"
    },
    {
      "inputs": [
        {
          "internalType": "address",
          "name": "_asset",
          "type": "address"
        },
        {
          "internalType": "address",
          "name": "_borrower",
          "type": "address"
        }
      ],
      "name": "getPendingDebtTokenReward",
      "outputs": [
        {
          "internalType": "uint256",
          "name": "",
          "type": "uint256"
        }
      ],
      "stateMutability": "view",
      "type": "function"
    },
    {
      "inputs": [
        {
          "internalType": "address",
          "name": "_asset",
          "type": "address"
        },
        {
          "internalType": "uint256",
          "name": "_assetDraw",
          "type": "uint256"
        }
      ],
      "name": "getRedemptionFee",
      "outputs": [
        {
          "internalType": "uint256",
          "name": "",
          "type": "uint256"
        }
      ],
      "stateMutability": "view",
      "type": "function"
    },
    {
      "inputs": [
        {
          "internalType": "address",
          "name": "_asset",
          "type": "address"
        },
        {
          "internalType": "uint256",
          "name": "_assetDraw",
          "type": "uint256"
        }
      ],
      "name": "getRedemptionFeeWithDecay",
      "outputs": [
        {
          "internalType": "uint256",
          "name": "",
          "type": "uint256"
        }
      ],
      "stateMutability": "view",
      "type": "function"
    },
    {
      "inputs": [
        {
          "internalType": "address",
          "name": "_asset",
          "type": "address"
        }
      ],
      "name": "getRedemptionRate",
      "outputs": [
        {
          "internalType": "uint256",
          "name": "",
          "type": "uint256"
        }
      ],
      "stateMutability": "view",
      "type": "function"
    },
    {
      "inputs": [
        {
          "internalType": "address",
          "name": "_asset",
          "type": "address"
        }
      ],
      "name": "getRedemptionRateWithDecay",
      "outputs": [
        {
          "internalType": "uint256",
          "name": "",
          "type": "uint256"
        }
      ],
      "stateMutability": "view",
      "type": "function"
    },
    {
      "inputs": [
        {
          "internalType": "address",
          "name": "_asset",
          "type": "address"
        },
        {
          "internalType": "uint256",
          "name": "_price",
          "type": "uint256"
        }
      ],
      "name": "getTCR",
      "outputs": [
        {
          "internalType": "uint256",
          "name": "",
          "type": "uint256"
        }
      ],
      "stateMutability": "view",
      "type": "function"
    },
    {
      "inputs": [
        {
          "internalType": "address",
          "name": "_asset",
          "type": "address"
        },
        {
          "internalType": "address",
          "name": "_borrower",
          "type": "address"
        }
      ],
      "name": "getTrenBoxColl",
      "outputs": [
        {
          "internalType": "uint256",
          "name": "",
          "type": "uint256"
        }
      ],
      "stateMutability": "view",
      "type": "function"
    },
    {
      "inputs": [
        {
          "internalType": "address",
          "name": "_asset",
          "type": "address"
        },
        {
          "internalType": "address",
          "name": "_borrower",
          "type": "address"
        }
      ],
      "name": "getTrenBoxDebt",
      "outputs": [
        {
          "internalType": "uint256",
          "name": "",
          "type": "uint256"
        }
      ],
      "stateMutability": "view",
      "type": "function"
    },
    {
      "inputs": [
        {
          "internalType": "address",
          "name": "_asset",
          "type": "address"
        },
        {
          "internalType": "uint256",
          "name": "_index",
          "type": "uint256"
        }
      ],
      "name": "getTrenBoxFromTrenBoxOwnersArray",
      "outputs": [
        {
          "internalType": "address",
          "name": "",
          "type": "address"
        }
      ],
      "stateMutability": "view",
      "type": "function"
    },
    {
      "inputs": [
        {
          "internalType": "address",
          "name": "_asset",
          "type": "address"
        }
      ],
      "name": "getTrenBoxOwnersCount",
      "outputs": [
        {
          "internalType": "uint256",
          "name": "",
          "type": "uint256"
        }
      ],
      "stateMutability": "view",
      "type": "function"
    },
    {
      "inputs": [
        {
          "internalType": "address",
          "name": "_asset",
          "type": "address"
        },
        {
          "internalType": "address",
          "name": "_borrower",
          "type": "address"
        }
      ],
      "name": "getTrenBoxStake",
      "outputs": [
        {
          "internalType": "uint256",
          "name": "",
          "type": "uint256"
        }
      ],
      "stateMutability": "view",
      "type": "function"
    },
    {
      "inputs": [
        {
          "internalType": "address",
          "name": "_asset",
          "type": "address"
        },
        {
          "internalType": "address",
          "name": "_borrower",
          "type": "address"
        }
      ],
      "name": "getTrenBoxStatus",
      "outputs": [
        {
          "internalType": "uint256",
          "name": "",
          "type": "uint256"
        }
      ],
      "stateMutability": "view",
      "type": "function"
    },
    {
      "inputs": [
        {
          "internalType": "address",
          "name": "_asset",
          "type": "address"
        },
        {
          "internalType": "address",
          "name": "_borrower",
          "type": "address"
        }
      ],
      "name": "hasPendingRewards",
      "outputs": [
        {
          "internalType": "bool",
          "name": "",
          "type": "bool"
        }
      ],
      "stateMutability": "view",
      "type": "function"
    },
    {
      "inputs": [
        {
          "internalType": "address",
          "name": "_asset",
          "type": "address"
        },
        {
          "internalType": "address",
          "name": "_borrower",
          "type": "address"
        },
        {
          "internalType": "uint256",
          "name": "_collIncrease",
          "type": "uint256"
        }
      ],
      "name": "increaseTrenBoxColl",
      "outputs": [
        {
          "internalType": "uint256",
          "name": "newColl",
          "type": "uint256"
        }
      ],
      "stateMutability": "nonpayable",
      "type": "function"
    },
    {
      "inputs": [
        {
          "internalType": "address",
          "name": "_asset",
          "type": "address"
        },
        {
          "internalType": "address",
          "name": "_borrower",
          "type": "address"
        },
        {
          "internalType": "uint256",
          "name": "_debtIncrease",
          "type": "uint256"
        }
      ],
      "name": "increaseTrenBoxDebt",
      "outputs": [
        {
          "internalType": "uint256",
          "name": "newDebt",
          "type": "uint256"
        }
      ],
      "stateMutability": "nonpayable",
      "type": "function"
    },
    {
      "inputs": [],
      "name": "initialize",
      "outputs": [],
      "stateMutability": "nonpayable",
      "type": "function"
    },
    {
      "inputs": [],
      "name": "isAddressSetupInitialized",
      "outputs": [
        {
          "internalType": "bool",
          "name": "",
          "type": "bool"
        }
      ],
      "stateMutability": "view",
      "type": "function"
    },
    {
      "inputs": [],
      "name": "isSetupInitialized",
      "outputs": [
        {
          "internalType": "bool",
          "name": "",
          "type": "bool"
        }
      ],
      "stateMutability": "view",
      "type": "function"
    },
    {
      "inputs": [
        {
          "internalType": "address",
          "name": "_asset",
          "type": "address"
        },
        {
          "internalType": "address",
          "name": "_borrower",
          "type": "address"
        }
      ],
      "name": "isTrenBoxActive",
      "outputs": [
        {
          "internalType": "bool",
          "name": "",
          "type": "bool"
        }
      ],
      "stateMutability": "view",
      "type": "function"
    },
    {
      "inputs": [
        {
          "internalType": "address",
          "name": "_asset",
          "type": "address"
        },
        {
          "internalType": "address",
          "name": "_firstRedemptionHint",
          "type": "address"
        },
        {
          "internalType": "uint256",
          "name": "_price",
          "type": "uint256"
        }
      ],
      "name": "isValidFirstRedemptionHint",
      "outputs": [
        {
          "internalType": "bool",
          "name": "",
          "type": "bool"
        }
      ],
      "stateMutability": "view",
      "type": "function"
    },
    {
      "inputs": [
        {
          "internalType": "address",
          "name": "",
          "type": "address"
        }
      ],
      "name": "lastCollError_Redistribution",
      "outputs": [
        {
          "internalType": "uint256",
          "name": "",
          "type": "uint256"
        }
      ],
      "stateMutability": "view",
      "type": "function"
    },
    {
      "inputs": [
        {
          "internalType": "address",
          "name": "",
          "type": "address"
        }
      ],
      "name": "lastDebtError_Redistribution",
      "outputs": [
        {
          "internalType": "uint256",
          "name": "",
          "type": "uint256"
        }
      ],
      "stateMutability": "view",
      "type": "function"
    },
    {
      "inputs": [
        {
          "internalType": "address",
          "name": "",
          "type": "address"
        }
      ],
      "name": "lastFeeOperationTime",
      "outputs": [
        {
          "internalType": "uint256",
          "name": "",
          "type": "uint256"
        }
      ],
      "stateMutability": "view",
      "type": "function"
    },
    {
      "inputs": [
        {
          "internalType": "address",
          "name": "_asset",
          "type": "address"
        },
        {
          "internalType": "uint256",
          "name": "_debt",
          "type": "uint256"
        },
        {
          "internalType": "uint256",
          "name": "_assetAmount",
          "type": "uint256"
        }
      ],
      "name": "movePendingTrenBoxRewardsToActivePool",
      "outputs": [],
      "stateMutability": "nonpayable",
      "type": "function"
    },
    {
      "inputs": [],
      "name": "owner",
      "outputs": [
        {
          "internalType": "address",
          "name": "",
          "type": "address"
        }
      ],
      "stateMutability": "view",
      "type": "function"
    },
    {
      "inputs": [],
      "name": "priceFeed",
      "outputs": [
        {
          "internalType": "address",
          "name": "",
          "type": "address"
        }
      ],
      "stateMutability": "view",
      "type": "function"
    },
    {
      "inputs": [],
      "name": "proxiableUUID",
      "outputs": [
        {
          "internalType": "bytes32",
          "name": "",
          "type": "bytes32"
        }
      ],
      "stateMutability": "view",
      "type": "function"
    },
    {
      "inputs": [
        {
          "internalType": "address",
          "name": "_asset",
          "type": "address"
        },
        {
          "internalType": "uint256",
          "name": "_debt",
          "type": "uint256"
        },
        {
          "internalType": "uint256",
          "name": "_coll",
          "type": "uint256"
        },
        {
          "internalType": "uint256",
          "name": "_debtToOffset",
          "type": "uint256"
        },
        {
          "internalType": "uint256",
          "name": "_collToSendToStabilityPool",
          "type": "uint256"
        }
      ],
      "name": "redistributeDebtAndColl",
      "outputs": [],
      "stateMutability": "nonpayable",
      "type": "function"
    },
    {
      "inputs": [
        {
          "internalType": "address",
          "name": "_asset",
          "type": "address"
        },
        {
          "internalType": "address",
          "name": "_borrower",
          "type": "address"
        }
      ],
      "name": "removeStake",
      "outputs": [],
      "stateMutability": "nonpayable",
      "type": "function"
    },
    {
      "inputs": [],
      "name": "renounceOwnership",
      "outputs": [],
      "stateMutability": "nonpayable",
      "type": "function"
    },
    {
      "inputs": [
        {
          "internalType": "address",
          "name": "",
          "type": "address"
        },
        {
          "internalType": "address",
          "name": "",
          "type": "address"
        }
      ],
      "name": "rewardSnapshots",
      "outputs": [
        {
          "internalType": "uint256",
          "name": "asset",
          "type": "uint256"
        },
        {
          "internalType": "uint256",
          "name": "debt",
          "type": "uint256"
        }
      ],
      "stateMutability": "view",
      "type": "function"
    },
    {
      "inputs": [
        {
          "internalType": "address",
          "name": "_asset",
          "type": "address"
        },
        {
          "internalType": "address",
          "name": "_liquidator",
          "type": "address"
        },
        {
          "internalType": "uint256",
          "name": "_debtTokenAmount",
          "type": "uint256"
        },
        {
          "internalType": "uint256",
          "name": "_assetAmount",
          "type": "uint256"
        }
      ],
      "name": "sendGasCompensation",
      "outputs": [],
      "stateMutability": "nonpayable",
      "type": "function"
    },
    {
      "inputs": [
        {
          "internalType": "address[]",
          "name": "_addresses",
          "type": "address[]"
        }
      ],
      "name": "setAddresses",
      "outputs": [],
      "stateMutability": "nonpayable",
      "type": "function"
    },
    {
      "inputs": [
        {
          "internalType": "address",
          "name": "_communityIssuance",
          "type": "address"
        }
      ],
      "name": "setCommunityIssuance",
      "outputs": [],
      "stateMutability": "nonpayable",
      "type": "function"
    },
    {
      "inputs": [
        {
          "internalType": "address",
          "name": "_trenStaking",
          "type": "address"
        }
      ],
      "name": "setTRENStaking",
      "outputs": [],
      "stateMutability": "nonpayable",
      "type": "function"
    },
    {
      "inputs": [
        {
          "internalType": "address",
          "name": "_asset",
          "type": "address"
        },
        {
          "internalType": "address",
          "name": "_borrower",
          "type": "address"
        },
        {
          "internalType": "uint256",
          "name": "_num",
          "type": "uint256"
        }
      ],
      "name": "setTrenBoxStatus",
      "outputs": [],
      "stateMutability": "nonpayable",
      "type": "function"
    },
    {
      "inputs": [],
      "name": "sortedTrenBoxes",
      "outputs": [
        {
          "internalType": "address",
          "name": "",
          "type": "address"
        }
      ],
      "stateMutability": "view",
      "type": "function"
    },
    {
      "inputs": [],
      "name": "stabilityPool",
      "outputs": [
        {
          "internalType": "address",
          "name": "",
          "type": "address"
        }
      ],
      "stateMutability": "view",
      "type": "function"
    },
    {
      "inputs": [],
      "name": "timelockAddress",
      "outputs": [
        {
          "internalType": "address",
          "name": "",
          "type": "address"
        }
      ],
      "stateMutability": "view",
      "type": "function"
    },
    {
      "inputs": [
        {
          "internalType": "address",
          "name": "",
          "type": "address"
        }
      ],
      "name": "totalCollateralSnapshot",
      "outputs": [
        {
          "internalType": "uint256",
          "name": "",
          "type": "uint256"
        }
      ],
      "stateMutability": "view",
      "type": "function"
    },
    {
      "inputs": [
        {
          "internalType": "address",
          "name": "",
          "type": "address"
        }
      ],
      "name": "totalStakes",
      "outputs": [
        {
          "internalType": "uint256",
          "name": "",
          "type": "uint256"
        }
      ],
      "stateMutability": "view",
      "type": "function"
    },
    {
      "inputs": [
        {
          "internalType": "address",
          "name": "",
          "type": "address"
        }
      ],
      "name": "totalStakesSnapshot",
      "outputs": [
        {
          "internalType": "uint256",
          "name": "",
          "type": "uint256"
        }
      ],
      "stateMutability": "view",
      "type": "function"
    },
    {
      "inputs": [
        {
          "internalType": "address",
          "name": "newOwner",
          "type": "address"
        }
      ],
      "name": "transferOwnership",
      "outputs": [],
      "stateMutability": "nonpayable",
      "type": "function"
    },
    {
      "inputs": [],
      "name": "treasuryAddress",
      "outputs": [
        {
          "internalType": "address",
          "name": "",
          "type": "address"
        }
      ],
      "stateMutability": "view",
      "type": "function"
    },
    {
      "inputs": [],
      "name": "trenBoxManager",
      "outputs": [
        {
          "internalType": "address",
          "name": "",
          "type": "address"
        }
      ],
      "stateMutability": "view",
      "type": "function"
    },
    {
      "inputs": [],
      "name": "trenBoxManagerOperations",
      "outputs": [
        {
          "internalType": "address",
          "name": "",
          "type": "address"
        }
      ],
      "stateMutability": "view",
      "type": "function"
    },
    {
      "inputs": [],
      "name": "trenStaking",
      "outputs": [
        {
          "internalType": "address",
          "name": "",
          "type": "address"
        }
      ],
      "stateMutability": "view",
      "type": "function"
    },
    {
      "inputs": [
        {
          "internalType": "address",
          "name": "_asset",
          "type": "address"
        },
        {
          "internalType": "uint256",
          "name": "_assetDrawn",
          "type": "uint256"
        },
        {
          "internalType": "uint256",
          "name": "_price",
          "type": "uint256"
        },
        {
          "internalType": "uint256",
          "name": "_totalDebtTokenSupply",
          "type": "uint256"
        }
      ],
      "name": "updateBaseRateFromRedemption",
      "outputs": [
        {
          "internalType": "uint256",
          "name": "",
          "type": "uint256"
        }
      ],
      "stateMutability": "nonpayable",
      "type": "function"
    },
    {
      "inputs": [
        {
          "internalType": "address",
          "name": "_asset",
          "type": "address"
        },
        {
          "internalType": "address",
          "name": "_borrower",
          "type": "address"
        }
      ],
      "name": "updateStakeAndTotalStakes",
      "outputs": [
        {
          "internalType": "uint256",
          "name": "",
          "type": "uint256"
        }
      ],
      "stateMutability": "nonpayable",
      "type": "function"
    },
    {
      "inputs": [
        {
          "internalType": "address",
          "name": "_asset",
          "type": "address"
        },
        {
          "internalType": "uint256",
          "name": "_collRemainder",
          "type": "uint256"
        }
      ],
      "name": "updateSystemSnapshots_excludeCollRemainder",
      "outputs": [],
      "stateMutability": "nonpayable",
      "type": "function"
    },
    {
      "inputs": [
        {
          "internalType": "address",
          "name": "_asset",
          "type": "address"
        },
        {
          "internalType": "address",
          "name": "_borrower",
          "type": "address"
        }
      ],
      "name": "updateTrenBoxRewardSnapshots",
      "outputs": [],
      "stateMutability": "nonpayable",
      "type": "function"
    },
    {
      "inputs": [
        {
          "internalType": "address",
          "name": "newImplementation",
          "type": "address"
        },
        {
          "internalType": "bytes",
          "name": "data",
          "type": "bytes"
        }
      ],
      "name": "upgradeToAndCall",
      "outputs": [],
      "stateMutability": "payable",
      "type": "function"
    }
  ],
  "transactionHash": "0x3d9cf092e9dd9a0917d9e966adfaed7c7420fdaab3592c143315ba93ea218c2c",
  "args": [],
  "numDeployments": 1,
  "solcInputHash": "e6971fb87a17deef3641f1719687e39f",
  "bytecode": "0x60a06040523060805234801561001457600080fd5b5060805161515761003e60003960008181613c5801528181613c810152613dc201526151576000f3fe6080604052600436106104f75760003560e01c806390ec23011161028c578063c7b554811161015a578063de665835116100cc578063f8d8989811610085578063f8d8989814611157578063f9a3d41f14611177578063fb4e863c146111be578063fd01d983146111de578063fe06073314611228578063fe9d03231461124857600080fd5b8063de6658351461107d578063df349ed5146110aa578063df4fb9ef146110d7578063e62c521e146110f7578063f1c05a7e14611117578063f2fde38b1461113757600080fd5b8063d0f312b71161011e578063d0f312b714610f5f578063d1a71b5f14610f8c578063d201d32814610fac578063d299e9bb14610fcc578063da3835ad1461103d578063dbe9f9191461105d57600080fd5b8063c7b5548114610e8e578063c8564c6214610eaa578063c93fd44a14610ecb578063cc8b21e414610f1f578063cda775f914610f3f57600080fd5b8063b1eafaab116101fe578063c05c5e94116101b7578063c05c5e9414610dce578063c226882314610dee578063c2bac5f114610e0e578063c415b95c14610e2e578063c5d75f7b14610e4e578063c5f956af14610e6e57600080fd5b8063b1eafaab14610cf8578063b65c72bf14610d18578063b6d3b04714610d38578063b957172114610d58578063bc8793a914610d78578063be16a09614610dae57600080fd5b8063a3abe09811610250578063a3abe09814610bf3578063a3f4df7e14610c13578063aa178b5614610c5a578063ad3cb1cc14610c7a578063af3700dc14610cab578063b0809e2814610cd857600080fd5b806390ec230114610b5d57806395fb16bb14610b7d5780639e86d0c414610b9d578063a142f35a14610bbd578063a20baee614610bd757600080fd5b80634bc66f32116103c95780636a85d67d1161033b5780637f7dde4a116102f45780637f7dde4a14610a7e5780638129fc1c14610a9e57806384934b5914610ab35780638a490ebf14610ae05780638adb81fe14610b005780638da5cb5b14610b2057600080fd5b80636a85d67d146109c95780636f4ecd45146109e95780637012f7fb14610a09578063715018a614610a29578063741bef1a14610a3e57806377553ad414610a5e57600080fd5b806352d1902d1161038d57806352d1902d146108e8578063551886b7146108fd57806355dafa461461091d5780635c6944e81461093d57806361ec893d1461096a5780636a2ffe361461097f57600080fd5b80634bc66f32146108555780634eebd97f146108755780634f1ef2861461089557806350c5ef2e146108a857806352576cdf146108c857600080fd5b806325eeff301161046d5780633982598e116104265780633982598e146107955780633cc74225146107b55780633d36cc95146107d55780633d9ef931146107f5578063411072101461081557806349fe88581461083557600080fd5b806325eeff301461069857806326f7a0d4146106b857806327d04b35146106f85780632dcfca6014610718578063328e14041461074857806333eeaefd1461077557600080fd5b80630a34d4d6116104bf5780630a34d4d6146105be5780630e009ffc146105de5780631ee9211f146105fe5780631f12cc411461061e5780632076ee1d1461064b57806325c79ff41461066b57600080fd5b806301c93100146104fc578063048c661d1461051e578063053cd8e81461055b578063061e9dc314610589578063071a7541146105a9575b600080fd5b34801561050857600080fd5b5061051c610517366004614aa7565b611268565b005b34801561052a57600080fd5b50600c5461053e906001600160a01b031681565b6040516001600160a01b0390911681526020015b60405180910390f35b34801561056757600080fd5b5061057b610576366004614ac4565b611292565b604051908152602001610552565b34801561059557600080fd5b5061057b6105a4366004614afd565b61134e565b3480156105b557600080fd5b5061057b600281565b3480156105ca57600080fd5b5060105461053e906001600160a01b031681565b3480156105ea57600080fd5b5061051c6105f9366004614b3e565b6113c1565b34801561060a57600080fd5b5061057b610619366004614bb9565b61158e565b34801561062a57600080fd5b5061057b610639366004614aa7565b60336020526000908152604090205481565b34801561065757600080fd5b5061051c610666366004614be5565b6115a9565b34801561067757600080fd5b5061057b610686366004614aa7565b60396020526000908152604090205481565b3480156106a457600080fd5b5061051c6106b3366004614c1a565b6115e4565b3480156106c457600080fd5b506106d86106d3366004614ac4565b611895565b604080519485526020850193909352918301526060820152608001610552565b34801561070457600080fd5b5061057b610713366004614aa7565b611905565b34801561072457600080fd5b50610738610733366004614ac4565b6119fd565b6040519015158152602001610552565b34801561075457600080fd5b5061057b610763366004614aa7565b603c6020526000908152604090205481565b34801561078157600080fd5b5061057b610790366004614afd565b611a4e565b3480156107a157600080fd5b5061057b6107b0366004614afd565b611ab1565b3480156107c157600080fd5b5060065461053e906001600160a01b031681565b3480156107e157600080fd5b5061057b6107f0366004614aa7565b611bc4565b34801561080157600080fd5b5061051c610810366004614ac4565b611bd8565b34801561082157600080fd5b5061057b610830366004614bb9565b611c2c565b34801561084157600080fd5b5061057b610850366004614bb9565b611c3a565b34801561086157600080fd5b50600d5461053e906001600160a01b031681565b34801561088157600080fd5b5061051c610890366004614ac4565b611c46565b61051c6108a3366004614c81565b611c7b565b3480156108b457600080fd5b5061057b6108c3366004614ac4565b611c96565b3480156108d457600080fd5b506107386108e3366004614afd565b611cd5565b3480156108f457600080fd5b5061057b611efc565b34801561090957600080fd5b5061057b610918366004614bb9565b611f19565b34801561092957600080fd5b5060095461053e906001600160a01b031681565b34801561094957600080fd5b5061057b610958366004614aa7565b60326020526000908152604090205481565b34801561097657600080fd5b5061057b603c81565b34801561098b57600080fd5b5061057b61099a366004614ac4565b6001600160a01b0380821660009081526034602090815260408083209386168352929052206001015492915050565b3480156109d557600080fd5b5061051c6109e4366004614aa7565b611f25565b3480156109f557600080fd5b5061051c610a04366004614afd565b611f4f565b348015610a1557600080fd5b5061051c610a24366004614d45565b611fd8565b348015610a3557600080fd5b5061051c61239c565b348015610a4a57600080fd5b50600a5461053e906001600160a01b031681565b348015610a6a57600080fd5b5060025461053e906001600160a01b031681565b348015610a8a57600080fd5b5060005461053e906001600160a01b031681565b348015610aaa57600080fd5b5061051c6123b0565b348015610abf57600080fd5b5061057b610ace366004614aa7565b603d6020526000908152604090205481565b348015610aec57600080fd5b50610738610afb366004614bb9565b6124d0565b348015610b0c57600080fd5b5061051c610b1b366004614afd565b6124dc565b348015610b2c57600080fd5b507f9016d09d72d40fdae2fd8ceac6b6234c7706214fd39c1cd1e609a0528c199300546001600160a01b031661053e565b348015610b6957600080fd5b5061057b610b78366004614ac4565b612661565b348015610b8957600080fd5b5060045461053e906001600160a01b031681565b348015610ba957600080fd5b5061057b610bb8366004614aa7565b612680565b348015610bc957600080fd5b50603e546107389060ff1681565b348015610be357600080fd5b5061057b670de0b6b3a764000081565b348015610bff57600080fd5b5061057b610c0e366004614bb9565b612727565b348015610c1f57600080fd5b50610c4d6040518060400160405280600e81526020016d2a3932b72137bc26b0b730b3b2b960911b81525081565b6040516105529190614dad565b348015610c6657600080fd5b5061051c610c75366004614ac4565b6127b8565b348015610c8657600080fd5b50610c4d604051806040016040528060058152602001640352e302e360dc1b81525081565b348015610cb757600080fd5b5061057b610cc6366004614aa7565b60366020526000908152604090205481565b348015610ce457600080fd5b5061053e610cf3366004614bb9565b61289c565b348015610d0457600080fd5b5061057b610d13366004614afd565b6128d4565b348015610d2457600080fd5b5061051c610d33366004614de0565b6128f4565b348015610d4457600080fd5b5061057b610d53366004614aa7565b612a22565b348015610d6457600080fd5b5061051c610d73366004614e26565b612a91565b348015610d8457600080fd5b5061057b610d93366004614aa7565b6001600160a01b03166000908152603b602052604090205490565b348015610dba57600080fd5b5061057b610dc9366004614ac4565b613010565b348015610dda57600080fd5b5060015461053e906001600160a01b031681565b348015610dfa57600080fd5b5061053e610e09366004614bb9565b6130c0565b348015610e1a57600080fd5b5061057b610e29366004614afd565b613106565b348015610e3a57600080fd5b5060075461053e906001600160a01b031681565b348015610e5a57600080fd5b5061057b610e69366004614e9b565b613172565b348015610e7a57600080fd5b50600e5461053e906001600160a01b031681565b348015610e9a57600080fd5b5061057b670ddd4b8c6c7d70d881565b348015610eb657600080fd5b5060105461073890600160a01b900460ff1681565b348015610ed757600080fd5b50610f0a610ee6366004614ac4565b603a6020908152600092835260408084209091529082529020805460019091015482565b60408051928352602083019190915201610552565b348015610f2b57600080fd5b50600b5461053e906001600160a01b031681565b348015610f4b57600080fd5b5060035461053e906001600160a01b031681565b348015610f6b57600080fd5b5061057b610f7a366004614aa7565b60386020526000908152604090205481565b348015610f9857600080fd5b5061057b610fa7366004614ac4565b613261565b348015610fb857600080fd5b5061057b610fc7366004614aa7565b613331565b348015610fd857600080fd5b5061102c610fe7366004614ac4565b603460209081526000928352604080842090915290825290208054600182015460028301546003909301549192909160ff81169061010090046001600160801b031685565b604051610552959493929190614eec565b34801561104957600080fd5b5061051c611058366004614bb9565b613355565b34801561106957600080fd5b5061057b611078366004614ac4565b6134fe565b34801561108957600080fd5b5061057b611098366004614aa7565b60376020526000908152604090205481565b3480156110b657600080fd5b5061057b6110c5366004614aa7565b60356020526000908152604090205481565b3480156110e357600080fd5b5061051c6110f2366004614ac4565b613536565b34801561110357600080fd5b50610738611112366004614ac4565b6135a3565b34801561112357600080fd5b50600f5461053e906001600160a01b031681565b34801561114357600080fd5b5061051c611152366004614aa7565b6135b9565b34801561116357600080fd5b5060055461053e906001600160a01b031681565b34801561118357600080fd5b5061057b611192366004614ac4565b6001600160a01b0380821660009081526034602090815260408083209386168352929052205492915050565b3480156111ca57600080fd5b5061051c6111d9366004614ac4565b6135f7565b3480156111ea57600080fd5b5061057b6111f9366004614ac4565b6001600160a01b0380821660009081526034602090815260408083209386168352929052206002015492915050565b34801561123457600080fd5b5061051c611243366004614aa7565b613645565b34801561125457600080fd5b5060085461053e906001600160a01b031681565b61127061364e565b600980546001600160a01b0319166001600160a01b0392909216919091179055565b6001600160a01b038082166000908152603a6020908152604080832093861683529281528282206001015460399091529181205490919082906112d6908390614f46565b90508015806112ec57506112ea85856135a3565b155b156112fc57600092505050611348565b6001600160a01b03808516600090815260346020908152604080832093891683529290522060020154670de0b6b3a76400006113388383614f59565b6113429190614f86565b93505050505b92915050565b6002546000906001600160a01b0316331461137c5760405163233e9fff60e01b815260040160405180910390fd5b6001600160a01b03808416600090815260346020908152604080832093881683529290522060018101546113b1908490614f9a565b6001909101819055949350505050565b6010546001600160a01b031633146113ec57604051634f1d868560e11b815260040160405180910390fd5b600b5460405163bc9b5bd560e01b81526001600160a01b038981166004830152888116602483015260448201869052848116606483015283811660848301529091169063bc9b5bd59060a401600060405180830381600087803b15801561145257600080fd5b505af1158015611466573d6000803e3d6000fd5b5050506001600160a01b038088166000908152603460209081526040808320938c168352929052908120805490925061149f8882614f46565b6114b190670de0b6b3a7640000614f59565b6114bb9190614f86565b9050801561152a57600754604051631dac1e3160e31b81526001600160a01b039091169063ed60f188906114f7908b908d908690600401614fad565b600060405180830381600087803b15801561151157600080fd5b505af1158015611525573d6000803e3d6000fd5b505050505b8682556001820186905561153e89896136a9565b50876001600160a01b0316896001600160a01b03166000805160206150eb83398151915289898660020154600360405161157b9493929190614fe5565b60405180910390a3505050505050505050565b60006115a261159c84613331565b83613785565b9392505050565b6010546001600160a01b031633146115d457604051634f1d868560e11b815260040160405180910390fd5b6115df8383836137c7565b505050565b6010546001600160a01b0316331461160f57604051634f1d868560e11b815260040160405180910390fd5b8115611750576007546040805163039e4def60e51b815290516000926001600160a01b0316916373c9bde09160048083019260209291908290030181865afa15801561165f573d6000803e3d6000fd5b505050506040513d601f19601f820116820180604052508101906116839190615007565b6000546040516347878f1560e01b81529192506001600160a01b0316906347878f15906116b890899085908890600401614fad565b600060405180830381600087803b1580156116d257600080fd5b505af11580156116e6573d6000803e3d6000fd5b5050600754604051634a79195760e01b81526001600160a01b039091169250634a791957915061171c9089908790600401615024565b600060405180830381600087803b15801561173657600080fd5b505af115801561174a573d6000803e3d6000fd5b50505050505b600554604051632770a7eb60e21b81526001600160a01b0390911690639dc29fac906117829087908790600401615024565b600060405180830381600087803b15801561179c57600080fd5b505af11580156117b0573d6000803e3d6000fd5b50505050600082826117c29190614f46565b600054604051632fb9ba3160e01b81529192506001600160a01b031690632fb9ba31906117f59089908890600401615024565b600060405180830381600087803b15801561180f57600080fd5b505af1158015611823573d6000803e3d6000fd5b50506000546040516347878f1560e01b81526001600160a01b0390911692506347878f15915061185b90899089908690600401614fad565b600060405180830381600087803b15801561187557600080fd5b505af1158015611889573d6000803e3d6000fd5b50505050505050505050565b6000806000806118a58686611292565b91506118b18686613010565b6001600160a01b038087166000908152603460209081526040808320938b168352929052208054919250906118e7908490614f9a565b94508181600101546118f99190614f9a565b93505092959194509250565b6000805460405163c5739d0b60e01b81526001600160a01b0384811660048301528392169063c5739d0b90602401602060405180830381865afa158015611950573d6000803e3d6000fd5b505050506040513d601f19601f82011682018060405250810190611974919061503d565b60065460405163c5739d0b60e01b81526001600160a01b0386811660048301529293506000929091169063c5739d0b906024015b602060405180830381865afa1580156119c5573d6000803e3d6000fd5b505050506040513d601f19601f820116820180604052508101906119e9919061503d565b90506119f58183614f9a565b949350505050565b6000611a0983836135a3565b611a1557506000611348565b506001600160a01b038083166000818152603860209081526040808320549486168352603a825280832093835292905220541092915050565b6002546000906001600160a01b03163314611a7c5760405163233e9fff60e01b815260040160405180910390fd5b6001600160a01b03808416600090815260346020908152604080832093881683529290522060018101546113b1908490614f46565b6002546000906001600160a01b03163314611adf5760405163233e9fff60e01b815260040160405180910390fd5b6001600160a01b038084166000908152603460209081526040808320938816835292905290812080549091849003611b1a5791506115a29050565b600081611b2f86670de0b6b3a7640000614f59565b611b399190614f86565b90506000611b478684614f46565b80855590508115611bb957600754604051631dac1e3160e31b81526001600160a01b039091169063ed60f18890611b86908a908c908790600401614fad565b600060405180830381600087803b158015611ba057600080fd5b505af1158015611bb4573d6000803e3d6000fd5b505050505b979650505050505050565b600061134882611bd3846138f8565b613955565b6002546001600160a01b03163314801590611bfe57506010546001600160a01b03163314155b15611c1c5760405163bb9aee2760e01b815260040160405180910390fd5b611c28828260026139e4565b5050565b60006115a261159c84611bc4565b60006115a28383613ba2565b6002546001600160a01b03163314611c715760405163233e9fff60e01b815260040160405180910390fd5b611c288282613bc8565b611c83613c4d565b611c8c82613cf2565b611c288282613cfa565b6001600160a01b03808216600090815260346020908152604080832093861683529290529081206003015460ff1660048111156115a2576115a2614ed6565b60006001600160a01b0383161580611d605750600b54604051631da4d95d60e31b81526001600160a01b03868116600483015285811660248301529091169063ed26cae890604401602060405180830381865afa158015611d3a573d6000803e3d6000fd5b505050506040513d601f19601f82011682018060405250810190611d5e9190615056565b155b80611de15750600154604051633c557a6f60e11b81526001600160a01b038681166004830152909116906378aaf4de90602401602060405180830381865afa158015611db0573d6000803e3d6000fd5b505050506040513d601f19601f82011682018060405250810190611dd4919061503d565b611ddf8585856128d4565b105b15611dee575060006115a2565b600b546040516339ed25cd60e01b81526001600160a01b038681166004830152858116602483015260009216906339ed25cd90604401602060405180830381865afa158015611e41573d6000803e3d6000fd5b505050506040513d601f19601f82011682018060405250810190611e659190615007565b90506001600160a01b0381161580611ef35750600154604051633c557a6f60e11b81526001600160a01b038781166004830152909116906378aaf4de90602401602060405180830381865afa158015611ec2573d6000803e3d6000fd5b505050506040513d601f19601f82011682018060405250810190611ee6919061503d565b611ef18683866128d4565b105b95945050505050565b6000611f06613db7565b5060008051602061510b83398151915290565b60006115a28383613e00565b611f2d61364e565b600480546001600160a01b0319166001600160a01b0392909216919091179055565b6002546001600160a01b03163314611f7a5760405163233e9fff60e01b815260040160405180910390fd5b806004811115611f8c57611f8c614ed6565b6001600160a01b038084166000908152603460209081526040808320938816835292905220600301805460ff19166001836004811115611fce57611fce614ed6565b0217905550505050565b611fe0613e79565b6010546001600160a01b0316331461200b57604051634f1d868560e11b815260040160405180910390fd5b600c54604051631091da8960e01b8152600481018490526001600160a01b0387811660248301526044820184905290911690631091da8990606401600060405180830381600087803b15801561206057600080fd5b505af1158015612074573d6000803e3d6000fd5b50505050836000031561237e576001600160a01b0385166000908152603c60205260408120546120ac670de0b6b3a764000086614f59565b6120b69190614f9a565b6001600160a01b0387166000908152603d6020526040812054919250906120e5670de0b6b3a764000088614f59565b6120ef9190614f9a565b6001600160a01b0388166000908152603560205260408120549192506121158285614f86565b905060006121238385614f86565b905061212f8383614f59565b6121399086614f46565b6001600160a01b038b166000908152603c602052604090205561215c8382614f59565b6121669085614f46565b6001600160a01b038b166000908152603d60209081526040808320939093556038905290812054612198908490614f9a565b6001600160a01b038c16600090815260396020526040812054919250906121c0908490614f9a565b6001600160a01b038d1660008181526038602090815260408083208790556039825291829020849055815186815290810184905292935090917f6f63d00bdf85957664165c9e20900aabd5a17378cb5c0955ce760e48a6ae48c7910160405180910390a2600054604051632fb9ba3160e01b81526001600160a01b0390911690632fb9ba3190612256908f908f90600401615024565b600060405180830381600087803b15801561227057600080fd5b505af1158015612284573d6000803e3d6000fd5b505060065460405163f8585db360e01b81526001600160a01b03909116925063f8585db391506122ba908f908f90600401615024565b600060405180830381600087803b1580156122d457600080fd5b505af11580156122e8573d6000803e3d6000fd5b5050505060008054906101000a90046001600160a01b03166001600160a01b03166347878f158d600660009054906101000a90046001600160a01b03168d6040518463ffffffff1660e01b815260040161234493929190614fad565b600060405180830381600087803b15801561235e57600080fd5b505af1158015612372573d6000803e3d6000fd5b50505050505050505050505b612395600160008051602061512b83398151915255565b5050505050565b6123a461364e565b6123ae6000613ec5565b565b7ff0c57e16840df040f15088dc2f81fe391c3923bec73e23a9662efc9c229c6a008054600160401b810460ff16159067ffffffffffffffff166000811580156123f65750825b905060008267ffffffffffffffff1660011480156124135750303b155b905081158015612421575080155b1561243f5760405163f92ee8a960e01b815260040160405180910390fd5b845467ffffffffffffffff19166001178555831561246957845460ff60401b1916600160401b1785555b3361247381613f36565b61247b613f47565b612483613f4f565b50831561239557845460ff60401b19168555604051600181527fc7f505b2f371ae2175ee4913f4499e1f2633a7b5936321eed1cdaeb6115181d29060200160405180910390a15050505050565b60006115a28383613f5f565b6124e4613e79565b6010546001600160a01b0316331461250f57604051634f1d868560e11b815260040160405180910390fd5b6125198383613fe4565b612525838360046139e4565b60015460405163c08261db60e01b81526001600160a01b0380861660048301526125a192869286929091169063c08261db90602401602060405180830381865afa158015612577573d6000803e3d6000fd5b505050506040513d601f19601f8201168201806040525081019061259b919061503d565b8461403a565b60075460405163871d814560e01b81526001600160a01b03848116600483015285811660248301529091169063871d814590604401600060405180830381600087803b1580156125f057600080fd5b505af1158015612604573d6000803e3d6000fd5b50505050816001600160a01b0316836001600160a01b03166000805160206150eb833981519152600080600060036040516126429493929190614fe5565b60405180910390a36115df600160008051602061512b83398151915255565b600080600061267085856141db565b91509150600061134283836142c4565b60008054604051635373433f60e01b81526001600160a01b03848116600483015283921690635373433f90602401602060405180830381865afa1580156126cb573d6000803e3d6000fd5b505050506040513d601f19601f820116820180604052508101906126ef919061503d565b600654604051635373433f60e01b81526001600160a01b03868116600483015292935060009290911690635373433f906024016119a8565b60015460405163300581d960e01b81526001600160a01b038481166004830152600092670de0b6b3a76400009285929091169063300581d990602401602060405180830381865afa158015612780573d6000803e3d6000fd5b505050506040513d601f19601f820116820180604052508101906127a4919061503d565b6127ae9190614f59565b6115a29190614f86565b6010546001600160a01b031633146127e357604051634f1d868560e11b815260040160405180910390fd5b6127ef828260036139e4565b60075460405163aa36069d60e01b81526001600160a01b03838116600483015284811660248301529091169063aa36069d90604401600060405180830381600087803b15801561283e57600080fd5b505af1158015612852573d6000803e3d6000fd5b50505050806001600160a01b0316826001600160a01b03166000805160206150eb833981519152600080600060016040516128909493929190614fe5565b60405180910390a35050565b603b60205281600052604060002081815481106128b857600080fd5b6000918252602090912001546001600160a01b03169150829050565b60008060006128e386866141db565b915091506000611bb98383876142fa565b6128fc613e79565b6010546001600160a01b0316331461292757604051634f1d868560e11b815260040160405180910390fd5b811561299857600554600854604051631062c15f60e11b81526001600160a01b03928316926320c582be926129659291169087908790600401614fad565b600060405180830381600087803b15801561297f57600080fd5b505af1158015612993573d6000803e3d6000fd5b505050505b8015612a05576000546040516347878f1560e01b81526001600160a01b03909116906347878f15906129d290879087908690600401614fad565b600060405180830381600087803b1580156129ec57600080fd5b505af1158015612a00573d6000803e3d6000fd5b505050505b612a1c600160008051602061512b83398151915255565b50505050565b60015460405163300581d960e01b81526001600160a01b038381166004830152600092169063300581d990602401602060405180830381865afa158015612a6d573d6000803e3d6000fd5b505050506040513d601f19601f82011682018060405250810190611348919061503d565b612a9961364e565b601054600160a01b900460ff1615612af85760405162461bcd60e51b815260206004820152601c60248201527f536574757020697320616c726561647920696e697469616c697a65640000000060448201526064015b60405180910390fd5b600f8114612b485760405162461bcd60e51b815260206004820152601e60248201527f45787065637465642031352061646472657373657320617420736574757000006044820152606401612aef565b60005b600f811015612bcd576000838383818110612b6857612b68615078565b9050602002016020810190612b7d9190614aa7565b6001600160a01b031603612bc55760405162461bcd60e51b815260206004820152600f60248201526e496e76616c6964206164647265737360881b6044820152606401612aef565b600101612b4b565b5081816000818110612be157612be1615078565b9050602002016020810190612bf69190614aa7565b600080546001600160a01b0319166001600160a01b039290921691909117905581816001818110612c2957612c29615078565b9050602002016020810190612c3e9190614aa7565b600180546001600160a01b0319166001600160a01b039290921691909117905581816002818110612c7157612c71615078565b9050602002016020810190612c869190614aa7565b600280546001600160a01b0319166001600160a01b039290921691909117905581816003818110612cb957612cb9615078565b9050602002016020810190612cce9190614aa7565b600380546001600160a01b0319166001600160a01b039290921691909117905581816004818110612d0157612d01615078565b9050602002016020810190612d169190614aa7565b600580546001600160a01b0319166001600160a01b039290921691909117815582908290818110612d4957612d49615078565b9050602002016020810190612d5e9190614aa7565b600680546001600160a01b0319166001600160a01b039290921691909117815582908290818110612d9157612d91615078565b9050602002016020810190612da69190614aa7565b600780546001600160a01b0319166001600160a01b039290921691909117815582908290818110612dd957612dd9615078565b9050602002016020810190612dee9190614aa7565b600880546001600160a01b0319166001600160a01b039290921691909117815582908290818110612e2157612e21615078565b9050602002016020810190612e369190614aa7565b600a80546001600160a01b0319166001600160a01b039290921691909117905581816009818110612e6957612e69615078565b9050602002016020810190612e7e9190614aa7565b600b80546001600160a01b0319166001600160a01b03929092169190911790558181600a818110612eb157612eb1615078565b9050602002016020810190612ec69190614aa7565b600c80546001600160a01b0319166001600160a01b03929092169190911790558181600b818110612ef957612ef9615078565b9050602002016020810190612f0e9190614aa7565b600d80546001600160a01b0319166001600160a01b03929092169190911790558181600c818110612f4157612f41615078565b9050602002016020810190612f569190614aa7565b600e80546001600160a01b0319166001600160a01b03929092169190911790558181600d818110612f8957612f89615078565b9050602002016020810190612f9e9190614aa7565b600f80546001600160a01b0319166001600160a01b03929092169190911790558181600e818110612fd157612fd1615078565b9050602002016020810190612fe69190614aa7565b601080546001600160a81b0319166001600160a01b039290921691909117600160a01b1790555050565b6001600160a01b038082166000908152603a602090815260408083209386168352928152828220546038909152918120549091908290613051908390614f46565b9050801580613067575061306585856135a3565b155b1561307757600092505050611348565b6001600160a01b03808516600090815260346020908152604080832093891683529290529081206002015490670de0b6b3a76400006130b68484614f59565b611bb99190614f86565b6001600160a01b0382166000908152603b602052604081208054839081106130ea576130ea615078565b6000918252602090912001546001600160a01b03169392505050565b6002546000906001600160a01b031633146131345760405163233e9fff60e01b815260040160405180910390fd5b6001600160a01b0380841660009081526034602090815260408083209388168352929052208054613166908490614f9a565b90819055949350505050565b6010546000906001600160a01b031633146131a057604051634f1d868560e11b815260040160405180910390fd5b60006131ab866138f8565b90506000836131ba8688614f59565b6131c49190614f86565b905060006131d3600283614f86565b6131dd9084614f9a565b90506131f181670de0b6b3a764000061432b565b9050806000036132035761320361508e565b6001600160a01b03881660008181526032602052604090819020839055517f2f992d01b594c040f05262961e43f8311e780be5fee3deb4c57880dd6374d12d906132509084815260200190565b60405180910390a2611bb988614341565b6002546000906001600160a01b0316331461328f5760405163233e9fff60e01b815260040160405180910390fd5b6001600160a01b038381166000908152603b6020908152604082208054600180820183558285529290932090920180546001600160a01b03191693861693909317909255805490916132e091614f46565b6001600160a01b03808516600090815260346020908152604080832093891683529290522060030180546001600160801b03831661010002610100600160881b031990911617905591505092915050565b6001600160a01b038116600090815260326020526040812054611348908390613955565b6010546001600160a01b0316331461338057604051634f1d868560e11b815260040160405180910390fd5b6001600160a01b03828116600081815260356020908152604080832054603690925280832082905582549051635373433f60e01b8152600481019490945290939192911690635373433f90602401602060405180830381865afa1580156133eb573d6000803e3d6000fd5b505050506040513d601f19601f8201168201806040525081019061340f919061503d565b600654604051635373433f60e01b81526001600160a01b03878116600483015292935060009290911690635373433f90602401602060405180830381865afa15801561345f573d6000803e3d6000fd5b505050506040513d601f19601f82011682018060405250810190613483919061503d565b90506000816134928685614f46565b61349c9190614f9a565b6001600160a01b038716600081815260376020908152604091829020849055815188815290810184905292935090917f9ea5863ffc9d961d6c6bb67235c553dfbdbcc8fe12671cdba8887a50501efbaf910160405180910390a2505050505050565b6002546000906001600160a01b0316331461352c5760405163233e9fff60e01b815260040160405180910390fd5b6115a283836136a9565b61353e613e79565b6002546001600160a01b0316331480159061356457506010546001600160a01b03163314155b156135825760405163bb9aee2760e01b815260040160405180910390fd5b61358c82826143c3565b611c28600160008051602061512b83398151915255565b600060016135b18484611c96565b149392505050565b6135c161364e565b6001600160a01b0381166135eb57604051631e4fbdf760e01b815260006004820152602401612aef565b6135f481613ec5565b50565b6002546001600160a01b0316331480159061361d57506010546001600160a01b03163314155b1561363b5760405163bb9aee2760e01b815260040160405180910390fd5b611c288282613fe4565b6135f481613cf2565b336136807f9016d09d72d40fdae2fd8ceac6b6234c7706214fd39c1cd1e609a0528c199300546001600160a01b031690565b6001600160a01b0316146123ae5760405163118cdaa760e01b8152336004820152602401612aef565b6001600160a01b0380821660009081526034602090815260408083209386168352929052908120600181015482906136e290869061449b565b600283018054908290556001600160a01b03871660009081526035602052604081205492935090918390613717908490614f46565b6137219190614f9a565b6001600160a01b0388166000818152603560205260409081902083905551919250907fd5630907014190fb9340da1cf427c96f094dabfbf73d25506e4b0cda9e3a4ca0906137729084815260200190565b60405180910390a2509095945050505050565b600080670de0b6b3a764000061379b8486614f59565b6137a59190614f86565b90508281106115a25760405163515deaf560e11b815260040160405180910390fd5b600654604051632fb9ba3160e01b81526001600160a01b0390911690632fb9ba31906137f99086908690600401615024565b600060405180830381600087803b15801561381357600080fd5b505af1158015613827573d6000803e3d6000fd5b505060005460405163f8585db360e01b81526001600160a01b03909116925063f8585db3915061385d9086908690600401615024565b600060405180830381600087803b15801561387757600080fd5b505af115801561388b573d6000803e3d6000fd5b505060065460405163053f8cf960e31b81526001600160a01b0390911692506329fc67c891506138c19086908590600401615024565b600060405180830381600087803b1580156138db57600080fd5b505af11580156138ef573d6000803e3d6000fd5b50505050505050565b60008061390483614508565b9050600061391a670ddd4b8c6c7d70d883614538565b6001600160a01b038516600090815260326020526040902054909150670de0b6b3a76400009061394b908390614f59565b6119f59190614f86565b60015460405163443c4fcb60e01b81526001600160a01b0384811660048301526000926115a29285929091169063443c4fcb90602401602060405180830381865afa1580156139a8573d6000803e3d6000fd5b505050506040513d601f19601f820116820180604052508101906139cc919061503d565b6139d69190614f9a565b670de0b6b3a764000061432b565b60008160048111156139f8576139f8614ed6565b14158015613a1857506001816004811115613a1557613a15614ed6565b14155b613a2457613a2461508e565b6001600160a01b0383166000908152603b6020526040902054600181111580613aba5750600b5460405163504f167160e01b81526001600160a01b038681166004830152600192169063504f167190602401602060405180830381865afa158015613a93573d6000803e3d6000fd5b505050506040513d601f19601f82011682018060405250810190613ab7919061503d565b11155b15613ad857604051636d0c780760e11b815260040160405180910390fd5b6001600160a01b03808416600090815260346020908152604080832093881683529290522060038101805484919060ff19166001836004811115613b1e57613b1e614ed6565b0217905550600060018083018290558183556001600160a01b038087168352603a60209081526040808520928a168552919052822082815590810191909155613b688686856145e3565b600b54604051637f7c149160e01b81526001600160a01b038881166004830152878116602483015290911690637f7c14919060440161185b565b600080613bae84612680565b90506000613bbb85611905565b9050611ef38282866142fa565b6001600160a01b0382811660008181526038602090815260408083205460398352818420549587168452603a8352818420858552835292819020838155600181018690558151848152928301869052929493917fab91bee461c0d312c5595fb740744d5f01f42f2032cd4647b93d67fa9eedda15910160405180910390a25050505050565b306001600160a01b037f0000000000000000000000000000000000000000000000000000000000000000161480613cd457507f00000000000000000000000000000000000000000000000000000000000000006001600160a01b0316613cc860008051602061510b833981519152546001600160a01b031690565b6001600160a01b031614155b156123ae5760405163703e46dd60e11b815260040160405180910390fd5b6135f461364e565b816001600160a01b03166352d1902d6040518163ffffffff1660e01b8152600401602060405180830381865afa925050508015613d54575060408051601f3d908101601f19168201909252613d519181019061503d565b60015b613d7c57604051634c9c8ce360e01b81526001600160a01b0383166004820152602401612aef565b60008051602061510b8339815191528114613dad57604051632a87526960e21b815260048101829052602401612aef565b6115df8383614840565b306001600160a01b037f000000000000000000000000000000000000000000000000000000000000000016146123ae5760405163703e46dd60e11b815260040160405180910390fd5b60015460405163c08261db60e01b81526001600160a01b038481166004830152600092169063c08261db90602401602060405180830381865afa158015613e4b573d6000803e3d6000fd5b505050506040513d601f19601f82011682018060405250810190613e6f919061503d565b6115a29083614f46565b60008051602061512b833981519152805460011901613eab57604051633ee5aeb560e01b815260040160405180910390fd5b60029055565b600160008051602061512b83398151915255565b7f9016d09d72d40fdae2fd8ceac6b6234c7706214fd39c1cd1e609a0528c19930080546001600160a01b031981166001600160a01b03848116918217845560405192169182907f8be0079c531659141344cd1fd0a4f28419497f9722a3daafe3b4186f6b6457e090600090a3505050565b613f3e614896565b6135f4816148df565b6123ae614896565b613f57614896565b6123ae6148e7565b600080613f6c8484613ba2565b60015460405163316a306d60e11b81526001600160a01b0387811660048301529293509116906362d460da90602401602060405180830381865afa158015613fb8573d6000803e3d6000fd5b505050506040513d601f19601f82011682018060405250810190613fdc919061503d565b119392505050565b6001600160a01b038082166000908152603460209081526040808320938616835292815282822060028101546035909252928220805491929091614029908490614f46565b909155505060006002909101555050565b600554600854604051632770a7eb60e21b81526001600160a01b0392831692639dc29fac92614070929116908690600401615024565b600060405180830381600087803b15801561408a57600080fd5b505af115801561409e573d6000803e3d6000fd5b5050600054604051632fb9ba3160e01b81526001600160a01b039091169250632fb9ba3191506140d49087908690600401615024565b600060405180830381600087803b1580156140ee57600080fd5b505af1158015614102573d6000803e3d6000fd5b5050600354604051633fa5152d60e21b81526001600160a01b03909116925063fe9454b4915061413a90879087908690600401614fad565b600060405180830381600087803b15801561415457600080fd5b505af1158015614168573d6000803e3d6000fd5b50506000546003546040516347878f1560e01b81526001600160a01b0392831694506347878f1593506141a392899216908690600401614fad565b600060405180830381600087803b1580156141bd57600080fd5b505af11580156141d1573d6000803e3d6000fd5b5050505050505050565b60008060006141ea8585613010565b905060006141f88686611292565b6001600160a01b038087166000908152603460209081526040808320938b168352928152828220835160a0810185528154815260018201549281019290925260028101549382019390935260038301549394509092909190606083019060ff16600481111561426957614269614ed6565b600481111561427a5761427a614ed6565b81526003919091015461010090046001600160801b03166020918201528101519091506142a8908490614f9a565b81519095506142b8908390614f9a565b93505050509250929050565b600081156142f157816142e068056bc75e2d6310000085614f59565b6142ea9190614f86565b9050611348565b50600019611348565b600082156143225760008361430f8487614f59565b6143199190614f86565b91506115a29050565b506000196115a2565b600081831061433a57816115a2565b5090919050565b6001600160a01b0381166000908152603360205260408120546143649042614f46565b9050603c8110611c28576001600160a01b038216600081815260336020908152604091829020429081905591519182527f4b1a24436e474bd20ff461d446818e19b145a1ff52f698dec751807684621acc910160405180910390a25050565b6143cd82826119fd565b6143d5575050565b60006143e18383613010565b905060006143ef8484611292565b6001600160a01b038085166000908152603460209081526040808320938916835292905220600181015491925090614428908490614f9a565b6001820155805461443a908390614f9a565b81556144468585613bc8565b6144518583856137c7565b8054600182015460028301546040516001600160a01b0380891694908a16936000805160206150eb8339815191529361448c93600090614fe5565b60405180910390a35050505050565b6001600160a01b0382166000908152603760205260408120548082036144c357829150614501565b6001600160a01b038416600090815260366020526040812054908190036144ec576144ec61508e565b816144f78286614f59565b611ef39190614f86565b5092915050565b6001600160a01b038116600090815260336020526040812054603c9061452e9042614f46565b6113489190614f86565b6000631f54050082111561454e57631f54050091505b816000036145655750670de0b6b3a7640000611348565b670de0b6b3a764000083835b60018111156145d9576145856002826150a4565b6000036145aa5761459682836148ef565b91506145a3600282614f86565b9050614571565b6145b482846148ef565b92506145c082836148ef565b915060026145cf600183614f46565b6145a39190614f86565b61134282846148ef565b6001600160a01b0380831660009081526034602090815260408083209387168352928152828220835160a08101855281548152600182015492810192909252600281015493820193909352600383015491929091606083019060ff16600481111561465057614650614ed6565b600481111561466157614661614ed6565b81526003919091015461010090046001600160801b0316602090910152905060008160600151600481111561469857614698614ed6565b141580156146bc57506001816060015160048111156146b9576146b9614ed6565b14155b6146c8576146c861508e565b60808101518260006146db600183614f46565b905080836001600160801b031611156146f6576146f661508e565b6001600160a01b0387166000908152603b60205260408120805490919082908490811061472557614725615078565b9060005260206000200160009054906101000a90046001600160a01b031690508082866001600160801b03168154811061476157614761615078565b600091825260208083209190910180546001600160a01b0319166001600160a01b03948516179055838316808352603482526040808420948e16808552948352928390206003018054610100600160881b0319166101006001600160801b038c16908102919091179091558351918252918101919091527f1db60184cd8151ac443301e990e6b7737de8e5b41a5d9093f95621606d6aa21e910160405180910390a281805480614813576148136150b8565b600082815260209020810160001990810180546001600160a01b0319169055019055505050505050505050565b6148498261491c565b6040516001600160a01b038316907fbc7cd75a20ee27fd9adebab32041f755214dbc6bffa90cc0225b39da2e5c2d3b90600090a280511561488e576115df8282614981565b611c286149ee565b7ff0c57e16840df040f15088dc2f81fe391c3923bec73e23a9662efc9c229c6a0054600160401b900460ff166123ae57604051631afcd79f60e31b815260040160405180910390fd5b6135c1614896565b613eb1614896565b6000806148fc8385614f59565b9050670de0b6b3a7640000614912600282614f86565b61394b9083614f9a565b806001600160a01b03163b60000361495257604051634c9c8ce360e01b81526001600160a01b0382166004820152602401612aef565b60008051602061510b83398151915280546001600160a01b0319166001600160a01b0392909216919091179055565b6060600080846001600160a01b03168460405161499e91906150ce565b600060405180830381855af49150503d80600081146149d9576040519150601f19603f3d011682016040523d82523d6000602084013e6149de565b606091505b5091509150611ef3858383614a0d565b34156123ae5760405163b398979f60e01b815260040160405180910390fd5b606082614a2257614a1d82614a69565b6115a2565b8151158015614a3957506001600160a01b0384163b155b15614a6257604051639996b31560e01b81526001600160a01b0385166004820152602401612aef565b50806115a2565b805115614a795780518082602001fd5b604051630a12f52160e11b815260040160405180910390fd5b6001600160a01b03811681146135f457600080fd5b600060208284031215614ab957600080fd5b81356115a281614a92565b60008060408385031215614ad757600080fd5b8235614ae281614a92565b91506020830135614af281614a92565b809150509250929050565b600080600060608486031215614b1257600080fd5b8335614b1d81614a92565b92506020840135614b2d81614a92565b929592945050506040919091013590565b600080600080600080600060e0888a031215614b5957600080fd5b8735614b6481614a92565b96506020880135614b7481614a92565b955060408801359450606088013593506080880135925060a0880135614b9981614a92565b915060c0880135614ba981614a92565b8091505092959891949750929550565b60008060408385031215614bcc57600080fd5b8235614bd781614a92565b946020939093013593505050565b600080600060608486031215614bfa57600080fd5b8335614c0581614a92565b95602085013595506040909401359392505050565b600080600080600060a08688031215614c3257600080fd5b8535614c3d81614a92565b94506020860135614c4d81614a92565b94979496505050506040830135926060810135926080909101359150565b634e487b7160e01b600052604160045260246000fd5b60008060408385031215614c9457600080fd5b8235614c9f81614a92565b9150602083013567ffffffffffffffff80821115614cbc57600080fd5b818501915085601f830112614cd057600080fd5b813581811115614ce257614ce2614c6b565b604051601f8201601f19908116603f01168101908382118183101715614d0a57614d0a614c6b565b81604052828152886020848701011115614d2357600080fd5b8260208601602083013760006020848301015280955050505050509250929050565b600080600080600060a08688031215614d5d57600080fd5b8535614d6881614a92565b97602087013597506040870135966060810135965060800135945092505050565b60005b83811015614da4578181015183820152602001614d8c565b50506000910152565b6020815260008251806020840152614dcc816040850160208701614d89565b601f01601f19169190910160400192915050565b60008060008060808587031215614df657600080fd5b8435614e0181614a92565b93506020850135614e1181614a92565b93969395505050506040820135916060013590565b60008060208385031215614e3957600080fd5b823567ffffffffffffffff80821115614e5157600080fd5b818501915085601f830112614e6557600080fd5b813581811115614e7457600080fd5b8660208260051b8501011115614e8957600080fd5b60209290920196919550909350505050565b60008060008060808587031215614eb157600080fd5b8435614ebc81614a92565b966020860135965060408601359560600135945092505050565b634e487b7160e01b600052602160045260246000fd5b858152602081018590526040810184905260a0810160058410614f1157614f11614ed6565b8360608301526001600160801b03831660808301529695505050505050565b634e487b7160e01b600052601160045260246000fd5b8181038181111561134857611348614f30565b808202811582820484141761134857611348614f30565b634e487b7160e01b600052601260045260246000fd5b600082614f9557614f95614f70565b500490565b8082018082111561134857611348614f30565b6001600160a01b039384168152919092166020820152604081019190915260600190565b60048110614fe157614fe1614ed6565b9052565b848152602081018490526040810183905260808101611ef36060830184614fd1565b60006020828403121561501957600080fd5b81516115a281614a92565b6001600160a01b03929092168252602082015260400190565b60006020828403121561504f57600080fd5b5051919050565b60006020828403121561506857600080fd5b815180151581146115a257600080fd5b634e487b7160e01b600052603260045260246000fd5b634e487b7160e01b600052600160045260246000fd5b6000826150b3576150b3614f70565b500690565b634e487b7160e01b600052603160045260246000fd5b600082516150e0818460208701614d89565b919091019291505056fe7feef73802d9a37116f36078fbc66117c8cdb7b4c9bdddf51ee03257c786b32a360894a13ba1a3210667c828492db98dca3e2076cc3735a920a3ca505d382bbc9b779b17422d0df92223018b32b4d1fa46e071723d6817e2486d003becc55f00a164736f6c6343000817000a",
  "devdoc": {
    "errors": {
      "AddressEmptyCode(address)": [
        {
          "details": "There's no code at `target` (it is not a contract)."
        }
      ],
      "ERC1967InvalidImplementation(address)": [
        {
          "details": "The `implementation` of the proxy is invalid."
        }
      ],
      "ERC1967NonPayable()": [
        {
          "details": "An upgrade function sees `msg.value > 0` that may be lost."
        }
      ],
      "FailedInnerCall()": [
        {
          "details": "A call to an address target failed. The target may have reverted."
        }
      ],
      "InvalidInitialization()": [
        {
          "details": "The contract is already initialized."
        }
      ],
      "NotInitializing()": [
        {
          "details": "The contract is not initializing."
        }
      ],
      "OwnableInvalidOwner(address)": [
        {
          "details": "The owner is not a valid owner account. (eg. `address(0)`)"
        }
      ],
      "OwnableUnauthorizedAccount(address)": [
        {
          "details": "The caller account is not authorized to perform an operation."
        }
      ],
      "ReentrancyGuardReentrantCall()": [
        {
          "details": "Unauthorized reentrant call."
        }
      ],
      "UUPSUnauthorizedCallContext()": [
        {
          "details": "The call is from an unauthorized context."
        }
      ],
      "UUPSUnsupportedProxiableUUID(bytes32)": [
        {
          "details": "The storage `slot` is unsupported as a UUID."
        }
      ]
    },
    "events": {
      "Initialized(uint64)": {
        "details": "Triggered when the contract has been initialized or reinitialized."
      },
      "Upgraded(address)": {
        "details": "Emitted when the implementation is upgraded."
      }
    },
    "kind": "dev",
    "methods": {
      "owner()": {
        "details": "Returns the address of the current owner."
      },
      "proxiableUUID()": {
        "details": "Implementation of the ERC1822 {proxiableUUID} function. This returns the storage slot used by the implementation. It is used to validate the implementation's compatibility when performing an upgrade. IMPORTANT: A proxy pointing at a proxiable contract should not be considered proxiable itself, because this risks bricking a proxy that upgrades to it, by delegating to itself until out of gas. Thus it is critical that this function revert if invoked through a proxy. This is guaranteed by the `notDelegated` modifier."
      },
      "renounceOwnership()": {
        "details": "Leaves the contract without owner. It will not be possible to call `onlyOwner` functions. Can only be called by the current owner. NOTE: Renouncing ownership will leave the contract without an owner, thereby disabling any functionality that is only available to the owner."
      },
      "transferOwnership(address)": {
        "details": "Transfers ownership of the contract to a new account (`newOwner`). Can only be called by the current owner."
      },
      "upgradeToAndCall(address,bytes)": {
        "custom:oz-upgrades-unsafe-allow-reachable": "delegatecall",
        "details": "Upgrade the implementation of the proxy to `newImplementation`, and subsequently execute the function call encoded in `data`. Calls {_authorizeUpgrade}. Emits an {Upgraded} event."
      }
    },
    "version": 1
  },
  "userdoc": {
    "kind": "user",
    "methods": {},
    "version": 1
  },
  "storageLayout": {
    "storage": [
      {
        "astId": 9891,
        "contract": "contracts/TrenBoxManager.sol:TrenBoxManager",
        "label": "activePool",
        "offset": 0,
        "slot": "0",
        "type": "t_address"
      },
      {
        "astId": 9893,
        "contract": "contracts/TrenBoxManager.sol:TrenBoxManager",
        "label": "adminContract",
        "offset": 0,
        "slot": "1",
        "type": "t_address"
      },
      {
        "astId": 9895,
        "contract": "contracts/TrenBoxManager.sol:TrenBoxManager",
        "label": "borrowerOperations",
        "offset": 0,
        "slot": "2",
        "type": "t_address"
      },
      {
        "astId": 9897,
        "contract": "contracts/TrenBoxManager.sol:TrenBoxManager",
        "label": "collSurplusPool",
        "offset": 0,
        "slot": "3",
        "type": "t_address"
      },
      {
        "astId": 9899,
        "contract": "contracts/TrenBoxManager.sol:TrenBoxManager",
        "label": "communityIssuance",
        "offset": 0,
        "slot": "4",
        "type": "t_address"
      },
      {
        "astId": 9901,
        "contract": "contracts/TrenBoxManager.sol:TrenBoxManager",
        "label": "debtToken",
        "offset": 0,
        "slot": "5",
        "type": "t_address"
      },
      {
        "astId": 9903,
        "contract": "contracts/TrenBoxManager.sol:TrenBoxManager",
        "label": "defaultPool",
        "offset": 0,
        "slot": "6",
        "type": "t_address"
      },
      {
        "astId": 9905,
        "contract": "contracts/TrenBoxManager.sol:TrenBoxManager",
        "label": "feeCollector",
        "offset": 0,
        "slot": "7",
        "type": "t_address"
      },
      {
        "astId": 9907,
        "contract": "contracts/TrenBoxManager.sol:TrenBoxManager",
        "label": "gasPoolAddress",
        "offset": 0,
        "slot": "8",
        "type": "t_address"
      },
      {
        "astId": 9909,
        "contract": "contracts/TrenBoxManager.sol:TrenBoxManager",
        "label": "trenStaking",
        "offset": 0,
        "slot": "9",
        "type": "t_address"
      },
      {
        "astId": 9911,
        "contract": "contracts/TrenBoxManager.sol:TrenBoxManager",
        "label": "priceFeed",
        "offset": 0,
        "slot": "10",
        "type": "t_address"
      },
      {
        "astId": 9913,
        "contract": "contracts/TrenBoxManager.sol:TrenBoxManager",
        "label": "sortedTrenBoxes",
        "offset": 0,
        "slot": "11",
        "type": "t_address"
      },
      {
        "astId": 9915,
        "contract": "contracts/TrenBoxManager.sol:TrenBoxManager",
        "label": "stabilityPool",
        "offset": 0,
        "slot": "12",
        "type": "t_address"
      },
      {
        "astId": 9917,
        "contract": "contracts/TrenBoxManager.sol:TrenBoxManager",
        "label": "timelockAddress",
        "offset": 0,
        "slot": "13",
        "type": "t_address"
      },
      {
        "astId": 9919,
        "contract": "contracts/TrenBoxManager.sol:TrenBoxManager",
        "label": "treasuryAddress",
        "offset": 0,
        "slot": "14",
        "type": "t_address"
      },
      {
        "astId": 9921,
        "contract": "contracts/TrenBoxManager.sol:TrenBoxManager",
        "label": "trenBoxManager",
        "offset": 0,
        "slot": "15",
        "type": "t_address"
      },
      {
        "astId": 9923,
        "contract": "contracts/TrenBoxManager.sol:TrenBoxManager",
        "label": "trenBoxManagerOperations",
        "offset": 0,
        "slot": "16",
        "type": "t_address"
      },
      {
        "astId": 9925,
        "contract": "contracts/TrenBoxManager.sol:TrenBoxManager",
        "label": "isAddressSetupInitialized",
        "offset": 20,
        "slot": "16",
        "type": "t_bool"
      },
      {
        "astId": 9930,
        "contract": "contracts/TrenBoxManager.sol:TrenBoxManager",
        "label": "__gap",
        "offset": 0,
        "slot": "17",
        "type": "t_array(t_uint256)33_storage"
      },
      {
        "astId": 21193,
        "contract": "contracts/TrenBoxManager.sol:TrenBoxManager",
        "label": "baseRate",
        "offset": 0,
        "slot": "50",
        "type": "t_mapping(t_address,t_uint256)"
      },
      {
        "astId": 21197,
        "contract": "contracts/TrenBoxManager.sol:TrenBoxManager",
        "label": "lastFeeOperationTime",
        "offset": 0,
        "slot": "51",
        "type": "t_mapping(t_address,t_uint256)"
      },
      {
        "astId": 21204,
        "contract": "contracts/TrenBoxManager.sol:TrenBoxManager",
        "label": "TrenBoxes",
        "offset": 0,
        "slot": "52",
        "type": "t_mapping(t_address,t_mapping(t_address,t_struct(TrenBox)13329_storage))"
      },
      {
        "astId": 21208,
        "contract": "contracts/TrenBoxManager.sol:TrenBoxManager",
        "label": "totalStakes",
        "offset": 0,
        "slot": "53",
        "type": "t_mapping(t_address,t_uint256)"
      },
      {
        "astId": 21212,
        "contract": "contracts/TrenBoxManager.sol:TrenBoxManager",
        "label": "totalStakesSnapshot",
        "offset": 0,
        "slot": "54",
        "type": "t_mapping(t_address,t_uint256)"
      },
      {
        "astId": 21216,
        "contract": "contracts/TrenBoxManager.sol:TrenBoxManager",
        "label": "totalCollateralSnapshot",
        "offset": 0,
        "slot": "55",
        "type": "t_mapping(t_address,t_uint256)"
      },
      {
        "astId": 21220,
        "contract": "contracts/TrenBoxManager.sol:TrenBoxManager",
        "label": "L_Colls",
        "offset": 0,
        "slot": "56",
        "type": "t_mapping(t_address,t_uint256)"
      },
      {
        "astId": 21224,
        "contract": "contracts/TrenBoxManager.sol:TrenBoxManager",
        "label": "L_Debts",
        "offset": 0,
        "slot": "57",
        "type": "t_mapping(t_address,t_uint256)"
      },
      {
        "astId": 21231,
        "contract": "contracts/TrenBoxManager.sol:TrenBoxManager",
        "label": "rewardSnapshots",
        "offset": 0,
        "slot": "58",
        "type": "t_mapping(t_address,t_mapping(t_address,t_struct(RewardSnapshot)21189_storage))"
      },
      {
        "astId": 21236,
        "contract": "contracts/TrenBoxManager.sol:TrenBoxManager",
        "label": "TrenBoxOwners",
        "offset": 0,
        "slot": "59",
        "type": "t_mapping(t_address,t_array(t_address)dyn_storage)"
      },
      {
        "astId": 21240,
        "contract": "contracts/TrenBoxManager.sol:TrenBoxManager",
        "label": "lastCollError_Redistribution",
        "offset": 0,
        "slot": "60",
        "type": "t_mapping(t_address,t_uint256)"
      },
      {
        "astId": 21244,
        "contract": "contracts/TrenBoxManager.sol:TrenBoxManager",
        "label": "lastDebtError_Redistribution",
        "offset": 0,
        "slot": "61",
        "type": "t_mapping(t_address,t_uint256)"
      },
      {
        "astId": 21246,
        "contract": "contracts/TrenBoxManager.sol:TrenBoxManager",
        "label": "isSetupInitialized",
        "offset": 0,
        "slot": "62",
        "type": "t_bool"
      }
    ],
    "types": {
      "t_address": {
        "encoding": "inplace",
        "label": "address",
        "numberOfBytes": "20"
      },
      "t_array(t_address)dyn_storage": {
        "base": "t_address",
        "encoding": "dynamic_array",
        "label": "address[]",
        "numberOfBytes": "32"
      },
      "t_array(t_uint256)33_storage": {
        "base": "t_uint256",
        "encoding": "inplace",
        "label": "uint256[33]",
        "numberOfBytes": "1056"
      },
      "t_bool": {
        "encoding": "inplace",
        "label": "bool",
        "numberOfBytes": "1"
      },
      "t_enum(Status)13237": {
        "encoding": "inplace",
        "label": "enum ITrenBoxManager.Status",
        "numberOfBytes": "1"
      },
      "t_mapping(t_address,t_array(t_address)dyn_storage)": {
        "encoding": "mapping",
        "key": "t_address",
        "label": "mapping(address => address[])",
        "numberOfBytes": "32",
        "value": "t_array(t_address)dyn_storage"
      },
      "t_mapping(t_address,t_mapping(t_address,t_struct(RewardSnapshot)21189_storage))": {
        "encoding": "mapping",
        "key": "t_address",
        "label": "mapping(address => mapping(address => struct TrenBoxManager.RewardSnapshot))",
        "numberOfBytes": "32",
        "value": "t_mapping(t_address,t_struct(RewardSnapshot)21189_storage)"
      },
      "t_mapping(t_address,t_mapping(t_address,t_struct(TrenBox)13329_storage))": {
        "encoding": "mapping",
        "key": "t_address",
        "label": "mapping(address => mapping(address => struct ITrenBoxManager.TrenBox))",
        "numberOfBytes": "32",
        "value": "t_mapping(t_address,t_struct(TrenBox)13329_storage)"
      },
      "t_mapping(t_address,t_struct(RewardSnapshot)21189_storage)": {
        "encoding": "mapping",
        "key": "t_address",
        "label": "mapping(address => struct TrenBoxManager.RewardSnapshot)",
        "numberOfBytes": "32",
        "value": "t_struct(RewardSnapshot)21189_storage"
      },
      "t_mapping(t_address,t_struct(TrenBox)13329_storage)": {
        "encoding": "mapping",
        "key": "t_address",
        "label": "mapping(address => struct ITrenBoxManager.TrenBox)",
        "numberOfBytes": "32",
        "value": "t_struct(TrenBox)13329_storage"
      },
      "t_mapping(t_address,t_uint256)": {
        "encoding": "mapping",
        "key": "t_address",
        "label": "mapping(address => uint256)",
        "numberOfBytes": "32",
        "value": "t_uint256"
      },
      "t_struct(RewardSnapshot)21189_storage": {
        "encoding": "inplace",
        "label": "struct TrenBoxManager.RewardSnapshot",
        "members": [
          {
            "astId": 21186,
            "contract": "contracts/TrenBoxManager.sol:TrenBoxManager",
            "label": "asset",
            "offset": 0,
            "slot": "0",
            "type": "t_uint256"
          },
          {
            "astId": 21188,
            "contract": "contracts/TrenBoxManager.sol:TrenBoxManager",
            "label": "debt",
            "offset": 0,
            "slot": "1",
            "type": "t_uint256"
          }
        ],
        "numberOfBytes": "64"
      },
      "t_struct(TrenBox)13329_storage": {
        "encoding": "inplace",
        "label": "struct ITrenBoxManager.TrenBox",
        "members": [
          {
            "astId": 13319,
            "contract": "contracts/TrenBoxManager.sol:TrenBoxManager",
            "label": "debt",
            "offset": 0,
            "slot": "0",
            "type": "t_uint256"
          },
          {
            "astId": 13321,
            "contract": "contracts/TrenBoxManager.sol:TrenBoxManager",
            "label": "coll",
            "offset": 0,
            "slot": "1",
            "type": "t_uint256"
          },
          {
            "astId": 13323,
            "contract": "contracts/TrenBoxManager.sol:TrenBoxManager",
            "label": "stake",
            "offset": 0,
            "slot": "2",
            "type": "t_uint256"
          },
          {
            "astId": 13326,
            "contract": "contracts/TrenBoxManager.sol:TrenBoxManager",
            "label": "status",
            "offset": 0,
            "slot": "3",
            "type": "t_enum(Status)13237"
          },
          {
            "astId": 13328,
            "contract": "contracts/TrenBoxManager.sol:TrenBoxManager",
            "label": "arrayIndex",
            "offset": 1,
            "slot": "3",
            "type": "t_uint128"
          }
        ],
        "numberOfBytes": "128"
      },
      "t_uint128": {
        "encoding": "inplace",
        "label": "uint128",
        "numberOfBytes": "16"
      },
      "t_uint256": {
        "encoding": "inplace",
        "label": "uint256",
        "numberOfBytes": "32"
      }
    }
  }
}