{
  "address": "0x151900b54B90108f118A7440EC6dd96b3B4C25F8",
  "abi": [
    {
      "inputs": [
        {
          "internalType": "address",
          "name": "target",
          "type": "address"
        }
      ],
      "name": "AddressEmptyCode",
      "type": "error"
    },
    {
      "inputs": [],
      "name": "AdminContract__CollateralAlreadyInitialized",
      "type": "error"
    },
    {
      "inputs": [],
      "name": "AdminContract__CollateralDoesNotExist",
      "type": "error"
    },
    {
      "inputs": [],
      "name": "AdminContract__CollateralExists",
      "type": "error"
    },
    {
      "inputs": [],
      "name": "AdminContract__CollateralNotConfigured",
      "type": "error"
    },
    {
      "inputs": [],
      "name": "AdminContract__OnlyOwner",
      "type": "error"
    },
    {
      "inputs": [],
      "name": "AdminContract__OnlyTimelock",
      "type": "error"
    },
    {
      "inputs": [],
      "name": "ConfigurableAddresses__CommunityIssuanceZeroAddress",
      "type": "error"
    },
    {
      "inputs": [],
      "name": "ConfigurableAddresses__LengthMismatch",
      "type": "error"
    },
    {
      "inputs": [],
      "name": "ConfigurableAddresses__SetupIsInitialized",
      "type": "error"
    },
    {
      "inputs": [],
      "name": "ConfigurableAddresses__TRENStakingZeroAddress",
      "type": "error"
    },
    {
      "inputs": [
        {
          "internalType": "uint256",
          "name": "position",
          "type": "uint256"
        },
        {
          "internalType": "address",
          "name": "address_",
          "type": "address"
        }
      ],
      "name": "ConfigurableAddresses__ZeroAddresses",
      "type": "error"
    },
    {
      "inputs": [
        {
          "internalType": "address",
          "name": "implementation",
          "type": "address"
        }
      ],
      "name": "ERC1967InvalidImplementation",
      "type": "error"
    },
    {
      "inputs": [],
      "name": "ERC1967NonPayable",
      "type": "error"
    },
    {
      "inputs": [],
      "name": "FailedInnerCall",
      "type": "error"
    },
    {
      "inputs": [],
      "name": "InvalidInitialization",
      "type": "error"
    },
    {
      "inputs": [],
      "name": "NotInitializing",
      "type": "error"
    },
    {
      "inputs": [
        {
          "internalType": "address",
          "name": "owner",
          "type": "address"
        }
      ],
      "name": "OwnableInvalidOwner",
      "type": "error"
    },
    {
      "inputs": [
        {
          "internalType": "address",
          "name": "account",
          "type": "address"
        }
      ],
      "name": "OwnableUnauthorizedAccount",
      "type": "error"
    },
    {
      "inputs": [
        {
          "internalType": "string",
          "name": "parameter",
          "type": "string"
        },
        {
          "internalType": "uint256",
          "name": "valueEntered",
          "type": "uint256"
        },
        {
          "internalType": "uint256",
          "name": "minValue",
          "type": "uint256"
        },
        {
          "internalType": "uint256",
          "name": "maxValue",
          "type": "uint256"
        }
      ],
      "name": "SafeCheckError",
      "type": "error"
    },
    {
      "inputs": [],
      "name": "UUPSUnauthorizedCallContext",
      "type": "error"
    },
    {
      "inputs": [
        {
          "internalType": "bytes32",
          "name": "slot",
          "type": "bytes32"
        }
      ],
      "name": "UUPSUnsupportedProxiableUUID",
      "type": "error"
    },
    {
      "anonymous": false,
      "inputs": [
        {
          "indexed": false,
          "internalType": "uint256",
          "name": "oldBorrowingFee",
          "type": "uint256"
        },
        {
          "indexed": false,
          "internalType": "uint256",
          "name": "newBorrowingFee",
          "type": "uint256"
        }
      ],
      "name": "BorrowingFeeChanged",
      "type": "event"
    },
    {
      "anonymous": false,
      "inputs": [
        {
          "indexed": false,
          "internalType": "uint256",
          "name": "oldCCR",
          "type": "uint256"
        },
        {
          "indexed": false,
          "internalType": "uint256",
          "name": "newCCR",
          "type": "uint256"
        }
      ],
      "name": "CCRChanged",
      "type": "event"
    },
    {
      "anonymous": false,
      "inputs": [
        {
          "indexed": false,
          "internalType": "address",
          "name": "_collateral",
          "type": "address"
        }
      ],
      "name": "CollateralAdded",
      "type": "event"
    },
    {
      "anonymous": false,
      "inputs": [
        {
          "indexed": false,
          "internalType": "uint256",
          "name": "oldFee",
          "type": "uint256"
        },
        {
          "indexed": false,
          "internalType": "uint256",
          "name": "newFee",
          "type": "uint256"
        }
      ],
      "name": "FlashLoanFeeChanged",
      "type": "event"
    },
    {
      "anonymous": false,
      "inputs": [
        {
          "indexed": false,
          "internalType": "uint256",
          "name": "oldMaxDebt",
          "type": "uint256"
        },
        {
          "indexed": false,
          "internalType": "uint256",
          "name": "newMaxDebt",
          "type": "uint256"
        }
      ],
      "name": "FlashLoanMaxDebtChanged",
      "type": "event"
    },
    {
      "anonymous": false,
      "inputs": [
        {
          "indexed": false,
          "internalType": "uint256",
          "name": "oldMinDebt",
          "type": "uint256"
        },
        {
          "indexed": false,
          "internalType": "uint256",
          "name": "newMinDebt",
          "type": "uint256"
        }
      ],
      "name": "FlashLoanMinDebtChanged",
      "type": "event"
    },
    {
      "anonymous": false,
      "inputs": [
        {
          "indexed": false,
          "internalType": "uint64",
          "name": "version",
          "type": "uint64"
        }
      ],
      "name": "Initialized",
      "type": "event"
    },
    {
      "anonymous": false,
      "inputs": [
        {
          "indexed": false,
          "internalType": "uint256",
          "name": "oldMCR",
          "type": "uint256"
        },
        {
          "indexed": false,
          "internalType": "uint256",
          "name": "newMCR",
          "type": "uint256"
        }
      ],
      "name": "MCRChanged",
      "type": "event"
    },
    {
      "anonymous": false,
      "inputs": [
        {
          "indexed": false,
          "internalType": "uint256",
          "name": "oldMinNet",
          "type": "uint256"
        },
        {
          "indexed": false,
          "internalType": "uint256",
          "name": "newMinNet",
          "type": "uint256"
        }
      ],
      "name": "MinNetDebtChanged",
      "type": "event"
    },
    {
      "anonymous": false,
      "inputs": [
        {
          "indexed": false,
          "internalType": "uint256",
          "name": "oldMintCap",
          "type": "uint256"
        },
        {
          "indexed": false,
          "internalType": "uint256",
          "name": "newMintCap",
          "type": "uint256"
        }
      ],
      "name": "MintCapChanged",
      "type": "event"
    },
    {
      "anonymous": false,
      "inputs": [
        {
          "indexed": true,
          "internalType": "address",
          "name": "previousOwner",
          "type": "address"
        },
        {
          "indexed": true,
          "internalType": "address",
          "name": "newOwner",
          "type": "address"
        }
      ],
      "name": "OwnershipTransferred",
      "type": "event"
    },
    {
      "anonymous": false,
      "inputs": [
        {
          "indexed": false,
          "internalType": "uint256",
          "name": "oldPercentDiv",
          "type": "uint256"
        },
        {
          "indexed": false,
          "internalType": "uint256",
          "name": "newPercentDiv",
          "type": "uint256"
        }
      ],
      "name": "PercentDivisorChanged",
      "type": "event"
    },
    {
      "anonymous": false,
      "inputs": [
        {
          "indexed": false,
          "internalType": "address",
          "name": "_collateral",
          "type": "address"
        },
        {
          "indexed": false,
          "internalType": "uint256",
          "name": "_blockTimestamp",
          "type": "uint256"
        }
      ],
      "name": "RedemptionBlockTimestampChanged",
      "type": "event"
    },
    {
      "anonymous": false,
      "inputs": [
        {
          "indexed": false,
          "internalType": "uint256",
          "name": "oldRedemptionFeeFloor",
          "type": "uint256"
        },
        {
          "indexed": false,
          "internalType": "uint256",
          "name": "newRedemptionFeeFloor",
          "type": "uint256"
        }
      ],
      "name": "RedemptionFeeFloorChanged",
      "type": "event"
    },
    {
      "anonymous": false,
      "inputs": [
        {
          "indexed": true,
          "internalType": "address",
          "name": "implementation",
          "type": "address"
        }
      ],
      "name": "Upgraded",
      "type": "event"
    },
    {
      "inputs": [],
      "name": "BORROWING_FEE_DEFAULT",
      "outputs": [
        {
          "internalType": "uint256",
          "name": "",
          "type": "uint256"
        }
      ],
      "stateMutability": "view",
      "type": "function"
    },
    {
      "inputs": [],
      "name": "CCR_DEFAULT",
      "outputs": [
        {
          "internalType": "uint256",
          "name": "",
          "type": "uint256"
        }
      ],
      "stateMutability": "view",
      "type": "function"
    },
    {
      "inputs": [],
      "name": "DECIMAL_PRECISION",
      "outputs": [
        {
          "internalType": "uint256",
          "name": "",
          "type": "uint256"
        }
      ],
      "stateMutability": "pure",
      "type": "function"
    },
    {
      "inputs": [],
      "name": "MCR_DEFAULT",
      "outputs": [
        {
          "internalType": "uint256",
          "name": "",
          "type": "uint256"
        }
      ],
      "stateMutability": "view",
      "type": "function"
    },
    {
      "inputs": [],
      "name": "MINT_CAP_DEFAULT",
      "outputs": [
        {
          "internalType": "uint256",
          "name": "",
          "type": "uint256"
        }
      ],
      "stateMutability": "view",
      "type": "function"
    },
    {
      "inputs": [],
      "name": "MIN_NET_DEBT_DEFAULT",
      "outputs": [
        {
          "internalType": "uint256",
          "name": "",
          "type": "uint256"
        }
      ],
      "stateMutability": "view",
      "type": "function"
    },
    {
      "inputs": [],
      "name": "NAME",
      "outputs": [
        {
          "internalType": "string",
          "name": "",
          "type": "string"
        }
      ],
      "stateMutability": "view",
      "type": "function"
    },
    {
      "inputs": [],
      "name": "PERCENT_DIVISOR_DEFAULT",
      "outputs": [
        {
          "internalType": "uint256",
          "name": "",
          "type": "uint256"
        }
      ],
      "stateMutability": "view",
      "type": "function"
    },
    {
      "inputs": [],
      "name": "REDEMPTION_BLOCK_TIMESTAMP_DEFAULT",
      "outputs": [
        {
          "internalType": "uint256",
          "name": "",
          "type": "uint256"
        }
      ],
      "stateMutability": "view",
      "type": "function"
    },
    {
      "inputs": [],
      "name": "REDEMPTION_FEE_FLOOR_DEFAULT",
      "outputs": [
        {
          "internalType": "uint256",
          "name": "",
          "type": "uint256"
        }
      ],
      "stateMutability": "view",
      "type": "function"
    },
    {
      "inputs": [],
      "name": "UPGRADE_INTERFACE_VERSION",
      "outputs": [
        {
          "internalType": "string",
          "name": "",
          "type": "string"
        }
      ],
      "stateMutability": "view",
      "type": "function"
    },
    {
      "inputs": [],
      "name": "_100pct",
      "outputs": [
        {
          "internalType": "uint256",
          "name": "",
          "type": "uint256"
        }
      ],
      "stateMutability": "view",
      "type": "function"
    },
    {
      "inputs": [],
      "name": "activePool",
      "outputs": [
        {
          "internalType": "address",
          "name": "",
          "type": "address"
        }
      ],
      "stateMutability": "view",
      "type": "function"
    },
    {
      "inputs": [
        {
          "internalType": "address",
          "name": "_collateral",
          "type": "address"
        },
        {
          "internalType": "uint256",
          "name": "_debtTokenGasCompensation",
          "type": "uint256"
        },
        {
          "internalType": "uint256",
          "name": "_decimals",
          "type": "uint256"
        }
      ],
      "name": "addNewCollateral",
      "outputs": [],
      "stateMutability": "nonpayable",
      "type": "function"
    },
    {
      "inputs": [],
      "name": "adminContract",
      "outputs": [
        {
          "internalType": "address",
          "name": "",
          "type": "address"
        }
      ],
      "stateMutability": "view",
      "type": "function"
    },
    {
      "inputs": [
        {
          "internalType": "address",
          "name": "newImplementation",
          "type": "address"
        }
      ],
      "name": "authorizeUpgrade",
      "outputs": [],
      "stateMutability": "nonpayable",
      "type": "function"
    },
    {
      "inputs": [],
      "name": "borrowerOperations",
      "outputs": [
        {
          "internalType": "address",
          "name": "",
          "type": "address"
        }
      ],
      "stateMutability": "view",
      "type": "function"
    },
    {
      "inputs": [],
      "name": "collSurplusPool",
      "outputs": [
        {
          "internalType": "address",
          "name": "",
          "type": "address"
        }
      ],
      "stateMutability": "view",
      "type": "function"
    },
    {
      "inputs": [],
      "name": "communityIssuance",
      "outputs": [
        {
          "internalType": "address",
          "name": "",
          "type": "address"
        }
      ],
      "stateMutability": "view",
      "type": "function"
    },
    {
      "inputs": [],
      "name": "debtToken",
      "outputs": [
        {
          "internalType": "address",
          "name": "",
          "type": "address"
        }
      ],
      "stateMutability": "view",
      "type": "function"
    },
    {
      "inputs": [],
      "name": "defaultPool",
      "outputs": [
        {
          "internalType": "address",
          "name": "",
          "type": "address"
        }
      ],
      "stateMutability": "view",
      "type": "function"
    },
    {
      "inputs": [],
      "name": "feeCollector",
      "outputs": [
        {
          "internalType": "address",
          "name": "",
          "type": "address"
        }
      ],
      "stateMutability": "view",
      "type": "function"
    },
    {
      "inputs": [],
      "name": "flashLoanAddress",
      "outputs": [
        {
          "internalType": "address",
          "name": "",
          "type": "address"
        }
      ],
      "stateMutability": "view",
      "type": "function"
    },
    {
      "inputs": [],
      "name": "flashLoanParams",
      "outputs": [
        {
          "internalType": "uint256",
          "name": "flashLoanFee",
          "type": "uint256"
        },
        {
          "internalType": "uint256",
          "name": "flashLoanMinDebt",
          "type": "uint256"
        },
        {
          "internalType": "uint256",
          "name": "flashLoanMaxDebt",
          "type": "uint256"
        }
      ],
      "stateMutability": "view",
      "type": "function"
    },
    {
      "inputs": [],
      "name": "gasPoolAddress",
      "outputs": [
        {
          "internalType": "address",
          "name": "",
          "type": "address"
        }
      ],
      "stateMutability": "view",
      "type": "function"
    },
    {
      "inputs": [
        {
          "internalType": "address",
          "name": "_collateral",
          "type": "address"
        }
      ],
      "name": "getBorrowingFee",
      "outputs": [
        {
          "internalType": "uint256",
          "name": "",
          "type": "uint256"
        }
      ],
      "stateMutability": "view",
      "type": "function"
    },
    {
      "inputs": [
        {
          "internalType": "address",
          "name": "_collateral",
          "type": "address"
        }
      ],
      "name": "getCcr",
      "outputs": [
        {
          "internalType": "uint256",
          "name": "",
          "type": "uint256"
        }
      ],
      "stateMutability": "view",
      "type": "function"
    },
    {
      "inputs": [
        {
          "internalType": "address",
          "name": "_collateral",
          "type": "address"
        }
      ],
      "name": "getDebtTokenGasCompensation",
      "outputs": [
        {
          "internalType": "uint256",
          "name": "",
          "type": "uint256"
        }
      ],
      "stateMutability": "view",
      "type": "function"
    },
    {
      "inputs": [
        {
          "internalType": "address",
          "name": "_collateral",
          "type": "address"
        }
      ],
      "name": "getDecimals",
      "outputs": [
        {
          "internalType": "uint256",
          "name": "",
          "type": "uint256"
        }
      ],
      "stateMutability": "view",
      "type": "function"
    },
    {
      "inputs": [],
      "name": "getFlashLoanFee",
      "outputs": [
        {
          "internalType": "uint256",
          "name": "",
          "type": "uint256"
        }
      ],
      "stateMutability": "view",
      "type": "function"
    },
    {
      "inputs": [],
      "name": "getFlashLoanMaxNetDebt",
      "outputs": [
        {
          "internalType": "uint256",
          "name": "",
          "type": "uint256"
        }
      ],
      "stateMutability": "view",
      "type": "function"
    },
    {
      "inputs": [],
      "name": "getFlashLoanMinNetDebt",
      "outputs": [
        {
          "internalType": "uint256",
          "name": "",
          "type": "uint256"
        }
      ],
      "stateMutability": "view",
      "type": "function"
    },
    {
      "inputs": [
        {
          "internalType": "address",
          "name": "_collateral",
          "type": "address"
        }
      ],
      "name": "getIndex",
      "outputs": [
        {
          "internalType": "uint256",
          "name": "",
          "type": "uint256"
        }
      ],
      "stateMutability": "view",
      "type": "function"
    },
    {
      "inputs": [
        {
          "internalType": "address[]",
          "name": "_colls",
          "type": "address[]"
        }
      ],
      "name": "getIndices",
      "outputs": [
        {
          "internalType": "uint256[]",
          "name": "indices",
          "type": "uint256[]"
        }
      ],
      "stateMutability": "view",
      "type": "function"
    },
    {
      "inputs": [
        {
          "internalType": "address",
          "name": "_collateral",
          "type": "address"
        }
      ],
      "name": "getIsActive",
      "outputs": [
        {
          "internalType": "bool",
          "name": "",
          "type": "bool"
        }
      ],
      "stateMutability": "view",
      "type": "function"
    },
    {
      "inputs": [
        {
          "internalType": "address",
          "name": "_collateral",
          "type": "address"
        }
      ],
      "name": "getMcr",
      "outputs": [
        {
          "internalType": "uint256",
          "name": "",
          "type": "uint256"
        }
      ],
      "stateMutability": "view",
      "type": "function"
    },
    {
      "inputs": [
        {
          "internalType": "address",
          "name": "_collateral",
          "type": "address"
        }
      ],
      "name": "getMinNetDebt",
      "outputs": [
        {
          "internalType": "uint256",
          "name": "",
          "type": "uint256"
        }
      ],
      "stateMutability": "view",
      "type": "function"
    },
    {
      "inputs": [
        {
          "internalType": "address",
          "name": "_collateral",
          "type": "address"
        }
      ],
      "name": "getMintCap",
      "outputs": [
        {
          "internalType": "uint256",
          "name": "",
          "type": "uint256"
        }
      ],
      "stateMutability": "view",
      "type": "function"
    },
    {
      "inputs": [
        {
          "internalType": "address",
          "name": "_collateral",
          "type": "address"
        }
      ],
      "name": "getPercentDivisor",
      "outputs": [
        {
          "internalType": "uint256",
          "name": "",
          "type": "uint256"
        }
      ],
      "stateMutability": "view",
      "type": "function"
    },
    {
      "inputs": [
        {
          "internalType": "address",
          "name": "_collateral",
          "type": "address"
        }
      ],
      "name": "getRedemptionBlockTimestamp",
      "outputs": [
        {
          "internalType": "uint256",
          "name": "",
          "type": "uint256"
        }
      ],
      "stateMutability": "view",
      "type": "function"
    },
    {
      "inputs": [
        {
          "internalType": "address",
          "name": "_collateral",
          "type": "address"
        }
      ],
      "name": "getRedemptionFeeFloor",
      "outputs": [
        {
          "internalType": "uint256",
          "name": "",
          "type": "uint256"
        }
      ],
      "stateMutability": "view",
      "type": "function"
    },
    {
      "inputs": [],
      "name": "getRouteToTRENStaking",
      "outputs": [
        {
          "internalType": "bool",
          "name": "",
          "type": "bool"
        }
      ],
      "stateMutability": "view",
      "type": "function"
    },
    {
      "inputs": [
        {
          "internalType": "address",
          "name": "_asset",
          "type": "address"
        }
      ],
      "name": "getTotalAssetDebt",
      "outputs": [
        {
          "internalType": "uint256",
          "name": "",
          "type": "uint256"
        }
      ],
      "stateMutability": "view",
      "type": "function"
    },
    {
      "inputs": [],
      "name": "getValidCollateral",
      "outputs": [
        {
          "internalType": "address[]",
          "name": "",
          "type": "address[]"
        }
      ],
      "stateMutability": "view",
      "type": "function"
    },
    {
      "inputs": [],
      "name": "initialize",
      "outputs": [],
      "stateMutability": "nonpayable",
      "type": "function"
    },
    {
      "inputs": [],
      "name": "isAddressSetupInitialized",
      "outputs": [
        {
          "internalType": "bool",
          "name": "",
          "type": "bool"
        }
      ],
      "stateMutability": "view",
      "type": "function"
    },
    {
      "inputs": [],
      "name": "isSetupInitialized",
      "outputs": [
        {
          "internalType": "bool",
          "name": "",
          "type": "bool"
        }
      ],
      "stateMutability": "view",
      "type": "function"
    },
    {
      "inputs": [],
      "name": "owner",
      "outputs": [
        {
          "internalType": "address",
          "name": "",
          "type": "address"
        }
      ],
      "stateMutability": "view",
      "type": "function"
    },
    {
      "inputs": [],
      "name": "priceFeed",
      "outputs": [
        {
          "internalType": "address",
          "name": "",
          "type": "address"
        }
      ],
      "stateMutability": "view",
      "type": "function"
    },
    {
      "inputs": [],
      "name": "proxiableUUID",
      "outputs": [
        {
          "internalType": "bytes32",
          "name": "",
          "type": "bytes32"
        }
      ],
      "stateMutability": "view",
      "type": "function"
    },
    {
      "inputs": [],
      "name": "renounceOwnership",
      "outputs": [],
      "stateMutability": "nonpayable",
      "type": "function"
    },
    {
      "inputs": [],
      "name": "routeToTRENStaking",
      "outputs": [
        {
          "internalType": "bool",
          "name": "",
          "type": "bool"
        }
      ],
      "stateMutability": "view",
      "type": "function"
    },
    {
      "inputs": [
        {
          "internalType": "address[]",
          "name": "_addresses",
          "type": "address[]"
        }
      ],
      "name": "setAddresses",
      "outputs": [],
      "stateMutability": "nonpayable",
      "type": "function"
    },
    {
      "inputs": [
        {
          "internalType": "address",
          "name": "_collateral",
          "type": "address"
        },
        {
          "internalType": "uint256",
          "name": "borrowingFee",
          "type": "uint256"
        }
      ],
      "name": "setBorrowingFee",
      "outputs": [],
      "stateMutability": "nonpayable",
      "type": "function"
    },
    {
      "inputs": [
        {
          "internalType": "address",
          "name": "_collateral",
          "type": "address"
        },
        {
          "internalType": "uint256",
          "name": "newCCR",
          "type": "uint256"
        }
      ],
      "name": "setCCR",
      "outputs": [],
      "stateMutability": "nonpayable",
      "type": "function"
    },
    {
      "inputs": [
        {
          "internalType": "address",
          "name": "_collateral",
          "type": "address"
        },
        {
          "internalType": "uint256",
          "name": "borrowingFee",
          "type": "uint256"
        },
        {
          "internalType": "uint256",
          "name": "ccr",
          "type": "uint256"
        },
        {
          "internalType": "uint256",
          "name": "mcr",
          "type": "uint256"
        },
        {
          "internalType": "uint256",
          "name": "minNetDebt",
          "type": "uint256"
        },
        {
          "internalType": "uint256",
          "name": "mintCap",
          "type": "uint256"
        },
        {
          "internalType": "uint256",
          "name": "percentDivisor",
          "type": "uint256"
        },
        {
          "internalType": "uint256",
          "name": "redemptionFeeFloor",
          "type": "uint256"
        }
      ],
      "name": "setCollateralParameters",
      "outputs": [],
      "stateMutability": "nonpayable",
      "type": "function"
    },
    {
      "inputs": [
        {
          "internalType": "address",
          "name": "_communityIssuance",
          "type": "address"
        }
      ],
      "name": "setCommunityIssuance",
      "outputs": [],
      "stateMutability": "nonpayable",
      "type": "function"
    },
    {
      "inputs": [
        {
          "internalType": "uint256",
          "name": "_flashLoanFee",
          "type": "uint256"
        }
      ],
      "name": "setFeeForFlashLoan",
      "outputs": [],
      "stateMutability": "nonpayable",
      "type": "function"
    },
    {
      "inputs": [
        {
          "internalType": "address",
          "name": "_collateral",
          "type": "address"
        },
        {
          "internalType": "bool",
          "name": "_active",
          "type": "bool"
        }
      ],
      "name": "setIsActive",
      "outputs": [],
      "stateMutability": "nonpayable",
      "type": "function"
    },
    {
      "inputs": [
        {
          "internalType": "address",
          "name": "_collateral",
          "type": "address"
        },
        {
          "internalType": "uint256",
          "name": "newMCR",
          "type": "uint256"
        }
      ],
      "name": "setMCR",
      "outputs": [],
      "stateMutability": "nonpayable",
      "type": "function"
    },
    {
      "inputs": [
        {
          "internalType": "uint256",
          "name": "_flashLoanMaxDebt",
          "type": "uint256"
        }
      ],
      "name": "setMaxDebtForFlashLoan",
      "outputs": [],
      "stateMutability": "nonpayable",
      "type": "function"
    },
    {
      "inputs": [
        {
          "internalType": "uint256",
          "name": "_flashLoanMinDebt",
          "type": "uint256"
        }
      ],
      "name": "setMinDebtForFlashLoan",
      "outputs": [],
      "stateMutability": "nonpayable",
      "type": "function"
    },
    {
      "inputs": [
        {
          "internalType": "address",
          "name": "_collateral",
          "type": "address"
        },
        {
          "internalType": "uint256",
          "name": "minNetDebt",
          "type": "uint256"
        }
      ],
      "name": "setMinNetDebt",
      "outputs": [],
      "stateMutability": "nonpayable",
      "type": "function"
    },
    {
      "inputs": [
        {
          "internalType": "address",
          "name": "_collateral",
          "type": "address"
        },
        {
          "internalType": "uint256",
          "name": "mintCap",
          "type": "uint256"
        }
      ],
      "name": "setMintCap",
      "outputs": [],
      "stateMutability": "nonpayable",
      "type": "function"
    },
    {
      "inputs": [
        {
          "internalType": "address",
          "name": "_collateral",
          "type": "address"
        },
        {
          "internalType": "uint256",
          "name": "percentDivisor",
          "type": "uint256"
        }
      ],
      "name": "setPercentDivisor",
      "outputs": [],
      "stateMutability": "nonpayable",
      "type": "function"
    },
    {
      "inputs": [
        {
          "internalType": "address",
          "name": "_collateral",
          "type": "address"
        },
        {
          "internalType": "uint256",
          "name": "_blockTimestamp",
          "type": "uint256"
        }
      ],
      "name": "setRedemptionBlockTimestamp",
      "outputs": [],
      "stateMutability": "nonpayable",
      "type": "function"
    },
    {
      "inputs": [
        {
          "internalType": "address",
          "name": "_collateral",
          "type": "address"
        },
        {
          "internalType": "uint256",
          "name": "redemptionFeeFloor",
          "type": "uint256"
        }
      ],
      "name": "setRedemptionFeeFloor",
      "outputs": [],
      "stateMutability": "nonpayable",
      "type": "function"
    },
    {
      "inputs": [],
      "name": "setSetupIsInitialized",
      "outputs": [],
      "stateMutability": "nonpayable",
      "type": "function"
    },
    {
      "inputs": [
        {
          "internalType": "address",
          "name": "_trenStaking",
          "type": "address"
        }
      ],
      "name": "setTRENStaking",
      "outputs": [],
      "stateMutability": "nonpayable",
      "type": "function"
    },
    {
      "inputs": [],
      "name": "sortedTrenBoxes",
      "outputs": [
        {
          "internalType": "address",
          "name": "",
          "type": "address"
        }
      ],
      "stateMutability": "view",
      "type": "function"
    },
    {
      "inputs": [],
      "name": "stabilityPool",
      "outputs": [
        {
          "internalType": "address",
          "name": "",
          "type": "address"
        }
      ],
      "stateMutability": "view",
      "type": "function"
    },
    {
      "inputs": [],
      "name": "switchRouteToTRENStaking",
      "outputs": [],
      "stateMutability": "nonpayable",
      "type": "function"
    },
    {
      "inputs": [],
      "name": "timelockAddress",
      "outputs": [
        {
          "internalType": "address",
          "name": "",
          "type": "address"
        }
      ],
      "stateMutability": "view",
      "type": "function"
    },
    {
      "inputs": [
        {
          "internalType": "address",
          "name": "newOwner",
          "type": "address"
        }
      ],
      "name": "transferOwnership",
      "outputs": [],
      "stateMutability": "nonpayable",
      "type": "function"
    },
    {
      "inputs": [],
      "name": "treasuryAddress",
      "outputs": [
        {
          "internalType": "address",
          "name": "",
          "type": "address"
        }
      ],
      "stateMutability": "view",
      "type": "function"
    },
    {
      "inputs": [],
      "name": "trenBoxManager",
      "outputs": [
        {
          "internalType": "address",
          "name": "",
          "type": "address"
        }
      ],
      "stateMutability": "view",
      "type": "function"
    },
    {
      "inputs": [],
      "name": "trenBoxManagerOperations",
      "outputs": [
        {
          "internalType": "address",
          "name": "",
          "type": "address"
        }
      ],
      "stateMutability": "view",
      "type": "function"
    },
    {
      "inputs": [],
      "name": "trenStaking",
      "outputs": [
        {
          "internalType": "address",
          "name": "",
          "type": "address"
        }
      ],
      "stateMutability": "view",
      "type": "function"
    },
    {
      "inputs": [
        {
          "internalType": "address",
          "name": "newImplementation",
          "type": "address"
        },
        {
          "internalType": "bytes",
          "name": "data",
          "type": "bytes"
        }
      ],
      "name": "upgradeToAndCall",
      "outputs": [],
      "stateMutability": "payable",
      "type": "function"
    },
    {
      "inputs": [
        {
          "internalType": "uint256",
          "name": "",
          "type": "uint256"
        }
      ],
      "name": "validCollateral",
      "outputs": [
        {
          "internalType": "address",
          "name": "",
          "type": "address"
        }
      ],
      "stateMutability": "view",
      "type": "function"
    }
  ],
  "transactionHash": "0xf16d60b80d3d33b0b478011cee8dee0c5ded9793c7bf8803002aa625d63a6e20",
  "args": [],
  "numDeployments": 1,
  "solcInputHash": "76f2ac0d2a40f527e6541dfc9894b953",
  "bytecode": "0x60a0604052306080526038805461ff001916905534801561001f57600080fd5b506080516136ee61004960003960008181612d6f01528181612d980152612ede01526136ee6000f3fe6080604052600436106104735760003560e01c806391bbfd0d1161024a578063c415b95c11610139578063f1c05a7e116100b6578063f7e37b8d1161007a578063f7e37b8d14610e9c578063f8d8989814610eb8578063fd90c2be14610ed8578063fe06073314610eed578063fe9d032314610f0d57600080fd5b8063f1c05a7e14610de6578063f2ecdcae14610e06578063f2fde38b14610e23578063f454249414610e43578063f73acf6a14610e7c57600080fd5b8063cda775f9116100fd578063cda775f914610d5c578063cddba7e614610d7c578063cf54aaa014610d91578063d1c11bc514610db1578063e8ff898614610dd157600080fd5b8063c415b95c14610ca1578063c5f956af14610cc1578063c629812014610ce1578063c8564c6214610d1b578063cc8b21e414610d3c57600080fd5b8063a80f9aee116101c7578063b95717211161018b578063b957172114610be8578063c05c5e9414610c08578063c06abe7714610c28578063c08261db14610c48578063c0c067a414610c8157600080fd5b8063a80f9aee14610b1e578063ad3cb1cc14610b3e578063aebe1ccb14610b6f578063af7047d814610b8f578063b31610db14610bc857600080fd5b8063a142f35a1161020e578063a142f35a14610a8d578063a17e64cc146109c2578063a20baee614610aa7578063a3f4df7e14610ac2578063a72bd4e814610b0857600080fd5b806391bbfd0d146109dd57806395fb16bb14610a1657806399bd6dda14610a365780639d6aea0a14610a565780639d8d5a1714610a7857600080fd5b806352d1902d1161036657806378aaf4de116102e357806386d10e8c116102a757806386d10e8c1461093557806388ecb0db1461096e5780638da5cb5b1461098e5780638dfac87a146109a357806390b988c6146109c257600080fd5b806378aaf4de1461088d5780637a305122146108c65780637c120312146108e45780637f7dde4a146109005780638129fc1c1461092057600080fd5b8063715018a61161032a578063715018a6146107fc57806372fe25aa14610811578063741bef1a1461082d57806375e1c3d81461084d57806377553ad41461086d57600080fd5b806352d1902d1461075157806355dafa461461076657806362d460da14610786578063650aabe2146107bf5780636a85d67d146107dc57600080fd5b80632a6e7603116103f45780633f8f5f42116103b85780633f8f5f42146106a55780634169467d146106c5578063443c4fcb146106e55780634bc66f321461071e5780634f1ef2861461073e57600080fd5b80632a6e7603146105ea5780632d79b8eb1461060a578063300581d9146106375780633cc74225146106705780633e18935c1461069057600080fd5b80630fe66cdd1161043b5780630fe66cdd1461053757806311a40d871461055757806317ae1fc51461057757806318a15113146105a75780632416b72d146105d557600080fd5b806301c9310014610478578063048c661d1461049a5780630a34d4d6146104d75780630bc028c2146104f75780630e8dfa8114610517575b600080fd5b34801561048457600080fd5b506104986104933660046131eb565b610f2d565b005b3480156104a657600080fd5b50600d546104ba906001600160a01b031681565b6040516001600160a01b0390911681526020015b60405180910390f35b3480156104e357600080fd5b506011546104ba906001600160a01b031681565b34801561050357600080fd5b50610498610512366004613206565b610f7e565b34801561052357600080fd5b50610498610532366004613206565b611111565b34801561054357600080fd5b50610498610552366004613230565b61129d565b34801561056357600080fd5b5061049861057236600461326c565b61133f565b34801561058357600080fd5b506105976105923660046131eb565b6113f9565b60405190151581526020016104ce565b3480156105b357600080fd5b506105c76105c23660046131eb565b611428565b6040519081526020016104ce565b3480156105e157600080fd5b506035546105c7565b3480156105f657600080fd5b506104ba61060536600461326c565b611515565b34801561061657600080fd5b5061062a6106253660046132cc565b61153f565b6040516104ce9190613379565b34801561064357600080fd5b506105c76106523660046131eb565b6001600160a01b031660009081526033602052604090206003015490565b34801561067c57600080fd5b506006546104ba906001600160a01b031681565b34801561069c57600080fd5b506036546105c7565b3480156106b157600080fd5b506104986106c0366004613206565b611624565b3480156106d157600080fd5b506008546104ba906001600160a01b031681565b3480156106f157600080fd5b506105c76107003660046131eb565b6001600160a01b03166000908152603360205260409020600a015490565b34801561072a57600080fd5b50600e546104ba906001600160a01b031681565b61049861074c3660046133bd565b6117a0565b34801561075d57600080fd5b506105c76117bf565b34801561077257600080fd5b50600a546104ba906001600160a01b031681565b34801561079257600080fd5b506105c76107a13660046131eb565b6001600160a01b031660009081526033602052604090206004015490565b3480156107cb57600080fd5b50603854610100900460ff16610597565b3480156107e857600080fd5b506104986107f73660046131eb565b6117dc565b34801561080857600080fd5b5061049861182d565b34801561081d57600080fd5b506105c7670de0b6b3a764000081565b34801561083957600080fd5b50600b546104ba906001600160a01b031681565b34801561085957600080fd5b50610498610868366004613206565b611841565b34801561087957600080fd5b506002546104ba906001600160a01b031681565b34801561089957600080fd5b506105c76108a83660046131eb565b6001600160a01b031660009081526033602052604090206005015490565b3480156108d257600080fd5b506105c769d3c21bcecceda100000081565b3480156108f057600080fd5b506105c7670f43fc2c04ee000081565b34801561090c57600080fd5b506000546104ba906001600160a01b031681565b34801561092c57600080fd5b506104986119b9565b34801561094157600080fd5b506105c76109503660046131eb565b6001600160a01b031660009081526033602052604090206007015490565b34801561097a57600080fd5b50610498610989366004613206565b611ad2565b34801561099a57600080fd5b506104ba611c4e565b3480156109af57600080fd5b5060385461059790610100900460ff1681565b3480156109ce57600080fd5b506105c76611c37937e0800081565b3480156109e957600080fd5b506105c76109f83660046131eb565b6001600160a01b031660009081526033602052604090206008015490565b348015610a2257600080fd5b506004546104ba906001600160a01b031681565b348015610a4257600080fd5b50610498610a5136600461326c565b611c7c565b348015610a6257600080fd5b50610a6b611d2e565b6040516104ce9190613463565b348015610a8457600080fd5b506105c760c881565b348015610a9957600080fd5b506038546105979060ff1681565b348015610ab357600080fd5b50670de0b6b3a76400006105c7565b348015610ace57600080fd5b50610afb6040518060400160405280600d81526020016c10591b5a5b90dbdb9d1c9858dd609a1b81525081565b6040516104ce91906134f4565b348015610b1457600080fd5b506105c760001981565b348015610b2a57600080fd5b50610498610b39366004613206565b611d90565b348015610b4a57600080fd5b50610afb604051806040016040528060058152602001640352e302e360dc1b81525081565b348015610b7b57600080fd5b50610498610b8a366004613206565b611f0b565b348015610b9b57600080fd5b506105c7610baa3660046131eb565b6001600160a01b031660009081526033602052604090206009015490565b348015610bd457600080fd5b506105c7610be33660046131eb565b611fd3565b348015610bf457600080fd5b50610498610c03366004613507565b611fff565b348015610c1457600080fd5b506001546104ba906001600160a01b031681565b348015610c3457600080fd5b50610498610c43366004613206565b61257b565b348015610c5457600080fd5b506105c7610c633660046131eb565b6001600160a01b031660009081526033602052604090206006015490565b348015610c8d57600080fd5b50610498610c9c36600461357c565b612655565b348015610cad57600080fd5b506007546104ba906001600160a01b031681565b348015610ccd57600080fd5b50600f546104ba906001600160a01b031681565b348015610ced57600080fd5b50603454603554603654610d0092919083565b604080519384526020840192909252908201526060016104ce565b348015610d2757600080fd5b5060115461059790600160a01b900460ff1681565b348015610d4857600080fd5b50600c546104ba906001600160a01b031681565b348015610d6857600080fd5b506003546104ba906001600160a01b031681565b348015610d8857600080fd5b5061049861273f565b348015610d9d57600080fd5b506105c7610dac3660046131eb565b6127e1565b348015610dbd57600080fd5b50610498610dcc36600461326c565b61280a565b348015610ddd57600080fd5b506104986128bc565b348015610df257600080fd5b506010546104ba906001600160a01b031681565b348015610e1257600080fd5b506105c7686c6b935b8bbd40000081565b348015610e2f57600080fd5b50610498610e3e3660046131eb565b61293f565b348015610e4f57600080fd5b506105c7610e5e3660046131eb565b6001600160a01b03166000908152603360205260409020600b015490565b348015610e8857600080fd5b50610498610e973660046135d8565b61297d565b348015610ea857600080fd5b506105c76714d1120d7b16000081565b348015610ec457600080fd5b506005546104ba906001600160a01b031681565b348015610ee457600080fd5b506034546105c7565b348015610ef957600080fd5b50610498610f083660046131eb565b612cee565b348015610f1957600080fd5b506009546104ba906001600160a01b031681565b610f35612cf7565b6001600160a01b038116610f5c576040516385d3330760e01b815260040160405180910390fd5b600a80546001600160a01b0319166001600160a01b0392909216919091179055565b60385460ff1615610fb957600e546001600160a01b03163314610fb457604051631dc5ba9560e01b815260040160405180910390fd5b610ff2565b610fc1611c4e565b6001600160a01b0316336001600160a01b031614610ff25760405163ec4adddf60e01b815260040160405180910390fd5b604080518082018252600c81526b135a5b8813995d081119589d60a21b6020808301919091526001600160a01b038516600090815260339091529182206002015490918491849190686c6b935b8bbd4000009060ff1615158203611069576040516316c1362560e21b815260040160405180910390fd5b8183108061107657508083115b156110a55784838383604051630714ded760e31b815260040161109c949392919061360b565b60405180910390fd5b6001600160a01b038716600090815260336020908152604091829020600781018054908a905583518181529283018a9052909290917f794abdbe21b3b4556467be6af2b2d5e75ae16613bd128dbd47c3727bd52b4b5591015b60405180910390a1505050505050505050565b60385460ff161561114c57600e546001600160a01b0316331461114757604051631dc5ba9560e01b815260040160405180910390fd5b611185565b611154611c4e565b6001600160a01b0316336001600160a01b0316146111855760405163ec4adddf60e01b815260040160405180910390fd5b60408051808201825260148152732932b232b6b83a34b7b7102332b290233637b7b960611b6020808301919091526001600160a01b038516600090815260339091529182206002015490918491849166038d7ea4c680009167016345785d8a00009160ff9091161515900361120d576040516316c1362560e21b815260040160405180910390fd5b8183108061121a57508083115b156112405784838383604051630714ded760e31b815260040161109c949392919061360b565b6001600160a01b038716600090815260336020908152604091829020600a81018054908a905583518181529283018a9052909290917fbb07ced1b1536afc600a5d97cba6e4b294731026286cddc33b98cb2d18569ab791016110fe565b60385460ff16156112d857600e546001600160a01b031633146112d357604051631dc5ba9560e01b815260040160405180910390fd5b611311565b6112e0611c4e565b6001600160a01b0316336001600160a01b0316146113115760405163ec4adddf60e01b815260040160405180910390fd5b6001600160a01b03919091166000908152603360205260409020600201805460ff1916911515919091179055565b60385460ff161561137a57600e546001600160a01b0316331461137557604051631dc5ba9560e01b815260040160405180910390fd5b6113b3565b611382611c4e565b6001600160a01b0316336001600160a01b0316146113b35760405163ec4adddf60e01b815260040160405180910390fd5b603480549082905560408051828152602081018490527fe3b4f88e1a9792e4c88056012d3c2d95f88686e9f0422d216ddde64913868a3091015b60405180910390a15050565b60008161140581612d29565b50506001600160a01b031660009081526033602052604090206002015460ff1690565b60065460405163c5739d0b60e01b81526001600160a01b038381166004830152600092169063c5739d0b90602401602060405180830381865afa158015611473573d6000803e3d6000fd5b505050506040513d601f19601f82011682018060405250810190611497919061363a565b60005460405163c5739d0b60e01b81526001600160a01b0385811660048301529091169063c5739d0b90602401602060405180830381865afa1580156114e1573d6000803e3d6000fd5b505050506040513d601f19601f82011682018060405250810190611505919061363a565b61150f9190613669565b92915050565b6037818154811061152557600080fd5b6000918252602090912001546001600160a01b0316905081565b80516060908067ffffffffffffffff81111561155d5761155d613285565b604051908082528060200260200182016040528015611586578160200160208202803683370190505b50915060005b8181101561161d576115b68482815181106115a9576115a961367c565b6020026020010151612d29565b603360008583815181106115cc576115cc61367c565b60200260200101516001600160a01b03166001600160a01b031681526020019081526020016000206001015483828151811061160a5761160a61367c565b602090810291909101015260010161158c565b5050919050565b60385460ff161561165f57600e546001600160a01b0316331461165a57604051631dc5ba9560e01b815260040160405180910390fd5b611698565b611667611c4e565b6001600160a01b0316336001600160a01b0316146116985760405163ec4adddf60e01b815260040160405180910390fd5b604080518082018252600381526221a1a960e91b6020808301919091526001600160a01b0385166000908152603390915291822060020154909184918491670de0b6b3a764000091678ac7230489e800009160ff90911615159003611710576040516316c1362560e21b815260040160405180910390fd5b8183108061171d57508083115b156117435784838383604051630714ded760e31b815260040161109c949392919061360b565b6001600160a01b038716600090815260336020908152604091829020600481018054908a905583518181529283018a9052909290917f8fef8cb3d376ea764ea9e41cc4380bb23ed262ed1883cfd0ee00f4b08a288b6991016110fe565b6117a8612d64565b6117b182612e09565b6117bb8282612e11565b5050565b60006117c9612ed3565b506000805160206136c283398151915290565b6117e4612cf7565b6001600160a01b03811661180b5760405163706ebc6560e11b815260040160405180910390fd5b600480546001600160a01b0319166001600160a01b0392909216919091179055565b611835612cf7565b61183f6000612f1c565b565b60385460ff161561187c57600e546001600160a01b0316331461187757604051631dc5ba9560e01b815260040160405180910390fd5b6118b5565b611884611c4e565b6001600160a01b0316336001600160a01b0316146118b55760405163ec4adddf60e01b815260040160405180910390fd5b604080518082018252600f81526e2832b931b2b73a102234bb34b9b7b960891b6020808301919091526001600160a01b038516600090815260339091529182206002908101549192859285929160c89160ff1615159003611929576040516316c1362560e21b815260040160405180910390fd5b8183108061193657508083115b1561195c5784838383604051630714ded760e31b815260040161109c949392919061360b565b6001600160a01b038716600090815260336020908152604091829020600981018054908a905583518181529283018a9052909290917fdfb04317e088794badba78956b7c092fac7986add660c0fc3d01569808c32b3691016110fe565b7ff0c57e16840df040f15088dc2f81fe391c3923bec73e23a9662efc9c229c6a008054600160401b810460ff16159067ffffffffffffffff166000811580156119ff5750825b905060008267ffffffffffffffff166001148015611a1c5750303b155b905081158015611a2a575080155b15611a485760405163f92ee8a960e01b815260040160405180910390fd5b845467ffffffffffffffff191660011785558315611a7257845460ff60401b1916600160401b1785555b33611a7c81612f8d565b611a84612f9e565b508315611acb57845460ff60401b19168555604051600181527fc7f505b2f371ae2175ee4913f4499e1f2633a7b5936321eed1cdaeb6115181d29060200160405180910390a15b5050505050565b60385460ff1615611b0d57600e546001600160a01b03163314611b0857604051631dc5ba9560e01b815260040160405180910390fd5b611b46565b611b15611c4e565b6001600160a01b0316336001600160a01b031614611b465760405163ec4adddf60e01b815260040160405180910390fd5b604080518082018252600381526226a1a960e91b6020808301919091526001600160a01b0385166000908152603390915291822060020154909184918491670e043da61725000091678ac7230489e800009160ff90911615159003611bbe576040516316c1362560e21b815260040160405180910390fd5b81831080611bcb57508083115b15611bf15784838383604051630714ded760e31b815260040161109c949392919061360b565b6001600160a01b038716600090815260336020908152604091829020600581018054908a905583518181529283018a9052909290917fefeb589e088ecf2bc2a0b6d364f91a4fee37ee6b9c6f089c71169e86f03dc94491016110fe565b7f9016d09d72d40fdae2fd8ceac6b6234c7706214fd39c1cd1e609a0528c199300546001600160a01b031690565b60385460ff1615611cb757600e546001600160a01b03163314611cb257604051631dc5ba9560e01b815260040160405180910390fd5b611cf0565b611cbf611c4e565b6001600160a01b0316336001600160a01b031614611cf05760405163ec4adddf60e01b815260040160405180910390fd5b603580549082905560408051828152602081018490527f841b8d7786ab206e084452d4121e409254159a21459476b3875af811e81ddece91016113ed565b60606037805480602002602001604051908101604052809291908181526020018280548015611d8657602002820191906000526020600020905b81546001600160a01b03168152600190910190602001808311611d68575b5050505050905090565b60385460ff1615611dcb57600e546001600160a01b03163314611dc657604051631dc5ba9560e01b815260040160405180910390fd5b611e04565b611dd3611c4e565b6001600160a01b0316336001600160a01b031614611e045760405163ec4adddf60e01b815260040160405180910390fd5b604080518082018252600d81526c426f72726f77696e672046656560981b6020808301919091526001600160a01b03851660009081526033909152918220600201549091849184919067016345785d8a00009060ff1615158203611e7b576040516316c1362560e21b815260040160405180910390fd5b81831080611e8857508083115b15611eae5784838383604051630714ded760e31b815260040161109c949392919061360b565b6001600160a01b038716600090815260336020908152604091829020600381018054908a905583518181529283018a9052909290917fa7beab75e7a7d89dcacb5a82b33606192c31b8bbc1868c5240f95abcd95bbeee91016110fe565b60385460ff1615611f4657600e546001600160a01b03163314611f4157604051631dc5ba9560e01b815260040160405180910390fd5b611f7f565b611f4e611c4e565b6001600160a01b0316336001600160a01b031614611f7f5760405163ec4adddf60e01b815260040160405180910390fd5b6001600160a01b038216600081815260336020908152604091829020600b01849055815192835282018390527f2f92337ec07da93d49659c3dbafa91599df53c9c9147edcff44eabc99d94595091016113ed565b600081611fdf81612d29565b50506001600160a01b031660009081526033602052604090206001015490565b612007612cf7565b601154600160a01b900460ff161561203157604051625f22e960e41b815260040160405180910390fd5b6010811461205257604051633f5a111d60e21b815260040160405180910390fd5b60005b60108110156120f05760008383838181106120725761207261367c565b905060200201602081019061208791906131eb565b6001600160a01b0316036120e857808383838181106120a8576120a861367c565b90506020020160208101906120bd91906131eb565b604051630d9d339f60e01b815260048101929092526001600160a01b0316602482015260440161109c565b600101612055565b50818160008181106121045761210461367c565b905060200201602081019061211991906131eb565b600080546001600160a01b0319166001600160a01b03929092169190911790558181600181811061214c5761214c61367c565b905060200201602081019061216191906131eb565b600180546001600160a01b0319166001600160a01b0392909216919091179055818160028181106121945761219461367c565b90506020020160208101906121a991906131eb565b600280546001600160a01b0319166001600160a01b0392909216919091179055818160038181106121dc576121dc61367c565b90506020020160208101906121f191906131eb565b600380546001600160a01b0319166001600160a01b0392909216919091179055818160048181106122245761222461367c565b905060200201602081019061223991906131eb565b600580546001600160a01b0319166001600160a01b03929092169190911781558290829081811061226c5761226c61367c565b905060200201602081019061228191906131eb565b600680546001600160a01b0319166001600160a01b0392909216919091178155829082908181106122b4576122b461367c565b90506020020160208101906122c991906131eb565b600780546001600160a01b0319166001600160a01b0392909216919091178155829082908181106122fc576122fc61367c565b905060200201602081019061231191906131eb565b600880546001600160a01b0319166001600160a01b0392909216919091178155829082908181106123445761234461367c565b905060200201602081019061235991906131eb565b600980546001600160a01b0319166001600160a01b03929092169190911781558290829081811061238c5761238c61367c565b90506020020160208101906123a191906131eb565b600b80546001600160a01b0319166001600160a01b03929092169190911790558181600a8181106123d4576123d461367c565b90506020020160208101906123e991906131eb565b600c80546001600160a01b0319166001600160a01b03929092169190911790558181600b81811061241c5761241c61367c565b905060200201602081019061243191906131eb565b600d80546001600160a01b0319166001600160a01b03929092169190911790558181600c8181106124645761246461367c565b905060200201602081019061247991906131eb565b600e80546001600160a01b0319166001600160a01b03929092169190911790558181600d8181106124ac576124ac61367c565b90506020020160208101906124c191906131eb565b600f80546001600160a01b0319166001600160a01b03929092169190911790558181600e8181106124f4576124f461367c565b905060200201602081019061250991906131eb565b601080546001600160a01b0319166001600160a01b03929092169190911790558181600f81811061253c5761253c61367c565b905060200201602081019061255191906131eb565b601180546001600160a81b0319166001600160a01b039290921691909117600160a01b1790555050565b60385460ff16156125b657600e546001600160a01b031633146125b157604051631dc5ba9560e01b815260040160405180910390fd5b6125ef565b6125be611c4e565b6001600160a01b0316336001600160a01b0316146125ef5760405163ec4adddf60e01b815260040160405180910390fd5b6001600160a01b038216600090815260336020908152604091829020600881018054908590558351818152928301859052909290917f903452cfae6c90575a1e7327283877d56dda9ed43a4711f44bf796e103e4e120910160405180910390a150505050565b60385460ff161561269057600e546001600160a01b0316331461268b57604051631dc5ba9560e01b815260040160405180910390fd5b6126c9565b612698611c4e565b6001600160a01b0316336001600160a01b0316146126c95760405163ec4adddf60e01b815260040160405180910390fd5b6001600160a01b0388166000908152603360205260409020600201805460ff191660011790556126f98888611d90565b6127038887611624565b61270d8886611ad2565b6127178885610f7e565b612721888461257b565b61272b8883611841565b6127358882611111565b5050505050505050565b60385460ff161561277a57600e546001600160a01b0316331461277557604051631dc5ba9560e01b815260040160405180910390fd5b6127b3565b612782611c4e565b6001600160a01b0316336001600160a01b0316146127b35760405163ec4adddf60e01b815260040160405180910390fd5b603854610100900460ff16156127d0576038805461ff0019169055565b6038805461ff001916610100179055565b6000816127ed81612d29565b50506001600160a01b031660009081526033602052604090205490565b60385460ff161561284557600e546001600160a01b0316331461284057604051631dc5ba9560e01b815260040160405180910390fd5b61287e565b61284d611c4e565b6001600160a01b0316336001600160a01b03161461287e5760405163ec4adddf60e01b815260040160405180910390fd5b603680549082905560408051828152602081018490527f7196cc0c7a60a899fecba676605ed35cd076078c7823305611d2e11fe269ae3591016113ed565b60385460ff16156128f757600e546001600160a01b031633146128f257604051631dc5ba9560e01b815260040160405180910390fd5b612930565b6128ff611c4e565b6001600160a01b0316336001600160a01b0316146129305760405163ec4adddf60e01b815260040160405180910390fd5b6038805460ff19166001179055565b612947612cf7565b6001600160a01b03811661297157604051631e4fbdf760e01b81526000600482015260240161109c565b61297a81612f1c565b50565b60385460ff16156129b857600e546001600160a01b031633146129b357604051631dc5ba9560e01b815260040160405180910390fd5b6129f1565b6129c0611c4e565b6001600160a01b0316336001600160a01b0316146129f15760405163ec4adddf60e01b815260040160405180910390fd5b6001600160a01b03831660009081526033602052604090206005015415612a2b57604051634dc81d2760e01b815260040160405180910390fd5b60128114612a8e5760405162461bcd60e51b815260206004820152602a60248201527f636f6c6c61746572616c73206d7573742068617665207468652064656661756c6044820152697420646563696d616c7360b01b606482015260840161109c565b603780546001808201835560008390527f42a7b7dd785cd69714a189dffb3fd7d7174edc9ece837694ce50f7078f7c31ae90910180546001600160a01b0319166001600160a01b03871617905560408051610180810190915283815291546020830191612afa91613692565b81526020016000151581526020016611c37937e0800081526020016714d1120d7b1600008152602001670f43fc2c04ee00008152602001838152602001686c6b935b8bbd400000815260200169d3c21bcecceda1000000815260200160c881526020016611c37937e08000815260200160001981525060336000856001600160a01b03166001600160a01b03168152602001908152602001600020600082015181600001556020820151816001015560408201518160020160006101000a81548160ff021916908315150217905550606082015181600301556080820151816004015560a0820151816005015560c0820151816006015560e082015181600701556101008201518160080155610120820151816009015561014082015181600a015561016082015181600b0155905050600d60009054906101000a90046001600160a01b03166001600160a01b031663ec0d5e0c846040518263ffffffff1660e01b8152600401612c7a91906001600160a01b0391909116815260200190565b600060405180830381600087803b158015612c9457600080fd5b505af1158015612ca8573d6000803e3d6000fd5b50506040516001600160a01b03861681527f7db05e63d635a68c62fd7fd8f3107ae8ab584a383e102d1bd8a40f4c977e465f9250602001905060405180910390a1505050565b61297a81612e09565b33612d00611c4e565b6001600160a01b03161461183f5760405163118cdaa760e01b815233600482015260240161109c565b6001600160a01b038116600090815260336020526040812060050154900361297a5760405163e2d0e9ed60e01b815260040160405180910390fd5b306001600160a01b037f0000000000000000000000000000000000000000000000000000000000000000161480612deb57507f00000000000000000000000000000000000000000000000000000000000000006001600160a01b0316612ddf6000805160206136c2833981519152546001600160a01b031690565b6001600160a01b031614155b1561183f5760405163703e46dd60e11b815260040160405180910390fd5b61297a612cf7565b816001600160a01b03166352d1902d6040518163ffffffff1660e01b8152600401602060405180830381865afa925050508015612e6b575060408051601f3d908101601f19168201909252612e689181019061363a565b60015b612e9357604051634c9c8ce360e01b81526001600160a01b038316600482015260240161109c565b6000805160206136c28339815191528114612ec457604051632a87526960e21b81526004810182905260240161109c565b612ece8383612fa6565b505050565b306001600160a01b037f0000000000000000000000000000000000000000000000000000000000000000161461183f5760405163703e46dd60e11b815260040160405180910390fd5b7f9016d09d72d40fdae2fd8ceac6b6234c7706214fd39c1cd1e609a0528c19930080546001600160a01b031981166001600160a01b03848116918217845560405192169182907f8be0079c531659141344cd1fd0a4f28419497f9722a3daafe3b4186f6b6457e090600090a3505050565b612f95612ffc565b61297a81613045565b61183f612ffc565b612faf8261304d565b6040516001600160a01b038316907fbc7cd75a20ee27fd9adebab32041f755214dbc6bffa90cc0225b39da2e5c2d3b90600090a2805115612ff457612ece82826130b2565b6117bb613128565b7ff0c57e16840df040f15088dc2f81fe391c3923bec73e23a9662efc9c229c6a0054600160401b900460ff1661183f57604051631afcd79f60e31b815260040160405180910390fd5b612947612ffc565b806001600160a01b03163b60000361308357604051634c9c8ce360e01b81526001600160a01b038216600482015260240161109c565b6000805160206136c283398151915280546001600160a01b0319166001600160a01b0392909216919091179055565b6060600080846001600160a01b0316846040516130cf91906136a5565b600060405180830381855af49150503d806000811461310a576040519150601f19603f3d011682016040523d82523d6000602084013e61310f565b606091505b509150915061311f858383613147565b95945050505050565b341561183f5760405163b398979f60e01b815260040160405180910390fd5b60608261315c57613157826131a6565b61319f565b815115801561317357506001600160a01b0384163b155b1561319c57604051639996b31560e01b81526001600160a01b038516600482015260240161109c565b50805b9392505050565b8051156131b65780518082602001fd5b604051630a12f52160e11b815260040160405180910390fd5b80356001600160a01b03811681146131e657600080fd5b919050565b6000602082840312156131fd57600080fd5b61319f826131cf565b6000806040838503121561321957600080fd5b613222836131cf565b946020939093013593505050565b6000806040838503121561324357600080fd5b61324c836131cf565b91506020830135801515811461326157600080fd5b809150509250929050565b60006020828403121561327e57600080fd5b5035919050565b634e487b7160e01b600052604160045260246000fd5b604051601f8201601f1916810167ffffffffffffffff811182821017156132c4576132c4613285565b604052919050565b600060208083850312156132df57600080fd5b823567ffffffffffffffff808211156132f757600080fd5b818501915085601f83011261330b57600080fd5b81358181111561331d5761331d613285565b8060051b915061332e84830161329b565b818152918301840191848101908884111561334857600080fd5b938501935b8385101561336d5761335e856131cf565b8252938501939085019061334d565b98975050505050505050565b6020808252825182820181905260009190848201906040850190845b818110156133b157835183529284019291840191600101613395565b50909695505050505050565b600080604083850312156133d057600080fd5b6133d9836131cf565b915060208084013567ffffffffffffffff808211156133f757600080fd5b818601915086601f83011261340b57600080fd5b81358181111561341d5761341d613285565b61342f601f8201601f1916850161329b565b9150808252878482850101111561344557600080fd5b80848401858401376000848284010152508093505050509250929050565b6020808252825182820181905260009190848201906040850190845b818110156133b15783516001600160a01b03168352928401929184019160010161347f565b60005b838110156134bf5781810151838201526020016134a7565b50506000910152565b600081518084526134e08160208601602086016134a4565b601f01601f19169290920160200192915050565b60208152600061319f60208301846134c8565b6000806020838503121561351a57600080fd5b823567ffffffffffffffff8082111561353257600080fd5b818501915085601f83011261354657600080fd5b81358181111561355557600080fd5b8660208260051b850101111561356a57600080fd5b60209290920196919550909350505050565b600080600080600080600080610100898b03121561359957600080fd5b6135a2896131cf565b9a60208a01359a5060408a013599606081013599506080810135985060a0810135975060c0810135965060e00135945092505050565b6000806000606084860312156135ed57600080fd5b6135f6846131cf565b95602085013595506040909401359392505050565b60808152600061361e60808301876134c8565b6020830195909552506040810192909252606090910152919050565b60006020828403121561364c57600080fd5b5051919050565b634e487b7160e01b600052601160045260246000fd5b8082018082111561150f5761150f613653565b634e487b7160e01b600052603260045260246000fd5b8181038181111561150f5761150f613653565b600082516136b78184602087016134a4565b919091019291505056fe360894a13ba1a3210667c828492db98dca3e2076cc3735a920a3ca505d382bbca164736f6c6343000817000a",
  "devdoc": {
    "errors": {
      "AddressEmptyCode(address)": [
        {
          "details": "There's no code at `target` (it is not a contract)."
        }
      ],
      "ERC1967InvalidImplementation(address)": [
        {
          "details": "The `implementation` of the proxy is invalid."
        }
      ],
      "ERC1967NonPayable()": [
        {
          "details": "An upgrade function sees `msg.value > 0` that may be lost."
        }
      ],
      "FailedInnerCall()": [
        {
          "details": "A call to an address target failed. The target may have reverted."
        }
      ],
      "InvalidInitialization()": [
        {
          "details": "The contract is already initialized."
        }
      ],
      "NotInitializing()": [
        {
          "details": "The contract is not initializing."
        }
      ],
      "OwnableInvalidOwner(address)": [
        {
          "details": "The owner is not a valid owner account. (eg. `address(0)`)"
        }
      ],
      "OwnableUnauthorizedAccount(address)": [
        {
          "details": "The caller account is not authorized to perform an operation."
        }
      ],
      "UUPSUnauthorizedCallContext()": [
        {
          "details": "The call is from an unauthorized context."
        }
      ],
      "UUPSUnsupportedProxiableUUID(bytes32)": [
        {
          "details": "The storage `slot` is unsupported as a UUID."
        }
      ]
    },
    "events": {
      "Initialized(uint64)": {
        "details": "Triggered when the contract has been initialized or reinitialized."
      },
      "Upgraded(address)": {
        "details": "Emitted when the implementation is upgraded."
      }
    },
    "kind": "dev",
    "methods": {
      "owner()": {
        "details": "Returns the address of the current owner."
      },
      "proxiableUUID()": {
        "details": "Implementation of the ERC1822 {proxiableUUID} function. This returns the storage slot used by the implementation. It is used to validate the implementation's compatibility when performing an upgrade. IMPORTANT: A proxy pointing at a proxiable contract should not be considered proxiable itself, because this risks bricking a proxy that upgrades to it, by delegating to itself until out of gas. Thus it is critical that this function revert if invoked through a proxy. This is guaranteed by the `notDelegated` modifier."
      },
      "renounceOwnership()": {
        "details": "Leaves the contract without owner. It will not be possible to call `onlyOwner` functions. Can only be called by the current owner. NOTE: Renouncing ownership will leave the contract without an owner, thereby disabling any functionality that is only available to the owner."
      },
      "setSetupIsInitialized()": {
        "details": "The deployment script will call this function when all initial collaterals have been configured;      after this is set to true, all subsequent config/setters will need to go through the timelocks."
      },
      "transferOwnership(address)": {
        "details": "Transfers ownership of the contract to a new account (`newOwner`). Can only be called by the current owner."
      },
      "upgradeToAndCall(address,bytes)": {
        "custom:oz-upgrades-unsafe-allow-reachable": "delegatecall",
        "details": "Upgrade the implementation of the proxy to `newImplementation`, and subsequently execute the function call encoded in `data`. Calls {_authorizeUpgrade}. Emits an {Upgraded} event."
      }
    },
    "stateVariables": {
      "collateralParams": {
        "details": "Cannot be public as struct has too many variables for the stack.Create special view structs/getters instead."
      }
    },
    "version": 1
  },
  "userdoc": {
    "kind": "user",
    "methods": {},
    "version": 1
  },
  "storageLayout": {
    "storage": [
      {
        "astId": 10031,
        "contract": "contracts/AdminContract.sol:AdminContract",
        "label": "activePool",
        "offset": 0,
        "slot": "0",
        "type": "t_address"
      },
      {
        "astId": 10033,
        "contract": "contracts/AdminContract.sol:AdminContract",
        "label": "adminContract",
        "offset": 0,
        "slot": "1",
        "type": "t_address"
      },
      {
        "astId": 10035,
        "contract": "contracts/AdminContract.sol:AdminContract",
        "label": "borrowerOperations",
        "offset": 0,
        "slot": "2",
        "type": "t_address"
      },
      {
        "astId": 10037,
        "contract": "contracts/AdminContract.sol:AdminContract",
        "label": "collSurplusPool",
        "offset": 0,
        "slot": "3",
        "type": "t_address"
      },
      {
        "astId": 10039,
        "contract": "contracts/AdminContract.sol:AdminContract",
        "label": "communityIssuance",
        "offset": 0,
        "slot": "4",
        "type": "t_address"
      },
      {
        "astId": 10041,
        "contract": "contracts/AdminContract.sol:AdminContract",
        "label": "debtToken",
        "offset": 0,
        "slot": "5",
        "type": "t_address"
      },
      {
        "astId": 10043,
        "contract": "contracts/AdminContract.sol:AdminContract",
        "label": "defaultPool",
        "offset": 0,
        "slot": "6",
        "type": "t_address"
      },
      {
        "astId": 10045,
        "contract": "contracts/AdminContract.sol:AdminContract",
        "label": "feeCollector",
        "offset": 0,
        "slot": "7",
        "type": "t_address"
      },
      {
        "astId": 10047,
        "contract": "contracts/AdminContract.sol:AdminContract",
        "label": "flashLoanAddress",
        "offset": 0,
        "slot": "8",
        "type": "t_address"
      },
      {
        "astId": 10049,
        "contract": "contracts/AdminContract.sol:AdminContract",
        "label": "gasPoolAddress",
        "offset": 0,
        "slot": "9",
        "type": "t_address"
      },
      {
        "astId": 10051,
        "contract": "contracts/AdminContract.sol:AdminContract",
        "label": "trenStaking",
        "offset": 0,
        "slot": "10",
        "type": "t_address"
      },
      {
        "astId": 10053,
        "contract": "contracts/AdminContract.sol:AdminContract",
        "label": "priceFeed",
        "offset": 0,
        "slot": "11",
        "type": "t_address"
      },
      {
        "astId": 10055,
        "contract": "contracts/AdminContract.sol:AdminContract",
        "label": "sortedTrenBoxes",
        "offset": 0,
        "slot": "12",
        "type": "t_address"
      },
      {
        "astId": 10057,
        "contract": "contracts/AdminContract.sol:AdminContract",
        "label": "stabilityPool",
        "offset": 0,
        "slot": "13",
        "type": "t_address"
      },
      {
        "astId": 10059,
        "contract": "contracts/AdminContract.sol:AdminContract",
        "label": "timelockAddress",
        "offset": 0,
        "slot": "14",
        "type": "t_address"
      },
      {
        "astId": 10061,
        "contract": "contracts/AdminContract.sol:AdminContract",
        "label": "treasuryAddress",
        "offset": 0,
        "slot": "15",
        "type": "t_address"
      },
      {
        "astId": 10063,
        "contract": "contracts/AdminContract.sol:AdminContract",
        "label": "trenBoxManager",
        "offset": 0,
        "slot": "16",
        "type": "t_address"
      },
      {
        "astId": 10065,
        "contract": "contracts/AdminContract.sol:AdminContract",
        "label": "trenBoxManagerOperations",
        "offset": 0,
        "slot": "17",
        "type": "t_address"
      },
      {
        "astId": 10067,
        "contract": "contracts/AdminContract.sol:AdminContract",
        "label": "isAddressSetupInitialized",
        "offset": 20,
        "slot": "17",
        "type": "t_bool"
      },
      {
        "astId": 10072,
        "contract": "contracts/AdminContract.sol:AdminContract",
        "label": "__gap",
        "offset": 0,
        "slot": "18",
        "type": "t_array(t_uint256)33_storage"
      },
      {
        "astId": 5957,
        "contract": "contracts/AdminContract.sol:AdminContract",
        "label": "collateralParams",
        "offset": 0,
        "slot": "51",
        "type": "t_mapping(t_address,t_struct(CollateralParams)12628_storage)"
      },
      {
        "astId": 5960,
        "contract": "contracts/AdminContract.sol:AdminContract",
        "label": "flashLoanParams",
        "offset": 0,
        "slot": "52",
        "type": "t_struct(FlashLoanParams)12635_storage"
      },
      {
        "astId": 5963,
        "contract": "contracts/AdminContract.sol:AdminContract",
        "label": "validCollateral",
        "offset": 0,
        "slot": "55",
        "type": "t_array(t_address)dyn_storage"
      },
      {
        "astId": 5965,
        "contract": "contracts/AdminContract.sol:AdminContract",
        "label": "isSetupInitialized",
        "offset": 0,
        "slot": "56",
        "type": "t_bool"
      },
      {
        "astId": 5968,
        "contract": "contracts/AdminContract.sol:AdminContract",
        "label": "routeToTRENStaking",
        "offset": 1,
        "slot": "56",
        "type": "t_bool"
      }
    ],
    "types": {
      "t_address": {
        "encoding": "inplace",
        "label": "address",
        "numberOfBytes": "20"
      },
      "t_array(t_address)dyn_storage": {
        "base": "t_address",
        "encoding": "dynamic_array",
        "label": "address[]",
        "numberOfBytes": "32"
      },
      "t_array(t_uint256)33_storage": {
        "base": "t_uint256",
        "encoding": "inplace",
        "label": "uint256[33]",
        "numberOfBytes": "1056"
      },
      "t_bool": {
        "encoding": "inplace",
        "label": "bool",
        "numberOfBytes": "1"
      },
      "t_mapping(t_address,t_struct(CollateralParams)12628_storage)": {
        "encoding": "mapping",
        "key": "t_address",
        "label": "mapping(address => struct IAdminContract.CollateralParams)",
        "numberOfBytes": "32",
        "value": "t_struct(CollateralParams)12628_storage"
      },
      "t_struct(CollateralParams)12628_storage": {
        "encoding": "inplace",
        "label": "struct IAdminContract.CollateralParams",
        "members": [
          {
            "astId": 12605,
            "contract": "contracts/AdminContract.sol:AdminContract",
            "label": "decimals",
            "offset": 0,
            "slot": "0",
            "type": "t_uint256"
          },
          {
            "astId": 12607,
            "contract": "contracts/AdminContract.sol:AdminContract",
            "label": "index",
            "offset": 0,
            "slot": "1",
            "type": "t_uint256"
          },
          {
            "astId": 12609,
            "contract": "contracts/AdminContract.sol:AdminContract",
            "label": "active",
            "offset": 0,
            "slot": "2",
            "type": "t_bool"
          },
          {
            "astId": 12611,
            "contract": "contracts/AdminContract.sol:AdminContract",
            "label": "borrowingFee",
            "offset": 0,
            "slot": "3",
            "type": "t_uint256"
          },
          {
            "astId": 12613,
            "contract": "contracts/AdminContract.sol:AdminContract",
            "label": "ccr",
            "offset": 0,
            "slot": "4",
            "type": "t_uint256"
          },
          {
            "astId": 12615,
            "contract": "contracts/AdminContract.sol:AdminContract",
            "label": "mcr",
            "offset": 0,
            "slot": "5",
            "type": "t_uint256"
          },
          {
            "astId": 12617,
            "contract": "contracts/AdminContract.sol:AdminContract",
            "label": "debtTokenGasCompensation",
            "offset": 0,
            "slot": "6",
            "type": "t_uint256"
          },
          {
            "astId": 12619,
            "contract": "contracts/AdminContract.sol:AdminContract",
            "label": "minNetDebt",
            "offset": 0,
            "slot": "7",
            "type": "t_uint256"
          },
          {
            "astId": 12621,
            "contract": "contracts/AdminContract.sol:AdminContract",
            "label": "mintCap",
            "offset": 0,
            "slot": "8",
            "type": "t_uint256"
          },
          {
            "astId": 12623,
            "contract": "contracts/AdminContract.sol:AdminContract",
            "label": "percentDivisor",
            "offset": 0,
            "slot": "9",
            "type": "t_uint256"
          },
          {
            "astId": 12625,
            "contract": "contracts/AdminContract.sol:AdminContract",
            "label": "redemptionFeeFloor",
            "offset": 0,
            "slot": "10",
            "type": "t_uint256"
          },
          {
            "astId": 12627,
            "contract": "contracts/AdminContract.sol:AdminContract",
            "label": "redemptionBlockTimestamp",
            "offset": 0,
            "slot": "11",
            "type": "t_uint256"
          }
        ],
        "numberOfBytes": "384"
      },
      "t_struct(FlashLoanParams)12635_storage": {
        "encoding": "inplace",
        "label": "struct IAdminContract.FlashLoanParams",
        "members": [
          {
            "astId": 12630,
            "contract": "contracts/AdminContract.sol:AdminContract",
            "label": "flashLoanFee",
            "offset": 0,
            "slot": "0",
            "type": "t_uint256"
          },
          {
            "astId": 12632,
            "contract": "contracts/AdminContract.sol:AdminContract",
            "label": "flashLoanMinDebt",
            "offset": 0,
            "slot": "1",
            "type": "t_uint256"
          },
          {
            "astId": 12634,
            "contract": "contracts/AdminContract.sol:AdminContract",
            "label": "flashLoanMaxDebt",
            "offset": 0,
            "slot": "2",
            "type": "t_uint256"
          }
        ],
        "numberOfBytes": "96"
      },
      "t_uint256": {
        "encoding": "inplace",
        "label": "uint256",
        "numberOfBytes": "32"
      }
    }
  }
}