{
  "address": "0xB1Fe7C970777e8523Efa4E482c4507eaaB466A36",
  "abi": [
    {
      "inputs": [
        {
          "internalType": "address",
          "name": "target",
          "type": "address"
        }
      ],
      "name": "AddressEmptyCode",
      "type": "error"
    },
    {
      "inputs": [
        {
          "internalType": "address",
          "name": "account",
          "type": "address"
        }
      ],
      "name": "AddressInsufficientBalance",
      "type": "error"
    },
    {
      "inputs": [],
      "name": "ConfigurableAddresses__CommunityIssuanceZeroAddress",
      "type": "error"
    },
    {
      "inputs": [],
      "name": "ConfigurableAddresses__LengthMismatch",
      "type": "error"
    },
    {
      "inputs": [],
      "name": "ConfigurableAddresses__SetupIsInitialized",
      "type": "error"
    },
    {
      "inputs": [],
      "name": "ConfigurableAddresses__TRENStakingZeroAddress",
      "type": "error"
    },
    {
      "inputs": [
        {
          "internalType": "uint256",
          "name": "position",
          "type": "uint256"
        },
        {
          "internalType": "address",
          "name": "address_",
          "type": "address"
        }
      ],
      "name": "ConfigurableAddresses__ZeroAddresses",
      "type": "error"
    },
    {
      "inputs": [
        {
          "internalType": "address",
          "name": "implementation",
          "type": "address"
        }
      ],
      "name": "ERC1967InvalidImplementation",
      "type": "error"
    },
    {
      "inputs": [],
      "name": "ERC1967NonPayable",
      "type": "error"
    },
    {
      "inputs": [],
      "name": "FailedInnerCall",
      "type": "error"
    },
    {
      "inputs": [],
      "name": "FeeCollector__ArrayMismatch",
      "type": "error"
    },
    {
      "inputs": [
        {
          "internalType": "address",
          "name": "sender",
          "type": "address"
        },
        {
          "internalType": "address",
          "name": "expected",
          "type": "address"
        }
      ],
      "name": "FeeCollector__BorrowerOperationsOnly",
      "type": "error"
    },
    {
      "inputs": [
        {
          "internalType": "address",
          "name": "sender",
          "type": "address"
        },
        {
          "internalType": "address",
          "name": "expected1",
          "type": "address"
        },
        {
          "internalType": "address",
          "name": "expected2",
          "type": "address"
        }
      ],
      "name": "FeeCollector__BorrowerOperationsOrTrenBoxManagerOnly",
      "type": "error"
    },
    {
      "inputs": [],
      "name": "FeeCollector__InvalidTRENStakingAddress",
      "type": "error"
    },
    {
      "inputs": [
        {
          "internalType": "address",
          "name": "sender",
          "type": "address"
        },
        {
          "internalType": "address",
          "name": "expected",
          "type": "address"
        }
      ],
      "name": "FeeCollector__TrenBoxManagerOnly",
      "type": "error"
    },
    {
      "inputs": [],
      "name": "InvalidInitialization",
      "type": "error"
    },
    {
      "inputs": [],
      "name": "NotInitializing",
      "type": "error"
    },
    {
      "inputs": [
        {
          "internalType": "address",
          "name": "owner",
          "type": "address"
        }
      ],
      "name": "OwnableInvalidOwner",
      "type": "error"
    },
    {
      "inputs": [
        {
          "internalType": "address",
          "name": "account",
          "type": "address"
        }
      ],
      "name": "OwnableUnauthorizedAccount",
      "type": "error"
    },
    {
      "inputs": [
        {
          "internalType": "address",
          "name": "token",
          "type": "address"
        }
      ],
      "name": "SafeERC20FailedOperation",
      "type": "error"
    },
    {
      "inputs": [],
      "name": "UUPSUnauthorizedCallContext",
      "type": "error"
    },
    {
      "inputs": [
        {
          "internalType": "bytes32",
          "name": "slot",
          "type": "bytes32"
        }
      ],
      "name": "UUPSUnsupportedProxiableUUID",
      "type": "error"
    },
    {
      "anonymous": false,
      "inputs": [
        {
          "indexed": false,
          "internalType": "address",
          "name": "borrower",
          "type": "address"
        },
        {
          "indexed": false,
          "internalType": "address",
          "name": "asset",
          "type": "address"
        },
        {
          "indexed": false,
          "internalType": "address",
          "name": "collector",
          "type": "address"
        },
        {
          "indexed": false,
          "internalType": "uint256",
          "name": "amount",
          "type": "uint256"
        }
      ],
      "name": "FeeCollected",
      "type": "event"
    },
    {
      "anonymous": false,
      "inputs": [
        {
          "indexed": false,
          "internalType": "address",
          "name": "borrower",
          "type": "address"
        },
        {
          "indexed": false,
          "internalType": "address",
          "name": "asset",
          "type": "address"
        },
        {
          "indexed": false,
          "internalType": "uint256",
          "name": "from",
          "type": "uint256"
        },
        {
          "indexed": false,
          "internalType": "uint256",
          "name": "to",
          "type": "uint256"
        },
        {
          "indexed": false,
          "internalType": "uint256",
          "name": "amount",
          "type": "uint256"
        }
      ],
      "name": "FeeRecordUpdated",
      "type": "event"
    },
    {
      "anonymous": false,
      "inputs": [
        {
          "indexed": false,
          "internalType": "address",
          "name": "borrower",
          "type": "address"
        },
        {
          "indexed": false,
          "internalType": "address",
          "name": "asset",
          "type": "address"
        },
        {
          "indexed": false,
          "internalType": "uint256",
          "name": "amount",
          "type": "uint256"
        }
      ],
      "name": "FeeRefunded",
      "type": "event"
    },
    {
      "anonymous": false,
      "inputs": [
        {
          "indexed": false,
          "internalType": "uint64",
          "name": "version",
          "type": "uint64"
        }
      ],
      "name": "Initialized",
      "type": "event"
    },
    {
      "anonymous": false,
      "inputs": [
        {
          "indexed": true,
          "internalType": "address",
          "name": "previousOwner",
          "type": "address"
        },
        {
          "indexed": true,
          "internalType": "address",
          "name": "newOwner",
          "type": "address"
        }
      ],
      "name": "OwnershipTransferred",
      "type": "event"
    },
    {
      "anonymous": false,
      "inputs": [
        {
          "indexed": false,
          "internalType": "address",
          "name": "asset",
          "type": "address"
        },
        {
          "indexed": false,
          "internalType": "uint256",
          "name": "amount",
          "type": "uint256"
        }
      ],
      "name": "RedemptionFeeCollected",
      "type": "event"
    },
    {
      "anonymous": false,
      "inputs": [
        {
          "indexed": true,
          "internalType": "address",
          "name": "implementation",
          "type": "address"
        }
      ],
      "name": "Upgraded",
      "type": "event"
    },
    {
      "inputs": [],
      "name": "FEE_EXPIRATION_SECONDS",
      "outputs": [
        {
          "internalType": "uint256",
          "name": "",
          "type": "uint256"
        }
      ],
      "stateMutability": "view",
      "type": "function"
    },
    {
      "inputs": [],
      "name": "MIN_FEE_DAYS",
      "outputs": [
        {
          "internalType": "uint256",
          "name": "",
          "type": "uint256"
        }
      ],
      "stateMutability": "view",
      "type": "function"
    },
    {
      "inputs": [],
      "name": "MIN_FEE_FRACTION",
      "outputs": [
        {
          "internalType": "uint256",
          "name": "",
          "type": "uint256"
        }
      ],
      "stateMutability": "view",
      "type": "function"
    },
    {
      "inputs": [],
      "name": "NAME",
      "outputs": [
        {
          "internalType": "string",
          "name": "",
          "type": "string"
        }
      ],
      "stateMutability": "view",
      "type": "function"
    },
    {
      "inputs": [],
      "name": "UPGRADE_INTERFACE_VERSION",
      "outputs": [
        {
          "internalType": "string",
          "name": "",
          "type": "string"
        }
      ],
      "stateMutability": "view",
      "type": "function"
    },
    {
      "inputs": [],
      "name": "activePool",
      "outputs": [
        {
          "internalType": "address",
          "name": "",
          "type": "address"
        }
      ],
      "stateMutability": "view",
      "type": "function"
    },
    {
      "inputs": [],
      "name": "adminContract",
      "outputs": [
        {
          "internalType": "address",
          "name": "",
          "type": "address"
        }
      ],
      "stateMutability": "view",
      "type": "function"
    },
    {
      "inputs": [
        {
          "internalType": "address",
          "name": "newImplementation",
          "type": "address"
        }
      ],
      "name": "authorizeUpgrade",
      "outputs": [],
      "stateMutability": "nonpayable",
      "type": "function"
    },
    {
      "inputs": [],
      "name": "borrowerOperations",
      "outputs": [
        {
          "internalType": "address",
          "name": "",
          "type": "address"
        }
      ],
      "stateMutability": "view",
      "type": "function"
    },
    {
      "inputs": [
        {
          "internalType": "address",
          "name": "_borrower",
          "type": "address"
        },
        {
          "internalType": "address",
          "name": "_asset",
          "type": "address"
        }
      ],
      "name": "closeDebt",
      "outputs": [],
      "stateMutability": "nonpayable",
      "type": "function"
    },
    {
      "inputs": [],
      "name": "collSurplusPool",
      "outputs": [
        {
          "internalType": "address",
          "name": "",
          "type": "address"
        }
      ],
      "stateMutability": "view",
      "type": "function"
    },
    {
      "inputs": [
        {
          "internalType": "address[]",
          "name": "_borrowers",
          "type": "address[]"
        },
        {
          "internalType": "address[]",
          "name": "_assets",
          "type": "address[]"
        }
      ],
      "name": "collectFees",
      "outputs": [],
      "stateMutability": "nonpayable",
      "type": "function"
    },
    {
      "inputs": [],
      "name": "communityIssuance",
      "outputs": [
        {
          "internalType": "address",
          "name": "",
          "type": "address"
        }
      ],
      "stateMutability": "view",
      "type": "function"
    },
    {
      "inputs": [],
      "name": "debtToken",
      "outputs": [
        {
          "internalType": "address",
          "name": "",
          "type": "address"
        }
      ],
      "stateMutability": "view",
      "type": "function"
    },
    {
      "inputs": [
        {
          "internalType": "address",
          "name": "_borrower",
          "type": "address"
        },
        {
          "internalType": "address",
          "name": "_asset",
          "type": "address"
        },
        {
          "internalType": "uint256",
          "name": "_paybackFraction",
          "type": "uint256"
        }
      ],
      "name": "decreaseDebt",
      "outputs": [],
      "stateMutability": "nonpayable",
      "type": "function"
    },
    {
      "inputs": [],
      "name": "defaultPool",
      "outputs": [
        {
          "internalType": "address",
          "name": "",
          "type": "address"
        }
      ],
      "stateMutability": "view",
      "type": "function"
    },
    {
      "inputs": [],
      "name": "feeCollector",
      "outputs": [
        {
          "internalType": "address",
          "name": "",
          "type": "address"
        }
      ],
      "stateMutability": "view",
      "type": "function"
    },
    {
      "inputs": [
        {
          "internalType": "address",
          "name": "borrower",
          "type": "address"
        },
        {
          "internalType": "address",
          "name": "asset",
          "type": "address"
        }
      ],
      "name": "feeRecords",
      "outputs": [
        {
          "internalType": "uint256",
          "name": "from",
          "type": "uint256"
        },
        {
          "internalType": "uint256",
          "name": "to",
          "type": "uint256"
        },
        {
          "internalType": "uint256",
          "name": "amount",
          "type": "uint256"
        }
      ],
      "stateMutability": "view",
      "type": "function"
    },
    {
      "inputs": [],
      "name": "flashLoanAddress",
      "outputs": [
        {
          "internalType": "address",
          "name": "",
          "type": "address"
        }
      ],
      "stateMutability": "view",
      "type": "function"
    },
    {
      "inputs": [],
      "name": "gasPoolAddress",
      "outputs": [
        {
          "internalType": "address",
          "name": "",
          "type": "address"
        }
      ],
      "stateMutability": "view",
      "type": "function"
    },
    {
      "inputs": [],
      "name": "getProtocolRevenueDestination",
      "outputs": [
        {
          "internalType": "address",
          "name": "",
          "type": "address"
        }
      ],
      "stateMutability": "view",
      "type": "function"
    },
    {
      "inputs": [
        {
          "internalType": "address",
          "name": "_asset",
          "type": "address"
        },
        {
          "internalType": "uint256",
          "name": "_amount",
          "type": "uint256"
        }
      ],
      "name": "handleRedemptionFee",
      "outputs": [],
      "stateMutability": "nonpayable",
      "type": "function"
    },
    {
      "inputs": [
        {
          "internalType": "address",
          "name": "_borrower",
          "type": "address"
        },
        {
          "internalType": "address",
          "name": "_asset",
          "type": "address"
        },
        {
          "internalType": "uint256",
          "name": "_feeAmount",
          "type": "uint256"
        }
      ],
      "name": "increaseDebt",
      "outputs": [],
      "stateMutability": "nonpayable",
      "type": "function"
    },
    {
      "inputs": [],
      "name": "initialize",
      "outputs": [],
      "stateMutability": "nonpayable",
      "type": "function"
    },
    {
      "inputs": [],
      "name": "isAddressSetupInitialized",
      "outputs": [
        {
          "internalType": "bool",
          "name": "",
          "type": "bool"
        }
      ],
      "stateMutability": "view",
      "type": "function"
    },
    {
      "inputs": [
        {
          "internalType": "address",
          "name": "_borrower",
          "type": "address"
        },
        {
          "internalType": "address",
          "name": "_asset",
          "type": "address"
        }
      ],
      "name": "liquidateDebt",
      "outputs": [],
      "stateMutability": "nonpayable",
      "type": "function"
    },
    {
      "inputs": [],
      "name": "owner",
      "outputs": [
        {
          "internalType": "address",
          "name": "",
          "type": "address"
        }
      ],
      "stateMutability": "view",
      "type": "function"
    },
    {
      "inputs": [],
      "name": "priceFeed",
      "outputs": [
        {
          "internalType": "address",
          "name": "",
          "type": "address"
        }
      ],
      "stateMutability": "view",
      "type": "function"
    },
    {
      "inputs": [],
      "name": "proxiableUUID",
      "outputs": [
        {
          "internalType": "bytes32",
          "name": "",
          "type": "bytes32"
        }
      ],
      "stateMutability": "view",
      "type": "function"
    },
    {
      "inputs": [],
      "name": "renounceOwnership",
      "outputs": [],
      "stateMutability": "nonpayable",
      "type": "function"
    },
    {
      "inputs": [
        {
          "internalType": "address[]",
          "name": "_addresses",
          "type": "address[]"
        }
      ],
      "name": "setAddresses",
      "outputs": [],
      "stateMutability": "nonpayable",
      "type": "function"
    },
    {
      "inputs": [
        {
          "internalType": "address",
          "name": "_communityIssuance",
          "type": "address"
        }
      ],
      "name": "setCommunityIssuance",
      "outputs": [],
      "stateMutability": "nonpayable",
      "type": "function"
    },
    {
      "inputs": [
        {
          "internalType": "address",
          "name": "_trenStaking",
          "type": "address"
        }
      ],
      "name": "setTRENStaking",
      "outputs": [],
      "stateMutability": "nonpayable",
      "type": "function"
    },
    {
      "inputs": [
        {
          "internalType": "address",
          "name": "_borrower",
          "type": "address"
        },
        {
          "internalType": "address",
          "name": "_asset",
          "type": "address"
        },
        {
          "internalType": "uint256",
          "name": "_paybackFraction",
          "type": "uint256"
        }
      ],
      "name": "simulateRefund",
      "outputs": [
        {
          "internalType": "uint256",
          "name": "",
          "type": "uint256"
        }
      ],
      "stateMutability": "view",
      "type": "function"
    },
    {
      "inputs": [],
      "name": "sortedTrenBoxes",
      "outputs": [
        {
          "internalType": "address",
          "name": "",
          "type": "address"
        }
      ],
      "stateMutability": "view",
      "type": "function"
    },
    {
      "inputs": [],
      "name": "stabilityPool",
      "outputs": [
        {
          "internalType": "address",
          "name": "",
          "type": "address"
        }
      ],
      "stateMutability": "view",
      "type": "function"
    },
    {
      "inputs": [],
      "name": "timelockAddress",
      "outputs": [
        {
          "internalType": "address",
          "name": "",
          "type": "address"
        }
      ],
      "stateMutability": "view",
      "type": "function"
    },
    {
      "inputs": [
        {
          "internalType": "address",
          "name": "newOwner",
          "type": "address"
        }
      ],
      "name": "transferOwnership",
      "outputs": [],
      "stateMutability": "nonpayable",
      "type": "function"
    },
    {
      "inputs": [],
      "name": "treasuryAddress",
      "outputs": [
        {
          "internalType": "address",
          "name": "",
          "type": "address"
        }
      ],
      "stateMutability": "view",
      "type": "function"
    },
    {
      "inputs": [],
      "name": "trenBoxManager",
      "outputs": [
        {
          "internalType": "address",
          "name": "",
          "type": "address"
        }
      ],
      "stateMutability": "view",
      "type": "function"
    },
    {
      "inputs": [],
      "name": "trenBoxManagerOperations",
      "outputs": [
        {
          "internalType": "address",
          "name": "",
          "type": "address"
        }
      ],
      "stateMutability": "view",
      "type": "function"
    },
    {
      "inputs": [],
      "name": "trenStaking",
      "outputs": [
        {
          "internalType": "address",
          "name": "",
          "type": "address"
        }
      ],
      "stateMutability": "view",
      "type": "function"
    },
    {
      "inputs": [
        {
          "internalType": "address",
          "name": "newImplementation",
          "type": "address"
        },
        {
          "internalType": "bytes",
          "name": "data",
          "type": "bytes"
        }
      ],
      "name": "upgradeToAndCall",
      "outputs": [],
      "stateMutability": "payable",
      "type": "function"
    }
  ],
  "transactionHash": "0xaf80196bfe0f35801aa30474ce26441dd6b9c0d12cbe66a50050f7d272eefb24",
  "args": [],
  "numDeployments": 1,
  "solcInputHash": "76f2ac0d2a40f527e6541dfc9894b953",
  "bytecode": "0x60a06040523060805234801561001457600080fd5b506080516128a061003e60003960008181611909015281816119320152611a7301526128a06000f3fe60806040526004361061025c5760003560e01c8063871d814511610144578063c5f956af116100b6578063ed60f1881161007a578063ed60f18814610782578063f1c05a7e146107a2578063f2fde38b146107c2578063f8d89898146107e2578063fe06073314610802578063fe9d03231461082257600080fd5b8063c5f956af146106d6578063c8564c62146106f6578063cc8b21e414610727578063cda775f914610747578063d0224e6c1461076757600080fd5b8063a3f4df7e11610108578063a3f4df7e146105e0578063aa36069d14610625578063ad3cb1cc14610645578063b957172114610676578063c05c5e9414610696578063c415b95c146106b657600080fd5b8063871d8145146104ea5780638da5cb5b1461050a57806395fb16bb1461054757806398768db2146105675780639f802fb81461057e57600080fd5b806352d1902d116101dd57806373c9bde0116101a157806373c9bde01461044b578063741bef1a146104605780637693ccdb1461048057806377553ad4146104955780637f7dde4a146104b55780638129fc1c146104d557600080fd5b806352d1902d146103c157806355dafa46146103d65780636a85d67d146103f65780636de2449214610416578063715018a61461043657600080fd5b80634169467d116102245780634169467d1461032057806341c7a5ee146103405780634a7919571461036e5780634bc66f321461038e5780634f1ef286146103ae57600080fd5b806301c9310014610261578063048c661d146102835780630833c62d146102c05780630a34d4d6146102e05780633cc7422514610300575b600080fd5b34801561026d57600080fd5b5061028161027c366004612410565b610842565b005b34801561028f57600080fd5b50600d546102a3906001600160a01b031681565b6040516001600160a01b0390911681526020015b60405180910390f35b3480156102cc57600080fd5b506102816102db366004612477565b610893565b3480156102ec57600080fd5b506011546102a3906001600160a01b031681565b34801561030c57600080fd5b506006546102a3906001600160a01b031681565b34801561032c57600080fd5b506008546102a3906001600160a01b031681565b34801561034c57600080fd5b5061036061035b3660046124e3565b6109de565b6040519081526020016102b7565b34801561037a57600080fd5b5061028161038936600461251f565b610b21565b34801561039a57600080fd5b50600e546102a3906001600160a01b031681565b6102816103bc36600461255f565b610c8a565b3480156103cd57600080fd5b50610360610ca9565b3480156103e257600080fd5b50600a546102a3906001600160a01b031681565b34801561040257600080fd5b50610281610411366004612410565b610cc6565b34801561042257600080fd5b506102816104313660046124e3565b610d17565b34801561044257600080fd5b50610281610db8565b34801561045757600080fd5b506102a3610dcc565b34801561046c57600080fd5b50600b546102a3906001600160a01b031681565b34801561048c57600080fd5b50610360600781565b3480156104a157600080fd5b506002546102a3906001600160a01b031681565b3480156104c157600080fd5b506000546102a3906001600160a01b031681565b3480156104e157600080fd5b50610281610e5e565b3480156104f657600080fd5b50610281610505366004612621565b610f77565b34801561051657600080fd5b507f9016d09d72d40fdae2fd8ceac6b6234c7706214fd39c1cd1e609a0528c199300546001600160a01b03166102a3565b34801561055357600080fd5b506004546102a3906001600160a01b031681565b34801561057357600080fd5b5061036062e6b68081565b34801561058a57600080fd5b506105c5610599366004612621565b603360209081526000928352604080842090915290825290208054600182015460029092015490919083565b604080519384526020840192909252908201526060016102b7565b3480156105ec57600080fd5b506106186040518060400160405280600c81526020016b2332b2a1b7b63632b1ba37b960a11b81525081565b6040516102b79190612678565b34801561063157600080fd5b50610281610640366004612621565b610fed565b34801561065157600080fd5b50610618604051806040016040528060058152602001640352e302e360dc1b81525081565b34801561068257600080fd5b506102816106913660046126ab565b611091565b3480156106a257600080fd5b506001546102a3906001600160a01b031681565b3480156106c257600080fd5b506007546102a3906001600160a01b031681565b3480156106e257600080fd5b50600f546102a3906001600160a01b031681565b34801561070257600080fd5b5060115461071790600160a01b900460ff1681565b60405190151581526020016102b7565b34801561073357600080fd5b50600c546102a3906001600160a01b031681565b34801561075357600080fd5b506003546102a3906001600160a01b031681565b34801561077357600080fd5b506103606688a490a601540081565b34801561078e57600080fd5b5061028161079d3660046124e3565b61160d565b3480156107ae57600080fd5b506010546102a3906001600160a01b031681565b3480156107ce57600080fd5b506102816107dd366004612410565b61167b565b3480156107ee57600080fd5b506005546102a3906001600160a01b031681565b34801561080e57600080fd5b5061028161081d366004612410565b6116b9565b34801561082e57600080fd5b506009546102a3906001600160a01b031681565b61084a6116c2565b6001600160a01b038116610871576040516385d3330760e01b815260040160405180910390fd5b600a80546001600160a01b0319166001600160a01b0392909216919091179055565b8281811415806108a1575080155b156108bf57604051631a04c91160e01b815260040160405180910390fd5b4260005b828110156109d55760008787838181106108df576108df6126ed565b90506020020160208101906108f49190612410565b9050600086868481811061090a5761090a6126ed565b905060200201602081019061091f9190612410565b6001600160a01b03808416600090815260336020908152604080832093851683529290529081208054600182015460028301549495509193610961929061171d565b905080156109c557600081836002015461097b9190612719565b6002840181905587845590506109928585846117a1565b6000805160206128548339815191528585898660010154856040516109bb95949392919061272c565b60405180910390a1505b5050600190920191506108c39050565b50505050505050565b6000670de0b6b3a7640000821115610a115760405162461bcd60e51b8152600401610a089061275d565b60405180910390fd5b81600003610a615760405162461bcd60e51b815260206004820152601f60248201527f5061796261636b206672616374696f6e2063616e6e6f74206265207a65726f006044820152606401610a08565b6001600160a01b03808516600090815260336020908152604080832093871683529290522060028101541580610a9a5750428160010154105b15610aa9576000915050610b1a565b6000610ac282600001548360010154846002015461171d565b905083670de0b6b3a764000003610aec57808260020154610ae39190612719565b92505050610b1a565b670de0b6b3a764000084828460020154610b069190612719565b610b1091906127b0565b610ae391906127c7565b9392505050565b6010546001600160a01b03163314610b6157601054604051636545048760e01b81523360048201526001600160a01b039091166024820152604401610a08565b600160009054906101000a90046001600160a01b03166001600160a01b031663650aabe26040518163ffffffff1660e01b8152600401602060405180830381865afa158015610bb4573d6000803e3d6000fd5b505050506040513d601f19601f82011682018060405250810190610bd891906127e9565b15610c4457600a546040516330a8d47360e11b81526001600160a01b0384811660048301526024820184905290911690636151a8e690604401600060405180830381600087803b158015610c2b57600080fd5b505af1158015610c3f573d6000803e3d6000fd5b505050505b604080516001600160a01b0384168152602081018390527fcf74743fee8ef45d0f775d63c2e7129e1aec29d2ce0222e2d979104c29210481910160405180910390a15050565b610c926118fe565b610c9b826119a3565b610ca582826119ab565b5050565b6000610cb3611a68565b5060008051602061287483398151915290565b610cce6116c2565b6001600160a01b038116610cf55760405163706ebc6560e11b815260040160405180910390fd5b600480546001600160a01b0319166001600160a01b0392909216919091179055565b6002546001600160a01b03163314610d575760025460405163428f391560e11b81523360048201526001600160a01b039091166024820152604401610a08565b6000670de0b6b3a7640000610d73836688a490a60154006127b0565b610d7d91906127c7565b90506000610d8b8284612719565b90506000610d9a868684611ab1565b9050610db08686610dab848761280b565b6117a1565b505050505050565b610dc06116c2565b610dca6000611b29565b565b6001546040805163328555f160e11b815290516000926001600160a01b03169163650aabe29160048083019260209291908290030181865afa158015610e16573d6000803e3d6000fd5b505050506040513d601f19601f82011682018060405250810190610e3a91906127e9565b610e4e5750600f546001600160a01b031690565b50600a546001600160a01b031690565b7ff0c57e16840df040f15088dc2f81fe391c3923bec73e23a9662efc9c229c6a008054600160401b810460ff16159067ffffffffffffffff16600081158015610ea45750825b905060008267ffffffffffffffff166001148015610ec15750303b155b905081158015610ecf575080155b15610eed5760405163f92ee8a960e01b815260040160405180910390fd5b845467ffffffffffffffff191660011785558315610f1757845460ff60401b1916600160401b1785555b33610f2181611b9a565b610f29611bab565b508315610f7057845460ff60401b19168555604051600181527fc7f505b2f371ae2175ee4913f4499e1f2633a7b5936321eed1cdaeb6115181d29060200160405180910390a15b5050505050565b6002546001600160a01b03163314801590610f9d57506010546001600160a01b03163314155b15610fda5760025460105460405163bea6c3fd60e01b81523360048201526001600160a01b03928316602482015291166044820152606401610a08565b610ca58282670de0b6b3a7640000611bb3565b6010546001600160a01b0316331461102d57601054604051636545048760e01b81523360048201526001600160a01b039091166024820152604401610a08565b6001600160a01b03808316600090815260336020908152604080832093851683529281529082902082516060810184528154815260018201549281019290925260020154918101829052901561108c5761108c83838360400151611e09565b505050565b6110996116c2565b601154600160a01b900460ff16156110c357604051625f22e960e41b815260040160405180910390fd5b601081146110e457604051633f5a111d60e21b815260040160405180910390fd5b60005b6010811015611182576000838383818110611104576111046126ed565b90506020020160208101906111199190612410565b6001600160a01b03160361117a578083838381811061113a5761113a6126ed565b905060200201602081019061114f9190612410565b604051630d9d339f60e01b815260048101929092526001600160a01b03166024820152604401610a08565b6001016110e7565b5081816000818110611196576111966126ed565b90506020020160208101906111ab9190612410565b600080546001600160a01b0319166001600160a01b0392909216919091179055818160018181106111de576111de6126ed565b90506020020160208101906111f39190612410565b600180546001600160a01b0319166001600160a01b039290921691909117905581816002818110611226576112266126ed565b905060200201602081019061123b9190612410565b600280546001600160a01b0319166001600160a01b03929092169190911790558181600381811061126e5761126e6126ed565b90506020020160208101906112839190612410565b600380546001600160a01b0319166001600160a01b0392909216919091179055818160048181106112b6576112b66126ed565b90506020020160208101906112cb9190612410565b600580546001600160a01b0319166001600160a01b0392909216919091178155829082908181106112fe576112fe6126ed565b90506020020160208101906113139190612410565b600680546001600160a01b0319166001600160a01b039290921691909117815582908290818110611346576113466126ed565b905060200201602081019061135b9190612410565b600780546001600160a01b0319166001600160a01b03929092169190911781558290829081811061138e5761138e6126ed565b90506020020160208101906113a39190612410565b600880546001600160a01b0319166001600160a01b0392909216919091178155829082908181106113d6576113d66126ed565b90506020020160208101906113eb9190612410565b600980546001600160a01b0319166001600160a01b03929092169190911781558290829081811061141e5761141e6126ed565b90506020020160208101906114339190612410565b600b80546001600160a01b0319166001600160a01b03929092169190911790558181600a818110611466576114666126ed565b905060200201602081019061147b9190612410565b600c80546001600160a01b0319166001600160a01b03929092169190911790558181600b8181106114ae576114ae6126ed565b90506020020160208101906114c39190612410565b600d80546001600160a01b0319166001600160a01b03929092169190911790558181600c8181106114f6576114f66126ed565b905060200201602081019061150b9190612410565b600e80546001600160a01b0319166001600160a01b03929092169190911790558181600d81811061153e5761153e6126ed565b90506020020160208101906115539190612410565b600f80546001600160a01b0319166001600160a01b03929092169190911790558181600e818110611586576115866126ed565b905060200201602081019061159b9190612410565b601080546001600160a01b0319166001600160a01b03929092169190911790558181600f8181106115ce576115ce6126ed565b90506020020160208101906115e39190612410565b601180546001600160a81b0319166001600160a01b039290921691909117600160a01b1790555050565b6002546001600160a01b0316331480159061163357506010546001600160a01b03163314155b156116705760025460105460405163bea6c3fd60e01b81523360048201526001600160a01b03928316602482015291166044820152606401610a08565b61108c838383611bb3565b6116836116c2565b6001600160a01b0381166116ad57604051631e4fbdf760e01b815260006004820152602401610a08565b6116b681611b29565b50565b6116b6816119a3565b336116f47f9016d09d72d40fdae2fd8ceac6b6234c7706214fd39c1cd1e609a0528c199300546001600160a01b031690565b6001600160a01b031614610dca5760405163118cdaa760e01b8152336004820152602401610a08565b60004280851115611732576000915050610b1a565b8381106117425782915050610b1a565b633b9aca0060006117538787612719565b905060006117618885612719565b905060008261177085896127b0565b61177a91906127c7565b905060008461178983856127b0565b61179391906127c7565b9a9950505050505050505050565b801561108c5760006117b1610dcc565b6005549091506117cb906001600160a01b03168284611e7c565b600160009054906101000a90046001600160a01b03166001600160a01b031663650aabe26040518163ffffffff1660e01b8152600401602060405180830381865afa15801561181e573d6000803e3d6000fd5b505050506040513d601f19601f8201168201806040525081019061184291906127e9565b156118a657600a5460405163a035160d60e01b8152600481018490526001600160a01b039091169063a035160d90602401600060405180830381600087803b15801561188d57600080fd5b505af11580156118a1573d6000803e3d6000fd5b505050505b604080516001600160a01b03868116825285811660208301528316818301526060810184905290517f3e7be0af9d546b20a6a2e91e4151659dfcad117daa1df79e78d17c5ad2f45b769181900360800190a150505050565b306001600160a01b037f000000000000000000000000000000000000000000000000000000000000000016148061198557507f00000000000000000000000000000000000000000000000000000000000000006001600160a01b0316611979600080516020612874833981519152546001600160a01b031690565b6001600160a01b031614155b15610dca5760405163703e46dd60e11b815260040160405180910390fd5b6116b66116c2565b816001600160a01b03166352d1902d6040518163ffffffff1660e01b8152600401602060405180830381865afa925050508015611a05575060408051601f3d908101601f19168201909252611a029181019061281e565b60015b611a2d57604051634c9c8ce360e01b81526001600160a01b0383166004820152602401610a08565b6000805160206128748339815191528114611a5e57604051632a87526960e21b815260048101829052602401610a08565b61108c8383611ece565b306001600160a01b037f00000000000000000000000000000000000000000000000000000000000000001614610dca5760405163703e46dd60e11b815260040160405180910390fd5b6001600160a01b038084166000908152603360209081526040808320938616835292905290812060028101548203611af457611aef85858584611f24565b611b21565b42816001015411611b125780600201549150611aef85858584611f24565b611b1e85858584611f99565b91505b509392505050565b7f9016d09d72d40fdae2fd8ceac6b6234c7706214fd39c1cd1e609a0528c19930080546001600160a01b031981166001600160a01b03848116918217845560405192169182907f8be0079c531659141344cd1fd0a4f28419497f9722a3daafe3b4186f6b6457e090600090a3505050565b611ba2612064565b6116b6816120ad565b610dca612064565b42670de0b6b3a7640000821115611bdc5760405162461bcd60e51b8152600401610a089061275d565b81600003611c2c5760405162461bcd60e51b815260206004820152601f60248201527f5061796261636b206672616374696f6e2063616e6e6f74206265207a65726f006044820152606401610a08565b6001600160a01b03808516600090815260336020908152604080832093871683529290529081206002810154909103611c66575050505050565b81816001015411611c8557611c8085858360020154611e09565b610f70565b6000611c9e82600001548360010154846002015461171d565b9050611cab8686836117a1565b83670de0b6b3a764000003611d67576000818360020154611ccc9190612719565b600554604051635cad563b60e11b8152600481018390529192506001600160a01b03169063b95aac7690602401600060405180830381600087803b158015611d1357600080fd5b505af1158015611d27573d6000803e3d6000fd5b50506000600286018190556040516000805160206128548339815191529350611d5992508a918a91899190819061272c565b60405180910390a150610db0565b6000670de0b6b3a764000085838560020154611d839190612719565b611d8d91906127b0565b611d9791906127c7565b9050611da48787836120b5565b600081838560020154611db79190612719565b611dc19190612719565b60028501819055858555600185015460405191925060008051602061285483398151915291611df7918b918b918a91879061272c565b60405180910390a15050505050505050565b611e148383836117a1565b6001600160a01b038084166000908152603360209081526040808320938616835292905281812081815560018101829055600201819055905160008051602061285483398151915291611e6f9186918691429190819061272c565b60405180910390a1505050565b604080516001600160a01b038416602482015260448082018490528251808303909101815260649091019091526020810180516001600160e01b031663a9059cbb60e01b17905261108c90849061211a565b611ed78261217d565b6040516001600160a01b038316907fbc7cd75a20ee27fd9adebab32041f755214dbc6bffa90cc0225b39da2e5c2d3b90600090a2805115611f1c5761108c82826121e2565b610ca561225a565b6000611f346007620151806127b0565b611f3e904261280b565b90506000611f4f62e6b6808361280b565b600284018590558284556001840181905560405190915060008051602061285483398151915290611f899088908890869086908a9061272c565b60405180910390a1505050505050565b80546000904290811015611fab575081545b6000611fc484600001548560010154866002015461171d565b90506000818560020154611fd89190612719565b90506000838660010154611fec9190612719565b90506000611ffa888461280b565b9050600061200984848b612279565b612013908761280b565b60028901839055868955600189018190556040519091506000805160206128548339815191529061204d908d908d908a908690889061272c565b60405180910390a150929998505050505050505050565b7ff0c57e16840df040f15088dc2f81fe391c3923bec73e23a9662efc9c229c6a0054600160401b900460ff16610dca57604051631afcd79f60e31b815260040160405180910390fd5b611683612064565b801561108c576005546120d2906001600160a01b03168483611e7c565b604080516001600160a01b038086168252841660208201529081018290527f70930c4d7c90caf6befd84368a02f1e5493c254095e7d3c5b5105922befb92e590606001611e6f565b600061212f6001600160a01b038416836122c4565b9050805160001415801561215457508080602001905181019061215291906127e9565b155b1561108c57604051635274afe760e01b81526001600160a01b0384166004820152602401610a08565b806001600160a01b03163b6000036121b357604051634c9c8ce360e01b81526001600160a01b0382166004820152602401610a08565b60008051602061287483398151915280546001600160a01b0319166001600160a01b0392909216919091179055565b6060600080846001600160a01b0316846040516121ff9190612837565b600060405180830381855af49150503d806000811461223a576040519150601f19603f3d011682016040523d82523d6000602084013e61223f565b606091505b509150915061224f8583836122d2565b925050505b92915050565b3415610dca5760405163b398979f60e01b815260040160405180910390fd5b60008061228684866127b0565b9050600061229762e6b680856127b0565b905060006122a5858861280b565b6122af838561280b565b6122b991906127c7565b979650505050505050565b6060610b1a8383600061232e565b6060826122e7576122e2826123cb565b610b1a565b81511580156122fe57506001600160a01b0384163b155b1561232757604051639996b31560e01b81526001600160a01b0385166004820152602401610a08565b5080610b1a565b6060814710156123535760405163cd78605960e01b8152306004820152602401610a08565b600080856001600160a01b0316848660405161236f9190612837565b60006040518083038185875af1925050503d80600081146123ac576040519150601f19603f3d011682016040523d82523d6000602084013e6123b1565b606091505b50915091506123c18683836122d2565b9695505050505050565b8051156123db5780518082602001fd5b604051630a12f52160e11b815260040160405180910390fd5b80356001600160a01b038116811461240b57600080fd5b919050565b60006020828403121561242257600080fd5b610b1a826123f4565b60008083601f84011261243d57600080fd5b50813567ffffffffffffffff81111561245557600080fd5b6020830191508360208260051b850101111561247057600080fd5b9250929050565b6000806000806040858703121561248d57600080fd5b843567ffffffffffffffff808211156124a557600080fd5b6124b18883890161242b565b909650945060208701359150808211156124ca57600080fd5b506124d78782880161242b565b95989497509550505050565b6000806000606084860312156124f857600080fd5b612501846123f4565b925061250f602085016123f4565b9150604084013590509250925092565b6000806040838503121561253257600080fd5b61253b836123f4565b946020939093013593505050565b634e487b7160e01b600052604160045260246000fd5b6000806040838503121561257257600080fd5b61257b836123f4565b9150602083013567ffffffffffffffff8082111561259857600080fd5b818501915085601f8301126125ac57600080fd5b8135818111156125be576125be612549565b604051601f8201601f19908116603f011681019083821181831017156125e6576125e6612549565b816040528281528860208487010111156125ff57600080fd5b8260208601602083013760006020848301015280955050505050509250929050565b6000806040838503121561263457600080fd5b61263d836123f4565b915061264b602084016123f4565b90509250929050565b60005b8381101561266f578181015183820152602001612657565b50506000910152565b6020815260008251806020840152612697816040850160208701612654565b601f01601f19169190910160400192915050565b600080602083850312156126be57600080fd5b823567ffffffffffffffff8111156126d557600080fd5b6126e18582860161242b565b90969095509350505050565b634e487b7160e01b600052603260045260246000fd5b634e487b7160e01b600052601160045260246000fd5b8181038181111561225457612254612703565b6001600160a01b03958616815293909416602084015260408301919091526060820152608081019190915260a00190565b60208082526033908201527f5061796261636b206672616374696f6e2063616e6e6f7420626520686967686560408201527272207468616e20312028402031302a2a31382960681b606082015260800190565b808202811582820484141761225457612254612703565b6000826127e457634e487b7160e01b600052601260045260246000fd5b500490565b6000602082840312156127fb57600080fd5b81518015158114610b1a57600080fd5b8082018082111561225457612254612703565b60006020828403121561283057600080fd5b5051919050565b60008251612849818460208701612654565b919091019291505056fe6f0b61812a1954a00351239cba469186147c5b10a1b12ed7f226dc5c1aaafa23360894a13ba1a3210667c828492db98dca3e2076cc3735a920a3ca505d382bbca164736f6c6343000817000a",
  "devdoc": {
    "errors": {
      "AddressEmptyCode(address)": [
        {
          "details": "There's no code at `target` (it is not a contract)."
        }
      ],
      "AddressInsufficientBalance(address)": [
        {
          "details": "The ETH balance of the account is not enough to perform the operation."
        }
      ],
      "ERC1967InvalidImplementation(address)": [
        {
          "details": "The `implementation` of the proxy is invalid."
        }
      ],
      "ERC1967NonPayable()": [
        {
          "details": "An upgrade function sees `msg.value > 0` that may be lost."
        }
      ],
      "FailedInnerCall()": [
        {
          "details": "A call to an address target failed. The target may have reverted."
        }
      ],
      "InvalidInitialization()": [
        {
          "details": "The contract is already initialized."
        }
      ],
      "NotInitializing()": [
        {
          "details": "The contract is not initializing."
        }
      ],
      "OwnableInvalidOwner(address)": [
        {
          "details": "The owner is not a valid owner account. (eg. `address(0)`)"
        }
      ],
      "OwnableUnauthorizedAccount(address)": [
        {
          "details": "The caller account is not authorized to perform an operation."
        }
      ],
      "SafeERC20FailedOperation(address)": [
        {
          "details": "An operation with an ERC20 token failed."
        }
      ],
      "UUPSUnauthorizedCallContext()": [
        {
          "details": "The call is from an unauthorized context."
        }
      ],
      "UUPSUnsupportedProxiableUUID(bytes32)": [
        {
          "details": "The storage `slot` is unsupported as a UUID."
        }
      ]
    },
    "events": {
      "Initialized(uint64)": {
        "details": "Triggered when the contract has been initialized or reinitialized."
      },
      "Upgraded(address)": {
        "details": "Emitted when the implementation is upgraded."
      }
    },
    "kind": "dev",
    "methods": {
      "owner()": {
        "details": "Returns the address of the current owner."
      },
      "proxiableUUID()": {
        "details": "Implementation of the ERC1822 {proxiableUUID} function. This returns the storage slot used by the implementation. It is used to validate the implementation's compatibility when performing an upgrade. IMPORTANT: A proxy pointing at a proxiable contract should not be considered proxiable itself, because this risks bricking a proxy that upgrades to it, by delegating to itself until out of gas. Thus it is critical that this function revert if invoked through a proxy. This is guaranteed by the `notDelegated` modifier."
      },
      "renounceOwnership()": {
        "details": "Leaves the contract without owner. It will not be possible to call `onlyOwner` functions. Can only be called by the current owner. NOTE: Renouncing ownership will leave the contract without an owner, thereby disabling any functionality that is only available to the owner."
      },
      "transferOwnership(address)": {
        "details": "Transfers ownership of the contract to a new account (`newOwner`). Can only be called by the current owner."
      },
      "upgradeToAndCall(address,bytes)": {
        "custom:oz-upgrades-unsafe-allow-reachable": "delegatecall",
        "details": "Upgrade the implementation of the proxy to `newImplementation`, and subsequently execute the function call encoded in `data`. Calls {_authorizeUpgrade}. Emits an {Upgraded} event."
      }
    },
    "version": 1
  },
  "userdoc": {
    "kind": "user",
    "methods": {
      "closeDebt(address,address)": {
        "notice": "Triggered when a debt is paid in full."
      },
      "collectFees(address[],address[])": {
        "notice": "Batch collect fees from an array of borrowers/assets."
      },
      "decreaseDebt(address,address,uint256)": {
        "notice": "Triggered when a trenBox is adjusted or closed (and the borrower has paid back/decreased his loan)."
      },
      "increaseDebt(address,address,uint256)": {
        "notice": "Triggered when a trenBox is created and again whenever the borrower acquires additional loans. Collects the minimum fee to the platform, for which there is no refund; holds on to the remaining fees until debt is paid, liquidated, or expired. Attention: this method assumes that (debt token) _feeAmount has already been minted and transferred to this contract."
      },
      "liquidateDebt(address,address)": {
        "notice": "Triggered when a trenBox is liquidated; in that case, all remaining fees are collected by the platform, and no refunds are generated."
      },
      "simulateRefund(address,address,uint256)": {
        "notice": "Simulates the refund due -if- trenBox would be closed at this moment (helper function used by the UI)."
      }
    },
    "version": 1
  },
  "storageLayout": {
    "storage": [
      {
        "astId": 10031,
        "contract": "contracts/FeeCollector.sol:FeeCollector",
        "label": "activePool",
        "offset": 0,
        "slot": "0",
        "type": "t_address"
      },
      {
        "astId": 10033,
        "contract": "contracts/FeeCollector.sol:FeeCollector",
        "label": "adminContract",
        "offset": 0,
        "slot": "1",
        "type": "t_address"
      },
      {
        "astId": 10035,
        "contract": "contracts/FeeCollector.sol:FeeCollector",
        "label": "borrowerOperations",
        "offset": 0,
        "slot": "2",
        "type": "t_address"
      },
      {
        "astId": 10037,
        "contract": "contracts/FeeCollector.sol:FeeCollector",
        "label": "collSurplusPool",
        "offset": 0,
        "slot": "3",
        "type": "t_address"
      },
      {
        "astId": 10039,
        "contract": "contracts/FeeCollector.sol:FeeCollector",
        "label": "communityIssuance",
        "offset": 0,
        "slot": "4",
        "type": "t_address"
      },
      {
        "astId": 10041,
        "contract": "contracts/FeeCollector.sol:FeeCollector",
        "label": "debtToken",
        "offset": 0,
        "slot": "5",
        "type": "t_address"
      },
      {
        "astId": 10043,
        "contract": "contracts/FeeCollector.sol:FeeCollector",
        "label": "defaultPool",
        "offset": 0,
        "slot": "6",
        "type": "t_address"
      },
      {
        "astId": 10045,
        "contract": "contracts/FeeCollector.sol:FeeCollector",
        "label": "feeCollector",
        "offset": 0,
        "slot": "7",
        "type": "t_address"
      },
      {
        "astId": 10047,
        "contract": "contracts/FeeCollector.sol:FeeCollector",
        "label": "flashLoanAddress",
        "offset": 0,
        "slot": "8",
        "type": "t_address"
      },
      {
        "astId": 10049,
        "contract": "contracts/FeeCollector.sol:FeeCollector",
        "label": "gasPoolAddress",
        "offset": 0,
        "slot": "9",
        "type": "t_address"
      },
      {
        "astId": 10051,
        "contract": "contracts/FeeCollector.sol:FeeCollector",
        "label": "trenStaking",
        "offset": 0,
        "slot": "10",
        "type": "t_address"
      },
      {
        "astId": 10053,
        "contract": "contracts/FeeCollector.sol:FeeCollector",
        "label": "priceFeed",
        "offset": 0,
        "slot": "11",
        "type": "t_address"
      },
      {
        "astId": 10055,
        "contract": "contracts/FeeCollector.sol:FeeCollector",
        "label": "sortedTrenBoxes",
        "offset": 0,
        "slot": "12",
        "type": "t_address"
      },
      {
        "astId": 10057,
        "contract": "contracts/FeeCollector.sol:FeeCollector",
        "label": "stabilityPool",
        "offset": 0,
        "slot": "13",
        "type": "t_address"
      },
      {
        "astId": 10059,
        "contract": "contracts/FeeCollector.sol:FeeCollector",
        "label": "timelockAddress",
        "offset": 0,
        "slot": "14",
        "type": "t_address"
      },
      {
        "astId": 10061,
        "contract": "contracts/FeeCollector.sol:FeeCollector",
        "label": "treasuryAddress",
        "offset": 0,
        "slot": "15",
        "type": "t_address"
      },
      {
        "astId": 10063,
        "contract": "contracts/FeeCollector.sol:FeeCollector",
        "label": "trenBoxManager",
        "offset": 0,
        "slot": "16",
        "type": "t_address"
      },
      {
        "astId": 10065,
        "contract": "contracts/FeeCollector.sol:FeeCollector",
        "label": "trenBoxManagerOperations",
        "offset": 0,
        "slot": "17",
        "type": "t_address"
      },
      {
        "astId": 10067,
        "contract": "contracts/FeeCollector.sol:FeeCollector",
        "label": "isAddressSetupInitialized",
        "offset": 20,
        "slot": "17",
        "type": "t_bool"
      },
      {
        "astId": 10072,
        "contract": "contracts/FeeCollector.sol:FeeCollector",
        "label": "__gap",
        "offset": 0,
        "slot": "18",
        "type": "t_array(t_uint256)33_storage"
      },
      {
        "astId": 10930,
        "contract": "contracts/FeeCollector.sol:FeeCollector",
        "label": "feeRecords",
        "offset": 0,
        "slot": "51",
        "type": "t_mapping(t_address,t_mapping(t_address,t_struct(FeeRecord)13368_storage))"
      }
    ],
    "types": {
      "t_address": {
        "encoding": "inplace",
        "label": "address",
        "numberOfBytes": "20"
      },
      "t_array(t_uint256)33_storage": {
        "base": "t_uint256",
        "encoding": "inplace",
        "label": "uint256[33]",
        "numberOfBytes": "1056"
      },
      "t_bool": {
        "encoding": "inplace",
        "label": "bool",
        "numberOfBytes": "1"
      },
      "t_mapping(t_address,t_mapping(t_address,t_struct(FeeRecord)13368_storage))": {
        "encoding": "mapping",
        "key": "t_address",
        "label": "mapping(address => mapping(address => struct IFeeCollector.FeeRecord))",
        "numberOfBytes": "32",
        "value": "t_mapping(t_address,t_struct(FeeRecord)13368_storage)"
      },
      "t_mapping(t_address,t_struct(FeeRecord)13368_storage)": {
        "encoding": "mapping",
        "key": "t_address",
        "label": "mapping(address => struct IFeeCollector.FeeRecord)",
        "numberOfBytes": "32",
        "value": "t_struct(FeeRecord)13368_storage"
      },
      "t_struct(FeeRecord)13368_storage": {
        "encoding": "inplace",
        "label": "struct IFeeCollector.FeeRecord",
        "members": [
          {
            "astId": 13363,
            "contract": "contracts/FeeCollector.sol:FeeCollector",
            "label": "from",
            "offset": 0,
            "slot": "0",
            "type": "t_uint256"
          },
          {
            "astId": 13365,
            "contract": "contracts/FeeCollector.sol:FeeCollector",
            "label": "to",
            "offset": 0,
            "slot": "1",
            "type": "t_uint256"
          },
          {
            "astId": 13367,
            "contract": "contracts/FeeCollector.sol:FeeCollector",
            "label": "amount",
            "offset": 0,
            "slot": "2",
            "type": "t_uint256"
          }
        ],
        "numberOfBytes": "96"
      },
      "t_uint256": {
        "encoding": "inplace",
        "label": "uint256",
        "numberOfBytes": "32"
      }
    }
  }
}