{
  "address": "0x6E102f77De343e23d7d3088e55EE6f64e6E25bd2",
  "abi": [
    {
      "inputs": [
        {
          "internalType": "address",
          "name": "target",
          "type": "address"
        }
      ],
      "name": "AddressEmptyCode",
      "type": "error"
    },
    {
      "inputs": [],
      "name": "ConfigurableAddresses__CommunityIssuanceZeroAddress",
      "type": "error"
    },
    {
      "inputs": [],
      "name": "ConfigurableAddresses__LengthMismatch",
      "type": "error"
    },
    {
      "inputs": [],
      "name": "ConfigurableAddresses__SetupIsInitialized",
      "type": "error"
    },
    {
      "inputs": [],
      "name": "ConfigurableAddresses__TRENStakingZeroAddress",
      "type": "error"
    },
    {
      "inputs": [
        {
          "internalType": "uint256",
          "name": "position",
          "type": "uint256"
        },
        {
          "internalType": "address",
          "name": "address_",
          "type": "address"
        }
      ],
      "name": "ConfigurableAddresses__ZeroAddresses",
      "type": "error"
    },
    {
      "inputs": [
        {
          "internalType": "address",
          "name": "implementation",
          "type": "address"
        }
      ],
      "name": "ERC1967InvalidImplementation",
      "type": "error"
    },
    {
      "inputs": [],
      "name": "ERC1967NonPayable",
      "type": "error"
    },
    {
      "inputs": [],
      "name": "FailedInnerCall",
      "type": "error"
    },
    {
      "inputs": [],
      "name": "InvalidInitialization",
      "type": "error"
    },
    {
      "inputs": [],
      "name": "NotInitializing",
      "type": "error"
    },
    {
      "inputs": [
        {
          "internalType": "address",
          "name": "owner",
          "type": "address"
        }
      ],
      "name": "OwnableInvalidOwner",
      "type": "error"
    },
    {
      "inputs": [
        {
          "internalType": "address",
          "name": "account",
          "type": "address"
        }
      ],
      "name": "OwnableUnauthorizedAccount",
      "type": "error"
    },
    {
      "inputs": [],
      "name": "PriceFeedL2__SequencerDown",
      "type": "error"
    },
    {
      "inputs": [],
      "name": "PriceFeedL2__SequencerGracePeriodNotOver",
      "type": "error"
    },
    {
      "inputs": [],
      "name": "PriceFeedL2__SequencerZeroAddress",
      "type": "error"
    },
    {
      "inputs": [],
      "name": "PriceFeed__ExistingOracleRequired",
      "type": "error"
    },
    {
      "inputs": [],
      "name": "PriceFeed__InvalidDecimalsError",
      "type": "error"
    },
    {
      "inputs": [
        {
          "internalType": "address",
          "name": "token",
          "type": "address"
        }
      ],
      "name": "PriceFeed__InvalidOracleResponseError",
      "type": "error"
    },
    {
      "inputs": [],
      "name": "PriceFeed__TimelockOnlyError",
      "type": "error"
    },
    {
      "inputs": [],
      "name": "PriceFeed__UnknownAssetError",
      "type": "error"
    },
    {
      "inputs": [],
      "name": "UUPSUnauthorizedCallContext",
      "type": "error"
    },
    {
      "inputs": [
        {
          "internalType": "bytes32",
          "name": "slot",
          "type": "bytes32"
        }
      ],
      "name": "UUPSUnsupportedProxiableUUID",
      "type": "error"
    },
    {
      "anonymous": false,
      "inputs": [
        {
          "indexed": false,
          "internalType": "uint64",
          "name": "version",
          "type": "uint64"
        }
      ],
      "name": "Initialized",
      "type": "event"
    },
    {
      "anonymous": false,
      "inputs": [
        {
          "indexed": false,
          "internalType": "address",
          "name": "token",
          "type": "address"
        },
        {
          "indexed": false,
          "internalType": "address",
          "name": "oracleAddress",
          "type": "address"
        },
        {
          "indexed": false,
          "internalType": "bool",
          "name": "isEthIndexed",
          "type": "bool"
        },
        {
          "indexed": false,
          "internalType": "bool",
          "name": "isFallback",
          "type": "bool"
        }
      ],
      "name": "NewOracleRegistered",
      "type": "event"
    },
    {
      "anonymous": false,
      "inputs": [
        {
          "indexed": true,
          "internalType": "address",
          "name": "previousOwner",
          "type": "address"
        },
        {
          "indexed": true,
          "internalType": "address",
          "name": "newOwner",
          "type": "address"
        }
      ],
      "name": "OwnershipTransferred",
      "type": "event"
    },
    {
      "anonymous": false,
      "inputs": [
        {
          "indexed": false,
          "internalType": "address",
          "name": "_sequencerUptimeFeed",
          "type": "address"
        }
      ],
      "name": "SequencerUptimeFeedUpdated",
      "type": "event"
    },
    {
      "anonymous": false,
      "inputs": [
        {
          "indexed": true,
          "internalType": "address",
          "name": "implementation",
          "type": "address"
        }
      ],
      "name": "Upgraded",
      "type": "event"
    },
    {
      "inputs": [],
      "name": "NAME",
      "outputs": [
        {
          "internalType": "string",
          "name": "",
          "type": "string"
        }
      ],
      "stateMutability": "view",
      "type": "function"
    },
    {
      "inputs": [],
      "name": "SEQUENCER_BORROWING_DELAY_SECONDS",
      "outputs": [
        {
          "internalType": "uint256",
          "name": "",
          "type": "uint256"
        }
      ],
      "stateMutability": "view",
      "type": "function"
    },
    {
      "inputs": [],
      "name": "SEQUENCER_LIQUIDATION_DELAY_SECONDS",
      "outputs": [
        {
          "internalType": "uint256",
          "name": "",
          "type": "uint256"
        }
      ],
      "stateMutability": "view",
      "type": "function"
    },
    {
      "inputs": [],
      "name": "TARGET_DIGITS",
      "outputs": [
        {
          "internalType": "uint256",
          "name": "",
          "type": "uint256"
        }
      ],
      "stateMutability": "view",
      "type": "function"
    },
    {
      "inputs": [],
      "name": "UPGRADE_INTERFACE_VERSION",
      "outputs": [
        {
          "internalType": "string",
          "name": "",
          "type": "string"
        }
      ],
      "stateMutability": "view",
      "type": "function"
    },
    {
      "inputs": [],
      "name": "activePool",
      "outputs": [
        {
          "internalType": "address",
          "name": "",
          "type": "address"
        }
      ],
      "stateMutability": "view",
      "type": "function"
    },
    {
      "inputs": [],
      "name": "adminContract",
      "outputs": [
        {
          "internalType": "address",
          "name": "",
          "type": "address"
        }
      ],
      "stateMutability": "view",
      "type": "function"
    },
    {
      "inputs": [
        {
          "internalType": "address",
          "name": "newImplementation",
          "type": "address"
        }
      ],
      "name": "authorizeUpgrade",
      "outputs": [],
      "stateMutability": "nonpayable",
      "type": "function"
    },
    {
      "inputs": [],
      "name": "borrowerOperations",
      "outputs": [
        {
          "internalType": "address",
          "name": "",
          "type": "address"
        }
      ],
      "stateMutability": "view",
      "type": "function"
    },
    {
      "inputs": [],
      "name": "collSurplusPool",
      "outputs": [
        {
          "internalType": "address",
          "name": "",
          "type": "address"
        }
      ],
      "stateMutability": "view",
      "type": "function"
    },
    {
      "inputs": [],
      "name": "communityIssuance",
      "outputs": [
        {
          "internalType": "address",
          "name": "",
          "type": "address"
        }
      ],
      "stateMutability": "view",
      "type": "function"
    },
    {
      "inputs": [],
      "name": "debtToken",
      "outputs": [
        {
          "internalType": "address",
          "name": "",
          "type": "address"
        }
      ],
      "stateMutability": "view",
      "type": "function"
    },
    {
      "inputs": [],
      "name": "defaultPool",
      "outputs": [
        {
          "internalType": "address",
          "name": "",
          "type": "address"
        }
      ],
      "stateMutability": "view",
      "type": "function"
    },
    {
      "inputs": [
        {
          "internalType": "address",
          "name": "token",
          "type": "address"
        }
      ],
      "name": "fallbacks",
      "outputs": [
        {
          "internalType": "address",
          "name": "oracleAddress",
          "type": "address"
        },
        {
          "internalType": "enum IPriceFeed.ProviderType",
          "name": "providerType",
          "type": "uint8"
        },
        {
          "internalType": "uint256",
          "name": "timeoutSeconds",
          "type": "uint256"
        },
        {
          "internalType": "uint256",
          "name": "decimals",
          "type": "uint256"
        },
        {
          "internalType": "bool",
          "name": "isEthIndexed",
          "type": "bool"
        }
      ],
      "stateMutability": "view",
      "type": "function"
    },
    {
      "inputs": [],
      "name": "feeCollector",
      "outputs": [
        {
          "internalType": "address",
          "name": "",
          "type": "address"
        }
      ],
      "stateMutability": "view",
      "type": "function"
    },
    {
      "inputs": [
        {
          "internalType": "address",
          "name": "_token",
          "type": "address"
        }
      ],
      "name": "fetchPrice",
      "outputs": [
        {
          "internalType": "uint256",
          "name": "",
          "type": "uint256"
        }
      ],
      "stateMutability": "view",
      "type": "function"
    },
    {
      "inputs": [],
      "name": "flashLoanAddress",
      "outputs": [
        {
          "internalType": "address",
          "name": "",
          "type": "address"
        }
      ],
      "stateMutability": "view",
      "type": "function"
    },
    {
      "inputs": [],
      "name": "gasPoolAddress",
      "outputs": [
        {
          "internalType": "address",
          "name": "",
          "type": "address"
        }
      ],
      "stateMutability": "view",
      "type": "function"
    },
    {
      "inputs": [],
      "name": "initialize",
      "outputs": [],
      "stateMutability": "nonpayable",
      "type": "function"
    },
    {
      "inputs": [],
      "name": "isAddressSetupInitialized",
      "outputs": [
        {
          "internalType": "bool",
          "name": "",
          "type": "bool"
        }
      ],
      "stateMutability": "view",
      "type": "function"
    },
    {
      "inputs": [
        {
          "internalType": "address",
          "name": "token",
          "type": "address"
        }
      ],
      "name": "oracles",
      "outputs": [
        {
          "internalType": "address",
          "name": "oracleAddress",
          "type": "address"
        },
        {
          "internalType": "enum IPriceFeed.ProviderType",
          "name": "providerType",
          "type": "uint8"
        },
        {
          "internalType": "uint256",
          "name": "timeoutSeconds",
          "type": "uint256"
        },
        {
          "internalType": "uint256",
          "name": "decimals",
          "type": "uint256"
        },
        {
          "internalType": "bool",
          "name": "isEthIndexed",
          "type": "bool"
        }
      ],
      "stateMutability": "view",
      "type": "function"
    },
    {
      "inputs": [],
      "name": "owner",
      "outputs": [
        {
          "internalType": "address",
          "name": "",
          "type": "address"
        }
      ],
      "stateMutability": "view",
      "type": "function"
    },
    {
      "inputs": [],
      "name": "priceFeed",
      "outputs": [
        {
          "internalType": "address",
          "name": "",
          "type": "address"
        }
      ],
      "stateMutability": "view",
      "type": "function"
    },
    {
      "inputs": [],
      "name": "proxiableUUID",
      "outputs": [
        {
          "internalType": "bytes32",
          "name": "",
          "type": "bytes32"
        }
      ],
      "stateMutability": "view",
      "type": "function"
    },
    {
      "inputs": [],
      "name": "renounceOwnership",
      "outputs": [],
      "stateMutability": "nonpayable",
      "type": "function"
    },
    {
      "inputs": [],
      "name": "sequencerUptimeFeedAddress",
      "outputs": [
        {
          "internalType": "address",
          "name": "",
          "type": "address"
        }
      ],
      "stateMutability": "view",
      "type": "function"
    },
    {
      "inputs": [
        {
          "internalType": "address[]",
          "name": "_addresses",
          "type": "address[]"
        }
      ],
      "name": "setAddresses",
      "outputs": [],
      "stateMutability": "nonpayable",
      "type": "function"
    },
    {
      "inputs": [
        {
          "internalType": "address",
          "name": "_communityIssuance",
          "type": "address"
        }
      ],
      "name": "setCommunityIssuance",
      "outputs": [],
      "stateMutability": "nonpayable",
      "type": "function"
    },
    {
      "inputs": [
        {
          "internalType": "address",
          "name": "_token",
          "type": "address"
        },
        {
          "internalType": "address",
          "name": "_oracle",
          "type": "address"
        },
        {
          "internalType": "enum IPriceFeed.ProviderType",
          "name": "_type",
          "type": "uint8"
        },
        {
          "internalType": "uint256",
          "name": "_timeoutSeconds",
          "type": "uint256"
        },
        {
          "internalType": "bool",
          "name": "_isEthIndexed",
          "type": "bool"
        },
        {
          "internalType": "bool",
          "name": "_isFallback",
          "type": "bool"
        }
      ],
      "name": "setOracle",
      "outputs": [],
      "stateMutability": "nonpayable",
      "type": "function"
    },
    {
      "inputs": [
        {
          "internalType": "address",
          "name": "_sequencerUptimeFeedAddress",
          "type": "address"
        }
      ],
      "name": "setSequencerUptimeFeedAddress",
      "outputs": [],
      "stateMutability": "nonpayable",
      "type": "function"
    },
    {
      "inputs": [
        {
          "internalType": "address",
          "name": "_trenStaking",
          "type": "address"
        }
      ],
      "name": "setTRENStaking",
      "outputs": [],
      "stateMutability": "nonpayable",
      "type": "function"
    },
    {
      "inputs": [],
      "name": "sortedTrenBoxes",
      "outputs": [
        {
          "internalType": "address",
          "name": "",
          "type": "address"
        }
      ],
      "stateMutability": "view",
      "type": "function"
    },
    {
      "inputs": [],
      "name": "stabilityPool",
      "outputs": [
        {
          "internalType": "address",
          "name": "",
          "type": "address"
        }
      ],
      "stateMutability": "view",
      "type": "function"
    },
    {
      "inputs": [],
      "name": "timelockAddress",
      "outputs": [
        {
          "internalType": "address",
          "name": "",
          "type": "address"
        }
      ],
      "stateMutability": "view",
      "type": "function"
    },
    {
      "inputs": [
        {
          "internalType": "address",
          "name": "newOwner",
          "type": "address"
        }
      ],
      "name": "transferOwnership",
      "outputs": [],
      "stateMutability": "nonpayable",
      "type": "function"
    },
    {
      "inputs": [],
      "name": "treasuryAddress",
      "outputs": [
        {
          "internalType": "address",
          "name": "",
          "type": "address"
        }
      ],
      "stateMutability": "view",
      "type": "function"
    },
    {
      "inputs": [],
      "name": "trenBoxManager",
      "outputs": [
        {
          "internalType": "address",
          "name": "",
          "type": "address"
        }
      ],
      "stateMutability": "view",
      "type": "function"
    },
    {
      "inputs": [],
      "name": "trenBoxManagerOperations",
      "outputs": [
        {
          "internalType": "address",
          "name": "",
          "type": "address"
        }
      ],
      "stateMutability": "view",
      "type": "function"
    },
    {
      "inputs": [],
      "name": "trenStaking",
      "outputs": [
        {
          "internalType": "address",
          "name": "",
          "type": "address"
        }
      ],
      "stateMutability": "view",
      "type": "function"
    },
    {
      "inputs": [
        {
          "internalType": "address",
          "name": "newImplementation",
          "type": "address"
        },
        {
          "internalType": "bytes",
          "name": "data",
          "type": "bytes"
        }
      ],
      "name": "upgradeToAndCall",
      "outputs": [],
      "stateMutability": "payable",
      "type": "function"
    }
  ],
  "transactionHash": "0x432d8fdd2d8a342002c741a6f92ae9f63124bc742d102bb029a82a475af49a48",
  "args": [],
  "numDeployments": 1,
  "solcInputHash": "76f2ac0d2a40f527e6541dfc9894b953",
  "bytecode": "0x60a06040523060805234801561001457600080fd5b506080516122dd61003e600039600081816113aa015281816113d3015261151901526122dd6000f3fe60806040526004361061023b5760003560e01c80638da5cb5b1161012e578063c5f956af116100ab578063f2fde38b1161006f578063f2fde38b14610764578063f8d8989814610784578063fcca7fd1146107a4578063fe060733146107c4578063fe9d0323146107e457600080fd5b8063c5f956af146106b3578063c8564c62146106d3578063cc8b21e414610704578063cda775f914610724578063f1c05a7e1461074457600080fd5b8063ad3cb1cc116100f2578063ad3cb1cc146105c9578063addd5099146105fa578063b957172114610653578063c05c5e9414610673578063c415b95c1461069357600080fd5b80638da5cb5b146104f457806395fb16bb14610531578063a1486e3414610551578063a3f4df7e14610567578063ace1798e146105a957600080fd5b80634f1ef286116101bc578063715018a611610180578063715018a61461046a578063741bef1a1461047f57806377553ad41461049f5780637f7dde4a146104bf5780638129fc1c146104df57600080fd5b80634f1ef286146103ec57806352d1902d146103ff57806355dafa46146104145780635da854ec146104345780636a85d67d1461044a57600080fd5b806326256c0b1161020357806326256c0b146103025780633a8c0fc31461036c5780633cc742251461038c5780634169467d146103ac5780634bc66f32146103cc57600080fd5b806301c9310014610240578063048c661d146102625780630a34d4d61461029f5780631643b77d146102bf5780631be5c92f146102df575b600080fd5b34801561024c57600080fd5b5061026061025b366004611e6d565b610804565b005b34801561026e57600080fd5b50600d54610282906001600160a01b031681565b6040516001600160a01b0390911681526020015b60405180910390f35b3480156102ab57600080fd5b50601154610282906001600160a01b031681565b3480156102cb57600080fd5b506102606102da366004611e6d565b610855565b3480156102eb57600080fd5b506102f4601281565b604051908152602001610296565b34801561030e57600080fd5b5061035b61031d366004611e6d565b60346020526000908152604090208054600182015460028301546003909301546001600160a01b0383169360ff600160a01b90940484169390911685565b604051610296959493929190611e9e565b34801561037857600080fd5b50603554610282906001600160a01b031681565b34801561039857600080fd5b50600654610282906001600160a01b031681565b3480156103b857600080fd5b50600854610282906001600160a01b031681565b3480156103d857600080fd5b50600e54610282906001600160a01b031681565b6102606103fa366004611f06565b610918565b34801561040b57600080fd5b506102f4610937565b34801561042057600080fd5b50600a54610282906001600160a01b031681565b34801561044057600080fd5b506102f4610e1081565b34801561045657600080fd5b50610260610465366004611e6d565b610954565b34801561047657600080fd5b506102606109a5565b34801561048b57600080fd5b50600b54610282906001600160a01b031681565b3480156104ab57600080fd5b50600254610282906001600160a01b031681565b3480156104cb57600080fd5b50600054610282906001600160a01b031681565b3480156104eb57600080fd5b506102606109b9565b34801561050057600080fd5b507f9016d09d72d40fdae2fd8ceac6b6234c7706214fd39c1cd1e609a0528c199300546001600160a01b0316610282565b34801561053d57600080fd5b50600454610282906001600160a01b031681565b34801561055d57600080fd5b506102f4611c2081565b34801561057357600080fd5b5061059c60405180604001604052806009815260200168141c9a58d95199595960ba1b81525081565b6040516102969190611fec565b3480156105b557600080fd5b506102f46105c4366004611e6d565b610ad2565b3480156105d557600080fd5b5061059c604051806040016040528060058152602001640352e302e360dc1b81525081565b34801561060657600080fd5b5061035b610615366004611e6d565b60336020526000908152604090208054600182015460028301546003909301546001600160a01b0383169360ff600160a01b90940484169390911685565b34801561065f57600080fd5b5061026061066e36600461201f565b610aeb565b34801561067f57600080fd5b50600154610282906001600160a01b031681565b34801561069f57600080fd5b50600754610282906001600160a01b031681565b3480156106bf57600080fd5b50600f54610282906001600160a01b031681565b3480156106df57600080fd5b506011546106f490600160a01b900460ff1681565b6040519015158152602001610296565b34801561071057600080fd5b50600c54610282906001600160a01b031681565b34801561073057600080fd5b50600354610282906001600160a01b031681565b34801561075057600080fd5b50601054610282906001600160a01b031681565b34801561077057600080fd5b5061026061077f366004611e6d565b61106c565b34801561079057600080fd5b50600554610282906001600160a01b031681565b3480156107b057600080fd5b506102606107bf3660046120a4565b6110aa565b3480156107d057600080fd5b506102606107df366004611e6d565b61133b565b3480156107f057600080fd5b50600954610282906001600160a01b031681565b61080c611344565b6001600160a01b038116610833576040516385d3330760e01b815260040160405180910390fd5b600a80546001600160a01b0319166001600160a01b0392909216919091179055565b6001600160a01b03811661087c5760405163cc058dfb60e01b815260040160405180910390fd5b6035546001600160a01b031661089957610894611344565b6108c4565b600e546001600160a01b031633146108c457604051633bc92b2160e01b815260040160405180910390fd5b603580546001600160a01b0319166001600160a01b0383169081179091556040519081527f32db38c7b3e5c8341ceb63fa1ae4ce0ba937b716427686f76033425ef435341a9060200160405180910390a150565b61092061139f565b61092982611444565b610933828261144c565b5050565b600061094161150e565b506000805160206122b183398151915290565b61095c611344565b6001600160a01b0381166109835760405163706ebc6560e11b815260040160405180910390fd5b600480546001600160a01b0319166001600160a01b0392909216919091179055565b6109ad611344565b6109b76000611557565b565b7ff0c57e16840df040f15088dc2f81fe391c3923bec73e23a9662efc9c229c6a008054600160401b810460ff16159067ffffffffffffffff166000811580156109ff5750825b905060008267ffffffffffffffff166001148015610a1c5750303b155b905081158015610a2a575080155b15610a485760405163f92ee8a960e01b815260040160405180910390fd5b845467ffffffffffffffff191660011785558315610a7257845460ff60401b1916600160401b1785555b33610a7c816115c8565b610a846115d9565b508315610acb57845460ff60401b19168555604051600181527fc7f505b2f371ae2175ee4913f4499e1f2633a7b5936321eed1cdaeb6115181d29060200160405180910390a15b5050505050565b6000610adc6115e1565b610ae5826116e7565b92915050565b610af3611344565b601154600160a01b900460ff1615610b1d57604051625f22e960e41b815260040160405180910390fd5b60108114610b3e57604051633f5a111d60e21b815260040160405180910390fd5b60005b6010811015610be1576000838383818110610b5e57610b5e612117565b9050602002016020810190610b739190611e6d565b6001600160a01b031603610bd95780838383818110610b9457610b94612117565b9050602002016020810190610ba99190611e6d565b604051630d9d339f60e01b815260048101929092526001600160a01b031660248201526044015b60405180910390fd5b600101610b41565b5081816000818110610bf557610bf5612117565b9050602002016020810190610c0a9190611e6d565b600080546001600160a01b0319166001600160a01b039290921691909117905581816001818110610c3d57610c3d612117565b9050602002016020810190610c529190611e6d565b600180546001600160a01b0319166001600160a01b039290921691909117905581816002818110610c8557610c85612117565b9050602002016020810190610c9a9190611e6d565b600280546001600160a01b0319166001600160a01b039290921691909117905581816003818110610ccd57610ccd612117565b9050602002016020810190610ce29190611e6d565b600380546001600160a01b0319166001600160a01b039290921691909117905581816004818110610d1557610d15612117565b9050602002016020810190610d2a9190611e6d565b600580546001600160a01b0319166001600160a01b039290921691909117815582908290818110610d5d57610d5d612117565b9050602002016020810190610d729190611e6d565b600680546001600160a01b0319166001600160a01b039290921691909117815582908290818110610da557610da5612117565b9050602002016020810190610dba9190611e6d565b600780546001600160a01b0319166001600160a01b039290921691909117815582908290818110610ded57610ded612117565b9050602002016020810190610e029190611e6d565b600880546001600160a01b0319166001600160a01b039290921691909117815582908290818110610e3557610e35612117565b9050602002016020810190610e4a9190611e6d565b600980546001600160a01b0319166001600160a01b039290921691909117815582908290818110610e7d57610e7d612117565b9050602002016020810190610e929190611e6d565b600b80546001600160a01b0319166001600160a01b03929092169190911790558181600a818110610ec557610ec5612117565b9050602002016020810190610eda9190611e6d565b600c80546001600160a01b0319166001600160a01b03929092169190911790558181600b818110610f0d57610f0d612117565b9050602002016020810190610f229190611e6d565b600d80546001600160a01b0319166001600160a01b03929092169190911790558181600c818110610f5557610f55612117565b9050602002016020810190610f6a9190611e6d565b600e80546001600160a01b0319166001600160a01b03929092169190911790558181600d818110610f9d57610f9d612117565b9050602002016020810190610fb29190611e6d565b600f80546001600160a01b0319166001600160a01b03929092169190911790558181600e818110610fe557610fe5612117565b9050602002016020810190610ffa9190611e6d565b601080546001600160a01b0319166001600160a01b03929092169190911790558181600f81811061102d5761102d612117565b90506020020160208101906110429190611e6d565b601180546001600160a81b0319166001600160a01b039290921691909117600160a01b1790555050565b611074611344565b6001600160a01b03811661109e57604051631e4fbdf760e01b815260006004820152602401610bd0565b6110a781611557565b50565b6110b48682611870565b8080156110d957506001600160a01b0386811660009081526033602052604090205416155b156110f757604051634a0e0c3b60e11b815260040160405180910390fd5b600061110386866118f2565b60ff169050806000036111295760405163ee65a7e560e01b815260040160405180910390fd5b60006040518060a00160405280886001600160a01b0316815260200187600181111561115757611157611e88565b81526020018681526020018381526020018515158152509050600061117b826119a0565b9050806000036111a95760405163283f5cb560e01b81526001600160a01b038a166004820152602401610bd0565b8315611248576001600160a01b03808a1660009081526034602090815260409091208451815493166001600160a01b03198416811782559185015185939192909183916001600160a81b031990911617600160a01b83600181111561121057611210611e88565b021790555060408201516001820155606082015160028201556080909101516003909101805460ff19169115159190911790556112dd565b6001600160a01b03808a1660009081526033602090815260409091208451815493166001600160a01b03198416811782559185015185939192909183916001600160a81b031990911617600160a01b8360018111156112a9576112a9611e88565b021790555060408201516001820155606082015160028201556080909101516003909101805460ff19169115159190911790555b604080516001600160a01b038b811682528a16602082015286151581830152851515606082015290517fcbde3c20c68ba036ef9cd1c074d075187be3640bc7a5b3fb85f045b07ab9a9309181900360800190a1505050505050505050565b6110a781611444565b336113767f9016d09d72d40fdae2fd8ceac6b6234c7706214fd39c1cd1e609a0528c199300546001600160a01b031690565b6001600160a01b0316146109b75760405163118cdaa760e01b8152336004820152602401610bd0565b306001600160a01b037f000000000000000000000000000000000000000000000000000000000000000016148061142657507f00000000000000000000000000000000000000000000000000000000000000006001600160a01b031661141a6000805160206122b1833981519152546001600160a01b031690565b6001600160a01b031614155b156109b75760405163703e46dd60e11b815260040160405180910390fd5b6110a7611344565b816001600160a01b03166352d1902d6040518163ffffffff1660e01b8152600401602060405180830381865afa9250505080156114a6575060408051601f3d908101601f191682019092526114a39181019061212d565b60015b6114ce57604051634c9c8ce360e01b81526001600160a01b0383166004820152602401610bd0565b6000805160206122b183398151915281146114ff57604051632a87526960e21b815260048101829052602401610bd0565b6115098383611a66565b505050565b306001600160a01b037f000000000000000000000000000000000000000000000000000000000000000016146109b75760405163703e46dd60e11b815260040160405180910390fd5b7f9016d09d72d40fdae2fd8ceac6b6234c7706214fd39c1cd1e609a0528c19930080546001600160a01b031981166001600160a01b03848116918217845560405192169182907f8be0079c531659141344cd1fd0a4f28419497f9722a3daafe3b4186f6b6457e090600090a3505050565b6115d0611abc565b6110a781611b05565b6109b7611abc565b6035546001600160a01b0316156109b757600080603560009054906101000a90046001600160a01b03166001600160a01b031663feaf968c6040518163ffffffff1660e01b815260040160a060405180830381865afa158015611648573d6000803e3d6000fd5b505050506040513d601f19601f8201168201806040525081019061166c9190612160565b509194509092505082159050806116965760405163b94e943b60e01b815260040160405180910390fd5b6011546000906001600160a01b031633036116b45750611c206116b9565b50610e105b60006116c584426121c6565b9050818111610acb5760405163d458f4b960e01b815260040160405180910390fd5b6001600160a01b038181166000908152603360209081526040808320815160a0810190925280549485168252929384939192830190600160a01b900460ff16600181111561173757611737611e88565b600181111561174857611748611e88565b8152600182015460208201526002820154604082015260039091015460ff1615156060909101529050600061177c826119a0565b905080156117a4578160800151611793578061179c565b61179c81611b0d565b949350505050565b6001600160a01b03848116600090815260346020908152604091829020825160a0810190935280549384168352919290830190600160a01b900460ff1660018111156117f2576117f2611e88565b600181111561180357611803611e88565b8152600182015460208201526002820154604082015260039091015460ff1615156060909101529150611835826119a0565b9050801561184c578160800151611793578061179c565b60405163283f5cb560e01b81526001600160a01b0385166004820152602401610bd0565b600081611894576001600160a01b03831660009081526033602052604090206118ad565b6001600160a01b03831660009081526034602052604090205b80549091506001600160a01b03166118c757611509611344565b600e546001600160a01b0316331461150957604051633bc92b2160e01b815260040160405180910390fd5b600081600181111561190657611906611e88565b60000361197657826001600160a01b031663313ce5676040518163ffffffff1660e01b8152600401602060405180830381865afa15801561194b573d6000803e3d6000fd5b505050506040513d601f19601f8201168201806040525081019061196f91906121d9565b9050610ae5565b81600181111561198857611988611e88565b60010361199757506012610ae5565b50600092915050565b8051600090819081906001600160a01b03166119cf57604051632e054cdf60e21b815260040160405180910390fd5b836020015160018111156119e5576119e5611e88565b600003611a015783516119f790611b40565b9092509050611a2f565b83602001516001811115611a1757611a17611e88565b600103611a2f578351611a2990611be7565b90925090505b8115801590611a495750611a47818560400151611c75565b155b15611a5c5761179c828560600151611c8a565b5060009392505050565b611a6f82611cd2565b6040516001600160a01b038316907fbc7cd75a20ee27fd9adebab32041f755214dbc6bffa90cc0225b39da2e5c2d3b90600090a2805115611ab4576115098282611d37565b610933611dad565b7ff0c57e16840df040f15088dc2f81fe391c3923bec73e23a9662efc9c229c6a0054600160401b900460ff166109b757604051631afcd79f60e31b815260040160405180910390fd5b611074611abc565b600080611b1a6000610ad2565b9050670de0b6b3a7640000611b2f84836121fc565b611b399190612229565b9392505050565b600080826001600160a01b031663feaf968c6040518163ffffffff1660e01b815260040160a060405180830381865afa925050508015611b9d575060408051601f3d908101601f19168201909252611b9a91810190612160565b60015b611bac57506000905080915091565b69ffffffffffffffffffff851615801590611bc657508115155b8015611bd157508315155b15611bdd578396508195505b5050505050915091565b600080600080846001600160a01b03166357de26a46040518163ffffffff1660e01b81526004016040805180830381865afa158015611c2a573d6000803e3d6000fd5b505050506040513d601f19601f82011682018060405250810190611c4e919061224b565b63ffffffff1691509150600082601b0b1315611c6e5781601b0b93508092505b5050915091565b600081611c8284426121c6565b119392505050565b60006012821115611cb25760128203600a0a8381611caa57611caa612213565b049050610ae5565b6012821015611ccb5781601203600a0a83029050610ae5565b5090919050565b806001600160a01b03163b600003611d0857604051634c9c8ce360e01b81526001600160a01b0382166004820152602401610bd0565b6000805160206122b183398151915280546001600160a01b0319166001600160a01b0392909216919091179055565b6060600080846001600160a01b031684604051611d549190612294565b600060405180830381855af49150503d8060008114611d8f576040519150601f19603f3d011682016040523d82523d6000602084013e611d94565b606091505b5091509150611da4858383611dcc565b95945050505050565b34156109b75760405163b398979f60e01b815260040160405180910390fd5b606082611de157611ddc82611e28565b611b39565b8151158015611df857506001600160a01b0384163b155b15611e2157604051639996b31560e01b81526001600160a01b0385166004820152602401610bd0565b5092915050565b805115611e385780518082602001fd5b604051630a12f52160e11b815260040160405180910390fd5b80356001600160a01b0381168114611e6857600080fd5b919050565b600060208284031215611e7f57600080fd5b611b3982611e51565b634e487b7160e01b600052602160045260246000fd5b6001600160a01b038616815260a0810160028610611ecc57634e487b7160e01b600052602160045260246000fd5b85602083015284604083015283606083015282151560808301529695505050505050565b634e487b7160e01b600052604160045260246000fd5b60008060408385031215611f1957600080fd5b611f2283611e51565b9150602083013567ffffffffffffffff80821115611f3f57600080fd5b818501915085601f830112611f5357600080fd5b813581811115611f6557611f65611ef0565b604051601f8201601f19908116603f01168101908382118183101715611f8d57611f8d611ef0565b81604052828152886020848701011115611fa657600080fd5b8260208601602083013760006020848301015280955050505050509250929050565b60005b83811015611fe3578181015183820152602001611fcb565b50506000910152565b602081526000825180602084015261200b816040850160208701611fc8565b601f01601f19169190910160400192915050565b6000806020838503121561203257600080fd5b823567ffffffffffffffff8082111561204a57600080fd5b818501915085601f83011261205e57600080fd5b81358181111561206d57600080fd5b8660208260051b850101111561208257600080fd5b60209290920196919550909350505050565b80358015158114611e6857600080fd5b60008060008060008060c087890312156120bd57600080fd5b6120c687611e51565b95506120d460208801611e51565b94506040870135600281106120e857600080fd5b9350606087013592506120fd60808801612094565b915061210b60a08801612094565b90509295509295509295565b634e487b7160e01b600052603260045260246000fd5b60006020828403121561213f57600080fd5b5051919050565b805169ffffffffffffffffffff81168114611e6857600080fd5b600080600080600060a0868803121561217857600080fd5b61218186612146565b94506020860151935060408601519250606086015191506121a460808701612146565b90509295509295909350565b634e487b7160e01b600052601160045260246000fd5b81810381811115610ae557610ae56121b0565b6000602082840312156121eb57600080fd5b815160ff81168114611b3957600080fd5b8082028115828204841417610ae557610ae56121b0565b634e487b7160e01b600052601260045260246000fd5b60008261224657634e487b7160e01b600052601260045260246000fd5b500490565b6000806040838503121561225e57600080fd5b825180601b0b811461226f57600080fd5b602084015190925063ffffffff8116811461228957600080fd5b809150509250929050565b600082516122a6818460208701611fc8565b919091019291505056fe360894a13ba1a3210667c828492db98dca3e2076cc3735a920a3ca505d382bbca164736f6c6343000817000a",
  "devdoc": {
    "errors": {
      "AddressEmptyCode(address)": [
        {
          "details": "There's no code at `target` (it is not a contract)."
        }
      ],
      "ERC1967InvalidImplementation(address)": [
        {
          "details": "The `implementation` of the proxy is invalid."
        }
      ],
      "ERC1967NonPayable()": [
        {
          "details": "An upgrade function sees `msg.value > 0` that may be lost."
        }
      ],
      "FailedInnerCall()": [
        {
          "details": "A call to an address target failed. The target may have reverted."
        }
      ],
      "InvalidInitialization()": [
        {
          "details": "The contract is already initialized."
        }
      ],
      "NotInitializing()": [
        {
          "details": "The contract is not initializing."
        }
      ],
      "OwnableInvalidOwner(address)": [
        {
          "details": "The owner is not a valid owner account. (eg. `address(0)`)"
        }
      ],
      "OwnableUnauthorizedAccount(address)": [
        {
          "details": "The caller account is not authorized to perform an operation."
        }
      ],
      "UUPSUnauthorizedCallContext()": [
        {
          "details": "The call is from an unauthorized context."
        }
      ],
      "UUPSUnsupportedProxiableUUID(bytes32)": [
        {
          "details": "The storage `slot` is unsupported as a UUID."
        }
      ]
    },
    "events": {
      "Initialized(uint64)": {
        "details": "Triggered when the contract has been initialized or reinitialized."
      },
      "Upgraded(address)": {
        "details": "Emitted when the implementation is upgraded."
      }
    },
    "kind": "dev",
    "methods": {
      "fetchPrice(address)": {
        "details": "Callers:   - BorrowerOperations.openTrenBox()   - BorrowerOperations.adjustTrenBox()   - BorrowerOperations.closeTrenBox()   - TrenBoxManagerOperations.liquidateTrenBoxes()   - TrenBoxManagerOperations.batchLiquidateTrenBoxes()   - TrenBoxManagerOperations.redeemCollateral()"
      },
      "owner()": {
        "details": "Returns the address of the current owner."
      },
      "proxiableUUID()": {
        "details": "Implementation of the ERC1822 {proxiableUUID} function. This returns the storage slot used by the implementation. It is used to validate the implementation's compatibility when performing an upgrade. IMPORTANT: A proxy pointing at a proxiable contract should not be considered proxiable itself, because this risks bricking a proxy that upgrades to it, by delegating to itself until out of gas. Thus it is critical that this function revert if invoked through a proxy. This is guaranteed by the `notDelegated` modifier."
      },
      "renounceOwnership()": {
        "details": "Leaves the contract without owner. It will not be possible to call `onlyOwner` functions. Can only be called by the current owner. NOTE: Renouncing ownership will leave the contract without an owner, thereby disabling any functionality that is only available to the owner."
      },
      "setSequencerUptimeFeedAddress(address)": {
        "details": "Requires msg.sender to be the contract owner when the sequencer is first set. Subsequent updates need to come through the timelock contract."
      },
      "transferOwnership(address)": {
        "details": "Transfers ownership of the contract to a new account (`newOwner`). Can only be called by the current owner."
      },
      "upgradeToAndCall(address,bytes)": {
        "custom:oz-upgrades-unsafe-allow-reachable": "delegatecall",
        "details": "Upgrade the implementation of the proxy to `newImplementation`, and subsequently execute the function call encoded in `data`. Calls {_authorizeUpgrade}. Emits an {Upgraded} event."
      }
    },
    "stateVariables": {
      "SEQUENCER_BORROWING_DELAY_SECONDS": {
        "details": "after sequencer comes back up, wait for up to X seconds for openTrenBox, adjustTrenBox & closeTrenBox"
      },
      "SEQUENCER_LIQUIDATION_DELAY_SECONDS": {
        "details": "after sequencer comes back up, wait for up to X seconds for redemptions & liquidations"
      }
    },
    "version": 1
  },
  "userdoc": {
    "kind": "user",
    "methods": {},
    "version": 1
  },
  "storageLayout": {
    "storage": [
      {
        "astId": 10031,
        "contract": "contracts/Pricing/PriceFeedL2.sol:PriceFeedL2",
        "label": "activePool",
        "offset": 0,
        "slot": "0",
        "type": "t_address"
      },
      {
        "astId": 10033,
        "contract": "contracts/Pricing/PriceFeedL2.sol:PriceFeedL2",
        "label": "adminContract",
        "offset": 0,
        "slot": "1",
        "type": "t_address"
      },
      {
        "astId": 10035,
        "contract": "contracts/Pricing/PriceFeedL2.sol:PriceFeedL2",
        "label": "borrowerOperations",
        "offset": 0,
        "slot": "2",
        "type": "t_address"
      },
      {
        "astId": 10037,
        "contract": "contracts/Pricing/PriceFeedL2.sol:PriceFeedL2",
        "label": "collSurplusPool",
        "offset": 0,
        "slot": "3",
        "type": "t_address"
      },
      {
        "astId": 10039,
        "contract": "contracts/Pricing/PriceFeedL2.sol:PriceFeedL2",
        "label": "communityIssuance",
        "offset": 0,
        "slot": "4",
        "type": "t_address"
      },
      {
        "astId": 10041,
        "contract": "contracts/Pricing/PriceFeedL2.sol:PriceFeedL2",
        "label": "debtToken",
        "offset": 0,
        "slot": "5",
        "type": "t_address"
      },
      {
        "astId": 10043,
        "contract": "contracts/Pricing/PriceFeedL2.sol:PriceFeedL2",
        "label": "defaultPool",
        "offset": 0,
        "slot": "6",
        "type": "t_address"
      },
      {
        "astId": 10045,
        "contract": "contracts/Pricing/PriceFeedL2.sol:PriceFeedL2",
        "label": "feeCollector",
        "offset": 0,
        "slot": "7",
        "type": "t_address"
      },
      {
        "astId": 10047,
        "contract": "contracts/Pricing/PriceFeedL2.sol:PriceFeedL2",
        "label": "flashLoanAddress",
        "offset": 0,
        "slot": "8",
        "type": "t_address"
      },
      {
        "astId": 10049,
        "contract": "contracts/Pricing/PriceFeedL2.sol:PriceFeedL2",
        "label": "gasPoolAddress",
        "offset": 0,
        "slot": "9",
        "type": "t_address"
      },
      {
        "astId": 10051,
        "contract": "contracts/Pricing/PriceFeedL2.sol:PriceFeedL2",
        "label": "trenStaking",
        "offset": 0,
        "slot": "10",
        "type": "t_address"
      },
      {
        "astId": 10053,
        "contract": "contracts/Pricing/PriceFeedL2.sol:PriceFeedL2",
        "label": "priceFeed",
        "offset": 0,
        "slot": "11",
        "type": "t_address"
      },
      {
        "astId": 10055,
        "contract": "contracts/Pricing/PriceFeedL2.sol:PriceFeedL2",
        "label": "sortedTrenBoxes",
        "offset": 0,
        "slot": "12",
        "type": "t_address"
      },
      {
        "astId": 10057,
        "contract": "contracts/Pricing/PriceFeedL2.sol:PriceFeedL2",
        "label": "stabilityPool",
        "offset": 0,
        "slot": "13",
        "type": "t_address"
      },
      {
        "astId": 10059,
        "contract": "contracts/Pricing/PriceFeedL2.sol:PriceFeedL2",
        "label": "timelockAddress",
        "offset": 0,
        "slot": "14",
        "type": "t_address"
      },
      {
        "astId": 10061,
        "contract": "contracts/Pricing/PriceFeedL2.sol:PriceFeedL2",
        "label": "treasuryAddress",
        "offset": 0,
        "slot": "15",
        "type": "t_address"
      },
      {
        "astId": 10063,
        "contract": "contracts/Pricing/PriceFeedL2.sol:PriceFeedL2",
        "label": "trenBoxManager",
        "offset": 0,
        "slot": "16",
        "type": "t_address"
      },
      {
        "astId": 10065,
        "contract": "contracts/Pricing/PriceFeedL2.sol:PriceFeedL2",
        "label": "trenBoxManagerOperations",
        "offset": 0,
        "slot": "17",
        "type": "t_address"
      },
      {
        "astId": 10067,
        "contract": "contracts/Pricing/PriceFeedL2.sol:PriceFeedL2",
        "label": "isAddressSetupInitialized",
        "offset": 20,
        "slot": "17",
        "type": "t_bool"
      },
      {
        "astId": 10072,
        "contract": "contracts/Pricing/PriceFeedL2.sol:PriceFeedL2",
        "label": "__gap",
        "offset": 0,
        "slot": "18",
        "type": "t_array(t_uint256)33_storage"
      },
      {
        "astId": 14926,
        "contract": "contracts/Pricing/PriceFeedL2.sol:PriceFeedL2",
        "label": "oracles",
        "offset": 0,
        "slot": "51",
        "type": "t_mapping(t_address,t_struct(OracleRecord)13579_storage)"
      },
      {
        "astId": 14931,
        "contract": "contracts/Pricing/PriceFeedL2.sol:PriceFeedL2",
        "label": "fallbacks",
        "offset": 0,
        "slot": "52",
        "type": "t_mapping(t_address,t_struct(OracleRecord)13579_storage)"
      },
      {
        "astId": 15632,
        "contract": "contracts/Pricing/PriceFeedL2.sol:PriceFeedL2",
        "label": "sequencerUptimeFeedAddress",
        "offset": 0,
        "slot": "53",
        "type": "t_address"
      }
    ],
    "types": {
      "t_address": {
        "encoding": "inplace",
        "label": "address",
        "numberOfBytes": "20"
      },
      "t_array(t_uint256)33_storage": {
        "base": "t_uint256",
        "encoding": "inplace",
        "label": "uint256[33]",
        "numberOfBytes": "1056"
      },
      "t_bool": {
        "encoding": "inplace",
        "label": "bool",
        "numberOfBytes": "1"
      },
      "t_enum(ProviderType)13567": {
        "encoding": "inplace",
        "label": "enum IPriceFeed.ProviderType",
        "numberOfBytes": "1"
      },
      "t_mapping(t_address,t_struct(OracleRecord)13579_storage)": {
        "encoding": "mapping",
        "key": "t_address",
        "label": "mapping(address => struct IPriceFeed.OracleRecord)",
        "numberOfBytes": "32",
        "value": "t_struct(OracleRecord)13579_storage"
      },
      "t_struct(OracleRecord)13579_storage": {
        "encoding": "inplace",
        "label": "struct IPriceFeed.OracleRecord",
        "members": [
          {
            "astId": 13569,
            "contract": "contracts/Pricing/PriceFeedL2.sol:PriceFeedL2",
            "label": "oracleAddress",
            "offset": 0,
            "slot": "0",
            "type": "t_address"
          },
          {
            "astId": 13572,
            "contract": "contracts/Pricing/PriceFeedL2.sol:PriceFeedL2",
            "label": "providerType",
            "offset": 20,
            "slot": "0",
            "type": "t_enum(ProviderType)13567"
          },
          {
            "astId": 13574,
            "contract": "contracts/Pricing/PriceFeedL2.sol:PriceFeedL2",
            "label": "timeoutSeconds",
            "offset": 0,
            "slot": "1",
            "type": "t_uint256"
          },
          {
            "astId": 13576,
            "contract": "contracts/Pricing/PriceFeedL2.sol:PriceFeedL2",
            "label": "decimals",
            "offset": 0,
            "slot": "2",
            "type": "t_uint256"
          },
          {
            "astId": 13578,
            "contract": "contracts/Pricing/PriceFeedL2.sol:PriceFeedL2",
            "label": "isEthIndexed",
            "offset": 0,
            "slot": "3",
            "type": "t_bool"
          }
        ],
        "numberOfBytes": "128"
      },
      "t_uint256": {
        "encoding": "inplace",
        "label": "uint256",
        "numberOfBytes": "32"
      }
    }
  }
}