{
  "address": "0xa3f251a94625899cE6ED3E38956DEe74Dfc1a895",
  "abi": [
    {
      "inputs": [
        {
          "internalType": "address",
          "name": "target",
          "type": "address"
        }
      ],
      "name": "AddressEmptyCode",
      "type": "error"
    },
    {
      "inputs": [
        {
          "internalType": "address",
          "name": "account",
          "type": "address"
        }
      ],
      "name": "AddressInsufficientBalance",
      "type": "error"
    },
    {
      "inputs": [],
      "name": "ConfigurableAddresses__CommunityIssuanceZeroAddress",
      "type": "error"
    },
    {
      "inputs": [],
      "name": "ConfigurableAddresses__LengthMismatch",
      "type": "error"
    },
    {
      "inputs": [],
      "name": "ConfigurableAddresses__SetupIsInitialized",
      "type": "error"
    },
    {
      "inputs": [],
      "name": "ConfigurableAddresses__TRENStakingZeroAddress",
      "type": "error"
    },
    {
      "inputs": [
        {
          "internalType": "uint256",
          "name": "position",
          "type": "uint256"
        },
        {
          "internalType": "address",
          "name": "address_",
          "type": "address"
        }
      ],
      "name": "ConfigurableAddresses__ZeroAddresses",
      "type": "error"
    },
    {
      "inputs": [
        {
          "internalType": "address",
          "name": "implementation",
          "type": "address"
        }
      ],
      "name": "ERC1967InvalidImplementation",
      "type": "error"
    },
    {
      "inputs": [],
      "name": "ERC1967NonPayable",
      "type": "error"
    },
    {
      "inputs": [],
      "name": "FailedInnerCall",
      "type": "error"
    },
    {
      "inputs": [],
      "name": "InvalidInitialization",
      "type": "error"
    },
    {
      "inputs": [],
      "name": "NotInitializing",
      "type": "error"
    },
    {
      "inputs": [
        {
          "internalType": "address",
          "name": "owner",
          "type": "address"
        }
      ],
      "name": "OwnableInvalidOwner",
      "type": "error"
    },
    {
      "inputs": [
        {
          "internalType": "address",
          "name": "account",
          "type": "address"
        }
      ],
      "name": "OwnableUnauthorizedAccount",
      "type": "error"
    },
    {
      "inputs": [],
      "name": "ReentrancyGuardReentrantCall",
      "type": "error"
    },
    {
      "inputs": [
        {
          "internalType": "address",
          "name": "token",
          "type": "address"
        }
      ],
      "name": "SafeERC20FailedOperation",
      "type": "error"
    },
    {
      "inputs": [
        {
          "internalType": "address",
          "name": "sender",
          "type": "address"
        },
        {
          "internalType": "address",
          "name": "expected",
          "type": "address"
        }
      ],
      "name": "StabilityPool__ActivePoolOnly",
      "type": "error"
    },
    {
      "inputs": [
        {
          "internalType": "address",
          "name": "sender",
          "type": "address"
        },
        {
          "internalType": "address",
          "name": "expected",
          "type": "address"
        }
      ],
      "name": "StabilityPool__AdminContractOnly",
      "type": "error"
    },
    {
      "inputs": [],
      "name": "StabilityPool__AmountMustBeNonZero",
      "type": "error"
    },
    {
      "inputs": [],
      "name": "StabilityPool__ArrayNotInAscendingOrder",
      "type": "error"
    },
    {
      "inputs": [],
      "name": "StabilityPool__AssetsAndAmountsLengthMismatch",
      "type": "error"
    },
    {
      "inputs": [],
      "name": "StabilityPool__DebtLargerThanTotalDeposits",
      "type": "error"
    },
    {
      "inputs": [
        {
          "internalType": "uint256",
          "name": "debtLoss",
          "type": "uint256"
        }
      ],
      "name": "StabilityPool__DebtLossBelowOne",
      "type": "error"
    },
    {
      "inputs": [],
      "name": "StabilityPool__ProductZero",
      "type": "error"
    },
    {
      "inputs": [
        {
          "internalType": "address",
          "name": "sender",
          "type": "address"
        },
        {
          "internalType": "address",
          "name": "expected",
          "type": "address"
        }
      ],
      "name": "StabilityPool__TrenBoxManagerOnly",
      "type": "error"
    },
    {
      "inputs": [],
      "name": "StabilityPool__UserHasNoDeposit",
      "type": "error"
    },
    {
      "inputs": [
        {
          "internalType": "uint256",
          "name": "feePercentage",
          "type": "uint256"
        },
        {
          "internalType": "uint256",
          "name": "maxFeePercentage",
          "type": "uint256"
        }
      ],
      "name": "TrenBase__FeeExceededMax",
      "type": "error"
    },
    {
      "inputs": [],
      "name": "UUPSUnauthorizedCallContext",
      "type": "error"
    },
    {
      "inputs": [
        {
          "internalType": "bytes32",
          "name": "slot",
          "type": "bytes32"
        }
      ],
      "name": "UUPSUnsupportedProxiableUUID",
      "type": "error"
    },
    {
      "anonymous": false,
      "inputs": [
        {
          "indexed": false,
          "internalType": "address",
          "name": "_asset",
          "type": "address"
        },
        {
          "indexed": false,
          "internalType": "address",
          "name": "_to",
          "type": "address"
        },
        {
          "indexed": false,
          "internalType": "uint256",
          "name": "_amount",
          "type": "uint256"
        }
      ],
      "name": "AssetSent",
      "type": "event"
    },
    {
      "anonymous": false,
      "inputs": [
        {
          "indexed": false,
          "internalType": "address",
          "name": "newAddress",
          "type": "address"
        }
      ],
      "name": "CommunityIssuanceAddressChanged",
      "type": "event"
    },
    {
      "anonymous": false,
      "inputs": [
        {
          "indexed": true,
          "internalType": "address",
          "name": "_depositor",
          "type": "address"
        },
        {
          "indexed": false,
          "internalType": "uint256",
          "name": "_P",
          "type": "uint256"
        },
        {
          "indexed": false,
          "internalType": "uint256",
          "name": "_G",
          "type": "uint256"
        }
      ],
      "name": "DepositSnapshotUpdated",
      "type": "event"
    },
    {
      "anonymous": false,
      "inputs": [
        {
          "indexed": false,
          "internalType": "uint128",
          "name": "_currentEpoch",
          "type": "uint128"
        }
      ],
      "name": "EpochUpdated",
      "type": "event"
    },
    {
      "anonymous": false,
      "inputs": [
        {
          "indexed": false,
          "internalType": "uint256",
          "name": "_G",
          "type": "uint256"
        },
        {
          "indexed": false,
          "internalType": "uint128",
          "name": "_epoch",
          "type": "uint128"
        },
        {
          "indexed": false,
          "internalType": "uint128",
          "name": "_scale",
          "type": "uint128"
        }
      ],
      "name": "GainsUpdated",
      "type": "event"
    },
    {
      "anonymous": false,
      "inputs": [
        {
          "indexed": true,
          "internalType": "address",
          "name": "_depositor",
          "type": "address"
        },
        {
          "indexed": false,
          "internalType": "address[]",
          "name": "_collaterals",
          "type": "address[]"
        },
        {
          "indexed": false,
          "internalType": "uint256[]",
          "name": "_amounts",
          "type": "uint256[]"
        },
        {
          "indexed": false,
          "internalType": "uint256",
          "name": "_debtTokenLoss",
          "type": "uint256"
        }
      ],
      "name": "GainsWithdrawn",
      "type": "event"
    },
    {
      "anonymous": false,
      "inputs": [
        {
          "indexed": false,
          "internalType": "uint64",
          "name": "version",
          "type": "uint64"
        }
      ],
      "name": "Initialized",
      "type": "event"
    },
    {
      "anonymous": false,
      "inputs": [
        {
          "indexed": true,
          "internalType": "address",
          "name": "previousOwner",
          "type": "address"
        },
        {
          "indexed": true,
          "internalType": "address",
          "name": "newOwner",
          "type": "address"
        }
      ],
      "name": "OwnershipTransferred",
      "type": "event"
    },
    {
      "anonymous": false,
      "inputs": [
        {
          "indexed": false,
          "internalType": "uint256",
          "name": "_P",
          "type": "uint256"
        }
      ],
      "name": "ProductUpdated",
      "type": "event"
    },
    {
      "anonymous": false,
      "inputs": [
        {
          "indexed": false,
          "internalType": "uint128",
          "name": "_currentScale",
          "type": "uint128"
        }
      ],
      "name": "ScaleUpdated",
      "type": "event"
    },
    {
      "anonymous": false,
      "inputs": [
        {
          "indexed": false,
          "internalType": "address",
          "name": "_asset",
          "type": "address"
        },
        {
          "indexed": false,
          "internalType": "uint256",
          "name": "_newBalance",
          "type": "uint256"
        }
      ],
      "name": "StabilityPoolAssetBalanceUpdated",
      "type": "event"
    },
    {
      "anonymous": false,
      "inputs": [
        {
          "indexed": false,
          "internalType": "uint256",
          "name": "_newBalance",
          "type": "uint256"
        }
      ],
      "name": "StabilityPoolDebtTokenBalanceUpdated",
      "type": "event"
    },
    {
      "anonymous": false,
      "inputs": [
        {
          "indexed": false,
          "internalType": "uint256",
          "name": "_newSystemStake",
          "type": "uint256"
        },
        {
          "indexed": false,
          "internalType": "address",
          "name": "_depositor",
          "type": "address"
        }
      ],
      "name": "StakeChanged",
      "type": "event"
    },
    {
      "anonymous": false,
      "inputs": [
        {
          "indexed": false,
          "internalType": "address",
          "name": "_asset",
          "type": "address"
        },
        {
          "indexed": false,
          "internalType": "uint256",
          "name": "_S",
          "type": "uint256"
        },
        {
          "indexed": false,
          "internalType": "uint128",
          "name": "_epoch",
          "type": "uint128"
        },
        {
          "indexed": false,
          "internalType": "uint128",
          "name": "_scale",
          "type": "uint128"
        }
      ],
      "name": "SumUpdated",
      "type": "event"
    },
    {
      "anonymous": false,
      "inputs": [
        {
          "indexed": false,
          "internalType": "uint256",
          "name": "_P",
          "type": "uint256"
        },
        {
          "indexed": false,
          "internalType": "uint256",
          "name": "_G",
          "type": "uint256"
        }
      ],
      "name": "SystemSnapshotUpdated",
      "type": "event"
    },
    {
      "anonymous": false,
      "inputs": [
        {
          "indexed": true,
          "internalType": "address",
          "name": "_depositor",
          "type": "address"
        },
        {
          "indexed": false,
          "internalType": "uint256",
          "name": "_TREN",
          "type": "uint256"
        }
      ],
      "name": "TRENPaidToDepositor",
      "type": "event"
    },
    {
      "anonymous": false,
      "inputs": [
        {
          "indexed": true,
          "internalType": "address",
          "name": "implementation",
          "type": "address"
        }
      ],
      "name": "Upgraded",
      "type": "event"
    },
    {
      "anonymous": false,
      "inputs": [
        {
          "indexed": true,
          "internalType": "address",
          "name": "_depositor",
          "type": "address"
        },
        {
          "indexed": false,
          "internalType": "uint256",
          "name": "_newDeposit",
          "type": "uint256"
        }
      ],
      "name": "UserDepositChanged",
      "type": "event"
    },
    {
      "inputs": [],
      "name": "NAME",
      "outputs": [
        {
          "internalType": "string",
          "name": "",
          "type": "string"
        }
      ],
      "stateMutability": "view",
      "type": "function"
    },
    {
      "inputs": [],
      "name": "P",
      "outputs": [
        {
          "internalType": "uint256",
          "name": "",
          "type": "uint256"
        }
      ],
      "stateMutability": "view",
      "type": "function"
    },
    {
      "inputs": [
        {
          "internalType": "address",
          "name": "_depositor",
          "type": "address"
        },
        {
          "internalType": "address",
          "name": "_asset",
          "type": "address"
        }
      ],
      "name": "S",
      "outputs": [
        {
          "internalType": "uint256",
          "name": "",
          "type": "uint256"
        }
      ],
      "stateMutability": "view",
      "type": "function"
    },
    {
      "inputs": [],
      "name": "SCALE_FACTOR",
      "outputs": [
        {
          "internalType": "uint256",
          "name": "",
          "type": "uint256"
        }
      ],
      "stateMutability": "view",
      "type": "function"
    },
    {
      "inputs": [],
      "name": "UPGRADE_INTERFACE_VERSION",
      "outputs": [
        {
          "internalType": "string",
          "name": "",
          "type": "string"
        }
      ],
      "stateMutability": "view",
      "type": "function"
    },
    {
      "inputs": [],
      "name": "activePool",
      "outputs": [
        {
          "internalType": "address",
          "name": "",
          "type": "address"
        }
      ],
      "stateMutability": "view",
      "type": "function"
    },
    {
      "inputs": [
        {
          "internalType": "address",
          "name": "_collateral",
          "type": "address"
        }
      ],
      "name": "addCollateralType",
      "outputs": [],
      "stateMutability": "nonpayable",
      "type": "function"
    },
    {
      "inputs": [],
      "name": "adminContract",
      "outputs": [
        {
          "internalType": "address",
          "name": "",
          "type": "address"
        }
      ],
      "stateMutability": "view",
      "type": "function"
    },
    {
      "inputs": [
        {
          "internalType": "address",
          "name": "newImplementation",
          "type": "address"
        }
      ],
      "name": "authorizeUpgrade",
      "outputs": [],
      "stateMutability": "nonpayable",
      "type": "function"
    },
    {
      "inputs": [],
      "name": "borrowerOperations",
      "outputs": [
        {
          "internalType": "address",
          "name": "",
          "type": "address"
        }
      ],
      "stateMutability": "view",
      "type": "function"
    },
    {
      "inputs": [],
      "name": "collSurplusPool",
      "outputs": [
        {
          "internalType": "address",
          "name": "",
          "type": "address"
        }
      ],
      "stateMutability": "view",
      "type": "function"
    },
    {
      "inputs": [],
      "name": "communityIssuance",
      "outputs": [
        {
          "internalType": "address",
          "name": "",
          "type": "address"
        }
      ],
      "stateMutability": "view",
      "type": "function"
    },
    {
      "inputs": [],
      "name": "currentEpoch",
      "outputs": [
        {
          "internalType": "uint128",
          "name": "",
          "type": "uint128"
        }
      ],
      "stateMutability": "view",
      "type": "function"
    },
    {
      "inputs": [],
      "name": "currentScale",
      "outputs": [
        {
          "internalType": "uint128",
          "name": "",
          "type": "uint128"
        }
      ],
      "stateMutability": "view",
      "type": "function"
    },
    {
      "inputs": [],
      "name": "debtToken",
      "outputs": [
        {
          "internalType": "address",
          "name": "",
          "type": "address"
        }
      ],
      "stateMutability": "view",
      "type": "function"
    },
    {
      "inputs": [],
      "name": "defaultPool",
      "outputs": [
        {
          "internalType": "address",
          "name": "",
          "type": "address"
        }
      ],
      "stateMutability": "view",
      "type": "function"
    },
    {
      "inputs": [
        {
          "internalType": "address",
          "name": "depositor",
          "type": "address"
        }
      ],
      "name": "depositSnapshots",
      "outputs": [
        {
          "internalType": "uint256",
          "name": "P",
          "type": "uint256"
        },
        {
          "internalType": "uint256",
          "name": "G",
          "type": "uint256"
        },
        {
          "internalType": "uint128",
          "name": "scale",
          "type": "uint128"
        },
        {
          "internalType": "uint128",
          "name": "epoch",
          "type": "uint128"
        }
      ],
      "stateMutability": "view",
      "type": "function"
    },
    {
      "inputs": [
        {
          "internalType": "address",
          "name": "depositor",
          "type": "address"
        }
      ],
      "name": "deposits",
      "outputs": [
        {
          "internalType": "uint256",
          "name": "amount",
          "type": "uint256"
        }
      ],
      "stateMutability": "view",
      "type": "function"
    },
    {
      "inputs": [
        {
          "internalType": "uint128",
          "name": "epoch",
          "type": "uint128"
        },
        {
          "internalType": "uint128",
          "name": "scale",
          "type": "uint128"
        }
      ],
      "name": "epochToScaleToG",
      "outputs": [
        {
          "internalType": "uint256",
          "name": "G",
          "type": "uint256"
        }
      ],
      "stateMutability": "view",
      "type": "function"
    },
    {
      "inputs": [
        {
          "internalType": "address",
          "name": "collateral",
          "type": "address"
        },
        {
          "internalType": "uint128",
          "name": "collateralType",
          "type": "uint128"
        },
        {
          "internalType": "uint128",
          "name": "epoch",
          "type": "uint128"
        }
      ],
      "name": "epochToScaleToSum",
      "outputs": [
        {
          "internalType": "uint256",
          "name": "sum",
          "type": "uint256"
        }
      ],
      "stateMutability": "view",
      "type": "function"
    },
    {
      "inputs": [],
      "name": "feeCollector",
      "outputs": [
        {
          "internalType": "address",
          "name": "",
          "type": "address"
        }
      ],
      "stateMutability": "view",
      "type": "function"
    },
    {
      "inputs": [],
      "name": "flashLoanAddress",
      "outputs": [
        {
          "internalType": "address",
          "name": "",
          "type": "address"
        }
      ],
      "stateMutability": "view",
      "type": "function"
    },
    {
      "inputs": [],
      "name": "gasPoolAddress",
      "outputs": [
        {
          "internalType": "address",
          "name": "",
          "type": "address"
        }
      ],
      "stateMutability": "view",
      "type": "function"
    },
    {
      "inputs": [],
      "name": "getAllCollateral",
      "outputs": [
        {
          "internalType": "address[]",
          "name": "",
          "type": "address[]"
        },
        {
          "internalType": "uint256[]",
          "name": "",
          "type": "uint256[]"
        }
      ],
      "stateMutability": "view",
      "type": "function"
    },
    {
      "inputs": [
        {
          "internalType": "address",
          "name": "_collateral",
          "type": "address"
        }
      ],
      "name": "getCollateral",
      "outputs": [
        {
          "internalType": "uint256",
          "name": "",
          "type": "uint256"
        }
      ],
      "stateMutability": "view",
      "type": "function"
    },
    {
      "inputs": [
        {
          "internalType": "address",
          "name": "_depositor",
          "type": "address"
        }
      ],
      "name": "getCompoundedDebtTokenDeposits",
      "outputs": [
        {
          "internalType": "uint256",
          "name": "",
          "type": "uint256"
        }
      ],
      "stateMutability": "view",
      "type": "function"
    },
    {
      "inputs": [
        {
          "internalType": "address",
          "name": "_depositor",
          "type": "address"
        },
        {
          "internalType": "address[]",
          "name": "_assets",
          "type": "address[]"
        }
      ],
      "name": "getDepositorGains",
      "outputs": [
        {
          "internalType": "address[]",
          "name": "",
          "type": "address[]"
        },
        {
          "internalType": "uint256[]",
          "name": "",
          "type": "uint256[]"
        }
      ],
      "stateMutability": "view",
      "type": "function"
    },
    {
      "inputs": [
        {
          "internalType": "address",
          "name": "_depositor",
          "type": "address"
        }
      ],
      "name": "getDepositorTRENGain",
      "outputs": [
        {
          "internalType": "uint256",
          "name": "",
          "type": "uint256"
        }
      ],
      "stateMutability": "view",
      "type": "function"
    },
    {
      "inputs": [
        {
          "internalType": "address",
          "name": "_asset",
          "type": "address"
        }
      ],
      "name": "getEntireSystemColl",
      "outputs": [
        {
          "internalType": "uint256",
          "name": "entireSystemColl",
          "type": "uint256"
        }
      ],
      "stateMutability": "view",
      "type": "function"
    },
    {
      "inputs": [
        {
          "internalType": "address",
          "name": "_asset",
          "type": "address"
        }
      ],
      "name": "getEntireSystemDebt",
      "outputs": [
        {
          "internalType": "uint256",
          "name": "entireSystemDebt",
          "type": "uint256"
        }
      ],
      "stateMutability": "view",
      "type": "function"
    },
    {
      "inputs": [],
      "name": "getTotalDebtTokenDeposits",
      "outputs": [
        {
          "internalType": "uint256",
          "name": "",
          "type": "uint256"
        }
      ],
      "stateMutability": "view",
      "type": "function"
    },
    {
      "inputs": [],
      "name": "initialize",
      "outputs": [],
      "stateMutability": "nonpayable",
      "type": "function"
    },
    {
      "inputs": [],
      "name": "isAddressSetupInitialized",
      "outputs": [
        {
          "internalType": "bool",
          "name": "",
          "type": "bool"
        }
      ],
      "stateMutability": "view",
      "type": "function"
    },
    {
      "inputs": [
        {
          "internalType": "uint256",
          "name": "",
          "type": "uint256"
        }
      ],
      "name": "lastAssetError_Offset",
      "outputs": [
        {
          "internalType": "uint256",
          "name": "",
          "type": "uint256"
        }
      ],
      "stateMutability": "view",
      "type": "function"
    },
    {
      "inputs": [],
      "name": "lastDebtTokenLossError_Offset",
      "outputs": [
        {
          "internalType": "uint256",
          "name": "",
          "type": "uint256"
        }
      ],
      "stateMutability": "view",
      "type": "function"
    },
    {
      "inputs": [],
      "name": "lastTRENError",
      "outputs": [
        {
          "internalType": "uint256",
          "name": "",
          "type": "uint256"
        }
      ],
      "stateMutability": "view",
      "type": "function"
    },
    {
      "inputs": [
        {
          "internalType": "uint256",
          "name": "_debtToOffset",
          "type": "uint256"
        },
        {
          "internalType": "address",
          "name": "_asset",
          "type": "address"
        },
        {
          "internalType": "uint256",
          "name": "_amountAdded",
          "type": "uint256"
        }
      ],
      "name": "offset",
      "outputs": [],
      "stateMutability": "nonpayable",
      "type": "function"
    },
    {
      "inputs": [],
      "name": "owner",
      "outputs": [
        {
          "internalType": "address",
          "name": "",
          "type": "address"
        }
      ],
      "stateMutability": "view",
      "type": "function"
    },
    {
      "inputs": [],
      "name": "priceFeed",
      "outputs": [
        {
          "internalType": "address",
          "name": "",
          "type": "address"
        }
      ],
      "stateMutability": "view",
      "type": "function"
    },
    {
      "inputs": [
        {
          "internalType": "uint256",
          "name": "_amount",
          "type": "uint256"
        },
        {
          "internalType": "address[]",
          "name": "_assets",
          "type": "address[]"
        }
      ],
      "name": "provideToSP",
      "outputs": [],
      "stateMutability": "nonpayable",
      "type": "function"
    },
    {
      "inputs": [],
      "name": "proxiableUUID",
      "outputs": [
        {
          "internalType": "bytes32",
          "name": "",
          "type": "bytes32"
        }
      ],
      "stateMutability": "view",
      "type": "function"
    },
    {
      "inputs": [
        {
          "internalType": "address",
          "name": "_asset",
          "type": "address"
        },
        {
          "internalType": "uint256",
          "name": "_amount",
          "type": "uint256"
        }
      ],
      "name": "receivedERC20",
      "outputs": [],
      "stateMutability": "nonpayable",
      "type": "function"
    },
    {
      "inputs": [],
      "name": "renounceOwnership",
      "outputs": [],
      "stateMutability": "nonpayable",
      "type": "function"
    },
    {
      "inputs": [
        {
          "internalType": "address[]",
          "name": "_addresses",
          "type": "address[]"
        }
      ],
      "name": "setAddresses",
      "outputs": [],
      "stateMutability": "nonpayable",
      "type": "function"
    },
    {
      "inputs": [
        {
          "internalType": "address",
          "name": "_communityIssuance",
          "type": "address"
        }
      ],
      "name": "setCommunityIssuance",
      "outputs": [],
      "stateMutability": "nonpayable",
      "type": "function"
    },
    {
      "inputs": [
        {
          "internalType": "address",
          "name": "_trenStaking",
          "type": "address"
        }
      ],
      "name": "setTRENStaking",
      "outputs": [],
      "stateMutability": "nonpayable",
      "type": "function"
    },
    {
      "inputs": [],
      "name": "sortedTrenBoxes",
      "outputs": [
        {
          "internalType": "address",
          "name": "",
          "type": "address"
        }
      ],
      "stateMutability": "view",
      "type": "function"
    },
    {
      "inputs": [],
      "name": "stabilityPool",
      "outputs": [
        {
          "internalType": "address",
          "name": "",
          "type": "address"
        }
      ],
      "stateMutability": "view",
      "type": "function"
    },
    {
      "inputs": [],
      "name": "timelockAddress",
      "outputs": [
        {
          "internalType": "address",
          "name": "",
          "type": "address"
        }
      ],
      "stateMutability": "view",
      "type": "function"
    },
    {
      "inputs": [
        {
          "internalType": "address",
          "name": "newOwner",
          "type": "address"
        }
      ],
      "name": "transferOwnership",
      "outputs": [],
      "stateMutability": "nonpayable",
      "type": "function"
    },
    {
      "inputs": [],
      "name": "treasuryAddress",
      "outputs": [
        {
          "internalType": "address",
          "name": "",
          "type": "address"
        }
      ],
      "stateMutability": "view",
      "type": "function"
    },
    {
      "inputs": [],
      "name": "trenBoxManager",
      "outputs": [
        {
          "internalType": "address",
          "name": "",
          "type": "address"
        }
      ],
      "stateMutability": "view",
      "type": "function"
    },
    {
      "inputs": [],
      "name": "trenBoxManagerOperations",
      "outputs": [
        {
          "internalType": "address",
          "name": "",
          "type": "address"
        }
      ],
      "stateMutability": "view",
      "type": "function"
    },
    {
      "inputs": [],
      "name": "trenStaking",
      "outputs": [
        {
          "internalType": "address",
          "name": "",
          "type": "address"
        }
      ],
      "stateMutability": "view",
      "type": "function"
    },
    {
      "inputs": [
        {
          "internalType": "address",
          "name": "newImplementation",
          "type": "address"
        },
        {
          "internalType": "bytes",
          "name": "data",
          "type": "bytes"
        }
      ],
      "name": "upgradeToAndCall",
      "outputs": [],
      "stateMutability": "payable",
      "type": "function"
    },
    {
      "inputs": [
        {
          "internalType": "uint256",
          "name": "_amount",
          "type": "uint256"
        },
        {
          "internalType": "address[]",
          "name": "_assets",
          "type": "address[]"
        }
      ],
      "name": "withdrawFromSP",
      "outputs": [],
      "stateMutability": "nonpayable",
      "type": "function"
    }
  ],
  "transactionHash": "0x65804dd3fee680228195c5b1dce523ba5685dae6eab2f3f596b9d6eead2b7f1e",
  "args": [],
  "numDeployments": 1,
  "solcInputHash": "76f2ac0d2a40f527e6541dfc9894b953",
  "bytecode": "0x60a06040523060805234801561001457600080fd5b50608051613ebd61003e600039600081816123e40152818161240d015261263c0152613ebd6000f3fe60806040526004361061036b5760003560e01c80638e9171b0116101c6578063c5f956af116100f7578063ec0d5e0c11610095578063f8d898981161006f578063f8d8989814610ad9578063fc7e286d14610af9578063fe06073314610b26578063fe9d032314610b4657600080fd5b8063ec0d5e0c14610a79578063f1c05a7e14610a99578063f2fde38b14610ab957600080fd5b8063cc8b21e4116100d1578063cc8b21e414610a01578063cda775f914610a21578063ce4b5bbe14610a41578063eb16f00414610a5957600080fd5b8063c5f956af1461099b578063c6ba0936146109bb578063c8564c62146109d057600080fd5b8063ad3018f011610164578063b95717211161013e578063b95717211461091b578063be35d3bd1461093b578063c05c5e941461095b578063c415b95c1461097b57600080fd5b8063ad3018f0146108a6578063ad3cb1cc146108d4578063b5d0c4c71461090557600080fd5b80639e86d0c4116101a05780639e86d0c41461080a578063a3f4df7e1461082a578063a4e59ac814610870578063a7a488841461089057600080fd5b80638e9171b0146107aa57806395fb16bb146107ca5780639b56d6c9146107ea57600080fd5b806355dafa46116102a05780637ee4196b1161023e57806382e0a5741161021857806382e0a5741461069d57806386da0824146106d55780638b8fbd92146107575780638da5cb5b1461076d57600080fd5b80637ee4196b1461062a5780637f7dde4a146106685780638129fc1c1461068857600080fd5b8063715018a61161027a578063715018a614610596578063741bef1a146105ab57806376671808146105cb57806377553ad41461060a57600080fd5b806355dafa46146105365780636a85d67d146105565780636aebb1ab1461057657600080fd5b80633cc742251161030d5780634e8338eb116102e75780634e8338eb146104ce5780634f1ef286146104ee57806352ce82721461050157806352d1902d1461052157600080fd5b80633cc742251461046e5780634169467d1461048e5780634bc66f32146104ae57600080fd5b80630d9a6b35116103495780630d9a6b35146103ef5780631091da891461040e578063121f2b261461042e57806327d04b351461044e57600080fd5b806301c9310014610370578063048c661d146103925780630a34d4d6146103cf575b600080fd5b34801561037c57600080fd5b5061039061038b366004613784565b610b66565b005b34801561039e57600080fd5b50600d546103b2906001600160a01b031681565b6040516001600160a01b0390911681526020015b60405180910390f35b3480156103db57600080fd5b506011546103b2906001600160a01b031681565b3480156103fb57600080fd5b506033545b6040519081526020016103c6565b34801561041a57600080fd5b506103906104293660046137a1565b610bb7565b34801561043a57600080fd5b50610400610449366004613784565b610c4f565b34801561045a57600080fd5b50610400610469366004613784565b610ca2565b34801561047a57600080fd5b506006546103b2906001600160a01b031681565b34801561049a57600080fd5b506008546103b2906001600160a01b031681565b3480156104ba57600080fd5b50600e546103b2906001600160a01b031681565b3480156104da57600080fd5b506104006104e93660046137d9565b610d9a565b6103906104fc366004613859565b610dc7565b34801561050d57600080fd5b5061040061051c366004613784565b610de6565b34801561052d57600080fd5b50610400610e31565b34801561054257600080fd5b50600a546103b2906001600160a01b031681565b34801561056257600080fd5b50610390610571366004613784565b610e4e565b34801561058257600080fd5b50610390610591366004613946565b610e9f565b3480156105a257600080fd5b50610390610ff4565b3480156105b757600080fd5b50600b546103b2906001600160a01b031681565b3480156105d757600080fd5b506039546105f290600160801b90046001600160801b031681565b6040516001600160801b0390911681526020016103c6565b34801561061657600080fd5b506002546103b2906001600160a01b031681565b34801561063657600080fd5b506104006106453660046139ae565b603a60209081526000938452604080852082529284528284209052825290205481565b34801561067457600080fd5b506000546103b2906001600160a01b031681565b34801561069457600080fd5b50610390611008565b3480156106a957600080fd5b506104006106b83660046139f3565b603b60209081526000928352604080842090915290825290205481565b3480156106e157600080fd5b506107286106f0366004613784565b6037602052600090815260409020600181015460028201546003909201549091906001600160801b0380821691600160801b90041684565b6040805194855260208501939093526001600160801b03918216928401929092521660608201526080016103c6565b34801561076357600080fd5b5061040060385481565b34801561077957600080fd5b507f9016d09d72d40fdae2fd8ceac6b6234c7706214fd39c1cd1e609a0528c199300546001600160a01b03166103b2565b3480156107b657600080fd5b506103906107c5366004613946565b611136565b3480156107d657600080fd5b506004546103b2906001600160a01b031681565b3480156107f657600080fd5b50610400610805366004613784565b611174565b34801561081657600080fd5b50610400610825366004613784565b611211565b34801561083657600080fd5b506108636040518060400160405280600d81526020016c14dd18589a5b1a5d1e541bdbdb609a1b81525081565b6040516103c69190613a4a565b34801561087c57600080fd5b506039546105f2906001600160801b031681565b34801561089c57600080fd5b50610400603e5481565b3480156108b257600080fd5b506108c66108c1366004613aa1565b6112b8565b6040516103c6929190613bcb565b3480156108e057600080fd5b50610863604051806040016040528060058152602001640352e302e360dc1b81525081565b34801561091157600080fd5b50610400603c5481565b34801561092757600080fd5b50610390610936366004613bf0565b611331565b34801561094757600080fd5b50610400610956366004613c32565b6118ad565b34801561096757600080fd5b506001546103b2906001600160a01b031681565b34801561098757600080fd5b506007546103b2906001600160a01b031681565b3480156109a757600080fd5b50600f546103b2906001600160a01b031681565b3480156109c757600080fd5b506108c66118ce565b3480156109dc57600080fd5b506011546109f190600160a01b900460ff1681565b60405190151581526020016103c6565b348015610a0d57600080fd5b50600c546103b2906001600160a01b031681565b348015610a2d57600080fd5b506003546103b2906001600160a01b031681565b348015610a4d57600080fd5b50610400633b9aca0081565b348015610a6557600080fd5b50610390610a74366004613c4b565b611991565b348015610a8557600080fd5b50610390610a94366004613784565b611ae0565b348015610aa557600080fd5b506010546103b2906001600160a01b031681565b348015610ac557600080fd5b50610390610ad4366004613784565b611bd0565b348015610ae557600080fd5b506005546103b2906001600160a01b031681565b348015610b0557600080fd5b50610400610b14366004613784565b60366020526000908152604090205481565b348015610b3257600080fd5b50610390610b41366004613784565b611c0e565b348015610b5257600080fd5b506009546103b2906001600160a01b031681565b610b6e611c17565b6001600160a01b038116610b95576040516385d3330760e01b815260040160405180910390fd5b600a80546001600160a01b0319166001600160a01b0392909216919091179055565b6010546001600160a01b03163314610bfc576010546040516339bf765b60e01b81523360048201526001600160a01b0390911660248201526044015b60405180910390fd5b603354801580610c0a575083155b15610c155750505050565b610c1d611c72565b600080610c2c85858886611d09565b91509150610c3b858383611e9e565b610c468585886121a5565b5050505b505050565b6001600160a01b038116600090815260366020526040812054808203610c785750600092915050565b6001600160a01b0383166000908152603760205260409020610c9b9082906122e9565b9392505050565b6000805460405163c5739d0b60e01b81526001600160a01b0384811660048301528392169063c5739d0b90602401602060405180830381865afa158015610ced573d6000803e3d6000fd5b505050506040513d601f19601f82011682018060405250810190610d119190613c77565b60065460405163c5739d0b60e01b81526001600160a01b0386811660048301529293506000929091169063c5739d0b906024015b602060405180830381865afa158015610d62573d6000803e3d6000fd5b505050506040513d601f19601f82011682018060405250810190610d869190613c77565b9050610d928183613ca6565b949350505050565b6001600160a01b038083166000908152603760209081526040808320938516835292905220545b92915050565b610dcf6123d9565b610dd88261247e565b610de28282612486565b5050565b6001600160a01b038116600090815260366020526040812054808203610e0f5750600092915050565b6001600160a01b0383166000908152603760205260409020610d928282612543565b6000610e3b612631565b50600080516020613e7183398151915290565b610e56611c17565b6001600160a01b038116610e7d5760405163706ebc6560e11b815260040160405180910390fd5b600480546001600160a01b0319166001600160a01b0392909216919091179055565b610ea761267a565b610eb0836126b2565b33600090815260366020526040902054610ec8611c72565b600080610f08338686808060200260200160405190810160405280939291908181526020018383602002808284376000920191909152506112b892505050565b915091506000610f1733610c4f565b90506000610f258286613cb9565b9050610f30336126d3565b610f3a33896127a0565b6000610f468984613ca6565b9050610f52338261285c565b60405181815233907fbce78369dccab09eec1986f4d409ab09ffbb47d65423e5148fcf98411c5111c99060200160405180910390a2336001600160a01b03167ff20651f7c9cd4e1c112f77cbf2a13a44f79d4165dd781c41b52052bfc888174a868685604051610fc493929190613ccc565b60405180910390a2610fd7338686612b04565b505050505050610c4a6001600080516020613e9183398151915255565b610ffc611c17565b6110066000612c93565b565b7ff0c57e16840df040f15088dc2f81fe391c3923bec73e23a9662efc9c229c6a008054600160401b810460ff16159067ffffffffffffffff1660008115801561104e5750825b905060008267ffffffffffffffff16600114801561106b5750303b155b905081158015611079575080155b156110975760405163f92ee8a960e01b815260040160405180910390fd5b845467ffffffffffffffff1916600117855583156110c157845460ff60401b1916600160401b1785555b336110cb81612d04565b6110d3612d15565b6110db612d25565b50670de0b6b3a7640000603855831561112f57845460ff60401b19168555604051600181527fc7f505b2f371ae2175ee4913f4499e1f2633a7b5936321eed1cdaeb6115181d2906020015b60405180910390a15b5050505050565b61113e61267a565b60008061114c858585612d2d565b9150915061115b338383612b04565b5050610c4a6001600080516020613e9183398151915255565b60015460405163b31610db60e01b81526001600160a01b038381166004830152600092839291169063b31610db90602401602060405180830381865afa1580156111c2573d6000803e3d6000fd5b505050506040513d601f19601f820116820180604052508101906111e69190613c77565b9050603460010181815481106111fe576111fe613d02565b9060005260206000200154915050919050565b60008054604051635373433f60e01b81526001600160a01b03848116600483015283921690635373433f90602401602060405180830381865afa15801561125c573d6000803e3d6000fd5b505050506040513d601f19601f820116820180604052508101906112809190613c77565b600654604051635373433f60e01b81526001600160a01b03868116600483015292935060009290911690635373433f90602401610d45565b6001600160a01b0382166000908152603660205260408120546060918291908190036112fd57505060408051600080825260208201908152818301909252915061132a565b6001600160a01b038516600090815260376020526040812090611321838388612e70565b86955093505050505b9250929050565b611339611c17565b601154600160a01b900460ff161561136357604051625f22e960e41b815260040160405180910390fd5b6010811461138457604051633f5a111d60e21b815260040160405180910390fd5b60005b60108110156114225760008383838181106113a4576113a4613d02565b90506020020160208101906113b99190613784565b6001600160a01b03160361141a57808383838181106113da576113da613d02565b90506020020160208101906113ef9190613784565b604051630d9d339f60e01b815260048101929092526001600160a01b03166024820152604401610bf3565b600101611387565b508181600081811061143657611436613d02565b905060200201602081019061144b9190613784565b600080546001600160a01b0319166001600160a01b03929092169190911790558181600181811061147e5761147e613d02565b90506020020160208101906114939190613784565b600180546001600160a01b0319166001600160a01b0392909216919091179055818160028181106114c6576114c6613d02565b90506020020160208101906114db9190613784565b600280546001600160a01b0319166001600160a01b03929092169190911790558181600381811061150e5761150e613d02565b90506020020160208101906115239190613784565b600380546001600160a01b0319166001600160a01b03929092169190911790558181600481811061155657611556613d02565b905060200201602081019061156b9190613784565b600580546001600160a01b0319166001600160a01b03929092169190911781558290829081811061159e5761159e613d02565b90506020020160208101906115b39190613784565b600680546001600160a01b0319166001600160a01b0392909216919091178155829082908181106115e6576115e6613d02565b90506020020160208101906115fb9190613784565b600780546001600160a01b0319166001600160a01b03929092169190911781558290829081811061162e5761162e613d02565b90506020020160208101906116439190613784565b600880546001600160a01b0319166001600160a01b03929092169190911781558290829081811061167657611676613d02565b905060200201602081019061168b9190613784565b600980546001600160a01b0319166001600160a01b0392909216919091178155829082908181106116be576116be613d02565b90506020020160208101906116d39190613784565b600b80546001600160a01b0319166001600160a01b03929092169190911790558181600a81811061170657611706613d02565b905060200201602081019061171b9190613784565b600c80546001600160a01b0319166001600160a01b03929092169190911790558181600b81811061174e5761174e613d02565b90506020020160208101906117639190613784565b600d80546001600160a01b0319166001600160a01b03929092169190911790558181600c81811061179657611796613d02565b90506020020160208101906117ab9190613784565b600e80546001600160a01b0319166001600160a01b03929092169190911790558181600d8181106117de576117de613d02565b90506020020160208101906117f39190613784565b600f80546001600160a01b0319166001600160a01b03929092169190911790558181600e81811061182657611826613d02565b905060200201602081019061183b9190613784565b601080546001600160a01b0319166001600160a01b03929092169190911790558181600f81811061186e5761186e613d02565b90506020020160208101906118839190613784565b601180546001600160a81b0319166001600160a01b039290921691909117600160a01b1790555050565b603d81815481106118bd57600080fd5b600091825260209091200154905081565b606080603460000160346001018180548060200260200160405190810160405280929190818152602001828054801561193057602002820191906000526020600020905b81546001600160a01b03168152600190910190602001808311611912575b505050505091508080548060200260200160405190810160405280929190818152602001828054801561198257602002820191906000526020600020905b81548152602001906001019080831161196e575b50505050509050915091509091565b6000546001600160a01b031633146119d157600054604051633eafff5160e11b81523360048201526001600160a01b039091166024820152604401610bf3565b60015460405163b31610db60e01b81526001600160a01b038481166004830152600092169063b31610db90602401602060405180830381865afa158015611a1c573d6000803e3d6000fd5b505050506040513d601f19601f82011682018060405250810190611a409190613c77565b905060008260346001018381548110611a5b57611a5b613d02565b9060005260206000200154611a709190613ca6565b90508060346001018381548110611a8957611a89613d02565b60009182526020918290200191909155604080516001600160a01b03871681529182018390527fb36e395f001a695c24ce43be3fb7c2338a2e794c691d5665d2f7847cc231a4b5910160405180910390a150505050565b6001546001600160a01b03163314611b2057600154604051632abcdbcb60e21b81523360048201526001600160a01b039091166024820152604401610bf3565b603d8054600180820190925560007fece66cfdbd22e3f37d348a3d8e19074452862cd65fd4b9a11f0336d1ac6d1dc3909101819055603480548084019091557f46bddb1178e94d7f2892ff5f366840eb658911794f2c3a44c450aa2c505186c10180546001600160a01b0319166001600160a01b03949094169390931790925560358054918201815582527fcfa4bec1d3298408bb5afcfcd9c430549c5b31f8aa5c5848151c0a55f473c34d0155565b611bd8611c17565b6001600160a01b038116611c0257604051631e4fbdf760e01b815260006004820152602401610bf3565b611c0b81612c93565b50565b611c0b8161247e565b33611c497f9016d09d72d40fdae2fd8ceac6b6234c7706214fd39c1cd1e609a0528c199300546001600160a01b031690565b6001600160a01b0316146110065760405163118cdaa760e01b8152336004820152602401610bf3565b6004546001600160a01b031615611006576000600460009054906101000a90046001600160a01b03166001600160a01b031663234209eb6040518163ffffffff1660e01b81526004016020604051808303816000875af1158015611cda573d6000803e3d6000fd5b505050506040513d601f19601f82011682018060405250810190611cfe9190613c77565b9050611c0b81612f92565b60015460405163b31610db60e01b81526001600160a01b038681166004830152600092839283929091169063b31610db90602401602060405180830381865afa158015611d5a573d6000803e3d6000fd5b505050506040513d601f19601f82011682018060405250810190611d7e9190613c77565b90506000603d8281548110611d9557611d95613d02565b9060005260206000200154670de0b6b3a764000088611db49190613d18565b611dbe9190613ca6565b905084861115611de1576040516337b66be560e11b815260040160405180910390fd5b848603611dfd576000603e55670de0b6b3a76400009250611e52565b603e54600090611e15670de0b6b3a764000089613d18565b611e1f9190613cb9565b9050611e2b8682613d2f565b611e36906001613ca6565b935080611e438786613d18565b611e4d9190613cb9565b603e55505b611e5c8582613d2f565b9350611e688585613d18565b611e729082613cb9565b603d8381548110611e8557611e85613d02565b9060005260206000200181905550505094509492505050565b670de0b6b3a7640000811115611eca57604051632c98807d60e21b815260048101829052602401610bf3565b603854600080611ee284670de0b6b3a7640000613cb9565b6039546001600160a01b0388166000908152603a602090815260408083206001600160801b03600160801b86048116808652918452828520951680855294909252822054939450919290611f36878a613d18565b90506000611f448284613ca6565b6001600160a01b038c166000818152603a602090815260408083206001600160801b038a8116808652918452828520908c1680865290845293829020869055815194855291840185905283015260608201529091507ff7ef5e6b61b78633f24d0f3fc1cbca526433ca9053a2930b5f19711abee487de9060800160405180910390a18560000361208157611fd9600185613d51565b603980546001600160801b03908116600160801b918416918202179091556040519081529094507fb50f0f59e7cb5b421dc77581c3a9919e3806e076e5fa78a874c3f120cb7d874d9060200160405180910390a1603980546001600160801b0319169055604051600081527f1f9dfc70cd666adb18a39d60a797518f7b4febf4b6e24ef37d44f6e1e7219fbe9060200160405180910390a1670de0b6b3a7640000965061213f565b600061208d878a613d18565b905060006120a3670de0b6b3a764000083613d2f565b9050633b9aca0081101561213857670de0b6b3a76400006120c8633b9aca0084613d18565b6120d29190613d2f565b98506120df600188613d51565b603980546001600160801b0319166001600160801b0383169081179091556040519081529097507f1f9dfc70cd666adb18a39d60a797518f7b4febf4b6e24ef37d44f6e1e7219fbe9060200160405180910390a161213c565b8098505b50505b866000036121605760405163059cf7a960e41b815260040160405180910390fd5b60388790556040518781527feca6714fcf568fb34cf9db4a414cb0cc48e93c5d4e1ba0582a46ea3704cf24d59060200160405180910390a15050505050505050505050565b600054604051632fb9ba3160e01b81526001600160a01b0385811660048301526024820184905290911690632fb9ba3190604401600060405180830381600087803b1580156121f357600080fd5b505af1158015612207573d6000803e3d6000fd5b5050505061221481613081565b600554604051632770a7eb60e21b8152306004820152602481018390526001600160a01b0390911690639dc29fac90604401600060405180830381600087803b15801561226057600080fd5b505af1158015612274573d6000803e3d6000fd5b50506000546040516347878f1560e01b81526001600160a01b0387811660048301523060248301526044820187905290911692506347878f159150606401600060405180830381600087803b1580156122cc57600080fd5b505af11580156122e0573d6000803e3d6000fd5b50505050505050565b60018101546003820154603954600092916001600160801b0380821692600160801b928390048216929004168110156123285760009350505050610dc1565b60395460009081906123449085906001600160801b0316613d78565b9050806001600160801b03166000036123775784603854896123669190613d18565b6123709190613d2f565b91506123ab565b806001600160801b03166001036123a657633b9aca00856038548a61239c9190613d18565b6123669190613d2f565b600091505b6123b9633b9aca0089613d2f565b8210156123ce57600095505050505050610dc1565b509695505050505050565b306001600160a01b037f000000000000000000000000000000000000000000000000000000000000000016148061246057507f00000000000000000000000000000000000000000000000000000000000000006001600160a01b0316612454600080516020613e71833981519152546001600160a01b031690565b6001600160a01b031614155b156110065760405163703e46dd60e11b815260040160405180910390fd5b611c0b611c17565b816001600160a01b03166352d1902d6040518163ffffffff1660e01b8152600401602060405180830381865afa9250505080156124e0575060408051601f3d908101601f191682019092526124dd91810190613c77565b60015b61250857604051634c9c8ce360e01b81526001600160a01b0383166004820152602401610bf3565b600080516020613e71833981519152811461253957604051632a87526960e21b815260048101829052602401610bf3565b610c4a83836130d0565b6003810154600282015460018301546001600160801b03600160801b840481166000818152603b60209081526040808320949097168083529390529485205490939192908590612594908490613cb9565b6001600160801b0386166000908152603b6020526040812091925090633b9aca0090826125c2886001613d51565b6001600160801b03166001600160801b03168152602001908152602001600020546125ed9190613d2f565b90506000670de0b6b3a7640000846126058486613ca6565b61260f908d613d18565b6126199190613d2f565b6126239190613d2f565b9a9950505050505050505050565b306001600160a01b037f000000000000000000000000000000000000000000000000000000000000000016146110065760405163703e46dd60e11b815260040160405180910390fd5b600080516020613e918339815191528054600119016126ac57604051633ee5aeb560e01b815260040160405180910390fd5b60029055565b80600003611c0b576040516347870b6160e11b815260040160405180910390fd5b6004546001600160a01b031615611c0b5760006126ef82610de6565b60048054604051630227f7bb60e61b81526001600160a01b03868116938201939093526024810184905292935016906389fdeec090604401600060405180830381600087803b15801561274157600080fd5b505af1158015612755573d6000803e3d6000fd5b50505050816001600160a01b03167f60243fd2e9882f8d26aa92149ed8254e5ebfd16b84a891bb88168b1adebda9568260405161279491815260200190565b60405180910390a25050565b600554604051632ee65eeb60e21b81526001600160a01b038481166004830152306024830152604482018490529091169063bb997bac90606401600060405180830381600087803b1580156127f457600080fd5b505af1158015612808573d6000803e3d6000fd5b5050505060008160335461281c9190613ca6565b60338190556040518181529091507f8c9268469ff6265448f46f8119962e815f393b25b87bb55bda5e709a412b85d79060200160405180910390a1505050565b6001600160a01b038083166000908152603660205260408082208490556001548151634eb5750560e11b8152915192931691639d6aea0a9160048082019286929091908290030181865afa1580156128b8573d6000803e3d6000fd5b505050506040513d6000823e601f3d908101601f191682016040526128e09190810190613d98565b80516001600160a01b03851660009081526037602052604081209293509091908490036129d05760005b8281101561296c576001600160a01b03861660009081526037602052604081208551829087908590811061294057612940613d02565b6020908102919091018101516001600160a01b031682528101919091526040016000205560010161290a565b5060006001820181905560028201819055600382018190556040805182815260208101929092526001600160a01b038716917fc48943df4095f4f20d171fd2872eafdc0eed4d9014ac3672f3bde7fd425449d5910160405180910390a25050505050565b6039546038546001600160801b0380831692600160801b9004169060005b85811015612a6d576000878281518110612a0a57612a0a613d02565b6020908102919091018101516001600160a01b039081166000818152603a845260408082206001600160801b03808b168452908652818320908b168352855280822054938f168252603785528082209282529190935290912055506001016129ee565b506001600160801b038281166000818152603b6020908152604080832094881680845294825291829020546001890186905560028901819055600160801b9093029093176003880155805184815292830182905290916001600160a01b038b16917fc48943df4095f4f20d171fd2872eafdc0eed4d9014ac3672f3bde7fd425449d5910160405180910390a2505050505050505050565b815181518114612b2757604051637d26926b60e01b815260040160405180910390fd5b60005b81811015612ba7576000838281518110612b4657612b46613d02565b6020026020010151905080600003612b615750600101612b2a565b6000858381518110612b7557612b75613d02565b60200260200101519050612b9d8783836001600160a01b03166131269092919063ffffffff16565b5050600101612b2a565b506040805160348054606060208202840181018552938301818152612c6b9484928491840182828015612c0357602002820191906000526020600020905b81546001600160a01b03168152600190910190602001808311612be5575b5050505050815260200160018201805480602002602001604051908101604052809291908181526020018280548015612c5b57602002820191906000526020600020905b815481526020019060010190808311612c47575b5050505050815250508484613178565b805161112f9160359160209091019061370f565b6001600080516020613e9183398151915255565b7f9016d09d72d40fdae2fd8ceac6b6234c7706214fd39c1cd1e609a0528c19930080546001600160a01b031981166001600160a01b03848116918217845560405192169182907f8be0079c531659141344cd1fd0a4f28419497f9722a3daafe3b4186f6b6457e090600090a3505050565b612d0c613252565b611c0b8161329b565b612d1d613252565b6110066132a3565b611006613252565b336000908152603660205260409020546060908190612d4b816132ab565b612d53611c72565b612d90338686808060200260200160405190810160405280939291908181526020018383602002808284376000920191909152506112b892505050565b90935091506000612da033610c4f565b90506000612dae88836132cc565b90506000612dbc8385613cb9565b9050612dc7336126d3565b612dd133836132e2565b6000612ddd8385613cb9565b9050612de9338261285c565b60405181815233907fbce78369dccab09eec1986f4d409ab09ffbb47d65423e5148fcf98411c5111c99060200160405180910390a2336001600160a01b03167ff20651f7c9cd4e1c112f77cbf2a13a44f79d4165dd781c41b52052bfc888174a888885604051612e5b93929190613ccc565b60405180910390a25050505050935093915050565b805160609060015b81811015612eef57836001820381518110612e9557612e95613d02565b60200260200101516001600160a01b0316848281518110612eb857612eb8613d02565b60200260200101516001600160a01b031611612ee757604051637243bc1760e11b815260040160405180910390fd5b600101612e78565b508067ffffffffffffffff811115612f0957612f09613812565b604051908082528060200260200182016040528015612f32578160200160208202803683370190505b50915060005b81811015612f8957612f648686868481518110612f5757612f57613d02565b6020026020010151613363565b838281518110612f7657612f76613d02565b6020908102919091010152600101612f38565b50509392505050565b603354801580612fa0575081155b15612fa9575050565b6000612fb5838361342f565b9050600060385482612fc79190613d18565b6039546001600160801b03600160801b820481166000908152603b602090815260408083209390941682529190915220549091506130058282613ca6565b603980546001600160801b03600160801b80830482166000908152603b60209081526040808320958516835294815290849020869055935483518681529181048316948201949094529216908201529091507f73dc7d579b909e77bc95647062d2cc3598ed92c10e34772672294cb0c149cc0090606001611126565b6000816033546130919190613cb9565b60338190556040518181529091507f8c9268469ff6265448f46f8119962e815f393b25b87bb55bda5e709a412b85d79060200160405180910390a15050565b6130d982613482565b6040516001600160a01b038316907fbc7cd75a20ee27fd9adebab32041f755214dbc6bffa90cc0225b39da2e5c2d3b90600090a280511561311e57610c4a82826134e7565b610de261355d565b604080516001600160a01b038416602482015260448082018490528251808303909101815260649091019091526020810180516001600160e01b031663a9059cbb60e01b179052610c4a90849061357c565b60208301515182516060919060005b828110156132425760005b82811015613239578681815181106131ac576131ac613d02565b60200260200101516001600160a01b0316886000015183815181106131d3576131d3613d02565b60200260200101516001600160a01b031603613231578581815181106131fb576131fb613d02565b60200260200101518860200151838151811061321957613219613d02565b6020026020010181815161322d9190613cb9565b9052505b600101613192565b50600101613187565b5050506020909301519392505050565b7ff0c57e16840df040f15088dc2f81fe391c3923bec73e23a9662efc9c229c6a0054600160401b900460ff1661100657604051631afcd79f60e31b815260040160405180910390fd5b611bd8613252565b612c7f613252565b80600003611c0b5760405163fb1f8a4d60e01b815260040160405180910390fd5b60008183106132db5781610c9b565b5090919050565b806000036132ee575050565b600554604051631062c15f60e11b81523060048201526001600160a01b03848116602483015260448201849052909116906320c582be90606401600060405180830381600087803b15801561334257600080fd5b505af1158015613356573d6000803e3d6000fd5b50505050610de281613081565b6001600160a01b038116600090815260208381526040808320546001860154603a845282852060038801546001600160801b03600160801b82048116885291865284872091168652938490529184205490929084906133c3908590613cb9565b6003880154909150600090633b9aca0090849083906133ec906001600160801b03166001613d51565b6001600160801b03166001600160801b03168152602001908152602001600020546134179190613d2f565b90506000670de0b6b3a7640000856126058486613ca6565b600080603c54670de0b6b3a7640000856134499190613d18565b6134539190613ca6565b905060006134618483613d2f565b905061346d8482613d18565b6134779083613cb9565b603c55949350505050565b806001600160a01b03163b6000036134b857604051634c9c8ce360e01b81526001600160a01b0382166004820152602401610bf3565b600080516020613e7183398151915280546001600160a01b0319166001600160a01b0392909216919091179055565b6060600080846001600160a01b0316846040516135049190613e32565b600060405180830381855af49150503d806000811461353f576040519150601f19603f3d011682016040523d82523d6000602084013e613544565b606091505b50915091506135548583836135df565b95945050505050565b34156110065760405163b398979f60e01b815260040160405180910390fd5b60006135916001600160a01b0384168361363b565b905080516000141580156135b65750808060200190518101906135b49190613e4e565b155b15610c4a57604051635274afe760e01b81526001600160a01b0384166004820152602401610bf3565b6060826135f4576135ef82613649565b610c9b565b815115801561360b57506001600160a01b0384163b155b1561363457604051639996b31560e01b81526001600160a01b0385166004820152602401610bf3565b5080610c9b565b6060610c9b83836000613672565b8051156136595780518082602001fd5b604051630a12f52160e11b815260040160405180910390fd5b6060814710156136975760405163cd78605960e01b8152306004820152602401610bf3565b600080856001600160a01b031684866040516136b39190613e32565b60006040518083038185875af1925050503d80600081146136f0576040519150601f19603f3d011682016040523d82523d6000602084013e6136f5565b606091505b50915091506137058683836135df565b9695505050505050565b82805482825590600052602060002090810192821561374a579160200282015b8281111561374a57825182559160200191906001019061372f565b5061375692915061375a565b5090565b5b80821115613756576000815560010161375b565b6001600160a01b0381168114611c0b57600080fd5b60006020828403121561379657600080fd5b8135610c9b8161376f565b6000806000606084860312156137b657600080fd5b8335925060208401356137c88161376f565b929592945050506040919091013590565b600080604083850312156137ec57600080fd5b82356137f78161376f565b915060208301356138078161376f565b809150509250929050565b634e487b7160e01b600052604160045260246000fd5b604051601f8201601f1916810167ffffffffffffffff8111828210171561385157613851613812565b604052919050565b6000806040838503121561386c57600080fd5b82356138778161376f565b915060208381013567ffffffffffffffff8082111561389557600080fd5b818601915086601f8301126138a957600080fd5b8135818111156138bb576138bb613812565b6138cd601f8201601f19168501613828565b915080825287848285010111156138e357600080fd5b80848401858401376000848284010152508093505050509250929050565b60008083601f84011261391357600080fd5b50813567ffffffffffffffff81111561392b57600080fd5b6020830191508360208260051b850101111561132a57600080fd5b60008060006040848603121561395b57600080fd5b83359250602084013567ffffffffffffffff81111561397957600080fd5b61398586828701613901565b9497909650939450505050565b80356001600160801b03811681146139a957600080fd5b919050565b6000806000606084860312156139c357600080fd5b83356139ce8161376f565b92506139dc60208501613992565b91506139ea60408501613992565b90509250925092565b60008060408385031215613a0657600080fd5b613a0f83613992565b9150613a1d60208401613992565b90509250929050565b60005b83811015613a41578181015183820152602001613a29565b50506000910152565b6020815260008251806020840152613a69816040850160208701613a26565b601f01601f19169190910160400192915050565b600067ffffffffffffffff821115613a9757613a97613812565b5060051b60200190565b60008060408385031215613ab457600080fd5b8235613abf8161376f565b915060208381013567ffffffffffffffff811115613adc57600080fd5b8401601f81018613613aed57600080fd5b8035613b00613afb82613a7d565b613828565b81815260059190911b82018301908381019088831115613b1f57600080fd5b928401925b82841015613b46578335613b378161376f565b82529284019290840190613b24565b80955050505050509250929050565b60008151808452602080850194506020840160005b83811015613b8f5781516001600160a01b031687529582019590820190600101613b6a565b509495945050505050565b60008151808452602080850194506020840160005b83811015613b8f57815187529582019590820190600101613baf565b604081526000613bde6040830185613b55565b82810360208401526135548185613b9a565b60008060208385031215613c0357600080fd5b823567ffffffffffffffff811115613c1a57600080fd5b613c2685828601613901565b90969095509350505050565b600060208284031215613c4457600080fd5b5035919050565b60008060408385031215613c5e57600080fd5b8235613c698161376f565b946020939093013593505050565b600060208284031215613c8957600080fd5b5051919050565b634e487b7160e01b600052601160045260246000fd5b80820180821115610dc157610dc1613c90565b81810381811115610dc157610dc1613c90565b606081526000613cdf6060830186613b55565b8281036020840152613cf18186613b9a565b915050826040830152949350505050565b634e487b7160e01b600052603260045260246000fd5b8082028115828204841417610dc157610dc1613c90565b600082613d4c57634e487b7160e01b600052601260045260246000fd5b500490565b6001600160801b03818116838216019080821115613d7157613d71613c90565b5092915050565b6001600160801b03828116828216039080821115613d7157613d71613c90565b60006020808385031215613dab57600080fd5b825167ffffffffffffffff811115613dc257600080fd5b8301601f81018513613dd357600080fd5b8051613de1613afb82613a7d565b81815260059190911b82018301908381019087831115613e0057600080fd5b928401925b82841015613e27578351613e188161376f565b82529284019290840190613e05565b979650505050505050565b60008251613e44818460208701613a26565b9190910192915050565b600060208284031215613e6057600080fd5b81518015158114610c9b57600080fdfe360894a13ba1a3210667c828492db98dca3e2076cc3735a920a3ca505d382bbc9b779b17422d0df92223018b32b4d1fa46e071723d6817e2486d003becc55f00a164736f6c6343000817000a",
  "devdoc": {
    "details": "When a trenBox is liquidated, then depending on system conditions, some of its debt tokens debt gets offset with debt tokens in the Stability Pool: that is, the offset debt evaporates, and an equal amount of debt tokens tokens in the Stability Pool is burned. Thus, a liquidation causes each depositor to receive a debt tokens loss, in proportion to their deposit as a share of total deposits. They also receive an Collateral gain, as the amount of collateral of the liquidated trenBox is distributed among Stability depositors, in the same proportion. When a liquidation occurs, it depletes every deposit by the same fraction: for example, a liquidation that depletes 40% of the total debt tokens in the Stability Pool, depletes 40% of each deposit. A deposit that has experienced a series of liquidations is termed a \"compounded deposit\": each liquidation depletes the deposit, multiplying it by some factor in range ]0,1[ --- IMPLEMENTATION --- We use a highly scalable method of tracking deposits and Collateral gains that has O(1) complexity. When a liquidation occurs, rather than updating each depositor's deposit and Collateral gain, we simply update two state variables: a product P, and a sum S. These are kept track for each type of collateral. A mathematical manipulation allows us to factor out the initial deposit, and accurately track all depositors' compounded deposits and accumulated Collateral amount gains over time, as liquidations occur, using just these two variables P and S. When depositors join the Stability Pool, they get a snapshot of the latest P and S: P_t and S_t, respectively. The formula for a depositor's accumulated Collateral amount gain is derived here: https://github.com/liquity/dev/blob/main/papers/Scalable_Reward_Distribution_with_Compounding_Stakes.pdf For a given deposit d_t, the ratio P/P_t tells us the factor by which a deposit has decreased since it joined the Stability Pool, and the term d_t * (S - S_t)/P_t gives us the deposit's total accumulated Collateral amount gain. Each liquidation updates the product P and sum S. After a series of liquidations, a compounded deposit and corresponding Collateral amount gain can be calculated using the initial deposit, the depositors snapshots of P and S, and the latest values of P and S. Any time a depositor updates their deposit (withdrawal, top-up) their accumulated Collateral amount gain is paid out, their new deposit is recorded (based on their latest compounded deposit and modified by the withdrawal/top-up), and they receive new snapshots of the latest P and S. Essentially, they make a fresh deposit that overwrites the old one. --- SCALE FACTOR --- Since P is a running product in range ]0,1] that is always-decreasing, it should never reach 0 when multiplied by a number in range ]0,1[. Unfortunately, Solidity floor division always reaches 0, sooner or later. A series of liquidations that nearly empty the Pool (and thus each multiply P by a very small number in range ]0,1[ ) may push P to its 18 digit decimal limit, and round it to 0, when in fact the Pool hasn't been emptied: this would break deposit tracking. So, to track P accurately, we use a scale factor: if a liquidation would cause P to decrease to <1e-9 (and be rounded to 0 by Solidity), we first multiply P by 1e9, and increment a currentScale factor by 1. The added benefit of using 1e9 for the scale factor (rather than 1e18) is that it ensures negligible precision loss close to the scale boundary: when P is at its minimum value of 1e9, the relative precision loss in P due to floor division is only on the order of 1e-9. --- EPOCHS --- Whenever a liquidation fully empties the Stability Pool, all deposits should become 0. However, setting P to 0 would make P be 0 forever, and break all future reward calculations. So, every time the Stability Pool is emptied by a liquidation, we reset P = 1 and currentScale = 0, and increment the currentEpoch by 1. --- TRACKING DEPOSIT OVER SCALE CHANGES AND EPOCHS --- When a deposit is made, it gets snapshots of the currentEpoch and the currentScale. When calculating a compounded deposit, we compare the current epoch to the deposit's epoch snapshot. If the current epoch is newer, then the deposit was present during a pool-emptying liquidation, and necessarily has been depleted to 0. Otherwise, we then compare the current scale to the deposit's scale snapshot. If they're equal, the compounded deposit is given by d_t * P/P_t. If it spans one scale change, it is given by d_t * P/(P_t * 1e9). If it spans more than one scale change, we define the compounded deposit as 0, since it is now less than 1e-9'th of its initial value (e.g. a deposit of 1 billion debt tokens has depleted to < 1 debt token).  --- TRACKING DEPOSITOR'S COLLATERAL AMOUNT GAIN OVER SCALE CHANGES AND EPOCHS --- In the current epoch, the latest value of S is stored upon each scale change, and the mapping (scale -> S) is stored for each epoch. This allows us to calculate a deposit's accumulated Collateral amount gain, during the epoch in which the deposit was non-zero and earned Collateral amount. We calculate the depositor's accumulated Collateral amount gain for the scale at which they made the deposit, using the Collateral amount gain formula: e_1 = d_t * (S - S_t) / P_t and also for scale after, taking care to divide the latter by a factor of 1e9: e_2 = d_t * S / (P_t * 1e9) The gain in the second scale will be full, as the starting point was in the previous scale, thus no need to subtract anything. The deposit therefore was present for reward events from the beginning of that second scale.        S_i-S_t + S_{i+1}      .<--------.------------>      .         .      . S_i     .   S_{i+1}   <--.-------->.<----------->   S_t.         .   <->.         .      t         .  |---+---------|-------------|-----...         i            i+1 The sum of (e_1 + e_2) captures the depositor's total accumulated Collateral amount gain, handling the case where their deposit spanned one scale change. We only care about gains across one scale change, since the compounded deposit is defined as being 0 once it has spanned more than one scale change. --- UPDATING P WHEN A LIQUIDATION OCCURS --- Please see the implementation spec in the proof document, which closely follows on from the compounded deposit / Collateral amount gain derivations: https://github.com/liquity/liquity/blob/master/papers/Scalable_Reward_Distribution_with_Compounding_Stakes.pdf --- Gravita ISSUANCE TO STABILITY POOL DEPOSITORS --- An Gravita issuance event occurs at every deposit operation, and every liquidation. All deposits earn a share of the issued Gravita in proportion to the deposit as a share of total deposits. Please see the system Readme for an overview: https://github.com/liquity/dev/blob/main/README.md#lqty-issuance-to-stability-providers We use the same mathematical product-sum approach to track Gravita gains for depositors, where 'G' is the sum corresponding to Gravita gains. The product P (and snapshot P_t) is re-used, as the ratio P/P_t tracks a deposit's depletion due to liquidations.",
    "errors": {
      "AddressEmptyCode(address)": [
        {
          "details": "There's no code at `target` (it is not a contract)."
        }
      ],
      "AddressInsufficientBalance(address)": [
        {
          "details": "The ETH balance of the account is not enough to perform the operation."
        }
      ],
      "ERC1967InvalidImplementation(address)": [
        {
          "details": "The `implementation` of the proxy is invalid."
        }
      ],
      "ERC1967NonPayable()": [
        {
          "details": "An upgrade function sees `msg.value > 0` that may be lost."
        }
      ],
      "FailedInnerCall()": [
        {
          "details": "A call to an address target failed. The target may have reverted."
        }
      ],
      "InvalidInitialization()": [
        {
          "details": "The contract is already initialized."
        }
      ],
      "NotInitializing()": [
        {
          "details": "The contract is not initializing."
        }
      ],
      "OwnableInvalidOwner(address)": [
        {
          "details": "The owner is not a valid owner account. (eg. `address(0)`)"
        }
      ],
      "OwnableUnauthorizedAccount(address)": [
        {
          "details": "The caller account is not authorized to perform an operation."
        }
      ],
      "ReentrancyGuardReentrantCall()": [
        {
          "details": "Unauthorized reentrant call."
        }
      ],
      "SafeERC20FailedOperation(address)": [
        {
          "details": "An operation with an ERC20 token failed."
        }
      ],
      "UUPSUnauthorizedCallContext()": [
        {
          "details": "The call is from an unauthorized context."
        }
      ],
      "UUPSUnsupportedProxiableUUID(bytes32)": [
        {
          "details": "The storage `slot` is unsupported as a UUID."
        }
      ]
    },
    "events": {
      "Initialized(uint64)": {
        "details": "Triggered when the contract has been initialized or reinitialized."
      },
      "Upgraded(address)": {
        "details": "Emitted when the implementation is upgraded."
      }
    },
    "kind": "dev",
    "methods": {
      "addCollateralType(address)": {
        "details": "should be called anytime a collateral is added to controller keeps all arrays the correct length",
        "params": {
          "_collateral": "address of collateral to add"
        }
      },
      "getAllCollateral()": {
        "details": "gets collateral from totalColl This is not necessarily the contract's actual collateral balance; just what is stored in state",
        "returns": {
          "_0": "tokens and amounts"
        }
      },
      "getCollateral(address)": {
        "details": "Not necessarily this contract's actual collateral balance; just what is stored in state",
        "params": {
          "_collateral": "address of the collateral to get amount of"
        },
        "returns": {
          "_0": "amount of this specific collateral"
        }
      },
      "getDepositorGains(address,address[])": {
        "details": "Given by the formula:  E = d0 * (S - S(0))/P(0) where S(0) and P(0) are the depositor's snapshots of the sum S and product P, respectively. d0 is the last recorded deposit value.",
        "params": {
          "_assets": "array of assets to check gains for",
          "_depositor": "address of depositor in question"
        },
        "returns": {
          "_0": "assets, amounts"
        }
      },
      "getTotalDebtTokenDeposits()": {
        "details": "gets total debtToken from deposits",
        "returns": {
          "_0": "totalDebtTokenDeposits"
        }
      },
      "offset(uint256,address,uint256)": {
        "details": "Cancels out the specified debt against the debtTokens contained in the Stability Pool (as far as possible) and transfers the TrenBox's collateral from ActivePool to StabilityPool. Only called by liquidation functions in the TrenBoxManager.",
        "params": {
          "_amountAdded": "token amount as uint256",
          "_asset": "token address",
          "_debtToOffset": "how much debt to offset"
        }
      },
      "owner()": {
        "details": "Returns the address of the current owner."
      },
      "provideToSP(uint256,address[])": {
        "details": "Triggers a TREN issuance, based on time passed since the last issuance. The TREN issuance is shared between *all* depositors - Sends depositor's accumulated gains (TREN, collateral assets) to depositor - Increases deposit stake, and takes new snapshots for each.",
        "params": {
          "_amount": "amount of debtToken provided",
          "_assets": "an array of collaterals to be claimed. Skipping a collateral forfeits the available rewards (can be useful for gas optimizations)"
        }
      },
      "proxiableUUID()": {
        "details": "Implementation of the ERC1822 {proxiableUUID} function. This returns the storage slot used by the implementation. It is used to validate the implementation's compatibility when performing an upgrade. IMPORTANT: A proxy pointing at a proxiable contract should not be considered proxiable itself, because this risks bricking a proxy that upgrades to it, by delegating to itself until out of gas. Thus it is critical that this function revert if invoked through a proxy. This is guaranteed by the `notDelegated` modifier."
      },
      "renounceOwnership()": {
        "details": "Leaves the contract without owner. It will not be possible to call `onlyOwner` functions. Can only be called by the current owner. NOTE: Renouncing ownership will leave the contract without an owner, thereby disabling any functionality that is only available to the owner."
      },
      "transferOwnership(address)": {
        "details": "Transfers ownership of the contract to a new account (`newOwner`). Can only be called by the current owner."
      },
      "upgradeToAndCall(address,bytes)": {
        "custom:oz-upgrades-unsafe-allow-reachable": "delegatecall",
        "details": "Upgrade the implementation of the proxy to `newImplementation`, and subsequently execute the function call encoded in `data`. Calls {_authorizeUpgrade}. Emits an {Upgraded} event."
      },
      "withdrawFromSP(uint256,address[])": {
        "params": {
          "_amount": "amount of debtToken to withdraw",
          "_assets": "an array of collaterals to be claimed."
        }
      }
    },
    "title": "The Stability Pool holds debt tokens deposited by Stability Pool depositors.",
    "version": 1
  },
  "userdoc": {
    "kind": "user",
    "methods": {
      "addCollateralType(address)": {
        "notice": "add a collateral"
      },
      "getAllCollateral()": {
        "notice": "getter function"
      },
      "getCollateral(address)": {
        "notice": "get collateral balance in the SP for a given collateral type"
      },
      "getDepositorGains(address,address[])": {
        "notice": "Calculates the gains earned by the deposit since its last snapshots were taken for selected assets."
      },
      "getTotalDebtTokenDeposits()": {
        "notice": "getter function"
      },
      "offset(uint256,address,uint256)": {
        "notice": "sets the offset for liquidation"
      },
      "provideToSP(uint256,address[])": {
        "notice": "Used to provide debt tokens to the stability Pool"
      }
    },
    "version": 1
  },
  "storageLayout": {
    "storage": [
      {
        "astId": 10031,
        "contract": "contracts/StabilityPool.sol:StabilityPool",
        "label": "activePool",
        "offset": 0,
        "slot": "0",
        "type": "t_address"
      },
      {
        "astId": 10033,
        "contract": "contracts/StabilityPool.sol:StabilityPool",
        "label": "adminContract",
        "offset": 0,
        "slot": "1",
        "type": "t_address"
      },
      {
        "astId": 10035,
        "contract": "contracts/StabilityPool.sol:StabilityPool",
        "label": "borrowerOperations",
        "offset": 0,
        "slot": "2",
        "type": "t_address"
      },
      {
        "astId": 10037,
        "contract": "contracts/StabilityPool.sol:StabilityPool",
        "label": "collSurplusPool",
        "offset": 0,
        "slot": "3",
        "type": "t_address"
      },
      {
        "astId": 10039,
        "contract": "contracts/StabilityPool.sol:StabilityPool",
        "label": "communityIssuance",
        "offset": 0,
        "slot": "4",
        "type": "t_address"
      },
      {
        "astId": 10041,
        "contract": "contracts/StabilityPool.sol:StabilityPool",
        "label": "debtToken",
        "offset": 0,
        "slot": "5",
        "type": "t_address"
      },
      {
        "astId": 10043,
        "contract": "contracts/StabilityPool.sol:StabilityPool",
        "label": "defaultPool",
        "offset": 0,
        "slot": "6",
        "type": "t_address"
      },
      {
        "astId": 10045,
        "contract": "contracts/StabilityPool.sol:StabilityPool",
        "label": "feeCollector",
        "offset": 0,
        "slot": "7",
        "type": "t_address"
      },
      {
        "astId": 10047,
        "contract": "contracts/StabilityPool.sol:StabilityPool",
        "label": "flashLoanAddress",
        "offset": 0,
        "slot": "8",
        "type": "t_address"
      },
      {
        "astId": 10049,
        "contract": "contracts/StabilityPool.sol:StabilityPool",
        "label": "gasPoolAddress",
        "offset": 0,
        "slot": "9",
        "type": "t_address"
      },
      {
        "astId": 10051,
        "contract": "contracts/StabilityPool.sol:StabilityPool",
        "label": "trenStaking",
        "offset": 0,
        "slot": "10",
        "type": "t_address"
      },
      {
        "astId": 10053,
        "contract": "contracts/StabilityPool.sol:StabilityPool",
        "label": "priceFeed",
        "offset": 0,
        "slot": "11",
        "type": "t_address"
      },
      {
        "astId": 10055,
        "contract": "contracts/StabilityPool.sol:StabilityPool",
        "label": "sortedTrenBoxes",
        "offset": 0,
        "slot": "12",
        "type": "t_address"
      },
      {
        "astId": 10057,
        "contract": "contracts/StabilityPool.sol:StabilityPool",
        "label": "stabilityPool",
        "offset": 0,
        "slot": "13",
        "type": "t_address"
      },
      {
        "astId": 10059,
        "contract": "contracts/StabilityPool.sol:StabilityPool",
        "label": "timelockAddress",
        "offset": 0,
        "slot": "14",
        "type": "t_address"
      },
      {
        "astId": 10061,
        "contract": "contracts/StabilityPool.sol:StabilityPool",
        "label": "treasuryAddress",
        "offset": 0,
        "slot": "15",
        "type": "t_address"
      },
      {
        "astId": 10063,
        "contract": "contracts/StabilityPool.sol:StabilityPool",
        "label": "trenBoxManager",
        "offset": 0,
        "slot": "16",
        "type": "t_address"
      },
      {
        "astId": 10065,
        "contract": "contracts/StabilityPool.sol:StabilityPool",
        "label": "trenBoxManagerOperations",
        "offset": 0,
        "slot": "17",
        "type": "t_address"
      },
      {
        "astId": 10067,
        "contract": "contracts/StabilityPool.sol:StabilityPool",
        "label": "isAddressSetupInitialized",
        "offset": 20,
        "slot": "17",
        "type": "t_bool"
      },
      {
        "astId": 10072,
        "contract": "contracts/StabilityPool.sol:StabilityPool",
        "label": "__gap",
        "offset": 0,
        "slot": "18",
        "type": "t_array(t_uint256)33_storage"
      },
      {
        "astId": 17398,
        "contract": "contracts/StabilityPool.sol:StabilityPool",
        "label": "totalDebtTokenDeposits",
        "offset": 0,
        "slot": "51",
        "type": "t_uint256"
      },
      {
        "astId": 17401,
        "contract": "contracts/StabilityPool.sol:StabilityPool",
        "label": "totalColl",
        "offset": 0,
        "slot": "52",
        "type": "t_struct(Colls)10408_storage"
      },
      {
        "astId": 17405,
        "contract": "contracts/StabilityPool.sol:StabilityPool",
        "label": "deposits",
        "offset": 0,
        "slot": "54",
        "type": "t_mapping(t_address,t_uint256)"
      },
      {
        "astId": 17410,
        "contract": "contracts/StabilityPool.sol:StabilityPool",
        "label": "depositSnapshots",
        "offset": 0,
        "slot": "55",
        "type": "t_mapping(t_address,t_struct(Snapshots)13814_storage)"
      },
      {
        "astId": 17412,
        "contract": "contracts/StabilityPool.sol:StabilityPool",
        "label": "P",
        "offset": 0,
        "slot": "56",
        "type": "t_uint256"
      },
      {
        "astId": 17417,
        "contract": "contracts/StabilityPool.sol:StabilityPool",
        "label": "currentScale",
        "offset": 0,
        "slot": "57",
        "type": "t_uint128"
      },
      {
        "astId": 17419,
        "contract": "contracts/StabilityPool.sol:StabilityPool",
        "label": "currentEpoch",
        "offset": 16,
        "slot": "57",
        "type": "t_uint128"
      },
      {
        "astId": 17427,
        "contract": "contracts/StabilityPool.sol:StabilityPool",
        "label": "epochToScaleToSum",
        "offset": 0,
        "slot": "58",
        "type": "t_mapping(t_address,t_mapping(t_uint128,t_mapping(t_uint128,t_uint256)))"
      },
      {
        "astId": 17433,
        "contract": "contracts/StabilityPool.sol:StabilityPool",
        "label": "epochToScaleToG",
        "offset": 0,
        "slot": "59",
        "type": "t_mapping(t_uint128,t_mapping(t_uint128,t_uint256))"
      },
      {
        "astId": 17435,
        "contract": "contracts/StabilityPool.sol:StabilityPool",
        "label": "lastTRENError",
        "offset": 0,
        "slot": "60",
        "type": "t_uint256"
      },
      {
        "astId": 17438,
        "contract": "contracts/StabilityPool.sol:StabilityPool",
        "label": "lastAssetError_Offset",
        "offset": 0,
        "slot": "61",
        "type": "t_array(t_uint256)dyn_storage"
      },
      {
        "astId": 17440,
        "contract": "contracts/StabilityPool.sol:StabilityPool",
        "label": "lastDebtTokenLossError_Offset",
        "offset": 0,
        "slot": "62",
        "type": "t_uint256"
      }
    ],
    "types": {
      "t_address": {
        "encoding": "inplace",
        "label": "address",
        "numberOfBytes": "20"
      },
      "t_array(t_address)dyn_storage": {
        "base": "t_address",
        "encoding": "dynamic_array",
        "label": "address[]",
        "numberOfBytes": "32"
      },
      "t_array(t_uint256)33_storage": {
        "base": "t_uint256",
        "encoding": "inplace",
        "label": "uint256[33]",
        "numberOfBytes": "1056"
      },
      "t_array(t_uint256)dyn_storage": {
        "base": "t_uint256",
        "encoding": "dynamic_array",
        "label": "uint256[]",
        "numberOfBytes": "32"
      },
      "t_bool": {
        "encoding": "inplace",
        "label": "bool",
        "numberOfBytes": "1"
      },
      "t_mapping(t_address,t_mapping(t_uint128,t_mapping(t_uint128,t_uint256)))": {
        "encoding": "mapping",
        "key": "t_address",
        "label": "mapping(address => mapping(uint128 => mapping(uint128 => uint256)))",
        "numberOfBytes": "32",
        "value": "t_mapping(t_uint128,t_mapping(t_uint128,t_uint256))"
      },
      "t_mapping(t_address,t_struct(Snapshots)13814_storage)": {
        "encoding": "mapping",
        "key": "t_address",
        "label": "mapping(address => struct IStabilityPool.Snapshots)",
        "numberOfBytes": "32",
        "value": "t_struct(Snapshots)13814_storage"
      },
      "t_mapping(t_address,t_uint256)": {
        "encoding": "mapping",
        "key": "t_address",
        "label": "mapping(address => uint256)",
        "numberOfBytes": "32",
        "value": "t_uint256"
      },
      "t_mapping(t_uint128,t_mapping(t_uint128,t_uint256))": {
        "encoding": "mapping",
        "key": "t_uint128",
        "label": "mapping(uint128 => mapping(uint128 => uint256))",
        "numberOfBytes": "32",
        "value": "t_mapping(t_uint128,t_uint256)"
      },
      "t_mapping(t_uint128,t_uint256)": {
        "encoding": "mapping",
        "key": "t_uint128",
        "label": "mapping(uint128 => uint256)",
        "numberOfBytes": "32",
        "value": "t_uint256"
      },
      "t_struct(Colls)10408_storage": {
        "encoding": "inplace",
        "label": "struct TrenBase.Colls",
        "members": [
          {
            "astId": 10404,
            "contract": "contracts/StabilityPool.sol:StabilityPool",
            "label": "tokens",
            "offset": 0,
            "slot": "0",
            "type": "t_array(t_address)dyn_storage"
          },
          {
            "astId": 10407,
            "contract": "contracts/StabilityPool.sol:StabilityPool",
            "label": "amounts",
            "offset": 0,
            "slot": "1",
            "type": "t_array(t_uint256)dyn_storage"
          }
        ],
        "numberOfBytes": "64"
      },
      "t_struct(Snapshots)13814_storage": {
        "encoding": "inplace",
        "label": "struct IStabilityPool.Snapshots",
        "members": [
          {
            "astId": 13805,
            "contract": "contracts/StabilityPool.sol:StabilityPool",
            "label": "S",
            "offset": 0,
            "slot": "0",
            "type": "t_mapping(t_address,t_uint256)"
          },
          {
            "astId": 13807,
            "contract": "contracts/StabilityPool.sol:StabilityPool",
            "label": "P",
            "offset": 0,
            "slot": "1",
            "type": "t_uint256"
          },
          {
            "astId": 13809,
            "contract": "contracts/StabilityPool.sol:StabilityPool",
            "label": "G",
            "offset": 0,
            "slot": "2",
            "type": "t_uint256"
          },
          {
            "astId": 13811,
            "contract": "contracts/StabilityPool.sol:StabilityPool",
            "label": "scale",
            "offset": 0,
            "slot": "3",
            "type": "t_uint128"
          },
          {
            "astId": 13813,
            "contract": "contracts/StabilityPool.sol:StabilityPool",
            "label": "epoch",
            "offset": 16,
            "slot": "3",
            "type": "t_uint128"
          }
        ],
        "numberOfBytes": "128"
      },
      "t_uint128": {
        "encoding": "inplace",
        "label": "uint128",
        "numberOfBytes": "16"
      },
      "t_uint256": {
        "encoding": "inplace",
        "label": "uint256",
        "numberOfBytes": "32"
      }
    }
  }
}