{
  "address": "0xeD15dA84CbbFEE89B01E6f32aCE0A7eE7E2b5e81",
  "abi": [
    {
      "inputs": [
        {
          "internalType": "address",
          "name": "target",
          "type": "address"
        }
      ],
      "name": "AddressEmptyCode",
      "type": "error"
    },
    {
      "inputs": [],
      "name": "ConfigurableAddresses__CommunityIssuanceZeroAddress",
      "type": "error"
    },
    {
      "inputs": [],
      "name": "ConfigurableAddresses__LengthMismatch",
      "type": "error"
    },
    {
      "inputs": [],
      "name": "ConfigurableAddresses__SetupIsInitialized",
      "type": "error"
    },
    {
      "inputs": [],
      "name": "ConfigurableAddresses__TRENStakingZeroAddress",
      "type": "error"
    },
    {
      "inputs": [
        {
          "internalType": "uint256",
          "name": "position",
          "type": "uint256"
        },
        {
          "internalType": "address",
          "name": "address_",
          "type": "address"
        }
      ],
      "name": "ConfigurableAddresses__ZeroAddresses",
      "type": "error"
    },
    {
      "inputs": [
        {
          "internalType": "address",
          "name": "implementation",
          "type": "address"
        }
      ],
      "name": "ERC1967InvalidImplementation",
      "type": "error"
    },
    {
      "inputs": [],
      "name": "ERC1967NonPayable",
      "type": "error"
    },
    {
      "inputs": [],
      "name": "FailedInnerCall",
      "type": "error"
    },
    {
      "inputs": [],
      "name": "InvalidInitialization",
      "type": "error"
    },
    {
      "inputs": [],
      "name": "NotInitializing",
      "type": "error"
    },
    {
      "inputs": [
        {
          "internalType": "address",
          "name": "owner",
          "type": "address"
        }
      ],
      "name": "OwnableInvalidOwner",
      "type": "error"
    },
    {
      "inputs": [
        {
          "internalType": "address",
          "name": "account",
          "type": "address"
        }
      ],
      "name": "OwnableUnauthorizedAccount",
      "type": "error"
    },
    {
      "inputs": [],
      "name": "ReentrancyGuardReentrantCall",
      "type": "error"
    },
    {
      "inputs": [
        {
          "internalType": "uint256",
          "name": "feePercentage",
          "type": "uint256"
        },
        {
          "internalType": "uint256",
          "name": "maxFeePercentage",
          "type": "uint256"
        }
      ],
      "name": "TrenBase__FeeExceededMax",
      "type": "error"
    },
    {
      "inputs": [],
      "name": "TrenBoxManager__FeeBiggerThanAssetDraw",
      "type": "error"
    },
    {
      "inputs": [],
      "name": "TrenBoxManager__OnlyBorrowerOperations",
      "type": "error"
    },
    {
      "inputs": [],
      "name": "TrenBoxManager__OnlyOneTrenBox",
      "type": "error"
    },
    {
      "inputs": [],
      "name": "TrenBoxManager__OnlyTrenBoxManagerOperations",
      "type": "error"
    },
    {
      "inputs": [],
      "name": "TrenBoxManager__OnlyTrenBoxManagerOperationsOrBorrowerOperations",
      "type": "error"
    },
    {
      "inputs": [],
      "name": "UUPSUnauthorizedCallContext",
      "type": "error"
    },
    {
      "inputs": [
        {
          "internalType": "bytes32",
          "name": "slot",
          "type": "bytes32"
        }
      ],
      "name": "UUPSUnsupportedProxiableUUID",
      "type": "error"
    },
    {
      "anonymous": false,
      "inputs": [
        {
          "indexed": true,
          "internalType": "address",
          "name": "_asset",
          "type": "address"
        },
        {
          "indexed": false,
          "internalType": "uint256",
          "name": "_baseRate",
          "type": "uint256"
        }
      ],
      "name": "BaseRateUpdated",
      "type": "event"
    },
    {
      "anonymous": false,
      "inputs": [
        {
          "indexed": false,
          "internalType": "uint64",
          "name": "version",
          "type": "uint64"
        }
      ],
      "name": "Initialized",
      "type": "event"
    },
    {
      "anonymous": false,
      "inputs": [
        {
          "indexed": true,
          "internalType": "address",
          "name": "_asset",
          "type": "address"
        },
        {
          "indexed": false,
          "internalType": "uint256",
          "name": "_L_Coll",
          "type": "uint256"
        },
        {
          "indexed": false,
          "internalType": "uint256",
          "name": "_L_Debt",
          "type": "uint256"
        }
      ],
      "name": "LTermsUpdated",
      "type": "event"
    },
    {
      "anonymous": false,
      "inputs": [
        {
          "indexed": true,
          "internalType": "address",
          "name": "_asset",
          "type": "address"
        },
        {
          "indexed": false,
          "internalType": "uint256",
          "name": "_lastFeeOpTime",
          "type": "uint256"
        }
      ],
      "name": "LastFeeOpTimeUpdated",
      "type": "event"
    },
    {
      "anonymous": false,
      "inputs": [
        {
          "indexed": true,
          "internalType": "address",
          "name": "previousOwner",
          "type": "address"
        },
        {
          "indexed": true,
          "internalType": "address",
          "name": "newOwner",
          "type": "address"
        }
      ],
      "name": "OwnershipTransferred",
      "type": "event"
    },
    {
      "anonymous": false,
      "inputs": [
        {
          "indexed": true,
          "internalType": "address",
          "name": "_asset",
          "type": "address"
        },
        {
          "indexed": false,
          "internalType": "uint256",
          "name": "_totalStakesSnapshot",
          "type": "uint256"
        },
        {
          "indexed": false,
          "internalType": "uint256",
          "name": "_totalCollateralSnapshot",
          "type": "uint256"
        }
      ],
      "name": "SystemSnapshotsUpdated",
      "type": "event"
    },
    {
      "anonymous": false,
      "inputs": [
        {
          "indexed": true,
          "internalType": "address",
          "name": "_asset",
          "type": "address"
        },
        {
          "indexed": false,
          "internalType": "uint256",
          "name": "_newTotalStakes",
          "type": "uint256"
        }
      ],
      "name": "TotalStakesUpdated",
      "type": "event"
    },
    {
      "anonymous": false,
      "inputs": [
        {
          "indexed": true,
          "internalType": "address",
          "name": "_asset",
          "type": "address"
        },
        {
          "indexed": false,
          "internalType": "address",
          "name": "_borrower",
          "type": "address"
        },
        {
          "indexed": false,
          "internalType": "uint256",
          "name": "_newIndex",
          "type": "uint256"
        }
      ],
      "name": "TrenBoxIndexUpdated",
      "type": "event"
    },
    {
      "anonymous": false,
      "inputs": [
        {
          "indexed": true,
          "internalType": "address",
          "name": "_asset",
          "type": "address"
        },
        {
          "indexed": false,
          "internalType": "uint256",
          "name": "_L_Coll",
          "type": "uint256"
        },
        {
          "indexed": false,
          "internalType": "uint256",
          "name": "_L_Debt",
          "type": "uint256"
        }
      ],
      "name": "TrenBoxSnapshotsUpdated",
      "type": "event"
    },
    {
      "anonymous": false,
      "inputs": [
        {
          "indexed": true,
          "internalType": "address",
          "name": "_asset",
          "type": "address"
        },
        {
          "indexed": true,
          "internalType": "address",
          "name": "_borrower",
          "type": "address"
        },
        {
          "indexed": false,
          "internalType": "uint256",
          "name": "_debt",
          "type": "uint256"
        },
        {
          "indexed": false,
          "internalType": "uint256",
          "name": "_coll",
          "type": "uint256"
        },
        {
          "indexed": false,
          "internalType": "uint256",
          "name": "_stake",
          "type": "uint256"
        },
        {
          "indexed": false,
          "internalType": "enum ITrenBoxManager.TrenBoxManagerOperation",
          "name": "_operation",
          "type": "uint8"
        }
      ],
      "name": "TrenBoxUpdated",
      "type": "event"
    },
    {
      "anonymous": false,
      "inputs": [
        {
          "indexed": true,
          "internalType": "address",
          "name": "implementation",
          "type": "address"
        }
      ],
      "name": "Upgraded",
      "type": "event"
    },
    {
      "inputs": [],
      "name": "BETA",
      "outputs": [
        {
          "internalType": "uint256",
          "name": "",
          "type": "uint256"
        }
      ],
      "stateMutability": "view",
      "type": "function"
    },
    {
      "inputs": [
        {
          "internalType": "address",
          "name": "collateral",
          "type": "address"
        }
      ],
      "name": "L_Colls",
      "outputs": [
        {
          "internalType": "uint256",
          "name": "accumulatedRewards",
          "type": "uint256"
        }
      ],
      "stateMutability": "view",
      "type": "function"
    },
    {
      "inputs": [
        {
          "internalType": "address",
          "name": "collateral",
          "type": "address"
        }
      ],
      "name": "L_Debts",
      "outputs": [
        {
          "internalType": "uint256",
          "name": "accumulatedRewards",
          "type": "uint256"
        }
      ],
      "stateMutability": "view",
      "type": "function"
    },
    {
      "inputs": [],
      "name": "MINUTE_DECAY_FACTOR",
      "outputs": [
        {
          "internalType": "uint256",
          "name": "",
          "type": "uint256"
        }
      ],
      "stateMutability": "view",
      "type": "function"
    },
    {
      "inputs": [],
      "name": "NAME",
      "outputs": [
        {
          "internalType": "string",
          "name": "",
          "type": "string"
        }
      ],
      "stateMutability": "view",
      "type": "function"
    },
    {
      "inputs": [],
      "name": "SECONDS_IN_ONE_MINUTE",
      "outputs": [
        {
          "internalType": "uint256",
          "name": "",
          "type": "uint256"
        }
      ],
      "stateMutability": "view",
      "type": "function"
    },
    {
      "inputs": [
        {
          "internalType": "address",
          "name": "collateral",
          "type": "address"
        },
        {
          "internalType": "uint256",
          "name": "",
          "type": "uint256"
        }
      ],
      "name": "TrenBoxOwners",
      "outputs": [
        {
          "internalType": "address",
          "name": "owners",
          "type": "address"
        }
      ],
      "stateMutability": "view",
      "type": "function"
    },
    {
      "inputs": [
        {
          "internalType": "address",
          "name": "borrower",
          "type": "address"
        },
        {
          "internalType": "address",
          "name": "collateral",
          "type": "address"
        }
      ],
      "name": "TrenBoxes",
      "outputs": [
        {
          "internalType": "uint256",
          "name": "debt",
          "type": "uint256"
        },
        {
          "internalType": "uint256",
          "name": "coll",
          "type": "uint256"
        },
        {
          "internalType": "uint256",
          "name": "stake",
          "type": "uint256"
        },
        {
          "internalType": "enum ITrenBoxManager.Status",
          "name": "status",
          "type": "uint8"
        },
        {
          "internalType": "uint128",
          "name": "arrayIndex",
          "type": "uint128"
        }
      ],
      "stateMutability": "view",
      "type": "function"
    },
    {
      "inputs": [],
      "name": "UPGRADE_INTERFACE_VERSION",
      "outputs": [
        {
          "internalType": "string",
          "name": "",
          "type": "string"
        }
      ],
      "stateMutability": "view",
      "type": "function"
    },
    {
      "inputs": [],
      "name": "activePool",
      "outputs": [
        {
          "internalType": "address",
          "name": "",
          "type": "address"
        }
      ],
      "stateMutability": "view",
      "type": "function"
    },
    {
      "inputs": [
        {
          "internalType": "address",
          "name": "_asset",
          "type": "address"
        },
        {
          "internalType": "address",
          "name": "_borrower",
          "type": "address"
        }
      ],
      "name": "addTrenBoxOwnerToArray",
      "outputs": [
        {
          "internalType": "uint256",
          "name": "index",
          "type": "uint256"
        }
      ],
      "stateMutability": "nonpayable",
      "type": "function"
    },
    {
      "inputs": [],
      "name": "adminContract",
      "outputs": [
        {
          "internalType": "address",
          "name": "",
          "type": "address"
        }
      ],
      "stateMutability": "view",
      "type": "function"
    },
    {
      "inputs": [
        {
          "internalType": "address",
          "name": "_asset",
          "type": "address"
        },
        {
          "internalType": "address",
          "name": "_borrower",
          "type": "address"
        }
      ],
      "name": "applyPendingRewards",
      "outputs": [],
      "stateMutability": "nonpayable",
      "type": "function"
    },
    {
      "inputs": [
        {
          "internalType": "address",
          "name": "newImplementation",
          "type": "address"
        }
      ],
      "name": "authorizeUpgrade",
      "outputs": [],
      "stateMutability": "nonpayable",
      "type": "function"
    },
    {
      "inputs": [
        {
          "internalType": "address",
          "name": "collateral",
          "type": "address"
        }
      ],
      "name": "baseRate",
      "outputs": [
        {
          "internalType": "uint256",
          "name": "rate",
          "type": "uint256"
        }
      ],
      "stateMutability": "view",
      "type": "function"
    },
    {
      "inputs": [],
      "name": "borrowerOperations",
      "outputs": [
        {
          "internalType": "address",
          "name": "",
          "type": "address"
        }
      ],
      "stateMutability": "view",
      "type": "function"
    },
    {
      "inputs": [
        {
          "internalType": "address",
          "name": "_asset",
          "type": "address"
        },
        {
          "internalType": "uint256",
          "name": "_price",
          "type": "uint256"
        }
      ],
      "name": "checkRecoveryMode",
      "outputs": [
        {
          "internalType": "bool",
          "name": "",
          "type": "bool"
        }
      ],
      "stateMutability": "view",
      "type": "function"
    },
    {
      "inputs": [
        {
          "internalType": "address",
          "name": "_asset",
          "type": "address"
        },
        {
          "internalType": "address",
          "name": "_borrower",
          "type": "address"
        }
      ],
      "name": "closeTrenBox",
      "outputs": [],
      "stateMutability": "nonpayable",
      "type": "function"
    },
    {
      "inputs": [
        {
          "internalType": "address",
          "name": "_asset",
          "type": "address"
        },
        {
          "internalType": "address",
          "name": "_borrower",
          "type": "address"
        }
      ],
      "name": "closeTrenBoxLiquidation",
      "outputs": [],
      "stateMutability": "nonpayable",
      "type": "function"
    },
    {
      "inputs": [],
      "name": "collSurplusPool",
      "outputs": [
        {
          "internalType": "address",
          "name": "",
          "type": "address"
        }
      ],
      "stateMutability": "view",
      "type": "function"
    },
    {
      "inputs": [],
      "name": "communityIssuance",
      "outputs": [
        {
          "internalType": "address",
          "name": "",
          "type": "address"
        }
      ],
      "stateMutability": "view",
      "type": "function"
    },
    {
      "inputs": [],
      "name": "debtToken",
      "outputs": [
        {
          "internalType": "address",
          "name": "",
          "type": "address"
        }
      ],
      "stateMutability": "view",
      "type": "function"
    },
    {
      "inputs": [
        {
          "internalType": "address",
          "name": "_asset",
          "type": "address"
        },
        {
          "internalType": "address",
          "name": "_borrower",
          "type": "address"
        },
        {
          "internalType": "uint256",
          "name": "_collDecrease",
          "type": "uint256"
        }
      ],
      "name": "decreaseTrenBoxColl",
      "outputs": [
        {
          "internalType": "uint256",
          "name": "newColl",
          "type": "uint256"
        }
      ],
      "stateMutability": "nonpayable",
      "type": "function"
    },
    {
      "inputs": [
        {
          "internalType": "address",
          "name": "_asset",
          "type": "address"
        },
        {
          "internalType": "address",
          "name": "_borrower",
          "type": "address"
        },
        {
          "internalType": "uint256",
          "name": "_debtDecrease",
          "type": "uint256"
        }
      ],
      "name": "decreaseTrenBoxDebt",
      "outputs": [
        {
          "internalType": "uint256",
          "name": "",
          "type": "uint256"
        }
      ],
      "stateMutability": "nonpayable",
      "type": "function"
    },
    {
      "inputs": [],
      "name": "defaultPool",
      "outputs": [
        {
          "internalType": "address",
          "name": "",
          "type": "address"
        }
      ],
      "stateMutability": "view",
      "type": "function"
    },
    {
      "inputs": [
        {
          "internalType": "address",
          "name": "_asset",
          "type": "address"
        },
        {
          "internalType": "address",
          "name": "_borrower",
          "type": "address"
        },
        {
          "internalType": "uint256",
          "name": "_newColl",
          "type": "uint256"
        }
      ],
      "name": "executeFullRedemption",
      "outputs": [],
      "stateMutability": "nonpayable",
      "type": "function"
    },
    {
      "inputs": [
        {
          "internalType": "address",
          "name": "_asset",
          "type": "address"
        },
        {
          "internalType": "address",
          "name": "_borrower",
          "type": "address"
        },
        {
          "internalType": "uint256",
          "name": "_newDebt",
          "type": "uint256"
        },
        {
          "internalType": "uint256",
          "name": "_newColl",
          "type": "uint256"
        },
        {
          "internalType": "uint256",
          "name": "_newNICR",
          "type": "uint256"
        },
        {
          "internalType": "address",
          "name": "_upperPartialRedemptionHint",
          "type": "address"
        },
        {
          "internalType": "address",
          "name": "_lowerPartialRedemptionHint",
          "type": "address"
        }
      ],
      "name": "executePartialRedemption",
      "outputs": [],
      "stateMutability": "nonpayable",
      "type": "function"
    },
    {
      "inputs": [],
      "name": "feeCollector",
      "outputs": [
        {
          "internalType": "address",
          "name": "",
          "type": "address"
        }
      ],
      "stateMutability": "view",
      "type": "function"
    },
    {
      "inputs": [
        {
          "internalType": "address",
          "name": "_asset",
          "type": "address"
        },
        {
          "internalType": "address",
          "name": "_receiver",
          "type": "address"
        },
        {
          "internalType": "uint256",
          "name": "_debtToRedeem",
          "type": "uint256"
        },
        {
          "internalType": "uint256",
          "name": "_assetFeeAmount",
          "type": "uint256"
        },
        {
          "internalType": "uint256",
          "name": "_assetRedeemedAmount",
          "type": "uint256"
        }
      ],
      "name": "finalizeRedemption",
      "outputs": [],
      "stateMutability": "nonpayable",
      "type": "function"
    },
    {
      "inputs": [],
      "name": "flashLoanAddress",
      "outputs": [
        {
          "internalType": "address",
          "name": "",
          "type": "address"
        }
      ],
      "stateMutability": "view",
      "type": "function"
    },
    {
      "inputs": [],
      "name": "gasPoolAddress",
      "outputs": [
        {
          "internalType": "address",
          "name": "",
          "type": "address"
        }
      ],
      "stateMutability": "view",
      "type": "function"
    },
    {
      "inputs": [
        {
          "internalType": "address",
          "name": "_asset",
          "type": "address"
        },
        {
          "internalType": "uint256",
          "name": "_debt",
          "type": "uint256"
        }
      ],
      "name": "getBorrowingFee",
      "outputs": [
        {
          "internalType": "uint256",
          "name": "",
          "type": "uint256"
        }
      ],
      "stateMutability": "view",
      "type": "function"
    },
    {
      "inputs": [
        {
          "internalType": "address",
          "name": "_asset",
          "type": "address"
        }
      ],
      "name": "getBorrowingRate",
      "outputs": [
        {
          "internalType": "uint256",
          "name": "",
          "type": "uint256"
        }
      ],
      "stateMutability": "view",
      "type": "function"
    },
    {
      "inputs": [
        {
          "internalType": "address",
          "name": "_asset",
          "type": "address"
        },
        {
          "internalType": "address",
          "name": "_borrower",
          "type": "address"
        },
        {
          "internalType": "uint256",
          "name": "_price",
          "type": "uint256"
        }
      ],
      "name": "getCurrentICR",
      "outputs": [
        {
          "internalType": "uint256",
          "name": "",
          "type": "uint256"
        }
      ],
      "stateMutability": "view",
      "type": "function"
    },
    {
      "inputs": [
        {
          "internalType": "address",
          "name": "_asset",
          "type": "address"
        },
        {
          "internalType": "address",
          "name": "_borrower",
          "type": "address"
        }
      ],
      "name": "getEntireDebtAndColl",
      "outputs": [
        {
          "internalType": "uint256",
          "name": "debt",
          "type": "uint256"
        },
        {
          "internalType": "uint256",
          "name": "coll",
          "type": "uint256"
        },
        {
          "internalType": "uint256",
          "name": "pendingDebtReward",
          "type": "uint256"
        },
        {
          "internalType": "uint256",
          "name": "pendingCollReward",
          "type": "uint256"
        }
      ],
      "stateMutability": "view",
      "type": "function"
    },
    {
      "inputs": [
        {
          "internalType": "address",
          "name": "_asset",
          "type": "address"
        }
      ],
      "name": "getEntireSystemColl",
      "outputs": [
        {
          "internalType": "uint256",
          "name": "entireSystemColl",
          "type": "uint256"
        }
      ],
      "stateMutability": "view",
      "type": "function"
    },
    {
      "inputs": [
        {
          "internalType": "address",
          "name": "_asset",
          "type": "address"
        }
      ],
      "name": "getEntireSystemDebt",
      "outputs": [
        {
          "internalType": "uint256",
          "name": "entireSystemDebt",
          "type": "uint256"
        }
      ],
      "stateMutability": "view",
      "type": "function"
    },
    {
      "inputs": [
        {
          "internalType": "address",
          "name": "_asset",
          "type": "address"
        },
        {
          "internalType": "uint256",
          "name": "_debt",
          "type": "uint256"
        }
      ],
      "name": "getNetDebt",
      "outputs": [
        {
          "internalType": "uint256",
          "name": "",
          "type": "uint256"
        }
      ],
      "stateMutability": "view",
      "type": "function"
    },
    {
      "inputs": [
        {
          "internalType": "address",
          "name": "_asset",
          "type": "address"
        },
        {
          "internalType": "address",
          "name": "_borrower",
          "type": "address"
        }
      ],
      "name": "getNominalICR",
      "outputs": [
        {
          "internalType": "uint256",
          "name": "",
          "type": "uint256"
        }
      ],
      "stateMutability": "view",
      "type": "function"
    },
    {
      "inputs": [
        {
          "internalType": "address",
          "name": "_asset",
          "type": "address"
        },
        {
          "internalType": "address",
          "name": "_borrower",
          "type": "address"
        }
      ],
      "name": "getPendingAssetReward",
      "outputs": [
        {
          "internalType": "uint256",
          "name": "",
          "type": "uint256"
        }
      ],
      "stateMutability": "view",
      "type": "function"
    },
    {
      "inputs": [
        {
          "internalType": "address",
          "name": "_asset",
          "type": "address"
        },
        {
          "internalType": "address",
          "name": "_borrower",
          "type": "address"
        }
      ],
      "name": "getPendingDebtTokenReward",
      "outputs": [
        {
          "internalType": "uint256",
          "name": "",
          "type": "uint256"
        }
      ],
      "stateMutability": "view",
      "type": "function"
    },
    {
      "inputs": [
        {
          "internalType": "address",
          "name": "_asset",
          "type": "address"
        },
        {
          "internalType": "uint256",
          "name": "_assetDraw",
          "type": "uint256"
        }
      ],
      "name": "getRedemptionFee",
      "outputs": [
        {
          "internalType": "uint256",
          "name": "",
          "type": "uint256"
        }
      ],
      "stateMutability": "view",
      "type": "function"
    },
    {
      "inputs": [
        {
          "internalType": "address",
          "name": "_asset",
          "type": "address"
        },
        {
          "internalType": "uint256",
          "name": "_assetDraw",
          "type": "uint256"
        }
      ],
      "name": "getRedemptionFeeWithDecay",
      "outputs": [
        {
          "internalType": "uint256",
          "name": "",
          "type": "uint256"
        }
      ],
      "stateMutability": "view",
      "type": "function"
    },
    {
      "inputs": [
        {
          "internalType": "address",
          "name": "_asset",
          "type": "address"
        }
      ],
      "name": "getRedemptionRate",
      "outputs": [
        {
          "internalType": "uint256",
          "name": "",
          "type": "uint256"
        }
      ],
      "stateMutability": "view",
      "type": "function"
    },
    {
      "inputs": [
        {
          "internalType": "address",
          "name": "_asset",
          "type": "address"
        }
      ],
      "name": "getRedemptionRateWithDecay",
      "outputs": [
        {
          "internalType": "uint256",
          "name": "",
          "type": "uint256"
        }
      ],
      "stateMutability": "view",
      "type": "function"
    },
    {
      "inputs": [
        {
          "internalType": "address",
          "name": "_asset",
          "type": "address"
        },
        {
          "internalType": "uint256",
          "name": "_price",
          "type": "uint256"
        }
      ],
      "name": "getTCR",
      "outputs": [
        {
          "internalType": "uint256",
          "name": "",
          "type": "uint256"
        }
      ],
      "stateMutability": "view",
      "type": "function"
    },
    {
      "inputs": [
        {
          "internalType": "address",
          "name": "_asset",
          "type": "address"
        },
        {
          "internalType": "address",
          "name": "_borrower",
          "type": "address"
        }
      ],
      "name": "getTrenBoxColl",
      "outputs": [
        {
          "internalType": "uint256",
          "name": "",
          "type": "uint256"
        }
      ],
      "stateMutability": "view",
      "type": "function"
    },
    {
      "inputs": [
        {
          "internalType": "address",
          "name": "_asset",
          "type": "address"
        },
        {
          "internalType": "address",
          "name": "_borrower",
          "type": "address"
        }
      ],
      "name": "getTrenBoxDebt",
      "outputs": [
        {
          "internalType": "uint256",
          "name": "",
          "type": "uint256"
        }
      ],
      "stateMutability": "view",
      "type": "function"
    },
    {
      "inputs": [
        {
          "internalType": "address",
          "name": "_asset",
          "type": "address"
        },
        {
          "internalType": "uint256",
          "name": "_index",
          "type": "uint256"
        }
      ],
      "name": "getTrenBoxFromTrenBoxOwnersArray",
      "outputs": [
        {
          "internalType": "address",
          "name": "",
          "type": "address"
        }
      ],
      "stateMutability": "view",
      "type": "function"
    },
    {
      "inputs": [
        {
          "internalType": "address",
          "name": "_asset",
          "type": "address"
        }
      ],
      "name": "getTrenBoxOwnersCount",
      "outputs": [
        {
          "internalType": "uint256",
          "name": "",
          "type": "uint256"
        }
      ],
      "stateMutability": "view",
      "type": "function"
    },
    {
      "inputs": [
        {
          "internalType": "address",
          "name": "_asset",
          "type": "address"
        },
        {
          "internalType": "address",
          "name": "_borrower",
          "type": "address"
        }
      ],
      "name": "getTrenBoxStake",
      "outputs": [
        {
          "internalType": "uint256",
          "name": "",
          "type": "uint256"
        }
      ],
      "stateMutability": "view",
      "type": "function"
    },
    {
      "inputs": [
        {
          "internalType": "address",
          "name": "_asset",
          "type": "address"
        },
        {
          "internalType": "address",
          "name": "_borrower",
          "type": "address"
        }
      ],
      "name": "getTrenBoxStatus",
      "outputs": [
        {
          "internalType": "uint256",
          "name": "",
          "type": "uint256"
        }
      ],
      "stateMutability": "view",
      "type": "function"
    },
    {
      "inputs": [
        {
          "internalType": "address",
          "name": "_asset",
          "type": "address"
        },
        {
          "internalType": "address",
          "name": "_borrower",
          "type": "address"
        }
      ],
      "name": "hasPendingRewards",
      "outputs": [
        {
          "internalType": "bool",
          "name": "",
          "type": "bool"
        }
      ],
      "stateMutability": "view",
      "type": "function"
    },
    {
      "inputs": [
        {
          "internalType": "address",
          "name": "_asset",
          "type": "address"
        },
        {
          "internalType": "address",
          "name": "_borrower",
          "type": "address"
        },
        {
          "internalType": "uint256",
          "name": "_collIncrease",
          "type": "uint256"
        }
      ],
      "name": "increaseTrenBoxColl",
      "outputs": [
        {
          "internalType": "uint256",
          "name": "newColl",
          "type": "uint256"
        }
      ],
      "stateMutability": "nonpayable",
      "type": "function"
    },
    {
      "inputs": [
        {
          "internalType": "address",
          "name": "_asset",
          "type": "address"
        },
        {
          "internalType": "address",
          "name": "_borrower",
          "type": "address"
        },
        {
          "internalType": "uint256",
          "name": "_debtIncrease",
          "type": "uint256"
        }
      ],
      "name": "increaseTrenBoxDebt",
      "outputs": [
        {
          "internalType": "uint256",
          "name": "newDebt",
          "type": "uint256"
        }
      ],
      "stateMutability": "nonpayable",
      "type": "function"
    },
    {
      "inputs": [],
      "name": "initialize",
      "outputs": [],
      "stateMutability": "nonpayable",
      "type": "function"
    },
    {
      "inputs": [],
      "name": "isAddressSetupInitialized",
      "outputs": [
        {
          "internalType": "bool",
          "name": "",
          "type": "bool"
        }
      ],
      "stateMutability": "view",
      "type": "function"
    },
    {
      "inputs": [
        {
          "internalType": "address",
          "name": "_asset",
          "type": "address"
        },
        {
          "internalType": "address",
          "name": "_borrower",
          "type": "address"
        }
      ],
      "name": "isTrenBoxActive",
      "outputs": [
        {
          "internalType": "bool",
          "name": "",
          "type": "bool"
        }
      ],
      "stateMutability": "view",
      "type": "function"
    },
    {
      "inputs": [
        {
          "internalType": "address",
          "name": "_asset",
          "type": "address"
        },
        {
          "internalType": "address",
          "name": "_firstRedemptionHint",
          "type": "address"
        },
        {
          "internalType": "uint256",
          "name": "_price",
          "type": "uint256"
        }
      ],
      "name": "isValidFirstRedemptionHint",
      "outputs": [
        {
          "internalType": "bool",
          "name": "",
          "type": "bool"
        }
      ],
      "stateMutability": "view",
      "type": "function"
    },
    {
      "inputs": [
        {
          "internalType": "address",
          "name": "collateral",
          "type": "address"
        }
      ],
      "name": "lastCollError_Redistribution",
      "outputs": [
        {
          "internalType": "uint256",
          "name": "collateralError",
          "type": "uint256"
        }
      ],
      "stateMutability": "view",
      "type": "function"
    },
    {
      "inputs": [
        {
          "internalType": "address",
          "name": "collateral",
          "type": "address"
        }
      ],
      "name": "lastDebtError_Redistribution",
      "outputs": [
        {
          "internalType": "uint256",
          "name": "debtError",
          "type": "uint256"
        }
      ],
      "stateMutability": "view",
      "type": "function"
    },
    {
      "inputs": [
        {
          "internalType": "address",
          "name": "collateral",
          "type": "address"
        }
      ],
      "name": "lastFeeOperationTime",
      "outputs": [
        {
          "internalType": "uint256",
          "name": "feeOpeartionTimestamp",
          "type": "uint256"
        }
      ],
      "stateMutability": "view",
      "type": "function"
    },
    {
      "inputs": [
        {
          "internalType": "address",
          "name": "_asset",
          "type": "address"
        },
        {
          "internalType": "uint256",
          "name": "_debt",
          "type": "uint256"
        },
        {
          "internalType": "uint256",
          "name": "_assetAmount",
          "type": "uint256"
        }
      ],
      "name": "movePendingTrenBoxRewardsToActivePool",
      "outputs": [],
      "stateMutability": "nonpayable",
      "type": "function"
    },
    {
      "inputs": [],
      "name": "owner",
      "outputs": [
        {
          "internalType": "address",
          "name": "",
          "type": "address"
        }
      ],
      "stateMutability": "view",
      "type": "function"
    },
    {
      "inputs": [],
      "name": "priceFeed",
      "outputs": [
        {
          "internalType": "address",
          "name": "",
          "type": "address"
        }
      ],
      "stateMutability": "view",
      "type": "function"
    },
    {
      "inputs": [],
      "name": "proxiableUUID",
      "outputs": [
        {
          "internalType": "bytes32",
          "name": "",
          "type": "bytes32"
        }
      ],
      "stateMutability": "view",
      "type": "function"
    },
    {
      "inputs": [
        {
          "internalType": "address",
          "name": "_asset",
          "type": "address"
        },
        {
          "internalType": "uint256",
          "name": "_debt",
          "type": "uint256"
        },
        {
          "internalType": "uint256",
          "name": "_coll",
          "type": "uint256"
        },
        {
          "internalType": "uint256",
          "name": "_debtToOffset",
          "type": "uint256"
        },
        {
          "internalType": "uint256",
          "name": "_collToSendToStabilityPool",
          "type": "uint256"
        }
      ],
      "name": "redistributeDebtAndColl",
      "outputs": [],
      "stateMutability": "nonpayable",
      "type": "function"
    },
    {
      "inputs": [
        {
          "internalType": "address",
          "name": "_asset",
          "type": "address"
        },
        {
          "internalType": "address",
          "name": "_borrower",
          "type": "address"
        }
      ],
      "name": "removeStake",
      "outputs": [],
      "stateMutability": "nonpayable",
      "type": "function"
    },
    {
      "inputs": [],
      "name": "renounceOwnership",
      "outputs": [],
      "stateMutability": "nonpayable",
      "type": "function"
    },
    {
      "inputs": [
        {
          "internalType": "address",
          "name": "borrower",
          "type": "address"
        },
        {
          "internalType": "address",
          "name": "collateral",
          "type": "address"
        }
      ],
      "name": "rewardSnapshots",
      "outputs": [
        {
          "internalType": "uint256",
          "name": "asset",
          "type": "uint256"
        },
        {
          "internalType": "uint256",
          "name": "debt",
          "type": "uint256"
        }
      ],
      "stateMutability": "view",
      "type": "function"
    },
    {
      "inputs": [
        {
          "internalType": "address",
          "name": "_asset",
          "type": "address"
        },
        {
          "internalType": "address",
          "name": "_liquidator",
          "type": "address"
        },
        {
          "internalType": "uint256",
          "name": "_debtTokenAmount",
          "type": "uint256"
        },
        {
          "internalType": "uint256",
          "name": "_assetAmount",
          "type": "uint256"
        }
      ],
      "name": "sendGasCompensation",
      "outputs": [],
      "stateMutability": "nonpayable",
      "type": "function"
    },
    {
      "inputs": [
        {
          "internalType": "address[]",
          "name": "_addresses",
          "type": "address[]"
        }
      ],
      "name": "setAddresses",
      "outputs": [],
      "stateMutability": "nonpayable",
      "type": "function"
    },
    {
      "inputs": [
        {
          "internalType": "address",
          "name": "_communityIssuance",
          "type": "address"
        }
      ],
      "name": "setCommunityIssuance",
      "outputs": [],
      "stateMutability": "nonpayable",
      "type": "function"
    },
    {
      "inputs": [
        {
          "internalType": "address",
          "name": "_trenStaking",
          "type": "address"
        }
      ],
      "name": "setTRENStaking",
      "outputs": [],
      "stateMutability": "nonpayable",
      "type": "function"
    },
    {
      "inputs": [
        {
          "internalType": "address",
          "name": "_asset",
          "type": "address"
        },
        {
          "internalType": "address",
          "name": "_borrower",
          "type": "address"
        },
        {
          "internalType": "uint256",
          "name": "_num",
          "type": "uint256"
        }
      ],
      "name": "setTrenBoxStatus",
      "outputs": [],
      "stateMutability": "nonpayable",
      "type": "function"
    },
    {
      "inputs": [],
      "name": "sortedTrenBoxes",
      "outputs": [
        {
          "internalType": "address",
          "name": "",
          "type": "address"
        }
      ],
      "stateMutability": "view",
      "type": "function"
    },
    {
      "inputs": [],
      "name": "stabilityPool",
      "outputs": [
        {
          "internalType": "address",
          "name": "",
          "type": "address"
        }
      ],
      "stateMutability": "view",
      "type": "function"
    },
    {
      "inputs": [],
      "name": "timelockAddress",
      "outputs": [
        {
          "internalType": "address",
          "name": "",
          "type": "address"
        }
      ],
      "stateMutability": "view",
      "type": "function"
    },
    {
      "inputs": [
        {
          "internalType": "address",
          "name": "collateral",
          "type": "address"
        }
      ],
      "name": "totalCollateralSnapshot",
      "outputs": [
        {
          "internalType": "uint256",
          "name": "totalCollateral",
          "type": "uint256"
        }
      ],
      "stateMutability": "view",
      "type": "function"
    },
    {
      "inputs": [
        {
          "internalType": "address",
          "name": "collateral",
          "type": "address"
        }
      ],
      "name": "totalStakes",
      "outputs": [
        {
          "internalType": "uint256",
          "name": "totalStake",
          "type": "uint256"
        }
      ],
      "stateMutability": "view",
      "type": "function"
    },
    {
      "inputs": [
        {
          "internalType": "address",
          "name": "collateral",
          "type": "address"
        }
      ],
      "name": "totalStakesSnapshot",
      "outputs": [
        {
          "internalType": "uint256",
          "name": "totalStake",
          "type": "uint256"
        }
      ],
      "stateMutability": "view",
      "type": "function"
    },
    {
      "inputs": [
        {
          "internalType": "address",
          "name": "newOwner",
          "type": "address"
        }
      ],
      "name": "transferOwnership",
      "outputs": [],
      "stateMutability": "nonpayable",
      "type": "function"
    },
    {
      "inputs": [],
      "name": "treasuryAddress",
      "outputs": [
        {
          "internalType": "address",
          "name": "",
          "type": "address"
        }
      ],
      "stateMutability": "view",
      "type": "function"
    },
    {
      "inputs": [],
      "name": "trenBoxManager",
      "outputs": [
        {
          "internalType": "address",
          "name": "",
          "type": "address"
        }
      ],
      "stateMutability": "view",
      "type": "function"
    },
    {
      "inputs": [],
      "name": "trenBoxManagerOperations",
      "outputs": [
        {
          "internalType": "address",
          "name": "",
          "type": "address"
        }
      ],
      "stateMutability": "view",
      "type": "function"
    },
    {
      "inputs": [],
      "name": "trenStaking",
      "outputs": [
        {
          "internalType": "address",
          "name": "",
          "type": "address"
        }
      ],
      "stateMutability": "view",
      "type": "function"
    },
    {
      "inputs": [
        {
          "internalType": "address",
          "name": "_asset",
          "type": "address"
        },
        {
          "internalType": "uint256",
          "name": "_assetDrawn",
          "type": "uint256"
        },
        {
          "internalType": "uint256",
          "name": "_price",
          "type": "uint256"
        },
        {
          "internalType": "uint256",
          "name": "_totalDebtTokenSupply",
          "type": "uint256"
        }
      ],
      "name": "updateBaseRateFromRedemption",
      "outputs": [],
      "stateMutability": "nonpayable",
      "type": "function"
    },
    {
      "inputs": [
        {
          "internalType": "address",
          "name": "_asset",
          "type": "address"
        },
        {
          "internalType": "address",
          "name": "_borrower",
          "type": "address"
        }
      ],
      "name": "updateStakeAndTotalStakes",
      "outputs": [
        {
          "internalType": "uint256",
          "name": "",
          "type": "uint256"
        }
      ],
      "stateMutability": "nonpayable",
      "type": "function"
    },
    {
      "inputs": [
        {
          "internalType": "address",
          "name": "_asset",
          "type": "address"
        },
        {
          "internalType": "uint256",
          "name": "_collRemainder",
          "type": "uint256"
        }
      ],
      "name": "updateSystemSnapshots_excludeCollRemainder",
      "outputs": [],
      "stateMutability": "nonpayable",
      "type": "function"
    },
    {
      "inputs": [
        {
          "internalType": "address",
          "name": "_asset",
          "type": "address"
        },
        {
          "internalType": "address",
          "name": "_borrower",
          "type": "address"
        }
      ],
      "name": "updateTrenBoxRewardSnapshots",
      "outputs": [],
      "stateMutability": "nonpayable",
      "type": "function"
    },
    {
      "inputs": [
        {
          "internalType": "address",
          "name": "newImplementation",
          "type": "address"
        },
        {
          "internalType": "bytes",
          "name": "data",
          "type": "bytes"
        }
      ],
      "name": "upgradeToAndCall",
      "outputs": [],
      "stateMutability": "payable",
      "type": "function"
    }
  ],
  "transactionHash": "0x501c6503a356a677797b6e2deae0384ec8632e298dc8604f678cafc5e9afcab3",
  "args": [],
  "numDeployments": 1,
  "solcInputHash": "76f2ac0d2a40f527e6541dfc9894b953",
  "bytecode": "0x60a06040523060805234801561001457600080fd5b5060805161518361003e60003960008181613c8401528181613cad0152613dee01526151836000f3fe6080604052600436106104ec5760003560e01c80638adb81fe1161028c578063c7b554811161015a578063de665835116100cc578063f8d8989811610085578063f8d8989814611136578063f9a3d41f14611156578063fb4e863c1461119d578063fd01d983146111bd578063fe06073314611207578063fe9d03231461122757600080fd5b8063de6658351461105c578063df349ed514611089578063df4fb9ef146110b6578063e62c521e146110d6578063f1c05a7e146110f6578063f2fde38b1461111657600080fd5b8063d0f312b71161011e578063d0f312b714610f3e578063d1a71b5f14610f6b578063d201d32814610f8b578063d299e9bb14610fab578063da3835ad1461101c578063dbe9f9191461103c57600080fd5b8063c7b5548114610e6d578063c8564c6214610e89578063c93fd44a14610eaa578063cc8b21e414610efe578063cda775f914610f1e57600080fd5b8063b1eafaab116101fe578063c05c5e94116101b7578063c05c5e9414610dad578063c226882314610dcd578063c2bac5f114610ded578063c415b95c14610e0d578063c5d75f7b14610e2d578063c5f956af14610e4d57600080fd5b8063b1eafaab14610cd7578063b65c72bf14610cf7578063b6d3b04714610d17578063b957172114610d37578063bc8793a914610d57578063be16a09614610d8d57600080fd5b8063a3abe09811610250578063a3abe09814610bd2578063a3f4df7e14610bf2578063aa178b5614610c39578063ad3cb1cc14610c59578063af3700dc14610c8a578063b0809e2814610cb757600080fd5b80638adb81fe14610b155780638da5cb5b14610b3557806390ec230114610b7257806395fb16bb14610b925780639e86d0c414610bb257600080fd5b80634169467d116103c957806361ec893d1161033b578063741bef1a116102f4578063741bef1a14610a5357806377553ad414610a735780637f7dde4a14610a935780638129fc1c14610ab357806384934b5914610ac85780638a490ebf14610af557600080fd5b806361ec893d1461097f5780636a2ffe36146109945780636a85d67d146109de5780636f4ecd45146109fe5780637012f7fb14610a1e578063715018a614610a3e57600080fd5b806350c5ef2e1161038d57806350c5ef2e146108bd57806352576cdf146108dd57806352d1902d146108fd578063551886b71461091257806355dafa46146109325780635c6944e81461095257600080fd5b80634169467d1461082a57806349fe88581461084a5780634bc66f321461086a5780634eebd97f1461088a5780634f1ef286146108aa57600080fd5b806325eeff301161046257806333eeaefd1161042657806333eeaefd1461076a5780633982598e1461078a5780633cc74225146107aa5780633d36cc95146107ca5780633d9ef931146107ea578063411072101461080a57600080fd5b806325eeff301461068d57806326f7a0d4146106ad57806327d04b35146106ed5780632dcfca601461070d578063328e14041461073d57600080fd5b80630a34d4d6116104b45780630a34d4d6146105b35780630e009ffc146105d35780631ee9211f146105f35780631f12cc41146106135780632076ee1d1461064057806325c79ff41461066057600080fd5b806301c93100146104f1578063048c661d14610513578063053cd8e814610550578063061e9dc31461057e578063071a75411461059e575b600080fd5b3480156104fd57600080fd5b5061051161050c366004614ad3565b611247565b005b34801561051f57600080fd5b50600d54610533906001600160a01b031681565b6040516001600160a01b0390911681526020015b60405180910390f35b34801561055c57600080fd5b5061057061056b366004614af0565b611298565b604051908152602001610547565b34801561058a57600080fd5b50610570610599366004614b29565b611354565b3480156105aa57600080fd5b50610570600281565b3480156105bf57600080fd5b50601154610533906001600160a01b031681565b3480156105df57600080fd5b506105116105ee366004614b6a565b6113c7565b3480156105ff57600080fd5b5061057061060e366004614be5565b611594565b34801561061f57600080fd5b5061057061062e366004614ad3565b60346020526000908152604090205481565b34801561064c57600080fd5b5061051161065b366004614c11565b6115af565b34801561066c57600080fd5b5061057061067b366004614ad3565b603a6020526000908152604090205481565b34801561069957600080fd5b506105116106a8366004614c46565b6115ea565b3480156106b957600080fd5b506106cd6106c8366004614af0565b61189b565b604080519485526020850193909352918301526060820152608001610547565b3480156106f957600080fd5b50610570610708366004614ad3565b61190b565b34801561071957600080fd5b5061072d610728366004614af0565b611a03565b6040519015158152602001610547565b34801561074957600080fd5b50610570610758366004614ad3565b603d6020526000908152604090205481565b34801561077657600080fd5b50610570610785366004614b29565b611a54565b34801561079657600080fd5b506105706107a5366004614b29565b611ab7565b3480156107b657600080fd5b50600654610533906001600160a01b031681565b3480156107d657600080fd5b506105706107e5366004614ad3565b611bca565b3480156107f657600080fd5b50610511610805366004614af0565b611bde565b34801561081657600080fd5b50610570610825366004614be5565b611c32565b34801561083657600080fd5b50600854610533906001600160a01b031681565b34801561085657600080fd5b50610570610865366004614be5565b611c40565b34801561087657600080fd5b50600e54610533906001600160a01b031681565b34801561089657600080fd5b506105116108a5366004614af0565b611c4c565b6105116108b8366004614cad565b611c81565b3480156108c957600080fd5b506105706108d8366004614af0565b611c9c565b3480156108e957600080fd5b5061072d6108f8366004614b29565b611cdb565b34801561090957600080fd5b50610570611f02565b34801561091e57600080fd5b5061057061092d366004614be5565b611f1f565b34801561093e57600080fd5b50600a54610533906001600160a01b031681565b34801561095e57600080fd5b5061057061096d366004614ad3565b60336020526000908152604090205481565b34801561098b57600080fd5b50610570603c81565b3480156109a057600080fd5b506105706109af366004614af0565b6001600160a01b0380821660009081526035602090815260408083209386168352929052206001015492915050565b3480156109ea57600080fd5b506105116109f9366004614ad3565b611f2b565b348015610a0a57600080fd5b50610511610a19366004614b29565b611f7c565b348015610a2a57600080fd5b50610511610a39366004614d71565b612005565b348015610a4a57600080fd5b506105116123c9565b348015610a5f57600080fd5b50600b54610533906001600160a01b031681565b348015610a7f57600080fd5b50600254610533906001600160a01b031681565b348015610a9f57600080fd5b50600054610533906001600160a01b031681565b348015610abf57600080fd5b506105116123dd565b348015610ad457600080fd5b50610570610ae3366004614ad3565b603e6020526000908152604090205481565b348015610b0157600080fd5b5061072d610b10366004614be5565b6124fd565b348015610b2157600080fd5b50610511610b30366004614b29565b612509565b348015610b4157600080fd5b507f9016d09d72d40fdae2fd8ceac6b6234c7706214fd39c1cd1e609a0528c199300546001600160a01b0316610533565b348015610b7e57600080fd5b50610570610b8d366004614af0565b61268e565b348015610b9e57600080fd5b50600454610533906001600160a01b031681565b348015610bbe57600080fd5b50610570610bcd366004614ad3565b6126ad565b348015610bde57600080fd5b50610570610bed366004614be5565b612754565b348015610bfe57600080fd5b50610c2c6040518060400160405280600e81526020016d2a3932b72137bc26b0b730b3b2b960911b81525081565b6040516105479190614dd9565b348015610c4557600080fd5b50610511610c54366004614af0565b6127e5565b348015610c6557600080fd5b50610c2c604051806040016040528060058152602001640352e302e360dc1b81525081565b348015610c9657600080fd5b50610570610ca5366004614ad3565b60376020526000908152604090205481565b348015610cc357600080fd5b50610533610cd2366004614be5565b6128c9565b348015610ce357600080fd5b50610570610cf2366004614b29565b612901565b348015610d0357600080fd5b50610511610d12366004614e0c565b612921565b348015610d2357600080fd5b50610570610d32366004614ad3565b612a4f565b348015610d4357600080fd5b50610511610d52366004614e52565b612abe565b348015610d6357600080fd5b50610570610d72366004614ad3565b6001600160a01b03166000908152603c602052604090205490565b348015610d9957600080fd5b50610570610da8366004614af0565b61303f565b348015610db957600080fd5b50600154610533906001600160a01b031681565b348015610dd957600080fd5b50610533610de8366004614be5565b6130ef565b348015610df957600080fd5b50610570610e08366004614b29565b613135565b348015610e1957600080fd5b50600754610533906001600160a01b031681565b348015610e3957600080fd5b50610511610e48366004614ec7565b6131a1565b348015610e5957600080fd5b50600f54610533906001600160a01b031681565b348015610e7957600080fd5b50610570670ddd4b8c6c7d70d881565b348015610e9557600080fd5b5060115461072d90600160a01b900460ff1681565b348015610eb657600080fd5b50610ee9610ec5366004614af0565b603b6020908152600092835260408084209091529082529020805460019091015482565b60408051928352602083019190915201610547565b348015610f0a57600080fd5b50600c54610533906001600160a01b031681565b348015610f2a57600080fd5b50600354610533906001600160a01b031681565b348015610f4a57600080fd5b50610570610f59366004614ad3565b60396020526000908152604090205481565b348015610f7757600080fd5b50610570610f86366004614af0565b613296565b348015610f9757600080fd5b50610570610fa6366004614ad3565b613366565b348015610fb757600080fd5b5061100b610fc6366004614af0565b603560209081526000928352604080842090915290825290208054600182015460028301546003909301549192909160ff81169061010090046001600160801b031685565b604051610547959493929190614f18565b34801561102857600080fd5b50610511611037366004614be5565b61338a565b34801561104857600080fd5b50610570611057366004614af0565b613533565b34801561106857600080fd5b50610570611077366004614ad3565b60386020526000908152604090205481565b34801561109557600080fd5b506105706110a4366004614ad3565b60366020526000908152604090205481565b3480156110c257600080fd5b506105116110d1366004614af0565b61356b565b3480156110e257600080fd5b5061072d6110f1366004614af0565b6135d8565b34801561110257600080fd5b50601054610533906001600160a01b031681565b34801561112257600080fd5b50610511611131366004614ad3565b6135ee565b34801561114257600080fd5b50600554610533906001600160a01b031681565b34801561116257600080fd5b50610570611171366004614af0565b6001600160a01b0380821660009081526035602090815260408083209386168352929052205492915050565b3480156111a957600080fd5b506105116111b8366004614af0565b61362c565b3480156111c957600080fd5b506105706111d8366004614af0565b6001600160a01b0380821660009081526035602090815260408083209386168352929052206002015492915050565b34801561121357600080fd5b50610511611222366004614ad3565b61367a565b34801561123357600080fd5b50600954610533906001600160a01b031681565b61124f613683565b6001600160a01b038116611276576040516385d3330760e01b815260040160405180910390fd5b600a80546001600160a01b0319166001600160a01b0392909216919091179055565b6001600160a01b038082166000908152603b60209081526040808320938616835292815282822060010154603a9091529181205490919082906112dc908390614f72565b90508015806112f257506112f085856135d8565b155b156113025760009250505061134e565b6001600160a01b03808516600090815260356020908152604080832093891683529290522060020154670de0b6b3a764000061133e8383614f85565b6113489190614fb2565b93505050505b92915050565b6002546000906001600160a01b031633146113825760405163233e9fff60e01b815260040160405180910390fd5b6001600160a01b03808416600090815260356020908152604080832093881683529290522060018101546113b7908490614fc6565b6001909101819055949350505050565b6011546001600160a01b031633146113f257604051634f1d868560e11b815260040160405180910390fd5b600c5460405163bc9b5bd560e01b81526001600160a01b038981166004830152888116602483015260448201869052848116606483015283811660848301529091169063bc9b5bd59060a401600060405180830381600087803b15801561145857600080fd5b505af115801561146c573d6000803e3d6000fd5b5050506001600160a01b038088166000908152603560209081526040808320938c16835292905290812080549092506114a58882614f72565b6114b790670de0b6b3a7640000614f85565b6114c19190614fb2565b9050801561153057600754604051631dac1e3160e31b81526001600160a01b039091169063ed60f188906114fd908b908d908690600401614fd9565b600060405180830381600087803b15801561151757600080fd5b505af115801561152b573d6000803e3d6000fd5b505050505b8682556001820186905561154489896136de565b50876001600160a01b0316896001600160a01b03166000805160206151178339815191528989866002015460036040516115819493929190615011565b60405180910390a3505050505050505050565b60006115a86115a284613366565b836137ba565b9392505050565b6011546001600160a01b031633146115da57604051634f1d868560e11b815260040160405180910390fd5b6115e58383836137fc565b505050565b6011546001600160a01b0316331461161557604051634f1d868560e11b815260040160405180910390fd5b8115611756576007546040805163039e4def60e51b815290516000926001600160a01b0316916373c9bde09160048083019260209291908290030181865afa158015611665573d6000803e3d6000fd5b505050506040513d601f19601f820116820180604052508101906116899190615033565b6000546040516347878f1560e01b81529192506001600160a01b0316906347878f15906116be90899085908890600401614fd9565b600060405180830381600087803b1580156116d857600080fd5b505af11580156116ec573d6000803e3d6000fd5b5050600754604051634a79195760e01b81526001600160a01b039091169250634a79195791506117229089908790600401615050565b600060405180830381600087803b15801561173c57600080fd5b505af1158015611750573d6000803e3d6000fd5b50505050505b600554604051632770a7eb60e21b81526001600160a01b0390911690639dc29fac906117889087908790600401615050565b600060405180830381600087803b1580156117a257600080fd5b505af11580156117b6573d6000803e3d6000fd5b50505050600082826117c89190614f72565b600054604051632fb9ba3160e01b81529192506001600160a01b031690632fb9ba31906117fb9089908890600401615050565b600060405180830381600087803b15801561181557600080fd5b505af1158015611829573d6000803e3d6000fd5b50506000546040516347878f1560e01b81526001600160a01b0390911692506347878f15915061186190899089908690600401614fd9565b600060405180830381600087803b15801561187b57600080fd5b505af115801561188f573d6000803e3d6000fd5b50505050505050505050565b6000806000806118ab8686611298565b91506118b7868661303f565b6001600160a01b038087166000908152603560209081526040808320938b168352929052208054919250906118ed908490614fc6565b94508181600101546118ff9190614fc6565b93505092959194509250565b6000805460405163c5739d0b60e01b81526001600160a01b0384811660048301528392169063c5739d0b90602401602060405180830381865afa158015611956573d6000803e3d6000fd5b505050506040513d601f19601f8201168201806040525081019061197a9190615069565b60065460405163c5739d0b60e01b81526001600160a01b0386811660048301529293506000929091169063c5739d0b906024015b602060405180830381865afa1580156119cb573d6000803e3d6000fd5b505050506040513d601f19601f820116820180604052508101906119ef9190615069565b90506119fb8183614fc6565b949350505050565b6000611a0f83836135d8565b611a1b5750600061134e565b506001600160a01b038083166000818152603960209081526040808320549486168352603b825280832093835292905220541092915050565b6002546000906001600160a01b03163314611a825760405163233e9fff60e01b815260040160405180910390fd5b6001600160a01b03808416600090815260356020908152604080832093881683529290522060018101546113b7908490614f72565b6002546000906001600160a01b03163314611ae55760405163233e9fff60e01b815260040160405180910390fd5b6001600160a01b038084166000908152603560209081526040808320938816835292905290812080549091849003611b205791506115a89050565b600081611b3586670de0b6b3a7640000614f85565b611b3f9190614fb2565b90506000611b4d8684614f72565b80855590508115611bbf57600754604051631dac1e3160e31b81526001600160a01b039091169063ed60f18890611b8c908a908c908790600401614fd9565b600060405180830381600087803b158015611ba657600080fd5b505af1158015611bba573d6000803e3d6000fd5b505050505b979650505050505050565b600061134e82611bd984613924565b613981565b6002546001600160a01b03163314801590611c0457506011546001600160a01b03163314155b15611c225760405163bb9aee2760e01b815260040160405180910390fd5b611c2e82826002613a10565b5050565b60006115a86115a284611bca565b60006115a88383613bce565b6002546001600160a01b03163314611c775760405163233e9fff60e01b815260040160405180910390fd5b611c2e8282613bf4565b611c89613c79565b611c9282613d1e565b611c2e8282613d26565b6001600160a01b03808216600090815260356020908152604080832093861683529290529081206003015460ff1660048111156115a8576115a8614f02565b60006001600160a01b0383161580611d665750600c54604051631da4d95d60e31b81526001600160a01b03868116600483015285811660248301529091169063ed26cae890604401602060405180830381865afa158015611d40573d6000803e3d6000fd5b505050506040513d601f19601f82011682018060405250810190611d649190615082565b155b80611de75750600154604051633c557a6f60e11b81526001600160a01b038681166004830152909116906378aaf4de90602401602060405180830381865afa158015611db6573d6000803e3d6000fd5b505050506040513d601f19601f82011682018060405250810190611dda9190615069565b611de5858585612901565b105b15611df4575060006115a8565b600c546040516339ed25cd60e01b81526001600160a01b038681166004830152858116602483015260009216906339ed25cd90604401602060405180830381865afa158015611e47573d6000803e3d6000fd5b505050506040513d601f19601f82011682018060405250810190611e6b9190615033565b90506001600160a01b0381161580611ef95750600154604051633c557a6f60e11b81526001600160a01b038781166004830152909116906378aaf4de90602401602060405180830381865afa158015611ec8573d6000803e3d6000fd5b505050506040513d601f19601f82011682018060405250810190611eec9190615069565b611ef7868386612901565b105b95945050505050565b6000611f0c613de3565b5060008051602061513783398151915290565b60006115a88383613e2c565b611f33613683565b6001600160a01b038116611f5a5760405163706ebc6560e11b815260040160405180910390fd5b600480546001600160a01b0319166001600160a01b0392909216919091179055565b6002546001600160a01b03163314611fa75760405163233e9fff60e01b815260040160405180910390fd5b806004811115611fb957611fb9614f02565b6001600160a01b038084166000908152603560209081526040808320938816835292905220600301805460ff19166001836004811115611ffb57611ffb614f02565b0217905550505050565b61200d613ea5565b6011546001600160a01b0316331461203857604051634f1d868560e11b815260040160405180910390fd5b600d54604051631091da8960e01b8152600481018490526001600160a01b0387811660248301526044820184905290911690631091da8990606401600060405180830381600087803b15801561208d57600080fd5b505af11580156120a1573d6000803e3d6000fd5b5050505083600003156123ab576001600160a01b0385166000908152603d60205260408120546120d9670de0b6b3a764000086614f85565b6120e39190614fc6565b6001600160a01b0387166000908152603e602052604081205491925090612112670de0b6b3a764000088614f85565b61211c9190614fc6565b6001600160a01b0388166000908152603660205260408120549192506121428285614fb2565b905060006121508385614fb2565b905061215c8383614f85565b6121669086614f72565b6001600160a01b038b166000908152603d60205260409020556121898382614f85565b6121939085614f72565b6001600160a01b038b166000908152603e602090815260408083209390935560399052908120546121c5908490614fc6565b6001600160a01b038c166000908152603a6020526040812054919250906121ed908490614fc6565b6001600160a01b038d166000818152603960209081526040808320879055603a825291829020849055815186815290810184905292935090917f6f63d00bdf85957664165c9e20900aabd5a17378cb5c0955ce760e48a6ae48c7910160405180910390a2600054604051632fb9ba3160e01b81526001600160a01b0390911690632fb9ba3190612283908f908f90600401615050565b600060405180830381600087803b15801561229d57600080fd5b505af11580156122b1573d6000803e3d6000fd5b505060065460405163f8585db360e01b81526001600160a01b03909116925063f8585db391506122e7908f908f90600401615050565b600060405180830381600087803b15801561230157600080fd5b505af1158015612315573d6000803e3d6000fd5b5050505060008054906101000a90046001600160a01b03166001600160a01b03166347878f158d600660009054906101000a90046001600160a01b03168d6040518463ffffffff1660e01b815260040161237193929190614fd9565b600060405180830381600087803b15801561238b57600080fd5b505af115801561239f573d6000803e3d6000fd5b50505050505050505050505b6123c2600160008051602061515783398151915255565b5050505050565b6123d1613683565b6123db6000613ef1565b565b7ff0c57e16840df040f15088dc2f81fe391c3923bec73e23a9662efc9c229c6a008054600160401b810460ff16159067ffffffffffffffff166000811580156124235750825b905060008267ffffffffffffffff1660011480156124405750303b155b90508115801561244e575080155b1561246c5760405163f92ee8a960e01b815260040160405180910390fd5b845467ffffffffffffffff19166001178555831561249657845460ff60401b1916600160401b1785555b336124a081613f62565b6124a8613f73565b6124b0613f7b565b5083156123c257845460ff60401b19168555604051600181527fc7f505b2f371ae2175ee4913f4499e1f2633a7b5936321eed1cdaeb6115181d29060200160405180910390a15050505050565b60006115a88383613f8b565b612511613ea5565b6011546001600160a01b0316331461253c57604051634f1d868560e11b815260040160405180910390fd5b6125468383614010565b61255283836004613a10565b60015460405163c08261db60e01b81526001600160a01b0380861660048301526125ce92869286929091169063c08261db90602401602060405180830381865afa1580156125a4573d6000803e3d6000fd5b505050506040513d601f19601f820116820180604052508101906125c89190615069565b84614066565b60075460405163871d814560e01b81526001600160a01b03848116600483015285811660248301529091169063871d814590604401600060405180830381600087803b15801561261d57600080fd5b505af1158015612631573d6000803e3d6000fd5b50505050816001600160a01b0316836001600160a01b03166000805160206151178339815191526000806000600360405161266f9493929190615011565b60405180910390a36115e5600160008051602061515783398151915255565b600080600061269d8585614207565b91509150600061134883836142f0565b60008054604051635373433f60e01b81526001600160a01b03848116600483015283921690635373433f90602401602060405180830381865afa1580156126f8573d6000803e3d6000fd5b505050506040513d601f19601f8201168201806040525081019061271c9190615069565b600654604051635373433f60e01b81526001600160a01b03868116600483015292935060009290911690635373433f906024016119ae565b60015460405163300581d960e01b81526001600160a01b038481166004830152600092670de0b6b3a76400009285929091169063300581d990602401602060405180830381865afa1580156127ad573d6000803e3d6000fd5b505050506040513d601f19601f820116820180604052508101906127d19190615069565b6127db9190614f85565b6115a89190614fb2565b6011546001600160a01b0316331461281057604051634f1d868560e11b815260040160405180910390fd5b61281c82826003613a10565b60075460405163aa36069d60e01b81526001600160a01b03838116600483015284811660248301529091169063aa36069d90604401600060405180830381600087803b15801561286b57600080fd5b505af115801561287f573d6000803e3d6000fd5b50505050806001600160a01b0316826001600160a01b0316600080516020615117833981519152600080600060016040516128bd9493929190615011565b60405180910390a35050565b603c60205281600052604060002081815481106128e557600080fd5b6000918252602090912001546001600160a01b03169150829050565b60008060006129108686614207565b915091506000611bbf838387614326565b612929613ea5565b6011546001600160a01b0316331461295457604051634f1d868560e11b815260040160405180910390fd5b81156129c557600554600954604051631062c15f60e11b81526001600160a01b03928316926320c582be926129929291169087908790600401614fd9565b600060405180830381600087803b1580156129ac57600080fd5b505af11580156129c0573d6000803e3d6000fd5b505050505b8015612a32576000546040516347878f1560e01b81526001600160a01b03909116906347878f15906129ff90879087908690600401614fd9565b600060405180830381600087803b158015612a1957600080fd5b505af1158015612a2d573d6000803e3d6000fd5b505050505b612a49600160008051602061515783398151915255565b50505050565b60015460405163300581d960e01b81526001600160a01b038381166004830152600092169063300581d990602401602060405180830381865afa158015612a9a573d6000803e3d6000fd5b505050506040513d601f19601f8201168201806040525081019061134e9190615069565b612ac6613683565b601154600160a01b900460ff1615612af057604051625f22e960e41b815260040160405180910390fd5b60108114612b1157604051633f5a111d60e21b815260040160405180910390fd5b60005b6010811015612bb4576000838383818110612b3157612b316150a4565b9050602002016020810190612b469190614ad3565b6001600160a01b031603612bac5780838383818110612b6757612b676150a4565b9050602002016020810190612b7c9190614ad3565b604051630d9d339f60e01b815260048101929092526001600160a01b031660248201526044015b60405180910390fd5b600101612b14565b5081816000818110612bc857612bc86150a4565b9050602002016020810190612bdd9190614ad3565b600080546001600160a01b0319166001600160a01b039290921691909117905581816001818110612c1057612c106150a4565b9050602002016020810190612c259190614ad3565b600180546001600160a01b0319166001600160a01b039290921691909117905581816002818110612c5857612c586150a4565b9050602002016020810190612c6d9190614ad3565b600280546001600160a01b0319166001600160a01b039290921691909117905581816003818110612ca057612ca06150a4565b9050602002016020810190612cb59190614ad3565b600380546001600160a01b0319166001600160a01b039290921691909117905581816004818110612ce857612ce86150a4565b9050602002016020810190612cfd9190614ad3565b600580546001600160a01b0319166001600160a01b039290921691909117815582908290818110612d3057612d306150a4565b9050602002016020810190612d459190614ad3565b600680546001600160a01b0319166001600160a01b039290921691909117815582908290818110612d7857612d786150a4565b9050602002016020810190612d8d9190614ad3565b600780546001600160a01b0319166001600160a01b039290921691909117815582908290818110612dc057612dc06150a4565b9050602002016020810190612dd59190614ad3565b600880546001600160a01b0319166001600160a01b039290921691909117815582908290818110612e0857612e086150a4565b9050602002016020810190612e1d9190614ad3565b600980546001600160a01b0319166001600160a01b039290921691909117815582908290818110612e5057612e506150a4565b9050602002016020810190612e659190614ad3565b600b80546001600160a01b0319166001600160a01b03929092169190911790558181600a818110612e9857612e986150a4565b9050602002016020810190612ead9190614ad3565b600c80546001600160a01b0319166001600160a01b03929092169190911790558181600b818110612ee057612ee06150a4565b9050602002016020810190612ef59190614ad3565b600d80546001600160a01b0319166001600160a01b03929092169190911790558181600c818110612f2857612f286150a4565b9050602002016020810190612f3d9190614ad3565b600e80546001600160a01b0319166001600160a01b03929092169190911790558181600d818110612f7057612f706150a4565b9050602002016020810190612f859190614ad3565b600f80546001600160a01b0319166001600160a01b03929092169190911790558181600e818110612fb857612fb86150a4565b9050602002016020810190612fcd9190614ad3565b601080546001600160a01b0319166001600160a01b03929092169190911790558181600f818110613000576130006150a4565b90506020020160208101906130159190614ad3565b601180546001600160a81b0319166001600160a01b039290921691909117600160a01b1790555050565b6001600160a01b038082166000908152603b602090815260408083209386168352928152828220546039909152918120549091908290613080908390614f72565b9050801580613096575061309485856135d8565b155b156130a65760009250505061134e565b6001600160a01b03808516600090815260356020908152604080832093891683529290529081206002015490670de0b6b3a76400006130e58484614f85565b611bbf9190614fb2565b6001600160a01b0382166000908152603c60205260408120805483908110613119576131196150a4565b6000918252602090912001546001600160a01b03169392505050565b6002546000906001600160a01b031633146131635760405163233e9fff60e01b815260040160405180910390fd5b6001600160a01b0380841660009081526035602090815260408083209388168352929052208054613195908490614fc6565b90819055949350505050565b6011546001600160a01b031633146131cc57604051634f1d868560e11b815260040160405180910390fd5b60006131d785613924565b90506000826131e68587614f85565b6131f09190614fb2565b905060006131ff600283614fb2565b6132099084614fc6565b905061321d81670de0b6b3a7640000614357565b90508060000361322f5761322f6150ba565b6001600160a01b03871660008181526033602052604090819020839055517f2f992d01b594c040f05262961e43f8311e780be5fee3deb4c57880dd6374d12d9061327c9084815260200190565b60405180910390a261328d8761436d565b50505050505050565b6002546000906001600160a01b031633146132c45760405163233e9fff60e01b815260040160405180910390fd5b6001600160a01b038381166000908152603c6020908152604082208054600180820183558285529290932090920180546001600160a01b031916938616939093179092558054909161331591614f72565b6001600160a01b03808516600090815260356020908152604080832093891683529290522060030180546001600160801b03831661010002610100600160881b031990911617905591505092915050565b6001600160a01b03811660009081526033602052604081205461134e908390613981565b6011546001600160a01b031633146133b557604051634f1d868560e11b815260040160405180910390fd5b6001600160a01b03828116600081815260366020908152604080832054603790925280832082905582549051635373433f60e01b8152600481019490945290939192911690635373433f90602401602060405180830381865afa158015613420573d6000803e3d6000fd5b505050506040513d601f19601f820116820180604052508101906134449190615069565b600654604051635373433f60e01b81526001600160a01b03878116600483015292935060009290911690635373433f90602401602060405180830381865afa158015613494573d6000803e3d6000fd5b505050506040513d601f19601f820116820180604052508101906134b89190615069565b90506000816134c78685614f72565b6134d19190614fc6565b6001600160a01b038716600081815260386020908152604091829020849055815188815290810184905292935090917f9ea5863ffc9d961d6c6bb67235c553dfbdbcc8fe12671cdba8887a50501efbaf910160405180910390a2505050505050565b6002546000906001600160a01b031633146135615760405163233e9fff60e01b815260040160405180910390fd5b6115a883836136de565b613573613ea5565b6002546001600160a01b0316331480159061359957506011546001600160a01b03163314155b156135b75760405163bb9aee2760e01b815260040160405180910390fd5b6135c182826143ef565b611c2e600160008051602061515783398151915255565b600060016135e68484611c9c565b149392505050565b6135f6613683565b6001600160a01b03811661362057604051631e4fbdf760e01b815260006004820152602401612ba3565b61362981613ef1565b50565b6002546001600160a01b0316331480159061365257506011546001600160a01b03163314155b156136705760405163bb9aee2760e01b815260040160405180910390fd5b611c2e8282614010565b61362981613d1e565b336136b57f9016d09d72d40fdae2fd8ceac6b6234c7706214fd39c1cd1e609a0528c199300546001600160a01b031690565b6001600160a01b0316146123db5760405163118cdaa760e01b8152336004820152602401612ba3565b6001600160a01b0380821660009081526035602090815260408083209386168352929052908120600181015482906137179086906144c7565b600283018054908290556001600160a01b0387166000908152603660205260408120549293509091839061374c908490614f72565b6137569190614fc6565b6001600160a01b0388166000818152603660205260409081902083905551919250907fd5630907014190fb9340da1cf427c96f094dabfbf73d25506e4b0cda9e3a4ca0906137a79084815260200190565b60405180910390a2509095945050505050565b600080670de0b6b3a76400006137d08486614f85565b6137da9190614fb2565b90508281106115a85760405163515deaf560e11b815260040160405180910390fd5b600654604051632fb9ba3160e01b81526001600160a01b0390911690632fb9ba319061382e9086908690600401615050565b600060405180830381600087803b15801561384857600080fd5b505af115801561385c573d6000803e3d6000fd5b505060005460405163f8585db360e01b81526001600160a01b03909116925063f8585db391506138929086908690600401615050565b600060405180830381600087803b1580156138ac57600080fd5b505af11580156138c0573d6000803e3d6000fd5b505060065460405163053f8cf960e31b81526001600160a01b0390911692506329fc67c891506138f69086908590600401615050565b600060405180830381600087803b15801561391057600080fd5b505af115801561328d573d6000803e3d6000fd5b60008061393083614534565b90506000613946670ddd4b8c6c7d70d883614564565b6001600160a01b038516600090815260336020526040902054909150670de0b6b3a764000090613977908390614f85565b6119fb9190614fb2565b60015460405163443c4fcb60e01b81526001600160a01b0384811660048301526000926115a89285929091169063443c4fcb90602401602060405180830381865afa1580156139d4573d6000803e3d6000fd5b505050506040513d601f19601f820116820180604052508101906139f89190615069565b613a029190614fc6565b670de0b6b3a7640000614357565b6000816004811115613a2457613a24614f02565b14158015613a4457506001816004811115613a4157613a41614f02565b14155b613a5057613a506150ba565b6001600160a01b0383166000908152603c6020526040902054600181111580613ae65750600c5460405163504f167160e01b81526001600160a01b038681166004830152600192169063504f167190602401602060405180830381865afa158015613abf573d6000803e3d6000fd5b505050506040513d601f19601f82011682018060405250810190613ae39190615069565b11155b15613b0457604051636d0c780760e11b815260040160405180910390fd5b6001600160a01b03808416600090815260356020908152604080832093881683529290522060038101805484919060ff19166001836004811115613b4a57613b4a614f02565b0217905550600060018083018290558183556001600160a01b038087168352603b60209081526040808520928a168552919052822082815590810191909155613b9486868561460f565b600c54604051637f7c149160e01b81526001600160a01b038881166004830152878116602483015290911690637f7c149190604401611861565b600080613bda846126ad565b90506000613be78561190b565b9050611ef9828286614326565b6001600160a01b03828116600081815260396020908152604080832054603a8352818420549587168452603b8352818420858552835292819020838155600181018690558151848152928301869052929493917fab91bee461c0d312c5595fb740744d5f01f42f2032cd4647b93d67fa9eedda15910160405180910390a25050505050565b306001600160a01b037f0000000000000000000000000000000000000000000000000000000000000000161480613d0057507f00000000000000000000000000000000000000000000000000000000000000006001600160a01b0316613cf4600080516020615137833981519152546001600160a01b031690565b6001600160a01b031614155b156123db5760405163703e46dd60e11b815260040160405180910390fd5b613629613683565b816001600160a01b03166352d1902d6040518163ffffffff1660e01b8152600401602060405180830381865afa925050508015613d80575060408051601f3d908101601f19168201909252613d7d91810190615069565b60015b613da857604051634c9c8ce360e01b81526001600160a01b0383166004820152602401612ba3565b6000805160206151378339815191528114613dd957604051632a87526960e21b815260048101829052602401612ba3565b6115e5838361486c565b306001600160a01b037f000000000000000000000000000000000000000000000000000000000000000016146123db5760405163703e46dd60e11b815260040160405180910390fd5b60015460405163c08261db60e01b81526001600160a01b038481166004830152600092169063c08261db90602401602060405180830381865afa158015613e77573d6000803e3d6000fd5b505050506040513d601f19601f82011682018060405250810190613e9b9190615069565b6115a89083614f72565b600080516020615157833981519152805460011901613ed757604051633ee5aeb560e01b815260040160405180910390fd5b60029055565b600160008051602061515783398151915255565b7f9016d09d72d40fdae2fd8ceac6b6234c7706214fd39c1cd1e609a0528c19930080546001600160a01b031981166001600160a01b03848116918217845560405192169182907f8be0079c531659141344cd1fd0a4f28419497f9722a3daafe3b4186f6b6457e090600090a3505050565b613f6a6148c2565b6136298161490b565b6123db6148c2565b613f836148c2565b6123db614913565b600080613f988484613bce565b60015460405163316a306d60e11b81526001600160a01b0387811660048301529293509116906362d460da90602401602060405180830381865afa158015613fe4573d6000803e3d6000fd5b505050506040513d601f19601f820116820180604052508101906140089190615069565b119392505050565b6001600160a01b038082166000908152603560209081526040808320938616835292815282822060028101546036909252928220805491929091614055908490614f72565b909155505060006002909101555050565b600554600954604051632770a7eb60e21b81526001600160a01b0392831692639dc29fac9261409c929116908690600401615050565b600060405180830381600087803b1580156140b657600080fd5b505af11580156140ca573d6000803e3d6000fd5b5050600054604051632fb9ba3160e01b81526001600160a01b039091169250632fb9ba3191506141009087908690600401615050565b600060405180830381600087803b15801561411a57600080fd5b505af115801561412e573d6000803e3d6000fd5b5050600354604051633fa5152d60e21b81526001600160a01b03909116925063fe9454b4915061416690879087908690600401614fd9565b600060405180830381600087803b15801561418057600080fd5b505af1158015614194573d6000803e3d6000fd5b50506000546003546040516347878f1560e01b81526001600160a01b0392831694506347878f1593506141cf92899216908690600401614fd9565b600060405180830381600087803b1580156141e957600080fd5b505af11580156141fd573d6000803e3d6000fd5b5050505050505050565b6000806000614216858561303f565b905060006142248686611298565b6001600160a01b038087166000908152603560209081526040808320938b168352928152828220835160a0810185528154815260018201549281019290925260028101549382019390935260038301549394509092909190606083019060ff16600481111561429557614295614f02565b60048111156142a6576142a6614f02565b81526003919091015461010090046001600160801b03166020918201528101519091506142d4908490614fc6565b81519095506142e4908390614fc6565b93505050509250929050565b6000811561431d578161430c68056bc75e2d6310000085614f85565b6143169190614fb2565b905061134e565b5060001961134e565b6000821561434e5760008361433b8487614f85565b6143459190614fb2565b91506115a89050565b506000196115a8565b600081831061436657816115a8565b5090919050565b6001600160a01b0381166000908152603460205260408120546143909042614f72565b9050603c8110611c2e576001600160a01b038216600081815260346020908152604091829020429081905591519182527f4b1a24436e474bd20ff461d446818e19b145a1ff52f698dec751807684621acc910160405180910390a25050565b6143f98282611a03565b614401575050565b600061440d838361303f565b9050600061441b8484611298565b6001600160a01b038085166000908152603560209081526040808320938916835292905220600181015491925090614454908490614fc6565b60018201558054614466908390614fc6565b81556144728585613bf4565b61447d8583856137fc565b8054600182015460028301546040516001600160a01b0380891694908a1693600080516020615117833981519152936144b893600090615011565b60405180910390a35050505050565b6001600160a01b0382166000908152603860205260408120548082036144ef5782915061452d565b6001600160a01b03841660009081526037602052604081205490819003614518576145186150ba565b816145238286614f85565b611ef99190614fb2565b5092915050565b6001600160a01b038116600090815260346020526040812054603c9061455a9042614f72565b61134e9190614fb2565b6000631f54050082111561457a57631f54050091505b816000036145915750670de0b6b3a764000061134e565b670de0b6b3a764000083835b6001811115614605576145b16002826150d0565b6000036145d6576145c2828361491b565b91506145cf600282614fb2565b905061459d565b6145e0828461491b565b92506145ec828361491b565b915060026145fb600183614f72565b6145cf9190614fb2565b611348828461491b565b6001600160a01b0380831660009081526035602090815260408083209387168352928152828220835160a08101855281548152600182015492810192909252600281015493820193909352600383015491929091606083019060ff16600481111561467c5761467c614f02565b600481111561468d5761468d614f02565b81526003919091015461010090046001600160801b031660209091015290506000816060015160048111156146c4576146c4614f02565b141580156146e857506001816060015160048111156146e5576146e5614f02565b14155b6146f4576146f46150ba565b6080810151826000614707600183614f72565b905080836001600160801b03161115614722576147226150ba565b6001600160a01b0387166000908152603c602052604081208054909190829084908110614751576147516150a4565b9060005260206000200160009054906101000a90046001600160a01b031690508082866001600160801b03168154811061478d5761478d6150a4565b600091825260208083209190910180546001600160a01b0319166001600160a01b03948516179055838316808352603582526040808420948e16808552948352928390206003018054610100600160881b0319166101006001600160801b038c16908102919091179091558351918252918101919091527f1db60184cd8151ac443301e990e6b7737de8e5b41a5d9093f95621606d6aa21e910160405180910390a28180548061483f5761483f6150e4565b600082815260209020810160001990810180546001600160a01b0319169055019055505050505050505050565b61487582614948565b6040516001600160a01b038316907fbc7cd75a20ee27fd9adebab32041f755214dbc6bffa90cc0225b39da2e5c2d3b90600090a28051156148ba576115e582826149ad565b611c2e614a1a565b7ff0c57e16840df040f15088dc2f81fe391c3923bec73e23a9662efc9c229c6a0054600160401b900460ff166123db57604051631afcd79f60e31b815260040160405180910390fd5b6135f66148c2565b613edd6148c2565b6000806149288385614f85565b9050670de0b6b3a764000061493e600282614fb2565b6139779083614fc6565b806001600160a01b03163b60000361497e57604051634c9c8ce360e01b81526001600160a01b0382166004820152602401612ba3565b60008051602061513783398151915280546001600160a01b0319166001600160a01b0392909216919091179055565b6060600080846001600160a01b0316846040516149ca91906150fa565b600060405180830381855af49150503d8060008114614a05576040519150601f19603f3d011682016040523d82523d6000602084013e614a0a565b606091505b5091509150611ef9858383614a39565b34156123db5760405163b398979f60e01b815260040160405180910390fd5b606082614a4e57614a4982614a95565b6115a8565b8151158015614a6557506001600160a01b0384163b155b15614a8e57604051639996b31560e01b81526001600160a01b0385166004820152602401612ba3565b50806115a8565b805115614aa55780518082602001fd5b604051630a12f52160e11b815260040160405180910390fd5b6001600160a01b038116811461362957600080fd5b600060208284031215614ae557600080fd5b81356115a881614abe565b60008060408385031215614b0357600080fd5b8235614b0e81614abe565b91506020830135614b1e81614abe565b809150509250929050565b600080600060608486031215614b3e57600080fd5b8335614b4981614abe565b92506020840135614b5981614abe565b929592945050506040919091013590565b600080600080600080600060e0888a031215614b8557600080fd5b8735614b9081614abe565b96506020880135614ba081614abe565b955060408801359450606088013593506080880135925060a0880135614bc581614abe565b915060c0880135614bd581614abe565b8091505092959891949750929550565b60008060408385031215614bf857600080fd5b8235614c0381614abe565b946020939093013593505050565b600080600060608486031215614c2657600080fd5b8335614c3181614abe565b95602085013595506040909401359392505050565b600080600080600060a08688031215614c5e57600080fd5b8535614c6981614abe565b94506020860135614c7981614abe565b94979496505050506040830135926060810135926080909101359150565b634e487b7160e01b600052604160045260246000fd5b60008060408385031215614cc057600080fd5b8235614ccb81614abe565b9150602083013567ffffffffffffffff80821115614ce857600080fd5b818501915085601f830112614cfc57600080fd5b813581811115614d0e57614d0e614c97565b604051601f8201601f19908116603f01168101908382118183101715614d3657614d36614c97565b81604052828152886020848701011115614d4f57600080fd5b8260208601602083013760006020848301015280955050505050509250929050565b600080600080600060a08688031215614d8957600080fd5b8535614d9481614abe565b97602087013597506040870135966060810135965060800135945092505050565b60005b83811015614dd0578181015183820152602001614db8565b50506000910152565b6020815260008251806020840152614df8816040850160208701614db5565b601f01601f19169190910160400192915050565b60008060008060808587031215614e2257600080fd5b8435614e2d81614abe565b93506020850135614e3d81614abe565b93969395505050506040820135916060013590565b60008060208385031215614e6557600080fd5b823567ffffffffffffffff80821115614e7d57600080fd5b818501915085601f830112614e9157600080fd5b813581811115614ea057600080fd5b8660208260051b8501011115614eb557600080fd5b60209290920196919550909350505050565b60008060008060808587031215614edd57600080fd5b8435614ee881614abe565b966020860135965060408601359560600135945092505050565b634e487b7160e01b600052602160045260246000fd5b858152602081018590526040810184905260a0810160058410614f3d57614f3d614f02565b8360608301526001600160801b03831660808301529695505050505050565b634e487b7160e01b600052601160045260246000fd5b8181038181111561134e5761134e614f5c565b808202811582820484141761134e5761134e614f5c565b634e487b7160e01b600052601260045260246000fd5b600082614fc157614fc1614f9c565b500490565b8082018082111561134e5761134e614f5c565b6001600160a01b039384168152919092166020820152604081019190915260600190565b6004811061500d5761500d614f02565b9052565b848152602081018490526040810183905260808101611ef96060830184614ffd565b60006020828403121561504557600080fd5b81516115a881614abe565b6001600160a01b03929092168252602082015260400190565b60006020828403121561507b57600080fd5b5051919050565b60006020828403121561509457600080fd5b815180151581146115a857600080fd5b634e487b7160e01b600052603260045260246000fd5b634e487b7160e01b600052600160045260246000fd5b6000826150df576150df614f9c565b500690565b634e487b7160e01b600052603160045260246000fd5b6000825161510c818460208701614db5565b919091019291505056fe7feef73802d9a37116f36078fbc66117c8cdb7b4c9bdddf51ee03257c786b32a360894a13ba1a3210667c828492db98dca3e2076cc3735a920a3ca505d382bbc9b779b17422d0df92223018b32b4d1fa46e071723d6817e2486d003becc55f00a164736f6c6343000817000a",
  "devdoc": {
    "errors": {
      "AddressEmptyCode(address)": [
        {
          "details": "There's no code at `target` (it is not a contract)."
        }
      ],
      "ERC1967InvalidImplementation(address)": [
        {
          "details": "The `implementation` of the proxy is invalid."
        }
      ],
      "ERC1967NonPayable()": [
        {
          "details": "An upgrade function sees `msg.value > 0` that may be lost."
        }
      ],
      "FailedInnerCall()": [
        {
          "details": "A call to an address target failed. The target may have reverted."
        }
      ],
      "InvalidInitialization()": [
        {
          "details": "The contract is already initialized."
        }
      ],
      "NotInitializing()": [
        {
          "details": "The contract is not initializing."
        }
      ],
      "OwnableInvalidOwner(address)": [
        {
          "details": "The owner is not a valid owner account. (eg. `address(0)`)"
        }
      ],
      "OwnableUnauthorizedAccount(address)": [
        {
          "details": "The caller account is not authorized to perform an operation."
        }
      ],
      "ReentrancyGuardReentrantCall()": [
        {
          "details": "Unauthorized reentrant call."
        }
      ],
      "UUPSUnauthorizedCallContext()": [
        {
          "details": "The call is from an unauthorized context."
        }
      ],
      "UUPSUnsupportedProxiableUUID(bytes32)": [
        {
          "details": "The storage `slot` is unsupported as a UUID."
        }
      ]
    },
    "events": {
      "Initialized(uint64)": {
        "details": "Triggered when the contract has been initialized or reinitialized."
      },
      "Upgraded(address)": {
        "details": "Emitted when the implementation is upgraded."
      }
    },
    "kind": "dev",
    "methods": {
      "owner()": {
        "details": "Returns the address of the current owner."
      },
      "proxiableUUID()": {
        "details": "Implementation of the ERC1822 {proxiableUUID} function. This returns the storage slot used by the implementation. It is used to validate the implementation's compatibility when performing an upgrade. IMPORTANT: A proxy pointing at a proxiable contract should not be considered proxiable itself, because this risks bricking a proxy that upgrades to it, by delegating to itself until out of gas. Thus it is critical that this function revert if invoked through a proxy. This is guaranteed by the `notDelegated` modifier."
      },
      "renounceOwnership()": {
        "details": "Leaves the contract without owner. It will not be possible to call `onlyOwner` functions. Can only be called by the current owner. NOTE: Renouncing ownership will leave the contract without an owner, thereby disabling any functionality that is only available to the owner."
      },
      "transferOwnership(address)": {
        "details": "Transfers ownership of the contract to a new account (`newOwner`). Can only be called by the current owner."
      },
      "upgradeToAndCall(address,bytes)": {
        "custom:oz-upgrades-unsafe-allow-reachable": "delegatecall",
        "details": "Upgrade the implementation of the proxy to `newImplementation`, and subsequently execute the function call encoded in `data`. Calls {_authorizeUpgrade}. Emits an {Upgraded} event."
      }
    },
    "version": 1
  },
  "userdoc": {
    "kind": "user",
    "methods": {},
    "version": 1
  },
  "storageLayout": {
    "storage": [
      {
        "astId": 10031,
        "contract": "contracts/TrenBoxManager.sol:TrenBoxManager",
        "label": "activePool",
        "offset": 0,
        "slot": "0",
        "type": "t_address"
      },
      {
        "astId": 10033,
        "contract": "contracts/TrenBoxManager.sol:TrenBoxManager",
        "label": "adminContract",
        "offset": 0,
        "slot": "1",
        "type": "t_address"
      },
      {
        "astId": 10035,
        "contract": "contracts/TrenBoxManager.sol:TrenBoxManager",
        "label": "borrowerOperations",
        "offset": 0,
        "slot": "2",
        "type": "t_address"
      },
      {
        "astId": 10037,
        "contract": "contracts/TrenBoxManager.sol:TrenBoxManager",
        "label": "collSurplusPool",
        "offset": 0,
        "slot": "3",
        "type": "t_address"
      },
      {
        "astId": 10039,
        "contract": "contracts/TrenBoxManager.sol:TrenBoxManager",
        "label": "communityIssuance",
        "offset": 0,
        "slot": "4",
        "type": "t_address"
      },
      {
        "astId": 10041,
        "contract": "contracts/TrenBoxManager.sol:TrenBoxManager",
        "label": "debtToken",
        "offset": 0,
        "slot": "5",
        "type": "t_address"
      },
      {
        "astId": 10043,
        "contract": "contracts/TrenBoxManager.sol:TrenBoxManager",
        "label": "defaultPool",
        "offset": 0,
        "slot": "6",
        "type": "t_address"
      },
      {
        "astId": 10045,
        "contract": "contracts/TrenBoxManager.sol:TrenBoxManager",
        "label": "feeCollector",
        "offset": 0,
        "slot": "7",
        "type": "t_address"
      },
      {
        "astId": 10047,
        "contract": "contracts/TrenBoxManager.sol:TrenBoxManager",
        "label": "flashLoanAddress",
        "offset": 0,
        "slot": "8",
        "type": "t_address"
      },
      {
        "astId": 10049,
        "contract": "contracts/TrenBoxManager.sol:TrenBoxManager",
        "label": "gasPoolAddress",
        "offset": 0,
        "slot": "9",
        "type": "t_address"
      },
      {
        "astId": 10051,
        "contract": "contracts/TrenBoxManager.sol:TrenBoxManager",
        "label": "trenStaking",
        "offset": 0,
        "slot": "10",
        "type": "t_address"
      },
      {
        "astId": 10053,
        "contract": "contracts/TrenBoxManager.sol:TrenBoxManager",
        "label": "priceFeed",
        "offset": 0,
        "slot": "11",
        "type": "t_address"
      },
      {
        "astId": 10055,
        "contract": "contracts/TrenBoxManager.sol:TrenBoxManager",
        "label": "sortedTrenBoxes",
        "offset": 0,
        "slot": "12",
        "type": "t_address"
      },
      {
        "astId": 10057,
        "contract": "contracts/TrenBoxManager.sol:TrenBoxManager",
        "label": "stabilityPool",
        "offset": 0,
        "slot": "13",
        "type": "t_address"
      },
      {
        "astId": 10059,
        "contract": "contracts/TrenBoxManager.sol:TrenBoxManager",
        "label": "timelockAddress",
        "offset": 0,
        "slot": "14",
        "type": "t_address"
      },
      {
        "astId": 10061,
        "contract": "contracts/TrenBoxManager.sol:TrenBoxManager",
        "label": "treasuryAddress",
        "offset": 0,
        "slot": "15",
        "type": "t_address"
      },
      {
        "astId": 10063,
        "contract": "contracts/TrenBoxManager.sol:TrenBoxManager",
        "label": "trenBoxManager",
        "offset": 0,
        "slot": "16",
        "type": "t_address"
      },
      {
        "astId": 10065,
        "contract": "contracts/TrenBoxManager.sol:TrenBoxManager",
        "label": "trenBoxManagerOperations",
        "offset": 0,
        "slot": "17",
        "type": "t_address"
      },
      {
        "astId": 10067,
        "contract": "contracts/TrenBoxManager.sol:TrenBoxManager",
        "label": "isAddressSetupInitialized",
        "offset": 20,
        "slot": "17",
        "type": "t_bool"
      },
      {
        "astId": 10072,
        "contract": "contracts/TrenBoxManager.sol:TrenBoxManager",
        "label": "__gap",
        "offset": 0,
        "slot": "18",
        "type": "t_array(t_uint256)33_storage"
      },
      {
        "astId": 22530,
        "contract": "contracts/TrenBoxManager.sol:TrenBoxManager",
        "label": "baseRate",
        "offset": 0,
        "slot": "51",
        "type": "t_mapping(t_address,t_uint256)"
      },
      {
        "astId": 22534,
        "contract": "contracts/TrenBoxManager.sol:TrenBoxManager",
        "label": "lastFeeOperationTime",
        "offset": 0,
        "slot": "52",
        "type": "t_mapping(t_address,t_uint256)"
      },
      {
        "astId": 22541,
        "contract": "contracts/TrenBoxManager.sol:TrenBoxManager",
        "label": "TrenBoxes",
        "offset": 0,
        "slot": "53",
        "type": "t_mapping(t_address,t_mapping(t_address,t_struct(TrenBox)14206_storage))"
      },
      {
        "astId": 22545,
        "contract": "contracts/TrenBoxManager.sol:TrenBoxManager",
        "label": "totalStakes",
        "offset": 0,
        "slot": "54",
        "type": "t_mapping(t_address,t_uint256)"
      },
      {
        "astId": 22549,
        "contract": "contracts/TrenBoxManager.sol:TrenBoxManager",
        "label": "totalStakesSnapshot",
        "offset": 0,
        "slot": "55",
        "type": "t_mapping(t_address,t_uint256)"
      },
      {
        "astId": 22553,
        "contract": "contracts/TrenBoxManager.sol:TrenBoxManager",
        "label": "totalCollateralSnapshot",
        "offset": 0,
        "slot": "56",
        "type": "t_mapping(t_address,t_uint256)"
      },
      {
        "astId": 22557,
        "contract": "contracts/TrenBoxManager.sol:TrenBoxManager",
        "label": "L_Colls",
        "offset": 0,
        "slot": "57",
        "type": "t_mapping(t_address,t_uint256)"
      },
      {
        "astId": 22561,
        "contract": "contracts/TrenBoxManager.sol:TrenBoxManager",
        "label": "L_Debts",
        "offset": 0,
        "slot": "58",
        "type": "t_mapping(t_address,t_uint256)"
      },
      {
        "astId": 22568,
        "contract": "contracts/TrenBoxManager.sol:TrenBoxManager",
        "label": "rewardSnapshots",
        "offset": 0,
        "slot": "59",
        "type": "t_mapping(t_address,t_mapping(t_address,t_struct(RewardSnapshot)22526_storage))"
      },
      {
        "astId": 22573,
        "contract": "contracts/TrenBoxManager.sol:TrenBoxManager",
        "label": "TrenBoxOwners",
        "offset": 0,
        "slot": "60",
        "type": "t_mapping(t_address,t_array(t_address)dyn_storage)"
      },
      {
        "astId": 22577,
        "contract": "contracts/TrenBoxManager.sol:TrenBoxManager",
        "label": "lastCollError_Redistribution",
        "offset": 0,
        "slot": "61",
        "type": "t_mapping(t_address,t_uint256)"
      },
      {
        "astId": 22581,
        "contract": "contracts/TrenBoxManager.sol:TrenBoxManager",
        "label": "lastDebtError_Redistribution",
        "offset": 0,
        "slot": "62",
        "type": "t_mapping(t_address,t_uint256)"
      }
    ],
    "types": {
      "t_address": {
        "encoding": "inplace",
        "label": "address",
        "numberOfBytes": "20"
      },
      "t_array(t_address)dyn_storage": {
        "base": "t_address",
        "encoding": "dynamic_array",
        "label": "address[]",
        "numberOfBytes": "32"
      },
      "t_array(t_uint256)33_storage": {
        "base": "t_uint256",
        "encoding": "inplace",
        "label": "uint256[33]",
        "numberOfBytes": "1056"
      },
      "t_bool": {
        "encoding": "inplace",
        "label": "bool",
        "numberOfBytes": "1"
      },
      "t_enum(Status)14114": {
        "encoding": "inplace",
        "label": "enum ITrenBoxManager.Status",
        "numberOfBytes": "1"
      },
      "t_mapping(t_address,t_array(t_address)dyn_storage)": {
        "encoding": "mapping",
        "key": "t_address",
        "label": "mapping(address => address[])",
        "numberOfBytes": "32",
        "value": "t_array(t_address)dyn_storage"
      },
      "t_mapping(t_address,t_mapping(t_address,t_struct(RewardSnapshot)22526_storage))": {
        "encoding": "mapping",
        "key": "t_address",
        "label": "mapping(address => mapping(address => struct TrenBoxManager.RewardSnapshot))",
        "numberOfBytes": "32",
        "value": "t_mapping(t_address,t_struct(RewardSnapshot)22526_storage)"
      },
      "t_mapping(t_address,t_mapping(t_address,t_struct(TrenBox)14206_storage))": {
        "encoding": "mapping",
        "key": "t_address",
        "label": "mapping(address => mapping(address => struct ITrenBoxManager.TrenBox))",
        "numberOfBytes": "32",
        "value": "t_mapping(t_address,t_struct(TrenBox)14206_storage)"
      },
      "t_mapping(t_address,t_struct(RewardSnapshot)22526_storage)": {
        "encoding": "mapping",
        "key": "t_address",
        "label": "mapping(address => struct TrenBoxManager.RewardSnapshot)",
        "numberOfBytes": "32",
        "value": "t_struct(RewardSnapshot)22526_storage"
      },
      "t_mapping(t_address,t_struct(TrenBox)14206_storage)": {
        "encoding": "mapping",
        "key": "t_address",
        "label": "mapping(address => struct ITrenBoxManager.TrenBox)",
        "numberOfBytes": "32",
        "value": "t_struct(TrenBox)14206_storage"
      },
      "t_mapping(t_address,t_uint256)": {
        "encoding": "mapping",
        "key": "t_address",
        "label": "mapping(address => uint256)",
        "numberOfBytes": "32",
        "value": "t_uint256"
      },
      "t_struct(RewardSnapshot)22526_storage": {
        "encoding": "inplace",
        "label": "struct TrenBoxManager.RewardSnapshot",
        "members": [
          {
            "astId": 22523,
            "contract": "contracts/TrenBoxManager.sol:TrenBoxManager",
            "label": "asset",
            "offset": 0,
            "slot": "0",
            "type": "t_uint256"
          },
          {
            "astId": 22525,
            "contract": "contracts/TrenBoxManager.sol:TrenBoxManager",
            "label": "debt",
            "offset": 0,
            "slot": "1",
            "type": "t_uint256"
          }
        ],
        "numberOfBytes": "64"
      },
      "t_struct(TrenBox)14206_storage": {
        "encoding": "inplace",
        "label": "struct ITrenBoxManager.TrenBox",
        "members": [
          {
            "astId": 14196,
            "contract": "contracts/TrenBoxManager.sol:TrenBoxManager",
            "label": "debt",
            "offset": 0,
            "slot": "0",
            "type": "t_uint256"
          },
          {
            "astId": 14198,
            "contract": "contracts/TrenBoxManager.sol:TrenBoxManager",
            "label": "coll",
            "offset": 0,
            "slot": "1",
            "type": "t_uint256"
          },
          {
            "astId": 14200,
            "contract": "contracts/TrenBoxManager.sol:TrenBoxManager",
            "label": "stake",
            "offset": 0,
            "slot": "2",
            "type": "t_uint256"
          },
          {
            "astId": 14203,
            "contract": "contracts/TrenBoxManager.sol:TrenBoxManager",
            "label": "status",
            "offset": 0,
            "slot": "3",
            "type": "t_enum(Status)14114"
          },
          {
            "astId": 14205,
            "contract": "contracts/TrenBoxManager.sol:TrenBoxManager",
            "label": "arrayIndex",
            "offset": 1,
            "slot": "3",
            "type": "t_uint128"
          }
        ],
        "numberOfBytes": "128"
      },
      "t_uint128": {
        "encoding": "inplace",
        "label": "uint128",
        "numberOfBytes": "16"
      },
      "t_uint256": {
        "encoding": "inplace",
        "label": "uint256",
        "numberOfBytes": "32"
      }
    }
  }
}